{
  "abi": [
    {
      "inputs": [],
      "stateMutability": "nonpayable",
      "type": "constructor"
    },
    {
      "anonymous": false,
      "inputs": [
        {
          "indexed": true,
          "internalType": "address",
          "name": "_owner",
          "type": "address"
        },
        {
          "indexed": true,
          "internalType": "address",
          "name": "_spender",
          "type": "address"
        },
        {
          "indexed": false,
          "internalType": "uint256",
          "name": "_value",
          "type": "uint256"
        }
      ],
      "name": "Approval",
      "type": "event"
    },
    {
      "anonymous": false,
      "inputs": [
        {
          "indexed": true,
          "internalType": "address",
          "name": "from",
          "type": "address"
        },
        {
          "indexed": false,
          "internalType": "uint256",
          "name": "epochCount",
          "type": "uint256"
        },
        {
          "indexed": false,
          "internalType": "bytes32",
          "name": "newChallengeNumber",
          "type": "bytes32"
        },
        {
          "indexed": false,
          "internalType": "uint256",
          "name": "NumberOfTokensMinted",
          "type": "uint256"
        },
        {
          "indexed": false,
          "internalType": "uint256",
          "name": "TokenMultipler",
          "type": "uint256"
        }
      ],
      "name": "MegaMint",
      "type": "event"
    },
    {
      "anonymous": false,
      "inputs": [
        {
          "indexed": true,
          "internalType": "address",
          "name": "from",
          "type": "address"
        },
        {
          "indexed": false,
          "internalType": "uint256",
          "name": "reward_amount",
          "type": "uint256"
        },
        {
          "indexed": false,
          "internalType": "uint256",
          "name": "epochCount",
          "type": "uint256"
        },
        {
          "indexed": false,
          "internalType": "bytes32",
          "name": "newChallengeNumber",
          "type": "bytes32"
        }
      ],
      "name": "Mint",
      "type": "event"
    },
    {
      "anonymous": false,
      "inputs": [
        {
          "indexed": true,
          "internalType": "address",
          "name": "_from",
          "type": "address"
        },
        {
          "indexed": true,
          "internalType": "address",
          "name": "_to",
          "type": "address"
        },
        {
          "indexed": false,
          "internalType": "uint256",
          "name": "_value",
          "type": "uint256"
        }
      ],
      "name": "Transfer",
      "type": "event"
    },
    {
      "anonymous": false,
      "inputs": [
        {
          "indexed": false,
          "internalType": "address",
          "name": "_from",
          "type": "address"
        },
        {
          "indexed": false,
          "internalType": "address",
          "name": "_to",
          "type": "address"
        }
      ],
      "name": "TransferOwnership",
      "type": "event"
    },
    {
      "stateMutability": "payable",
      "type": "fallback"
    },
    {
      "inputs": [],
      "name": "ARewardSender",
      "outputs": [],
      "stateMutability": "nonpayable",
      "type": "function"
    },
    {
      "inputs": [],
      "name": "AddressAuction",
      "outputs": [
        {
          "internalType": "address",
          "name": "",
          "type": "address"
        }
      ],
      "stateMutability": "view",
      "type": "function"
    },
    {
      "inputs": [],
      "name": "AddressLPReward",
      "outputs": [
        {
          "internalType": "address",
          "name": "",
          "type": "address"
        }
      ],
      "stateMutability": "view",
      "type": "function"
    },
    {
      "inputs": [],
      "name": "AddressZeroXBTC",
      "outputs": [
        {
          "internalType": "address",
          "name": "",
          "type": "address"
        }
      ],
      "stateMutability": "view",
      "type": "function"
    },
    {
      "inputs": [],
      "name": "Token2Per",
      "outputs": [
        {
          "internalType": "uint256",
          "name": "",
          "type": "uint256"
        }
      ],
      "stateMutability": "view",
      "type": "function"
    },
    {
      "inputs": [],
      "name": "_BLOCKS_PER_READJUSTMENT",
      "outputs": [
        {
          "internalType": "uint256",
          "name": "",
          "type": "uint256"
        }
      ],
      "stateMutability": "view",
      "type": "function"
    },
    {
      "inputs": [],
      "name": "_MAXIMUM_TARGET",
      "outputs": [
        {
          "internalType": "uint256",
          "name": "",
          "type": "uint256"
        }
      ],
      "stateMutability": "view",
      "type": "function"
    },
    {
      "inputs": [],
      "name": "_MINIMUM_TARGET",
      "outputs": [
        {
          "internalType": "uint256",
          "name": "",
          "type": "uint256"
        }
      ],
      "stateMutability": "view",
      "type": "function"
    },
    {
      "inputs": [
        {
          "internalType": "address",
          "name": "tokenOwner",
          "type": "address"
        },
        {
          "internalType": "address",
          "name": "spender",
          "type": "address"
        }
      ],
      "name": "allowance",
      "outputs": [
        {
          "internalType": "uint256",
          "name": "remaining",
          "type": "uint256"
        }
      ],
      "stateMutability": "view",
      "type": "function"
    },
    {
      "inputs": [
        {
          "internalType": "address",
          "name": "spender",
          "type": "address"
        },
        {
          "internalType": "uint256",
          "name": "tokens",
          "type": "uint256"
        }
      ],
      "name": "approve",
      "outputs": [
        {
          "internalType": "bool",
          "name": "success",
          "type": "bool"
        }
      ],
      "stateMutability": "nonpayable",
      "type": "function"
    },
    {
      "inputs": [
        {
          "internalType": "address",
          "name": "tokenOwner",
          "type": "address"
        }
      ],
      "name": "balanceOf",
      "outputs": [
        {
          "internalType": "uint256",
          "name": "balance",
          "type": "uint256"
        }
      ],
      "stateMutability": "view",
      "type": "function"
    },
    {
      "inputs": [],
      "name": "challengeNumber",
      "outputs": [
        {
          "internalType": "bytes32",
          "name": "",
          "type": "bytes32"
        }
      ],
      "stateMutability": "view",
      "type": "function"
    },
    {
      "inputs": [
        {
          "internalType": "uint256",
          "name": "nonce",
          "type": "uint256"
        },
        {
          "internalType": "bytes32",
          "name": "challenge_digest",
          "type": "bytes32"
        },
        {
          "internalType": "bytes32",
          "name": "challenge_number",
          "type": "bytes32"
        },
        {
          "internalType": "uint256",
          "name": "testTarget",
          "type": "uint256"
        }
      ],
      "name": "checkMintSolution",
      "outputs": [
        {
          "internalType": "bool",
          "name": "success",
          "type": "bool"
        }
      ],
      "stateMutability": "view",
      "type": "function"
    },
    {
      "inputs": [],
      "name": "decimals",
      "outputs": [
        {
          "internalType": "uint8",
          "name": "",
          "type": "uint8"
        }
      ],
      "stateMutability": "view",
      "type": "function"
    },
    {
      "inputs": [
        {
          "internalType": "uint256",
          "name": "nonce",
          "type": "uint256"
        },
        {
          "internalType": "bytes32",
          "name": "challenge_digest",
          "type": "bytes32"
        },
        {
          "internalType": "address[]",
          "name": "ExtraFunds",
          "type": "address[]"
        },
        {
          "internalType": "address[]",
          "name": "MintTo",
          "type": "address[]"
        }
      ],
      "name": "empty_mintTo",
      "outputs": [
        {
          "internalType": "uint256",
          "name": "owed",
          "type": "uint256"
        }
      ],
      "stateMutability": "nonpayable",
      "type": "function"
    },
    {
      "inputs": [],
      "name": "epochCount",
      "outputs": [
        {
          "internalType": "uint256",
          "name": "",
          "type": "uint256"
        }
      ],
      "stateMutability": "view",
      "type": "function"
    },
    {
      "inputs": [],
      "name": "getChallengeNumber",
      "outputs": [
        {
          "internalType": "bytes32",
          "name": "",
          "type": "bytes32"
        }
      ],
      "stateMutability": "view",
      "type": "function"
    },
    {
      "inputs": [],
      "name": "getEpoch",
      "outputs": [
        {
          "internalType": "uint256",
          "name": "",
          "type": "uint256"
        }
      ],
      "stateMutability": "view",
      "type": "function"
    },
    {
      "inputs": [],
      "name": "getMiningDifficulty",
      "outputs": [
        {
          "internalType": "uint256",
          "name": "",
          "type": "uint256"
        }
      ],
      "stateMutability": "view",
      "type": "function"
    },
    {
      "inputs": [],
      "name": "getMiningMinted",
      "outputs": [
        {
          "internalType": "uint256",
          "name": "",
          "type": "uint256"
        }
      ],
      "stateMutability": "view",
      "type": "function"
    },
    {
      "inputs": [],
      "name": "getMiningReward",
      "outputs": [
        {
          "internalType": "uint256",
          "name": "",
          "type": "uint256"
        }
      ],
      "stateMutability": "view",
      "type": "function"
    },
    {
      "inputs": [],
      "name": "getMiningTarget",
      "outputs": [
        {
          "internalType": "uint256",
          "name": "",
          "type": "uint256"
        }
      ],
      "stateMutability": "view",
      "type": "function"
    },
    {
      "inputs": [
        {
          "internalType": "uint256",
          "name": "nonce",
          "type": "uint256"
        },
        {
          "internalType": "bytes32",
          "name": "challenge_digest",
          "type": "bytes32"
        },
        {
          "internalType": "bytes32",
          "name": "challenge_number",
          "type": "bytes32"
        }
      ],
      "name": "getMintDigest",
      "outputs": [
        {
          "internalType": "bytes32",
          "name": "digesttest",
          "type": "bytes32"
        }
      ],
      "stateMutability": "view",
      "type": "function"
    },
    {
      "inputs": [],
      "name": "latestDifficultyPeriodStarted",
      "outputs": [
        {
          "internalType": "uint256",
          "name": "",
          "type": "uint256"
        }
      ],
      "stateMutability": "view",
      "type": "function"
    },
    {
      "inputs": [],
      "name": "latestDifficultyPeriodStarted2",
      "outputs": [
        {
          "internalType": "uint256",
          "name": "",
          "type": "uint256"
        }
      ],
      "stateMutability": "view",
      "type": "function"
    },
    {
      "inputs": [],
      "name": "maxSupplyForEra",
      "outputs": [
        {
          "internalType": "uint256",
          "name": "",
          "type": "uint256"
        }
      ],
      "stateMutability": "view",
      "type": "function"
    },
    {
      "inputs": [],
      "name": "miningTarget",
      "outputs": [
        {
          "internalType": "uint256",
          "name": "",
          "type": "uint256"
        }
      ],
      "stateMutability": "view",
      "type": "function"
    },
    {
      "inputs": [
        {
          "internalType": "uint256",
          "name": "nonce",
          "type": "uint256"
        },
        {
          "internalType": "bytes32",
          "name": "challenge_digest",
          "type": "bytes32"
        }
      ],
      "name": "mint",
      "outputs": [
        {
          "internalType": "bool",
          "name": "success",
          "type": "bool"
        }
      ],
      "stateMutability": "nonpayable",
      "type": "function"
    },
    {
      "inputs": [
        {
          "internalType": "uint256",
          "name": "nonce",
          "type": "uint256"
        },
        {
          "internalType": "bytes32",
          "name": "challenge_digest",
          "type": "bytes32"
        },
        {
          "internalType": "address",
          "name": "mintTo",
          "type": "address"
        }
      ],
      "name": "mintTo",
      "outputs": [
        {
          "internalType": "uint256",
          "name": "owed",
          "type": "uint256"
        }
      ],
      "stateMutability": "nonpayable",
      "type": "function"
    },
    {
      "inputs": [
        {
          "internalType": "uint256",
          "name": "nonce",
          "type": "uint256"
        },
        {
          "internalType": "bytes32",
          "name": "challenge_digest",
          "type": "bytes32"
        },
        {
          "internalType": "address[]",
          "name": "ExtraFunds",
          "type": "address[]"
        },
        {
          "internalType": "address[]",
          "name": "MintTo",
          "type": "address[]"
        }
      ],
      "name": "mintTokensArrayTo",
      "outputs": [
        {
          "internalType": "uint256",
          "name": "owed",
          "type": "uint256"
        }
      ],
      "stateMutability": "nonpayable",
      "type": "function"
    },
    {
      "inputs": [
        {
          "internalType": "uint256",
          "name": "nonce",
          "type": "uint256"
        },
        {
          "internalType": "bytes32",
          "name": "challenge_digest",
          "type": "bytes32"
        },
        {
          "internalType": "address[]",
          "name": "ExtraFunds",
          "type": "address[]"
        },
        {
          "internalType": "address",
          "name": "MintTo",
          "type": "address"
        }
      ],
      "name": "mintTokensSameAddress",
      "outputs": [
        {
          "internalType": "bool",
          "name": "success",
          "type": "bool"
        }
      ],
      "stateMutability": "nonpayable",
      "type": "function"
    },
    {
      "inputs": [],
      "name": "multipler",
      "outputs": [
        {
          "internalType": "uint256",
          "name": "",
          "type": "uint256"
        }
      ],
      "stateMutability": "view",
      "type": "function"
    },
    {
      "inputs": [],
      "name": "name",
      "outputs": [
        {
          "internalType": "string",
          "name": "",
          "type": "string"
        }
      ],
      "stateMutability": "view",
      "type": "function"
    },
    {
      "inputs": [],
      "name": "owner",
      "outputs": [
        {
          "internalType": "address",
          "name": "",
          "type": "address"
        }
      ],
      "stateMutability": "view",
      "type": "function"
    },
    {
      "inputs": [],
      "name": "previousBlockTime",
      "outputs": [
        {
          "internalType": "uint256",
          "name": "",
          "type": "uint256"
        }
      ],
      "stateMutability": "view",
      "type": "function"
    },
    {
      "inputs": [
        {
          "internalType": "address",
          "name": "from",
          "type": "address"
        },
        {
          "internalType": "uint256",
          "name": "tokens",
          "type": "uint256"
        },
        {
          "internalType": "address",
          "name": "token",
          "type": "address"
        },
        {
          "internalType": "bytes",
          "name": "data",
          "type": "bytes"
        }
      ],
      "name": "receiveApproval",
      "outputs": [],
      "stateMutability": "nonpayable",
      "type": "function"
    },
    {
      "inputs": [],
      "name": "rewardEra",
      "outputs": [
        {
          "internalType": "uint256",
          "name": "",
          "type": "uint256"
        }
      ],
      "stateMutability": "view",
      "type": "function"
    },
    {
      "inputs": [],
      "name": "reward_amount",
      "outputs": [
        {
          "internalType": "uint256",
          "name": "",
          "type": "uint256"
        }
      ],
      "stateMutability": "view",
      "type": "function"
    },
    {
      "inputs": [],
      "name": "symbol",
      "outputs": [
        {
          "internalType": "string",
          "name": "",
          "type": "string"
        }
      ],
      "stateMutability": "view",
      "type": "function"
    },
    {
      "inputs": [],
      "name": "targetTime",
      "outputs": [
        {
          "internalType": "uint256",
          "name": "",
          "type": "uint256"
        }
      ],
      "stateMutability": "view",
      "type": "function"
    },
    {
      "inputs": [],
      "name": "tokensMinted",
      "outputs": [
        {
          "internalType": "uint256",
          "name": "",
          "type": "uint256"
        }
      ],
      "stateMutability": "view",
      "type": "function"
    },
    {
      "inputs": [],
      "name": "totalSupply",
      "outputs": [
        {
          "internalType": "uint256",
          "name": "",
          "type": "uint256"
        }
      ],
      "stateMutability": "view",
      "type": "function"
    },
    {
      "inputs": [
        {
          "internalType": "address",
          "name": "to",
          "type": "address"
        },
        {
          "internalType": "uint256",
          "name": "tokens",
          "type": "uint256"
        }
      ],
      "name": "transfer",
      "outputs": [
        {
          "internalType": "bool",
          "name": "success",
          "type": "bool"
        }
      ],
      "stateMutability": "nonpayable",
      "type": "function"
    },
    {
      "inputs": [
        {
          "internalType": "address",
          "name": "from",
          "type": "address"
        },
        {
          "internalType": "address",
          "name": "to",
          "type": "address"
        },
        {
          "internalType": "uint256",
          "name": "tokens",
          "type": "uint256"
        }
      ],
      "name": "transferFrom",
      "outputs": [
        {
          "internalType": "bool",
          "name": "success",
          "type": "bool"
        }
      ],
      "stateMutability": "nonpayable",
      "type": "function"
    },
    {
      "inputs": [
        {
          "internalType": "address",
          "name": "AuctionAddress2",
          "type": "address"
        },
        {
          "internalType": "address",
          "name": "LPGuild2",
          "type": "address"
        },
        {
          "internalType": "address",
          "name": "_ZeroXBTCAddress",
          "type": "address"
        }
      ],
      "name": "zinit",
      "outputs": [],
      "stateMutability": "nonpayable",
      "type": "function"
    },
    {
      "stateMutability": "payable",
      "type": "receive"
    }
  ],
  "bytecode": "608060405260006001556a22bdd89dce55b0116400006005556a115eec47f6cf7e3500000060065542600755600060085561010060095562010000600a55600160ea1b600b556200006765048c27395000600b54620001f560201b62001f321790919060201c565b600c556200007760014362000308565b40600d556000600e55620000b9600e54600162000095919062000322565b620000a29060026200043a565b600654620001f560201b62001f321790919060201c565b600654620000c8919062000308565b600f5560006010819055601181905542601255670de0b6b3a76400006013556305f5e100601455620f42406015556058601655601a556001601b5560408051808201909152600580825264466f72676560d81b60209092019182526200013191601c916200024c565b5042601d5543601e55601f805460ff191690553480156200015157600080fd5b50600080546001600160a01b0319163390811782556040805192835260208301919091527f5c486528ec3e3f0ea91181cff8116f02bfa350e03b8b6f12e00765adbb5af85c910160405180910390a1336000818152601860209081526040808320670de0b6b3a76400009081905590519081527fddf252ad1be2c89b69c2b068fc378daa952ba7f163c4a11628f55a4df523b3ef910160405180910390a3620004a8565b600081620002375760405162461bcd60e51b815260206004820152600b60248201526a446976206279207a65726f60a81b604482015260640160405180910390fd5b62000243828462000448565b90505b92915050565b8280546200025a906200046b565b90600052602060002090601f0160209004810192826200027e5760008555620002c9565b82601f106200029957805160ff1916838001178555620002c9565b82800160010185558215620002c9579182015b82811115620002c9578251825591602001919060010190620002ac565b50620002d7929150620002db565b5090565b5b80821115620002d75760008155600101620002dc565b634e487b7160e01b600052601160045260246000fd5b6000828210156200031d576200031d620002f2565b500390565b60008219821115620003385762000338620002f2565b500190565b600181815b808511156200037e578160001904821115620003625762000362620002f2565b808516156200037057918102915b93841c939080029062000342565b509250929050565b600082620003975750600162000246565b81620003a65750600062000246565b8160018114620003bf5760028114620003ca57620003ea565b600191505062000246565b60ff841115620003de57620003de620002f2565b50506001821b62000246565b5060208310610133831016604e8410600b84101617156200040f575081810a62000246565b6200041b83836200033d565b8060001904821115620004325762000432620002f2565b029392505050565b600062000243838362000386565b6000826200046657634e487b7160e01b600052601260045260246000fd5b500490565b600181811c908216806200048057607f821691505b60208210811415620004a257634e487b7160e01b600052602260045260246000fd5b50919050565b612cfa80620004b86000396000f3fe6080604052600436106102765760003560e01c806381269a561161014f578063a68eb88e116100c1578063d0856d161161007a578063d0856d16146106fc578063dc6e9cf914610711578063dd62ed3e14610727578063ddfbd8dd1461076d578063e932012b1461078d578063f7a5f155146107a357600080fd5b8063a68eb88e14610665578063a9059cbb1461067b578063b5ade81b1461069b578063c0abebe0146106b1578063c8a1465c146106c6578063cb9ae707146106e657600080fd5b80638da5cb5b116101135780638da5cb5b146105a05780638f4ffcb1146105c057806394b939ef146105e057806395d89b411461060057806397566aa01461062f57806399f584b31461064f57600080fd5b806381269a5614610528578063829965cc1461054857806387a2a9d61461055e5780638a769d35146105745780638ae0368b1461058a57600080fd5b8063313ce567116101e85780634fa972e1116101ac5780634fa972e11461046f578063510de0941461048557806364e46726146104a55780636de9f32b146104c757806370a08231146104dd578063757991a81461051357600080fd5b8063313ce567146103f357806332e997081461041a57806345d8a2321461042f578063490203a7146104455780634ef376281461045a57600080fd5b806318160ddd1161023a57806318160ddd146103395780631fccb33c1461034f5780632381a60e1461036f57806323b872dd146103855780632d38bf7a146103a55780632f104e0c146103bb57600080fd5b806306fdde0314610285578063095ea7b3146102b057806310294317146102e057806317da485f146103045780631801fbe51461031957600080fd5b3661028057600080fd5b600080fd5b34801561029157600080fd5b5061029a6107c3565b6040516102a7919061252e565b60405180910390f35b3480156102bc57600080fd5b506102d06102cb36600461259f565b610851565b60405190151581526020016102a7565b3480156102ec57600080fd5b506102f660125481565b6040519081526020016102a7565b34801561031057600080fd5b506102f66108be565b34801561032557600080fd5b506102d06103343660046125c9565b6108dc565b34801561034557600080fd5b506102f660055481565b34801561035b57600080fd5b506102d061036a3660046126b9565b6108f0565b34801561037b57600080fd5b506102f660105481565b34801561039157600080fd5b506102d06103a036600461271a565b6109b3565b3480156103b157600080fd5b506102f6600e5481565b3480156103c757600080fd5b506003546103db906001600160a01b031681565b6040516001600160a01b0390911681526020016102a7565b3480156103ff57600080fd5b50610408601281565b60405160ff90911681526020016102a7565b34801561042657600080fd5b50600c546102f6565b34801561043b57600080fd5b506102f6610b4081565b34801561045157600080fd5b506102f6610ab1565b34801561046657600080fd5b50600d546102f6565b34801561047b57600080fd5b506102f6600f5481565b34801561049157600080fd5b506004546103db906001600160a01b031681565b3480156104b157600080fd5b506104c56104c0366004612756565b610ae2565b005b3480156104d357600080fd5b506102f660175481565b3480156104e957600080fd5b506102f66104f8366004612799565b6001600160a01b031660009081526018602052604090205490565b34801561051f57600080fd5b506008546102f6565b34801561053457600080fd5b506102d06105433660046127b4565b610c58565b34801561055457600080fd5b506102f660085481565b34801561056a57600080fd5b506102f6600b5481565b34801561058057600080fd5b506102f6600c5481565b34801561059657600080fd5b506102f6600d5481565b3480156105ac57600080fd5b506000546103db906001600160a01b031681565b3480156105cc57600080fd5b506104c56105db3660046127e6565b610ca3565b3480156105ec57600080fd5b506002546103db906001600160a01b031681565b34801561060c57600080fd5b5061029a6040518060400160405280600381526020016246676560e81b81525081565b34801561063b57600080fd5b506102f661064a3660046128a6565b610d30565b34801561065b57600080fd5b506102f660015481565b34801561067157600080fd5b506102f660155481565b34801561068757600080fd5b506102d061069636600461259f565b610d6b565b3480156106a757600080fd5b506102f660095481565b3480156106bd57600080fd5b506017546102f6565b3480156106d257600080fd5b506102f66106e13660046128d2565b610e02565b3480156106f257600080fd5b506102f6601e5481565b34801561070857600080fd5b506104c56112f9565b34801561071d57600080fd5b506102f6600a5481565b34801561073357600080fd5b506102f6610742366004612949565b6001600160a01b03918216600090815260196020908152604080832093909416825291909152205490565b34801561077957600080fd5b506102f661078836600461297c565b61154c565b34801561079957600080fd5b506102f660075481565b3480156107af57600080fd5b506102f66107be3660046128d2565b61195a565b601c80546107d0906129a8565b80601f01602080910402602001604051908101604052809291908181526020018280546107fc906129a8565b80156108495780601f1061081e57610100808354040283529160200191610849565b820191906000526020600020905b81548152906001019060200180831161082c57829003601f168201915b505050505081565b3360008181526019602090815260408083206001600160a01b038716808552925280832085905551919290917f8c5be1e5ebec7d5bd14f71427d1e84f3dd0314c0f7b2291e5b200ac8c7c3b925906108ac9086815260200190565b60405180910390a35060015b92915050565b60006108d7600c54600b54611f3290919063ffffffff16565b905090565b60006108e983833361154c565b5092915050565b6000808351600161090191906129f9565b67ffffffffffffffff811115610919576109196125eb565b604051908082528060200260200182016040528015610942578160200160208202803683370190505b50905060005b84516109559060016129f9565b811015610999578382828151811061096f5761096f612a11565b6001600160a01b03909216602092830291909101909101528061099181612a27565b915050610948565b506109a686868684610e02565b5060019695505050505050565b6001600160a01b0383166000908152601860205260408120546109d69083611f80565b6001600160a01b0385166000908152601860209081526040808320939093556019815282822033835290522054610a0d9083611f80565b6001600160a01b038086166000908152601960209081526040808320338452825280832094909455918616815260189091522054610a4b9083611fcc565b6001600160a01b0380851660008181526018602052604090819020939093559151908616907fddf252ad1be2c89b69c2b068fc378daa952ba7f163c4a11628f55a4df523b3ef90610a9f9086815260200190565b60405180910390a35060019392505050565b60006108d7600e546002610ac59190612b26565b610ad16012600a612b26565b610adc906064612b32565b90611f32565b6000546001600160a01b03163314610b2e5760405162461bcd60e51b815260206004820152600a60248201526937b7363c9037bbb732b960b11b60448201526064015b60405180910390fd5b601f546a115eec47f6cf7e350000009060ff1615610b4e57610b4e612b51565b601f805460ff1916600117905542601255600e54610b7190610ac5906002612b26565b6010556000600e8190556017819055600855600b54610b91906001611f32565b600c5542600755610ba061201a565b610bab600282612b7d565b6001600160a01b038516600081815260186020526040812092909255907fddf252ad1be2c89b69c2b068fc378daa952ba7f163c4a11628f55a4df523b3ef610bf4600285612b7d565b60405190815260200160405180910390a3600280546001600160a01b038087166001600160a01b031992831617909255600380548684169083161790556004805492851692909116919091179055600854601155610c52600061226b565b50505050565b600080833387604051602001610c7093929190612b91565b604051602081830303815290604052805190602001209050828160001c1115610c9857600080fd5b909314949350505050565b6001600160a01b0382163014610cb857600080fd5b60405163a9059cbb60e01b81526001600160a01b038516600482015260248101849052309063a9059cbb906044016020604051808303816000875af1158015610d05573d6000803e3d6000fd5b505050506040513d601f19601f82011682018060405250810190610d299190612bb9565b5050505050565b600080600d543386604051602001610d4a93929190612b91565b60408051808303601f19018152919052805160209091012095945050505050565b33600090815260186020526040812054610d859083611f80565b33600090815260186020526040808220929092556001600160a01b03851681522054610db19083611fcc565b6001600160a01b0384166000818152601860205260409081902092909255905133907fddf252ad1be2c89b69c2b068fc378daa952ba7f163c4a11628f55a4df523b3ef906108ac9086815260200190565b600080610e2a868685600081518110610e1d57610e1d612a11565b602002602001015161154c565b905060008111610e695760405162461bcd60e51b815260206004820152600a6024820152696d696e7420697373756560b01b6044820152606401610b25565b8351610e769060016129f9565b835114610eeb5760405162461bcd60e51b815260206004820152603a60248201527f4d696e74546f2068617320746f206861766520616e206578747261206164647260448201527f65737320636f6d706172656420746f20457874726146756e64730000000000006064820152608401610b25565b60005b84518110156110af57610f028160016129f9565b610f0d906002612b26565b600854610f1a9190612bdb565b15610f24576110af565b306001600160a01b0316858281518110610f4057610f40612a11565b60200260200101516001600160a01b031614158015610f91575060045485516001600160a01b0390911690869083908110610f7d57610f7d612a11565b60200260200101516001600160a01b031614155b610fdd5760405162461bcd60e51b815260206004820152601a60248201527f4e6f2062617365207072696e74696e67206f6620746f6b656e730000000000006044820152606401610b25565b6000610fea8260016129f9565b90505b855181101561109c5785828151811061100857611008612a11565b60200260200101516001600160a01b031686828151811061102b5761102b612a11565b60200260200101516001600160a01b0316141561108a5760405162461bcd60e51b815260206004820152601b60248201527f4e6f207072696e74696e67205468652073616d6520746f6b656e7300000000006044820152606401610b25565b8061109481612a27565b915050610fed565b50806110a781612a27565b915050610eee565b60008060005b8381101561129b576110c88160016129f9565b6110d3906002612b26565b6008546110e09190612bdb565b611289578781815181106110f6576110f6612a11565b60209081029190910101516040516370a0823160e01b81523060048201526001600160a01b03909116906370a0823190602401602060405180830381865afa158015611146573d6000803e3d6000fd5b505050506040513d601f19601f8201168201806040525081019061116a9190612bef565b915081156111c45761117d600382612bdb565b15801561118957508015155b156111ae576111a7643a352944006111a18785612b32565b9061231b565b92506111c4565b6111c1643a35294400610adc8785612b32565b92505b8781815181106111d6576111d6612a11565b60200260200101516001600160a01b031663a9059cbb888360016111fa91906129f9565b8151811061120a5761120a612a11565b6020026020010151856040518363ffffffff1660e01b81526004016112449291906001600160a01b03929092168252602082015260400190565b6020604051808303816000875af1158015611263573d6000803e3d6000fd5b505050506040513d601f19601f820116820180604052508101906112879190612bb9565b505b8061129381612a27565b9150506110b5565b50600854600d5460408051928352602083019190915281018490526060810185905233907f87e5a7775b8ac2ead741e32752431bffeff76ec5f347cc202a6bad454653930b9060800160405180910390a25091979650505050505050565b6000601d54426113099190612c08565b9050600060115460085461131d9190612c08565b9050600061132b8284612b7d565b905061133f600e546002610ac59190612b26565b6010556000611356610b406111a184610378612b32565b90506000610378611368836064612b32565b6113729190612b7d565b9050600060c88210156113c457611393610378610adc8563026f7f3c612b32565b6113b3620c08406113a5600287612c1f565b610adc906303a2cdf0612b32565b6113bd91906129f9565b90506113cb565b50631443fd005b60046009546015546113dd9190612b32565b6113e890603c612b32565b6113f29190612b7d565b600480546040516370a0823160e01b815230928101929092526001600160a01b0316906370a0823190602401602060405180830381865afa15801561143b573d6000803e3d6000fd5b505050506040513d601f19601f8201168201806040525081019061145f9190612bef565b111561153457600454600354601a546015546001600160a01b039384169363a9059cbb9316916114ae91630bebc200919061149a888d612b32565b6114a49190612b32565b610adc9190612b32565b6040516001600160e01b031960e085901b1681526001600160a01b03909216600483015260248201526044016020604051808303816000875af11580156114f9573d6000803e3d6000fd5b505050506040513d601f19601f8201168201806040525081019061151d9190612bb9565b50601b5461152c906001612b32565b601a5561153a565b6000601a555b5050600854601155505042601d555050565b600080600d54338660405160200161156693929190612b91565b60405160208183030381529060405280519060200120905083811461159d5760405162461bcd60e51b8152600401610b2590612c2e565b600c5481106115be5760405162461bcd60e51b8152600401610b2590612c7c565b6115c661201a565b601254421161160f5760405162461bcd60e51b81526020600482015260156024820152744e6f2073616d65207365636f6e6420736f6c76657360581b6044820152606401610b25565b6000610b40601254426116229190612c08565b61162e90610378612b32565b6116389190612b7d565b9050600061037861164a836064612b32565b6116549190612b7d565b9050600061013a82101561169957611676610378610adc8563026f7f3c612b32565b611688620c08406113a5600287612c1f565b61169291906129f9565b90506116be565b6116ad610378610adc856305f5e100612b32565b6116bb906314dc93806129f9565b90505b6116f66116d76305f5e10083601054610adc9190612b32565b6001600160a01b03881660009081526018602052604090205490611fcc565b6001600160a01b03871660009081526018602052604090205560105461174c9061172b90630bebc20090610adc908590612b32565b6003546001600160a01b031660009081526018602052604090205490611fcc565b6003546001600160a01b031660009081526018602052604090205560105461178c90611783906305f5e10090610adc908590612b32565b60175490611fcc565b60175542601255601a54156118ea5760c882101561184a57600454601a546015546001600160a01b039092169163a9059cbb9189916117d5916305f5e100916114a49088612b32565b6040516001600160e01b031960e085901b1681526001600160a01b03909216600483015260248201526044016020604051808303816000875af1158015611820573d6000803e3d6000fd5b505050506040513d601f19601f820116820180604052508101906118449190612bb9565b506118ea565b600454601a546015546001600160a01b039092169163a9059cbb91899161187991600a916114a4906022612b32565b6040516001600160e01b031960e085901b1681526001600160a01b03909216600483015260248201526044016020604051808303816000875af11580156118c4573d6000803e3d6000fd5b505050506040513d601f19601f820116820180604052508101906118e89190612bb9565b505b336001600160a01b03167fcf6fbb9dcea7d07263ab4f5c3a92f53af33dffc421d9d121e1c74b307e68189d61192b6305f5e10084601054610adc9190612b32565b600854600d546040805193845260208401929092529082015260600160405180910390a2979650505050505050565b600080600d54338760405160200161197493929190612b91565b6040516020818303038152906040528051906020012090508481146119ab5760405162461bcd60e51b8152600401610b2590612c2e565b600c5481106119cc5760405162461bcd60e51b8152600401610b2590612c7c565b6119d461201a565b6012544211611a1d5760405162461bcd60e51b81526020600482015260156024820152744e6f2073616d65207365636f6e6420736f6c76657360581b6044820152606401610b25565b8351835114611a945760405162461bcd60e51b815260206004820152603a60248201527f4d696e74546f2068617320746f20686176652073616d65206e756d626572206f60448201527f66206164647265737373657320617320457874726146756e64730000000000006064820152608401610b25565b60005b8451811015611c5857611aab8160016129f9565b611ab6906002612b26565b600854611ac39190612bdb565b15611acd57611c58565b306001600160a01b0316858281518110611ae957611ae9612a11565b60200260200101516001600160a01b031614158015611b3a575060045485516001600160a01b0390911690869083908110611b2657611b26612a11565b60200260200101516001600160a01b031614155b611b865760405162461bcd60e51b815260206004820152601a60248201527f4e6f2062617365207072696e74696e67206f6620746f6b656e730000000000006044820152606401610b25565b6000611b938260016129f9565b90505b8551811015611c4557858281518110611bb157611bb1612a11565b60200260200101516001600160a01b0316868281518110611bd457611bd4612a11565b60200260200101516001600160a01b03161415611c335760405162461bcd60e51b815260206004820152601b60248201527f4e6f207072696e74696e67205468652073616d6520746f6b656e7300000000006044820152606401610b25565b80611c3d81612a27565b915050611b96565b5080611c5081612a27565b915050611a97565b6000610b4060125442611c6b9190612c08565b611c7790610378612b32565b611c819190612b7d565b90506000610378611c93836064612b32565b611c9d9190612b7d565b9050600061013a821015611ce257611cbf610378610adc8563026f7f3c612b32565b611cd1620c08406113a5600287612c1f565b611cdb91906129f9565b9050611d07565b611cf6610378610adc856305f5e100612b32565b611d04906314dc93806129f9565b90505b60008111611d445760405162461bcd60e51b815260206004820152600a6024820152696d696e7420697373756560b01b6044820152606401610b25565b60008060005b86811015611f1e57611d5d8160016129f9565b611d68906002612b26565b600854611d759190612bdb565b611f0c578a8181518110611d8b57611d8b612a11565b60209081029190910101516040516370a0823160e01b81523060048201526001600160a01b03909116906370a0823190602401602060405180830381865afa158015611ddb573d6000803e3d6000fd5b505050506040513d601f19601f82011682018060405250810190611dff9190612bef565b91508115611f0c57611e12600382612bdb565b158015611e1e57508015155b15611e3d57611e36643a352944006111a18685612b32565b9250611e53565b611e50643a35294400610adc8685612b32565b92505b8a8181518110611e6557611e65612a11565b60200260200101516001600160a01b031663a9059cbb8b8381518110611e8d57611e8d612a11565b6020026020010151856040518363ffffffff1660e01b8152600401611ec79291906001600160a01b03929092168252602082015260400190565b6020604051808303816000875af1158015611ee6573d6000803e3d6000fd5b505050506040513d601f19601f82011682018060405250810190611f0a9190612bb9565b505b80611f1681612a27565b915050611d4a565b505042601255509998505050505050505050565b600081611f6f5760405162461bcd60e51b815260206004820152600b60248201526a446976206279207a65726f60a81b6044820152606401610b25565b611f798284612b7d565b9392505050565b600081831015611fc25760405162461bcd60e51b815260206004820152600d60248201526c53756220756e646572666c6f7760981b6044820152606401610b25565b611f798284612c08565b600080611fd983856129f9565b905083811015611f795760405162461bcd60e51b815260206004820152600c60248201526b416464206f766572666c6f7760a01b6044820152606401610b25565b600f5460105460175461202c91611fcc565b11801561203b5750603c600e54105b1561208757600e5461204e9060016129f9565b600e819055612076906120629060016129f9565b61206d906002612b26565b60065490611f32565b6006546120839190612c08565b600f555b600854612095906001611fcc565b6008556009546120a790600490612b7d565b6008546120b49190612bdb565b61225a576120c06112f9565b6120d2600e54600161206291906129f9565b6006546120df9190612c08565b600f556009546008546120f29190612bdb565b61225a57600480546040516370a0823160e01b81523092810192909252642e90edd000916001600160a01b03909116906370a0823190602401602060405180830381865afa158015612148573d6000803e3d6000fd5b505050506040513d601f19601f8201168201806040525081019061216c9190612bef565b6121769190612b7d565b600181905561218790612710612b32565b612193906127106129f9565b601554600480546040516370a0823160e01b815230928101929092526001600160a01b0316906370a0823190602401602060405180830381865afa1580156121df573d6000803e3d6000fd5b505050506040513d601f19601f820116820180604052508101906122039190612bef565b61220d9190612b7d565b1161224057601654601554612223906002611f32565b111561223b57601554612237906002611f32565b6015555b612252565b60155461224e906003612388565b6015555b61225a6123ed565b612265600143612c08565b40600d55565b6000546001600160a01b031633146122b25760405162461bcd60e51b815260206004820152600a60248201526937b7363c9037bbb732b960b11b6044820152606401610b25565b600054604080516001600160a01b03928316815291831660208301527f5c486528ec3e3f0ea91181cff8116f02bfa350e03b8b6f12e00765adbb5af85c910160405180910390a1600080546001600160a01b0319166001600160a01b0392909216919091179055565b6000816123585760405162461bcd60e51b815260206004820152600b60248201526a446976206279207a65726f60a81b6044820152606401610b25565b60006123648385612b7d565b90506123708385612bdb565b15611f79576123808160016129f9565b949350505050565b600082612397575060006108b8565b60006123a38385612b32565b9050826123b08583612b7d565b14611f795760405162461bcd60e51b815260206004820152600d60248201526c4d756c74206f766572666c6f7760981b6044820152606401610b25565b60075442906000906123ff9083612c08565b90506000600954610b406124139190612b32565b90508082101561248857600061242e83610adc846064612388565b6001601b559050600061244e6103e8612448846064611f80565b90612516565b905061247d6124748261246e6107d0600c54611f3290919063ffffffff16565b90612388565b600c5490611f80565b600c55506124e29050565b600061249982610adc856064612388565b6002601b55905060006124b36103e8612448846064611f80565b90506124dc6124d38261246e6101f4600c54611f3290919063ffffffff16565b600c5490611fcc565b600c5550505b600783905543601e55600a54600c5410156124fe57600a54600c555b600b54600c54111561251157600b54600c555b505050565b6000818311156125275750806108b8565b5090919050565b600060208083528351808285015260005b8181101561255b5785810183015185820160400152820161253f565b8181111561256d576000604083870101525b50601f01601f1916929092016040019392505050565b80356001600160a01b038116811461259a57600080fd5b919050565b600080604083850312156125b257600080fd5b6125bb83612583565b946020939093013593505050565b600080604083850312156125dc57600080fd5b50508035926020909101359150565b634e487b7160e01b600052604160045260246000fd5b604051601f8201601f1916810167ffffffffffffffff8111828210171561262a5761262a6125eb565b604052919050565b600082601f83011261264357600080fd5b8135602067ffffffffffffffff82111561265f5761265f6125eb565b8160051b61266e828201612601565b928352848101820192828101908785111561268857600080fd5b83870192505b848310156126ae5761269f83612583565b8252918301919083019061268e565b979650505050505050565b600080600080608085870312156126cf57600080fd5b8435935060208501359250604085013567ffffffffffffffff8111156126f457600080fd5b61270087828801612632565b92505061270f60608601612583565b905092959194509250565b60008060006060848603121561272f57600080fd5b61273884612583565b925061274660208501612583565b9150604084013590509250925092565b60008060006060848603121561276b57600080fd5b61277484612583565b925061278260208501612583565b915061279060408501612583565b90509250925092565b6000602082840312156127ab57600080fd5b611f7982612583565b600080600080608085870312156127ca57600080fd5b5050823594602084013594506040840135936060013592509050565b600080600080608085870312156127fc57600080fd5b61280585612583565b9350602080860135935061281b60408701612583565b9250606086013567ffffffffffffffff8082111561283857600080fd5b818801915088601f83011261284c57600080fd5b81358181111561285e5761285e6125eb565b612870601f8201601f19168501612601565b9150808252898482850101111561288657600080fd5b808484018584013760008482840101525080935050505092959194509250565b6000806000606084860312156128bb57600080fd5b505081359360208301359350604090920135919050565b600080600080608085870312156128e857600080fd5b8435935060208501359250604085013567ffffffffffffffff8082111561290e57600080fd5b61291a88838901612632565b9350606087013591508082111561293057600080fd5b5061293d87828801612632565b91505092959194509250565b6000806040838503121561295c57600080fd5b61296583612583565b915061297360208401612583565b90509250929050565b60008060006060848603121561299157600080fd5b833592506020840135915061279060408501612583565b600181811c908216806129bc57607f821691505b602082108114156129dd57634e487b7160e01b600052602260045260246000fd5b50919050565b634e487b7160e01b600052601160045260246000fd5b60008219821115612a0c57612a0c6129e3565b500190565b634e487b7160e01b600052603260045260246000fd5b6000600019821415612a3b57612a3b6129e3565b5060010190565b600181815b80851115612a7d578160001904821115612a6357612a636129e3565b80851615612a7057918102915b93841c9390800290612a47565b509250929050565b600082612a94575060016108b8565b81612aa1575060006108b8565b8160018114612ab75760028114612ac157612add565b60019150506108b8565b60ff841115612ad257612ad26129e3565b50506001821b6108b8565b5060208310610133831016604e8410600b8410161715612b00575081810a6108b8565b612b0a8383612a42565b8060001904821115612b1e57612b1e6129e3565b029392505050565b6000611f798383612a85565b6000816000190483118215151615612b4c57612b4c6129e3565b500290565b634e487b7160e01b600052600160045260246000fd5b634e487b7160e01b600052601260045260246000fd5b600082612b8c57612b8c612b67565b500490565b92835260609190911b6bffffffffffffffffffffffff19166020830152603482015260540190565b600060208284031215612bcb57600080fd5b81518015158114611f7957600080fd5b600082612bea57612bea612b67565b500690565b600060208284031215612c0157600080fd5b5051919050565b600082821015612c1a57612c1a6129e3565b500390565b6000611f7960ff841683612a85565b6020808252602e908201527f4f6c64206368616c6c656e67655f646967657374206f722077726f6e6720636860408201526d185b1b195b99d957d91a59d95cdd60921b606082015260800190565b60208082526028908201527f446967657374206d75737420626520736d616c6c6572207468616e206d696e696040820152671b99d5185c99d95d60c21b60608201526080019056fea2646970667358221220b202ed8424ee7ce6290a8007713b955aa16298f43ee27eaf26384943ad33ad5364736f6c634300080b0033",
  "bytecodeSha1": "641013a4461989c50c22187d686c334e52b66392",
  "compiler": {
    "evm_version": "istanbul",
    "optimizer": {
      "enabled": true,
      "runs": 200
    },
    "version": "0.8.11+commit.d7f03943"
  },
  "contractName": "Forge",
  "language": "Solidity",
  "natspec": {
    "kind": "dev",
    "methods": {},
    "version": 1
  },
  "opcodes": "PUSH1 0x80 PUSH1 0x40 MSTORE PUSH1 0x4 CALLDATASIZE LT PUSH2 0x276 JUMPI PUSH1 0x0 CALLDATALOAD PUSH1 0xE0 SHR DUP1 PUSH4 0x81269A56 GT PUSH2 0x14F JUMPI DUP1 PUSH4 0xA68EB88E GT PUSH2 0xC1 JUMPI DUP1 PUSH4 0xD0856D16 GT PUSH2 0x7A JUMPI DUP1 PUSH4 0xD0856D16 EQ PUSH2 0x6FC JUMPI DUP1 PUSH4 0xDC6E9CF9 EQ PUSH2 0x711 JUMPI DUP1 PUSH4 0xDD62ED3E EQ PUSH2 0x727 JUMPI DUP1 PUSH4 0xDDFBD8DD EQ PUSH2 0x76D JUMPI DUP1 PUSH4 0xE932012B EQ PUSH2 0x78D JUMPI DUP1 PUSH4 0xF7A5F155 EQ PUSH2 0x7A3 JUMPI PUSH1 0x0 DUP1 REVERT JUMPDEST DUP1 PUSH4 0xA68EB88E EQ PUSH2 0x665 JUMPI DUP1 PUSH4 0xA9059CBB EQ PUSH2 0x67B JUMPI DUP1 PUSH4 0xB5ADE81B EQ PUSH2 0x69B JUMPI DUP1 PUSH4 0xC0ABEBE0 EQ PUSH2 0x6B1 JUMPI DUP1 PUSH4 0xC8A1465C EQ PUSH2 0x6C6 JUMPI DUP1 PUSH4 0xCB9AE707 EQ PUSH2 0x6E6 JUMPI PUSH1 0x0 DUP1 REVERT JUMPDEST DUP1 PUSH4 0x8DA5CB5B GT PUSH2 0x113 JUMPI DUP1 PUSH4 0x8DA5CB5B EQ PUSH2 0x5A0 JUMPI DUP1 PUSH4 0x8F4FFCB1 EQ PUSH2 0x5C0 JUMPI DUP1 PUSH4 0x94B939EF EQ PUSH2 0x5E0 JUMPI DUP1 PUSH4 0x95D89B41 EQ PUSH2 0x600 JUMPI DUP1 PUSH4 0x97566AA0 EQ PUSH2 0x62F JUMPI DUP1 PUSH4 0x99F584B3 EQ PUSH2 0x64F JUMPI PUSH1 0x0 DUP1 REVERT JUMPDEST DUP1 PUSH4 0x81269A56 EQ PUSH2 0x528 JUMPI DUP1 PUSH4 0x829965CC EQ PUSH2 0x548 JUMPI DUP1 PUSH4 0x87A2A9D6 EQ PUSH2 0x55E JUMPI DUP1 PUSH4 0x8A769D35 EQ PUSH2 0x574 JUMPI DUP1 PUSH4 0x8AE0368B EQ PUSH2 0x58A JUMPI PUSH1 0x0 DUP1 REVERT JUMPDEST DUP1 PUSH4 0x313CE567 GT PUSH2 0x1E8 JUMPI DUP1 PUSH4 0x4FA972E1 GT PUSH2 0x1AC JUMPI DUP1 PUSH4 0x4FA972E1 EQ PUSH2 0x46F JUMPI DUP1 PUSH4 0x510DE094 EQ PUSH2 0x485 JUMPI DUP1 PUSH4 0x64E46726 EQ PUSH2 0x4A5 JUMPI DUP1 PUSH4 0x6DE9F32B EQ PUSH2 0x4C7 JUMPI DUP1 PUSH4 0x70A08231 EQ PUSH2 0x4DD JUMPI DUP1 PUSH4 0x757991A8 EQ PUSH2 0x513 JUMPI PUSH1 0x0 DUP1 REVERT JUMPDEST DUP1 PUSH4 0x313CE567 EQ PUSH2 0x3F3 JUMPI DUP1 PUSH4 0x32E99708 EQ PUSH2 0x41A JUMPI DUP1 PUSH4 0x45D8A232 EQ PUSH2 0x42F JUMPI DUP1 PUSH4 0x490203A7 EQ PUSH2 0x445 JUMPI DUP1 PUSH4 0x4EF37628 EQ PUSH2 0x45A JUMPI PUSH1 0x0 DUP1 REVERT JUMPDEST DUP1 PUSH4 0x18160DDD GT PUSH2 0x23A JUMPI DUP1 PUSH4 0x18160DDD EQ PUSH2 0x339 JUMPI DUP1 PUSH4 0x1FCCB33C EQ PUSH2 0x34F JUMPI DUP1 PUSH4 0x2381A60E EQ PUSH2 0x36F JUMPI DUP1 PUSH4 0x23B872DD EQ PUSH2 0x385 JUMPI DUP1 PUSH4 0x2D38BF7A EQ PUSH2 0x3A5 JUMPI DUP1 PUSH4 0x2F104E0C EQ PUSH2 0x3BB JUMPI PUSH1 0x0 DUP1 REVERT JUMPDEST DUP1 PUSH4 0x6FDDE03 EQ PUSH2 0x285 JUMPI DUP1 PUSH4 0x95EA7B3 EQ PUSH2 0x2B0 JUMPI DUP1 PUSH4 0x10294317 EQ PUSH2 0x2E0 JUMPI DUP1 PUSH4 0x17DA485F EQ PUSH2 0x304 JUMPI DUP1 PUSH4 0x1801FBE5 EQ PUSH2 0x319 JUMPI PUSH1 0x0 DUP1 REVERT JUMPDEST CALLDATASIZE PUSH2 0x280 JUMPI PUSH1 0x0 DUP1 REVERT JUMPDEST PUSH1 0x0 DUP1 REVERT JUMPDEST CALLVALUE DUP1 ISZERO PUSH2 0x291 JUMPI PUSH1 0x0 DUP1 REVERT JUMPDEST POP PUSH2 0x29A PUSH2 0x7C3 JUMP JUMPDEST PUSH1 0x40 MLOAD PUSH2 0x2A7 SWAP2 SWAP1 PUSH2 0x252E JUMP JUMPDEST PUSH1 0x40 MLOAD DUP1 SWAP2 SUB SWAP1 RETURN JUMPDEST CALLVALUE DUP1 ISZERO PUSH2 0x2BC JUMPI PUSH1 0x0 DUP1 REVERT JUMPDEST POP PUSH2 0x2D0 PUSH2 0x2CB CALLDATASIZE PUSH1 0x4 PUSH2 0x259F JUMP JUMPDEST PUSH2 0x851 JUMP JUMPDEST PUSH1 0x40 MLOAD SWAP1 ISZERO ISZERO DUP2 MSTORE PUSH1 0x20 ADD PUSH2 0x2A7 JUMP JUMPDEST CALLVALUE DUP1 ISZERO PUSH2 0x2EC JUMPI PUSH1 0x0 DUP1 REVERT JUMPDEST POP PUSH2 0x2F6 PUSH1 0x12 SLOAD DUP2 JUMP JUMPDEST PUSH1 0x40 MLOAD SWAP1 DUP2 MSTORE PUSH1 0x20 ADD PUSH2 0x2A7 JUMP JUMPDEST CALLVALUE DUP1 ISZERO PUSH2 0x310 JUMPI PUSH1 0x0 DUP1 REVERT JUMPDEST POP PUSH2 0x2F6 PUSH2 0x8BE JUMP JUMPDEST CALLVALUE DUP1 ISZERO PUSH2 0x325 JUMPI PUSH1 0x0 DUP1 REVERT JUMPDEST POP PUSH2 0x2D0 PUSH2 0x334 CALLDATASIZE PUSH1 0x4 PUSH2 0x25C9 JUMP JUMPDEST PUSH2 0x8DC JUMP JUMPDEST CALLVALUE DUP1 ISZERO PUSH2 0x345 JUMPI PUSH1 0x0 DUP1 REVERT JUMPDEST POP PUSH2 0x2F6 PUSH1 0x5 SLOAD DUP2 JUMP JUMPDEST CALLVALUE DUP1 ISZERO PUSH2 0x35B JUMPI PUSH1 0x0 DUP1 REVERT JUMPDEST POP PUSH2 0x2D0 PUSH2 0x36A CALLDATASIZE PUSH1 0x4 PUSH2 0x26B9 JUMP JUMPDEST PUSH2 0x8F0 JUMP JUMPDEST CALLVALUE DUP1 ISZERO PUSH2 0x37B JUMPI PUSH1 0x0 DUP1 REVERT JUMPDEST POP PUSH2 0x2F6 PUSH1 0x10 SLOAD DUP2 JUMP JUMPDEST CALLVALUE DUP1 ISZERO PUSH2 0x391 JUMPI PUSH1 0x0 DUP1 REVERT JUMPDEST POP PUSH2 0x2D0 PUSH2 0x3A0 CALLDATASIZE PUSH1 0x4 PUSH2 0x271A JUMP JUMPDEST PUSH2 0x9B3 JUMP JUMPDEST CALLVALUE DUP1 ISZERO PUSH2 0x3B1 JUMPI PUSH1 0x0 DUP1 REVERT JUMPDEST POP PUSH2 0x2F6 PUSH1 0xE SLOAD DUP2 JUMP JUMPDEST CALLVALUE DUP1 ISZERO PUSH2 0x3C7 JUMPI PUSH1 0x0 DUP1 REVERT JUMPDEST POP PUSH1 0x3 SLOAD PUSH2 0x3DB SWAP1 PUSH1 0x1 PUSH1 0x1 PUSH1 0xA0 SHL SUB AND DUP2 JUMP JUMPDEST PUSH1 0x40 MLOAD PUSH1 0x1 PUSH1 0x1 PUSH1 0xA0 SHL SUB SWAP1 SWAP2 AND DUP2 MSTORE PUSH1 0x20 ADD PUSH2 0x2A7 JUMP JUMPDEST CALLVALUE DUP1 ISZERO PUSH2 0x3FF JUMPI PUSH1 0x0 DUP1 REVERT JUMPDEST POP PUSH2 0x408 PUSH1 0x12 DUP2 JUMP JUMPDEST PUSH1 0x40 MLOAD PUSH1 0xFF SWAP1 SWAP2 AND DUP2 MSTORE PUSH1 0x20 ADD PUSH2 0x2A7 JUMP JUMPDEST CALLVALUE DUP1 ISZERO PUSH2 0x426 JUMPI PUSH1 0x0 DUP1 REVERT JUMPDEST POP PUSH1 0xC SLOAD PUSH2 0x2F6 JUMP JUMPDEST CALLVALUE DUP1 ISZERO PUSH2 0x43B JUMPI PUSH1 0x0 DUP1 REVERT JUMPDEST POP PUSH2 0x2F6 PUSH2 0xB40 DUP2 JUMP JUMPDEST CALLVALUE DUP1 ISZERO PUSH2 0x451 JUMPI PUSH1 0x0 DUP1 REVERT JUMPDEST POP PUSH2 0x2F6 PUSH2 0xAB1 JUMP JUMPDEST CALLVALUE DUP1 ISZERO PUSH2 0x466 JUMPI PUSH1 0x0 DUP1 REVERT JUMPDEST POP PUSH1 0xD SLOAD PUSH2 0x2F6 JUMP JUMPDEST CALLVALUE DUP1 ISZERO PUSH2 0x47B JUMPI PUSH1 0x0 DUP1 REVERT JUMPDEST POP PUSH2 0x2F6 PUSH1 0xF SLOAD DUP2 JUMP JUMPDEST CALLVALUE DUP1 ISZERO PUSH2 0x491 JUMPI PUSH1 0x0 DUP1 REVERT JUMPDEST POP PUSH1 0x4 SLOAD PUSH2 0x3DB SWAP1 PUSH1 0x1 PUSH1 0x1 PUSH1 0xA0 SHL SUB AND DUP2 JUMP JUMPDEST CALLVALUE DUP1 ISZERO PUSH2 0x4B1 JUMPI PUSH1 0x0 DUP1 REVERT JUMPDEST POP PUSH2 0x4C5 PUSH2 0x4C0 CALLDATASIZE PUSH1 0x4 PUSH2 0x2756 JUMP JUMPDEST PUSH2 0xAE2 JUMP JUMPDEST STOP JUMPDEST CALLVALUE DUP1 ISZERO PUSH2 0x4D3 JUMPI PUSH1 0x0 DUP1 REVERT JUMPDEST POP PUSH2 0x2F6 PUSH1 0x17 SLOAD DUP2 JUMP JUMPDEST CALLVALUE DUP1 ISZERO PUSH2 0x4E9 JUMPI PUSH1 0x0 DUP1 REVERT JUMPDEST POP PUSH2 0x2F6 PUSH2 0x4F8 CALLDATASIZE PUSH1 0x4 PUSH2 0x2799 JUMP JUMPDEST PUSH1 0x1 PUSH1 0x1 PUSH1 0xA0 SHL SUB AND PUSH1 0x0 SWAP1 DUP2 MSTORE PUSH1 0x18 PUSH1 0x20 MSTORE PUSH1 0x40 SWAP1 KECCAK256 SLOAD SWAP1 JUMP JUMPDEST CALLVALUE DUP1 ISZERO PUSH2 0x51F JUMPI PUSH1 0x0 DUP1 REVERT JUMPDEST POP PUSH1 0x8 SLOAD PUSH2 0x2F6 JUMP JUMPDEST CALLVALUE DUP1 ISZERO PUSH2 0x534 JUMPI PUSH1 0x0 DUP1 REVERT JUMPDEST POP PUSH2 0x2D0 PUSH2 0x543 CALLDATASIZE PUSH1 0x4 PUSH2 0x27B4 JUMP JUMPDEST PUSH2 0xC58 JUMP JUMPDEST CALLVALUE DUP1 ISZERO PUSH2 0x554 JUMPI PUSH1 0x0 DUP1 REVERT JUMPDEST POP PUSH2 0x2F6 PUSH1 0x8 SLOAD DUP2 JUMP JUMPDEST CALLVALUE DUP1 ISZERO PUSH2 0x56A JUMPI PUSH1 0x0 DUP1 REVERT JUMPDEST POP PUSH2 0x2F6 PUSH1 0xB SLOAD DUP2 JUMP JUMPDEST CALLVALUE DUP1 ISZERO PUSH2 0x580 JUMPI PUSH1 0x0 DUP1 REVERT JUMPDEST POP PUSH2 0x2F6 PUSH1 0xC SLOAD DUP2 JUMP JUMPDEST CALLVALUE DUP1 ISZERO PUSH2 0x596 JUMPI PUSH1 0x0 DUP1 REVERT JUMPDEST POP PUSH2 0x2F6 PUSH1 0xD SLOAD DUP2 JUMP JUMPDEST CALLVALUE DUP1 ISZERO PUSH2 0x5AC JUMPI PUSH1 0x0 DUP1 REVERT JUMPDEST POP PUSH1 0x0 SLOAD PUSH2 0x3DB SWAP1 PUSH1 0x1 PUSH1 0x1 PUSH1 0xA0 SHL SUB AND DUP2 JUMP JUMPDEST CALLVALUE DUP1 ISZERO PUSH2 0x5CC JUMPI PUSH1 0x0 DUP1 REVERT JUMPDEST POP PUSH2 0x4C5 PUSH2 0x5DB CALLDATASIZE PUSH1 0x4 PUSH2 0x27E6 JUMP JUMPDEST PUSH2 0xCA3 JUMP JUMPDEST CALLVALUE DUP1 ISZERO PUSH2 0x5EC JUMPI PUSH1 0x0 DUP1 REVERT JUMPDEST POP PUSH1 0x2 SLOAD PUSH2 0x3DB SWAP1 PUSH1 0x1 PUSH1 0x1 PUSH1 0xA0 SHL SUB AND DUP2 JUMP JUMPDEST CALLVALUE DUP1 ISZERO PUSH2 0x60C JUMPI PUSH1 0x0 DUP1 REVERT JUMPDEST POP PUSH2 0x29A PUSH1 0x40 MLOAD DUP1 PUSH1 0x40 ADD PUSH1 0x40 MSTORE DUP1 PUSH1 0x3 DUP2 MSTORE PUSH1 0x20 ADD PUSH3 0x466765 PUSH1 0xE8 SHL DUP2 MSTORE POP DUP2 JUMP JUMPDEST CALLVALUE DUP1 ISZERO PUSH2 0x63B JUMPI PUSH1 0x0 DUP1 REVERT JUMPDEST POP PUSH2 0x2F6 PUSH2 0x64A CALLDATASIZE PUSH1 0x4 PUSH2 0x28A6 JUMP JUMPDEST PUSH2 0xD30 JUMP JUMPDEST CALLVALUE DUP1 ISZERO PUSH2 0x65B JUMPI PUSH1 0x0 DUP1 REVERT JUMPDEST POP PUSH2 0x2F6 PUSH1 0x1 SLOAD DUP2 JUMP JUMPDEST CALLVALUE DUP1 ISZERO PUSH2 0x671 JUMPI PUSH1 0x0 DUP1 REVERT JUMPDEST POP PUSH2 0x2F6 PUSH1 0x15 SLOAD DUP2 JUMP JUMPDEST CALLVALUE DUP1 ISZERO PUSH2 0x687 JUMPI PUSH1 0x0 DUP1 REVERT JUMPDEST POP PUSH2 0x2D0 PUSH2 0x696 CALLDATASIZE PUSH1 0x4 PUSH2 0x259F JUMP JUMPDEST PUSH2 0xD6B JUMP JUMPDEST CALLVALUE DUP1 ISZERO PUSH2 0x6A7 JUMPI PUSH1 0x0 DUP1 REVERT JUMPDEST POP PUSH2 0x2F6 PUSH1 0x9 SLOAD DUP2 JUMP JUMPDEST CALLVALUE DUP1 ISZERO PUSH2 0x6BD JUMPI PUSH1 0x0 DUP1 REVERT JUMPDEST POP PUSH1 0x17 SLOAD PUSH2 0x2F6 JUMP JUMPDEST CALLVALUE DUP1 ISZERO PUSH2 0x6D2 JUMPI PUSH1 0x0 DUP1 REVERT JUMPDEST POP PUSH2 0x2F6 PUSH2 0x6E1 CALLDATASIZE PUSH1 0x4 PUSH2 0x28D2 JUMP JUMPDEST PUSH2 0xE02 JUMP JUMPDEST CALLVALUE DUP1 ISZERO PUSH2 0x6F2 JUMPI PUSH1 0x0 DUP1 REVERT JUMPDEST POP PUSH2 0x2F6 PUSH1 0x1E SLOAD DUP2 JUMP JUMPDEST CALLVALUE DUP1 ISZERO PUSH2 0x708 JUMPI PUSH1 0x0 DUP1 REVERT JUMPDEST POP PUSH2 0x4C5 PUSH2 0x12F9 JUMP JUMPDEST CALLVALUE DUP1 ISZERO PUSH2 0x71D JUMPI PUSH1 0x0 DUP1 REVERT JUMPDEST POP PUSH2 0x2F6 PUSH1 0xA SLOAD DUP2 JUMP JUMPDEST CALLVALUE DUP1 ISZERO PUSH2 0x733 JUMPI PUSH1 0x0 DUP1 REVERT JUMPDEST POP PUSH2 0x2F6 PUSH2 0x742 CALLDATASIZE PUSH1 0x4 PUSH2 0x2949 JUMP JUMPDEST PUSH1 0x1 PUSH1 0x1 PUSH1 0xA0 SHL SUB SWAP2 DUP3 AND PUSH1 0x0 SWAP1 DUP2 MSTORE PUSH1 0x19 PUSH1 0x20 SWAP1 DUP2 MSTORE PUSH1 0x40 DUP1 DUP4 KECCAK256 SWAP4 SWAP1 SWAP5 AND DUP3 MSTORE SWAP2 SWAP1 SWAP2 MSTORE KECCAK256 SLOAD SWAP1 JUMP JUMPDEST CALLVALUE DUP1 ISZERO PUSH2 0x779 JUMPI PUSH1 0x0 DUP1 REVERT JUMPDEST POP PUSH2 0x2F6 PUSH2 0x788 CALLDATASIZE PUSH1 0x4 PUSH2 0x297C JUMP JUMPDEST PUSH2 0x154C JUMP JUMPDEST CALLVALUE DUP1 ISZERO PUSH2 0x799 JUMPI PUSH1 0x0 DUP1 REVERT JUMPDEST POP PUSH2 0x2F6 PUSH1 0x7 SLOAD DUP2 JUMP JUMPDEST CALLVALUE DUP1 ISZERO PUSH2 0x7AF JUMPI PUSH1 0x0 DUP1 REVERT JUMPDEST POP PUSH2 0x2F6 PUSH2 0x7BE CALLDATASIZE PUSH1 0x4 PUSH2 0x28D2 JUMP JUMPDEST PUSH2 0x195A JUMP JUMPDEST PUSH1 0x1C DUP1 SLOAD PUSH2 0x7D0 SWAP1 PUSH2 0x29A8 JUMP JUMPDEST DUP1 PUSH1 0x1F ADD PUSH1 0x20 DUP1 SWAP2 DIV MUL PUSH1 0x20 ADD PUSH1 0x40 MLOAD SWAP1 DUP2 ADD PUSH1 0x40 MSTORE DUP1 SWAP3 SWAP2 SWAP1 DUP2 DUP2 MSTORE PUSH1 0x20 ADD DUP3 DUP1 SLOAD PUSH2 0x7FC SWAP1 PUSH2 0x29A8 JUMP JUMPDEST DUP1 ISZERO PUSH2 0x849 JUMPI DUP1 PUSH1 0x1F LT PUSH2 0x81E JUMPI PUSH2 0x100 DUP1 DUP4 SLOAD DIV MUL DUP4 MSTORE SWAP2 PUSH1 0x20 ADD SWAP2 PUSH2 0x849 JUMP JUMPDEST DUP3 ADD SWAP2 SWAP1 PUSH1 0x0 MSTORE PUSH1 0x20 PUSH1 0x0 KECCAK256 SWAP1 JUMPDEST DUP2 SLOAD DUP2 MSTORE SWAP1 PUSH1 0x1 ADD SWAP1 PUSH1 0x20 ADD DUP1 DUP4 GT PUSH2 0x82C JUMPI DUP3 SWAP1 SUB PUSH1 0x1F AND DUP3 ADD SWAP2 JUMPDEST POP POP POP POP POP DUP2 JUMP JUMPDEST CALLER PUSH1 0x0 DUP2 DUP2 MSTORE PUSH1 0x19 PUSH1 0x20 SWAP1 DUP2 MSTORE PUSH1 0x40 DUP1 DUP4 KECCAK256 PUSH1 0x1 PUSH1 0x1 PUSH1 0xA0 SHL SUB DUP8 AND DUP1 DUP6 MSTORE SWAP3 MSTORE DUP1 DUP4 KECCAK256 DUP6 SWAP1 SSTORE MLOAD SWAP2 SWAP3 SWAP1 SWAP2 PUSH32 0x8C5BE1E5EBEC7D5BD14F71427D1E84F3DD0314C0F7B2291E5B200AC8C7C3B925 SWAP1 PUSH2 0x8AC SWAP1 DUP7 DUP2 MSTORE PUSH1 0x20 ADD SWAP1 JUMP JUMPDEST PUSH1 0x40 MLOAD DUP1 SWAP2 SUB SWAP1 LOG3 POP PUSH1 0x1 JUMPDEST SWAP3 SWAP2 POP POP JUMP JUMPDEST PUSH1 0x0 PUSH2 0x8D7 PUSH1 0xC SLOAD PUSH1 0xB SLOAD PUSH2 0x1F32 SWAP1 SWAP2 SWAP1 PUSH4 0xFFFFFFFF AND JUMP JUMPDEST SWAP1 POP SWAP1 JUMP JUMPDEST PUSH1 0x0 PUSH2 0x8E9 DUP4 DUP4 CALLER PUSH2 0x154C JUMP JUMPDEST POP SWAP3 SWAP2 POP POP JUMP JUMPDEST PUSH1 0x0 DUP1 DUP4 MLOAD PUSH1 0x1 PUSH2 0x901 SWAP2 SWAP1 PUSH2 0x29F9 JUMP JUMPDEST PUSH8 0xFFFFFFFFFFFFFFFF DUP2 GT ISZERO PUSH2 0x919 JUMPI PUSH2 0x919 PUSH2 0x25EB JUMP JUMPDEST PUSH1 0x40 MLOAD SWAP1 DUP1 DUP3 MSTORE DUP1 PUSH1 0x20 MUL PUSH1 0x20 ADD DUP3 ADD PUSH1 0x40 MSTORE DUP1 ISZERO PUSH2 0x942 JUMPI DUP2 PUSH1 0x20 ADD PUSH1 0x20 DUP3 MUL DUP1 CALLDATASIZE DUP4 CALLDATACOPY ADD SWAP1 POP JUMPDEST POP SWAP1 POP PUSH1 0x0 JUMPDEST DUP5 MLOAD PUSH2 0x955 SWAP1 PUSH1 0x1 PUSH2 0x29F9 JUMP JUMPDEST DUP2 LT ISZERO PUSH2 0x999 JUMPI DUP4 DUP3 DUP3 DUP2 MLOAD DUP2 LT PUSH2 0x96F JUMPI PUSH2 0x96F PUSH2 0x2A11 JUMP JUMPDEST PUSH1 0x1 PUSH1 0x1 PUSH1 0xA0 SHL SUB SWAP1 SWAP3 AND PUSH1 0x20 SWAP3 DUP4 MUL SWAP2 SWAP1 SWAP2 ADD SWAP1 SWAP2 ADD MSTORE DUP1 PUSH2 0x991 DUP2 PUSH2 0x2A27 JUMP JUMPDEST SWAP2 POP POP PUSH2 0x948 JUMP JUMPDEST POP PUSH2 0x9A6 DUP7 DUP7 DUP7 DUP5 PUSH2 0xE02 JUMP JUMPDEST POP PUSH1 0x1 SWAP7 SWAP6 POP POP POP POP POP POP JUMP JUMPDEST PUSH1 0x1 PUSH1 0x1 PUSH1 0xA0 SHL SUB DUP4 AND PUSH1 0x0 SWAP1 DUP2 MSTORE PUSH1 0x18 PUSH1 0x20 MSTORE PUSH1 0x40 DUP2 KECCAK256 SLOAD PUSH2 0x9D6 SWAP1 DUP4 PUSH2 0x1F80 JUMP JUMPDEST PUSH1 0x1 PUSH1 0x1 PUSH1 0xA0 SHL SUB DUP6 AND PUSH1 0x0 SWAP1 DUP2 MSTORE PUSH1 0x18 PUSH1 0x20 SWAP1 DUP2 MSTORE PUSH1 0x40 DUP1 DUP4 KECCAK256 SWAP4 SWAP1 SWAP4 SSTORE PUSH1 0x19 DUP2 MSTORE DUP3 DUP3 KECCAK256 CALLER DUP4 MSTORE SWAP1 MSTORE KECCAK256 SLOAD PUSH2 0xA0D SWAP1 DUP4 PUSH2 0x1F80 JUMP JUMPDEST PUSH1 0x1 PUSH1 0x1 PUSH1 0xA0 SHL SUB DUP1 DUP7 AND PUSH1 0x0 SWAP1 DUP2 MSTORE PUSH1 0x19 PUSH1 0x20 SWAP1 DUP2 MSTORE PUSH1 0x40 DUP1 DUP4 KECCAK256 CALLER DUP5 MSTORE DUP3 MSTORE DUP1 DUP4 KECCAK256 SWAP5 SWAP1 SWAP5 SSTORE SWAP2 DUP7 AND DUP2 MSTORE PUSH1 0x18 SWAP1 SWAP2 MSTORE KECCAK256 SLOAD PUSH2 0xA4B SWAP1 DUP4 PUSH2 0x1FCC JUMP JUMPDEST PUSH1 0x1 PUSH1 0x1 PUSH1 0xA0 SHL SUB DUP1 DUP6 AND PUSH1 0x0 DUP2 DUP2 MSTORE PUSH1 0x18 PUSH1 0x20 MSTORE PUSH1 0x40 SWAP1 DUP2 SWAP1 KECCAK256 SWAP4 SWAP1 SWAP4 SSTORE SWAP2 MLOAD SWAP1 DUP7 AND SWAP1 PUSH32 0xDDF252AD1BE2C89B69C2B068FC378DAA952BA7F163C4A11628F55A4DF523B3EF SWAP1 PUSH2 0xA9F SWAP1 DUP7 DUP2 MSTORE PUSH1 0x20 ADD SWAP1 JUMP JUMPDEST PUSH1 0x40 MLOAD DUP1 SWAP2 SUB SWAP1 LOG3 POP PUSH1 0x1 SWAP4 SWAP3 POP POP POP JUMP JUMPDEST PUSH1 0x0 PUSH2 0x8D7 PUSH1 0xE SLOAD PUSH1 0x2 PUSH2 0xAC5 SWAP2 SWAP1 PUSH2 0x2B26 JUMP JUMPDEST PUSH2 0xAD1 PUSH1 0x12 PUSH1 0xA PUSH2 0x2B26 JUMP JUMPDEST PUSH2 0xADC SWAP1 PUSH1 0x64 PUSH2 0x2B32 JUMP JUMPDEST SWAP1 PUSH2 0x1F32 JUMP JUMPDEST PUSH1 0x0 SLOAD PUSH1 0x1 PUSH1 0x1 PUSH1 0xA0 SHL SUB AND CALLER EQ PUSH2 0xB2E JUMPI PUSH1 0x40 MLOAD PUSH3 0x461BCD PUSH1 0xE5 SHL DUP2 MSTORE PUSH1 0x20 PUSH1 0x4 DUP3 ADD MSTORE PUSH1 0xA PUSH1 0x24 DUP3 ADD MSTORE PUSH10 0x37B7363C9037BBB732B9 PUSH1 0xB1 SHL PUSH1 0x44 DUP3 ADD MSTORE PUSH1 0x64 ADD JUMPDEST PUSH1 0x40 MLOAD DUP1 SWAP2 SUB SWAP1 REVERT JUMPDEST PUSH1 0x1F SLOAD PUSH11 0x115EEC47F6CF7E35000000 SWAP1 PUSH1 0xFF AND ISZERO PUSH2 0xB4E JUMPI PUSH2 0xB4E PUSH2 0x2B51 JUMP JUMPDEST PUSH1 0x1F DUP1 SLOAD PUSH1 0xFF NOT AND PUSH1 0x1 OR SWAP1 SSTORE TIMESTAMP PUSH1 0x12 SSTORE PUSH1 0xE SLOAD PUSH2 0xB71 SWAP1 PUSH2 0xAC5 SWAP1 PUSH1 0x2 PUSH2 0x2B26 JUMP JUMPDEST PUSH1 0x10 SSTORE PUSH1 0x0 PUSH1 0xE DUP2 SWAP1 SSTORE PUSH1 0x17 DUP2 SWAP1 SSTORE PUSH1 0x8 SSTORE PUSH1 0xB SLOAD PUSH2 0xB91 SWAP1 PUSH1 0x1 PUSH2 0x1F32 JUMP JUMPDEST PUSH1 0xC SSTORE TIMESTAMP PUSH1 0x7 SSTORE PUSH2 0xBA0 PUSH2 0x201A JUMP JUMPDEST PUSH2 0xBAB PUSH1 0x2 DUP3 PUSH2 0x2B7D JUMP JUMPDEST PUSH1 0x1 PUSH1 0x1 PUSH1 0xA0 SHL SUB DUP6 AND PUSH1 0x0 DUP2 DUP2 MSTORE PUSH1 0x18 PUSH1 0x20 MSTORE PUSH1 0x40 DUP2 KECCAK256 SWAP3 SWAP1 SWAP3 SSTORE SWAP1 PUSH32 0xDDF252AD1BE2C89B69C2B068FC378DAA952BA7F163C4A11628F55A4DF523B3EF PUSH2 0xBF4 PUSH1 0x2 DUP6 PUSH2 0x2B7D JUMP JUMPDEST PUSH1 0x40 MLOAD SWAP1 DUP2 MSTORE PUSH1 0x20 ADD PUSH1 0x40 MLOAD DUP1 SWAP2 SUB SWAP1 LOG3 PUSH1 0x2 DUP1 SLOAD PUSH1 0x1 PUSH1 0x1 PUSH1 0xA0 SHL SUB DUP1 DUP8 AND PUSH1 0x1 PUSH1 0x1 PUSH1 0xA0 SHL SUB NOT SWAP3 DUP4 AND OR SWAP1 SWAP3 SSTORE PUSH1 0x3 DUP1 SLOAD DUP7 DUP5 AND SWAP1 DUP4 AND OR SWAP1 SSTORE PUSH1 0x4 DUP1 SLOAD SWAP3 DUP6 AND SWAP3 SWAP1 SWAP2 AND SWAP2 SWAP1 SWAP2 OR SWAP1 SSTORE PUSH1 0x8 SLOAD PUSH1 0x11 SSTORE PUSH2 0xC52 PUSH1 0x0 PUSH2 0x226B JUMP JUMPDEST POP POP POP POP JUMP JUMPDEST PUSH1 0x0 DUP1 DUP4 CALLER DUP8 PUSH1 0x40 MLOAD PUSH1 0x20 ADD PUSH2 0xC70 SWAP4 SWAP3 SWAP2 SWAP1 PUSH2 0x2B91 JUMP JUMPDEST PUSH1 0x40 MLOAD PUSH1 0x20 DUP2 DUP4 SUB SUB DUP2 MSTORE SWAP1 PUSH1 0x40 MSTORE DUP1 MLOAD SWAP1 PUSH1 0x20 ADD KECCAK256 SWAP1 POP DUP3 DUP2 PUSH1 0x0 SHR GT ISZERO PUSH2 0xC98 JUMPI PUSH1 0x0 DUP1 REVERT JUMPDEST SWAP1 SWAP4 EQ SWAP5 SWAP4 POP POP POP POP JUMP JUMPDEST PUSH1 0x1 PUSH1 0x1 PUSH1 0xA0 SHL SUB DUP3 AND ADDRESS EQ PUSH2 0xCB8 JUMPI PUSH1 0x0 DUP1 REVERT JUMPDEST PUSH1 0x40 MLOAD PUSH4 0xA9059CBB PUSH1 0xE0 SHL DUP2 MSTORE PUSH1 0x1 PUSH1 0x1 PUSH1 0xA0 SHL SUB DUP6 AND PUSH1 0x4 DUP3 ADD MSTORE PUSH1 0x24 DUP2 ADD DUP5 SWAP1 MSTORE ADDRESS SWAP1 PUSH4 0xA9059CBB SWAP1 PUSH1 0x44 ADD PUSH1 0x20 PUSH1 0x40 MLOAD DUP1 DUP4 SUB DUP2 PUSH1 0x0 DUP8 GAS CALL ISZERO DUP1 ISZERO PUSH2 0xD05 JUMPI RETURNDATASIZE PUSH1 0x0 DUP1 RETURNDATACOPY RETURNDATASIZE PUSH1 0x0 REVERT JUMPDEST POP POP POP POP PUSH1 0x40 MLOAD RETURNDATASIZE PUSH1 0x1F NOT PUSH1 0x1F DUP3 ADD AND DUP3 ADD DUP1 PUSH1 0x40 MSTORE POP DUP2 ADD SWAP1 PUSH2 0xD29 SWAP2 SWAP1 PUSH2 0x2BB9 JUMP JUMPDEST POP POP POP POP POP JUMP JUMPDEST PUSH1 0x0 DUP1 PUSH1 0xD SLOAD CALLER DUP7 PUSH1 0x40 MLOAD PUSH1 0x20 ADD PUSH2 0xD4A SWAP4 SWAP3 SWAP2 SWAP1 PUSH2 0x2B91 JUMP JUMPDEST PUSH1 0x40 DUP1 MLOAD DUP1 DUP4 SUB PUSH1 0x1F NOT ADD DUP2 MSTORE SWAP2 SWAP1 MSTORE DUP1 MLOAD PUSH1 0x20 SWAP1 SWAP2 ADD KECCAK256 SWAP6 SWAP5 POP POP POP POP POP JUMP JUMPDEST CALLER PUSH1 0x0 SWAP1 DUP2 MSTORE PUSH1 0x18 PUSH1 0x20 MSTORE PUSH1 0x40 DUP2 KECCAK256 SLOAD PUSH2 0xD85 SWAP1 DUP4 PUSH2 0x1F80 JUMP JUMPDEST CALLER PUSH1 0x0 SWAP1 DUP2 MSTORE PUSH1 0x18 PUSH1 0x20 MSTORE PUSH1 0x40 DUP1 DUP3 KECCAK256 SWAP3 SWAP1 SWAP3 SSTORE PUSH1 0x1 PUSH1 0x1 PUSH1 0xA0 SHL SUB DUP6 AND DUP2 MSTORE KECCAK256 SLOAD PUSH2 0xDB1 SWAP1 DUP4 PUSH2 0x1FCC JUMP JUMPDEST PUSH1 0x1 PUSH1 0x1 PUSH1 0xA0 SHL SUB DUP5 AND PUSH1 0x0 DUP2 DUP2 MSTORE PUSH1 0x18 PUSH1 0x20 MSTORE PUSH1 0x40 SWAP1 DUP2 SWAP1 KECCAK256 SWAP3 SWAP1 SWAP3 SSTORE SWAP1 MLOAD CALLER SWAP1 PUSH32 0xDDF252AD1BE2C89B69C2B068FC378DAA952BA7F163C4A11628F55A4DF523B3EF SWAP1 PUSH2 0x8AC SWAP1 DUP7 DUP2 MSTORE PUSH1 0x20 ADD SWAP1 JUMP JUMPDEST PUSH1 0x0 DUP1 PUSH2 0xE2A DUP7 DUP7 DUP6 PUSH1 0x0 DUP2 MLOAD DUP2 LT PUSH2 0xE1D JUMPI PUSH2 0xE1D PUSH2 0x2A11 JUMP JUMPDEST PUSH1 0x20 MUL PUSH1 0x20 ADD ADD MLOAD PUSH2 0x154C JUMP JUMPDEST SWAP1 POP PUSH1 0x0 DUP2 GT PUSH2 0xE69 JUMPI PUSH1 0x40 MLOAD PUSH3 0x461BCD PUSH1 0xE5 SHL DUP2 MSTORE PUSH1 0x20 PUSH1 0x4 DUP3 ADD MSTORE PUSH1 0xA PUSH1 0x24 DUP3 ADD MSTORE PUSH10 0x6D696E74206973737565 PUSH1 0xB0 SHL PUSH1 0x44 DUP3 ADD MSTORE PUSH1 0x64 ADD PUSH2 0xB25 JUMP JUMPDEST DUP4 MLOAD PUSH2 0xE76 SWAP1 PUSH1 0x1 PUSH2 0x29F9 JUMP JUMPDEST DUP4 MLOAD EQ PUSH2 0xEEB JUMPI PUSH1 0x40 MLOAD PUSH3 0x461BCD PUSH1 0xE5 SHL DUP2 MSTORE PUSH1 0x20 PUSH1 0x4 DUP3 ADD MSTORE PUSH1 0x3A PUSH1 0x24 DUP3 ADD MSTORE PUSH32 0x4D696E74546F2068617320746F206861766520616E2065787472612061646472 PUSH1 0x44 DUP3 ADD MSTORE PUSH32 0x65737320636F6D706172656420746F20457874726146756E6473000000000000 PUSH1 0x64 DUP3 ADD MSTORE PUSH1 0x84 ADD PUSH2 0xB25 JUMP JUMPDEST PUSH1 0x0 JUMPDEST DUP5 MLOAD DUP2 LT ISZERO PUSH2 0x10AF JUMPI PUSH2 0xF02 DUP2 PUSH1 0x1 PUSH2 0x29F9 JUMP JUMPDEST PUSH2 0xF0D SWAP1 PUSH1 0x2 PUSH2 0x2B26 JUMP JUMPDEST PUSH1 0x8 SLOAD PUSH2 0xF1A SWAP2 SWAP1 PUSH2 0x2BDB JUMP JUMPDEST ISZERO PUSH2 0xF24 JUMPI PUSH2 0x10AF JUMP JUMPDEST ADDRESS PUSH1 0x1 PUSH1 0x1 PUSH1 0xA0 SHL SUB AND DUP6 DUP3 DUP2 MLOAD DUP2 LT PUSH2 0xF40 JUMPI PUSH2 0xF40 PUSH2 0x2A11 JUMP JUMPDEST PUSH1 0x20 MUL PUSH1 0x20 ADD ADD MLOAD PUSH1 0x1 PUSH1 0x1 PUSH1 0xA0 SHL SUB AND EQ ISZERO DUP1 ISZERO PUSH2 0xF91 JUMPI POP PUSH1 0x4 SLOAD DUP6 MLOAD PUSH1 0x1 PUSH1 0x1 PUSH1 0xA0 SHL SUB SWAP1 SWAP2 AND SWAP1 DUP7 SWAP1 DUP4 SWAP1 DUP2 LT PUSH2 0xF7D JUMPI PUSH2 0xF7D PUSH2 0x2A11 JUMP JUMPDEST PUSH1 0x20 MUL PUSH1 0x20 ADD ADD MLOAD PUSH1 0x1 PUSH1 0x1 PUSH1 0xA0 SHL SUB AND EQ ISZERO JUMPDEST PUSH2 0xFDD JUMPI PUSH1 0x40 MLOAD PUSH3 0x461BCD PUSH1 0xE5 SHL DUP2 MSTORE PUSH1 0x20 PUSH1 0x4 DUP3 ADD MSTORE PUSH1 0x1A PUSH1 0x24 DUP3 ADD MSTORE PUSH32 0x4E6F2062617365207072696E74696E67206F6620746F6B656E73000000000000 PUSH1 0x44 DUP3 ADD MSTORE PUSH1 0x64 ADD PUSH2 0xB25 JUMP JUMPDEST PUSH1 0x0 PUSH2 0xFEA DUP3 PUSH1 0x1 PUSH2 0x29F9 JUMP JUMPDEST SWAP1 POP JUMPDEST DUP6 MLOAD DUP2 LT ISZERO PUSH2 0x109C JUMPI DUP6 DUP3 DUP2 MLOAD DUP2 LT PUSH2 0x1008 JUMPI PUSH2 0x1008 PUSH2 0x2A11 JUMP JUMPDEST PUSH1 0x20 MUL PUSH1 0x20 ADD ADD MLOAD PUSH1 0x1 PUSH1 0x1 PUSH1 0xA0 SHL SUB AND DUP7 DUP3 DUP2 MLOAD DUP2 LT PUSH2 0x102B JUMPI PUSH2 0x102B PUSH2 0x2A11 JUMP JUMPDEST PUSH1 0x20 MUL PUSH1 0x20 ADD ADD MLOAD PUSH1 0x1 PUSH1 0x1 PUSH1 0xA0 SHL SUB AND EQ ISZERO PUSH2 0x108A JUMPI PUSH1 0x40 MLOAD PUSH3 0x461BCD PUSH1 0xE5 SHL DUP2 MSTORE PUSH1 0x20 PUSH1 0x4 DUP3 ADD MSTORE PUSH1 0x1B PUSH1 0x24 DUP3 ADD MSTORE PUSH32 0x4E6F207072696E74696E67205468652073616D6520746F6B656E730000000000 PUSH1 0x44 DUP3 ADD MSTORE PUSH1 0x64 ADD PUSH2 0xB25 JUMP JUMPDEST DUP1 PUSH2 0x1094 DUP2 PUSH2 0x2A27 JUMP JUMPDEST SWAP2 POP POP PUSH2 0xFED JUMP JUMPDEST POP DUP1 PUSH2 0x10A7 DUP2 PUSH2 0x2A27 JUMP JUMPDEST SWAP2 POP POP PUSH2 0xEEE JUMP JUMPDEST PUSH1 0x0 DUP1 PUSH1 0x0 JUMPDEST DUP4 DUP2 LT ISZERO PUSH2 0x129B JUMPI PUSH2 0x10C8 DUP2 PUSH1 0x1 PUSH2 0x29F9 JUMP JUMPDEST PUSH2 0x10D3 SWAP1 PUSH1 0x2 PUSH2 0x2B26 JUMP JUMPDEST PUSH1 0x8 SLOAD PUSH2 0x10E0 SWAP2 SWAP1 PUSH2 0x2BDB JUMP JUMPDEST PUSH2 0x1289 JUMPI DUP8 DUP2 DUP2 MLOAD DUP2 LT PUSH2 0x10F6 JUMPI PUSH2 0x10F6 PUSH2 0x2A11 JUMP JUMPDEST PUSH1 0x20 SWAP1 DUP2 MUL SWAP2 SWAP1 SWAP2 ADD ADD MLOAD PUSH1 0x40 MLOAD PUSH4 0x70A08231 PUSH1 0xE0 SHL DUP2 MSTORE ADDRESS PUSH1 0x4 DUP3 ADD MSTORE PUSH1 0x1 PUSH1 0x1 PUSH1 0xA0 SHL SUB SWAP1 SWAP2 AND SWAP1 PUSH4 0x70A08231 SWAP1 PUSH1 0x24 ADD PUSH1 0x20 PUSH1 0x40 MLOAD DUP1 DUP4 SUB DUP2 DUP7 GAS STATICCALL ISZERO DUP1 ISZERO PUSH2 0x1146 JUMPI RETURNDATASIZE PUSH1 0x0 DUP1 RETURNDATACOPY RETURNDATASIZE PUSH1 0x0 REVERT JUMPDEST POP POP POP POP PUSH1 0x40 MLOAD RETURNDATASIZE PUSH1 0x1F NOT PUSH1 0x1F DUP3 ADD AND DUP3 ADD DUP1 PUSH1 0x40 MSTORE POP DUP2 ADD SWAP1 PUSH2 0x116A SWAP2 SWAP1 PUSH2 0x2BEF JUMP JUMPDEST SWAP2 POP DUP2 ISZERO PUSH2 0x11C4 JUMPI PUSH2 0x117D PUSH1 0x3 DUP3 PUSH2 0x2BDB JUMP JUMPDEST ISZERO DUP1 ISZERO PUSH2 0x1189 JUMPI POP DUP1 ISZERO ISZERO JUMPDEST ISZERO PUSH2 0x11AE JUMPI PUSH2 0x11A7 PUSH5 0x3A35294400 PUSH2 0x11A1 DUP8 DUP6 PUSH2 0x2B32 JUMP JUMPDEST SWAP1 PUSH2 0x231B JUMP JUMPDEST SWAP3 POP PUSH2 0x11C4 JUMP JUMPDEST PUSH2 0x11C1 PUSH5 0x3A35294400 PUSH2 0xADC DUP8 DUP6 PUSH2 0x2B32 JUMP JUMPDEST SWAP3 POP JUMPDEST DUP8 DUP2 DUP2 MLOAD DUP2 LT PUSH2 0x11D6 JUMPI PUSH2 0x11D6 PUSH2 0x2A11 JUMP JUMPDEST PUSH1 0x20 MUL PUSH1 0x20 ADD ADD MLOAD PUSH1 0x1 PUSH1 0x1 PUSH1 0xA0 SHL SUB AND PUSH4 0xA9059CBB DUP9 DUP4 PUSH1 0x1 PUSH2 0x11FA SWAP2 SWAP1 PUSH2 0x29F9 JUMP JUMPDEST DUP2 MLOAD DUP2 LT PUSH2 0x120A JUMPI PUSH2 0x120A PUSH2 0x2A11 JUMP JUMPDEST PUSH1 0x20 MUL PUSH1 0x20 ADD ADD MLOAD DUP6 PUSH1 0x40 MLOAD DUP4 PUSH4 0xFFFFFFFF AND PUSH1 0xE0 SHL DUP2 MSTORE PUSH1 0x4 ADD PUSH2 0x1244 SWAP3 SWAP2 SWAP1 PUSH1 0x1 PUSH1 0x1 PUSH1 0xA0 SHL SUB SWAP3 SWAP1 SWAP3 AND DUP3 MSTORE PUSH1 0x20 DUP3 ADD MSTORE PUSH1 0x40 ADD SWAP1 JUMP JUMPDEST PUSH1 0x20 PUSH1 0x40 MLOAD DUP1 DUP4 SUB DUP2 PUSH1 0x0 DUP8 GAS CALL ISZERO DUP1 ISZERO PUSH2 0x1263 JUMPI RETURNDATASIZE PUSH1 0x0 DUP1 RETURNDATACOPY RETURNDATASIZE PUSH1 0x0 REVERT JUMPDEST POP POP POP POP PUSH1 0x40 MLOAD RETURNDATASIZE PUSH1 0x1F NOT PUSH1 0x1F DUP3 ADD AND DUP3 ADD DUP1 PUSH1 0x40 MSTORE POP DUP2 ADD SWAP1 PUSH2 0x1287 SWAP2 SWAP1 PUSH2 0x2BB9 JUMP JUMPDEST POP JUMPDEST DUP1 PUSH2 0x1293 DUP2 PUSH2 0x2A27 JUMP JUMPDEST SWAP2 POP POP PUSH2 0x10B5 JUMP JUMPDEST POP PUSH1 0x8 SLOAD PUSH1 0xD SLOAD PUSH1 0x40 DUP1 MLOAD SWAP3 DUP4 MSTORE PUSH1 0x20 DUP4 ADD SWAP2 SWAP1 SWAP2 MSTORE DUP2 ADD DUP5 SWAP1 MSTORE PUSH1 0x60 DUP2 ADD DUP6 SWAP1 MSTORE CALLER SWAP1 PUSH32 0x87E5A7775B8AC2EAD741E32752431BFFEFF76EC5F347CC202A6BAD454653930B SWAP1 PUSH1 0x80 ADD PUSH1 0x40 MLOAD DUP1 SWAP2 SUB SWAP1 LOG2 POP SWAP2 SWAP8 SWAP7 POP POP POP POP POP POP POP JUMP JUMPDEST PUSH1 0x0 PUSH1 0x1D SLOAD TIMESTAMP PUSH2 0x1309 SWAP2 SWAP1 PUSH2 0x2C08 JUMP JUMPDEST SWAP1 POP PUSH1 0x0 PUSH1 0x11 SLOAD PUSH1 0x8 SLOAD PUSH2 0x131D SWAP2 SWAP1 PUSH2 0x2C08 JUMP JUMPDEST SWAP1 POP PUSH1 0x0 PUSH2 0x132B DUP3 DUP5 PUSH2 0x2B7D JUMP JUMPDEST SWAP1 POP PUSH2 0x133F PUSH1 0xE SLOAD PUSH1 0x2 PUSH2 0xAC5 SWAP2 SWAP1 PUSH2 0x2B26 JUMP JUMPDEST PUSH1 0x10 SSTORE PUSH1 0x0 PUSH2 0x1356 PUSH2 0xB40 PUSH2 0x11A1 DUP5 PUSH2 0x378 PUSH2 0x2B32 JUMP JUMPDEST SWAP1 POP PUSH1 0x0 PUSH2 0x378 PUSH2 0x1368 DUP4 PUSH1 0x64 PUSH2 0x2B32 JUMP JUMPDEST PUSH2 0x1372 SWAP2 SWAP1 PUSH2 0x2B7D JUMP JUMPDEST SWAP1 POP PUSH1 0x0 PUSH1 0xC8 DUP3 LT ISZERO PUSH2 0x13C4 JUMPI PUSH2 0x1393 PUSH2 0x378 PUSH2 0xADC DUP6 PUSH4 0x26F7F3C PUSH2 0x2B32 JUMP JUMPDEST PUSH2 0x13B3 PUSH3 0xC0840 PUSH2 0x13A5 PUSH1 0x2 DUP8 PUSH2 0x2C1F JUMP JUMPDEST PUSH2 0xADC SWAP1 PUSH4 0x3A2CDF0 PUSH2 0x2B32 JUMP JUMPDEST PUSH2 0x13BD SWAP2 SWAP1 PUSH2 0x29F9 JUMP JUMPDEST SWAP1 POP PUSH2 0x13CB JUMP JUMPDEST POP PUSH4 0x1443FD00 JUMPDEST PUSH1 0x4 PUSH1 0x9 SLOAD PUSH1 0x15 SLOAD PUSH2 0x13DD SWAP2 SWAP1 PUSH2 0x2B32 JUMP JUMPDEST PUSH2 0x13E8 SWAP1 PUSH1 0x3C PUSH2 0x2B32 JUMP JUMPDEST PUSH2 0x13F2 SWAP2 SWAP1 PUSH2 0x2B7D JUMP JUMPDEST PUSH1 0x4 DUP1 SLOAD PUSH1 0x40 MLOAD PUSH4 0x70A08231 PUSH1 0xE0 SHL DUP2 MSTORE ADDRESS SWAP3 DUP2 ADD SWAP3 SWAP1 SWAP3 MSTORE PUSH1 0x1 PUSH1 0x1 PUSH1 0xA0 SHL SUB AND SWAP1 PUSH4 0x70A08231 SWAP1 PUSH1 0x24 ADD PUSH1 0x20 PUSH1 0x40 MLOAD DUP1 DUP4 SUB DUP2 DUP7 GAS STATICCALL ISZERO DUP1 ISZERO PUSH2 0x143B JUMPI RETURNDATASIZE PUSH1 0x0 DUP1 RETURNDATACOPY RETURNDATASIZE PUSH1 0x0 REVERT JUMPDEST POP POP POP POP PUSH1 0x40 MLOAD RETURNDATASIZE PUSH1 0x1F NOT PUSH1 0x1F DUP3 ADD AND DUP3 ADD DUP1 PUSH1 0x40 MSTORE POP DUP2 ADD SWAP1 PUSH2 0x145F SWAP2 SWAP1 PUSH2 0x2BEF JUMP JUMPDEST GT ISZERO PUSH2 0x1534 JUMPI PUSH1 0x4 SLOAD PUSH1 0x3 SLOAD PUSH1 0x1A SLOAD PUSH1 0x15 SLOAD PUSH1 0x1 PUSH1 0x1 PUSH1 0xA0 SHL SUB SWAP4 DUP5 AND SWAP4 PUSH4 0xA9059CBB SWAP4 AND SWAP2 PUSH2 0x14AE SWAP2 PUSH4 0xBEBC200 SWAP2 SWAP1 PUSH2 0x149A DUP9 DUP14 PUSH2 0x2B32 JUMP JUMPDEST PUSH2 0x14A4 SWAP2 SWAP1 PUSH2 0x2B32 JUMP JUMPDEST PUSH2 0xADC SWAP2 SWAP1 PUSH2 0x2B32 JUMP JUMPDEST PUSH1 0x40 MLOAD PUSH1 0x1 PUSH1 0x1 PUSH1 0xE0 SHL SUB NOT PUSH1 0xE0 DUP6 SWAP1 SHL AND DUP2 MSTORE PUSH1 0x1 PUSH1 0x1 PUSH1 0xA0 SHL SUB SWAP1 SWAP3 AND PUSH1 0x4 DUP4 ADD MSTORE PUSH1 0x24 DUP3 ADD MSTORE PUSH1 0x44 ADD PUSH1 0x20 PUSH1 0x40 MLOAD DUP1 DUP4 SUB DUP2 PUSH1 0x0 DUP8 GAS CALL ISZERO DUP1 ISZERO PUSH2 0x14F9 JUMPI RETURNDATASIZE PUSH1 0x0 DUP1 RETURNDATACOPY RETURNDATASIZE PUSH1 0x0 REVERT JUMPDEST POP POP POP POP PUSH1 0x40 MLOAD RETURNDATASIZE PUSH1 0x1F NOT PUSH1 0x1F DUP3 ADD AND DUP3 ADD DUP1 PUSH1 0x40 MSTORE POP DUP2 ADD SWAP1 PUSH2 0x151D SWAP2 SWAP1 PUSH2 0x2BB9 JUMP JUMPDEST POP PUSH1 0x1B SLOAD PUSH2 0x152C SWAP1 PUSH1 0x1 PUSH2 0x2B32 JUMP JUMPDEST PUSH1 0x1A SSTORE PUSH2 0x153A JUMP JUMPDEST PUSH1 0x0 PUSH1 0x1A SSTORE JUMPDEST POP POP PUSH1 0x8 SLOAD PUSH1 0x11 SSTORE POP POP TIMESTAMP PUSH1 0x1D SSTORE POP POP JUMP JUMPDEST PUSH1 0x0 DUP1 PUSH1 0xD SLOAD CALLER DUP7 PUSH1 0x40 MLOAD PUSH1 0x20 ADD PUSH2 0x1566 SWAP4 SWAP3 SWAP2 SWAP1 PUSH2 0x2B91 JUMP JUMPDEST PUSH1 0x40 MLOAD PUSH1 0x20 DUP2 DUP4 SUB SUB DUP2 MSTORE SWAP1 PUSH1 0x40 MSTORE DUP1 MLOAD SWAP1 PUSH1 0x20 ADD KECCAK256 SWAP1 POP DUP4 DUP2 EQ PUSH2 0x159D JUMPI PUSH1 0x40 MLOAD PUSH3 0x461BCD PUSH1 0xE5 SHL DUP2 MSTORE PUSH1 0x4 ADD PUSH2 0xB25 SWAP1 PUSH2 0x2C2E JUMP JUMPDEST PUSH1 0xC SLOAD DUP2 LT PUSH2 0x15BE JUMPI PUSH1 0x40 MLOAD PUSH3 0x461BCD PUSH1 0xE5 SHL DUP2 MSTORE PUSH1 0x4 ADD PUSH2 0xB25 SWAP1 PUSH2 0x2C7C JUMP JUMPDEST PUSH2 0x15C6 PUSH2 0x201A JUMP JUMPDEST PUSH1 0x12 SLOAD TIMESTAMP GT PUSH2 0x160F JUMPI PUSH1 0x40 MLOAD PUSH3 0x461BCD PUSH1 0xE5 SHL DUP2 MSTORE PUSH1 0x20 PUSH1 0x4 DUP3 ADD MSTORE PUSH1 0x15 PUSH1 0x24 DUP3 ADD MSTORE PUSH21 0x4E6F2073616D65207365636F6E6420736F6C766573 PUSH1 0x58 SHL PUSH1 0x44 DUP3 ADD MSTORE PUSH1 0x64 ADD PUSH2 0xB25 JUMP JUMPDEST PUSH1 0x0 PUSH2 0xB40 PUSH1 0x12 SLOAD TIMESTAMP PUSH2 0x1622 SWAP2 SWAP1 PUSH2 0x2C08 JUMP JUMPDEST PUSH2 0x162E SWAP1 PUSH2 0x378 PUSH2 0x2B32 JUMP JUMPDEST PUSH2 0x1638 SWAP2 SWAP1 PUSH2 0x2B7D JUMP JUMPDEST SWAP1 POP PUSH1 0x0 PUSH2 0x378 PUSH2 0x164A DUP4 PUSH1 0x64 PUSH2 0x2B32 JUMP JUMPDEST PUSH2 0x1654 SWAP2 SWAP1 PUSH2 0x2B7D JUMP JUMPDEST SWAP1 POP PUSH1 0x0 PUSH2 0x13A DUP3 LT ISZERO PUSH2 0x1699 JUMPI PUSH2 0x1676 PUSH2 0x378 PUSH2 0xADC DUP6 PUSH4 0x26F7F3C PUSH2 0x2B32 JUMP JUMPDEST PUSH2 0x1688 PUSH3 0xC0840 PUSH2 0x13A5 PUSH1 0x2 DUP8 PUSH2 0x2C1F JUMP JUMPDEST PUSH2 0x1692 SWAP2 SWAP1 PUSH2 0x29F9 JUMP JUMPDEST SWAP1 POP PUSH2 0x16BE JUMP JUMPDEST PUSH2 0x16AD PUSH2 0x378 PUSH2 0xADC DUP6 PUSH4 0x5F5E100 PUSH2 0x2B32 JUMP JUMPDEST PUSH2 0x16BB SWAP1 PUSH4 0x14DC9380 PUSH2 0x29F9 JUMP JUMPDEST SWAP1 POP JUMPDEST PUSH2 0x16F6 PUSH2 0x16D7 PUSH4 0x5F5E100 DUP4 PUSH1 0x10 SLOAD PUSH2 0xADC SWAP2 SWAP1 PUSH2 0x2B32 JUMP JUMPDEST PUSH1 0x1 PUSH1 0x1 PUSH1 0xA0 SHL SUB DUP9 AND PUSH1 0x0 SWAP1 DUP2 MSTORE PUSH1 0x18 PUSH1 0x20 MSTORE PUSH1 0x40 SWAP1 KECCAK256 SLOAD SWAP1 PUSH2 0x1FCC JUMP JUMPDEST PUSH1 0x1 PUSH1 0x1 PUSH1 0xA0 SHL SUB DUP8 AND PUSH1 0x0 SWAP1 DUP2 MSTORE PUSH1 0x18 PUSH1 0x20 MSTORE PUSH1 0x40 SWAP1 KECCAK256 SSTORE PUSH1 0x10 SLOAD PUSH2 0x174C SWAP1 PUSH2 0x172B SWAP1 PUSH4 0xBEBC200 SWAP1 PUSH2 0xADC SWAP1 DUP6 SWAP1 PUSH2 0x2B32 JUMP JUMPDEST PUSH1 0x3 SLOAD PUSH1 0x1 PUSH1 0x1 PUSH1 0xA0 SHL SUB AND PUSH1 0x0 SWAP1 DUP2 MSTORE PUSH1 0x18 PUSH1 0x20 MSTORE PUSH1 0x40 SWAP1 KECCAK256 SLOAD SWAP1 PUSH2 0x1FCC JUMP JUMPDEST PUSH1 0x3 SLOAD PUSH1 0x1 PUSH1 0x1 PUSH1 0xA0 SHL SUB AND PUSH1 0x0 SWAP1 DUP2 MSTORE PUSH1 0x18 PUSH1 0x20 MSTORE PUSH1 0x40 SWAP1 KECCAK256 SSTORE PUSH1 0x10 SLOAD PUSH2 0x178C SWAP1 PUSH2 0x1783 SWAP1 PUSH4 0x5F5E100 SWAP1 PUSH2 0xADC SWAP1 DUP6 SWAP1 PUSH2 0x2B32 JUMP JUMPDEST PUSH1 0x17 SLOAD SWAP1 PUSH2 0x1FCC JUMP JUMPDEST PUSH1 0x17 SSTORE TIMESTAMP PUSH1 0x12 SSTORE PUSH1 0x1A SLOAD ISZERO PUSH2 0x18EA JUMPI PUSH1 0xC8 DUP3 LT ISZERO PUSH2 0x184A JUMPI PUSH1 0x4 SLOAD PUSH1 0x1A SLOAD PUSH1 0x15 SLOAD PUSH1 0x1 PUSH1 0x1 PUSH1 0xA0 SHL SUB SWAP1 SWAP3 AND SWAP2 PUSH4 0xA9059CBB SWAP2 DUP10 SWAP2 PUSH2 0x17D5 SWAP2 PUSH4 0x5F5E100 SWAP2 PUSH2 0x14A4 SWAP1 DUP9 PUSH2 0x2B32 JUMP JUMPDEST PUSH1 0x40 MLOAD PUSH1 0x1 PUSH1 0x1 PUSH1 0xE0 SHL SUB NOT PUSH1 0xE0 DUP6 SWAP1 SHL AND DUP2 MSTORE PUSH1 0x1 PUSH1 0x1 PUSH1 0xA0 SHL SUB SWAP1 SWAP3 AND PUSH1 0x4 DUP4 ADD MSTORE PUSH1 0x24 DUP3 ADD MSTORE PUSH1 0x44 ADD PUSH1 0x20 PUSH1 0x40 MLOAD DUP1 DUP4 SUB DUP2 PUSH1 0x0 DUP8 GAS CALL ISZERO DUP1 ISZERO PUSH2 0x1820 JUMPI RETURNDATASIZE PUSH1 0x0 DUP1 RETURNDATACOPY RETURNDATASIZE PUSH1 0x0 REVERT JUMPDEST POP POP POP POP PUSH1 0x40 MLOAD RETURNDATASIZE PUSH1 0x1F NOT PUSH1 0x1F DUP3 ADD AND DUP3 ADD DUP1 PUSH1 0x40 MSTORE POP DUP2 ADD SWAP1 PUSH2 0x1844 SWAP2 SWAP1 PUSH2 0x2BB9 JUMP JUMPDEST POP PUSH2 0x18EA JUMP JUMPDEST PUSH1 0x4 SLOAD PUSH1 0x1A SLOAD PUSH1 0x15 SLOAD PUSH1 0x1 PUSH1 0x1 PUSH1 0xA0 SHL SUB SWAP1 SWAP3 AND SWAP2 PUSH4 0xA9059CBB SWAP2 DUP10 SWAP2 PUSH2 0x1879 SWAP2 PUSH1 0xA SWAP2 PUSH2 0x14A4 SWAP1 PUSH1 0x22 PUSH2 0x2B32 JUMP JUMPDEST PUSH1 0x40 MLOAD PUSH1 0x1 PUSH1 0x1 PUSH1 0xE0 SHL SUB NOT PUSH1 0xE0 DUP6 SWAP1 SHL AND DUP2 MSTORE PUSH1 0x1 PUSH1 0x1 PUSH1 0xA0 SHL SUB SWAP1 SWAP3 AND PUSH1 0x4 DUP4 ADD MSTORE PUSH1 0x24 DUP3 ADD MSTORE PUSH1 0x44 ADD PUSH1 0x20 PUSH1 0x40 MLOAD DUP1 DUP4 SUB DUP2 PUSH1 0x0 DUP8 GAS CALL ISZERO DUP1 ISZERO PUSH2 0x18C4 JUMPI RETURNDATASIZE PUSH1 0x0 DUP1 RETURNDATACOPY RETURNDATASIZE PUSH1 0x0 REVERT JUMPDEST POP POP POP POP PUSH1 0x40 MLOAD RETURNDATASIZE PUSH1 0x1F NOT PUSH1 0x1F DUP3 ADD AND DUP3 ADD DUP1 PUSH1 0x40 MSTORE POP DUP2 ADD SWAP1 PUSH2 0x18E8 SWAP2 SWAP1 PUSH2 0x2BB9 JUMP JUMPDEST POP JUMPDEST CALLER PUSH1 0x1 PUSH1 0x1 PUSH1 0xA0 SHL SUB AND PUSH32 0xCF6FBB9DCEA7D07263AB4F5C3A92F53AF33DFFC421D9D121E1C74B307E68189D PUSH2 0x192B PUSH4 0x5F5E100 DUP5 PUSH1 0x10 SLOAD PUSH2 0xADC SWAP2 SWAP1 PUSH2 0x2B32 JUMP JUMPDEST PUSH1 0x8 SLOAD PUSH1 0xD SLOAD PUSH1 0x40 DUP1 MLOAD SWAP4 DUP5 MSTORE PUSH1 0x20 DUP5 ADD SWAP3 SWAP1 SWAP3 MSTORE SWAP1 DUP3 ADD MSTORE PUSH1 0x60 ADD PUSH1 0x40 MLOAD DUP1 SWAP2 SUB SWAP1 LOG2 SWAP8 SWAP7 POP POP POP POP POP POP POP JUMP JUMPDEST PUSH1 0x0 DUP1 PUSH1 0xD SLOAD CALLER DUP8 PUSH1 0x40 MLOAD PUSH1 0x20 ADD PUSH2 0x1974 SWAP4 SWAP3 SWAP2 SWAP1 PUSH2 0x2B91 JUMP JUMPDEST PUSH1 0x40 MLOAD PUSH1 0x20 DUP2 DUP4 SUB SUB DUP2 MSTORE SWAP1 PUSH1 0x40 MSTORE DUP1 MLOAD SWAP1 PUSH1 0x20 ADD KECCAK256 SWAP1 POP DUP5 DUP2 EQ PUSH2 0x19AB JUMPI PUSH1 0x40 MLOAD PUSH3 0x461BCD PUSH1 0xE5 SHL DUP2 MSTORE PUSH1 0x4 ADD PUSH2 0xB25 SWAP1 PUSH2 0x2C2E JUMP JUMPDEST PUSH1 0xC SLOAD DUP2 LT PUSH2 0x19CC JUMPI PUSH1 0x40 MLOAD PUSH3 0x461BCD PUSH1 0xE5 SHL DUP2 MSTORE PUSH1 0x4 ADD PUSH2 0xB25 SWAP1 PUSH2 0x2C7C JUMP JUMPDEST PUSH2 0x19D4 PUSH2 0x201A JUMP JUMPDEST PUSH1 0x12 SLOAD TIMESTAMP GT PUSH2 0x1A1D JUMPI PUSH1 0x40 MLOAD PUSH3 0x461BCD PUSH1 0xE5 SHL DUP2 MSTORE PUSH1 0x20 PUSH1 0x4 DUP3 ADD MSTORE PUSH1 0x15 PUSH1 0x24 DUP3 ADD MSTORE PUSH21 0x4E6F2073616D65207365636F6E6420736F6C766573 PUSH1 0x58 SHL PUSH1 0x44 DUP3 ADD MSTORE PUSH1 0x64 ADD PUSH2 0xB25 JUMP JUMPDEST DUP4 MLOAD DUP4 MLOAD EQ PUSH2 0x1A94 JUMPI PUSH1 0x40 MLOAD PUSH3 0x461BCD PUSH1 0xE5 SHL DUP2 MSTORE PUSH1 0x20 PUSH1 0x4 DUP3 ADD MSTORE PUSH1 0x3A PUSH1 0x24 DUP3 ADD MSTORE PUSH32 0x4D696E74546F2068617320746F20686176652073616D65206E756D626572206F PUSH1 0x44 DUP3 ADD MSTORE PUSH32 0x66206164647265737373657320617320457874726146756E6473000000000000 PUSH1 0x64 DUP3 ADD MSTORE PUSH1 0x84 ADD PUSH2 0xB25 JUMP JUMPDEST PUSH1 0x0 JUMPDEST DUP5 MLOAD DUP2 LT ISZERO PUSH2 0x1C58 JUMPI PUSH2 0x1AAB DUP2 PUSH1 0x1 PUSH2 0x29F9 JUMP JUMPDEST PUSH2 0x1AB6 SWAP1 PUSH1 0x2 PUSH2 0x2B26 JUMP JUMPDEST PUSH1 0x8 SLOAD PUSH2 0x1AC3 SWAP2 SWAP1 PUSH2 0x2BDB JUMP JUMPDEST ISZERO PUSH2 0x1ACD JUMPI PUSH2 0x1C58 JUMP JUMPDEST ADDRESS PUSH1 0x1 PUSH1 0x1 PUSH1 0xA0 SHL SUB AND DUP6 DUP3 DUP2 MLOAD DUP2 LT PUSH2 0x1AE9 JUMPI PUSH2 0x1AE9 PUSH2 0x2A11 JUMP JUMPDEST PUSH1 0x20 MUL PUSH1 0x20 ADD ADD MLOAD PUSH1 0x1 PUSH1 0x1 PUSH1 0xA0 SHL SUB AND EQ ISZERO DUP1 ISZERO PUSH2 0x1B3A JUMPI POP PUSH1 0x4 SLOAD DUP6 MLOAD PUSH1 0x1 PUSH1 0x1 PUSH1 0xA0 SHL SUB SWAP1 SWAP2 AND SWAP1 DUP7 SWAP1 DUP4 SWAP1 DUP2 LT PUSH2 0x1B26 JUMPI PUSH2 0x1B26 PUSH2 0x2A11 JUMP JUMPDEST PUSH1 0x20 MUL PUSH1 0x20 ADD ADD MLOAD PUSH1 0x1 PUSH1 0x1 PUSH1 0xA0 SHL SUB AND EQ ISZERO JUMPDEST PUSH2 0x1B86 JUMPI PUSH1 0x40 MLOAD PUSH3 0x461BCD PUSH1 0xE5 SHL DUP2 MSTORE PUSH1 0x20 PUSH1 0x4 DUP3 ADD MSTORE PUSH1 0x1A PUSH1 0x24 DUP3 ADD MSTORE PUSH32 0x4E6F2062617365207072696E74696E67206F6620746F6B656E73000000000000 PUSH1 0x44 DUP3 ADD MSTORE PUSH1 0x64 ADD PUSH2 0xB25 JUMP JUMPDEST PUSH1 0x0 PUSH2 0x1B93 DUP3 PUSH1 0x1 PUSH2 0x29F9 JUMP JUMPDEST SWAP1 POP JUMPDEST DUP6 MLOAD DUP2 LT ISZERO PUSH2 0x1C45 JUMPI DUP6 DUP3 DUP2 MLOAD DUP2 LT PUSH2 0x1BB1 JUMPI PUSH2 0x1BB1 PUSH2 0x2A11 JUMP JUMPDEST PUSH1 0x20 MUL PUSH1 0x20 ADD ADD MLOAD PUSH1 0x1 PUSH1 0x1 PUSH1 0xA0 SHL SUB AND DUP7 DUP3 DUP2 MLOAD DUP2 LT PUSH2 0x1BD4 JUMPI PUSH2 0x1BD4 PUSH2 0x2A11 JUMP JUMPDEST PUSH1 0x20 MUL PUSH1 0x20 ADD ADD MLOAD PUSH1 0x1 PUSH1 0x1 PUSH1 0xA0 SHL SUB AND EQ ISZERO PUSH2 0x1C33 JUMPI PUSH1 0x40 MLOAD PUSH3 0x461BCD PUSH1 0xE5 SHL DUP2 MSTORE PUSH1 0x20 PUSH1 0x4 DUP3 ADD MSTORE PUSH1 0x1B PUSH1 0x24 DUP3 ADD MSTORE PUSH32 0x4E6F207072696E74696E67205468652073616D6520746F6B656E730000000000 PUSH1 0x44 DUP3 ADD MSTORE PUSH1 0x64 ADD PUSH2 0xB25 JUMP JUMPDEST DUP1 PUSH2 0x1C3D DUP2 PUSH2 0x2A27 JUMP JUMPDEST SWAP2 POP POP PUSH2 0x1B96 JUMP JUMPDEST POP DUP1 PUSH2 0x1C50 DUP2 PUSH2 0x2A27 JUMP JUMPDEST SWAP2 POP POP PUSH2 0x1A97 JUMP JUMPDEST PUSH1 0x0 PUSH2 0xB40 PUSH1 0x12 SLOAD TIMESTAMP PUSH2 0x1C6B SWAP2 SWAP1 PUSH2 0x2C08 JUMP JUMPDEST PUSH2 0x1C77 SWAP1 PUSH2 0x378 PUSH2 0x2B32 JUMP JUMPDEST PUSH2 0x1C81 SWAP2 SWAP1 PUSH2 0x2B7D JUMP JUMPDEST SWAP1 POP PUSH1 0x0 PUSH2 0x378 PUSH2 0x1C93 DUP4 PUSH1 0x64 PUSH2 0x2B32 JUMP JUMPDEST PUSH2 0x1C9D SWAP2 SWAP1 PUSH2 0x2B7D JUMP JUMPDEST SWAP1 POP PUSH1 0x0 PUSH2 0x13A DUP3 LT ISZERO PUSH2 0x1CE2 JUMPI PUSH2 0x1CBF PUSH2 0x378 PUSH2 0xADC DUP6 PUSH4 0x26F7F3C PUSH2 0x2B32 JUMP JUMPDEST PUSH2 0x1CD1 PUSH3 0xC0840 PUSH2 0x13A5 PUSH1 0x2 DUP8 PUSH2 0x2C1F JUMP JUMPDEST PUSH2 0x1CDB SWAP2 SWAP1 PUSH2 0x29F9 JUMP JUMPDEST SWAP1 POP PUSH2 0x1D07 JUMP JUMPDEST PUSH2 0x1CF6 PUSH2 0x378 PUSH2 0xADC DUP6 PUSH4 0x5F5E100 PUSH2 0x2B32 JUMP JUMPDEST PUSH2 0x1D04 SWAP1 PUSH4 0x14DC9380 PUSH2 0x29F9 JUMP JUMPDEST SWAP1 POP JUMPDEST PUSH1 0x0 DUP2 GT PUSH2 0x1D44 JUMPI PUSH1 0x40 MLOAD PUSH3 0x461BCD PUSH1 0xE5 SHL DUP2 MSTORE PUSH1 0x20 PUSH1 0x4 DUP3 ADD MSTORE PUSH1 0xA PUSH1 0x24 DUP3 ADD MSTORE PUSH10 0x6D696E74206973737565 PUSH1 0xB0 SHL PUSH1 0x44 DUP3 ADD MSTORE PUSH1 0x64 ADD PUSH2 0xB25 JUMP JUMPDEST PUSH1 0x0 DUP1 PUSH1 0x0 JUMPDEST DUP7 DUP2 LT ISZERO PUSH2 0x1F1E JUMPI PUSH2 0x1D5D DUP2 PUSH1 0x1 PUSH2 0x29F9 JUMP JUMPDEST PUSH2 0x1D68 SWAP1 PUSH1 0x2 PUSH2 0x2B26 JUMP JUMPDEST PUSH1 0x8 SLOAD PUSH2 0x1D75 SWAP2 SWAP1 PUSH2 0x2BDB JUMP JUMPDEST PUSH2 0x1F0C JUMPI DUP11 DUP2 DUP2 MLOAD DUP2 LT PUSH2 0x1D8B JUMPI PUSH2 0x1D8B PUSH2 0x2A11 JUMP JUMPDEST PUSH1 0x20 SWAP1 DUP2 MUL SWAP2 SWAP1 SWAP2 ADD ADD MLOAD PUSH1 0x40 MLOAD PUSH4 0x70A08231 PUSH1 0xE0 SHL DUP2 MSTORE ADDRESS PUSH1 0x4 DUP3 ADD MSTORE PUSH1 0x1 PUSH1 0x1 PUSH1 0xA0 SHL SUB SWAP1 SWAP2 AND SWAP1 PUSH4 0x70A08231 SWAP1 PUSH1 0x24 ADD PUSH1 0x20 PUSH1 0x40 MLOAD DUP1 DUP4 SUB DUP2 DUP7 GAS STATICCALL ISZERO DUP1 ISZERO PUSH2 0x1DDB JUMPI RETURNDATASIZE PUSH1 0x0 DUP1 RETURNDATACOPY RETURNDATASIZE PUSH1 0x0 REVERT JUMPDEST POP POP POP POP PUSH1 0x40 MLOAD RETURNDATASIZE PUSH1 0x1F NOT PUSH1 0x1F DUP3 ADD AND DUP3 ADD DUP1 PUSH1 0x40 MSTORE POP DUP2 ADD SWAP1 PUSH2 0x1DFF SWAP2 SWAP1 PUSH2 0x2BEF JUMP JUMPDEST SWAP2 POP DUP2 ISZERO PUSH2 0x1F0C JUMPI PUSH2 0x1E12 PUSH1 0x3 DUP3 PUSH2 0x2BDB JUMP JUMPDEST ISZERO DUP1 ISZERO PUSH2 0x1E1E JUMPI POP DUP1 ISZERO ISZERO JUMPDEST ISZERO PUSH2 0x1E3D JUMPI PUSH2 0x1E36 PUSH5 0x3A35294400 PUSH2 0x11A1 DUP7 DUP6 PUSH2 0x2B32 JUMP JUMPDEST SWAP3 POP PUSH2 0x1E53 JUMP JUMPDEST PUSH2 0x1E50 PUSH5 0x3A35294400 PUSH2 0xADC DUP7 DUP6 PUSH2 0x2B32 JUMP JUMPDEST SWAP3 POP JUMPDEST DUP11 DUP2 DUP2 MLOAD DUP2 LT PUSH2 0x1E65 JUMPI PUSH2 0x1E65 PUSH2 0x2A11 JUMP JUMPDEST PUSH1 0x20 MUL PUSH1 0x20 ADD ADD MLOAD PUSH1 0x1 PUSH1 0x1 PUSH1 0xA0 SHL SUB AND PUSH4 0xA9059CBB DUP12 DUP4 DUP2 MLOAD DUP2 LT PUSH2 0x1E8D JUMPI PUSH2 0x1E8D PUSH2 0x2A11 JUMP JUMPDEST PUSH1 0x20 MUL PUSH1 0x20 ADD ADD MLOAD DUP6 PUSH1 0x40 MLOAD DUP4 PUSH4 0xFFFFFFFF AND PUSH1 0xE0 SHL DUP2 MSTORE PUSH1 0x4 ADD PUSH2 0x1EC7 SWAP3 SWAP2 SWAP1 PUSH1 0x1 PUSH1 0x1 PUSH1 0xA0 SHL SUB SWAP3 SWAP1 SWAP3 AND DUP3 MSTORE PUSH1 0x20 DUP3 ADD MSTORE PUSH1 0x40 ADD SWAP1 JUMP JUMPDEST PUSH1 0x20 PUSH1 0x40 MLOAD DUP1 DUP4 SUB DUP2 PUSH1 0x0 DUP8 GAS CALL ISZERO DUP1 ISZERO PUSH2 0x1EE6 JUMPI RETURNDATASIZE PUSH1 0x0 DUP1 RETURNDATACOPY RETURNDATASIZE PUSH1 0x0 REVERT JUMPDEST POP POP POP POP PUSH1 0x40 MLOAD RETURNDATASIZE PUSH1 0x1F NOT PUSH1 0x1F DUP3 ADD AND DUP3 ADD DUP1 PUSH1 0x40 MSTORE POP DUP2 ADD SWAP1 PUSH2 0x1F0A SWAP2 SWAP1 PUSH2 0x2BB9 JUMP JUMPDEST POP JUMPDEST DUP1 PUSH2 0x1F16 DUP2 PUSH2 0x2A27 JUMP JUMPDEST SWAP2 POP POP PUSH2 0x1D4A JUMP JUMPDEST POP POP TIMESTAMP PUSH1 0x12 SSTORE POP SWAP10 SWAP9 POP POP POP POP POP POP POP POP POP JUMP JUMPDEST PUSH1 0x0 DUP2 PUSH2 0x1F6F JUMPI PUSH1 0x40 MLOAD PUSH3 0x461BCD PUSH1 0xE5 SHL DUP2 MSTORE PUSH1 0x20 PUSH1 0x4 DUP3 ADD MSTORE PUSH1 0xB PUSH1 0x24 DUP3 ADD MSTORE PUSH11 0x446976206279207A65726F PUSH1 0xA8 SHL PUSH1 0x44 DUP3 ADD MSTORE PUSH1 0x64 ADD PUSH2 0xB25 JUMP JUMPDEST PUSH2 0x1F79 DUP3 DUP5 PUSH2 0x2B7D JUMP JUMPDEST SWAP4 SWAP3 POP POP POP JUMP JUMPDEST PUSH1 0x0 DUP2 DUP4 LT ISZERO PUSH2 0x1FC2 JUMPI PUSH1 0x40 MLOAD PUSH3 0x461BCD PUSH1 0xE5 SHL DUP2 MSTORE PUSH1 0x20 PUSH1 0x4 DUP3 ADD MSTORE PUSH1 0xD PUSH1 0x24 DUP3 ADD MSTORE PUSH13 0x53756220756E646572666C6F77 PUSH1 0x98 SHL PUSH1 0x44 DUP3 ADD MSTORE PUSH1 0x64 ADD PUSH2 0xB25 JUMP JUMPDEST PUSH2 0x1F79 DUP3 DUP5 PUSH2 0x2C08 JUMP JUMPDEST PUSH1 0x0 DUP1 PUSH2 0x1FD9 DUP4 DUP6 PUSH2 0x29F9 JUMP JUMPDEST SWAP1 POP DUP4 DUP2 LT ISZERO PUSH2 0x1F79 JUMPI PUSH1 0x40 MLOAD PUSH3 0x461BCD PUSH1 0xE5 SHL DUP2 MSTORE PUSH1 0x20 PUSH1 0x4 DUP3 ADD MSTORE PUSH1 0xC PUSH1 0x24 DUP3 ADD MSTORE PUSH12 0x416464206F766572666C6F77 PUSH1 0xA0 SHL PUSH1 0x44 DUP3 ADD MSTORE PUSH1 0x64 ADD PUSH2 0xB25 JUMP JUMPDEST PUSH1 0xF SLOAD PUSH1 0x10 SLOAD PUSH1 0x17 SLOAD PUSH2 0x202C SWAP2 PUSH2 0x1FCC JUMP JUMPDEST GT DUP1 ISZERO PUSH2 0x203B JUMPI POP PUSH1 0x3C PUSH1 0xE SLOAD LT JUMPDEST ISZERO PUSH2 0x2087 JUMPI PUSH1 0xE SLOAD PUSH2 0x204E SWAP1 PUSH1 0x1 PUSH2 0x29F9 JUMP JUMPDEST PUSH1 0xE DUP2 SWAP1 SSTORE PUSH2 0x2076 SWAP1 PUSH2 0x2062 SWAP1 PUSH1 0x1 PUSH2 0x29F9 JUMP JUMPDEST PUSH2 0x206D SWAP1 PUSH1 0x2 PUSH2 0x2B26 JUMP JUMPDEST PUSH1 0x6 SLOAD SWAP1 PUSH2 0x1F32 JUMP JUMPDEST PUSH1 0x6 SLOAD PUSH2 0x2083 SWAP2 SWAP1 PUSH2 0x2C08 JUMP JUMPDEST PUSH1 0xF SSTORE JUMPDEST PUSH1 0x8 SLOAD PUSH2 0x2095 SWAP1 PUSH1 0x1 PUSH2 0x1FCC JUMP JUMPDEST PUSH1 0x8 SSTORE PUSH1 0x9 SLOAD PUSH2 0x20A7 SWAP1 PUSH1 0x4 SWAP1 PUSH2 0x2B7D JUMP JUMPDEST PUSH1 0x8 SLOAD PUSH2 0x20B4 SWAP2 SWAP1 PUSH2 0x2BDB JUMP JUMPDEST PUSH2 0x225A JUMPI PUSH2 0x20C0 PUSH2 0x12F9 JUMP JUMPDEST PUSH2 0x20D2 PUSH1 0xE SLOAD PUSH1 0x1 PUSH2 0x2062 SWAP2 SWAP1 PUSH2 0x29F9 JUMP JUMPDEST PUSH1 0x6 SLOAD PUSH2 0x20DF SWAP2 SWAP1 PUSH2 0x2C08 JUMP JUMPDEST PUSH1 0xF SSTORE PUSH1 0x9 SLOAD PUSH1 0x8 SLOAD PUSH2 0x20F2 SWAP2 SWAP1 PUSH2 0x2BDB JUMP JUMPDEST PUSH2 0x225A JUMPI PUSH1 0x4 DUP1 SLOAD PUSH1 0x40 MLOAD PUSH4 0x70A08231 PUSH1 0xE0 SHL DUP2 MSTORE ADDRESS SWAP3 DUP2 ADD SWAP3 SWAP1 SWAP3 MSTORE PUSH5 0x2E90EDD000 SWAP2 PUSH1 0x1 PUSH1 0x1 PUSH1 0xA0 SHL SUB SWAP1 SWAP2 AND SWAP1 PUSH4 0x70A08231 SWAP1 PUSH1 0x24 ADD PUSH1 0x20 PUSH1 0x40 MLOAD DUP1 DUP4 SUB DUP2 DUP7 GAS STATICCALL ISZERO DUP1 ISZERO PUSH2 0x2148 JUMPI RETURNDATASIZE PUSH1 0x0 DUP1 RETURNDATACOPY RETURNDATASIZE PUSH1 0x0 REVERT JUMPDEST POP POP POP POP PUSH1 0x40 MLOAD RETURNDATASIZE PUSH1 0x1F NOT PUSH1 0x1F DUP3 ADD AND DUP3 ADD DUP1 PUSH1 0x40 MSTORE POP DUP2 ADD SWAP1 PUSH2 0x216C SWAP2 SWAP1 PUSH2 0x2BEF JUMP JUMPDEST PUSH2 0x2176 SWAP2 SWAP1 PUSH2 0x2B7D JUMP JUMPDEST PUSH1 0x1 DUP2 SWAP1 SSTORE PUSH2 0x2187 SWAP1 PUSH2 0x2710 PUSH2 0x2B32 JUMP JUMPDEST PUSH2 0x2193 SWAP1 PUSH2 0x2710 PUSH2 0x29F9 JUMP JUMPDEST PUSH1 0x15 SLOAD PUSH1 0x4 DUP1 SLOAD PUSH1 0x40 MLOAD PUSH4 0x70A08231 PUSH1 0xE0 SHL DUP2 MSTORE ADDRESS SWAP3 DUP2 ADD SWAP3 SWAP1 SWAP3 MSTORE PUSH1 0x1 PUSH1 0x1 PUSH1 0xA0 SHL SUB AND SWAP1 PUSH4 0x70A08231 SWAP1 PUSH1 0x24 ADD PUSH1 0x20 PUSH1 0x40 MLOAD DUP1 DUP4 SUB DUP2 DUP7 GAS STATICCALL ISZERO DUP1 ISZERO PUSH2 0x21DF JUMPI RETURNDATASIZE PUSH1 0x0 DUP1 RETURNDATACOPY RETURNDATASIZE PUSH1 0x0 REVERT JUMPDEST POP POP POP POP PUSH1 0x40 MLOAD RETURNDATASIZE PUSH1 0x1F NOT PUSH1 0x1F DUP3 ADD AND DUP3 ADD DUP1 PUSH1 0x40 MSTORE POP DUP2 ADD SWAP1 PUSH2 0x2203 SWAP2 SWAP1 PUSH2 0x2BEF JUMP JUMPDEST PUSH2 0x220D SWAP2 SWAP1 PUSH2 0x2B7D JUMP JUMPDEST GT PUSH2 0x2240 JUMPI PUSH1 0x16 SLOAD PUSH1 0x15 SLOAD PUSH2 0x2223 SWAP1 PUSH1 0x2 PUSH2 0x1F32 JUMP JUMPDEST GT ISZERO PUSH2 0x223B JUMPI PUSH1 0x15 SLOAD PUSH2 0x2237 SWAP1 PUSH1 0x2 PUSH2 0x1F32 JUMP JUMPDEST PUSH1 0x15 SSTORE JUMPDEST PUSH2 0x2252 JUMP JUMPDEST PUSH1 0x15 SLOAD PUSH2 0x224E SWAP1 PUSH1 0x3 PUSH2 0x2388 JUMP JUMPDEST PUSH1 0x15 SSTORE JUMPDEST PUSH2 0x225A PUSH2 0x23ED JUMP JUMPDEST PUSH2 0x2265 PUSH1 0x1 NUMBER PUSH2 0x2C08 JUMP JUMPDEST BLOCKHASH PUSH1 0xD SSTORE JUMP JUMPDEST PUSH1 0x0 SLOAD PUSH1 0x1 PUSH1 0x1 PUSH1 0xA0 SHL SUB AND CALLER EQ PUSH2 0x22B2 JUMPI PUSH1 0x40 MLOAD PUSH3 0x461BCD PUSH1 0xE5 SHL DUP2 MSTORE PUSH1 0x20 PUSH1 0x4 DUP3 ADD MSTORE PUSH1 0xA PUSH1 0x24 DUP3 ADD MSTORE PUSH10 0x37B7363C9037BBB732B9 PUSH1 0xB1 SHL PUSH1 0x44 DUP3 ADD MSTORE PUSH1 0x64 ADD PUSH2 0xB25 JUMP JUMPDEST PUSH1 0x0 SLOAD PUSH1 0x40 DUP1 MLOAD PUSH1 0x1 PUSH1 0x1 PUSH1 0xA0 SHL SUB SWAP3 DUP4 AND DUP2 MSTORE SWAP2 DUP4 AND PUSH1 0x20 DUP4 ADD MSTORE PUSH32 0x5C486528EC3E3F0EA91181CFF8116F02BFA350E03B8B6F12E00765ADBB5AF85C SWAP2 ADD PUSH1 0x40 MLOAD DUP1 SWAP2 SUB SWAP1 LOG1 PUSH1 0x0 DUP1 SLOAD PUSH1 0x1 PUSH1 0x1 PUSH1 0xA0 SHL SUB NOT AND PUSH1 0x1 PUSH1 0x1 PUSH1 0xA0 SHL SUB SWAP3 SWAP1 SWAP3 AND SWAP2 SWAP1 SWAP2 OR SWAP1 SSTORE JUMP JUMPDEST PUSH1 0x0 DUP2 PUSH2 0x2358 JUMPI PUSH1 0x40 MLOAD PUSH3 0x461BCD PUSH1 0xE5 SHL DUP2 MSTORE PUSH1 0x20 PUSH1 0x4 DUP3 ADD MSTORE PUSH1 0xB PUSH1 0x24 DUP3 ADD MSTORE PUSH11 0x446976206279207A65726F PUSH1 0xA8 SHL PUSH1 0x44 DUP3 ADD MSTORE PUSH1 0x64 ADD PUSH2 0xB25 JUMP JUMPDEST PUSH1 0x0 PUSH2 0x2364 DUP4 DUP6 PUSH2 0x2B7D JUMP JUMPDEST SWAP1 POP PUSH2 0x2370 DUP4 DUP6 PUSH2 0x2BDB JUMP JUMPDEST ISZERO PUSH2 0x1F79 JUMPI PUSH2 0x2380 DUP2 PUSH1 0x1 PUSH2 0x29F9 JUMP JUMPDEST SWAP5 SWAP4 POP POP POP POP JUMP JUMPDEST PUSH1 0x0 DUP3 PUSH2 0x2397 JUMPI POP PUSH1 0x0 PUSH2 0x8B8 JUMP JUMPDEST PUSH1 0x0 PUSH2 0x23A3 DUP4 DUP6 PUSH2 0x2B32 JUMP JUMPDEST SWAP1 POP DUP3 PUSH2 0x23B0 DUP6 DUP4 PUSH2 0x2B7D JUMP JUMPDEST EQ PUSH2 0x1F79 JUMPI PUSH1 0x40 MLOAD PUSH3 0x461BCD PUSH1 0xE5 SHL DUP2 MSTORE PUSH1 0x20 PUSH1 0x4 DUP3 ADD MSTORE PUSH1 0xD PUSH1 0x24 DUP3 ADD MSTORE PUSH13 0x4D756C74206F766572666C6F77 PUSH1 0x98 SHL PUSH1 0x44 DUP3 ADD MSTORE PUSH1 0x64 ADD PUSH2 0xB25 JUMP JUMPDEST PUSH1 0x7 SLOAD TIMESTAMP SWAP1 PUSH1 0x0 SWAP1 PUSH2 0x23FF SWAP1 DUP4 PUSH2 0x2C08 JUMP JUMPDEST SWAP1 POP PUSH1 0x0 PUSH1 0x9 SLOAD PUSH2 0xB40 PUSH2 0x2413 SWAP2 SWAP1 PUSH2 0x2B32 JUMP JUMPDEST SWAP1 POP DUP1 DUP3 LT ISZERO PUSH2 0x2488 JUMPI PUSH1 0x0 PUSH2 0x242E DUP4 PUSH2 0xADC DUP5 PUSH1 0x64 PUSH2 0x2388 JUMP JUMPDEST PUSH1 0x1 PUSH1 0x1B SSTORE SWAP1 POP PUSH1 0x0 PUSH2 0x244E PUSH2 0x3E8 PUSH2 0x2448 DUP5 PUSH1 0x64 PUSH2 0x1F80 JUMP JUMPDEST SWAP1 PUSH2 0x2516 JUMP JUMPDEST SWAP1 POP PUSH2 0x247D PUSH2 0x2474 DUP3 PUSH2 0x246E PUSH2 0x7D0 PUSH1 0xC SLOAD PUSH2 0x1F32 SWAP1 SWAP2 SWAP1 PUSH4 0xFFFFFFFF AND JUMP JUMPDEST SWAP1 PUSH2 0x2388 JUMP JUMPDEST PUSH1 0xC SLOAD SWAP1 PUSH2 0x1F80 JUMP JUMPDEST PUSH1 0xC SSTORE POP PUSH2 0x24E2 SWAP1 POP JUMP JUMPDEST PUSH1 0x0 PUSH2 0x2499 DUP3 PUSH2 0xADC DUP6 PUSH1 0x64 PUSH2 0x2388 JUMP JUMPDEST PUSH1 0x2 PUSH1 0x1B SSTORE SWAP1 POP PUSH1 0x0 PUSH2 0x24B3 PUSH2 0x3E8 PUSH2 0x2448 DUP5 PUSH1 0x64 PUSH2 0x1F80 JUMP JUMPDEST SWAP1 POP PUSH2 0x24DC PUSH2 0x24D3 DUP3 PUSH2 0x246E PUSH2 0x1F4 PUSH1 0xC SLOAD PUSH2 0x1F32 SWAP1 SWAP2 SWAP1 PUSH4 0xFFFFFFFF AND JUMP JUMPDEST PUSH1 0xC SLOAD SWAP1 PUSH2 0x1FCC JUMP JUMPDEST PUSH1 0xC SSTORE POP POP JUMPDEST PUSH1 0x7 DUP4 SWAP1 SSTORE NUMBER PUSH1 0x1E SSTORE PUSH1 0xA SLOAD PUSH1 0xC SLOAD LT ISZERO PUSH2 0x24FE JUMPI PUSH1 0xA SLOAD PUSH1 0xC SSTORE JUMPDEST PUSH1 0xB SLOAD PUSH1 0xC SLOAD GT ISZERO PUSH2 0x2511 JUMPI PUSH1 0xB SLOAD PUSH1 0xC SSTORE JUMPDEST POP POP POP JUMP JUMPDEST PUSH1 0x0 DUP2 DUP4 GT ISZERO PUSH2 0x2527 JUMPI POP DUP1 PUSH2 0x8B8 JUMP JUMPDEST POP SWAP1 SWAP2 SWAP1 POP JUMP JUMPDEST PUSH1 0x0 PUSH1 0x20 DUP1 DUP4 MSTORE DUP4 MLOAD DUP1 DUP3 DUP6 ADD MSTORE PUSH1 0x0 JUMPDEST DUP2 DUP2 LT ISZERO PUSH2 0x255B JUMPI DUP6 DUP2 ADD DUP4 ADD MLOAD DUP6 DUP3 ADD PUSH1 0x40 ADD MSTORE DUP3 ADD PUSH2 0x253F JUMP JUMPDEST DUP2 DUP2 GT ISZERO PUSH2 0x256D JUMPI PUSH1 0x0 PUSH1 0x40 DUP4 DUP8 ADD ADD MSTORE JUMPDEST POP PUSH1 0x1F ADD PUSH1 0x1F NOT AND SWAP3 SWAP1 SWAP3 ADD PUSH1 0x40 ADD SWAP4 SWAP3 POP POP POP JUMP JUMPDEST DUP1 CALLDATALOAD PUSH1 0x1 PUSH1 0x1 PUSH1 0xA0 SHL SUB DUP2 AND DUP2 EQ PUSH2 0x259A JUMPI PUSH1 0x0 DUP1 REVERT JUMPDEST SWAP2 SWAP1 POP JUMP JUMPDEST PUSH1 0x0 DUP1 PUSH1 0x40 DUP4 DUP6 SUB SLT ISZERO PUSH2 0x25B2 JUMPI PUSH1 0x0 DUP1 REVERT JUMPDEST PUSH2 0x25BB DUP4 PUSH2 0x2583 JUMP JUMPDEST SWAP5 PUSH1 0x20 SWAP4 SWAP1 SWAP4 ADD CALLDATALOAD SWAP4 POP POP POP JUMP JUMPDEST PUSH1 0x0 DUP1 PUSH1 0x40 DUP4 DUP6 SUB SLT ISZERO PUSH2 0x25DC JUMPI PUSH1 0x0 DUP1 REVERT JUMPDEST POP POP DUP1 CALLDATALOAD SWAP3 PUSH1 0x20 SWAP1 SWAP2 ADD CALLDATALOAD SWAP2 POP JUMP JUMPDEST PUSH4 0x4E487B71 PUSH1 0xE0 SHL PUSH1 0x0 MSTORE PUSH1 0x41 PUSH1 0x4 MSTORE PUSH1 0x24 PUSH1 0x0 REVERT JUMPDEST PUSH1 0x40 MLOAD PUSH1 0x1F DUP3 ADD PUSH1 0x1F NOT AND DUP2 ADD PUSH8 0xFFFFFFFFFFFFFFFF DUP2 GT DUP3 DUP3 LT OR ISZERO PUSH2 0x262A JUMPI PUSH2 0x262A PUSH2 0x25EB JUMP JUMPDEST PUSH1 0x40 MSTORE SWAP2 SWAP1 POP JUMP JUMPDEST PUSH1 0x0 DUP3 PUSH1 0x1F DUP4 ADD SLT PUSH2 0x2643 JUMPI PUSH1 0x0 DUP1 REVERT JUMPDEST DUP2 CALLDATALOAD PUSH1 0x20 PUSH8 0xFFFFFFFFFFFFFFFF DUP3 GT ISZERO PUSH2 0x265F JUMPI PUSH2 0x265F PUSH2 0x25EB JUMP JUMPDEST DUP2 PUSH1 0x5 SHL PUSH2 0x266E DUP3 DUP3 ADD PUSH2 0x2601 JUMP JUMPDEST SWAP3 DUP4 MSTORE DUP5 DUP2 ADD DUP3 ADD SWAP3 DUP3 DUP2 ADD SWAP1 DUP8 DUP6 GT ISZERO PUSH2 0x2688 JUMPI PUSH1 0x0 DUP1 REVERT JUMPDEST DUP4 DUP8 ADD SWAP3 POP JUMPDEST DUP5 DUP4 LT ISZERO PUSH2 0x26AE JUMPI PUSH2 0x269F DUP4 PUSH2 0x2583 JUMP JUMPDEST DUP3 MSTORE SWAP2 DUP4 ADD SWAP2 SWAP1 DUP4 ADD SWAP1 PUSH2 0x268E JUMP JUMPDEST SWAP8 SWAP7 POP POP POP POP POP POP POP JUMP JUMPDEST PUSH1 0x0 DUP1 PUSH1 0x0 DUP1 PUSH1 0x80 DUP6 DUP8 SUB SLT ISZERO PUSH2 0x26CF JUMPI PUSH1 0x0 DUP1 REVERT JUMPDEST DUP5 CALLDATALOAD SWAP4 POP PUSH1 0x20 DUP6 ADD CALLDATALOAD SWAP3 POP PUSH1 0x40 DUP6 ADD CALLDATALOAD PUSH8 0xFFFFFFFFFFFFFFFF DUP2 GT ISZERO PUSH2 0x26F4 JUMPI PUSH1 0x0 DUP1 REVERT JUMPDEST PUSH2 0x2700 DUP8 DUP3 DUP9 ADD PUSH2 0x2632 JUMP JUMPDEST SWAP3 POP POP PUSH2 0x270F PUSH1 0x60 DUP7 ADD PUSH2 0x2583 JUMP JUMPDEST SWAP1 POP SWAP3 SWAP6 SWAP2 SWAP5 POP SWAP3 POP JUMP JUMPDEST PUSH1 0x0 DUP1 PUSH1 0x0 PUSH1 0x60 DUP5 DUP7 SUB SLT ISZERO PUSH2 0x272F JUMPI PUSH1 0x0 DUP1 REVERT JUMPDEST PUSH2 0x2738 DUP5 PUSH2 0x2583 JUMP JUMPDEST SWAP3 POP PUSH2 0x2746 PUSH1 0x20 DUP6 ADD PUSH2 0x2583 JUMP JUMPDEST SWAP2 POP PUSH1 0x40 DUP5 ADD CALLDATALOAD SWAP1 POP SWAP3 POP SWAP3 POP SWAP3 JUMP JUMPDEST PUSH1 0x0 DUP1 PUSH1 0x0 PUSH1 0x60 DUP5 DUP7 SUB SLT ISZERO PUSH2 0x276B JUMPI PUSH1 0x0 DUP1 REVERT JUMPDEST PUSH2 0x2774 DUP5 PUSH2 0x2583 JUMP JUMPDEST SWAP3 POP PUSH2 0x2782 PUSH1 0x20 DUP6 ADD PUSH2 0x2583 JUMP JUMPDEST SWAP2 POP PUSH2 0x2790 PUSH1 0x40 DUP6 ADD PUSH2 0x2583 JUMP JUMPDEST SWAP1 POP SWAP3 POP SWAP3 POP SWAP3 JUMP JUMPDEST PUSH1 0x0 PUSH1 0x20 DUP3 DUP5 SUB SLT ISZERO PUSH2 0x27AB JUMPI PUSH1 0x0 DUP1 REVERT JUMPDEST PUSH2 0x1F79 DUP3 PUSH2 0x2583 JUMP JUMPDEST PUSH1 0x0 DUP1 PUSH1 0x0 DUP1 PUSH1 0x80 DUP6 DUP8 SUB SLT ISZERO PUSH2 0x27CA JUMPI PUSH1 0x0 DUP1 REVERT JUMPDEST POP POP DUP3 CALLDATALOAD SWAP5 PUSH1 0x20 DUP5 ADD CALLDATALOAD SWAP5 POP PUSH1 0x40 DUP5 ADD CALLDATALOAD SWAP4 PUSH1 0x60 ADD CALLDATALOAD SWAP3 POP SWAP1 POP JUMP JUMPDEST PUSH1 0x0 DUP1 PUSH1 0x0 DUP1 PUSH1 0x80 DUP6 DUP8 SUB SLT ISZERO PUSH2 0x27FC JUMPI PUSH1 0x0 DUP1 REVERT JUMPDEST PUSH2 0x2805 DUP6 PUSH2 0x2583 JUMP JUMPDEST SWAP4 POP PUSH1 0x20 DUP1 DUP7 ADD CALLDATALOAD SWAP4 POP PUSH2 0x281B PUSH1 0x40 DUP8 ADD PUSH2 0x2583 JUMP JUMPDEST SWAP3 POP PUSH1 0x60 DUP7 ADD CALLDATALOAD PUSH8 0xFFFFFFFFFFFFFFFF DUP1 DUP3 GT ISZERO PUSH2 0x2838 JUMPI PUSH1 0x0 DUP1 REVERT JUMPDEST DUP2 DUP9 ADD SWAP2 POP DUP9 PUSH1 0x1F DUP4 ADD SLT PUSH2 0x284C JUMPI PUSH1 0x0 DUP1 REVERT JUMPDEST DUP2 CALLDATALOAD DUP2 DUP2 GT ISZERO PUSH2 0x285E JUMPI PUSH2 0x285E PUSH2 0x25EB JUMP JUMPDEST PUSH2 0x2870 PUSH1 0x1F DUP3 ADD PUSH1 0x1F NOT AND DUP6 ADD PUSH2 0x2601 JUMP JUMPDEST SWAP2 POP DUP1 DUP3 MSTORE DUP10 DUP5 DUP3 DUP6 ADD ADD GT ISZERO PUSH2 0x2886 JUMPI PUSH1 0x0 DUP1 REVERT JUMPDEST DUP1 DUP5 DUP5 ADD DUP6 DUP5 ADD CALLDATACOPY PUSH1 0x0 DUP5 DUP3 DUP5 ADD ADD MSTORE POP DUP1 SWAP4 POP POP POP POP SWAP3 SWAP6 SWAP2 SWAP5 POP SWAP3 POP JUMP JUMPDEST PUSH1 0x0 DUP1 PUSH1 0x0 PUSH1 0x60 DUP5 DUP7 SUB SLT ISZERO PUSH2 0x28BB JUMPI PUSH1 0x0 DUP1 REVERT JUMPDEST POP POP DUP2 CALLDATALOAD SWAP4 PUSH1 0x20 DUP4 ADD CALLDATALOAD SWAP4 POP PUSH1 0x40 SWAP1 SWAP3 ADD CALLDATALOAD SWAP2 SWAP1 POP JUMP JUMPDEST PUSH1 0x0 DUP1 PUSH1 0x0 DUP1 PUSH1 0x80 DUP6 DUP8 SUB SLT ISZERO PUSH2 0x28E8 JUMPI PUSH1 0x0 DUP1 REVERT JUMPDEST DUP5 CALLDATALOAD SWAP4 POP PUSH1 0x20 DUP6 ADD CALLDATALOAD SWAP3 POP PUSH1 0x40 DUP6 ADD CALLDATALOAD PUSH8 0xFFFFFFFFFFFFFFFF DUP1 DUP3 GT ISZERO PUSH2 0x290E JUMPI PUSH1 0x0 DUP1 REVERT JUMPDEST PUSH2 0x291A DUP9 DUP4 DUP10 ADD PUSH2 0x2632 JUMP JUMPDEST SWAP4 POP PUSH1 0x60 DUP8 ADD CALLDATALOAD SWAP2 POP DUP1 DUP3 GT ISZERO PUSH2 0x2930 JUMPI PUSH1 0x0 DUP1 REVERT JUMPDEST POP PUSH2 0x293D DUP8 DUP3 DUP9 ADD PUSH2 0x2632 JUMP JUMPDEST SWAP2 POP POP SWAP3 SWAP6 SWAP2 SWAP5 POP SWAP3 POP JUMP JUMPDEST PUSH1 0x0 DUP1 PUSH1 0x40 DUP4 DUP6 SUB SLT ISZERO PUSH2 0x295C JUMPI PUSH1 0x0 DUP1 REVERT JUMPDEST PUSH2 0x2965 DUP4 PUSH2 0x2583 JUMP JUMPDEST SWAP2 POP PUSH2 0x2973 PUSH1 0x20 DUP5 ADD PUSH2 0x2583 JUMP JUMPDEST SWAP1 POP SWAP3 POP SWAP3 SWAP1 POP JUMP JUMPDEST PUSH1 0x0 DUP1 PUSH1 0x0 PUSH1 0x60 DUP5 DUP7 SUB SLT ISZERO PUSH2 0x2991 JUMPI PUSH1 0x0 DUP1 REVERT JUMPDEST DUP4 CALLDATALOAD SWAP3 POP PUSH1 0x20 DUP5 ADD CALLDATALOAD SWAP2 POP PUSH2 0x2790 PUSH1 0x40 DUP6 ADD PUSH2 0x2583 JUMP JUMPDEST PUSH1 0x1 DUP2 DUP2 SHR SWAP1 DUP3 AND DUP1 PUSH2 0x29BC JUMPI PUSH1 0x7F DUP3 AND SWAP2 POP JUMPDEST PUSH1 0x20 DUP3 LT DUP2 EQ ISZERO PUSH2 0x29DD JUMPI PUSH4 0x4E487B71 PUSH1 0xE0 SHL PUSH1 0x0 MSTORE PUSH1 0x22 PUSH1 0x4 MSTORE PUSH1 0x24 PUSH1 0x0 REVERT JUMPDEST POP SWAP2 SWAP1 POP JUMP JUMPDEST PUSH4 0x4E487B71 PUSH1 0xE0 SHL PUSH1 0x0 MSTORE PUSH1 0x11 PUSH1 0x4 MSTORE PUSH1 0x24 PUSH1 0x0 REVERT JUMPDEST PUSH1 0x0 DUP3 NOT DUP3 GT ISZERO PUSH2 0x2A0C JUMPI PUSH2 0x2A0C PUSH2 0x29E3 JUMP JUMPDEST POP ADD SWAP1 JUMP JUMPDEST PUSH4 0x4E487B71 PUSH1 0xE0 SHL PUSH1 0x0 MSTORE PUSH1 0x32 PUSH1 0x4 MSTORE PUSH1 0x24 PUSH1 0x0 REVERT JUMPDEST PUSH1 0x0 PUSH1 0x0 NOT DUP3 EQ ISZERO PUSH2 0x2A3B JUMPI PUSH2 0x2A3B PUSH2 0x29E3 JUMP JUMPDEST POP PUSH1 0x1 ADD SWAP1 JUMP JUMPDEST PUSH1 0x1 DUP2 DUP2 JUMPDEST DUP1 DUP6 GT ISZERO PUSH2 0x2A7D JUMPI DUP2 PUSH1 0x0 NOT DIV DUP3 GT ISZERO PUSH2 0x2A63 JUMPI PUSH2 0x2A63 PUSH2 0x29E3 JUMP JUMPDEST DUP1 DUP6 AND ISZERO PUSH2 0x2A70 JUMPI SWAP2 DUP2 MUL SWAP2 JUMPDEST SWAP4 DUP5 SHR SWAP4 SWAP1 DUP1 MUL SWAP1 PUSH2 0x2A47 JUMP JUMPDEST POP SWAP3 POP SWAP3 SWAP1 POP JUMP JUMPDEST PUSH1 0x0 DUP3 PUSH2 0x2A94 JUMPI POP PUSH1 0x1 PUSH2 0x8B8 JUMP JUMPDEST DUP2 PUSH2 0x2AA1 JUMPI POP PUSH1 0x0 PUSH2 0x8B8 JUMP JUMPDEST DUP2 PUSH1 0x1 DUP2 EQ PUSH2 0x2AB7 JUMPI PUSH1 0x2 DUP2 EQ PUSH2 0x2AC1 JUMPI PUSH2 0x2ADD JUMP JUMPDEST PUSH1 0x1 SWAP2 POP POP PUSH2 0x8B8 JUMP JUMPDEST PUSH1 0xFF DUP5 GT ISZERO PUSH2 0x2AD2 JUMPI PUSH2 0x2AD2 PUSH2 0x29E3 JUMP JUMPDEST POP POP PUSH1 0x1 DUP3 SHL PUSH2 0x8B8 JUMP JUMPDEST POP PUSH1 0x20 DUP4 LT PUSH2 0x133 DUP4 LT AND PUSH1 0x4E DUP5 LT PUSH1 0xB DUP5 LT AND OR ISZERO PUSH2 0x2B00 JUMPI POP DUP2 DUP2 EXP PUSH2 0x8B8 JUMP JUMPDEST PUSH2 0x2B0A DUP4 DUP4 PUSH2 0x2A42 JUMP JUMPDEST DUP1 PUSH1 0x0 NOT DIV DUP3 GT ISZERO PUSH2 0x2B1E JUMPI PUSH2 0x2B1E PUSH2 0x29E3 JUMP JUMPDEST MUL SWAP4 SWAP3 POP POP POP JUMP JUMPDEST PUSH1 0x0 PUSH2 0x1F79 DUP4 DUP4 PUSH2 0x2A85 JUMP JUMPDEST PUSH1 0x0 DUP2 PUSH1 0x0 NOT DIV DUP4 GT DUP3 ISZERO ISZERO AND ISZERO PUSH2 0x2B4C JUMPI PUSH2 0x2B4C PUSH2 0x29E3 JUMP JUMPDEST POP MUL SWAP1 JUMP JUMPDEST PUSH4 0x4E487B71 PUSH1 0xE0 SHL PUSH1 0x0 MSTORE PUSH1 0x1 PUSH1 0x4 MSTORE PUSH1 0x24 PUSH1 0x0 REVERT JUMPDEST PUSH4 0x4E487B71 PUSH1 0xE0 SHL PUSH1 0x0 MSTORE PUSH1 0x12 PUSH1 0x4 MSTORE PUSH1 0x24 PUSH1 0x0 REVERT JUMPDEST PUSH1 0x0 DUP3 PUSH2 0x2B8C JUMPI PUSH2 0x2B8C PUSH2 0x2B67 JUMP JUMPDEST POP DIV SWAP1 JUMP JUMPDEST SWAP3 DUP4 MSTORE PUSH1 0x60 SWAP2 SWAP1 SWAP2 SHL PUSH12 0xFFFFFFFFFFFFFFFFFFFFFFFF NOT AND PUSH1 0x20 DUP4 ADD MSTORE PUSH1 0x34 DUP3 ADD MSTORE PUSH1 0x54 ADD SWAP1 JUMP JUMPDEST PUSH1 0x0 PUSH1 0x20 DUP3 DUP5 SUB SLT ISZERO PUSH2 0x2BCB JUMPI PUSH1 0x0 DUP1 REVERT JUMPDEST DUP2 MLOAD DUP1 ISZERO ISZERO DUP2 EQ PUSH2 0x1F79 JUMPI PUSH1 0x0 DUP1 REVERT JUMPDEST PUSH1 0x0 DUP3 PUSH2 0x2BEA JUMPI PUSH2 0x2BEA PUSH2 0x2B67 JUMP JUMPDEST POP MOD SWAP1 JUMP JUMPDEST PUSH1 0x0 PUSH1 0x20 DUP3 DUP5 SUB SLT ISZERO PUSH2 0x2C01 JUMPI PUSH1 0x0 DUP1 REVERT JUMPDEST POP MLOAD SWAP2 SWAP1 POP JUMP JUMPDEST PUSH1 0x0 DUP3 DUP3 LT ISZERO PUSH2 0x2C1A JUMPI PUSH2 0x2C1A PUSH2 0x29E3 JUMP JUMPDEST POP SUB SWAP1 JUMP JUMPDEST PUSH1 0x0 PUSH2 0x1F79 PUSH1 0xFF DUP5 AND DUP4 PUSH2 0x2A85 JUMP JUMPDEST PUSH1 0x20 DUP1 DUP3 MSTORE PUSH1 0x2E SWAP1 DUP3 ADD MSTORE PUSH32 0x4F6C64206368616C6C656E67655F646967657374206F722077726F6E67206368 PUSH1 0x40 DUP3 ADD MSTORE PUSH14 0x185B1B195B99D957D91A59D95CDD PUSH1 0x92 SHL PUSH1 0x60 DUP3 ADD MSTORE PUSH1 0x80 ADD SWAP1 JUMP JUMPDEST PUSH1 0x20 DUP1 DUP3 MSTORE PUSH1 0x28 SWAP1 DUP3 ADD MSTORE PUSH32 0x446967657374206D75737420626520736D616C6C6572207468616E206D696E69 PUSH1 0x40 DUP3 ADD MSTORE PUSH8 0x1B99D5185C99D95D PUSH1 0xC2 SHL PUSH1 0x60 DUP3 ADD MSTORE PUSH1 0x80 ADD SWAP1 JUMP INVALID LOG2 PUSH5 0x6970667358 0x22 SLT KECCAK256 0xB2 MUL 0xED DUP5 0x24 0xEE PUSH29 0xE6290A8007713B955AA16298F43EE27EAF26384943AD33AD5364736F6C PUSH4 0x4300080B STOP CALLER ",
  "sha1": "a13b0ff62aa67f0722e80786b7927a22b8f953e7",
  "source": "/**\n *Submitted for verification at polygonscan.com on 2022-02-12\n*/\n\n// Forge - Contract\n//\n// Distrubtion of Forge Token is as follows:\n// 25% of Forge Token is Auctioned in the ForgeAuctions Contract which distributes tokens to users who use 0xBitcoin to buy tokens in fair price. Each auction lasts ~3 days. Using the Auctions contract\n// +\n// 25% of Forge Token is distributed as Liquidiy Pool rewards in the ForgeRewards Contract which distributes tokens to users who deposit the SpiritSwap Liquidity Pool tokens into the LPRewards contract.\n// +\n// 50% of Forge Token is distributed using Forge Contract(this Contract) which distributes tokens to users by using Proof of work. Computers solve a complicated problem to gain tokens!\n//\n// = 100% Of the Token is distributed to the users! No dev fee or premine!\n//\n// All distributions happen fairly using Bitcoins model of distribution using reward halvings and difficulty adjustments.  Distribution happens over 100 years!  \n// 100%  on-chain, decentralized, trustless, ownerless contracts*!\n//   The harder it is mined the less tokens that are awarded.\n// Network: Polygon Chain \n// ChainID = 89\n//\n//\n// Name: Forge\n// Symbol: Fge\n// Decimals: 18 \n//\n// Total supply: 42,000,001.000000000000000000\n//   =\n// 21,000,000 Mined over 100+ years using Bitcoins Distrubtion halvings every 4 years. Uses Proof-oF-Work to distribute the tokens. Public Miner is available.  Uses this contract.\n//   +\n// 10,500,000 Auctioned over 100+ years into 4 day auctions split fairly among all buyers. ALL 0xBitcoin proceeds go into THIS contract which it fairly distributes to miners.  Uses the ForgeAuctions contract\n//   +\n// 10,500,000 tokens goes to Liquidity Providers of the token over 100+ year using Bitcoins distribution!  Helps prevent LP losses!  Uses the ForgeRewards Contract\n//\n//  =\n//\n// 42,000,001 Tokens is the max Supply\n//      \n// 66% of the 0xBitcoin Token from this contract goes to the Miner to pay for the transaction cost and if the token grows enough earn 0xBitcoin per mint!!\n// 33% of the 0xBitcoin TOken from this contract goes to the Liquidity Providers via ForgeRewards Contract.  Helps prevent Impermant Loss! Larger Liquidity!\n//\n// No premine, dev cut, or advantage taken at launch. Public miner available at launch.  100% of the token is given away fairly over 100+ years using Bitcoins model!\n//\n// Send this contract any ERC20 token and it will become instantly mineable and able to distribute using proof-of-work for 1 year!!!!\n//\n//Viva la Mineables!!! Send this contract any ERC20 complient token (Wrapped NFTs incoming!) and we will fairly to miners and Holders(\n//  Each Mint prints (1/10000) of any ERC20.\n//pThirdDifficulty allows for the difficulty to be cut in a third.  So difficulty 10,000 becomes 3,333.  Costs 333 Fantom  Makes mining 3x easier\n//* 1 tokens in LP are burned to create the LP pool.\n//\n// Credits: 0xBitcoin, Vether, Synethix\n//* Except for Staking Rewards additional cryptocurrencies\n\n\npragma solidity ^0.8.11;\n\ncontract Ownable {\n    address public owner;\n\n    event TransferOwnership(address _from, address _to);\n\n    constructor() public {\n        owner = msg.sender;\n        emit TransferOwnership(address(0), msg.sender);\n    }\n\n    modifier onlyOwner() {\n        require(msg.sender == owner, \"only owner\");\n        _;\n    }\n\n    function setOwner(address _owner) internal onlyOwner {\n        emit TransferOwnership(owner, _owner);\n        owner = _owner;\n    }\n}\n\n\n\n\nlibrary IsContract {\n    function isContract(address _addr) internal view returns (bool) {\n        bytes32 codehash;\n        /* solium-disable-next-line */\n        assembly { codehash := extcodehash(_addr) }\n        return codehash != bytes32(0) && codehash != bytes32(0xc5d2460186f7233c927e7db2dcc703c0e500b653ca82273b7bfad8045d85a470);\n    }\n}\n\n// File: contracts/utils/SafeMath.sol\n\nlibrary SafeMath2 {\n    function add(uint256 x, uint256 y) internal pure returns (uint256) {\n        uint256 z = x + y;\n        require(z >= x, \"Add overflow\");\n        return z;\n    }\n\n    function sub(uint256 x, uint256 y) internal pure returns (uint256) {\n        require(x >= y, \"Sub underflow\");\n        return x - y;\n    }\n\n    function mult(uint256 x, uint256 y) internal pure returns (uint256) {\n        if (x == 0) {\n            return 0;\n        }\n\n        uint256 z = x * y;\n        require(z / x == y, \"Mult overflow\");\n        return z;\n    }\n\n    function div(uint256 x, uint256 y) internal pure returns (uint256) {\n        require(y != 0, \"Div by zero\");\n        return x / y;\n    }\n\n    function divRound(uint256 x, uint256 y) internal pure returns (uint256) {\n        require(y != 0, \"Div by zero\");\n        uint256 r = x / y;\n        if (x % y != 0) {\n            r = r + 1;\n        }\n\n        return r;\n    }\n}\n\n// File: contracts/utils/Math.sol\n\nlibrary ExtendedMath2 {\n\n\n    //return the smaller of the two inputs (a or b)\n    function limitLessThan(uint a, uint b) internal pure returns (uint c) {\n\n        if(a > b) return b;\n\n        return a;\n\n    }\n}\n\n// File: contracts/interfaces/IERC20.sol\n\ninterface IERC20 {\n\tfunction totalSupply() external view returns (uint256);\n    event Transfer(address indexed _from, address indexed _to, uint256 _value);\n    event Approval(address indexed _owner, address indexed _spender, uint256 _value);\n    function transfer(address _to, uint _value) external returns (bool success);\n    function transferFrom(address _from, address _to, uint256 _value) external returns (bool success);\n    function allowance(address _owner, address _spender) external view returns (uint256 remaining);\n    function approve(address _spender, uint256 _value) external returns (bool success);\n    function balanceOf(address _owner) external view returns (uint256 balance);\n    \n}\n\n\n// File: contracts/commons/AddressMinHeap.sol\n\n\n\nabstract contract ApproveAndCallFallBack {\n    function receiveApproval(address from, uint256 tokens, address token, bytes memory data) virtual public;\n}\n\n\n//Main contract\n\ncontract Forge is Ownable, IERC20, ApproveAndCallFallBack {\n\tuint constant public targetTime = 60 * 48;\n    uint public multipler = 0;\n// SUPPORTING CONTRACTS\n    address public AddressAuction;\n    address public AddressLPReward;\n    address public AddressZeroXBTC;\n//Events\n    using SafeMath2 for uint256;\n    using ExtendedMath2 for uint;\n    event Mint(address indexed from, uint reward_amount, uint epochCount, bytes32 newChallengeNumber);\n    event MegaMint(address indexed from, uint epochCount, bytes32 newChallengeNumber, uint NumberOfTokensMinted, uint256 TokenMultipler);\n\n// Managment events\n    uint256 override public totalSupply = 42000001000000000000000000;\n    bytes32 private constant BALANCE_KEY = keccak256(\"balance\");\n\n    //BITCOIN INITALIZE Start\n\t\n    uint _totalSupply = 21000000000000000000000000;\n    uint public latestDifficultyPeriodStarted2 = block.timestamp;\n    uint public epochCount = 0;//number of 'blocks' mined\n\n    uint public _BLOCKS_PER_READJUSTMENT = 256;\n\n    //a little number\n    uint public  _MINIMUM_TARGET = 2**16;\n    \n    uint public  _MAXIMUM_TARGET = 2**234;\n    uint public miningTarget = _MAXIMUM_TARGET.div(200000000000*25);  //1000 million difficulty to start until i enable mining\n    \n    bytes32 public challengeNumber = blockhash(block.number - 1);   //generate a new one when a new reward is minted\n    uint public rewardEra = 0;\n    uint public maxSupplyForEra = (_totalSupply - _totalSupply.div( 2**(rewardEra + 1)));\n    uint public reward_amount = 0;\n    \n    //Stuff for Functions\n    uint oldecount = 0;\n    uint public previousBlockTime  =  block.timestamp;\n    uint oneEthUnit =    1000000000000000000;\n    uint one8unit   =              100000000;\n    uint public Token2Per=           1000000;\n    uint Token2Min=                       88;\n    uint public tokensMinted;\n    mapping(address => uint) balances;\n    mapping(address => mapping(address => uint)) allowed;\n    uint give0xBTC = 0;\n    uint give = 1;\n    // metadata\n    string public name = \"Forge\";\n    string public constant symbol = \"Fge\";\n    uint8 public constant decimals = 18;\n\n    uint256 lastrun = block.timestamp;\n    uint public latestDifficultyPeriodStarted = block.number;\n    bool initeds = false;\n    \n    // mint 1 token to setup LPs\n\t    constructor() public {\n    balances[msg.sender] = 1000000000000000000;\n    emit Transfer(address(0), msg.sender, 1000000000000000000);\n\t}\n\n    function zinit(address AuctionAddress2, address LPGuild2, address _ZeroXBTCAddress) public onlyOwner{\n        uint x = 21000000000000000000000000; \n        // Only init once\n        assert(!initeds);\n        initeds = true;\n\t    previousBlockTime = block.timestamp;\n\t    reward_amount = (100 * 10**uint(decimals) ).div( 2**rewardEra );\n    \trewardEra = 0;\n\t    tokensMinted = 0;\n\t    epochCount = 0;\n    \tminingTarget = _MAXIMUM_TARGET.div(1); //5000000 = 31gh/s @ 7 min for FPGA mining\n        latestDifficultyPeriodStarted2 = block.timestamp;\n    \t_startNewMiningEpoch();\n        // Init contract variables and mint\n        balances[AuctionAddress2] = x/2;\n\t\n        emit Transfer(address(0), AuctionAddress2, x/2);\n\t\n    \tAddressAuction = AuctionAddress2;\n        AddressLPReward = payable(LPGuild2);\n        AddressZeroXBTC = _ZeroXBTCAddress;\n\t\n        oldecount = epochCount;\n\t\n\t\tsetOwner(address(0));\n     \n    }\n\n\n\n\t///\n\t// Managment\n\t///\n\n\tfunction ARewardSender() public {\n\t\t//runs every _BLOCKS_PER_READJUSTMENT / 4\n\n\t\tuint256 runs = block.timestamp - lastrun;\n\n\t\tuint256 epochsPast = epochCount - oldecount; //actually epoch\n\t\tuint256 runsperepoch = runs / epochsPast;\n\n\t\treward_amount = (100 * 10**uint(decimals)).div( 2**rewardEra );\n\t\tuint256 x = (runsperepoch * 888).divRound(targetTime);\n\t\tuint256 ratio = x * 100 / 888;\n\t\tuint256 totalOwed;\n\t\t\n\t\t if(ratio < 200){\n\t\t\ttotalOwed = (61001200 * (x ** 2 )).div(888**2) + (40861500 * x).div(888) ;\n\t\t }else {\n\t\t\ttotalOwed = (340000000);\n\t\t} \n\n\t\tif(IERC20(AddressZeroXBTC).balanceOf(address(this)) > (30 * 2 * (Token2Per * _BLOCKS_PER_READJUSTMENT)/4)){  // at least enough blocks to rerun this function for both LPRewards and Users\n\t\t\tIERC20(AddressZeroXBTC).transfer(AddressLPReward, ((epochsPast) * totalOwed * Token2Per * give0xBTC).div(2 * 100000000));\n\t\t\tgive0xBTC = 1 * give;\n\t\t}else{\n\t\t\tgive0xBTC = 0;\n\t\t}\n\t\toldecount = epochCount; //actually epoch\n\n\t\tlastrun = block.timestamp;\n\t}\n\n\n\t//comability function\n\tfunction mint(uint256 nonce, bytes32 challenge_digest) public returns (bool success) {\n\t\tmintTo(nonce, challenge_digest, msg.sender);\n\t}\n\n\n\tfunction mintTo(uint256 nonce, bytes32 challenge_digest,  address mintTo) public returns (uint256 owed) {\n\n\t\tbytes32 digest =  keccak256(abi.encodePacked(challengeNumber, msg.sender, nonce));\n\n\t\t//the challenge digest must match the expected\n\t\trequire(digest == challenge_digest, \"Old challenge_digest or wrong challenge_digest\");\n\n\t\t//the digest must be smaller than the target\n\t\trequire(uint256(digest) < miningTarget, \"Digest must be smaller than miningTarget\");\n\t\t_startNewMiningEpoch();\n\n\t\trequire(block.timestamp > previousBlockTime, \"No same second solves\");\n\n\t\t//uint diff = block.timestamp - previousBlockTime;\n\t\tuint256 x = ((block.timestamp - previousBlockTime) * 888) / targetTime;\n\t\tuint ratio = x * 100 / 888;\n\t\tuint totalOwed = 0;\n\t\tif(ratio < 314){\n\t\t\ttotalOwed = (61001200 * (x ** 2 )).div(888 ** 2)+ (40861500 * x).div(888);\n\t\t}else {\n\t\t\ttotalOwed = (x * 100000000).div(888) + (350000000);\n\t\t} \n\n\n\t\tbalances[mintTo] = balances[mintTo].add((reward_amount * totalOwed).div(100000000));\n\t\tbalances[AddressLPReward] = balances[AddressLPReward].add((reward_amount * totalOwed).div(100000000 * 2));\n\t\t\t\t\n\t\ttokensMinted = tokensMinted.add((reward_amount * totalOwed).div(100000000));\n\t\tpreviousBlockTime = block.timestamp;\n\n\t\tif(give0xBTC > 0){\n\t\t\tif(ratio < 200){\n\t\t\t\tIERC20(AddressZeroXBTC).transfer(mintTo, (totalOwed * Token2Per * give0xBTC).div(100000000));\n\t\t\t}else{\n\t\t\t\tIERC20(AddressZeroXBTC).transfer(mintTo, (34 * Token2Per * give0xBTC).div(10));\n\t\t\t}\n\t\t}\n\n\t\temit Mint(msg.sender, (reward_amount * totalOwed).div(100000000), epochCount, challengeNumber );\n\n\t\treturn totalOwed;\n\n\t}\n\n\n\tfunction mintTokensArrayTo(uint256 nonce, bytes32 challenge_digest, address[] memory ExtraFunds, address[] memory MintTo) public returns (uint256 owed) {\n\t\tuint256 totalOd = mintTo(nonce,challenge_digest, MintTo[0]);\n\t\trequire(totalOd > 0, \"mint issue\");\n\n\t\trequire(MintTo.length == ExtraFunds.length + 1,\"MintTo has to have an extra address compared to ExtraFunds\");\n\t\tuint xy=0;\n\t\tfor(xy = 0; xy< ExtraFunds.length; xy++)\n\t\t{\n\t\t\tif(epochCount % (2**(xy+1)) != 0){\n\t\t\t\tbreak;\n\t\t\t}\n\t\t\trequire(ExtraFunds[xy] != address(this) && ExtraFunds[xy] != AddressZeroXBTC, \"No base printing of tokens\");\n\t\t\tfor(uint y=xy+1; y< ExtraFunds.length; y++){\n\t\t\t\trequire(ExtraFunds[y] != ExtraFunds[xy], \"No printing The same tokens\");\n\t\t\t}\n\t\t}\n\t\t\n\t\tuint256 totalOwed = 0;\n\t\tuint256 TotalOwned = 0;\n\t\tfor(uint x=0; x<xy; x++)\n\t\t{\n\t\t\t//epoch count must evenly dividable by 2^n in order to get extra mints. \n\t\t\t//ex. epoch 2 = 1 extramint, epoch 4 = 2 extra, epoch 8 = 3 extra mints, epoch 16 = 4 extra mints w/ a divRound for the 4th mint(allows small balance token minting aka NFTs)\n\t\t\tif(epochCount % (2**(x+1)) == 0){\n\t\t\t\tTotalOwned = IERC20(ExtraFunds[x]).balanceOf(address(this));\n\t\t\t\tif(TotalOwned != 0){\n\t\t\t\t\tif( x % 3 == 0 && x != 0){\n\t\t\t\t\t\ttotalOwed = (TotalOwned * totalOd).divRound(100000000 * 2500);\n\t\t\t\t\t}else{\n\t\t\t\t\t\ttotalOwed = (TotalOwned * totalOd).div(100000000 * 2500 );\n\t\t\t\t\t}\n\t\t\t\t}\n\t\t\t    IERC20(ExtraFunds[x]).transfer(MintTo[x+1], totalOwed);\n\t\t\t}\n        }\n        \t\n\t\temit MegaMint(msg.sender, epochCount, challengeNumber, xy, totalOd );\n\n\t\treturn totalOd;\n\n    }\n\n\n\tfunction mintTokensSameAddress(uint256 nonce, bytes32 challenge_digest, address[] memory ExtraFunds, address MintTo) public returns (bool success) {\n\t\taddress[] memory dd = new address[](ExtraFunds.length + 1); \n\n\t\tfor(uint x=0; x< (ExtraFunds.length + 1); x++)\n\t\t{\n\t\t\tdd[x] = MintTo;\n\t\t}\n\t\t\n\t\tmintTokensArrayTo(nonce, challenge_digest, ExtraFunds, dd);\n\n\t\treturn true;\n\t}\n\n\n\tfunction empty_mintTo(uint256 nonce, bytes32 challenge_digest, address[] memory ExtraFunds, address[] memory MintTo) public returns (uint256 owed) {\n\t\tbytes32 digest =  keccak256(abi.encodePacked(challengeNumber, msg.sender, nonce));\n\n\t\t//the challenge digest must match the expected\n\t\trequire(digest == challenge_digest, \"Old challenge_digest or wrong challenge_digest\");\n\n\t\t//the digest must be smaller than the target\n\t\trequire(uint256(digest) < miningTarget, \"Digest must be smaller than miningTarget\");\n\t\t_startNewMiningEpoch();\n\n\t\trequire(block.timestamp > previousBlockTime, \"No same second solves\");\n\t\trequire(MintTo.length == ExtraFunds.length,\"MintTo has to have same number of addressses as ExtraFunds\");\n\t\tuint xy=0;\n\t\tfor(xy = 0; xy< ExtraFunds.length; xy++)\n\t\t{\n\t\t\tif(epochCount % (2**(xy+1)) != 0){\n\t\t\t\tbreak;\n\t\t\t}\n\t\t\trequire(ExtraFunds[xy] != address(this) && ExtraFunds[xy] != AddressZeroXBTC, \"No base printing of tokens\");\n\t\t\tfor(uint y=xy+1; y< ExtraFunds.length; y++){\n\t\t\t\trequire(ExtraFunds[y] != ExtraFunds[xy], \"No printing The same tokens\");\n\t\t\t}\n\t\t}\n\n\t\tuint256 x = ((block.timestamp - previousBlockTime) * 888) / targetTime;\n\t\tuint ratio = x * 100 / 888;\n\t\tuint totalIN = 0;\n\t\tif(ratio < 314){\n\t\t\ttotalIN = (61001200 * (x ** 2 )).div(888 ** 2)+ (40861500 * x).div(888);\n\t\t}else {\n\t\t\ttotalIN = (x * 100000000).div(888) + (350000000);\n\t\t} \n\t\trequire(totalIN > 0, \"mint issue\");\n\t\tuint256 totalOwed;\n\t\tuint256 TotalOwned;\n\t\tfor(uint x=0; x<xy; x++)\n\t\t{\n\t\t\t//epoch count must evenly dividable by 2^n in order to get extra mints. \n\t\t\t//ex. epoch 2 = 1 extramint, epoch 4 = 2 extra, epoch 8 = 3 extra mints, epoch 16 = 4 extra mints w/ a divRound for the 4th mint(allows small balance token minting aka NFTs)\n\t\t\tif(epochCount % (2**(x+1)) == 0){\n\t\t\t\tTotalOwned = IERC20(ExtraFunds[x]).balanceOf(address(this));\n\t\t\t\tif(TotalOwned != 0){\n\t\t\t\t\tif( x % 3 == 0 && x != 0){\n\t\t\t\t\t\ttotalOwed = (TotalOwned * totalIN).divRound(100000000 * 2500);\n\t\t\t\t\t}else{\n\t\t\t\t\t\ttotalOwed = (TotalOwned * totalIN).div(100000000 * 2500 );\n\t\t\t\t    }\n\t\t\t    IERC20(ExtraFunds[x]).transfer(MintTo[x], totalOwed);\n\t\t\t    }\n            }\n        }\n\n\t\tpreviousBlockTime = block.timestamp;\n\t\treturn totalIN;   \n\t}\n\n\n\n\tfunction _startNewMiningEpoch() internal {\n\n\n\t\t//if max supply for the era will be exceeded next reward round then enter the new era before that happens\n\t\t//59 is the final reward era, almost all tokens minted\n\t\tif( tokensMinted.add(reward_amount) > maxSupplyForEra && rewardEra < 60)\n\t\t{\n\t\t\trewardEra = rewardEra + 1;\n\t\t\tmaxSupplyForEra = _totalSupply - _totalSupply.div( 2**(rewardEra + 1));\n\t\t}\n\n\t\t//set the next minted supply at which the era will change\n\t\t// total supply of MINED tokens is 21000000000000000000000000  because of 16 decimal places\n\n\t\tepochCount = epochCount.add(1);\n\n\t\t//every so often, readjust difficulty. Dont readjust when deploying\n\t\tif((epochCount) % (_BLOCKS_PER_READJUSTMENT / 4) == 0)\n\t\t{\n\t\t\tARewardSender();\n\t\t\tmaxSupplyForEra = _totalSupply - _totalSupply.div( 2**(rewardEra + 1));\n\n\t\t\tif((epochCount % _BLOCKS_PER_READJUSTMENT== 0))\n\t\t\t{\n\t\t\t\tmultipler = (IERC20(AddressZeroXBTC).balanceOf(address(this)) / (2000 * 10 ** 8));\n\t\t\t\tif(( IERC20(AddressZeroXBTC).balanceOf(address(this)) / Token2Per) <= (10000 + 10000*(multipler))) //chosen to give keep 250 days payouts in reserve at current payout\n\t\t\t\t{\n\t\t\t\t\tif(Token2Per.div(2) > Token2Min)\n\t\t\t\t\t{\n\t\t\t\t\t\tToken2Per = Token2Per.div(2);\n\t\t\t\t\t}\n\t\t\t\t}else{\n\t\t\t\t\tToken2Per = Token2Per.mult(3);\n\t\t\t\t}\n\t\t\t\t_reAdjustDifficulty();\n\t\t\t}\n\t\t}\n\n\t\tchallengeNumber = blockhash(block.number - 1);\n\t}\n\n\n\tfunction _reAdjustDifficulty() internal {\n\t\tuint256 blktimestamp = block.timestamp;\n\t\tuint TimeSinceLastDifficultyPeriod2 = blktimestamp - latestDifficultyPeriodStarted2;\n\n\t\tuint adjusDiffTargetTime = targetTime *  _BLOCKS_PER_READJUSTMENT; //36 min per block 60 sec * 12\n\n\t\t//if there were less eth blocks passed in time than expected\n\t\tif( TimeSinceLastDifficultyPeriod2 < adjusDiffTargetTime )\n\t\t{\n\t\t\tuint excess_block_pct = (adjusDiffTargetTime.mult(100)).div( TimeSinceLastDifficultyPeriod2 );\n\t\t\tgive = 1;\n\t\t\tuint excess_block_pct_extra = excess_block_pct.sub(100).limitLessThan(1000);\n\t\t\t//make it harder \n\t\t\tminingTarget = miningTarget.sub(miningTarget.div(2000).mult(excess_block_pct_extra));   //by up to 50 %\n\t\t}else{\n\t\t\tuint shortage_block_pct = (TimeSinceLastDifficultyPeriod2.mult(100)).div( adjusDiffTargetTime );\n\t\t\tgive = 2;\n\t\t\tuint shortage_block_pct_extra = shortage_block_pct.sub(100).limitLessThan(1000); //always between 0 and 1000\n\t\t\t//make it easier\n\t\t\tminingTarget = miningTarget.add(miningTarget.div(500).mult(shortage_block_pct_extra));   //by up to 200 %\n\t\t}\n\n\t\tlatestDifficultyPeriodStarted2 = blktimestamp;\n\t\tlatestDifficultyPeriodStarted = block.number;\n\t\tif(miningTarget < _MINIMUM_TARGET) //very difficult\n\t\t{\n\t\t\tminingTarget = _MINIMUM_TARGET;\n\t\t}\n\t\tif(miningTarget > _MAXIMUM_TARGET) //very easy\n\t\t{\n\t\t\tminingTarget = _MAXIMUM_TARGET;\n\t\t}\n\t\t\n\t}\n\n\n\t\t//42 m coins total\n\t\t// = \n\t\t//21 million proof of work\n\t\t// + \n\t\t//10.5 million proof of burn\n\t\t// +\n\t\t//10.5 million rewards for Liquidity Providers\n\n\n\t//help debug mining software\n\tfunction checkMintSolution(uint256 nonce, bytes32 challenge_digest, bytes32 challenge_number, uint testTarget) public view returns (bool success) {\n\t\tbytes32 digest = bytes32(keccak256(abi.encodePacked(challenge_number,msg.sender,nonce)));\n\t\tif(uint256(digest) > testTarget) revert();\n\n\t\treturn (digest == challenge_digest);\n\t}\n\n\n\t//this is a recent ethereum block hash, used to prevent pre-mining future blocks\n\tfunction getChallengeNumber() public view returns (bytes32) {\n\n\t\treturn challengeNumber;\n\n\t}\n\n\n\t//the number of zeroes the digest of the PoW solution requires.  Auto adjusts\n\tfunction getMiningDifficulty() public view returns (uint) {\n\n\t\treturn _MAXIMUM_TARGET.div(miningTarget);\n\t}\n\n\n\tfunction getMiningTarget() public view returns (uint) {\n\n\t\treturn miningTarget;\n\n\t}\n\n\n\tfunction getMiningMinted() public view returns (uint) {\n\n\t\treturn tokensMinted;\n\n\t}\n\n\n\t//21m coins total\n\t//reward begins at 150 and is cut in half every reward era (as tokens are mined)\n\tfunction getMiningReward() public view returns (uint) {\n\t\t//once we get half way thru the coins, only get 25 per block\n\t\t//every reward era, the reward amount halves.\n\n\t\treturn (100 * 10**uint(decimals) ).div( 2**rewardEra ) ;\n\n\t\t}\n\n\n\tfunction getEpoch() public view returns (uint) {\n\n\t\treturn epochCount ;\n\n\t}\n\n\n\t//help debug mining software\n\tfunction getMintDigest(uint256 nonce, bytes32 challenge_digest, bytes32 challenge_number) public view returns (bytes32 digesttest) {\n\n\t\tbytes32 digest =  keccak256(abi.encodePacked(challengeNumber, msg.sender, nonce));\n\n\t\treturn digest;\n\n\t}\n\n\n\t\t// ------------------------------------------------------------------------\n\n\t\t// Get the token balance for account `tokenOwner`\n\n\t\t// ------------------------------------------------------------------------\n\n\tfunction balanceOf(address tokenOwner) public override view returns (uint balance) {\n\n\t\treturn balances[tokenOwner];\n\n\t}\n\n\n\t\t// ------------------------------------------------------------------------\n\n\t\t// Transfer the balance from token owner's account to `to` account\n\n\t\t// - Owner's account must have sufficient balance to transfer\n\n\t\t// - 0 value transfers are allowed\n\n\t\t// ------------------------------------------------------------------------\n\n\n\tfunction transfer(address to, uint tokens) public override returns (bool success) {\n\n\t\tbalances[msg.sender] = balances[msg.sender].sub(tokens);\n\t\tbalances[to] = balances[to].add(tokens);\n\n\t\temit Transfer(msg.sender, to, tokens);\n\n\t\treturn true;\n\n\t}\n\n\n\t\t// ------------------------------------------------------------------------\n\n\t\t// Token owner can approve for `spender` to transferFrom(...) `tokens`\n\n\t\t// from the token owner's account\n\n\t\t//\n\n\t\t// https://github.com/ethereum/EIPs/blob/master/EIPS/eip-20-token-standard.md\n\n\t\t// recommends that there are no checks for the approval double-spend attack\n\n\t\t// as this should be implemented in user interfaces\n\n\t\t// ------------------------------------------------------------------------\n\n\n\tfunction approve(address spender, uint tokens) public override returns (bool success) {\n\n\t\tallowed[msg.sender][spender] = tokens;\n\n\t\temit Approval(msg.sender, spender, tokens);\n\n\t\treturn true;\n\n\t}\n\n\n\t\t// ------------------------------------------------------------------------\n\n\t\t// Transfer `tokens` from the `from` account to the `to` account\n\n\t\t//\n\n\t\t// The calling account must already have sufficient tokens approve(...)-d\n\n\t\t// for spending from the `from` account and\n\n\t\t// - From account must have sufficient balance to transfer\n\n\t\t// - Spender must have sufficient allowance to transfer\n\n\t\t// - 0 value transfers are allowed\n\n\t\t// ------------------------------------------------------------------------\n\n\n\tfunction transferFrom(address from, address to, uint tokens) public override returns (bool success) {\n\n\t\tbalances[from] = balances[from].sub(tokens);\n\t\tallowed[from][msg.sender] = allowed[from][msg.sender].sub(tokens);\n\t\tbalances[to] = balances[to].add(tokens);\n\n\t\temit Transfer(from, to, tokens);\n\n\t\treturn true;\n\n\t}\n\n\n\t\t// ------------------------------------------------------------------------\n\n\t\t// Returns the amount of tokens approved by the owner that can be\n\n\t\t// transferred to the spender's account\n\n\t\t// ------------------------------------------------------------------------\n\n\n\tfunction allowance(address tokenOwner, address spender) public override view returns (uint remaining) {\n\n\t\treturn allowed[tokenOwner][spender];\n\n\t}\n\n\n\t\t// ------------------------------------------------------------------------\n\n\t\t// Token owner can approve for `spender` to transferFrom(...) `tokens`\n\n\t\t// from the token owner's account. The `spender` contract function\n\n\t\t// `receiveApproval(...)` is then executed\n\n\t\t// ------------------------------------------------------------------------\n\n\n\tfunction receiveApproval(address from, uint256 tokens, address token, bytes memory data) public override{\n\n\t\trequire(token == address(this));\n\t\tIERC20(address(this)).transfer(from, tokens);  \n\t}\n\n\n\t  //Do not allow ETH to enter\n\treceive() external payable {\n\n\t\trevert();\n\t}\n\n\n\tfallback() external payable {\n\n\t\trevert();\n\t}\n}\n\n/*\n*\n* MIT License\n* ===========\n*\n* Copyright (c) 2022 Forge\n*\n* Permission is hereby granted, free of charge, to any person obtaining a copy\n* of this software and associated documentation files (the \"Software\"), to deal\n* in the Software without restriction, including without limitation the rights\n* to use, copy, modify, merge, publish, distribute, sublicense, and/or sell\n* copies of the Software, and to permit persons to whom the Software is\n* furnished to do so, subject to the following conditions:\n*\n* The above copyright notice and this permission notice shall be included in all\n* copies or substantial portions of the Software.   \n*\n* THE SOFTWARE IS PROVIDED \"AS IS\", WITHOUT WARRANTY OF ANY KIND, EXPRESS OR\n* IMPLIED, INCLUDING BUT NOT LIMITED TO THE WARRANTIES OF MERCHANTABILITY,\n* FITNESS FOR A PARTICULAR PURPOSE AND NONINFRINGEMENT. IN NO EVENT SHALL THE\n* AUTHORS OR COPYRIGHT HOLDERS BE LIABLE FOR ANY CLAIM, DAMAGES OR OTHER\n* LIABILITY, WHETHER IN AN ACTION OF CONTRACT, TORT OR OTHERWISE, ARISING FROM,\n* OUT OF OR IN CONNECTION WITH THE SOFTWARE OR THE USE OR OTHER DEALINGS IN THE\n*/\n",
  "sourcePath": "contracts/ForgeToken.sol",
  "type": "contract"
}