{
  "abi": [
    {
      "inputs": [],
      "stateMutability": "nonpayable",
      "type": "constructor"
    },
    {
      "anonymous": false,
      "inputs": [
        {
          "indexed": false,
          "internalType": "uint256",
          "name": "UsersGuess",
          "type": "uint256"
        },
        {
          "indexed": false,
          "internalType": "uint256",
          "name": "amount",
          "type": "uint256"
        },
        {
          "indexed": true,
          "internalType": "address",
          "name": "user",
          "type": "address"
        },
        {
          "indexed": false,
          "internalType": "uint256",
          "name": "betID",
          "type": "uint256"
        }
      ],
      "name": "GuessNote",
      "type": "event"
    },
    {
      "anonymous": false,
      "inputs": [
        {
          "indexed": false,
          "internalType": "uint256",
          "name": "UsersGuess",
          "type": "uint256"
        },
        {
          "indexed": false,
          "internalType": "uint256",
          "name": "Result",
          "type": "uint256"
        },
        {
          "indexed": false,
          "internalType": "uint256",
          "name": "amountWagered",
          "type": "uint256"
        },
        {
          "indexed": false,
          "internalType": "uint256",
          "name": "betID",
          "type": "uint256"
        },
        {
          "indexed": true,
          "internalType": "address",
          "name": "AddressOfGuesser",
          "type": "address"
        },
        {
          "indexed": false,
          "internalType": "uint256",
          "name": "AmountWon",
          "type": "uint256"
        },
        {
          "indexed": false,
          "internalType": "uint256",
          "name": "chainlinkRandom",
          "type": "uint256"
        }
      ],
      "name": "ShowAnswer",
      "type": "event"
    },
    {
      "anonymous": false,
      "inputs": [
        {
          "indexed": true,
          "internalType": "address",
          "name": "user",
          "type": "address"
        },
        {
          "indexed": false,
          "internalType": "uint256",
          "name": "amount",
          "type": "uint256"
        }
      ],
      "name": "Staked",
      "type": "event"
    },
    {
      "anonymous": false,
      "inputs": [
        {
          "indexed": true,
          "internalType": "address",
          "name": "user",
          "type": "address"
        },
        {
          "indexed": false,
          "internalType": "uint256",
          "name": "amount",
          "type": "uint256"
        }
      ],
      "name": "Withdrawn",
      "type": "event"
    },
    {
      "inputs": [
        {
          "internalType": "uint256",
          "name": "guess",
          "type": "uint256"
        }
      ],
      "name": "MaxINForGuess",
      "outputs": [
        {
          "internalType": "uint256",
          "name": "",
          "type": "uint256"
        }
      ],
      "stateMutability": "view",
      "type": "function"
    },
    {
      "inputs": [
        {
          "internalType": "address",
          "name": "user",
          "type": "address"
        }
      ],
      "name": "Profit",
      "outputs": [
        {
          "internalType": "int256",
          "name": "",
          "type": "int256"
        }
      ],
      "stateMutability": "view",
      "type": "function"
    },
    {
      "inputs": [
        {
          "internalType": "address",
          "name": "account",
          "type": "address"
        }
      ],
      "name": "balanceOf",
      "outputs": [
        {
          "internalType": "uint256",
          "name": "",
          "type": "uint256"
        }
      ],
      "stateMutability": "view",
      "type": "function"
    },
    {
      "inputs": [
        {
          "internalType": "uint256",
          "name": "",
          "type": "uint256"
        }
      ],
      "name": "betAmt",
      "outputs": [
        {
          "internalType": "uint256",
          "name": "",
          "type": "uint256"
        }
      ],
      "stateMutability": "view",
      "type": "function"
    },
    {
      "inputs": [
        {
          "internalType": "uint256",
          "name": "",
          "type": "uint256"
        }
      ],
      "name": "betOdds",
      "outputs": [
        {
          "internalType": "uint256",
          "name": "",
          "type": "uint256"
        }
      ],
      "stateMutability": "view",
      "type": "function"
    },
    {
      "inputs": [
        {
          "internalType": "uint256",
          "name": "",
          "type": "uint256"
        }
      ],
      "name": "betResults",
      "outputs": [
        {
          "internalType": "uint256",
          "name": "",
          "type": "uint256"
        }
      ],
      "stateMutability": "view",
      "type": "function"
    },
    {
      "inputs": [
        {
          "internalType": "uint256",
          "name": "",
          "type": "uint256"
        }
      ],
      "name": "betee",
      "outputs": [
        {
          "internalType": "address",
          "name": "",
          "type": "address"
        }
      ],
      "stateMutability": "view",
      "type": "function"
    },
    {
      "inputs": [],
      "name": "betid",
      "outputs": [
        {
          "internalType": "uint256",
          "name": "",
          "type": "uint256"
        }
      ],
      "stateMutability": "view",
      "type": "function"
    },
    {
      "inputs": [],
      "name": "betidIN",
      "outputs": [
        {
          "internalType": "uint256",
          "name": "",
          "type": "uint256"
        }
      ],
      "stateMutability": "view",
      "type": "function"
    },
    {
      "inputs": [
        {
          "internalType": "uint256",
          "name": "",
          "type": "uint256"
        }
      ],
      "name": "blockNumForBetID",
      "outputs": [
        {
          "internalType": "uint256",
          "name": "",
          "type": "uint256"
        }
      ],
      "stateMutability": "view",
      "type": "function"
    },
    {
      "inputs": [],
      "name": "blockNumber",
      "outputs": [
        {
          "internalType": "uint256",
          "name": "",
          "type": "uint256"
        }
      ],
      "stateMutability": "view",
      "type": "function"
    },
    {
      "inputs": [
        {
          "internalType": "address",
          "name": "forWhom",
          "type": "address"
        }
      ],
      "name": "currentForge",
      "outputs": [
        {
          "internalType": "uint256",
          "name": "",
          "type": "uint256"
        }
      ],
      "stateMutability": "view",
      "type": "function"
    },
    {
      "inputs": [
        {
          "internalType": "uint256",
          "name": "betAmount",
          "type": "uint256"
        },
        {
          "internalType": "uint256",
          "name": "odds",
          "type": "uint256"
        }
      ],
      "name": "estOUTPUT",
      "outputs": [
        {
          "internalType": "uint256",
          "name": "",
          "type": "uint256"
        }
      ],
      "stateMutability": "view",
      "type": "function"
    },
    {
      "inputs": [
        {
          "internalType": "uint256",
          "name": "extraLINK",
          "type": "uint256"
        }
      ],
      "name": "getBlank",
      "outputs": [
        {
          "internalType": "bytes32",
          "name": "requestId",
          "type": "bytes32"
        }
      ],
      "stateMutability": "nonpayable",
      "type": "function"
    },
    {
      "inputs": [
        {
          "internalType": "uint256",
          "name": "guess",
          "type": "uint256"
        },
        {
          "internalType": "uint256",
          "name": "amt",
          "type": "uint256"
        },
        {
          "internalType": "uint256",
          "name": "extraLINK",
          "type": "uint256"
        }
      ],
      "name": "getRandomNumber",
      "outputs": [
        {
          "internalType": "bytes32",
          "name": "requestId",
          "type": "bytes32"
        }
      ],
      "stateMutability": "nonpayable",
      "type": "function"
    },
    {
      "inputs": [],
      "name": "lastBlockFilled",
      "outputs": [
        {
          "internalType": "uint256",
          "name": "",
          "type": "uint256"
        }
      ],
      "stateMutability": "view",
      "type": "function"
    },
    {
      "inputs": [
        {
          "internalType": "uint256",
          "name": "guess",
          "type": "uint256"
        },
        {
          "internalType": "uint256",
          "name": "amt",
          "type": "uint256"
        }
      ],
      "name": "maxGuessPerInput",
      "outputs": [
        {
          "internalType": "uint256",
          "name": "",
          "type": "uint256"
        }
      ],
      "stateMutability": "view",
      "type": "function"
    },
    {
      "inputs": [],
      "name": "penalty",
      "outputs": [
        {
          "internalType": "uint256",
          "name": "num",
          "type": "uint256"
        }
      ],
      "stateMutability": "view",
      "type": "function"
    },
    {
      "inputs": [
        {
          "internalType": "uint256",
          "name": "maxLoss",
          "type": "uint256"
        }
      ],
      "name": "perfectWithdraw",
      "outputs": [],
      "stateMutability": "nonpayable",
      "type": "function"
    },
    {
      "inputs": [
        {
          "internalType": "address",
          "name": "",
          "type": "address"
        }
      ],
      "name": "profitz",
      "outputs": [
        {
          "internalType": "int256",
          "name": "",
          "type": "int256"
        }
      ],
      "stateMutability": "view",
      "type": "function"
    },
    {
      "inputs": [
        {
          "internalType": "address",
          "name": "",
          "type": "address"
        }
      ],
      "name": "profitzGuess",
      "outputs": [
        {
          "internalType": "int256",
          "name": "",
          "type": "int256"
        }
      ],
      "stateMutability": "view",
      "type": "function"
    },
    {
      "inputs": [
        {
          "internalType": "uint256",
          "name": "",
          "type": "uint256"
        }
      ],
      "name": "randomNumber",
      "outputs": [
        {
          "internalType": "uint256",
          "name": "",
          "type": "uint256"
        }
      ],
      "stateMutability": "view",
      "type": "function"
    },
    {
      "inputs": [],
      "name": "randomResult",
      "outputs": [
        {
          "internalType": "uint256",
          "name": "",
          "type": "uint256"
        }
      ],
      "stateMutability": "view",
      "type": "function"
    },
    {
      "inputs": [
        {
          "internalType": "bytes32",
          "name": "requestId",
          "type": "bytes32"
        },
        {
          "internalType": "uint256",
          "name": "randomness",
          "type": "uint256"
        }
      ],
      "name": "rawFulfillRandomness",
      "outputs": [],
      "stateMutability": "nonpayable",
      "type": "function"
    },
    {
      "inputs": [
        {
          "internalType": "address",
          "name": "forWhom",
          "type": "address"
        },
        {
          "internalType": "uint256",
          "name": "amount",
          "type": "uint256"
        }
      ],
      "name": "stakeFor",
      "outputs": [],
      "stateMutability": "nonpayable",
      "type": "function"
    },
    {
      "inputs": [],
      "name": "stakedToken",
      "outputs": [
        {
          "internalType": "contract IERC20",
          "name": "",
          "type": "address"
        }
      ],
      "stateMutability": "view",
      "type": "function"
    },
    {
      "inputs": [],
      "name": "totalSupply",
      "outputs": [
        {
          "internalType": "uint256",
          "name": "",
          "type": "uint256"
        }
      ],
      "stateMutability": "view",
      "type": "function"
    },
    {
      "inputs": [
        {
          "internalType": "uint256",
          "name": "amount",
          "type": "uint256"
        }
      ],
      "name": "uOut",
      "outputs": [
        {
          "internalType": "uint256",
          "name": "tot",
          "type": "uint256"
        }
      ],
      "stateMutability": "view",
      "type": "function"
    },
    {
      "inputs": [],
      "name": "unreleased",
      "outputs": [
        {
          "internalType": "uint256",
          "name": "",
          "type": "uint256"
        }
      ],
      "stateMutability": "view",
      "type": "function"
    },
    {
      "inputs": [
        {
          "internalType": "uint256",
          "name": "",
          "type": "uint256"
        }
      ],
      "name": "winnings",
      "outputs": [
        {
          "internalType": "uint256",
          "name": "",
          "type": "uint256"
        }
      ],
      "stateMutability": "view",
      "type": "function"
    },
    {
      "inputs": [
        {
          "internalType": "uint256",
          "name": "amountOut",
          "type": "uint256"
        }
      ],
      "name": "withEstimator",
      "outputs": [
        {
          "internalType": "uint256",
          "name": "",
          "type": "uint256"
        }
      ],
      "stateMutability": "view",
      "type": "function"
    },
    {
      "inputs": [
        {
          "internalType": "uint256",
          "name": "amount",
          "type": "uint256"
        },
        {
          "internalType": "uint256",
          "name": "maxLoss",
          "type": "uint256"
        }
      ],
      "name": "withdraw",
      "outputs": [],
      "stateMutability": "nonpayable",
      "type": "function"
    }
  ],
  "bytecode": "60c0604052600060038190556004819055600f556001601055601280546001600160a01b03191673f44fb43066f7ecc91058e3a614fb8a15a273527617905534801561004a57600080fd5b50733d2341adb2d31f1c5530cdc622016af293177ae060a05273b0897686c545045afc77cf20ec7a532e3120e0f16080527ff86195cf7690c55907b2b611ebb7343a6f649bff128701cc542f0569e2c549da600155655af3107a400060025560805160a051611d676100ff600039600081816115330152611619015260008181610d7501528181610dfd01528181610eb101528181610f8c01528181610ffb0152818161146f01526115ea0152611d676000f3fe608060405234801561001057600080fd5b50600436106101f05760003560e01c80635d57ab281161010f578063afcf89aa116100a2578063e6d8b91d11610071578063e6d8b91d14610458578063edcbbef814610478578063f03d667214610498578063f970dd02146104a157600080fd5b8063afcf89aa146103e9578063b5ce35a9146103fc578063cc7a262e14610404578063d63bc5991461042f57600080fd5b80637c081f99116100de5780637c081f9914610390578063830c57dc146103a357806394985ddd146103b6578063984d63cf146103c957600080fd5b80635d57ab28146103215780635da9eabc146103415780636864af0c1461035457806370a082311461036757600080fd5b80633a64cfd5116101875780634ca7d044116101565780634ca7d044146102d55780634ea97c07146102e8578063530d3bc8146102fb57806357e871e71461031b57600080fd5b80633a64cfd51461028657806342619f6614610299578063441a3e70146102a257806345b90d70146102b557600080fd5b806314e5d13c116101c357806314e5d13c1461024c57806316462ad31461025f57806318160ddd146102685780632ee409081461027157600080fd5b806305be95b4146101f5578063068c0c631461021b5780630d82675e1461023b5780630edd2ffc14610244575b600080fd5b610208610203366004611a62565b6104c1565b6040519081526020015b60405180910390f35b610208610229366004611a62565b600c6020526000908152604090205481565b61020860045481565b610208610516565b61020861025a366004611a7d565b61055c565b61020860035481565b61020860105481565b61028461027f366004611a9f565b6105c7565b005b610208610294366004611ac9565b6107e4565b610208600e5481565b6102846102b0366004611a7d565b610882565b6102086102c3366004611ac9565b60066020526000908152604090205481565b6102086102e3366004611ae2565b610ab9565b6102846102f6366004611ac9565b6111b6565b610208610309366004611ac9565b60056020526000908152604090205481565b43610208565b61020861032f366004611ac9565b600b6020526000908152604090205481565b61020861034f366004611ac9565b6111d3565b610208610362366004611a7d565b611299565b610208610375366004611a62565b6001600160a01b031660009081526011602052604090205490565b61020861039e366004611a62565b611437565b6102086103b1366004611ac9565b61146b565b6102846103c4366004611a7d565b611528565b6102086103d7366004611ac9565b60086020526000908152604090205481565b6102086103f7366004611ac9565b6115ae565b6102086115bd565b601254610417906001600160a01b031681565b6040516001600160a01b039091168152602001610212565b61041761043d366004611ac9565b600a602052600090815260409020546001600160a01b031681565b610208610466366004611a62565b600d6020526000908152604090205481565b610208610486366004611ac9565b60076020526000908152604090205481565b610208600f5481565b6102086104af366004611ac9565b60096020526000908152604090205481565b6000806104e66103f7846001600160a01b031660009081526011602052604090205490565b6001600160a01b0384166000908152600c60205260408120549192509061050e908390611b24565b949350505050565b60035460009081905b600454811015610556576000818152600b60205260409020546105429083611b65565b91508061054e81611b7d565b91505061051f565b50919050565b6000805b605a8110156105bc5782610578610294836062611b98565b101561058f5761058c610294826063611b98565b92505b8261059f81610362846063611b98565b11156105aa576105bc565b806105b481611b7d565b915050610560565b61050e816063611b98565b6012546001600160a01b0316816106165760405162461bcd60e51b815260206004820152600e60248201526d043616e6e6f74207374616b6520360941b60448201526064015b60405180910390fd5b600f546012546040516370a0823160e01b8152306004820152600092916001600160a01b0316906370a0823190602401602060405180830381865afa158015610663573d6000803e3d6000fd5b505050506040513d601f19601f820116820180604052508101906106879190611baf565b0360105484028161069a5761069a611bc8565b6001600160a01b03808716600090815260116020908152604080832080549690950495860190945560108054909501909455600c9093529181902080548690039055516323b872dd60e01b815290831691506323b872dd9061070490339030908790600401611bde565b6020604051808303816000875af1158015610723573d6000803e3d6000fd5b505050506040513d601f19601f820116820180604052508101906107479190611c02565b6040518060400160405280601c81526020017f7374616b656420746f6b656e207472616e73666572206661696c6564000000008152509061079b5760405162461bcd60e51b815260040161060d9190611c71565b50826001600160a01b03167f9e71bc8eea02a63969f509818f2dafb9254532904319f9dbda79b67bd34a5f3d836040516107d791815260200190565b60405180910390a2505050565b600f546012546040516370a0823160e01b8152306004820152600092839261041a928692916001600160a01b0316906370a0823190602401602060405180830381865afa158015610839573d6000803e3d6000fd5b505050506040513d601f19601f8201168201806040525081019061085d9190611baf565b6108679190611b98565b6108719190611c84565b61087b9190611ca3565b9392505050565b61088a610516565b811015610895575050565b336000908152601160205260409020548211156108f45760405162461bcd60e51b815260206004820152601a60248201527f77697468647261773a2062616c616e6365206973206c6f776572000000000000604482015260640161060d565b60006108ff836111d3565b3360009081526011602052604090208054859003905560108054859003905590506103e86103cf8202336000908152600c6020526040902080549290910490910190556012546001600160a01b031663a9059cbb306103e8610962856019611c84565b61096c9190611ca3565b6040516001600160e01b031960e085901b1681526001600160a01b03909216600483015260248201526044016020604051808303816000875af11580156109b7573d6000803e3d6000fd5b505050506040513d601f19601f820116820180604052508101906109db9190611c02565b6109e457600080fd5b6012546001600160a01b031663a9059cbb336103e8610a05856103cf611c84565b610a0f9190611ca3565b6040516001600160e01b031960e085901b1681526001600160a01b03909216600483015260248201526044016020604051808303816000875af1158015610a5a573d6000803e3d6000fd5b505050506040513d601f19601f82011682018060405250810190610a7e9190611c02565b610a8757600080fd5b60405183815233907f7084f5476618d8e60b11ef0d7d3f06914655adb8793e28ff7f018d4c76d505d5906020016107d7565b600080610ac68486611299565b9050808410610b305760405162461bcd60e51b815260206004820152603060248201527f596f752077696c6c206c6f6f7365206d6f6e657920657665727974696d65206160448201526f742074686573652073657474696e677360801b606482015260840161060d565b670de0b6b3a7640000841015610b7a5760405162461bcd60e51b815260206004820152600f60248201526e4d696e20626574203120466f72676560881b604482015260640161060d565b6001831015610bd95760405162461bcd60e51b815260206004820152602560248201527f4d7573742073656e64206174206c6561737420746865206d696e696d756d20306044820152642e3030303160d81b606482015260840161060d565b83610be3866107e4565b1015610c495760405162461bcd60e51b815260206004820152602f60248201527f42616e6b726f6c6c20746f6f206c6f7720666f722074686973206265742c205060448201526e1b19585cd9481b1bddd95c8818995d608a1b606482015260840161060d565b606285108015610c595750600085115b610ca55760405162461bcd60e51b815260206004820152601760248201527f4d757374206775657373206265747765656e20312d3938000000000000000000604482015260640161060d565b6012546040516323b872dd60e01b81526001600160a01b03909116906323b872dd90610cd990339030908990600401611bde565b6020604051808303816000875af1158015610cf8573d6000803e3d6000fd5b505050506040513d601f19601f82011682018060405250810190610d1c9190611c02565b610d5d5760405162461bcd60e51b81526020600482015260126024820152715472616e73666572206d75737420776f726b60701b604482015260640161060d565b6040516370a0823160e01b81523060048201526000907f00000000000000000000000000000000000000000000000000000000000000006001600160a01b0316906370a0823190602401602060405180830381865afa158015610dc4573d6000803e3d6000fd5b505050506040513d601f19601f82011682018060405250810190610de89190611baf565b90506001841115610e9f576001600160a01b037f0000000000000000000000000000000000000000000000000000000000000000166323b872dd3330610e2f600189611b98565b600254610e3c9190611c84565b6040518463ffffffff1660e01b8152600401610e5a93929190611bde565b6020604051808303816000875af1158015610e79573d6000803e3d6000fd5b505050506040513d601f19601f82011682018060405250810190610e9d9190611c02565b505b678ac7230489e80000851015610f55577f00000000000000000000000000000000000000000000000000000000000000006001600160a01b03166323b872dd333087600254610eee9190611c84565b6040518463ffffffff1660e01b8152600401610f0c93929190611bde565b6020604051808303816000875af1158015610f2b573d6000803e3d6000fd5b505050506040513d601f19601f82011682018060405250810190610f4f9190611c02565b5061109b565b6802b5e3af16b1880000851015610fce57620186a06004541180610f855750600254610f82906015611c84565b81105b15610fc9577f00000000000000000000000000000000000000000000000000000000000000006001600160a01b03166323b872dd333087600254610eee9190611c84565b61109b565b605d8611610fe457600254610f82906015611c84565b600254610ff2906015611c84565b81101561109b577f00000000000000000000000000000000000000000000000000000000000000006001600160a01b03166323b872dd3330876002546110389190611c84565b6040518463ffffffff1660e01b815260040161105693929190611bde565b6020604051808303816000875af1158015611075573d6000803e3d6000fd5b505050506040513d601f19601f820116820180604052508101906110999190611c02565b505b6004805460009081526008602090815260408083208a9055835483526007825280832089905583548352600a825280832080546001600160a01b0319163390811790915593548352600b8252808320869055928252600d90529081208054879290611107908490611cb7565b909155505060048054600090815260066020908152604091829020439055915481518981529283018890529082015233907fea3a2986b784b5ff3af1de7908eb0898970dec44692bec64512b80606842eaf69060600160405180910390a26004805490600061117583611b7d565b919050555084600f600082825461118c9190611b65565b925050819055506111ac600154856002546111a79190611c84565b6115e6565b9695505050505050565b336000908152601160205260409020546111d09082610882565b50565b600f546012546040516370a0823160e01b8152306004820152600092839290916001600160a01b03909116906370a0823190602401602060405180830381865afa158015611225573d6000803e3d6000fd5b505050506040513d601f19601f820116820180604052508101906112499190611baf565b6112539190611b98565b9050600060105482856112669190611c84565b6112709190611ca3565b90508161127b610516565b6112859083611c84565b61128f9190611ca3565b61050e9082611b98565b6000806112a68385611c84565b600f546012546040516370a0823160e01b81523060048201526001600160a01b03909116906370a0823190602401602060405180830381865afa1580156112f1573d6000803e3d6000fd5b505050506040513d601f19601f820116820180604052508101906113159190611baf565b61131f9190611b98565b61132a906032611c84565b6113349190611ca3565b90506000601e8210156113695761134c846064611c84565b61135886612328611c84565b6113629190611ca3565b905061050e565b60328210156113895761137d846064611c84565b61135886612454611c84565b60648210156113a95761139d846064611c84565b61135886612580611c84565b60c88210156113c9576113bd846064611c84565b61135886612648611c84565b6101908210156113ea576113de846064611c84565b611358866126ac611c84565b6103e882101561140d57611400846103e8611c84565b61135886620184ac611c84565b611418846064611c84565b611424866126ac611c84565b61142e9190611ca3565b95945050505050565b6000806103e861145f61034f856001600160a01b031660009081526011602052604090205490565b610871906103cf611c84565b60007f00000000000000000000000000000000000000000000000000000000000000006001600160a01b03166323b872dd3330856002546114ac9190611c84565b6040518463ffffffff1660e01b81526004016114ca93929190611bde565b6020604051808303816000875af11580156114e9573d6000803e3d6000fd5b505050506040513d601f19601f8201168201806040525081019061150d9190611c02565b50611522600154836002546111a79190611c84565b92915050565b336001600160a01b037f000000000000000000000000000000000000000000000000000000000000000016146115a05760405162461bcd60e51b815260206004820152601f60248201527f4f6e6c7920565246436f6f7264696e61746f722063616e2066756c66696c6c00604482015260640161060d565b6115aa828261175d565b5050565b6000806103e861145f846111d3565b600060045460035414156115d057504390565b5060035460009081526006602052604090205490565b60007f00000000000000000000000000000000000000000000000000000000000000006001600160a01b0316634000aea07f000000000000000000000000000000000000000000000000000000000000000084866000604051602001611656929190918252602082015260400190565b6040516020818303038152906040526040518463ffffffff1660e01b815260040161168393929190611cf6565b6020604051808303816000875af11580156116a2573d6000803e3d6000fd5b505050506040513d601f19601f820116820180604052508101906116c69190611c02565b5060008381526020818152604080832054815180840188905280830185905230606082015260808082018390528351808303909101815260a090910190925281519183019190912086845292909152611720906001611b65565b600085815260208181526040918290209290925580518083018790528082018490528151808203830181526060909101909152805191012061050e565b6004546003541061176c575050565b600454600354106117b45760405162461bcd60e51b81526020600482015260126024820152714d7573742068617665206e6577206265747360701b604482015260640161060d565b60035460009081526009602052604090208190556117d3606482611d1d565b6003805460009081526005602090815260408083209490945591548152600a82528281205460088352838220546007845284832054600b90945293909120546001600160a01b039091169291908261182c606487611d1d565b10156118dc576001600160a01b0384166000908152600d60205260408120805483929061185a908490611b24565b909155505060125460405163a9059cbb60e01b81526001600160a01b038681166004830152602482018490529091169063a9059cbb906044016020604051808303816000875af11580156118b2573d6000803e3d6000fd5b505050506040513d601f19601f820116820180604052508101906118d69190611c02565b50611998565b60125460405163a9059cbb60e01b81526001600160a01b038681166004830152600160248301529091169063a9059cbb906044016020604051808303816000875af115801561192f573d6000803e3d6000fd5b505050506040513d601f19601f820116820180604052508101906119539190611c02565b506001600160a01b0384166000908152600d6020526040812080546001929061197d908490611b24565b90915550506003546000908152600b60205260409020600190555b81600f60008282546119aa9190611b98565b90915550506001600160a01b0384167f0d6e0fdf39f428b885b593cb5e1ed182847a2ed801c2d36a89869aa69e8b785f846119e6606489611d1d565b6003546000818152600b60209081526040918290205482519586529085019390935283018790526060830152608082015260a0810188905260c00160405180910390a260038054906000611a3983611b7d565b9190505550505050505050565b80356001600160a01b0381168114611a5d57600080fd5b919050565b600060208284031215611a7457600080fd5b61087b82611a46565b60008060408385031215611a9057600080fd5b50508035926020909101359150565b60008060408385031215611ab257600080fd5b611abb83611a46565b946020939093013593505050565b600060208284031215611adb57600080fd5b5035919050565b600080600060608486031215611af757600080fd5b505081359360208301359350604090920135919050565b634e487b7160e01b600052601160045260246000fd5b600080821280156001600160ff1b0384900385131615611b4657611b46611b0e565b600160ff1b8390038412811615611b5f57611b5f611b0e565b50500190565b60008219821115611b7857611b78611b0e565b500190565b6000600019821415611b9157611b91611b0e565b5060010190565b600082821015611baa57611baa611b0e565b500390565b600060208284031215611bc157600080fd5b5051919050565b634e487b7160e01b600052601260045260246000fd5b6001600160a01b039384168152919092166020820152604081019190915260600190565b600060208284031215611c1457600080fd5b8151801515811461087b57600080fd5b6000815180845260005b81811015611c4a57602081850181015186830182015201611c2e565b81811115611c5c576000602083870101525b50601f01601f19169290920160200192915050565b60208152600061087b6020830184611c24565b6000816000190483118215151615611c9e57611c9e611b0e565b500290565b600082611cb257611cb2611bc8565b500490565b60008083128015600160ff1b850184121615611cd557611cd5611b0e565b6001600160ff1b0384018313811615611cf057611cf0611b0e565b50500390565b60018060a01b038416815282602082015260606040820152600061142e6060830184611c24565b600082611d2c57611d2c611bc8565b50069056fea2646970667358221220198d106248b3703b70d6d1a45b87a5b5df45e72c0db19fe87370819170e5067764736f6c634300080b0033",
  "bytecodeSha1": "7246db9f907c2ad018e7ae7a8879d1bf02dec274",
  "compiler": {
    "evm_version": "istanbul",
    "optimizer": {
      "enabled": true,
      "runs": 200
    },
    "version": "0.8.11+commit.d7f03943"
  },
  "contractName": "ForgeGuess",
  "language": "Solidity",
  "natspec": {
    "kind": "dev",
    "methods": {
      "constructor": {
        "notice": "Constructor inherits VRFConsumerBase  Network: Mumbai Chainlink VRF Coordinator address: 0x8C7382F9D8f56b33781fE506E897a4F1e2d17255 LINK token address:                0x326C977E6efc84E512bB9C30f76E30c160eD06FB Key Hash: 0x6e75b569a01ef56d18cab6a8e71e6600d6ce853834d4a5748b720d06f878b3a4"
      },
      "getRandomNumber(uint256,uint256,uint256)": {
        "notice": "Requests randomness "
      }
    },
    "version": 1
  },
  "opcodes": "PUSH1 0x80 PUSH1 0x40 MSTORE CALLVALUE DUP1 ISZERO PUSH2 0x10 JUMPI PUSH1 0x0 DUP1 REVERT JUMPDEST POP PUSH1 0x4 CALLDATASIZE LT PUSH2 0x1F0 JUMPI PUSH1 0x0 CALLDATALOAD PUSH1 0xE0 SHR DUP1 PUSH4 0x5D57AB28 GT PUSH2 0x10F JUMPI DUP1 PUSH4 0xAFCF89AA GT PUSH2 0xA2 JUMPI DUP1 PUSH4 0xE6D8B91D GT PUSH2 0x71 JUMPI DUP1 PUSH4 0xE6D8B91D EQ PUSH2 0x458 JUMPI DUP1 PUSH4 0xEDCBBEF8 EQ PUSH2 0x478 JUMPI DUP1 PUSH4 0xF03D6672 EQ PUSH2 0x498 JUMPI DUP1 PUSH4 0xF970DD02 EQ PUSH2 0x4A1 JUMPI PUSH1 0x0 DUP1 REVERT JUMPDEST DUP1 PUSH4 0xAFCF89AA EQ PUSH2 0x3E9 JUMPI DUP1 PUSH4 0xB5CE35A9 EQ PUSH2 0x3FC JUMPI DUP1 PUSH4 0xCC7A262E EQ PUSH2 0x404 JUMPI DUP1 PUSH4 0xD63BC599 EQ PUSH2 0x42F JUMPI PUSH1 0x0 DUP1 REVERT JUMPDEST DUP1 PUSH4 0x7C081F99 GT PUSH2 0xDE JUMPI DUP1 PUSH4 0x7C081F99 EQ PUSH2 0x390 JUMPI DUP1 PUSH4 0x830C57DC EQ PUSH2 0x3A3 JUMPI DUP1 PUSH4 0x94985DDD EQ PUSH2 0x3B6 JUMPI DUP1 PUSH4 0x984D63CF EQ PUSH2 0x3C9 JUMPI PUSH1 0x0 DUP1 REVERT JUMPDEST DUP1 PUSH4 0x5D57AB28 EQ PUSH2 0x321 JUMPI DUP1 PUSH4 0x5DA9EABC EQ PUSH2 0x341 JUMPI DUP1 PUSH4 0x6864AF0C EQ PUSH2 0x354 JUMPI DUP1 PUSH4 0x70A08231 EQ PUSH2 0x367 JUMPI PUSH1 0x0 DUP1 REVERT JUMPDEST DUP1 PUSH4 0x3A64CFD5 GT PUSH2 0x187 JUMPI DUP1 PUSH4 0x4CA7D044 GT PUSH2 0x156 JUMPI DUP1 PUSH4 0x4CA7D044 EQ PUSH2 0x2D5 JUMPI DUP1 PUSH4 0x4EA97C07 EQ PUSH2 0x2E8 JUMPI DUP1 PUSH4 0x530D3BC8 EQ PUSH2 0x2FB JUMPI DUP1 PUSH4 0x57E871E7 EQ PUSH2 0x31B JUMPI PUSH1 0x0 DUP1 REVERT JUMPDEST DUP1 PUSH4 0x3A64CFD5 EQ PUSH2 0x286 JUMPI DUP1 PUSH4 0x42619F66 EQ PUSH2 0x299 JUMPI DUP1 PUSH4 0x441A3E70 EQ PUSH2 0x2A2 JUMPI DUP1 PUSH4 0x45B90D70 EQ PUSH2 0x2B5 JUMPI PUSH1 0x0 DUP1 REVERT JUMPDEST DUP1 PUSH4 0x14E5D13C GT PUSH2 0x1C3 JUMPI DUP1 PUSH4 0x14E5D13C EQ PUSH2 0x24C JUMPI DUP1 PUSH4 0x16462AD3 EQ PUSH2 0x25F JUMPI DUP1 PUSH4 0x18160DDD EQ PUSH2 0x268 JUMPI DUP1 PUSH4 0x2EE40908 EQ PUSH2 0x271 JUMPI PUSH1 0x0 DUP1 REVERT JUMPDEST DUP1 PUSH4 0x5BE95B4 EQ PUSH2 0x1F5 JUMPI DUP1 PUSH4 0x68C0C63 EQ PUSH2 0x21B JUMPI DUP1 PUSH4 0xD82675E EQ PUSH2 0x23B JUMPI DUP1 PUSH4 0xEDD2FFC EQ PUSH2 0x244 JUMPI JUMPDEST PUSH1 0x0 DUP1 REVERT JUMPDEST PUSH2 0x208 PUSH2 0x203 CALLDATASIZE PUSH1 0x4 PUSH2 0x1A62 JUMP JUMPDEST PUSH2 0x4C1 JUMP JUMPDEST PUSH1 0x40 MLOAD SWAP1 DUP2 MSTORE PUSH1 0x20 ADD JUMPDEST PUSH1 0x40 MLOAD DUP1 SWAP2 SUB SWAP1 RETURN JUMPDEST PUSH2 0x208 PUSH2 0x229 CALLDATASIZE PUSH1 0x4 PUSH2 0x1A62 JUMP JUMPDEST PUSH1 0xC PUSH1 0x20 MSTORE PUSH1 0x0 SWAP1 DUP2 MSTORE PUSH1 0x40 SWAP1 KECCAK256 SLOAD DUP2 JUMP JUMPDEST PUSH2 0x208 PUSH1 0x4 SLOAD DUP2 JUMP JUMPDEST PUSH2 0x208 PUSH2 0x516 JUMP JUMPDEST PUSH2 0x208 PUSH2 0x25A CALLDATASIZE PUSH1 0x4 PUSH2 0x1A7D JUMP JUMPDEST PUSH2 0x55C JUMP JUMPDEST PUSH2 0x208 PUSH1 0x3 SLOAD DUP2 JUMP JUMPDEST PUSH2 0x208 PUSH1 0x10 SLOAD DUP2 JUMP JUMPDEST PUSH2 0x284 PUSH2 0x27F CALLDATASIZE PUSH1 0x4 PUSH2 0x1A9F JUMP JUMPDEST PUSH2 0x5C7 JUMP JUMPDEST STOP JUMPDEST PUSH2 0x208 PUSH2 0x294 CALLDATASIZE PUSH1 0x4 PUSH2 0x1AC9 JUMP JUMPDEST PUSH2 0x7E4 JUMP JUMPDEST PUSH2 0x208 PUSH1 0xE SLOAD DUP2 JUMP JUMPDEST PUSH2 0x284 PUSH2 0x2B0 CALLDATASIZE PUSH1 0x4 PUSH2 0x1A7D JUMP JUMPDEST PUSH2 0x882 JUMP JUMPDEST PUSH2 0x208 PUSH2 0x2C3 CALLDATASIZE PUSH1 0x4 PUSH2 0x1AC9 JUMP JUMPDEST PUSH1 0x6 PUSH1 0x20 MSTORE PUSH1 0x0 SWAP1 DUP2 MSTORE PUSH1 0x40 SWAP1 KECCAK256 SLOAD DUP2 JUMP JUMPDEST PUSH2 0x208 PUSH2 0x2E3 CALLDATASIZE PUSH1 0x4 PUSH2 0x1AE2 JUMP JUMPDEST PUSH2 0xAB9 JUMP JUMPDEST PUSH2 0x284 PUSH2 0x2F6 CALLDATASIZE PUSH1 0x4 PUSH2 0x1AC9 JUMP JUMPDEST PUSH2 0x11B6 JUMP JUMPDEST PUSH2 0x208 PUSH2 0x309 CALLDATASIZE PUSH1 0x4 PUSH2 0x1AC9 JUMP JUMPDEST PUSH1 0x5 PUSH1 0x20 MSTORE PUSH1 0x0 SWAP1 DUP2 MSTORE PUSH1 0x40 SWAP1 KECCAK256 SLOAD DUP2 JUMP JUMPDEST NUMBER PUSH2 0x208 JUMP JUMPDEST PUSH2 0x208 PUSH2 0x32F CALLDATASIZE PUSH1 0x4 PUSH2 0x1AC9 JUMP JUMPDEST PUSH1 0xB PUSH1 0x20 MSTORE PUSH1 0x0 SWAP1 DUP2 MSTORE PUSH1 0x40 SWAP1 KECCAK256 SLOAD DUP2 JUMP JUMPDEST PUSH2 0x208 PUSH2 0x34F CALLDATASIZE PUSH1 0x4 PUSH2 0x1AC9 JUMP JUMPDEST PUSH2 0x11D3 JUMP JUMPDEST PUSH2 0x208 PUSH2 0x362 CALLDATASIZE PUSH1 0x4 PUSH2 0x1A7D JUMP JUMPDEST PUSH2 0x1299 JUMP JUMPDEST PUSH2 0x208 PUSH2 0x375 CALLDATASIZE PUSH1 0x4 PUSH2 0x1A62 JUMP JUMPDEST PUSH1 0x1 PUSH1 0x1 PUSH1 0xA0 SHL SUB AND PUSH1 0x0 SWAP1 DUP2 MSTORE PUSH1 0x11 PUSH1 0x20 MSTORE PUSH1 0x40 SWAP1 KECCAK256 SLOAD SWAP1 JUMP JUMPDEST PUSH2 0x208 PUSH2 0x39E CALLDATASIZE PUSH1 0x4 PUSH2 0x1A62 JUMP JUMPDEST PUSH2 0x1437 JUMP JUMPDEST PUSH2 0x208 PUSH2 0x3B1 CALLDATASIZE PUSH1 0x4 PUSH2 0x1AC9 JUMP JUMPDEST PUSH2 0x146B JUMP JUMPDEST PUSH2 0x284 PUSH2 0x3C4 CALLDATASIZE PUSH1 0x4 PUSH2 0x1A7D JUMP JUMPDEST PUSH2 0x1528 JUMP JUMPDEST PUSH2 0x208 PUSH2 0x3D7 CALLDATASIZE PUSH1 0x4 PUSH2 0x1AC9 JUMP JUMPDEST PUSH1 0x8 PUSH1 0x20 MSTORE PUSH1 0x0 SWAP1 DUP2 MSTORE PUSH1 0x40 SWAP1 KECCAK256 SLOAD DUP2 JUMP JUMPDEST PUSH2 0x208 PUSH2 0x3F7 CALLDATASIZE PUSH1 0x4 PUSH2 0x1AC9 JUMP JUMPDEST PUSH2 0x15AE JUMP JUMPDEST PUSH2 0x208 PUSH2 0x15BD JUMP JUMPDEST PUSH1 0x12 SLOAD PUSH2 0x417 SWAP1 PUSH1 0x1 PUSH1 0x1 PUSH1 0xA0 SHL SUB AND DUP2 JUMP JUMPDEST PUSH1 0x40 MLOAD PUSH1 0x1 PUSH1 0x1 PUSH1 0xA0 SHL SUB SWAP1 SWAP2 AND DUP2 MSTORE PUSH1 0x20 ADD PUSH2 0x212 JUMP JUMPDEST PUSH2 0x417 PUSH2 0x43D CALLDATASIZE PUSH1 0x4 PUSH2 0x1AC9 JUMP JUMPDEST PUSH1 0xA PUSH1 0x20 MSTORE PUSH1 0x0 SWAP1 DUP2 MSTORE PUSH1 0x40 SWAP1 KECCAK256 SLOAD PUSH1 0x1 PUSH1 0x1 PUSH1 0xA0 SHL SUB AND DUP2 JUMP JUMPDEST PUSH2 0x208 PUSH2 0x466 CALLDATASIZE PUSH1 0x4 PUSH2 0x1A62 JUMP JUMPDEST PUSH1 0xD PUSH1 0x20 MSTORE PUSH1 0x0 SWAP1 DUP2 MSTORE PUSH1 0x40 SWAP1 KECCAK256 SLOAD DUP2 JUMP JUMPDEST PUSH2 0x208 PUSH2 0x486 CALLDATASIZE PUSH1 0x4 PUSH2 0x1AC9 JUMP JUMPDEST PUSH1 0x7 PUSH1 0x20 MSTORE PUSH1 0x0 SWAP1 DUP2 MSTORE PUSH1 0x40 SWAP1 KECCAK256 SLOAD DUP2 JUMP JUMPDEST PUSH2 0x208 PUSH1 0xF SLOAD DUP2 JUMP JUMPDEST PUSH2 0x208 PUSH2 0x4AF CALLDATASIZE PUSH1 0x4 PUSH2 0x1AC9 JUMP JUMPDEST PUSH1 0x9 PUSH1 0x20 MSTORE PUSH1 0x0 SWAP1 DUP2 MSTORE PUSH1 0x40 SWAP1 KECCAK256 SLOAD DUP2 JUMP JUMPDEST PUSH1 0x0 DUP1 PUSH2 0x4E6 PUSH2 0x3F7 DUP5 PUSH1 0x1 PUSH1 0x1 PUSH1 0xA0 SHL SUB AND PUSH1 0x0 SWAP1 DUP2 MSTORE PUSH1 0x11 PUSH1 0x20 MSTORE PUSH1 0x40 SWAP1 KECCAK256 SLOAD SWAP1 JUMP JUMPDEST PUSH1 0x1 PUSH1 0x1 PUSH1 0xA0 SHL SUB DUP5 AND PUSH1 0x0 SWAP1 DUP2 MSTORE PUSH1 0xC PUSH1 0x20 MSTORE PUSH1 0x40 DUP2 KECCAK256 SLOAD SWAP2 SWAP3 POP SWAP1 PUSH2 0x50E SWAP1 DUP4 SWAP1 PUSH2 0x1B24 JUMP JUMPDEST SWAP5 SWAP4 POP POP POP POP JUMP JUMPDEST PUSH1 0x3 SLOAD PUSH1 0x0 SWAP1 DUP2 SWAP1 JUMPDEST PUSH1 0x4 SLOAD DUP2 LT ISZERO PUSH2 0x556 JUMPI PUSH1 0x0 DUP2 DUP2 MSTORE PUSH1 0xB PUSH1 0x20 MSTORE PUSH1 0x40 SWAP1 KECCAK256 SLOAD PUSH2 0x542 SWAP1 DUP4 PUSH2 0x1B65 JUMP JUMPDEST SWAP2 POP DUP1 PUSH2 0x54E DUP2 PUSH2 0x1B7D JUMP JUMPDEST SWAP2 POP POP PUSH2 0x51F JUMP JUMPDEST POP SWAP2 SWAP1 POP JUMP JUMPDEST PUSH1 0x0 DUP1 JUMPDEST PUSH1 0x5A DUP2 LT ISZERO PUSH2 0x5BC JUMPI DUP3 PUSH2 0x578 PUSH2 0x294 DUP4 PUSH1 0x62 PUSH2 0x1B98 JUMP JUMPDEST LT ISZERO PUSH2 0x58F JUMPI PUSH2 0x58C PUSH2 0x294 DUP3 PUSH1 0x63 PUSH2 0x1B98 JUMP JUMPDEST SWAP3 POP JUMPDEST DUP3 PUSH2 0x59F DUP2 PUSH2 0x362 DUP5 PUSH1 0x63 PUSH2 0x1B98 JUMP JUMPDEST GT ISZERO PUSH2 0x5AA JUMPI PUSH2 0x5BC JUMP JUMPDEST DUP1 PUSH2 0x5B4 DUP2 PUSH2 0x1B7D JUMP JUMPDEST SWAP2 POP POP PUSH2 0x560 JUMP JUMPDEST PUSH2 0x50E DUP2 PUSH1 0x63 PUSH2 0x1B98 JUMP JUMPDEST PUSH1 0x12 SLOAD PUSH1 0x1 PUSH1 0x1 PUSH1 0xA0 SHL SUB AND DUP2 PUSH2 0x616 JUMPI PUSH1 0x40 MLOAD PUSH3 0x461BCD PUSH1 0xE5 SHL DUP2 MSTORE PUSH1 0x20 PUSH1 0x4 DUP3 ADD MSTORE PUSH1 0xE PUSH1 0x24 DUP3 ADD MSTORE PUSH14 0x43616E6E6F74207374616B65203 PUSH1 0x94 SHL PUSH1 0x44 DUP3 ADD MSTORE PUSH1 0x64 ADD JUMPDEST PUSH1 0x40 MLOAD DUP1 SWAP2 SUB SWAP1 REVERT JUMPDEST PUSH1 0xF SLOAD PUSH1 0x12 SLOAD PUSH1 0x40 MLOAD PUSH4 0x70A08231 PUSH1 0xE0 SHL DUP2 MSTORE ADDRESS PUSH1 0x4 DUP3 ADD MSTORE PUSH1 0x0 SWAP3 SWAP2 PUSH1 0x1 PUSH1 0x1 PUSH1 0xA0 SHL SUB AND SWAP1 PUSH4 0x70A08231 SWAP1 PUSH1 0x24 ADD PUSH1 0x20 PUSH1 0x40 MLOAD DUP1 DUP4 SUB DUP2 DUP7 GAS STATICCALL ISZERO DUP1 ISZERO PUSH2 0x663 JUMPI RETURNDATASIZE PUSH1 0x0 DUP1 RETURNDATACOPY RETURNDATASIZE PUSH1 0x0 REVERT JUMPDEST POP POP POP POP PUSH1 0x40 MLOAD RETURNDATASIZE PUSH1 0x1F NOT PUSH1 0x1F DUP3 ADD AND DUP3 ADD DUP1 PUSH1 0x40 MSTORE POP DUP2 ADD SWAP1 PUSH2 0x687 SWAP2 SWAP1 PUSH2 0x1BAF JUMP JUMPDEST SUB PUSH1 0x10 SLOAD DUP5 MUL DUP2 PUSH2 0x69A JUMPI PUSH2 0x69A PUSH2 0x1BC8 JUMP JUMPDEST PUSH1 0x1 PUSH1 0x1 PUSH1 0xA0 SHL SUB DUP1 DUP8 AND PUSH1 0x0 SWAP1 DUP2 MSTORE PUSH1 0x11 PUSH1 0x20 SWAP1 DUP2 MSTORE PUSH1 0x40 DUP1 DUP4 KECCAK256 DUP1 SLOAD SWAP7 SWAP1 SWAP6 DIV SWAP6 DUP7 ADD SWAP1 SWAP5 SSTORE PUSH1 0x10 DUP1 SLOAD SWAP1 SWAP6 ADD SWAP1 SWAP5 SSTORE PUSH1 0xC SWAP1 SWAP4 MSTORE SWAP2 DUP2 SWAP1 KECCAK256 DUP1 SLOAD DUP7 SWAP1 SUB SWAP1 SSTORE MLOAD PUSH4 0x23B872DD PUSH1 0xE0 SHL DUP2 MSTORE SWAP1 DUP4 AND SWAP2 POP PUSH4 0x23B872DD SWAP1 PUSH2 0x704 SWAP1 CALLER SWAP1 ADDRESS SWAP1 DUP8 SWAP1 PUSH1 0x4 ADD PUSH2 0x1BDE JUMP JUMPDEST PUSH1 0x20 PUSH1 0x40 MLOAD DUP1 DUP4 SUB DUP2 PUSH1 0x0 DUP8 GAS CALL ISZERO DUP1 ISZERO PUSH2 0x723 JUMPI RETURNDATASIZE PUSH1 0x0 DUP1 RETURNDATACOPY RETURNDATASIZE PUSH1 0x0 REVERT JUMPDEST POP POP POP POP PUSH1 0x40 MLOAD RETURNDATASIZE PUSH1 0x1F NOT PUSH1 0x1F DUP3 ADD AND DUP3 ADD DUP1 PUSH1 0x40 MSTORE POP DUP2 ADD SWAP1 PUSH2 0x747 SWAP2 SWAP1 PUSH2 0x1C02 JUMP JUMPDEST PUSH1 0x40 MLOAD DUP1 PUSH1 0x40 ADD PUSH1 0x40 MSTORE DUP1 PUSH1 0x1C DUP2 MSTORE PUSH1 0x20 ADD PUSH32 0x7374616B656420746F6B656E207472616E73666572206661696C656400000000 DUP2 MSTORE POP SWAP1 PUSH2 0x79B JUMPI PUSH1 0x40 MLOAD PUSH3 0x461BCD PUSH1 0xE5 SHL DUP2 MSTORE PUSH1 0x4 ADD PUSH2 0x60D SWAP2 SWAP1 PUSH2 0x1C71 JUMP JUMPDEST POP DUP3 PUSH1 0x1 PUSH1 0x1 PUSH1 0xA0 SHL SUB AND PUSH32 0x9E71BC8EEA02A63969F509818F2DAFB9254532904319F9DBDA79B67BD34A5F3D DUP4 PUSH1 0x40 MLOAD PUSH2 0x7D7 SWAP2 DUP2 MSTORE PUSH1 0x20 ADD SWAP1 JUMP JUMPDEST PUSH1 0x40 MLOAD DUP1 SWAP2 SUB SWAP1 LOG2 POP POP POP JUMP JUMPDEST PUSH1 0xF SLOAD PUSH1 0x12 SLOAD PUSH1 0x40 MLOAD PUSH4 0x70A08231 PUSH1 0xE0 SHL DUP2 MSTORE ADDRESS PUSH1 0x4 DUP3 ADD MSTORE PUSH1 0x0 SWAP3 DUP4 SWAP3 PUSH2 0x41A SWAP3 DUP7 SWAP3 SWAP2 PUSH1 0x1 PUSH1 0x1 PUSH1 0xA0 SHL SUB AND SWAP1 PUSH4 0x70A08231 SWAP1 PUSH1 0x24 ADD PUSH1 0x20 PUSH1 0x40 MLOAD DUP1 DUP4 SUB DUP2 DUP7 GAS STATICCALL ISZERO DUP1 ISZERO PUSH2 0x839 JUMPI RETURNDATASIZE PUSH1 0x0 DUP1 RETURNDATACOPY RETURNDATASIZE PUSH1 0x0 REVERT JUMPDEST POP POP POP POP PUSH1 0x40 MLOAD RETURNDATASIZE PUSH1 0x1F NOT PUSH1 0x1F DUP3 ADD AND DUP3 ADD DUP1 PUSH1 0x40 MSTORE POP DUP2 ADD SWAP1 PUSH2 0x85D SWAP2 SWAP1 PUSH2 0x1BAF JUMP JUMPDEST PUSH2 0x867 SWAP2 SWAP1 PUSH2 0x1B98 JUMP JUMPDEST PUSH2 0x871 SWAP2 SWAP1 PUSH2 0x1C84 JUMP JUMPDEST PUSH2 0x87B SWAP2 SWAP1 PUSH2 0x1CA3 JUMP JUMPDEST SWAP4 SWAP3 POP POP POP JUMP JUMPDEST PUSH2 0x88A PUSH2 0x516 JUMP JUMPDEST DUP2 LT ISZERO PUSH2 0x895 JUMPI POP POP JUMP JUMPDEST CALLER PUSH1 0x0 SWAP1 DUP2 MSTORE PUSH1 0x11 PUSH1 0x20 MSTORE PUSH1 0x40 SWAP1 KECCAK256 SLOAD DUP3 GT ISZERO PUSH2 0x8F4 JUMPI PUSH1 0x40 MLOAD PUSH3 0x461BCD PUSH1 0xE5 SHL DUP2 MSTORE PUSH1 0x20 PUSH1 0x4 DUP3 ADD MSTORE PUSH1 0x1A PUSH1 0x24 DUP3 ADD MSTORE PUSH32 0x77697468647261773A2062616C616E6365206973206C6F776572000000000000 PUSH1 0x44 DUP3 ADD MSTORE PUSH1 0x64 ADD PUSH2 0x60D JUMP JUMPDEST PUSH1 0x0 PUSH2 0x8FF DUP4 PUSH2 0x11D3 JUMP JUMPDEST CALLER PUSH1 0x0 SWAP1 DUP2 MSTORE PUSH1 0x11 PUSH1 0x20 MSTORE PUSH1 0x40 SWAP1 KECCAK256 DUP1 SLOAD DUP6 SWAP1 SUB SWAP1 SSTORE PUSH1 0x10 DUP1 SLOAD DUP6 SWAP1 SUB SWAP1 SSTORE SWAP1 POP PUSH2 0x3E8 PUSH2 0x3CF DUP3 MUL CALLER PUSH1 0x0 SWAP1 DUP2 MSTORE PUSH1 0xC PUSH1 0x20 MSTORE PUSH1 0x40 SWAP1 KECCAK256 DUP1 SLOAD SWAP3 SWAP1 SWAP2 DIV SWAP1 SWAP2 ADD SWAP1 SSTORE PUSH1 0x12 SLOAD PUSH1 0x1 PUSH1 0x1 PUSH1 0xA0 SHL SUB AND PUSH4 0xA9059CBB ADDRESS PUSH2 0x3E8 PUSH2 0x962 DUP6 PUSH1 0x19 PUSH2 0x1C84 JUMP JUMPDEST PUSH2 0x96C SWAP2 SWAP1 PUSH2 0x1CA3 JUMP JUMPDEST PUSH1 0x40 MLOAD PUSH1 0x1 PUSH1 0x1 PUSH1 0xE0 SHL SUB NOT PUSH1 0xE0 DUP6 SWAP1 SHL AND DUP2 MSTORE PUSH1 0x1 PUSH1 0x1 PUSH1 0xA0 SHL SUB SWAP1 SWAP3 AND PUSH1 0x4 DUP4 ADD MSTORE PUSH1 0x24 DUP3 ADD MSTORE PUSH1 0x44 ADD PUSH1 0x20 PUSH1 0x40 MLOAD DUP1 DUP4 SUB DUP2 PUSH1 0x0 DUP8 GAS CALL ISZERO DUP1 ISZERO PUSH2 0x9B7 JUMPI RETURNDATASIZE PUSH1 0x0 DUP1 RETURNDATACOPY RETURNDATASIZE PUSH1 0x0 REVERT JUMPDEST POP POP POP POP PUSH1 0x40 MLOAD RETURNDATASIZE PUSH1 0x1F NOT PUSH1 0x1F DUP3 ADD AND DUP3 ADD DUP1 PUSH1 0x40 MSTORE POP DUP2 ADD SWAP1 PUSH2 0x9DB SWAP2 SWAP1 PUSH2 0x1C02 JUMP JUMPDEST PUSH2 0x9E4 JUMPI PUSH1 0x0 DUP1 REVERT JUMPDEST PUSH1 0x12 SLOAD PUSH1 0x1 PUSH1 0x1 PUSH1 0xA0 SHL SUB AND PUSH4 0xA9059CBB CALLER PUSH2 0x3E8 PUSH2 0xA05 DUP6 PUSH2 0x3CF PUSH2 0x1C84 JUMP JUMPDEST PUSH2 0xA0F SWAP2 SWAP1 PUSH2 0x1CA3 JUMP JUMPDEST PUSH1 0x40 MLOAD PUSH1 0x1 PUSH1 0x1 PUSH1 0xE0 SHL SUB NOT PUSH1 0xE0 DUP6 SWAP1 SHL AND DUP2 MSTORE PUSH1 0x1 PUSH1 0x1 PUSH1 0xA0 SHL SUB SWAP1 SWAP3 AND PUSH1 0x4 DUP4 ADD MSTORE PUSH1 0x24 DUP3 ADD MSTORE PUSH1 0x44 ADD PUSH1 0x20 PUSH1 0x40 MLOAD DUP1 DUP4 SUB DUP2 PUSH1 0x0 DUP8 GAS CALL ISZERO DUP1 ISZERO PUSH2 0xA5A JUMPI RETURNDATASIZE PUSH1 0x0 DUP1 RETURNDATACOPY RETURNDATASIZE PUSH1 0x0 REVERT JUMPDEST POP POP POP POP PUSH1 0x40 MLOAD RETURNDATASIZE PUSH1 0x1F NOT PUSH1 0x1F DUP3 ADD AND DUP3 ADD DUP1 PUSH1 0x40 MSTORE POP DUP2 ADD SWAP1 PUSH2 0xA7E SWAP2 SWAP1 PUSH2 0x1C02 JUMP JUMPDEST PUSH2 0xA87 JUMPI PUSH1 0x0 DUP1 REVERT JUMPDEST PUSH1 0x40 MLOAD DUP4 DUP2 MSTORE CALLER SWAP1 PUSH32 0x7084F5476618D8E60B11EF0D7D3F06914655ADB8793E28FF7F018D4C76D505D5 SWAP1 PUSH1 0x20 ADD PUSH2 0x7D7 JUMP JUMPDEST PUSH1 0x0 DUP1 PUSH2 0xAC6 DUP5 DUP7 PUSH2 0x1299 JUMP JUMPDEST SWAP1 POP DUP1 DUP5 LT PUSH2 0xB30 JUMPI PUSH1 0x40 MLOAD PUSH3 0x461BCD PUSH1 0xE5 SHL DUP2 MSTORE PUSH1 0x20 PUSH1 0x4 DUP3 ADD MSTORE PUSH1 0x30 PUSH1 0x24 DUP3 ADD MSTORE PUSH32 0x596F752077696C6C206C6F6F7365206D6F6E657920657665727974696D652061 PUSH1 0x44 DUP3 ADD MSTORE PUSH16 0x742074686573652073657474696E6773 PUSH1 0x80 SHL PUSH1 0x64 DUP3 ADD MSTORE PUSH1 0x84 ADD PUSH2 0x60D JUMP JUMPDEST PUSH8 0xDE0B6B3A7640000 DUP5 LT ISZERO PUSH2 0xB7A JUMPI PUSH1 0x40 MLOAD PUSH3 0x461BCD PUSH1 0xE5 SHL DUP2 MSTORE PUSH1 0x20 PUSH1 0x4 DUP3 ADD MSTORE PUSH1 0xF PUSH1 0x24 DUP3 ADD MSTORE PUSH15 0x4D696E20626574203120466F726765 PUSH1 0x88 SHL PUSH1 0x44 DUP3 ADD MSTORE PUSH1 0x64 ADD PUSH2 0x60D JUMP JUMPDEST PUSH1 0x1 DUP4 LT ISZERO PUSH2 0xBD9 JUMPI PUSH1 0x40 MLOAD PUSH3 0x461BCD PUSH1 0xE5 SHL DUP2 MSTORE PUSH1 0x20 PUSH1 0x4 DUP3 ADD MSTORE PUSH1 0x25 PUSH1 0x24 DUP3 ADD MSTORE PUSH32 0x4D7573742073656E64206174206C6561737420746865206D696E696D756D2030 PUSH1 0x44 DUP3 ADD MSTORE PUSH5 0x2E30303031 PUSH1 0xD8 SHL PUSH1 0x64 DUP3 ADD MSTORE PUSH1 0x84 ADD PUSH2 0x60D JUMP JUMPDEST DUP4 PUSH2 0xBE3 DUP7 PUSH2 0x7E4 JUMP JUMPDEST LT ISZERO PUSH2 0xC49 JUMPI PUSH1 0x40 MLOAD PUSH3 0x461BCD PUSH1 0xE5 SHL DUP2 MSTORE PUSH1 0x20 PUSH1 0x4 DUP3 ADD MSTORE PUSH1 0x2F PUSH1 0x24 DUP3 ADD MSTORE PUSH32 0x42616E6B726F6C6C20746F6F206C6F7720666F722074686973206265742C2050 PUSH1 0x44 DUP3 ADD MSTORE PUSH15 0x1B19585CD9481B1BDDD95C8818995D PUSH1 0x8A SHL PUSH1 0x64 DUP3 ADD MSTORE PUSH1 0x84 ADD PUSH2 0x60D JUMP JUMPDEST PUSH1 0x62 DUP6 LT DUP1 ISZERO PUSH2 0xC59 JUMPI POP PUSH1 0x0 DUP6 GT JUMPDEST PUSH2 0xCA5 JUMPI PUSH1 0x40 MLOAD PUSH3 0x461BCD PUSH1 0xE5 SHL DUP2 MSTORE PUSH1 0x20 PUSH1 0x4 DUP3 ADD MSTORE PUSH1 0x17 PUSH1 0x24 DUP3 ADD MSTORE PUSH32 0x4D757374206775657373206265747765656E20312D3938000000000000000000 PUSH1 0x44 DUP3 ADD MSTORE PUSH1 0x64 ADD PUSH2 0x60D JUMP JUMPDEST PUSH1 0x12 SLOAD PUSH1 0x40 MLOAD PUSH4 0x23B872DD PUSH1 0xE0 SHL DUP2 MSTORE PUSH1 0x1 PUSH1 0x1 PUSH1 0xA0 SHL SUB SWAP1 SWAP2 AND SWAP1 PUSH4 0x23B872DD SWAP1 PUSH2 0xCD9 SWAP1 CALLER SWAP1 ADDRESS SWAP1 DUP10 SWAP1 PUSH1 0x4 ADD PUSH2 0x1BDE JUMP JUMPDEST PUSH1 0x20 PUSH1 0x40 MLOAD DUP1 DUP4 SUB DUP2 PUSH1 0x0 DUP8 GAS CALL ISZERO DUP1 ISZERO PUSH2 0xCF8 JUMPI RETURNDATASIZE PUSH1 0x0 DUP1 RETURNDATACOPY RETURNDATASIZE PUSH1 0x0 REVERT JUMPDEST POP POP POP POP PUSH1 0x40 MLOAD RETURNDATASIZE PUSH1 0x1F NOT PUSH1 0x1F DUP3 ADD AND DUP3 ADD DUP1 PUSH1 0x40 MSTORE POP DUP2 ADD SWAP1 PUSH2 0xD1C SWAP2 SWAP1 PUSH2 0x1C02 JUMP JUMPDEST PUSH2 0xD5D JUMPI PUSH1 0x40 MLOAD PUSH3 0x461BCD PUSH1 0xE5 SHL DUP2 MSTORE PUSH1 0x20 PUSH1 0x4 DUP3 ADD MSTORE PUSH1 0x12 PUSH1 0x24 DUP3 ADD MSTORE PUSH18 0x5472616E73666572206D75737420776F726B PUSH1 0x70 SHL PUSH1 0x44 DUP3 ADD MSTORE PUSH1 0x64 ADD PUSH2 0x60D JUMP JUMPDEST PUSH1 0x40 MLOAD PUSH4 0x70A08231 PUSH1 0xE0 SHL DUP2 MSTORE ADDRESS PUSH1 0x4 DUP3 ADD MSTORE PUSH1 0x0 SWAP1 PUSH32 0x0 PUSH1 0x1 PUSH1 0x1 PUSH1 0xA0 SHL SUB AND SWAP1 PUSH4 0x70A08231 SWAP1 PUSH1 0x24 ADD PUSH1 0x20 PUSH1 0x40 MLOAD DUP1 DUP4 SUB DUP2 DUP7 GAS STATICCALL ISZERO DUP1 ISZERO PUSH2 0xDC4 JUMPI RETURNDATASIZE PUSH1 0x0 DUP1 RETURNDATACOPY RETURNDATASIZE PUSH1 0x0 REVERT JUMPDEST POP POP POP POP PUSH1 0x40 MLOAD RETURNDATASIZE PUSH1 0x1F NOT PUSH1 0x1F DUP3 ADD AND DUP3 ADD DUP1 PUSH1 0x40 MSTORE POP DUP2 ADD SWAP1 PUSH2 0xDE8 SWAP2 SWAP1 PUSH2 0x1BAF JUMP JUMPDEST SWAP1 POP PUSH1 0x1 DUP5 GT ISZERO PUSH2 0xE9F JUMPI PUSH1 0x1 PUSH1 0x1 PUSH1 0xA0 SHL SUB PUSH32 0x0 AND PUSH4 0x23B872DD CALLER ADDRESS PUSH2 0xE2F PUSH1 0x1 DUP10 PUSH2 0x1B98 JUMP JUMPDEST PUSH1 0x2 SLOAD PUSH2 0xE3C SWAP2 SWAP1 PUSH2 0x1C84 JUMP JUMPDEST PUSH1 0x40 MLOAD DUP5 PUSH4 0xFFFFFFFF AND PUSH1 0xE0 SHL DUP2 MSTORE PUSH1 0x4 ADD PUSH2 0xE5A SWAP4 SWAP3 SWAP2 SWAP1 PUSH2 0x1BDE JUMP JUMPDEST PUSH1 0x20 PUSH1 0x40 MLOAD DUP1 DUP4 SUB DUP2 PUSH1 0x0 DUP8 GAS CALL ISZERO DUP1 ISZERO PUSH2 0xE79 JUMPI RETURNDATASIZE PUSH1 0x0 DUP1 RETURNDATACOPY RETURNDATASIZE PUSH1 0x0 REVERT JUMPDEST POP POP POP POP PUSH1 0x40 MLOAD RETURNDATASIZE PUSH1 0x1F NOT PUSH1 0x1F DUP3 ADD AND DUP3 ADD DUP1 PUSH1 0x40 MSTORE POP DUP2 ADD SWAP1 PUSH2 0xE9D SWAP2 SWAP1 PUSH2 0x1C02 JUMP JUMPDEST POP JUMPDEST PUSH8 0x8AC7230489E80000 DUP6 LT ISZERO PUSH2 0xF55 JUMPI PUSH32 0x0 PUSH1 0x1 PUSH1 0x1 PUSH1 0xA0 SHL SUB AND PUSH4 0x23B872DD CALLER ADDRESS DUP8 PUSH1 0x2 SLOAD PUSH2 0xEEE SWAP2 SWAP1 PUSH2 0x1C84 JUMP JUMPDEST PUSH1 0x40 MLOAD DUP5 PUSH4 0xFFFFFFFF AND PUSH1 0xE0 SHL DUP2 MSTORE PUSH1 0x4 ADD PUSH2 0xF0C SWAP4 SWAP3 SWAP2 SWAP1 PUSH2 0x1BDE JUMP JUMPDEST PUSH1 0x20 PUSH1 0x40 MLOAD DUP1 DUP4 SUB DUP2 PUSH1 0x0 DUP8 GAS CALL ISZERO DUP1 ISZERO PUSH2 0xF2B JUMPI RETURNDATASIZE PUSH1 0x0 DUP1 RETURNDATACOPY RETURNDATASIZE PUSH1 0x0 REVERT JUMPDEST POP POP POP POP PUSH1 0x40 MLOAD RETURNDATASIZE PUSH1 0x1F NOT PUSH1 0x1F DUP3 ADD AND DUP3 ADD DUP1 PUSH1 0x40 MSTORE POP DUP2 ADD SWAP1 PUSH2 0xF4F SWAP2 SWAP1 PUSH2 0x1C02 JUMP JUMPDEST POP PUSH2 0x109B JUMP JUMPDEST PUSH9 0x2B5E3AF16B1880000 DUP6 LT ISZERO PUSH2 0xFCE JUMPI PUSH3 0x186A0 PUSH1 0x4 SLOAD GT DUP1 PUSH2 0xF85 JUMPI POP PUSH1 0x2 SLOAD PUSH2 0xF82 SWAP1 PUSH1 0x15 PUSH2 0x1C84 JUMP JUMPDEST DUP2 LT JUMPDEST ISZERO PUSH2 0xFC9 JUMPI PUSH32 0x0 PUSH1 0x1 PUSH1 0x1 PUSH1 0xA0 SHL SUB AND PUSH4 0x23B872DD CALLER ADDRESS DUP8 PUSH1 0x2 SLOAD PUSH2 0xEEE SWAP2 SWAP1 PUSH2 0x1C84 JUMP JUMPDEST PUSH2 0x109B JUMP JUMPDEST PUSH1 0x5D DUP7 GT PUSH2 0xFE4 JUMPI PUSH1 0x2 SLOAD PUSH2 0xF82 SWAP1 PUSH1 0x15 PUSH2 0x1C84 JUMP JUMPDEST PUSH1 0x2 SLOAD PUSH2 0xFF2 SWAP1 PUSH1 0x15 PUSH2 0x1C84 JUMP JUMPDEST DUP2 LT ISZERO PUSH2 0x109B JUMPI PUSH32 0x0 PUSH1 0x1 PUSH1 0x1 PUSH1 0xA0 SHL SUB AND PUSH4 0x23B872DD CALLER ADDRESS DUP8 PUSH1 0x2 SLOAD PUSH2 0x1038 SWAP2 SWAP1 PUSH2 0x1C84 JUMP JUMPDEST PUSH1 0x40 MLOAD DUP5 PUSH4 0xFFFFFFFF AND PUSH1 0xE0 SHL DUP2 MSTORE PUSH1 0x4 ADD PUSH2 0x1056 SWAP4 SWAP3 SWAP2 SWAP1 PUSH2 0x1BDE JUMP JUMPDEST PUSH1 0x20 PUSH1 0x40 MLOAD DUP1 DUP4 SUB DUP2 PUSH1 0x0 DUP8 GAS CALL ISZERO DUP1 ISZERO PUSH2 0x1075 JUMPI RETURNDATASIZE PUSH1 0x0 DUP1 RETURNDATACOPY RETURNDATASIZE PUSH1 0x0 REVERT JUMPDEST POP POP POP POP PUSH1 0x40 MLOAD RETURNDATASIZE PUSH1 0x1F NOT PUSH1 0x1F DUP3 ADD AND DUP3 ADD DUP1 PUSH1 0x40 MSTORE POP DUP2 ADD SWAP1 PUSH2 0x1099 SWAP2 SWAP1 PUSH2 0x1C02 JUMP JUMPDEST POP JUMPDEST PUSH1 0x4 DUP1 SLOAD PUSH1 0x0 SWAP1 DUP2 MSTORE PUSH1 0x8 PUSH1 0x20 SWAP1 DUP2 MSTORE PUSH1 0x40 DUP1 DUP4 KECCAK256 DUP11 SWAP1 SSTORE DUP4 SLOAD DUP4 MSTORE PUSH1 0x7 DUP3 MSTORE DUP1 DUP4 KECCAK256 DUP10 SWAP1 SSTORE DUP4 SLOAD DUP4 MSTORE PUSH1 0xA DUP3 MSTORE DUP1 DUP4 KECCAK256 DUP1 SLOAD PUSH1 0x1 PUSH1 0x1 PUSH1 0xA0 SHL SUB NOT AND CALLER SWAP1 DUP2 OR SWAP1 SWAP2 SSTORE SWAP4 SLOAD DUP4 MSTORE PUSH1 0xB DUP3 MSTORE DUP1 DUP4 KECCAK256 DUP7 SWAP1 SSTORE SWAP3 DUP3 MSTORE PUSH1 0xD SWAP1 MSTORE SWAP1 DUP2 KECCAK256 DUP1 SLOAD DUP8 SWAP3 SWAP1 PUSH2 0x1107 SWAP1 DUP5 SWAP1 PUSH2 0x1CB7 JUMP JUMPDEST SWAP1 SWAP2 SSTORE POP POP PUSH1 0x4 DUP1 SLOAD PUSH1 0x0 SWAP1 DUP2 MSTORE PUSH1 0x6 PUSH1 0x20 SWAP1 DUP2 MSTORE PUSH1 0x40 SWAP2 DUP3 SWAP1 KECCAK256 NUMBER SWAP1 SSTORE SWAP2 SLOAD DUP2 MLOAD DUP10 DUP2 MSTORE SWAP3 DUP4 ADD DUP9 SWAP1 MSTORE SWAP1 DUP3 ADD MSTORE CALLER SWAP1 PUSH32 0xEA3A2986B784B5FF3AF1DE7908EB0898970DEC44692BEC64512B80606842EAF6 SWAP1 PUSH1 0x60 ADD PUSH1 0x40 MLOAD DUP1 SWAP2 SUB SWAP1 LOG2 PUSH1 0x4 DUP1 SLOAD SWAP1 PUSH1 0x0 PUSH2 0x1175 DUP4 PUSH2 0x1B7D JUMP JUMPDEST SWAP2 SWAP1 POP SSTORE POP DUP5 PUSH1 0xF PUSH1 0x0 DUP3 DUP3 SLOAD PUSH2 0x118C SWAP2 SWAP1 PUSH2 0x1B65 JUMP JUMPDEST SWAP3 POP POP DUP2 SWAP1 SSTORE POP PUSH2 0x11AC PUSH1 0x1 SLOAD DUP6 PUSH1 0x2 SLOAD PUSH2 0x11A7 SWAP2 SWAP1 PUSH2 0x1C84 JUMP JUMPDEST PUSH2 0x15E6 JUMP JUMPDEST SWAP7 SWAP6 POP POP POP POP POP POP JUMP JUMPDEST CALLER PUSH1 0x0 SWAP1 DUP2 MSTORE PUSH1 0x11 PUSH1 0x20 MSTORE PUSH1 0x40 SWAP1 KECCAK256 SLOAD PUSH2 0x11D0 SWAP1 DUP3 PUSH2 0x882 JUMP JUMPDEST POP JUMP JUMPDEST PUSH1 0xF SLOAD PUSH1 0x12 SLOAD PUSH1 0x40 MLOAD PUSH4 0x70A08231 PUSH1 0xE0 SHL DUP2 MSTORE ADDRESS PUSH1 0x4 DUP3 ADD MSTORE PUSH1 0x0 SWAP3 DUP4 SWAP3 SWAP1 SWAP2 PUSH1 0x1 PUSH1 0x1 PUSH1 0xA0 SHL SUB SWAP1 SWAP2 AND SWAP1 PUSH4 0x70A08231 SWAP1 PUSH1 0x24 ADD PUSH1 0x20 PUSH1 0x40 MLOAD DUP1 DUP4 SUB DUP2 DUP7 GAS STATICCALL ISZERO DUP1 ISZERO PUSH2 0x1225 JUMPI RETURNDATASIZE PUSH1 0x0 DUP1 RETURNDATACOPY RETURNDATASIZE PUSH1 0x0 REVERT JUMPDEST POP POP POP POP PUSH1 0x40 MLOAD RETURNDATASIZE PUSH1 0x1F NOT PUSH1 0x1F DUP3 ADD AND DUP3 ADD DUP1 PUSH1 0x40 MSTORE POP DUP2 ADD SWAP1 PUSH2 0x1249 SWAP2 SWAP1 PUSH2 0x1BAF JUMP JUMPDEST PUSH2 0x1253 SWAP2 SWAP1 PUSH2 0x1B98 JUMP JUMPDEST SWAP1 POP PUSH1 0x0 PUSH1 0x10 SLOAD DUP3 DUP6 PUSH2 0x1266 SWAP2 SWAP1 PUSH2 0x1C84 JUMP JUMPDEST PUSH2 0x1270 SWAP2 SWAP1 PUSH2 0x1CA3 JUMP JUMPDEST SWAP1 POP DUP2 PUSH2 0x127B PUSH2 0x516 JUMP JUMPDEST PUSH2 0x1285 SWAP1 DUP4 PUSH2 0x1C84 JUMP JUMPDEST PUSH2 0x128F SWAP2 SWAP1 PUSH2 0x1CA3 JUMP JUMPDEST PUSH2 0x50E SWAP1 DUP3 PUSH2 0x1B98 JUMP JUMPDEST PUSH1 0x0 DUP1 PUSH2 0x12A6 DUP4 DUP6 PUSH2 0x1C84 JUMP JUMPDEST PUSH1 0xF SLOAD PUSH1 0x12 SLOAD PUSH1 0x40 MLOAD PUSH4 0x70A08231 PUSH1 0xE0 SHL DUP2 MSTORE ADDRESS PUSH1 0x4 DUP3 ADD MSTORE PUSH1 0x1 PUSH1 0x1 PUSH1 0xA0 SHL SUB SWAP1 SWAP2 AND SWAP1 PUSH4 0x70A08231 SWAP1 PUSH1 0x24 ADD PUSH1 0x20 PUSH1 0x40 MLOAD DUP1 DUP4 SUB DUP2 DUP7 GAS STATICCALL ISZERO DUP1 ISZERO PUSH2 0x12F1 JUMPI RETURNDATASIZE PUSH1 0x0 DUP1 RETURNDATACOPY RETURNDATASIZE PUSH1 0x0 REVERT JUMPDEST POP POP POP POP PUSH1 0x40 MLOAD RETURNDATASIZE PUSH1 0x1F NOT PUSH1 0x1F DUP3 ADD AND DUP3 ADD DUP1 PUSH1 0x40 MSTORE POP DUP2 ADD SWAP1 PUSH2 0x1315 SWAP2 SWAP1 PUSH2 0x1BAF JUMP JUMPDEST PUSH2 0x131F SWAP2 SWAP1 PUSH2 0x1B98 JUMP JUMPDEST PUSH2 0x132A SWAP1 PUSH1 0x32 PUSH2 0x1C84 JUMP JUMPDEST PUSH2 0x1334 SWAP2 SWAP1 PUSH2 0x1CA3 JUMP JUMPDEST SWAP1 POP PUSH1 0x0 PUSH1 0x1E DUP3 LT ISZERO PUSH2 0x1369 JUMPI PUSH2 0x134C DUP5 PUSH1 0x64 PUSH2 0x1C84 JUMP JUMPDEST PUSH2 0x1358 DUP7 PUSH2 0x2328 PUSH2 0x1C84 JUMP JUMPDEST PUSH2 0x1362 SWAP2 SWAP1 PUSH2 0x1CA3 JUMP JUMPDEST SWAP1 POP PUSH2 0x50E JUMP JUMPDEST PUSH1 0x32 DUP3 LT ISZERO PUSH2 0x1389 JUMPI PUSH2 0x137D DUP5 PUSH1 0x64 PUSH2 0x1C84 JUMP JUMPDEST PUSH2 0x1358 DUP7 PUSH2 0x2454 PUSH2 0x1C84 JUMP JUMPDEST PUSH1 0x64 DUP3 LT ISZERO PUSH2 0x13A9 JUMPI PUSH2 0x139D DUP5 PUSH1 0x64 PUSH2 0x1C84 JUMP JUMPDEST PUSH2 0x1358 DUP7 PUSH2 0x2580 PUSH2 0x1C84 JUMP JUMPDEST PUSH1 0xC8 DUP3 LT ISZERO PUSH2 0x13C9 JUMPI PUSH2 0x13BD DUP5 PUSH1 0x64 PUSH2 0x1C84 JUMP JUMPDEST PUSH2 0x1358 DUP7 PUSH2 0x2648 PUSH2 0x1C84 JUMP JUMPDEST PUSH2 0x190 DUP3 LT ISZERO PUSH2 0x13EA JUMPI PUSH2 0x13DE DUP5 PUSH1 0x64 PUSH2 0x1C84 JUMP JUMPDEST PUSH2 0x1358 DUP7 PUSH2 0x26AC PUSH2 0x1C84 JUMP JUMPDEST PUSH2 0x3E8 DUP3 LT ISZERO PUSH2 0x140D JUMPI PUSH2 0x1400 DUP5 PUSH2 0x3E8 PUSH2 0x1C84 JUMP JUMPDEST PUSH2 0x1358 DUP7 PUSH3 0x184AC PUSH2 0x1C84 JUMP JUMPDEST PUSH2 0x1418 DUP5 PUSH1 0x64 PUSH2 0x1C84 JUMP JUMPDEST PUSH2 0x1424 DUP7 PUSH2 0x26AC PUSH2 0x1C84 JUMP JUMPDEST PUSH2 0x142E SWAP2 SWAP1 PUSH2 0x1CA3 JUMP JUMPDEST SWAP6 SWAP5 POP POP POP POP POP JUMP JUMPDEST PUSH1 0x0 DUP1 PUSH2 0x3E8 PUSH2 0x145F PUSH2 0x34F DUP6 PUSH1 0x1 PUSH1 0x1 PUSH1 0xA0 SHL SUB AND PUSH1 0x0 SWAP1 DUP2 MSTORE PUSH1 0x11 PUSH1 0x20 MSTORE PUSH1 0x40 SWAP1 KECCAK256 SLOAD SWAP1 JUMP JUMPDEST PUSH2 0x871 SWAP1 PUSH2 0x3CF PUSH2 0x1C84 JUMP JUMPDEST PUSH1 0x0 PUSH32 0x0 PUSH1 0x1 PUSH1 0x1 PUSH1 0xA0 SHL SUB AND PUSH4 0x23B872DD CALLER ADDRESS DUP6 PUSH1 0x2 SLOAD PUSH2 0x14AC SWAP2 SWAP1 PUSH2 0x1C84 JUMP JUMPDEST PUSH1 0x40 MLOAD DUP5 PUSH4 0xFFFFFFFF AND PUSH1 0xE0 SHL DUP2 MSTORE PUSH1 0x4 ADD PUSH2 0x14CA SWAP4 SWAP3 SWAP2 SWAP1 PUSH2 0x1BDE JUMP JUMPDEST PUSH1 0x20 PUSH1 0x40 MLOAD DUP1 DUP4 SUB DUP2 PUSH1 0x0 DUP8 GAS CALL ISZERO DUP1 ISZERO PUSH2 0x14E9 JUMPI RETURNDATASIZE PUSH1 0x0 DUP1 RETURNDATACOPY RETURNDATASIZE PUSH1 0x0 REVERT JUMPDEST POP POP POP POP PUSH1 0x40 MLOAD RETURNDATASIZE PUSH1 0x1F NOT PUSH1 0x1F DUP3 ADD AND DUP3 ADD DUP1 PUSH1 0x40 MSTORE POP DUP2 ADD SWAP1 PUSH2 0x150D SWAP2 SWAP1 PUSH2 0x1C02 JUMP JUMPDEST POP PUSH2 0x1522 PUSH1 0x1 SLOAD DUP4 PUSH1 0x2 SLOAD PUSH2 0x11A7 SWAP2 SWAP1 PUSH2 0x1C84 JUMP JUMPDEST SWAP3 SWAP2 POP POP JUMP JUMPDEST CALLER PUSH1 0x1 PUSH1 0x1 PUSH1 0xA0 SHL SUB PUSH32 0x0 AND EQ PUSH2 0x15A0 JUMPI PUSH1 0x40 MLOAD PUSH3 0x461BCD PUSH1 0xE5 SHL DUP2 MSTORE PUSH1 0x20 PUSH1 0x4 DUP3 ADD MSTORE PUSH1 0x1F PUSH1 0x24 DUP3 ADD MSTORE PUSH32 0x4F6E6C7920565246436F6F7264696E61746F722063616E2066756C66696C6C00 PUSH1 0x44 DUP3 ADD MSTORE PUSH1 0x64 ADD PUSH2 0x60D JUMP JUMPDEST PUSH2 0x15AA DUP3 DUP3 PUSH2 0x175D JUMP JUMPDEST POP POP JUMP JUMPDEST PUSH1 0x0 DUP1 PUSH2 0x3E8 PUSH2 0x145F DUP5 PUSH2 0x11D3 JUMP JUMPDEST PUSH1 0x0 PUSH1 0x4 SLOAD PUSH1 0x3 SLOAD EQ ISZERO PUSH2 0x15D0 JUMPI POP NUMBER SWAP1 JUMP JUMPDEST POP PUSH1 0x3 SLOAD PUSH1 0x0 SWAP1 DUP2 MSTORE PUSH1 0x6 PUSH1 0x20 MSTORE PUSH1 0x40 SWAP1 KECCAK256 SLOAD SWAP1 JUMP JUMPDEST PUSH1 0x0 PUSH32 0x0 PUSH1 0x1 PUSH1 0x1 PUSH1 0xA0 SHL SUB AND PUSH4 0x4000AEA0 PUSH32 0x0 DUP5 DUP7 PUSH1 0x0 PUSH1 0x40 MLOAD PUSH1 0x20 ADD PUSH2 0x1656 SWAP3 SWAP2 SWAP1 SWAP2 DUP3 MSTORE PUSH1 0x20 DUP3 ADD MSTORE PUSH1 0x40 ADD SWAP1 JUMP JUMPDEST PUSH1 0x40 MLOAD PUSH1 0x20 DUP2 DUP4 SUB SUB DUP2 MSTORE SWAP1 PUSH1 0x40 MSTORE PUSH1 0x40 MLOAD DUP5 PUSH4 0xFFFFFFFF AND PUSH1 0xE0 SHL DUP2 MSTORE PUSH1 0x4 ADD PUSH2 0x1683 SWAP4 SWAP3 SWAP2 SWAP1 PUSH2 0x1CF6 JUMP JUMPDEST PUSH1 0x20 PUSH1 0x40 MLOAD DUP1 DUP4 SUB DUP2 PUSH1 0x0 DUP8 GAS CALL ISZERO DUP1 ISZERO PUSH2 0x16A2 JUMPI RETURNDATASIZE PUSH1 0x0 DUP1 RETURNDATACOPY RETURNDATASIZE PUSH1 0x0 REVERT JUMPDEST POP POP POP POP PUSH1 0x40 MLOAD RETURNDATASIZE PUSH1 0x1F NOT PUSH1 0x1F DUP3 ADD AND DUP3 ADD DUP1 PUSH1 0x40 MSTORE POP DUP2 ADD SWAP1 PUSH2 0x16C6 SWAP2 SWAP1 PUSH2 0x1C02 JUMP JUMPDEST POP PUSH1 0x0 DUP4 DUP2 MSTORE PUSH1 0x20 DUP2 DUP2 MSTORE PUSH1 0x40 DUP1 DUP4 KECCAK256 SLOAD DUP2 MLOAD DUP1 DUP5 ADD DUP9 SWAP1 MSTORE DUP1 DUP4 ADD DUP6 SWAP1 MSTORE ADDRESS PUSH1 0x60 DUP3 ADD MSTORE PUSH1 0x80 DUP1 DUP3 ADD DUP4 SWAP1 MSTORE DUP4 MLOAD DUP1 DUP4 SUB SWAP1 SWAP2 ADD DUP2 MSTORE PUSH1 0xA0 SWAP1 SWAP2 ADD SWAP1 SWAP3 MSTORE DUP2 MLOAD SWAP2 DUP4 ADD SWAP2 SWAP1 SWAP2 KECCAK256 DUP7 DUP5 MSTORE SWAP3 SWAP1 SWAP2 MSTORE PUSH2 0x1720 SWAP1 PUSH1 0x1 PUSH2 0x1B65 JUMP JUMPDEST PUSH1 0x0 DUP6 DUP2 MSTORE PUSH1 0x20 DUP2 DUP2 MSTORE PUSH1 0x40 SWAP2 DUP3 SWAP1 KECCAK256 SWAP3 SWAP1 SWAP3 SSTORE DUP1 MLOAD DUP1 DUP4 ADD DUP8 SWAP1 MSTORE DUP1 DUP3 ADD DUP5 SWAP1 MSTORE DUP2 MLOAD DUP1 DUP3 SUB DUP4 ADD DUP2 MSTORE PUSH1 0x60 SWAP1 SWAP2 ADD SWAP1 SWAP2 MSTORE DUP1 MLOAD SWAP2 ADD KECCAK256 PUSH2 0x50E JUMP JUMPDEST PUSH1 0x4 SLOAD PUSH1 0x3 SLOAD LT PUSH2 0x176C JUMPI POP POP JUMP JUMPDEST PUSH1 0x4 SLOAD PUSH1 0x3 SLOAD LT PUSH2 0x17B4 JUMPI PUSH1 0x40 MLOAD PUSH3 0x461BCD PUSH1 0xE5 SHL DUP2 MSTORE PUSH1 0x20 PUSH1 0x4 DUP3 ADD MSTORE PUSH1 0x12 PUSH1 0x24 DUP3 ADD MSTORE PUSH18 0x4D7573742068617665206E65772062657473 PUSH1 0x70 SHL PUSH1 0x44 DUP3 ADD MSTORE PUSH1 0x64 ADD PUSH2 0x60D JUMP JUMPDEST PUSH1 0x3 SLOAD PUSH1 0x0 SWAP1 DUP2 MSTORE PUSH1 0x9 PUSH1 0x20 MSTORE PUSH1 0x40 SWAP1 KECCAK256 DUP2 SWAP1 SSTORE PUSH2 0x17D3 PUSH1 0x64 DUP3 PUSH2 0x1D1D JUMP JUMPDEST PUSH1 0x3 DUP1 SLOAD PUSH1 0x0 SWAP1 DUP2 MSTORE PUSH1 0x5 PUSH1 0x20 SWAP1 DUP2 MSTORE PUSH1 0x40 DUP1 DUP4 KECCAK256 SWAP5 SWAP1 SWAP5 SSTORE SWAP2 SLOAD DUP2 MSTORE PUSH1 0xA DUP3 MSTORE DUP3 DUP2 KECCAK256 SLOAD PUSH1 0x8 DUP4 MSTORE DUP4 DUP3 KECCAK256 SLOAD PUSH1 0x7 DUP5 MSTORE DUP5 DUP4 KECCAK256 SLOAD PUSH1 0xB SWAP1 SWAP5 MSTORE SWAP4 SWAP1 SWAP2 KECCAK256 SLOAD PUSH1 0x1 PUSH1 0x1 PUSH1 0xA0 SHL SUB SWAP1 SWAP2 AND SWAP3 SWAP2 SWAP1 DUP3 PUSH2 0x182C PUSH1 0x64 DUP8 PUSH2 0x1D1D JUMP JUMPDEST LT ISZERO PUSH2 0x18DC JUMPI PUSH1 0x1 PUSH1 0x1 PUSH1 0xA0 SHL SUB DUP5 AND PUSH1 0x0 SWAP1 DUP2 MSTORE PUSH1 0xD PUSH1 0x20 MSTORE PUSH1 0x40 DUP2 KECCAK256 DUP1 SLOAD DUP4 SWAP3 SWAP1 PUSH2 0x185A SWAP1 DUP5 SWAP1 PUSH2 0x1B24 JUMP JUMPDEST SWAP1 SWAP2 SSTORE POP POP PUSH1 0x12 SLOAD PUSH1 0x40 MLOAD PUSH4 0xA9059CBB PUSH1 0xE0 SHL DUP2 MSTORE PUSH1 0x1 PUSH1 0x1 PUSH1 0xA0 SHL SUB DUP7 DUP2 AND PUSH1 0x4 DUP4 ADD MSTORE PUSH1 0x24 DUP3 ADD DUP5 SWAP1 MSTORE SWAP1 SWAP2 AND SWAP1 PUSH4 0xA9059CBB SWAP1 PUSH1 0x44 ADD PUSH1 0x20 PUSH1 0x40 MLOAD DUP1 DUP4 SUB DUP2 PUSH1 0x0 DUP8 GAS CALL ISZERO DUP1 ISZERO PUSH2 0x18B2 JUMPI RETURNDATASIZE PUSH1 0x0 DUP1 RETURNDATACOPY RETURNDATASIZE PUSH1 0x0 REVERT JUMPDEST POP POP POP POP PUSH1 0x40 MLOAD RETURNDATASIZE PUSH1 0x1F NOT PUSH1 0x1F DUP3 ADD AND DUP3 ADD DUP1 PUSH1 0x40 MSTORE POP DUP2 ADD SWAP1 PUSH2 0x18D6 SWAP2 SWAP1 PUSH2 0x1C02 JUMP JUMPDEST POP PUSH2 0x1998 JUMP JUMPDEST PUSH1 0x12 SLOAD PUSH1 0x40 MLOAD PUSH4 0xA9059CBB PUSH1 0xE0 SHL DUP2 MSTORE PUSH1 0x1 PUSH1 0x1 PUSH1 0xA0 SHL SUB DUP7 DUP2 AND PUSH1 0x4 DUP4 ADD MSTORE PUSH1 0x1 PUSH1 0x24 DUP4 ADD MSTORE SWAP1 SWAP2 AND SWAP1 PUSH4 0xA9059CBB SWAP1 PUSH1 0x44 ADD PUSH1 0x20 PUSH1 0x40 MLOAD DUP1 DUP4 SUB DUP2 PUSH1 0x0 DUP8 GAS CALL ISZERO DUP1 ISZERO PUSH2 0x192F JUMPI RETURNDATASIZE PUSH1 0x0 DUP1 RETURNDATACOPY RETURNDATASIZE PUSH1 0x0 REVERT JUMPDEST POP POP POP POP PUSH1 0x40 MLOAD RETURNDATASIZE PUSH1 0x1F NOT PUSH1 0x1F DUP3 ADD AND DUP3 ADD DUP1 PUSH1 0x40 MSTORE POP DUP2 ADD SWAP1 PUSH2 0x1953 SWAP2 SWAP1 PUSH2 0x1C02 JUMP JUMPDEST POP PUSH1 0x1 PUSH1 0x1 PUSH1 0xA0 SHL SUB DUP5 AND PUSH1 0x0 SWAP1 DUP2 MSTORE PUSH1 0xD PUSH1 0x20 MSTORE PUSH1 0x40 DUP2 KECCAK256 DUP1 SLOAD PUSH1 0x1 SWAP3 SWAP1 PUSH2 0x197D SWAP1 DUP5 SWAP1 PUSH2 0x1B24 JUMP JUMPDEST SWAP1 SWAP2 SSTORE POP POP PUSH1 0x3 SLOAD PUSH1 0x0 SWAP1 DUP2 MSTORE PUSH1 0xB PUSH1 0x20 MSTORE PUSH1 0x40 SWAP1 KECCAK256 PUSH1 0x1 SWAP1 SSTORE JUMPDEST DUP2 PUSH1 0xF PUSH1 0x0 DUP3 DUP3 SLOAD PUSH2 0x19AA SWAP2 SWAP1 PUSH2 0x1B98 JUMP JUMPDEST SWAP1 SWAP2 SSTORE POP POP PUSH1 0x1 PUSH1 0x1 PUSH1 0xA0 SHL SUB DUP5 AND PUSH32 0xD6E0FDF39F428B885B593CB5E1ED182847A2ED801C2D36A89869AA69E8B785F DUP5 PUSH2 0x19E6 PUSH1 0x64 DUP10 PUSH2 0x1D1D JUMP JUMPDEST PUSH1 0x3 SLOAD PUSH1 0x0 DUP2 DUP2 MSTORE PUSH1 0xB PUSH1 0x20 SWAP1 DUP2 MSTORE PUSH1 0x40 SWAP2 DUP3 SWAP1 KECCAK256 SLOAD DUP3 MLOAD SWAP6 DUP7 MSTORE SWAP1 DUP6 ADD SWAP4 SWAP1 SWAP4 MSTORE DUP4 ADD DUP8 SWAP1 MSTORE PUSH1 0x60 DUP4 ADD MSTORE PUSH1 0x80 DUP3 ADD MSTORE PUSH1 0xA0 DUP2 ADD DUP9 SWAP1 MSTORE PUSH1 0xC0 ADD PUSH1 0x40 MLOAD DUP1 SWAP2 SUB SWAP1 LOG2 PUSH1 0x3 DUP1 SLOAD SWAP1 PUSH1 0x0 PUSH2 0x1A39 DUP4 PUSH2 0x1B7D JUMP JUMPDEST SWAP2 SWAP1 POP SSTORE POP POP POP POP POP POP POP JUMP JUMPDEST DUP1 CALLDATALOAD PUSH1 0x1 PUSH1 0x1 PUSH1 0xA0 SHL SUB DUP2 AND DUP2 EQ PUSH2 0x1A5D JUMPI PUSH1 0x0 DUP1 REVERT JUMPDEST SWAP2 SWAP1 POP JUMP JUMPDEST PUSH1 0x0 PUSH1 0x20 DUP3 DUP5 SUB SLT ISZERO PUSH2 0x1A74 JUMPI PUSH1 0x0 DUP1 REVERT JUMPDEST PUSH2 0x87B DUP3 PUSH2 0x1A46 JUMP JUMPDEST PUSH1 0x0 DUP1 PUSH1 0x40 DUP4 DUP6 SUB SLT ISZERO PUSH2 0x1A90 JUMPI PUSH1 0x0 DUP1 REVERT JUMPDEST POP POP DUP1 CALLDATALOAD SWAP3 PUSH1 0x20 SWAP1 SWAP2 ADD CALLDATALOAD SWAP2 POP JUMP JUMPDEST PUSH1 0x0 DUP1 PUSH1 0x40 DUP4 DUP6 SUB SLT ISZERO PUSH2 0x1AB2 JUMPI PUSH1 0x0 DUP1 REVERT JUMPDEST PUSH2 0x1ABB DUP4 PUSH2 0x1A46 JUMP JUMPDEST SWAP5 PUSH1 0x20 SWAP4 SWAP1 SWAP4 ADD CALLDATALOAD SWAP4 POP POP POP JUMP JUMPDEST PUSH1 0x0 PUSH1 0x20 DUP3 DUP5 SUB SLT ISZERO PUSH2 0x1ADB JUMPI PUSH1 0x0 DUP1 REVERT JUMPDEST POP CALLDATALOAD SWAP2 SWAP1 POP JUMP JUMPDEST PUSH1 0x0 DUP1 PUSH1 0x0 PUSH1 0x60 DUP5 DUP7 SUB SLT ISZERO PUSH2 0x1AF7 JUMPI PUSH1 0x0 DUP1 REVERT JUMPDEST POP POP DUP2 CALLDATALOAD SWAP4 PUSH1 0x20 DUP4 ADD CALLDATALOAD SWAP4 POP PUSH1 0x40 SWAP1 SWAP3 ADD CALLDATALOAD SWAP2 SWAP1 POP JUMP JUMPDEST PUSH4 0x4E487B71 PUSH1 0xE0 SHL PUSH1 0x0 MSTORE PUSH1 0x11 PUSH1 0x4 MSTORE PUSH1 0x24 PUSH1 0x0 REVERT JUMPDEST PUSH1 0x0 DUP1 DUP3 SLT DUP1 ISZERO PUSH1 0x1 PUSH1 0x1 PUSH1 0xFF SHL SUB DUP5 SWAP1 SUB DUP6 SGT AND ISZERO PUSH2 0x1B46 JUMPI PUSH2 0x1B46 PUSH2 0x1B0E JUMP JUMPDEST PUSH1 0x1 PUSH1 0xFF SHL DUP4 SWAP1 SUB DUP5 SLT DUP2 AND ISZERO PUSH2 0x1B5F JUMPI PUSH2 0x1B5F PUSH2 0x1B0E JUMP JUMPDEST POP POP ADD SWAP1 JUMP JUMPDEST PUSH1 0x0 DUP3 NOT DUP3 GT ISZERO PUSH2 0x1B78 JUMPI PUSH2 0x1B78 PUSH2 0x1B0E JUMP JUMPDEST POP ADD SWAP1 JUMP JUMPDEST PUSH1 0x0 PUSH1 0x0 NOT DUP3 EQ ISZERO PUSH2 0x1B91 JUMPI PUSH2 0x1B91 PUSH2 0x1B0E JUMP JUMPDEST POP PUSH1 0x1 ADD SWAP1 JUMP JUMPDEST PUSH1 0x0 DUP3 DUP3 LT ISZERO PUSH2 0x1BAA JUMPI PUSH2 0x1BAA PUSH2 0x1B0E JUMP JUMPDEST POP SUB SWAP1 JUMP JUMPDEST PUSH1 0x0 PUSH1 0x20 DUP3 DUP5 SUB SLT ISZERO PUSH2 0x1BC1 JUMPI PUSH1 0x0 DUP1 REVERT JUMPDEST POP MLOAD SWAP2 SWAP1 POP JUMP JUMPDEST PUSH4 0x4E487B71 PUSH1 0xE0 SHL PUSH1 0x0 MSTORE PUSH1 0x12 PUSH1 0x4 MSTORE PUSH1 0x24 PUSH1 0x0 REVERT JUMPDEST PUSH1 0x1 PUSH1 0x1 PUSH1 0xA0 SHL SUB SWAP4 DUP5 AND DUP2 MSTORE SWAP2 SWAP1 SWAP3 AND PUSH1 0x20 DUP3 ADD MSTORE PUSH1 0x40 DUP2 ADD SWAP2 SWAP1 SWAP2 MSTORE PUSH1 0x60 ADD SWAP1 JUMP JUMPDEST PUSH1 0x0 PUSH1 0x20 DUP3 DUP5 SUB SLT ISZERO PUSH2 0x1C14 JUMPI PUSH1 0x0 DUP1 REVERT JUMPDEST DUP2 MLOAD DUP1 ISZERO ISZERO DUP2 EQ PUSH2 0x87B JUMPI PUSH1 0x0 DUP1 REVERT JUMPDEST PUSH1 0x0 DUP2 MLOAD DUP1 DUP5 MSTORE PUSH1 0x0 JUMPDEST DUP2 DUP2 LT ISZERO PUSH2 0x1C4A JUMPI PUSH1 0x20 DUP2 DUP6 ADD DUP2 ADD MLOAD DUP7 DUP4 ADD DUP3 ADD MSTORE ADD PUSH2 0x1C2E JUMP JUMPDEST DUP2 DUP2 GT ISZERO PUSH2 0x1C5C JUMPI PUSH1 0x0 PUSH1 0x20 DUP4 DUP8 ADD ADD MSTORE JUMPDEST POP PUSH1 0x1F ADD PUSH1 0x1F NOT AND SWAP3 SWAP1 SWAP3 ADD PUSH1 0x20 ADD SWAP3 SWAP2 POP POP JUMP JUMPDEST PUSH1 0x20 DUP2 MSTORE PUSH1 0x0 PUSH2 0x87B PUSH1 0x20 DUP4 ADD DUP5 PUSH2 0x1C24 JUMP JUMPDEST PUSH1 0x0 DUP2 PUSH1 0x0 NOT DIV DUP4 GT DUP3 ISZERO ISZERO AND ISZERO PUSH2 0x1C9E JUMPI PUSH2 0x1C9E PUSH2 0x1B0E JUMP JUMPDEST POP MUL SWAP1 JUMP JUMPDEST PUSH1 0x0 DUP3 PUSH2 0x1CB2 JUMPI PUSH2 0x1CB2 PUSH2 0x1BC8 JUMP JUMPDEST POP DIV SWAP1 JUMP JUMPDEST PUSH1 0x0 DUP1 DUP4 SLT DUP1 ISZERO PUSH1 0x1 PUSH1 0xFF SHL DUP6 ADD DUP5 SLT AND ISZERO PUSH2 0x1CD5 JUMPI PUSH2 0x1CD5 PUSH2 0x1B0E JUMP JUMPDEST PUSH1 0x1 PUSH1 0x1 PUSH1 0xFF SHL SUB DUP5 ADD DUP4 SGT DUP2 AND ISZERO PUSH2 0x1CF0 JUMPI PUSH2 0x1CF0 PUSH2 0x1B0E JUMP JUMPDEST POP POP SUB SWAP1 JUMP JUMPDEST PUSH1 0x1 DUP1 PUSH1 0xA0 SHL SUB DUP5 AND DUP2 MSTORE DUP3 PUSH1 0x20 DUP3 ADD MSTORE PUSH1 0x60 PUSH1 0x40 DUP3 ADD MSTORE PUSH1 0x0 PUSH2 0x142E PUSH1 0x60 DUP4 ADD DUP5 PUSH2 0x1C24 JUMP JUMPDEST PUSH1 0x0 DUP3 PUSH2 0x1D2C JUMPI PUSH2 0x1D2C PUSH2 0x1BC8 JUMP JUMPDEST POP MOD SWAP1 JUMP INVALID LOG2 PUSH5 0x6970667358 0x22 SLT KECCAK256 NOT DUP14 LT PUSH3 0x48B370 EXTCODESIZE PUSH17 0xD6D1A45B87A5B5DF45E72C0DB19FE87370 DUP2 SWAP2 PUSH17 0xE5067764736F6C634300080B0033000000 ",
  "sha1": "ba657fa18726d218308675fe44ed3e0e830f96b1",
  "source": "// Forge Guess - Contract\n//\n// Forge Guess allows users to guess a number 1-97 and hope a random number 0-99 is lower.  \n// Odds and bet maximums are calculated automatically at the contract level. Forge tokens using chainlink VRF.\n// House edge of 0.5% - 10% depending on bet size.\n//\n// Forge Guess gives 100% of all profits to investors of the contract. \n// Invest Forge and become the house and make Forge when users use this contract!\n// 2.5% Withdrawl fee goes 100% back to investors to promote longeviity!\n\n\n// SPDX-License-Identifier: MIT\npragma solidity ^0.8.7;\n\nimport \"./VRFConsumerBase.sol\";\n\n/**\n * Request testnet LINK and ETH here: https://faucets.chain.link/\n * Find information on LINK Token Contracts and get the latest ETH and LINK faucets here: https://docs.chain.link/docs/link-token-contracts/\n */\n interface IERC20 {\n    function totalSupply() external view returns (uint256);\n    function balanceOf(address account) external view returns (uint256);\n    function transfer(address recipient, uint256 amount) external returns (bool);\n    function allowance(address owner, address spender) external view returns (uint256);\n    function approve(address spender, uint256 amount) external returns (bool);\n    function transferFrom(address sender, address recipient, uint256 amount) external returns (bool);\n    \n    event Transfer(address indexed from, address indexed to, uint256 value);\n    event Approval(address indexed owner, address indexed spender, uint256 value);\n}\n\ncontract ForgeGuess is VRFConsumerBase {\n\n    bytes32 internal keyHash;\n    uint256 internal fee;\n    //Guess Storage\n    uint256 public betid = 0;\n    uint256 public betidIN = 0;\n    mapping(uint256 => uint256) public betResults;\n    mapping(uint256 => uint256) public blockNumForBetID;\n    mapping(uint256 => uint256) public betAmt;\n    mapping(uint256 => uint256) public betOdds;\n    mapping(uint256 => uint256) public randomNumber;\n    mapping(uint256 => address) public betee;\n    mapping(uint256 => uint256) public winnings;\n    mapping(address => int) public profitz;\n    mapping(address => int) public profitzGuess;\n\n    uint256 public randomResult;\n    uint256 public unreleased = 0;\n    uint256 public totalSupply = 1;\n    \n    mapping(address => uint256) private _balances;\n    \n    IERC20 public stakedToken = IERC20(0xF44fB43066F7ECC91058E3A614Fb8A15A2735276);\n    \n    event Staked(address indexed user, uint256 amount);\n    event Withdrawn(address indexed user, uint256 amount);\n    event GuessNote(uint256 UsersGuess, uint256 amount, address indexed user, uint256 betID);\n    event ShowAnswer(uint256 UsersGuess, uint256 Result, uint256 amountWagered, uint256 betID, address indexed AddressOfGuesser, uint256 AmountWon, uint256 chainlinkRandom);\n    \n    \n    \n    function balanceOf(address account) public view returns (uint256) {\n        return _balances[account];\n    }\n    \n    string constant _transferErrorMessage = \"staked token transfer failed\";\n    \n    /**\n     * Constructor inherits VRFConsumerBase\n     * \n     * Network: Mumbai\n     * Chainlink VRF Coordinator address: 0x8C7382F9D8f56b33781fE506E897a4F1e2d17255\n     * LINK token address:                0x326C977E6efc84E512bB9C30f76E30c160eD06FB\n     * Key Hash: 0x6e75b569a01ef56d18cab6a8e71e6600d6ce853834d4a5748b720d06f878b3a4\n     */\n    constructor() \n        VRFConsumerBase(\n            0x3d2341ADb2D31f1c5530cDC622016af293177AE0, // VRF Coordinator\n            0xb0897686c545045aFc77CF20eC7A532E3120E0F1  // LINK Token\n        )\n    {\n        \n        keyHash = 0xf86195cf7690c55907b2b611ebb7343a6f649bff128701cc542f0569e2c549da;\n        fee = 1 * 10 ** 14; // 0.0001 LINK\n    }\n    \n    /** \n     * Requests randomness \n     */\n    function getRandomNumber(uint256 guess, uint256 amt, uint256 extraLINK) public returns (bytes32 requestId) {\n        uint256 esT = estOUTPUT(amt, guess);\n        require(amt < esT, \"You will loose money everytime at these settings\");\n        require(amt >= 10**18, \"Min bet 1 Forge\");\n        require(extraLINK >= 1, \"Must send at least the minimum 0.0001\"); //Allows increase in fees to be handled\n        require(MaxINForGuess(guess) >= amt , \"Bankroll too low for this bet, Please lower bet\"); //MaxBet Amounts   \n        require(guess<98 && guess > 0, \"Must guess between 1-98\");\n        require(stakedToken.transferFrom(msg.sender, address(this), amt), \"Transfer must work\");\n        \n        uint256 lBal = LINK.balanceOf(address(this));\n        //Free chainlink for player rolls\n        if(extraLINK > 1){\n        LINK.transferFrom(msg.sender, address(this), (fee * (extraLINK-1)));\n        }\n        if(amt < (10 * 10 ** 18)){\n            LINK.transferFrom(msg.sender, address(this), fee * extraLINK);\n        }else if(amt < 50 * 10 ** 18 ){\n            if(betidIN > 100000 || lBal < fee * 21){  //Must seed with 10 link = 100,000 * 0.0001 = 10 LINK\n                LINK.transferFrom(msg.sender, address(this), fee * extraLINK);\n            }\n        }else if(guess <= 93)\n        {\n            if(lBal < fee*21 ){\n                LINK.transferFrom(msg.sender, address(this), fee * extraLINK);\n            }\n        }else\n        {\n            if(lBal < fee*21 ){\n                LINK.transferFrom(msg.sender, address(this), fee * extraLINK);\n            }\n        }\n        betOdds[betidIN] = guess;\n        betAmt[betidIN] = amt;\n        betee[betidIN] = msg.sender;\n        winnings[betidIN] = esT;\n        profitzGuess[msg.sender] -= int(amt);\n        blockNumForBetID[betidIN] = block.number;\n        emit GuessNote(guess, amt, msg.sender, betidIN);\n        betidIN++;\n        unreleased +=  amt;\n        return requestRandomness(keyHash, fee * extraLINK);\n    }\n\n    function lastBlockFilled() public view returns (uint256){\n        if(betid == betidIN){\n            return block.number;\n        }\n        return blockNumForBetID[betid];\n    }\n\n    // Max AMT for a certien guess\n     function MaxINForGuess(uint256 guess) public view returns (uint256){\n         //AT 50% chance u get 1/23 of bankroll to bet\n         uint256 ret = ((IERC20(address(stakedToken)).balanceOf(address(this)) - unreleased) * guess) / (50 * 21);\n         return ret;\n     }\n\n    function penalty () public view returns (uint num){\n\n        uint tot = 0;\n        for(uint x = betid; x<betidIN; x++){\n            tot += winnings[x];\n        }\n      \n      return tot;\n    }\n \n    //Incase of Chainlink failure\n    function getBlank(uint256 extraLINK) public returns (bytes32 requestId) {\n        LINK.transferFrom(msg.sender, address(this), fee * extraLINK);\n\n        return requestRandomness(keyHash, fee * extraLINK);\n    }\n\n    /**\n     * Callback function used by VRF Coordinator\n     */\n    function fulfillRandomness(bytes32 requestId, uint256 randomness) internal override {\n        if(betid >= betidIN){\n            return;\n        }\n        \n        require(betid < betidIN, \"Must have new bets\");\n        \n        randomNumber[betid] = randomness;\n        betResults[betid] = randomness % 100;\n        address Guesser = betee[betid];\n        uint256 odds = betOdds[betid];\n        uint256 betAmount = betAmt[betid];\n        uint256 esT = winnings[betid];\n        if(randomness%100 < odds){\n            profitzGuess[Guesser] += int(esT);\n            stakedToken.transfer(Guesser, esT);\n        }else{\n            stakedToken.transfer(Guesser, 1);\n            profitzGuess[Guesser] += int(1);\n            winnings[betid] = 1;\n        }\n        unreleased -= betAmount;\n        emit ShowAnswer(odds, randomness%100, betAmount,  betid, Guesser, winnings[betid], randomness);\n        betid++;\n    }\n\n    //Stake and become the house\n    function stakeFor(address forWhom, uint256 amount) public virtual {\n        IERC20 st = stakedToken;\n        require(amount > 0, \"Cannot stake 0\");\n\n        unchecked { \n            uint toAdd = (amount * totalSupply) / (IERC20(address(stakedToken)).balanceOf(address(this)) - unreleased);\n            _balances[forWhom] += toAdd;\n            totalSupply += toAdd;\n            profitz[forWhom] -= int(amount);\n        }\n        \n        require(st.transferFrom(msg.sender, address(this), amount), _transferErrorMessage);\n            \n        emit Staked(forWhom, amount);\n    }\n\n    function maxGuessPerInput(uint guess, uint amt) public view returns(uint){\n        uint x = 0;\n    \n        for(x =0; x<90; x++){\n            if(MaxINForGuess(98-x) < amt){\n                amt = MaxINForGuess(99-x);\n            }\n            if(estOUTPUT(amt, 99 - x) > amt){\n                break;\n            }\n        }\n        return 99 - x;\n    }\n\n    //Output Amount of payout based on odds and bet\n    function estOUTPUT(uint256 betAmount, uint256 odds) public view returns (uint256){\n        uint256 ratioz = (IERC20(address(stakedToken)).balanceOf(address(this)) - unreleased) * 50 / (betAmount * odds);\n        uint256 estOutput = 0;\n            if(ratioz < 30){\n\n            estOutput = (100 * 90 * betAmount)/(odds*100);\n\n            }else if(ratioz < 50){\n\n            estOutput = (100 * 93 * betAmount)/(odds * 100);\n                \n            }else if(ratioz < 100){\n\n            estOutput = (100 * 96 * betAmount)/(odds * 100);\n                \n            }else if(ratioz < 200){\n\n            estOutput = (100 * 98 * betAmount)/(odds * 100);\n            \n            }else if(ratioz < 400){\n\n            estOutput = (100 * 99 * betAmount)/(odds * 100);\n\n            }else if (ratioz < 1000){\n                \n            estOutput = (100 * 995 * betAmount)/(odds * 1000);\n\n            }else {\n                \n            estOutput = (100 * 99 * betAmount)/(odds * 100);\n\n            }\n            \n            return estOutput;\n\n     }\n\n    //Withdrawl Estimator\n    function withEstimator(uint256 amountOut) public view returns (uint256) {\n        uint256 v = (975 * uOut(amountOut) / 1000);\n        return v;\n    }\n    \n    //Withdrawl Estimator\n    function currentForge(address forWhom) public view returns (uint256) {\n        uint256 v = (975 * uOut(balanceOf(forWhom)) / 1000);\n        return v;\n    }\n    \n\n        \n    \n    //Prevents you from withdrawing if large bets in play\n    function perfectWithdraw(uint maxLoss) public {\n    \n         withdraw(balanceOf(msg.sender), maxLoss);\n       \n        \n    }\n\n    function uOut(uint amount)public view returns (uint256 tot){\n    \n        uint256 stakeMinusUnreleased = (IERC20(address(stakedToken)).balanceOf(address(this)) - unreleased);\n        \n        uint256 amt = amount * stakeMinusUnreleased / totalSupply ;\n        \n        \n         tot = amt -  ( amt * penalty() ) / stakeMinusUnreleased;\n\n    return tot;\n    }\n    \n    \n    //2.5% fee on withdrawls back to holders\n    //Withdrawl function for house\n    //maxLoss as low as possible for best payouts.\n    function withdraw(uint256 amount, uint256 maxLoss) public virtual {\n          if(maxLoss<penalty()){\n           return;\n          }\n        \n        require(amount <= _balances[msg.sender], \"withdraw: balance is lower\");\n        \n        uint OutEst = uOut(amount);\n\n        unchecked {\n            _balances[msg.sender] -= amount;\n            totalSupply = totalSupply - amount;\n            profitz[msg.sender] += int(OutEst * 975 / 1000);\n        }\n        \n        require(stakedToken.transfer(address(this), (OutEst * 25 / 1000)));\n        require(stakedToken.transfer(msg.sender, ((OutEst * 975) / 1000)));\n        \n        emit Withdrawn(msg.sender, amount);\n    }    \n\n    function Profit(address user) public view returns(int) {\n        uint256 withdrawable = withEstimator(balanceOf(user));\n        int profit = profitz[user] + int(withdrawable);\n        return profit;\n    }\n\n    function blockNumber() public view returns(uint) {\n        return block.number;\n    }\n}\n\n\n/*\n*\n* MIT License\n* ===========\n*\n* Copyright (c) 2022 Forge\n*\n* Permission is hereby granted, free of charge, to any person obtaining a copy\n* of this software and associated documentation files (the \"Software\"), to deal\n* in the Software without restriction, including without limitation the rights\n* to use, copy, modify, merge, publish, distribute, sublicense, and/or sell\n* copies of the Software, and to permit persons to whom the Software is\n* furnished to do so, subject to the following conditions:\n*\n* The above copyright notice and this permission notice shall be included in all\n* copies or substantial portions of the Software.   \n*\n* THE SOFTWARE IS PROVIDED \"AS IS\", WITHOUT WARRANTY OF ANY KIND, EXPRESS OR\n* IMPLIED, INCLUDING BUT NOT LIMITED TO THE WARRANTIES OF MERCHANTABILITY,\n* FITNESS FOR A PARTICULAR PURPOSE AND NONINFRINGEMENT. IN NO EVENT SHALL THE\n* AUTHORS OR COPYRIGHT HOLDERS BE LIABLE FOR ANY CLAIM, DAMAGES OR OTHER\n* LIABILITY, WHETHER IN AN ACTION OF CONTRACT, TORT OR OTHERWISE, ARISING FROM,\n* OUT OF OR IN CONNECTION WITH THE SOFTWARE OR THE USE OR OTHER DEALINGS IN THE\n*/\n",
  "sourcePath": "contracts/guess.sol",
  "type": "contract"
}