{
  "abi": [
    {
      "inputs": [],
      "stateMutability": "nonpayable",
      "type": "constructor"
    },
    {
      "anonymous": false,
      "inputs": [
        {
          "indexed": false,
          "internalType": "uint256",
          "name": "UsersGuess",
          "type": "uint256"
        },
        {
          "indexed": false,
          "internalType": "uint256",
          "name": "amount",
          "type": "uint256"
        },
        {
          "indexed": true,
          "internalType": "address",
          "name": "user",
          "type": "address"
        },
        {
          "indexed": false,
          "internalType": "uint256",
          "name": "betID",
          "type": "uint256"
        }
      ],
      "name": "GuessNote",
      "type": "event"
    },
    {
      "anonymous": false,
      "inputs": [
        {
          "indexed": false,
          "internalType": "uint256",
          "name": "UsersGuess",
          "type": "uint256"
        },
        {
          "indexed": false,
          "internalType": "uint256",
          "name": "Result",
          "type": "uint256"
        },
        {
          "indexed": false,
          "internalType": "uint256",
          "name": "amountWagered",
          "type": "uint256"
        },
        {
          "indexed": false,
          "internalType": "uint256",
          "name": "betID",
          "type": "uint256"
        },
        {
          "indexed": true,
          "internalType": "address",
          "name": "AddressOfGuesser",
          "type": "address"
        },
        {
          "indexed": false,
          "internalType": "uint256",
          "name": "AmountWon",
          "type": "uint256"
        }
      ],
      "name": "ShowAnswer",
      "type": "event"
    },
    {
      "anonymous": false,
      "inputs": [
        {
          "indexed": true,
          "internalType": "address",
          "name": "user",
          "type": "address"
        },
        {
          "indexed": false,
          "internalType": "uint256",
          "name": "amount",
          "type": "uint256"
        }
      ],
      "name": "Staked",
      "type": "event"
    },
    {
      "anonymous": false,
      "inputs": [
        {
          "indexed": true,
          "internalType": "address",
          "name": "user",
          "type": "address"
        },
        {
          "indexed": false,
          "internalType": "uint256",
          "name": "amount",
          "type": "uint256"
        }
      ],
      "name": "Withdrawn",
      "type": "event"
    },
    {
      "inputs": [
        {
          "internalType": "uint256",
          "name": "guess",
          "type": "uint256"
        }
      ],
      "name": "MaxINForGuess",
      "outputs": [
        {
          "internalType": "uint256",
          "name": "",
          "type": "uint256"
        }
      ],
      "stateMutability": "view",
      "type": "function"
    },
    {
      "inputs": [
        {
          "internalType": "address",
          "name": "account",
          "type": "address"
        }
      ],
      "name": "balanceOf",
      "outputs": [
        {
          "internalType": "uint256",
          "name": "",
          "type": "uint256"
        }
      ],
      "stateMutability": "view",
      "type": "function"
    },
    {
      "inputs": [
        {
          "internalType": "uint256",
          "name": "",
          "type": "uint256"
        }
      ],
      "name": "betAmt",
      "outputs": [
        {
          "internalType": "uint256",
          "name": "",
          "type": "uint256"
        }
      ],
      "stateMutability": "view",
      "type": "function"
    },
    {
      "inputs": [
        {
          "internalType": "uint256",
          "name": "",
          "type": "uint256"
        }
      ],
      "name": "betOdds",
      "outputs": [
        {
          "internalType": "uint256",
          "name": "",
          "type": "uint256"
        }
      ],
      "stateMutability": "view",
      "type": "function"
    },
    {
      "inputs": [
        {
          "internalType": "uint256",
          "name": "",
          "type": "uint256"
        }
      ],
      "name": "betResults",
      "outputs": [
        {
          "internalType": "uint256",
          "name": "",
          "type": "uint256"
        }
      ],
      "stateMutability": "view",
      "type": "function"
    },
    {
      "inputs": [
        {
          "internalType": "uint256",
          "name": "",
          "type": "uint256"
        }
      ],
      "name": "betee",
      "outputs": [
        {
          "internalType": "address",
          "name": "",
          "type": "address"
        }
      ],
      "stateMutability": "view",
      "type": "function"
    },
    {
      "inputs": [],
      "name": "betid",
      "outputs": [
        {
          "internalType": "uint256",
          "name": "",
          "type": "uint256"
        }
      ],
      "stateMutability": "view",
      "type": "function"
    },
    {
      "inputs": [],
      "name": "betidIN",
      "outputs": [
        {
          "internalType": "uint256",
          "name": "",
          "type": "uint256"
        }
      ],
      "stateMutability": "view",
      "type": "function"
    },
    {
      "inputs": [
        {
          "internalType": "uint256",
          "name": "betAmount",
          "type": "uint256"
        },
        {
          "internalType": "uint256",
          "name": "odds",
          "type": "uint256"
        }
      ],
      "name": "estOUTPUT",
      "outputs": [
        {
          "internalType": "uint256",
          "name": "",
          "type": "uint256"
        }
      ],
      "stateMutability": "view",
      "type": "function"
    },
    {
      "inputs": [],
      "name": "getBlank",
      "outputs": [
        {
          "internalType": "bytes32",
          "name": "requestId",
          "type": "bytes32"
        }
      ],
      "stateMutability": "nonpayable",
      "type": "function"
    },
    {
      "inputs": [
        {
          "internalType": "uint256",
          "name": "guess",
          "type": "uint256"
        },
        {
          "internalType": "uint256",
          "name": "amt",
          "type": "uint256"
        }
      ],
      "name": "getRandomNumber",
      "outputs": [
        {
          "internalType": "bytes32",
          "name": "requestId",
          "type": "bytes32"
        }
      ],
      "stateMutability": "nonpayable",
      "type": "function"
    },
    {
      "inputs": [
        {
          "internalType": "uint256",
          "name": "thres",
          "type": "uint256"
        }
      ],
      "name": "perfectWithdraw",
      "outputs": [],
      "stateMutability": "nonpayable",
      "type": "function"
    },
    {
      "inputs": [],
      "name": "randomResult",
      "outputs": [
        {
          "internalType": "uint256",
          "name": "",
          "type": "uint256"
        }
      ],
      "stateMutability": "view",
      "type": "function"
    },
    {
      "inputs": [],
      "name": "ratio",
      "outputs": [
        {
          "internalType": "uint256",
          "name": "",
          "type": "uint256"
        }
      ],
      "stateMutability": "view",
      "type": "function"
    },
    {
      "inputs": [
        {
          "internalType": "bytes32",
          "name": "requestId",
          "type": "bytes32"
        },
        {
          "internalType": "uint256",
          "name": "randomness",
          "type": "uint256"
        }
      ],
      "name": "rawFulfillRandomness",
      "outputs": [],
      "stateMutability": "nonpayable",
      "type": "function"
    },
    {
      "inputs": [
        {
          "internalType": "uint256",
          "name": "",
          "type": "uint256"
        }
      ],
      "name": "score",
      "outputs": [
        {
          "internalType": "uint256",
          "name": "",
          "type": "uint256"
        }
      ],
      "stateMutability": "view",
      "type": "function"
    },
    {
      "inputs": [
        {
          "internalType": "uint256",
          "name": "",
          "type": "uint256"
        }
      ],
      "name": "score2",
      "outputs": [
        {
          "internalType": "uint256",
          "name": "",
          "type": "uint256"
        }
      ],
      "stateMutability": "view",
      "type": "function"
    },
    {
      "inputs": [
        {
          "internalType": "address",
          "name": "forWhom",
          "type": "address"
        },
        {
          "internalType": "uint256",
          "name": "amount",
          "type": "uint256"
        }
      ],
      "name": "stakeFor",
      "outputs": [],
      "stateMutability": "payable",
      "type": "function"
    },
    {
      "inputs": [],
      "name": "stakedToken",
      "outputs": [
        {
          "internalType": "contract IERC20",
          "name": "",
          "type": "address"
        }
      ],
      "stateMutability": "view",
      "type": "function"
    },
    {
      "inputs": [],
      "name": "totalSupply",
      "outputs": [
        {
          "internalType": "uint256",
          "name": "",
          "type": "uint256"
        }
      ],
      "stateMutability": "view",
      "type": "function"
    },
    {
      "inputs": [],
      "name": "unreleased",
      "outputs": [
        {
          "internalType": "uint256",
          "name": "",
          "type": "uint256"
        }
      ],
      "stateMutability": "view",
      "type": "function"
    },
    {
      "inputs": [],
      "name": "wagered",
      "outputs": [
        {
          "internalType": "uint256",
          "name": "",
          "type": "uint256"
        }
      ],
      "stateMutability": "view",
      "type": "function"
    },
    {
      "inputs": [
        {
          "internalType": "uint256",
          "name": "",
          "type": "uint256"
        }
      ],
      "name": "winnings",
      "outputs": [
        {
          "internalType": "uint256",
          "name": "",
          "type": "uint256"
        }
      ],
      "stateMutability": "view",
      "type": "function"
    },
    {
      "inputs": [
        {
          "internalType": "uint256",
          "name": "amountOut",
          "type": "uint256"
        }
      ],
      "name": "withEstimator",
      "outputs": [
        {
          "internalType": "uint256",
          "name": "",
          "type": "uint256"
        }
      ],
      "stateMutability": "view",
      "type": "function"
    },
    {
      "inputs": [
        {
          "internalType": "uint256",
          "name": "amount",
          "type": "uint256"
        }
      ],
      "name": "withdraw",
      "outputs": [],
      "stateMutability": "nonpayable",
      "type": "function"
    }
  ],
  "bytecode": "60c0604052600060038190556004819055600d8190556001600e55601055601280546001600160a01b031916730b72b2ff0e87ff84eff98451163b78408486ee5c17905534801561004f57600080fd5b50738c7382f9d8f56b33781fe506e897a4f1e2d1725560a05273326c977e6efc84e512bb9c30f76e30c160ed06fb6080527f6e75b569a01ef56d18cab6a8e71e6600d6ce853834d4a5748b720d06f878b3a4600155655af3107a400060025560805160a051611add6100fd600039600081816113080152611473015260008181610b9401528181610eb601528181610f5501528181611025015281816110a701526114440152611add6000f3fe6080604052600436106101665760003560e01c80636e68fc0a116100d1578063afcf89aa1161008a578063d63bc59911610064578063d63bc5991461042e578063e2f1cca814610464578063edcbbef814610491578063f03d6672146104be57600080fd5b8063afcf89aa146103a9578063cc7a262e146103c9578063d1730f1f1461040157600080fd5b80636e68fc0a146102da57806370a08231146102fa57806371ca337d14610330578063851c19331461034657806394985ddd1461035c578063984d63cf1461037c57600080fd5b806342619f661161012357806342619f66146102155780634ea97c071461022b578063530d3bc81461024b5780635b692eba146102785780635d57ab281461028d5780636864af0c146102ba57600080fd5b80630d82675e1461016b57806316462ad31461019457806318160ddd146101aa5780632e1a7d4d146101c05780632ee40908146101e25780633a64cfd5146101f5575b600080fd5b34801561017757600080fd5b5061018160045481565b6040519081526020015b60405180910390f35b3480156101a057600080fd5b5061018160035481565b3480156101b657600080fd5b50610181600e5481565b3480156101cc57600080fd5b506101e06101db36600461185f565b6104d4565b005b6101e06101f0366004611894565b61078a565b34801561020157600080fd5b5061018161021036600461185f565b610a48565b34801561022157600080fd5b50610181600c5481565b34801561023757600080fd5b506101e061024636600461185f565b610aef565b34801561025757600080fd5b5061018161026636600461185f565b60056020526000908152604090205481565b34801561028457600080fd5b50610181610b77565b34801561029957600080fd5b506101816102a836600461185f565b600b6020526000908152604090205481565b3480156102c657600080fd5b506101816102d53660046118be565b610c22565b3480156102e657600080fd5b506101816102f53660046118be565b610d94565b34801561030657600080fd5b506101816103153660046118e0565b6001600160a01b031660009081526011602052604090205490565b34801561033c57600080fd5b50610181600f5481565b34801561035257600080fd5b5061018160105481565b34801561036857600080fd5b506101e06103773660046118be565b6112fd565b34801561038857600080fd5b5061018161039736600461185f565b60076020526000908152604090205481565b3480156103b557600080fd5b506101816103c436600461185f565b611383565b3480156103d557600080fd5b506012546103e9906001600160a01b031681565b6040516001600160a01b03909116815260200161018b565b34801561040d57600080fd5b5061018161041c36600461185f565b60086020526000908152604090205481565b34801561043a57600080fd5b506103e961044936600461185f565b600a602052600090815260409020546001600160a01b031681565b34801561047057600080fd5b5061018161047f36600461185f565b60096020526000908152604090205481565b34801561049d57600080fd5b506101816104ac36600461185f565b60066020526000908152604090205481565b3480156104ca57600080fd5b50610181600d5481565b336000908152601160205260409020548111156105385760405162461bcd60e51b815260206004820152601a60248201527f77697468647261773a2062616c616e6365206973206c6f77657200000000000060448201526064015b60405180910390fd5b601254600e54600d546001600160a01b03909216916000919060039061055f906005611911565b6105699190611946565b6012546040516370a0823160e01b81523060048201526001600160a01b03909116906370a0823190602401602060405180830381865afa1580156105b1573d6000803e3d6000fd5b505050506040513d601f19601f820116820180604052508101906105d5919061195a565b6105df9190611973565b6105e99190611946565b6105f39084611911565b6012549091506001600160a01b031663a9059cbb30610613603285611946565b6040516001600160e01b031960e085901b1681526001600160a01b03909216600483015260248201526044016020604051808303816000875af115801561065e573d6000803e3d6000fd5b505050506040513d601f19601f82011682018060405250810190610682919061198a565b61068b57600080fd5b6012546001600160a01b031663a9059cbb3360326106aa856031611911565b6106b49190611946565b6040516001600160e01b031960e085901b1681526001600160a01b03909216600483015260248201526044016020604051808303816000875af11580156106ff573d6000803e3d6000fd5b505050506040513d601f19601f82011682018060405250810190610723919061198a565b61072c57600080fd5b336000818152601160205260409081902080548690039055600e80548690039055517f7084f5476618d8e60b11ef0d7d3f06914655adb8793e28ff7f018d4c76d505d59061077d9086815260200190565b60405180910390a2505050565b6012546001600160a01b031634156107d35760405162461bcd60e51b815260206004820152600c60248201526b0dcdedc5af4cae4de40cae8d60a31b604482015260640161052f565b600082116108145760405162461bcd60e51b815260206004820152600e60248201526d043616e6e6f74207374616b6520360941b604482015260640161052f565b600d546012546040516370a0823160e01b81523060048201526001600160a01b03909116906370a0823190602401602060405180830381865afa15801561085f573d6000803e3d6000fd5b505050506040513d601f19601f82011682018060405250810190610883919061195a565b03600e5483028161089657610896611930565b6001600160a01b0385811660009081526011602052604090819020805494909304909301909155600d5460125492516370a0823160e01b81523060048201529092909116906370a0823190602401602060405180830381865afa158015610901573d6000803e3d6000fd5b505050506040513d601f19601f82011682018060405250810190610925919061195a565b03600e5483028161093857610938611930565b600e80549290910490910190556040516323b872dd60e01b81526001600160a01b038216906323b872dd90610975903390309087906004016119ac565b6020604051808303816000875af1158015610994573d6000803e3d6000fd5b505050506040513d601f19601f820116820180604052508101906109b8919061198a565b6040518060400160405280601c81526020017f7374616b656420746f6b656e207472616e73666572206661696c65640000000081525090610a0c5760405162461bcd60e51b815260040161052f9190611a1d565b50826001600160a01b03167f9e71bc8eea02a63969f509818f2dafb9254532904319f9dbda79b67bd34a5f3d8360405161077d91815260200190565b600d546012546040516370a0823160e01b81523060048201526000926019928592601492916001600160a01b0316906370a0823190602401602060405180830381865afa158015610a9d573d6000803e3d6000fd5b505050506040513d601f19601f82011682018060405250810190610ac1919061195a565b610acb9190611973565b610ad59190611946565b610adf9190611911565b610ae99190611946565b92915050565b80600354600454610b009190611973565b1015610b74576012546040516370a0823160e01b8152336004820152610b74916001600160a01b0316906370a0823190602401602060405180830381865afa158015610b50573d6000803e3d6000fd5b505050506040513d601f19601f820116820180604052508101906101db919061195a565b50565b6002546040516323b872dd60e01b81526000916001600160a01b037f000000000000000000000000000000000000000000000000000000000000000016916323b872dd91610bcb91339130916004016119ac565b6020604051808303816000875af1158015610bea573d6000803e3d6000fd5b505050506040513d601f19601f82011682018060405250810190610c0e919061198a565b50610c1d600154600254611440565b905090565b600d546012546040516370a0823160e01b8152306004820152600092839286926001600160a01b03909116906370a0823190602401602060405180830381865afa158015610c74573d6000803e3d6000fd5b505050506040513d601f19601f82011682018060405250810190610c98919061195a565b610ca29190611973565b610cac9190611946565b905060006014821015610ce157610cc4846064611911565b610cd086612454611911565b610cda9190611946565b9050610d8c565b6032821015610d0157610cf5846064611911565b610cd08661251c611911565b6064821015610d2157610d15846064611911565b610cd086612648611911565b6096821015610d4357610d36846103e8611911565b610cd086620180c4611911565b61012c821015610d6657610d59846103e8611911565b610cd086620182b8611911565b610d72846103e8611911565b610d7f86620184ac611911565b610d899190611946565b90505b949350505050565b600060628310610de65760405162461bcd60e51b815260206004820152601860248201527f4d757374206775657373206c6f776572207468616e2039380000000000000000604482015260640161052f565b6012546040516323b872dd60e01b81526001600160a01b03909116906323b872dd90610e1a903390309087906004016119ac565b6020604051808303816000875af1158015610e39573d6000803e3d6000fd5b505050506040513d601f19601f82011682018060405250810190610e5d919061198a565b610e9e5760405162461bcd60e51b81526020600482015260126024820152715472616e73666572206d75737420776f726b60701b604482015260640161052f565b6040516370a0823160e01b81523060048201526000907f00000000000000000000000000000000000000000000000000000000000000006001600160a01b0316906370a0823190602401602060405180830381865afa158015610f05573d6000803e3d6000fd5b505050506040513d601f19601f82011682018060405250810190610f29919061195a565b9050670de0b6b3a7640000831015610fd6576002546040516323b872dd60e01b81526001600160a01b037f000000000000000000000000000000000000000000000000000000000000000016916323b872dd91610f8d9133913091906004016119ac565b6020604051808303816000875af1158015610fac573d6000803e3d6000fd5b505050506040513d601f19601f82011682018060405250810190610fd0919061198a565b50611124565b6802b5e3af16b1880000831015611062576103e86004541080156110065750600254611003906009611911565b81115b1561105d576002546040516323b872dd60e01b81526001600160a01b037f000000000000000000000000000000000000000000000000000000000000000016916323b872dd91610f8d9133913091906004016119ac565b611124565b605d84116110785760025461100390600b611911565b60025461108690600b611911565b811115611124576002546040516323b872dd60e01b81526001600160a01b037f000000000000000000000000000000000000000000000000000000000000000016916323b872dd916110df9133913091906004016119ac565b6020604051808303816000875af11580156110fe573d6000803e3d6000fd5b505050506040513d601f19601f82011682018060405250810190611122919061198a565b505b600d546012546040516370a0823160e01b8152306004820152601492916001600160a01b0316906370a0823190602401602060405180830381865afa158015611171573d6000803e3d6000fd5b505050506040513d601f19601f82011682018060405250810190611195919061195a565b61119f9190611973565b6111a99190611946565b846111b5856019611911565b6111bf9190611946565b11156112255760405162461bcd60e51b815260206004820152602f60248201527f42616e6b726f6c6c20746f6f206c6f7720666f722074686973206265742c205060448201526e1b19585cd9481b1bddd95c8818995d608a1b606482015260840161052f565b600480546000908152600760209081526040808320889055835483526006825280832087905583548352600a8252918290208054336001600160a01b03199091168117909155925482518881529182018790528183015290517fea3a2986b784b5ff3af1de7908eb0898970dec44692bec64512b80606842eaf69181900360600190a2600480549060006112b883611a30565b919050555082600d60008282546112cf9190611a4b565b9250508190555082601060008282546112e89190611a4b565b92505081905550610d8c600154600254611440565b336001600160a01b037f000000000000000000000000000000000000000000000000000000000000000016146113755760405162461bcd60e51b815260206004820152601f60248201527f4f6e6c7920565246436f6f7264696e61746f722063616e2066756c66696c6c00604482015260640161052f565b61137f82826115b7565b5050565b600080600e546003600d54600561139a9190611911565b6113a49190611946565b6012546040516370a0823160e01b81523060048201526001600160a01b03909116906370a0823190602401602060405180830381865afa1580156113ec573d6000803e3d6000fd5b505050506040513d601f19601f82011682018060405250810190611410919061195a565b61141a9190611973565b6114249190611946565b61142f846062611911565b6114399190611911565b9392505050565b60007f00000000000000000000000000000000000000000000000000000000000000006001600160a01b0316634000aea07f0000000000000000000000000000000000000000000000000000000000000000848660006040516020016114b0929190918252602082015260400190565b6040516020818303038152906040526040518463ffffffff1660e01b81526004016114dd93929190611a63565b6020604051808303816000875af11580156114fc573d6000803e3d6000fd5b505050506040513d601f19601f82011682018060405250810190611520919061198a565b5060008381526020818152604080832054815180840188905280830185905230606082015260808082018390528351808303909101815260a09091019092528151918301919091208684529290915261157a906001611a4b565b6000858152602081815260409182902092909255805180830187905280820184905281518082038301815260609091019091528051910120610d8c565b600454600354106115c6575050565b6004546003541061160e5760405162461bcd60e51b81526020600482015260126024820152714d7573742068617665206e6577206265747360701b604482015260640161052f565b600c8190556003546000908152600860205260409020819055611632606482611a93565b6003805460009081526005602090815260408083209490945591548152600a82528281205460078352838220546006909352929020546001600160a01b039092169181611680606486611a93565b101561172b576116908183610c22565b600380546000908152600b6020526040808220939093556012549154815282902054915163a9059cbb60e01b81526001600160a01b038681166004830152602482019390935291169063a9059cbb906044016020604051808303816000875af1158015611701573d6000803e3d6000fd5b505050506040513d601f19601f82011682018060405250810190611725919061198a565b506117b9565b60125460405163a9059cbb60e01b81526001600160a01b038581166004830152600160248301529091169063a9059cbb906044016020604051808303816000875af115801561177e573d6000803e3d6000fd5b505050506040513d601f19601f820116820180604052508101906117a2919061198a565b506003546000908152600b60205260409020600190555b80600d60008282546117cb9190611973565b90915550506001600160a01b0383167f24b1c86427a74774a014f51a56ea4641e764a82aef418326ecf9e634b78f074b83611807606488611a93565b6003546000818152600b60209081526040918290205482519586529085019390935283018690526060830152608082015260a00160405180910390a26003805490600061185383611a30565b91905055505050505050565b60006020828403121561187157600080fd5b5035919050565b80356001600160a01b038116811461188f57600080fd5b919050565b600080604083850312156118a757600080fd5b6118b083611878565b946020939093013593505050565b600080604083850312156118d157600080fd5b50508035926020909101359150565b6000602082840312156118f257600080fd5b61143982611878565b634e487b7160e01b600052601160045260246000fd5b600081600019048311821515161561192b5761192b6118fb565b500290565b634e487b7160e01b600052601260045260246000fd5b60008261195557611955611930565b500490565b60006020828403121561196c57600080fd5b5051919050565b600082821015611985576119856118fb565b500390565b60006020828403121561199c57600080fd5b8151801515811461143957600080fd5b6001600160a01b039384168152919092166020820152604081019190915260600190565b6000815180845260005b818110156119f6576020818501810151868301820152016119da565b81811115611a08576000602083870101525b50601f01601f19169290920160200192915050565b60208152600061143960208301846119d0565b6000600019821415611a4457611a446118fb565b5060010190565b60008219821115611a5e57611a5e6118fb565b500190565b60018060a01b0384168152826020820152606060408201526000611a8a60608301846119d0565b95945050505050565b600082611aa257611aa2611930565b50069056fea264697066735822122082a9eefcf228023634d2b6d7b8fefc9e58f70673c29a801a1ed07c9a834699bd64736f6c634300080b0033",
  "bytecodeSha1": "811bf00b4427d14eb7a862cb4f4a9a4063a79ed5",
  "compiler": {
    "evm_version": "istanbul",
    "optimizer": {
      "enabled": true,
      "runs": 200
    },
    "version": "0.8.11+commit.d7f03943"
  },
  "contractName": "ForgeGuess",
  "language": "Solidity",
  "natspec": {
    "kind": "dev",
    "methods": {
      "constructor": {
        "notice": "Constructor inherits VRFConsumerBase  Network: Kovan Chainlink VRF Coordinator address: 0xdD3782915140c8f3b190B5D67eAc6dc5760C46E9 LINK token address:                0xa36085F69e2889c224210F603D836748e7dC0088 Key Hash: 0x6c3699283bda56ad74f6b855546325b68d482e983852a7a82979cc4807b641f4"
      },
      "getRandomNumber(uint256,uint256)": {
        "notice": "Requests randomness "
      }
    },
    "version": 1
  },
  "opcodes": "PUSH1 0x80 PUSH1 0x40 MSTORE PUSH1 0x4 CALLDATASIZE LT PUSH2 0x166 JUMPI PUSH1 0x0 CALLDATALOAD PUSH1 0xE0 SHR DUP1 PUSH4 0x6E68FC0A GT PUSH2 0xD1 JUMPI DUP1 PUSH4 0xAFCF89AA GT PUSH2 0x8A JUMPI DUP1 PUSH4 0xD63BC599 GT PUSH2 0x64 JUMPI DUP1 PUSH4 0xD63BC599 EQ PUSH2 0x42E JUMPI DUP1 PUSH4 0xE2F1CCA8 EQ PUSH2 0x464 JUMPI DUP1 PUSH4 0xEDCBBEF8 EQ PUSH2 0x491 JUMPI DUP1 PUSH4 0xF03D6672 EQ PUSH2 0x4BE JUMPI PUSH1 0x0 DUP1 REVERT JUMPDEST DUP1 PUSH4 0xAFCF89AA EQ PUSH2 0x3A9 JUMPI DUP1 PUSH4 0xCC7A262E EQ PUSH2 0x3C9 JUMPI DUP1 PUSH4 0xD1730F1F EQ PUSH2 0x401 JUMPI PUSH1 0x0 DUP1 REVERT JUMPDEST DUP1 PUSH4 0x6E68FC0A EQ PUSH2 0x2DA JUMPI DUP1 PUSH4 0x70A08231 EQ PUSH2 0x2FA JUMPI DUP1 PUSH4 0x71CA337D EQ PUSH2 0x330 JUMPI DUP1 PUSH4 0x851C1933 EQ PUSH2 0x346 JUMPI DUP1 PUSH4 0x94985DDD EQ PUSH2 0x35C JUMPI DUP1 PUSH4 0x984D63CF EQ PUSH2 0x37C JUMPI PUSH1 0x0 DUP1 REVERT JUMPDEST DUP1 PUSH4 0x42619F66 GT PUSH2 0x123 JUMPI DUP1 PUSH4 0x42619F66 EQ PUSH2 0x215 JUMPI DUP1 PUSH4 0x4EA97C07 EQ PUSH2 0x22B JUMPI DUP1 PUSH4 0x530D3BC8 EQ PUSH2 0x24B JUMPI DUP1 PUSH4 0x5B692EBA EQ PUSH2 0x278 JUMPI DUP1 PUSH4 0x5D57AB28 EQ PUSH2 0x28D JUMPI DUP1 PUSH4 0x6864AF0C EQ PUSH2 0x2BA JUMPI PUSH1 0x0 DUP1 REVERT JUMPDEST DUP1 PUSH4 0xD82675E EQ PUSH2 0x16B JUMPI DUP1 PUSH4 0x16462AD3 EQ PUSH2 0x194 JUMPI DUP1 PUSH4 0x18160DDD EQ PUSH2 0x1AA JUMPI DUP1 PUSH4 0x2E1A7D4D EQ PUSH2 0x1C0 JUMPI DUP1 PUSH4 0x2EE40908 EQ PUSH2 0x1E2 JUMPI DUP1 PUSH4 0x3A64CFD5 EQ PUSH2 0x1F5 JUMPI JUMPDEST PUSH1 0x0 DUP1 REVERT JUMPDEST CALLVALUE DUP1 ISZERO PUSH2 0x177 JUMPI PUSH1 0x0 DUP1 REVERT JUMPDEST POP PUSH2 0x181 PUSH1 0x4 SLOAD DUP2 JUMP JUMPDEST PUSH1 0x40 MLOAD SWAP1 DUP2 MSTORE PUSH1 0x20 ADD JUMPDEST PUSH1 0x40 MLOAD DUP1 SWAP2 SUB SWAP1 RETURN JUMPDEST CALLVALUE DUP1 ISZERO PUSH2 0x1A0 JUMPI PUSH1 0x0 DUP1 REVERT JUMPDEST POP PUSH2 0x181 PUSH1 0x3 SLOAD DUP2 JUMP JUMPDEST CALLVALUE DUP1 ISZERO PUSH2 0x1B6 JUMPI PUSH1 0x0 DUP1 REVERT JUMPDEST POP PUSH2 0x181 PUSH1 0xE SLOAD DUP2 JUMP JUMPDEST CALLVALUE DUP1 ISZERO PUSH2 0x1CC JUMPI PUSH1 0x0 DUP1 REVERT JUMPDEST POP PUSH2 0x1E0 PUSH2 0x1DB CALLDATASIZE PUSH1 0x4 PUSH2 0x185F JUMP JUMPDEST PUSH2 0x4D4 JUMP JUMPDEST STOP JUMPDEST PUSH2 0x1E0 PUSH2 0x1F0 CALLDATASIZE PUSH1 0x4 PUSH2 0x1894 JUMP JUMPDEST PUSH2 0x78A JUMP JUMPDEST CALLVALUE DUP1 ISZERO PUSH2 0x201 JUMPI PUSH1 0x0 DUP1 REVERT JUMPDEST POP PUSH2 0x181 PUSH2 0x210 CALLDATASIZE PUSH1 0x4 PUSH2 0x185F JUMP JUMPDEST PUSH2 0xA48 JUMP JUMPDEST CALLVALUE DUP1 ISZERO PUSH2 0x221 JUMPI PUSH1 0x0 DUP1 REVERT JUMPDEST POP PUSH2 0x181 PUSH1 0xC SLOAD DUP2 JUMP JUMPDEST CALLVALUE DUP1 ISZERO PUSH2 0x237 JUMPI PUSH1 0x0 DUP1 REVERT JUMPDEST POP PUSH2 0x1E0 PUSH2 0x246 CALLDATASIZE PUSH1 0x4 PUSH2 0x185F JUMP JUMPDEST PUSH2 0xAEF JUMP JUMPDEST CALLVALUE DUP1 ISZERO PUSH2 0x257 JUMPI PUSH1 0x0 DUP1 REVERT JUMPDEST POP PUSH2 0x181 PUSH2 0x266 CALLDATASIZE PUSH1 0x4 PUSH2 0x185F JUMP JUMPDEST PUSH1 0x5 PUSH1 0x20 MSTORE PUSH1 0x0 SWAP1 DUP2 MSTORE PUSH1 0x40 SWAP1 KECCAK256 SLOAD DUP2 JUMP JUMPDEST CALLVALUE DUP1 ISZERO PUSH2 0x284 JUMPI PUSH1 0x0 DUP1 REVERT JUMPDEST POP PUSH2 0x181 PUSH2 0xB77 JUMP JUMPDEST CALLVALUE DUP1 ISZERO PUSH2 0x299 JUMPI PUSH1 0x0 DUP1 REVERT JUMPDEST POP PUSH2 0x181 PUSH2 0x2A8 CALLDATASIZE PUSH1 0x4 PUSH2 0x185F JUMP JUMPDEST PUSH1 0xB PUSH1 0x20 MSTORE PUSH1 0x0 SWAP1 DUP2 MSTORE PUSH1 0x40 SWAP1 KECCAK256 SLOAD DUP2 JUMP JUMPDEST CALLVALUE DUP1 ISZERO PUSH2 0x2C6 JUMPI PUSH1 0x0 DUP1 REVERT JUMPDEST POP PUSH2 0x181 PUSH2 0x2D5 CALLDATASIZE PUSH1 0x4 PUSH2 0x18BE JUMP JUMPDEST PUSH2 0xC22 JUMP JUMPDEST CALLVALUE DUP1 ISZERO PUSH2 0x2E6 JUMPI PUSH1 0x0 DUP1 REVERT JUMPDEST POP PUSH2 0x181 PUSH2 0x2F5 CALLDATASIZE PUSH1 0x4 PUSH2 0x18BE JUMP JUMPDEST PUSH2 0xD94 JUMP JUMPDEST CALLVALUE DUP1 ISZERO PUSH2 0x306 JUMPI PUSH1 0x0 DUP1 REVERT JUMPDEST POP PUSH2 0x181 PUSH2 0x315 CALLDATASIZE PUSH1 0x4 PUSH2 0x18E0 JUMP JUMPDEST PUSH1 0x1 PUSH1 0x1 PUSH1 0xA0 SHL SUB AND PUSH1 0x0 SWAP1 DUP2 MSTORE PUSH1 0x11 PUSH1 0x20 MSTORE PUSH1 0x40 SWAP1 KECCAK256 SLOAD SWAP1 JUMP JUMPDEST CALLVALUE DUP1 ISZERO PUSH2 0x33C JUMPI PUSH1 0x0 DUP1 REVERT JUMPDEST POP PUSH2 0x181 PUSH1 0xF SLOAD DUP2 JUMP JUMPDEST CALLVALUE DUP1 ISZERO PUSH2 0x352 JUMPI PUSH1 0x0 DUP1 REVERT JUMPDEST POP PUSH2 0x181 PUSH1 0x10 SLOAD DUP2 JUMP JUMPDEST CALLVALUE DUP1 ISZERO PUSH2 0x368 JUMPI PUSH1 0x0 DUP1 REVERT JUMPDEST POP PUSH2 0x1E0 PUSH2 0x377 CALLDATASIZE PUSH1 0x4 PUSH2 0x18BE JUMP JUMPDEST PUSH2 0x12FD JUMP JUMPDEST CALLVALUE DUP1 ISZERO PUSH2 0x388 JUMPI PUSH1 0x0 DUP1 REVERT JUMPDEST POP PUSH2 0x181 PUSH2 0x397 CALLDATASIZE PUSH1 0x4 PUSH2 0x185F JUMP JUMPDEST PUSH1 0x7 PUSH1 0x20 MSTORE PUSH1 0x0 SWAP1 DUP2 MSTORE PUSH1 0x40 SWAP1 KECCAK256 SLOAD DUP2 JUMP JUMPDEST CALLVALUE DUP1 ISZERO PUSH2 0x3B5 JUMPI PUSH1 0x0 DUP1 REVERT JUMPDEST POP PUSH2 0x181 PUSH2 0x3C4 CALLDATASIZE PUSH1 0x4 PUSH2 0x185F JUMP JUMPDEST PUSH2 0x1383 JUMP JUMPDEST CALLVALUE DUP1 ISZERO PUSH2 0x3D5 JUMPI PUSH1 0x0 DUP1 REVERT JUMPDEST POP PUSH1 0x12 SLOAD PUSH2 0x3E9 SWAP1 PUSH1 0x1 PUSH1 0x1 PUSH1 0xA0 SHL SUB AND DUP2 JUMP JUMPDEST PUSH1 0x40 MLOAD PUSH1 0x1 PUSH1 0x1 PUSH1 0xA0 SHL SUB SWAP1 SWAP2 AND DUP2 MSTORE PUSH1 0x20 ADD PUSH2 0x18B JUMP JUMPDEST CALLVALUE DUP1 ISZERO PUSH2 0x40D JUMPI PUSH1 0x0 DUP1 REVERT JUMPDEST POP PUSH2 0x181 PUSH2 0x41C CALLDATASIZE PUSH1 0x4 PUSH2 0x185F JUMP JUMPDEST PUSH1 0x8 PUSH1 0x20 MSTORE PUSH1 0x0 SWAP1 DUP2 MSTORE PUSH1 0x40 SWAP1 KECCAK256 SLOAD DUP2 JUMP JUMPDEST CALLVALUE DUP1 ISZERO PUSH2 0x43A JUMPI PUSH1 0x0 DUP1 REVERT JUMPDEST POP PUSH2 0x3E9 PUSH2 0x449 CALLDATASIZE PUSH1 0x4 PUSH2 0x185F JUMP JUMPDEST PUSH1 0xA PUSH1 0x20 MSTORE PUSH1 0x0 SWAP1 DUP2 MSTORE PUSH1 0x40 SWAP1 KECCAK256 SLOAD PUSH1 0x1 PUSH1 0x1 PUSH1 0xA0 SHL SUB AND DUP2 JUMP JUMPDEST CALLVALUE DUP1 ISZERO PUSH2 0x470 JUMPI PUSH1 0x0 DUP1 REVERT JUMPDEST POP PUSH2 0x181 PUSH2 0x47F CALLDATASIZE PUSH1 0x4 PUSH2 0x185F JUMP JUMPDEST PUSH1 0x9 PUSH1 0x20 MSTORE PUSH1 0x0 SWAP1 DUP2 MSTORE PUSH1 0x40 SWAP1 KECCAK256 SLOAD DUP2 JUMP JUMPDEST CALLVALUE DUP1 ISZERO PUSH2 0x49D JUMPI PUSH1 0x0 DUP1 REVERT JUMPDEST POP PUSH2 0x181 PUSH2 0x4AC CALLDATASIZE PUSH1 0x4 PUSH2 0x185F JUMP JUMPDEST PUSH1 0x6 PUSH1 0x20 MSTORE PUSH1 0x0 SWAP1 DUP2 MSTORE PUSH1 0x40 SWAP1 KECCAK256 SLOAD DUP2 JUMP JUMPDEST CALLVALUE DUP1 ISZERO PUSH2 0x4CA JUMPI PUSH1 0x0 DUP1 REVERT JUMPDEST POP PUSH2 0x181 PUSH1 0xD SLOAD DUP2 JUMP JUMPDEST CALLER PUSH1 0x0 SWAP1 DUP2 MSTORE PUSH1 0x11 PUSH1 0x20 MSTORE PUSH1 0x40 SWAP1 KECCAK256 SLOAD DUP2 GT ISZERO PUSH2 0x538 JUMPI PUSH1 0x40 MLOAD PUSH3 0x461BCD PUSH1 0xE5 SHL DUP2 MSTORE PUSH1 0x20 PUSH1 0x4 DUP3 ADD MSTORE PUSH1 0x1A PUSH1 0x24 DUP3 ADD MSTORE PUSH32 0x77697468647261773A2062616C616E6365206973206C6F776572000000000000 PUSH1 0x44 DUP3 ADD MSTORE PUSH1 0x64 ADD JUMPDEST PUSH1 0x40 MLOAD DUP1 SWAP2 SUB SWAP1 REVERT JUMPDEST PUSH1 0x12 SLOAD PUSH1 0xE SLOAD PUSH1 0xD SLOAD PUSH1 0x1 PUSH1 0x1 PUSH1 0xA0 SHL SUB SWAP1 SWAP3 AND SWAP2 PUSH1 0x0 SWAP2 SWAP1 PUSH1 0x3 SWAP1 PUSH2 0x55F SWAP1 PUSH1 0x5 PUSH2 0x1911 JUMP JUMPDEST PUSH2 0x569 SWAP2 SWAP1 PUSH2 0x1946 JUMP JUMPDEST PUSH1 0x12 SLOAD PUSH1 0x40 MLOAD PUSH4 0x70A08231 PUSH1 0xE0 SHL DUP2 MSTORE ADDRESS PUSH1 0x4 DUP3 ADD MSTORE PUSH1 0x1 PUSH1 0x1 PUSH1 0xA0 SHL SUB SWAP1 SWAP2 AND SWAP1 PUSH4 0x70A08231 SWAP1 PUSH1 0x24 ADD PUSH1 0x20 PUSH1 0x40 MLOAD DUP1 DUP4 SUB DUP2 DUP7 GAS STATICCALL ISZERO DUP1 ISZERO PUSH2 0x5B1 JUMPI RETURNDATASIZE PUSH1 0x0 DUP1 RETURNDATACOPY RETURNDATASIZE PUSH1 0x0 REVERT JUMPDEST POP POP POP POP PUSH1 0x40 MLOAD RETURNDATASIZE PUSH1 0x1F NOT PUSH1 0x1F DUP3 ADD AND DUP3 ADD DUP1 PUSH1 0x40 MSTORE POP DUP2 ADD SWAP1 PUSH2 0x5D5 SWAP2 SWAP1 PUSH2 0x195A JUMP JUMPDEST PUSH2 0x5DF SWAP2 SWAP1 PUSH2 0x1973 JUMP JUMPDEST PUSH2 0x5E9 SWAP2 SWAP1 PUSH2 0x1946 JUMP JUMPDEST PUSH2 0x5F3 SWAP1 DUP5 PUSH2 0x1911 JUMP JUMPDEST PUSH1 0x12 SLOAD SWAP1 SWAP2 POP PUSH1 0x1 PUSH1 0x1 PUSH1 0xA0 SHL SUB AND PUSH4 0xA9059CBB ADDRESS PUSH2 0x613 PUSH1 0x32 DUP6 PUSH2 0x1946 JUMP JUMPDEST PUSH1 0x40 MLOAD PUSH1 0x1 PUSH1 0x1 PUSH1 0xE0 SHL SUB NOT PUSH1 0xE0 DUP6 SWAP1 SHL AND DUP2 MSTORE PUSH1 0x1 PUSH1 0x1 PUSH1 0xA0 SHL SUB SWAP1 SWAP3 AND PUSH1 0x4 DUP4 ADD MSTORE PUSH1 0x24 DUP3 ADD MSTORE PUSH1 0x44 ADD PUSH1 0x20 PUSH1 0x40 MLOAD DUP1 DUP4 SUB DUP2 PUSH1 0x0 DUP8 GAS CALL ISZERO DUP1 ISZERO PUSH2 0x65E JUMPI RETURNDATASIZE PUSH1 0x0 DUP1 RETURNDATACOPY RETURNDATASIZE PUSH1 0x0 REVERT JUMPDEST POP POP POP POP PUSH1 0x40 MLOAD RETURNDATASIZE PUSH1 0x1F NOT PUSH1 0x1F DUP3 ADD AND DUP3 ADD DUP1 PUSH1 0x40 MSTORE POP DUP2 ADD SWAP1 PUSH2 0x682 SWAP2 SWAP1 PUSH2 0x198A JUMP JUMPDEST PUSH2 0x68B JUMPI PUSH1 0x0 DUP1 REVERT JUMPDEST PUSH1 0x12 SLOAD PUSH1 0x1 PUSH1 0x1 PUSH1 0xA0 SHL SUB AND PUSH4 0xA9059CBB CALLER PUSH1 0x32 PUSH2 0x6AA DUP6 PUSH1 0x31 PUSH2 0x1911 JUMP JUMPDEST PUSH2 0x6B4 SWAP2 SWAP1 PUSH2 0x1946 JUMP JUMPDEST PUSH1 0x40 MLOAD PUSH1 0x1 PUSH1 0x1 PUSH1 0xE0 SHL SUB NOT PUSH1 0xE0 DUP6 SWAP1 SHL AND DUP2 MSTORE PUSH1 0x1 PUSH1 0x1 PUSH1 0xA0 SHL SUB SWAP1 SWAP3 AND PUSH1 0x4 DUP4 ADD MSTORE PUSH1 0x24 DUP3 ADD MSTORE PUSH1 0x44 ADD PUSH1 0x20 PUSH1 0x40 MLOAD DUP1 DUP4 SUB DUP2 PUSH1 0x0 DUP8 GAS CALL ISZERO DUP1 ISZERO PUSH2 0x6FF JUMPI RETURNDATASIZE PUSH1 0x0 DUP1 RETURNDATACOPY RETURNDATASIZE PUSH1 0x0 REVERT JUMPDEST POP POP POP POP PUSH1 0x40 MLOAD RETURNDATASIZE PUSH1 0x1F NOT PUSH1 0x1F DUP3 ADD AND DUP3 ADD DUP1 PUSH1 0x40 MSTORE POP DUP2 ADD SWAP1 PUSH2 0x723 SWAP2 SWAP1 PUSH2 0x198A JUMP JUMPDEST PUSH2 0x72C JUMPI PUSH1 0x0 DUP1 REVERT JUMPDEST CALLER PUSH1 0x0 DUP2 DUP2 MSTORE PUSH1 0x11 PUSH1 0x20 MSTORE PUSH1 0x40 SWAP1 DUP2 SWAP1 KECCAK256 DUP1 SLOAD DUP7 SWAP1 SUB SWAP1 SSTORE PUSH1 0xE DUP1 SLOAD DUP7 SWAP1 SUB SWAP1 SSTORE MLOAD PUSH32 0x7084F5476618D8E60B11EF0D7D3F06914655ADB8793E28FF7F018D4C76D505D5 SWAP1 PUSH2 0x77D SWAP1 DUP7 DUP2 MSTORE PUSH1 0x20 ADD SWAP1 JUMP JUMPDEST PUSH1 0x40 MLOAD DUP1 SWAP2 SUB SWAP1 LOG2 POP POP POP JUMP JUMPDEST PUSH1 0x12 SLOAD PUSH1 0x1 PUSH1 0x1 PUSH1 0xA0 SHL SUB AND CALLVALUE ISZERO PUSH2 0x7D3 JUMPI PUSH1 0x40 MLOAD PUSH3 0x461BCD PUSH1 0xE5 SHL DUP2 MSTORE PUSH1 0x20 PUSH1 0x4 DUP3 ADD MSTORE PUSH1 0xC PUSH1 0x24 DUP3 ADD MSTORE PUSH12 0xDCDEDC5AF4CAE4DE40CAE8D PUSH1 0xA3 SHL PUSH1 0x44 DUP3 ADD MSTORE PUSH1 0x64 ADD PUSH2 0x52F JUMP JUMPDEST PUSH1 0x0 DUP3 GT PUSH2 0x814 JUMPI PUSH1 0x40 MLOAD PUSH3 0x461BCD PUSH1 0xE5 SHL DUP2 MSTORE PUSH1 0x20 PUSH1 0x4 DUP3 ADD MSTORE PUSH1 0xE PUSH1 0x24 DUP3 ADD MSTORE PUSH14 0x43616E6E6F74207374616B65203 PUSH1 0x94 SHL PUSH1 0x44 DUP3 ADD MSTORE PUSH1 0x64 ADD PUSH2 0x52F JUMP JUMPDEST PUSH1 0xD SLOAD PUSH1 0x12 SLOAD PUSH1 0x40 MLOAD PUSH4 0x70A08231 PUSH1 0xE0 SHL DUP2 MSTORE ADDRESS PUSH1 0x4 DUP3 ADD MSTORE PUSH1 0x1 PUSH1 0x1 PUSH1 0xA0 SHL SUB SWAP1 SWAP2 AND SWAP1 PUSH4 0x70A08231 SWAP1 PUSH1 0x24 ADD PUSH1 0x20 PUSH1 0x40 MLOAD DUP1 DUP4 SUB DUP2 DUP7 GAS STATICCALL ISZERO DUP1 ISZERO PUSH2 0x85F JUMPI RETURNDATASIZE PUSH1 0x0 DUP1 RETURNDATACOPY RETURNDATASIZE PUSH1 0x0 REVERT JUMPDEST POP POP POP POP PUSH1 0x40 MLOAD RETURNDATASIZE PUSH1 0x1F NOT PUSH1 0x1F DUP3 ADD AND DUP3 ADD DUP1 PUSH1 0x40 MSTORE POP DUP2 ADD SWAP1 PUSH2 0x883 SWAP2 SWAP1 PUSH2 0x195A JUMP JUMPDEST SUB PUSH1 0xE SLOAD DUP4 MUL DUP2 PUSH2 0x896 JUMPI PUSH2 0x896 PUSH2 0x1930 JUMP JUMPDEST PUSH1 0x1 PUSH1 0x1 PUSH1 0xA0 SHL SUB DUP6 DUP2 AND PUSH1 0x0 SWAP1 DUP2 MSTORE PUSH1 0x11 PUSH1 0x20 MSTORE PUSH1 0x40 SWAP1 DUP2 SWAP1 KECCAK256 DUP1 SLOAD SWAP5 SWAP1 SWAP4 DIV SWAP1 SWAP4 ADD SWAP1 SWAP2 SSTORE PUSH1 0xD SLOAD PUSH1 0x12 SLOAD SWAP3 MLOAD PUSH4 0x70A08231 PUSH1 0xE0 SHL DUP2 MSTORE ADDRESS PUSH1 0x4 DUP3 ADD MSTORE SWAP1 SWAP3 SWAP1 SWAP2 AND SWAP1 PUSH4 0x70A08231 SWAP1 PUSH1 0x24 ADD PUSH1 0x20 PUSH1 0x40 MLOAD DUP1 DUP4 SUB DUP2 DUP7 GAS STATICCALL ISZERO DUP1 ISZERO PUSH2 0x901 JUMPI RETURNDATASIZE PUSH1 0x0 DUP1 RETURNDATACOPY RETURNDATASIZE PUSH1 0x0 REVERT JUMPDEST POP POP POP POP PUSH1 0x40 MLOAD RETURNDATASIZE PUSH1 0x1F NOT PUSH1 0x1F DUP3 ADD AND DUP3 ADD DUP1 PUSH1 0x40 MSTORE POP DUP2 ADD SWAP1 PUSH2 0x925 SWAP2 SWAP1 PUSH2 0x195A JUMP JUMPDEST SUB PUSH1 0xE SLOAD DUP4 MUL DUP2 PUSH2 0x938 JUMPI PUSH2 0x938 PUSH2 0x1930 JUMP JUMPDEST PUSH1 0xE DUP1 SLOAD SWAP3 SWAP1 SWAP2 DIV SWAP1 SWAP2 ADD SWAP1 SSTORE PUSH1 0x40 MLOAD PUSH4 0x23B872DD PUSH1 0xE0 SHL DUP2 MSTORE PUSH1 0x1 PUSH1 0x1 PUSH1 0xA0 SHL SUB DUP3 AND SWAP1 PUSH4 0x23B872DD SWAP1 PUSH2 0x975 SWAP1 CALLER SWAP1 ADDRESS SWAP1 DUP8 SWAP1 PUSH1 0x4 ADD PUSH2 0x19AC JUMP JUMPDEST PUSH1 0x20 PUSH1 0x40 MLOAD DUP1 DUP4 SUB DUP2 PUSH1 0x0 DUP8 GAS CALL ISZERO DUP1 ISZERO PUSH2 0x994 JUMPI RETURNDATASIZE PUSH1 0x0 DUP1 RETURNDATACOPY RETURNDATASIZE PUSH1 0x0 REVERT JUMPDEST POP POP POP POP PUSH1 0x40 MLOAD RETURNDATASIZE PUSH1 0x1F NOT PUSH1 0x1F DUP3 ADD AND DUP3 ADD DUP1 PUSH1 0x40 MSTORE POP DUP2 ADD SWAP1 PUSH2 0x9B8 SWAP2 SWAP1 PUSH2 0x198A JUMP JUMPDEST PUSH1 0x40 MLOAD DUP1 PUSH1 0x40 ADD PUSH1 0x40 MSTORE DUP1 PUSH1 0x1C DUP2 MSTORE PUSH1 0x20 ADD PUSH32 0x7374616B656420746F6B656E207472616E73666572206661696C656400000000 DUP2 MSTORE POP SWAP1 PUSH2 0xA0C JUMPI PUSH1 0x40 MLOAD PUSH3 0x461BCD PUSH1 0xE5 SHL DUP2 MSTORE PUSH1 0x4 ADD PUSH2 0x52F SWAP2 SWAP1 PUSH2 0x1A1D JUMP JUMPDEST POP DUP3 PUSH1 0x1 PUSH1 0x1 PUSH1 0xA0 SHL SUB AND PUSH32 0x9E71BC8EEA02A63969F509818F2DAFB9254532904319F9DBDA79B67BD34A5F3D DUP4 PUSH1 0x40 MLOAD PUSH2 0x77D SWAP2 DUP2 MSTORE PUSH1 0x20 ADD SWAP1 JUMP JUMPDEST PUSH1 0xD SLOAD PUSH1 0x12 SLOAD PUSH1 0x40 MLOAD PUSH4 0x70A08231 PUSH1 0xE0 SHL DUP2 MSTORE ADDRESS PUSH1 0x4 DUP3 ADD MSTORE PUSH1 0x0 SWAP3 PUSH1 0x19 SWAP3 DUP6 SWAP3 PUSH1 0x14 SWAP3 SWAP2 PUSH1 0x1 PUSH1 0x1 PUSH1 0xA0 SHL SUB AND SWAP1 PUSH4 0x70A08231 SWAP1 PUSH1 0x24 ADD PUSH1 0x20 PUSH1 0x40 MLOAD DUP1 DUP4 SUB DUP2 DUP7 GAS STATICCALL ISZERO DUP1 ISZERO PUSH2 0xA9D JUMPI RETURNDATASIZE PUSH1 0x0 DUP1 RETURNDATACOPY RETURNDATASIZE PUSH1 0x0 REVERT JUMPDEST POP POP POP POP PUSH1 0x40 MLOAD RETURNDATASIZE PUSH1 0x1F NOT PUSH1 0x1F DUP3 ADD AND DUP3 ADD DUP1 PUSH1 0x40 MSTORE POP DUP2 ADD SWAP1 PUSH2 0xAC1 SWAP2 SWAP1 PUSH2 0x195A JUMP JUMPDEST PUSH2 0xACB SWAP2 SWAP1 PUSH2 0x1973 JUMP JUMPDEST PUSH2 0xAD5 SWAP2 SWAP1 PUSH2 0x1946 JUMP JUMPDEST PUSH2 0xADF SWAP2 SWAP1 PUSH2 0x1911 JUMP JUMPDEST PUSH2 0xAE9 SWAP2 SWAP1 PUSH2 0x1946 JUMP JUMPDEST SWAP3 SWAP2 POP POP JUMP JUMPDEST DUP1 PUSH1 0x3 SLOAD PUSH1 0x4 SLOAD PUSH2 0xB00 SWAP2 SWAP1 PUSH2 0x1973 JUMP JUMPDEST LT ISZERO PUSH2 0xB74 JUMPI PUSH1 0x12 SLOAD PUSH1 0x40 MLOAD PUSH4 0x70A08231 PUSH1 0xE0 SHL DUP2 MSTORE CALLER PUSH1 0x4 DUP3 ADD MSTORE PUSH2 0xB74 SWAP2 PUSH1 0x1 PUSH1 0x1 PUSH1 0xA0 SHL SUB AND SWAP1 PUSH4 0x70A08231 SWAP1 PUSH1 0x24 ADD PUSH1 0x20 PUSH1 0x40 MLOAD DUP1 DUP4 SUB DUP2 DUP7 GAS STATICCALL ISZERO DUP1 ISZERO PUSH2 0xB50 JUMPI RETURNDATASIZE PUSH1 0x0 DUP1 RETURNDATACOPY RETURNDATASIZE PUSH1 0x0 REVERT JUMPDEST POP POP POP POP PUSH1 0x40 MLOAD RETURNDATASIZE PUSH1 0x1F NOT PUSH1 0x1F DUP3 ADD AND DUP3 ADD DUP1 PUSH1 0x40 MSTORE POP DUP2 ADD SWAP1 PUSH2 0x1DB SWAP2 SWAP1 PUSH2 0x195A JUMP JUMPDEST POP JUMP JUMPDEST PUSH1 0x2 SLOAD PUSH1 0x40 MLOAD PUSH4 0x23B872DD PUSH1 0xE0 SHL DUP2 MSTORE PUSH1 0x0 SWAP2 PUSH1 0x1 PUSH1 0x1 PUSH1 0xA0 SHL SUB PUSH32 0x0 AND SWAP2 PUSH4 0x23B872DD SWAP2 PUSH2 0xBCB SWAP2 CALLER SWAP2 ADDRESS SWAP2 PUSH1 0x4 ADD PUSH2 0x19AC JUMP JUMPDEST PUSH1 0x20 PUSH1 0x40 MLOAD DUP1 DUP4 SUB DUP2 PUSH1 0x0 DUP8 GAS CALL ISZERO DUP1 ISZERO PUSH2 0xBEA JUMPI RETURNDATASIZE PUSH1 0x0 DUP1 RETURNDATACOPY RETURNDATASIZE PUSH1 0x0 REVERT JUMPDEST POP POP POP POP PUSH1 0x40 MLOAD RETURNDATASIZE PUSH1 0x1F NOT PUSH1 0x1F DUP3 ADD AND DUP3 ADD DUP1 PUSH1 0x40 MSTORE POP DUP2 ADD SWAP1 PUSH2 0xC0E SWAP2 SWAP1 PUSH2 0x198A JUMP JUMPDEST POP PUSH2 0xC1D PUSH1 0x1 SLOAD PUSH1 0x2 SLOAD PUSH2 0x1440 JUMP JUMPDEST SWAP1 POP SWAP1 JUMP JUMPDEST PUSH1 0xD SLOAD PUSH1 0x12 SLOAD PUSH1 0x40 MLOAD PUSH4 0x70A08231 PUSH1 0xE0 SHL DUP2 MSTORE ADDRESS PUSH1 0x4 DUP3 ADD MSTORE PUSH1 0x0 SWAP3 DUP4 SWAP3 DUP7 SWAP3 PUSH1 0x1 PUSH1 0x1 PUSH1 0xA0 SHL SUB SWAP1 SWAP2 AND SWAP1 PUSH4 0x70A08231 SWAP1 PUSH1 0x24 ADD PUSH1 0x20 PUSH1 0x40 MLOAD DUP1 DUP4 SUB DUP2 DUP7 GAS STATICCALL ISZERO DUP1 ISZERO PUSH2 0xC74 JUMPI RETURNDATASIZE PUSH1 0x0 DUP1 RETURNDATACOPY RETURNDATASIZE PUSH1 0x0 REVERT JUMPDEST POP POP POP POP PUSH1 0x40 MLOAD RETURNDATASIZE PUSH1 0x1F NOT PUSH1 0x1F DUP3 ADD AND DUP3 ADD DUP1 PUSH1 0x40 MSTORE POP DUP2 ADD SWAP1 PUSH2 0xC98 SWAP2 SWAP1 PUSH2 0x195A JUMP JUMPDEST PUSH2 0xCA2 SWAP2 SWAP1 PUSH2 0x1973 JUMP JUMPDEST PUSH2 0xCAC SWAP2 SWAP1 PUSH2 0x1946 JUMP JUMPDEST SWAP1 POP PUSH1 0x0 PUSH1 0x14 DUP3 LT ISZERO PUSH2 0xCE1 JUMPI PUSH2 0xCC4 DUP5 PUSH1 0x64 PUSH2 0x1911 JUMP JUMPDEST PUSH2 0xCD0 DUP7 PUSH2 0x2454 PUSH2 0x1911 JUMP JUMPDEST PUSH2 0xCDA SWAP2 SWAP1 PUSH2 0x1946 JUMP JUMPDEST SWAP1 POP PUSH2 0xD8C JUMP JUMPDEST PUSH1 0x32 DUP3 LT ISZERO PUSH2 0xD01 JUMPI PUSH2 0xCF5 DUP5 PUSH1 0x64 PUSH2 0x1911 JUMP JUMPDEST PUSH2 0xCD0 DUP7 PUSH2 0x251C PUSH2 0x1911 JUMP JUMPDEST PUSH1 0x64 DUP3 LT ISZERO PUSH2 0xD21 JUMPI PUSH2 0xD15 DUP5 PUSH1 0x64 PUSH2 0x1911 JUMP JUMPDEST PUSH2 0xCD0 DUP7 PUSH2 0x2648 PUSH2 0x1911 JUMP JUMPDEST PUSH1 0x96 DUP3 LT ISZERO PUSH2 0xD43 JUMPI PUSH2 0xD36 DUP5 PUSH2 0x3E8 PUSH2 0x1911 JUMP JUMPDEST PUSH2 0xCD0 DUP7 PUSH3 0x180C4 PUSH2 0x1911 JUMP JUMPDEST PUSH2 0x12C DUP3 LT ISZERO PUSH2 0xD66 JUMPI PUSH2 0xD59 DUP5 PUSH2 0x3E8 PUSH2 0x1911 JUMP JUMPDEST PUSH2 0xCD0 DUP7 PUSH3 0x182B8 PUSH2 0x1911 JUMP JUMPDEST PUSH2 0xD72 DUP5 PUSH2 0x3E8 PUSH2 0x1911 JUMP JUMPDEST PUSH2 0xD7F DUP7 PUSH3 0x184AC PUSH2 0x1911 JUMP JUMPDEST PUSH2 0xD89 SWAP2 SWAP1 PUSH2 0x1946 JUMP JUMPDEST SWAP1 POP JUMPDEST SWAP5 SWAP4 POP POP POP POP JUMP JUMPDEST PUSH1 0x0 PUSH1 0x62 DUP4 LT PUSH2 0xDE6 JUMPI PUSH1 0x40 MLOAD PUSH3 0x461BCD PUSH1 0xE5 SHL DUP2 MSTORE PUSH1 0x20 PUSH1 0x4 DUP3 ADD MSTORE PUSH1 0x18 PUSH1 0x24 DUP3 ADD MSTORE PUSH32 0x4D757374206775657373206C6F776572207468616E2039380000000000000000 PUSH1 0x44 DUP3 ADD MSTORE PUSH1 0x64 ADD PUSH2 0x52F JUMP JUMPDEST PUSH1 0x12 SLOAD PUSH1 0x40 MLOAD PUSH4 0x23B872DD PUSH1 0xE0 SHL DUP2 MSTORE PUSH1 0x1 PUSH1 0x1 PUSH1 0xA0 SHL SUB SWAP1 SWAP2 AND SWAP1 PUSH4 0x23B872DD SWAP1 PUSH2 0xE1A SWAP1 CALLER SWAP1 ADDRESS SWAP1 DUP8 SWAP1 PUSH1 0x4 ADD PUSH2 0x19AC JUMP JUMPDEST PUSH1 0x20 PUSH1 0x40 MLOAD DUP1 DUP4 SUB DUP2 PUSH1 0x0 DUP8 GAS CALL ISZERO DUP1 ISZERO PUSH2 0xE39 JUMPI RETURNDATASIZE PUSH1 0x0 DUP1 RETURNDATACOPY RETURNDATASIZE PUSH1 0x0 REVERT JUMPDEST POP POP POP POP PUSH1 0x40 MLOAD RETURNDATASIZE PUSH1 0x1F NOT PUSH1 0x1F DUP3 ADD AND DUP3 ADD DUP1 PUSH1 0x40 MSTORE POP DUP2 ADD SWAP1 PUSH2 0xE5D SWAP2 SWAP1 PUSH2 0x198A JUMP JUMPDEST PUSH2 0xE9E JUMPI PUSH1 0x40 MLOAD PUSH3 0x461BCD PUSH1 0xE5 SHL DUP2 MSTORE PUSH1 0x20 PUSH1 0x4 DUP3 ADD MSTORE PUSH1 0x12 PUSH1 0x24 DUP3 ADD MSTORE PUSH18 0x5472616E73666572206D75737420776F726B PUSH1 0x70 SHL PUSH1 0x44 DUP3 ADD MSTORE PUSH1 0x64 ADD PUSH2 0x52F JUMP JUMPDEST PUSH1 0x40 MLOAD PUSH4 0x70A08231 PUSH1 0xE0 SHL DUP2 MSTORE ADDRESS PUSH1 0x4 DUP3 ADD MSTORE PUSH1 0x0 SWAP1 PUSH32 0x0 PUSH1 0x1 PUSH1 0x1 PUSH1 0xA0 SHL SUB AND SWAP1 PUSH4 0x70A08231 SWAP1 PUSH1 0x24 ADD PUSH1 0x20 PUSH1 0x40 MLOAD DUP1 DUP4 SUB DUP2 DUP7 GAS STATICCALL ISZERO DUP1 ISZERO PUSH2 0xF05 JUMPI RETURNDATASIZE PUSH1 0x0 DUP1 RETURNDATACOPY RETURNDATASIZE PUSH1 0x0 REVERT JUMPDEST POP POP POP POP PUSH1 0x40 MLOAD RETURNDATASIZE PUSH1 0x1F NOT PUSH1 0x1F DUP3 ADD AND DUP3 ADD DUP1 PUSH1 0x40 MSTORE POP DUP2 ADD SWAP1 PUSH2 0xF29 SWAP2 SWAP1 PUSH2 0x195A JUMP JUMPDEST SWAP1 POP PUSH8 0xDE0B6B3A7640000 DUP4 LT ISZERO PUSH2 0xFD6 JUMPI PUSH1 0x2 SLOAD PUSH1 0x40 MLOAD PUSH4 0x23B872DD PUSH1 0xE0 SHL DUP2 MSTORE PUSH1 0x1 PUSH1 0x1 PUSH1 0xA0 SHL SUB PUSH32 0x0 AND SWAP2 PUSH4 0x23B872DD SWAP2 PUSH2 0xF8D SWAP2 CALLER SWAP2 ADDRESS SWAP2 SWAP1 PUSH1 0x4 ADD PUSH2 0x19AC JUMP JUMPDEST PUSH1 0x20 PUSH1 0x40 MLOAD DUP1 DUP4 SUB DUP2 PUSH1 0x0 DUP8 GAS CALL ISZERO DUP1 ISZERO PUSH2 0xFAC JUMPI RETURNDATASIZE PUSH1 0x0 DUP1 RETURNDATACOPY RETURNDATASIZE PUSH1 0x0 REVERT JUMPDEST POP POP POP POP PUSH1 0x40 MLOAD RETURNDATASIZE PUSH1 0x1F NOT PUSH1 0x1F DUP3 ADD AND DUP3 ADD DUP1 PUSH1 0x40 MSTORE POP DUP2 ADD SWAP1 PUSH2 0xFD0 SWAP2 SWAP1 PUSH2 0x198A JUMP JUMPDEST POP PUSH2 0x1124 JUMP JUMPDEST PUSH9 0x2B5E3AF16B1880000 DUP4 LT ISZERO PUSH2 0x1062 JUMPI PUSH2 0x3E8 PUSH1 0x4 SLOAD LT DUP1 ISZERO PUSH2 0x1006 JUMPI POP PUSH1 0x2 SLOAD PUSH2 0x1003 SWAP1 PUSH1 0x9 PUSH2 0x1911 JUMP JUMPDEST DUP2 GT JUMPDEST ISZERO PUSH2 0x105D JUMPI PUSH1 0x2 SLOAD PUSH1 0x40 MLOAD PUSH4 0x23B872DD PUSH1 0xE0 SHL DUP2 MSTORE PUSH1 0x1 PUSH1 0x1 PUSH1 0xA0 SHL SUB PUSH32 0x0 AND SWAP2 PUSH4 0x23B872DD SWAP2 PUSH2 0xF8D SWAP2 CALLER SWAP2 ADDRESS SWAP2 SWAP1 PUSH1 0x4 ADD PUSH2 0x19AC JUMP JUMPDEST PUSH2 0x1124 JUMP JUMPDEST PUSH1 0x5D DUP5 GT PUSH2 0x1078 JUMPI PUSH1 0x2 SLOAD PUSH2 0x1003 SWAP1 PUSH1 0xB PUSH2 0x1911 JUMP JUMPDEST PUSH1 0x2 SLOAD PUSH2 0x1086 SWAP1 PUSH1 0xB PUSH2 0x1911 JUMP JUMPDEST DUP2 GT ISZERO PUSH2 0x1124 JUMPI PUSH1 0x2 SLOAD PUSH1 0x40 MLOAD PUSH4 0x23B872DD PUSH1 0xE0 SHL DUP2 MSTORE PUSH1 0x1 PUSH1 0x1 PUSH1 0xA0 SHL SUB PUSH32 0x0 AND SWAP2 PUSH4 0x23B872DD SWAP2 PUSH2 0x10DF SWAP2 CALLER SWAP2 ADDRESS SWAP2 SWAP1 PUSH1 0x4 ADD PUSH2 0x19AC JUMP JUMPDEST PUSH1 0x20 PUSH1 0x40 MLOAD DUP1 DUP4 SUB DUP2 PUSH1 0x0 DUP8 GAS CALL ISZERO DUP1 ISZERO PUSH2 0x10FE JUMPI RETURNDATASIZE PUSH1 0x0 DUP1 RETURNDATACOPY RETURNDATASIZE PUSH1 0x0 REVERT JUMPDEST POP POP POP POP PUSH1 0x40 MLOAD RETURNDATASIZE PUSH1 0x1F NOT PUSH1 0x1F DUP3 ADD AND DUP3 ADD DUP1 PUSH1 0x40 MSTORE POP DUP2 ADD SWAP1 PUSH2 0x1122 SWAP2 SWAP1 PUSH2 0x198A JUMP JUMPDEST POP JUMPDEST PUSH1 0xD SLOAD PUSH1 0x12 SLOAD PUSH1 0x40 MLOAD PUSH4 0x70A08231 PUSH1 0xE0 SHL DUP2 MSTORE ADDRESS PUSH1 0x4 DUP3 ADD MSTORE PUSH1 0x14 SWAP3 SWAP2 PUSH1 0x1 PUSH1 0x1 PUSH1 0xA0 SHL SUB AND SWAP1 PUSH4 0x70A08231 SWAP1 PUSH1 0x24 ADD PUSH1 0x20 PUSH1 0x40 MLOAD DUP1 DUP4 SUB DUP2 DUP7 GAS STATICCALL ISZERO DUP1 ISZERO PUSH2 0x1171 JUMPI RETURNDATASIZE PUSH1 0x0 DUP1 RETURNDATACOPY RETURNDATASIZE PUSH1 0x0 REVERT JUMPDEST POP POP POP POP PUSH1 0x40 MLOAD RETURNDATASIZE PUSH1 0x1F NOT PUSH1 0x1F DUP3 ADD AND DUP3 ADD DUP1 PUSH1 0x40 MSTORE POP DUP2 ADD SWAP1 PUSH2 0x1195 SWAP2 SWAP1 PUSH2 0x195A JUMP JUMPDEST PUSH2 0x119F SWAP2 SWAP1 PUSH2 0x1973 JUMP JUMPDEST PUSH2 0x11A9 SWAP2 SWAP1 PUSH2 0x1946 JUMP JUMPDEST DUP5 PUSH2 0x11B5 DUP6 PUSH1 0x19 PUSH2 0x1911 JUMP JUMPDEST PUSH2 0x11BF SWAP2 SWAP1 PUSH2 0x1946 JUMP JUMPDEST GT ISZERO PUSH2 0x1225 JUMPI PUSH1 0x40 MLOAD PUSH3 0x461BCD PUSH1 0xE5 SHL DUP2 MSTORE PUSH1 0x20 PUSH1 0x4 DUP3 ADD MSTORE PUSH1 0x2F PUSH1 0x24 DUP3 ADD MSTORE PUSH32 0x42616E6B726F6C6C20746F6F206C6F7720666F722074686973206265742C2050 PUSH1 0x44 DUP3 ADD MSTORE PUSH15 0x1B19585CD9481B1BDDD95C8818995D PUSH1 0x8A SHL PUSH1 0x64 DUP3 ADD MSTORE PUSH1 0x84 ADD PUSH2 0x52F JUMP JUMPDEST PUSH1 0x4 DUP1 SLOAD PUSH1 0x0 SWAP1 DUP2 MSTORE PUSH1 0x7 PUSH1 0x20 SWAP1 DUP2 MSTORE PUSH1 0x40 DUP1 DUP4 KECCAK256 DUP9 SWAP1 SSTORE DUP4 SLOAD DUP4 MSTORE PUSH1 0x6 DUP3 MSTORE DUP1 DUP4 KECCAK256 DUP8 SWAP1 SSTORE DUP4 SLOAD DUP4 MSTORE PUSH1 0xA DUP3 MSTORE SWAP2 DUP3 SWAP1 KECCAK256 DUP1 SLOAD CALLER PUSH1 0x1 PUSH1 0x1 PUSH1 0xA0 SHL SUB NOT SWAP1 SWAP2 AND DUP2 OR SWAP1 SWAP2 SSTORE SWAP3 SLOAD DUP3 MLOAD DUP9 DUP2 MSTORE SWAP2 DUP3 ADD DUP8 SWAP1 MSTORE DUP2 DUP4 ADD MSTORE SWAP1 MLOAD PUSH32 0xEA3A2986B784B5FF3AF1DE7908EB0898970DEC44692BEC64512B80606842EAF6 SWAP2 DUP2 SWAP1 SUB PUSH1 0x60 ADD SWAP1 LOG2 PUSH1 0x4 DUP1 SLOAD SWAP1 PUSH1 0x0 PUSH2 0x12B8 DUP4 PUSH2 0x1A30 JUMP JUMPDEST SWAP2 SWAP1 POP SSTORE POP DUP3 PUSH1 0xD PUSH1 0x0 DUP3 DUP3 SLOAD PUSH2 0x12CF SWAP2 SWAP1 PUSH2 0x1A4B JUMP JUMPDEST SWAP3 POP POP DUP2 SWAP1 SSTORE POP DUP3 PUSH1 0x10 PUSH1 0x0 DUP3 DUP3 SLOAD PUSH2 0x12E8 SWAP2 SWAP1 PUSH2 0x1A4B JUMP JUMPDEST SWAP3 POP POP DUP2 SWAP1 SSTORE POP PUSH2 0xD8C PUSH1 0x1 SLOAD PUSH1 0x2 SLOAD PUSH2 0x1440 JUMP JUMPDEST CALLER PUSH1 0x1 PUSH1 0x1 PUSH1 0xA0 SHL SUB PUSH32 0x0 AND EQ PUSH2 0x1375 JUMPI PUSH1 0x40 MLOAD PUSH3 0x461BCD PUSH1 0xE5 SHL DUP2 MSTORE PUSH1 0x20 PUSH1 0x4 DUP3 ADD MSTORE PUSH1 0x1F PUSH1 0x24 DUP3 ADD MSTORE PUSH32 0x4F6E6C7920565246436F6F7264696E61746F722063616E2066756C66696C6C00 PUSH1 0x44 DUP3 ADD MSTORE PUSH1 0x64 ADD PUSH2 0x52F JUMP JUMPDEST PUSH2 0x137F DUP3 DUP3 PUSH2 0x15B7 JUMP JUMPDEST POP POP JUMP JUMPDEST PUSH1 0x0 DUP1 PUSH1 0xE SLOAD PUSH1 0x3 PUSH1 0xD SLOAD PUSH1 0x5 PUSH2 0x139A SWAP2 SWAP1 PUSH2 0x1911 JUMP JUMPDEST PUSH2 0x13A4 SWAP2 SWAP1 PUSH2 0x1946 JUMP JUMPDEST PUSH1 0x12 SLOAD PUSH1 0x40 MLOAD PUSH4 0x70A08231 PUSH1 0xE0 SHL DUP2 MSTORE ADDRESS PUSH1 0x4 DUP3 ADD MSTORE PUSH1 0x1 PUSH1 0x1 PUSH1 0xA0 SHL SUB SWAP1 SWAP2 AND SWAP1 PUSH4 0x70A08231 SWAP1 PUSH1 0x24 ADD PUSH1 0x20 PUSH1 0x40 MLOAD DUP1 DUP4 SUB DUP2 DUP7 GAS STATICCALL ISZERO DUP1 ISZERO PUSH2 0x13EC JUMPI RETURNDATASIZE PUSH1 0x0 DUP1 RETURNDATACOPY RETURNDATASIZE PUSH1 0x0 REVERT JUMPDEST POP POP POP POP PUSH1 0x40 MLOAD RETURNDATASIZE PUSH1 0x1F NOT PUSH1 0x1F DUP3 ADD AND DUP3 ADD DUP1 PUSH1 0x40 MSTORE POP DUP2 ADD SWAP1 PUSH2 0x1410 SWAP2 SWAP1 PUSH2 0x195A JUMP JUMPDEST PUSH2 0x141A SWAP2 SWAP1 PUSH2 0x1973 JUMP JUMPDEST PUSH2 0x1424 SWAP2 SWAP1 PUSH2 0x1946 JUMP JUMPDEST PUSH2 0x142F DUP5 PUSH1 0x62 PUSH2 0x1911 JUMP JUMPDEST PUSH2 0x1439 SWAP2 SWAP1 PUSH2 0x1911 JUMP JUMPDEST SWAP4 SWAP3 POP POP POP JUMP JUMPDEST PUSH1 0x0 PUSH32 0x0 PUSH1 0x1 PUSH1 0x1 PUSH1 0xA0 SHL SUB AND PUSH4 0x4000AEA0 PUSH32 0x0 DUP5 DUP7 PUSH1 0x0 PUSH1 0x40 MLOAD PUSH1 0x20 ADD PUSH2 0x14B0 SWAP3 SWAP2 SWAP1 SWAP2 DUP3 MSTORE PUSH1 0x20 DUP3 ADD MSTORE PUSH1 0x40 ADD SWAP1 JUMP JUMPDEST PUSH1 0x40 MLOAD PUSH1 0x20 DUP2 DUP4 SUB SUB DUP2 MSTORE SWAP1 PUSH1 0x40 MSTORE PUSH1 0x40 MLOAD DUP5 PUSH4 0xFFFFFFFF AND PUSH1 0xE0 SHL DUP2 MSTORE PUSH1 0x4 ADD PUSH2 0x14DD SWAP4 SWAP3 SWAP2 SWAP1 PUSH2 0x1A63 JUMP JUMPDEST PUSH1 0x20 PUSH1 0x40 MLOAD DUP1 DUP4 SUB DUP2 PUSH1 0x0 DUP8 GAS CALL ISZERO DUP1 ISZERO PUSH2 0x14FC JUMPI RETURNDATASIZE PUSH1 0x0 DUP1 RETURNDATACOPY RETURNDATASIZE PUSH1 0x0 REVERT JUMPDEST POP POP POP POP PUSH1 0x40 MLOAD RETURNDATASIZE PUSH1 0x1F NOT PUSH1 0x1F DUP3 ADD AND DUP3 ADD DUP1 PUSH1 0x40 MSTORE POP DUP2 ADD SWAP1 PUSH2 0x1520 SWAP2 SWAP1 PUSH2 0x198A JUMP JUMPDEST POP PUSH1 0x0 DUP4 DUP2 MSTORE PUSH1 0x20 DUP2 DUP2 MSTORE PUSH1 0x40 DUP1 DUP4 KECCAK256 SLOAD DUP2 MLOAD DUP1 DUP5 ADD DUP9 SWAP1 MSTORE DUP1 DUP4 ADD DUP6 SWAP1 MSTORE ADDRESS PUSH1 0x60 DUP3 ADD MSTORE PUSH1 0x80 DUP1 DUP3 ADD DUP4 SWAP1 MSTORE DUP4 MLOAD DUP1 DUP4 SUB SWAP1 SWAP2 ADD DUP2 MSTORE PUSH1 0xA0 SWAP1 SWAP2 ADD SWAP1 SWAP3 MSTORE DUP2 MLOAD SWAP2 DUP4 ADD SWAP2 SWAP1 SWAP2 KECCAK256 DUP7 DUP5 MSTORE SWAP3 SWAP1 SWAP2 MSTORE PUSH2 0x157A SWAP1 PUSH1 0x1 PUSH2 0x1A4B JUMP JUMPDEST PUSH1 0x0 DUP6 DUP2 MSTORE PUSH1 0x20 DUP2 DUP2 MSTORE PUSH1 0x40 SWAP2 DUP3 SWAP1 KECCAK256 SWAP3 SWAP1 SWAP3 SSTORE DUP1 MLOAD DUP1 DUP4 ADD DUP8 SWAP1 MSTORE DUP1 DUP3 ADD DUP5 SWAP1 MSTORE DUP2 MLOAD DUP1 DUP3 SUB DUP4 ADD DUP2 MSTORE PUSH1 0x60 SWAP1 SWAP2 ADD SWAP1 SWAP2 MSTORE DUP1 MLOAD SWAP2 ADD KECCAK256 PUSH2 0xD8C JUMP JUMPDEST PUSH1 0x4 SLOAD PUSH1 0x3 SLOAD LT PUSH2 0x15C6 JUMPI POP POP JUMP JUMPDEST PUSH1 0x4 SLOAD PUSH1 0x3 SLOAD LT PUSH2 0x160E JUMPI PUSH1 0x40 MLOAD PUSH3 0x461BCD PUSH1 0xE5 SHL DUP2 MSTORE PUSH1 0x20 PUSH1 0x4 DUP3 ADD MSTORE PUSH1 0x12 PUSH1 0x24 DUP3 ADD MSTORE PUSH18 0x4D7573742068617665206E65772062657473 PUSH1 0x70 SHL PUSH1 0x44 DUP3 ADD MSTORE PUSH1 0x64 ADD PUSH2 0x52F JUMP JUMPDEST PUSH1 0xC DUP2 SWAP1 SSTORE PUSH1 0x3 SLOAD PUSH1 0x0 SWAP1 DUP2 MSTORE PUSH1 0x8 PUSH1 0x20 MSTORE PUSH1 0x40 SWAP1 KECCAK256 DUP2 SWAP1 SSTORE PUSH2 0x1632 PUSH1 0x64 DUP3 PUSH2 0x1A93 JUMP JUMPDEST PUSH1 0x3 DUP1 SLOAD PUSH1 0x0 SWAP1 DUP2 MSTORE PUSH1 0x5 PUSH1 0x20 SWAP1 DUP2 MSTORE PUSH1 0x40 DUP1 DUP4 KECCAK256 SWAP5 SWAP1 SWAP5 SSTORE SWAP2 SLOAD DUP2 MSTORE PUSH1 0xA DUP3 MSTORE DUP3 DUP2 KECCAK256 SLOAD PUSH1 0x7 DUP4 MSTORE DUP4 DUP3 KECCAK256 SLOAD PUSH1 0x6 SWAP1 SWAP4 MSTORE SWAP3 SWAP1 KECCAK256 SLOAD PUSH1 0x1 PUSH1 0x1 PUSH1 0xA0 SHL SUB SWAP1 SWAP3 AND SWAP2 DUP2 PUSH2 0x1680 PUSH1 0x64 DUP7 PUSH2 0x1A93 JUMP JUMPDEST LT ISZERO PUSH2 0x172B JUMPI PUSH2 0x1690 DUP2 DUP4 PUSH2 0xC22 JUMP JUMPDEST PUSH1 0x3 DUP1 SLOAD PUSH1 0x0 SWAP1 DUP2 MSTORE PUSH1 0xB PUSH1 0x20 MSTORE PUSH1 0x40 DUP1 DUP3 KECCAK256 SWAP4 SWAP1 SWAP4 SSTORE PUSH1 0x12 SLOAD SWAP2 SLOAD DUP2 MSTORE DUP3 SWAP1 KECCAK256 SLOAD SWAP2 MLOAD PUSH4 0xA9059CBB PUSH1 0xE0 SHL DUP2 MSTORE PUSH1 0x1 PUSH1 0x1 PUSH1 0xA0 SHL SUB DUP7 DUP2 AND PUSH1 0x4 DUP4 ADD MSTORE PUSH1 0x24 DUP3 ADD SWAP4 SWAP1 SWAP4 MSTORE SWAP2 AND SWAP1 PUSH4 0xA9059CBB SWAP1 PUSH1 0x44 ADD PUSH1 0x20 PUSH1 0x40 MLOAD DUP1 DUP4 SUB DUP2 PUSH1 0x0 DUP8 GAS CALL ISZERO DUP1 ISZERO PUSH2 0x1701 JUMPI RETURNDATASIZE PUSH1 0x0 DUP1 RETURNDATACOPY RETURNDATASIZE PUSH1 0x0 REVERT JUMPDEST POP POP POP POP PUSH1 0x40 MLOAD RETURNDATASIZE PUSH1 0x1F NOT PUSH1 0x1F DUP3 ADD AND DUP3 ADD DUP1 PUSH1 0x40 MSTORE POP DUP2 ADD SWAP1 PUSH2 0x1725 SWAP2 SWAP1 PUSH2 0x198A JUMP JUMPDEST POP PUSH2 0x17B9 JUMP JUMPDEST PUSH1 0x12 SLOAD PUSH1 0x40 MLOAD PUSH4 0xA9059CBB PUSH1 0xE0 SHL DUP2 MSTORE PUSH1 0x1 PUSH1 0x1 PUSH1 0xA0 SHL SUB DUP6 DUP2 AND PUSH1 0x4 DUP4 ADD MSTORE PUSH1 0x1 PUSH1 0x24 DUP4 ADD MSTORE SWAP1 SWAP2 AND SWAP1 PUSH4 0xA9059CBB SWAP1 PUSH1 0x44 ADD PUSH1 0x20 PUSH1 0x40 MLOAD DUP1 DUP4 SUB DUP2 PUSH1 0x0 DUP8 GAS CALL ISZERO DUP1 ISZERO PUSH2 0x177E JUMPI RETURNDATASIZE PUSH1 0x0 DUP1 RETURNDATACOPY RETURNDATASIZE PUSH1 0x0 REVERT JUMPDEST POP POP POP POP PUSH1 0x40 MLOAD RETURNDATASIZE PUSH1 0x1F NOT PUSH1 0x1F DUP3 ADD AND DUP3 ADD DUP1 PUSH1 0x40 MSTORE POP DUP2 ADD SWAP1 PUSH2 0x17A2 SWAP2 SWAP1 PUSH2 0x198A JUMP JUMPDEST POP PUSH1 0x3 SLOAD PUSH1 0x0 SWAP1 DUP2 MSTORE PUSH1 0xB PUSH1 0x20 MSTORE PUSH1 0x40 SWAP1 KECCAK256 PUSH1 0x1 SWAP1 SSTORE JUMPDEST DUP1 PUSH1 0xD PUSH1 0x0 DUP3 DUP3 SLOAD PUSH2 0x17CB SWAP2 SWAP1 PUSH2 0x1973 JUMP JUMPDEST SWAP1 SWAP2 SSTORE POP POP PUSH1 0x1 PUSH1 0x1 PUSH1 0xA0 SHL SUB DUP4 AND PUSH32 0x24B1C86427A74774A014F51A56EA4641E764A82AEF418326ECF9E634B78F074B DUP4 PUSH2 0x1807 PUSH1 0x64 DUP9 PUSH2 0x1A93 JUMP JUMPDEST PUSH1 0x3 SLOAD PUSH1 0x0 DUP2 DUP2 MSTORE PUSH1 0xB PUSH1 0x20 SWAP1 DUP2 MSTORE PUSH1 0x40 SWAP2 DUP3 SWAP1 KECCAK256 SLOAD DUP3 MLOAD SWAP6 DUP7 MSTORE SWAP1 DUP6 ADD SWAP4 SWAP1 SWAP4 MSTORE DUP4 ADD DUP7 SWAP1 MSTORE PUSH1 0x60 DUP4 ADD MSTORE PUSH1 0x80 DUP3 ADD MSTORE PUSH1 0xA0 ADD PUSH1 0x40 MLOAD DUP1 SWAP2 SUB SWAP1 LOG2 PUSH1 0x3 DUP1 SLOAD SWAP1 PUSH1 0x0 PUSH2 0x1853 DUP4 PUSH2 0x1A30 JUMP JUMPDEST SWAP2 SWAP1 POP SSTORE POP POP POP POP POP POP JUMP JUMPDEST PUSH1 0x0 PUSH1 0x20 DUP3 DUP5 SUB SLT ISZERO PUSH2 0x1871 JUMPI PUSH1 0x0 DUP1 REVERT JUMPDEST POP CALLDATALOAD SWAP2 SWAP1 POP JUMP JUMPDEST DUP1 CALLDATALOAD PUSH1 0x1 PUSH1 0x1 PUSH1 0xA0 SHL SUB DUP2 AND DUP2 EQ PUSH2 0x188F JUMPI PUSH1 0x0 DUP1 REVERT JUMPDEST SWAP2 SWAP1 POP JUMP JUMPDEST PUSH1 0x0 DUP1 PUSH1 0x40 DUP4 DUP6 SUB SLT ISZERO PUSH2 0x18A7 JUMPI PUSH1 0x0 DUP1 REVERT JUMPDEST PUSH2 0x18B0 DUP4 PUSH2 0x1878 JUMP JUMPDEST SWAP5 PUSH1 0x20 SWAP4 SWAP1 SWAP4 ADD CALLDATALOAD SWAP4 POP POP POP JUMP JUMPDEST PUSH1 0x0 DUP1 PUSH1 0x40 DUP4 DUP6 SUB SLT ISZERO PUSH2 0x18D1 JUMPI PUSH1 0x0 DUP1 REVERT JUMPDEST POP POP DUP1 CALLDATALOAD SWAP3 PUSH1 0x20 SWAP1 SWAP2 ADD CALLDATALOAD SWAP2 POP JUMP JUMPDEST PUSH1 0x0 PUSH1 0x20 DUP3 DUP5 SUB SLT ISZERO PUSH2 0x18F2 JUMPI PUSH1 0x0 DUP1 REVERT JUMPDEST PUSH2 0x1439 DUP3 PUSH2 0x1878 JUMP JUMPDEST PUSH4 0x4E487B71 PUSH1 0xE0 SHL PUSH1 0x0 MSTORE PUSH1 0x11 PUSH1 0x4 MSTORE PUSH1 0x24 PUSH1 0x0 REVERT JUMPDEST PUSH1 0x0 DUP2 PUSH1 0x0 NOT DIV DUP4 GT DUP3 ISZERO ISZERO AND ISZERO PUSH2 0x192B JUMPI PUSH2 0x192B PUSH2 0x18FB JUMP JUMPDEST POP MUL SWAP1 JUMP JUMPDEST PUSH4 0x4E487B71 PUSH1 0xE0 SHL PUSH1 0x0 MSTORE PUSH1 0x12 PUSH1 0x4 MSTORE PUSH1 0x24 PUSH1 0x0 REVERT JUMPDEST PUSH1 0x0 DUP3 PUSH2 0x1955 JUMPI PUSH2 0x1955 PUSH2 0x1930 JUMP JUMPDEST POP DIV SWAP1 JUMP JUMPDEST PUSH1 0x0 PUSH1 0x20 DUP3 DUP5 SUB SLT ISZERO PUSH2 0x196C JUMPI PUSH1 0x0 DUP1 REVERT JUMPDEST POP MLOAD SWAP2 SWAP1 POP JUMP JUMPDEST PUSH1 0x0 DUP3 DUP3 LT ISZERO PUSH2 0x1985 JUMPI PUSH2 0x1985 PUSH2 0x18FB JUMP JUMPDEST POP SUB SWAP1 JUMP JUMPDEST PUSH1 0x0 PUSH1 0x20 DUP3 DUP5 SUB SLT ISZERO PUSH2 0x199C JUMPI PUSH1 0x0 DUP1 REVERT JUMPDEST DUP2 MLOAD DUP1 ISZERO ISZERO DUP2 EQ PUSH2 0x1439 JUMPI PUSH1 0x0 DUP1 REVERT JUMPDEST PUSH1 0x1 PUSH1 0x1 PUSH1 0xA0 SHL SUB SWAP4 DUP5 AND DUP2 MSTORE SWAP2 SWAP1 SWAP3 AND PUSH1 0x20 DUP3 ADD MSTORE PUSH1 0x40 DUP2 ADD SWAP2 SWAP1 SWAP2 MSTORE PUSH1 0x60 ADD SWAP1 JUMP JUMPDEST PUSH1 0x0 DUP2 MLOAD DUP1 DUP5 MSTORE PUSH1 0x0 JUMPDEST DUP2 DUP2 LT ISZERO PUSH2 0x19F6 JUMPI PUSH1 0x20 DUP2 DUP6 ADD DUP2 ADD MLOAD DUP7 DUP4 ADD DUP3 ADD MSTORE ADD PUSH2 0x19DA JUMP JUMPDEST DUP2 DUP2 GT ISZERO PUSH2 0x1A08 JUMPI PUSH1 0x0 PUSH1 0x20 DUP4 DUP8 ADD ADD MSTORE JUMPDEST POP PUSH1 0x1F ADD PUSH1 0x1F NOT AND SWAP3 SWAP1 SWAP3 ADD PUSH1 0x20 ADD SWAP3 SWAP2 POP POP JUMP JUMPDEST PUSH1 0x20 DUP2 MSTORE PUSH1 0x0 PUSH2 0x1439 PUSH1 0x20 DUP4 ADD DUP5 PUSH2 0x19D0 JUMP JUMPDEST PUSH1 0x0 PUSH1 0x0 NOT DUP3 EQ ISZERO PUSH2 0x1A44 JUMPI PUSH2 0x1A44 PUSH2 0x18FB JUMP JUMPDEST POP PUSH1 0x1 ADD SWAP1 JUMP JUMPDEST PUSH1 0x0 DUP3 NOT DUP3 GT ISZERO PUSH2 0x1A5E JUMPI PUSH2 0x1A5E PUSH2 0x18FB JUMP JUMPDEST POP ADD SWAP1 JUMP JUMPDEST PUSH1 0x1 DUP1 PUSH1 0xA0 SHL SUB DUP5 AND DUP2 MSTORE DUP3 PUSH1 0x20 DUP3 ADD MSTORE PUSH1 0x60 PUSH1 0x40 DUP3 ADD MSTORE PUSH1 0x0 PUSH2 0x1A8A PUSH1 0x60 DUP4 ADD DUP5 PUSH2 0x19D0 JUMP JUMPDEST SWAP6 SWAP5 POP POP POP POP POP JUMP JUMPDEST PUSH1 0x0 DUP3 PUSH2 0x1AA2 JUMPI PUSH2 0x1AA2 PUSH2 0x1930 JUMP JUMPDEST POP MOD SWAP1 JUMP INVALID LOG2 PUSH5 0x6970667358 0x22 SLT KECCAK256 DUP3 0xA9 0xEE 0xFC CALLCODE 0x28 MUL CALLDATASIZE CALLVALUE 0xD2 0xB6 0xD7 0xB8 INVALID 0xFC SWAP15 PC 0xF7 MOD PUSH20 0xC29A801A1ED07C9A834699BD64736F6C63430008 SIGNEXTEND STOP CALLER ",
  "sha1": "aaf61a2a7cde84db1024fe5aa10d2867369caa46",
  "source": "// SPDX-License-Identifier: MIT\npragma solidity ^0.8.7;\n\nimport \"./VRFConsumerBase.sol\";\n\n/**\n * THIS IS AN EXAMPLE CONTRACT WHICH USES HARDCODED VALUES FOR CLARITY.\n * PLEASE DO NOT USE THIS CODE IN PRODUCTION.\n */\n\n/**\n * Request testnet LINK and ETH here: https://faucets.chain.link/\n * Find information on LINK Token Contracts and get the latest ETH and LINK faucets here: https://docs.chain.link/docs/link-token-contracts/\n */\n interface IERC20 {\n    function totalSupply() external view returns (uint256);\n    function balanceOf(address account) external view returns (uint256);\n    function transfer(address recipient, uint256 amount) external returns (bool);\n    function allowance(address owner, address spender) external view returns (uint256);\n    function approve(address spender, uint256 amount) external returns (bool);\n    function transferFrom(address sender, address recipient, uint256 amount) external returns (bool);\n    \n    event Transfer(address indexed from, address indexed to, uint256 value);\n    event Approval(address indexed owner, address indexed spender, uint256 value);\n}\n\ncontract ForgeGuess is VRFConsumerBase {\n    \n    bytes32 internal keyHash;\n    uint256 internal fee;\n    uint256 public betid = 0;\n    uint256 public betidIN = 0;\n    //Guess Storage\n    mapping(uint256 => uint256) public betResults;\n    mapping(uint256 => uint256) public betAmt;\n    mapping(uint256 => uint256) public betOdds;\n    mapping(uint256 => uint256) public score;\n    mapping(uint256 => uint256) public score2;\n    mapping(uint256 => address) public betee;\n    mapping(uint256 => uint256) public winnings;\n    uint256 public randomResult;\n    uint256 public unreleased=0;\n    uint256 public totalSupply = 1;\n    uint256 public ratio;\n    uint256 public wagered = 0;\n    mapping(address => uint256) private _balances;\n    IERC20 public stakedToken = IERC20(0x0B72b2Ff0e87ff84EFf98451163B78408486Ee5c);\n    \n    event Staked(address indexed user, uint256 amount);\n    event Withdrawn(address indexed user, uint256 amount);\n    event GuessNote(uint256 UsersGuess, uint256 amount, address indexed user, uint256 betID);\n    event ShowAnswer(uint256 UsersGuess, uint256 Result, uint256 amountWagered, uint256 betID, address indexed AddressOfGuesser, uint256 AmountWon);\n    function balanceOf(address account) public view returns (uint256) {\n        return _balances[account];\n    }\n\n    string constant _transferErrorMessage = \"staked token transfer failed\";\n    \n    /**\n     * Constructor inherits VRFConsumerBase\n     * \n     * Network: Kovan\n     * Chainlink VRF Coordinator address: 0xdD3782915140c8f3b190B5D67eAc6dc5760C46E9\n     * LINK token address:                0xa36085F69e2889c224210F603D836748e7dC0088\n     * Key Hash: 0x6c3699283bda56ad74f6b855546325b68d482e983852a7a82979cc4807b641f4\n     */\n    constructor() \n        VRFConsumerBase(\n            0x8C7382F9D8f56b33781fE506E897a4F1e2d17255, // VRF Coordinator\n            0x326C977E6efc84E512bB9C30f76E30c160eD06FB  // LINK Token\n        )\n    {\n        keyHash = 0x6e75b569a01ef56d18cab6a8e71e6600d6ce853834d4a5748b720d06f878b3a4;\n        fee = 0.0001 * 10 ** 18; // 0.0001 LINK\n    }\n    \n    /** \n     * Requests randomness \n     */\n    function getRandomNumber(uint256 guess, uint256 amt) public returns (bytes32 requestId) {\n        require(guess<98, \"Must guess lower than 98\");\n        require(stakedToken.transferFrom(msg.sender, address(this), amt), \"Transfer must work\");\n        uint256 lBal = LINK.balanceOf(address(this));\n        if(amt < 1 * 10 ** 18){\n            LINK.transferFrom(msg.sender, address(this), fee);\n        }else if(amt < 50 * 10 ** 18 ){\n            if(betidIN < 1000 && lBal > fee * 9){ \n                LINK.transferFrom(msg.sender, address(this), fee);\n            }\n        }else if(guess <= 93)\n        {\n            if(lBal > fee*11 ){\n                LINK.transferFrom(msg.sender, address(this), fee);\n            }\n        }else\n        {\n            if(lBal > fee*11 ){\n                LINK.transferFrom(msg.sender, address(this), fee);\n            }\n        }\n        require(amt*25/guess <= (stakedToken.balanceOf(address(this)) - unreleased) / 20 , \"Bankroll too low for this bet, Please lower bet\"); //Plays off 1/11th of the bankroll\n        betOdds[betidIN] = guess;\n        betAmt[betidIN] = amt;\n        betee[betidIN] = msg.sender;\n        emit GuessNote(guess, amt, msg.sender, betidIN);\n        betidIN++;\n        unreleased +=  amt;\n        wagered += amt;\n        return requestRandomness(keyHash, fee);\n    }\n\n\n    // Max AMT for a certien guess\n     function MaxINForGuess(uint256 guess) public view returns (uint256){\n         return ((stakedToken.balanceOf(address(this)) - unreleased) / 20) * guess / 25;\n     }\n\n\n    //Incase of Chainlink failure\n    function getBlank() public returns (bytes32 requestId) {\n        LINK.transferFrom(msg.sender, address(this), fee);\n\n        return requestRandomness(keyHash, fee);\n    }\n\n\n    /**\n     * Callback function used by VRF Coordinator\n     */\n    function fulfillRandomness(bytes32 requestId, uint256 randomness) internal override {\n        if(betid >= betidIN){\n            return;\n        }\n        require(betid < betidIN, \"Must have new bets\");\n        randomResult = randomness;\n        score[betid] = randomness;\n        betResults[betid] = randomness % 100;\n        address Guesser = betee[betid];\n        uint256 odds = betOdds[betid];\n        uint256 betAmount = betAmt[betid];\n        if(randomness%100 < odds){\n            winnings[betid]=estOUTPUT(betAmount, odds);\n            stakedToken.transfer(Guesser, winnings[betid]);\n        }else{\n            stakedToken.transfer(Guesser, 1);\n            winnings[betid] = 1;\n        }\n        unreleased -= betAmount;\n        emit ShowAnswer(odds, randomness%100, betAmount,  betid, Guesser, winnings[betid]);\n        betid++;\n    }\n\n\n    //Stake and become the house\n    function stakeFor(address forWhom, uint256 amount) public payable virtual {\n        IERC20 st = stakedToken;\n        require(msg.value == 0, \"non-zero eth\");\n        require(amount > 0, \"Cannot stake 0\");\n        unchecked { \n            _balances[forWhom] += amount * totalSupply / (stakedToken.balanceOf(address(this)) - unreleased);\n            totalSupply += amount * totalSupply / (stakedToken.balanceOf(address(this)) - unreleased);\n        }\n        \n        require(st.transferFrom(msg.sender, address(this), amount), _transferErrorMessage);\n            \n        emit Staked(forWhom, amount);\n    }\n\n    //Output Amount of payout based on odds and bet\n    function estOUTPUT(uint256 betAmount, uint256 odds) public view returns (uint256){\n        uint256 ratioz = (stakedToken.balanceOf(address(this)) - unreleased) / betAmount;\n        uint256 estOutput = 0;\n            if(ratioz < 20){\n\n            estOutput = (100 * 93 *  betAmount)/(odds * 100);\n            }else if(ratioz < 50){\n\n            estOutput = (100 * 95 * betAmount)/(odds*100);\n\n            }else if(ratioz < 100){\n\n            estOutput = (100 * 98 * betAmount)/(odds * 100);\n                \n            }else if(ratioz < 150){\n\n            estOutput = (100 * 985 * betAmount)/(odds * 1000);\n                \n            }else if(ratioz < 300){\n\n            estOutput = (100 * 990 * betAmount)/(odds * 1000);\n            }else{\n\n            estOutput = (100 * 995 * betAmount)/(odds * 1000);\n                \n            }\n            return estOutput;\n\n     }\n\n    //Withdrawl Estimator\n    function withEstimator(uint256 amountOut) public view returns (uint256) {\n        uint256 v = 98 * amountOut * ((stakedToken.balanceOf(address(this)) - (unreleased * 5 / 3)) / totalSupply);\n        return v;\n    }\n\n    //Prevents you from withdrawing if large bets in play\n    function perfectWithdraw(uint256 thres)public {\n        if(betidIN - betid < thres ){\n            withdraw(stakedToken.balanceOf(msg.sender));\n        }\n    }\n\n    //2% fee on withdrawls back to holders\n    //Withdrawl function for house\n    function withdraw(uint256 amount) public virtual {\n        require(amount <= _balances[msg.sender], \"withdraw: balance is lower\");\n\n        IERC20 st = stakedToken;\n        uint256 amt = amount * ((stakedToken.balanceOf(address(this)) - (unreleased * 5 / 3)) / totalSupply) ;\n        require(stakedToken.transfer(address(this), (amt / 50)));\n        require(stakedToken.transfer(msg.sender, amt * 49 / 50));\n        unchecked {\n            _balances[msg.sender] -= amount;\n            totalSupply = totalSupply - amount;\n        }\n           \n        emit Withdrawn(msg.sender, amount);\n    }\n}\n",
  "sourcePath": "contracts/Guess.sol",
  "type": "contract"
}