{
  "abi": [
    {
      "inputs": [
        {
          "internalType": "bytes32",
          "name": "merkleRootTop",
          "type": "bytes32"
        },
        {
          "internalType": "bytes32",
          "name": "merkleRootMid",
          "type": "bytes32"
        },
        {
          "internalType": "bytes32",
          "name": "merkleRootBot",
          "type": "bytes32"
        }
      ],
      "stateMutability": "nonpayable",
      "type": "constructor"
    },
    {
      "inputs": [],
      "name": "ForgeGuessContractAddress",
      "outputs": [
        {
          "internalType": "address",
          "name": "",
          "type": "address"
        }
      ],
      "stateMutability": "view",
      "type": "function"
    },
    {
      "inputs": [],
      "name": "ForgeTokenAddress",
      "outputs": [
        {
          "internalType": "address",
          "name": "",
          "type": "address"
        }
      ],
      "stateMutability": "view",
      "type": "function"
    },
    {
      "inputs": [],
      "name": "ForgeTokenAddressREAL",
      "outputs": [
        {
          "internalType": "address",
          "name": "",
          "type": "address"
        }
      ],
      "stateMutability": "view",
      "type": "function"
    },
    {
      "inputs": [
        {
          "internalType": "uint256",
          "name": "",
          "type": "uint256"
        }
      ],
      "name": "_merkleRootAll",
      "outputs": [
        {
          "internalType": "bytes32",
          "name": "",
          "type": "bytes32"
        }
      ],
      "stateMutability": "view",
      "type": "function"
    },
    {
      "inputs": [
        {
          "internalType": "uint256",
          "name": "choice",
          "type": "uint256"
        }
      ],
      "name": "amountOut",
      "outputs": [
        {
          "internalType": "uint256",
          "name": "out",
          "type": "uint256"
        }
      ],
      "stateMutability": "view",
      "type": "function"
    },
    {
      "inputs": [
        {
          "internalType": "uint256",
          "name": "",
          "type": "uint256"
        }
      ],
      "name": "amtClaim",
      "outputs": [
        {
          "internalType": "uint256",
          "name": "",
          "type": "uint256"
        }
      ],
      "stateMutability": "view",
      "type": "function"
    },
    {
      "inputs": [
        {
          "internalType": "uint256",
          "name": "choice",
          "type": "uint256"
        }
      ],
      "name": "amtOutForChoiceInForge",
      "outputs": [
        {
          "internalType": "uint256",
          "name": "out",
          "type": "uint256"
        }
      ],
      "stateMutability": "view",
      "type": "function"
    },
    {
      "inputs": [],
      "name": "decay",
      "outputs": [
        {
          "internalType": "uint256",
          "name": "",
          "type": "uint256"
        }
      ],
      "stateMutability": "view",
      "type": "function"
    },
    {
      "inputs": [
        {
          "internalType": "uint256",
          "name": "amt",
          "type": "uint256"
        }
      ],
      "name": "depo",
      "outputs": [
        {
          "internalType": "bool",
          "name": "success",
          "type": "bool"
        }
      ],
      "stateMutability": "nonpayable",
      "type": "function"
    },
    {
      "inputs": [],
      "name": "getThree",
      "outputs": [
        {
          "internalType": "uint256",
          "name": "",
          "type": "uint256"
        }
      ],
      "stateMutability": "view",
      "type": "function"
    },
    {
      "inputs": [
        {
          "internalType": "address",
          "name": "",
          "type": "address"
        }
      ],
      "name": "hasClaimed",
      "outputs": [
        {
          "internalType": "bool",
          "name": "",
          "type": "bool"
        }
      ],
      "stateMutability": "view",
      "type": "function"
    },
    {
      "inputs": [
        {
          "internalType": "bytes32[]",
          "name": "merkleProof",
          "type": "bytes32[]"
        },
        {
          "internalType": "uint256",
          "name": "claim",
          "type": "uint256"
        }
      ],
      "name": "mintWithProofALL",
      "outputs": [],
      "stateMutability": "nonpayable",
      "type": "function"
    },
    {
      "inputs": [
        {
          "internalType": "bytes32[]",
          "name": "merkleProof",
          "type": "bytes32[]"
        }
      ],
      "name": "mintWithProofMid",
      "outputs": [],
      "stateMutability": "nonpayable",
      "type": "function"
    },
    {
      "inputs": [
        {
          "internalType": "bytes32[]",
          "name": "merkleProof",
          "type": "bytes32[]"
        }
      ],
      "name": "mintWithProofTop",
      "outputs": [],
      "stateMutability": "nonpayable",
      "type": "function"
    },
    {
      "inputs": [],
      "name": "perfect",
      "outputs": [
        {
          "internalType": "uint256",
          "name": "amtz",
          "type": "uint256"
        }
      ],
      "stateMutability": "view",
      "type": "function"
    },
    {
      "inputs": [],
      "name": "starttime",
      "outputs": [
        {
          "internalType": "uint256",
          "name": "",
          "type": "uint256"
        }
      ],
      "stateMutability": "view",
      "type": "function"
    },
    {
      "inputs": [
        {
          "internalType": "uint256",
          "name": "tokenId",
          "type": "uint256"
        }
      ],
      "name": "tokenURI",
      "outputs": [
        {
          "internalType": "string",
          "name": "",
          "type": "string"
        }
      ],
      "stateMutability": "view",
      "type": "function"
    },
    {
      "inputs": [
        {
          "internalType": "bytes32[]",
          "name": "merkleProof",
          "type": "bytes32[]"
        },
        {
          "internalType": "address",
          "name": "claimer",
          "type": "address"
        },
        {
          "internalType": "uint256",
          "name": "claim",
          "type": "uint256"
        }
      ],
      "name": "verify",
      "outputs": [
        {
          "internalType": "bool",
          "name": "ver",
          "type": "bool"
        }
      ],
      "stateMutability": "view",
      "type": "function"
    }
  ],
  "bytecode": "6080604052600080546001600160a01b031990811673f44fb43066f7ecc91058e3a614fb8a15a273527617825560018054821673bf4493415fd1e79dcda8cd0cad7e5ed65dce707417905560028054909116732bc173e54df9a3a44790ae891204347017c62b6b17905560085562278d00600a5568056bc75e2d63100000600b8190556a15af1d78b58c4000000000600c55600d5542600e553480156100a457600080fd5b506040516113a03803806113a08339810160408190526100c39161017b565b60048390556005829055600681905560038054600181810183557fc2575a0e9e593c00f959f8c92f12db2869c3395a3b0502d05e2516446f71f85b9182019590955581548086018355810193909355805480850190915590910155600780548083018255600082905264e8d4a510007fa66cc928b5edb82af9bd49922954155ab7b0942694bea4ce44661d9a8736c68891820155815480840183556305f5e100908201558154928301909155620186a09101556101a9565b60008060006060848603121561019057600080fd5b8351925060208401519150604084015190509250925092565b6111e8806101b86000396000f3fe608060405234801561001057600080fd5b50600436106101165760003560e01c806373b2e80e116100a25780638da58897116100715780638da588971461023a578063c87b56dd14610243578063d49b921614610263578063f14ddabf14610276578063f6fba66d1461028957600080fd5b806373b2e80e146101e957806375c53c041461020c57806375fe9fba1461021f5780638912ed0b1461023257600080fd5b80634f2add4f116100e95780634f2add4f1461017a57806354fac9191461018f5780635b9ea9e51461019857806360138460146101c3578063647e03b7146101d657600080fd5b806304b38ce01461011b5780630e2f5fb314610143578063290812c2146101545780632d8590c714610167575b600080fd5b61012e610129366004610ef1565b61029c565b60405190151581526020015b60405180910390f35b60035b60405190815260200161013a565b610146610162366004610f48565b610359565b610146610175366004610f48565b61037a565b61018d610188366004610f61565b6103fc565b005b610146600a5481565b6000546101ab906001600160a01b031681565b6040516001600160a01b03909116815260200161013a565b6002546101ab906001600160a01b031681565b6001546101ab906001600160a01b031681565b61012e6101f7366004610fa6565b60096020526000908152604090205460ff1681565b61018d61021a366004610fc1565b610615565b61014661022d366004610f48565b61072f565b6101466107d8565b610146600e5481565b610256610251366004610f48565b61096d565b60405161013a9190610ffe565b610146610271366004610f48565b61098e565b61018d610284366004610fc1565b61099e565b61012e610297366004610f48565b610a49565b60008161030c576103058460036000815481106102bb576102bb611053565b9060005260206000200154856040516020016102ea919060609190911b6001600160601b031916815260140190565b60405160208183030381529060405280519060200120610d75565b9050610352565b816001141561032d576103058460036001815481106102bb576102bb611053565b816002141561034e576103058460036002815481106102bb576102bb611053565b5060005b9392505050565b6007818154811061036957600080fd5b600091825260209091200154905081565b6002546000906001600160a01b031663afcf89aa6103978461072f565b6040518263ffffffff1660e01b81526004016103b591815260200190565b602060405180830381865afa1580156103d2573d6000803e3d6000fd5b505050506040513d601f19601f820116820180604052508101906103f69190611069565b92915050565b61040782338361029c565b61042c5760405162461bcd60e51b815260040161042390611082565b60405180910390fd5b3360009081526009602052604090205460ff161561045c5760405162461bcd60e51b8152600401610423906110a9565b336000908152600960205260409020805460ff191660011790556002546001600160a01b0316632e1a7d4d6104908361072f565b6040518263ffffffff1660e01b81526004016104ae91815260200190565b600060405180830381600087803b1580156104c857600080fd5b505af11580156104dc573d6000803e3d6000fd5b50506001546040516370a0823160e01b81523060048201526001600160a01b03909116925063a9059cbb9150339083906370a0823190602401602060405180830381865afa158015610532573d6000803e3d6000fd5b505050506040513d601f19601f820116820180604052508101906105569190611069565b6040516001600160e01b031960e085901b1681526001600160a01b03909216600483015260248201526044016020604051808303816000875af11580156105a1573d6000803e3d6000fd5b505050506040513d601f19601f820116820180604052508101906105c591906110d2565b6106115760405162461bcd60e51b815260206004820152601c60248201527f636f6e7472616374206d6179206265206f7574206f662066756e6473000000006044820152606401610423565b5050565b6005546040516001600160601b03193360601b16602082015261063c9183916034016102ea565b6106585760405162461bcd60e51b815260040161042390611082565b3360009081526009602052604090205460ff16156106885760405162461bcd60e51b8152600401610423906110a9565b336000818152600960205260409020805460ff19166001908117909155546001600160a01b03169063a9059cbb906106c0600261072f565b6040516001600160e01b031960e085901b1681526001600160a01b03909216600483015260248201526044016020604051808303816000875af115801561070b573d6000803e3d6000fd5b505050506040513d601f19601f8201168201806040525081019061061191906110d2565b600080600e5442610740919061110a565b9050600a548111156107515750600a545b8261078d57600a5481600760008154811061076e5761076e611053565b90600052602060002001546107839190611121565b6103529190611140565b82600114156107ae57600a5481600760018154811061076e5761076e611053565b82600214156107cf57600a5481600760028154811061076e5761076e611053565b50600092915050565b600080600260009054906101000a90046001600160a01b03166001600160a01b03166318160ddd6040518163ffffffff1660e01b8152600401602060405180830381865afa15801561082e573d6000803e3d6000fd5b505050506040513d601f19601f820116820180604052508101906108529190611069565b600260009054906101000a90046001600160a01b03166001600160a01b031663f03d66726040518163ffffffff1660e01b8152600401602060405180830381865afa1580156108a5573d6000803e3d6000fd5b505050506040513d601f19601f820116820180604052508101906108c99190611069565b6001546002546040516370a0823160e01b81526001600160a01b0391821660048201529116906370a0823190602401602060405180830381865afa158015610915573d6000803e3d6000fd5b505050506040513d601f19601f820116820180604052508101906109399190611069565b610943919061110a565b61094f906103cf611121565b6109599190611140565b6103f69069021e19e0c9bab2400000611140565b606060405180606001604052806035815260200161117e6035913992915050565b6003818154811061036957600080fd5b6004546040516001600160601b03193360601b1660208201526109c59183916034016102ea565b6109e15760405162461bcd60e51b815260040161042390611082565b3360009081526009602052604090205460ff1615610a115760405162461bcd60e51b8152600401610423906110a9565b336000818152600960205260409020805460ff1916600190811790915580546001600160a01b03169163a9059cbb916106c09061072f565b6001546040516370a0823160e01b81523060048201526000916001600160a01b0316906370a0823190602401602060405180830381865afa158015610a92573d6000803e3d6000fd5b505050506040513d601f19601f82011682018060405250810190610ab69190611069565b8211610b135760405162461bcd60e51b815260206004820152602660248201527f6d7573742062652067726561746572207468616e2070726576696f757320746f604482015265081c995cd95d60d21b6064820152608401610423565b6001546040516323b872dd60e01b8152336004820152306024820152604481018490526001600160a01b03909116906323b872dd906064016020604051808303816000875af1158015610b6a573d6000803e3d6000fd5b505050506040513d601f19601f82011682018060405250810190610b8e91906110d2565b610bca5760405162461bcd60e51b815260206004820152600d60248201526c1d1c985b9cd9995c8819985a5b609a1b6044820152606401610423565b42600e5560015460025460405163095ea7b360e01b81526001600160a01b0391821660048201527502ac3a4edbbfb8014e3ba83411e915e7ffffffffffff602482015291169063095ea7b3906044016020604051808303816000875af1158015610c38573d6000803e3d6000fd5b505050506040513d601f19601f82011682018060405250810190610c5c91906110d2565b506002546040516305dc812160e31b8152306004820152602481018490526001600160a01b0390911690632ee4090890604401600060405180830381600087803b158015610ca957600080fd5b505af1158015610cbd573d6000803e3d6000fd5b505050506000610ccb6107d8565b9050610cd881600a611121565b6007600081548110610cec57610cec611053565b600091825260209091200155610d03816003611121565b6007600181548110610d1757610d17611053565b600091825260209091200155610d2e816001611121565b6007600281548110610d4257610d42611053565b600091825260209091200155610d5981600a611121565b600b55610d67816003611121565b600c55600d55506001919050565b600081815b8551811015610e19576000868281518110610d9757610d97611053565b60200260200101519050808311610dd9576040805160208101859052908101829052606001604051602081830303815290604052805190602001209250610e06565b60408051602081018390529081018490526060016040516020818303038152906040528051906020012092505b5080610e1181611162565b915050610d7a565b509092149392505050565b634e487b7160e01b600052604160045260246000fd5b600082601f830112610e4b57600080fd5b8135602067ffffffffffffffff80831115610e6857610e68610e24565b8260051b604051601f19603f83011681018181108482111715610e8d57610e8d610e24565b604052938452858101830193838101925087851115610eab57600080fd5b83870191505b84821015610eca57813583529183019190830190610eb1565b979650505050505050565b80356001600160a01b0381168114610eec57600080fd5b919050565b600080600060608486031215610f0657600080fd5b833567ffffffffffffffff811115610f1d57600080fd5b610f2986828701610e3a565b935050610f3860208501610ed5565b9150604084013590509250925092565b600060208284031215610f5a57600080fd5b5035919050565b60008060408385031215610f7457600080fd5b823567ffffffffffffffff811115610f8b57600080fd5b610f9785828601610e3a565b95602094909401359450505050565b600060208284031215610fb857600080fd5b61035282610ed5565b600060208284031215610fd357600080fd5b813567ffffffffffffffff811115610fea57600080fd5b610ff684828501610e3a565b949350505050565b600060208083528351808285015260005b8181101561102b5785810183015185820160400152820161100f565b8181111561103d576000604083870101525b50601f01601f1916929092016040019392505050565b634e487b7160e01b600052603260045260246000fd5b60006020828403121561107b57600080fd5b5051919050565b6020808252600d908201526c70726f6f66206661696c75726560981b604082015260600190565b6020808252600f908201526e185b1c9958591e4818db185a5b5959608a1b604082015260600190565b6000602082840312156110e457600080fd5b8151801515811461035257600080fd5b634e487b7160e01b600052601160045260246000fd5b60008282101561111c5761111c6110f4565b500390565b600081600019048311821515161561113b5761113b6110f4565b500290565b60008261115d57634e487b7160e01b600052601260045260246000fd5b500490565b6000600019821415611176576111766110f4565b506001019056fe697066733a2f2f516d624c724c4d66386537565a54634b637134706a6b7637796a4c454e375247384e714b51344e47507450756333a264697066735822122073692a656ed9ea424eddff807c37dee366c46c15dc0bb94e0a446237354a383864736f6c634300080b0033",
  "bytecodeSha1": "b2b8229cbc89723fdeff94ca1648eb26437ba8e8",
  "compiler": {
    "evm_version": "istanbul",
    "optimizer": {
      "enabled": true,
      "runs": 200
    },
    "version": "0.8.11+commit.d7f03943"
  },
  "contractName": "AirdropToken",
  "language": "Solidity",
  "natspec": {
    "kind": "dev",
    "methods": {
      "depo(uint256)": {
        "details": "Mints new NFTs"
      }
    },
    "version": 1
  },
  "opcodes": "PUSH1 0x80 PUSH1 0x40 MSTORE CALLVALUE DUP1 ISZERO PUSH2 0x10 JUMPI PUSH1 0x0 DUP1 REVERT JUMPDEST POP PUSH1 0x4 CALLDATASIZE LT PUSH2 0x116 JUMPI PUSH1 0x0 CALLDATALOAD PUSH1 0xE0 SHR DUP1 PUSH4 0x73B2E80E GT PUSH2 0xA2 JUMPI DUP1 PUSH4 0x8DA58897 GT PUSH2 0x71 JUMPI DUP1 PUSH4 0x8DA58897 EQ PUSH2 0x23A JUMPI DUP1 PUSH4 0xC87B56DD EQ PUSH2 0x243 JUMPI DUP1 PUSH4 0xD49B9216 EQ PUSH2 0x263 JUMPI DUP1 PUSH4 0xF14DDABF EQ PUSH2 0x276 JUMPI DUP1 PUSH4 0xF6FBA66D EQ PUSH2 0x289 JUMPI PUSH1 0x0 DUP1 REVERT JUMPDEST DUP1 PUSH4 0x73B2E80E EQ PUSH2 0x1E9 JUMPI DUP1 PUSH4 0x75C53C04 EQ PUSH2 0x20C JUMPI DUP1 PUSH4 0x75FE9FBA EQ PUSH2 0x21F JUMPI DUP1 PUSH4 0x8912ED0B EQ PUSH2 0x232 JUMPI PUSH1 0x0 DUP1 REVERT JUMPDEST DUP1 PUSH4 0x4F2ADD4F GT PUSH2 0xE9 JUMPI DUP1 PUSH4 0x4F2ADD4F EQ PUSH2 0x17A JUMPI DUP1 PUSH4 0x54FAC919 EQ PUSH2 0x18F JUMPI DUP1 PUSH4 0x5B9EA9E5 EQ PUSH2 0x198 JUMPI DUP1 PUSH4 0x60138460 EQ PUSH2 0x1C3 JUMPI DUP1 PUSH4 0x647E03B7 EQ PUSH2 0x1D6 JUMPI PUSH1 0x0 DUP1 REVERT JUMPDEST DUP1 PUSH4 0x4B38CE0 EQ PUSH2 0x11B JUMPI DUP1 PUSH4 0xE2F5FB3 EQ PUSH2 0x143 JUMPI DUP1 PUSH4 0x290812C2 EQ PUSH2 0x154 JUMPI DUP1 PUSH4 0x2D8590C7 EQ PUSH2 0x167 JUMPI JUMPDEST PUSH1 0x0 DUP1 REVERT JUMPDEST PUSH2 0x12E PUSH2 0x129 CALLDATASIZE PUSH1 0x4 PUSH2 0xEF1 JUMP JUMPDEST PUSH2 0x29C JUMP JUMPDEST PUSH1 0x40 MLOAD SWAP1 ISZERO ISZERO DUP2 MSTORE PUSH1 0x20 ADD JUMPDEST PUSH1 0x40 MLOAD DUP1 SWAP2 SUB SWAP1 RETURN JUMPDEST PUSH1 0x3 JUMPDEST PUSH1 0x40 MLOAD SWAP1 DUP2 MSTORE PUSH1 0x20 ADD PUSH2 0x13A JUMP JUMPDEST PUSH2 0x146 PUSH2 0x162 CALLDATASIZE PUSH1 0x4 PUSH2 0xF48 JUMP JUMPDEST PUSH2 0x359 JUMP JUMPDEST PUSH2 0x146 PUSH2 0x175 CALLDATASIZE PUSH1 0x4 PUSH2 0xF48 JUMP JUMPDEST PUSH2 0x37A JUMP JUMPDEST PUSH2 0x18D PUSH2 0x188 CALLDATASIZE PUSH1 0x4 PUSH2 0xF61 JUMP JUMPDEST PUSH2 0x3FC JUMP JUMPDEST STOP JUMPDEST PUSH2 0x146 PUSH1 0xA SLOAD DUP2 JUMP JUMPDEST PUSH1 0x0 SLOAD PUSH2 0x1AB SWAP1 PUSH1 0x1 PUSH1 0x1 PUSH1 0xA0 SHL SUB AND DUP2 JUMP JUMPDEST PUSH1 0x40 MLOAD PUSH1 0x1 PUSH1 0x1 PUSH1 0xA0 SHL SUB SWAP1 SWAP2 AND DUP2 MSTORE PUSH1 0x20 ADD PUSH2 0x13A JUMP JUMPDEST PUSH1 0x2 SLOAD PUSH2 0x1AB SWAP1 PUSH1 0x1 PUSH1 0x1 PUSH1 0xA0 SHL SUB AND DUP2 JUMP JUMPDEST PUSH1 0x1 SLOAD PUSH2 0x1AB SWAP1 PUSH1 0x1 PUSH1 0x1 PUSH1 0xA0 SHL SUB AND DUP2 JUMP JUMPDEST PUSH2 0x12E PUSH2 0x1F7 CALLDATASIZE PUSH1 0x4 PUSH2 0xFA6 JUMP JUMPDEST PUSH1 0x9 PUSH1 0x20 MSTORE PUSH1 0x0 SWAP1 DUP2 MSTORE PUSH1 0x40 SWAP1 KECCAK256 SLOAD PUSH1 0xFF AND DUP2 JUMP JUMPDEST PUSH2 0x18D PUSH2 0x21A CALLDATASIZE PUSH1 0x4 PUSH2 0xFC1 JUMP JUMPDEST PUSH2 0x615 JUMP JUMPDEST PUSH2 0x146 PUSH2 0x22D CALLDATASIZE PUSH1 0x4 PUSH2 0xF48 JUMP JUMPDEST PUSH2 0x72F JUMP JUMPDEST PUSH2 0x146 PUSH2 0x7D8 JUMP JUMPDEST PUSH2 0x146 PUSH1 0xE SLOAD DUP2 JUMP JUMPDEST PUSH2 0x256 PUSH2 0x251 CALLDATASIZE PUSH1 0x4 PUSH2 0xF48 JUMP JUMPDEST PUSH2 0x96D JUMP JUMPDEST PUSH1 0x40 MLOAD PUSH2 0x13A SWAP2 SWAP1 PUSH2 0xFFE JUMP JUMPDEST PUSH2 0x146 PUSH2 0x271 CALLDATASIZE PUSH1 0x4 PUSH2 0xF48 JUMP JUMPDEST PUSH2 0x98E JUMP JUMPDEST PUSH2 0x18D PUSH2 0x284 CALLDATASIZE PUSH1 0x4 PUSH2 0xFC1 JUMP JUMPDEST PUSH2 0x99E JUMP JUMPDEST PUSH2 0x12E PUSH2 0x297 CALLDATASIZE PUSH1 0x4 PUSH2 0xF48 JUMP JUMPDEST PUSH2 0xA49 JUMP JUMPDEST PUSH1 0x0 DUP2 PUSH2 0x30C JUMPI PUSH2 0x305 DUP5 PUSH1 0x3 PUSH1 0x0 DUP2 SLOAD DUP2 LT PUSH2 0x2BB JUMPI PUSH2 0x2BB PUSH2 0x1053 JUMP JUMPDEST SWAP1 PUSH1 0x0 MSTORE PUSH1 0x20 PUSH1 0x0 KECCAK256 ADD SLOAD DUP6 PUSH1 0x40 MLOAD PUSH1 0x20 ADD PUSH2 0x2EA SWAP2 SWAP1 PUSH1 0x60 SWAP2 SWAP1 SWAP2 SHL PUSH1 0x1 PUSH1 0x1 PUSH1 0x60 SHL SUB NOT AND DUP2 MSTORE PUSH1 0x14 ADD SWAP1 JUMP JUMPDEST PUSH1 0x40 MLOAD PUSH1 0x20 DUP2 DUP4 SUB SUB DUP2 MSTORE SWAP1 PUSH1 0x40 MSTORE DUP1 MLOAD SWAP1 PUSH1 0x20 ADD KECCAK256 PUSH2 0xD75 JUMP JUMPDEST SWAP1 POP PUSH2 0x352 JUMP JUMPDEST DUP2 PUSH1 0x1 EQ ISZERO PUSH2 0x32D JUMPI PUSH2 0x305 DUP5 PUSH1 0x3 PUSH1 0x1 DUP2 SLOAD DUP2 LT PUSH2 0x2BB JUMPI PUSH2 0x2BB PUSH2 0x1053 JUMP JUMPDEST DUP2 PUSH1 0x2 EQ ISZERO PUSH2 0x34E JUMPI PUSH2 0x305 DUP5 PUSH1 0x3 PUSH1 0x2 DUP2 SLOAD DUP2 LT PUSH2 0x2BB JUMPI PUSH2 0x2BB PUSH2 0x1053 JUMP JUMPDEST POP PUSH1 0x0 JUMPDEST SWAP4 SWAP3 POP POP POP JUMP JUMPDEST PUSH1 0x7 DUP2 DUP2 SLOAD DUP2 LT PUSH2 0x369 JUMPI PUSH1 0x0 DUP1 REVERT JUMPDEST PUSH1 0x0 SWAP2 DUP3 MSTORE PUSH1 0x20 SWAP1 SWAP2 KECCAK256 ADD SLOAD SWAP1 POP DUP2 JUMP JUMPDEST PUSH1 0x2 SLOAD PUSH1 0x0 SWAP1 PUSH1 0x1 PUSH1 0x1 PUSH1 0xA0 SHL SUB AND PUSH4 0xAFCF89AA PUSH2 0x397 DUP5 PUSH2 0x72F JUMP JUMPDEST PUSH1 0x40 MLOAD DUP3 PUSH4 0xFFFFFFFF AND PUSH1 0xE0 SHL DUP2 MSTORE PUSH1 0x4 ADD PUSH2 0x3B5 SWAP2 DUP2 MSTORE PUSH1 0x20 ADD SWAP1 JUMP JUMPDEST PUSH1 0x20 PUSH1 0x40 MLOAD DUP1 DUP4 SUB DUP2 DUP7 GAS STATICCALL ISZERO DUP1 ISZERO PUSH2 0x3D2 JUMPI RETURNDATASIZE PUSH1 0x0 DUP1 RETURNDATACOPY RETURNDATASIZE PUSH1 0x0 REVERT JUMPDEST POP POP POP POP PUSH1 0x40 MLOAD RETURNDATASIZE PUSH1 0x1F NOT PUSH1 0x1F DUP3 ADD AND DUP3 ADD DUP1 PUSH1 0x40 MSTORE POP DUP2 ADD SWAP1 PUSH2 0x3F6 SWAP2 SWAP1 PUSH2 0x1069 JUMP JUMPDEST SWAP3 SWAP2 POP POP JUMP JUMPDEST PUSH2 0x407 DUP3 CALLER DUP4 PUSH2 0x29C JUMP JUMPDEST PUSH2 0x42C JUMPI PUSH1 0x40 MLOAD PUSH3 0x461BCD PUSH1 0xE5 SHL DUP2 MSTORE PUSH1 0x4 ADD PUSH2 0x423 SWAP1 PUSH2 0x1082 JUMP JUMPDEST PUSH1 0x40 MLOAD DUP1 SWAP2 SUB SWAP1 REVERT JUMPDEST CALLER PUSH1 0x0 SWAP1 DUP2 MSTORE PUSH1 0x9 PUSH1 0x20 MSTORE PUSH1 0x40 SWAP1 KECCAK256 SLOAD PUSH1 0xFF AND ISZERO PUSH2 0x45C JUMPI PUSH1 0x40 MLOAD PUSH3 0x461BCD PUSH1 0xE5 SHL DUP2 MSTORE PUSH1 0x4 ADD PUSH2 0x423 SWAP1 PUSH2 0x10A9 JUMP JUMPDEST CALLER PUSH1 0x0 SWAP1 DUP2 MSTORE PUSH1 0x9 PUSH1 0x20 MSTORE PUSH1 0x40 SWAP1 KECCAK256 DUP1 SLOAD PUSH1 0xFF NOT AND PUSH1 0x1 OR SWAP1 SSTORE PUSH1 0x2 SLOAD PUSH1 0x1 PUSH1 0x1 PUSH1 0xA0 SHL SUB AND PUSH4 0x2E1A7D4D PUSH2 0x490 DUP4 PUSH2 0x72F JUMP JUMPDEST PUSH1 0x40 MLOAD DUP3 PUSH4 0xFFFFFFFF AND PUSH1 0xE0 SHL DUP2 MSTORE PUSH1 0x4 ADD PUSH2 0x4AE SWAP2 DUP2 MSTORE PUSH1 0x20 ADD SWAP1 JUMP JUMPDEST PUSH1 0x0 PUSH1 0x40 MLOAD DUP1 DUP4 SUB DUP2 PUSH1 0x0 DUP8 DUP1 EXTCODESIZE ISZERO DUP1 ISZERO PUSH2 0x4C8 JUMPI PUSH1 0x0 DUP1 REVERT JUMPDEST POP GAS CALL ISZERO DUP1 ISZERO PUSH2 0x4DC JUMPI RETURNDATASIZE PUSH1 0x0 DUP1 RETURNDATACOPY RETURNDATASIZE PUSH1 0x0 REVERT JUMPDEST POP POP PUSH1 0x1 SLOAD PUSH1 0x40 MLOAD PUSH4 0x70A08231 PUSH1 0xE0 SHL DUP2 MSTORE ADDRESS PUSH1 0x4 DUP3 ADD MSTORE PUSH1 0x1 PUSH1 0x1 PUSH1 0xA0 SHL SUB SWAP1 SWAP2 AND SWAP3 POP PUSH4 0xA9059CBB SWAP2 POP CALLER SWAP1 DUP4 SWAP1 PUSH4 0x70A08231 SWAP1 PUSH1 0x24 ADD PUSH1 0x20 PUSH1 0x40 MLOAD DUP1 DUP4 SUB DUP2 DUP7 GAS STATICCALL ISZERO DUP1 ISZERO PUSH2 0x532 JUMPI RETURNDATASIZE PUSH1 0x0 DUP1 RETURNDATACOPY RETURNDATASIZE PUSH1 0x0 REVERT JUMPDEST POP POP POP POP PUSH1 0x40 MLOAD RETURNDATASIZE PUSH1 0x1F NOT PUSH1 0x1F DUP3 ADD AND DUP3 ADD DUP1 PUSH1 0x40 MSTORE POP DUP2 ADD SWAP1 PUSH2 0x556 SWAP2 SWAP1 PUSH2 0x1069 JUMP JUMPDEST PUSH1 0x40 MLOAD PUSH1 0x1 PUSH1 0x1 PUSH1 0xE0 SHL SUB NOT PUSH1 0xE0 DUP6 SWAP1 SHL AND DUP2 MSTORE PUSH1 0x1 PUSH1 0x1 PUSH1 0xA0 SHL SUB SWAP1 SWAP3 AND PUSH1 0x4 DUP4 ADD MSTORE PUSH1 0x24 DUP3 ADD MSTORE PUSH1 0x44 ADD PUSH1 0x20 PUSH1 0x40 MLOAD DUP1 DUP4 SUB DUP2 PUSH1 0x0 DUP8 GAS CALL ISZERO DUP1 ISZERO PUSH2 0x5A1 JUMPI RETURNDATASIZE PUSH1 0x0 DUP1 RETURNDATACOPY RETURNDATASIZE PUSH1 0x0 REVERT JUMPDEST POP POP POP POP PUSH1 0x40 MLOAD RETURNDATASIZE PUSH1 0x1F NOT PUSH1 0x1F DUP3 ADD AND DUP3 ADD DUP1 PUSH1 0x40 MSTORE POP DUP2 ADD SWAP1 PUSH2 0x5C5 SWAP2 SWAP1 PUSH2 0x10D2 JUMP JUMPDEST PUSH2 0x611 JUMPI PUSH1 0x40 MLOAD PUSH3 0x461BCD PUSH1 0xE5 SHL DUP2 MSTORE PUSH1 0x20 PUSH1 0x4 DUP3 ADD MSTORE PUSH1 0x1C PUSH1 0x24 DUP3 ADD MSTORE PUSH32 0x636F6E7472616374206D6179206265206F7574206F662066756E647300000000 PUSH1 0x44 DUP3 ADD MSTORE PUSH1 0x64 ADD PUSH2 0x423 JUMP JUMPDEST POP POP JUMP JUMPDEST PUSH1 0x5 SLOAD PUSH1 0x40 MLOAD PUSH1 0x1 PUSH1 0x1 PUSH1 0x60 SHL SUB NOT CALLER PUSH1 0x60 SHL AND PUSH1 0x20 DUP3 ADD MSTORE PUSH2 0x63C SWAP2 DUP4 SWAP2 PUSH1 0x34 ADD PUSH2 0x2EA JUMP JUMPDEST PUSH2 0x658 JUMPI PUSH1 0x40 MLOAD PUSH3 0x461BCD PUSH1 0xE5 SHL DUP2 MSTORE PUSH1 0x4 ADD PUSH2 0x423 SWAP1 PUSH2 0x1082 JUMP JUMPDEST CALLER PUSH1 0x0 SWAP1 DUP2 MSTORE PUSH1 0x9 PUSH1 0x20 MSTORE PUSH1 0x40 SWAP1 KECCAK256 SLOAD PUSH1 0xFF AND ISZERO PUSH2 0x688 JUMPI PUSH1 0x40 MLOAD PUSH3 0x461BCD PUSH1 0xE5 SHL DUP2 MSTORE PUSH1 0x4 ADD PUSH2 0x423 SWAP1 PUSH2 0x10A9 JUMP JUMPDEST CALLER PUSH1 0x0 DUP2 DUP2 MSTORE PUSH1 0x9 PUSH1 0x20 MSTORE PUSH1 0x40 SWAP1 KECCAK256 DUP1 SLOAD PUSH1 0xFF NOT AND PUSH1 0x1 SWAP1 DUP2 OR SWAP1 SWAP2 SSTORE SLOAD PUSH1 0x1 PUSH1 0x1 PUSH1 0xA0 SHL SUB AND SWAP1 PUSH4 0xA9059CBB SWAP1 PUSH2 0x6C0 PUSH1 0x2 PUSH2 0x72F JUMP JUMPDEST PUSH1 0x40 MLOAD PUSH1 0x1 PUSH1 0x1 PUSH1 0xE0 SHL SUB NOT PUSH1 0xE0 DUP6 SWAP1 SHL AND DUP2 MSTORE PUSH1 0x1 PUSH1 0x1 PUSH1 0xA0 SHL SUB SWAP1 SWAP3 AND PUSH1 0x4 DUP4 ADD MSTORE PUSH1 0x24 DUP3 ADD MSTORE PUSH1 0x44 ADD PUSH1 0x20 PUSH1 0x40 MLOAD DUP1 DUP4 SUB DUP2 PUSH1 0x0 DUP8 GAS CALL ISZERO DUP1 ISZERO PUSH2 0x70B JUMPI RETURNDATASIZE PUSH1 0x0 DUP1 RETURNDATACOPY RETURNDATASIZE PUSH1 0x0 REVERT JUMPDEST POP POP POP POP PUSH1 0x40 MLOAD RETURNDATASIZE PUSH1 0x1F NOT PUSH1 0x1F DUP3 ADD AND DUP3 ADD DUP1 PUSH1 0x40 MSTORE POP DUP2 ADD SWAP1 PUSH2 0x611 SWAP2 SWAP1 PUSH2 0x10D2 JUMP JUMPDEST PUSH1 0x0 DUP1 PUSH1 0xE SLOAD TIMESTAMP PUSH2 0x740 SWAP2 SWAP1 PUSH2 0x110A JUMP JUMPDEST SWAP1 POP PUSH1 0xA SLOAD DUP2 GT ISZERO PUSH2 0x751 JUMPI POP PUSH1 0xA SLOAD JUMPDEST DUP3 PUSH2 0x78D JUMPI PUSH1 0xA SLOAD DUP2 PUSH1 0x7 PUSH1 0x0 DUP2 SLOAD DUP2 LT PUSH2 0x76E JUMPI PUSH2 0x76E PUSH2 0x1053 JUMP JUMPDEST SWAP1 PUSH1 0x0 MSTORE PUSH1 0x20 PUSH1 0x0 KECCAK256 ADD SLOAD PUSH2 0x783 SWAP2 SWAP1 PUSH2 0x1121 JUMP JUMPDEST PUSH2 0x352 SWAP2 SWAP1 PUSH2 0x1140 JUMP JUMPDEST DUP3 PUSH1 0x1 EQ ISZERO PUSH2 0x7AE JUMPI PUSH1 0xA SLOAD DUP2 PUSH1 0x7 PUSH1 0x1 DUP2 SLOAD DUP2 LT PUSH2 0x76E JUMPI PUSH2 0x76E PUSH2 0x1053 JUMP JUMPDEST DUP3 PUSH1 0x2 EQ ISZERO PUSH2 0x7CF JUMPI PUSH1 0xA SLOAD DUP2 PUSH1 0x7 PUSH1 0x2 DUP2 SLOAD DUP2 LT PUSH2 0x76E JUMPI PUSH2 0x76E PUSH2 0x1053 JUMP JUMPDEST POP PUSH1 0x0 SWAP3 SWAP2 POP POP JUMP JUMPDEST PUSH1 0x0 DUP1 PUSH1 0x2 PUSH1 0x0 SWAP1 SLOAD SWAP1 PUSH2 0x100 EXP SWAP1 DIV PUSH1 0x1 PUSH1 0x1 PUSH1 0xA0 SHL SUB AND PUSH1 0x1 PUSH1 0x1 PUSH1 0xA0 SHL SUB AND PUSH4 0x18160DDD PUSH1 0x40 MLOAD DUP2 PUSH4 0xFFFFFFFF AND PUSH1 0xE0 SHL DUP2 MSTORE PUSH1 0x4 ADD PUSH1 0x20 PUSH1 0x40 MLOAD DUP1 DUP4 SUB DUP2 DUP7 GAS STATICCALL ISZERO DUP1 ISZERO PUSH2 0x82E JUMPI RETURNDATASIZE PUSH1 0x0 DUP1 RETURNDATACOPY RETURNDATASIZE PUSH1 0x0 REVERT JUMPDEST POP POP POP POP PUSH1 0x40 MLOAD RETURNDATASIZE PUSH1 0x1F NOT PUSH1 0x1F DUP3 ADD AND DUP3 ADD DUP1 PUSH1 0x40 MSTORE POP DUP2 ADD SWAP1 PUSH2 0x852 SWAP2 SWAP1 PUSH2 0x1069 JUMP JUMPDEST PUSH1 0x2 PUSH1 0x0 SWAP1 SLOAD SWAP1 PUSH2 0x100 EXP SWAP1 DIV PUSH1 0x1 PUSH1 0x1 PUSH1 0xA0 SHL SUB AND PUSH1 0x1 PUSH1 0x1 PUSH1 0xA0 SHL SUB AND PUSH4 0xF03D6672 PUSH1 0x40 MLOAD DUP2 PUSH4 0xFFFFFFFF AND PUSH1 0xE0 SHL DUP2 MSTORE PUSH1 0x4 ADD PUSH1 0x20 PUSH1 0x40 MLOAD DUP1 DUP4 SUB DUP2 DUP7 GAS STATICCALL ISZERO DUP1 ISZERO PUSH2 0x8A5 JUMPI RETURNDATASIZE PUSH1 0x0 DUP1 RETURNDATACOPY RETURNDATASIZE PUSH1 0x0 REVERT JUMPDEST POP POP POP POP PUSH1 0x40 MLOAD RETURNDATASIZE PUSH1 0x1F NOT PUSH1 0x1F DUP3 ADD AND DUP3 ADD DUP1 PUSH1 0x40 MSTORE POP DUP2 ADD SWAP1 PUSH2 0x8C9 SWAP2 SWAP1 PUSH2 0x1069 JUMP JUMPDEST PUSH1 0x1 SLOAD PUSH1 0x2 SLOAD PUSH1 0x40 MLOAD PUSH4 0x70A08231 PUSH1 0xE0 SHL DUP2 MSTORE PUSH1 0x1 PUSH1 0x1 PUSH1 0xA0 SHL SUB SWAP2 DUP3 AND PUSH1 0x4 DUP3 ADD MSTORE SWAP2 AND SWAP1 PUSH4 0x70A08231 SWAP1 PUSH1 0x24 ADD PUSH1 0x20 PUSH1 0x40 MLOAD DUP1 DUP4 SUB DUP2 DUP7 GAS STATICCALL ISZERO DUP1 ISZERO PUSH2 0x915 JUMPI RETURNDATASIZE PUSH1 0x0 DUP1 RETURNDATACOPY RETURNDATASIZE PUSH1 0x0 REVERT JUMPDEST POP POP POP POP PUSH1 0x40 MLOAD RETURNDATASIZE PUSH1 0x1F NOT PUSH1 0x1F DUP3 ADD AND DUP3 ADD DUP1 PUSH1 0x40 MSTORE POP DUP2 ADD SWAP1 PUSH2 0x939 SWAP2 SWAP1 PUSH2 0x1069 JUMP JUMPDEST PUSH2 0x943 SWAP2 SWAP1 PUSH2 0x110A JUMP JUMPDEST PUSH2 0x94F SWAP1 PUSH2 0x3CF PUSH2 0x1121 JUMP JUMPDEST PUSH2 0x959 SWAP2 SWAP1 PUSH2 0x1140 JUMP JUMPDEST PUSH2 0x3F6 SWAP1 PUSH10 0x21E19E0C9BAB2400000 PUSH2 0x1140 JUMP JUMPDEST PUSH1 0x60 PUSH1 0x40 MLOAD DUP1 PUSH1 0x60 ADD PUSH1 0x40 MSTORE DUP1 PUSH1 0x35 DUP2 MSTORE PUSH1 0x20 ADD PUSH2 0x117E PUSH1 0x35 SWAP2 CODECOPY SWAP3 SWAP2 POP POP JUMP JUMPDEST PUSH1 0x3 DUP2 DUP2 SLOAD DUP2 LT PUSH2 0x369 JUMPI PUSH1 0x0 DUP1 REVERT JUMPDEST PUSH1 0x4 SLOAD PUSH1 0x40 MLOAD PUSH1 0x1 PUSH1 0x1 PUSH1 0x60 SHL SUB NOT CALLER PUSH1 0x60 SHL AND PUSH1 0x20 DUP3 ADD MSTORE PUSH2 0x9C5 SWAP2 DUP4 SWAP2 PUSH1 0x34 ADD PUSH2 0x2EA JUMP JUMPDEST PUSH2 0x9E1 JUMPI PUSH1 0x40 MLOAD PUSH3 0x461BCD PUSH1 0xE5 SHL DUP2 MSTORE PUSH1 0x4 ADD PUSH2 0x423 SWAP1 PUSH2 0x1082 JUMP JUMPDEST CALLER PUSH1 0x0 SWAP1 DUP2 MSTORE PUSH1 0x9 PUSH1 0x20 MSTORE PUSH1 0x40 SWAP1 KECCAK256 SLOAD PUSH1 0xFF AND ISZERO PUSH2 0xA11 JUMPI PUSH1 0x40 MLOAD PUSH3 0x461BCD PUSH1 0xE5 SHL DUP2 MSTORE PUSH1 0x4 ADD PUSH2 0x423 SWAP1 PUSH2 0x10A9 JUMP JUMPDEST CALLER PUSH1 0x0 DUP2 DUP2 MSTORE PUSH1 0x9 PUSH1 0x20 MSTORE PUSH1 0x40 SWAP1 KECCAK256 DUP1 SLOAD PUSH1 0xFF NOT AND PUSH1 0x1 SWAP1 DUP2 OR SWAP1 SWAP2 SSTORE DUP1 SLOAD PUSH1 0x1 PUSH1 0x1 PUSH1 0xA0 SHL SUB AND SWAP2 PUSH4 0xA9059CBB SWAP2 PUSH2 0x6C0 SWAP1 PUSH2 0x72F JUMP JUMPDEST PUSH1 0x1 SLOAD PUSH1 0x40 MLOAD PUSH4 0x70A08231 PUSH1 0xE0 SHL DUP2 MSTORE ADDRESS PUSH1 0x4 DUP3 ADD MSTORE PUSH1 0x0 SWAP2 PUSH1 0x1 PUSH1 0x1 PUSH1 0xA0 SHL SUB AND SWAP1 PUSH4 0x70A08231 SWAP1 PUSH1 0x24 ADD PUSH1 0x20 PUSH1 0x40 MLOAD DUP1 DUP4 SUB DUP2 DUP7 GAS STATICCALL ISZERO DUP1 ISZERO PUSH2 0xA92 JUMPI RETURNDATASIZE PUSH1 0x0 DUP1 RETURNDATACOPY RETURNDATASIZE PUSH1 0x0 REVERT JUMPDEST POP POP POP POP PUSH1 0x40 MLOAD RETURNDATASIZE PUSH1 0x1F NOT PUSH1 0x1F DUP3 ADD AND DUP3 ADD DUP1 PUSH1 0x40 MSTORE POP DUP2 ADD SWAP1 PUSH2 0xAB6 SWAP2 SWAP1 PUSH2 0x1069 JUMP JUMPDEST DUP3 GT PUSH2 0xB13 JUMPI PUSH1 0x40 MLOAD PUSH3 0x461BCD PUSH1 0xE5 SHL DUP2 MSTORE PUSH1 0x20 PUSH1 0x4 DUP3 ADD MSTORE PUSH1 0x26 PUSH1 0x24 DUP3 ADD MSTORE PUSH32 0x6D7573742062652067726561746572207468616E2070726576696F757320746F PUSH1 0x44 DUP3 ADD MSTORE PUSH6 0x81C995CD95D PUSH1 0xD2 SHL PUSH1 0x64 DUP3 ADD MSTORE PUSH1 0x84 ADD PUSH2 0x423 JUMP JUMPDEST PUSH1 0x1 SLOAD PUSH1 0x40 MLOAD PUSH4 0x23B872DD PUSH1 0xE0 SHL DUP2 MSTORE CALLER PUSH1 0x4 DUP3 ADD MSTORE ADDRESS PUSH1 0x24 DUP3 ADD MSTORE PUSH1 0x44 DUP2 ADD DUP5 SWAP1 MSTORE PUSH1 0x1 PUSH1 0x1 PUSH1 0xA0 SHL SUB SWAP1 SWAP2 AND SWAP1 PUSH4 0x23B872DD SWAP1 PUSH1 0x64 ADD PUSH1 0x20 PUSH1 0x40 MLOAD DUP1 DUP4 SUB DUP2 PUSH1 0x0 DUP8 GAS CALL ISZERO DUP1 ISZERO PUSH2 0xB6A JUMPI RETURNDATASIZE PUSH1 0x0 DUP1 RETURNDATACOPY RETURNDATASIZE PUSH1 0x0 REVERT JUMPDEST POP POP POP POP PUSH1 0x40 MLOAD RETURNDATASIZE PUSH1 0x1F NOT PUSH1 0x1F DUP3 ADD AND DUP3 ADD DUP1 PUSH1 0x40 MSTORE POP DUP2 ADD SWAP1 PUSH2 0xB8E SWAP2 SWAP1 PUSH2 0x10D2 JUMP JUMPDEST PUSH2 0xBCA JUMPI PUSH1 0x40 MLOAD PUSH3 0x461BCD PUSH1 0xE5 SHL DUP2 MSTORE PUSH1 0x20 PUSH1 0x4 DUP3 ADD MSTORE PUSH1 0xD PUSH1 0x24 DUP3 ADD MSTORE PUSH13 0x1D1C985B9CD9995C8819985A5B PUSH1 0x9A SHL PUSH1 0x44 DUP3 ADD MSTORE PUSH1 0x64 ADD PUSH2 0x423 JUMP JUMPDEST TIMESTAMP PUSH1 0xE SSTORE PUSH1 0x1 SLOAD PUSH1 0x2 SLOAD PUSH1 0x40 MLOAD PUSH4 0x95EA7B3 PUSH1 0xE0 SHL DUP2 MSTORE PUSH1 0x1 PUSH1 0x1 PUSH1 0xA0 SHL SUB SWAP2 DUP3 AND PUSH1 0x4 DUP3 ADD MSTORE PUSH22 0x2AC3A4EDBBFB8014E3BA83411E915E7FFFFFFFFFFFF PUSH1 0x24 DUP3 ADD MSTORE SWAP2 AND SWAP1 PUSH4 0x95EA7B3 SWAP1 PUSH1 0x44 ADD PUSH1 0x20 PUSH1 0x40 MLOAD DUP1 DUP4 SUB DUP2 PUSH1 0x0 DUP8 GAS CALL ISZERO DUP1 ISZERO PUSH2 0xC38 JUMPI RETURNDATASIZE PUSH1 0x0 DUP1 RETURNDATACOPY RETURNDATASIZE PUSH1 0x0 REVERT JUMPDEST POP POP POP POP PUSH1 0x40 MLOAD RETURNDATASIZE PUSH1 0x1F NOT PUSH1 0x1F DUP3 ADD AND DUP3 ADD DUP1 PUSH1 0x40 MSTORE POP DUP2 ADD SWAP1 PUSH2 0xC5C SWAP2 SWAP1 PUSH2 0x10D2 JUMP JUMPDEST POP PUSH1 0x2 SLOAD PUSH1 0x40 MLOAD PUSH4 0x5DC8121 PUSH1 0xE3 SHL DUP2 MSTORE ADDRESS PUSH1 0x4 DUP3 ADD MSTORE PUSH1 0x24 DUP2 ADD DUP5 SWAP1 MSTORE PUSH1 0x1 PUSH1 0x1 PUSH1 0xA0 SHL SUB SWAP1 SWAP2 AND SWAP1 PUSH4 0x2EE40908 SWAP1 PUSH1 0x44 ADD PUSH1 0x0 PUSH1 0x40 MLOAD DUP1 DUP4 SUB DUP2 PUSH1 0x0 DUP8 DUP1 EXTCODESIZE ISZERO DUP1 ISZERO PUSH2 0xCA9 JUMPI PUSH1 0x0 DUP1 REVERT JUMPDEST POP GAS CALL ISZERO DUP1 ISZERO PUSH2 0xCBD JUMPI RETURNDATASIZE PUSH1 0x0 DUP1 RETURNDATACOPY RETURNDATASIZE PUSH1 0x0 REVERT JUMPDEST POP POP POP POP PUSH1 0x0 PUSH2 0xCCB PUSH2 0x7D8 JUMP JUMPDEST SWAP1 POP PUSH2 0xCD8 DUP2 PUSH1 0xA PUSH2 0x1121 JUMP JUMPDEST PUSH1 0x7 PUSH1 0x0 DUP2 SLOAD DUP2 LT PUSH2 0xCEC JUMPI PUSH2 0xCEC PUSH2 0x1053 JUMP JUMPDEST PUSH1 0x0 SWAP2 DUP3 MSTORE PUSH1 0x20 SWAP1 SWAP2 KECCAK256 ADD SSTORE PUSH2 0xD03 DUP2 PUSH1 0x3 PUSH2 0x1121 JUMP JUMPDEST PUSH1 0x7 PUSH1 0x1 DUP2 SLOAD DUP2 LT PUSH2 0xD17 JUMPI PUSH2 0xD17 PUSH2 0x1053 JUMP JUMPDEST PUSH1 0x0 SWAP2 DUP3 MSTORE PUSH1 0x20 SWAP1 SWAP2 KECCAK256 ADD SSTORE PUSH2 0xD2E DUP2 PUSH1 0x1 PUSH2 0x1121 JUMP JUMPDEST PUSH1 0x7 PUSH1 0x2 DUP2 SLOAD DUP2 LT PUSH2 0xD42 JUMPI PUSH2 0xD42 PUSH2 0x1053 JUMP JUMPDEST PUSH1 0x0 SWAP2 DUP3 MSTORE PUSH1 0x20 SWAP1 SWAP2 KECCAK256 ADD SSTORE PUSH2 0xD59 DUP2 PUSH1 0xA PUSH2 0x1121 JUMP JUMPDEST PUSH1 0xB SSTORE PUSH2 0xD67 DUP2 PUSH1 0x3 PUSH2 0x1121 JUMP JUMPDEST PUSH1 0xC SSTORE PUSH1 0xD SSTORE POP PUSH1 0x1 SWAP2 SWAP1 POP JUMP JUMPDEST PUSH1 0x0 DUP2 DUP2 JUMPDEST DUP6 MLOAD DUP2 LT ISZERO PUSH2 0xE19 JUMPI PUSH1 0x0 DUP7 DUP3 DUP2 MLOAD DUP2 LT PUSH2 0xD97 JUMPI PUSH2 0xD97 PUSH2 0x1053 JUMP JUMPDEST PUSH1 0x20 MUL PUSH1 0x20 ADD ADD MLOAD SWAP1 POP DUP1 DUP4 GT PUSH2 0xDD9 JUMPI PUSH1 0x40 DUP1 MLOAD PUSH1 0x20 DUP2 ADD DUP6 SWAP1 MSTORE SWAP1 DUP2 ADD DUP3 SWAP1 MSTORE PUSH1 0x60 ADD PUSH1 0x40 MLOAD PUSH1 0x20 DUP2 DUP4 SUB SUB DUP2 MSTORE SWAP1 PUSH1 0x40 MSTORE DUP1 MLOAD SWAP1 PUSH1 0x20 ADD KECCAK256 SWAP3 POP PUSH2 0xE06 JUMP JUMPDEST PUSH1 0x40 DUP1 MLOAD PUSH1 0x20 DUP2 ADD DUP4 SWAP1 MSTORE SWAP1 DUP2 ADD DUP5 SWAP1 MSTORE PUSH1 0x60 ADD PUSH1 0x40 MLOAD PUSH1 0x20 DUP2 DUP4 SUB SUB DUP2 MSTORE SWAP1 PUSH1 0x40 MSTORE DUP1 MLOAD SWAP1 PUSH1 0x20 ADD KECCAK256 SWAP3 POP JUMPDEST POP DUP1 PUSH2 0xE11 DUP2 PUSH2 0x1162 JUMP JUMPDEST SWAP2 POP POP PUSH2 0xD7A JUMP JUMPDEST POP SWAP1 SWAP3 EQ SWAP4 SWAP3 POP POP POP JUMP JUMPDEST PUSH4 0x4E487B71 PUSH1 0xE0 SHL PUSH1 0x0 MSTORE PUSH1 0x41 PUSH1 0x4 MSTORE PUSH1 0x24 PUSH1 0x0 REVERT JUMPDEST PUSH1 0x0 DUP3 PUSH1 0x1F DUP4 ADD SLT PUSH2 0xE4B JUMPI PUSH1 0x0 DUP1 REVERT JUMPDEST DUP2 CALLDATALOAD PUSH1 0x20 PUSH8 0xFFFFFFFFFFFFFFFF DUP1 DUP4 GT ISZERO PUSH2 0xE68 JUMPI PUSH2 0xE68 PUSH2 0xE24 JUMP JUMPDEST DUP3 PUSH1 0x5 SHL PUSH1 0x40 MLOAD PUSH1 0x1F NOT PUSH1 0x3F DUP4 ADD AND DUP2 ADD DUP2 DUP2 LT DUP5 DUP3 GT OR ISZERO PUSH2 0xE8D JUMPI PUSH2 0xE8D PUSH2 0xE24 JUMP JUMPDEST PUSH1 0x40 MSTORE SWAP4 DUP5 MSTORE DUP6 DUP2 ADD DUP4 ADD SWAP4 DUP4 DUP2 ADD SWAP3 POP DUP8 DUP6 GT ISZERO PUSH2 0xEAB JUMPI PUSH1 0x0 DUP1 REVERT JUMPDEST DUP4 DUP8 ADD SWAP2 POP JUMPDEST DUP5 DUP3 LT ISZERO PUSH2 0xECA JUMPI DUP2 CALLDATALOAD DUP4 MSTORE SWAP2 DUP4 ADD SWAP2 SWAP1 DUP4 ADD SWAP1 PUSH2 0xEB1 JUMP JUMPDEST SWAP8 SWAP7 POP POP POP POP POP POP POP JUMP JUMPDEST DUP1 CALLDATALOAD PUSH1 0x1 PUSH1 0x1 PUSH1 0xA0 SHL SUB DUP2 AND DUP2 EQ PUSH2 0xEEC JUMPI PUSH1 0x0 DUP1 REVERT JUMPDEST SWAP2 SWAP1 POP JUMP JUMPDEST PUSH1 0x0 DUP1 PUSH1 0x0 PUSH1 0x60 DUP5 DUP7 SUB SLT ISZERO PUSH2 0xF06 JUMPI PUSH1 0x0 DUP1 REVERT JUMPDEST DUP4 CALLDATALOAD PUSH8 0xFFFFFFFFFFFFFFFF DUP2 GT ISZERO PUSH2 0xF1D JUMPI PUSH1 0x0 DUP1 REVERT JUMPDEST PUSH2 0xF29 DUP7 DUP3 DUP8 ADD PUSH2 0xE3A JUMP JUMPDEST SWAP4 POP POP PUSH2 0xF38 PUSH1 0x20 DUP6 ADD PUSH2 0xED5 JUMP JUMPDEST SWAP2 POP PUSH1 0x40 DUP5 ADD CALLDATALOAD SWAP1 POP SWAP3 POP SWAP3 POP SWAP3 JUMP JUMPDEST PUSH1 0x0 PUSH1 0x20 DUP3 DUP5 SUB SLT ISZERO PUSH2 0xF5A JUMPI PUSH1 0x0 DUP1 REVERT JUMPDEST POP CALLDATALOAD SWAP2 SWAP1 POP JUMP JUMPDEST PUSH1 0x0 DUP1 PUSH1 0x40 DUP4 DUP6 SUB SLT ISZERO PUSH2 0xF74 JUMPI PUSH1 0x0 DUP1 REVERT JUMPDEST DUP3 CALLDATALOAD PUSH8 0xFFFFFFFFFFFFFFFF DUP2 GT ISZERO PUSH2 0xF8B JUMPI PUSH1 0x0 DUP1 REVERT JUMPDEST PUSH2 0xF97 DUP6 DUP3 DUP7 ADD PUSH2 0xE3A JUMP JUMPDEST SWAP6 PUSH1 0x20 SWAP5 SWAP1 SWAP5 ADD CALLDATALOAD SWAP5 POP POP POP POP JUMP JUMPDEST PUSH1 0x0 PUSH1 0x20 DUP3 DUP5 SUB SLT ISZERO PUSH2 0xFB8 JUMPI PUSH1 0x0 DUP1 REVERT JUMPDEST PUSH2 0x352 DUP3 PUSH2 0xED5 JUMP JUMPDEST PUSH1 0x0 PUSH1 0x20 DUP3 DUP5 SUB SLT ISZERO PUSH2 0xFD3 JUMPI PUSH1 0x0 DUP1 REVERT JUMPDEST DUP2 CALLDATALOAD PUSH8 0xFFFFFFFFFFFFFFFF DUP2 GT ISZERO PUSH2 0xFEA JUMPI PUSH1 0x0 DUP1 REVERT JUMPDEST PUSH2 0xFF6 DUP5 DUP3 DUP6 ADD PUSH2 0xE3A JUMP JUMPDEST SWAP5 SWAP4 POP POP POP POP JUMP JUMPDEST PUSH1 0x0 PUSH1 0x20 DUP1 DUP4 MSTORE DUP4 MLOAD DUP1 DUP3 DUP6 ADD MSTORE PUSH1 0x0 JUMPDEST DUP2 DUP2 LT ISZERO PUSH2 0x102B JUMPI DUP6 DUP2 ADD DUP4 ADD MLOAD DUP6 DUP3 ADD PUSH1 0x40 ADD MSTORE DUP3 ADD PUSH2 0x100F JUMP JUMPDEST DUP2 DUP2 GT ISZERO PUSH2 0x103D JUMPI PUSH1 0x0 PUSH1 0x40 DUP4 DUP8 ADD ADD MSTORE JUMPDEST POP PUSH1 0x1F ADD PUSH1 0x1F NOT AND SWAP3 SWAP1 SWAP3 ADD PUSH1 0x40 ADD SWAP4 SWAP3 POP POP POP JUMP JUMPDEST PUSH4 0x4E487B71 PUSH1 0xE0 SHL PUSH1 0x0 MSTORE PUSH1 0x32 PUSH1 0x4 MSTORE PUSH1 0x24 PUSH1 0x0 REVERT JUMPDEST PUSH1 0x0 PUSH1 0x20 DUP3 DUP5 SUB SLT ISZERO PUSH2 0x107B JUMPI PUSH1 0x0 DUP1 REVERT JUMPDEST POP MLOAD SWAP2 SWAP1 POP JUMP JUMPDEST PUSH1 0x20 DUP1 DUP3 MSTORE PUSH1 0xD SWAP1 DUP3 ADD MSTORE PUSH13 0x70726F6F66206661696C757265 PUSH1 0x98 SHL PUSH1 0x40 DUP3 ADD MSTORE PUSH1 0x60 ADD SWAP1 JUMP JUMPDEST PUSH1 0x20 DUP1 DUP3 MSTORE PUSH1 0xF SWAP1 DUP3 ADD MSTORE PUSH15 0x185B1C9958591E4818DB185A5B5959 PUSH1 0x8A SHL PUSH1 0x40 DUP3 ADD MSTORE PUSH1 0x60 ADD SWAP1 JUMP JUMPDEST PUSH1 0x0 PUSH1 0x20 DUP3 DUP5 SUB SLT ISZERO PUSH2 0x10E4 JUMPI PUSH1 0x0 DUP1 REVERT JUMPDEST DUP2 MLOAD DUP1 ISZERO ISZERO DUP2 EQ PUSH2 0x352 JUMPI PUSH1 0x0 DUP1 REVERT JUMPDEST PUSH4 0x4E487B71 PUSH1 0xE0 SHL PUSH1 0x0 MSTORE PUSH1 0x11 PUSH1 0x4 MSTORE PUSH1 0x24 PUSH1 0x0 REVERT JUMPDEST PUSH1 0x0 DUP3 DUP3 LT ISZERO PUSH2 0x111C JUMPI PUSH2 0x111C PUSH2 0x10F4 JUMP JUMPDEST POP SUB SWAP1 JUMP JUMPDEST PUSH1 0x0 DUP2 PUSH1 0x0 NOT DIV DUP4 GT DUP3 ISZERO ISZERO AND ISZERO PUSH2 0x113B JUMPI PUSH2 0x113B PUSH2 0x10F4 JUMP JUMPDEST POP MUL SWAP1 JUMP JUMPDEST PUSH1 0x0 DUP3 PUSH2 0x115D JUMPI PUSH4 0x4E487B71 PUSH1 0xE0 SHL PUSH1 0x0 MSTORE PUSH1 0x12 PUSH1 0x4 MSTORE PUSH1 0x24 PUSH1 0x0 REVERT JUMPDEST POP DIV SWAP1 JUMP JUMPDEST PUSH1 0x0 PUSH1 0x0 NOT DUP3 EQ ISZERO PUSH2 0x1176 JUMPI PUSH2 0x1176 PUSH2 0x10F4 JUMP JUMPDEST POP PUSH1 0x1 ADD SWAP1 JUMP INVALID PUSH10 0x7066733A2F2F516D624C PUSH19 0x4C4D66386537565A54634B637134706A6B7637 PUSH26 0x6A4C454E375247384E714B51344E47507450756333A264697066 PUSH20 0x5822122073692A656ED9EA424EDDFF807C37DEE3 PUSH7 0xC46C15DC0BB94E EXP DIFFICULTY PUSH3 0x37354A CODESIZE CODESIZE PUSH5 0x736F6C6343 STOP ADDMOD SIGNEXTEND STOP CALLER ",
  "sha1": "e9b04d8d6eca08c7838a6fe4dafc38e87dce7b2f",
  "source": "// Forge Airdrop Contract\n// https://airdrop.forgetoken.org\n// Claim up to 100, 30 or 10 Forge in this new twist on airdrops! \n// The longer you wait the more your claim unlocks, but dont let the contract run dry without claiming!\n// Allows contract to be recharged by anyone to restart the Airdrop!\n\npragma solidity ^0.8.7;\n\nlibrary MerkleProof {\n    /**\n     * @dev Returns true if a `leaf` can be proved to be a part of a Merkle tree\n     * defined by `root`. For this, a `proof` must be provided, containing\n     * sibling hashes on the branch from the leaf to the root of the tree. Each\n     * pair of leaves and each pair of pre-images are assumed to be sorted.\n     */\n    function verify(\n        bytes32[] memory proof,\n        bytes32 root,\n        bytes32 leaf\n    ) internal pure returns (bool) {\n        bytes32 computedHash = leaf;\n\n        for (uint256 i = 0; i < proof.length; i++) {\n            bytes32 proofElement = proof[i];           \n\n            if (computedHash <= proofElement) {\n                // Hash(current computed hash + current element of the proof)\n                computedHash = keccak256(abi.encodePacked(computedHash, proofElement));\n            } else {\n                // Hash(current element of the proof + current computed hash)\n                computedHash = keccak256(abi.encodePacked(proofElement, computedHash));\n            }\n        }\n\n        // Check if the computed hash (root) is equal to the provided root\n        return computedHash == root;\n    }\n}\n\n\n interface IERC20 {\n    function totalSupply() external view returns (uint256);\n    function balanceOf(address account) external view returns (uint256);\n    function transfer(address recipient, uint256 amount) external returns (bool);\n    function allowance(address owner, address spender) external view returns (uint256);\n    function approve(address spender, uint256 amount) external returns (bool);\n    function transferFrom(address sender, address recipient, uint256 amount) external returns (bool);\n    \n    event Transfer(address indexed from, address indexed to, uint256 value);\n    event Approval(address indexed owner, address indexed spender, uint256 value);\n}\ncontract ForgeGuess2{\n    \n    uint256 public unreleased;\n    uint256 public totalSupply;\n    function stakeFor(address forWhom, uint256 amount) public virtual {}\n    function withdraw(uint256 amount) public virtual {}\n    \n    function withEstimator(uint256 amountOut) public view returns (uint256) {}\n    }\ncontract AirdropToken {\n    \n    \n    address public ForgeTokenAddressREAL = address(0xF44fB43066F7ECC91058E3A614Fb8A15A2735276);\n    address public ForgeTokenAddress = address(0xbF4493415fD1E79DcDa8cD0cAd7E5Ed65DCe7074);\n    address public ForgeGuessContractAddress = address(0x2bC173e54Df9a3A44790AE891204347017c62B6B);\n    bytes32 [] public _merkleRootAll;\n    bytes32 internal _merkleRootTop;\n    bytes32 internal _merkleRootMid;\n    bytes32 internal _merkleRootBot;\n                                         \n    uint256 [] public amtClaim;\n    uint256 internal nextTokenId = 0;\n    mapping(address => bool) public hasClaimed;\n    uint256 public decay = 24* 60 * 60 * 30;\n    uint256 rewardTOP = 100 * 10 ** 18;\n    \n    uint256 rewardMID = 100 * 20 ** 18;\n    \n    uint256 rewardBOT = 100 * 10 ** 18;\n    uint256 public starttime = block.timestamp;\n    \n\n    constructor( bytes32 merkleRootTop, bytes32 merkleRootMid, bytes32 merkleRootBot)  {\n        _merkleRootTop = merkleRootTop;\n        _merkleRootMid = merkleRootMid;\n        _merkleRootBot = merkleRootBot;\n        _merkleRootAll.push(merkleRootTop);\n        _merkleRootAll.push(merkleRootMid);\n        _merkleRootAll.push(merkleRootBot);\n        amtClaim.push(1000000000000);\n        amtClaim.push(100000000);\n        amtClaim.push(100000);\n    }  \n\n \n\n    /**\n    * @dev Mints new NFTs\n    */\n    function depo(uint amt) public returns (bool success){\n        require(amt > IERC20(ForgeTokenAddress).balanceOf(address(this)), \"must be greater than previous to reset\");\n        require(IERC20(ForgeTokenAddress).transferFrom(msg.sender, address(this), amt), \"transfer fail\");\n        starttime = block.timestamp;\n        IERC20(ForgeTokenAddress).approve(ForgeGuessContractAddress, 999999999999999999999999999999999999999999999999999);\n        ForgeGuess2(ForgeGuessContractAddress).stakeFor(address(this), amt);\n        uint x = perfect();\n        amtClaim[0] = x * 10;\n        amtClaim[1] = x * 3;\n        amtClaim[2] = x * 1;\n        rewardTOP = x * 10;\n        rewardMID = x * 3;\n        rewardBOT = x;\n        return true;\n    }\n\n    function perfect() public view returns (uint256 amtz){\n        \n        uint256 test = (10 * 10 ** 18 * 1000) / ((975 * (IERC20(address(ForgeTokenAddress)).balanceOf(ForgeGuessContractAddress) - ForgeGuess2(ForgeGuessContractAddress).unreleased() ) / ForgeGuess2(ForgeGuessContractAddress).totalSupply()));\n\n\n        return test;\n    }\n\n    function amtOutForChoiceInForge(uint choice) public view returns (uint256 out){\n\n        return ForgeGuess2(ForgeGuessContractAddress).withEstimator(amountOut(choice));\n    }\n\n\n   function amountOut(uint choice) public view returns (uint256 out){\n        uint256 durdur = block.timestamp - starttime;\n        if(durdur > decay){\n            durdur = decay;\n        }\n        if(choice == 0){\n           return (amtClaim[0] * durdur) / decay;\n        }else if(choice ==1){\n           return (amtClaim[1] * durdur) / decay;\n        }else if(choice ==2){\n           return (amtClaim[2] * durdur) / decay;\n        }\n        return 0;\n   }\n   \n    function mintWithProofTop(bytes32[] memory merkleProof ) public {\n    \n        \n        require( MerkleProof.verify(merkleProof, _merkleRootTop, keccak256( abi.encodePacked(msg.sender)) ) , 'proof failure');\n\n        require(hasClaimed[msg.sender] == false, 'already claimed');\n\n        hasClaimed[msg.sender]=true;\n        \n        IERC20(ForgeTokenAddress).transfer(msg.sender,  amountOut(1));\n    }\n    \n    function mintWithProofMid(bytes32[] memory merkleProof ) public {\n \n        require( MerkleProof.verify(merkleProof, _merkleRootMid, keccak256( abi.encodePacked(msg.sender)) ) , 'proof failure');\n\n        require(hasClaimed[msg.sender] == false, 'already claimed');\n\n        hasClaimed[msg.sender]=true;\n        \n        IERC20(ForgeTokenAddress).transfer(msg.sender,  amountOut(2));\n    }\n    //0= 0%-10%, 1= 10%-40%, 2= 50%-90%\n    function mintWithProofALL(bytes32[] memory merkleProof, uint claim ) public {\n \n        require( verify(merkleProof, msg.sender, claim)  , 'proof failure');\n\n        require(hasClaimed[msg.sender] == false, 'already claimed');\n\n        hasClaimed[msg.sender]=true;\n        \n        ForgeGuess2(ForgeGuessContractAddress).withdraw(amountOut(claim));\n        require(IERC20(ForgeTokenAddress).transfer(msg.sender, IERC20(ForgeTokenAddress).balanceOf(address(this))), \"contract may be out of funds\");\n    }\n\n    //verify claim\n    function verify(bytes32[] memory merkleProof, address claimer, uint claim)public view returns (bool ver){\n    if(claim == 0){\n    \n        return MerkleProof.verify(merkleProof, _merkleRootAll[0], keccak256( abi.encodePacked(claimer)));\n    }else if(claim ==1 ){\n\n        return MerkleProof.verify(merkleProof, _merkleRootAll[1], keccak256( abi.encodePacked(claimer)));\n    }else if(claim == 2){\n    \n        return MerkleProof.verify(merkleProof, _merkleRootAll[2], keccak256( abi.encodePacked(claimer)));\n    }\n    return false;\n    }\n    \n    \n    function getThree() public view returns (uint256) {\n\n\n        return 3;\n    }\n    \n\n    function tokenURI(uint256 tokenId) public view  returns (string memory) {\n            return \"ipfs://QmbLrLMf8e7VZTcKcq4pjkv7yjLEN7RG8NqKQ4NGPtPuc3\";\n       \n}\n}\n\n",
  "sourcePath": "contracts/Merkletree.sol",
  "type": "contract"
}