{
  "abi": [
    {
      "inputs": [
        {
          "internalType": "address",
          "name": "account",
          "type": "address"
        }
      ],
      "name": "balanceOf",
      "outputs": [
        {
          "internalType": "uint256",
          "name": "",
          "type": "uint256"
        }
      ],
      "stateMutability": "view",
      "type": "function"
    },
    {
      "inputs": [
        {
          "internalType": "address",
          "name": "forWhom",
          "type": "address"
        },
        {
          "internalType": "uint256",
          "name": "amount",
          "type": "uint256"
        }
      ],
      "name": "stakeFor",
      "outputs": [],
      "stateMutability": "nonpayable",
      "type": "function"
    },
    {
      "inputs": [],
      "name": "totalSupply",
      "outputs": [
        {
          "internalType": "uint256",
          "name": "",
          "type": "uint256"
        }
      ],
      "stateMutability": "view",
      "type": "function"
    },
    {
      "inputs": [],
      "name": "unreleased",
      "outputs": [
        {
          "internalType": "uint256",
          "name": "",
          "type": "uint256"
        }
      ],
      "stateMutability": "view",
      "type": "function"
    },
    {
      "inputs": [
        {
          "internalType": "uint256",
          "name": "amountOut",
          "type": "uint256"
        }
      ],
      "name": "withEstimator",
      "outputs": [
        {
          "internalType": "uint256",
          "name": "",
          "type": "uint256"
        }
      ],
      "stateMutability": "view",
      "type": "function"
    },
    {
      "inputs": [
        {
          "internalType": "uint256",
          "name": "amount",
          "type": "uint256"
        }
      ],
      "name": "withdraw",
      "outputs": [],
      "stateMutability": "nonpayable",
      "type": "function"
    }
  ],
  "bytecode": "608060405234801561001057600080fd5b50610189806100206000396000f3fe608060405234801561001057600080fd5b50600436106100625760003560e01c806318160ddd146100675780632e1a7d4d146100825780632ee409081461009557806370a08231146100a7578063afcf89aa146100bb578063f03d6672146100c9575b600080fd5b61007060015481565b60405190815260200160405180910390f35b6100936100903660046100d2565b50565b005b6100936100a3366004610107565b5050565b6100706100b5366004610131565b50600090565b6100706100b53660046100d2565b61007060005481565b6000602082840312156100e457600080fd5b5035919050565b80356001600160a01b038116811461010257600080fd5b919050565b6000806040838503121561011a57600080fd5b610123836100eb565b946020939093013593505050565b60006020828403121561014357600080fd5b61014c826100eb565b939250505056fea2646970667358221220964f5bbdd64eb2c82951f4d5ed29d808cb72545951e31ed2e619bd664ba59f7664736f6c634300080b0033",
  "bytecodeSha1": "f230dd0366b2784c10c821084a85927f19697e64",
  "compiler": {
    "evm_version": "istanbul",
    "optimizer": {
      "enabled": true,
      "runs": 200
    },
    "version": "0.8.11+commit.d7f03943"
  },
  "contractName": "ForgeGuess",
  "language": "Solidity",
  "natspec": {
    "kind": "dev",
    "methods": {},
    "version": 1
  },
  "opcodes": "PUSH1 0x80 PUSH1 0x40 MSTORE CALLVALUE DUP1 ISZERO PUSH2 0x10 JUMPI PUSH1 0x0 DUP1 REVERT JUMPDEST POP PUSH1 0x4 CALLDATASIZE LT PUSH2 0x62 JUMPI PUSH1 0x0 CALLDATALOAD PUSH1 0xE0 SHR DUP1 PUSH4 0x18160DDD EQ PUSH2 0x67 JUMPI DUP1 PUSH4 0x2E1A7D4D EQ PUSH2 0x82 JUMPI DUP1 PUSH4 0x2EE40908 EQ PUSH2 0x95 JUMPI DUP1 PUSH4 0x70A08231 EQ PUSH2 0xA7 JUMPI DUP1 PUSH4 0xAFCF89AA EQ PUSH2 0xBB JUMPI DUP1 PUSH4 0xF03D6672 EQ PUSH2 0xC9 JUMPI JUMPDEST PUSH1 0x0 DUP1 REVERT JUMPDEST PUSH2 0x70 PUSH1 0x1 SLOAD DUP2 JUMP JUMPDEST PUSH1 0x40 MLOAD SWAP1 DUP2 MSTORE PUSH1 0x20 ADD PUSH1 0x40 MLOAD DUP1 SWAP2 SUB SWAP1 RETURN JUMPDEST PUSH2 0x93 PUSH2 0x90 CALLDATASIZE PUSH1 0x4 PUSH2 0xD2 JUMP JUMPDEST POP JUMP JUMPDEST STOP JUMPDEST PUSH2 0x93 PUSH2 0xA3 CALLDATASIZE PUSH1 0x4 PUSH2 0x107 JUMP JUMPDEST POP POP JUMP JUMPDEST PUSH2 0x70 PUSH2 0xB5 CALLDATASIZE PUSH1 0x4 PUSH2 0x131 JUMP JUMPDEST POP PUSH1 0x0 SWAP1 JUMP JUMPDEST PUSH2 0x70 PUSH2 0xB5 CALLDATASIZE PUSH1 0x4 PUSH2 0xD2 JUMP JUMPDEST PUSH2 0x70 PUSH1 0x0 SLOAD DUP2 JUMP JUMPDEST PUSH1 0x0 PUSH1 0x20 DUP3 DUP5 SUB SLT ISZERO PUSH2 0xE4 JUMPI PUSH1 0x0 DUP1 REVERT JUMPDEST POP CALLDATALOAD SWAP2 SWAP1 POP JUMP JUMPDEST DUP1 CALLDATALOAD PUSH1 0x1 PUSH1 0x1 PUSH1 0xA0 SHL SUB DUP2 AND DUP2 EQ PUSH2 0x102 JUMPI PUSH1 0x0 DUP1 REVERT JUMPDEST SWAP2 SWAP1 POP JUMP JUMPDEST PUSH1 0x0 DUP1 PUSH1 0x40 DUP4 DUP6 SUB SLT ISZERO PUSH2 0x11A JUMPI PUSH1 0x0 DUP1 REVERT JUMPDEST PUSH2 0x123 DUP4 PUSH2 0xEB JUMP JUMPDEST SWAP5 PUSH1 0x20 SWAP4 SWAP1 SWAP4 ADD CALLDATALOAD SWAP4 POP POP POP JUMP JUMPDEST PUSH1 0x0 PUSH1 0x20 DUP3 DUP5 SUB SLT ISZERO PUSH2 0x143 JUMPI PUSH1 0x0 DUP1 REVERT JUMPDEST PUSH2 0x14C DUP3 PUSH2 0xEB JUMP JUMPDEST SWAP4 SWAP3 POP POP POP JUMP INVALID LOG2 PUSH5 0x6970667358 0x22 SLT KECCAK256 SWAP7 0x4F JUMPDEST 0xBD 0xD6 0x4E 0xB2 0xC8 0x29 MLOAD DELEGATECALL 0xD5 0xED 0x29 0xD8 ADDMOD 0xCB PUSH19 0x545951E31ED2E619BD664BA59F7664736F6C63 NUMBER STOP ADDMOD SIGNEXTEND STOP CALLER ",
  "sha1": "6fe6131d6bc2203f92533234c06aac551eafb725",
  "source": "// Forge Airdrop Contract\n// https://airdrop.forgetoken.org\n// Claim up to 100, 30 or 10 Forge in this new twist on airdrops! \n// All Airdrop funds are held in Forge Guess contract until claimed!\n// The longer you wait the more your claim unlocks, but dont let the contract run dry without claiming!\n// Allows contract to be recharged by anyone to restart the Airdrop!\n\n// SPDX-License-Identifier: MIT\npragma solidity ^0.8.7;\n\nlibrary MerkleProof {\n    /**\n     * @dev Returns true if a `leaf` can be proved to be a part of a Merkle tree\n     * defined by `root`. For this, a `proof` must be provided, containing\n     * sibling hashes on the branch from the leaf to the root of the tree. Each\n     * pair of leaves and each pair of pre-images are assumed to be sorted.\n     */\n    function verify(\n        bytes32[] memory proof,\n        bytes32 root,\n        bytes32 leaf\n    ) internal pure returns (bool) {\n        bytes32 computedHash = leaf;\n\n        for (uint256 i = 0; i < proof.length; i++) {\n            bytes32 proofElement = proof[i];           \n\n            if (computedHash <= proofElement) {\n                // Hash(current computed hash + current element of the proof)\n                computedHash = keccak256(abi.encodePacked(computedHash, proofElement));\n            } else {\n                // Hash(current element of the proof + current computed hash)\n                computedHash = keccak256(abi.encodePacked(proofElement, computedHash));\n            }\n        }\n\n        // Check if the computed hash (root) is equal to the provided root\n        return computedHash == root;\n    }\n}\n\n\n interface IERC20 {\n    function totalSupply() external view returns (uint256);\n    function balanceOf(address account) external view returns (uint256);\n    function transfer(address recipient, uint256 amount) external returns (bool);\n    function allowance(address owner, address spender) external view returns (uint256);\n    function approve(address spender, uint256 amount) external returns (bool);\n    function transferFrom(address sender, address recipient, uint256 amount) external returns (bool);\n    \n    event Transfer(address indexed from, address indexed to, uint256 value);\n    event Approval(address indexed owner, address indexed spender, uint256 value);\n}\n\n\ncontract ForgeGuess{\n\n    function balanceOf(address account) public view returns (uint256) {}\n    uint256 public unreleased;\n    uint256 public totalSupply;\n    function stakeFor(address forWhom, uint256 amount) public virtual {}\n    function withdraw(uint256 amount) public virtual {}\n    \n    function withEstimator(uint256 amountOut) public view returns (uint256) {}\n    }\n    \n    \n    \ncontract ForgeAirdrop {\n\n    \n    address public ForgeTokenAddressREAL = address(0xF44fB43066F7ECC91058E3A614Fb8A15A2735276);\n    address public ForgeTokenAddress = address(0xbF4493415fD1E79DcDa8cD0cAd7E5Ed65DCe7074);\n    address public ForgeGuessContractAddress = address(0xDe256EC57E864eC847c030e14c5b97AB233A521E);\n    bytes32 [] public _merkleRootAll;\n    bytes32 internal _merkleRootTop;\n    bytes32 internal _merkleRootMid;\n    bytes32 internal _merkleRootBot;\n                                         \n    uint256 [] public amtClaim;\n    uint256 internal nextTokenId = 0;\n    mapping(address => bool) public hasClaimed;\n    uint256 public decay = 24* 60 * 60 * 30;\n    uint256 public starttime = block.timestamp;\n\n    constructor()  {\n        _merkleRootTop = bytes32(0xdd82af2bc4b721bfd5be08111d4f422fd07d1578a0072d6701f26ea4fff33845);\n        _merkleRootMid = bytes32(0x15893a9b8d3638149dd9461fde79f589e565a2fc76a861ec1aebb83736151566);\n        _merkleRootBot = bytes32(0x316b4323ca91ba63304a4e0ada24b09f8689ac1f80aca8e9d5c4213fc9ba7848);\n        _merkleRootAll.push(_merkleRootTop);\n        _merkleRootAll.push(_merkleRootTop);\n        _merkleRootAll.push(_merkleRootBot);\n        amtClaim.push(1000000000000);\n        amtClaim.push(100000000);\n        amtClaim.push(100000);\n    }  \n \n\n    /**\n    * @dev Mints new NFTs\n    */\n    function depo(uint amt) public returns (bool success){ \n        if(amt <= ForgeGuess(ForgeGuessContractAddress).withEstimator(ForgeGuess(ForgeGuessContractAddress).balanceOf(address(this)))){\n            Donation(amt);\n        }else{\n            require(amt > ForgeGuess(ForgeGuessContractAddress).withEstimator(ForgeGuess(ForgeGuessContractAddress).balanceOf(address(this))), \"must be greater than previous total to reset\");\n            require(IERC20(ForgeTokenAddress).transferFrom(msg.sender, address(this), amt), \"transfer fail\");\n            starttime = block.timestamp;\n            IERC20(ForgeTokenAddress).approve(ForgeGuessContractAddress, 999999999999999999999999999999999999999999999999999);\n            ForgeGuess(ForgeGuessContractAddress).stakeFor(address(this), amt);\n            uint x = perfect();\n            amtClaim[0] = x * 10;\n            amtClaim[1] = x * 3;\n            amtClaim[2] = x * 1;\n        }\n        return true;\n    }\n\n\n    function Donation(uint amt) public returns (bool success){ \n        require(IERC20(ForgeTokenAddress).transferFrom(msg.sender, address(this), amt), \"transfer fail\");\n        IERC20(ForgeTokenAddress).approve(ForgeGuessContractAddress, 999999999999999999999999999999999999999999999999999);\n        ForgeGuess(ForgeGuessContractAddress).stakeFor(address(this), amt);\n        return true;\n    }\n\n\n    function perfect() public view returns (uint256 amtz){\n        \n        uint256 test = (10 * 10 ** 18 * 1000) / ((975 * (IERC20(address(ForgeTokenAddress)).balanceOf(ForgeGuessContractAddress) - ForgeGuess(ForgeGuessContractAddress).unreleased() ) / ForgeGuess(ForgeGuessContractAddress).totalSupply()));\n\n\n        return test;\n    }\n    \n\n    function amtOutForChoiceInForge(uint choice) public view returns (uint256 out){\n\n        return ForgeGuess(ForgeGuessContractAddress).withEstimator(amountOut(choice));\n    }\n\n\n   function amountOut(uint choice) public view returns (uint256 out){\n   \n        uint256 timeElapsed = block.timestamp - starttime;\n        if(timeElapsed > decay){\n            timeElapsed = decay;\n        }\n        out = 0;\n        if(choice == 0){\n           out = (amtClaim[0] * timeElapsed) / decay;\n        }else if(choice ==1){\n           out = (amtClaim[1] * timeElapsed) / decay;\n        }else if(choice ==2){\n           out = (amtClaim[2] * timeElapsed) / decay;\n        }\n        uint balance = ForgeGuess(ForgeGuessContractAddress).balanceOf(address(this));\n        if(balance < out){\n            out = balance;\n        }\n        \n        return out;\n   }\n   \n   \n    function mintWithProofTop(bytes32[] memory merkleProof ) public {\n        \n        require( MerkleProof.verify(merkleProof, _merkleRootTop, keccak256( abi.encodePacked(msg.sender)) ) , 'proof failure');\n\n        require(hasClaimed[msg.sender] == false, 'already claimed');\n\n        hasClaimed[msg.sender]=true;\n        \n        IERC20(ForgeTokenAddress).transfer(msg.sender,  amountOut(1));\n    }\n    \n    \n    function mintWithProofMid(bytes32[] memory merkleProof ) public {\n \n        require( MerkleProof.verify(merkleProof, _merkleRootMid, keccak256( abi.encodePacked(msg.sender)) ) , 'proof failure');\n\n        require(hasClaimed[msg.sender] == false, 'already claimed');\n\n        hasClaimed[msg.sender]=true;\n        \n        IERC20(ForgeTokenAddress).transfer(msg.sender,  amountOut(2));\n    }\n    \n    \n    //0= 0%-10%, 1= 10%-40%, 2= 50%-90%\n    function mintWithProofALL(bytes32[] memory merkleProof, uint claim ) public{\n        require( verify(merkleProof, msg.sender, claim)  , 'proof failure');\n\n        require(hasClaimed[msg.sender] == false, 'already claimed');\n\n        hasClaimed[msg.sender]=true;\n        \n        ForgeGuess(ForgeGuessContractAddress).withdraw(amountOut(claim));\n        require(IERC20(ForgeTokenAddress).transfer(msg.sender, IERC20(ForgeTokenAddress).balanceOf(address(this))), \"contract may be out of funds\");\n    }\n\n\n    //verify claim\n    function verify(bytes32[] memory merkleProof, address claimer, uint claim)public view returns (bool ver){\n    \n        if(claim == 0){\n            return MerkleProof.verify(merkleProof, _merkleRootAll[0], keccak256( abi.encodePacked(claimer)));\n        }else if(claim ==1 ){\n            return MerkleProof.verify(merkleProof, _merkleRootAll[1], keccak256( abi.encodePacked(claimer)));\n        }else if(claim == 2){\n            return MerkleProof.verify(merkleProof, _merkleRootAll[2], keccak256( abi.encodePacked(claimer)));\n        }\n        \n        return false;\n    }\n    \n    \n    function getThree() public view returns (uint256) {\n        return 3;\n    }\n    \n}\n",
  "sourcePath": "contracts/Merkletree.sol",
  "type": "contract"
}