{
  "abi": [
    {
      "inputs": [],
      "stateMutability": "nonpayable",
      "type": "constructor"
    },
    {
      "inputs": [
        {
          "internalType": "uint256",
          "name": "amt",
          "type": "uint256"
        }
      ],
      "name": "Donation",
      "outputs": [
        {
          "internalType": "bool",
          "name": "success",
          "type": "bool"
        }
      ],
      "stateMutability": "nonpayable",
      "type": "function"
    },
    {
      "inputs": [],
      "name": "ForgeGuessContractAddress",
      "outputs": [
        {
          "internalType": "address",
          "name": "",
          "type": "address"
        }
      ],
      "stateMutability": "view",
      "type": "function"
    },
    {
      "inputs": [],
      "name": "ForgeTokenAddress",
      "outputs": [
        {
          "internalType": "address",
          "name": "",
          "type": "address"
        }
      ],
      "stateMutability": "view",
      "type": "function"
    },
    {
      "inputs": [],
      "name": "ForgeTokenAddressREAL",
      "outputs": [
        {
          "internalType": "address",
          "name": "",
          "type": "address"
        }
      ],
      "stateMutability": "view",
      "type": "function"
    },
    {
      "inputs": [
        {
          "internalType": "uint256",
          "name": "",
          "type": "uint256"
        }
      ],
      "name": "_merkleRootAll",
      "outputs": [
        {
          "internalType": "bytes32",
          "name": "",
          "type": "bytes32"
        }
      ],
      "stateMutability": "view",
      "type": "function"
    },
    {
      "inputs": [
        {
          "internalType": "uint256",
          "name": "choice",
          "type": "uint256"
        }
      ],
      "name": "amountOut",
      "outputs": [
        {
          "internalType": "uint256",
          "name": "out",
          "type": "uint256"
        }
      ],
      "stateMutability": "view",
      "type": "function"
    },
    {
      "inputs": [
        {
          "internalType": "uint256",
          "name": "",
          "type": "uint256"
        }
      ],
      "name": "amtClaim",
      "outputs": [
        {
          "internalType": "uint256",
          "name": "",
          "type": "uint256"
        }
      ],
      "stateMutability": "view",
      "type": "function"
    },
    {
      "inputs": [
        {
          "internalType": "uint256",
          "name": "choice",
          "type": "uint256"
        }
      ],
      "name": "amtOutForChoiceInForge",
      "outputs": [
        {
          "internalType": "uint256",
          "name": "out",
          "type": "uint256"
        }
      ],
      "stateMutability": "view",
      "type": "function"
    },
    {
      "inputs": [],
      "name": "decay",
      "outputs": [
        {
          "internalType": "uint256",
          "name": "",
          "type": "uint256"
        }
      ],
      "stateMutability": "view",
      "type": "function"
    },
    {
      "inputs": [
        {
          "internalType": "uint256",
          "name": "amt",
          "type": "uint256"
        }
      ],
      "name": "deposit",
      "outputs": [
        {
          "internalType": "bool",
          "name": "success",
          "type": "bool"
        }
      ],
      "stateMutability": "nonpayable",
      "type": "function"
    },
    {
      "inputs": [],
      "name": "getThree",
      "outputs": [
        {
          "internalType": "uint256",
          "name": "",
          "type": "uint256"
        }
      ],
      "stateMutability": "view",
      "type": "function"
    },
    {
      "inputs": [
        {
          "internalType": "address",
          "name": "",
          "type": "address"
        }
      ],
      "name": "hasClaimed",
      "outputs": [
        {
          "internalType": "bool",
          "name": "",
          "type": "bool"
        }
      ],
      "stateMutability": "view",
      "type": "function"
    },
    {
      "inputs": [
        {
          "internalType": "bytes32[]",
          "name": "merkleProof",
          "type": "bytes32[]"
        },
        {
          "internalType": "uint256",
          "name": "claim",
          "type": "uint256"
        },
        {
          "internalType": "uint256",
          "name": "maxLoss",
          "type": "uint256"
        }
      ],
      "name": "mintWithProofALL",
      "outputs": [],
      "stateMutability": "nonpayable",
      "type": "function"
    },
    {
      "inputs": [
        {
          "internalType": "bytes32[]",
          "name": "merkleProof",
          "type": "bytes32[]"
        }
      ],
      "name": "mintWithProofMid",
      "outputs": [],
      "stateMutability": "nonpayable",
      "type": "function"
    },
    {
      "inputs": [
        {
          "internalType": "bytes32[]",
          "name": "merkleProof",
          "type": "bytes32[]"
        }
      ],
      "name": "mintWithProofTop",
      "outputs": [],
      "stateMutability": "nonpayable",
      "type": "function"
    },
    {
      "inputs": [],
      "name": "perfect",
      "outputs": [
        {
          "internalType": "uint256",
          "name": "amtz",
          "type": "uint256"
        }
      ],
      "stateMutability": "view",
      "type": "function"
    },
    {
      "inputs": [],
      "name": "starttime",
      "outputs": [
        {
          "internalType": "uint256",
          "name": "",
          "type": "uint256"
        }
      ],
      "stateMutability": "view",
      "type": "function"
    },
    {
      "inputs": [
        {
          "internalType": "bytes32[]",
          "name": "merkleProof",
          "type": "bytes32[]"
        },
        {
          "internalType": "address",
          "name": "claimer",
          "type": "address"
        },
        {
          "internalType": "uint256",
          "name": "claim",
          "type": "uint256"
        }
      ],
      "name": "verify",
      "outputs": [
        {
          "internalType": "bool",
          "name": "ver",
          "type": "bool"
        }
      ],
      "stateMutability": "view",
      "type": "function"
    }
  ],
  "bytecode": "6080604052600080546001600160a01b031990811673f44fb43066f7ecc91058e3a614fb8a15a273527617825560018054821673bf4493415fd1e79dcda8cd0cad7e5ed65dce70741790556002805490911673de256ec57e864ec847c030e14c5b97ab233a521e1790557fdd82af2bc4b721bfd5be08111d4f422fd07d1578a0072d6701f26ea4fff338456004557f15893a9b8d3638149dd9461fde79f589e565a2fc76a861ec1aebb837361515666005557f316b4323ca91ba63304a4e0ada24b09f8689ac1f80aca8e9d5c4213fc9ba784860065560085562278d00600a5542600b553480156100ef57600080fd5b5060045460038054600181810183557fc2575a0e9e593c00f959f8c92f12db2869c3395a3b0502d05e2516446f71f85b91820193909355600554825480850184558201556006548254808501909355910155600780548083018255600082905264e8d4a510007fa66cc928b5edb82af9bd49922954155ab7b0942694bea4ce44661d9a8736c68891820155815480840183556305f5e100908201558154928301909155620186a091015561142f806101a86000396000f3fe608060405234801561001057600080fd5b50600436106101165760003560e01c806373b2e80e116100a25780638da58897116100715780638da588971461023a578063b6b55f2514610243578063d49b921614610256578063f14ddabf14610269578063f5f21aca1461027c57600080fd5b806373b2e80e146101e757806375c53c041461020a57806375fe9fba1461021f5780638912ed0b1461023257600080fd5b80634ad6d3cd116100e95780634ad6d3cd1461017a57806354fac9191461018d5780635b9ea9e51461019657806360138460146101c1578063647e03b7146101d457600080fd5b806304b38ce01461011b5780630e2f5fb314610143578063290812c2146101545780632d8590c714610167575b600080fd5b61012e6101293660046111bb565b61028f565b60405190151581526020015b60405180910390f35b60035b60405190815260200161013a565b610146610162366004611212565b61034d565b610146610175366004611212565b61036e565b61012e610188366004611212565b6103f0565b610146600a5481565b6000546101a9906001600160a01b031681565b6040516001600160a01b03909116815260200161013a565b6002546101a9906001600160a01b031681565b6001546101a9906001600160a01b031681565b61012e6101f536600461122b565b60096020526000908152604090205460ff1681565b61021d610218366004611246565b610692565b005b61014661022d366004611212565b6107b0565b61014661085a565b610146600b5481565b61012e610251366004611212565b6109ef565b610146610264366004611212565b610d6a565b61021d610277366004611246565b610d7a565b61021d61028a366004611283565b610e25565b600081600003610302576102fb8460036000815481106102b1576102b16112d1565b9060005260206000200154856040516020016102e0919060609190911b6001600160601b031916815260140190565b6040516020818303038152906040528051906020012061103f565b9050610346565b81600103610322576102fb8460036001815481106102b1576102b16112d1565b81600203610342576102fb8460036002815481106102b1576102b16112d1565b5060005b9392505050565b6007818154811061035d57600080fd5b600091825260209091200154905081565b6002546000906001600160a01b031663afcf89aa61038b846107b0565b6040518263ffffffff1660e01b81526004016103a991815260200190565b602060405180830381865afa1580156103c6573d6000803e3d6000fd5b505050506040513d601f19601f820116820180604052508101906103ea91906112e7565b92915050565b6002546040516370a0823160e01b81523060048201526000916001600160a01b03169063afcf89aa9082906370a0823190602401602060405180830381865afa158015610441573d6000803e3d6000fd5b505050506040513d601f19601f8201168201806040525081019061046591906112e7565b6040518263ffffffff1660e01b815260040161048391815260200190565b602060405180830381865afa1580156104a0573d6000803e3d6000fd5b505050506040513d601f19601f820116820180604052508101906104c491906112e7565b8211156104da576104d4826109ef565b5061068a565b6001546040516323b872dd60e01b8152336004820152306024820152604481018490526001600160a01b03909116906323b872dd906064016020604051808303816000875af1158015610531573d6000803e3d6000fd5b505050506040513d601f19601f820116820180604052508101906105559190611300565b6105965760405162461bcd60e51b815260206004820152600d60248201526c1d1c985b9cd9995c8819985a5b609a1b60448201526064015b60405180910390fd5b60015460025460405163095ea7b360e01b81526001600160a01b0391821660048201527502ac3a4edbbfb8014e3ba83411e915e7ffffffffffff602482015291169063095ea7b3906044016020604051808303816000875af1158015610600573d6000803e3d6000fd5b505050506040513d601f19601f820116820180604052508101906106249190611300565b506002546040516305dc812160e31b8152306004820152602481018490526001600160a01b0390911690632ee4090890604401600060405180830381600087803b15801561067157600080fd5b505af1158015610685573d6000803e3d6000fd5b505050505b506001919050565b6005546040516001600160601b03193360601b1660208201526106b99183916034016102e0565b6106d55760405162461bcd60e51b815260040161058d90611322565b3360009081526009602052604090205460ff16156107055760405162461bcd60e51b815260040161058d90611349565b336000818152600960205260409020805460ff19166001908117909155546001600160a01b03169063a9059cbb9061073d60026107b0565b6040516001600160e01b031960e085901b1681526001600160a01b03909216600483015260248201526044016020604051808303816000875af1158015610788573d6000803e3d6000fd5b505050506040513d601f19601f820116820180604052508101906107ac9190611300565b5050565b600080600b54426107c19190611388565b9050600a548111156107d25750600a545b8260000361081157600a548160076000815481106107f2576107f26112d1565b9060005260206000200154610807919061139f565b61034691906113be565b8260010361083157600a548160076001815481106107f2576107f26112d1565b8260020361085157600a548160076002815481106107f2576107f26112d1565b50600092915050565b600080600260009054906101000a90046001600160a01b03166001600160a01b03166318160ddd6040518163ffffffff1660e01b8152600401602060405180830381865afa1580156108b0573d6000803e3d6000fd5b505050506040513d601f19601f820116820180604052508101906108d491906112e7565b600260009054906101000a90046001600160a01b03166001600160a01b031663f03d66726040518163ffffffff1660e01b8152600401602060405180830381865afa158015610927573d6000803e3d6000fd5b505050506040513d601f19601f8201168201806040525081019061094b91906112e7565b6001546002546040516370a0823160e01b81526001600160a01b0391821660048201529116906370a0823190602401602060405180830381865afa158015610997573d6000803e3d6000fd5b505050506040513d601f19601f820116820180604052508101906109bb91906112e7565b6109c59190611388565b6109d1906103cf61139f565b6109db91906113be565b6103ea9069021e19e0c9bab24000006113be565b6002546040516370a0823160e01b81523060048201526000916001600160a01b03169063afcf89aa9082906370a0823190602401602060405180830381865afa158015610a40573d6000803e3d6000fd5b505050506040513d601f19601f82011682018060405250810190610a6491906112e7565b6040518263ffffffff1660e01b8152600401610a8291815260200190565b602060405180830381865afa158015610a9f573d6000803e3d6000fd5b505050506040513d601f19601f82011682018060405250810190610ac391906112e7565b8211610b265760405162461bcd60e51b815260206004820152602c60248201527f6d7573742062652067726561746572207468616e2070726576696f757320746f60448201526b1d185b081d1bc81c995cd95d60a21b606482015260840161058d565b6001546040516323b872dd60e01b8152336004820152306024820152604481018490526001600160a01b03909116906323b872dd906064016020604051808303816000875af1158015610b7d573d6000803e3d6000fd5b505050506040513d601f19601f82011682018060405250810190610ba19190611300565b610bdd5760405162461bcd60e51b815260206004820152600d60248201526c1d1c985b9cd9995c8819985a5b609a1b604482015260640161058d565b42600b5560015460025460405163095ea7b360e01b81526001600160a01b0391821660048201527502ac3a4edbbfb8014e3ba83411e915e7ffffffffffff602482015291169063095ea7b3906044016020604051808303816000875af1158015610c4b573d6000803e3d6000fd5b505050506040513d601f19601f82011682018060405250810190610c6f9190611300565b506002546040516305dc812160e31b8152306004820152602481018490526001600160a01b0390911690632ee4090890604401600060405180830381600087803b158015610cbc57600080fd5b505af1158015610cd0573d6000803e3d6000fd5b505050506000610cde61085a565b9050610ceb81600a61139f565b6007600081548110610cff57610cff6112d1565b600091825260209091200155610d1681600361139f565b6007600181548110610d2a57610d2a6112d1565b600091825260209091200155610d4181600161139f565b6007600281548110610d5557610d556112d1565b60009182526020909120015550600192915050565b6003818154811061035d57600080fd5b6004546040516001600160601b03193360601b166020820152610da19183916034016102e0565b610dbd5760405162461bcd60e51b815260040161058d90611322565b3360009081526009602052604090205460ff1615610ded5760405162461bcd60e51b815260040161058d90611349565b336000818152600960205260409020805460ff1916600190811790915580546001600160a01b03169163a9059cbb9161073d906107b0565b610e3083338461028f565b610e4c5760405162461bcd60e51b815260040161058d90611322565b3360009081526009602052604090205460ff1615610e7c5760405162461bcd60e51b815260040161058d90611349565b336000908152600960205260409020805460ff191660011790556002546001600160a01b031663441a3e70610eb0846107b0565b836040518363ffffffff1660e01b8152600401610ed7929190918252602082015260400190565b600060405180830381600087803b158015610ef157600080fd5b505af1158015610f05573d6000803e3d6000fd5b50506001546040516370a0823160e01b81523060048201526001600160a01b03909116925063a9059cbb9150339083906370a0823190602401602060405180830381865afa158015610f5b573d6000803e3d6000fd5b505050506040513d601f19601f82011682018060405250810190610f7f91906112e7565b6040516001600160e01b031960e085901b1681526001600160a01b03909216600483015260248201526044016020604051808303816000875af1158015610fca573d6000803e3d6000fd5b505050506040513d601f19601f82011682018060405250810190610fee9190611300565b61103a5760405162461bcd60e51b815260206004820152601c60248201527f636f6e7472616374206d6179206265206f7574206f662066756e647300000000604482015260640161058d565b505050565b600081815b85518110156110e3576000868281518110611061576110616112d1565b602002602001015190508083116110a35760408051602081018590529081018290526060016040516020818303038152906040528051906020012092506110d0565b60408051602081018390529081018490526060016040516020818303038152906040528051906020012092505b50806110db816113e0565b915050611044565b509092149392505050565b634e487b7160e01b600052604160045260246000fd5b600082601f83011261111557600080fd5b8135602067ffffffffffffffff80831115611132576111326110ee565b8260051b604051601f19603f83011681018181108482111715611157576111576110ee565b60405293845285810183019383810192508785111561117557600080fd5b83870191505b848210156111945781358352918301919083019061117b565b979650505050505050565b80356001600160a01b03811681146111b657600080fd5b919050565b6000806000606084860312156111d057600080fd5b833567ffffffffffffffff8111156111e757600080fd5b6111f386828701611104565b9350506112026020850161119f565b9150604084013590509250925092565b60006020828403121561122457600080fd5b5035919050565b60006020828403121561123d57600080fd5b6103468261119f565b60006020828403121561125857600080fd5b813567ffffffffffffffff81111561126f57600080fd5b61127b84828501611104565b949350505050565b60008060006060848603121561129857600080fd5b833567ffffffffffffffff8111156112af57600080fd5b6112bb86828701611104565b9660208601359650604090950135949350505050565b634e487b7160e01b600052603260045260246000fd5b6000602082840312156112f957600080fd5b5051919050565b60006020828403121561131257600080fd5b8151801515811461034657600080fd5b6020808252600d908201526c70726f6f66206661696c75726560981b604082015260600190565b6020808252600f908201526e185b1c9958591e4818db185a5b5959608a1b604082015260600190565b634e487b7160e01b600052601160045260246000fd5b60008282101561139a5761139a611372565b500390565b60008160001904831182151516156113b9576113b9611372565b500290565b6000826113db57634e487b7160e01b600052601260045260246000fd5b500490565b6000600182016113f2576113f2611372565b506001019056fea2646970667358221220a2b7bacdead7125e500bd4bec61d04903177f1069e095060a409b627c4c8a39564736f6c634300080e0033",
  "bytecodeSha1": "0f887fbe0148770cb830c28445eb568356deb6c7",
  "compiler": {
    "evm_version": "istanbul",
    "optimizer": {
      "enabled": true,
      "runs": 200
    },
    "version": "0.8.14+commit.80d49f37"
  },
  "contractName": "ForgeAirdrop",
  "language": "Solidity",
  "natspec": {
    "kind": "dev",
    "methods": {},
    "version": 1
  },
  "opcodes": "PUSH1 0x80 PUSH1 0x40 MSTORE CALLVALUE DUP1 ISZERO PUSH2 0x10 JUMPI PUSH1 0x0 DUP1 REVERT JUMPDEST POP PUSH1 0x4 CALLDATASIZE LT PUSH2 0x116 JUMPI PUSH1 0x0 CALLDATALOAD PUSH1 0xE0 SHR DUP1 PUSH4 0x73B2E80E GT PUSH2 0xA2 JUMPI DUP1 PUSH4 0x8DA58897 GT PUSH2 0x71 JUMPI DUP1 PUSH4 0x8DA58897 EQ PUSH2 0x23A JUMPI DUP1 PUSH4 0xB6B55F25 EQ PUSH2 0x243 JUMPI DUP1 PUSH4 0xD49B9216 EQ PUSH2 0x256 JUMPI DUP1 PUSH4 0xF14DDABF EQ PUSH2 0x269 JUMPI DUP1 PUSH4 0xF5F21ACA EQ PUSH2 0x27C JUMPI PUSH1 0x0 DUP1 REVERT JUMPDEST DUP1 PUSH4 0x73B2E80E EQ PUSH2 0x1E7 JUMPI DUP1 PUSH4 0x75C53C04 EQ PUSH2 0x20A JUMPI DUP1 PUSH4 0x75FE9FBA EQ PUSH2 0x21F JUMPI DUP1 PUSH4 0x8912ED0B EQ PUSH2 0x232 JUMPI PUSH1 0x0 DUP1 REVERT JUMPDEST DUP1 PUSH4 0x4AD6D3CD GT PUSH2 0xE9 JUMPI DUP1 PUSH4 0x4AD6D3CD EQ PUSH2 0x17A JUMPI DUP1 PUSH4 0x54FAC919 EQ PUSH2 0x18D JUMPI DUP1 PUSH4 0x5B9EA9E5 EQ PUSH2 0x196 JUMPI DUP1 PUSH4 0x60138460 EQ PUSH2 0x1C1 JUMPI DUP1 PUSH4 0x647E03B7 EQ PUSH2 0x1D4 JUMPI PUSH1 0x0 DUP1 REVERT JUMPDEST DUP1 PUSH4 0x4B38CE0 EQ PUSH2 0x11B JUMPI DUP1 PUSH4 0xE2F5FB3 EQ PUSH2 0x143 JUMPI DUP1 PUSH4 0x290812C2 EQ PUSH2 0x154 JUMPI DUP1 PUSH4 0x2D8590C7 EQ PUSH2 0x167 JUMPI JUMPDEST PUSH1 0x0 DUP1 REVERT JUMPDEST PUSH2 0x12E PUSH2 0x129 CALLDATASIZE PUSH1 0x4 PUSH2 0x11BB JUMP JUMPDEST PUSH2 0x28F JUMP JUMPDEST PUSH1 0x40 MLOAD SWAP1 ISZERO ISZERO DUP2 MSTORE PUSH1 0x20 ADD JUMPDEST PUSH1 0x40 MLOAD DUP1 SWAP2 SUB SWAP1 RETURN JUMPDEST PUSH1 0x3 JUMPDEST PUSH1 0x40 MLOAD SWAP1 DUP2 MSTORE PUSH1 0x20 ADD PUSH2 0x13A JUMP JUMPDEST PUSH2 0x146 PUSH2 0x162 CALLDATASIZE PUSH1 0x4 PUSH2 0x1212 JUMP JUMPDEST PUSH2 0x34D JUMP JUMPDEST PUSH2 0x146 PUSH2 0x175 CALLDATASIZE PUSH1 0x4 PUSH2 0x1212 JUMP JUMPDEST PUSH2 0x36E JUMP JUMPDEST PUSH2 0x12E PUSH2 0x188 CALLDATASIZE PUSH1 0x4 PUSH2 0x1212 JUMP JUMPDEST PUSH2 0x3F0 JUMP JUMPDEST PUSH2 0x146 PUSH1 0xA SLOAD DUP2 JUMP JUMPDEST PUSH1 0x0 SLOAD PUSH2 0x1A9 SWAP1 PUSH1 0x1 PUSH1 0x1 PUSH1 0xA0 SHL SUB AND DUP2 JUMP JUMPDEST PUSH1 0x40 MLOAD PUSH1 0x1 PUSH1 0x1 PUSH1 0xA0 SHL SUB SWAP1 SWAP2 AND DUP2 MSTORE PUSH1 0x20 ADD PUSH2 0x13A JUMP JUMPDEST PUSH1 0x2 SLOAD PUSH2 0x1A9 SWAP1 PUSH1 0x1 PUSH1 0x1 PUSH1 0xA0 SHL SUB AND DUP2 JUMP JUMPDEST PUSH1 0x1 SLOAD PUSH2 0x1A9 SWAP1 PUSH1 0x1 PUSH1 0x1 PUSH1 0xA0 SHL SUB AND DUP2 JUMP JUMPDEST PUSH2 0x12E PUSH2 0x1F5 CALLDATASIZE PUSH1 0x4 PUSH2 0x122B JUMP JUMPDEST PUSH1 0x9 PUSH1 0x20 MSTORE PUSH1 0x0 SWAP1 DUP2 MSTORE PUSH1 0x40 SWAP1 KECCAK256 SLOAD PUSH1 0xFF AND DUP2 JUMP JUMPDEST PUSH2 0x21D PUSH2 0x218 CALLDATASIZE PUSH1 0x4 PUSH2 0x1246 JUMP JUMPDEST PUSH2 0x692 JUMP JUMPDEST STOP JUMPDEST PUSH2 0x146 PUSH2 0x22D CALLDATASIZE PUSH1 0x4 PUSH2 0x1212 JUMP JUMPDEST PUSH2 0x7B0 JUMP JUMPDEST PUSH2 0x146 PUSH2 0x85A JUMP JUMPDEST PUSH2 0x146 PUSH1 0xB SLOAD DUP2 JUMP JUMPDEST PUSH2 0x12E PUSH2 0x251 CALLDATASIZE PUSH1 0x4 PUSH2 0x1212 JUMP JUMPDEST PUSH2 0x9EF JUMP JUMPDEST PUSH2 0x146 PUSH2 0x264 CALLDATASIZE PUSH1 0x4 PUSH2 0x1212 JUMP JUMPDEST PUSH2 0xD6A JUMP JUMPDEST PUSH2 0x21D PUSH2 0x277 CALLDATASIZE PUSH1 0x4 PUSH2 0x1246 JUMP JUMPDEST PUSH2 0xD7A JUMP JUMPDEST PUSH2 0x21D PUSH2 0x28A CALLDATASIZE PUSH1 0x4 PUSH2 0x1283 JUMP JUMPDEST PUSH2 0xE25 JUMP JUMPDEST PUSH1 0x0 DUP2 PUSH1 0x0 SUB PUSH2 0x302 JUMPI PUSH2 0x2FB DUP5 PUSH1 0x3 PUSH1 0x0 DUP2 SLOAD DUP2 LT PUSH2 0x2B1 JUMPI PUSH2 0x2B1 PUSH2 0x12D1 JUMP JUMPDEST SWAP1 PUSH1 0x0 MSTORE PUSH1 0x20 PUSH1 0x0 KECCAK256 ADD SLOAD DUP6 PUSH1 0x40 MLOAD PUSH1 0x20 ADD PUSH2 0x2E0 SWAP2 SWAP1 PUSH1 0x60 SWAP2 SWAP1 SWAP2 SHL PUSH1 0x1 PUSH1 0x1 PUSH1 0x60 SHL SUB NOT AND DUP2 MSTORE PUSH1 0x14 ADD SWAP1 JUMP JUMPDEST PUSH1 0x40 MLOAD PUSH1 0x20 DUP2 DUP4 SUB SUB DUP2 MSTORE SWAP1 PUSH1 0x40 MSTORE DUP1 MLOAD SWAP1 PUSH1 0x20 ADD KECCAK256 PUSH2 0x103F JUMP JUMPDEST SWAP1 POP PUSH2 0x346 JUMP JUMPDEST DUP2 PUSH1 0x1 SUB PUSH2 0x322 JUMPI PUSH2 0x2FB DUP5 PUSH1 0x3 PUSH1 0x1 DUP2 SLOAD DUP2 LT PUSH2 0x2B1 JUMPI PUSH2 0x2B1 PUSH2 0x12D1 JUMP JUMPDEST DUP2 PUSH1 0x2 SUB PUSH2 0x342 JUMPI PUSH2 0x2FB DUP5 PUSH1 0x3 PUSH1 0x2 DUP2 SLOAD DUP2 LT PUSH2 0x2B1 JUMPI PUSH2 0x2B1 PUSH2 0x12D1 JUMP JUMPDEST POP PUSH1 0x0 JUMPDEST SWAP4 SWAP3 POP POP POP JUMP JUMPDEST PUSH1 0x7 DUP2 DUP2 SLOAD DUP2 LT PUSH2 0x35D JUMPI PUSH1 0x0 DUP1 REVERT JUMPDEST PUSH1 0x0 SWAP2 DUP3 MSTORE PUSH1 0x20 SWAP1 SWAP2 KECCAK256 ADD SLOAD SWAP1 POP DUP2 JUMP JUMPDEST PUSH1 0x2 SLOAD PUSH1 0x0 SWAP1 PUSH1 0x1 PUSH1 0x1 PUSH1 0xA0 SHL SUB AND PUSH4 0xAFCF89AA PUSH2 0x38B DUP5 PUSH2 0x7B0 JUMP JUMPDEST PUSH1 0x40 MLOAD DUP3 PUSH4 0xFFFFFFFF AND PUSH1 0xE0 SHL DUP2 MSTORE PUSH1 0x4 ADD PUSH2 0x3A9 SWAP2 DUP2 MSTORE PUSH1 0x20 ADD SWAP1 JUMP JUMPDEST PUSH1 0x20 PUSH1 0x40 MLOAD DUP1 DUP4 SUB DUP2 DUP7 GAS STATICCALL ISZERO DUP1 ISZERO PUSH2 0x3C6 JUMPI RETURNDATASIZE PUSH1 0x0 DUP1 RETURNDATACOPY RETURNDATASIZE PUSH1 0x0 REVERT JUMPDEST POP POP POP POP PUSH1 0x40 MLOAD RETURNDATASIZE PUSH1 0x1F NOT PUSH1 0x1F DUP3 ADD AND DUP3 ADD DUP1 PUSH1 0x40 MSTORE POP DUP2 ADD SWAP1 PUSH2 0x3EA SWAP2 SWAP1 PUSH2 0x12E7 JUMP JUMPDEST SWAP3 SWAP2 POP POP JUMP JUMPDEST PUSH1 0x2 SLOAD PUSH1 0x40 MLOAD PUSH4 0x70A08231 PUSH1 0xE0 SHL DUP2 MSTORE ADDRESS PUSH1 0x4 DUP3 ADD MSTORE PUSH1 0x0 SWAP2 PUSH1 0x1 PUSH1 0x1 PUSH1 0xA0 SHL SUB AND SWAP1 PUSH4 0xAFCF89AA SWAP1 DUP3 SWAP1 PUSH4 0x70A08231 SWAP1 PUSH1 0x24 ADD PUSH1 0x20 PUSH1 0x40 MLOAD DUP1 DUP4 SUB DUP2 DUP7 GAS STATICCALL ISZERO DUP1 ISZERO PUSH2 0x441 JUMPI RETURNDATASIZE PUSH1 0x0 DUP1 RETURNDATACOPY RETURNDATASIZE PUSH1 0x0 REVERT JUMPDEST POP POP POP POP PUSH1 0x40 MLOAD RETURNDATASIZE PUSH1 0x1F NOT PUSH1 0x1F DUP3 ADD AND DUP3 ADD DUP1 PUSH1 0x40 MSTORE POP DUP2 ADD SWAP1 PUSH2 0x465 SWAP2 SWAP1 PUSH2 0x12E7 JUMP JUMPDEST PUSH1 0x40 MLOAD DUP3 PUSH4 0xFFFFFFFF AND PUSH1 0xE0 SHL DUP2 MSTORE PUSH1 0x4 ADD PUSH2 0x483 SWAP2 DUP2 MSTORE PUSH1 0x20 ADD SWAP1 JUMP JUMPDEST PUSH1 0x20 PUSH1 0x40 MLOAD DUP1 DUP4 SUB DUP2 DUP7 GAS STATICCALL ISZERO DUP1 ISZERO PUSH2 0x4A0 JUMPI RETURNDATASIZE PUSH1 0x0 DUP1 RETURNDATACOPY RETURNDATASIZE PUSH1 0x0 REVERT JUMPDEST POP POP POP POP PUSH1 0x40 MLOAD RETURNDATASIZE PUSH1 0x1F NOT PUSH1 0x1F DUP3 ADD AND DUP3 ADD DUP1 PUSH1 0x40 MSTORE POP DUP2 ADD SWAP1 PUSH2 0x4C4 SWAP2 SWAP1 PUSH2 0x12E7 JUMP JUMPDEST DUP3 GT ISZERO PUSH2 0x4DA JUMPI PUSH2 0x4D4 DUP3 PUSH2 0x9EF JUMP JUMPDEST POP PUSH2 0x68A JUMP JUMPDEST PUSH1 0x1 SLOAD PUSH1 0x40 MLOAD PUSH4 0x23B872DD PUSH1 0xE0 SHL DUP2 MSTORE CALLER PUSH1 0x4 DUP3 ADD MSTORE ADDRESS PUSH1 0x24 DUP3 ADD MSTORE PUSH1 0x44 DUP2 ADD DUP5 SWAP1 MSTORE PUSH1 0x1 PUSH1 0x1 PUSH1 0xA0 SHL SUB SWAP1 SWAP2 AND SWAP1 PUSH4 0x23B872DD SWAP1 PUSH1 0x64 ADD PUSH1 0x20 PUSH1 0x40 MLOAD DUP1 DUP4 SUB DUP2 PUSH1 0x0 DUP8 GAS CALL ISZERO DUP1 ISZERO PUSH2 0x531 JUMPI RETURNDATASIZE PUSH1 0x0 DUP1 RETURNDATACOPY RETURNDATASIZE PUSH1 0x0 REVERT JUMPDEST POP POP POP POP PUSH1 0x40 MLOAD RETURNDATASIZE PUSH1 0x1F NOT PUSH1 0x1F DUP3 ADD AND DUP3 ADD DUP1 PUSH1 0x40 MSTORE POP DUP2 ADD SWAP1 PUSH2 0x555 SWAP2 SWAP1 PUSH2 0x1300 JUMP JUMPDEST PUSH2 0x596 JUMPI PUSH1 0x40 MLOAD PUSH3 0x461BCD PUSH1 0xE5 SHL DUP2 MSTORE PUSH1 0x20 PUSH1 0x4 DUP3 ADD MSTORE PUSH1 0xD PUSH1 0x24 DUP3 ADD MSTORE PUSH13 0x1D1C985B9CD9995C8819985A5B PUSH1 0x9A SHL PUSH1 0x44 DUP3 ADD MSTORE PUSH1 0x64 ADD JUMPDEST PUSH1 0x40 MLOAD DUP1 SWAP2 SUB SWAP1 REVERT JUMPDEST PUSH1 0x1 SLOAD PUSH1 0x2 SLOAD PUSH1 0x40 MLOAD PUSH4 0x95EA7B3 PUSH1 0xE0 SHL DUP2 MSTORE PUSH1 0x1 PUSH1 0x1 PUSH1 0xA0 SHL SUB SWAP2 DUP3 AND PUSH1 0x4 DUP3 ADD MSTORE PUSH22 0x2AC3A4EDBBFB8014E3BA83411E915E7FFFFFFFFFFFF PUSH1 0x24 DUP3 ADD MSTORE SWAP2 AND SWAP1 PUSH4 0x95EA7B3 SWAP1 PUSH1 0x44 ADD PUSH1 0x20 PUSH1 0x40 MLOAD DUP1 DUP4 SUB DUP2 PUSH1 0x0 DUP8 GAS CALL ISZERO DUP1 ISZERO PUSH2 0x600 JUMPI RETURNDATASIZE PUSH1 0x0 DUP1 RETURNDATACOPY RETURNDATASIZE PUSH1 0x0 REVERT JUMPDEST POP POP POP POP PUSH1 0x40 MLOAD RETURNDATASIZE PUSH1 0x1F NOT PUSH1 0x1F DUP3 ADD AND DUP3 ADD DUP1 PUSH1 0x40 MSTORE POP DUP2 ADD SWAP1 PUSH2 0x624 SWAP2 SWAP1 PUSH2 0x1300 JUMP JUMPDEST POP PUSH1 0x2 SLOAD PUSH1 0x40 MLOAD PUSH4 0x5DC8121 PUSH1 0xE3 SHL DUP2 MSTORE ADDRESS PUSH1 0x4 DUP3 ADD MSTORE PUSH1 0x24 DUP2 ADD DUP5 SWAP1 MSTORE PUSH1 0x1 PUSH1 0x1 PUSH1 0xA0 SHL SUB SWAP1 SWAP2 AND SWAP1 PUSH4 0x2EE40908 SWAP1 PUSH1 0x44 ADD PUSH1 0x0 PUSH1 0x40 MLOAD DUP1 DUP4 SUB DUP2 PUSH1 0x0 DUP8 DUP1 EXTCODESIZE ISZERO DUP1 ISZERO PUSH2 0x671 JUMPI PUSH1 0x0 DUP1 REVERT JUMPDEST POP GAS CALL ISZERO DUP1 ISZERO PUSH2 0x685 JUMPI RETURNDATASIZE PUSH1 0x0 DUP1 RETURNDATACOPY RETURNDATASIZE PUSH1 0x0 REVERT JUMPDEST POP POP POP POP JUMPDEST POP PUSH1 0x1 SWAP2 SWAP1 POP JUMP JUMPDEST PUSH1 0x5 SLOAD PUSH1 0x40 MLOAD PUSH1 0x1 PUSH1 0x1 PUSH1 0x60 SHL SUB NOT CALLER PUSH1 0x60 SHL AND PUSH1 0x20 DUP3 ADD MSTORE PUSH2 0x6B9 SWAP2 DUP4 SWAP2 PUSH1 0x34 ADD PUSH2 0x2E0 JUMP JUMPDEST PUSH2 0x6D5 JUMPI PUSH1 0x40 MLOAD PUSH3 0x461BCD PUSH1 0xE5 SHL DUP2 MSTORE PUSH1 0x4 ADD PUSH2 0x58D SWAP1 PUSH2 0x1322 JUMP JUMPDEST CALLER PUSH1 0x0 SWAP1 DUP2 MSTORE PUSH1 0x9 PUSH1 0x20 MSTORE PUSH1 0x40 SWAP1 KECCAK256 SLOAD PUSH1 0xFF AND ISZERO PUSH2 0x705 JUMPI PUSH1 0x40 MLOAD PUSH3 0x461BCD PUSH1 0xE5 SHL DUP2 MSTORE PUSH1 0x4 ADD PUSH2 0x58D SWAP1 PUSH2 0x1349 JUMP JUMPDEST CALLER PUSH1 0x0 DUP2 DUP2 MSTORE PUSH1 0x9 PUSH1 0x20 MSTORE PUSH1 0x40 SWAP1 KECCAK256 DUP1 SLOAD PUSH1 0xFF NOT AND PUSH1 0x1 SWAP1 DUP2 OR SWAP1 SWAP2 SSTORE SLOAD PUSH1 0x1 PUSH1 0x1 PUSH1 0xA0 SHL SUB AND SWAP1 PUSH4 0xA9059CBB SWAP1 PUSH2 0x73D PUSH1 0x2 PUSH2 0x7B0 JUMP JUMPDEST PUSH1 0x40 MLOAD PUSH1 0x1 PUSH1 0x1 PUSH1 0xE0 SHL SUB NOT PUSH1 0xE0 DUP6 SWAP1 SHL AND DUP2 MSTORE PUSH1 0x1 PUSH1 0x1 PUSH1 0xA0 SHL SUB SWAP1 SWAP3 AND PUSH1 0x4 DUP4 ADD MSTORE PUSH1 0x24 DUP3 ADD MSTORE PUSH1 0x44 ADD PUSH1 0x20 PUSH1 0x40 MLOAD DUP1 DUP4 SUB DUP2 PUSH1 0x0 DUP8 GAS CALL ISZERO DUP1 ISZERO PUSH2 0x788 JUMPI RETURNDATASIZE PUSH1 0x0 DUP1 RETURNDATACOPY RETURNDATASIZE PUSH1 0x0 REVERT JUMPDEST POP POP POP POP PUSH1 0x40 MLOAD RETURNDATASIZE PUSH1 0x1F NOT PUSH1 0x1F DUP3 ADD AND DUP3 ADD DUP1 PUSH1 0x40 MSTORE POP DUP2 ADD SWAP1 PUSH2 0x7AC SWAP2 SWAP1 PUSH2 0x1300 JUMP JUMPDEST POP POP JUMP JUMPDEST PUSH1 0x0 DUP1 PUSH1 0xB SLOAD TIMESTAMP PUSH2 0x7C1 SWAP2 SWAP1 PUSH2 0x1388 JUMP JUMPDEST SWAP1 POP PUSH1 0xA SLOAD DUP2 GT ISZERO PUSH2 0x7D2 JUMPI POP PUSH1 0xA SLOAD JUMPDEST DUP3 PUSH1 0x0 SUB PUSH2 0x811 JUMPI PUSH1 0xA SLOAD DUP2 PUSH1 0x7 PUSH1 0x0 DUP2 SLOAD DUP2 LT PUSH2 0x7F2 JUMPI PUSH2 0x7F2 PUSH2 0x12D1 JUMP JUMPDEST SWAP1 PUSH1 0x0 MSTORE PUSH1 0x20 PUSH1 0x0 KECCAK256 ADD SLOAD PUSH2 0x807 SWAP2 SWAP1 PUSH2 0x139F JUMP JUMPDEST PUSH2 0x346 SWAP2 SWAP1 PUSH2 0x13BE JUMP JUMPDEST DUP3 PUSH1 0x1 SUB PUSH2 0x831 JUMPI PUSH1 0xA SLOAD DUP2 PUSH1 0x7 PUSH1 0x1 DUP2 SLOAD DUP2 LT PUSH2 0x7F2 JUMPI PUSH2 0x7F2 PUSH2 0x12D1 JUMP JUMPDEST DUP3 PUSH1 0x2 SUB PUSH2 0x851 JUMPI PUSH1 0xA SLOAD DUP2 PUSH1 0x7 PUSH1 0x2 DUP2 SLOAD DUP2 LT PUSH2 0x7F2 JUMPI PUSH2 0x7F2 PUSH2 0x12D1 JUMP JUMPDEST POP PUSH1 0x0 SWAP3 SWAP2 POP POP JUMP JUMPDEST PUSH1 0x0 DUP1 PUSH1 0x2 PUSH1 0x0 SWAP1 SLOAD SWAP1 PUSH2 0x100 EXP SWAP1 DIV PUSH1 0x1 PUSH1 0x1 PUSH1 0xA0 SHL SUB AND PUSH1 0x1 PUSH1 0x1 PUSH1 0xA0 SHL SUB AND PUSH4 0x18160DDD PUSH1 0x40 MLOAD DUP2 PUSH4 0xFFFFFFFF AND PUSH1 0xE0 SHL DUP2 MSTORE PUSH1 0x4 ADD PUSH1 0x20 PUSH1 0x40 MLOAD DUP1 DUP4 SUB DUP2 DUP7 GAS STATICCALL ISZERO DUP1 ISZERO PUSH2 0x8B0 JUMPI RETURNDATASIZE PUSH1 0x0 DUP1 RETURNDATACOPY RETURNDATASIZE PUSH1 0x0 REVERT JUMPDEST POP POP POP POP PUSH1 0x40 MLOAD RETURNDATASIZE PUSH1 0x1F NOT PUSH1 0x1F DUP3 ADD AND DUP3 ADD DUP1 PUSH1 0x40 MSTORE POP DUP2 ADD SWAP1 PUSH2 0x8D4 SWAP2 SWAP1 PUSH2 0x12E7 JUMP JUMPDEST PUSH1 0x2 PUSH1 0x0 SWAP1 SLOAD SWAP1 PUSH2 0x100 EXP SWAP1 DIV PUSH1 0x1 PUSH1 0x1 PUSH1 0xA0 SHL SUB AND PUSH1 0x1 PUSH1 0x1 PUSH1 0xA0 SHL SUB AND PUSH4 0xF03D6672 PUSH1 0x40 MLOAD DUP2 PUSH4 0xFFFFFFFF AND PUSH1 0xE0 SHL DUP2 MSTORE PUSH1 0x4 ADD PUSH1 0x20 PUSH1 0x40 MLOAD DUP1 DUP4 SUB DUP2 DUP7 GAS STATICCALL ISZERO DUP1 ISZERO PUSH2 0x927 JUMPI RETURNDATASIZE PUSH1 0x0 DUP1 RETURNDATACOPY RETURNDATASIZE PUSH1 0x0 REVERT JUMPDEST POP POP POP POP PUSH1 0x40 MLOAD RETURNDATASIZE PUSH1 0x1F NOT PUSH1 0x1F DUP3 ADD AND DUP3 ADD DUP1 PUSH1 0x40 MSTORE POP DUP2 ADD SWAP1 PUSH2 0x94B SWAP2 SWAP1 PUSH2 0x12E7 JUMP JUMPDEST PUSH1 0x1 SLOAD PUSH1 0x2 SLOAD PUSH1 0x40 MLOAD PUSH4 0x70A08231 PUSH1 0xE0 SHL DUP2 MSTORE PUSH1 0x1 PUSH1 0x1 PUSH1 0xA0 SHL SUB SWAP2 DUP3 AND PUSH1 0x4 DUP3 ADD MSTORE SWAP2 AND SWAP1 PUSH4 0x70A08231 SWAP1 PUSH1 0x24 ADD PUSH1 0x20 PUSH1 0x40 MLOAD DUP1 DUP4 SUB DUP2 DUP7 GAS STATICCALL ISZERO DUP1 ISZERO PUSH2 0x997 JUMPI RETURNDATASIZE PUSH1 0x0 DUP1 RETURNDATACOPY RETURNDATASIZE PUSH1 0x0 REVERT JUMPDEST POP POP POP POP PUSH1 0x40 MLOAD RETURNDATASIZE PUSH1 0x1F NOT PUSH1 0x1F DUP3 ADD AND DUP3 ADD DUP1 PUSH1 0x40 MSTORE POP DUP2 ADD SWAP1 PUSH2 0x9BB SWAP2 SWAP1 PUSH2 0x12E7 JUMP JUMPDEST PUSH2 0x9C5 SWAP2 SWAP1 PUSH2 0x1388 JUMP JUMPDEST PUSH2 0x9D1 SWAP1 PUSH2 0x3CF PUSH2 0x139F JUMP JUMPDEST PUSH2 0x9DB SWAP2 SWAP1 PUSH2 0x13BE JUMP JUMPDEST PUSH2 0x3EA SWAP1 PUSH10 0x21E19E0C9BAB2400000 PUSH2 0x13BE JUMP JUMPDEST PUSH1 0x2 SLOAD PUSH1 0x40 MLOAD PUSH4 0x70A08231 PUSH1 0xE0 SHL DUP2 MSTORE ADDRESS PUSH1 0x4 DUP3 ADD MSTORE PUSH1 0x0 SWAP2 PUSH1 0x1 PUSH1 0x1 PUSH1 0xA0 SHL SUB AND SWAP1 PUSH4 0xAFCF89AA SWAP1 DUP3 SWAP1 PUSH4 0x70A08231 SWAP1 PUSH1 0x24 ADD PUSH1 0x20 PUSH1 0x40 MLOAD DUP1 DUP4 SUB DUP2 DUP7 GAS STATICCALL ISZERO DUP1 ISZERO PUSH2 0xA40 JUMPI RETURNDATASIZE PUSH1 0x0 DUP1 RETURNDATACOPY RETURNDATASIZE PUSH1 0x0 REVERT JUMPDEST POP POP POP POP PUSH1 0x40 MLOAD RETURNDATASIZE PUSH1 0x1F NOT PUSH1 0x1F DUP3 ADD AND DUP3 ADD DUP1 PUSH1 0x40 MSTORE POP DUP2 ADD SWAP1 PUSH2 0xA64 SWAP2 SWAP1 PUSH2 0x12E7 JUMP JUMPDEST PUSH1 0x40 MLOAD DUP3 PUSH4 0xFFFFFFFF AND PUSH1 0xE0 SHL DUP2 MSTORE PUSH1 0x4 ADD PUSH2 0xA82 SWAP2 DUP2 MSTORE PUSH1 0x20 ADD SWAP1 JUMP JUMPDEST PUSH1 0x20 PUSH1 0x40 MLOAD DUP1 DUP4 SUB DUP2 DUP7 GAS STATICCALL ISZERO DUP1 ISZERO PUSH2 0xA9F JUMPI RETURNDATASIZE PUSH1 0x0 DUP1 RETURNDATACOPY RETURNDATASIZE PUSH1 0x0 REVERT JUMPDEST POP POP POP POP PUSH1 0x40 MLOAD RETURNDATASIZE PUSH1 0x1F NOT PUSH1 0x1F DUP3 ADD AND DUP3 ADD DUP1 PUSH1 0x40 MSTORE POP DUP2 ADD SWAP1 PUSH2 0xAC3 SWAP2 SWAP1 PUSH2 0x12E7 JUMP JUMPDEST DUP3 GT PUSH2 0xB26 JUMPI PUSH1 0x40 MLOAD PUSH3 0x461BCD PUSH1 0xE5 SHL DUP2 MSTORE PUSH1 0x20 PUSH1 0x4 DUP3 ADD MSTORE PUSH1 0x2C PUSH1 0x24 DUP3 ADD MSTORE PUSH32 0x6D7573742062652067726561746572207468616E2070726576696F757320746F PUSH1 0x44 DUP3 ADD MSTORE PUSH12 0x1D185B081D1BC81C995CD95D PUSH1 0xA2 SHL PUSH1 0x64 DUP3 ADD MSTORE PUSH1 0x84 ADD PUSH2 0x58D JUMP JUMPDEST PUSH1 0x1 SLOAD PUSH1 0x40 MLOAD PUSH4 0x23B872DD PUSH1 0xE0 SHL DUP2 MSTORE CALLER PUSH1 0x4 DUP3 ADD MSTORE ADDRESS PUSH1 0x24 DUP3 ADD MSTORE PUSH1 0x44 DUP2 ADD DUP5 SWAP1 MSTORE PUSH1 0x1 PUSH1 0x1 PUSH1 0xA0 SHL SUB SWAP1 SWAP2 AND SWAP1 PUSH4 0x23B872DD SWAP1 PUSH1 0x64 ADD PUSH1 0x20 PUSH1 0x40 MLOAD DUP1 DUP4 SUB DUP2 PUSH1 0x0 DUP8 GAS CALL ISZERO DUP1 ISZERO PUSH2 0xB7D JUMPI RETURNDATASIZE PUSH1 0x0 DUP1 RETURNDATACOPY RETURNDATASIZE PUSH1 0x0 REVERT JUMPDEST POP POP POP POP PUSH1 0x40 MLOAD RETURNDATASIZE PUSH1 0x1F NOT PUSH1 0x1F DUP3 ADD AND DUP3 ADD DUP1 PUSH1 0x40 MSTORE POP DUP2 ADD SWAP1 PUSH2 0xBA1 SWAP2 SWAP1 PUSH2 0x1300 JUMP JUMPDEST PUSH2 0xBDD JUMPI PUSH1 0x40 MLOAD PUSH3 0x461BCD PUSH1 0xE5 SHL DUP2 MSTORE PUSH1 0x20 PUSH1 0x4 DUP3 ADD MSTORE PUSH1 0xD PUSH1 0x24 DUP3 ADD MSTORE PUSH13 0x1D1C985B9CD9995C8819985A5B PUSH1 0x9A SHL PUSH1 0x44 DUP3 ADD MSTORE PUSH1 0x64 ADD PUSH2 0x58D JUMP JUMPDEST TIMESTAMP PUSH1 0xB SSTORE PUSH1 0x1 SLOAD PUSH1 0x2 SLOAD PUSH1 0x40 MLOAD PUSH4 0x95EA7B3 PUSH1 0xE0 SHL DUP2 MSTORE PUSH1 0x1 PUSH1 0x1 PUSH1 0xA0 SHL SUB SWAP2 DUP3 AND PUSH1 0x4 DUP3 ADD MSTORE PUSH22 0x2AC3A4EDBBFB8014E3BA83411E915E7FFFFFFFFFFFF PUSH1 0x24 DUP3 ADD MSTORE SWAP2 AND SWAP1 PUSH4 0x95EA7B3 SWAP1 PUSH1 0x44 ADD PUSH1 0x20 PUSH1 0x40 MLOAD DUP1 DUP4 SUB DUP2 PUSH1 0x0 DUP8 GAS CALL ISZERO DUP1 ISZERO PUSH2 0xC4B JUMPI RETURNDATASIZE PUSH1 0x0 DUP1 RETURNDATACOPY RETURNDATASIZE PUSH1 0x0 REVERT JUMPDEST POP POP POP POP PUSH1 0x40 MLOAD RETURNDATASIZE PUSH1 0x1F NOT PUSH1 0x1F DUP3 ADD AND DUP3 ADD DUP1 PUSH1 0x40 MSTORE POP DUP2 ADD SWAP1 PUSH2 0xC6F SWAP2 SWAP1 PUSH2 0x1300 JUMP JUMPDEST POP PUSH1 0x2 SLOAD PUSH1 0x40 MLOAD PUSH4 0x5DC8121 PUSH1 0xE3 SHL DUP2 MSTORE ADDRESS PUSH1 0x4 DUP3 ADD MSTORE PUSH1 0x24 DUP2 ADD DUP5 SWAP1 MSTORE PUSH1 0x1 PUSH1 0x1 PUSH1 0xA0 SHL SUB SWAP1 SWAP2 AND SWAP1 PUSH4 0x2EE40908 SWAP1 PUSH1 0x44 ADD PUSH1 0x0 PUSH1 0x40 MLOAD DUP1 DUP4 SUB DUP2 PUSH1 0x0 DUP8 DUP1 EXTCODESIZE ISZERO DUP1 ISZERO PUSH2 0xCBC JUMPI PUSH1 0x0 DUP1 REVERT JUMPDEST POP GAS CALL ISZERO DUP1 ISZERO PUSH2 0xCD0 JUMPI RETURNDATASIZE PUSH1 0x0 DUP1 RETURNDATACOPY RETURNDATASIZE PUSH1 0x0 REVERT JUMPDEST POP POP POP POP PUSH1 0x0 PUSH2 0xCDE PUSH2 0x85A JUMP JUMPDEST SWAP1 POP PUSH2 0xCEB DUP2 PUSH1 0xA PUSH2 0x139F JUMP JUMPDEST PUSH1 0x7 PUSH1 0x0 DUP2 SLOAD DUP2 LT PUSH2 0xCFF JUMPI PUSH2 0xCFF PUSH2 0x12D1 JUMP JUMPDEST PUSH1 0x0 SWAP2 DUP3 MSTORE PUSH1 0x20 SWAP1 SWAP2 KECCAK256 ADD SSTORE PUSH2 0xD16 DUP2 PUSH1 0x3 PUSH2 0x139F JUMP JUMPDEST PUSH1 0x7 PUSH1 0x1 DUP2 SLOAD DUP2 LT PUSH2 0xD2A JUMPI PUSH2 0xD2A PUSH2 0x12D1 JUMP JUMPDEST PUSH1 0x0 SWAP2 DUP3 MSTORE PUSH1 0x20 SWAP1 SWAP2 KECCAK256 ADD SSTORE PUSH2 0xD41 DUP2 PUSH1 0x1 PUSH2 0x139F JUMP JUMPDEST PUSH1 0x7 PUSH1 0x2 DUP2 SLOAD DUP2 LT PUSH2 0xD55 JUMPI PUSH2 0xD55 PUSH2 0x12D1 JUMP JUMPDEST PUSH1 0x0 SWAP2 DUP3 MSTORE PUSH1 0x20 SWAP1 SWAP2 KECCAK256 ADD SSTORE POP PUSH1 0x1 SWAP3 SWAP2 POP POP JUMP JUMPDEST PUSH1 0x3 DUP2 DUP2 SLOAD DUP2 LT PUSH2 0x35D JUMPI PUSH1 0x0 DUP1 REVERT JUMPDEST PUSH1 0x4 SLOAD PUSH1 0x40 MLOAD PUSH1 0x1 PUSH1 0x1 PUSH1 0x60 SHL SUB NOT CALLER PUSH1 0x60 SHL AND PUSH1 0x20 DUP3 ADD MSTORE PUSH2 0xDA1 SWAP2 DUP4 SWAP2 PUSH1 0x34 ADD PUSH2 0x2E0 JUMP JUMPDEST PUSH2 0xDBD JUMPI PUSH1 0x40 MLOAD PUSH3 0x461BCD PUSH1 0xE5 SHL DUP2 MSTORE PUSH1 0x4 ADD PUSH2 0x58D SWAP1 PUSH2 0x1322 JUMP JUMPDEST CALLER PUSH1 0x0 SWAP1 DUP2 MSTORE PUSH1 0x9 PUSH1 0x20 MSTORE PUSH1 0x40 SWAP1 KECCAK256 SLOAD PUSH1 0xFF AND ISZERO PUSH2 0xDED JUMPI PUSH1 0x40 MLOAD PUSH3 0x461BCD PUSH1 0xE5 SHL DUP2 MSTORE PUSH1 0x4 ADD PUSH2 0x58D SWAP1 PUSH2 0x1349 JUMP JUMPDEST CALLER PUSH1 0x0 DUP2 DUP2 MSTORE PUSH1 0x9 PUSH1 0x20 MSTORE PUSH1 0x40 SWAP1 KECCAK256 DUP1 SLOAD PUSH1 0xFF NOT AND PUSH1 0x1 SWAP1 DUP2 OR SWAP1 SWAP2 SSTORE DUP1 SLOAD PUSH1 0x1 PUSH1 0x1 PUSH1 0xA0 SHL SUB AND SWAP2 PUSH4 0xA9059CBB SWAP2 PUSH2 0x73D SWAP1 PUSH2 0x7B0 JUMP JUMPDEST PUSH2 0xE30 DUP4 CALLER DUP5 PUSH2 0x28F JUMP JUMPDEST PUSH2 0xE4C JUMPI PUSH1 0x40 MLOAD PUSH3 0x461BCD PUSH1 0xE5 SHL DUP2 MSTORE PUSH1 0x4 ADD PUSH2 0x58D SWAP1 PUSH2 0x1322 JUMP JUMPDEST CALLER PUSH1 0x0 SWAP1 DUP2 MSTORE PUSH1 0x9 PUSH1 0x20 MSTORE PUSH1 0x40 SWAP1 KECCAK256 SLOAD PUSH1 0xFF AND ISZERO PUSH2 0xE7C JUMPI PUSH1 0x40 MLOAD PUSH3 0x461BCD PUSH1 0xE5 SHL DUP2 MSTORE PUSH1 0x4 ADD PUSH2 0x58D SWAP1 PUSH2 0x1349 JUMP JUMPDEST CALLER PUSH1 0x0 SWAP1 DUP2 MSTORE PUSH1 0x9 PUSH1 0x20 MSTORE PUSH1 0x40 SWAP1 KECCAK256 DUP1 SLOAD PUSH1 0xFF NOT AND PUSH1 0x1 OR SWAP1 SSTORE PUSH1 0x2 SLOAD PUSH1 0x1 PUSH1 0x1 PUSH1 0xA0 SHL SUB AND PUSH4 0x441A3E70 PUSH2 0xEB0 DUP5 PUSH2 0x7B0 JUMP JUMPDEST DUP4 PUSH1 0x40 MLOAD DUP4 PUSH4 0xFFFFFFFF AND PUSH1 0xE0 SHL DUP2 MSTORE PUSH1 0x4 ADD PUSH2 0xED7 SWAP3 SWAP2 SWAP1 SWAP2 DUP3 MSTORE PUSH1 0x20 DUP3 ADD MSTORE PUSH1 0x40 ADD SWAP1 JUMP JUMPDEST PUSH1 0x0 PUSH1 0x40 MLOAD DUP1 DUP4 SUB DUP2 PUSH1 0x0 DUP8 DUP1 EXTCODESIZE ISZERO DUP1 ISZERO PUSH2 0xEF1 JUMPI PUSH1 0x0 DUP1 REVERT JUMPDEST POP GAS CALL ISZERO DUP1 ISZERO PUSH2 0xF05 JUMPI RETURNDATASIZE PUSH1 0x0 DUP1 RETURNDATACOPY RETURNDATASIZE PUSH1 0x0 REVERT JUMPDEST POP POP PUSH1 0x1 SLOAD PUSH1 0x40 MLOAD PUSH4 0x70A08231 PUSH1 0xE0 SHL DUP2 MSTORE ADDRESS PUSH1 0x4 DUP3 ADD MSTORE PUSH1 0x1 PUSH1 0x1 PUSH1 0xA0 SHL SUB SWAP1 SWAP2 AND SWAP3 POP PUSH4 0xA9059CBB SWAP2 POP CALLER SWAP1 DUP4 SWAP1 PUSH4 0x70A08231 SWAP1 PUSH1 0x24 ADD PUSH1 0x20 PUSH1 0x40 MLOAD DUP1 DUP4 SUB DUP2 DUP7 GAS STATICCALL ISZERO DUP1 ISZERO PUSH2 0xF5B JUMPI RETURNDATASIZE PUSH1 0x0 DUP1 RETURNDATACOPY RETURNDATASIZE PUSH1 0x0 REVERT JUMPDEST POP POP POP POP PUSH1 0x40 MLOAD RETURNDATASIZE PUSH1 0x1F NOT PUSH1 0x1F DUP3 ADD AND DUP3 ADD DUP1 PUSH1 0x40 MSTORE POP DUP2 ADD SWAP1 PUSH2 0xF7F SWAP2 SWAP1 PUSH2 0x12E7 JUMP JUMPDEST PUSH1 0x40 MLOAD PUSH1 0x1 PUSH1 0x1 PUSH1 0xE0 SHL SUB NOT PUSH1 0xE0 DUP6 SWAP1 SHL AND DUP2 MSTORE PUSH1 0x1 PUSH1 0x1 PUSH1 0xA0 SHL SUB SWAP1 SWAP3 AND PUSH1 0x4 DUP4 ADD MSTORE PUSH1 0x24 DUP3 ADD MSTORE PUSH1 0x44 ADD PUSH1 0x20 PUSH1 0x40 MLOAD DUP1 DUP4 SUB DUP2 PUSH1 0x0 DUP8 GAS CALL ISZERO DUP1 ISZERO PUSH2 0xFCA JUMPI RETURNDATASIZE PUSH1 0x0 DUP1 RETURNDATACOPY RETURNDATASIZE PUSH1 0x0 REVERT JUMPDEST POP POP POP POP PUSH1 0x40 MLOAD RETURNDATASIZE PUSH1 0x1F NOT PUSH1 0x1F DUP3 ADD AND DUP3 ADD DUP1 PUSH1 0x40 MSTORE POP DUP2 ADD SWAP1 PUSH2 0xFEE SWAP2 SWAP1 PUSH2 0x1300 JUMP JUMPDEST PUSH2 0x103A JUMPI PUSH1 0x40 MLOAD PUSH3 0x461BCD PUSH1 0xE5 SHL DUP2 MSTORE PUSH1 0x20 PUSH1 0x4 DUP3 ADD MSTORE PUSH1 0x1C PUSH1 0x24 DUP3 ADD MSTORE PUSH32 0x636F6E7472616374206D6179206265206F7574206F662066756E647300000000 PUSH1 0x44 DUP3 ADD MSTORE PUSH1 0x64 ADD PUSH2 0x58D JUMP JUMPDEST POP POP POP JUMP JUMPDEST PUSH1 0x0 DUP2 DUP2 JUMPDEST DUP6 MLOAD DUP2 LT ISZERO PUSH2 0x10E3 JUMPI PUSH1 0x0 DUP7 DUP3 DUP2 MLOAD DUP2 LT PUSH2 0x1061 JUMPI PUSH2 0x1061 PUSH2 0x12D1 JUMP JUMPDEST PUSH1 0x20 MUL PUSH1 0x20 ADD ADD MLOAD SWAP1 POP DUP1 DUP4 GT PUSH2 0x10A3 JUMPI PUSH1 0x40 DUP1 MLOAD PUSH1 0x20 DUP2 ADD DUP6 SWAP1 MSTORE SWAP1 DUP2 ADD DUP3 SWAP1 MSTORE PUSH1 0x60 ADD PUSH1 0x40 MLOAD PUSH1 0x20 DUP2 DUP4 SUB SUB DUP2 MSTORE SWAP1 PUSH1 0x40 MSTORE DUP1 MLOAD SWAP1 PUSH1 0x20 ADD KECCAK256 SWAP3 POP PUSH2 0x10D0 JUMP JUMPDEST PUSH1 0x40 DUP1 MLOAD PUSH1 0x20 DUP2 ADD DUP4 SWAP1 MSTORE SWAP1 DUP2 ADD DUP5 SWAP1 MSTORE PUSH1 0x60 ADD PUSH1 0x40 MLOAD PUSH1 0x20 DUP2 DUP4 SUB SUB DUP2 MSTORE SWAP1 PUSH1 0x40 MSTORE DUP1 MLOAD SWAP1 PUSH1 0x20 ADD KECCAK256 SWAP3 POP JUMPDEST POP DUP1 PUSH2 0x10DB DUP2 PUSH2 0x13E0 JUMP JUMPDEST SWAP2 POP POP PUSH2 0x1044 JUMP JUMPDEST POP SWAP1 SWAP3 EQ SWAP4 SWAP3 POP POP POP JUMP JUMPDEST PUSH4 0x4E487B71 PUSH1 0xE0 SHL PUSH1 0x0 MSTORE PUSH1 0x41 PUSH1 0x4 MSTORE PUSH1 0x24 PUSH1 0x0 REVERT JUMPDEST PUSH1 0x0 DUP3 PUSH1 0x1F DUP4 ADD SLT PUSH2 0x1115 JUMPI PUSH1 0x0 DUP1 REVERT JUMPDEST DUP2 CALLDATALOAD PUSH1 0x20 PUSH8 0xFFFFFFFFFFFFFFFF DUP1 DUP4 GT ISZERO PUSH2 0x1132 JUMPI PUSH2 0x1132 PUSH2 0x10EE JUMP JUMPDEST DUP3 PUSH1 0x5 SHL PUSH1 0x40 MLOAD PUSH1 0x1F NOT PUSH1 0x3F DUP4 ADD AND DUP2 ADD DUP2 DUP2 LT DUP5 DUP3 GT OR ISZERO PUSH2 0x1157 JUMPI PUSH2 0x1157 PUSH2 0x10EE JUMP JUMPDEST PUSH1 0x40 MSTORE SWAP4 DUP5 MSTORE DUP6 DUP2 ADD DUP4 ADD SWAP4 DUP4 DUP2 ADD SWAP3 POP DUP8 DUP6 GT ISZERO PUSH2 0x1175 JUMPI PUSH1 0x0 DUP1 REVERT JUMPDEST DUP4 DUP8 ADD SWAP2 POP JUMPDEST DUP5 DUP3 LT ISZERO PUSH2 0x1194 JUMPI DUP2 CALLDATALOAD DUP4 MSTORE SWAP2 DUP4 ADD SWAP2 SWAP1 DUP4 ADD SWAP1 PUSH2 0x117B JUMP JUMPDEST SWAP8 SWAP7 POP POP POP POP POP POP POP JUMP JUMPDEST DUP1 CALLDATALOAD PUSH1 0x1 PUSH1 0x1 PUSH1 0xA0 SHL SUB DUP2 AND DUP2 EQ PUSH2 0x11B6 JUMPI PUSH1 0x0 DUP1 REVERT JUMPDEST SWAP2 SWAP1 POP JUMP JUMPDEST PUSH1 0x0 DUP1 PUSH1 0x0 PUSH1 0x60 DUP5 DUP7 SUB SLT ISZERO PUSH2 0x11D0 JUMPI PUSH1 0x0 DUP1 REVERT JUMPDEST DUP4 CALLDATALOAD PUSH8 0xFFFFFFFFFFFFFFFF DUP2 GT ISZERO PUSH2 0x11E7 JUMPI PUSH1 0x0 DUP1 REVERT JUMPDEST PUSH2 0x11F3 DUP7 DUP3 DUP8 ADD PUSH2 0x1104 JUMP JUMPDEST SWAP4 POP POP PUSH2 0x1202 PUSH1 0x20 DUP6 ADD PUSH2 0x119F JUMP JUMPDEST SWAP2 POP PUSH1 0x40 DUP5 ADD CALLDATALOAD SWAP1 POP SWAP3 POP SWAP3 POP SWAP3 JUMP JUMPDEST PUSH1 0x0 PUSH1 0x20 DUP3 DUP5 SUB SLT ISZERO PUSH2 0x1224 JUMPI PUSH1 0x0 DUP1 REVERT JUMPDEST POP CALLDATALOAD SWAP2 SWAP1 POP JUMP JUMPDEST PUSH1 0x0 PUSH1 0x20 DUP3 DUP5 SUB SLT ISZERO PUSH2 0x123D JUMPI PUSH1 0x0 DUP1 REVERT JUMPDEST PUSH2 0x346 DUP3 PUSH2 0x119F JUMP JUMPDEST PUSH1 0x0 PUSH1 0x20 DUP3 DUP5 SUB SLT ISZERO PUSH2 0x1258 JUMPI PUSH1 0x0 DUP1 REVERT JUMPDEST DUP2 CALLDATALOAD PUSH8 0xFFFFFFFFFFFFFFFF DUP2 GT ISZERO PUSH2 0x126F JUMPI PUSH1 0x0 DUP1 REVERT JUMPDEST PUSH2 0x127B DUP5 DUP3 DUP6 ADD PUSH2 0x1104 JUMP JUMPDEST SWAP5 SWAP4 POP POP POP POP JUMP JUMPDEST PUSH1 0x0 DUP1 PUSH1 0x0 PUSH1 0x60 DUP5 DUP7 SUB SLT ISZERO PUSH2 0x1298 JUMPI PUSH1 0x0 DUP1 REVERT JUMPDEST DUP4 CALLDATALOAD PUSH8 0xFFFFFFFFFFFFFFFF DUP2 GT ISZERO PUSH2 0x12AF JUMPI PUSH1 0x0 DUP1 REVERT JUMPDEST PUSH2 0x12BB DUP7 DUP3 DUP8 ADD PUSH2 0x1104 JUMP JUMPDEST SWAP7 PUSH1 0x20 DUP7 ADD CALLDATALOAD SWAP7 POP PUSH1 0x40 SWAP1 SWAP6 ADD CALLDATALOAD SWAP5 SWAP4 POP POP POP POP JUMP JUMPDEST PUSH4 0x4E487B71 PUSH1 0xE0 SHL PUSH1 0x0 MSTORE PUSH1 0x32 PUSH1 0x4 MSTORE PUSH1 0x24 PUSH1 0x0 REVERT JUMPDEST PUSH1 0x0 PUSH1 0x20 DUP3 DUP5 SUB SLT ISZERO PUSH2 0x12F9 JUMPI PUSH1 0x0 DUP1 REVERT JUMPDEST POP MLOAD SWAP2 SWAP1 POP JUMP JUMPDEST PUSH1 0x0 PUSH1 0x20 DUP3 DUP5 SUB SLT ISZERO PUSH2 0x1312 JUMPI PUSH1 0x0 DUP1 REVERT JUMPDEST DUP2 MLOAD DUP1 ISZERO ISZERO DUP2 EQ PUSH2 0x346 JUMPI PUSH1 0x0 DUP1 REVERT JUMPDEST PUSH1 0x20 DUP1 DUP3 MSTORE PUSH1 0xD SWAP1 DUP3 ADD MSTORE PUSH13 0x70726F6F66206661696C757265 PUSH1 0x98 SHL PUSH1 0x40 DUP3 ADD MSTORE PUSH1 0x60 ADD SWAP1 JUMP JUMPDEST PUSH1 0x20 DUP1 DUP3 MSTORE PUSH1 0xF SWAP1 DUP3 ADD MSTORE PUSH15 0x185B1C9958591E4818DB185A5B5959 PUSH1 0x8A SHL PUSH1 0x40 DUP3 ADD MSTORE PUSH1 0x60 ADD SWAP1 JUMP JUMPDEST PUSH4 0x4E487B71 PUSH1 0xE0 SHL PUSH1 0x0 MSTORE PUSH1 0x11 PUSH1 0x4 MSTORE PUSH1 0x24 PUSH1 0x0 REVERT JUMPDEST PUSH1 0x0 DUP3 DUP3 LT ISZERO PUSH2 0x139A JUMPI PUSH2 0x139A PUSH2 0x1372 JUMP JUMPDEST POP SUB SWAP1 JUMP JUMPDEST PUSH1 0x0 DUP2 PUSH1 0x0 NOT DIV DUP4 GT DUP3 ISZERO ISZERO AND ISZERO PUSH2 0x13B9 JUMPI PUSH2 0x13B9 PUSH2 0x1372 JUMP JUMPDEST POP MUL SWAP1 JUMP JUMPDEST PUSH1 0x0 DUP3 PUSH2 0x13DB JUMPI PUSH4 0x4E487B71 PUSH1 0xE0 SHL PUSH1 0x0 MSTORE PUSH1 0x12 PUSH1 0x4 MSTORE PUSH1 0x24 PUSH1 0x0 REVERT JUMPDEST POP DIV SWAP1 JUMP JUMPDEST PUSH1 0x0 PUSH1 0x1 DUP3 ADD PUSH2 0x13F2 JUMPI PUSH2 0x13F2 PUSH2 0x1372 JUMP JUMPDEST POP PUSH1 0x1 ADD SWAP1 JUMP INVALID LOG2 PUSH5 0x6970667358 0x22 SLT KECCAK256 LOG2 0xB7 0xBA 0xCD 0xEA 0xD7 SLT 0x5E POP SIGNEXTEND 0xD4 0xBE 0xC6 SAR DIV SWAP1 BALANCE PUSH24 0xF1069E095060A409B627C4C8A39564736F6C634300080E00 CALLER ",
  "sha1": "3e278d5c0674f851b3956b05a042ea442cb208ea",
  "source": "/**\n *Submitted for verification at polygonscan.com on 2022-05-22\n*/\n\n// Forge Airdrop Contract\n// https://airdrop.forgetoken.org\n// Claim up to 100, 30 or 10 Forge in this new twist on airdrops! \n// The longer you wait the more your claim unlocks, but dont let the contract run dry without claiming!\n// Allows contract to be recharged by anyone to restart the Airdrop!\n\n\npragma solidity ^0.8.12;\n\nlibrary MerkleProof {\n    /**\n     * @dev Returns true if a `leaf` can be proved to be a part of a Merkle tree\n     * defined by `root`. For this, a `proof` must be provided, containing\n     * sibling hashes on the branch from the leaf to the root of the tree. Each\n     * pair of leaves and each pair of pre-images are assumed to be sorted.\n     */\n    function verify(\n        bytes32[] memory proof,\n        bytes32 root,\n        bytes32 leaf\n    ) internal pure returns (bool) {\n        bytes32 computedHash = leaf;\n\n        for (uint256 i = 0; i < proof.length; i++) {\n            bytes32 proofElement = proof[i];           \n\n            if (computedHash <= proofElement) {\n                // Hash(current computed hash + current element of the proof)\n                computedHash = keccak256(abi.encodePacked(computedHash, proofElement));\n            } else {\n                // Hash(current element of the proof + current computed hash)\n                computedHash = keccak256(abi.encodePacked(proofElement, computedHash));\n            }\n        }\n\n        // Check if the computed hash (root) is equal to the provided root\n        return computedHash == root;\n    }\n}\n\n\n interface IERC20 {\n    function totalSupply() external view returns (uint256);\n    function balanceOf(address account) external view returns (uint256);\n    function transfer(address recipient, uint256 amount) external returns (bool);\n    function allowance(address owner, address spender) external view returns (uint256);\n    function approve(address spender, uint256 amount) external returns (bool);\n    function transferFrom(address sender, address recipient, uint256 amount) external returns (bool);\n    \n    event Transfer(address indexed from, address indexed to, uint256 value);\n    event Approval(address indexed owner, address indexed spender, uint256 value);\n}\n\n\n\ncontract ForgeGuess{\n    function balanceOf(address account) public view returns (uint256) {}\n    uint256 public unreleased;\n    uint256 public totalSupply;\n    function stakeFor(address forWhom, uint256 amount) public virtual {}\n    function withdraw(uint256 amount, uint256 maxLoss) public virtual {}\n    \n    function withEstimator(uint256 amountOut) public view returns (uint256) {}\n    }\n\n\n\ncontract ForgeAirdrop {\n    \n    \n    address public ForgeTokenAddressREAL = address(0xF44fB43066F7ECC91058E3A614Fb8A15A2735276);\n    address public ForgeTokenAddress = address(0xbF4493415fD1E79DcDa8cD0cAd7E5Ed65DCe7074);\n    address public ForgeGuessContractAddress = address(0xDe256EC57E864eC847c030e14c5b97AB233A521E);\n    bytes32 [] public _merkleRootAll;\n    bytes32 internal _merkleRootTop = 0xdd82af2bc4b721bfd5be08111d4f422fd07d1578a0072d6701f26ea4fff33845;\n    bytes32 internal _merkleRootMid = 0x15893a9b8d3638149dd9461fde79f589e565a2fc76a861ec1aebb83736151566;\n    bytes32 internal _merkleRootBot = 0x316b4323ca91ba63304a4e0ada24b09f8689ac1f80aca8e9d5c4213fc9ba7848;\n                                         \n    uint256 [] public amtClaim;\n    uint256 internal nextTokenId = 0;\n    mapping(address => bool) public hasClaimed;\n    uint256 public decay = 24* 60 * 60 * 30;\n\n    uint256 public starttime = block.timestamp;\n    \n\n    constructor()  {\n        _merkleRootAll.push(_merkleRootTop);\n        _merkleRootAll.push(_merkleRootMid);\n        _merkleRootAll.push(_merkleRootBot);\n        amtClaim.push(1000000000000);\n        amtClaim.push(100000000);\n        amtClaim.push(100000);\n    }  \n\n \n\n    function deposit(uint amt) public returns (bool success){\n\n\n        require(amt > ForgeGuess(ForgeGuessContractAddress).withEstimator(ForgeGuess(ForgeGuessContractAddress).balanceOf(address(this))), \"must be greater than previous total to reset\");\n        require(IERC20(ForgeTokenAddress).transferFrom(msg.sender, address(this), amt), \"transfer fail\");\n        starttime = block.timestamp;\n        IERC20(ForgeTokenAddress).approve(ForgeGuessContractAddress, 999999999999999999999999999999999999999999999999999);\n        ForgeGuess(ForgeGuessContractAddress).stakeFor(address(this), amt);\n        uint x = perfect();\n        amtClaim[0] = x * 10;\n        amtClaim[1] = x * 3;\n        amtClaim[2] = x * 1;\n\n        return true;\n    }\n\n\n    function Donation(uint amt) public returns (bool success){ \n\n        if(amt > ForgeGuess(ForgeGuessContractAddress).withEstimator(ForgeGuess(ForgeGuessContractAddress).balanceOf(address(this)))){\n\n            deposit(amt);\n\n        }else{\n\n            require(IERC20(ForgeTokenAddress).transferFrom(msg.sender, address(this), amt), \"transfer fail\");\n            IERC20(ForgeTokenAddress).approve(ForgeGuessContractAddress, 999999999999999999999999999999999999999999999999999);\n            ForgeGuess(ForgeGuessContractAddress).stakeFor(address(this), amt);\n\n        }\n\n        return true;\n    }\n\n\n    function perfect() public view returns (uint256 amtz){\n        \n        uint256 test = (10 * 10 ** 18 * 1000) / ((975 * (IERC20(address(ForgeTokenAddress)).balanceOf(ForgeGuessContractAddress) - ForgeGuess(ForgeGuessContractAddress).unreleased() ) / ForgeGuess(ForgeGuessContractAddress).totalSupply()));\n\n\n        return test;\n    }\n\n    function amtOutForChoiceInForge(uint choice) public view returns (uint256 out){\n\n        return ForgeGuess(ForgeGuessContractAddress).withEstimator(amountOut(choice));\n    }\n\n\n   function amountOut(uint choice) public view returns (uint256 out){\n        uint256 durdur = block.timestamp - starttime;\n        if(durdur > decay){\n            durdur = decay;\n        }\n        if(choice == 0){\n           return (amtClaim[0] * durdur) / decay;\n        }else if(choice ==1){\n           return (amtClaim[1] * durdur) / decay;\n        }else if(choice ==2){\n           return (amtClaim[2] * durdur) / decay;\n        }\n        return 0;\n   }\n   \n    function mintWithProofTop(bytes32[] memory merkleProof ) public {\n    \n        \n        require( MerkleProof.verify(merkleProof, _merkleRootTop, keccak256( abi.encodePacked(msg.sender)) ) , 'proof failure');\n\n        require(hasClaimed[msg.sender] == false, 'already claimed');\n\n        hasClaimed[msg.sender]=true;\n        \n        IERC20(ForgeTokenAddress).transfer(msg.sender,  amountOut(1));\n    }\n    \n    function mintWithProofMid(bytes32[] memory merkleProof ) public {\n \n        require( MerkleProof.verify(merkleProof, _merkleRootMid, keccak256( abi.encodePacked(msg.sender)) ) , 'proof failure');\n\n        require(hasClaimed[msg.sender] == false, 'already claimed');\n\n        hasClaimed[msg.sender]=true;\n        \n        IERC20(ForgeTokenAddress).transfer(msg.sender,  amountOut(2));\n    }\n    //0= 0%-10%, 1= 10%-40%, 2= 50%-90%\n    function mintWithProofALL(bytes32[] memory merkleProof, uint claim, uint maxLoss ) public {\n \n        require( verify(merkleProof, msg.sender, claim)  , 'proof failure');\n\n        require(hasClaimed[msg.sender] == false, 'already claimed');\n\n        hasClaimed[msg.sender]=true;\n        \n        ForgeGuess(ForgeGuessContractAddress).withdraw(amountOut(claim), maxLoss);\n        require(IERC20(ForgeTokenAddress).transfer(msg.sender, IERC20(ForgeTokenAddress).balanceOf(address(this))), \"contract may be out of funds\");\n    }\n\n    //verify claim\n    function verify(bytes32[] memory merkleProof, address claimer, uint claim)public view returns (bool ver){\n    if(claim == 0){\n    \n        return MerkleProof.verify(merkleProof, _merkleRootAll[0], keccak256( abi.encodePacked(claimer)));\n    }else if(claim ==1 ){\n\n        return MerkleProof.verify(merkleProof, _merkleRootAll[1], keccak256( abi.encodePacked(claimer)));\n    }else if(claim == 2){\n    \n        return MerkleProof.verify(merkleProof, _merkleRootAll[2], keccak256( abi.encodePacked(claimer)));\n    }\n    return false;\n    }\n    \n    \n    function getThree() public view returns (uint256) {\n\n        return 3;\n    }\n    \n\n}\n",
  "sourcePath": "contracts/Merkletree.sol",
  "type": "contract"
}