{
  "contractName": "_BNbitcoinToken",
  "abi": [
    {
      "constant": true,
      "inputs": [],
      "name": "name",
      "outputs": [
        {
          "name": "",
          "type": "string"
        }
      ],
      "payable": false,
      "stateMutability": "view",
      "type": "function"
    },
    {
      "constant": true,
      "inputs": [],
      "name": "lastRewardBscBlockNumber",
      "outputs": [
        {
          "name": "",
          "type": "uint256"
        }
      ],
      "payable": false,
      "stateMutability": "view",
      "type": "function"
    },
    {
      "constant": true,
      "inputs": [],
      "name": "rewardEra",
      "outputs": [
        {
          "name": "",
          "type": "uint256"
        }
      ],
      "payable": false,
      "stateMutability": "view",
      "type": "function"
    },
    {
      "constant": true,
      "inputs": [],
      "name": "decimals",
      "outputs": [
        {
          "name": "",
          "type": "uint8"
        }
      ],
      "payable": false,
      "stateMutability": "view",
      "type": "function"
    },
    {
      "constant": true,
      "inputs": [],
      "name": "_totalSupply",
      "outputs": [
        {
          "name": "",
          "type": "uint256"
        }
      ],
      "payable": false,
      "stateMutability": "view",
      "type": "function"
    },
    {
      "constant": true,
      "inputs": [],
      "name": "maxSupplyForEra",
      "outputs": [
        {
          "name": "",
          "type": "uint256"
        }
      ],
      "payable": false,
      "stateMutability": "view",
      "type": "function"
    },
    {
      "constant": true,
      "inputs": [],
      "name": "tokensMinted",
      "outputs": [
        {
          "name": "",
          "type": "uint256"
        }
      ],
      "payable": false,
      "stateMutability": "view",
      "type": "function"
    },
    {
      "constant": true,
      "inputs": [],
      "name": "lastRewardTo",
      "outputs": [
        {
          "name": "",
          "type": "address"
        }
      ],
      "payable": false,
      "stateMutability": "view",
      "type": "function"
    },
    {
      "constant": false,
      "inputs": [],
      "name": "acceptOwnership",
      "outputs": [],
      "payable": false,
      "stateMutability": "nonpayable",
      "type": "function"
    },
    {
      "constant": true,
      "inputs": [],
      "name": "epochCount",
      "outputs": [
        {
          "name": "",
          "type": "uint256"
        }
      ],
      "payable": false,
      "stateMutability": "view",
      "type": "function"
    },
    {
      "constant": true,
      "inputs": [],
      "name": "_MAXIMUM_TARGET",
      "outputs": [
        {
          "name": "",
          "type": "uint256"
        }
      ],
      "payable": false,
      "stateMutability": "view",
      "type": "function"
    },
    {
      "constant": true,
      "inputs": [],
      "name": "getOwner",
      "outputs": [
        {
          "name": "",
          "type": "address"
        }
      ],
      "payable": false,
      "stateMutability": "view",
      "type": "function"
    },
    {
      "constant": true,
      "inputs": [],
      "name": "miningTarget",
      "outputs": [
        {
          "name": "",
          "type": "uint256"
        }
      ],
      "payable": false,
      "stateMutability": "view",
      "type": "function"
    },
    {
      "constant": true,
      "inputs": [],
      "name": "challengeNumber",
      "outputs": [
        {
          "name": "",
          "type": "bytes32"
        }
      ],
      "payable": false,
      "stateMutability": "view",
      "type": "function"
    },
    {
      "constant": true,
      "inputs": [],
      "name": "owner",
      "outputs": [
        {
          "name": "",
          "type": "address"
        }
      ],
      "payable": false,
      "stateMutability": "view",
      "type": "function"
    },
    {
      "constant": true,
      "inputs": [],
      "name": "symbol",
      "outputs": [
        {
          "name": "",
          "type": "string"
        }
      ],
      "payable": false,
      "stateMutability": "view",
      "type": "function"
    },
    {
      "constant": true,
      "inputs": [],
      "name": "_BLOCKS_PER_READJUSTMENT",
      "outputs": [
        {
          "name": "",
          "type": "uint256"
        }
      ],
      "payable": false,
      "stateMutability": "view",
      "type": "function"
    },
    {
      "constant": true,
      "inputs": [],
      "name": "lastRewardAmount",
      "outputs": [
        {
          "name": "",
          "type": "uint256"
        }
      ],
      "payable": false,
      "stateMutability": "view",
      "type": "function"
    },
    {
      "constant": true,
      "inputs": [],
      "name": "latestDifficultyPeriodStarted",
      "outputs": [
        {
          "name": "",
          "type": "uint256"
        }
      ],
      "payable": false,
      "stateMutability": "view",
      "type": "function"
    },
    {
      "constant": true,
      "inputs": [],
      "name": "newOwner",
      "outputs": [
        {
          "name": "",
          "type": "address"
        }
      ],
      "payable": false,
      "stateMutability": "view",
      "type": "function"
    },
    {
      "constant": true,
      "inputs": [],
      "name": "_MINIMUM_TARGET",
      "outputs": [
        {
          "name": "",
          "type": "uint256"
        }
      ],
      "payable": false,
      "stateMutability": "view",
      "type": "function"
    },
    {
      "constant": false,
      "inputs": [
        {
          "name": "_newOwner",
          "type": "address"
        }
      ],
      "name": "transferOwnership",
      "outputs": [],
      "payable": false,
      "stateMutability": "nonpayable",
      "type": "function"
    },
    {
      "inputs": [],
      "payable": false,
      "stateMutability": "nonpayable",
      "type": "constructor"
    },
    {
      "payable": true,
      "stateMutability": "payable",
      "type": "fallback"
    },
    {
      "anonymous": false,
      "inputs": [
        {
          "indexed": true,
          "name": "from",
          "type": "address"
        },
        {
          "indexed": false,
          "name": "reward_amount",
          "type": "uint256"
        },
        {
          "indexed": false,
          "name": "epochCount",
          "type": "uint256"
        },
        {
          "indexed": false,
          "name": "newChallengeNumber",
          "type": "bytes32"
        }
      ],
      "name": "Mint",
      "type": "event"
    },
    {
      "anonymous": false,
      "inputs": [
        {
          "indexed": true,
          "name": "_from",
          "type": "address"
        },
        {
          "indexed": true,
          "name": "_to",
          "type": "address"
        }
      ],
      "name": "OwnershipTransferred",
      "type": "event"
    },
    {
      "anonymous": false,
      "inputs": [
        {
          "indexed": true,
          "name": "from",
          "type": "address"
        },
        {
          "indexed": true,
          "name": "to",
          "type": "address"
        },
        {
          "indexed": false,
          "name": "tokens",
          "type": "uint256"
        }
      ],
      "name": "Transfer",
      "type": "event"
    },
    {
      "anonymous": false,
      "inputs": [
        {
          "indexed": true,
          "name": "tokenOwner",
          "type": "address"
        },
        {
          "indexed": true,
          "name": "spender",
          "type": "address"
        },
        {
          "indexed": false,
          "name": "tokens",
          "type": "uint256"
        }
      ],
      "name": "Approval",
      "type": "event"
    },
    {
      "constant": false,
      "inputs": [
        {
          "name": "nonce",
          "type": "uint256"
        },
        {
          "name": "challenge_digest",
          "type": "bytes32"
        }
      ],
      "name": "mint",
      "outputs": [
        {
          "name": "success",
          "type": "bool"
        }
      ],
      "payable": false,
      "stateMutability": "nonpayable",
      "type": "function"
    },
    {
      "constant": true,
      "inputs": [],
      "name": "getChallengeNumber",
      "outputs": [
        {
          "name": "",
          "type": "bytes32"
        }
      ],
      "payable": false,
      "stateMutability": "view",
      "type": "function"
    },
    {
      "constant": true,
      "inputs": [],
      "name": "getMiningDifficulty",
      "outputs": [
        {
          "name": "",
          "type": "uint256"
        }
      ],
      "payable": false,
      "stateMutability": "view",
      "type": "function"
    },
    {
      "constant": true,
      "inputs": [],
      "name": "getMiningTarget",
      "outputs": [
        {
          "name": "",
          "type": "uint256"
        }
      ],
      "payable": false,
      "stateMutability": "view",
      "type": "function"
    },
    {
      "constant": true,
      "inputs": [],
      "name": "getMiningReward",
      "outputs": [
        {
          "name": "",
          "type": "uint256"
        }
      ],
      "payable": false,
      "stateMutability": "view",
      "type": "function"
    },
    {
      "constant": true,
      "inputs": [
        {
          "name": "nonce",
          "type": "uint256"
        },
        {
          "name": "challenge_digest",
          "type": "bytes32"
        },
        {
          "name": "challenge_number",
          "type": "bytes32"
        }
      ],
      "name": "getMintDigest",
      "outputs": [
        {
          "name": "digesttest",
          "type": "bytes32"
        }
      ],
      "payable": false,
      "stateMutability": "view",
      "type": "function"
    },
    {
      "constant": true,
      "inputs": [
        {
          "name": "nonce",
          "type": "uint256"
        },
        {
          "name": "challenge_digest",
          "type": "bytes32"
        },
        {
          "name": "challenge_number",
          "type": "bytes32"
        },
        {
          "name": "testTarget",
          "type": "uint256"
        }
      ],
      "name": "checkMintSolution",
      "outputs": [
        {
          "name": "success",
          "type": "bool"
        }
      ],
      "payable": false,
      "stateMutability": "view",
      "type": "function"
    },
    {
      "constant": true,
      "inputs": [],
      "name": "totalSupply",
      "outputs": [
        {
          "name": "",
          "type": "uint256"
        }
      ],
      "payable": false,
      "stateMutability": "view",
      "type": "function"
    },
    {
      "constant": true,
      "inputs": [
        {
          "name": "tokenOwner",
          "type": "address"
        }
      ],
      "name": "balanceOf",
      "outputs": [
        {
          "name": "balance",
          "type": "uint256"
        }
      ],
      "payable": false,
      "stateMutability": "view",
      "type": "function"
    },
    {
      "constant": false,
      "inputs": [
        {
          "name": "to",
          "type": "address"
        },
        {
          "name": "tokens",
          "type": "uint256"
        }
      ],
      "name": "transfer",
      "outputs": [
        {
          "name": "success",
          "type": "bool"
        }
      ],
      "payable": false,
      "stateMutability": "nonpayable",
      "type": "function"
    },
    {
      "constant": false,
      "inputs": [
        {
          "name": "spender",
          "type": "address"
        },
        {
          "name": "tokens",
          "type": "uint256"
        }
      ],
      "name": "approve",
      "outputs": [
        {
          "name": "success",
          "type": "bool"
        }
      ],
      "payable": false,
      "stateMutability": "nonpayable",
      "type": "function"
    },
    {
      "constant": false,
      "inputs": [
        {
          "name": "from",
          "type": "address"
        },
        {
          "name": "to",
          "type": "address"
        },
        {
          "name": "tokens",
          "type": "uint256"
        }
      ],
      "name": "transferFrom",
      "outputs": [
        {
          "name": "success",
          "type": "bool"
        }
      ],
      "payable": false,
      "stateMutability": "nonpayable",
      "type": "function"
    },
    {
      "constant": true,
      "inputs": [
        {
          "name": "tokenOwner",
          "type": "address"
        },
        {
          "name": "spender",
          "type": "address"
        }
      ],
      "name": "allowance",
      "outputs": [
        {
          "name": "remaining",
          "type": "uint256"
        }
      ],
      "payable": false,
      "stateMutability": "view",
      "type": "function"
    },
    {
      "constant": false,
      "inputs": [
        {
          "name": "spender",
          "type": "address"
        },
        {
          "name": "tokens",
          "type": "uint256"
        },
        {
          "name": "data",
          "type": "bytes"
        }
      ],
      "name": "approveAndCall",
      "outputs": [
        {
          "name": "success",
          "type": "bool"
        }
      ],
      "payable": false,
      "stateMutability": "nonpayable",
      "type": "function"
    },
    {
      "constant": false,
      "inputs": [
        {
          "name": "tokenAddress",
          "type": "address"
        },
        {
          "name": "tokens",
          "type": "uint256"
        }
      ],
      "name": "transferAnyBEP20Token",
      "outputs": [
        {
          "name": "success",
          "type": "bool"
        }
      ],
      "payable": false,
      "stateMutability": "nonpayable",
      "type": "function"
    }
  ],
  "bytecode": "0x60806040526107e0600855620100006009557c0100000000000000000000000000000000000000000000000000000000600a556000601260006101000a81548160ff0219169083151502179055503480156200005a57600080fd5b50336000806101000a81548173ffffffffffffffffffffffffffffffffffffffff021916908373ffffffffffffffffffffffffffffffffffffffff1602179055506000809054906101000a900473ffffffffffffffffffffffffffffffffffffffff1673ffffffffffffffffffffffffffffffffffffffff163373ffffffffffffffffffffffffffffffffffffffff16141515620000f757600080fd5b6040805190810160405280600581526020017f424e425443000000000000000000000000000000000000000000000000000000815250600290805190602001906200014492919062000712565b50606060405190810160405280602881526020017f424e626974636f696e20546f6b656e202d206d696e61626c6520626974636f6981526020017f6e206f6e2042534300000000000000000000000000000000000000000000000081525060039080519060200190620001b992919062000712565b506008600460006101000a81548160ff021916908360ff160217905550600460009054906101000a900460ff1660ff16600a0a6301406f4002600581905550601260009054906101000a900460ff16156200021357600080fd5b6001601260006101000a81548160ff02191690831515021790555060006014819055506000600d81905550620002646002600554620002996401000000000262001ec1179091906401000000009004565b600e81905550600a54600b819055504360068190555062000293620002bf640100000000026401000000009004565b620007c1565b60008082111515620002aa57600080fd5b8183811515620002b657fe5b04905092915050565b600e54620002ff620002df620003ca640100000000026401000000009004565b601454620004116401000000000262001ee5179091906401000000009004565b1180156200030f57506027600d54105b1562000322576001600d5401600d819055505b6200034f6001600d540160020a600554620002996401000000000262001ec1179091906401000000009004565b60055403600e819055506200037f6001600754620004116401000000000262001ee5179091906401000000009004565b60078190555060006008546007548115156200039757fe5b061415620003b957620003b86200042e640100000000026401000000009004565b5b6001430340600c8160001916905550565b60006200040c600d5460020a600460009054906101000a900460ff1660ff16600a0a603202620002996401000000000262001ec1179091906401000000009004565b905090565b600081830190508281101515156200042857600080fd5b92915050565b600080600080600080600060065443039650600854955060c886029450848710156200055f576200049a876200047d606488620006a36401000000000262002163179091906401000000009004565b620002996401000000000262001ec1179091906401000000009004565b9350620004e46103e8620004c7606487620006d76401000000000262001fb6179091906401000000009004565b620006f46401000000000262002194179091906401000000009004565b9250620005536200053384620005166107d0600b54620002996401000000000262001ec1179091906401000000009004565b620006a36401000000000262002163179091906401000000009004565b600b54620006d76401000000000262001fb6179091906401000000009004565b600b8190555062000665565b620005a5856200058860648a620006a36401000000000262002163179091906401000000009004565b620002996401000000000262001ec1179091906401000000009004565b9150620005ef6103e8620005d2606485620006d76401000000000262001fb6179091906401000000009004565b620006f46401000000000262002194179091906401000000009004565b90506200065e6200063e82620006216107d0600b54620002996401000000000262001ec1179091906401000000009004565b620006a36401000000000262002163179091906401000000009004565b600b54620004116401000000000262001ee5179091906401000000009004565b600b819055505b43600681905550600954600b5410156200068357600954600b819055505b600a54600b5411156200069a57600a54600b819055505b50505050505050565b600081830290506000831480620006c55750818382811515620006c257fe5b04145b1515620006d157600080fd5b92915050565b6000828211151515620006e957600080fd5b818303905092915050565b60008183111562000708578190506200070c565b8290505b92915050565b828054600181600116156101000203166002900490600052602060002090601f016020900481019282601f106200075557805160ff191683800117855562000786565b8280016001018555821562000786579182015b828111156200078557825182559160200191906001019062000768565b5b50905062000795919062000799565b5090565b620007be91905b80821115620007ba576000816000905550600101620007a0565b5090565b90565b6121dc80620007d16000396000f3006080604052600436106101cd576000357c0100000000000000000000000000000000000000000000000000000000900463ffffffff16806306fdde03146101d2578063095ea7b31461026257806317da485f146102c75780631801fbe5146102f257806318160ddd1461034557806323b872dd146103705780632979f8e3146103f55780632d38bf7a14610420578063313ce5671461044b57806332e997081461047c5780633eaaf86b146104a7578063490203a7146104d25780634ef37628146104fd5780634fa972e114610530578063660e67a51461055b5780636de9f32b146105c05780636fd396d6146105eb57806370a082311461064257806379ba50971461069957806381269a56146106b0578063829965cc1461071b57806387a2a9d614610746578063893d20e8146107715780638a769d35146107c85780638ae0368b146107f35780638da5cb5b1461082657806395d89b411461087d57806397566aa01461090d578063a9059cbb14610972578063b5ade81b146109d7578063bafedcaa14610a02578063cae9ca5114610a2d578063cb9ae70714610ad8578063d4ee1d9014610b03578063dc6e9cf914610b5a578063dd62ed3e14610b85578063f2fde38b14610bfc575b600080fd5b3480156101de57600080fd5b506101e7610c3f565b6040518080602001828103825283818151815260200191508051906020019080838360005b8381101561022757808201518184015260208101905061020c565b50505050905090810190601f1680156102545780820380516001836020036101000a031916815260200191505b509250505060405180910390f35b34801561026e57600080fd5b506102ad600480360381019080803573ffffffffffffffffffffffffffffffffffffffff16906020019092919080359060200190929190505050610cdd565b604051808215151515815260200191505060405180910390f35b3480156102d357600080fd5b506102dc610dcf565b6040518082815260200191505060405180910390f35b3480156102fe57600080fd5b5061032b600480360381019080803590602001909291908035600019169060200190929190505050610ded565b604051808215151515815260200191505060405180910390f35b34801561035157600080fd5b5061035a61107d565b6040518082815260200191505060405180910390f35b34801561037c57600080fd5b506103db600480360381019080803573ffffffffffffffffffffffffffffffffffffffff169060200190929190803573ffffffffffffffffffffffffffffffffffffffff169060200190929190803590602001909291905050506110c8565b604051808215151515815260200191505060405180910390f35b34801561040157600080fd5b5061040a611373565b6040518082815260200191505060405180910390f35b34801561042c57600080fd5b50610435611379565b6040518082815260200191505060405180910390f35b34801561045757600080fd5b5061046061137f565b604051808260ff1660ff16815260200191505060405180910390f35b34801561048857600080fd5b50610491611392565b6040518082815260200191505060405180910390f35b3480156104b357600080fd5b506104bc61139c565b6040518082815260200191505060405180910390f35b3480156104de57600080fd5b506104e76113a2565b6040518082815260200191505060405180910390f35b34801561050957600080fd5b506105126113d9565b60405180826000191660001916815260200191505060405180910390f35b34801561053c57600080fd5b506105456113e3565b6040518082815260200191505060405180910390f35b34801561056757600080fd5b506105a6600480360381019080803573ffffffffffffffffffffffffffffffffffffffff169060200190929190803590602001909291905050506113e9565b604051808215151515815260200191505060405180910390f35b3480156105cc57600080fd5b506105d561154d565b6040518082815260200191505060405180910390f35b3480156105f757600080fd5b50610600611553565b604051808273ffffffffffffffffffffffffffffffffffffffff1673ffffffffffffffffffffffffffffffffffffffff16815260200191505060405180910390f35b34801561064e57600080fd5b50610683600480360381019080803573ffffffffffffffffffffffffffffffffffffffff169060200190929190505050611579565b6040518082815260200191505060405180910390f35b3480156106a557600080fd5b506106ae6115c2565b005b3480156106bc57600080fd5b50610701600480360381019080803590602001909291908035600019169060200190929190803560001916906020019092919080359060200190929190505050611761565b604051808215151515815260200191505060405180910390f35b34801561072757600080fd5b506107306117f6565b6040518082815260200191505060405180910390f35b34801561075257600080fd5b5061075b6117fc565b6040518082815260200191505060405180910390f35b34801561077d57600080fd5b50610786611802565b604051808273ffffffffffffffffffffffffffffffffffffffff1673ffffffffffffffffffffffffffffffffffffffff16815260200191505060405180910390f35b3480156107d457600080fd5b506107dd61182b565b6040518082815260200191505060405180910390f35b3480156107ff57600080fd5b50610808611831565b60405180826000191660001916815260200191505060405180910390f35b34801561083257600080fd5b5061083b611837565b604051808273ffffffffffffffffffffffffffffffffffffffff1673ffffffffffffffffffffffffffffffffffffffff16815260200191505060405180910390f35b34801561088957600080fd5b5061089261185c565b6040518080602001828103825283818151815260200191508051906020019080838360005b838110156108d25780820151818401526020810190506108b7565b50505050905090810190601f1680156108ff5780820380516001836020036101000a031916815260200191505b509250505060405180910390f35b34801561091957600080fd5b5061095460048036038101908080359060200190929190803560001916906020019092919080356000191690602001909291905050506118fa565b60405180826000191660001916815260200191505060405180910390f35b34801561097e57600080fd5b506109bd600480360381019080803573ffffffffffffffffffffffffffffffffffffffff16906020019092919080359060200190929190505050611973565b604051808215151515815260200191505060405180910390f35b3480156109e357600080fd5b506109ec611b0e565b6040518082815260200191505060405180910390f35b348015610a0e57600080fd5b50610a17611b14565b6040518082815260200191505060405180910390f35b348015610a3957600080fd5b50610abe600480360381019080803573ffffffffffffffffffffffffffffffffffffffff16906020019092919080359060200190929190803590602001908201803590602001908080601f0160208091040260200160405190810160405280939291908181526020018383808284378201915050505050509192919290505050611b1a565b604051808215151515815260200191505060405180910390f35b348015610ae457600080fd5b50610aed611d69565b6040518082815260200191505060405180910390f35b348015610b0f57600080fd5b50610b18611d6f565b604051808273ffffffffffffffffffffffffffffffffffffffff1673ffffffffffffffffffffffffffffffffffffffff16815260200191505060405180910390f35b348015610b6657600080fd5b50610b6f611d95565b6040518082815260200191505060405180910390f35b348015610b9157600080fd5b50610be6600480360381019080803573ffffffffffffffffffffffffffffffffffffffff169060200190929190803573ffffffffffffffffffffffffffffffffffffffff169060200190929190505050611d9b565b6040518082815260200191505060405180910390f35b348015610c0857600080fd5b50610c3d600480360381019080803573ffffffffffffffffffffffffffffffffffffffff169060200190929190505050611e22565b005b60038054600181600116156101000203166002900480601f016020809104026020016040519081016040528092919081815260200182805460018160011615610100020316600290048015610cd55780601f10610caa57610100808354040283529160200191610cd5565b820191906000526020600020905b815481529060010190602001808311610cb857829003601f168201915b505050505081565b600081601660003373ffffffffffffffffffffffffffffffffffffffff1673ffffffffffffffffffffffffffffffffffffffff16815260200190815260200160002060008573ffffffffffffffffffffffffffffffffffffffff1673ffffffffffffffffffffffffffffffffffffffff168152602001908152602001600020819055508273ffffffffffffffffffffffffffffffffffffffff163373ffffffffffffffffffffffffffffffffffffffff167f8c5be1e5ebec7d5bd14f71427d1e84f3dd0314c0f7b2291e5b200ac8c7c3b925846040518082815260200191505060405180910390a36001905092915050565b6000610de8600b54600a54611ec190919063ffffffff16565b905090565b600080600080600c5433876040518084600019166000191681526020018373ffffffffffffffffffffffffffffffffffffffff1673ffffffffffffffffffffffffffffffffffffffff166c0100000000000000000000000002815260140182815260200193505050506040518091039020925084600019168360001916141515610e7657600080fd5b600b5483600190041115610e8957600080fd5b60136000600c54600019166000191681526020019081526020016000205491508260136000600c5460001916600019168152602001908152602001600020816000191690555060006001028260001916141515610ee557600080fd5b610eed6113a2565b9050610f4181601560003373ffffffffffffffffffffffffffffffffffffffff1673ffffffffffffffffffffffffffffffffffffffff16815260200190815260200160002054611ee590919063ffffffff16565b601560003373ffffffffffffffffffffffffffffffffffffffff1673ffffffffffffffffffffffffffffffffffffffff16815260200190815260200160002081905550610f9981601454611ee590919063ffffffff16565b601481905550600e5460145411151515610faf57fe5b33600f60006101000a81548173ffffffffffffffffffffffffffffffffffffffff021916908373ffffffffffffffffffffffffffffffffffffffff1602179055508060108190555043601181905550611006611f01565b3373ffffffffffffffffffffffffffffffffffffffff167fcf6fbb9dcea7d07263ab4f5c3a92f53af33dffc421d9d121e1c74b307e68189d82600754600c54604051808481526020018381526020018260001916600019168152602001935050505060405180910390a26001935050505092915050565b6000601560008073ffffffffffffffffffffffffffffffffffffffff1673ffffffffffffffffffffffffffffffffffffffff1681526020019081526020016000205460055403905090565b600061111c82601560008773ffffffffffffffffffffffffffffffffffffffff1673ffffffffffffffffffffffffffffffffffffffff16815260200190815260200160002054611fb690919063ffffffff16565b601560008673ffffffffffffffffffffffffffffffffffffffff1673ffffffffffffffffffffffffffffffffffffffff168152602001908152602001600020819055506111ee82601660008773ffffffffffffffffffffffffffffffffffffffff1673ffffffffffffffffffffffffffffffffffffffff16815260200190815260200160002060003373ffffffffffffffffffffffffffffffffffffffff1673ffffffffffffffffffffffffffffffffffffffff16815260200190815260200160002054611fb690919063ffffffff16565b601660008673ffffffffffffffffffffffffffffffffffffffff1673ffffffffffffffffffffffffffffffffffffffff16815260200190815260200160002060003373ffffffffffffffffffffffffffffffffffffffff1673ffffffffffffffffffffffffffffffffffffffff168152602001908152602001600020819055506112c082601560008673ffffffffffffffffffffffffffffffffffffffff1673ffffffffffffffffffffffffffffffffffffffff16815260200190815260200160002054611ee590919063ffffffff16565b601560008573ffffffffffffffffffffffffffffffffffffffff1673ffffffffffffffffffffffffffffffffffffffff168152602001908152602001600020819055508273ffffffffffffffffffffffffffffffffffffffff168473ffffffffffffffffffffffffffffffffffffffff167fddf252ad1be2c89b69c2b068fc378daa952ba7f163c4a11628f55a4df523b3ef846040518082815260200191505060405180910390a3600190509392505050565b60115481565b600d5481565b600460009054906101000a900460ff1681565b6000600b54905090565b60055481565b60006113d4600d5460020a600460009054906101000a900460ff1660ff16600a0a603202611ec190919063ffffffff16565b905090565b6000600c54905090565b600e5481565b60008060009054906101000a900473ffffffffffffffffffffffffffffffffffffffff1673ffffffffffffffffffffffffffffffffffffffff163373ffffffffffffffffffffffffffffffffffffffff1614151561144657600080fd5b8273ffffffffffffffffffffffffffffffffffffffff1663a9059cbb6000809054906101000a900473ffffffffffffffffffffffffffffffffffffffff16846040518363ffffffff167c0100000000000000000000000000000000000000000000000000000000028152600401808373ffffffffffffffffffffffffffffffffffffffff1673ffffffffffffffffffffffffffffffffffffffff16815260200182815260200192505050602060405180830381600087803b15801561150a57600080fd5b505af115801561151e573d6000803e3d6000fd5b505050506040513d602081101561153457600080fd5b8101908080519060200190929190505050905092915050565b60145481565b600f60009054906101000a900473ffffffffffffffffffffffffffffffffffffffff1681565b6000601560008373ffffffffffffffffffffffffffffffffffffffff1673ffffffffffffffffffffffffffffffffffffffff168152602001908152602001600020549050919050565b600160009054906101000a900473ffffffffffffffffffffffffffffffffffffffff1673ffffffffffffffffffffffffffffffffffffffff163373ffffffffffffffffffffffffffffffffffffffff1614151561161e57600080fd5b600160009054906101000a900473ffffffffffffffffffffffffffffffffffffffff1673ffffffffffffffffffffffffffffffffffffffff166000809054906101000a900473ffffffffffffffffffffffffffffffffffffffff1673ffffffffffffffffffffffffffffffffffffffff167f8be0079c531659141344cd1fd0a4f28419497f9722a3daafe3b4186f6b6457e060405160405180910390a3600160009054906101000a900473ffffffffffffffffffffffffffffffffffffffff166000806101000a81548173ffffffffffffffffffffffffffffffffffffffff021916908373ffffffffffffffffffffffffffffffffffffffff1602179055506000600160006101000a81548173ffffffffffffffffffffffffffffffffffffffff021916908373ffffffffffffffffffffffffffffffffffffffff160217905550565b6000808333876040518084600019166000191681526020018373ffffffffffffffffffffffffffffffffffffffff1673ffffffffffffffffffffffffffffffffffffffff166c0100000000000000000000000002815260140182815260200193505050506040518091039020905082816001900411156117e057600080fd5b8460001916816000191614915050949350505050565b60075481565b600a5481565b60008060009054906101000a900473ffffffffffffffffffffffffffffffffffffffff16905090565b600b5481565b600c5481565b6000809054906101000a900473ffffffffffffffffffffffffffffffffffffffff1681565b60028054600181600116156101000203166002900480601f0160208091040260200160405190810160405280929190818152602001828054600181600116156101000203166002900480156118f25780601f106118c7576101008083540402835291602001916118f2565b820191906000526020600020905b8154815290600101906020018083116118d557829003601f168201915b505050505081565b6000808233866040518084600019166000191681526020018373ffffffffffffffffffffffffffffffffffffffff1673ffffffffffffffffffffffffffffffffffffffff166c01000000000000000000000000028152601401828152602001935050505060405180910390209050809150509392505050565b60006119c782601560003373ffffffffffffffffffffffffffffffffffffffff1673ffffffffffffffffffffffffffffffffffffffff16815260200190815260200160002054611fb690919063ffffffff16565b601560003373ffffffffffffffffffffffffffffffffffffffff1673ffffffffffffffffffffffffffffffffffffffff16815260200190815260200160002081905550611a5c82601560008673ffffffffffffffffffffffffffffffffffffffff1673ffffffffffffffffffffffffffffffffffffffff16815260200190815260200160002054611ee590919063ffffffff16565b601560008573ffffffffffffffffffffffffffffffffffffffff1673ffffffffffffffffffffffffffffffffffffffff168152602001908152602001600020819055508273ffffffffffffffffffffffffffffffffffffffff163373ffffffffffffffffffffffffffffffffffffffff167fddf252ad1be2c89b69c2b068fc378daa952ba7f163c4a11628f55a4df523b3ef846040518082815260200191505060405180910390a36001905092915050565b60085481565b60105481565b600082601660003373ffffffffffffffffffffffffffffffffffffffff1673ffffffffffffffffffffffffffffffffffffffff16815260200190815260200160002060008673ffffffffffffffffffffffffffffffffffffffff1673ffffffffffffffffffffffffffffffffffffffff168152602001908152602001600020819055508373ffffffffffffffffffffffffffffffffffffffff163373ffffffffffffffffffffffffffffffffffffffff167f8c5be1e5ebec7d5bd14f71427d1e84f3dd0314c0f7b2291e5b200ac8c7c3b925856040518082815260200191505060405180910390a38373ffffffffffffffffffffffffffffffffffffffff16638f4ffcb1338530866040518563ffffffff167c0100000000000000000000000000000000000000000000000000000000028152600401808573ffffffffffffffffffffffffffffffffffffffff1673ffffffffffffffffffffffffffffffffffffffff1681526020018481526020018373ffffffffffffffffffffffffffffffffffffffff1673ffffffffffffffffffffffffffffffffffffffff16815260200180602001828103825283818151815260200191508051906020019080838360005b83811015611cf7578082015181840152602081019050611cdc565b50505050905090810190601f168015611d245780820380516001836020036101000a031916815260200191505b5095505050505050600060405180830381600087803b158015611d4657600080fd5b505af1158015611d5a573d6000803e3d6000fd5b50505050600190509392505050565b60065481565b600160009054906101000a900473ffffffffffffffffffffffffffffffffffffffff1681565b60095481565b6000601660008473ffffffffffffffffffffffffffffffffffffffff1673ffffffffffffffffffffffffffffffffffffffff16815260200190815260200160002060008373ffffffffffffffffffffffffffffffffffffffff1673ffffffffffffffffffffffffffffffffffffffff16815260200190815260200160002054905092915050565b6000809054906101000a900473ffffffffffffffffffffffffffffffffffffffff1673ffffffffffffffffffffffffffffffffffffffff163373ffffffffffffffffffffffffffffffffffffffff16141515611e7d57600080fd5b80600160006101000a81548173ffffffffffffffffffffffffffffffffffffffff021916908373ffffffffffffffffffffffffffffffffffffffff16021790555050565b60008082111515611ed157600080fd5b8183811515611edc57fe5b04905092915050565b60008183019050828110151515611efb57600080fd5b92915050565b600e54611f20611f0f6113a2565b601454611ee590919063ffffffff16565b118015611f2f57506027600d54105b15611f41576001600d5401600d819055505b611f5e6001600d540160020a600554611ec190919063ffffffff16565b60055403600e81905550611f7e6001600754611ee590919063ffffffff16565b6007819055506000600854600754811515611f9557fe5b061415611fa557611fa4611fd2565b5b6001430340600c8160001916905550565b6000828211151515611fc757600080fd5b818303905092915050565b600080600080600080600060065443039650600854955060c886029450848710156120915761201d8761200f60648861216390919063ffffffff16565b611ec190919063ffffffff16565b93506120476103e8612039606487611fb690919063ffffffff16565b61219490919063ffffffff16565b9250612086612075846120676107d0600b54611ec190919063ffffffff16565b61216390919063ffffffff16565b600b54611fb690919063ffffffff16565b600b81905550612127565b6120b7856120a960648a61216390919063ffffffff16565b611ec190919063ffffffff16565b91506120e16103e86120d3606485611fb690919063ffffffff16565b61219490919063ffffffff16565b905061212061210f826121016107d0600b54611ec190919063ffffffff16565b61216390919063ffffffff16565b600b54611ee590919063ffffffff16565b600b819055505b43600681905550600954600b54101561214457600954600b819055505b600a54600b54111561215a57600a54600b819055505b50505050505050565b600081830290506000831480612183575081838281151561218057fe5b04145b151561218e57600080fd5b92915050565b6000818311156121a6578190506121aa565b8290505b929150505600a165627a7a72305820ad93c7a7b9ba22a4ff6f47cedbac7bab35dd1120883d0b5bf6a4836f77999ce70029",
  "source": "/**\n *Submitted for verification at BscScan.com on 2021-03-12\n*/\n\npragma solidity ^0.4.18;\n\n// ----------------------------------------------------------------------------\n//\n// 'Native bitcoin on Binance Smart Chain' - BNBTC\n//\n// Mineable bitcoin token using Proof of Work\n//\n// An adaptation of 0xBTC token from the Ethereum mainnet \n// to be compliant with the Binance Smart Chain. \n// Motivation: after the DeFi-related increase of gas costs on the Ethereum\n// mainnet, an alternative for miners is needed.\n// BNBTC embodies such alternative and it restores the original Satoshi \n// Nakamoto's project settings for the difficulty adjustment period (2 weeks)\n// and max target.\n// \n//\n// Symbol       : BNBTC\n//\n// Name         : BNbitcoin Token - minable bitcoin on BSC\n//\n// Total supply : 21,000,000.00\n//\n// Decimals     : 8\n//\n//\n//\n// This code is licensed MIT.\n//\n// The original source code (see 0xbitcoin.foundation) is licensed MIT.\n//\n// Copyright (c) 2018 0xbitcoin.org\n//\n// Permission is hereby granted, free of charge, to any person\n// obtaining a copy of this software and associated documentation\n// files (the \"Software\"), to deal in the Software without\n// restriction, including without limitation the rights to use,\n// copy, modify, merge, publish, distribute, sublicense, and/or sell\n// copies of the Software, and to permit persons to whom the\n// Software is furnished to do so, subject to the following\n// conditions:\n// The above copyright notice and this permission notice shall be\n// included in all copies or substantial portions of the Software.\n// \n// THE SOFTWARE IS PROVIDED \"AS IS\", WITHOUT WARRANTY OF ANY KIND,\n// EXPRESS OR IMPLIED, INCLUDING BUT NOT LIMITED TO THE WARRANTIES\n// OF MERCHANTABILITY, FITNESS FOR A PARTICULAR PURPOSE AND\n// NONINFRINGEMENT. IN NO EVENT SHALL THE AUTHORS OR COPYRIGHT\n// HOLDERS BE LIABLE FOR ANY CLAIM, DAMAGES OR OTHER LIABILITY,\n// WHETHER IN AN ACTION OF CONTRACT, TORT OR OTHERWISE, ARISING\n// FROM, OUT OF OR IN CONNECTION WITH THE SOFTWARE OR THE USE OR\n// OTHER DEALINGS IN THE SOFTWARE.\n//\n// ----------------------------------------------------------------------------\n// Credits to infernal_toast, 0xBTC Contributors, Team and Supporters\n// for the pioneering work on mineable tokens.\n// ----------------------------------------------------------------------------\n//\n// ----------------------------------------------------------------------------\n\n// Safe math and extended math libraries\n\n// ----------------------------------------------------------------------------\n\nlibrary SafeMath {\n\n    function add(uint a, uint b) internal pure returns (uint c) {\n\n        c = a + b;\n\n        require(c >= a);\n\n    }\n\n    function sub(uint a, uint b) internal pure returns (uint c) {\n\n        require(b <= a);\n\n        c = a - b;\n\n    }\n\n    function mul(uint a, uint b) internal pure returns (uint c) {\n\n        c = a * b;\n\n        require(a == 0 || c / a == b);\n\n    }\n\n    function div(uint a, uint b) internal pure returns (uint c) {\n\n        require(b > 0);\n\n        c = a / b;\n\n    }\n\n}\n\n\n\nlibrary ExtendedMath {\n\n\n    //return the smaller of the two inputs (a or b)\n    function limitLessThan(uint a, uint b) internal pure returns (uint c) {\n\n        if(a > b) return b;\n\n        return a;\n\n    }\n}\n\n// ----------------------------------------------------------------------------\n\n// BEP20 interface compatible methods available\n\n// ----------------------------------------------------------------------------\n\ncontract BEP20Interface {\n\n    function totalSupply() public constant returns (uint);\n\n    function balanceOf(address tokenOwner) public constant returns (uint balance);\n\n    function allowance(address tokenOwner, address spender) public constant returns (uint remaining);\n\n    function transfer(address to, uint tokens) public returns (bool success);\n\n    function approve(address spender, uint tokens) public returns (bool success);\n\n    function transferFrom(address from, address to, uint tokens) public returns (bool success);\n\n\n    event Transfer(address indexed from, address indexed to, uint tokens);\n\n    event Approval(address indexed tokenOwner, address indexed spender, uint tokens);\n\n}\n\n\n\n// ----------------------------------------------------------------------------\n\n// Contract function to receive approval and execute function in one call\n\n//\n\n// Borrowed from MiniMeToken\n\n// ----------------------------------------------------------------------------\n\ncontract ApproveAndCallFallBack {\n\n    function receiveApproval(address from, uint256 tokens, address token, bytes data) public;\n\n}\n\n\n\n// ----------------------------------------------------------------------------\n\n// Owned contract\n\n// ----------------------------------------------------------------------------\n\ncontract Owned {\n\n    address public owner;\n\n    address public newOwner;\n\n\n    event OwnershipTransferred(address indexed _from, address indexed _to);\n\n\n    function Owned() public {\n\n        owner = msg.sender;\n\n    }\n\n\n    modifier onlyOwner {\n\n        require(msg.sender == owner);\n\n        _;\n\n    }\n\n    function transferOwnership(address _newOwner) public onlyOwner {\n\n        newOwner = _newOwner;\n\n    }\n\n    function acceptOwnership() public {\n\n        require(msg.sender == newOwner);\n\n        OwnershipTransferred(owner, newOwner);\n\n        owner = newOwner;\n\n        newOwner = address(0);\n\n    }\n    \n    function getOwner() external view returns (address) {\n        \n        return owner;\n        \n    }\n\n}\n\n\n// ----------------------------------------------------------------------------\n\ncontract _BNbitcoinToken is BEP20Interface, Owned {\n\n    using SafeMath for uint;\n    using ExtendedMath for uint;\n\n\n    string public symbol;\n\n    string public name;\n\n    uint8 public decimals;\n\n    uint public _totalSupply;\n\n\n\n    uint public latestDifficultyPeriodStarted;\n\n\n\n    uint public epochCount;//number of 'blocks' mined\n\n\n    uint public _BLOCKS_PER_READJUSTMENT = 2016;\n\n\n    //a little number\n    uint public  _MINIMUM_TARGET = 2**16;\n\n\n    //a big number is easier ; just find a solution that is smaller\n    uint public  _MAXIMUM_TARGET = 2**224;\n\n\n    uint public miningTarget;\n\n    bytes32 public challengeNumber;   //generate a new one when a new reward is minted\n\n\n\n    uint public rewardEra;\n    uint public maxSupplyForEra;\n\n\n    address public lastRewardTo;\n    uint public lastRewardAmount;\n    uint public lastRewardBscBlockNumber;\n\n    bool locked = false;\n\n    mapping(bytes32 => bytes32) solutionForChallenge;\n\n    uint public tokensMinted;\n\n    mapping(address => uint) balances;\n\n\n    mapping(address => mapping(address => uint)) allowed;\n\n\n    event Mint(address indexed from, uint reward_amount, uint epochCount, bytes32 newChallengeNumber);\n\n    // ------------------------------------------------------------------------\n\n    // Constructor\n\n    // ------------------------------------------------------------------------\n\n    function _BNbitcoinToken() public onlyOwner{\n\n\n\n        symbol = \"BNBTC\";\n\n        name = \"BNbitcoin Token - minable bitcoin on BSC\";\n\n        decimals = 8;\n\n        _totalSupply = 21000000 * 10**uint(decimals);\n\n        if(locked) revert();\n        locked = true;\n\n        tokensMinted = 0;\n\n        rewardEra = 0;\n        maxSupplyForEra = _totalSupply.div(2);\n\n        miningTarget = _MAXIMUM_TARGET;\n\n        latestDifficultyPeriodStarted = block.number;\n\n        _startNewMiningEpoch();\n\n\n    }\n\n\n\n\n        function mint(uint256 nonce, bytes32 challenge_digest) public returns (bool success) {\n\n\n            //the PoW must contain work that includes a recent BSC block hash (challenge number) and the msg.sender's address to prevent MITM attacks\n            bytes32 digest =  keccak256(challengeNumber, msg.sender, nonce );\n\n            //the challenge digest must match the expected\n            if (digest != challenge_digest) revert();\n\n            //the digest must be smaller than the target\n            if(uint256(digest) > miningTarget) revert();\n\n\n            //only allow one reward for each challenge\n             bytes32 solution = solutionForChallenge[challengeNumber];\n             solutionForChallenge[challengeNumber] = digest;\n             if(solution != 0x0) revert();  //prevent the same answer from awarding twice\n\n\n            uint reward_amount = getMiningReward();\n\n            balances[msg.sender] = balances[msg.sender].add(reward_amount);\n\n            tokensMinted = tokensMinted.add(reward_amount);\n\n\n            //Cannot mint more tokens than there are\n            assert(tokensMinted <= maxSupplyForEra);\n\n            //set readonly diagnostics data\n            lastRewardTo = msg.sender;\n            lastRewardAmount = reward_amount;\n            lastRewardBscBlockNumber = block.number;\n\n\n             _startNewMiningEpoch();\n\n              Mint(msg.sender, reward_amount, epochCount, challengeNumber );\n\n           return true;\n\n        }\n\n\n    //a new 'block' to be mined\n    function _startNewMiningEpoch() internal {\n\n      //if max supply for the era will be exceeded next reward round then enter the new era before that happens\n\n      //40 is the final reward era, almost all tokens minted\n      //once the final era is reached, more tokens will not be given out because the assert function\n      if( tokensMinted.add(getMiningReward()) > maxSupplyForEra && rewardEra < 39)\n      {\n        rewardEra = rewardEra + 1;\n      }\n\n      //set the next minted supply at which the era will change\n      // total supply is 2100000000000000  because of 8 decimal places\n      maxSupplyForEra = _totalSupply - _totalSupply.div( 2**(rewardEra + 1));\n\n      epochCount = epochCount.add(1);\n\n      //every so often, readjust difficulty. Dont readjust when deploying\n      if(epochCount % _BLOCKS_PER_READJUSTMENT == 0)\n      {\n        _reAdjustDifficulty();\n      }\n\n\n      //make the latest BSC block hash a part of the next challenge for PoW to prevent pre-mining future blocks\n      //do this last since this is a protection mechanism in the mint() function\n      challengeNumber = block.blockhash(block.number - 1);\n\n\n\n\n\n\n    }\n\n\n\n    // Difficulty:\n    //https://en.bitcoin.it/wiki/Difficulty#What_is_the_formula_for_difficulty.3F\n\n    //readjust the target by 5 percent\n    function _reAdjustDifficulty() internal {\n\n        uint bscBlocksSinceLastDifficultyPeriod = block.number - latestDifficultyPeriodStarted;\n\t\t// One BSC block = 3 sec. --> assuming 1200 BSC blocks per hour\n\n\t\t// we want miners to spend 10 minutes to mine each 'block', about 200 BSC blocks = one BNbitcoin epoch\n        uint epochsMined = _BLOCKS_PER_READJUSTMENT;\n\n        uint targetBscBlocksPerDiffPeriod = epochsMined * 200; //should be 200 times slower than BSC\n\n        //if, hypotetically, there were less BSC blocks passed in time than expected\n        if( bscBlocksSinceLastDifficultyPeriod < targetBscBlocksPerDiffPeriod )\n        {\n          uint excess_block_pct = (targetBscBlocksPerDiffPeriod.mul(100)).div( bscBlocksSinceLastDifficultyPeriod );\n\n          uint excess_block_pct_extra = excess_block_pct.sub(100).limitLessThan(1000);\n          // If there were 5% more blocks mined than expected then this is 5.  If there were 100% more blocks mined than expected then this is 100.\n\n          //make it harder\n          miningTarget = miningTarget.sub(miningTarget.div(2000).mul(excess_block_pct_extra));   //by up to 50 %\n        }else{\n          uint shortage_block_pct = (bscBlocksSinceLastDifficultyPeriod.mul(100)).div( targetBscBlocksPerDiffPeriod );\n\n          uint shortage_block_pct_extra = shortage_block_pct.sub(100).limitLessThan(1000); //always between 0 and 1000\n\n          //make it easier\n          miningTarget = miningTarget.add(miningTarget.div(2000).mul(shortage_block_pct_extra));   //by up to 50 %\n        }\n\n\n\n        latestDifficultyPeriodStarted = block.number;\n\n        if(miningTarget < _MINIMUM_TARGET) //very difficult\n        {\n          miningTarget = _MINIMUM_TARGET;\n        }\n\n        if(miningTarget > _MAXIMUM_TARGET) //very easy\n        {\n          miningTarget = _MAXIMUM_TARGET;\n        }\n    }\n\n\n    //this is a recent BSC block hash, used to prevent pre-mining future blocks\n    function getChallengeNumber() public constant returns (bytes32) {\n        return challengeNumber;\n    }\n\n    //the number of zeroes the digest of the PoW solution requires.  Auto adjusts\n     function getMiningDifficulty() public constant returns (uint) {\n        return _MAXIMUM_TARGET.div(miningTarget);\n    }\n\n    function getMiningTarget() public constant returns (uint) {\n       return miningTarget;\n   }\n\n\n\n    //21m coins total\n    //reward begins at 50 and is cut in half every reward era (as tokens are mined)\n    function getMiningReward() public constant returns (uint) {\n        //once we get half way thru the coins, only get 25 per block\n\n         //every reward era, the reward amount halves.\n\n         return (50 * 10**uint(decimals) ).div( 2**rewardEra ) ;\n\n    }\n\n    //help debug mining software\n    function getMintDigest(uint256 nonce, bytes32 challenge_digest, bytes32 challenge_number) public view returns (bytes32 digesttest) {\n\n        bytes32 digest = keccak256(challenge_number,msg.sender,nonce);\n\n        return digest;\n\n      }\n\n        //help debug mining software\n      function checkMintSolution(uint256 nonce, bytes32 challenge_digest, bytes32 challenge_number, uint testTarget) public view returns (bool success) {\n\n          bytes32 digest = keccak256(challenge_number,msg.sender,nonce);\n\n          if(uint256(digest) > testTarget) revert();\n\n          return (digest == challenge_digest);\n\n        }\n\n\n\n    // ------------------------------------------------------------------------\n\n    // Total supply\n\n    // ------------------------------------------------------------------------\n\n    function totalSupply() public constant returns (uint) {\n\n        return _totalSupply  - balances[address(0)];\n\n    }\n\n\n\n    // ------------------------------------------------------------------------\n\n    // Get the token balance for account `tokenOwner`\n\n    // ------------------------------------------------------------------------\n\n    function balanceOf(address tokenOwner) public constant returns (uint balance) {\n\n        return balances[tokenOwner];\n\n    }\n\n\n\n    // ------------------------------------------------------------------------\n\n    // Transfer the balance from token owner's account to `to` account\n\n    // - Owner's account must have sufficient balance to transfer\n\n    // - 0 value transfers are allowed\n\n    // ------------------------------------------------------------------------\n\n    function transfer(address to, uint tokens) public returns (bool success) {\n\n        balances[msg.sender] = balances[msg.sender].sub(tokens);\n\n        balances[to] = balances[to].add(tokens);\n\n        Transfer(msg.sender, to, tokens);\n\n        return true;\n\n    }\n\n\n\n    // ------------------------------------------------------------------------\n\n    // Token owner can approve for `spender` to transferFrom(...) `tokens`\n\n    // from the token owner's account\n\n    //\n\n    // Warning: there are no checks for the approval double-spend attack\n\n    // as this should be implemented in user interfaces\n\n    // ------------------------------------------------------------------------\n\n    function approve(address spender, uint tokens) public returns (bool success) {\n\n        allowed[msg.sender][spender] = tokens;\n\n        Approval(msg.sender, spender, tokens);\n\n        return true;\n\n    }\n\n\n\n    // ------------------------------------------------------------------------\n\n    // Transfer `tokens` from the `from` account to the `to` account\n\n    //\n\n    // The calling account must already have sufficient tokens approve(...)-d\n\n    // for spending from the `from` account and\n\n    // - From account must have sufficient balance to transfer\n\n    // - Spender must have sufficient allowance to transfer\n\n    // - 0 value transfers are allowed\n\n    // ------------------------------------------------------------------------\n\n    function transferFrom(address from, address to, uint tokens) public returns (bool success) {\n\n        balances[from] = balances[from].sub(tokens);\n\n        allowed[from][msg.sender] = allowed[from][msg.sender].sub(tokens);\n\n        balances[to] = balances[to].add(tokens);\n\n        Transfer(from, to, tokens);\n\n        return true;\n\n    }\n\n\n\n    // ------------------------------------------------------------------------\n\n    // Returns the amount of tokens approved by the owner that can be\n\n    // transferred to the spender's account\n\n    // ------------------------------------------------------------------------\n\n    function allowance(address tokenOwner, address spender) public constant returns (uint remaining) {\n\n        return allowed[tokenOwner][spender];\n\n    }\n\n\n\n    // ------------------------------------------------------------------------\n\n    // Token owner can approve for `spender` to transferFrom(...) `tokens`\n\n    // from the token owner's account. The `spender` contract function\n\n    // `receiveApproval(...)` is then executed\n\n    // ------------------------------------------------------------------------\n\n    function approveAndCall(address spender, uint tokens, bytes data) public returns (bool success) {\n\n        allowed[msg.sender][spender] = tokens;\n\n        Approval(msg.sender, spender, tokens);\n\n        ApproveAndCallFallBack(spender).receiveApproval(msg.sender, tokens, this, data);\n\n        return true;\n\n    }\n\n\n\n    // ------------------------------------------------------------------------\n\n    // The contract does not accept BNB directly\n\n    // ------------------------------------------------------------------------\n\n    function () public payable {\n\n        revert();\n\n    }\n\n\n\n    // ------------------------------------------------------------------------\n\n    // Any BEP20 standard token accidentally sent to the contract can be transferred out\n\n    // ------------------------------------------------------------------------\n\n    function transferAnyBEP20Token(address tokenAddress, uint tokens) public onlyOwner returns (bool success) {\n\n        return BEP20Interface(tokenAddress).transfer(owner, tokens);\n\n    }\n\n}\n",
  "sourcePath": "/home/maindell/myproject/contracts/_BNbitcoinToken.sol",
  "compiler": {
    "name": "solc",
    "version": "0.4.26+commit.4563c3fc.Emscripten.clang"
  },
  "schemaVersion": "3.4.1",
  "updatedAt": "2021-06-22T07:09:36.024Z",
  "devdoc": {
    "methods": {}
  },
  "userdoc": {
    "methods": {}
  }
}