{
  "abi": [
    {
      "inputs": [],
      "stateMutability": "nonpayable",
      "type": "constructor"
    },
    {
      "anonymous": false,
      "inputs": [
        {
          "indexed": true,
          "internalType": "address",
          "name": "payer",
          "type": "address"
        },
        {
          "indexed": true,
          "internalType": "address",
          "name": "member",
          "type": "address"
        },
        {
          "indexed": false,
          "internalType": "uint256",
          "name": "era",
          "type": "uint256"
        },
        {
          "indexed": false,
          "internalType": "uint256",
          "name": "day",
          "type": "uint256"
        },
        {
          "indexed": false,
          "internalType": "uint256",
          "name": "units",
          "type": "uint256"
        },
        {
          "indexed": false,
          "internalType": "uint256",
          "name": "dailyTotal",
          "type": "uint256"
        }
      ],
      "name": "Burn",
      "type": "event"
    },
    {
      "anonymous": false,
      "inputs": [
        {
          "indexed": true,
          "internalType": "address",
          "name": "payer",
          "type": "address"
        },
        {
          "indexed": true,
          "internalType": "address",
          "name": "member",
          "type": "address"
        },
        {
          "indexed": false,
          "internalType": "uint256",
          "name": "era",
          "type": "uint256"
        },
        {
          "indexed": false,
          "internalType": "uint256",
          "name": "NumberOfDays",
          "type": "uint256"
        },
        {
          "indexed": false,
          "internalType": "uint256",
          "name": "totalUnits",
          "type": "uint256"
        }
      ],
      "name": "BurnMultipleDays",
      "type": "event"
    },
    {
      "anonymous": false,
      "inputs": [
        {
          "indexed": true,
          "internalType": "address",
          "name": "caller",
          "type": "address"
        },
        {
          "indexed": true,
          "internalType": "address",
          "name": "member",
          "type": "address"
        },
        {
          "indexed": false,
          "internalType": "uint256",
          "name": "era",
          "type": "uint256"
        },
        {
          "indexed": false,
          "internalType": "uint256",
          "name": "TotalDays",
          "type": "uint256"
        },
        {
          "indexed": false,
          "internalType": "uint256",
          "name": "stricttotal",
          "type": "uint256"
        }
      ],
      "name": "MegaWithdrawal",
      "type": "event"
    },
    {
      "anonymous": false,
      "inputs": [
        {
          "indexed": false,
          "internalType": "uint256",
          "name": "era",
          "type": "uint256"
        },
        {
          "indexed": false,
          "internalType": "uint256",
          "name": "day",
          "type": "uint256"
        },
        {
          "indexed": false,
          "internalType": "uint256",
          "name": "time",
          "type": "uint256"
        },
        {
          "indexed": false,
          "internalType": "uint256",
          "name": "previousDayTotal",
          "type": "uint256"
        },
        {
          "indexed": false,
          "internalType": "uint256",
          "name": "previousDayMembers",
          "type": "uint256"
        }
      ],
      "name": "NewDay",
      "type": "event"
    },
    {
      "anonymous": false,
      "inputs": [
        {
          "indexed": false,
          "internalType": "uint256",
          "name": "era",
          "type": "uint256"
        },
        {
          "indexed": false,
          "internalType": "uint256",
          "name": "emission",
          "type": "uint256"
        },
        {
          "indexed": false,
          "internalType": "uint256",
          "name": "totalBurnt",
          "type": "uint256"
        }
      ],
      "name": "NewEra",
      "type": "event"
    },
    {
      "anonymous": false,
      "inputs": [
        {
          "indexed": false,
          "internalType": "uint256",
          "name": "_prev",
          "type": "uint256"
        },
        {
          "indexed": false,
          "internalType": "uint256",
          "name": "_new",
          "type": "uint256"
        }
      ],
      "name": "SetExtraGas",
      "type": "event"
    },
    {
      "anonymous": false,
      "inputs": [
        {
          "indexed": false,
          "internalType": "address",
          "name": "_from",
          "type": "address"
        },
        {
          "indexed": false,
          "internalType": "address",
          "name": "_to",
          "type": "address"
        }
      ],
      "name": "TransferOwnership",
      "type": "event"
    },
    {
      "anonymous": false,
      "inputs": [
        {
          "indexed": true,
          "internalType": "address",
          "name": "caller",
          "type": "address"
        },
        {
          "indexed": true,
          "internalType": "address",
          "name": "member",
          "type": "address"
        },
        {
          "indexed": false,
          "internalType": "uint256",
          "name": "era",
          "type": "uint256"
        },
        {
          "indexed": false,
          "internalType": "uint256",
          "name": "day",
          "type": "uint256"
        },
        {
          "indexed": false,
          "internalType": "uint256",
          "name": "value",
          "type": "uint256"
        },
        {
          "indexed": false,
          "internalType": "uint256",
          "name": "vetherRemaining",
          "type": "uint256"
        }
      ],
      "name": "Withdrawal",
      "type": "event"
    },
    {
      "stateMutability": "payable",
      "type": "fallback"
    },
    {
      "inputs": [],
      "name": "AddressForgeToken",
      "outputs": [
        {
          "internalType": "address",
          "name": "",
          "type": "address"
        }
      ],
      "stateMutability": "view",
      "type": "function"
    },
    {
      "inputs": [],
      "name": "AddressZeroXBTC",
      "outputs": [
        {
          "internalType": "address",
          "name": "",
          "type": "address"
        }
      ],
      "stateMutability": "view",
      "type": "function"
    },
    {
      "inputs": [
        {
          "internalType": "address",
          "name": "_member",
          "type": "address"
        }
      ],
      "name": "Check_Withdraw_Amt",
      "outputs": [
        {
          "internalType": "uint256",
          "name": "amt",
          "type": "uint256"
        }
      ],
      "stateMutability": "view",
      "type": "function"
    },
    {
      "inputs": [
        {
          "internalType": "uint256",
          "name": "_era",
          "type": "uint256"
        },
        {
          "internalType": "uint256[]",
          "name": "fdays",
          "type": "uint256[]"
        },
        {
          "internalType": "address",
          "name": "_member",
          "type": "address"
        }
      ],
      "name": "Check_Withdrawls_Days",
      "outputs": [
        {
          "internalType": "uint256",
          "name": "check",
          "type": "uint256"
        }
      ],
      "stateMutability": "view",
      "type": "function"
    },
    {
      "inputs": [
        {
          "internalType": "uint256",
          "name": "_era",
          "type": "uint256"
        },
        {
          "internalType": "uint256[]",
          "name": "fdays",
          "type": "uint256[]"
        },
        {
          "internalType": "address",
          "name": "_member",
          "type": "address"
        },
        {
          "internalType": "uint256[]",
          "name": "_0xbtcAmount",
          "type": "uint256[]"
        }
      ],
      "name": "FutureBurn0xBTCArrays",
      "outputs": [
        {
          "internalType": "bool",
          "name": "success",
          "type": "bool"
        }
      ],
      "stateMutability": "nonpayable",
      "type": "function"
    },
    {
      "inputs": [
        {
          "internalType": "uint256",
          "name": "_era",
          "type": "uint256"
        },
        {
          "internalType": "uint256",
          "name": "startingday",
          "type": "uint256"
        },
        {
          "internalType": "uint256",
          "name": "totalNumberrOfDays",
          "type": "uint256"
        },
        {
          "internalType": "address",
          "name": "_member",
          "type": "address"
        },
        {
          "internalType": "uint256",
          "name": "_0xbtcAmountTotal",
          "type": "uint256"
        }
      ],
      "name": "FutureBurn0xBTCEasier",
      "outputs": [
        {
          "internalType": "bool",
          "name": "success",
          "type": "bool"
        }
      ],
      "stateMutability": "nonpayable",
      "type": "function"
    },
    {
      "inputs": [
        {
          "internalType": "address",
          "name": "member",
          "type": "address"
        },
        {
          "internalType": "uint256",
          "name": "_0xbtcAmountTotal",
          "type": "uint256"
        }
      ],
      "name": "WholeEraBurn0xBTCForMember",
      "outputs": [
        {
          "internalType": "bool",
          "name": "success",
          "type": "bool"
        }
      ],
      "stateMutability": "nonpayable",
      "type": "function"
    },
    {
      "inputs": [],
      "name": "WithdrawEasiest",
      "outputs": [],
      "stateMutability": "nonpayable",
      "type": "function"
    },
    {
      "inputs": [
        {
          "internalType": "address",
          "name": "_member",
          "type": "address"
        }
      ],
      "name": "WithdrawEz",
      "outputs": [],
      "stateMutability": "nonpayable",
      "type": "function"
    },
    {
      "inputs": [
        {
          "internalType": "uint256",
          "name": "_era",
          "type": "uint256"
        },
        {
          "internalType": "uint256[]",
          "name": "fdays",
          "type": "uint256[]"
        },
        {
          "internalType": "address",
          "name": "_member",
          "type": "address"
        }
      ],
      "name": "WithdrawlsDays",
      "outputs": [
        {
          "internalType": "bool",
          "name": "success",
          "type": "bool"
        }
      ],
      "stateMutability": "nonpayable",
      "type": "function"
    },
    {
      "inputs": [
        {
          "internalType": "address",
          "name": "",
          "type": "address"
        }
      ],
      "name": "ZmapMember_DayClaimedTo",
      "outputs": [
        {
          "internalType": "uint256",
          "name": "",
          "type": "uint256"
        }
      ],
      "stateMutability": "view",
      "type": "function"
    },
    {
      "inputs": [
        {
          "internalType": "address",
          "name": "",
          "type": "address"
        }
      ],
      "name": "ZmapMember_EraClaimedTo",
      "outputs": [
        {
          "internalType": "uint256",
          "name": "",
          "type": "uint256"
        }
      ],
      "stateMutability": "view",
      "type": "function"
    },
    {
      "inputs": [
        {
          "internalType": "address",
          "name": "member",
          "type": "address"
        },
        {
          "internalType": "uint256",
          "name": "_0xbtcAmount",
          "type": "uint256"
        }
      ],
      "name": "burn0xBTCForMember",
      "outputs": [
        {
          "internalType": "bool",
          "name": "success",
          "type": "bool"
        }
      ],
      "stateMutability": "nonpayable",
      "type": "function"
    },
    {
      "inputs": [],
      "name": "currentDay",
      "outputs": [
        {
          "internalType": "uint256",
          "name": "",
          "type": "uint256"
        }
      ],
      "stateMutability": "view",
      "type": "function"
    },
    {
      "inputs": [],
      "name": "currentEra",
      "outputs": [
        {
          "internalType": "uint256",
          "name": "",
          "type": "uint256"
        }
      ],
      "stateMutability": "view",
      "type": "function"
    },
    {
      "inputs": [],
      "name": "daysPerEra",
      "outputs": [
        {
          "internalType": "uint256",
          "name": "",
          "type": "uint256"
        }
      ],
      "stateMutability": "view",
      "type": "function"
    },
    {
      "inputs": [],
      "name": "decimals",
      "outputs": [
        {
          "internalType": "uint256",
          "name": "",
          "type": "uint256"
        }
      ],
      "stateMutability": "view",
      "type": "function"
    },
    {
      "inputs": [],
      "name": "emission",
      "outputs": [
        {
          "internalType": "uint256",
          "name": "",
          "type": "uint256"
        }
      ],
      "stateMutability": "view",
      "type": "function"
    },
    {
      "inputs": [],
      "name": "extraGas",
      "outputs": [
        {
          "internalType": "uint256",
          "name": "",
          "type": "uint256"
        }
      ],
      "stateMutability": "view",
      "type": "function"
    },
    {
      "inputs": [],
      "name": "getDayEmission",
      "outputs": [
        {
          "internalType": "uint256",
          "name": "",
          "type": "uint256"
        }
      ],
      "stateMutability": "view",
      "type": "function"
    },
    {
      "inputs": [
        {
          "internalType": "address",
          "name": "member",
          "type": "address"
        },
        {
          "internalType": "uint256",
          "name": "era",
          "type": "uint256"
        }
      ],
      "name": "getDaysContributedForEra",
      "outputs": [
        {
          "internalType": "uint256",
          "name": "",
          "type": "uint256"
        }
      ],
      "stateMutability": "view",
      "type": "function"
    },
    {
      "inputs": [
        {
          "internalType": "uint256",
          "name": "era",
          "type": "uint256"
        },
        {
          "internalType": "uint256",
          "name": "day",
          "type": "uint256"
        },
        {
          "internalType": "address",
          "name": "member",
          "type": "address"
        }
      ],
      "name": "getEmissionShare",
      "outputs": [
        {
          "internalType": "uint256",
          "name": "value",
          "type": "uint256"
        }
      ],
      "stateMutability": "view",
      "type": "function"
    },
    {
      "inputs": [],
      "name": "getNextEraEmission",
      "outputs": [
        {
          "internalType": "uint256",
          "name": "",
          "type": "uint256"
        }
      ],
      "stateMutability": "view",
      "type": "function"
    },
    {
      "inputs": [],
      "name": "getSecondsPerDay",
      "outputs": [
        {
          "internalType": "uint256",
          "name": "",
          "type": "uint256"
        }
      ],
      "stateMutability": "view",
      "type": "function"
    },
    {
      "inputs": [],
      "name": "lastMinted",
      "outputs": [
        {
          "internalType": "uint256",
          "name": "",
          "type": "uint256"
        }
      ],
      "stateMutability": "view",
      "type": "function"
    },
    {
      "inputs": [
        {
          "internalType": "uint256",
          "name": "",
          "type": "uint256"
        },
        {
          "internalType": "uint256",
          "name": "",
          "type": "uint256"
        }
      ],
      "name": "mapEraDay_EmissionRemaining",
      "outputs": [
        {
          "internalType": "uint256",
          "name": "",
          "type": "uint256"
        }
      ],
      "stateMutability": "view",
      "type": "function"
    },
    {
      "inputs": [
        {
          "internalType": "uint256",
          "name": "",
          "type": "uint256"
        },
        {
          "internalType": "uint256",
          "name": "",
          "type": "uint256"
        }
      ],
      "name": "mapEraDay_MemberCount",
      "outputs": [
        {
          "internalType": "uint256",
          "name": "",
          "type": "uint256"
        }
      ],
      "stateMutability": "view",
      "type": "function"
    },
    {
      "inputs": [
        {
          "internalType": "uint256",
          "name": "",
          "type": "uint256"
        },
        {
          "internalType": "uint256",
          "name": "",
          "type": "uint256"
        },
        {
          "internalType": "address",
          "name": "",
          "type": "address"
        }
      ],
      "name": "mapEraDay_MemberUnits",
      "outputs": [
        {
          "internalType": "uint256",
          "name": "",
          "type": "uint256"
        }
      ],
      "stateMutability": "view",
      "type": "function"
    },
    {
      "inputs": [
        {
          "internalType": "uint256",
          "name": "",
          "type": "uint256"
        },
        {
          "internalType": "uint256",
          "name": "",
          "type": "uint256"
        },
        {
          "internalType": "uint256",
          "name": "",
          "type": "uint256"
        }
      ],
      "name": "mapEraDay_Members",
      "outputs": [
        {
          "internalType": "address",
          "name": "",
          "type": "address"
        }
      ],
      "stateMutability": "view",
      "type": "function"
    },
    {
      "inputs": [
        {
          "internalType": "uint256",
          "name": "",
          "type": "uint256"
        },
        {
          "internalType": "uint256",
          "name": "",
          "type": "uint256"
        }
      ],
      "name": "mapEraDay_Units",
      "outputs": [
        {
          "internalType": "uint256",
          "name": "",
          "type": "uint256"
        }
      ],
      "stateMutability": "view",
      "type": "function"
    },
    {
      "inputs": [
        {
          "internalType": "uint256",
          "name": "",
          "type": "uint256"
        },
        {
          "internalType": "uint256",
          "name": "",
          "type": "uint256"
        }
      ],
      "name": "mapEraDay_UnitsRemaining",
      "outputs": [
        {
          "internalType": "uint256",
          "name": "",
          "type": "uint256"
        }
      ],
      "stateMutability": "view",
      "type": "function"
    },
    {
      "inputs": [
        {
          "internalType": "uint256",
          "name": "",
          "type": "uint256"
        }
      ],
      "name": "mapEra_Emission",
      "outputs": [
        {
          "internalType": "uint256",
          "name": "",
          "type": "uint256"
        }
      ],
      "stateMutability": "view",
      "type": "function"
    },
    {
      "inputs": [
        {
          "internalType": "address",
          "name": "",
          "type": "address"
        },
        {
          "internalType": "uint256",
          "name": "",
          "type": "uint256"
        },
        {
          "internalType": "uint256",
          "name": "",
          "type": "uint256"
        }
      ],
      "name": "mapMemberEra_Days",
      "outputs": [
        {
          "internalType": "uint256",
          "name": "",
          "type": "uint256"
        }
      ],
      "stateMutability": "view",
      "type": "function"
    },
    {
      "inputs": [],
      "name": "name",
      "outputs": [
        {
          "internalType": "string",
          "name": "",
          "type": "string"
        }
      ],
      "stateMutability": "view",
      "type": "function"
    },
    {
      "inputs": [],
      "name": "nextDayTime",
      "outputs": [
        {
          "internalType": "uint256",
          "name": "",
          "type": "uint256"
        }
      ],
      "stateMutability": "view",
      "type": "function"
    },
    {
      "inputs": [],
      "name": "owner22",
      "outputs": [
        {
          "internalType": "address",
          "name": "",
          "type": "address"
        }
      ],
      "stateMutability": "view",
      "type": "function"
    },
    {
      "inputs": [],
      "name": "secondsPerDay",
      "outputs": [
        {
          "internalType": "uint256",
          "name": "",
          "type": "uint256"
        }
      ],
      "stateMutability": "view",
      "type": "function"
    },
    {
      "inputs": [],
      "name": "totalAuctioned",
      "outputs": [
        {
          "internalType": "uint256",
          "name": "",
          "type": "uint256"
        }
      ],
      "stateMutability": "view",
      "type": "function"
    },
    {
      "inputs": [],
      "name": "totalBurnt",
      "outputs": [
        {
          "internalType": "uint256",
          "name": "",
          "type": "uint256"
        }
      ],
      "stateMutability": "view",
      "type": "function"
    },
    {
      "inputs": [],
      "name": "totalEmitted",
      "outputs": [
        {
          "internalType": "uint256",
          "name": "",
          "type": "uint256"
        }
      ],
      "stateMutability": "view",
      "type": "function"
    },
    {
      "inputs": [
        {
          "internalType": "uint256",
          "name": "era",
          "type": "uint256"
        },
        {
          "internalType": "uint256",
          "name": "day",
          "type": "uint256"
        }
      ],
      "name": "withdrawShare",
      "outputs": [
        {
          "internalType": "uint256",
          "name": "value",
          "type": "uint256"
        }
      ],
      "stateMutability": "nonpayable",
      "type": "function"
    },
    {
      "inputs": [
        {
          "internalType": "uint256",
          "name": "era",
          "type": "uint256"
        },
        {
          "internalType": "uint256",
          "name": "day",
          "type": "uint256"
        },
        {
          "internalType": "address",
          "name": "member",
          "type": "address"
        }
      ],
      "name": "withdrawShareForMember",
      "outputs": [
        {
          "internalType": "uint256",
          "name": "value",
          "type": "uint256"
        }
      ],
      "stateMutability": "nonpayable",
      "type": "function"
    },
    {
      "inputs": [
        {
          "internalType": "address",
          "name": "token",
          "type": "address"
        },
        {
          "internalType": "address",
          "name": "_ZeroXBTCAddress",
          "type": "address"
        }
      ],
      "name": "zSetUP1",
      "outputs": [],
      "stateMutability": "nonpayable",
      "type": "function"
    },
    {
      "inputs": [
        {
          "internalType": "uint256",
          "name": "newMaxDay",
          "type": "uint256"
        },
        {
          "internalType": "uint256",
          "name": "newMaxEra",
          "type": "uint256"
        }
      ],
      "name": "z_ChangeMaxWithdrawl",
      "outputs": [
        {
          "internalType": "bool",
          "name": "success",
          "type": "bool"
        }
      ],
      "stateMutability": "nonpayable",
      "type": "function"
    },
    {
      "inputs": [
        {
          "internalType": "address",
          "name": "tokenAddress",
          "type": "address"
        }
      ],
      "name": "z_transferERC20TokenToMinerContract",
      "outputs": [
        {
          "internalType": "bool",
          "name": "success",
          "type": "bool"
        }
      ],
      "stateMutability": "nonpayable",
      "type": "function"
    },
    {
      "stateMutability": "payable",
      "type": "receive"
    }
  ],
  "bytecode": "60806040526005805460ff19908116909155670de0b6b3a76400006006556305f5e1006007556000600e8190556021556022805490911690553480156200004557600080fd5b50600180546001600160a01b03191633908117909155604080516000815260208101929092527f5c486528ec3e3f0ea91181cff8116f02bfa350e03b8b6f12e00765adbb5af85c910160405180910390a16040805180820190915260108082526f105d58dd1a5bdb8810dbdb9d1c9858dd60821b6020909201918252620000cf9160089162000161565b5060126009819055620000e490600a6200031c565b600c819055620000f79061080062000331565b600d556001600f8190556010556102586011556203f48060128190556000601481905560155562000129904262000353565b601355600d54600f8054600090815260166020908152604080832085905592548252601b8152828220601054835290522055620003ab565b8280546200016f906200036e565b90600052602060002090601f016020900481019282620001935760008555620001de565b82601f10620001ae57805160ff1916838001178555620001de565b82800160010185558215620001de579182015b82811115620001de578251825591602001919060010190620001c1565b50620001ec929150620001f0565b5090565b5b80821115620001ec5760008155600101620001f1565b634e487b7160e01b600052601160045260246000fd5b600181815b808511156200025e57816000190482111562000242576200024262000207565b808516156200025057918102915b93841c939080029062000222565b509250929050565b600082620002775750600162000316565b81620002865750600062000316565b81600181146200029f5760028114620002aa57620002ca565b600191505062000316565b60ff841115620002be57620002be62000207565b50506001821b62000316565b5060208310610133831016604e8410600b8410161715620002ef575081810a62000316565b620002fb83836200021d565b806000190482111562000312576200031262000207565b0290505b92915050565b60006200032a838362000266565b9392505050565b60008160001904831182151516156200034e576200034e62000207565b500290565b6000821982111562000369576200036962000207565b500190565b600181811c908216806200038357607f821691505b60208210811415620003a557634e487b7160e01b600052602260045260246000fd5b50919050565b61285080620003bb6000396000f3fe6080604052600436106102765760003560e01c80638aab30d31161014f578063c31842e1116100c1578063e82481cf1161007a578063e82481cf14610815578063ee1f84c31461082a578063f1261e921461084a578063fc5c88fc1461086a578063fee05d621461087f578063ffb671861461089557600080fd5b8063c31842e114610722578063c8b9ee6f14610742578063cb65ee9214610757578063dac679ec14610784578063dc3222a6146107bc578063df0244b1146107ff57600080fd5b8063973628f611610113578063973628f61461065e578063a0dab24114610674578063a5a1ba2114610694578063b36a8ff2146106cc578063bbc19ab0146106ec578063bdf756611461070257600080fd5b80638aab30d31461058f578063960bc0f1146105ce5780639618f7a8146105ee578063966ff6501461062657806396ef58111461063c57600080fd5b80635a723dc6116101e85780637400457f116101ac5780637400457f146104b957806377217a89146104d95780637c38a21b14610517578063827c049e146105375780638454ed271461054d57806389b86db51461057a57600080fd5b80635a723dc6146104155780635c9302c91461043557806360b292591461044b57806363809953146104835780636de63e261461049957600080fd5b8063313ce5671161023a578063313ce567146103665780633767e3391461037c5780633ac1c863146103925780633db9a7ec146103a857806349e8a6ad146103c8578063510de094146103f557600080fd5b806306fdde0314610285578063090eb616146102b05780630e21f7b4146102e057806323ba5324146103185780632a423be81461033857600080fd5b3661028057600080fd5b600080fd5b34801561029157600080fd5b5061029a6108ab565b6040516102a7919061235b565b60405180910390f35b3480156102bc57600080fd5b506102d06102cb36600461247d565b610939565b60405190151581526020016102a7565b3480156102ec57600080fd5b506103006102fb3660046124fb565b610c35565b6040516001600160a01b0390911681526020016102a7565b34801561032457600080fd5b50600154610300906001600160a01b031681565b34801561034457600080fd5b50610358610353366004612527565b610c7a565b6040519081526020016102a7565b34801561037257600080fd5b5061035860095481565b34801561038857600080fd5b5061035860045481565b34801561039e57600080fd5b5061035860115481565b3480156103b457600080fd5b506103586103c3366004612549565b610cbc565b3480156103d457600080fd5b506103586103e336600461257c565b601e6020526000908152604090205481565b34801561040157600080fd5b50600254610300906001600160a01b031681565b34801561042157600080fd5b5061035861043036600461257c565b610cfa565b34801561044157600080fd5b5061035860105481565b34801561045757600080fd5b50610358610466366004612527565b601960209081526000928352604080842090915290825290205481565b34801561048f57600080fd5b5061035860125481565b3480156104a557600080fd5b506102d06104b4366004612597565b610e38565b3480156104c557600080fd5b506102d06104d4366004612597565b610f97565b3480156104e557600080fd5b506103586104f43660046125c1565b601c60209081526000938452604080852082529284528284209052825290205481565b34801561052357600080fd5b506103586105323660046125f6565b610fd4565b34801561054357600080fd5b50610358600d5481565b34801561055957600080fd5b50610358610568366004612644565b60166020526000908152604090205481565b34801561058657600080fd5b5061035861116e565b34801561059b57600080fd5b506102d06105aa366004612527565b336000908152601f6020908152604080832094909455601e90529190912055600190565b3480156105da57600080fd5b506102d06105e93660046125f6565b611197565b3480156105fa57600080fd5b50610358610609366004612527565b601760209081526000928352604080842090915290825290205481565b34801561063257600080fd5b5061035860145481565b34801561064857600080fd5b5061065c61065736600461265d565b611313565b005b34801561066a57600080fd5b50610358600f5481565b34801561068057600080fd5b506102d061068f366004612690565b611405565b3480156106a057600080fd5b506103586106af366004612527565b601b60209081526000928352604080842090915290825290205481565b3480156106d857600080fd5b506102d06106e736600461257c565b61152b565b3480156106f857600080fd5b5061035860215481565b34801561070e57600080fd5b5061035861071d3660046125c1565b611649565b34801561072e57600080fd5b5061035861073d3660046125c1565b61174e565b34801561074e57600080fd5b5061065c611791565b34801561076357600080fd5b5061035861077236600461257c565b601f6020526000908152604090205481565b34801561079057600080fd5b5061035861079f366004612527565b601a60209081526000928352604080842090915290825290205481565b3480156107c857600080fd5b506103586107d7366004612597565b6001600160a01b03919091166000908152601d60209081526040808320938352929052205490565b34801561080b57600080fd5b5061035860155481565b34801561082157600080fd5b5061035861179c565b34801561083657600080fd5b5061065c61084536600461257c565b61185a565b34801561085657600080fd5b50600354610300906001600160a01b031681565b34801561087657600080fd5b50601254610358565b34801561088b57600080fd5b5061035860135481565b3480156108a157600080fd5b50610358600e5481565b600880546108b8906126d7565b80601f01602080910402602001604051908101604052809291908181526020018280546108e4906126d7565b80156109315780601f1061090657610100808354040283529160200191610931565b820191906000526020600020905b81548152906001019060200180831161091457829003601f168201915b505050505081565b601154600f5460105460009283929091818910156109aa5760405162461bcd60e51b815260206004820152602360248201527f6e6f206b6e75636b6c6568656164206f6e6c7920626964206f6e20746869732060448201526265726160e81b60648201526084015b60405180910390fd5b60005b8851811015610af55760008782815181106109ca576109ca612712565b60200260200101519050838b1415610a47576010548a83815181106109f1576109f1612712565b60200260200101511015610a475760405162461bcd60e51b815260206004820152601c60248201527f4d757374206e6f742062696420626568696e642074686520646179730000000060448201526064016109a1565b848a8381518110610a5a57610a5a612712565b60200260200101511115610ab05760405162461bcd60e51b815260206004820152601b60248201527f43616e7420626964206f6e2064617973206e6f7420696e20657261000000000060448201526064016109a1565b610aba86826119a8565b9550610ae2338a8d8d8681518110610ad457610ad4612712565b6020026020010151856119f6565b5080610aed8161273e565b9150506109ad565b506002546003546040516323b872dd60e01b81523360048201526001600160a01b039182166024820152604481018790529116906323b872dd906064016020604051808303816000875af1158015610b51573d6000803e3d6000fd5b505050506040513d601f19601f82011682018060405250810190610b759190612759565b610bd65760405162461bcd60e51b815260206004820152602c60248201527f4e4f204f54484552205741592c2073656e64206974207468652072657175697260448201526b32b210183c2134ba31b7b4b760a11b60648201526084016109a1565b8751604080518b8152602081019290925281018590526001600160a01b0388169033907fb4e1fdf06308d5caa2de01f8db08d933fcf160bcda97c1576b56a0c00e893f319060600160405180910390a350600198975050505050505050565b60186020528260005260406000206020528160005260406000208181548110610c5d57600080fd5b6000918252602090912001546001600160a01b0316925083915050565b6000828152601c60209081526040808320848452825280832033845290915281205480610ca957610ca961277b565b610cb4848433611b87565b949350505050565b601d6020528260005260406000206020528160005260406000208181548110610ce457600080fd5b9060005260206000200160009250925050505481565b6001600160a01b0381166000908152601f6020908152604080832054601e90925282205481610d2857600191505b80610d31575060015b60016000825b600f548111610e2e57600f548114610d53576011549250610d65565b6001601054610d629190612791565b92505b6000610d718685612791565b610d7c9060016127a8565b67ffffffffffffffff811115610d9457610d946123b0565b604051908082528060200260200182016040528015610dbd578160200160208202803683370190505b509050855b848111610e02578082610dd58983612791565b81518110610de557610de5612712565b602090810291909101015280610dfa8161273e565b915050610dc2565b50610e0e82828a610fd4565b610e1890846127a8565b9250508080610e269061273e565b915050610d37565b5095945050505050565b6010546002546003546040516323b872dd60e01b81523360048201526001600160a01b039182166024820152604481018590526000939291909116906323b872dd906064016020604051808303816000875af1158015610e9c573d6000803e3d6000fd5b505050506040513d601f19601f82011682018060405250810190610ec09190612759565b610f0c5760405162461bcd60e51b815260206004820152601b60248201527f4e4f205741592c2072657175697265732030784254432073656e64000000000060448201526064016109a1565b610f1d3385600f54601054876119f6565b600f54600081815260196020908152604080832060105484528252918290205482519384529083018490528282018690526060830152516001600160a01b0386169133917f661f25a08ee5c15fc997f7288c9cd798e1905052f21d761925800799791f130b9181900360800190a360019150505b92915050565b6000806001601054601154610fac9190612791565b610fb69190612791565b9050610fc9600f54601054838787611405565b506001949350505050565b600080805b845181101561115757600f5486101561108b576000868152601c602052604081208651829088908590811061101057611010612712565b602002602001015181526020019081526020016000206000866001600160a01b03166001600160a01b0316815260200190815260200160002054905080600014611085576110788787848151811061106a5761106a612712565b602002602001015187611649565b61108290846127a8565b92505b50611145565b600f54861415611145576010548582815181106110aa576110aa612712565b60200260200101511015611145576000868152601c60205260408120865182908890859081106110dc576110dc612712565b602002602001015181526020019081526020016000206000866001600160a01b03166001600160a01b0316815260200190815260200160002054905080600014611143576111368787848151811061106a5761106a612712565b61114090846127a8565b92505b505b8061114f8161273e565b915050610fd9565b506111638160046127c0565b9150505b9392505050565b6000600c54600d541115611190576002600d5461118b91906127df565b905090565b50600c5490565b600080805b845181101561123f57600f548610156111e4576111dd6111d6878784815181106111c8576111c8612712565b602002602001015187611bcc565b83906119a8565b915061122d565b600f5486141561122d5760105485828151811061120357611203612712565b6020026020010151101561122d5761122a6111d6878784815181106111c8576111c8612712565b91505b806112378161273e565b91505061119c565b5060035460405163a9059cbb60e01b81526001600160a01b038581166004830152602482018490529091169063a9059cbb906044016020604051808303816000875af1158015611293573d6000803e3d6000fd5b505050506040513d601f19601f820116820180604052508101906112b79190612759565b50835160408051878152602081019290925281018290526001600160a01b0384169033907fc6fadbab41d2daf77182ff3236e4abbb3c021507103dc894b421b1d68f88acea9060600160405180910390a3506001949350505050565b6001546001600160a01b0316331461135a5760405162461bcd60e51b815260206004820152600a60248201526937b7363c9037bbb732b960b11b60448201526064016109a1565b600380546001600160a01b038085166001600160a01b0319928316811790935560018054831690556000602155600280549185169183169190911790556020805490911682178155604080516306055f5f60e51b8152905163c0abebe0926004808401939192918290030181865afa1580156113da573d6000803e3d6000fd5b505050506040513d601f19601f820116820180604052508101906113fe9190612801565b6021555050565b6000808467ffffffffffffffff811115611421576114216123b0565b60405190808252806020026020018201604052801561144a578160200160208202803683370190505b50905060008567ffffffffffffffff811115611468576114686123b0565b604051908082528060200260200182016040528015611491578160200160208202803683370190505b5090506000875b6114a2888a6127a8565b81101561150e57808483815181106114bc576114bc612712565b60209081029190910101526114d188876127df565b8383815181106114e3576114e3612712565b6020908102919091010152816114f88161273e565b92505080806115069061273e565b915050611498565b5061151b89848885610939565b5060019998505050505050505050565b6002546000906001600160a01b0383811691161480159061155a57506003546001600160a01b03838116911614155b61156357600080fd5b6003546040516370a0823160e01b81523060048201526001600160a01b038481169263a9059cbb9291169083906370a0823190602401602060405180830381865afa1580156115b6573d6000803e3d6000fd5b505050506040513d601f19601f820116820180604052508101906115da9190612801565b6040516001600160e01b031960e085901b1681526001600160a01b03909216600483015260248201526044016020604051808303816000875af1158015611625573d6000803e3d6000fd5b505050506040513d601f19601f82011682018060405250810190610f919190612759565b6000838152601c6020908152604080832085845282528083206001600160a01b038516845290915281205480611683576000915050611167565b6000858152601a60209081526040808320878452825280832054888452601b83528184208885529092528083205460035491516370a0823160e01b81523060048201529293909290916001600160a01b0316906370a0823190602401602060405180830381865afa1580156116fc573d6000803e3d6000fd5b505050506040513d601f19601f820116820180604052508101906117209190612801565b90508082111561172e578091505b8261173985846127c0565b61174391906127df565b945050505050611167565b6000838152601c6020908152604080832085845282528083206001600160a01b0385168452909152812054806117865761178661277b565b611163858585611b87565b61179a3361185a565b565b600e546003546040516370a0823160e01b8152306004820152600092839290916001600160a01b03909116906370a0823190602401602060405180830381865afa1580156117ee573d6000803e3d6000fd5b505050506040513d601f19601f820116820180604052508101906118129190612801565b60155461181f91906127a8565b6118299190612791565b9050600d54600461183a91906127c0565b811115611849575050600d5490565b6118546004826127df565b91505090565b6001600160a01b0381166000908152601f6020908152604080832054601e909252909120548161188957600191505b80611892575060015b6001815b600f54811161198257600f5481146118b25760115491506118c4565b60016010546118c19190612791565b91505b60006118d08584612791565b6118db9060016127a8565b67ffffffffffffffff8111156118f3576118f36123b0565b60405190808252806020026020018201604052801561191c578160200160208202803683370190505b509050845b8381116119615780826119348883612791565b8151811061194457611944612712565b6020908102919091010152806119598161273e565b915050611921565b5061196d828288611197565b5050808061197a9061273e565b915050611896565b506001600160a01b039093166000908152601f602052604090209283555050600f549055565b6000806119b583856127a8565b9050838110156111675760405162461bcd60e51b815260206004820152600c60248201526b416464206f766572666c6f7760a01b60448201526064016109a1565b6000838152601c6020908152604080832085845282528083206001600160a01b0388168452909152902054611ac3576001600160a01b0384166000908152601d60209081526040808320868452825280832080546001818101835591855283852001869055868452601783528184208685529092528220805491929091611a7e9084906127a8565b9091555050600083815260186020908152604080832085845282528220805460018101825590835291200180546001600160a01b0319166001600160a01b0386161790555b6000838152601c6020908152604080832085845282528083206001600160a01b038816845290915281208054839290611afd9084906127a8565b90915550506000838152601a6020908152604080832085845290915281208054839290611b2b9084906127a8565b9091555050600083815260196020908152604080832085845290915281208054839290611b599084906127a8565b925050819055508060146000828254611b7291906127a8565b90915550611b809050611cdc565b5050505050565b6000611b91611cdc565b600f54841015611bad57611ba6848484611eaf565b9050611167565b600f548414156111675760105483101561116757610cb4848484611eaf565b6000838152601c6020908152604080832085845282528083206001600160a01b038516845290915281205480611c055760009150611cd1565b611c10858585611649565b6000868152601c6020908152604080832088845282528083206001600160a01b03881684528252808320839055888352601a8252808320888452909152902054909250611c5d90826120be565b6000868152601a60209081526040808320888452825280832093909355878252601b815282822087835290522054611c9590836120be565b6000868152601b60209081526040808320888452909152902055611cba8260046127c0565b60156000828254611ccb91906127a8565b90915550505b6111638260046127c0565b6013544290811115611eac5760115460105410611d78576001600f6000828254611d0691906127a8565b90915550506000601055611d1861116e565b600d819055600f805460009081526016602090815260409182902084905591546014548251918252928101939093528201527f9d472bcf372fce01fd875c3296e8e5ae0a08bfca42dedac19e202271ce8f39c59060600160405180910390a15b611d8061210a565b600160106000828254611d9391906127a8565b9091555050601254611da590826127a8565b601355611db061179c565b600d819055611dc09060046127c0565b600e54611dcd91906127a8565b600e55600d54600f80546000908152601b60209081526040808320601080548552925282209390935590549154611e0690600190612791565b905060105460011415611e2a576001600f54611e229190612791565b915060115490505b600f54601054601354600085815260196020908152604080832087845282528083205488845260178352818420888552835292819020548151968752918601949094528484019290925260608401526080830152517ff0047f88d9bce548f6a3b5f02aae9964bcb69afb1848b6acaab809a2b0629aaf9181900360a00190a150505b50565b6000838152601c6020908152604080832085845282528083206001600160a01b038516845290915281205480611ee85760009150611cd1565b611ef3858585611649565b6000868152601c6020908152604080832088845282528083206001600160a01b03881684528252808320839055888352601a8252808320888452909152902054909250611f4090826120be565b6000868152601a60209081526040808320888452825280832093909355878252601b815282822087835290522054611f7890836120be565b6000868152601b60209081526040808320888452909152902055611f9d8260046127c0565b60156000828254611fae91906127a8565b90915550506001600160a01b038316337f7f3fa649aa08dbaff5b36b865f9585ae5b83bcb35185c846035019b63967b6e98787611fec8760046127c0565b60008b8152601b602090815260408083208d845282529182902054825195865290850193909352830152606082015260800160405180910390a36003546001600160a01b031663a9059cbb846120438560046127c0565b6040516001600160e01b031960e085901b1681526001600160a01b03909216600483015260248201526044016020604051808303816000875af115801561208e573d6000803e3d6000fd5b505050506040513d601f19601f820116820180604052508101906120b29190612759565b506111638260046127c0565b6000818310156121005760405162461bcd60e51b815260206004820152600d60248201526c53756220756e646572666c6f7760981b60448201526064016109a1565b6111678284612791565b60208054604080516306055f5f60e51b815290516000936001600160a01b039093169263c0abebe092600480820193918290030181865afa158015612153573d6000803e3d6000fd5b505050506040513d601f19601f820116820180604052508101906121779190612801565b90506000602154826121899190612791565b905060006121af60646121a9610350600d5461229790919063ffffffff16565b906122fc565b9050811561226e578082101561221f5760006121d0836121a9846064612297565b905060006121eb6103e86121e58460646120be565b90612343565b905061221461220b6103e86121a98460125461229790919063ffffffff16565b601254906119a8565b601255506122809050565b6000612230826121a9856064612297565b905060006122456103e86121e58460646120be565b90506122146122656107d06121a98460125461229790919063ffffffff16565b601254906120be565b60125461227c9060026127c0565b6012555b60056012541161229057600a6012555b5050602155565b6000826122a657506000610f91565b60006122b283856127c0565b9050826122bf85836127df565b146111675760405162461bcd60e51b815260206004820152600d60248201526c4d756c74206f766572666c6f7760981b60448201526064016109a1565b6000816123395760405162461bcd60e51b815260206004820152600b60248201526a446976206279207a65726f60a81b60448201526064016109a1565b61116782846127df565b600081831115612354575080610f91565b5090919050565b600060208083528351808285015260005b818110156123885785810183015185820160400152820161236c565b8181111561239a576000604083870101525b50601f01601f1916929092016040019392505050565b634e487b7160e01b600052604160045260246000fd5b600082601f8301126123d757600080fd5b8135602067ffffffffffffffff808311156123f4576123f46123b0565b8260051b604051601f19603f83011681018181108482111715612419576124196123b0565b60405293845285810183019383810192508785111561243757600080fd5b83870191505b848210156124565781358352918301919083019061243d565b979650505050505050565b80356001600160a01b038116811461247857600080fd5b919050565b6000806000806080858703121561249357600080fd5b84359350602085013567ffffffffffffffff808211156124b257600080fd5b6124be888389016123c6565b94506124cc60408801612461565b935060608701359150808211156124e257600080fd5b506124ef878288016123c6565b91505092959194509250565b60008060006060848603121561251057600080fd5b505081359360208301359350604090920135919050565b6000806040838503121561253a57600080fd5b50508035926020909101359150565b60008060006060848603121561255e57600080fd5b61256784612461565b95602085013595506040909401359392505050565b60006020828403121561258e57600080fd5b61116782612461565b600080604083850312156125aa57600080fd5b6125b383612461565b946020939093013593505050565b6000806000606084860312156125d657600080fd5b83359250602084013591506125ed60408501612461565b90509250925092565b60008060006060848603121561260b57600080fd5b83359250602084013567ffffffffffffffff81111561262957600080fd5b612635868287016123c6565b9250506125ed60408501612461565b60006020828403121561265657600080fd5b5035919050565b6000806040838503121561267057600080fd5b61267983612461565b915061268760208401612461565b90509250929050565b600080600080600060a086880312156126a857600080fd5b8535945060208601359350604086013592506126c660608701612461565b949793965091946080013592915050565b600181811c908216806126eb57607f821691505b6020821081141561270c57634e487b7160e01b600052602260045260246000fd5b50919050565b634e487b7160e01b600052603260045260246000fd5b634e487b7160e01b600052601160045260246000fd5b600060001982141561275257612752612728565b5060010190565b60006020828403121561276b57600080fd5b8151801515811461116757600080fd5b634e487b7160e01b600052600160045260246000fd5b6000828210156127a3576127a3612728565b500390565b600082198211156127bb576127bb612728565b500190565b60008160001904831182151516156127da576127da612728565b500290565b6000826127fc57634e487b7160e01b600052601260045260246000fd5b500490565b60006020828403121561281357600080fd5b505191905056fea26469706673582212202849ab18a27ed4dac133cdac0491a74dd18014588698b943efbe1ba957744dcc64736f6c634300080b0033",
  "bytecodeSha1": "c5a7c9e48e94b557567934ad7316a4fff64dd48a",
  "compiler": {
    "evm_version": "istanbul",
    "optimizer": {
      "enabled": true,
      "runs": 200
    },
    "version": "0.8.11+commit.d7f03943"
  },
  "contractName": "ForgeAuctions",
  "language": "Solidity",
  "natspec": {
    "kind": "dev",
    "methods": {},
    "version": 1
  },
  "opcodes": "PUSH1 0x80 PUSH1 0x40 MSTORE PUSH1 0x4 CALLDATASIZE LT PUSH2 0x276 JUMPI PUSH1 0x0 CALLDATALOAD PUSH1 0xE0 SHR DUP1 PUSH4 0x8AAB30D3 GT PUSH2 0x14F JUMPI DUP1 PUSH4 0xC31842E1 GT PUSH2 0xC1 JUMPI DUP1 PUSH4 0xE82481CF GT PUSH2 0x7A JUMPI DUP1 PUSH4 0xE82481CF EQ PUSH2 0x815 JUMPI DUP1 PUSH4 0xEE1F84C3 EQ PUSH2 0x82A JUMPI DUP1 PUSH4 0xF1261E92 EQ PUSH2 0x84A JUMPI DUP1 PUSH4 0xFC5C88FC EQ PUSH2 0x86A JUMPI DUP1 PUSH4 0xFEE05D62 EQ PUSH2 0x87F JUMPI DUP1 PUSH4 0xFFB67186 EQ PUSH2 0x895 JUMPI PUSH1 0x0 DUP1 REVERT JUMPDEST DUP1 PUSH4 0xC31842E1 EQ PUSH2 0x722 JUMPI DUP1 PUSH4 0xC8B9EE6F EQ PUSH2 0x742 JUMPI DUP1 PUSH4 0xCB65EE92 EQ PUSH2 0x757 JUMPI DUP1 PUSH4 0xDAC679EC EQ PUSH2 0x784 JUMPI DUP1 PUSH4 0xDC3222A6 EQ PUSH2 0x7BC JUMPI DUP1 PUSH4 0xDF0244B1 EQ PUSH2 0x7FF JUMPI PUSH1 0x0 DUP1 REVERT JUMPDEST DUP1 PUSH4 0x973628F6 GT PUSH2 0x113 JUMPI DUP1 PUSH4 0x973628F6 EQ PUSH2 0x65E JUMPI DUP1 PUSH4 0xA0DAB241 EQ PUSH2 0x674 JUMPI DUP1 PUSH4 0xA5A1BA21 EQ PUSH2 0x694 JUMPI DUP1 PUSH4 0xB36A8FF2 EQ PUSH2 0x6CC JUMPI DUP1 PUSH4 0xBBC19AB0 EQ PUSH2 0x6EC JUMPI DUP1 PUSH4 0xBDF75661 EQ PUSH2 0x702 JUMPI PUSH1 0x0 DUP1 REVERT JUMPDEST DUP1 PUSH4 0x8AAB30D3 EQ PUSH2 0x58F JUMPI DUP1 PUSH4 0x960BC0F1 EQ PUSH2 0x5CE JUMPI DUP1 PUSH4 0x9618F7A8 EQ PUSH2 0x5EE JUMPI DUP1 PUSH4 0x966FF650 EQ PUSH2 0x626 JUMPI DUP1 PUSH4 0x96EF5811 EQ PUSH2 0x63C JUMPI PUSH1 0x0 DUP1 REVERT JUMPDEST DUP1 PUSH4 0x5A723DC6 GT PUSH2 0x1E8 JUMPI DUP1 PUSH4 0x7400457F GT PUSH2 0x1AC JUMPI DUP1 PUSH4 0x7400457F EQ PUSH2 0x4B9 JUMPI DUP1 PUSH4 0x77217A89 EQ PUSH2 0x4D9 JUMPI DUP1 PUSH4 0x7C38A21B EQ PUSH2 0x517 JUMPI DUP1 PUSH4 0x827C049E EQ PUSH2 0x537 JUMPI DUP1 PUSH4 0x8454ED27 EQ PUSH2 0x54D JUMPI DUP1 PUSH4 0x89B86DB5 EQ PUSH2 0x57A JUMPI PUSH1 0x0 DUP1 REVERT JUMPDEST DUP1 PUSH4 0x5A723DC6 EQ PUSH2 0x415 JUMPI DUP1 PUSH4 0x5C9302C9 EQ PUSH2 0x435 JUMPI DUP1 PUSH4 0x60B29259 EQ PUSH2 0x44B JUMPI DUP1 PUSH4 0x63809953 EQ PUSH2 0x483 JUMPI DUP1 PUSH4 0x6DE63E26 EQ PUSH2 0x499 JUMPI PUSH1 0x0 DUP1 REVERT JUMPDEST DUP1 PUSH4 0x313CE567 GT PUSH2 0x23A JUMPI DUP1 PUSH4 0x313CE567 EQ PUSH2 0x366 JUMPI DUP1 PUSH4 0x3767E339 EQ PUSH2 0x37C JUMPI DUP1 PUSH4 0x3AC1C863 EQ PUSH2 0x392 JUMPI DUP1 PUSH4 0x3DB9A7EC EQ PUSH2 0x3A8 JUMPI DUP1 PUSH4 0x49E8A6AD EQ PUSH2 0x3C8 JUMPI DUP1 PUSH4 0x510DE094 EQ PUSH2 0x3F5 JUMPI PUSH1 0x0 DUP1 REVERT JUMPDEST DUP1 PUSH4 0x6FDDE03 EQ PUSH2 0x285 JUMPI DUP1 PUSH4 0x90EB616 EQ PUSH2 0x2B0 JUMPI DUP1 PUSH4 0xE21F7B4 EQ PUSH2 0x2E0 JUMPI DUP1 PUSH4 0x23BA5324 EQ PUSH2 0x318 JUMPI DUP1 PUSH4 0x2A423BE8 EQ PUSH2 0x338 JUMPI PUSH1 0x0 DUP1 REVERT JUMPDEST CALLDATASIZE PUSH2 0x280 JUMPI PUSH1 0x0 DUP1 REVERT JUMPDEST PUSH1 0x0 DUP1 REVERT JUMPDEST CALLVALUE DUP1 ISZERO PUSH2 0x291 JUMPI PUSH1 0x0 DUP1 REVERT JUMPDEST POP PUSH2 0x29A PUSH2 0x8AB JUMP JUMPDEST PUSH1 0x40 MLOAD PUSH2 0x2A7 SWAP2 SWAP1 PUSH2 0x235B JUMP JUMPDEST PUSH1 0x40 MLOAD DUP1 SWAP2 SUB SWAP1 RETURN JUMPDEST CALLVALUE DUP1 ISZERO PUSH2 0x2BC JUMPI PUSH1 0x0 DUP1 REVERT JUMPDEST POP PUSH2 0x2D0 PUSH2 0x2CB CALLDATASIZE PUSH1 0x4 PUSH2 0x247D JUMP JUMPDEST PUSH2 0x939 JUMP JUMPDEST PUSH1 0x40 MLOAD SWAP1 ISZERO ISZERO DUP2 MSTORE PUSH1 0x20 ADD PUSH2 0x2A7 JUMP JUMPDEST CALLVALUE DUP1 ISZERO PUSH2 0x2EC JUMPI PUSH1 0x0 DUP1 REVERT JUMPDEST POP PUSH2 0x300 PUSH2 0x2FB CALLDATASIZE PUSH1 0x4 PUSH2 0x24FB JUMP JUMPDEST PUSH2 0xC35 JUMP JUMPDEST PUSH1 0x40 MLOAD PUSH1 0x1 PUSH1 0x1 PUSH1 0xA0 SHL SUB SWAP1 SWAP2 AND DUP2 MSTORE PUSH1 0x20 ADD PUSH2 0x2A7 JUMP JUMPDEST CALLVALUE DUP1 ISZERO PUSH2 0x324 JUMPI PUSH1 0x0 DUP1 REVERT JUMPDEST POP PUSH1 0x1 SLOAD PUSH2 0x300 SWAP1 PUSH1 0x1 PUSH1 0x1 PUSH1 0xA0 SHL SUB AND DUP2 JUMP JUMPDEST CALLVALUE DUP1 ISZERO PUSH2 0x344 JUMPI PUSH1 0x0 DUP1 REVERT JUMPDEST POP PUSH2 0x358 PUSH2 0x353 CALLDATASIZE PUSH1 0x4 PUSH2 0x2527 JUMP JUMPDEST PUSH2 0xC7A JUMP JUMPDEST PUSH1 0x40 MLOAD SWAP1 DUP2 MSTORE PUSH1 0x20 ADD PUSH2 0x2A7 JUMP JUMPDEST CALLVALUE DUP1 ISZERO PUSH2 0x372 JUMPI PUSH1 0x0 DUP1 REVERT JUMPDEST POP PUSH2 0x358 PUSH1 0x9 SLOAD DUP2 JUMP JUMPDEST CALLVALUE DUP1 ISZERO PUSH2 0x388 JUMPI PUSH1 0x0 DUP1 REVERT JUMPDEST POP PUSH2 0x358 PUSH1 0x4 SLOAD DUP2 JUMP JUMPDEST CALLVALUE DUP1 ISZERO PUSH2 0x39E JUMPI PUSH1 0x0 DUP1 REVERT JUMPDEST POP PUSH2 0x358 PUSH1 0x11 SLOAD DUP2 JUMP JUMPDEST CALLVALUE DUP1 ISZERO PUSH2 0x3B4 JUMPI PUSH1 0x0 DUP1 REVERT JUMPDEST POP PUSH2 0x358 PUSH2 0x3C3 CALLDATASIZE PUSH1 0x4 PUSH2 0x2549 JUMP JUMPDEST PUSH2 0xCBC JUMP JUMPDEST CALLVALUE DUP1 ISZERO PUSH2 0x3D4 JUMPI PUSH1 0x0 DUP1 REVERT JUMPDEST POP PUSH2 0x358 PUSH2 0x3E3 CALLDATASIZE PUSH1 0x4 PUSH2 0x257C JUMP JUMPDEST PUSH1 0x1E PUSH1 0x20 MSTORE PUSH1 0x0 SWAP1 DUP2 MSTORE PUSH1 0x40 SWAP1 KECCAK256 SLOAD DUP2 JUMP JUMPDEST CALLVALUE DUP1 ISZERO PUSH2 0x401 JUMPI PUSH1 0x0 DUP1 REVERT JUMPDEST POP PUSH1 0x2 SLOAD PUSH2 0x300 SWAP1 PUSH1 0x1 PUSH1 0x1 PUSH1 0xA0 SHL SUB AND DUP2 JUMP JUMPDEST CALLVALUE DUP1 ISZERO PUSH2 0x421 JUMPI PUSH1 0x0 DUP1 REVERT JUMPDEST POP PUSH2 0x358 PUSH2 0x430 CALLDATASIZE PUSH1 0x4 PUSH2 0x257C JUMP JUMPDEST PUSH2 0xCFA JUMP JUMPDEST CALLVALUE DUP1 ISZERO PUSH2 0x441 JUMPI PUSH1 0x0 DUP1 REVERT JUMPDEST POP PUSH2 0x358 PUSH1 0x10 SLOAD DUP2 JUMP JUMPDEST CALLVALUE DUP1 ISZERO PUSH2 0x457 JUMPI PUSH1 0x0 DUP1 REVERT JUMPDEST POP PUSH2 0x358 PUSH2 0x466 CALLDATASIZE PUSH1 0x4 PUSH2 0x2527 JUMP JUMPDEST PUSH1 0x19 PUSH1 0x20 SWAP1 DUP2 MSTORE PUSH1 0x0 SWAP3 DUP4 MSTORE PUSH1 0x40 DUP1 DUP5 KECCAK256 SWAP1 SWAP2 MSTORE SWAP1 DUP3 MSTORE SWAP1 KECCAK256 SLOAD DUP2 JUMP JUMPDEST CALLVALUE DUP1 ISZERO PUSH2 0x48F JUMPI PUSH1 0x0 DUP1 REVERT JUMPDEST POP PUSH2 0x358 PUSH1 0x12 SLOAD DUP2 JUMP JUMPDEST CALLVALUE DUP1 ISZERO PUSH2 0x4A5 JUMPI PUSH1 0x0 DUP1 REVERT JUMPDEST POP PUSH2 0x2D0 PUSH2 0x4B4 CALLDATASIZE PUSH1 0x4 PUSH2 0x2597 JUMP JUMPDEST PUSH2 0xE38 JUMP JUMPDEST CALLVALUE DUP1 ISZERO PUSH2 0x4C5 JUMPI PUSH1 0x0 DUP1 REVERT JUMPDEST POP PUSH2 0x2D0 PUSH2 0x4D4 CALLDATASIZE PUSH1 0x4 PUSH2 0x2597 JUMP JUMPDEST PUSH2 0xF97 JUMP JUMPDEST CALLVALUE DUP1 ISZERO PUSH2 0x4E5 JUMPI PUSH1 0x0 DUP1 REVERT JUMPDEST POP PUSH2 0x358 PUSH2 0x4F4 CALLDATASIZE PUSH1 0x4 PUSH2 0x25C1 JUMP JUMPDEST PUSH1 0x1C PUSH1 0x20 SWAP1 DUP2 MSTORE PUSH1 0x0 SWAP4 DUP5 MSTORE PUSH1 0x40 DUP1 DUP6 KECCAK256 DUP3 MSTORE SWAP3 DUP5 MSTORE DUP3 DUP5 KECCAK256 SWAP1 MSTORE DUP3 MSTORE SWAP1 KECCAK256 SLOAD DUP2 JUMP JUMPDEST CALLVALUE DUP1 ISZERO PUSH2 0x523 JUMPI PUSH1 0x0 DUP1 REVERT JUMPDEST POP PUSH2 0x358 PUSH2 0x532 CALLDATASIZE PUSH1 0x4 PUSH2 0x25F6 JUMP JUMPDEST PUSH2 0xFD4 JUMP JUMPDEST CALLVALUE DUP1 ISZERO PUSH2 0x543 JUMPI PUSH1 0x0 DUP1 REVERT JUMPDEST POP PUSH2 0x358 PUSH1 0xD SLOAD DUP2 JUMP JUMPDEST CALLVALUE DUP1 ISZERO PUSH2 0x559 JUMPI PUSH1 0x0 DUP1 REVERT JUMPDEST POP PUSH2 0x358 PUSH2 0x568 CALLDATASIZE PUSH1 0x4 PUSH2 0x2644 JUMP JUMPDEST PUSH1 0x16 PUSH1 0x20 MSTORE PUSH1 0x0 SWAP1 DUP2 MSTORE PUSH1 0x40 SWAP1 KECCAK256 SLOAD DUP2 JUMP JUMPDEST CALLVALUE DUP1 ISZERO PUSH2 0x586 JUMPI PUSH1 0x0 DUP1 REVERT JUMPDEST POP PUSH2 0x358 PUSH2 0x116E JUMP JUMPDEST CALLVALUE DUP1 ISZERO PUSH2 0x59B JUMPI PUSH1 0x0 DUP1 REVERT JUMPDEST POP PUSH2 0x2D0 PUSH2 0x5AA CALLDATASIZE PUSH1 0x4 PUSH2 0x2527 JUMP JUMPDEST CALLER PUSH1 0x0 SWAP1 DUP2 MSTORE PUSH1 0x1F PUSH1 0x20 SWAP1 DUP2 MSTORE PUSH1 0x40 DUP1 DUP4 KECCAK256 SWAP5 SWAP1 SWAP5 SSTORE PUSH1 0x1E SWAP1 MSTORE SWAP2 SWAP1 SWAP2 KECCAK256 SSTORE PUSH1 0x1 SWAP1 JUMP JUMPDEST CALLVALUE DUP1 ISZERO PUSH2 0x5DA JUMPI PUSH1 0x0 DUP1 REVERT JUMPDEST POP PUSH2 0x2D0 PUSH2 0x5E9 CALLDATASIZE PUSH1 0x4 PUSH2 0x25F6 JUMP JUMPDEST PUSH2 0x1197 JUMP JUMPDEST CALLVALUE DUP1 ISZERO PUSH2 0x5FA JUMPI PUSH1 0x0 DUP1 REVERT JUMPDEST POP PUSH2 0x358 PUSH2 0x609 CALLDATASIZE PUSH1 0x4 PUSH2 0x2527 JUMP JUMPDEST PUSH1 0x17 PUSH1 0x20 SWAP1 DUP2 MSTORE PUSH1 0x0 SWAP3 DUP4 MSTORE PUSH1 0x40 DUP1 DUP5 KECCAK256 SWAP1 SWAP2 MSTORE SWAP1 DUP3 MSTORE SWAP1 KECCAK256 SLOAD DUP2 JUMP JUMPDEST CALLVALUE DUP1 ISZERO PUSH2 0x632 JUMPI PUSH1 0x0 DUP1 REVERT JUMPDEST POP PUSH2 0x358 PUSH1 0x14 SLOAD DUP2 JUMP JUMPDEST CALLVALUE DUP1 ISZERO PUSH2 0x648 JUMPI PUSH1 0x0 DUP1 REVERT JUMPDEST POP PUSH2 0x65C PUSH2 0x657 CALLDATASIZE PUSH1 0x4 PUSH2 0x265D JUMP JUMPDEST PUSH2 0x1313 JUMP JUMPDEST STOP JUMPDEST CALLVALUE DUP1 ISZERO PUSH2 0x66A JUMPI PUSH1 0x0 DUP1 REVERT JUMPDEST POP PUSH2 0x358 PUSH1 0xF SLOAD DUP2 JUMP JUMPDEST CALLVALUE DUP1 ISZERO PUSH2 0x680 JUMPI PUSH1 0x0 DUP1 REVERT JUMPDEST POP PUSH2 0x2D0 PUSH2 0x68F CALLDATASIZE PUSH1 0x4 PUSH2 0x2690 JUMP JUMPDEST PUSH2 0x1405 JUMP JUMPDEST CALLVALUE DUP1 ISZERO PUSH2 0x6A0 JUMPI PUSH1 0x0 DUP1 REVERT JUMPDEST POP PUSH2 0x358 PUSH2 0x6AF CALLDATASIZE PUSH1 0x4 PUSH2 0x2527 JUMP JUMPDEST PUSH1 0x1B PUSH1 0x20 SWAP1 DUP2 MSTORE PUSH1 0x0 SWAP3 DUP4 MSTORE PUSH1 0x40 DUP1 DUP5 KECCAK256 SWAP1 SWAP2 MSTORE SWAP1 DUP3 MSTORE SWAP1 KECCAK256 SLOAD DUP2 JUMP JUMPDEST CALLVALUE DUP1 ISZERO PUSH2 0x6D8 JUMPI PUSH1 0x0 DUP1 REVERT JUMPDEST POP PUSH2 0x2D0 PUSH2 0x6E7 CALLDATASIZE PUSH1 0x4 PUSH2 0x257C JUMP JUMPDEST PUSH2 0x152B JUMP JUMPDEST CALLVALUE DUP1 ISZERO PUSH2 0x6F8 JUMPI PUSH1 0x0 DUP1 REVERT JUMPDEST POP PUSH2 0x358 PUSH1 0x21 SLOAD DUP2 JUMP JUMPDEST CALLVALUE DUP1 ISZERO PUSH2 0x70E JUMPI PUSH1 0x0 DUP1 REVERT JUMPDEST POP PUSH2 0x358 PUSH2 0x71D CALLDATASIZE PUSH1 0x4 PUSH2 0x25C1 JUMP JUMPDEST PUSH2 0x1649 JUMP JUMPDEST CALLVALUE DUP1 ISZERO PUSH2 0x72E JUMPI PUSH1 0x0 DUP1 REVERT JUMPDEST POP PUSH2 0x358 PUSH2 0x73D CALLDATASIZE PUSH1 0x4 PUSH2 0x25C1 JUMP JUMPDEST PUSH2 0x174E JUMP JUMPDEST CALLVALUE DUP1 ISZERO PUSH2 0x74E JUMPI PUSH1 0x0 DUP1 REVERT JUMPDEST POP PUSH2 0x65C PUSH2 0x1791 JUMP JUMPDEST CALLVALUE DUP1 ISZERO PUSH2 0x763 JUMPI PUSH1 0x0 DUP1 REVERT JUMPDEST POP PUSH2 0x358 PUSH2 0x772 CALLDATASIZE PUSH1 0x4 PUSH2 0x257C JUMP JUMPDEST PUSH1 0x1F PUSH1 0x20 MSTORE PUSH1 0x0 SWAP1 DUP2 MSTORE PUSH1 0x40 SWAP1 KECCAK256 SLOAD DUP2 JUMP JUMPDEST CALLVALUE DUP1 ISZERO PUSH2 0x790 JUMPI PUSH1 0x0 DUP1 REVERT JUMPDEST POP PUSH2 0x358 PUSH2 0x79F CALLDATASIZE PUSH1 0x4 PUSH2 0x2527 JUMP JUMPDEST PUSH1 0x1A PUSH1 0x20 SWAP1 DUP2 MSTORE PUSH1 0x0 SWAP3 DUP4 MSTORE PUSH1 0x40 DUP1 DUP5 KECCAK256 SWAP1 SWAP2 MSTORE SWAP1 DUP3 MSTORE SWAP1 KECCAK256 SLOAD DUP2 JUMP JUMPDEST CALLVALUE DUP1 ISZERO PUSH2 0x7C8 JUMPI PUSH1 0x0 DUP1 REVERT JUMPDEST POP PUSH2 0x358 PUSH2 0x7D7 CALLDATASIZE PUSH1 0x4 PUSH2 0x2597 JUMP JUMPDEST PUSH1 0x1 PUSH1 0x1 PUSH1 0xA0 SHL SUB SWAP2 SWAP1 SWAP2 AND PUSH1 0x0 SWAP1 DUP2 MSTORE PUSH1 0x1D PUSH1 0x20 SWAP1 DUP2 MSTORE PUSH1 0x40 DUP1 DUP4 KECCAK256 SWAP4 DUP4 MSTORE SWAP3 SWAP1 MSTORE KECCAK256 SLOAD SWAP1 JUMP JUMPDEST CALLVALUE DUP1 ISZERO PUSH2 0x80B JUMPI PUSH1 0x0 DUP1 REVERT JUMPDEST POP PUSH2 0x358 PUSH1 0x15 SLOAD DUP2 JUMP JUMPDEST CALLVALUE DUP1 ISZERO PUSH2 0x821 JUMPI PUSH1 0x0 DUP1 REVERT JUMPDEST POP PUSH2 0x358 PUSH2 0x179C JUMP JUMPDEST CALLVALUE DUP1 ISZERO PUSH2 0x836 JUMPI PUSH1 0x0 DUP1 REVERT JUMPDEST POP PUSH2 0x65C PUSH2 0x845 CALLDATASIZE PUSH1 0x4 PUSH2 0x257C JUMP JUMPDEST PUSH2 0x185A JUMP JUMPDEST CALLVALUE DUP1 ISZERO PUSH2 0x856 JUMPI PUSH1 0x0 DUP1 REVERT JUMPDEST POP PUSH1 0x3 SLOAD PUSH2 0x300 SWAP1 PUSH1 0x1 PUSH1 0x1 PUSH1 0xA0 SHL SUB AND DUP2 JUMP JUMPDEST CALLVALUE DUP1 ISZERO PUSH2 0x876 JUMPI PUSH1 0x0 DUP1 REVERT JUMPDEST POP PUSH1 0x12 SLOAD PUSH2 0x358 JUMP JUMPDEST CALLVALUE DUP1 ISZERO PUSH2 0x88B JUMPI PUSH1 0x0 DUP1 REVERT JUMPDEST POP PUSH2 0x358 PUSH1 0x13 SLOAD DUP2 JUMP JUMPDEST CALLVALUE DUP1 ISZERO PUSH2 0x8A1 JUMPI PUSH1 0x0 DUP1 REVERT JUMPDEST POP PUSH2 0x358 PUSH1 0xE SLOAD DUP2 JUMP JUMPDEST PUSH1 0x8 DUP1 SLOAD PUSH2 0x8B8 SWAP1 PUSH2 0x26D7 JUMP JUMPDEST DUP1 PUSH1 0x1F ADD PUSH1 0x20 DUP1 SWAP2 DIV MUL PUSH1 0x20 ADD PUSH1 0x40 MLOAD SWAP1 DUP2 ADD PUSH1 0x40 MSTORE DUP1 SWAP3 SWAP2 SWAP1 DUP2 DUP2 MSTORE PUSH1 0x20 ADD DUP3 DUP1 SLOAD PUSH2 0x8E4 SWAP1 PUSH2 0x26D7 JUMP JUMPDEST DUP1 ISZERO PUSH2 0x931 JUMPI DUP1 PUSH1 0x1F LT PUSH2 0x906 JUMPI PUSH2 0x100 DUP1 DUP4 SLOAD DIV MUL DUP4 MSTORE SWAP2 PUSH1 0x20 ADD SWAP2 PUSH2 0x931 JUMP JUMPDEST DUP3 ADD SWAP2 SWAP1 PUSH1 0x0 MSTORE PUSH1 0x20 PUSH1 0x0 KECCAK256 SWAP1 JUMPDEST DUP2 SLOAD DUP2 MSTORE SWAP1 PUSH1 0x1 ADD SWAP1 PUSH1 0x20 ADD DUP1 DUP4 GT PUSH2 0x914 JUMPI DUP3 SWAP1 SUB PUSH1 0x1F AND DUP3 ADD SWAP2 JUMPDEST POP POP POP POP POP DUP2 JUMP JUMPDEST PUSH1 0x11 SLOAD PUSH1 0xF SLOAD PUSH1 0x10 SLOAD PUSH1 0x0 SWAP3 DUP4 SWAP3 SWAP1 SWAP2 DUP2 DUP10 LT ISZERO PUSH2 0x9AA JUMPI PUSH1 0x40 MLOAD PUSH3 0x461BCD PUSH1 0xE5 SHL DUP2 MSTORE PUSH1 0x20 PUSH1 0x4 DUP3 ADD MSTORE PUSH1 0x23 PUSH1 0x24 DUP3 ADD MSTORE PUSH32 0x6E6F206B6E75636B6C6568656164206F6E6C7920626964206F6E207468697320 PUSH1 0x44 DUP3 ADD MSTORE PUSH3 0x657261 PUSH1 0xE8 SHL PUSH1 0x64 DUP3 ADD MSTORE PUSH1 0x84 ADD JUMPDEST PUSH1 0x40 MLOAD DUP1 SWAP2 SUB SWAP1 REVERT JUMPDEST PUSH1 0x0 JUMPDEST DUP9 MLOAD DUP2 LT ISZERO PUSH2 0xAF5 JUMPI PUSH1 0x0 DUP8 DUP3 DUP2 MLOAD DUP2 LT PUSH2 0x9CA JUMPI PUSH2 0x9CA PUSH2 0x2712 JUMP JUMPDEST PUSH1 0x20 MUL PUSH1 0x20 ADD ADD MLOAD SWAP1 POP DUP4 DUP12 EQ ISZERO PUSH2 0xA47 JUMPI PUSH1 0x10 SLOAD DUP11 DUP4 DUP2 MLOAD DUP2 LT PUSH2 0x9F1 JUMPI PUSH2 0x9F1 PUSH2 0x2712 JUMP JUMPDEST PUSH1 0x20 MUL PUSH1 0x20 ADD ADD MLOAD LT ISZERO PUSH2 0xA47 JUMPI PUSH1 0x40 MLOAD PUSH3 0x461BCD PUSH1 0xE5 SHL DUP2 MSTORE PUSH1 0x20 PUSH1 0x4 DUP3 ADD MSTORE PUSH1 0x1C PUSH1 0x24 DUP3 ADD MSTORE PUSH32 0x4D757374206E6F742062696420626568696E6420746865206461797300000000 PUSH1 0x44 DUP3 ADD MSTORE PUSH1 0x64 ADD PUSH2 0x9A1 JUMP JUMPDEST DUP5 DUP11 DUP4 DUP2 MLOAD DUP2 LT PUSH2 0xA5A JUMPI PUSH2 0xA5A PUSH2 0x2712 JUMP JUMPDEST PUSH1 0x20 MUL PUSH1 0x20 ADD ADD MLOAD GT ISZERO PUSH2 0xAB0 JUMPI PUSH1 0x40 MLOAD PUSH3 0x461BCD PUSH1 0xE5 SHL DUP2 MSTORE PUSH1 0x20 PUSH1 0x4 DUP3 ADD MSTORE PUSH1 0x1B PUSH1 0x24 DUP3 ADD MSTORE PUSH32 0x43616E7420626964206F6E2064617973206E6F7420696E206572610000000000 PUSH1 0x44 DUP3 ADD MSTORE PUSH1 0x64 ADD PUSH2 0x9A1 JUMP JUMPDEST PUSH2 0xABA DUP7 DUP3 PUSH2 0x19A8 JUMP JUMPDEST SWAP6 POP PUSH2 0xAE2 CALLER DUP11 DUP14 DUP14 DUP7 DUP2 MLOAD DUP2 LT PUSH2 0xAD4 JUMPI PUSH2 0xAD4 PUSH2 0x2712 JUMP JUMPDEST PUSH1 0x20 MUL PUSH1 0x20 ADD ADD MLOAD DUP6 PUSH2 0x19F6 JUMP JUMPDEST POP DUP1 PUSH2 0xAED DUP2 PUSH2 0x273E JUMP JUMPDEST SWAP2 POP POP PUSH2 0x9AD JUMP JUMPDEST POP PUSH1 0x2 SLOAD PUSH1 0x3 SLOAD PUSH1 0x40 MLOAD PUSH4 0x23B872DD PUSH1 0xE0 SHL DUP2 MSTORE CALLER PUSH1 0x4 DUP3 ADD MSTORE PUSH1 0x1 PUSH1 0x1 PUSH1 0xA0 SHL SUB SWAP2 DUP3 AND PUSH1 0x24 DUP3 ADD MSTORE PUSH1 0x44 DUP2 ADD DUP8 SWAP1 MSTORE SWAP2 AND SWAP1 PUSH4 0x23B872DD SWAP1 PUSH1 0x64 ADD PUSH1 0x20 PUSH1 0x40 MLOAD DUP1 DUP4 SUB DUP2 PUSH1 0x0 DUP8 GAS CALL ISZERO DUP1 ISZERO PUSH2 0xB51 JUMPI RETURNDATASIZE PUSH1 0x0 DUP1 RETURNDATACOPY RETURNDATASIZE PUSH1 0x0 REVERT JUMPDEST POP POP POP POP PUSH1 0x40 MLOAD RETURNDATASIZE PUSH1 0x1F NOT PUSH1 0x1F DUP3 ADD AND DUP3 ADD DUP1 PUSH1 0x40 MSTORE POP DUP2 ADD SWAP1 PUSH2 0xB75 SWAP2 SWAP1 PUSH2 0x2759 JUMP JUMPDEST PUSH2 0xBD6 JUMPI PUSH1 0x40 MLOAD PUSH3 0x461BCD PUSH1 0xE5 SHL DUP2 MSTORE PUSH1 0x20 PUSH1 0x4 DUP3 ADD MSTORE PUSH1 0x2C PUSH1 0x24 DUP3 ADD MSTORE PUSH32 0x4E4F204F54484552205741592C2073656E642069742074686520726571756972 PUSH1 0x44 DUP3 ADD MSTORE PUSH12 0x32B210183C2134BA31B7B4B7 PUSH1 0xA1 SHL PUSH1 0x64 DUP3 ADD MSTORE PUSH1 0x84 ADD PUSH2 0x9A1 JUMP JUMPDEST DUP8 MLOAD PUSH1 0x40 DUP1 MLOAD DUP12 DUP2 MSTORE PUSH1 0x20 DUP2 ADD SWAP3 SWAP1 SWAP3 MSTORE DUP2 ADD DUP6 SWAP1 MSTORE PUSH1 0x1 PUSH1 0x1 PUSH1 0xA0 SHL SUB DUP9 AND SWAP1 CALLER SWAP1 PUSH32 0xB4E1FDF06308D5CAA2DE01F8DB08D933FCF160BCDA97C1576B56A0C00E893F31 SWAP1 PUSH1 0x60 ADD PUSH1 0x40 MLOAD DUP1 SWAP2 SUB SWAP1 LOG3 POP PUSH1 0x1 SWAP9 SWAP8 POP POP POP POP POP POP POP POP JUMP JUMPDEST PUSH1 0x18 PUSH1 0x20 MSTORE DUP3 PUSH1 0x0 MSTORE PUSH1 0x40 PUSH1 0x0 KECCAK256 PUSH1 0x20 MSTORE DUP2 PUSH1 0x0 MSTORE PUSH1 0x40 PUSH1 0x0 KECCAK256 DUP2 DUP2 SLOAD DUP2 LT PUSH2 0xC5D JUMPI PUSH1 0x0 DUP1 REVERT JUMPDEST PUSH1 0x0 SWAP2 DUP3 MSTORE PUSH1 0x20 SWAP1 SWAP2 KECCAK256 ADD SLOAD PUSH1 0x1 PUSH1 0x1 PUSH1 0xA0 SHL SUB AND SWAP3 POP DUP4 SWAP2 POP POP JUMP JUMPDEST PUSH1 0x0 DUP3 DUP2 MSTORE PUSH1 0x1C PUSH1 0x20 SWAP1 DUP2 MSTORE PUSH1 0x40 DUP1 DUP4 KECCAK256 DUP5 DUP5 MSTORE DUP3 MSTORE DUP1 DUP4 KECCAK256 CALLER DUP5 MSTORE SWAP1 SWAP2 MSTORE DUP2 KECCAK256 SLOAD DUP1 PUSH2 0xCA9 JUMPI PUSH2 0xCA9 PUSH2 0x277B JUMP JUMPDEST PUSH2 0xCB4 DUP5 DUP5 CALLER PUSH2 0x1B87 JUMP JUMPDEST SWAP5 SWAP4 POP POP POP POP JUMP JUMPDEST PUSH1 0x1D PUSH1 0x20 MSTORE DUP3 PUSH1 0x0 MSTORE PUSH1 0x40 PUSH1 0x0 KECCAK256 PUSH1 0x20 MSTORE DUP2 PUSH1 0x0 MSTORE PUSH1 0x40 PUSH1 0x0 KECCAK256 DUP2 DUP2 SLOAD DUP2 LT PUSH2 0xCE4 JUMPI PUSH1 0x0 DUP1 REVERT JUMPDEST SWAP1 PUSH1 0x0 MSTORE PUSH1 0x20 PUSH1 0x0 KECCAK256 ADD PUSH1 0x0 SWAP3 POP SWAP3 POP POP POP SLOAD DUP2 JUMP JUMPDEST PUSH1 0x1 PUSH1 0x1 PUSH1 0xA0 SHL SUB DUP2 AND PUSH1 0x0 SWAP1 DUP2 MSTORE PUSH1 0x1F PUSH1 0x20 SWAP1 DUP2 MSTORE PUSH1 0x40 DUP1 DUP4 KECCAK256 SLOAD PUSH1 0x1E SWAP1 SWAP3 MSTORE DUP3 KECCAK256 SLOAD DUP2 PUSH2 0xD28 JUMPI PUSH1 0x1 SWAP2 POP JUMPDEST DUP1 PUSH2 0xD31 JUMPI POP PUSH1 0x1 JUMPDEST PUSH1 0x1 PUSH1 0x0 DUP3 JUMPDEST PUSH1 0xF SLOAD DUP2 GT PUSH2 0xE2E JUMPI PUSH1 0xF SLOAD DUP2 EQ PUSH2 0xD53 JUMPI PUSH1 0x11 SLOAD SWAP3 POP PUSH2 0xD65 JUMP JUMPDEST PUSH1 0x1 PUSH1 0x10 SLOAD PUSH2 0xD62 SWAP2 SWAP1 PUSH2 0x2791 JUMP JUMPDEST SWAP3 POP JUMPDEST PUSH1 0x0 PUSH2 0xD71 DUP7 DUP6 PUSH2 0x2791 JUMP JUMPDEST PUSH2 0xD7C SWAP1 PUSH1 0x1 PUSH2 0x27A8 JUMP JUMPDEST PUSH8 0xFFFFFFFFFFFFFFFF DUP2 GT ISZERO PUSH2 0xD94 JUMPI PUSH2 0xD94 PUSH2 0x23B0 JUMP JUMPDEST PUSH1 0x40 MLOAD SWAP1 DUP1 DUP3 MSTORE DUP1 PUSH1 0x20 MUL PUSH1 0x20 ADD DUP3 ADD PUSH1 0x40 MSTORE DUP1 ISZERO PUSH2 0xDBD JUMPI DUP2 PUSH1 0x20 ADD PUSH1 0x20 DUP3 MUL DUP1 CALLDATASIZE DUP4 CALLDATACOPY ADD SWAP1 POP JUMPDEST POP SWAP1 POP DUP6 JUMPDEST DUP5 DUP2 GT PUSH2 0xE02 JUMPI DUP1 DUP3 PUSH2 0xDD5 DUP10 DUP4 PUSH2 0x2791 JUMP JUMPDEST DUP2 MLOAD DUP2 LT PUSH2 0xDE5 JUMPI PUSH2 0xDE5 PUSH2 0x2712 JUMP JUMPDEST PUSH1 0x20 SWAP1 DUP2 MUL SWAP2 SWAP1 SWAP2 ADD ADD MSTORE DUP1 PUSH2 0xDFA DUP2 PUSH2 0x273E JUMP JUMPDEST SWAP2 POP POP PUSH2 0xDC2 JUMP JUMPDEST POP PUSH2 0xE0E DUP3 DUP3 DUP11 PUSH2 0xFD4 JUMP JUMPDEST PUSH2 0xE18 SWAP1 DUP5 PUSH2 0x27A8 JUMP JUMPDEST SWAP3 POP POP DUP1 DUP1 PUSH2 0xE26 SWAP1 PUSH2 0x273E JUMP JUMPDEST SWAP2 POP POP PUSH2 0xD37 JUMP JUMPDEST POP SWAP6 SWAP5 POP POP POP POP POP JUMP JUMPDEST PUSH1 0x10 SLOAD PUSH1 0x2 SLOAD PUSH1 0x3 SLOAD PUSH1 0x40 MLOAD PUSH4 0x23B872DD PUSH1 0xE0 SHL DUP2 MSTORE CALLER PUSH1 0x4 DUP3 ADD MSTORE PUSH1 0x1 PUSH1 0x1 PUSH1 0xA0 SHL SUB SWAP2 DUP3 AND PUSH1 0x24 DUP3 ADD MSTORE PUSH1 0x44 DUP2 ADD DUP6 SWAP1 MSTORE PUSH1 0x0 SWAP4 SWAP3 SWAP2 SWAP1 SWAP2 AND SWAP1 PUSH4 0x23B872DD SWAP1 PUSH1 0x64 ADD PUSH1 0x20 PUSH1 0x40 MLOAD DUP1 DUP4 SUB DUP2 PUSH1 0x0 DUP8 GAS CALL ISZERO DUP1 ISZERO PUSH2 0xE9C JUMPI RETURNDATASIZE PUSH1 0x0 DUP1 RETURNDATACOPY RETURNDATASIZE PUSH1 0x0 REVERT JUMPDEST POP POP POP POP PUSH1 0x40 MLOAD RETURNDATASIZE PUSH1 0x1F NOT PUSH1 0x1F DUP3 ADD AND DUP3 ADD DUP1 PUSH1 0x40 MSTORE POP DUP2 ADD SWAP1 PUSH2 0xEC0 SWAP2 SWAP1 PUSH2 0x2759 JUMP JUMPDEST PUSH2 0xF0C JUMPI PUSH1 0x40 MLOAD PUSH3 0x461BCD PUSH1 0xE5 SHL DUP2 MSTORE PUSH1 0x20 PUSH1 0x4 DUP3 ADD MSTORE PUSH1 0x1B PUSH1 0x24 DUP3 ADD MSTORE PUSH32 0x4E4F205741592C2072657175697265732030784254432073656E640000000000 PUSH1 0x44 DUP3 ADD MSTORE PUSH1 0x64 ADD PUSH2 0x9A1 JUMP JUMPDEST PUSH2 0xF1D CALLER DUP6 PUSH1 0xF SLOAD PUSH1 0x10 SLOAD DUP8 PUSH2 0x19F6 JUMP JUMPDEST PUSH1 0xF SLOAD PUSH1 0x0 DUP2 DUP2 MSTORE PUSH1 0x19 PUSH1 0x20 SWAP1 DUP2 MSTORE PUSH1 0x40 DUP1 DUP4 KECCAK256 PUSH1 0x10 SLOAD DUP5 MSTORE DUP3 MSTORE SWAP2 DUP3 SWAP1 KECCAK256 SLOAD DUP3 MLOAD SWAP4 DUP5 MSTORE SWAP1 DUP4 ADD DUP5 SWAP1 MSTORE DUP3 DUP3 ADD DUP7 SWAP1 MSTORE PUSH1 0x60 DUP4 ADD MSTORE MLOAD PUSH1 0x1 PUSH1 0x1 PUSH1 0xA0 SHL SUB DUP7 AND SWAP2 CALLER SWAP2 PUSH32 0x661F25A08EE5C15FC997F7288C9CD798E1905052F21D761925800799791F130B SWAP2 DUP2 SWAP1 SUB PUSH1 0x80 ADD SWAP1 LOG3 PUSH1 0x1 SWAP2 POP POP JUMPDEST SWAP3 SWAP2 POP POP JUMP JUMPDEST PUSH1 0x0 DUP1 PUSH1 0x1 PUSH1 0x10 SLOAD PUSH1 0x11 SLOAD PUSH2 0xFAC SWAP2 SWAP1 PUSH2 0x2791 JUMP JUMPDEST PUSH2 0xFB6 SWAP2 SWAP1 PUSH2 0x2791 JUMP JUMPDEST SWAP1 POP PUSH2 0xFC9 PUSH1 0xF SLOAD PUSH1 0x10 SLOAD DUP4 DUP8 DUP8 PUSH2 0x1405 JUMP JUMPDEST POP PUSH1 0x1 SWAP5 SWAP4 POP POP POP POP JUMP JUMPDEST PUSH1 0x0 DUP1 DUP1 JUMPDEST DUP5 MLOAD DUP2 LT ISZERO PUSH2 0x1157 JUMPI PUSH1 0xF SLOAD DUP7 LT ISZERO PUSH2 0x108B JUMPI PUSH1 0x0 DUP7 DUP2 MSTORE PUSH1 0x1C PUSH1 0x20 MSTORE PUSH1 0x40 DUP2 KECCAK256 DUP7 MLOAD DUP3 SWAP1 DUP9 SWAP1 DUP6 SWAP1 DUP2 LT PUSH2 0x1010 JUMPI PUSH2 0x1010 PUSH2 0x2712 JUMP JUMPDEST PUSH1 0x20 MUL PUSH1 0x20 ADD ADD MLOAD DUP2 MSTORE PUSH1 0x20 ADD SWAP1 DUP2 MSTORE PUSH1 0x20 ADD PUSH1 0x0 KECCAK256 PUSH1 0x0 DUP7 PUSH1 0x1 PUSH1 0x1 PUSH1 0xA0 SHL SUB AND PUSH1 0x1 PUSH1 0x1 PUSH1 0xA0 SHL SUB AND DUP2 MSTORE PUSH1 0x20 ADD SWAP1 DUP2 MSTORE PUSH1 0x20 ADD PUSH1 0x0 KECCAK256 SLOAD SWAP1 POP DUP1 PUSH1 0x0 EQ PUSH2 0x1085 JUMPI PUSH2 0x1078 DUP8 DUP8 DUP5 DUP2 MLOAD DUP2 LT PUSH2 0x106A JUMPI PUSH2 0x106A PUSH2 0x2712 JUMP JUMPDEST PUSH1 0x20 MUL PUSH1 0x20 ADD ADD MLOAD DUP8 PUSH2 0x1649 JUMP JUMPDEST PUSH2 0x1082 SWAP1 DUP5 PUSH2 0x27A8 JUMP JUMPDEST SWAP3 POP JUMPDEST POP PUSH2 0x1145 JUMP JUMPDEST PUSH1 0xF SLOAD DUP7 EQ ISZERO PUSH2 0x1145 JUMPI PUSH1 0x10 SLOAD DUP6 DUP3 DUP2 MLOAD DUP2 LT PUSH2 0x10AA JUMPI PUSH2 0x10AA PUSH2 0x2712 JUMP JUMPDEST PUSH1 0x20 MUL PUSH1 0x20 ADD ADD MLOAD LT ISZERO PUSH2 0x1145 JUMPI PUSH1 0x0 DUP7 DUP2 MSTORE PUSH1 0x1C PUSH1 0x20 MSTORE PUSH1 0x40 DUP2 KECCAK256 DUP7 MLOAD DUP3 SWAP1 DUP9 SWAP1 DUP6 SWAP1 DUP2 LT PUSH2 0x10DC JUMPI PUSH2 0x10DC PUSH2 0x2712 JUMP JUMPDEST PUSH1 0x20 MUL PUSH1 0x20 ADD ADD MLOAD DUP2 MSTORE PUSH1 0x20 ADD SWAP1 DUP2 MSTORE PUSH1 0x20 ADD PUSH1 0x0 KECCAK256 PUSH1 0x0 DUP7 PUSH1 0x1 PUSH1 0x1 PUSH1 0xA0 SHL SUB AND PUSH1 0x1 PUSH1 0x1 PUSH1 0xA0 SHL SUB AND DUP2 MSTORE PUSH1 0x20 ADD SWAP1 DUP2 MSTORE PUSH1 0x20 ADD PUSH1 0x0 KECCAK256 SLOAD SWAP1 POP DUP1 PUSH1 0x0 EQ PUSH2 0x1143 JUMPI PUSH2 0x1136 DUP8 DUP8 DUP5 DUP2 MLOAD DUP2 LT PUSH2 0x106A JUMPI PUSH2 0x106A PUSH2 0x2712 JUMP JUMPDEST PUSH2 0x1140 SWAP1 DUP5 PUSH2 0x27A8 JUMP JUMPDEST SWAP3 POP JUMPDEST POP JUMPDEST DUP1 PUSH2 0x114F DUP2 PUSH2 0x273E JUMP JUMPDEST SWAP2 POP POP PUSH2 0xFD9 JUMP JUMPDEST POP PUSH2 0x1163 DUP2 PUSH1 0x4 PUSH2 0x27C0 JUMP JUMPDEST SWAP2 POP POP JUMPDEST SWAP4 SWAP3 POP POP POP JUMP JUMPDEST PUSH1 0x0 PUSH1 0xC SLOAD PUSH1 0xD SLOAD GT ISZERO PUSH2 0x1190 JUMPI PUSH1 0x2 PUSH1 0xD SLOAD PUSH2 0x118B SWAP2 SWAP1 PUSH2 0x27DF JUMP JUMPDEST SWAP1 POP SWAP1 JUMP JUMPDEST POP PUSH1 0xC SLOAD SWAP1 JUMP JUMPDEST PUSH1 0x0 DUP1 DUP1 JUMPDEST DUP5 MLOAD DUP2 LT ISZERO PUSH2 0x123F JUMPI PUSH1 0xF SLOAD DUP7 LT ISZERO PUSH2 0x11E4 JUMPI PUSH2 0x11DD PUSH2 0x11D6 DUP8 DUP8 DUP5 DUP2 MLOAD DUP2 LT PUSH2 0x11C8 JUMPI PUSH2 0x11C8 PUSH2 0x2712 JUMP JUMPDEST PUSH1 0x20 MUL PUSH1 0x20 ADD ADD MLOAD DUP8 PUSH2 0x1BCC JUMP JUMPDEST DUP4 SWAP1 PUSH2 0x19A8 JUMP JUMPDEST SWAP2 POP PUSH2 0x122D JUMP JUMPDEST PUSH1 0xF SLOAD DUP7 EQ ISZERO PUSH2 0x122D JUMPI PUSH1 0x10 SLOAD DUP6 DUP3 DUP2 MLOAD DUP2 LT PUSH2 0x1203 JUMPI PUSH2 0x1203 PUSH2 0x2712 JUMP JUMPDEST PUSH1 0x20 MUL PUSH1 0x20 ADD ADD MLOAD LT ISZERO PUSH2 0x122D JUMPI PUSH2 0x122A PUSH2 0x11D6 DUP8 DUP8 DUP5 DUP2 MLOAD DUP2 LT PUSH2 0x11C8 JUMPI PUSH2 0x11C8 PUSH2 0x2712 JUMP JUMPDEST SWAP2 POP JUMPDEST DUP1 PUSH2 0x1237 DUP2 PUSH2 0x273E JUMP JUMPDEST SWAP2 POP POP PUSH2 0x119C JUMP JUMPDEST POP PUSH1 0x3 SLOAD PUSH1 0x40 MLOAD PUSH4 0xA9059CBB PUSH1 0xE0 SHL DUP2 MSTORE PUSH1 0x1 PUSH1 0x1 PUSH1 0xA0 SHL SUB DUP6 DUP2 AND PUSH1 0x4 DUP4 ADD MSTORE PUSH1 0x24 DUP3 ADD DUP5 SWAP1 MSTORE SWAP1 SWAP2 AND SWAP1 PUSH4 0xA9059CBB SWAP1 PUSH1 0x44 ADD PUSH1 0x20 PUSH1 0x40 MLOAD DUP1 DUP4 SUB DUP2 PUSH1 0x0 DUP8 GAS CALL ISZERO DUP1 ISZERO PUSH2 0x1293 JUMPI RETURNDATASIZE PUSH1 0x0 DUP1 RETURNDATACOPY RETURNDATASIZE PUSH1 0x0 REVERT JUMPDEST POP POP POP POP PUSH1 0x40 MLOAD RETURNDATASIZE PUSH1 0x1F NOT PUSH1 0x1F DUP3 ADD AND DUP3 ADD DUP1 PUSH1 0x40 MSTORE POP DUP2 ADD SWAP1 PUSH2 0x12B7 SWAP2 SWAP1 PUSH2 0x2759 JUMP JUMPDEST POP DUP4 MLOAD PUSH1 0x40 DUP1 MLOAD DUP8 DUP2 MSTORE PUSH1 0x20 DUP2 ADD SWAP3 SWAP1 SWAP3 MSTORE DUP2 ADD DUP3 SWAP1 MSTORE PUSH1 0x1 PUSH1 0x1 PUSH1 0xA0 SHL SUB DUP5 AND SWAP1 CALLER SWAP1 PUSH32 0xC6FADBAB41D2DAF77182FF3236E4ABBB3C021507103DC894B421B1D68F88ACEA SWAP1 PUSH1 0x60 ADD PUSH1 0x40 MLOAD DUP1 SWAP2 SUB SWAP1 LOG3 POP PUSH1 0x1 SWAP5 SWAP4 POP POP POP POP JUMP JUMPDEST PUSH1 0x1 SLOAD PUSH1 0x1 PUSH1 0x1 PUSH1 0xA0 SHL SUB AND CALLER EQ PUSH2 0x135A JUMPI PUSH1 0x40 MLOAD PUSH3 0x461BCD PUSH1 0xE5 SHL DUP2 MSTORE PUSH1 0x20 PUSH1 0x4 DUP3 ADD MSTORE PUSH1 0xA PUSH1 0x24 DUP3 ADD MSTORE PUSH10 0x37B7363C9037BBB732B9 PUSH1 0xB1 SHL PUSH1 0x44 DUP3 ADD MSTORE PUSH1 0x64 ADD PUSH2 0x9A1 JUMP JUMPDEST PUSH1 0x3 DUP1 SLOAD PUSH1 0x1 PUSH1 0x1 PUSH1 0xA0 SHL SUB DUP1 DUP6 AND PUSH1 0x1 PUSH1 0x1 PUSH1 0xA0 SHL SUB NOT SWAP3 DUP4 AND DUP2 OR SWAP1 SWAP4 SSTORE PUSH1 0x1 DUP1 SLOAD DUP4 AND SWAP1 SSTORE PUSH1 0x0 PUSH1 0x21 SSTORE PUSH1 0x2 DUP1 SLOAD SWAP2 DUP6 AND SWAP2 DUP4 AND SWAP2 SWAP1 SWAP2 OR SWAP1 SSTORE PUSH1 0x20 DUP1 SLOAD SWAP1 SWAP2 AND DUP3 OR DUP2 SSTORE PUSH1 0x40 DUP1 MLOAD PUSH4 0x6055F5F PUSH1 0xE5 SHL DUP2 MSTORE SWAP1 MLOAD PUSH4 0xC0ABEBE0 SWAP3 PUSH1 0x4 DUP1 DUP5 ADD SWAP4 SWAP2 SWAP3 SWAP2 DUP3 SWAP1 SUB ADD DUP2 DUP7 GAS STATICCALL ISZERO DUP1 ISZERO PUSH2 0x13DA JUMPI RETURNDATASIZE PUSH1 0x0 DUP1 RETURNDATACOPY RETURNDATASIZE PUSH1 0x0 REVERT JUMPDEST POP POP POP POP PUSH1 0x40 MLOAD RETURNDATASIZE PUSH1 0x1F NOT PUSH1 0x1F DUP3 ADD AND DUP3 ADD DUP1 PUSH1 0x40 MSTORE POP DUP2 ADD SWAP1 PUSH2 0x13FE SWAP2 SWAP1 PUSH2 0x2801 JUMP JUMPDEST PUSH1 0x21 SSTORE POP POP JUMP JUMPDEST PUSH1 0x0 DUP1 DUP5 PUSH8 0xFFFFFFFFFFFFFFFF DUP2 GT ISZERO PUSH2 0x1421 JUMPI PUSH2 0x1421 PUSH2 0x23B0 JUMP JUMPDEST PUSH1 0x40 MLOAD SWAP1 DUP1 DUP3 MSTORE DUP1 PUSH1 0x20 MUL PUSH1 0x20 ADD DUP3 ADD PUSH1 0x40 MSTORE DUP1 ISZERO PUSH2 0x144A JUMPI DUP2 PUSH1 0x20 ADD PUSH1 0x20 DUP3 MUL DUP1 CALLDATASIZE DUP4 CALLDATACOPY ADD SWAP1 POP JUMPDEST POP SWAP1 POP PUSH1 0x0 DUP6 PUSH8 0xFFFFFFFFFFFFFFFF DUP2 GT ISZERO PUSH2 0x1468 JUMPI PUSH2 0x1468 PUSH2 0x23B0 JUMP JUMPDEST PUSH1 0x40 MLOAD SWAP1 DUP1 DUP3 MSTORE DUP1 PUSH1 0x20 MUL PUSH1 0x20 ADD DUP3 ADD PUSH1 0x40 MSTORE DUP1 ISZERO PUSH2 0x1491 JUMPI DUP2 PUSH1 0x20 ADD PUSH1 0x20 DUP3 MUL DUP1 CALLDATASIZE DUP4 CALLDATACOPY ADD SWAP1 POP JUMPDEST POP SWAP1 POP PUSH1 0x0 DUP8 JUMPDEST PUSH2 0x14A2 DUP9 DUP11 PUSH2 0x27A8 JUMP JUMPDEST DUP2 LT ISZERO PUSH2 0x150E JUMPI DUP1 DUP5 DUP4 DUP2 MLOAD DUP2 LT PUSH2 0x14BC JUMPI PUSH2 0x14BC PUSH2 0x2712 JUMP JUMPDEST PUSH1 0x20 SWAP1 DUP2 MUL SWAP2 SWAP1 SWAP2 ADD ADD MSTORE PUSH2 0x14D1 DUP9 DUP8 PUSH2 0x27DF JUMP JUMPDEST DUP4 DUP4 DUP2 MLOAD DUP2 LT PUSH2 0x14E3 JUMPI PUSH2 0x14E3 PUSH2 0x2712 JUMP JUMPDEST PUSH1 0x20 SWAP1 DUP2 MUL SWAP2 SWAP1 SWAP2 ADD ADD MSTORE DUP2 PUSH2 0x14F8 DUP2 PUSH2 0x273E JUMP JUMPDEST SWAP3 POP POP DUP1 DUP1 PUSH2 0x1506 SWAP1 PUSH2 0x273E JUMP JUMPDEST SWAP2 POP POP PUSH2 0x1498 JUMP JUMPDEST POP PUSH2 0x151B DUP10 DUP5 DUP9 DUP6 PUSH2 0x939 JUMP JUMPDEST POP PUSH1 0x1 SWAP10 SWAP9 POP POP POP POP POP POP POP POP POP JUMP JUMPDEST PUSH1 0x2 SLOAD PUSH1 0x0 SWAP1 PUSH1 0x1 PUSH1 0x1 PUSH1 0xA0 SHL SUB DUP4 DUP2 AND SWAP2 AND EQ DUP1 ISZERO SWAP1 PUSH2 0x155A JUMPI POP PUSH1 0x3 SLOAD PUSH1 0x1 PUSH1 0x1 PUSH1 0xA0 SHL SUB DUP4 DUP2 AND SWAP2 AND EQ ISZERO JUMPDEST PUSH2 0x1563 JUMPI PUSH1 0x0 DUP1 REVERT JUMPDEST PUSH1 0x3 SLOAD PUSH1 0x40 MLOAD PUSH4 0x70A08231 PUSH1 0xE0 SHL DUP2 MSTORE ADDRESS PUSH1 0x4 DUP3 ADD MSTORE PUSH1 0x1 PUSH1 0x1 PUSH1 0xA0 SHL SUB DUP5 DUP2 AND SWAP3 PUSH4 0xA9059CBB SWAP3 SWAP2 AND SWAP1 DUP4 SWAP1 PUSH4 0x70A08231 SWAP1 PUSH1 0x24 ADD PUSH1 0x20 PUSH1 0x40 MLOAD DUP1 DUP4 SUB DUP2 DUP7 GAS STATICCALL ISZERO DUP1 ISZERO PUSH2 0x15B6 JUMPI RETURNDATASIZE PUSH1 0x0 DUP1 RETURNDATACOPY RETURNDATASIZE PUSH1 0x0 REVERT JUMPDEST POP POP POP POP PUSH1 0x40 MLOAD RETURNDATASIZE PUSH1 0x1F NOT PUSH1 0x1F DUP3 ADD AND DUP3 ADD DUP1 PUSH1 0x40 MSTORE POP DUP2 ADD SWAP1 PUSH2 0x15DA SWAP2 SWAP1 PUSH2 0x2801 JUMP JUMPDEST PUSH1 0x40 MLOAD PUSH1 0x1 PUSH1 0x1 PUSH1 0xE0 SHL SUB NOT PUSH1 0xE0 DUP6 SWAP1 SHL AND DUP2 MSTORE PUSH1 0x1 PUSH1 0x1 PUSH1 0xA0 SHL SUB SWAP1 SWAP3 AND PUSH1 0x4 DUP4 ADD MSTORE PUSH1 0x24 DUP3 ADD MSTORE PUSH1 0x44 ADD PUSH1 0x20 PUSH1 0x40 MLOAD DUP1 DUP4 SUB DUP2 PUSH1 0x0 DUP8 GAS CALL ISZERO DUP1 ISZERO PUSH2 0x1625 JUMPI RETURNDATASIZE PUSH1 0x0 DUP1 RETURNDATACOPY RETURNDATASIZE PUSH1 0x0 REVERT JUMPDEST POP POP POP POP PUSH1 0x40 MLOAD RETURNDATASIZE PUSH1 0x1F NOT PUSH1 0x1F DUP3 ADD AND DUP3 ADD DUP1 PUSH1 0x40 MSTORE POP DUP2 ADD SWAP1 PUSH2 0xF91 SWAP2 SWAP1 PUSH2 0x2759 JUMP JUMPDEST PUSH1 0x0 DUP4 DUP2 MSTORE PUSH1 0x1C PUSH1 0x20 SWAP1 DUP2 MSTORE PUSH1 0x40 DUP1 DUP4 KECCAK256 DUP6 DUP5 MSTORE DUP3 MSTORE DUP1 DUP4 KECCAK256 PUSH1 0x1 PUSH1 0x1 PUSH1 0xA0 SHL SUB DUP6 AND DUP5 MSTORE SWAP1 SWAP2 MSTORE DUP2 KECCAK256 SLOAD DUP1 PUSH2 0x1683 JUMPI PUSH1 0x0 SWAP2 POP POP PUSH2 0x1167 JUMP JUMPDEST PUSH1 0x0 DUP6 DUP2 MSTORE PUSH1 0x1A PUSH1 0x20 SWAP1 DUP2 MSTORE PUSH1 0x40 DUP1 DUP4 KECCAK256 DUP8 DUP5 MSTORE DUP3 MSTORE DUP1 DUP4 KECCAK256 SLOAD DUP9 DUP5 MSTORE PUSH1 0x1B DUP4 MSTORE DUP2 DUP5 KECCAK256 DUP9 DUP6 MSTORE SWAP1 SWAP3 MSTORE DUP1 DUP4 KECCAK256 SLOAD PUSH1 0x3 SLOAD SWAP2 MLOAD PUSH4 0x70A08231 PUSH1 0xE0 SHL DUP2 MSTORE ADDRESS PUSH1 0x4 DUP3 ADD MSTORE SWAP3 SWAP4 SWAP1 SWAP3 SWAP1 SWAP2 PUSH1 0x1 PUSH1 0x1 PUSH1 0xA0 SHL SUB AND SWAP1 PUSH4 0x70A08231 SWAP1 PUSH1 0x24 ADD PUSH1 0x20 PUSH1 0x40 MLOAD DUP1 DUP4 SUB DUP2 DUP7 GAS STATICCALL ISZERO DUP1 ISZERO PUSH2 0x16FC JUMPI RETURNDATASIZE PUSH1 0x0 DUP1 RETURNDATACOPY RETURNDATASIZE PUSH1 0x0 REVERT JUMPDEST POP POP POP POP PUSH1 0x40 MLOAD RETURNDATASIZE PUSH1 0x1F NOT PUSH1 0x1F DUP3 ADD AND DUP3 ADD DUP1 PUSH1 0x40 MSTORE POP DUP2 ADD SWAP1 PUSH2 0x1720 SWAP2 SWAP1 PUSH2 0x2801 JUMP JUMPDEST SWAP1 POP DUP1 DUP3 GT ISZERO PUSH2 0x172E JUMPI DUP1 SWAP2 POP JUMPDEST DUP3 PUSH2 0x1739 DUP6 DUP5 PUSH2 0x27C0 JUMP JUMPDEST PUSH2 0x1743 SWAP2 SWAP1 PUSH2 0x27DF JUMP JUMPDEST SWAP5 POP POP POP POP POP PUSH2 0x1167 JUMP JUMPDEST PUSH1 0x0 DUP4 DUP2 MSTORE PUSH1 0x1C PUSH1 0x20 SWAP1 DUP2 MSTORE PUSH1 0x40 DUP1 DUP4 KECCAK256 DUP6 DUP5 MSTORE DUP3 MSTORE DUP1 DUP4 KECCAK256 PUSH1 0x1 PUSH1 0x1 PUSH1 0xA0 SHL SUB DUP6 AND DUP5 MSTORE SWAP1 SWAP2 MSTORE DUP2 KECCAK256 SLOAD DUP1 PUSH2 0x1786 JUMPI PUSH2 0x1786 PUSH2 0x277B JUMP JUMPDEST PUSH2 0x1163 DUP6 DUP6 DUP6 PUSH2 0x1B87 JUMP JUMPDEST PUSH2 0x179A CALLER PUSH2 0x185A JUMP JUMPDEST JUMP JUMPDEST PUSH1 0xE SLOAD PUSH1 0x3 SLOAD PUSH1 0x40 MLOAD PUSH4 0x70A08231 PUSH1 0xE0 SHL DUP2 MSTORE ADDRESS PUSH1 0x4 DUP3 ADD MSTORE PUSH1 0x0 SWAP3 DUP4 SWAP3 SWAP1 SWAP2 PUSH1 0x1 PUSH1 0x1 PUSH1 0xA0 SHL SUB SWAP1 SWAP2 AND SWAP1 PUSH4 0x70A08231 SWAP1 PUSH1 0x24 ADD PUSH1 0x20 PUSH1 0x40 MLOAD DUP1 DUP4 SUB DUP2 DUP7 GAS STATICCALL ISZERO DUP1 ISZERO PUSH2 0x17EE JUMPI RETURNDATASIZE PUSH1 0x0 DUP1 RETURNDATACOPY RETURNDATASIZE PUSH1 0x0 REVERT JUMPDEST POP POP POP POP PUSH1 0x40 MLOAD RETURNDATASIZE PUSH1 0x1F NOT PUSH1 0x1F DUP3 ADD AND DUP3 ADD DUP1 PUSH1 0x40 MSTORE POP DUP2 ADD SWAP1 PUSH2 0x1812 SWAP2 SWAP1 PUSH2 0x2801 JUMP JUMPDEST PUSH1 0x15 SLOAD PUSH2 0x181F SWAP2 SWAP1 PUSH2 0x27A8 JUMP JUMPDEST PUSH2 0x1829 SWAP2 SWAP1 PUSH2 0x2791 JUMP JUMPDEST SWAP1 POP PUSH1 0xD SLOAD PUSH1 0x4 PUSH2 0x183A SWAP2 SWAP1 PUSH2 0x27C0 JUMP JUMPDEST DUP2 GT ISZERO PUSH2 0x1849 JUMPI POP POP PUSH1 0xD SLOAD SWAP1 JUMP JUMPDEST PUSH2 0x1854 PUSH1 0x4 DUP3 PUSH2 0x27DF JUMP JUMPDEST SWAP2 POP POP SWAP1 JUMP JUMPDEST PUSH1 0x1 PUSH1 0x1 PUSH1 0xA0 SHL SUB DUP2 AND PUSH1 0x0 SWAP1 DUP2 MSTORE PUSH1 0x1F PUSH1 0x20 SWAP1 DUP2 MSTORE PUSH1 0x40 DUP1 DUP4 KECCAK256 SLOAD PUSH1 0x1E SWAP1 SWAP3 MSTORE SWAP1 SWAP2 KECCAK256 SLOAD DUP2 PUSH2 0x1889 JUMPI PUSH1 0x1 SWAP2 POP JUMPDEST DUP1 PUSH2 0x1892 JUMPI POP PUSH1 0x1 JUMPDEST PUSH1 0x1 DUP2 JUMPDEST PUSH1 0xF SLOAD DUP2 GT PUSH2 0x1982 JUMPI PUSH1 0xF SLOAD DUP2 EQ PUSH2 0x18B2 JUMPI PUSH1 0x11 SLOAD SWAP2 POP PUSH2 0x18C4 JUMP JUMPDEST PUSH1 0x1 PUSH1 0x10 SLOAD PUSH2 0x18C1 SWAP2 SWAP1 PUSH2 0x2791 JUMP JUMPDEST SWAP2 POP JUMPDEST PUSH1 0x0 PUSH2 0x18D0 DUP6 DUP5 PUSH2 0x2791 JUMP JUMPDEST PUSH2 0x18DB SWAP1 PUSH1 0x1 PUSH2 0x27A8 JUMP JUMPDEST PUSH8 0xFFFFFFFFFFFFFFFF DUP2 GT ISZERO PUSH2 0x18F3 JUMPI PUSH2 0x18F3 PUSH2 0x23B0 JUMP JUMPDEST PUSH1 0x40 MLOAD SWAP1 DUP1 DUP3 MSTORE DUP1 PUSH1 0x20 MUL PUSH1 0x20 ADD DUP3 ADD PUSH1 0x40 MSTORE DUP1 ISZERO PUSH2 0x191C JUMPI DUP2 PUSH1 0x20 ADD PUSH1 0x20 DUP3 MUL DUP1 CALLDATASIZE DUP4 CALLDATACOPY ADD SWAP1 POP JUMPDEST POP SWAP1 POP DUP5 JUMPDEST DUP4 DUP2 GT PUSH2 0x1961 JUMPI DUP1 DUP3 PUSH2 0x1934 DUP9 DUP4 PUSH2 0x2791 JUMP JUMPDEST DUP2 MLOAD DUP2 LT PUSH2 0x1944 JUMPI PUSH2 0x1944 PUSH2 0x2712 JUMP JUMPDEST PUSH1 0x20 SWAP1 DUP2 MUL SWAP2 SWAP1 SWAP2 ADD ADD MSTORE DUP1 PUSH2 0x1959 DUP2 PUSH2 0x273E JUMP JUMPDEST SWAP2 POP POP PUSH2 0x1921 JUMP JUMPDEST POP PUSH2 0x196D DUP3 DUP3 DUP9 PUSH2 0x1197 JUMP JUMPDEST POP POP DUP1 DUP1 PUSH2 0x197A SWAP1 PUSH2 0x273E JUMP JUMPDEST SWAP2 POP POP PUSH2 0x1896 JUMP JUMPDEST POP PUSH1 0x1 PUSH1 0x1 PUSH1 0xA0 SHL SUB SWAP1 SWAP4 AND PUSH1 0x0 SWAP1 DUP2 MSTORE PUSH1 0x1F PUSH1 0x20 MSTORE PUSH1 0x40 SWAP1 KECCAK256 SWAP3 DUP4 SSTORE POP POP PUSH1 0xF SLOAD SWAP1 SSTORE JUMP JUMPDEST PUSH1 0x0 DUP1 PUSH2 0x19B5 DUP4 DUP6 PUSH2 0x27A8 JUMP JUMPDEST SWAP1 POP DUP4 DUP2 LT ISZERO PUSH2 0x1167 JUMPI PUSH1 0x40 MLOAD PUSH3 0x461BCD PUSH1 0xE5 SHL DUP2 MSTORE PUSH1 0x20 PUSH1 0x4 DUP3 ADD MSTORE PUSH1 0xC PUSH1 0x24 DUP3 ADD MSTORE PUSH12 0x416464206F766572666C6F77 PUSH1 0xA0 SHL PUSH1 0x44 DUP3 ADD MSTORE PUSH1 0x64 ADD PUSH2 0x9A1 JUMP JUMPDEST PUSH1 0x0 DUP4 DUP2 MSTORE PUSH1 0x1C PUSH1 0x20 SWAP1 DUP2 MSTORE PUSH1 0x40 DUP1 DUP4 KECCAK256 DUP6 DUP5 MSTORE DUP3 MSTORE DUP1 DUP4 KECCAK256 PUSH1 0x1 PUSH1 0x1 PUSH1 0xA0 SHL SUB DUP9 AND DUP5 MSTORE SWAP1 SWAP2 MSTORE SWAP1 KECCAK256 SLOAD PUSH2 0x1AC3 JUMPI PUSH1 0x1 PUSH1 0x1 PUSH1 0xA0 SHL SUB DUP5 AND PUSH1 0x0 SWAP1 DUP2 MSTORE PUSH1 0x1D PUSH1 0x20 SWAP1 DUP2 MSTORE PUSH1 0x40 DUP1 DUP4 KECCAK256 DUP7 DUP5 MSTORE DUP3 MSTORE DUP1 DUP4 KECCAK256 DUP1 SLOAD PUSH1 0x1 DUP2 DUP2 ADD DUP4 SSTORE SWAP2 DUP6 MSTORE DUP4 DUP6 KECCAK256 ADD DUP7 SWAP1 SSTORE DUP7 DUP5 MSTORE PUSH1 0x17 DUP4 MSTORE DUP2 DUP5 KECCAK256 DUP7 DUP6 MSTORE SWAP1 SWAP3 MSTORE DUP3 KECCAK256 DUP1 SLOAD SWAP2 SWAP3 SWAP1 SWAP2 PUSH2 0x1A7E SWAP1 DUP5 SWAP1 PUSH2 0x27A8 JUMP JUMPDEST SWAP1 SWAP2 SSTORE POP POP PUSH1 0x0 DUP4 DUP2 MSTORE PUSH1 0x18 PUSH1 0x20 SWAP1 DUP2 MSTORE PUSH1 0x40 DUP1 DUP4 KECCAK256 DUP6 DUP5 MSTORE DUP3 MSTORE DUP3 KECCAK256 DUP1 SLOAD PUSH1 0x1 DUP2 ADD DUP3 SSTORE SWAP1 DUP4 MSTORE SWAP2 KECCAK256 ADD DUP1 SLOAD PUSH1 0x1 PUSH1 0x1 PUSH1 0xA0 SHL SUB NOT AND PUSH1 0x1 PUSH1 0x1 PUSH1 0xA0 SHL SUB DUP7 AND OR SWAP1 SSTORE JUMPDEST PUSH1 0x0 DUP4 DUP2 MSTORE PUSH1 0x1C PUSH1 0x20 SWAP1 DUP2 MSTORE PUSH1 0x40 DUP1 DUP4 KECCAK256 DUP6 DUP5 MSTORE DUP3 MSTORE DUP1 DUP4 KECCAK256 PUSH1 0x1 PUSH1 0x1 PUSH1 0xA0 SHL SUB DUP9 AND DUP5 MSTORE SWAP1 SWAP2 MSTORE DUP2 KECCAK256 DUP1 SLOAD DUP4 SWAP3 SWAP1 PUSH2 0x1AFD SWAP1 DUP5 SWAP1 PUSH2 0x27A8 JUMP JUMPDEST SWAP1 SWAP2 SSTORE POP POP PUSH1 0x0 DUP4 DUP2 MSTORE PUSH1 0x1A PUSH1 0x20 SWAP1 DUP2 MSTORE PUSH1 0x40 DUP1 DUP4 KECCAK256 DUP6 DUP5 MSTORE SWAP1 SWAP2 MSTORE DUP2 KECCAK256 DUP1 SLOAD DUP4 SWAP3 SWAP1 PUSH2 0x1B2B SWAP1 DUP5 SWAP1 PUSH2 0x27A8 JUMP JUMPDEST SWAP1 SWAP2 SSTORE POP POP PUSH1 0x0 DUP4 DUP2 MSTORE PUSH1 0x19 PUSH1 0x20 SWAP1 DUP2 MSTORE PUSH1 0x40 DUP1 DUP4 KECCAK256 DUP6 DUP5 MSTORE SWAP1 SWAP2 MSTORE DUP2 KECCAK256 DUP1 SLOAD DUP4 SWAP3 SWAP1 PUSH2 0x1B59 SWAP1 DUP5 SWAP1 PUSH2 0x27A8 JUMP JUMPDEST SWAP3 POP POP DUP2 SWAP1 SSTORE POP DUP1 PUSH1 0x14 PUSH1 0x0 DUP3 DUP3 SLOAD PUSH2 0x1B72 SWAP2 SWAP1 PUSH2 0x27A8 JUMP JUMPDEST SWAP1 SWAP2 SSTORE POP PUSH2 0x1B80 SWAP1 POP PUSH2 0x1CDC JUMP JUMPDEST POP POP POP POP POP JUMP JUMPDEST PUSH1 0x0 PUSH2 0x1B91 PUSH2 0x1CDC JUMP JUMPDEST PUSH1 0xF SLOAD DUP5 LT ISZERO PUSH2 0x1BAD JUMPI PUSH2 0x1BA6 DUP5 DUP5 DUP5 PUSH2 0x1EAF JUMP JUMPDEST SWAP1 POP PUSH2 0x1167 JUMP JUMPDEST PUSH1 0xF SLOAD DUP5 EQ ISZERO PUSH2 0x1167 JUMPI PUSH1 0x10 SLOAD DUP4 LT ISZERO PUSH2 0x1167 JUMPI PUSH2 0xCB4 DUP5 DUP5 DUP5 PUSH2 0x1EAF JUMP JUMPDEST PUSH1 0x0 DUP4 DUP2 MSTORE PUSH1 0x1C PUSH1 0x20 SWAP1 DUP2 MSTORE PUSH1 0x40 DUP1 DUP4 KECCAK256 DUP6 DUP5 MSTORE DUP3 MSTORE DUP1 DUP4 KECCAK256 PUSH1 0x1 PUSH1 0x1 PUSH1 0xA0 SHL SUB DUP6 AND DUP5 MSTORE SWAP1 SWAP2 MSTORE DUP2 KECCAK256 SLOAD DUP1 PUSH2 0x1C05 JUMPI PUSH1 0x0 SWAP2 POP PUSH2 0x1CD1 JUMP JUMPDEST PUSH2 0x1C10 DUP6 DUP6 DUP6 PUSH2 0x1649 JUMP JUMPDEST PUSH1 0x0 DUP7 DUP2 MSTORE PUSH1 0x1C PUSH1 0x20 SWAP1 DUP2 MSTORE PUSH1 0x40 DUP1 DUP4 KECCAK256 DUP9 DUP5 MSTORE DUP3 MSTORE DUP1 DUP4 KECCAK256 PUSH1 0x1 PUSH1 0x1 PUSH1 0xA0 SHL SUB DUP9 AND DUP5 MSTORE DUP3 MSTORE DUP1 DUP4 KECCAK256 DUP4 SWAP1 SSTORE DUP9 DUP4 MSTORE PUSH1 0x1A DUP3 MSTORE DUP1 DUP4 KECCAK256 DUP9 DUP5 MSTORE SWAP1 SWAP2 MSTORE SWAP1 KECCAK256 SLOAD SWAP1 SWAP3 POP PUSH2 0x1C5D SWAP1 DUP3 PUSH2 0x20BE JUMP JUMPDEST PUSH1 0x0 DUP7 DUP2 MSTORE PUSH1 0x1A PUSH1 0x20 SWAP1 DUP2 MSTORE PUSH1 0x40 DUP1 DUP4 KECCAK256 DUP9 DUP5 MSTORE DUP3 MSTORE DUP1 DUP4 KECCAK256 SWAP4 SWAP1 SWAP4 SSTORE DUP8 DUP3 MSTORE PUSH1 0x1B DUP2 MSTORE DUP3 DUP3 KECCAK256 DUP8 DUP4 MSTORE SWAP1 MSTORE KECCAK256 SLOAD PUSH2 0x1C95 SWAP1 DUP4 PUSH2 0x20BE JUMP JUMPDEST PUSH1 0x0 DUP7 DUP2 MSTORE PUSH1 0x1B PUSH1 0x20 SWAP1 DUP2 MSTORE PUSH1 0x40 DUP1 DUP4 KECCAK256 DUP9 DUP5 MSTORE SWAP1 SWAP2 MSTORE SWAP1 KECCAK256 SSTORE PUSH2 0x1CBA DUP3 PUSH1 0x4 PUSH2 0x27C0 JUMP JUMPDEST PUSH1 0x15 PUSH1 0x0 DUP3 DUP3 SLOAD PUSH2 0x1CCB SWAP2 SWAP1 PUSH2 0x27A8 JUMP JUMPDEST SWAP1 SWAP2 SSTORE POP POP JUMPDEST PUSH2 0x1163 DUP3 PUSH1 0x4 PUSH2 0x27C0 JUMP JUMPDEST PUSH1 0x13 SLOAD TIMESTAMP SWAP1 DUP2 GT ISZERO PUSH2 0x1EAC JUMPI PUSH1 0x11 SLOAD PUSH1 0x10 SLOAD LT PUSH2 0x1D78 JUMPI PUSH1 0x1 PUSH1 0xF PUSH1 0x0 DUP3 DUP3 SLOAD PUSH2 0x1D06 SWAP2 SWAP1 PUSH2 0x27A8 JUMP JUMPDEST SWAP1 SWAP2 SSTORE POP POP PUSH1 0x0 PUSH1 0x10 SSTORE PUSH2 0x1D18 PUSH2 0x116E JUMP JUMPDEST PUSH1 0xD DUP2 SWAP1 SSTORE PUSH1 0xF DUP1 SLOAD PUSH1 0x0 SWAP1 DUP2 MSTORE PUSH1 0x16 PUSH1 0x20 SWAP1 DUP2 MSTORE PUSH1 0x40 SWAP2 DUP3 SWAP1 KECCAK256 DUP5 SWAP1 SSTORE SWAP2 SLOAD PUSH1 0x14 SLOAD DUP3 MLOAD SWAP2 DUP3 MSTORE SWAP3 DUP2 ADD SWAP4 SWAP1 SWAP4 MSTORE DUP3 ADD MSTORE PUSH32 0x9D472BCF372FCE01FD875C3296E8E5AE0A08BFCA42DEDAC19E202271CE8F39C5 SWAP1 PUSH1 0x60 ADD PUSH1 0x40 MLOAD DUP1 SWAP2 SUB SWAP1 LOG1 JUMPDEST PUSH2 0x1D80 PUSH2 0x210A JUMP JUMPDEST PUSH1 0x1 PUSH1 0x10 PUSH1 0x0 DUP3 DUP3 SLOAD PUSH2 0x1D93 SWAP2 SWAP1 PUSH2 0x27A8 JUMP JUMPDEST SWAP1 SWAP2 SSTORE POP POP PUSH1 0x12 SLOAD PUSH2 0x1DA5 SWAP1 DUP3 PUSH2 0x27A8 JUMP JUMPDEST PUSH1 0x13 SSTORE PUSH2 0x1DB0 PUSH2 0x179C JUMP JUMPDEST PUSH1 0xD DUP2 SWAP1 SSTORE PUSH2 0x1DC0 SWAP1 PUSH1 0x4 PUSH2 0x27C0 JUMP JUMPDEST PUSH1 0xE SLOAD PUSH2 0x1DCD SWAP2 SWAP1 PUSH2 0x27A8 JUMP JUMPDEST PUSH1 0xE SSTORE PUSH1 0xD SLOAD PUSH1 0xF DUP1 SLOAD PUSH1 0x0 SWAP1 DUP2 MSTORE PUSH1 0x1B PUSH1 0x20 SWAP1 DUP2 MSTORE PUSH1 0x40 DUP1 DUP4 KECCAK256 PUSH1 0x10 DUP1 SLOAD DUP6 MSTORE SWAP3 MSTORE DUP3 KECCAK256 SWAP4 SWAP1 SWAP4 SSTORE SWAP1 SLOAD SWAP2 SLOAD PUSH2 0x1E06 SWAP1 PUSH1 0x1 SWAP1 PUSH2 0x2791 JUMP JUMPDEST SWAP1 POP PUSH1 0x10 SLOAD PUSH1 0x1 EQ ISZERO PUSH2 0x1E2A JUMPI PUSH1 0x1 PUSH1 0xF SLOAD PUSH2 0x1E22 SWAP2 SWAP1 PUSH2 0x2791 JUMP JUMPDEST SWAP2 POP PUSH1 0x11 SLOAD SWAP1 POP JUMPDEST PUSH1 0xF SLOAD PUSH1 0x10 SLOAD PUSH1 0x13 SLOAD PUSH1 0x0 DUP6 DUP2 MSTORE PUSH1 0x19 PUSH1 0x20 SWAP1 DUP2 MSTORE PUSH1 0x40 DUP1 DUP4 KECCAK256 DUP8 DUP5 MSTORE DUP3 MSTORE DUP1 DUP4 KECCAK256 SLOAD DUP9 DUP5 MSTORE PUSH1 0x17 DUP4 MSTORE DUP2 DUP5 KECCAK256 DUP9 DUP6 MSTORE DUP4 MSTORE SWAP3 DUP2 SWAP1 KECCAK256 SLOAD DUP2 MLOAD SWAP7 DUP8 MSTORE SWAP2 DUP7 ADD SWAP5 SWAP1 SWAP5 MSTORE DUP5 DUP5 ADD SWAP3 SWAP1 SWAP3 MSTORE PUSH1 0x60 DUP5 ADD MSTORE PUSH1 0x80 DUP4 ADD MSTORE MLOAD PUSH32 0xF0047F88D9BCE548F6A3B5F02AAE9964BCB69AFB1848B6ACAAB809A2B0629AAF SWAP2 DUP2 SWAP1 SUB PUSH1 0xA0 ADD SWAP1 LOG1 POP POP JUMPDEST POP JUMP JUMPDEST PUSH1 0x0 DUP4 DUP2 MSTORE PUSH1 0x1C PUSH1 0x20 SWAP1 DUP2 MSTORE PUSH1 0x40 DUP1 DUP4 KECCAK256 DUP6 DUP5 MSTORE DUP3 MSTORE DUP1 DUP4 KECCAK256 PUSH1 0x1 PUSH1 0x1 PUSH1 0xA0 SHL SUB DUP6 AND DUP5 MSTORE SWAP1 SWAP2 MSTORE DUP2 KECCAK256 SLOAD DUP1 PUSH2 0x1EE8 JUMPI PUSH1 0x0 SWAP2 POP PUSH2 0x1CD1 JUMP JUMPDEST PUSH2 0x1EF3 DUP6 DUP6 DUP6 PUSH2 0x1649 JUMP JUMPDEST PUSH1 0x0 DUP7 DUP2 MSTORE PUSH1 0x1C PUSH1 0x20 SWAP1 DUP2 MSTORE PUSH1 0x40 DUP1 DUP4 KECCAK256 DUP9 DUP5 MSTORE DUP3 MSTORE DUP1 DUP4 KECCAK256 PUSH1 0x1 PUSH1 0x1 PUSH1 0xA0 SHL SUB DUP9 AND DUP5 MSTORE DUP3 MSTORE DUP1 DUP4 KECCAK256 DUP4 SWAP1 SSTORE DUP9 DUP4 MSTORE PUSH1 0x1A DUP3 MSTORE DUP1 DUP4 KECCAK256 DUP9 DUP5 MSTORE SWAP1 SWAP2 MSTORE SWAP1 KECCAK256 SLOAD SWAP1 SWAP3 POP PUSH2 0x1F40 SWAP1 DUP3 PUSH2 0x20BE JUMP JUMPDEST PUSH1 0x0 DUP7 DUP2 MSTORE PUSH1 0x1A PUSH1 0x20 SWAP1 DUP2 MSTORE PUSH1 0x40 DUP1 DUP4 KECCAK256 DUP9 DUP5 MSTORE DUP3 MSTORE DUP1 DUP4 KECCAK256 SWAP4 SWAP1 SWAP4 SSTORE DUP8 DUP3 MSTORE PUSH1 0x1B DUP2 MSTORE DUP3 DUP3 KECCAK256 DUP8 DUP4 MSTORE SWAP1 MSTORE KECCAK256 SLOAD PUSH2 0x1F78 SWAP1 DUP4 PUSH2 0x20BE JUMP JUMPDEST PUSH1 0x0 DUP7 DUP2 MSTORE PUSH1 0x1B PUSH1 0x20 SWAP1 DUP2 MSTORE PUSH1 0x40 DUP1 DUP4 KECCAK256 DUP9 DUP5 MSTORE SWAP1 SWAP2 MSTORE SWAP1 KECCAK256 SSTORE PUSH2 0x1F9D DUP3 PUSH1 0x4 PUSH2 0x27C0 JUMP JUMPDEST PUSH1 0x15 PUSH1 0x0 DUP3 DUP3 SLOAD PUSH2 0x1FAE SWAP2 SWAP1 PUSH2 0x27A8 JUMP JUMPDEST SWAP1 SWAP2 SSTORE POP POP PUSH1 0x1 PUSH1 0x1 PUSH1 0xA0 SHL SUB DUP4 AND CALLER PUSH32 0x7F3FA649AA08DBAFF5B36B865F9585AE5B83BCB35185C846035019B63967B6E9 DUP8 DUP8 PUSH2 0x1FEC DUP8 PUSH1 0x4 PUSH2 0x27C0 JUMP JUMPDEST PUSH1 0x0 DUP12 DUP2 MSTORE PUSH1 0x1B PUSH1 0x20 SWAP1 DUP2 MSTORE PUSH1 0x40 DUP1 DUP4 KECCAK256 DUP14 DUP5 MSTORE DUP3 MSTORE SWAP2 DUP3 SWAP1 KECCAK256 SLOAD DUP3 MLOAD SWAP6 DUP7 MSTORE SWAP1 DUP6 ADD SWAP4 SWAP1 SWAP4 MSTORE DUP4 ADD MSTORE PUSH1 0x60 DUP3 ADD MSTORE PUSH1 0x80 ADD PUSH1 0x40 MLOAD DUP1 SWAP2 SUB SWAP1 LOG3 PUSH1 0x3 SLOAD PUSH1 0x1 PUSH1 0x1 PUSH1 0xA0 SHL SUB AND PUSH4 0xA9059CBB DUP5 PUSH2 0x2043 DUP6 PUSH1 0x4 PUSH2 0x27C0 JUMP JUMPDEST PUSH1 0x40 MLOAD PUSH1 0x1 PUSH1 0x1 PUSH1 0xE0 SHL SUB NOT PUSH1 0xE0 DUP6 SWAP1 SHL AND DUP2 MSTORE PUSH1 0x1 PUSH1 0x1 PUSH1 0xA0 SHL SUB SWAP1 SWAP3 AND PUSH1 0x4 DUP4 ADD MSTORE PUSH1 0x24 DUP3 ADD MSTORE PUSH1 0x44 ADD PUSH1 0x20 PUSH1 0x40 MLOAD DUP1 DUP4 SUB DUP2 PUSH1 0x0 DUP8 GAS CALL ISZERO DUP1 ISZERO PUSH2 0x208E JUMPI RETURNDATASIZE PUSH1 0x0 DUP1 RETURNDATACOPY RETURNDATASIZE PUSH1 0x0 REVERT JUMPDEST POP POP POP POP PUSH1 0x40 MLOAD RETURNDATASIZE PUSH1 0x1F NOT PUSH1 0x1F DUP3 ADD AND DUP3 ADD DUP1 PUSH1 0x40 MSTORE POP DUP2 ADD SWAP1 PUSH2 0x20B2 SWAP2 SWAP1 PUSH2 0x2759 JUMP JUMPDEST POP PUSH2 0x1163 DUP3 PUSH1 0x4 PUSH2 0x27C0 JUMP JUMPDEST PUSH1 0x0 DUP2 DUP4 LT ISZERO PUSH2 0x2100 JUMPI PUSH1 0x40 MLOAD PUSH3 0x461BCD PUSH1 0xE5 SHL DUP2 MSTORE PUSH1 0x20 PUSH1 0x4 DUP3 ADD MSTORE PUSH1 0xD PUSH1 0x24 DUP3 ADD MSTORE PUSH13 0x53756220756E646572666C6F77 PUSH1 0x98 SHL PUSH1 0x44 DUP3 ADD MSTORE PUSH1 0x64 ADD PUSH2 0x9A1 JUMP JUMPDEST PUSH2 0x1167 DUP3 DUP5 PUSH2 0x2791 JUMP JUMPDEST PUSH1 0x20 DUP1 SLOAD PUSH1 0x40 DUP1 MLOAD PUSH4 0x6055F5F PUSH1 0xE5 SHL DUP2 MSTORE SWAP1 MLOAD PUSH1 0x0 SWAP4 PUSH1 0x1 PUSH1 0x1 PUSH1 0xA0 SHL SUB SWAP1 SWAP4 AND SWAP3 PUSH4 0xC0ABEBE0 SWAP3 PUSH1 0x4 DUP1 DUP3 ADD SWAP4 SWAP2 DUP3 SWAP1 SUB ADD DUP2 DUP7 GAS STATICCALL ISZERO DUP1 ISZERO PUSH2 0x2153 JUMPI RETURNDATASIZE PUSH1 0x0 DUP1 RETURNDATACOPY RETURNDATASIZE PUSH1 0x0 REVERT JUMPDEST POP POP POP POP PUSH1 0x40 MLOAD RETURNDATASIZE PUSH1 0x1F NOT PUSH1 0x1F DUP3 ADD AND DUP3 ADD DUP1 PUSH1 0x40 MSTORE POP DUP2 ADD SWAP1 PUSH2 0x2177 SWAP2 SWAP1 PUSH2 0x2801 JUMP JUMPDEST SWAP1 POP PUSH1 0x0 PUSH1 0x21 SLOAD DUP3 PUSH2 0x2189 SWAP2 SWAP1 PUSH2 0x2791 JUMP JUMPDEST SWAP1 POP PUSH1 0x0 PUSH2 0x21AF PUSH1 0x64 PUSH2 0x21A9 PUSH2 0x350 PUSH1 0xD SLOAD PUSH2 0x2297 SWAP1 SWAP2 SWAP1 PUSH4 0xFFFFFFFF AND JUMP JUMPDEST SWAP1 PUSH2 0x22FC JUMP JUMPDEST SWAP1 POP DUP2 ISZERO PUSH2 0x226E JUMPI DUP1 DUP3 LT ISZERO PUSH2 0x221F JUMPI PUSH1 0x0 PUSH2 0x21D0 DUP4 PUSH2 0x21A9 DUP5 PUSH1 0x64 PUSH2 0x2297 JUMP JUMPDEST SWAP1 POP PUSH1 0x0 PUSH2 0x21EB PUSH2 0x3E8 PUSH2 0x21E5 DUP5 PUSH1 0x64 PUSH2 0x20BE JUMP JUMPDEST SWAP1 PUSH2 0x2343 JUMP JUMPDEST SWAP1 POP PUSH2 0x2214 PUSH2 0x220B PUSH2 0x3E8 PUSH2 0x21A9 DUP5 PUSH1 0x12 SLOAD PUSH2 0x2297 SWAP1 SWAP2 SWAP1 PUSH4 0xFFFFFFFF AND JUMP JUMPDEST PUSH1 0x12 SLOAD SWAP1 PUSH2 0x19A8 JUMP JUMPDEST PUSH1 0x12 SSTORE POP PUSH2 0x2280 SWAP1 POP JUMP JUMPDEST PUSH1 0x0 PUSH2 0x2230 DUP3 PUSH2 0x21A9 DUP6 PUSH1 0x64 PUSH2 0x2297 JUMP JUMPDEST SWAP1 POP PUSH1 0x0 PUSH2 0x2245 PUSH2 0x3E8 PUSH2 0x21E5 DUP5 PUSH1 0x64 PUSH2 0x20BE JUMP JUMPDEST SWAP1 POP PUSH2 0x2214 PUSH2 0x2265 PUSH2 0x7D0 PUSH2 0x21A9 DUP5 PUSH1 0x12 SLOAD PUSH2 0x2297 SWAP1 SWAP2 SWAP1 PUSH4 0xFFFFFFFF AND JUMP JUMPDEST PUSH1 0x12 SLOAD SWAP1 PUSH2 0x20BE JUMP JUMPDEST PUSH1 0x12 SLOAD PUSH2 0x227C SWAP1 PUSH1 0x2 PUSH2 0x27C0 JUMP JUMPDEST PUSH1 0x12 SSTORE JUMPDEST PUSH1 0x5 PUSH1 0x12 SLOAD GT PUSH2 0x2290 JUMPI PUSH1 0xA PUSH1 0x12 SSTORE JUMPDEST POP POP PUSH1 0x21 SSTORE JUMP JUMPDEST PUSH1 0x0 DUP3 PUSH2 0x22A6 JUMPI POP PUSH1 0x0 PUSH2 0xF91 JUMP JUMPDEST PUSH1 0x0 PUSH2 0x22B2 DUP4 DUP6 PUSH2 0x27C0 JUMP JUMPDEST SWAP1 POP DUP3 PUSH2 0x22BF DUP6 DUP4 PUSH2 0x27DF JUMP JUMPDEST EQ PUSH2 0x1167 JUMPI PUSH1 0x40 MLOAD PUSH3 0x461BCD PUSH1 0xE5 SHL DUP2 MSTORE PUSH1 0x20 PUSH1 0x4 DUP3 ADD MSTORE PUSH1 0xD PUSH1 0x24 DUP3 ADD MSTORE PUSH13 0x4D756C74206F766572666C6F77 PUSH1 0x98 SHL PUSH1 0x44 DUP3 ADD MSTORE PUSH1 0x64 ADD PUSH2 0x9A1 JUMP JUMPDEST PUSH1 0x0 DUP2 PUSH2 0x2339 JUMPI PUSH1 0x40 MLOAD PUSH3 0x461BCD PUSH1 0xE5 SHL DUP2 MSTORE PUSH1 0x20 PUSH1 0x4 DUP3 ADD MSTORE PUSH1 0xB PUSH1 0x24 DUP3 ADD MSTORE PUSH11 0x446976206279207A65726F PUSH1 0xA8 SHL PUSH1 0x44 DUP3 ADD MSTORE PUSH1 0x64 ADD PUSH2 0x9A1 JUMP JUMPDEST PUSH2 0x1167 DUP3 DUP5 PUSH2 0x27DF JUMP JUMPDEST PUSH1 0x0 DUP2 DUP4 GT ISZERO PUSH2 0x2354 JUMPI POP DUP1 PUSH2 0xF91 JUMP JUMPDEST POP SWAP1 SWAP2 SWAP1 POP JUMP JUMPDEST PUSH1 0x0 PUSH1 0x20 DUP1 DUP4 MSTORE DUP4 MLOAD DUP1 DUP3 DUP6 ADD MSTORE PUSH1 0x0 JUMPDEST DUP2 DUP2 LT ISZERO PUSH2 0x2388 JUMPI DUP6 DUP2 ADD DUP4 ADD MLOAD DUP6 DUP3 ADD PUSH1 0x40 ADD MSTORE DUP3 ADD PUSH2 0x236C JUMP JUMPDEST DUP2 DUP2 GT ISZERO PUSH2 0x239A JUMPI PUSH1 0x0 PUSH1 0x40 DUP4 DUP8 ADD ADD MSTORE JUMPDEST POP PUSH1 0x1F ADD PUSH1 0x1F NOT AND SWAP3 SWAP1 SWAP3 ADD PUSH1 0x40 ADD SWAP4 SWAP3 POP POP POP JUMP JUMPDEST PUSH4 0x4E487B71 PUSH1 0xE0 SHL PUSH1 0x0 MSTORE PUSH1 0x41 PUSH1 0x4 MSTORE PUSH1 0x24 PUSH1 0x0 REVERT JUMPDEST PUSH1 0x0 DUP3 PUSH1 0x1F DUP4 ADD SLT PUSH2 0x23D7 JUMPI PUSH1 0x0 DUP1 REVERT JUMPDEST DUP2 CALLDATALOAD PUSH1 0x20 PUSH8 0xFFFFFFFFFFFFFFFF DUP1 DUP4 GT ISZERO PUSH2 0x23F4 JUMPI PUSH2 0x23F4 PUSH2 0x23B0 JUMP JUMPDEST DUP3 PUSH1 0x5 SHL PUSH1 0x40 MLOAD PUSH1 0x1F NOT PUSH1 0x3F DUP4 ADD AND DUP2 ADD DUP2 DUP2 LT DUP5 DUP3 GT OR ISZERO PUSH2 0x2419 JUMPI PUSH2 0x2419 PUSH2 0x23B0 JUMP JUMPDEST PUSH1 0x40 MSTORE SWAP4 DUP5 MSTORE DUP6 DUP2 ADD DUP4 ADD SWAP4 DUP4 DUP2 ADD SWAP3 POP DUP8 DUP6 GT ISZERO PUSH2 0x2437 JUMPI PUSH1 0x0 DUP1 REVERT JUMPDEST DUP4 DUP8 ADD SWAP2 POP JUMPDEST DUP5 DUP3 LT ISZERO PUSH2 0x2456 JUMPI DUP2 CALLDATALOAD DUP4 MSTORE SWAP2 DUP4 ADD SWAP2 SWAP1 DUP4 ADD SWAP1 PUSH2 0x243D JUMP JUMPDEST SWAP8 SWAP7 POP POP POP POP POP POP POP JUMP JUMPDEST DUP1 CALLDATALOAD PUSH1 0x1 PUSH1 0x1 PUSH1 0xA0 SHL SUB DUP2 AND DUP2 EQ PUSH2 0x2478 JUMPI PUSH1 0x0 DUP1 REVERT JUMPDEST SWAP2 SWAP1 POP JUMP JUMPDEST PUSH1 0x0 DUP1 PUSH1 0x0 DUP1 PUSH1 0x80 DUP6 DUP8 SUB SLT ISZERO PUSH2 0x2493 JUMPI PUSH1 0x0 DUP1 REVERT JUMPDEST DUP5 CALLDATALOAD SWAP4 POP PUSH1 0x20 DUP6 ADD CALLDATALOAD PUSH8 0xFFFFFFFFFFFFFFFF DUP1 DUP3 GT ISZERO PUSH2 0x24B2 JUMPI PUSH1 0x0 DUP1 REVERT JUMPDEST PUSH2 0x24BE DUP9 DUP4 DUP10 ADD PUSH2 0x23C6 JUMP JUMPDEST SWAP5 POP PUSH2 0x24CC PUSH1 0x40 DUP9 ADD PUSH2 0x2461 JUMP JUMPDEST SWAP4 POP PUSH1 0x60 DUP8 ADD CALLDATALOAD SWAP2 POP DUP1 DUP3 GT ISZERO PUSH2 0x24E2 JUMPI PUSH1 0x0 DUP1 REVERT JUMPDEST POP PUSH2 0x24EF DUP8 DUP3 DUP9 ADD PUSH2 0x23C6 JUMP JUMPDEST SWAP2 POP POP SWAP3 SWAP6 SWAP2 SWAP5 POP SWAP3 POP JUMP JUMPDEST PUSH1 0x0 DUP1 PUSH1 0x0 PUSH1 0x60 DUP5 DUP7 SUB SLT ISZERO PUSH2 0x2510 JUMPI PUSH1 0x0 DUP1 REVERT JUMPDEST POP POP DUP2 CALLDATALOAD SWAP4 PUSH1 0x20 DUP4 ADD CALLDATALOAD SWAP4 POP PUSH1 0x40 SWAP1 SWAP3 ADD CALLDATALOAD SWAP2 SWAP1 POP JUMP JUMPDEST PUSH1 0x0 DUP1 PUSH1 0x40 DUP4 DUP6 SUB SLT ISZERO PUSH2 0x253A JUMPI PUSH1 0x0 DUP1 REVERT JUMPDEST POP POP DUP1 CALLDATALOAD SWAP3 PUSH1 0x20 SWAP1 SWAP2 ADD CALLDATALOAD SWAP2 POP JUMP JUMPDEST PUSH1 0x0 DUP1 PUSH1 0x0 PUSH1 0x60 DUP5 DUP7 SUB SLT ISZERO PUSH2 0x255E JUMPI PUSH1 0x0 DUP1 REVERT JUMPDEST PUSH2 0x2567 DUP5 PUSH2 0x2461 JUMP JUMPDEST SWAP6 PUSH1 0x20 DUP6 ADD CALLDATALOAD SWAP6 POP PUSH1 0x40 SWAP1 SWAP5 ADD CALLDATALOAD SWAP4 SWAP3 POP POP POP JUMP JUMPDEST PUSH1 0x0 PUSH1 0x20 DUP3 DUP5 SUB SLT ISZERO PUSH2 0x258E JUMPI PUSH1 0x0 DUP1 REVERT JUMPDEST PUSH2 0x1167 DUP3 PUSH2 0x2461 JUMP JUMPDEST PUSH1 0x0 DUP1 PUSH1 0x40 DUP4 DUP6 SUB SLT ISZERO PUSH2 0x25AA JUMPI PUSH1 0x0 DUP1 REVERT JUMPDEST PUSH2 0x25B3 DUP4 PUSH2 0x2461 JUMP JUMPDEST SWAP5 PUSH1 0x20 SWAP4 SWAP1 SWAP4 ADD CALLDATALOAD SWAP4 POP POP POP JUMP JUMPDEST PUSH1 0x0 DUP1 PUSH1 0x0 PUSH1 0x60 DUP5 DUP7 SUB SLT ISZERO PUSH2 0x25D6 JUMPI PUSH1 0x0 DUP1 REVERT JUMPDEST DUP4 CALLDATALOAD SWAP3 POP PUSH1 0x20 DUP5 ADD CALLDATALOAD SWAP2 POP PUSH2 0x25ED PUSH1 0x40 DUP6 ADD PUSH2 0x2461 JUMP JUMPDEST SWAP1 POP SWAP3 POP SWAP3 POP SWAP3 JUMP JUMPDEST PUSH1 0x0 DUP1 PUSH1 0x0 PUSH1 0x60 DUP5 DUP7 SUB SLT ISZERO PUSH2 0x260B JUMPI PUSH1 0x0 DUP1 REVERT JUMPDEST DUP4 CALLDATALOAD SWAP3 POP PUSH1 0x20 DUP5 ADD CALLDATALOAD PUSH8 0xFFFFFFFFFFFFFFFF DUP2 GT ISZERO PUSH2 0x2629 JUMPI PUSH1 0x0 DUP1 REVERT JUMPDEST PUSH2 0x2635 DUP7 DUP3 DUP8 ADD PUSH2 0x23C6 JUMP JUMPDEST SWAP3 POP POP PUSH2 0x25ED PUSH1 0x40 DUP6 ADD PUSH2 0x2461 JUMP JUMPDEST PUSH1 0x0 PUSH1 0x20 DUP3 DUP5 SUB SLT ISZERO PUSH2 0x2656 JUMPI PUSH1 0x0 DUP1 REVERT JUMPDEST POP CALLDATALOAD SWAP2 SWAP1 POP JUMP JUMPDEST PUSH1 0x0 DUP1 PUSH1 0x40 DUP4 DUP6 SUB SLT ISZERO PUSH2 0x2670 JUMPI PUSH1 0x0 DUP1 REVERT JUMPDEST PUSH2 0x2679 DUP4 PUSH2 0x2461 JUMP JUMPDEST SWAP2 POP PUSH2 0x2687 PUSH1 0x20 DUP5 ADD PUSH2 0x2461 JUMP JUMPDEST SWAP1 POP SWAP3 POP SWAP3 SWAP1 POP JUMP JUMPDEST PUSH1 0x0 DUP1 PUSH1 0x0 DUP1 PUSH1 0x0 PUSH1 0xA0 DUP7 DUP9 SUB SLT ISZERO PUSH2 0x26A8 JUMPI PUSH1 0x0 DUP1 REVERT JUMPDEST DUP6 CALLDATALOAD SWAP5 POP PUSH1 0x20 DUP7 ADD CALLDATALOAD SWAP4 POP PUSH1 0x40 DUP7 ADD CALLDATALOAD SWAP3 POP PUSH2 0x26C6 PUSH1 0x60 DUP8 ADD PUSH2 0x2461 JUMP JUMPDEST SWAP5 SWAP8 SWAP4 SWAP7 POP SWAP2 SWAP5 PUSH1 0x80 ADD CALLDATALOAD SWAP3 SWAP2 POP POP JUMP JUMPDEST PUSH1 0x1 DUP2 DUP2 SHR SWAP1 DUP3 AND DUP1 PUSH2 0x26EB JUMPI PUSH1 0x7F DUP3 AND SWAP2 POP JUMPDEST PUSH1 0x20 DUP3 LT DUP2 EQ ISZERO PUSH2 0x270C JUMPI PUSH4 0x4E487B71 PUSH1 0xE0 SHL PUSH1 0x0 MSTORE PUSH1 0x22 PUSH1 0x4 MSTORE PUSH1 0x24 PUSH1 0x0 REVERT JUMPDEST POP SWAP2 SWAP1 POP JUMP JUMPDEST PUSH4 0x4E487B71 PUSH1 0xE0 SHL PUSH1 0x0 MSTORE PUSH1 0x32 PUSH1 0x4 MSTORE PUSH1 0x24 PUSH1 0x0 REVERT JUMPDEST PUSH4 0x4E487B71 PUSH1 0xE0 SHL PUSH1 0x0 MSTORE PUSH1 0x11 PUSH1 0x4 MSTORE PUSH1 0x24 PUSH1 0x0 REVERT JUMPDEST PUSH1 0x0 PUSH1 0x0 NOT DUP3 EQ ISZERO PUSH2 0x2752 JUMPI PUSH2 0x2752 PUSH2 0x2728 JUMP JUMPDEST POP PUSH1 0x1 ADD SWAP1 JUMP JUMPDEST PUSH1 0x0 PUSH1 0x20 DUP3 DUP5 SUB SLT ISZERO PUSH2 0x276B JUMPI PUSH1 0x0 DUP1 REVERT JUMPDEST DUP2 MLOAD DUP1 ISZERO ISZERO DUP2 EQ PUSH2 0x1167 JUMPI PUSH1 0x0 DUP1 REVERT JUMPDEST PUSH4 0x4E487B71 PUSH1 0xE0 SHL PUSH1 0x0 MSTORE PUSH1 0x1 PUSH1 0x4 MSTORE PUSH1 0x24 PUSH1 0x0 REVERT JUMPDEST PUSH1 0x0 DUP3 DUP3 LT ISZERO PUSH2 0x27A3 JUMPI PUSH2 0x27A3 PUSH2 0x2728 JUMP JUMPDEST POP SUB SWAP1 JUMP JUMPDEST PUSH1 0x0 DUP3 NOT DUP3 GT ISZERO PUSH2 0x27BB JUMPI PUSH2 0x27BB PUSH2 0x2728 JUMP JUMPDEST POP ADD SWAP1 JUMP JUMPDEST PUSH1 0x0 DUP2 PUSH1 0x0 NOT DIV DUP4 GT DUP3 ISZERO ISZERO AND ISZERO PUSH2 0x27DA JUMPI PUSH2 0x27DA PUSH2 0x2728 JUMP JUMPDEST POP MUL SWAP1 JUMP JUMPDEST PUSH1 0x0 DUP3 PUSH2 0x27FC JUMPI PUSH4 0x4E487B71 PUSH1 0xE0 SHL PUSH1 0x0 MSTORE PUSH1 0x12 PUSH1 0x4 MSTORE PUSH1 0x24 PUSH1 0x0 REVERT JUMPDEST POP DIV SWAP1 JUMP JUMPDEST PUSH1 0x0 PUSH1 0x20 DUP3 DUP5 SUB SLT ISZERO PUSH2 0x2813 JUMPI PUSH1 0x0 DUP1 REVERT JUMPDEST POP MLOAD SWAP2 SWAP1 POP JUMP INVALID LOG2 PUSH5 0x6970667358 0x22 SLT KECCAK256 0x28 0x49 0xAB XOR LOG2 PUSH31 0xD4DAC133CDAC0491A74DD18014588698B943EFBE1BA957744DCC64736F6C63 NUMBER STOP ADDMOD SIGNEXTEND STOP CALLER ",
  "sha1": "5b2856228aa2ce20f4362f57623cdccc9a27d490",
  "source": "/**\n *Submitted for verification at polygonscan.com on 2022-02-11\n*/\n\n//  Forge Auctions Contract\n//  Auctions Forge tokens every 3 days and users are able to withdraw anytime after!\n//\n//  The 0xBitcoin tokens collected by Forge Auctions go to miners and liquidity providers!\n//\n//  10,500,000 Forge tokens are Auctioned off over 100 years in this contract! In the first era ~5,000,000 are auctioned and half every era after!\n//\n//  Distributes 8,192 Forge tokens every 4-12 days for the first era(~5 years) and halves the amount of Forge every era after\n//\n// By using the burn0xBTCForMember function\n//       0xBitcoin Token is taken from the user and used to recieve your share of the 8,192 tokens auctioned every ~4 days\n\n\npragma solidity ^0.8.11;\n\ncontract Ownabled {\n    address public owner22;\n    event TransferOwnership(address _from, address _to);\n\n    constructor() public {\n        owner22 = msg.sender;\n        emit TransferOwnership(address(0), msg.sender);\n    }\n\n    modifier onlyOwner22() {\n        require(msg.sender == owner22, \"only owner\");\n        _;\n    }\n    function setOwner(address _owner22) internal onlyOwner22 {\n        emit TransferOwnership(owner22, _owner22);\n        owner22 = _owner22;\n    }\n}\n\nlibrary SafeMath {\n    function add(uint256 x, uint256 y) internal pure returns (uint256) {\n        uint256 z = x + y;\n        require(z >= x, \"Add overflow\");\n        return z;\n    }\n\n    function sub(uint256 x, uint256 y) internal pure returns (uint256) {\n        require(x >= y, \"Sub underflow\");\n        return x - y;\n    }\n\n    function mult(uint256 x, uint256 y) internal pure returns (uint256) {\n        if (x == 0) {\n            return 0;\n        }\n\n        uint256 z = x * y;\n        require(z / x == y, \"Mult overflow\");\n        return z;\n    }\n\n    function div(uint256 x, uint256 y) internal pure returns (uint256) {\n        require(y != 0, \"Div by zero\");\n        return x / y;\n    }\n\n    function divRound(uint256 x, uint256 y) internal pure returns (uint256) {\n        require(y != 0, \"Div by zero\");\n        uint256 r = x / y;\n        if (x % y != 0) {\n            r = r + 1;\n        }\n\n        return r;\n    }\n}\n\nlibrary ExtendedMath {\n\n\n    //return the smaller of the two inputs (a or b)\n    function limitLessThan(uint a, uint b) internal pure returns (uint c) {\n\n        if(a > b) return b;\n\n        return a;\n\n    }\n}\ninterface IERC20 {\n\n    /**\n     * @dev Returns the amount of tokens owned by `account`.\n     */\n    function balanceOf(address account) external view returns (uint256);\n\n    /**\n     * @dev Moves `amount` tokens from the caller's account to `recipient`.\n     *\n     * Returns a boolean value indicating whether the operation succeeded.\n     *\n     * Emits a {Transfer} event.\n     */\n    function transfer(address recipient, uint256 amount) external returns (bool);\n\n    /**\n     * @dev Returns the remaining number of tokens that `spender` will be\n     * allowed to spend on behalf of `owner` through {transferFrom}. This is\n     * zero by default.\n     *\n     * This value changes when {approve} or {transferFrom} are called.\n     */\n    function allowance(address owner, address spender) external view returns (uint256);\n\n    /**\n     * @dev Sets `amount` as the allowance of `spender` over the caller's tokens.\n     *\n     * Returns a boolean value indicating whether the operation succeeded.\n     *\n     * IMPORTANT: Beware that changing an allowance with this method brings the risk\n     * that someone may use both the old and the new allowance by unfortunate\n     * transaction ordering. One possible solution to mitigate this race\n     * condition is to first reduce the spender's allowance to 0 and set the\n     * desired value afterwards:\n     * https://github.com/ethereum/EIPs/issues/20#issuecomment-263524729\n     *\n     * Emits an {Approval} event.\n     */\n    function approve(address spender, uint256 amount) external returns (bool);\n\n    /**\n     * @dev Moves `amount` tokens from `sender` to `recipient` using the\n     * allowance mechanism. `amount` is then deducted from the caller's\n     * allowance.\n     *\n     * Returns a boolean value indicating whether the operation succeeded.\n     *\n     * Emits a {Transfer} event.\n     */\n    function transferFrom(address sender, address recipient, uint256 amount) external returns (bool);\n\n    /**\n     * @dev Emitted when `value` tokens are moved from one account (`from`) to\n     * another (`to`).\n     *\n     * Note that `value` may be zero.\n     */\n\n    /**\n     * @dev Emitted when the allowance of a `spender` for an `owner` is set by\n     * a call to {approve}. `value` is the new allowance.\n     */\n    event Approval(address indexed owner, address indexed spender, uint256 value);\n   \n    \n}\n\ncontract GasPump {\n    bytes32 private stub;\n\n    modifier requestGas(uint256 _factor) {\n        if (tx.gasprice == 0 || gasleft() > block.gaslimit) {\n            uint256 startgas = gasleft();\n            _;\n            uint256 delta = startgas - gasleft();\n            uint256 target = (delta * _factor) / 100;\n            startgas = gasleft();\n            while (startgas - gasleft() < target) {\n                // Burn gas\n                stub = keccak256(abi.encodePacked(stub));\n            }\n        } else {\n            _;\n        }\n    }\n}\n\ncontract ForgeMiningCT{\n    function getMiningMinted() public view returns (uint256) {}\n    \n    }\n\n  contract ForgeAuctions is  GasPump, Ownabled\n{\n\n    using SafeMath for uint;\n    using ExtendedMath for uint;\n    address public AddressZeroXBTC;\n    address public AddressForgeToken;\n    // ERC-20 Parameters\n    uint256 public extraGas;\n    bool runonce = false;\n    uint256 oneEthUnit = 1000000000000000000; \n    uint256 one0xBTCUnit =         100000000;\n    string public name;\n    uint public decimals;\n\n    // ERC-20 Mappings\n    mapping(address => uint) private _balances;\n    mapping(address => mapping(address => uint)) private _allowances;\n\n    // Public Parameters\n    uint coin; uint public emission; uint public totalAuctioned = 0;\n    uint public currentEra; uint public currentDay;\n    uint public daysPerEra; uint public secondsPerDay;\n    uint public nextDayTime;\n    uint public totalBurnt; uint public totalEmitted;\n    // Public Mappings\n    \n    mapping(uint=>uint) public mapEra_Emission;                                             // Era->Emission\n    mapping(uint=>mapping(uint=>uint)) public mapEraDay_MemberCount;                        // Era,Days->MemberCount\n    mapping(uint=>mapping(uint=>address[])) public mapEraDay_Members;                       // Era,Days->Members\n    mapping(uint=>mapping(uint=>uint)) public mapEraDay_Units;                              // Era,Days->Units\n    mapping(uint=>mapping(uint=>uint)) public mapEraDay_UnitsRemaining;                     // Era,Days->TotalUnits\n    mapping(uint=>mapping(uint=>uint)) public mapEraDay_EmissionRemaining;                  // Era,Days->Emission\n    mapping(uint=>mapping(uint=>mapping(address=>uint))) public mapEraDay_MemberUnits;      // Era,Days,Member->Units\n    mapping(address=>mapping(uint=>uint[])) public mapMemberEra_Days;                       // Member,Era->Days[]   \n    mapping(address=>uint) public ZmapMember_EraClaimedTo;      // Era,Days,Member->Units\n    mapping(address=>uint) public ZmapMember_DayClaimedTo; \n    \n    ForgeMiningCT ForgeMiningToken;\n    // Events\n    event SetExtraGas(uint256 _prev, uint256 _new);\n    event NewEra(uint era, uint emission, uint totalBurnt);\n    event NewDay(uint era, uint day, uint time, uint previousDayTotal, uint previousDayMembers);\n    event Burn(address indexed payer, address indexed member, uint era, uint day, uint units, uint dailyTotal);\n    event BurnMultipleDays(address indexed payer, address indexed member, uint era, uint NumberOfDays, uint totalUnits);\n  \n    event Withdrawal(address indexed caller, address indexed member, uint era, uint day, uint value, uint vetherRemaining);\n    event MegaWithdrawal(address indexed caller, address indexed member, uint era, uint TotalDays, uint256 stricttotal);\n    uint256 public lastMinted = 0;\n    bool onlyOnce = false;\n    //=====================================CREATION=========================================//\n\n    // Constructor\n    constructor () public {\n        name = \"Auction Contract\"; decimals = 18; \n        coin = 10**decimals; emission = 2048*coin;\n        currentEra = 1; currentDay = 1; \n        daysPerEra = 600; secondsPerDay = 24*60*60*3; \n        totalBurnt = 0;\n        totalEmitted = 0;\n        nextDayTime = block.timestamp + secondsPerDay;\n        mapEra_Emission[currentEra] = emission; \n        mapEraDay_EmissionRemaining[currentEra][currentDay] = emission; \n                                                              \n    }\n    \n    \n    \n\n\n        function zSetUP1(address token, address _ZeroXBTCAddress) public onlyOwner22 {\n        AddressForgeToken = token;\n        owner22 = address(0);\n        lastMinted =  0;\n        AddressZeroXBTC = _ZeroXBTCAddress;\n        ForgeMiningToken = ForgeMiningCT(token);\n        lastMinted = ForgeMiningToken.getMiningMinted();\n\n    }\n\n    function changeAuctionAmt() internal {\n        uint tokensMinted = ForgeMiningToken.getMiningMinted();\n      \n        uint diff = tokensMinted - lastMinted;\n        uint expected = emission.mult(8*106).div(100);\n        if(diff != 0){\n            if( diff < expected )\n            {\n                uint excess_block_pct = (expected.mult(100)).div( diff );\n                uint excess_block_pct_extra = excess_block_pct.sub(100).limitLessThan(1000);\n            \n            // If there were 5% more blocks mined than expected then this is 5.  If there were 100% more blocks mined than expected then this is 100.\n            //make it longer since we are not mining enough\n            \n                secondsPerDay = secondsPerDay.add(secondsPerDay.mult(excess_block_pct_extra).div(1000));   //by up to 100 %\n            }else{\n                uint shortage_block_pct = (diff.mult(100)).div( expected );\n                uint shortage_block_pct_extra = shortage_block_pct.sub(100).limitLessThan(1000); //always between 0 and 1000\n\n             //make it shorter since we are mining too many\n                 secondsPerDay = secondsPerDay.sub(secondsPerDay.mult(shortage_block_pct_extra).div(2000));   //by up to 50 %\n              }\n        }else{\n            secondsPerDay = secondsPerDay * 2;\n        }\n       if(secondsPerDay <= 5)\n       {\n           secondsPerDay = 10;\n       }\n\n           \n       lastMinted = tokensMinted;\n\n    }\n\n\n    //Bids for Whole Era\n    function WholeEraBurn0xBTCForMember(address member, uint256 _0xbtcAmountTotal) public returns (bool success)\n    {\n        uint256 daysleft = daysPerEra - currentDay - 1 ;//just incase\n        FutureBurn0xBTCEasier(currentEra, currentDay, daysleft, member, _0xbtcAmountTotal);\n        \n        return true;\n        \n    }\n    \n    \n    //Bids for Future in consequitive days\n    function FutureBurn0xBTCEasier(uint _era, uint startingday, uint totalNumberrOfDays, address _member, uint _0xbtcAmountTotal) public returns (bool success)\n    {\n        uint[] memory dd = new uint[](totalNumberrOfDays); \n        uint[] memory amt = new uint[](totalNumberrOfDays);\n        uint y=0;\n        for(uint x=startingday; x< (startingday+totalNumberrOfDays); x++)\n        {\n            dd[y] = x;\n            amt[y] = _0xbtcAmountTotal/totalNumberrOfDays;\n            y++;\n        }\n        FutureBurn0xBTCArrays(_era, dd, _member, amt);\n    \n        return true;\n    }\n\n\n    //Burns any amount for any day(s) in any order\n    function FutureBurn0xBTCArrays(uint _era, uint[] memory fdays, address _member, uint[] memory _0xbtcAmount) public returns (bool success)\n    {\n        uint256 stricttotal =0;\n        uint256 _daysPerEra=daysPerEra;\n        uint _currentEra = currentEra; \n        uint _currentday = currentDay; \n        require(_era >= currentEra, \"no knucklehead only bid on this era\");\n        for(uint256 x = 0; x < fdays.length; x++)\n        {\n            uint256 dayamt = _0xbtcAmount[x];\n            if(_era == _currentEra)\n            {\n                require(fdays[x] >= currentDay, \"Must not bid behind the days\");\n            }\n            require(fdays[x] <= _daysPerEra, \"Cant bid on days not in era\");\n            stricttotal = stricttotal.add(dayamt);\n            _recordBurn(msg.sender, _member, _era, fdays[x], dayamt);\n        }\n    \n        require(IERC20(AddressZeroXBTC).transferFrom(msg.sender, AddressForgeToken, stricttotal), \"NO OTHER WAY, send it the required 0xBitcoin\");\n        \n        emit BurnMultipleDays(msg.sender, _member, _era, fdays.length, stricttotal);\n        \n        return true;\n    \n    }\n\n\n    function burn0xBTCForMember(address member, uint256 _0xbtcAmount) public returns (bool success) {\n        uint day = currentDay;\n        require(IERC20(AddressZeroXBTC).transferFrom(msg.sender, AddressForgeToken, _0xbtcAmount), \"NO WAY, requires 0xBTC send\");\n        _recordBurn(msg.sender, member, currentEra, currentDay, _0xbtcAmount);\n        emit Burn(msg.sender, member, currentEra, day, _0xbtcAmount, mapEraDay_Units[currentEra][currentDay]);\n        \n        return true;\n    }\n    \n    \n    // Internal - Records burn\n    function _recordBurn(address _payer, address _member, uint _era, uint _day, uint _eth) private {\n        if (mapEraDay_MemberUnits[_era][_day][_member] == 0){                               // If hasn't contributed to this Day yet\n            mapMemberEra_Days[_member][_era].push(_day);                                    // Add it\n            mapEraDay_MemberCount[_era][_day] += 1;                                         // Count member\n            mapEraDay_Members[_era][_day].push(_member);                                    // Add member\n        }\n        mapEraDay_MemberUnits[_era][_day][_member] += _eth;                                 // Add member's share\n        mapEraDay_UnitsRemaining[_era][_day] += _eth;                                       // Add to total historicals\n        mapEraDay_Units[_era][_day] += _eth;                                                // Add to total outstanding\n        totalBurnt += _eth;                                                                 // Add to total burnt\n        _updateEmission();                                                                  // Update emission Schedule\n    }\n    \n    \n    \n        //======================================WITHDRAWAL======================================//\n    // Used to efficiently track participation in each era\n    function getDaysContributedForEra(address member, uint era) public view returns(uint){\n        return mapMemberEra_Days[member][era].length;\n    }\n    \n    \n    // Call to withdraw a claim\n    function withdrawShare(uint era, uint day) external returns (uint value) {\n        uint memberUnits = mapEraDay_MemberUnits[era][day][msg.sender];  \n        assert (memberUnits != 0); // Get Member Units\n        value = _withdrawShare(era, day, msg.sender);\n    }\n    \n    \n    // Call to withdraw a claim for another member\n    function withdrawShareForMember(uint era, uint day, address member) public returns (uint value) {\n        uint memberUnits = mapEraDay_MemberUnits[era][day][member];  \n        assert (memberUnits != 0); // Get Member Units\n        value = _withdrawShare(era, day, member);\n        return value;\n    }\n    \n    \n    // Internal - withdraw function\n    function _withdrawShare (uint _era, uint _day, address _member) private returns (uint value) {\n        _updateEmission(); \n        if (_era < currentEra) {                                                            // Allow if in previous Era\n            value = _processWithdrawal(_era, _day, _member);                                // Process Withdrawal\n        } else if (_era == currentEra) {                                                    // Handle if in current Era\n            if (_day < currentDay) {                                                        // Allow only if in previous Day\n                value = _processWithdrawal(_era, _day, _member);                            // Process Withdrawal\n            }\n        } \n \n        return value;\n        \n    }\n    \n\n    //To change your claiming if somehow error occurs\n    function z_ChangeMaxWithdrawl( uint newMaxDay, uint newMaxEra) public returns  (bool success){\n        ZmapMember_DayClaimedTo[msg.sender] = newMaxDay;\n        ZmapMember_EraClaimedTo[msg.sender] = newMaxEra;\n        \n        return true;\n        \n    }\n    \n    \n    //Super easy auction redeeming\n    function WithdrawEasiest() public\n    {\n        WithdrawEz(msg.sender);\n    }\n\n\n    //Helper Function for efficent redeeming of auctions\n    function WithdrawEz(address _member) public {\n        uint startingday = ZmapMember_DayClaimedTo[_member];\n        uint startingera = ZmapMember_EraClaimedTo[_member];\n        if(startingday == 0)\n        {\n            startingday = 1;\n        }\n        if(startingera == 0)\n        {\n            startingera = 1;\n        }\n        uint maxDay=1;\n        for(uint y=startingera; y <= currentEra; y++){\n            if(y != currentEra){\n                maxDay = daysPerEra;\n             }else{\n               maxDay = currentDay - 1;\n             }\n          \n             uint[] memory dd = new uint[](maxDay-startingday+1); \n             for(uint x=startingday; x<= maxDay; x++)\n             {\n                  dd[x-startingday] = x ;\n             }\n             WithdrawlsDays(y, dd, _member);\n        }\n        \n        ZmapMember_DayClaimedTo[_member] = maxDay;\n        ZmapMember_DayClaimedTo[_member] = currentEra;\n        \n    }\n    \n    \n    function Check_Withdraw_Amt(address _member) public view returns(uint amt) {\n        uint startingday = ZmapMember_DayClaimedTo[_member];\n        uint startingera = ZmapMember_EraClaimedTo[_member];\n        if(startingday == 0)\n        {\n            startingday = 1;\n        }\n        if(startingera == 0)\n        {\n            startingera = 1;\n        }\n        uint maxDay=1;\n        uint totz = 0;\n        for(uint y=startingera; y <= currentEra; y++){\n            if(y != currentEra){\n                maxDay = daysPerEra;\n             }else{\n               maxDay = currentDay - 1;\n             }\n          \n             uint[] memory dd = new uint[](maxDay-startingday+1); \n             for(uint x=startingday; x<= maxDay; x++)\n             {\n                  dd[x-startingday] = x ;\n             }\n             totz = totz + Check_Withdrawls_Days(y, dd, _member);\n        }\n        return totz;\n    }\n    \n    //Withdraws All days in era for member\n    function Check_Withdrawls_Days(uint _era, uint[] memory fdays, address _member) public view returns (uint check)\n    {\n    \n        uint256 stricttotal = 0;\n        for(uint256 x = 0; x < fdays.length; x++)\n        {\n            if (_era < currentEra) {                                                                          // Allow if in previous Era\n                \n                uint memberUnits = mapEraDay_MemberUnits[_era][fdays[x]][_member];\n                if (memberUnits!= 0) {\n                    stricttotal = stricttotal + getEmissionShare(_era, fdays[x], _member);\n                }\n            } else if (_era == currentEra) {                                                                  // Handle if in current Era\n                if (fdays[x] < currentDay) {                                                                      // Allow only if in previous Day\n                    uint memberUnits = mapEraDay_MemberUnits[_era][fdays[x]][_member];\n                    if (memberUnits!= 0) {\n                        stricttotal = stricttotal + getEmissionShare(_era, fdays[x], _member);\n                    }\n                }\n            } \n        }\n    \n        return stricttotal*4;\n    }\n\n    \n    //Withdraws All days in era for member\n    function WithdrawlsDays(uint _era, uint[] memory fdays, address _member) public returns (bool success)\n    {\n    \n        uint256 stricttotal = 0;\n        for(uint256 x = 0; x < fdays.length; x++)\n        {\n            if (_era < currentEra) {                                                                          // Allow if in previous Era\n                stricttotal = stricttotal.add( _processWithdrawalRETURNSVAL (_era, fdays[x], _member) );      // Process Withdrawal\n            } else if (_era == currentEra) {                                                                  // Handle if in current Era\n                if (fdays[x] < currentDay) {                                                                      // Allow only if in previous Day\n                    stricttotal = stricttotal.add( _processWithdrawalRETURNSVAL (_era, fdays[x], _member) );  // Process Withdrawal\n                }\n            } \n        }\n        IERC20(AddressForgeToken).transfer(_member, stricttotal);\n        emit MegaWithdrawal(msg.sender, _member, _era, fdays.length, stricttotal);\n    \n        return true;\n    }\n\n\n    function _processWithdrawalRETURNSVAL (uint _era, uint256 _day, address _member) private returns (uint256 value) {\n        uint memberUnits = mapEraDay_MemberUnits[_era][_day][_member];                      // Get Member Units\n        if (memberUnits == 0) { \n            value = 0;                                                                      // Do nothing if 0 (prevents revert)\n        } else {\n            value = getEmissionShare(_era, _day, _member);                                  // Get the emission Share for Member\n            mapEraDay_MemberUnits[_era][_day][_member] = 0;                                 // Set to 0 since it will be withdrawn\n            mapEraDay_UnitsRemaining[_era][_day] = mapEraDay_UnitsRemaining[_era][_day].sub(memberUnits);  // Decrement Member Units\n            mapEraDay_EmissionRemaining[_era][_day] = mapEraDay_EmissionRemaining[_era][_day].sub(value);  // Decrement emission\n            totalEmitted += value*4;\n            //We emit all in one transfer.   \n        }\n        \n        return value*4;\n        \n    }\n    \n    \n    function _processWithdrawal (uint _era, uint _day, address _member) private returns (uint value) {\n        uint memberUnits = mapEraDay_MemberUnits[_era][_day][_member];                      // Get Member Units\n        if (memberUnits == 0) { \n            value = 0;                                                                      // Do nothing if 0 (prevents revert)\n        } else {\n            value = getEmissionShare(_era, _day, _member);                                  // Get the emission Share for Member\n            mapEraDay_MemberUnits[_era][_day][_member] = 0;                                 // Set to 0 since it will be withdrawn\n            mapEraDay_UnitsRemaining[_era][_day] = mapEraDay_UnitsRemaining[_era][_day].sub(memberUnits);  // Decrement Member Units\n            mapEraDay_EmissionRemaining[_era][_day] = mapEraDay_EmissionRemaining[_era][_day].sub(value);  // Decrement emission\n            totalEmitted += value*4;            \n            emit Withdrawal(msg.sender, _member, _era, _day, value*4, mapEraDay_EmissionRemaining[_era][_day]);\n            // ERC20 transfer function\n            IERC20(AddressForgeToken).transfer(_member, value*4); // 8,192 tokens a auction aka almost half the supply an era!\n        }\n        \n        return value*4;\n        \n    }\n    \n    \n    //======================================EMISSION========================================//\n    \n    function getEmissionShare(uint era, uint day, address member) public view returns (uint value) {\n    \n        uint memberUnits = mapEraDay_MemberUnits[era][day][member];                         // Get Member Units\n        if (memberUnits == 0) {\n            return 0;                                                                       // If 0, return 0\n        } else {\n            uint totalUnits = mapEraDay_UnitsRemaining[era][day];                           // Get Total Units\n            uint emissionRemaining = mapEraDay_EmissionRemaining[era][day];                 // Get emission remaining for Day\n            uint balance = IERC20(AddressForgeToken).balanceOf(address(this));                                      // Find remaining balance\n            if (emissionRemaining > balance) { emissionRemaining = balance; }               // In case less than required emission\n            value = (emissionRemaining * memberUnits) / totalUnits;                         // Calculate share\n            return  value;                            \n        }\n    }\n    \n    \n    \n    // Internal - Update emission function\n    function _updateEmission() private {\n        uint _now = block.timestamp;                                                                    // Find now()\n        if (_now > nextDayTime) {                                                          // If time passed the next Day time\n            if (currentDay >= daysPerEra) {                                                 // If time passed the next Era time\n                currentEra += 1; currentDay = 0;                                            // Increment Era, reset Day\n                emission = getNextEraEmission();                                            // Get correct emission\n                mapEra_Emission[currentEra] = emission;                                     // Map emission to Era\n                emit NewEra(currentEra, emission, totalBurnt); \n            }\n            changeAuctionAmt(); \n            currentDay += 1;                                                                // Increment Day\n            nextDayTime = _now + secondsPerDay;                                             // Set next Day time\n         \n            emission = getDayEmission();  \n            totalAuctioned = totalAuctioned + emission*4;\n            // Check daily Dmission\n            mapEraDay_EmissionRemaining[currentEra][currentDay] = emission;                 // Map emission to Day\n            uint _era = currentEra; uint _day = currentDay-1;\n            if(currentDay == 1){ _era = currentEra-1; _day = daysPerEra; }                  // Handle New Era\n            emit NewDay(currentEra, currentDay, nextDayTime, \n            mapEraDay_Units[_era][_day], mapEraDay_MemberCount[_era][_day]);\n            \n        }\n    }\n    \n    \n    // Calculate Era emission\n    function getNextEraEmission() public view returns (uint) {\n        if (emission > coin) {                                                              // Normal Emission Schedule\n            return emission / 2;                                                            // Emissions: 2048 -> 1.0\n        } else{                                                                             // Enters Fee Era\n            return coin;                                                                    // Return 1.0 from fees\n        }\n    }\n    \n    \n     function getSecondsPerDay() public view returns (uint256) {\n     \n        return secondsPerDay;                                                             // Return 1.0 from fees\n    }\n       \n       \n    // Calculate Day emission\n    function getDayEmission() public view returns (uint) {\n        uint balance = (totalEmitted + IERC20(AddressForgeToken).balanceOf(address(this))) - totalAuctioned;                                     // Find remaining balance\n        if (balance > emission*4) {                                                           // Balance is sufficient\n            return emission;                                                                // Return emission\n        } else {                                                                            // Balance has dropped low\n            return balance/4;                                                                 // Return full balance\n        }\n    }\n    \n    \n    function z_transferERC20TokenToMinerContract(address tokenAddress) public returns (bool success) {\n        require(tokenAddress != AddressZeroXBTC && tokenAddress != AddressForgeToken);\n        \n        return IERC20(tokenAddress).transfer(AddressForgeToken, IERC20(tokenAddress).balanceOf(address(this))); \n    }\n    \n    \n  //Do not allow ETH to enter\n  receive() external payable {\n    revert();\n  }\n\n\n  fallback() external payable {\n    revert();\n  }\n}\n\n/*\n*\n* MIT License\n* ===========\n*\n* Copyright (c) 2022 Forge\n*\n* Permission is hereby granted, free of charge, to any person obtaining a copy\n* of this software and associated documentation files (the \"Software\"), to deal\n* in the Software without restriction, including without limitation the rights\n* to use, copy, modify, merge, publish, distribute, sublicense, and/or sell\n* copies of the Software, and to permit persons to whom the Software is\n* furnished to do so, subject to the following conditions:\n*\n* The above copyright notice and this permission notice shall be included in all\n* copies or substantial portions of the Software.   \n*\n* THE SOFTWARE IS PROVIDED \"AS IS\", WITHOUT WARRANTY OF ANY KIND, EXPRESS OR\n* IMPLIED, INCLUDING BUT NOT LIMITED TO THE WARRANTIES OF MERCHANTABILITY,\n* FITNESS FOR A PARTICULAR PURPOSE AND NONINFRINGEMENT. IN NO EVENT SHALL THE\n* AUTHORS OR COPYRIGHT HOLDERS BE LIABLE FOR ANY CLAIM, DAMAGES OR OTHER\n* LIABILITY, WHETHER IN AN ACTION OF CONTRACT, TORT OR OTHERWISE, ARISING FROM,\n* OUT OF OR IN CONNECTION WITH THE SOFTWARE OR THE USE OR OTHER DEALINGS IN THE\n*/\n",
  "sourcePath": "contracts/auctions.sol",
  "type": "contract"
}