{
  "abi": [
    {
      "inputs": [],
      "stateMutability": "nonpayable",
      "type": "constructor"
    },
    {
      "anonymous": false,
      "inputs": [
        {
          "indexed": true,
          "internalType": "address",
          "name": "payer",
          "type": "address"
        },
        {
          "indexed": true,
          "internalType": "address",
          "name": "member",
          "type": "address"
        },
        {
          "indexed": false,
          "internalType": "uint256",
          "name": "era",
          "type": "uint256"
        },
        {
          "indexed": false,
          "internalType": "uint256",
          "name": "day",
          "type": "uint256"
        },
        {
          "indexed": false,
          "internalType": "uint256",
          "name": "units",
          "type": "uint256"
        },
        {
          "indexed": false,
          "internalType": "uint256",
          "name": "dailyTotal",
          "type": "uint256"
        }
      ],
      "name": "Burn",
      "type": "event"
    },
    {
      "anonymous": false,
      "inputs": [
        {
          "indexed": true,
          "internalType": "address",
          "name": "payer",
          "type": "address"
        },
        {
          "indexed": true,
          "internalType": "address",
          "name": "member",
          "type": "address"
        },
        {
          "indexed": false,
          "internalType": "uint256",
          "name": "era",
          "type": "uint256"
        },
        {
          "indexed": false,
          "internalType": "uint256",
          "name": "NumberOfDays",
          "type": "uint256"
        },
        {
          "indexed": false,
          "internalType": "uint256",
          "name": "totalUnits",
          "type": "uint256"
        }
      ],
      "name": "BurnMultipleDays",
      "type": "event"
    },
    {
      "anonymous": false,
      "inputs": [
        {
          "indexed": true,
          "internalType": "address",
          "name": "caller",
          "type": "address"
        },
        {
          "indexed": true,
          "internalType": "address",
          "name": "member",
          "type": "address"
        },
        {
          "indexed": false,
          "internalType": "uint256",
          "name": "era",
          "type": "uint256"
        },
        {
          "indexed": false,
          "internalType": "uint256",
          "name": "TotalDays",
          "type": "uint256"
        },
        {
          "indexed": false,
          "internalType": "uint256",
          "name": "stricttotal",
          "type": "uint256"
        }
      ],
      "name": "MegaWithdrawal",
      "type": "event"
    },
    {
      "anonymous": false,
      "inputs": [
        {
          "indexed": false,
          "internalType": "uint256",
          "name": "era",
          "type": "uint256"
        },
        {
          "indexed": false,
          "internalType": "uint256",
          "name": "day",
          "type": "uint256"
        },
        {
          "indexed": false,
          "internalType": "uint256",
          "name": "time",
          "type": "uint256"
        },
        {
          "indexed": false,
          "internalType": "uint256",
          "name": "previousDayTotal",
          "type": "uint256"
        },
        {
          "indexed": false,
          "internalType": "uint256",
          "name": "previousDayMembers",
          "type": "uint256"
        }
      ],
      "name": "NewDay",
      "type": "event"
    },
    {
      "anonymous": false,
      "inputs": [
        {
          "indexed": false,
          "internalType": "uint256",
          "name": "era",
          "type": "uint256"
        },
        {
          "indexed": false,
          "internalType": "uint256",
          "name": "emission",
          "type": "uint256"
        },
        {
          "indexed": false,
          "internalType": "uint256",
          "name": "totalBurnt",
          "type": "uint256"
        }
      ],
      "name": "NewEra",
      "type": "event"
    },
    {
      "anonymous": false,
      "inputs": [
        {
          "indexed": false,
          "internalType": "uint256",
          "name": "_prev",
          "type": "uint256"
        },
        {
          "indexed": false,
          "internalType": "uint256",
          "name": "_new",
          "type": "uint256"
        }
      ],
      "name": "SetExtraGas",
      "type": "event"
    },
    {
      "anonymous": false,
      "inputs": [
        {
          "indexed": false,
          "internalType": "address",
          "name": "_from",
          "type": "address"
        },
        {
          "indexed": false,
          "internalType": "address",
          "name": "_to",
          "type": "address"
        }
      ],
      "name": "TransferOwnership",
      "type": "event"
    },
    {
      "anonymous": false,
      "inputs": [
        {
          "indexed": true,
          "internalType": "address",
          "name": "caller",
          "type": "address"
        },
        {
          "indexed": true,
          "internalType": "address",
          "name": "member",
          "type": "address"
        },
        {
          "indexed": false,
          "internalType": "uint256",
          "name": "era",
          "type": "uint256"
        },
        {
          "indexed": false,
          "internalType": "uint256",
          "name": "day",
          "type": "uint256"
        },
        {
          "indexed": false,
          "internalType": "uint256",
          "name": "value",
          "type": "uint256"
        },
        {
          "indexed": false,
          "internalType": "uint256",
          "name": "vetherRemaining",
          "type": "uint256"
        }
      ],
      "name": "Withdrawal",
      "type": "event"
    },
    {
      "inputs": [],
      "name": "AddressForgeToken",
      "outputs": [
        {
          "internalType": "address",
          "name": "",
          "type": "address"
        }
      ],
      "stateMutability": "view",
      "type": "function"
    },
    {
      "inputs": [],
      "name": "AddressZeroXBTC",
      "outputs": [
        {
          "internalType": "address",
          "name": "",
          "type": "address"
        }
      ],
      "stateMutability": "view",
      "type": "function"
    },
    {
      "inputs": [
        {
          "internalType": "uint256",
          "name": "_era",
          "type": "uint256"
        },
        {
          "internalType": "uint256[]",
          "name": "fdays",
          "type": "uint256[]"
        },
        {
          "internalType": "address",
          "name": "_member",
          "type": "address"
        },
        {
          "internalType": "uint256[]",
          "name": "_0xbtcAmount",
          "type": "uint256[]"
        }
      ],
      "name": "FutureBurn0xBTCArrays",
      "outputs": [
        {
          "internalType": "bool",
          "name": "success",
          "type": "bool"
        }
      ],
      "stateMutability": "payable",
      "type": "function"
    },
    {
      "inputs": [
        {
          "internalType": "uint256",
          "name": "_era",
          "type": "uint256"
        },
        {
          "internalType": "uint256",
          "name": "startingday",
          "type": "uint256"
        },
        {
          "internalType": "uint256",
          "name": "totalNumberrOfDays",
          "type": "uint256"
        },
        {
          "internalType": "address",
          "name": "_member",
          "type": "address"
        },
        {
          "internalType": "uint256",
          "name": "_0xbtcAmountTotal",
          "type": "uint256"
        }
      ],
      "name": "FutureBurn0xBTCEasier",
      "outputs": [
        {
          "internalType": "bool",
          "name": "success",
          "type": "bool"
        }
      ],
      "stateMutability": "payable",
      "type": "function"
    },
    {
      "inputs": [
        {
          "internalType": "address",
          "name": "member",
          "type": "address"
        },
        {
          "internalType": "uint256",
          "name": "_0xbtcAmountTotal",
          "type": "uint256"
        }
      ],
      "name": "WholeEraBurn0xBTCForMember",
      "outputs": [
        {
          "internalType": "bool",
          "name": "success",
          "type": "bool"
        }
      ],
      "stateMutability": "payable",
      "type": "function"
    },
    {
      "inputs": [],
      "name": "WithdrawEasiest",
      "outputs": [],
      "stateMutability": "nonpayable",
      "type": "function"
    },
    {
      "inputs": [
        {
          "internalType": "address",
          "name": "_member",
          "type": "address"
        }
      ],
      "name": "WithdrawEz",
      "outputs": [],
      "stateMutability": "nonpayable",
      "type": "function"
    },
    {
      "inputs": [
        {
          "internalType": "uint256",
          "name": "_era",
          "type": "uint256"
        },
        {
          "internalType": "uint256[]",
          "name": "fdays",
          "type": "uint256[]"
        },
        {
          "internalType": "address",
          "name": "_member",
          "type": "address"
        }
      ],
      "name": "WithdrawlsDays",
      "outputs": [
        {
          "internalType": "bool",
          "name": "success",
          "type": "bool"
        }
      ],
      "stateMutability": "nonpayable",
      "type": "function"
    },
    {
      "inputs": [
        {
          "internalType": "address",
          "name": "",
          "type": "address"
        }
      ],
      "name": "ZmapMember_DayClaimedTo",
      "outputs": [
        {
          "internalType": "uint256",
          "name": "",
          "type": "uint256"
        }
      ],
      "stateMutability": "view",
      "type": "function"
    },
    {
      "inputs": [
        {
          "internalType": "address",
          "name": "",
          "type": "address"
        }
      ],
      "name": "ZmapMember_EraClaimedTo",
      "outputs": [
        {
          "internalType": "uint256",
          "name": "",
          "type": "uint256"
        }
      ],
      "stateMutability": "view",
      "type": "function"
    },
    {
      "inputs": [],
      "name": "blocktime",
      "outputs": [
        {
          "internalType": "uint256",
          "name": "",
          "type": "uint256"
        }
      ],
      "stateMutability": "view",
      "type": "function"
    },
    {
      "inputs": [
        {
          "internalType": "address",
          "name": "member",
          "type": "address"
        },
        {
          "internalType": "uint256",
          "name": "_0xbtcAmount",
          "type": "uint256"
        }
      ],
      "name": "burn0xBTCForMember",
      "outputs": [],
      "stateMutability": "payable",
      "type": "function"
    },
    {
      "inputs": [],
      "name": "currentDay",
      "outputs": [
        {
          "internalType": "uint256",
          "name": "",
          "type": "uint256"
        }
      ],
      "stateMutability": "view",
      "type": "function"
    },
    {
      "inputs": [],
      "name": "currentEra",
      "outputs": [
        {
          "internalType": "uint256",
          "name": "",
          "type": "uint256"
        }
      ],
      "stateMutability": "view",
      "type": "function"
    },
    {
      "inputs": [],
      "name": "daysPerEra",
      "outputs": [
        {
          "internalType": "uint256",
          "name": "",
          "type": "uint256"
        }
      ],
      "stateMutability": "view",
      "type": "function"
    },
    {
      "inputs": [],
      "name": "decimals",
      "outputs": [
        {
          "internalType": "uint256",
          "name": "",
          "type": "uint256"
        }
      ],
      "stateMutability": "view",
      "type": "function"
    },
    {
      "inputs": [],
      "name": "emission",
      "outputs": [
        {
          "internalType": "uint256",
          "name": "",
          "type": "uint256"
        }
      ],
      "stateMutability": "view",
      "type": "function"
    },
    {
      "inputs": [],
      "name": "extraGas",
      "outputs": [
        {
          "internalType": "uint256",
          "name": "",
          "type": "uint256"
        }
      ],
      "stateMutability": "view",
      "type": "function"
    },
    {
      "inputs": [],
      "name": "getDayEmission",
      "outputs": [
        {
          "internalType": "uint256",
          "name": "",
          "type": "uint256"
        }
      ],
      "stateMutability": "view",
      "type": "function"
    },
    {
      "inputs": [
        {
          "internalType": "address",
          "name": "member",
          "type": "address"
        },
        {
          "internalType": "uint256",
          "name": "era",
          "type": "uint256"
        }
      ],
      "name": "getDaysContributedForEra",
      "outputs": [
        {
          "internalType": "uint256",
          "name": "",
          "type": "uint256"
        }
      ],
      "stateMutability": "view",
      "type": "function"
    },
    {
      "inputs": [
        {
          "internalType": "uint256",
          "name": "era",
          "type": "uint256"
        },
        {
          "internalType": "uint256",
          "name": "day",
          "type": "uint256"
        },
        {
          "internalType": "address",
          "name": "member",
          "type": "address"
        }
      ],
      "name": "getEmissionShare",
      "outputs": [
        {
          "internalType": "uint256",
          "name": "value",
          "type": "uint256"
        }
      ],
      "stateMutability": "view",
      "type": "function"
    },
    {
      "inputs": [],
      "name": "getNextEraEmission",
      "outputs": [
        {
          "internalType": "uint256",
          "name": "",
          "type": "uint256"
        }
      ],
      "stateMutability": "view",
      "type": "function"
    },
    {
      "inputs": [],
      "name": "lastMinted",
      "outputs": [
        {
          "internalType": "uint256",
          "name": "",
          "type": "uint256"
        }
      ],
      "stateMutability": "view",
      "type": "function"
    },
    {
      "inputs": [],
      "name": "lastepoch",
      "outputs": [
        {
          "internalType": "uint256",
          "name": "",
          "type": "uint256"
        }
      ],
      "stateMutability": "view",
      "type": "function"
    },
    {
      "inputs": [
        {
          "internalType": "uint256",
          "name": "",
          "type": "uint256"
        },
        {
          "internalType": "uint256",
          "name": "",
          "type": "uint256"
        }
      ],
      "name": "mapEraDay_EmissionRemaining",
      "outputs": [
        {
          "internalType": "uint256",
          "name": "",
          "type": "uint256"
        }
      ],
      "stateMutability": "view",
      "type": "function"
    },
    {
      "inputs": [
        {
          "internalType": "uint256",
          "name": "",
          "type": "uint256"
        },
        {
          "internalType": "uint256",
          "name": "",
          "type": "uint256"
        }
      ],
      "name": "mapEraDay_MemberCount",
      "outputs": [
        {
          "internalType": "uint256",
          "name": "",
          "type": "uint256"
        }
      ],
      "stateMutability": "view",
      "type": "function"
    },
    {
      "inputs": [
        {
          "internalType": "uint256",
          "name": "",
          "type": "uint256"
        },
        {
          "internalType": "uint256",
          "name": "",
          "type": "uint256"
        },
        {
          "internalType": "address",
          "name": "",
          "type": "address"
        }
      ],
      "name": "mapEraDay_MemberUnits",
      "outputs": [
        {
          "internalType": "uint256",
          "name": "",
          "type": "uint256"
        }
      ],
      "stateMutability": "view",
      "type": "function"
    },
    {
      "inputs": [
        {
          "internalType": "uint256",
          "name": "",
          "type": "uint256"
        },
        {
          "internalType": "uint256",
          "name": "",
          "type": "uint256"
        },
        {
          "internalType": "uint256",
          "name": "",
          "type": "uint256"
        }
      ],
      "name": "mapEraDay_Members",
      "outputs": [
        {
          "internalType": "address",
          "name": "",
          "type": "address"
        }
      ],
      "stateMutability": "view",
      "type": "function"
    },
    {
      "inputs": [
        {
          "internalType": "uint256",
          "name": "",
          "type": "uint256"
        },
        {
          "internalType": "uint256",
          "name": "",
          "type": "uint256"
        }
      ],
      "name": "mapEraDay_Units",
      "outputs": [
        {
          "internalType": "uint256",
          "name": "",
          "type": "uint256"
        }
      ],
      "stateMutability": "view",
      "type": "function"
    },
    {
      "inputs": [
        {
          "internalType": "uint256",
          "name": "",
          "type": "uint256"
        },
        {
          "internalType": "uint256",
          "name": "",
          "type": "uint256"
        }
      ],
      "name": "mapEraDay_UnitsRemaining",
      "outputs": [
        {
          "internalType": "uint256",
          "name": "",
          "type": "uint256"
        }
      ],
      "stateMutability": "view",
      "type": "function"
    },
    {
      "inputs": [
        {
          "internalType": "uint256",
          "name": "",
          "type": "uint256"
        }
      ],
      "name": "mapEra_Emission",
      "outputs": [
        {
          "internalType": "uint256",
          "name": "",
          "type": "uint256"
        }
      ],
      "stateMutability": "view",
      "type": "function"
    },
    {
      "inputs": [
        {
          "internalType": "address",
          "name": "",
          "type": "address"
        },
        {
          "internalType": "uint256",
          "name": "",
          "type": "uint256"
        },
        {
          "internalType": "uint256",
          "name": "",
          "type": "uint256"
        }
      ],
      "name": "mapMemberEra_Days",
      "outputs": [
        {
          "internalType": "uint256",
          "name": "",
          "type": "uint256"
        }
      ],
      "stateMutability": "view",
      "type": "function"
    },
    {
      "inputs": [],
      "name": "name",
      "outputs": [
        {
          "internalType": "string",
          "name": "",
          "type": "string"
        }
      ],
      "stateMutability": "view",
      "type": "function"
    },
    {
      "inputs": [],
      "name": "nextDayTime",
      "outputs": [
        {
          "internalType": "uint256",
          "name": "",
          "type": "uint256"
        }
      ],
      "stateMutability": "view",
      "type": "function"
    },
    {
      "inputs": [],
      "name": "owner22",
      "outputs": [
        {
          "internalType": "address",
          "name": "",
          "type": "address"
        }
      ],
      "stateMutability": "view",
      "type": "function"
    },
    {
      "inputs": [],
      "name": "secondsPerDay",
      "outputs": [
        {
          "internalType": "uint256",
          "name": "",
          "type": "uint256"
        }
      ],
      "stateMutability": "view",
      "type": "function"
    },
    {
      "inputs": [],
      "name": "totalBurnt",
      "outputs": [
        {
          "internalType": "uint256",
          "name": "",
          "type": "uint256"
        }
      ],
      "stateMutability": "view",
      "type": "function"
    },
    {
      "inputs": [],
      "name": "totalEmitted",
      "outputs": [
        {
          "internalType": "uint256",
          "name": "",
          "type": "uint256"
        }
      ],
      "stateMutability": "view",
      "type": "function"
    },
    {
      "inputs": [
        {
          "internalType": "uint256",
          "name": "era",
          "type": "uint256"
        },
        {
          "internalType": "uint256",
          "name": "day",
          "type": "uint256"
        }
      ],
      "name": "withdrawShare",
      "outputs": [
        {
          "internalType": "uint256",
          "name": "value",
          "type": "uint256"
        }
      ],
      "stateMutability": "nonpayable",
      "type": "function"
    },
    {
      "inputs": [
        {
          "internalType": "uint256",
          "name": "era",
          "type": "uint256"
        },
        {
          "internalType": "uint256",
          "name": "day",
          "type": "uint256"
        },
        {
          "internalType": "address",
          "name": "member",
          "type": "address"
        }
      ],
      "name": "withdrawShareForMember",
      "outputs": [
        {
          "internalType": "uint256",
          "name": "value",
          "type": "uint256"
        }
      ],
      "stateMutability": "nonpayable",
      "type": "function"
    },
    {
      "inputs": [
        {
          "internalType": "address",
          "name": "token",
          "type": "address"
        },
        {
          "internalType": "address",
          "name": "_ZeroXBTCAddress",
          "type": "address"
        }
      ],
      "name": "zSetUP1",
      "outputs": [],
      "stateMutability": "nonpayable",
      "type": "function"
    },
    {
      "inputs": [
        {
          "internalType": "uint256",
          "name": "newMaxDay",
          "type": "uint256"
        },
        {
          "internalType": "uint256",
          "name": "newMaxEra",
          "type": "uint256"
        }
      ],
      "name": "z_ChangeMaxWithdrawl",
      "outputs": [
        {
          "internalType": "bool",
          "name": "success",
          "type": "bool"
        }
      ],
      "stateMutability": "nonpayable",
      "type": "function"
    },
    {
      "inputs": [
        {
          "internalType": "address",
          "name": "tokenAddress",
          "type": "address"
        },
        {
          "internalType": "uint256",
          "name": "tokens",
          "type": "uint256"
        }
      ],
      "name": "z_transferERC20TokenToMinerContract",
      "outputs": [
        {
          "internalType": "bool",
          "name": "success",
          "type": "bool"
        }
      ],
      "stateMutability": "nonpayable",
      "type": "function"
    }
  ],
  "bytecode": "60806040526005805460ff19169055670de0b6b3a76400006006556305f5e1006007556000602081905560218190556022556108706023553480156200004457600080fd5b50600180546001600160a01b03191633908117909155604080516000815260208101929092527f5c486528ec3e3f0ea91181cff8116f02bfa350e03b8b6f12e00765adbb5af85c910160405180910390a16040805180820190915260108082526f105d58dd1a5bdb8810dbdb9d1c9858dd60821b6020909201918252620000ce916008916200015e565b5060126009819055620000e390600a62000319565b600c819055620000f6906108006200032e565b600d556001600e819055600f55610258601055600560118190556000601381905560145562000126904262000350565b601255600d54600e8054600090815260156020908152604080832085905592548252601a8152828220600f54835290522055620003a8565b8280546200016c906200036b565b90600052602060002090601f016020900481019282620001905760008555620001db565b82601f10620001ab57805160ff1916838001178555620001db565b82800160010185558215620001db579182015b82811115620001db578251825591602001919060010190620001be565b50620001e9929150620001ed565b5090565b5b80821115620001e95760008155600101620001ee565b634e487b7160e01b600052601160045260246000fd5b600181815b808511156200025b5781600019048211156200023f576200023f62000204565b808516156200024d57918102915b93841c93908002906200021f565b509250929050565b600082620002745750600162000313565b81620002835750600062000313565b81600181146200029c5760028114620002a757620002c7565b600191505062000313565b60ff841115620002bb57620002bb62000204565b50506001821b62000313565b5060208310610133831016604e8410600b8410161715620002ec575081810a62000313565b620002f883836200021a565b80600019048211156200030f576200030f62000204565b0290505b92915050565b600062000327838362000263565b9392505050565b60008160001904831182151516156200034b576200034b62000204565b500290565b6000821982111562000366576200036662000204565b500190565b600181811c908216806200038057607f821691505b60208210811415620003a257634e487b7160e01b600052602260045260246000fd5b50919050565b61265c80620003b86000396000f3fe60806040526004361061025c5760003560e01c806389b86db511610144578063bdf75661116100b6578063dc3222a61161007a578063dc3222a614610750578063df0244b114610793578063e82481cf146107a9578063ee1f84c3146107be578063f1261e92146107de578063fee05d62146107fe57600080fd5b8063bdf7566114610696578063c31842e1146106b6578063c8b9ee6f146106d6578063cb65ee92146106eb578063dac679ec1461071857600080fd5b806396ef58111161010857806396ef5811146105e9578063973628f614610609578063a0dab2411461061f578063a5a1ba2114610632578063a9b12c4c1461066a578063bbc19ab01461068057600080fd5b806389b86db5146105275780638aab30d31461053c578063960bc0f11461057b5780639618f7a81461059b578063966ff650146105d357600080fd5b8063510de094116101dd5780636e7ca69c116101a15780636e7ca69c1461045d5780637400457f1461047357806377217a891461048657806380bee575146104c4578063827c049e146104e45780638454ed27146104fa57600080fd5b8063510de094146103c45780635c9302c9146103e457806360b29259146103fa57806363809953146104325780636de63e261461044857600080fd5b8063313ce56711610224578063313ce567146103355780633767e3391461034b5780633ac1c863146103615780633db9a7ec1461037757806349e8a6ad1461039757600080fd5b806306fdde0314610261578063090eb6161461028c5780630e21f7b4146102af57806323ba5324146102e75780632a423be814610307575b600080fd5b34801561026d57600080fd5b50610276610814565b604051610283919061207c565b60405180910390f35b61029f61029a366004612199565b6108a2565b6040519015158152602001610283565b3480156102bb57600080fd5b506102cf6102ca366004612217565b610c33565b6040516001600160a01b039091168152602001610283565b3480156102f357600080fd5b506001546102cf906001600160a01b031681565b34801561031357600080fd5b50610327610322366004612243565b610c78565b604051908152602001610283565b34801561034157600080fd5b5061032760095481565b34801561035757600080fd5b5061032760045481565b34801561036d57600080fd5b5061032760105481565b34801561038357600080fd5b50610327610392366004612265565b610cba565b3480156103a357600080fd5b506103276103b2366004612298565b601d6020526000908152604090205481565b3480156103d057600080fd5b506002546102cf906001600160a01b031681565b3480156103f057600080fd5b50610327600f5481565b34801561040657600080fd5b50610327610415366004612243565b601860209081526000928352604080842090915290825290205481565b34801561043e57600080fd5b5061032760115481565b61045b6104563660046122b3565b610cf8565b005b34801561046957600080fd5b5061032760215481565b61029f6104813660046122b3565b610e49565b34801561049257600080fd5b506103276104a13660046122dd565b601b60209081526000938452604080852082529284528284209052825290205481565b3480156104d057600080fd5b5061029f6104df3660046122b3565b610e83565b3480156104f057600080fd5b50610327600d5481565b34801561050657600080fd5b50610327610515366004612312565b60156020526000908152604090205481565b34801561053357600080fd5b50610327610fa4565b34801561054857600080fd5b5061029f610557366004612243565b336000908152601e6020908152604080832094909455601d90529190912055600190565b34801561058757600080fd5b5061029f61059636600461232b565b610fcd565b3480156105a757600080fd5b506103276105b6366004612243565b601660209081526000928352604080842090915290825290205481565b3480156105df57600080fd5b5061032760135481565b3480156105f557600080fd5b5061045b610604366004612379565b6110f3565b34801561061557600080fd5b50610327600e5481565b61029f61062d3660046123ac565b6111ec565b34801561063e57600080fd5b5061032761064d366004612243565b601a60209081526000928352604080842090915290825290205481565b34801561067657600080fd5b5061032760235481565b34801561068c57600080fd5b5061032760225481565b3480156106a257600080fd5b506103276106b13660046122dd565b611312565b3480156106c257600080fd5b506103276106d13660046122dd565b611417565b3480156106e257600080fd5b5061045b611463565b3480156106f757600080fd5b50610327610706366004612298565b601e6020526000908152604090205481565b34801561072457600080fd5b50610327610733366004612243565b601960209081526000928352604080842090915290825290205481565b34801561075c57600080fd5b5061032761076b3660046122b3565b6001600160a01b03919091166000908152601c60209081526040808320938352929052205490565b34801561079f57600080fd5b5061032760145481565b3480156107b557600080fd5b5061032761146e565b3480156107ca57600080fd5b5061045b6107d9366004612298565b6114f8565b3480156107ea57600080fd5b506003546102cf906001600160a01b031681565b34801561080a57600080fd5b5061032760125481565b60088054610821906123f3565b80601f016020809104026020016040519081016040528092919081815260200182805461084d906123f3565b801561089a5780601f1061086f5761010080835404028352916020019161089a565b820191906000526020600020905b81548152906001019060200180831161087d57829003601f168201915b505050505081565b601054600f54600e5460009283929091808910156109135760405162461bcd60e51b815260206004820152602360248201527f6e6f206b6e75636b6c6568656164206f6e6c7920626964206f6e20746869732060448201526265726160e81b60648201526084015b60405180910390fd5b60005b8851811015610a5c5760008782815181106109335761093361242e565b60200260200101519050828b14156109ae57838a83815181106109585761095861242e565b602002602001015110156109ae5760405162461bcd60e51b815260206004820152601c60248201527f4d757374206e6f742062696420626568696e6420746865206461797300000000604482015260640161090a565b848a83815181106109c1576109c161242e565b60200260200101511115610a175760405162461bcd60e51b815260206004820152601b60248201527f43616e7420626964206f6e2064617973206e6f7420696e206572610000000000604482015260640161090a565b610a21868261164a565b9550610a49338a8d8d8681518110610a3b57610a3b61242e565b602002602001015185611698565b5080610a548161245a565b915050610916565b50610a68896002612559565b610a73906032612565565b600754610a809190612584565b8851610a8c9086612584565b11610af45760405162461bcd60e51b815260206004820152603260248201527f302e3032203078426974636f696e20706572204461792072657175697265642c60448201527120726564756365732065766572792065726160701b606482015260840161090a565b6002546003546040516323b872dd60e01b81523360048201526001600160a01b039182166024820152604481018790529116906323b872dd906064016020604051808303816000875af1158015610b4f573d6000803e3d6000fd5b505050506040513d601f19601f82011682018060405250810190610b7391906125a6565b610bd45760405162461bcd60e51b815260206004820152602c60248201527f4e4f204f54484552205741592c2073656e64206974207468652072657175697260448201526b32b210183c2134ba31b7b4b760a11b606482015260840161090a565b8751604080518b8152602081019290925281018590526001600160a01b0388169033907fb4e1fdf06308d5caa2de01f8db08d933fcf160bcda97c1576b56a0c00e893f319060600160405180910390a350600198975050505050505050565b60176020528260005260406000206020528160005260406000208181548110610c5b57600080fd5b6000918252602090912001546001600160a01b0316925083915050565b6000828152601b60209081526040808320848452825280832033845290915281205480610ca757610ca76125c8565b610cb2848433611829565b949350505050565b601c6020528260005260406000206020528160005260406000208181548110610ce257600080fd5b9060005260206000200160009250925050505481565b6002546003546040516323b872dd60e01b81523360048201526001600160a01b039182166024820152604481018490529116906323b872dd906064016020604051808303816000875af1158015610d53573d6000803e3d6000fd5b505050506040513d601f19601f82011682018060405250810190610d7791906125a6565b610dc35760405162461bcd60e51b815260206004820152601b60248201527f4e4f205741592c2072657175697265732030784254432073656e640000000000604482015260640161090a565b610dd43383600e54600f5485611698565b600e54600f54600082815260186020908152604080832084845282529182902054825194855290840192909252820183905260608201526001600160a01b0383169033907f661f25a08ee5c15fc997f7288c9cd798e1905052f21d761925800799791f130b9060800160405180910390a35050565b6000806001600f54601054610e5e91906125de565b610e6891906125de565b9050610e7b600e54600f548387876111ec565b505092915050565b60006001600160a01b0383163014801590610eac57506003546001600160a01b03848116911614155b610eb557600080fd5b6003546040516370a0823160e01b81523060048201526001600160a01b038581169263a9059cbb9291169083906370a0823190602401602060405180830381865afa158015610f08573d6000803e3d6000fd5b505050506040513d601f19601f82011682018060405250810190610f2c91906125f5565b6040516001600160e01b031960e085901b1681526001600160a01b03909216600483015260248201526044016020604051808303816000875af1158015610f77573d6000803e3d6000fd5b505050506040513d601f19601f82011682018060405250810190610f9b91906125a6565b90505b92915050565b6000600c54600d541115610fc6576002600d54610fc19190612584565b905090565b50600c5490565b600080805b845181101561101d5761100961100287878481518110610ff457610ff461242e565b60200260200101518761186e565b839061164a565b9150806110158161245a565b915050610fd2565b5060035460405163a9059cbb60e01b81526001600160a01b038581166004830152602482018490529091169063a9059cbb906044016020604051808303816000875af1158015611071573d6000803e3d6000fd5b505050506040513d601f19601f8201168201806040525081019061109591906125a6565b50835160408051878152602081019290925281018290526001600160a01b0384169033907fc6fadbab41d2daf77182ff3236e4abbb3c021507103dc894b421b1d68f88acea9060600160405180910390a360019150505b9392505050565b6001546001600160a01b0316331461113a5760405162461bcd60e51b815260206004820152600a60248201526937b7363c9037bbb732b960b11b604482015260640161090a565b600380546001600160a01b038085166001600160a01b031992831681179093556001805483169055600060225560028054918516918316919091179055601f805490911682179055604080516306055f5f60e51b8152905163c0abebe0916004808201926020929091908290030181865afa1580156111bd573d6000803e3d6000fd5b505050506040513d601f19601f820116820180604052508101906111e191906125f5565b602255505042602055565b6000808467ffffffffffffffff811115611208576112086120d1565b604051908082528060200260200182016040528015611231578160200160208202803683370190505b50905060008567ffffffffffffffff81111561124f5761124f6120d1565b604051908082528060200260200182016040528015611278578160200160208202803683370190505b5090506000875b611289888a61260e565b8110156112f557808483815181106112a3576112a361242e565b60209081029190910101526112b88887612584565b8383815181106112ca576112ca61242e565b6020908102919091010152816112df8161245a565b92505080806112ed9061245a565b91505061127f565b50611302898488856108a2565b5060019998505050505050505050565b6000838152601b6020908152604080832085845282528083206001600160a01b03851684529091528120548061134c5760009150506110ec565b6000858152601960209081526040808320878452825280832054888452601a83528184208885529092528083205460035491516370a0823160e01b81523060048201529293909290916001600160a01b0316906370a0823190602401602060405180830381865afa1580156113c5573d6000803e3d6000fd5b505050506040513d601f19601f820116820180604052508101906113e991906125f5565b9050808211156113f7578091505b826114028584612565565b61140c9190612584565b9450505050506110ec565b6000838152601b6020908152604080832085845282528083206001600160a01b03851684529091528120548061144f5761144f6125c8565b61145a858585611829565b95945050505050565b61146c336114f8565b565b6003546040516370a0823160e01b815230600482015260009182916001600160a01b03909116906370a0823190602401602060405180830381865afa1580156114bb573d6000803e3d6000fd5b505050506040513d601f19601f820116820180604052508101906114df91906125f5565b9050600d548111156114f3575050600d5490565b919050565b6001600160a01b0381166000908152601e6020908152604080832054601d909252909120548161152757600191505b80611530575060015b6001815b600e54811161162057600e548114611550576010549150611562565b6001600f5461155f91906125de565b91505b600061156e85846125de565b61157990600161260e565b67ffffffffffffffff811115611591576115916120d1565b6040519080825280602002602001820160405280156115ba578160200160208202803683370190505b509050845b8381116115ff5780826115d288836125de565b815181106115e2576115e261242e565b6020908102919091010152806115f78161245a565b9150506115bf565b5061160b828288610fcd565b505080806116189061245a565b915050611534565b5050600f546001600160a01b039093166000908152601e602052604090209283555050600e549055565b600080611657838561260e565b905083811015610f9b5760405162461bcd60e51b815260206004820152600c60248201526b416464206f766572666c6f7760a01b604482015260640161090a565b6000838152601b6020908152604080832085845282528083206001600160a01b0388168452909152902054611765576001600160a01b0384166000908152601c6020908152604080832086845282528083208054600181810183559185528385200186905586845260168352818420868552909252822080549192909161172090849061260e565b9091555050600083815260176020908152604080832085845282528220805460018101825590835291200180546001600160a01b0319166001600160a01b0386161790555b6000838152601b6020908152604080832085845282528083206001600160a01b03881684529091528120805483929061179f90849061260e565b90915550506000838152601960209081526040808320858452909152812080548392906117cd90849061260e565b90915550506000838152601860209081526040808320858452909152812080548392906117fb90849061260e565b925050819055508060136000828254611814919061260e565b90915550611822905061197e565b5050505050565b600061183361197e565b600e5484101561184f57611848848484611b32565b90506110ec565b600e548414156110ec57600f548310156110ec57610cb2848484611b32565b6000838152601b6020908152604080832085845282528083206001600160a01b0385168452909152812054806118a75760009150611973565b6118b2858585611312565b6000868152601b6020908152604080832088845282528083206001600160a01b03881684528252808320839055888352601982528083208884529091529020549092506118ff9082611d41565b6000868152601960209081526040808320888452825280832093909355878252601a8152828220878352905220546119379083611d41565b6000868152601a6020908152604080832088845290915290205561195c826004612565565b6014600082825461196d919061260e565b90915550505b61145a826004612565565b60125442908110611b2f57601054600f5410611a19576001600e60008282546119a7919061260e565b90915550506000600f556119b9610fa4565b600d819055600e805460009081526015602090815260409182902084905591546013548251918252928101939093528201527f9d472bcf372fce01fd875c3296e8e5ae0a08bfca42dedac19e202271ce8f39c59060600160405180910390a15b611a21611d8d565b6001600f6000828254611a34919061260e565b9091555050601154611a46908261260e565b601255611a5161146e565b600d819055600e80546000908152601a60209081526040808320600f80548552925282209390935590549154611a89906001906125de565b9050600f5460011415611aad576001600e54611aa591906125de565b915060105490505b600e54600f54601254600085815260186020908152604080832087845282528083205488845260168352818420888552835292819020548151968752918601949094528484019290925260608401526080830152517ff0047f88d9bce548f6a3b5f02aae9964bcb69afb1848b6acaab809a2b0629aaf9181900360a00190a150505b50565b6000838152601b6020908152604080832085845282528083206001600160a01b038516845290915281205480611b6b5760009150611973565b611b76858585611312565b6000868152601b6020908152604080832088845282528083206001600160a01b0388168452825280832083905588835260198252808320888452909152902054909250611bc39082611d41565b6000868152601960209081526040808320888452825280832093909355878252601a815282822087835290522054611bfb9083611d41565b6000868152601a60209081526040808320888452909152902055611c20826004612565565b60146000828254611c31919061260e565b90915550506001600160a01b038316337f7f3fa649aa08dbaff5b36b865f9585ae5b83bcb35185c846035019b63967b6e98787611c6f876004612565565b60008b8152601a602090815260408083208d845282529182902054825195865290850193909352830152606082015260800160405180910390a36003546001600160a01b031663a9059cbb84611cc6856004612565565b6040516001600160e01b031960e085901b1681526001600160a01b03909216600483015260248201526044016020604051808303816000875af1158015611d11573d6000803e3d6000fd5b505050506040513d601f19601f82011682018060405250810190611d3591906125a6565b5061145a826004612565565b600081831015611d835760405162461bcd60e51b815260206004820152600d60248201526c53756220756e646572666c6f7760981b604482015260640161090a565b610f9b82846125de565b601f54604080516306055f5f60e51b815290516000926001600160a01b03169163c0abebe09160048083019260209291908290030181865afa158015611dd7573d6000803e3d6000fd5b505050506040513d601f19601f82011682018060405250810190611dfb91906125f5565b9050600060225482611e0d91906125de565b90506000601f60009054906101000a90046001600160a01b03166001600160a01b031663490203a76040518163ffffffff1660e01b8152600401602060405180830381865afa158015611e64573d6000803e3d6000fd5b505050506040513d601f19601f82011682018060405250810190611e8891906125f5565b611e929083612584565b90508015611f86576108706000611ea98284612565565b9050601154811015611f26576000611ed782611ed16064601154611fb890919063ffffffff16565b9061201d565b90506000611ef26103e8611eec846064611d41565b90612064565b9050611f1b611f126107d0611ed184601154611fb890919063ffffffff16565b6011549061164a565b60115550611f7f9050565b601154600090611f3b90611ed1846064611fb8565b90506000611f506103e8611eec846064611d41565b9050611f79611f706107d0611ed184601154611fb890919063ffffffff16565b60115490611d41565b60115550505b5050611f98565b601154611f94906002612565565b6011555b621baf806011541115611fad5762093a806011555b505060225542602055565b600082611fc757506000610f9e565b6000611fd38385612565565b905082611fe08583612584565b14610f9b5760405162461bcd60e51b815260206004820152600d60248201526c4d756c74206f766572666c6f7760981b604482015260640161090a565b60008161205a5760405162461bcd60e51b815260206004820152600b60248201526a446976206279207a65726f60a81b604482015260640161090a565b610f9b8284612584565b600081831115612075575080610f9e565b5090919050565b600060208083528351808285015260005b818110156120a95785810183015185820160400152820161208d565b818111156120bb576000604083870101525b50601f01601f1916929092016040019392505050565b634e487b7160e01b600052604160045260246000fd5b600082601f8301126120f857600080fd5b8135602067ffffffffffffffff80831115612115576121156120d1565b8260051b604051601f19603f8301168101818110848211171561213a5761213a6120d1565b60405293845285810183019383810192508785111561215857600080fd5b83870191505b848210156121775781358352918301919083019061215e565b979650505050505050565b80356001600160a01b03811681146114f357600080fd5b600080600080608085870312156121af57600080fd5b84359350602085013567ffffffffffffffff808211156121ce57600080fd5b6121da888389016120e7565b94506121e860408801612182565b935060608701359150808211156121fe57600080fd5b5061220b878288016120e7565b91505092959194509250565b60008060006060848603121561222c57600080fd5b505081359360208301359350604090920135919050565b6000806040838503121561225657600080fd5b50508035926020909101359150565b60008060006060848603121561227a57600080fd5b61228384612182565b95602085013595506040909401359392505050565b6000602082840312156122aa57600080fd5b610f9b82612182565b600080604083850312156122c657600080fd5b6122cf83612182565b946020939093013593505050565b6000806000606084860312156122f257600080fd5b833592506020840135915061230960408501612182565b90509250925092565b60006020828403121561232457600080fd5b5035919050565b60008060006060848603121561234057600080fd5b83359250602084013567ffffffffffffffff81111561235e57600080fd5b61236a868287016120e7565b92505061230960408501612182565b6000806040838503121561238c57600080fd5b61239583612182565b91506123a360208401612182565b90509250929050565b600080600080600060a086880312156123c457600080fd5b8535945060208601359350604086013592506123e260608701612182565b949793965091946080013592915050565b600181811c9082168061240757607f821691505b6020821081141561242857634e487b7160e01b600052602260045260246000fd5b50919050565b634e487b7160e01b600052603260045260246000fd5b634e487b7160e01b600052601160045260246000fd5b600060001982141561246e5761246e612444565b5060010190565b600181815b808511156124b057816000190482111561249657612496612444565b808516156124a357918102915b93841c939080029061247a565b509250929050565b6000826124c757506001610f9e565b816124d457506000610f9e565b81600181146124ea57600281146124f457612510565b6001915050610f9e565b60ff84111561250557612505612444565b50506001821b610f9e565b5060208310610133831016604e8410600b8410161715612533575081810a610f9e565b61253d8383612475565b806000190482111561255157612551612444565b029392505050565b6000610f9b83836124b8565b600081600019048311821515161561257f5761257f612444565b500290565b6000826125a157634e487b7160e01b600052601260045260246000fd5b500490565b6000602082840312156125b857600080fd5b81518015158114610f9b57600080fd5b634e487b7160e01b600052600160045260246000fd5b6000828210156125f0576125f0612444565b500390565b60006020828403121561260757600080fd5b5051919050565b6000821982111561262157612621612444565b50019056fea2646970667358221220a94dca98cd045aeebb809a46f1e88b0b507665aef8d66fcb0deea807ed12296864736f6c634300080b0033",
  "bytecodeSha1": "8da75f8f049a6b19fa25e6e8c79d0f46d3d4714f",
  "compiler": {
    "evm_version": "istanbul",
    "optimizer": {
      "enabled": true,
      "runs": 200
    },
    "version": "0.8.11+commit.d7f03943"
  },
  "contractName": "ForgeAuctions",
  "language": "Solidity",
  "natspec": {
    "kind": "dev",
    "methods": {},
    "version": 1
  },
  "opcodes": "PUSH1 0x80 PUSH1 0x40 MSTORE PUSH1 0x4 CALLDATASIZE LT PUSH2 0x25C JUMPI PUSH1 0x0 CALLDATALOAD PUSH1 0xE0 SHR DUP1 PUSH4 0x89B86DB5 GT PUSH2 0x144 JUMPI DUP1 PUSH4 0xBDF75661 GT PUSH2 0xB6 JUMPI DUP1 PUSH4 0xDC3222A6 GT PUSH2 0x7A JUMPI DUP1 PUSH4 0xDC3222A6 EQ PUSH2 0x750 JUMPI DUP1 PUSH4 0xDF0244B1 EQ PUSH2 0x793 JUMPI DUP1 PUSH4 0xE82481CF EQ PUSH2 0x7A9 JUMPI DUP1 PUSH4 0xEE1F84C3 EQ PUSH2 0x7BE JUMPI DUP1 PUSH4 0xF1261E92 EQ PUSH2 0x7DE JUMPI DUP1 PUSH4 0xFEE05D62 EQ PUSH2 0x7FE JUMPI PUSH1 0x0 DUP1 REVERT JUMPDEST DUP1 PUSH4 0xBDF75661 EQ PUSH2 0x696 JUMPI DUP1 PUSH4 0xC31842E1 EQ PUSH2 0x6B6 JUMPI DUP1 PUSH4 0xC8B9EE6F EQ PUSH2 0x6D6 JUMPI DUP1 PUSH4 0xCB65EE92 EQ PUSH2 0x6EB JUMPI DUP1 PUSH4 0xDAC679EC EQ PUSH2 0x718 JUMPI PUSH1 0x0 DUP1 REVERT JUMPDEST DUP1 PUSH4 0x96EF5811 GT PUSH2 0x108 JUMPI DUP1 PUSH4 0x96EF5811 EQ PUSH2 0x5E9 JUMPI DUP1 PUSH4 0x973628F6 EQ PUSH2 0x609 JUMPI DUP1 PUSH4 0xA0DAB241 EQ PUSH2 0x61F JUMPI DUP1 PUSH4 0xA5A1BA21 EQ PUSH2 0x632 JUMPI DUP1 PUSH4 0xA9B12C4C EQ PUSH2 0x66A JUMPI DUP1 PUSH4 0xBBC19AB0 EQ PUSH2 0x680 JUMPI PUSH1 0x0 DUP1 REVERT JUMPDEST DUP1 PUSH4 0x89B86DB5 EQ PUSH2 0x527 JUMPI DUP1 PUSH4 0x8AAB30D3 EQ PUSH2 0x53C JUMPI DUP1 PUSH4 0x960BC0F1 EQ PUSH2 0x57B JUMPI DUP1 PUSH4 0x9618F7A8 EQ PUSH2 0x59B JUMPI DUP1 PUSH4 0x966FF650 EQ PUSH2 0x5D3 JUMPI PUSH1 0x0 DUP1 REVERT JUMPDEST DUP1 PUSH4 0x510DE094 GT PUSH2 0x1DD JUMPI DUP1 PUSH4 0x6E7CA69C GT PUSH2 0x1A1 JUMPI DUP1 PUSH4 0x6E7CA69C EQ PUSH2 0x45D JUMPI DUP1 PUSH4 0x7400457F EQ PUSH2 0x473 JUMPI DUP1 PUSH4 0x77217A89 EQ PUSH2 0x486 JUMPI DUP1 PUSH4 0x80BEE575 EQ PUSH2 0x4C4 JUMPI DUP1 PUSH4 0x827C049E EQ PUSH2 0x4E4 JUMPI DUP1 PUSH4 0x8454ED27 EQ PUSH2 0x4FA JUMPI PUSH1 0x0 DUP1 REVERT JUMPDEST DUP1 PUSH4 0x510DE094 EQ PUSH2 0x3C4 JUMPI DUP1 PUSH4 0x5C9302C9 EQ PUSH2 0x3E4 JUMPI DUP1 PUSH4 0x60B29259 EQ PUSH2 0x3FA JUMPI DUP1 PUSH4 0x63809953 EQ PUSH2 0x432 JUMPI DUP1 PUSH4 0x6DE63E26 EQ PUSH2 0x448 JUMPI PUSH1 0x0 DUP1 REVERT JUMPDEST DUP1 PUSH4 0x313CE567 GT PUSH2 0x224 JUMPI DUP1 PUSH4 0x313CE567 EQ PUSH2 0x335 JUMPI DUP1 PUSH4 0x3767E339 EQ PUSH2 0x34B JUMPI DUP1 PUSH4 0x3AC1C863 EQ PUSH2 0x361 JUMPI DUP1 PUSH4 0x3DB9A7EC EQ PUSH2 0x377 JUMPI DUP1 PUSH4 0x49E8A6AD EQ PUSH2 0x397 JUMPI PUSH1 0x0 DUP1 REVERT JUMPDEST DUP1 PUSH4 0x6FDDE03 EQ PUSH2 0x261 JUMPI DUP1 PUSH4 0x90EB616 EQ PUSH2 0x28C JUMPI DUP1 PUSH4 0xE21F7B4 EQ PUSH2 0x2AF JUMPI DUP1 PUSH4 0x23BA5324 EQ PUSH2 0x2E7 JUMPI DUP1 PUSH4 0x2A423BE8 EQ PUSH2 0x307 JUMPI JUMPDEST PUSH1 0x0 DUP1 REVERT JUMPDEST CALLVALUE DUP1 ISZERO PUSH2 0x26D JUMPI PUSH1 0x0 DUP1 REVERT JUMPDEST POP PUSH2 0x276 PUSH2 0x814 JUMP JUMPDEST PUSH1 0x40 MLOAD PUSH2 0x283 SWAP2 SWAP1 PUSH2 0x207C JUMP JUMPDEST PUSH1 0x40 MLOAD DUP1 SWAP2 SUB SWAP1 RETURN JUMPDEST PUSH2 0x29F PUSH2 0x29A CALLDATASIZE PUSH1 0x4 PUSH2 0x2199 JUMP JUMPDEST PUSH2 0x8A2 JUMP JUMPDEST PUSH1 0x40 MLOAD SWAP1 ISZERO ISZERO DUP2 MSTORE PUSH1 0x20 ADD PUSH2 0x283 JUMP JUMPDEST CALLVALUE DUP1 ISZERO PUSH2 0x2BB JUMPI PUSH1 0x0 DUP1 REVERT JUMPDEST POP PUSH2 0x2CF PUSH2 0x2CA CALLDATASIZE PUSH1 0x4 PUSH2 0x2217 JUMP JUMPDEST PUSH2 0xC33 JUMP JUMPDEST PUSH1 0x40 MLOAD PUSH1 0x1 PUSH1 0x1 PUSH1 0xA0 SHL SUB SWAP1 SWAP2 AND DUP2 MSTORE PUSH1 0x20 ADD PUSH2 0x283 JUMP JUMPDEST CALLVALUE DUP1 ISZERO PUSH2 0x2F3 JUMPI PUSH1 0x0 DUP1 REVERT JUMPDEST POP PUSH1 0x1 SLOAD PUSH2 0x2CF SWAP1 PUSH1 0x1 PUSH1 0x1 PUSH1 0xA0 SHL SUB AND DUP2 JUMP JUMPDEST CALLVALUE DUP1 ISZERO PUSH2 0x313 JUMPI PUSH1 0x0 DUP1 REVERT JUMPDEST POP PUSH2 0x327 PUSH2 0x322 CALLDATASIZE PUSH1 0x4 PUSH2 0x2243 JUMP JUMPDEST PUSH2 0xC78 JUMP JUMPDEST PUSH1 0x40 MLOAD SWAP1 DUP2 MSTORE PUSH1 0x20 ADD PUSH2 0x283 JUMP JUMPDEST CALLVALUE DUP1 ISZERO PUSH2 0x341 JUMPI PUSH1 0x0 DUP1 REVERT JUMPDEST POP PUSH2 0x327 PUSH1 0x9 SLOAD DUP2 JUMP JUMPDEST CALLVALUE DUP1 ISZERO PUSH2 0x357 JUMPI PUSH1 0x0 DUP1 REVERT JUMPDEST POP PUSH2 0x327 PUSH1 0x4 SLOAD DUP2 JUMP JUMPDEST CALLVALUE DUP1 ISZERO PUSH2 0x36D JUMPI PUSH1 0x0 DUP1 REVERT JUMPDEST POP PUSH2 0x327 PUSH1 0x10 SLOAD DUP2 JUMP JUMPDEST CALLVALUE DUP1 ISZERO PUSH2 0x383 JUMPI PUSH1 0x0 DUP1 REVERT JUMPDEST POP PUSH2 0x327 PUSH2 0x392 CALLDATASIZE PUSH1 0x4 PUSH2 0x2265 JUMP JUMPDEST PUSH2 0xCBA JUMP JUMPDEST CALLVALUE DUP1 ISZERO PUSH2 0x3A3 JUMPI PUSH1 0x0 DUP1 REVERT JUMPDEST POP PUSH2 0x327 PUSH2 0x3B2 CALLDATASIZE PUSH1 0x4 PUSH2 0x2298 JUMP JUMPDEST PUSH1 0x1D PUSH1 0x20 MSTORE PUSH1 0x0 SWAP1 DUP2 MSTORE PUSH1 0x40 SWAP1 KECCAK256 SLOAD DUP2 JUMP JUMPDEST CALLVALUE DUP1 ISZERO PUSH2 0x3D0 JUMPI PUSH1 0x0 DUP1 REVERT JUMPDEST POP PUSH1 0x2 SLOAD PUSH2 0x2CF SWAP1 PUSH1 0x1 PUSH1 0x1 PUSH1 0xA0 SHL SUB AND DUP2 JUMP JUMPDEST CALLVALUE DUP1 ISZERO PUSH2 0x3F0 JUMPI PUSH1 0x0 DUP1 REVERT JUMPDEST POP PUSH2 0x327 PUSH1 0xF SLOAD DUP2 JUMP JUMPDEST CALLVALUE DUP1 ISZERO PUSH2 0x406 JUMPI PUSH1 0x0 DUP1 REVERT JUMPDEST POP PUSH2 0x327 PUSH2 0x415 CALLDATASIZE PUSH1 0x4 PUSH2 0x2243 JUMP JUMPDEST PUSH1 0x18 PUSH1 0x20 SWAP1 DUP2 MSTORE PUSH1 0x0 SWAP3 DUP4 MSTORE PUSH1 0x40 DUP1 DUP5 KECCAK256 SWAP1 SWAP2 MSTORE SWAP1 DUP3 MSTORE SWAP1 KECCAK256 SLOAD DUP2 JUMP JUMPDEST CALLVALUE DUP1 ISZERO PUSH2 0x43E JUMPI PUSH1 0x0 DUP1 REVERT JUMPDEST POP PUSH2 0x327 PUSH1 0x11 SLOAD DUP2 JUMP JUMPDEST PUSH2 0x45B PUSH2 0x456 CALLDATASIZE PUSH1 0x4 PUSH2 0x22B3 JUMP JUMPDEST PUSH2 0xCF8 JUMP JUMPDEST STOP JUMPDEST CALLVALUE DUP1 ISZERO PUSH2 0x469 JUMPI PUSH1 0x0 DUP1 REVERT JUMPDEST POP PUSH2 0x327 PUSH1 0x21 SLOAD DUP2 JUMP JUMPDEST PUSH2 0x29F PUSH2 0x481 CALLDATASIZE PUSH1 0x4 PUSH2 0x22B3 JUMP JUMPDEST PUSH2 0xE49 JUMP JUMPDEST CALLVALUE DUP1 ISZERO PUSH2 0x492 JUMPI PUSH1 0x0 DUP1 REVERT JUMPDEST POP PUSH2 0x327 PUSH2 0x4A1 CALLDATASIZE PUSH1 0x4 PUSH2 0x22DD JUMP JUMPDEST PUSH1 0x1B PUSH1 0x20 SWAP1 DUP2 MSTORE PUSH1 0x0 SWAP4 DUP5 MSTORE PUSH1 0x40 DUP1 DUP6 KECCAK256 DUP3 MSTORE SWAP3 DUP5 MSTORE DUP3 DUP5 KECCAK256 SWAP1 MSTORE DUP3 MSTORE SWAP1 KECCAK256 SLOAD DUP2 JUMP JUMPDEST CALLVALUE DUP1 ISZERO PUSH2 0x4D0 JUMPI PUSH1 0x0 DUP1 REVERT JUMPDEST POP PUSH2 0x29F PUSH2 0x4DF CALLDATASIZE PUSH1 0x4 PUSH2 0x22B3 JUMP JUMPDEST PUSH2 0xE83 JUMP JUMPDEST CALLVALUE DUP1 ISZERO PUSH2 0x4F0 JUMPI PUSH1 0x0 DUP1 REVERT JUMPDEST POP PUSH2 0x327 PUSH1 0xD SLOAD DUP2 JUMP JUMPDEST CALLVALUE DUP1 ISZERO PUSH2 0x506 JUMPI PUSH1 0x0 DUP1 REVERT JUMPDEST POP PUSH2 0x327 PUSH2 0x515 CALLDATASIZE PUSH1 0x4 PUSH2 0x2312 JUMP JUMPDEST PUSH1 0x15 PUSH1 0x20 MSTORE PUSH1 0x0 SWAP1 DUP2 MSTORE PUSH1 0x40 SWAP1 KECCAK256 SLOAD DUP2 JUMP JUMPDEST CALLVALUE DUP1 ISZERO PUSH2 0x533 JUMPI PUSH1 0x0 DUP1 REVERT JUMPDEST POP PUSH2 0x327 PUSH2 0xFA4 JUMP JUMPDEST CALLVALUE DUP1 ISZERO PUSH2 0x548 JUMPI PUSH1 0x0 DUP1 REVERT JUMPDEST POP PUSH2 0x29F PUSH2 0x557 CALLDATASIZE PUSH1 0x4 PUSH2 0x2243 JUMP JUMPDEST CALLER PUSH1 0x0 SWAP1 DUP2 MSTORE PUSH1 0x1E PUSH1 0x20 SWAP1 DUP2 MSTORE PUSH1 0x40 DUP1 DUP4 KECCAK256 SWAP5 SWAP1 SWAP5 SSTORE PUSH1 0x1D SWAP1 MSTORE SWAP2 SWAP1 SWAP2 KECCAK256 SSTORE PUSH1 0x1 SWAP1 JUMP JUMPDEST CALLVALUE DUP1 ISZERO PUSH2 0x587 JUMPI PUSH1 0x0 DUP1 REVERT JUMPDEST POP PUSH2 0x29F PUSH2 0x596 CALLDATASIZE PUSH1 0x4 PUSH2 0x232B JUMP JUMPDEST PUSH2 0xFCD JUMP JUMPDEST CALLVALUE DUP1 ISZERO PUSH2 0x5A7 JUMPI PUSH1 0x0 DUP1 REVERT JUMPDEST POP PUSH2 0x327 PUSH2 0x5B6 CALLDATASIZE PUSH1 0x4 PUSH2 0x2243 JUMP JUMPDEST PUSH1 0x16 PUSH1 0x20 SWAP1 DUP2 MSTORE PUSH1 0x0 SWAP3 DUP4 MSTORE PUSH1 0x40 DUP1 DUP5 KECCAK256 SWAP1 SWAP2 MSTORE SWAP1 DUP3 MSTORE SWAP1 KECCAK256 SLOAD DUP2 JUMP JUMPDEST CALLVALUE DUP1 ISZERO PUSH2 0x5DF JUMPI PUSH1 0x0 DUP1 REVERT JUMPDEST POP PUSH2 0x327 PUSH1 0x13 SLOAD DUP2 JUMP JUMPDEST CALLVALUE DUP1 ISZERO PUSH2 0x5F5 JUMPI PUSH1 0x0 DUP1 REVERT JUMPDEST POP PUSH2 0x45B PUSH2 0x604 CALLDATASIZE PUSH1 0x4 PUSH2 0x2379 JUMP JUMPDEST PUSH2 0x10F3 JUMP JUMPDEST CALLVALUE DUP1 ISZERO PUSH2 0x615 JUMPI PUSH1 0x0 DUP1 REVERT JUMPDEST POP PUSH2 0x327 PUSH1 0xE SLOAD DUP2 JUMP JUMPDEST PUSH2 0x29F PUSH2 0x62D CALLDATASIZE PUSH1 0x4 PUSH2 0x23AC JUMP JUMPDEST PUSH2 0x11EC JUMP JUMPDEST CALLVALUE DUP1 ISZERO PUSH2 0x63E JUMPI PUSH1 0x0 DUP1 REVERT JUMPDEST POP PUSH2 0x327 PUSH2 0x64D CALLDATASIZE PUSH1 0x4 PUSH2 0x2243 JUMP JUMPDEST PUSH1 0x1A PUSH1 0x20 SWAP1 DUP2 MSTORE PUSH1 0x0 SWAP3 DUP4 MSTORE PUSH1 0x40 DUP1 DUP5 KECCAK256 SWAP1 SWAP2 MSTORE SWAP1 DUP3 MSTORE SWAP1 KECCAK256 SLOAD DUP2 JUMP JUMPDEST CALLVALUE DUP1 ISZERO PUSH2 0x676 JUMPI PUSH1 0x0 DUP1 REVERT JUMPDEST POP PUSH2 0x327 PUSH1 0x23 SLOAD DUP2 JUMP JUMPDEST CALLVALUE DUP1 ISZERO PUSH2 0x68C JUMPI PUSH1 0x0 DUP1 REVERT JUMPDEST POP PUSH2 0x327 PUSH1 0x22 SLOAD DUP2 JUMP JUMPDEST CALLVALUE DUP1 ISZERO PUSH2 0x6A2 JUMPI PUSH1 0x0 DUP1 REVERT JUMPDEST POP PUSH2 0x327 PUSH2 0x6B1 CALLDATASIZE PUSH1 0x4 PUSH2 0x22DD JUMP JUMPDEST PUSH2 0x1312 JUMP JUMPDEST CALLVALUE DUP1 ISZERO PUSH2 0x6C2 JUMPI PUSH1 0x0 DUP1 REVERT JUMPDEST POP PUSH2 0x327 PUSH2 0x6D1 CALLDATASIZE PUSH1 0x4 PUSH2 0x22DD JUMP JUMPDEST PUSH2 0x1417 JUMP JUMPDEST CALLVALUE DUP1 ISZERO PUSH2 0x6E2 JUMPI PUSH1 0x0 DUP1 REVERT JUMPDEST POP PUSH2 0x45B PUSH2 0x1463 JUMP JUMPDEST CALLVALUE DUP1 ISZERO PUSH2 0x6F7 JUMPI PUSH1 0x0 DUP1 REVERT JUMPDEST POP PUSH2 0x327 PUSH2 0x706 CALLDATASIZE PUSH1 0x4 PUSH2 0x2298 JUMP JUMPDEST PUSH1 0x1E PUSH1 0x20 MSTORE PUSH1 0x0 SWAP1 DUP2 MSTORE PUSH1 0x40 SWAP1 KECCAK256 SLOAD DUP2 JUMP JUMPDEST CALLVALUE DUP1 ISZERO PUSH2 0x724 JUMPI PUSH1 0x0 DUP1 REVERT JUMPDEST POP PUSH2 0x327 PUSH2 0x733 CALLDATASIZE PUSH1 0x4 PUSH2 0x2243 JUMP JUMPDEST PUSH1 0x19 PUSH1 0x20 SWAP1 DUP2 MSTORE PUSH1 0x0 SWAP3 DUP4 MSTORE PUSH1 0x40 DUP1 DUP5 KECCAK256 SWAP1 SWAP2 MSTORE SWAP1 DUP3 MSTORE SWAP1 KECCAK256 SLOAD DUP2 JUMP JUMPDEST CALLVALUE DUP1 ISZERO PUSH2 0x75C JUMPI PUSH1 0x0 DUP1 REVERT JUMPDEST POP PUSH2 0x327 PUSH2 0x76B CALLDATASIZE PUSH1 0x4 PUSH2 0x22B3 JUMP JUMPDEST PUSH1 0x1 PUSH1 0x1 PUSH1 0xA0 SHL SUB SWAP2 SWAP1 SWAP2 AND PUSH1 0x0 SWAP1 DUP2 MSTORE PUSH1 0x1C PUSH1 0x20 SWAP1 DUP2 MSTORE PUSH1 0x40 DUP1 DUP4 KECCAK256 SWAP4 DUP4 MSTORE SWAP3 SWAP1 MSTORE KECCAK256 SLOAD SWAP1 JUMP JUMPDEST CALLVALUE DUP1 ISZERO PUSH2 0x79F JUMPI PUSH1 0x0 DUP1 REVERT JUMPDEST POP PUSH2 0x327 PUSH1 0x14 SLOAD DUP2 JUMP JUMPDEST CALLVALUE DUP1 ISZERO PUSH2 0x7B5 JUMPI PUSH1 0x0 DUP1 REVERT JUMPDEST POP PUSH2 0x327 PUSH2 0x146E JUMP JUMPDEST CALLVALUE DUP1 ISZERO PUSH2 0x7CA JUMPI PUSH1 0x0 DUP1 REVERT JUMPDEST POP PUSH2 0x45B PUSH2 0x7D9 CALLDATASIZE PUSH1 0x4 PUSH2 0x2298 JUMP JUMPDEST PUSH2 0x14F8 JUMP JUMPDEST CALLVALUE DUP1 ISZERO PUSH2 0x7EA JUMPI PUSH1 0x0 DUP1 REVERT JUMPDEST POP PUSH1 0x3 SLOAD PUSH2 0x2CF SWAP1 PUSH1 0x1 PUSH1 0x1 PUSH1 0xA0 SHL SUB AND DUP2 JUMP JUMPDEST CALLVALUE DUP1 ISZERO PUSH2 0x80A JUMPI PUSH1 0x0 DUP1 REVERT JUMPDEST POP PUSH2 0x327 PUSH1 0x12 SLOAD DUP2 JUMP JUMPDEST PUSH1 0x8 DUP1 SLOAD PUSH2 0x821 SWAP1 PUSH2 0x23F3 JUMP JUMPDEST DUP1 PUSH1 0x1F ADD PUSH1 0x20 DUP1 SWAP2 DIV MUL PUSH1 0x20 ADD PUSH1 0x40 MLOAD SWAP1 DUP2 ADD PUSH1 0x40 MSTORE DUP1 SWAP3 SWAP2 SWAP1 DUP2 DUP2 MSTORE PUSH1 0x20 ADD DUP3 DUP1 SLOAD PUSH2 0x84D SWAP1 PUSH2 0x23F3 JUMP JUMPDEST DUP1 ISZERO PUSH2 0x89A JUMPI DUP1 PUSH1 0x1F LT PUSH2 0x86F JUMPI PUSH2 0x100 DUP1 DUP4 SLOAD DIV MUL DUP4 MSTORE SWAP2 PUSH1 0x20 ADD SWAP2 PUSH2 0x89A JUMP JUMPDEST DUP3 ADD SWAP2 SWAP1 PUSH1 0x0 MSTORE PUSH1 0x20 PUSH1 0x0 KECCAK256 SWAP1 JUMPDEST DUP2 SLOAD DUP2 MSTORE SWAP1 PUSH1 0x1 ADD SWAP1 PUSH1 0x20 ADD DUP1 DUP4 GT PUSH2 0x87D JUMPI DUP3 SWAP1 SUB PUSH1 0x1F AND DUP3 ADD SWAP2 JUMPDEST POP POP POP POP POP DUP2 JUMP JUMPDEST PUSH1 0x10 SLOAD PUSH1 0xF SLOAD PUSH1 0xE SLOAD PUSH1 0x0 SWAP3 DUP4 SWAP3 SWAP1 SWAP2 DUP1 DUP10 LT ISZERO PUSH2 0x913 JUMPI PUSH1 0x40 MLOAD PUSH3 0x461BCD PUSH1 0xE5 SHL DUP2 MSTORE PUSH1 0x20 PUSH1 0x4 DUP3 ADD MSTORE PUSH1 0x23 PUSH1 0x24 DUP3 ADD MSTORE PUSH32 0x6E6F206B6E75636B6C6568656164206F6E6C7920626964206F6E207468697320 PUSH1 0x44 DUP3 ADD MSTORE PUSH3 0x657261 PUSH1 0xE8 SHL PUSH1 0x64 DUP3 ADD MSTORE PUSH1 0x84 ADD JUMPDEST PUSH1 0x40 MLOAD DUP1 SWAP2 SUB SWAP1 REVERT JUMPDEST PUSH1 0x0 JUMPDEST DUP9 MLOAD DUP2 LT ISZERO PUSH2 0xA5C JUMPI PUSH1 0x0 DUP8 DUP3 DUP2 MLOAD DUP2 LT PUSH2 0x933 JUMPI PUSH2 0x933 PUSH2 0x242E JUMP JUMPDEST PUSH1 0x20 MUL PUSH1 0x20 ADD ADD MLOAD SWAP1 POP DUP3 DUP12 EQ ISZERO PUSH2 0x9AE JUMPI DUP4 DUP11 DUP4 DUP2 MLOAD DUP2 LT PUSH2 0x958 JUMPI PUSH2 0x958 PUSH2 0x242E JUMP JUMPDEST PUSH1 0x20 MUL PUSH1 0x20 ADD ADD MLOAD LT ISZERO PUSH2 0x9AE JUMPI PUSH1 0x40 MLOAD PUSH3 0x461BCD PUSH1 0xE5 SHL DUP2 MSTORE PUSH1 0x20 PUSH1 0x4 DUP3 ADD MSTORE PUSH1 0x1C PUSH1 0x24 DUP3 ADD MSTORE PUSH32 0x4D757374206E6F742062696420626568696E6420746865206461797300000000 PUSH1 0x44 DUP3 ADD MSTORE PUSH1 0x64 ADD PUSH2 0x90A JUMP JUMPDEST DUP5 DUP11 DUP4 DUP2 MLOAD DUP2 LT PUSH2 0x9C1 JUMPI PUSH2 0x9C1 PUSH2 0x242E JUMP JUMPDEST PUSH1 0x20 MUL PUSH1 0x20 ADD ADD MLOAD GT ISZERO PUSH2 0xA17 JUMPI PUSH1 0x40 MLOAD PUSH3 0x461BCD PUSH1 0xE5 SHL DUP2 MSTORE PUSH1 0x20 PUSH1 0x4 DUP3 ADD MSTORE PUSH1 0x1B PUSH1 0x24 DUP3 ADD MSTORE PUSH32 0x43616E7420626964206F6E2064617973206E6F7420696E206572610000000000 PUSH1 0x44 DUP3 ADD MSTORE PUSH1 0x64 ADD PUSH2 0x90A JUMP JUMPDEST PUSH2 0xA21 DUP7 DUP3 PUSH2 0x164A JUMP JUMPDEST SWAP6 POP PUSH2 0xA49 CALLER DUP11 DUP14 DUP14 DUP7 DUP2 MLOAD DUP2 LT PUSH2 0xA3B JUMPI PUSH2 0xA3B PUSH2 0x242E JUMP JUMPDEST PUSH1 0x20 MUL PUSH1 0x20 ADD ADD MLOAD DUP6 PUSH2 0x1698 JUMP JUMPDEST POP DUP1 PUSH2 0xA54 DUP2 PUSH2 0x245A JUMP JUMPDEST SWAP2 POP POP PUSH2 0x916 JUMP JUMPDEST POP PUSH2 0xA68 DUP10 PUSH1 0x2 PUSH2 0x2559 JUMP JUMPDEST PUSH2 0xA73 SWAP1 PUSH1 0x32 PUSH2 0x2565 JUMP JUMPDEST PUSH1 0x7 SLOAD PUSH2 0xA80 SWAP2 SWAP1 PUSH2 0x2584 JUMP JUMPDEST DUP9 MLOAD PUSH2 0xA8C SWAP1 DUP7 PUSH2 0x2584 JUMP JUMPDEST GT PUSH2 0xAF4 JUMPI PUSH1 0x40 MLOAD PUSH3 0x461BCD PUSH1 0xE5 SHL DUP2 MSTORE PUSH1 0x20 PUSH1 0x4 DUP3 ADD MSTORE PUSH1 0x32 PUSH1 0x24 DUP3 ADD MSTORE PUSH32 0x302E3032203078426974636F696E20706572204461792072657175697265642C PUSH1 0x44 DUP3 ADD MSTORE PUSH18 0x207265647563657320657665727920657261 PUSH1 0x70 SHL PUSH1 0x64 DUP3 ADD MSTORE PUSH1 0x84 ADD PUSH2 0x90A JUMP JUMPDEST PUSH1 0x2 SLOAD PUSH1 0x3 SLOAD PUSH1 0x40 MLOAD PUSH4 0x23B872DD PUSH1 0xE0 SHL DUP2 MSTORE CALLER PUSH1 0x4 DUP3 ADD MSTORE PUSH1 0x1 PUSH1 0x1 PUSH1 0xA0 SHL SUB SWAP2 DUP3 AND PUSH1 0x24 DUP3 ADD MSTORE PUSH1 0x44 DUP2 ADD DUP8 SWAP1 MSTORE SWAP2 AND SWAP1 PUSH4 0x23B872DD SWAP1 PUSH1 0x64 ADD PUSH1 0x20 PUSH1 0x40 MLOAD DUP1 DUP4 SUB DUP2 PUSH1 0x0 DUP8 GAS CALL ISZERO DUP1 ISZERO PUSH2 0xB4F JUMPI RETURNDATASIZE PUSH1 0x0 DUP1 RETURNDATACOPY RETURNDATASIZE PUSH1 0x0 REVERT JUMPDEST POP POP POP POP PUSH1 0x40 MLOAD RETURNDATASIZE PUSH1 0x1F NOT PUSH1 0x1F DUP3 ADD AND DUP3 ADD DUP1 PUSH1 0x40 MSTORE POP DUP2 ADD SWAP1 PUSH2 0xB73 SWAP2 SWAP1 PUSH2 0x25A6 JUMP JUMPDEST PUSH2 0xBD4 JUMPI PUSH1 0x40 MLOAD PUSH3 0x461BCD PUSH1 0xE5 SHL DUP2 MSTORE PUSH1 0x20 PUSH1 0x4 DUP3 ADD MSTORE PUSH1 0x2C PUSH1 0x24 DUP3 ADD MSTORE PUSH32 0x4E4F204F54484552205741592C2073656E642069742074686520726571756972 PUSH1 0x44 DUP3 ADD MSTORE PUSH12 0x32B210183C2134BA31B7B4B7 PUSH1 0xA1 SHL PUSH1 0x64 DUP3 ADD MSTORE PUSH1 0x84 ADD PUSH2 0x90A JUMP JUMPDEST DUP8 MLOAD PUSH1 0x40 DUP1 MLOAD DUP12 DUP2 MSTORE PUSH1 0x20 DUP2 ADD SWAP3 SWAP1 SWAP3 MSTORE DUP2 ADD DUP6 SWAP1 MSTORE PUSH1 0x1 PUSH1 0x1 PUSH1 0xA0 SHL SUB DUP9 AND SWAP1 CALLER SWAP1 PUSH32 0xB4E1FDF06308D5CAA2DE01F8DB08D933FCF160BCDA97C1576B56A0C00E893F31 SWAP1 PUSH1 0x60 ADD PUSH1 0x40 MLOAD DUP1 SWAP2 SUB SWAP1 LOG3 POP PUSH1 0x1 SWAP9 SWAP8 POP POP POP POP POP POP POP POP JUMP JUMPDEST PUSH1 0x17 PUSH1 0x20 MSTORE DUP3 PUSH1 0x0 MSTORE PUSH1 0x40 PUSH1 0x0 KECCAK256 PUSH1 0x20 MSTORE DUP2 PUSH1 0x0 MSTORE PUSH1 0x40 PUSH1 0x0 KECCAK256 DUP2 DUP2 SLOAD DUP2 LT PUSH2 0xC5B JUMPI PUSH1 0x0 DUP1 REVERT JUMPDEST PUSH1 0x0 SWAP2 DUP3 MSTORE PUSH1 0x20 SWAP1 SWAP2 KECCAK256 ADD SLOAD PUSH1 0x1 PUSH1 0x1 PUSH1 0xA0 SHL SUB AND SWAP3 POP DUP4 SWAP2 POP POP JUMP JUMPDEST PUSH1 0x0 DUP3 DUP2 MSTORE PUSH1 0x1B PUSH1 0x20 SWAP1 DUP2 MSTORE PUSH1 0x40 DUP1 DUP4 KECCAK256 DUP5 DUP5 MSTORE DUP3 MSTORE DUP1 DUP4 KECCAK256 CALLER DUP5 MSTORE SWAP1 SWAP2 MSTORE DUP2 KECCAK256 SLOAD DUP1 PUSH2 0xCA7 JUMPI PUSH2 0xCA7 PUSH2 0x25C8 JUMP JUMPDEST PUSH2 0xCB2 DUP5 DUP5 CALLER PUSH2 0x1829 JUMP JUMPDEST SWAP5 SWAP4 POP POP POP POP JUMP JUMPDEST PUSH1 0x1C PUSH1 0x20 MSTORE DUP3 PUSH1 0x0 MSTORE PUSH1 0x40 PUSH1 0x0 KECCAK256 PUSH1 0x20 MSTORE DUP2 PUSH1 0x0 MSTORE PUSH1 0x40 PUSH1 0x0 KECCAK256 DUP2 DUP2 SLOAD DUP2 LT PUSH2 0xCE2 JUMPI PUSH1 0x0 DUP1 REVERT JUMPDEST SWAP1 PUSH1 0x0 MSTORE PUSH1 0x20 PUSH1 0x0 KECCAK256 ADD PUSH1 0x0 SWAP3 POP SWAP3 POP POP POP SLOAD DUP2 JUMP JUMPDEST PUSH1 0x2 SLOAD PUSH1 0x3 SLOAD PUSH1 0x40 MLOAD PUSH4 0x23B872DD PUSH1 0xE0 SHL DUP2 MSTORE CALLER PUSH1 0x4 DUP3 ADD MSTORE PUSH1 0x1 PUSH1 0x1 PUSH1 0xA0 SHL SUB SWAP2 DUP3 AND PUSH1 0x24 DUP3 ADD MSTORE PUSH1 0x44 DUP2 ADD DUP5 SWAP1 MSTORE SWAP2 AND SWAP1 PUSH4 0x23B872DD SWAP1 PUSH1 0x64 ADD PUSH1 0x20 PUSH1 0x40 MLOAD DUP1 DUP4 SUB DUP2 PUSH1 0x0 DUP8 GAS CALL ISZERO DUP1 ISZERO PUSH2 0xD53 JUMPI RETURNDATASIZE PUSH1 0x0 DUP1 RETURNDATACOPY RETURNDATASIZE PUSH1 0x0 REVERT JUMPDEST POP POP POP POP PUSH1 0x40 MLOAD RETURNDATASIZE PUSH1 0x1F NOT PUSH1 0x1F DUP3 ADD AND DUP3 ADD DUP1 PUSH1 0x40 MSTORE POP DUP2 ADD SWAP1 PUSH2 0xD77 SWAP2 SWAP1 PUSH2 0x25A6 JUMP JUMPDEST PUSH2 0xDC3 JUMPI PUSH1 0x40 MLOAD PUSH3 0x461BCD PUSH1 0xE5 SHL DUP2 MSTORE PUSH1 0x20 PUSH1 0x4 DUP3 ADD MSTORE PUSH1 0x1B PUSH1 0x24 DUP3 ADD MSTORE PUSH32 0x4E4F205741592C2072657175697265732030784254432073656E640000000000 PUSH1 0x44 DUP3 ADD MSTORE PUSH1 0x64 ADD PUSH2 0x90A JUMP JUMPDEST PUSH2 0xDD4 CALLER DUP4 PUSH1 0xE SLOAD PUSH1 0xF SLOAD DUP6 PUSH2 0x1698 JUMP JUMPDEST PUSH1 0xE SLOAD PUSH1 0xF SLOAD PUSH1 0x0 DUP3 DUP2 MSTORE PUSH1 0x18 PUSH1 0x20 SWAP1 DUP2 MSTORE PUSH1 0x40 DUP1 DUP4 KECCAK256 DUP5 DUP5 MSTORE DUP3 MSTORE SWAP2 DUP3 SWAP1 KECCAK256 SLOAD DUP3 MLOAD SWAP5 DUP6 MSTORE SWAP1 DUP5 ADD SWAP3 SWAP1 SWAP3 MSTORE DUP3 ADD DUP4 SWAP1 MSTORE PUSH1 0x60 DUP3 ADD MSTORE PUSH1 0x1 PUSH1 0x1 PUSH1 0xA0 SHL SUB DUP4 AND SWAP1 CALLER SWAP1 PUSH32 0x661F25A08EE5C15FC997F7288C9CD798E1905052F21D761925800799791F130B SWAP1 PUSH1 0x80 ADD PUSH1 0x40 MLOAD DUP1 SWAP2 SUB SWAP1 LOG3 POP POP JUMP JUMPDEST PUSH1 0x0 DUP1 PUSH1 0x1 PUSH1 0xF SLOAD PUSH1 0x10 SLOAD PUSH2 0xE5E SWAP2 SWAP1 PUSH2 0x25DE JUMP JUMPDEST PUSH2 0xE68 SWAP2 SWAP1 PUSH2 0x25DE JUMP JUMPDEST SWAP1 POP PUSH2 0xE7B PUSH1 0xE SLOAD PUSH1 0xF SLOAD DUP4 DUP8 DUP8 PUSH2 0x11EC JUMP JUMPDEST POP POP SWAP3 SWAP2 POP POP JUMP JUMPDEST PUSH1 0x0 PUSH1 0x1 PUSH1 0x1 PUSH1 0xA0 SHL SUB DUP4 AND ADDRESS EQ DUP1 ISZERO SWAP1 PUSH2 0xEAC JUMPI POP PUSH1 0x3 SLOAD PUSH1 0x1 PUSH1 0x1 PUSH1 0xA0 SHL SUB DUP5 DUP2 AND SWAP2 AND EQ ISZERO JUMPDEST PUSH2 0xEB5 JUMPI PUSH1 0x0 DUP1 REVERT JUMPDEST PUSH1 0x3 SLOAD PUSH1 0x40 MLOAD PUSH4 0x70A08231 PUSH1 0xE0 SHL DUP2 MSTORE ADDRESS PUSH1 0x4 DUP3 ADD MSTORE PUSH1 0x1 PUSH1 0x1 PUSH1 0xA0 SHL SUB DUP6 DUP2 AND SWAP3 PUSH4 0xA9059CBB SWAP3 SWAP2 AND SWAP1 DUP4 SWAP1 PUSH4 0x70A08231 SWAP1 PUSH1 0x24 ADD PUSH1 0x20 PUSH1 0x40 MLOAD DUP1 DUP4 SUB DUP2 DUP7 GAS STATICCALL ISZERO DUP1 ISZERO PUSH2 0xF08 JUMPI RETURNDATASIZE PUSH1 0x0 DUP1 RETURNDATACOPY RETURNDATASIZE PUSH1 0x0 REVERT JUMPDEST POP POP POP POP PUSH1 0x40 MLOAD RETURNDATASIZE PUSH1 0x1F NOT PUSH1 0x1F DUP3 ADD AND DUP3 ADD DUP1 PUSH1 0x40 MSTORE POP DUP2 ADD SWAP1 PUSH2 0xF2C SWAP2 SWAP1 PUSH2 0x25F5 JUMP JUMPDEST PUSH1 0x40 MLOAD PUSH1 0x1 PUSH1 0x1 PUSH1 0xE0 SHL SUB NOT PUSH1 0xE0 DUP6 SWAP1 SHL AND DUP2 MSTORE PUSH1 0x1 PUSH1 0x1 PUSH1 0xA0 SHL SUB SWAP1 SWAP3 AND PUSH1 0x4 DUP4 ADD MSTORE PUSH1 0x24 DUP3 ADD MSTORE PUSH1 0x44 ADD PUSH1 0x20 PUSH1 0x40 MLOAD DUP1 DUP4 SUB DUP2 PUSH1 0x0 DUP8 GAS CALL ISZERO DUP1 ISZERO PUSH2 0xF77 JUMPI RETURNDATASIZE PUSH1 0x0 DUP1 RETURNDATACOPY RETURNDATASIZE PUSH1 0x0 REVERT JUMPDEST POP POP POP POP PUSH1 0x40 MLOAD RETURNDATASIZE PUSH1 0x1F NOT PUSH1 0x1F DUP3 ADD AND DUP3 ADD DUP1 PUSH1 0x40 MSTORE POP DUP2 ADD SWAP1 PUSH2 0xF9B SWAP2 SWAP1 PUSH2 0x25A6 JUMP JUMPDEST SWAP1 POP JUMPDEST SWAP3 SWAP2 POP POP JUMP JUMPDEST PUSH1 0x0 PUSH1 0xC SLOAD PUSH1 0xD SLOAD GT ISZERO PUSH2 0xFC6 JUMPI PUSH1 0x2 PUSH1 0xD SLOAD PUSH2 0xFC1 SWAP2 SWAP1 PUSH2 0x2584 JUMP JUMPDEST SWAP1 POP SWAP1 JUMP JUMPDEST POP PUSH1 0xC SLOAD SWAP1 JUMP JUMPDEST PUSH1 0x0 DUP1 DUP1 JUMPDEST DUP5 MLOAD DUP2 LT ISZERO PUSH2 0x101D JUMPI PUSH2 0x1009 PUSH2 0x1002 DUP8 DUP8 DUP5 DUP2 MLOAD DUP2 LT PUSH2 0xFF4 JUMPI PUSH2 0xFF4 PUSH2 0x242E JUMP JUMPDEST PUSH1 0x20 MUL PUSH1 0x20 ADD ADD MLOAD DUP8 PUSH2 0x186E JUMP JUMPDEST DUP4 SWAP1 PUSH2 0x164A JUMP JUMPDEST SWAP2 POP DUP1 PUSH2 0x1015 DUP2 PUSH2 0x245A JUMP JUMPDEST SWAP2 POP POP PUSH2 0xFD2 JUMP JUMPDEST POP PUSH1 0x3 SLOAD PUSH1 0x40 MLOAD PUSH4 0xA9059CBB PUSH1 0xE0 SHL DUP2 MSTORE PUSH1 0x1 PUSH1 0x1 PUSH1 0xA0 SHL SUB DUP6 DUP2 AND PUSH1 0x4 DUP4 ADD MSTORE PUSH1 0x24 DUP3 ADD DUP5 SWAP1 MSTORE SWAP1 SWAP2 AND SWAP1 PUSH4 0xA9059CBB SWAP1 PUSH1 0x44 ADD PUSH1 0x20 PUSH1 0x40 MLOAD DUP1 DUP4 SUB DUP2 PUSH1 0x0 DUP8 GAS CALL ISZERO DUP1 ISZERO PUSH2 0x1071 JUMPI RETURNDATASIZE PUSH1 0x0 DUP1 RETURNDATACOPY RETURNDATASIZE PUSH1 0x0 REVERT JUMPDEST POP POP POP POP PUSH1 0x40 MLOAD RETURNDATASIZE PUSH1 0x1F NOT PUSH1 0x1F DUP3 ADD AND DUP3 ADD DUP1 PUSH1 0x40 MSTORE POP DUP2 ADD SWAP1 PUSH2 0x1095 SWAP2 SWAP1 PUSH2 0x25A6 JUMP JUMPDEST POP DUP4 MLOAD PUSH1 0x40 DUP1 MLOAD DUP8 DUP2 MSTORE PUSH1 0x20 DUP2 ADD SWAP3 SWAP1 SWAP3 MSTORE DUP2 ADD DUP3 SWAP1 MSTORE PUSH1 0x1 PUSH1 0x1 PUSH1 0xA0 SHL SUB DUP5 AND SWAP1 CALLER SWAP1 PUSH32 0xC6FADBAB41D2DAF77182FF3236E4ABBB3C021507103DC894B421B1D68F88ACEA SWAP1 PUSH1 0x60 ADD PUSH1 0x40 MLOAD DUP1 SWAP2 SUB SWAP1 LOG3 PUSH1 0x1 SWAP2 POP POP JUMPDEST SWAP4 SWAP3 POP POP POP JUMP JUMPDEST PUSH1 0x1 SLOAD PUSH1 0x1 PUSH1 0x1 PUSH1 0xA0 SHL SUB AND CALLER EQ PUSH2 0x113A JUMPI PUSH1 0x40 MLOAD PUSH3 0x461BCD PUSH1 0xE5 SHL DUP2 MSTORE PUSH1 0x20 PUSH1 0x4 DUP3 ADD MSTORE PUSH1 0xA PUSH1 0x24 DUP3 ADD MSTORE PUSH10 0x37B7363C9037BBB732B9 PUSH1 0xB1 SHL PUSH1 0x44 DUP3 ADD MSTORE PUSH1 0x64 ADD PUSH2 0x90A JUMP JUMPDEST PUSH1 0x3 DUP1 SLOAD PUSH1 0x1 PUSH1 0x1 PUSH1 0xA0 SHL SUB DUP1 DUP6 AND PUSH1 0x1 PUSH1 0x1 PUSH1 0xA0 SHL SUB NOT SWAP3 DUP4 AND DUP2 OR SWAP1 SWAP4 SSTORE PUSH1 0x1 DUP1 SLOAD DUP4 AND SWAP1 SSTORE PUSH1 0x0 PUSH1 0x22 SSTORE PUSH1 0x2 DUP1 SLOAD SWAP2 DUP6 AND SWAP2 DUP4 AND SWAP2 SWAP1 SWAP2 OR SWAP1 SSTORE PUSH1 0x1F DUP1 SLOAD SWAP1 SWAP2 AND DUP3 OR SWAP1 SSTORE PUSH1 0x40 DUP1 MLOAD PUSH4 0x6055F5F PUSH1 0xE5 SHL DUP2 MSTORE SWAP1 MLOAD PUSH4 0xC0ABEBE0 SWAP2 PUSH1 0x4 DUP1 DUP3 ADD SWAP3 PUSH1 0x20 SWAP3 SWAP1 SWAP2 SWAP1 DUP3 SWAP1 SUB ADD DUP2 DUP7 GAS STATICCALL ISZERO DUP1 ISZERO PUSH2 0x11BD JUMPI RETURNDATASIZE PUSH1 0x0 DUP1 RETURNDATACOPY RETURNDATASIZE PUSH1 0x0 REVERT JUMPDEST POP POP POP POP PUSH1 0x40 MLOAD RETURNDATASIZE PUSH1 0x1F NOT PUSH1 0x1F DUP3 ADD AND DUP3 ADD DUP1 PUSH1 0x40 MSTORE POP DUP2 ADD SWAP1 PUSH2 0x11E1 SWAP2 SWAP1 PUSH2 0x25F5 JUMP JUMPDEST PUSH1 0x22 SSTORE POP POP TIMESTAMP PUSH1 0x20 SSTORE JUMP JUMPDEST PUSH1 0x0 DUP1 DUP5 PUSH8 0xFFFFFFFFFFFFFFFF DUP2 GT ISZERO PUSH2 0x1208 JUMPI PUSH2 0x1208 PUSH2 0x20D1 JUMP JUMPDEST PUSH1 0x40 MLOAD SWAP1 DUP1 DUP3 MSTORE DUP1 PUSH1 0x20 MUL PUSH1 0x20 ADD DUP3 ADD PUSH1 0x40 MSTORE DUP1 ISZERO PUSH2 0x1231 JUMPI DUP2 PUSH1 0x20 ADD PUSH1 0x20 DUP3 MUL DUP1 CALLDATASIZE DUP4 CALLDATACOPY ADD SWAP1 POP JUMPDEST POP SWAP1 POP PUSH1 0x0 DUP6 PUSH8 0xFFFFFFFFFFFFFFFF DUP2 GT ISZERO PUSH2 0x124F JUMPI PUSH2 0x124F PUSH2 0x20D1 JUMP JUMPDEST PUSH1 0x40 MLOAD SWAP1 DUP1 DUP3 MSTORE DUP1 PUSH1 0x20 MUL PUSH1 0x20 ADD DUP3 ADD PUSH1 0x40 MSTORE DUP1 ISZERO PUSH2 0x1278 JUMPI DUP2 PUSH1 0x20 ADD PUSH1 0x20 DUP3 MUL DUP1 CALLDATASIZE DUP4 CALLDATACOPY ADD SWAP1 POP JUMPDEST POP SWAP1 POP PUSH1 0x0 DUP8 JUMPDEST PUSH2 0x1289 DUP9 DUP11 PUSH2 0x260E JUMP JUMPDEST DUP2 LT ISZERO PUSH2 0x12F5 JUMPI DUP1 DUP5 DUP4 DUP2 MLOAD DUP2 LT PUSH2 0x12A3 JUMPI PUSH2 0x12A3 PUSH2 0x242E JUMP JUMPDEST PUSH1 0x20 SWAP1 DUP2 MUL SWAP2 SWAP1 SWAP2 ADD ADD MSTORE PUSH2 0x12B8 DUP9 DUP8 PUSH2 0x2584 JUMP JUMPDEST DUP4 DUP4 DUP2 MLOAD DUP2 LT PUSH2 0x12CA JUMPI PUSH2 0x12CA PUSH2 0x242E JUMP JUMPDEST PUSH1 0x20 SWAP1 DUP2 MUL SWAP2 SWAP1 SWAP2 ADD ADD MSTORE DUP2 PUSH2 0x12DF DUP2 PUSH2 0x245A JUMP JUMPDEST SWAP3 POP POP DUP1 DUP1 PUSH2 0x12ED SWAP1 PUSH2 0x245A JUMP JUMPDEST SWAP2 POP POP PUSH2 0x127F JUMP JUMPDEST POP PUSH2 0x1302 DUP10 DUP5 DUP9 DUP6 PUSH2 0x8A2 JUMP JUMPDEST POP PUSH1 0x1 SWAP10 SWAP9 POP POP POP POP POP POP POP POP POP JUMP JUMPDEST PUSH1 0x0 DUP4 DUP2 MSTORE PUSH1 0x1B PUSH1 0x20 SWAP1 DUP2 MSTORE PUSH1 0x40 DUP1 DUP4 KECCAK256 DUP6 DUP5 MSTORE DUP3 MSTORE DUP1 DUP4 KECCAK256 PUSH1 0x1 PUSH1 0x1 PUSH1 0xA0 SHL SUB DUP6 AND DUP5 MSTORE SWAP1 SWAP2 MSTORE DUP2 KECCAK256 SLOAD DUP1 PUSH2 0x134C JUMPI PUSH1 0x0 SWAP2 POP POP PUSH2 0x10EC JUMP JUMPDEST PUSH1 0x0 DUP6 DUP2 MSTORE PUSH1 0x19 PUSH1 0x20 SWAP1 DUP2 MSTORE PUSH1 0x40 DUP1 DUP4 KECCAK256 DUP8 DUP5 MSTORE DUP3 MSTORE DUP1 DUP4 KECCAK256 SLOAD DUP9 DUP5 MSTORE PUSH1 0x1A DUP4 MSTORE DUP2 DUP5 KECCAK256 DUP9 DUP6 MSTORE SWAP1 SWAP3 MSTORE DUP1 DUP4 KECCAK256 SLOAD PUSH1 0x3 SLOAD SWAP2 MLOAD PUSH4 0x70A08231 PUSH1 0xE0 SHL DUP2 MSTORE ADDRESS PUSH1 0x4 DUP3 ADD MSTORE SWAP3 SWAP4 SWAP1 SWAP3 SWAP1 SWAP2 PUSH1 0x1 PUSH1 0x1 PUSH1 0xA0 SHL SUB AND SWAP1 PUSH4 0x70A08231 SWAP1 PUSH1 0x24 ADD PUSH1 0x20 PUSH1 0x40 MLOAD DUP1 DUP4 SUB DUP2 DUP7 GAS STATICCALL ISZERO DUP1 ISZERO PUSH2 0x13C5 JUMPI RETURNDATASIZE PUSH1 0x0 DUP1 RETURNDATACOPY RETURNDATASIZE PUSH1 0x0 REVERT JUMPDEST POP POP POP POP PUSH1 0x40 MLOAD RETURNDATASIZE PUSH1 0x1F NOT PUSH1 0x1F DUP3 ADD AND DUP3 ADD DUP1 PUSH1 0x40 MSTORE POP DUP2 ADD SWAP1 PUSH2 0x13E9 SWAP2 SWAP1 PUSH2 0x25F5 JUMP JUMPDEST SWAP1 POP DUP1 DUP3 GT ISZERO PUSH2 0x13F7 JUMPI DUP1 SWAP2 POP JUMPDEST DUP3 PUSH2 0x1402 DUP6 DUP5 PUSH2 0x2565 JUMP JUMPDEST PUSH2 0x140C SWAP2 SWAP1 PUSH2 0x2584 JUMP JUMPDEST SWAP5 POP POP POP POP POP PUSH2 0x10EC JUMP JUMPDEST PUSH1 0x0 DUP4 DUP2 MSTORE PUSH1 0x1B PUSH1 0x20 SWAP1 DUP2 MSTORE PUSH1 0x40 DUP1 DUP4 KECCAK256 DUP6 DUP5 MSTORE DUP3 MSTORE DUP1 DUP4 KECCAK256 PUSH1 0x1 PUSH1 0x1 PUSH1 0xA0 SHL SUB DUP6 AND DUP5 MSTORE SWAP1 SWAP2 MSTORE DUP2 KECCAK256 SLOAD DUP1 PUSH2 0x144F JUMPI PUSH2 0x144F PUSH2 0x25C8 JUMP JUMPDEST PUSH2 0x145A DUP6 DUP6 DUP6 PUSH2 0x1829 JUMP JUMPDEST SWAP6 SWAP5 POP POP POP POP POP JUMP JUMPDEST PUSH2 0x146C CALLER PUSH2 0x14F8 JUMP JUMPDEST JUMP JUMPDEST PUSH1 0x3 SLOAD PUSH1 0x40 MLOAD PUSH4 0x70A08231 PUSH1 0xE0 SHL DUP2 MSTORE ADDRESS PUSH1 0x4 DUP3 ADD MSTORE PUSH1 0x0 SWAP2 DUP3 SWAP2 PUSH1 0x1 PUSH1 0x1 PUSH1 0xA0 SHL SUB SWAP1 SWAP2 AND SWAP1 PUSH4 0x70A08231 SWAP1 PUSH1 0x24 ADD PUSH1 0x20 PUSH1 0x40 MLOAD DUP1 DUP4 SUB DUP2 DUP7 GAS STATICCALL ISZERO DUP1 ISZERO PUSH2 0x14BB JUMPI RETURNDATASIZE PUSH1 0x0 DUP1 RETURNDATACOPY RETURNDATASIZE PUSH1 0x0 REVERT JUMPDEST POP POP POP POP PUSH1 0x40 MLOAD RETURNDATASIZE PUSH1 0x1F NOT PUSH1 0x1F DUP3 ADD AND DUP3 ADD DUP1 PUSH1 0x40 MSTORE POP DUP2 ADD SWAP1 PUSH2 0x14DF SWAP2 SWAP1 PUSH2 0x25F5 JUMP JUMPDEST SWAP1 POP PUSH1 0xD SLOAD DUP2 GT ISZERO PUSH2 0x14F3 JUMPI POP POP PUSH1 0xD SLOAD SWAP1 JUMP JUMPDEST SWAP2 SWAP1 POP JUMP JUMPDEST PUSH1 0x1 PUSH1 0x1 PUSH1 0xA0 SHL SUB DUP2 AND PUSH1 0x0 SWAP1 DUP2 MSTORE PUSH1 0x1E PUSH1 0x20 SWAP1 DUP2 MSTORE PUSH1 0x40 DUP1 DUP4 KECCAK256 SLOAD PUSH1 0x1D SWAP1 SWAP3 MSTORE SWAP1 SWAP2 KECCAK256 SLOAD DUP2 PUSH2 0x1527 JUMPI PUSH1 0x1 SWAP2 POP JUMPDEST DUP1 PUSH2 0x1530 JUMPI POP PUSH1 0x1 JUMPDEST PUSH1 0x1 DUP2 JUMPDEST PUSH1 0xE SLOAD DUP2 GT PUSH2 0x1620 JUMPI PUSH1 0xE SLOAD DUP2 EQ PUSH2 0x1550 JUMPI PUSH1 0x10 SLOAD SWAP2 POP PUSH2 0x1562 JUMP JUMPDEST PUSH1 0x1 PUSH1 0xF SLOAD PUSH2 0x155F SWAP2 SWAP1 PUSH2 0x25DE JUMP JUMPDEST SWAP2 POP JUMPDEST PUSH1 0x0 PUSH2 0x156E DUP6 DUP5 PUSH2 0x25DE JUMP JUMPDEST PUSH2 0x1579 SWAP1 PUSH1 0x1 PUSH2 0x260E JUMP JUMPDEST PUSH8 0xFFFFFFFFFFFFFFFF DUP2 GT ISZERO PUSH2 0x1591 JUMPI PUSH2 0x1591 PUSH2 0x20D1 JUMP JUMPDEST PUSH1 0x40 MLOAD SWAP1 DUP1 DUP3 MSTORE DUP1 PUSH1 0x20 MUL PUSH1 0x20 ADD DUP3 ADD PUSH1 0x40 MSTORE DUP1 ISZERO PUSH2 0x15BA JUMPI DUP2 PUSH1 0x20 ADD PUSH1 0x20 DUP3 MUL DUP1 CALLDATASIZE DUP4 CALLDATACOPY ADD SWAP1 POP JUMPDEST POP SWAP1 POP DUP5 JUMPDEST DUP4 DUP2 GT PUSH2 0x15FF JUMPI DUP1 DUP3 PUSH2 0x15D2 DUP9 DUP4 PUSH2 0x25DE JUMP JUMPDEST DUP2 MLOAD DUP2 LT PUSH2 0x15E2 JUMPI PUSH2 0x15E2 PUSH2 0x242E JUMP JUMPDEST PUSH1 0x20 SWAP1 DUP2 MUL SWAP2 SWAP1 SWAP2 ADD ADD MSTORE DUP1 PUSH2 0x15F7 DUP2 PUSH2 0x245A JUMP JUMPDEST SWAP2 POP POP PUSH2 0x15BF JUMP JUMPDEST POP PUSH2 0x160B DUP3 DUP3 DUP9 PUSH2 0xFCD JUMP JUMPDEST POP POP DUP1 DUP1 PUSH2 0x1618 SWAP1 PUSH2 0x245A JUMP JUMPDEST SWAP2 POP POP PUSH2 0x1534 JUMP JUMPDEST POP POP PUSH1 0xF SLOAD PUSH1 0x1 PUSH1 0x1 PUSH1 0xA0 SHL SUB SWAP1 SWAP4 AND PUSH1 0x0 SWAP1 DUP2 MSTORE PUSH1 0x1E PUSH1 0x20 MSTORE PUSH1 0x40 SWAP1 KECCAK256 SWAP3 DUP4 SSTORE POP POP PUSH1 0xE SLOAD SWAP1 SSTORE JUMP JUMPDEST PUSH1 0x0 DUP1 PUSH2 0x1657 DUP4 DUP6 PUSH2 0x260E JUMP JUMPDEST SWAP1 POP DUP4 DUP2 LT ISZERO PUSH2 0xF9B JUMPI PUSH1 0x40 MLOAD PUSH3 0x461BCD PUSH1 0xE5 SHL DUP2 MSTORE PUSH1 0x20 PUSH1 0x4 DUP3 ADD MSTORE PUSH1 0xC PUSH1 0x24 DUP3 ADD MSTORE PUSH12 0x416464206F766572666C6F77 PUSH1 0xA0 SHL PUSH1 0x44 DUP3 ADD MSTORE PUSH1 0x64 ADD PUSH2 0x90A JUMP JUMPDEST PUSH1 0x0 DUP4 DUP2 MSTORE PUSH1 0x1B PUSH1 0x20 SWAP1 DUP2 MSTORE PUSH1 0x40 DUP1 DUP4 KECCAK256 DUP6 DUP5 MSTORE DUP3 MSTORE DUP1 DUP4 KECCAK256 PUSH1 0x1 PUSH1 0x1 PUSH1 0xA0 SHL SUB DUP9 AND DUP5 MSTORE SWAP1 SWAP2 MSTORE SWAP1 KECCAK256 SLOAD PUSH2 0x1765 JUMPI PUSH1 0x1 PUSH1 0x1 PUSH1 0xA0 SHL SUB DUP5 AND PUSH1 0x0 SWAP1 DUP2 MSTORE PUSH1 0x1C PUSH1 0x20 SWAP1 DUP2 MSTORE PUSH1 0x40 DUP1 DUP4 KECCAK256 DUP7 DUP5 MSTORE DUP3 MSTORE DUP1 DUP4 KECCAK256 DUP1 SLOAD PUSH1 0x1 DUP2 DUP2 ADD DUP4 SSTORE SWAP2 DUP6 MSTORE DUP4 DUP6 KECCAK256 ADD DUP7 SWAP1 SSTORE DUP7 DUP5 MSTORE PUSH1 0x16 DUP4 MSTORE DUP2 DUP5 KECCAK256 DUP7 DUP6 MSTORE SWAP1 SWAP3 MSTORE DUP3 KECCAK256 DUP1 SLOAD SWAP2 SWAP3 SWAP1 SWAP2 PUSH2 0x1720 SWAP1 DUP5 SWAP1 PUSH2 0x260E JUMP JUMPDEST SWAP1 SWAP2 SSTORE POP POP PUSH1 0x0 DUP4 DUP2 MSTORE PUSH1 0x17 PUSH1 0x20 SWAP1 DUP2 MSTORE PUSH1 0x40 DUP1 DUP4 KECCAK256 DUP6 DUP5 MSTORE DUP3 MSTORE DUP3 KECCAK256 DUP1 SLOAD PUSH1 0x1 DUP2 ADD DUP3 SSTORE SWAP1 DUP4 MSTORE SWAP2 KECCAK256 ADD DUP1 SLOAD PUSH1 0x1 PUSH1 0x1 PUSH1 0xA0 SHL SUB NOT AND PUSH1 0x1 PUSH1 0x1 PUSH1 0xA0 SHL SUB DUP7 AND OR SWAP1 SSTORE JUMPDEST PUSH1 0x0 DUP4 DUP2 MSTORE PUSH1 0x1B PUSH1 0x20 SWAP1 DUP2 MSTORE PUSH1 0x40 DUP1 DUP4 KECCAK256 DUP6 DUP5 MSTORE DUP3 MSTORE DUP1 DUP4 KECCAK256 PUSH1 0x1 PUSH1 0x1 PUSH1 0xA0 SHL SUB DUP9 AND DUP5 MSTORE SWAP1 SWAP2 MSTORE DUP2 KECCAK256 DUP1 SLOAD DUP4 SWAP3 SWAP1 PUSH2 0x179F SWAP1 DUP5 SWAP1 PUSH2 0x260E JUMP JUMPDEST SWAP1 SWAP2 SSTORE POP POP PUSH1 0x0 DUP4 DUP2 MSTORE PUSH1 0x19 PUSH1 0x20 SWAP1 DUP2 MSTORE PUSH1 0x40 DUP1 DUP4 KECCAK256 DUP6 DUP5 MSTORE SWAP1 SWAP2 MSTORE DUP2 KECCAK256 DUP1 SLOAD DUP4 SWAP3 SWAP1 PUSH2 0x17CD SWAP1 DUP5 SWAP1 PUSH2 0x260E JUMP JUMPDEST SWAP1 SWAP2 SSTORE POP POP PUSH1 0x0 DUP4 DUP2 MSTORE PUSH1 0x18 PUSH1 0x20 SWAP1 DUP2 MSTORE PUSH1 0x40 DUP1 DUP4 KECCAK256 DUP6 DUP5 MSTORE SWAP1 SWAP2 MSTORE DUP2 KECCAK256 DUP1 SLOAD DUP4 SWAP3 SWAP1 PUSH2 0x17FB SWAP1 DUP5 SWAP1 PUSH2 0x260E JUMP JUMPDEST SWAP3 POP POP DUP2 SWAP1 SSTORE POP DUP1 PUSH1 0x13 PUSH1 0x0 DUP3 DUP3 SLOAD PUSH2 0x1814 SWAP2 SWAP1 PUSH2 0x260E JUMP JUMPDEST SWAP1 SWAP2 SSTORE POP PUSH2 0x1822 SWAP1 POP PUSH2 0x197E JUMP JUMPDEST POP POP POP POP POP JUMP JUMPDEST PUSH1 0x0 PUSH2 0x1833 PUSH2 0x197E JUMP JUMPDEST PUSH1 0xE SLOAD DUP5 LT ISZERO PUSH2 0x184F JUMPI PUSH2 0x1848 DUP5 DUP5 DUP5 PUSH2 0x1B32 JUMP JUMPDEST SWAP1 POP PUSH2 0x10EC JUMP JUMPDEST PUSH1 0xE SLOAD DUP5 EQ ISZERO PUSH2 0x10EC JUMPI PUSH1 0xF SLOAD DUP4 LT ISZERO PUSH2 0x10EC JUMPI PUSH2 0xCB2 DUP5 DUP5 DUP5 PUSH2 0x1B32 JUMP JUMPDEST PUSH1 0x0 DUP4 DUP2 MSTORE PUSH1 0x1B PUSH1 0x20 SWAP1 DUP2 MSTORE PUSH1 0x40 DUP1 DUP4 KECCAK256 DUP6 DUP5 MSTORE DUP3 MSTORE DUP1 DUP4 KECCAK256 PUSH1 0x1 PUSH1 0x1 PUSH1 0xA0 SHL SUB DUP6 AND DUP5 MSTORE SWAP1 SWAP2 MSTORE DUP2 KECCAK256 SLOAD DUP1 PUSH2 0x18A7 JUMPI PUSH1 0x0 SWAP2 POP PUSH2 0x1973 JUMP JUMPDEST PUSH2 0x18B2 DUP6 DUP6 DUP6 PUSH2 0x1312 JUMP JUMPDEST PUSH1 0x0 DUP7 DUP2 MSTORE PUSH1 0x1B PUSH1 0x20 SWAP1 DUP2 MSTORE PUSH1 0x40 DUP1 DUP4 KECCAK256 DUP9 DUP5 MSTORE DUP3 MSTORE DUP1 DUP4 KECCAK256 PUSH1 0x1 PUSH1 0x1 PUSH1 0xA0 SHL SUB DUP9 AND DUP5 MSTORE DUP3 MSTORE DUP1 DUP4 KECCAK256 DUP4 SWAP1 SSTORE DUP9 DUP4 MSTORE PUSH1 0x19 DUP3 MSTORE DUP1 DUP4 KECCAK256 DUP9 DUP5 MSTORE SWAP1 SWAP2 MSTORE SWAP1 KECCAK256 SLOAD SWAP1 SWAP3 POP PUSH2 0x18FF SWAP1 DUP3 PUSH2 0x1D41 JUMP JUMPDEST PUSH1 0x0 DUP7 DUP2 MSTORE PUSH1 0x19 PUSH1 0x20 SWAP1 DUP2 MSTORE PUSH1 0x40 DUP1 DUP4 KECCAK256 DUP9 DUP5 MSTORE DUP3 MSTORE DUP1 DUP4 KECCAK256 SWAP4 SWAP1 SWAP4 SSTORE DUP8 DUP3 MSTORE PUSH1 0x1A DUP2 MSTORE DUP3 DUP3 KECCAK256 DUP8 DUP4 MSTORE SWAP1 MSTORE KECCAK256 SLOAD PUSH2 0x1937 SWAP1 DUP4 PUSH2 0x1D41 JUMP JUMPDEST PUSH1 0x0 DUP7 DUP2 MSTORE PUSH1 0x1A PUSH1 0x20 SWAP1 DUP2 MSTORE PUSH1 0x40 DUP1 DUP4 KECCAK256 DUP9 DUP5 MSTORE SWAP1 SWAP2 MSTORE SWAP1 KECCAK256 SSTORE PUSH2 0x195C DUP3 PUSH1 0x4 PUSH2 0x2565 JUMP JUMPDEST PUSH1 0x14 PUSH1 0x0 DUP3 DUP3 SLOAD PUSH2 0x196D SWAP2 SWAP1 PUSH2 0x260E JUMP JUMPDEST SWAP1 SWAP2 SSTORE POP POP JUMPDEST PUSH2 0x145A DUP3 PUSH1 0x4 PUSH2 0x2565 JUMP JUMPDEST PUSH1 0x12 SLOAD TIMESTAMP SWAP1 DUP2 LT PUSH2 0x1B2F JUMPI PUSH1 0x10 SLOAD PUSH1 0xF SLOAD LT PUSH2 0x1A19 JUMPI PUSH1 0x1 PUSH1 0xE PUSH1 0x0 DUP3 DUP3 SLOAD PUSH2 0x19A7 SWAP2 SWAP1 PUSH2 0x260E JUMP JUMPDEST SWAP1 SWAP2 SSTORE POP POP PUSH1 0x0 PUSH1 0xF SSTORE PUSH2 0x19B9 PUSH2 0xFA4 JUMP JUMPDEST PUSH1 0xD DUP2 SWAP1 SSTORE PUSH1 0xE DUP1 SLOAD PUSH1 0x0 SWAP1 DUP2 MSTORE PUSH1 0x15 PUSH1 0x20 SWAP1 DUP2 MSTORE PUSH1 0x40 SWAP2 DUP3 SWAP1 KECCAK256 DUP5 SWAP1 SSTORE SWAP2 SLOAD PUSH1 0x13 SLOAD DUP3 MLOAD SWAP2 DUP3 MSTORE SWAP3 DUP2 ADD SWAP4 SWAP1 SWAP4 MSTORE DUP3 ADD MSTORE PUSH32 0x9D472BCF372FCE01FD875C3296E8E5AE0A08BFCA42DEDAC19E202271CE8F39C5 SWAP1 PUSH1 0x60 ADD PUSH1 0x40 MLOAD DUP1 SWAP2 SUB SWAP1 LOG1 JUMPDEST PUSH2 0x1A21 PUSH2 0x1D8D JUMP JUMPDEST PUSH1 0x1 PUSH1 0xF PUSH1 0x0 DUP3 DUP3 SLOAD PUSH2 0x1A34 SWAP2 SWAP1 PUSH2 0x260E JUMP JUMPDEST SWAP1 SWAP2 SSTORE POP POP PUSH1 0x11 SLOAD PUSH2 0x1A46 SWAP1 DUP3 PUSH2 0x260E JUMP JUMPDEST PUSH1 0x12 SSTORE PUSH2 0x1A51 PUSH2 0x146E JUMP JUMPDEST PUSH1 0xD DUP2 SWAP1 SSTORE PUSH1 0xE DUP1 SLOAD PUSH1 0x0 SWAP1 DUP2 MSTORE PUSH1 0x1A PUSH1 0x20 SWAP1 DUP2 MSTORE PUSH1 0x40 DUP1 DUP4 KECCAK256 PUSH1 0xF DUP1 SLOAD DUP6 MSTORE SWAP3 MSTORE DUP3 KECCAK256 SWAP4 SWAP1 SWAP4 SSTORE SWAP1 SLOAD SWAP2 SLOAD PUSH2 0x1A89 SWAP1 PUSH1 0x1 SWAP1 PUSH2 0x25DE JUMP JUMPDEST SWAP1 POP PUSH1 0xF SLOAD PUSH1 0x1 EQ ISZERO PUSH2 0x1AAD JUMPI PUSH1 0x1 PUSH1 0xE SLOAD PUSH2 0x1AA5 SWAP2 SWAP1 PUSH2 0x25DE JUMP JUMPDEST SWAP2 POP PUSH1 0x10 SLOAD SWAP1 POP JUMPDEST PUSH1 0xE SLOAD PUSH1 0xF SLOAD PUSH1 0x12 SLOAD PUSH1 0x0 DUP6 DUP2 MSTORE PUSH1 0x18 PUSH1 0x20 SWAP1 DUP2 MSTORE PUSH1 0x40 DUP1 DUP4 KECCAK256 DUP8 DUP5 MSTORE DUP3 MSTORE DUP1 DUP4 KECCAK256 SLOAD DUP9 DUP5 MSTORE PUSH1 0x16 DUP4 MSTORE DUP2 DUP5 KECCAK256 DUP9 DUP6 MSTORE DUP4 MSTORE SWAP3 DUP2 SWAP1 KECCAK256 SLOAD DUP2 MLOAD SWAP7 DUP8 MSTORE SWAP2 DUP7 ADD SWAP5 SWAP1 SWAP5 MSTORE DUP5 DUP5 ADD SWAP3 SWAP1 SWAP3 MSTORE PUSH1 0x60 DUP5 ADD MSTORE PUSH1 0x80 DUP4 ADD MSTORE MLOAD PUSH32 0xF0047F88D9BCE548F6A3B5F02AAE9964BCB69AFB1848B6ACAAB809A2B0629AAF SWAP2 DUP2 SWAP1 SUB PUSH1 0xA0 ADD SWAP1 LOG1 POP POP JUMPDEST POP JUMP JUMPDEST PUSH1 0x0 DUP4 DUP2 MSTORE PUSH1 0x1B PUSH1 0x20 SWAP1 DUP2 MSTORE PUSH1 0x40 DUP1 DUP4 KECCAK256 DUP6 DUP5 MSTORE DUP3 MSTORE DUP1 DUP4 KECCAK256 PUSH1 0x1 PUSH1 0x1 PUSH1 0xA0 SHL SUB DUP6 AND DUP5 MSTORE SWAP1 SWAP2 MSTORE DUP2 KECCAK256 SLOAD DUP1 PUSH2 0x1B6B JUMPI PUSH1 0x0 SWAP2 POP PUSH2 0x1973 JUMP JUMPDEST PUSH2 0x1B76 DUP6 DUP6 DUP6 PUSH2 0x1312 JUMP JUMPDEST PUSH1 0x0 DUP7 DUP2 MSTORE PUSH1 0x1B PUSH1 0x20 SWAP1 DUP2 MSTORE PUSH1 0x40 DUP1 DUP4 KECCAK256 DUP9 DUP5 MSTORE DUP3 MSTORE DUP1 DUP4 KECCAK256 PUSH1 0x1 PUSH1 0x1 PUSH1 0xA0 SHL SUB DUP9 AND DUP5 MSTORE DUP3 MSTORE DUP1 DUP4 KECCAK256 DUP4 SWAP1 SSTORE DUP9 DUP4 MSTORE PUSH1 0x19 DUP3 MSTORE DUP1 DUP4 KECCAK256 DUP9 DUP5 MSTORE SWAP1 SWAP2 MSTORE SWAP1 KECCAK256 SLOAD SWAP1 SWAP3 POP PUSH2 0x1BC3 SWAP1 DUP3 PUSH2 0x1D41 JUMP JUMPDEST PUSH1 0x0 DUP7 DUP2 MSTORE PUSH1 0x19 PUSH1 0x20 SWAP1 DUP2 MSTORE PUSH1 0x40 DUP1 DUP4 KECCAK256 DUP9 DUP5 MSTORE DUP3 MSTORE DUP1 DUP4 KECCAK256 SWAP4 SWAP1 SWAP4 SSTORE DUP8 DUP3 MSTORE PUSH1 0x1A DUP2 MSTORE DUP3 DUP3 KECCAK256 DUP8 DUP4 MSTORE SWAP1 MSTORE KECCAK256 SLOAD PUSH2 0x1BFB SWAP1 DUP4 PUSH2 0x1D41 JUMP JUMPDEST PUSH1 0x0 DUP7 DUP2 MSTORE PUSH1 0x1A PUSH1 0x20 SWAP1 DUP2 MSTORE PUSH1 0x40 DUP1 DUP4 KECCAK256 DUP9 DUP5 MSTORE SWAP1 SWAP2 MSTORE SWAP1 KECCAK256 SSTORE PUSH2 0x1C20 DUP3 PUSH1 0x4 PUSH2 0x2565 JUMP JUMPDEST PUSH1 0x14 PUSH1 0x0 DUP3 DUP3 SLOAD PUSH2 0x1C31 SWAP2 SWAP1 PUSH2 0x260E JUMP JUMPDEST SWAP1 SWAP2 SSTORE POP POP PUSH1 0x1 PUSH1 0x1 PUSH1 0xA0 SHL SUB DUP4 AND CALLER PUSH32 0x7F3FA649AA08DBAFF5B36B865F9585AE5B83BCB35185C846035019B63967B6E9 DUP8 DUP8 PUSH2 0x1C6F DUP8 PUSH1 0x4 PUSH2 0x2565 JUMP JUMPDEST PUSH1 0x0 DUP12 DUP2 MSTORE PUSH1 0x1A PUSH1 0x20 SWAP1 DUP2 MSTORE PUSH1 0x40 DUP1 DUP4 KECCAK256 DUP14 DUP5 MSTORE DUP3 MSTORE SWAP2 DUP3 SWAP1 KECCAK256 SLOAD DUP3 MLOAD SWAP6 DUP7 MSTORE SWAP1 DUP6 ADD SWAP4 SWAP1 SWAP4 MSTORE DUP4 ADD MSTORE PUSH1 0x60 DUP3 ADD MSTORE PUSH1 0x80 ADD PUSH1 0x40 MLOAD DUP1 SWAP2 SUB SWAP1 LOG3 PUSH1 0x3 SLOAD PUSH1 0x1 PUSH1 0x1 PUSH1 0xA0 SHL SUB AND PUSH4 0xA9059CBB DUP5 PUSH2 0x1CC6 DUP6 PUSH1 0x4 PUSH2 0x2565 JUMP JUMPDEST PUSH1 0x40 MLOAD PUSH1 0x1 PUSH1 0x1 PUSH1 0xE0 SHL SUB NOT PUSH1 0xE0 DUP6 SWAP1 SHL AND DUP2 MSTORE PUSH1 0x1 PUSH1 0x1 PUSH1 0xA0 SHL SUB SWAP1 SWAP3 AND PUSH1 0x4 DUP4 ADD MSTORE PUSH1 0x24 DUP3 ADD MSTORE PUSH1 0x44 ADD PUSH1 0x20 PUSH1 0x40 MLOAD DUP1 DUP4 SUB DUP2 PUSH1 0x0 DUP8 GAS CALL ISZERO DUP1 ISZERO PUSH2 0x1D11 JUMPI RETURNDATASIZE PUSH1 0x0 DUP1 RETURNDATACOPY RETURNDATASIZE PUSH1 0x0 REVERT JUMPDEST POP POP POP POP PUSH1 0x40 MLOAD RETURNDATASIZE PUSH1 0x1F NOT PUSH1 0x1F DUP3 ADD AND DUP3 ADD DUP1 PUSH1 0x40 MSTORE POP DUP2 ADD SWAP1 PUSH2 0x1D35 SWAP2 SWAP1 PUSH2 0x25A6 JUMP JUMPDEST POP PUSH2 0x145A DUP3 PUSH1 0x4 PUSH2 0x2565 JUMP JUMPDEST PUSH1 0x0 DUP2 DUP4 LT ISZERO PUSH2 0x1D83 JUMPI PUSH1 0x40 MLOAD PUSH3 0x461BCD PUSH1 0xE5 SHL DUP2 MSTORE PUSH1 0x20 PUSH1 0x4 DUP3 ADD MSTORE PUSH1 0xD PUSH1 0x24 DUP3 ADD MSTORE PUSH13 0x53756220756E646572666C6F77 PUSH1 0x98 SHL PUSH1 0x44 DUP3 ADD MSTORE PUSH1 0x64 ADD PUSH2 0x90A JUMP JUMPDEST PUSH2 0xF9B DUP3 DUP5 PUSH2 0x25DE JUMP JUMPDEST PUSH1 0x1F SLOAD PUSH1 0x40 DUP1 MLOAD PUSH4 0x6055F5F PUSH1 0xE5 SHL DUP2 MSTORE SWAP1 MLOAD PUSH1 0x0 SWAP3 PUSH1 0x1 PUSH1 0x1 PUSH1 0xA0 SHL SUB AND SWAP2 PUSH4 0xC0ABEBE0 SWAP2 PUSH1 0x4 DUP1 DUP4 ADD SWAP3 PUSH1 0x20 SWAP3 SWAP2 SWAP1 DUP3 SWAP1 SUB ADD DUP2 DUP7 GAS STATICCALL ISZERO DUP1 ISZERO PUSH2 0x1DD7 JUMPI RETURNDATASIZE PUSH1 0x0 DUP1 RETURNDATACOPY RETURNDATASIZE PUSH1 0x0 REVERT JUMPDEST POP POP POP POP PUSH1 0x40 MLOAD RETURNDATASIZE PUSH1 0x1F NOT PUSH1 0x1F DUP3 ADD AND DUP3 ADD DUP1 PUSH1 0x40 MSTORE POP DUP2 ADD SWAP1 PUSH2 0x1DFB SWAP2 SWAP1 PUSH2 0x25F5 JUMP JUMPDEST SWAP1 POP PUSH1 0x0 PUSH1 0x22 SLOAD DUP3 PUSH2 0x1E0D SWAP2 SWAP1 PUSH2 0x25DE JUMP JUMPDEST SWAP1 POP PUSH1 0x0 PUSH1 0x1F PUSH1 0x0 SWAP1 SLOAD SWAP1 PUSH2 0x100 EXP SWAP1 DIV PUSH1 0x1 PUSH1 0x1 PUSH1 0xA0 SHL SUB AND PUSH1 0x1 PUSH1 0x1 PUSH1 0xA0 SHL SUB AND PUSH4 0x490203A7 PUSH1 0x40 MLOAD DUP2 PUSH4 0xFFFFFFFF AND PUSH1 0xE0 SHL DUP2 MSTORE PUSH1 0x4 ADD PUSH1 0x20 PUSH1 0x40 MLOAD DUP1 DUP4 SUB DUP2 DUP7 GAS STATICCALL ISZERO DUP1 ISZERO PUSH2 0x1E64 JUMPI RETURNDATASIZE PUSH1 0x0 DUP1 RETURNDATACOPY RETURNDATASIZE PUSH1 0x0 REVERT JUMPDEST POP POP POP POP PUSH1 0x40 MLOAD RETURNDATASIZE PUSH1 0x1F NOT PUSH1 0x1F DUP3 ADD AND DUP3 ADD DUP1 PUSH1 0x40 MSTORE POP DUP2 ADD SWAP1 PUSH2 0x1E88 SWAP2 SWAP1 PUSH2 0x25F5 JUMP JUMPDEST PUSH2 0x1E92 SWAP1 DUP4 PUSH2 0x2584 JUMP JUMPDEST SWAP1 POP DUP1 ISZERO PUSH2 0x1F86 JUMPI PUSH2 0x870 PUSH1 0x0 PUSH2 0x1EA9 DUP3 DUP5 PUSH2 0x2565 JUMP JUMPDEST SWAP1 POP PUSH1 0x11 SLOAD DUP2 LT ISZERO PUSH2 0x1F26 JUMPI PUSH1 0x0 PUSH2 0x1ED7 DUP3 PUSH2 0x1ED1 PUSH1 0x64 PUSH1 0x11 SLOAD PUSH2 0x1FB8 SWAP1 SWAP2 SWAP1 PUSH4 0xFFFFFFFF AND JUMP JUMPDEST SWAP1 PUSH2 0x201D JUMP JUMPDEST SWAP1 POP PUSH1 0x0 PUSH2 0x1EF2 PUSH2 0x3E8 PUSH2 0x1EEC DUP5 PUSH1 0x64 PUSH2 0x1D41 JUMP JUMPDEST SWAP1 PUSH2 0x2064 JUMP JUMPDEST SWAP1 POP PUSH2 0x1F1B PUSH2 0x1F12 PUSH2 0x7D0 PUSH2 0x1ED1 DUP5 PUSH1 0x11 SLOAD PUSH2 0x1FB8 SWAP1 SWAP2 SWAP1 PUSH4 0xFFFFFFFF AND JUMP JUMPDEST PUSH1 0x11 SLOAD SWAP1 PUSH2 0x164A JUMP JUMPDEST PUSH1 0x11 SSTORE POP PUSH2 0x1F7F SWAP1 POP JUMP JUMPDEST PUSH1 0x11 SLOAD PUSH1 0x0 SWAP1 PUSH2 0x1F3B SWAP1 PUSH2 0x1ED1 DUP5 PUSH1 0x64 PUSH2 0x1FB8 JUMP JUMPDEST SWAP1 POP PUSH1 0x0 PUSH2 0x1F50 PUSH2 0x3E8 PUSH2 0x1EEC DUP5 PUSH1 0x64 PUSH2 0x1D41 JUMP JUMPDEST SWAP1 POP PUSH2 0x1F79 PUSH2 0x1F70 PUSH2 0x7D0 PUSH2 0x1ED1 DUP5 PUSH1 0x11 SLOAD PUSH2 0x1FB8 SWAP1 SWAP2 SWAP1 PUSH4 0xFFFFFFFF AND JUMP JUMPDEST PUSH1 0x11 SLOAD SWAP1 PUSH2 0x1D41 JUMP JUMPDEST PUSH1 0x11 SSTORE POP POP JUMPDEST POP POP PUSH2 0x1F98 JUMP JUMPDEST PUSH1 0x11 SLOAD PUSH2 0x1F94 SWAP1 PUSH1 0x2 PUSH2 0x2565 JUMP JUMPDEST PUSH1 0x11 SSTORE JUMPDEST PUSH3 0x1BAF80 PUSH1 0x11 SLOAD GT ISZERO PUSH2 0x1FAD JUMPI PUSH3 0x93A80 PUSH1 0x11 SSTORE JUMPDEST POP POP PUSH1 0x22 SSTORE TIMESTAMP PUSH1 0x20 SSTORE JUMP JUMPDEST PUSH1 0x0 DUP3 PUSH2 0x1FC7 JUMPI POP PUSH1 0x0 PUSH2 0xF9E JUMP JUMPDEST PUSH1 0x0 PUSH2 0x1FD3 DUP4 DUP6 PUSH2 0x2565 JUMP JUMPDEST SWAP1 POP DUP3 PUSH2 0x1FE0 DUP6 DUP4 PUSH2 0x2584 JUMP JUMPDEST EQ PUSH2 0xF9B JUMPI PUSH1 0x40 MLOAD PUSH3 0x461BCD PUSH1 0xE5 SHL DUP2 MSTORE PUSH1 0x20 PUSH1 0x4 DUP3 ADD MSTORE PUSH1 0xD PUSH1 0x24 DUP3 ADD MSTORE PUSH13 0x4D756C74206F766572666C6F77 PUSH1 0x98 SHL PUSH1 0x44 DUP3 ADD MSTORE PUSH1 0x64 ADD PUSH2 0x90A JUMP JUMPDEST PUSH1 0x0 DUP2 PUSH2 0x205A JUMPI PUSH1 0x40 MLOAD PUSH3 0x461BCD PUSH1 0xE5 SHL DUP2 MSTORE PUSH1 0x20 PUSH1 0x4 DUP3 ADD MSTORE PUSH1 0xB PUSH1 0x24 DUP3 ADD MSTORE PUSH11 0x446976206279207A65726F PUSH1 0xA8 SHL PUSH1 0x44 DUP3 ADD MSTORE PUSH1 0x64 ADD PUSH2 0x90A JUMP JUMPDEST PUSH2 0xF9B DUP3 DUP5 PUSH2 0x2584 JUMP JUMPDEST PUSH1 0x0 DUP2 DUP4 GT ISZERO PUSH2 0x2075 JUMPI POP DUP1 PUSH2 0xF9E JUMP JUMPDEST POP SWAP1 SWAP2 SWAP1 POP JUMP JUMPDEST PUSH1 0x0 PUSH1 0x20 DUP1 DUP4 MSTORE DUP4 MLOAD DUP1 DUP3 DUP6 ADD MSTORE PUSH1 0x0 JUMPDEST DUP2 DUP2 LT ISZERO PUSH2 0x20A9 JUMPI DUP6 DUP2 ADD DUP4 ADD MLOAD DUP6 DUP3 ADD PUSH1 0x40 ADD MSTORE DUP3 ADD PUSH2 0x208D JUMP JUMPDEST DUP2 DUP2 GT ISZERO PUSH2 0x20BB JUMPI PUSH1 0x0 PUSH1 0x40 DUP4 DUP8 ADD ADD MSTORE JUMPDEST POP PUSH1 0x1F ADD PUSH1 0x1F NOT AND SWAP3 SWAP1 SWAP3 ADD PUSH1 0x40 ADD SWAP4 SWAP3 POP POP POP JUMP JUMPDEST PUSH4 0x4E487B71 PUSH1 0xE0 SHL PUSH1 0x0 MSTORE PUSH1 0x41 PUSH1 0x4 MSTORE PUSH1 0x24 PUSH1 0x0 REVERT JUMPDEST PUSH1 0x0 DUP3 PUSH1 0x1F DUP4 ADD SLT PUSH2 0x20F8 JUMPI PUSH1 0x0 DUP1 REVERT JUMPDEST DUP2 CALLDATALOAD PUSH1 0x20 PUSH8 0xFFFFFFFFFFFFFFFF DUP1 DUP4 GT ISZERO PUSH2 0x2115 JUMPI PUSH2 0x2115 PUSH2 0x20D1 JUMP JUMPDEST DUP3 PUSH1 0x5 SHL PUSH1 0x40 MLOAD PUSH1 0x1F NOT PUSH1 0x3F DUP4 ADD AND DUP2 ADD DUP2 DUP2 LT DUP5 DUP3 GT OR ISZERO PUSH2 0x213A JUMPI PUSH2 0x213A PUSH2 0x20D1 JUMP JUMPDEST PUSH1 0x40 MSTORE SWAP4 DUP5 MSTORE DUP6 DUP2 ADD DUP4 ADD SWAP4 DUP4 DUP2 ADD SWAP3 POP DUP8 DUP6 GT ISZERO PUSH2 0x2158 JUMPI PUSH1 0x0 DUP1 REVERT JUMPDEST DUP4 DUP8 ADD SWAP2 POP JUMPDEST DUP5 DUP3 LT ISZERO PUSH2 0x2177 JUMPI DUP2 CALLDATALOAD DUP4 MSTORE SWAP2 DUP4 ADD SWAP2 SWAP1 DUP4 ADD SWAP1 PUSH2 0x215E JUMP JUMPDEST SWAP8 SWAP7 POP POP POP POP POP POP POP JUMP JUMPDEST DUP1 CALLDATALOAD PUSH1 0x1 PUSH1 0x1 PUSH1 0xA0 SHL SUB DUP2 AND DUP2 EQ PUSH2 0x14F3 JUMPI PUSH1 0x0 DUP1 REVERT JUMPDEST PUSH1 0x0 DUP1 PUSH1 0x0 DUP1 PUSH1 0x80 DUP6 DUP8 SUB SLT ISZERO PUSH2 0x21AF JUMPI PUSH1 0x0 DUP1 REVERT JUMPDEST DUP5 CALLDATALOAD SWAP4 POP PUSH1 0x20 DUP6 ADD CALLDATALOAD PUSH8 0xFFFFFFFFFFFFFFFF DUP1 DUP3 GT ISZERO PUSH2 0x21CE JUMPI PUSH1 0x0 DUP1 REVERT JUMPDEST PUSH2 0x21DA DUP9 DUP4 DUP10 ADD PUSH2 0x20E7 JUMP JUMPDEST SWAP5 POP PUSH2 0x21E8 PUSH1 0x40 DUP9 ADD PUSH2 0x2182 JUMP JUMPDEST SWAP4 POP PUSH1 0x60 DUP8 ADD CALLDATALOAD SWAP2 POP DUP1 DUP3 GT ISZERO PUSH2 0x21FE JUMPI PUSH1 0x0 DUP1 REVERT JUMPDEST POP PUSH2 0x220B DUP8 DUP3 DUP9 ADD PUSH2 0x20E7 JUMP JUMPDEST SWAP2 POP POP SWAP3 SWAP6 SWAP2 SWAP5 POP SWAP3 POP JUMP JUMPDEST PUSH1 0x0 DUP1 PUSH1 0x0 PUSH1 0x60 DUP5 DUP7 SUB SLT ISZERO PUSH2 0x222C JUMPI PUSH1 0x0 DUP1 REVERT JUMPDEST POP POP DUP2 CALLDATALOAD SWAP4 PUSH1 0x20 DUP4 ADD CALLDATALOAD SWAP4 POP PUSH1 0x40 SWAP1 SWAP3 ADD CALLDATALOAD SWAP2 SWAP1 POP JUMP JUMPDEST PUSH1 0x0 DUP1 PUSH1 0x40 DUP4 DUP6 SUB SLT ISZERO PUSH2 0x2256 JUMPI PUSH1 0x0 DUP1 REVERT JUMPDEST POP POP DUP1 CALLDATALOAD SWAP3 PUSH1 0x20 SWAP1 SWAP2 ADD CALLDATALOAD SWAP2 POP JUMP JUMPDEST PUSH1 0x0 DUP1 PUSH1 0x0 PUSH1 0x60 DUP5 DUP7 SUB SLT ISZERO PUSH2 0x227A JUMPI PUSH1 0x0 DUP1 REVERT JUMPDEST PUSH2 0x2283 DUP5 PUSH2 0x2182 JUMP JUMPDEST SWAP6 PUSH1 0x20 DUP6 ADD CALLDATALOAD SWAP6 POP PUSH1 0x40 SWAP1 SWAP5 ADD CALLDATALOAD SWAP4 SWAP3 POP POP POP JUMP JUMPDEST PUSH1 0x0 PUSH1 0x20 DUP3 DUP5 SUB SLT ISZERO PUSH2 0x22AA JUMPI PUSH1 0x0 DUP1 REVERT JUMPDEST PUSH2 0xF9B DUP3 PUSH2 0x2182 JUMP JUMPDEST PUSH1 0x0 DUP1 PUSH1 0x40 DUP4 DUP6 SUB SLT ISZERO PUSH2 0x22C6 JUMPI PUSH1 0x0 DUP1 REVERT JUMPDEST PUSH2 0x22CF DUP4 PUSH2 0x2182 JUMP JUMPDEST SWAP5 PUSH1 0x20 SWAP4 SWAP1 SWAP4 ADD CALLDATALOAD SWAP4 POP POP POP JUMP JUMPDEST PUSH1 0x0 DUP1 PUSH1 0x0 PUSH1 0x60 DUP5 DUP7 SUB SLT ISZERO PUSH2 0x22F2 JUMPI PUSH1 0x0 DUP1 REVERT JUMPDEST DUP4 CALLDATALOAD SWAP3 POP PUSH1 0x20 DUP5 ADD CALLDATALOAD SWAP2 POP PUSH2 0x2309 PUSH1 0x40 DUP6 ADD PUSH2 0x2182 JUMP JUMPDEST SWAP1 POP SWAP3 POP SWAP3 POP SWAP3 JUMP JUMPDEST PUSH1 0x0 PUSH1 0x20 DUP3 DUP5 SUB SLT ISZERO PUSH2 0x2324 JUMPI PUSH1 0x0 DUP1 REVERT JUMPDEST POP CALLDATALOAD SWAP2 SWAP1 POP JUMP JUMPDEST PUSH1 0x0 DUP1 PUSH1 0x0 PUSH1 0x60 DUP5 DUP7 SUB SLT ISZERO PUSH2 0x2340 JUMPI PUSH1 0x0 DUP1 REVERT JUMPDEST DUP4 CALLDATALOAD SWAP3 POP PUSH1 0x20 DUP5 ADD CALLDATALOAD PUSH8 0xFFFFFFFFFFFFFFFF DUP2 GT ISZERO PUSH2 0x235E JUMPI PUSH1 0x0 DUP1 REVERT JUMPDEST PUSH2 0x236A DUP7 DUP3 DUP8 ADD PUSH2 0x20E7 JUMP JUMPDEST SWAP3 POP POP PUSH2 0x2309 PUSH1 0x40 DUP6 ADD PUSH2 0x2182 JUMP JUMPDEST PUSH1 0x0 DUP1 PUSH1 0x40 DUP4 DUP6 SUB SLT ISZERO PUSH2 0x238C JUMPI PUSH1 0x0 DUP1 REVERT JUMPDEST PUSH2 0x2395 DUP4 PUSH2 0x2182 JUMP JUMPDEST SWAP2 POP PUSH2 0x23A3 PUSH1 0x20 DUP5 ADD PUSH2 0x2182 JUMP JUMPDEST SWAP1 POP SWAP3 POP SWAP3 SWAP1 POP JUMP JUMPDEST PUSH1 0x0 DUP1 PUSH1 0x0 DUP1 PUSH1 0x0 PUSH1 0xA0 DUP7 DUP9 SUB SLT ISZERO PUSH2 0x23C4 JUMPI PUSH1 0x0 DUP1 REVERT JUMPDEST DUP6 CALLDATALOAD SWAP5 POP PUSH1 0x20 DUP7 ADD CALLDATALOAD SWAP4 POP PUSH1 0x40 DUP7 ADD CALLDATALOAD SWAP3 POP PUSH2 0x23E2 PUSH1 0x60 DUP8 ADD PUSH2 0x2182 JUMP JUMPDEST SWAP5 SWAP8 SWAP4 SWAP7 POP SWAP2 SWAP5 PUSH1 0x80 ADD CALLDATALOAD SWAP3 SWAP2 POP POP JUMP JUMPDEST PUSH1 0x1 DUP2 DUP2 SHR SWAP1 DUP3 AND DUP1 PUSH2 0x2407 JUMPI PUSH1 0x7F DUP3 AND SWAP2 POP JUMPDEST PUSH1 0x20 DUP3 LT DUP2 EQ ISZERO PUSH2 0x2428 JUMPI PUSH4 0x4E487B71 PUSH1 0xE0 SHL PUSH1 0x0 MSTORE PUSH1 0x22 PUSH1 0x4 MSTORE PUSH1 0x24 PUSH1 0x0 REVERT JUMPDEST POP SWAP2 SWAP1 POP JUMP JUMPDEST PUSH4 0x4E487B71 PUSH1 0xE0 SHL PUSH1 0x0 MSTORE PUSH1 0x32 PUSH1 0x4 MSTORE PUSH1 0x24 PUSH1 0x0 REVERT JUMPDEST PUSH4 0x4E487B71 PUSH1 0xE0 SHL PUSH1 0x0 MSTORE PUSH1 0x11 PUSH1 0x4 MSTORE PUSH1 0x24 PUSH1 0x0 REVERT JUMPDEST PUSH1 0x0 PUSH1 0x0 NOT DUP3 EQ ISZERO PUSH2 0x246E JUMPI PUSH2 0x246E PUSH2 0x2444 JUMP JUMPDEST POP PUSH1 0x1 ADD SWAP1 JUMP JUMPDEST PUSH1 0x1 DUP2 DUP2 JUMPDEST DUP1 DUP6 GT ISZERO PUSH2 0x24B0 JUMPI DUP2 PUSH1 0x0 NOT DIV DUP3 GT ISZERO PUSH2 0x2496 JUMPI PUSH2 0x2496 PUSH2 0x2444 JUMP JUMPDEST DUP1 DUP6 AND ISZERO PUSH2 0x24A3 JUMPI SWAP2 DUP2 MUL SWAP2 JUMPDEST SWAP4 DUP5 SHR SWAP4 SWAP1 DUP1 MUL SWAP1 PUSH2 0x247A JUMP JUMPDEST POP SWAP3 POP SWAP3 SWAP1 POP JUMP JUMPDEST PUSH1 0x0 DUP3 PUSH2 0x24C7 JUMPI POP PUSH1 0x1 PUSH2 0xF9E JUMP JUMPDEST DUP2 PUSH2 0x24D4 JUMPI POP PUSH1 0x0 PUSH2 0xF9E JUMP JUMPDEST DUP2 PUSH1 0x1 DUP2 EQ PUSH2 0x24EA JUMPI PUSH1 0x2 DUP2 EQ PUSH2 0x24F4 JUMPI PUSH2 0x2510 JUMP JUMPDEST PUSH1 0x1 SWAP2 POP POP PUSH2 0xF9E JUMP JUMPDEST PUSH1 0xFF DUP5 GT ISZERO PUSH2 0x2505 JUMPI PUSH2 0x2505 PUSH2 0x2444 JUMP JUMPDEST POP POP PUSH1 0x1 DUP3 SHL PUSH2 0xF9E JUMP JUMPDEST POP PUSH1 0x20 DUP4 LT PUSH2 0x133 DUP4 LT AND PUSH1 0x4E DUP5 LT PUSH1 0xB DUP5 LT AND OR ISZERO PUSH2 0x2533 JUMPI POP DUP2 DUP2 EXP PUSH2 0xF9E JUMP JUMPDEST PUSH2 0x253D DUP4 DUP4 PUSH2 0x2475 JUMP JUMPDEST DUP1 PUSH1 0x0 NOT DIV DUP3 GT ISZERO PUSH2 0x2551 JUMPI PUSH2 0x2551 PUSH2 0x2444 JUMP JUMPDEST MUL SWAP4 SWAP3 POP POP POP JUMP JUMPDEST PUSH1 0x0 PUSH2 0xF9B DUP4 DUP4 PUSH2 0x24B8 JUMP JUMPDEST PUSH1 0x0 DUP2 PUSH1 0x0 NOT DIV DUP4 GT DUP3 ISZERO ISZERO AND ISZERO PUSH2 0x257F JUMPI PUSH2 0x257F PUSH2 0x2444 JUMP JUMPDEST POP MUL SWAP1 JUMP JUMPDEST PUSH1 0x0 DUP3 PUSH2 0x25A1 JUMPI PUSH4 0x4E487B71 PUSH1 0xE0 SHL PUSH1 0x0 MSTORE PUSH1 0x12 PUSH1 0x4 MSTORE PUSH1 0x24 PUSH1 0x0 REVERT JUMPDEST POP DIV SWAP1 JUMP JUMPDEST PUSH1 0x0 PUSH1 0x20 DUP3 DUP5 SUB SLT ISZERO PUSH2 0x25B8 JUMPI PUSH1 0x0 DUP1 REVERT JUMPDEST DUP2 MLOAD DUP1 ISZERO ISZERO DUP2 EQ PUSH2 0xF9B JUMPI PUSH1 0x0 DUP1 REVERT JUMPDEST PUSH4 0x4E487B71 PUSH1 0xE0 SHL PUSH1 0x0 MSTORE PUSH1 0x1 PUSH1 0x4 MSTORE PUSH1 0x24 PUSH1 0x0 REVERT JUMPDEST PUSH1 0x0 DUP3 DUP3 LT ISZERO PUSH2 0x25F0 JUMPI PUSH2 0x25F0 PUSH2 0x2444 JUMP JUMPDEST POP SUB SWAP1 JUMP JUMPDEST PUSH1 0x0 PUSH1 0x20 DUP3 DUP5 SUB SLT ISZERO PUSH2 0x2607 JUMPI PUSH1 0x0 DUP1 REVERT JUMPDEST POP MLOAD SWAP2 SWAP1 POP JUMP JUMPDEST PUSH1 0x0 DUP3 NOT DUP3 GT ISZERO PUSH2 0x2621 JUMPI PUSH2 0x2621 PUSH2 0x2444 JUMP JUMPDEST POP ADD SWAP1 JUMP INVALID LOG2 PUSH5 0x6970667358 0x22 SLT KECCAK256 0xA9 0x4D 0xCA SWAP9 0xCD DIV GAS 0xEE 0xBB DUP1 SWAP11 CHAINID CALL 0xE8 DUP12 SIGNEXTEND POP PUSH23 0x65AEF8D66FCB0DEEA807ED12296864736F6C634300080B STOP CALLER ",
  "sha1": "8bd664b456e638c2b4f806a76784136e13af8474",
  "source": "//  Forge Auctions Contract\n//   Auctions 8,192 tokens every 3 days and users are able to withdraw anytime after!\n\n//   Proceeds of auctions go back into the miners pockets, by going directly to the Proof of Work Contract!\n\n// 10,500,000 tokens are Auctioned off over 100 years in this contract! In the first era ~5,000,000 are auctioned and half every era after!\n\n//   Distributes 8,192 tokens every 3 days for the first era(5 years) and halves every era after\n\n// By using the burn0xBTCForMember function\n//       0xBitcoin Token is taken from the user and used to recieve your share of the 8,192 tokens auctioned every 3 days which varies with Forge epoch speeds!  \n\n\npragma solidity ^0.8.0;\n\ncontract Ownabled {\n    address public owner22;\n    event TransferOwnership(address _from, address _to);\n\n    constructor() public {\n        owner22 = msg.sender;\n        emit TransferOwnership(address(0), msg.sender);\n    }\n\n    modifier onlyOwner22() {\n        require(msg.sender == owner22, \"only owner\");\n        _;\n    }\n    function setOwner(address _owner22) internal onlyOwner22 {\n        emit TransferOwnership(owner22, _owner22);\n        owner22 = _owner22;\n    }\n}\n\nlibrary SafeMath {\n    function add(uint256 x, uint256 y) internal pure returns (uint256) {\n        uint256 z = x + y;\n        require(z >= x, \"Add overflow\");\n        return z;\n    }\n\n    function sub(uint256 x, uint256 y) internal pure returns (uint256) {\n        require(x >= y, \"Sub underflow\");\n        return x - y;\n    }\n\n    function mult(uint256 x, uint256 y) internal pure returns (uint256) {\n        if (x == 0) {\n            return 0;\n        }\n\n        uint256 z = x * y;\n        require(z / x == y, \"Mult overflow\");\n        return z;\n    }\n\n    function div(uint256 x, uint256 y) internal pure returns (uint256) {\n        require(y != 0, \"Div by zero\");\n        return x / y;\n    }\n\n    function divRound(uint256 x, uint256 y) internal pure returns (uint256) {\n        require(y != 0, \"Div by zero\");\n        uint256 r = x / y;\n        if (x % y != 0) {\n            r = r + 1;\n        }\n\n        return r;\n    }\n}\n\nlibrary ExtendedMath {\n\n\n    //return the smaller of the two inputs (a or b)\n    function limitLessThan(uint a, uint b) internal pure returns (uint c) {\n\n        if(a > b) return b;\n\n        return a;\n\n    }\n}\ninterface IERC20 {\n\n    /**\n     * @dev Returns the amount of tokens owned by `account`.\n     */\n    function balanceOf(address account) external view returns (uint256);\n\n    /**\n     * @dev Moves `amount` tokens from the caller's account to `recipient`.\n     *\n     * Returns a boolean value indicating whether the operation succeeded.\n     *\n     * Emits a {Transfer} event.\n     */\n    function transfer(address recipient, uint256 amount) external returns (bool);\n\n    /**\n     * @dev Returns the remaining number of tokens that `spender` will be\n     * allowed to spend on behalf of `owner` through {transferFrom}. This is\n     * zero by default.\n     *\n     * This value changes when {approve} or {transferFrom} are called.\n     */\n    function allowance(address owner, address spender) external view returns (uint256);\n\n    /**\n     * @dev Sets `amount` as the allowance of `spender` over the caller's tokens.\n     *\n     * Returns a boolean value indicating whether the operation succeeded.\n     *\n     * IMPORTANT: Beware that changing an allowance with this method brings the risk\n     * that someone may use both the old and the new allowance by unfortunate\n     * transaction ordering. One possible solution to mitigate this race\n     * condition is to first reduce the spender's allowance to 0 and set the\n     * desired value afterwards:\n     * https://github.com/ethereum/EIPs/issues/20#issuecomment-263524729\n     *\n     * Emits an {Approval} event.\n     */\n    function approve(address spender, uint256 amount) external returns (bool);\n\n    /**\n     * @dev Moves `amount` tokens from `sender` to `recipient` using the\n     * allowance mechanism. `amount` is then deducted from the caller's\n     * allowance.\n     *\n     * Returns a boolean value indicating whether the operation succeeded.\n     *\n     * Emits a {Transfer} event.\n     */\n    function transferFrom(address sender, address recipient, uint256 amount) external returns (bool);\n\n    /**\n     * @dev Emitted when `value` tokens are moved from one account (`from`) to\n     * another (`to`).\n     *\n     * Note that `value` may be zero.\n     */\n\n    /**\n     * @dev Emitted when the allowance of a `spender` for an `owner` is set by\n     * a call to {approve}. `value` is the new allowance.\n     */\n    event Approval(address indexed owner, address indexed spender, uint256 value);\n   \n    \n}\n\ncontract GasPump {\n    bytes32 private stub;\n\n    modifier requestGas(uint256 _factor) {\n        if (tx.gasprice == 0 || gasleft() > block.gaslimit) {\n            uint256 startgas = gasleft();\n            _;\n            uint256 delta = startgas - gasleft();\n            uint256 target = (delta * _factor) / 100;\n            startgas = gasleft();\n            while (startgas - gasleft() < target) {\n                // Burn gas\n                stub = keccak256(abi.encodePacked(stub));\n            }\n        } else {\n            _;\n        }\n    }\n}\n\ncontract ForgeMiningCT{\n    function getMiningMinted() public view returns (uint) {}\n    \n    function getMiningReward() public view returns (uint) {}\n    }\n\n  contract ForgeAuctions is  GasPump, Ownabled\n{\n\n    using SafeMath for uint;\n    using ExtendedMath for uint;\n    address public AddressZeroXBTC;\n    address public AddressForgeToken;\n    // ERC-20 Parameters\n    uint256 public extraGas;\n    bool runonce = false;\n    uint256 oneEthUnit = 1000000000000000000; \n    uint256 one0xBTCUnit =         100000000;\n    string public name;\n    uint public decimals;\n\n    // ERC-20 Mappings\n    mapping(address => uint) private _balances;\n    mapping(address => mapping(address => uint)) private _allowances;\n\n    // Public Parameters\n    uint coin; uint public emission;\n    uint public currentEra; uint public currentDay;\n    uint public daysPerEra; uint public secondsPerDay;\n    uint public nextDayTime;\n    uint public totalBurnt; uint public totalEmitted;\n    // Public Mappings\n    \n    mapping(uint=>uint) public mapEra_Emission;                                             // Era->Emission\n    mapping(uint=>mapping(uint=>uint)) public mapEraDay_MemberCount;                        // Era,Days->MemberCount\n    mapping(uint=>mapping(uint=>address[])) public mapEraDay_Members;                       // Era,Days->Members\n    mapping(uint=>mapping(uint=>uint)) public mapEraDay_Units;                              // Era,Days->Units\n    mapping(uint=>mapping(uint=>uint)) public mapEraDay_UnitsRemaining;                     // Era,Days->TotalUnits\n    mapping(uint=>mapping(uint=>uint)) public mapEraDay_EmissionRemaining;                  // Era,Days->Emission\n    mapping(uint=>mapping(uint=>mapping(address=>uint))) public mapEraDay_MemberUnits;      // Era,Days,Member->Units\n    mapping(address=>mapping(uint=>uint[])) public mapMemberEra_Days;                       // Member,Era->Days[]   \n    mapping(address=>uint) public ZmapMember_EraClaimedTo;      // Era,Days,Member->Units\n    mapping(address=>uint) public ZmapMember_DayClaimedTo; \n    \n    ForgeMiningCT ForgeMiningToken;\n    // Events\n        event SetExtraGas(uint256 _prev, uint256 _new);\n    event NewEra(uint era, uint emission, uint totalBurnt);\n    event NewDay(uint era, uint day, uint time, uint previousDayTotal, uint previousDayMembers);\n    event Burn(address indexed payer, address indexed member, uint era, uint day, uint units, uint dailyTotal);\n    event BurnMultipleDays(address indexed payer, address indexed member, uint era, uint NumberOfDays, uint totalUnits);\n    //event transferFrom2(address a, address _member, uint value);\n    event Withdrawal(address indexed caller, address indexed member, uint era, uint day, uint value, uint vetherRemaining);\n    //ProofofWorkStuff\n    \n    event MegaWithdrawal(address indexed caller, address indexed member, uint era, uint TotalDays, uint256 stricttotal);\n    uint256 starttime = 0;\n    uint256 public lastepoch = 0;\n    uint256 public lastMinted = 0;\n    uint256 public blocktime = 36 * 60; //36 min blocks in ProofOfWork\n    //=====================================CREATION=========================================//\n\n    //testing//\n\n    // Constructor\n    constructor () public {\n        name = \"Auction Contract\"; decimals = 18; \n        coin = 10**decimals; emission = 2048*coin;\n        currentEra = 1; currentDay = 1; \n        daysPerEra = 600; secondsPerDay = 5;//60*60*24*3; \n        totalBurnt = 0;\n        totalEmitted = 0;\n        nextDayTime = block.timestamp + secondsPerDay;\n        mapEra_Emission[currentEra] = emission; \n        mapEraDay_EmissionRemaining[currentEra][currentDay] = emission; \n                                                              \n    }\n    \n    \n    \n    // ERC20 Transfer function\n    // ERC20 Approve function\n\n\n        function zSetUP1(address token, address _ZeroXBTCAddress) public onlyOwner22 {\n        AddressForgeToken = token;\n        owner22 = address(0);\n        lastMinted =  0;\n        AddressZeroXBTC = _ZeroXBTCAddress;\n        ForgeMiningToken = ForgeMiningCT(token);\n        lastMinted = ForgeMiningToken.getMiningMinted();\n        starttime = block.timestamp;\n\n    }\n\n\n    function changeAuctionAmt() internal {\n        uint tokensMinted = ForgeMiningToken.getMiningMinted();\n      \n             uint diff = tokensMinted - lastMinted;\n             uint epochsMined = diff / ForgeMiningToken.getMiningReward();\n            if(epochsMined != 0)\n            {\n             uint targetTime = 36*60; //36 min per block 60 sec * 12 *\n             uint ethBlocksSinceLastDifficultyPeriod2 = epochsMined * targetTime;\n\n            if( ethBlocksSinceLastDifficultyPeriod2 < secondsPerDay )\n            {\n                uint excess_block_pct = (secondsPerDay.mult(100)).div( ethBlocksSinceLastDifficultyPeriod2 );\n\n                 uint excess_block_pct_extra = excess_block_pct.sub(100).limitLessThan(1000);\n          // If there were 5% more blocks mined than expected then this is 5.  If there were 100% more blocks mined than expected then this is 100.\n\n          //make it harder\n                  secondsPerDay = secondsPerDay.add(secondsPerDay.mult(excess_block_pct_extra).div(2000));   //by up to 50 %\n             }else{\n                 uint shortage_block_pct = (ethBlocksSinceLastDifficultyPeriod2.mult(100)).div( secondsPerDay );\n\n                 uint shortage_block_pct_extra = shortage_block_pct.sub(100).limitLessThan(1000); //always between 0 and 1000\n\n                 //make it easier\n                secondsPerDay = secondsPerDay.sub(secondsPerDay.mult(shortage_block_pct_extra).div(2000));   //by up to 50 %\n                \n            }\n            }else{\n                secondsPerDay = secondsPerDay * 2;\n            }\n            if(secondsPerDay <= 5)\n            {\n                secondsPerDay == 10;\n            }\n            if(secondsPerDay > 60 * 60 * 24 * 21)\n            {\n                secondsPerDay = 60 * 24 * 60 * 7;\n            }\n             lastMinted = tokensMinted;\n        starttime = block.timestamp;\n    \n    }\n\n\n    function WholeEraBurn0xBTCForMember(address member, uint256 _0xbtcAmountTotal) public payable returns (bool success)\n    {\n        uint256 daysleft = daysPerEra - currentDay - 1 ;//just incase\n        FutureBurn0xBTCEasier(currentEra, currentDay, daysleft, member, _0xbtcAmountTotal);\n    }\n\n    function FutureBurn0xBTCEasier(uint _era, uint startingday, uint totalNumberrOfDays, address _member, uint _0xbtcAmountTotal) public payable returns (bool success)\n    {\n        uint[] memory dd = new uint[](totalNumberrOfDays); \n        uint[] memory amt = new uint[](totalNumberrOfDays);\n        \n        uint y=0;\n        for(uint x=startingday; x< (startingday+totalNumberrOfDays); x++)\n        {\n            dd[y] = x;\n            amt[y] = _0xbtcAmountTotal/totalNumberrOfDays;\n            y++;\n        }\n        FutureBurn0xBTCArrays(_era, dd, _member, amt);\n    \n        return true;\n    }\n\n    function FutureBurn0xBTCArrays(uint _era, uint[] memory fdays, address _member, uint[] memory _0xbtcAmount) public payable returns (bool success)\n    {\n        uint256 stricttotal =0;\n        uint256 _daysPerEra=daysPerEra;\n        uint _currentDay = currentDay;\n        uint _currentEra = currentEra; \n        require(_era >= currentEra, \"no knucklehead only bid on this era\");\n    for(uint256 x = 0; x < fdays.length; x++)\n    {\n        uint256 dayamt = _0xbtcAmount[x];\n        if(_era == _currentEra)\n        {\n            require(fdays[x] >= _currentDay, \"Must not bid behind the days\");\n        }\n        require(fdays[x] <= _daysPerEra, \"Cant bid on days not in era\");\n        stricttotal = stricttotal.add(dayamt);\n         _recordBurn(msg.sender, _member, _era, fdays[x], dayamt);\n    }\n        require((stricttotal/fdays.length) >  (one0xBTCUnit/((2 ** _era) * 50)), \"0.02 0xBitcoin per Day required, reduces every era\");\n        require(IERC20(AddressZeroXBTC).transferFrom(msg.sender, AddressForgeToken, stricttotal), \"NO OTHER WAY, send it the required 0xBitcoin\");\n        emit BurnMultipleDays(msg.sender, _member, _era, fdays.length, stricttotal);\n        return true;\n    }\n\n    function burn0xBTCForMember(address member, uint256 _0xbtcAmount) public payable  {\n        require(IERC20(AddressZeroXBTC).transferFrom(msg.sender, AddressForgeToken, _0xbtcAmount), \"NO WAY, requires 0xBTC send\");\n\n\n        _recordBurn(msg.sender, member, currentEra, currentDay, _0xbtcAmount);\n        emit Burn(msg.sender, member, currentEra, currentDay, _0xbtcAmount, mapEraDay_Units[currentEra][currentDay]);\n            \n}\n    \n    \n    // Internal - Withdrawal function\n    \n    // Internal - Records burn\n    function _recordBurn(address _payer, address _member, uint _era, uint _day, uint _eth) private {\n        if (mapEraDay_MemberUnits[_era][_day][_member] == 0){                               // If hasn't contributed to this Day yet\n            mapMemberEra_Days[_member][_era].push(_day);                                    // Add it\n            mapEraDay_MemberCount[_era][_day] += 1;                                         // Count member\n            mapEraDay_Members[_era][_day].push(_member);                                    // Add member\n        }\n        mapEraDay_MemberUnits[_era][_day][_member] += _eth;                                 // Add member's share\n        mapEraDay_UnitsRemaining[_era][_day] += _eth;                                       // Add to total historicals\n        mapEraDay_Units[_era][_day] += _eth;                                                // Add to total outstanding\n        totalBurnt += _eth;                                                                 // Add to total burnt\n        _updateEmission();                                                                  // Update emission Schedule\n    }\n    \n        //======================================WITHDRAWAL======================================//\n    // Used to efficiently track participation in each era\n    function getDaysContributedForEra(address member, uint era) public view returns(uint){\n        return mapMemberEra_Days[member][era].length;\n    }\n    // Call to withdraw a claim\n    function withdrawShare(uint era, uint day) external returns (uint value) {\n        uint memberUnits = mapEraDay_MemberUnits[era][day][msg.sender];  \n        assert (memberUnits != 0); // Get Member Units\n        value = _withdrawShare(era, day, msg.sender);\n    }\n    // Call to withdraw a claim for another member\n    function withdrawShareForMember(uint era, uint day, address member) public returns (uint value) {\n        uint memberUnits = mapEraDay_MemberUnits[era][day][member];  \n        assert (memberUnits != 0); // Get Member Units\n        value = _withdrawShare(era, day, member);\n        return value;\n    }\n    // Internal - withdraw function\n    function _withdrawShare (uint _era, uint _day, address _member) private returns (uint value) {\n        _updateEmission(); \n        if (_era < currentEra) {                                                            // Allow if in previous Era\n            value = _processWithdrawal(_era, _day, _member);                                // Process Withdrawal\n        } else if (_era == currentEra) {                                                    // Handle if in current Era\n            if (_day < currentDay) {                                                        // Allow only if in previous Day\n                value = _processWithdrawal(_era, _day, _member);                            // Process Withdrawal\n            }\n        }  \n        return value;\n    }\n\n    function z_ChangeMaxWithdrawl( uint newMaxDay, uint newMaxEra) public returns  (bool success){\n        ZmapMember_DayClaimedTo[msg.sender] = newMaxDay;\n        ZmapMember_EraClaimedTo[msg.sender] = newMaxEra;\n        return true;\n    }\n    \n    function WithdrawEasiest() public\n    {\n        WithdrawEz(msg.sender);\n    }\n\n\n    function WithdrawEz(address _member) public\n    {\n        uint startingday = ZmapMember_DayClaimedTo[_member];\n        uint startingera = ZmapMember_EraClaimedTo[_member];\n        if(startingday == 0)\n        {\n            startingday = 1;\n        }\n        if(startingera == 0)\n        {\n            startingera = 1;\n        }\n        uint maxDay=1;\n        for(uint y=startingera; y <= currentEra; y++){\n          if(y != currentEra)\n           {\n                maxDay = daysPerEra;\n            }\n            else\n            {\n                maxDay = currentDay - 1;\n            }\n           uint[] memory dd = new uint[](maxDay-startingday+1); \n           for(uint x=startingday; x<= maxDay; x++)\n           {\n               dd[x-startingday] = x ;\n           }\n           WithdrawlsDays(y, dd, _member);\n        }\n        ZmapMember_DayClaimedTo[_member] = currentDay;\n        ZmapMember_DayClaimedTo[_member] = currentEra;\n    }\n\n    function WithdrawlsDays(uint _era, uint[] memory fdays, address _member) public returns (bool success)\n    {\n    uint256 stricttotal = 0;\n    for(uint256 x = 0; x < fdays.length; x++)\n    {\n        stricttotal = stricttotal.add( _processWithdrawalRETURNSVAL (_era, fdays[x], _member) );\n    }\n    IERC20(AddressForgeToken).transfer(_member, stricttotal);\n    emit MegaWithdrawal(msg.sender, _member, _era, fdays.length, stricttotal);\n    \n    return true;\n}\n\n    function _processWithdrawalRETURNSVAL (uint _era, uint256 _day, address _member) private returns (uint256 value) {\n        uint memberUnits = mapEraDay_MemberUnits[_era][_day][_member];                      // Get Member Units\n        if (memberUnits == 0) { \n            value = 0;                                                                      // Do nothing if 0 (prevents revert)\n        } else {\n            value = getEmissionShare(_era, _day, _member);                                  // Get the emission Share for Member\n            mapEraDay_MemberUnits[_era][_day][_member] = 0;                                 // Set to 0 since it will be withdrawn\n            mapEraDay_UnitsRemaining[_era][_day] = mapEraDay_UnitsRemaining[_era][_day].sub(memberUnits);  // Decrement Member Units\n            mapEraDay_EmissionRemaining[_era][_day] = mapEraDay_EmissionRemaining[_era][_day].sub(value);  // Decrement emission\n            totalEmitted += value*4;\n\n            //We emit all in one transfer.   \n        }\n        return value*4;\n    }\n    function _processWithdrawal (uint _era, uint _day, address _member) private returns (uint value) {\n        uint memberUnits = mapEraDay_MemberUnits[_era][_day][_member];                      // Get Member Units\n        if (memberUnits == 0) { \n            value = 0;                                                                      // Do nothing if 0 (prevents revert)\n        } else {\n            value = getEmissionShare(_era, _day, _member);                                  // Get the emission Share for Member\n            mapEraDay_MemberUnits[_era][_day][_member] = 0;                                 // Set to 0 since it will be withdrawn\n            mapEraDay_UnitsRemaining[_era][_day] = mapEraDay_UnitsRemaining[_era][_day].sub(memberUnits);  // Decrement Member Units\n            mapEraDay_EmissionRemaining[_era][_day] = mapEraDay_EmissionRemaining[_era][_day].sub(value);  // Decrement emission\n            totalEmitted += value*4;            \n            emit Withdrawal(msg.sender, _member, _era, _day, value*4, mapEraDay_EmissionRemaining[_era][_day]);\n            \n            // ERC20 transfer function\n            IERC20(AddressForgeToken).transfer(_member, value*4); // 8,192 tokens a auction aka almost half the supply an era!\n        }\n        return value*4;\n    }\n    \n    \n    function getEmissionShare(uint era, uint day, address member) public view returns (uint value) {\n        uint memberUnits = mapEraDay_MemberUnits[era][day][member];                         // Get Member Units\n        if (memberUnits == 0) {\n            return 0;                                                                       // If 0, return 0\n        } else {\n            uint totalUnits = mapEraDay_UnitsRemaining[era][day];                           // Get Total Units\n            uint emissionRemaining = mapEraDay_EmissionRemaining[era][day];                 // Get emission remaining for Day\n            uint balance = IERC20(AddressForgeToken).balanceOf(address(this));                                      // Find remaining balance\n            if (emissionRemaining > balance) { emissionRemaining = balance; }               // In case less than required emission\n            value = (emissionRemaining * memberUnits) / totalUnits;                         // Calculate share\n            return  value;                            \n        }\n    }\n    //======================================EMISSION========================================//\n    // Internal - Update emission function\n    function _updateEmission() private {\n        uint _now = block.timestamp;                                                                    // Find now()\n        if (_now >= nextDayTime) {                                                          // If time passed the next Day time\n            if (currentDay >= daysPerEra) {                                                 // If time passed the next Era time\n                currentEra += 1; currentDay = 0;                                            // Increment Era, reset Day\n                emission = getNextEraEmission();                                            // Get correct emission\n                mapEra_Emission[currentEra] = emission;                                     // Map emission to Era\n                emit NewEra(currentEra, emission, totalBurnt); \n            }\n            changeAuctionAmt();\n            currentDay += 1;                                                                // Increment Day\n            nextDayTime = _now + secondsPerDay;                                             // Set next Day time\n            emission = getDayEmission();                                                    // Check daily Dmission\n            mapEraDay_EmissionRemaining[currentEra][currentDay] = emission;                 // Map emission to Day\n            uint _era = currentEra; uint _day = currentDay-1;\n            if(currentDay == 1){ _era = currentEra-1; _day = daysPerEra; }                  // Handle New Era\n            emit NewDay(currentEra, currentDay, nextDayTime, \n            mapEraDay_Units[_era][_day], mapEraDay_MemberCount[_era][_day]);\n            \n        }\n    }\n    // Calculate Era emission\n    function getNextEraEmission() public view returns (uint) {\n        if (emission > coin) {                                                              // Normal Emission Schedule\n            return emission / 2;                                                            // Emissions: 2048 -> 1.0\n        } else{                                                                             // Enters Fee Era\n            return coin;                                                                    // Return 1.0 from fees\n        }\n    }\n    // Calculate Day emission\n    function getDayEmission() public view returns (uint) {\n        uint balance = IERC20(AddressForgeToken).balanceOf(address(this));                                            // Find remaining balance\n        if (balance > emission) {                                                           // Balance is sufficient\n            return emission;                                                                // Return emission\n        } else {                                                                            // Balance has dropped low\n            return balance;                                                                 // Return full balance\n        }\n    }\n    function z_transferERC20TokenToMinerContract(address tokenAddress, uint tokens) public returns (bool success) {\n        require((tokenAddress != address(this)) && tokenAddress != AddressForgeToken);\n        return IERC20(tokenAddress).transfer(AddressForgeToken, IERC20(tokenAddress).balanceOf(address(this))); \n\n    }\n}\n",
  "sourcePath": "contracts/auctions.sol",
  "type": "contract"
}