{
  "abi": [
    {
      "inputs": [],
      "stateMutability": "nonpayable",
      "type": "constructor"
    },
    {
      "anonymous": false,
      "inputs": [
        {
          "indexed": true,
          "internalType": "address",
          "name": "_owner",
          "type": "address"
        },
        {
          "indexed": true,
          "internalType": "address",
          "name": "_spender",
          "type": "address"
        },
        {
          "indexed": false,
          "internalType": "uint256",
          "name": "_value",
          "type": "uint256"
        }
      ],
      "name": "Approval",
      "type": "event"
    },
    {
      "anonymous": false,
      "inputs": [
        {
          "indexed": true,
          "internalType": "address",
          "name": "from",
          "type": "address"
        },
        {
          "indexed": false,
          "internalType": "uint256",
          "name": "epochCount",
          "type": "uint256"
        },
        {
          "indexed": false,
          "internalType": "bytes32",
          "name": "newChallengeNumber",
          "type": "bytes32"
        },
        {
          "indexed": false,
          "internalType": "uint256",
          "name": "NumberOfTokensMinted",
          "type": "uint256"
        },
        {
          "indexed": false,
          "internalType": "uint256",
          "name": "TokenMultipler",
          "type": "uint256"
        }
      ],
      "name": "MegaMint",
      "type": "event"
    },
    {
      "anonymous": false,
      "inputs": [
        {
          "indexed": true,
          "internalType": "address",
          "name": "from",
          "type": "address"
        },
        {
          "indexed": false,
          "internalType": "uint256",
          "name": "reward_amount",
          "type": "uint256"
        },
        {
          "indexed": false,
          "internalType": "uint256",
          "name": "epochCount",
          "type": "uint256"
        },
        {
          "indexed": false,
          "internalType": "bytes32",
          "name": "newChallengeNumber",
          "type": "bytes32"
        }
      ],
      "name": "Mint",
      "type": "event"
    },
    {
      "anonymous": false,
      "inputs": [
        {
          "indexed": true,
          "internalType": "address",
          "name": "_from",
          "type": "address"
        },
        {
          "indexed": true,
          "internalType": "address",
          "name": "_to",
          "type": "address"
        },
        {
          "indexed": false,
          "internalType": "uint256",
          "name": "_value",
          "type": "uint256"
        }
      ],
      "name": "Transfer",
      "type": "event"
    },
    {
      "anonymous": false,
      "inputs": [
        {
          "indexed": false,
          "internalType": "address",
          "name": "_from",
          "type": "address"
        },
        {
          "indexed": false,
          "internalType": "address",
          "name": "_to",
          "type": "address"
        }
      ],
      "name": "TransferOwnership",
      "type": "event"
    },
    {
      "stateMutability": "payable",
      "type": "fallback"
    },
    {
      "inputs": [],
      "name": "ARewardSender",
      "outputs": [],
      "stateMutability": "nonpayable",
      "type": "function"
    },
    {
      "inputs": [],
      "name": "AddressAuction",
      "outputs": [
        {
          "internalType": "address",
          "name": "",
          "type": "address"
        }
      ],
      "stateMutability": "view",
      "type": "function"
    },
    {
      "inputs": [],
      "name": "AddressLPReward",
      "outputs": [
        {
          "internalType": "address",
          "name": "",
          "type": "address"
        }
      ],
      "stateMutability": "view",
      "type": "function"
    },
    {
      "inputs": [],
      "name": "AddressZeroXBTC",
      "outputs": [
        {
          "internalType": "address",
          "name": "",
          "type": "address"
        }
      ],
      "stateMutability": "view",
      "type": "function"
    },
    {
      "inputs": [],
      "name": "Token2Per",
      "outputs": [
        {
          "internalType": "uint256",
          "name": "",
          "type": "uint256"
        }
      ],
      "stateMutability": "view",
      "type": "function"
    },
    {
      "inputs": [],
      "name": "_BLOCKS_PER_READJUSTMENT",
      "outputs": [
        {
          "internalType": "uint256",
          "name": "",
          "type": "uint256"
        }
      ],
      "stateMutability": "view",
      "type": "function"
    },
    {
      "inputs": [],
      "name": "_MAXIMUM_TARGET",
      "outputs": [
        {
          "internalType": "uint256",
          "name": "",
          "type": "uint256"
        }
      ],
      "stateMutability": "view",
      "type": "function"
    },
    {
      "inputs": [],
      "name": "_MINIMUM_TARGET",
      "outputs": [
        {
          "internalType": "uint256",
          "name": "",
          "type": "uint256"
        }
      ],
      "stateMutability": "view",
      "type": "function"
    },
    {
      "inputs": [
        {
          "internalType": "address",
          "name": "tokenOwner",
          "type": "address"
        },
        {
          "internalType": "address",
          "name": "spender",
          "type": "address"
        }
      ],
      "name": "allowance",
      "outputs": [
        {
          "internalType": "uint256",
          "name": "remaining",
          "type": "uint256"
        }
      ],
      "stateMutability": "view",
      "type": "function"
    },
    {
      "inputs": [
        {
          "internalType": "address",
          "name": "spender",
          "type": "address"
        },
        {
          "internalType": "uint256",
          "name": "tokens",
          "type": "uint256"
        }
      ],
      "name": "approve",
      "outputs": [
        {
          "internalType": "bool",
          "name": "success",
          "type": "bool"
        }
      ],
      "stateMutability": "nonpayable",
      "type": "function"
    },
    {
      "inputs": [
        {
          "internalType": "address",
          "name": "tokenOwner",
          "type": "address"
        }
      ],
      "name": "balanceOf",
      "outputs": [
        {
          "internalType": "uint256",
          "name": "balance",
          "type": "uint256"
        }
      ],
      "stateMutability": "view",
      "type": "function"
    },
    {
      "inputs": [],
      "name": "challengeNumber",
      "outputs": [
        {
          "internalType": "bytes32",
          "name": "",
          "type": "bytes32"
        }
      ],
      "stateMutability": "view",
      "type": "function"
    },
    {
      "inputs": [
        {
          "internalType": "uint256",
          "name": "nonce",
          "type": "uint256"
        },
        {
          "internalType": "bytes32",
          "name": "challenge_digest",
          "type": "bytes32"
        },
        {
          "internalType": "bytes32",
          "name": "challenge_number",
          "type": "bytes32"
        },
        {
          "internalType": "uint256",
          "name": "testTarget",
          "type": "uint256"
        }
      ],
      "name": "checkMintSolution",
      "outputs": [
        {
          "internalType": "bool",
          "name": "success",
          "type": "bool"
        }
      ],
      "stateMutability": "view",
      "type": "function"
    },
    {
      "inputs": [],
      "name": "decimals",
      "outputs": [
        {
          "internalType": "uint8",
          "name": "",
          "type": "uint8"
        }
      ],
      "stateMutability": "view",
      "type": "function"
    },
    {
      "inputs": [
        {
          "internalType": "uint256",
          "name": "nonce",
          "type": "uint256"
        },
        {
          "internalType": "bytes32",
          "name": "challenge_digest",
          "type": "bytes32"
        },
        {
          "internalType": "address[]",
          "name": "ExtraFunds",
          "type": "address[]"
        },
        {
          "internalType": "address[]",
          "name": "MintTo",
          "type": "address[]"
        }
      ],
      "name": "empty_mintTo",
      "outputs": [
        {
          "internalType": "uint256",
          "name": "owed",
          "type": "uint256"
        }
      ],
      "stateMutability": "nonpayable",
      "type": "function"
    },
    {
      "inputs": [],
      "name": "epochCount",
      "outputs": [
        {
          "internalType": "uint256",
          "name": "",
          "type": "uint256"
        }
      ],
      "stateMutability": "view",
      "type": "function"
    },
    {
      "inputs": [],
      "name": "getChallengeNumber",
      "outputs": [
        {
          "internalType": "bytes32",
          "name": "",
          "type": "bytes32"
        }
      ],
      "stateMutability": "view",
      "type": "function"
    },
    {
      "inputs": [],
      "name": "getEpoch",
      "outputs": [
        {
          "internalType": "uint256",
          "name": "",
          "type": "uint256"
        }
      ],
      "stateMutability": "view",
      "type": "function"
    },
    {
      "inputs": [],
      "name": "getMiningDifficulty",
      "outputs": [
        {
          "internalType": "uint256",
          "name": "",
          "type": "uint256"
        }
      ],
      "stateMutability": "view",
      "type": "function"
    },
    {
      "inputs": [],
      "name": "getMiningMinted",
      "outputs": [
        {
          "internalType": "uint256",
          "name": "",
          "type": "uint256"
        }
      ],
      "stateMutability": "view",
      "type": "function"
    },
    {
      "inputs": [],
      "name": "getMiningReward",
      "outputs": [
        {
          "internalType": "uint256",
          "name": "",
          "type": "uint256"
        }
      ],
      "stateMutability": "view",
      "type": "function"
    },
    {
      "inputs": [],
      "name": "getMiningTarget",
      "outputs": [
        {
          "internalType": "uint256",
          "name": "",
          "type": "uint256"
        }
      ],
      "stateMutability": "view",
      "type": "function"
    },
    {
      "inputs": [
        {
          "internalType": "uint256",
          "name": "nonce",
          "type": "uint256"
        },
        {
          "internalType": "bytes32",
          "name": "challenge_digest",
          "type": "bytes32"
        },
        {
          "internalType": "bytes32",
          "name": "challenge_number",
          "type": "bytes32"
        }
      ],
      "name": "getMintDigest",
      "outputs": [
        {
          "internalType": "bytes32",
          "name": "digesttest",
          "type": "bytes32"
        }
      ],
      "stateMutability": "view",
      "type": "function"
    },
    {
      "inputs": [],
      "name": "latestDifficultyPeriodStarted",
      "outputs": [
        {
          "internalType": "uint256",
          "name": "",
          "type": "uint256"
        }
      ],
      "stateMutability": "view",
      "type": "function"
    },
    {
      "inputs": [],
      "name": "latestDifficultyPeriodStarted2",
      "outputs": [
        {
          "internalType": "uint256",
          "name": "",
          "type": "uint256"
        }
      ],
      "stateMutability": "view",
      "type": "function"
    },
    {
      "inputs": [],
      "name": "maxSupplyForEra",
      "outputs": [
        {
          "internalType": "uint256",
          "name": "",
          "type": "uint256"
        }
      ],
      "stateMutability": "view",
      "type": "function"
    },
    {
      "inputs": [],
      "name": "miningTarget",
      "outputs": [
        {
          "internalType": "uint256",
          "name": "",
          "type": "uint256"
        }
      ],
      "stateMutability": "view",
      "type": "function"
    },
    {
      "inputs": [
        {
          "internalType": "uint256",
          "name": "nonce",
          "type": "uint256"
        },
        {
          "internalType": "bytes32",
          "name": "challenge_digest",
          "type": "bytes32"
        }
      ],
      "name": "mint",
      "outputs": [
        {
          "internalType": "bool",
          "name": "success",
          "type": "bool"
        }
      ],
      "stateMutability": "nonpayable",
      "type": "function"
    },
    {
      "inputs": [
        {
          "internalType": "bool",
          "name": "nonce",
          "type": "bool"
        },
        {
          "internalType": "bool",
          "name": "challenge_digest",
          "type": "bool"
        },
        {
          "internalType": "address",
          "name": "mintTo",
          "type": "address"
        }
      ],
      "name": "mintFREE",
      "outputs": [
        {
          "internalType": "uint256",
          "name": "owed",
          "type": "uint256"
        }
      ],
      "stateMutability": "nonpayable",
      "type": "function"
    },
    {
      "inputs": [
        {
          "internalType": "uint256",
          "name": "nonce",
          "type": "uint256"
        },
        {
          "internalType": "bytes32",
          "name": "challenge_digest",
          "type": "bytes32"
        },
        {
          "internalType": "address",
          "name": "mintTo",
          "type": "address"
        }
      ],
      "name": "mintTo",
      "outputs": [
        {
          "internalType": "uint256",
          "name": "owed",
          "type": "uint256"
        }
      ],
      "stateMutability": "nonpayable",
      "type": "function"
    },
    {
      "inputs": [
        {
          "internalType": "uint256",
          "name": "nonce",
          "type": "uint256"
        },
        {
          "internalType": "bytes32",
          "name": "challenge_digest",
          "type": "bytes32"
        },
        {
          "internalType": "address[]",
          "name": "ExtraFunds",
          "type": "address[]"
        },
        {
          "internalType": "address[]",
          "name": "MintTo",
          "type": "address[]"
        }
      ],
      "name": "mintTokensArrayTo",
      "outputs": [
        {
          "internalType": "uint256",
          "name": "owed",
          "type": "uint256"
        }
      ],
      "stateMutability": "nonpayable",
      "type": "function"
    },
    {
      "inputs": [
        {
          "internalType": "uint256",
          "name": "nonce",
          "type": "uint256"
        },
        {
          "internalType": "bytes32",
          "name": "challenge_digest",
          "type": "bytes32"
        },
        {
          "internalType": "address[]",
          "name": "ExtraFunds",
          "type": "address[]"
        },
        {
          "internalType": "address",
          "name": "MintTo",
          "type": "address"
        }
      ],
      "name": "mintTokensSameAddress",
      "outputs": [
        {
          "internalType": "bool",
          "name": "success",
          "type": "bool"
        }
      ],
      "stateMutability": "nonpayable",
      "type": "function"
    },
    {
      "inputs": [],
      "name": "multipler",
      "outputs": [
        {
          "internalType": "uint256",
          "name": "",
          "type": "uint256"
        }
      ],
      "stateMutability": "view",
      "type": "function"
    },
    {
      "inputs": [],
      "name": "name",
      "outputs": [
        {
          "internalType": "string",
          "name": "",
          "type": "string"
        }
      ],
      "stateMutability": "view",
      "type": "function"
    },
    {
      "inputs": [],
      "name": "owner",
      "outputs": [
        {
          "internalType": "address",
          "name": "",
          "type": "address"
        }
      ],
      "stateMutability": "view",
      "type": "function"
    },
    {
      "inputs": [],
      "name": "previousBlockTime",
      "outputs": [
        {
          "internalType": "uint256",
          "name": "",
          "type": "uint256"
        }
      ],
      "stateMutability": "view",
      "type": "function"
    },
    {
      "inputs": [
        {
          "internalType": "address",
          "name": "from",
          "type": "address"
        },
        {
          "internalType": "uint256",
          "name": "tokens",
          "type": "uint256"
        },
        {
          "internalType": "address",
          "name": "token",
          "type": "address"
        },
        {
          "internalType": "bytes",
          "name": "data",
          "type": "bytes"
        }
      ],
      "name": "receiveApproval",
      "outputs": [],
      "stateMutability": "nonpayable",
      "type": "function"
    },
    {
      "inputs": [],
      "name": "rewardEra",
      "outputs": [
        {
          "internalType": "uint256",
          "name": "",
          "type": "uint256"
        }
      ],
      "stateMutability": "view",
      "type": "function"
    },
    {
      "inputs": [],
      "name": "reward_amount",
      "outputs": [
        {
          "internalType": "uint256",
          "name": "",
          "type": "uint256"
        }
      ],
      "stateMutability": "view",
      "type": "function"
    },
    {
      "inputs": [],
      "name": "symbol",
      "outputs": [
        {
          "internalType": "string",
          "name": "",
          "type": "string"
        }
      ],
      "stateMutability": "view",
      "type": "function"
    },
    {
      "inputs": [],
      "name": "targetTime",
      "outputs": [
        {
          "internalType": "uint256",
          "name": "",
          "type": "uint256"
        }
      ],
      "stateMutability": "view",
      "type": "function"
    },
    {
      "inputs": [],
      "name": "tokensMinted",
      "outputs": [
        {
          "internalType": "uint256",
          "name": "",
          "type": "uint256"
        }
      ],
      "stateMutability": "view",
      "type": "function"
    },
    {
      "inputs": [],
      "name": "totalSupply",
      "outputs": [
        {
          "internalType": "uint256",
          "name": "",
          "type": "uint256"
        }
      ],
      "stateMutability": "view",
      "type": "function"
    },
    {
      "inputs": [
        {
          "internalType": "address",
          "name": "to",
          "type": "address"
        },
        {
          "internalType": "uint256",
          "name": "tokens",
          "type": "uint256"
        }
      ],
      "name": "transfer",
      "outputs": [
        {
          "internalType": "bool",
          "name": "success",
          "type": "bool"
        }
      ],
      "stateMutability": "nonpayable",
      "type": "function"
    },
    {
      "inputs": [
        {
          "internalType": "address",
          "name": "from",
          "type": "address"
        },
        {
          "internalType": "address",
          "name": "to",
          "type": "address"
        },
        {
          "internalType": "uint256",
          "name": "tokens",
          "type": "uint256"
        }
      ],
      "name": "transferFrom",
      "outputs": [
        {
          "internalType": "bool",
          "name": "success",
          "type": "bool"
        }
      ],
      "stateMutability": "nonpayable",
      "type": "function"
    },
    {
      "inputs": [
        {
          "internalType": "address",
          "name": "AuctionAddress2",
          "type": "address"
        },
        {
          "internalType": "address",
          "name": "LPGuild2",
          "type": "address"
        },
        {
          "internalType": "address",
          "name": "_ZeroXBTCAddress",
          "type": "address"
        }
      ],
      "name": "zinit",
      "outputs": [],
      "stateMutability": "nonpayable",
      "type": "function"
    },
    {
      "stateMutability": "payable",
      "type": "receive"
    }
  ],
  "bytecode": "608060405260006001556a22bdd89dce55b0116400006005556a115eec47f6cf7e3500000060065542600755600060085561010060095562010000600a55600160ea1b600b556200006765048c27395000600b54620001f560201b620022871790919060201c565b600c556200007760014362000308565b40600d556000600e55620000b9600e54600162000095919062000322565b620000a29060026200043a565b600654620001f560201b620022871790919060201c565b600654620000c8919062000308565b600f5560006010819055601181905542601255670de0b6b3a76400006013556305f5e100601455620f42406015556058601655601a556001601b5560408051808201909152600580825264466f72676560d81b60209092019182526200013191601c916200024c565b5042601d5543601e55601f805460ff191690553480156200015157600080fd5b50600080546001600160a01b0319163390811782556040805192835260208301919091527f5c486528ec3e3f0ea91181cff8116f02bfa350e03b8b6f12e00765adbb5af85c910160405180910390a1336000818152601860209081526040808320670de0b6b3a76400009081905590519081527fddf252ad1be2c89b69c2b068fc378daa952ba7f163c4a11628f55a4df523b3ef910160405180910390a3620004a8565b600081620002375760405162461bcd60e51b815260206004820152600b60248201526a446976206279207a65726f60a81b604482015260640160405180910390fd5b62000243828462000448565b90505b92915050565b8280546200025a906200046b565b90600052602060002090601f0160209004810192826200027e5760008555620002c9565b82601f106200029957805160ff1916838001178555620002c9565b82800160010185558215620002c9579182015b82811115620002c9578251825591602001919060010190620002ac565b50620002d7929150620002db565b5090565b5b80821115620002d75760008155600101620002dc565b634e487b7160e01b600052601160045260246000fd5b6000828210156200031d576200031d620002f2565b500390565b60008219821115620003385762000338620002f2565b500190565b600181815b808511156200037e578160001904821115620003625762000362620002f2565b808516156200037057918102915b93841c939080029062000342565b509250929050565b600082620003975750600162000246565b81620003a65750600062000246565b8160018114620003bf5760028114620003ca57620003ea565b600191505062000246565b60ff841115620003de57620003de620002f2565b50506001821b62000246565b5060208310610133831016604e8410600b84101617156200040f575081810a62000246565b6200041b83836200033d565b8060001904821115620004325762000432620002f2565b029392505050565b600062000243838362000386565b6000826200046657634e487b7160e01b600052601260045260246000fd5b500490565b600181811c908216806200048057607f821691505b60208210811415620004a257634e487b7160e01b600052602260045260246000fd5b50919050565b61308b80620004b86000396000f3fe6080604052600436106102815760003560e01c8063829965cc1161014f578063a9059cbb116100c1578063dc6e9cf91161007a578063dc6e9cf91461071c578063dd62ed3e14610732578063ddfbd8dd14610778578063e932012b14610798578063f7a5f155146107ae578063f8bf8df5146107ce57600080fd5b8063a9059cbb14610686578063b5ade81b146106a6578063c0abebe0146106bc578063c8a1465c146106d1578063cb9ae707146106f1578063d0856d161461070757600080fd5b80638f4ffcb1116101135780638f4ffcb1146105cb57806394b939ef146105eb57806395d89b411461060b57806397566aa01461063a57806399f584b31461065a578063a68eb88e1461067057600080fd5b8063829965cc1461055357806387a2a9d6146105695780638a769d351461057f5780638ae0368b146105955780638da5cb5b146105ab57600080fd5b8063313ce567116101f3578063510de094116101ac578063510de0941461049057806364e46726146104b05780636de9f32b146104d257806370a08231146104e8578063757991a81461051e57806381269a561461053357600080fd5b8063313ce567146103fe57806332e997081461042557806345d8a2321461043a578063490203a7146104505780634ef37628146104655780634fa972e11461047a57600080fd5b806318160ddd1161024557806318160ddd146103445780631fccb33c1461035a5780632381a60e1461037a57806323b872dd146103905780632d38bf7a146103b05780632f104e0c146103c657600080fd5b806306fdde0314610290578063095ea7b3146102bb57806310294317146102eb57806317da485f1461030f5780631801fbe51461032457600080fd5b3661028b57600080fd5b600080fd5b34801561029c57600080fd5b506102a56107ee565b6040516102b29190612883565b60405180910390f35b3480156102c757600080fd5b506102db6102d63660046128f4565b61087c565b60405190151581526020016102b2565b3480156102f757600080fd5b5061030160125481565b6040519081526020016102b2565b34801561031b57600080fd5b506103016108e9565b34801561033057600080fd5b506102db61033f36600461291e565b610907565b34801561035057600080fd5b5061030160055481565b34801561036657600080fd5b506102db610375366004612a0e565b61091b565b34801561038657600080fd5b5061030160105481565b34801561039c57600080fd5b506102db6103ab366004612a6f565b6109de565b3480156103bc57600080fd5b50610301600e5481565b3480156103d257600080fd5b506003546103e6906001600160a01b031681565b6040516001600160a01b0390911681526020016102b2565b34801561040a57600080fd5b50610413601281565b60405160ff90911681526020016102b2565b34801561043157600080fd5b50600c54610301565b34801561044657600080fd5b50610301610b4081565b34801561045c57600080fd5b50610301610adc565b34801561047157600080fd5b50600d54610301565b34801561048657600080fd5b50610301600f5481565b34801561049c57600080fd5b506004546103e6906001600160a01b031681565b3480156104bc57600080fd5b506104d06104cb366004612aab565b610b0d565b005b3480156104de57600080fd5b5061030160175481565b3480156104f457600080fd5b50610301610503366004612aee565b6001600160a01b031660009081526018602052604090205490565b34801561052a57600080fd5b50600854610301565b34801561053f57600080fd5b506102db61054e366004612b09565b610c83565b34801561055f57600080fd5b5061030160085481565b34801561057557600080fd5b50610301600b5481565b34801561058b57600080fd5b50610301600c5481565b3480156105a157600080fd5b50610301600d5481565b3480156105b757600080fd5b506000546103e6906001600160a01b031681565b3480156105d757600080fd5b506104d06105e6366004612b3b565b610cce565b3480156105f757600080fd5b506002546103e6906001600160a01b031681565b34801561061757600080fd5b506102a56040518060400160405280600381526020016246676560e81b81525081565b34801561064657600080fd5b50610301610655366004612bfb565b610d5b565b34801561066657600080fd5b5061030160015481565b34801561067c57600080fd5b5061030160155481565b34801561069257600080fd5b506102db6106a13660046128f4565b610d96565b3480156106b257600080fd5b5061030160095481565b3480156106c857600080fd5b50601754610301565b3480156106dd57600080fd5b506103016106ec366004612c27565b610e2d565b3480156106fd57600080fd5b50610301601e5481565b34801561071357600080fd5b506104d0611324565b34801561072857600080fd5b50610301600a5481565b34801561073e57600080fd5b5061030161074d366004612c9e565b6001600160a01b03918216600090815260196020908152604080832093909416825291909152205490565b34801561078457600080fd5b50610301610793366004612cd1565b611577565b3480156107a457600080fd5b5061030160075481565b3480156107ba57600080fd5b506103016107c9366004612c27565b611985565b3480156107da57600080fd5b506103016107e9366004612d0e565b611f5d565b601c80546107fb90612d3e565b80601f016020809104026020016040519081016040528092919081815260200182805461082790612d3e565b80156108745780601f1061084957610100808354040283529160200191610874565b820191906000526020600020905b81548152906001019060200180831161085757829003601f168201915b505050505081565b3360008181526019602090815260408083206001600160a01b038716808552925280832085905551919290917f8c5be1e5ebec7d5bd14f71427d1e84f3dd0314c0f7b2291e5b200ac8c7c3b925906108d79086815260200190565b60405180910390a35060015b92915050565b6000610902600c54600b5461228790919063ffffffff16565b905090565b6000610914838333611577565b5092915050565b6000808351600161092c9190612d8f565b67ffffffffffffffff81111561094457610944612940565b60405190808252806020026020018201604052801561096d578160200160208202803683370190505b50905060005b8451610980906001612d8f565b8110156109c4578382828151811061099a5761099a612da7565b6001600160a01b0390921660209283029190910190910152806109bc81612dbd565b915050610973565b506109d186868684610e2d565b5060019695505050505050565b6001600160a01b038316600090815260186020526040812054610a0190836122d5565b6001600160a01b0385166000908152601860209081526040808320939093556019815282822033835290522054610a3890836122d5565b6001600160a01b038086166000908152601960209081526040808320338452825280832094909455918616815260189091522054610a769083612321565b6001600160a01b0380851660008181526018602052604090819020939093559151908616907fddf252ad1be2c89b69c2b068fc378daa952ba7f163c4a11628f55a4df523b3ef90610aca9086815260200190565b60405180910390a35060019392505050565b6000610902600e546002610af09190612ebc565b610afc6012600a612ebc565b610b07906064612ec8565b90612287565b6000546001600160a01b03163314610b595760405162461bcd60e51b815260206004820152600a60248201526937b7363c9037bbb732b960b11b60448201526064015b60405180910390fd5b601f546a115eec47f6cf7e350000009060ff1615610b7957610b79612ee7565b601f805460ff1916600117905542601255600e54610b9c90610af0906002612ebc565b6010556000600e8190556017819055600855600b54610bbc906001612287565b600c5542600755610bcb61236f565b610bd6600282612f13565b6001600160a01b038516600081815260186020526040812092909255907fddf252ad1be2c89b69c2b068fc378daa952ba7f163c4a11628f55a4df523b3ef610c1f600285612f13565b60405190815260200160405180910390a3600280546001600160a01b038087166001600160a01b031992831617909255600380548684169083161790556004805492851692909116919091179055600854601155610c7d60006125c0565b50505050565b600080833387604051602001610c9b93929190612f27565b604051602081830303815290604052805190602001209050828160001c1115610cc357600080fd5b909314949350505050565b6001600160a01b0382163014610ce357600080fd5b60405163a9059cbb60e01b81526001600160a01b038516600482015260248101849052309063a9059cbb906044016020604051808303816000875af1158015610d30573d6000803e3d6000fd5b505050506040513d601f19601f82011682018060405250810190610d549190612f4f565b5050505050565b600080600d543386604051602001610d7593929190612f27565b60408051808303601f19018152919052805160209091012095945050505050565b33600090815260186020526040812054610db090836122d5565b33600090815260186020526040808220929092556001600160a01b03851681522054610ddc9083612321565b6001600160a01b0384166000818152601860205260409081902092909255905133907fddf252ad1be2c89b69c2b068fc378daa952ba7f163c4a11628f55a4df523b3ef906108d79086815260200190565b600080610e55868685600081518110610e4857610e48612da7565b6020026020010151611577565b905060008111610e945760405162461bcd60e51b815260206004820152600a6024820152696d696e7420697373756560b01b6044820152606401610b50565b8351610ea1906001612d8f565b835114610f165760405162461bcd60e51b815260206004820152603a60248201527f4d696e74546f2068617320746f206861766520616e206578747261206164647260448201527f65737320636f6d706172656420746f20457874726146756e64730000000000006064820152608401610b50565b60005b84518110156110da57610f2d816001612d8f565b610f38906002612ebc565b600854610f459190612f6c565b15610f4f576110da565b306001600160a01b0316858281518110610f6b57610f6b612da7565b60200260200101516001600160a01b031614158015610fbc575060045485516001600160a01b0390911690869083908110610fa857610fa8612da7565b60200260200101516001600160a01b031614155b6110085760405162461bcd60e51b815260206004820152601a60248201527f4e6f2062617365207072696e74696e67206f6620746f6b656e730000000000006044820152606401610b50565b6000611015826001612d8f565b90505b85518110156110c75785828151811061103357611033612da7565b60200260200101516001600160a01b031686828151811061105657611056612da7565b60200260200101516001600160a01b031614156110b55760405162461bcd60e51b815260206004820152601b60248201527f4e6f207072696e74696e67205468652073616d6520746f6b656e7300000000006044820152606401610b50565b806110bf81612dbd565b915050611018565b50806110d281612dbd565b915050610f19565b60008060005b838110156112c6576110f3816001612d8f565b6110fe906002612ebc565b60085461110b9190612f6c565b6112b45787818151811061112157611121612da7565b60209081029190910101516040516370a0823160e01b81523060048201526001600160a01b03909116906370a0823190602401602060405180830381865afa158015611171573d6000803e3d6000fd5b505050506040513d601f19601f820116820180604052508101906111959190612f80565b915081156111ef576111a8600382612f6c565b1580156111b457508015155b156111d9576111d2643a352944006111cc8785612ec8565b90612670565b92506111ef565b6111ec643a35294400610b078785612ec8565b92505b87818151811061120157611201612da7565b60200260200101516001600160a01b031663a9059cbb888360016112259190612d8f565b8151811061123557611235612da7565b6020026020010151856040518363ffffffff1660e01b815260040161126f9291906001600160a01b03929092168252602082015260400190565b6020604051808303816000875af115801561128e573d6000803e3d6000fd5b505050506040513d601f19601f820116820180604052508101906112b29190612f4f565b505b806112be81612dbd565b9150506110e0565b50600854600d5460408051928352602083019190915281018490526060810185905233907f87e5a7775b8ac2ead741e32752431bffeff76ec5f347cc202a6bad454653930b9060800160405180910390a25091979650505050505050565b6000601d54426113349190612f99565b905060006011546008546113489190612f99565b905060006113568284612f13565b905061136a600e546002610af09190612ebc565b6010556000611381610b406111cc84610378612ec8565b90506000610378611393836064612ec8565b61139d9190612f13565b9050600060c88210156113ef576113be610378610b078563026f7f3c612ec8565b6113de620c08406113d0600287612fb0565b610b07906303a2cdf0612ec8565b6113e89190612d8f565b90506113f6565b50631443fd005b60046009546015546114089190612ec8565b61141390603c612ec8565b61141d9190612f13565b600480546040516370a0823160e01b815230928101929092526001600160a01b0316906370a0823190602401602060405180830381865afa158015611466573d6000803e3d6000fd5b505050506040513d601f19601f8201168201806040525081019061148a9190612f80565b111561155f57600454600354601a546015546001600160a01b039384169363a9059cbb9316916114d991630bebc20091906114c5888d612ec8565b6114cf9190612ec8565b610b079190612ec8565b6040516001600160e01b031960e085901b1681526001600160a01b03909216600483015260248201526044016020604051808303816000875af1158015611524573d6000803e3d6000fd5b505050506040513d601f19601f820116820180604052508101906115489190612f4f565b50601b54611557906001612ec8565b601a55611565565b6000601a555b5050600854601155505042601d555050565b600080600d54338660405160200161159193929190612f27565b6040516020818303038152906040528051906020012090508381146115c85760405162461bcd60e51b8152600401610b5090612fbf565b600c5481106115e95760405162461bcd60e51b8152600401610b509061300d565b6115f161236f565b601254421161163a5760405162461bcd60e51b81526020600482015260156024820152744e6f2073616d65207365636f6e6420736f6c76657360581b6044820152606401610b50565b6000610b406012544261164d9190612f99565b61165990610378612ec8565b6116639190612f13565b90506000610378611675836064612ec8565b61167f9190612f13565b9050600061013a8210156116c4576116a1610378610b078563026f7f3c612ec8565b6116b3620c08406113d0600287612fb0565b6116bd9190612d8f565b90506116e9565b6116d8610378610b07856305f5e100612ec8565b6116e6906314dc9380612d8f565b90505b6117216117026305f5e10083601054610b079190612ec8565b6001600160a01b03881660009081526018602052604090205490612321565b6001600160a01b0387166000908152601860205260409020556010546117779061175690630bebc20090610b07908590612ec8565b6003546001600160a01b031660009081526018602052604090205490612321565b6003546001600160a01b03166000908152601860205260409020556010546117b7906117ae906305f5e10090610b07908590612ec8565b60175490612321565b60175542601255601a54156119155760c882101561187557600454601a546015546001600160a01b039092169163a9059cbb918991611800916305f5e100916114cf9088612ec8565b6040516001600160e01b031960e085901b1681526001600160a01b03909216600483015260248201526044016020604051808303816000875af115801561184b573d6000803e3d6000fd5b505050506040513d601f19601f8201168201806040525081019061186f9190612f4f565b50611915565b600454601a546015546001600160a01b039092169163a9059cbb9189916118a491600a916114cf906022612ec8565b6040516001600160e01b031960e085901b1681526001600160a01b03909216600483015260248201526044016020604051808303816000875af11580156118ef573d6000803e3d6000fd5b505050506040513d601f19601f820116820180604052508101906119139190612f4f565b505b336001600160a01b03167fcf6fbb9dcea7d07263ab4f5c3a92f53af33dffc421d9d121e1c74b307e68189d6119566305f5e10084601054610b079190612ec8565b600854600d546040805193845260208401929092529082015260600160405180910390a2979650505050505050565b600080600d54338760405160200161199f93929190612f27565b6040516020818303038152906040528051906020012090508481146119d65760405162461bcd60e51b8152600401610b5090612fbf565b600c5481106119f75760405162461bcd60e51b8152600401610b509061300d565b6119ff61236f565b6012544211611a485760405162461bcd60e51b81526020600482015260156024820152744e6f2073616d65207365636f6e6420736f6c76657360581b6044820152606401610b50565b8351835114611abf5760405162461bcd60e51b815260206004820152603a60248201527f4d696e74546f2068617320746f20686176652073616d65206e756d626572206f60448201527f66206164647265737373657320617320457874726146756e64730000000000006064820152608401610b50565b60005b8451811015611c8357611ad6816001612d8f565b611ae1906002612ebc565b600854611aee9190612f6c565b15611af857611c83565b306001600160a01b0316858281518110611b1457611b14612da7565b60200260200101516001600160a01b031614158015611b65575060045485516001600160a01b0390911690869083908110611b5157611b51612da7565b60200260200101516001600160a01b031614155b611bb15760405162461bcd60e51b815260206004820152601a60248201527f4e6f2062617365207072696e74696e67206f6620746f6b656e730000000000006044820152606401610b50565b6000611bbe826001612d8f565b90505b8551811015611c7057858281518110611bdc57611bdc612da7565b60200260200101516001600160a01b0316868281518110611bff57611bff612da7565b60200260200101516001600160a01b03161415611c5e5760405162461bcd60e51b815260206004820152601b60248201527f4e6f207072696e74696e67205468652073616d6520746f6b656e7300000000006044820152606401610b50565b80611c6881612dbd565b915050611bc1565b5080611c7b81612dbd565b915050611ac2565b6000610b4060125442611c969190612f99565b611ca290610378612ec8565b611cac9190612f13565b90506000610378611cbe836064612ec8565b611cc89190612f13565b9050600061013a821015611d0d57611cea610378610b078563026f7f3c612ec8565b611cfc620c08406113d0600287612fb0565b611d069190612d8f565b9050611d32565b611d21610378610b07856305f5e100612ec8565b611d2f906314dc9380612d8f565b90505b60008111611d6f5760405162461bcd60e51b815260206004820152600a6024820152696d696e7420697373756560b01b6044820152606401610b50565b60008060005b86811015611f4957611d88816001612d8f565b611d93906002612ebc565b600854611da09190612f6c565b611f37578a8181518110611db657611db6612da7565b60209081029190910101516040516370a0823160e01b81523060048201526001600160a01b03909116906370a0823190602401602060405180830381865afa158015611e06573d6000803e3d6000fd5b505050506040513d601f19601f82011682018060405250810190611e2a9190612f80565b91508115611f3757611e3d600382612f6c565b158015611e4957508015155b15611e6857611e61643a352944006111cc8685612ec8565b9250611e7e565b611e7b643a35294400610b078685612ec8565b92505b8a8181518110611e9057611e90612da7565b60200260200101516001600160a01b031663a9059cbb8b8381518110611eb857611eb8612da7565b6020026020010151856040518363ffffffff1660e01b8152600401611ef29291906001600160a01b03929092168252602082015260400190565b6020604051808303816000875af1158015611f11573d6000803e3d6000fd5b505050506040513d601f19601f82011682018060405250810190611f359190612f4f565b505b80611f4181612dbd565b915050611d75565b505042601255509998505050505050505050565b6000611f6761236f565b6000610b4060125442611f7a9190612f99565b611f8690610378612ec8565b611f909190612f13565b90506000610378611fa2836064612ec8565b611fac9190612f13565b9050600061013a821015611ff157611fce610378610b078563026f7f3c612ec8565b611fe0620c08406113d0600287612fb0565b611fea9190612d8f565b9050612016565b612005610378610b07856305f5e100612ec8565b612013906314dc9380612d8f565b90505b61204e61202f6305f5e10083601054610b079190612ec8565b6001600160a01b03871660009081526018602052604090205490612321565b6001600160a01b0386166000908152601860205260409020556010546120839061175690630bebc20090610b07908590612ec8565b6003546001600160a01b03166000908152601860205260409020556010546120ba906117ae906305f5e10090610b07908590612ec8565b60175542601255601a54156122185760c882101561217857600454601a546015546001600160a01b039092169163a9059cbb918891612103916305f5e100916114cf9088612ec8565b6040516001600160e01b031960e085901b1681526001600160a01b03909216600483015260248201526044016020604051808303816000875af115801561214e573d6000803e3d6000fd5b505050506040513d601f19601f820116820180604052508101906121729190612f4f565b50612218565b600454601a546015546001600160a01b039092169163a9059cbb9188916121a791600a916114cf906022612ec8565b6040516001600160e01b031960e085901b1681526001600160a01b03909216600483015260248201526044016020604051808303816000875af11580156121f2573d6000803e3d6000fd5b505050506040513d601f19601f820116820180604052508101906122169190612f4f565b505b336001600160a01b03167fcf6fbb9dcea7d07263ab4f5c3a92f53af33dffc421d9d121e1c74b307e68189d6122596305f5e10084601054610b079190612ec8565b600854600d546040805193845260208401929092529082015260600160405180910390a29695505050505050565b6000816122c45760405162461bcd60e51b815260206004820152600b60248201526a446976206279207a65726f60a81b6044820152606401610b50565b6122ce8284612f13565b9392505050565b6000818310156123175760405162461bcd60e51b815260206004820152600d60248201526c53756220756e646572666c6f7760981b6044820152606401610b50565b6122ce8284612f99565b60008061232e8385612d8f565b9050838110156122ce5760405162461bcd60e51b815260206004820152600c60248201526b416464206f766572666c6f7760a01b6044820152606401610b50565b600f5460105460175461238191612321565b1180156123905750603c600e54105b156123dc57600e546123a3906001612d8f565b600e8190556123cb906123b7906001612d8f565b6123c2906002612ebc565b60065490612287565b6006546123d89190612f99565b600f555b6008546123ea906001612321565b6008556009546123fc90600490612f13565b6008546124099190612f6c565b6125af57612415611324565b612427600e5460016123b79190612d8f565b6006546124349190612f99565b600f556009546008546124479190612f6c565b6125af57600480546040516370a0823160e01b81523092810192909252642e90edd000916001600160a01b03909116906370a0823190602401602060405180830381865afa15801561249d573d6000803e3d6000fd5b505050506040513d601f19601f820116820180604052508101906124c19190612f80565b6124cb9190612f13565b60018190556124dc90612710612ec8565b6124e890612710612d8f565b601554600480546040516370a0823160e01b815230928101929092526001600160a01b0316906370a0823190602401602060405180830381865afa158015612534573d6000803e3d6000fd5b505050506040513d601f19601f820116820180604052508101906125589190612f80565b6125629190612f13565b1161259557601654601554612578906002612287565b11156125905760155461258c906002612287565b6015555b6125a7565b6015546125a39060036126dd565b6015555b6125af612742565b6125ba600143612f99565b40600d55565b6000546001600160a01b031633146126075760405162461bcd60e51b815260206004820152600a60248201526937b7363c9037bbb732b960b11b6044820152606401610b50565b600054604080516001600160a01b03928316815291831660208301527f5c486528ec3e3f0ea91181cff8116f02bfa350e03b8b6f12e00765adbb5af85c910160405180910390a1600080546001600160a01b0319166001600160a01b0392909216919091179055565b6000816126ad5760405162461bcd60e51b815260206004820152600b60248201526a446976206279207a65726f60a81b6044820152606401610b50565b60006126b98385612f13565b90506126c58385612f6c565b156122ce576126d5816001612d8f565b949350505050565b6000826126ec575060006108e3565b60006126f88385612ec8565b9050826127058583612f13565b146122ce5760405162461bcd60e51b815260206004820152600d60248201526c4d756c74206f766572666c6f7760981b6044820152606401610b50565b60075442906000906127549083612f99565b90506000600954610b406127689190612ec8565b9050808210156127dd57600061278383610b078460646126dd565b6001601b55905060006127a36103e861279d8460646122d5565b9061286b565b90506127d26127c9826127c36107d0600c5461228790919063ffffffff16565b906126dd565b600c54906122d5565b600c55506128379050565b60006127ee82610b078560646126dd565b6002601b55905060006128086103e861279d8460646122d5565b9050612831612828826127c36101f4600c5461228790919063ffffffff16565b600c5490612321565b600c5550505b600783905543601e55600a54600c54101561285357600a54600c555b600b54600c54111561286657600b54600c555b505050565b60008183111561287c5750806108e3565b5090919050565b600060208083528351808285015260005b818110156128b057858101830151858201604001528201612894565b818111156128c2576000604083870101525b50601f01601f1916929092016040019392505050565b80356001600160a01b03811681146128ef57600080fd5b919050565b6000806040838503121561290757600080fd5b612910836128d8565b946020939093013593505050565b6000806040838503121561293157600080fd5b50508035926020909101359150565b634e487b7160e01b600052604160045260246000fd5b604051601f8201601f1916810167ffffffffffffffff8111828210171561297f5761297f612940565b604052919050565b600082601f83011261299857600080fd5b8135602067ffffffffffffffff8211156129b4576129b4612940565b8160051b6129c3828201612956565b92835284810182019282810190878511156129dd57600080fd5b83870192505b84831015612a03576129f4836128d8565b825291830191908301906129e3565b979650505050505050565b60008060008060808587031215612a2457600080fd5b8435935060208501359250604085013567ffffffffffffffff811115612a4957600080fd5b612a5587828801612987565b925050612a64606086016128d8565b905092959194509250565b600080600060608486031215612a8457600080fd5b612a8d846128d8565b9250612a9b602085016128d8565b9150604084013590509250925092565b600080600060608486031215612ac057600080fd5b612ac9846128d8565b9250612ad7602085016128d8565b9150612ae5604085016128d8565b90509250925092565b600060208284031215612b0057600080fd5b6122ce826128d8565b60008060008060808587031215612b1f57600080fd5b5050823594602084013594506040840135936060013592509050565b60008060008060808587031215612b5157600080fd5b612b5a856128d8565b93506020808601359350612b70604087016128d8565b9250606086013567ffffffffffffffff80821115612b8d57600080fd5b818801915088601f830112612ba157600080fd5b813581811115612bb357612bb3612940565b612bc5601f8201601f19168501612956565b91508082528984828501011115612bdb57600080fd5b808484018584013760008482840101525080935050505092959194509250565b600080600060608486031215612c1057600080fd5b505081359360208301359350604090920135919050565b60008060008060808587031215612c3d57600080fd5b8435935060208501359250604085013567ffffffffffffffff80821115612c6357600080fd5b612c6f88838901612987565b93506060870135915080821115612c8557600080fd5b50612c9287828801612987565b91505092959194509250565b60008060408385031215612cb157600080fd5b612cba836128d8565b9150612cc8602084016128d8565b90509250929050565b600080600060608486031215612ce657600080fd5b8335925060208401359150612ae5604085016128d8565b8015158114612d0b57600080fd5b50565b600080600060608486031215612d2357600080fd5b8335612d2e81612cfd565b92506020840135612ad781612cfd565b600181811c90821680612d5257607f821691505b60208210811415612d7357634e487b7160e01b600052602260045260246000fd5b50919050565b634e487b7160e01b600052601160045260246000fd5b60008219821115612da257612da2612d79565b500190565b634e487b7160e01b600052603260045260246000fd5b6000600019821415612dd157612dd1612d79565b5060010190565b600181815b80851115612e13578160001904821115612df957612df9612d79565b80851615612e0657918102915b93841c9390800290612ddd565b509250929050565b600082612e2a575060016108e3565b81612e37575060006108e3565b8160018114612e4d5760028114612e5757612e73565b60019150506108e3565b60ff841115612e6857612e68612d79565b50506001821b6108e3565b5060208310610133831016604e8410600b8410161715612e96575081810a6108e3565b612ea08383612dd8565b8060001904821115612eb457612eb4612d79565b029392505050565b60006122ce8383612e1b565b6000816000190483118215151615612ee257612ee2612d79565b500290565b634e487b7160e01b600052600160045260246000fd5b634e487b7160e01b600052601260045260246000fd5b600082612f2257612f22612efd565b500490565b92835260609190911b6bffffffffffffffffffffffff19166020830152603482015260540190565b600060208284031215612f6157600080fd5b81516122ce81612cfd565b600082612f7b57612f7b612efd565b500690565b600060208284031215612f9257600080fd5b5051919050565b600082821015612fab57612fab612d79565b500390565b60006122ce60ff841683612e1b565b6020808252602e908201527f4f6c64206368616c6c656e67655f646967657374206f722077726f6e6720636860408201526d185b1b195b99d957d91a59d95cdd60921b606082015260800190565b60208082526028908201527f446967657374206d75737420626520736d616c6c6572207468616e206d696e696040820152671b99d5185c99d95d60c21b60608201526080019056fea2646970667358221220603a845c698e00535cc52bcf649275848c30d5c2ad348e661ca5f540d337738064736f6c634300080b0033",
  "bytecodeSha1": "cc1a12806ab4eb372356d49a9731a417bed4e691",
  "compiler": {
    "evm_version": "istanbul",
    "optimizer": {
      "enabled": true,
      "runs": 200
    },
    "version": "0.8.11+commit.d7f03943"
  },
  "contractName": "ForgeTest",
  "language": "Solidity",
  "natspec": {
    "kind": "dev",
    "methods": {},
    "version": 1
  },
  "opcodes": "PUSH1 0x80 PUSH1 0x40 MSTORE PUSH1 0x4 CALLDATASIZE LT PUSH2 0x281 JUMPI PUSH1 0x0 CALLDATALOAD PUSH1 0xE0 SHR DUP1 PUSH4 0x829965CC GT PUSH2 0x14F JUMPI DUP1 PUSH4 0xA9059CBB GT PUSH2 0xC1 JUMPI DUP1 PUSH4 0xDC6E9CF9 GT PUSH2 0x7A JUMPI DUP1 PUSH4 0xDC6E9CF9 EQ PUSH2 0x71C JUMPI DUP1 PUSH4 0xDD62ED3E EQ PUSH2 0x732 JUMPI DUP1 PUSH4 0xDDFBD8DD EQ PUSH2 0x778 JUMPI DUP1 PUSH4 0xE932012B EQ PUSH2 0x798 JUMPI DUP1 PUSH4 0xF7A5F155 EQ PUSH2 0x7AE JUMPI DUP1 PUSH4 0xF8BF8DF5 EQ PUSH2 0x7CE JUMPI PUSH1 0x0 DUP1 REVERT JUMPDEST DUP1 PUSH4 0xA9059CBB EQ PUSH2 0x686 JUMPI DUP1 PUSH4 0xB5ADE81B EQ PUSH2 0x6A6 JUMPI DUP1 PUSH4 0xC0ABEBE0 EQ PUSH2 0x6BC JUMPI DUP1 PUSH4 0xC8A1465C EQ PUSH2 0x6D1 JUMPI DUP1 PUSH4 0xCB9AE707 EQ PUSH2 0x6F1 JUMPI DUP1 PUSH4 0xD0856D16 EQ PUSH2 0x707 JUMPI PUSH1 0x0 DUP1 REVERT JUMPDEST DUP1 PUSH4 0x8F4FFCB1 GT PUSH2 0x113 JUMPI DUP1 PUSH4 0x8F4FFCB1 EQ PUSH2 0x5CB JUMPI DUP1 PUSH4 0x94B939EF EQ PUSH2 0x5EB JUMPI DUP1 PUSH4 0x95D89B41 EQ PUSH2 0x60B JUMPI DUP1 PUSH4 0x97566AA0 EQ PUSH2 0x63A JUMPI DUP1 PUSH4 0x99F584B3 EQ PUSH2 0x65A JUMPI DUP1 PUSH4 0xA68EB88E EQ PUSH2 0x670 JUMPI PUSH1 0x0 DUP1 REVERT JUMPDEST DUP1 PUSH4 0x829965CC EQ PUSH2 0x553 JUMPI DUP1 PUSH4 0x87A2A9D6 EQ PUSH2 0x569 JUMPI DUP1 PUSH4 0x8A769D35 EQ PUSH2 0x57F JUMPI DUP1 PUSH4 0x8AE0368B EQ PUSH2 0x595 JUMPI DUP1 PUSH4 0x8DA5CB5B EQ PUSH2 0x5AB JUMPI PUSH1 0x0 DUP1 REVERT JUMPDEST DUP1 PUSH4 0x313CE567 GT PUSH2 0x1F3 JUMPI DUP1 PUSH4 0x510DE094 GT PUSH2 0x1AC JUMPI DUP1 PUSH4 0x510DE094 EQ PUSH2 0x490 JUMPI DUP1 PUSH4 0x64E46726 EQ PUSH2 0x4B0 JUMPI DUP1 PUSH4 0x6DE9F32B EQ PUSH2 0x4D2 JUMPI DUP1 PUSH4 0x70A08231 EQ PUSH2 0x4E8 JUMPI DUP1 PUSH4 0x757991A8 EQ PUSH2 0x51E JUMPI DUP1 PUSH4 0x81269A56 EQ PUSH2 0x533 JUMPI PUSH1 0x0 DUP1 REVERT JUMPDEST DUP1 PUSH4 0x313CE567 EQ PUSH2 0x3FE JUMPI DUP1 PUSH4 0x32E99708 EQ PUSH2 0x425 JUMPI DUP1 PUSH4 0x45D8A232 EQ PUSH2 0x43A JUMPI DUP1 PUSH4 0x490203A7 EQ PUSH2 0x450 JUMPI DUP1 PUSH4 0x4EF37628 EQ PUSH2 0x465 JUMPI DUP1 PUSH4 0x4FA972E1 EQ PUSH2 0x47A JUMPI PUSH1 0x0 DUP1 REVERT JUMPDEST DUP1 PUSH4 0x18160DDD GT PUSH2 0x245 JUMPI DUP1 PUSH4 0x18160DDD EQ PUSH2 0x344 JUMPI DUP1 PUSH4 0x1FCCB33C EQ PUSH2 0x35A JUMPI DUP1 PUSH4 0x2381A60E EQ PUSH2 0x37A JUMPI DUP1 PUSH4 0x23B872DD EQ PUSH2 0x390 JUMPI DUP1 PUSH4 0x2D38BF7A EQ PUSH2 0x3B0 JUMPI DUP1 PUSH4 0x2F104E0C EQ PUSH2 0x3C6 JUMPI PUSH1 0x0 DUP1 REVERT JUMPDEST DUP1 PUSH4 0x6FDDE03 EQ PUSH2 0x290 JUMPI DUP1 PUSH4 0x95EA7B3 EQ PUSH2 0x2BB JUMPI DUP1 PUSH4 0x10294317 EQ PUSH2 0x2EB JUMPI DUP1 PUSH4 0x17DA485F EQ PUSH2 0x30F JUMPI DUP1 PUSH4 0x1801FBE5 EQ PUSH2 0x324 JUMPI PUSH1 0x0 DUP1 REVERT JUMPDEST CALLDATASIZE PUSH2 0x28B JUMPI PUSH1 0x0 DUP1 REVERT JUMPDEST PUSH1 0x0 DUP1 REVERT JUMPDEST CALLVALUE DUP1 ISZERO PUSH2 0x29C JUMPI PUSH1 0x0 DUP1 REVERT JUMPDEST POP PUSH2 0x2A5 PUSH2 0x7EE JUMP JUMPDEST PUSH1 0x40 MLOAD PUSH2 0x2B2 SWAP2 SWAP1 PUSH2 0x2883 JUMP JUMPDEST PUSH1 0x40 MLOAD DUP1 SWAP2 SUB SWAP1 RETURN JUMPDEST CALLVALUE DUP1 ISZERO PUSH2 0x2C7 JUMPI PUSH1 0x0 DUP1 REVERT JUMPDEST POP PUSH2 0x2DB PUSH2 0x2D6 CALLDATASIZE PUSH1 0x4 PUSH2 0x28F4 JUMP JUMPDEST PUSH2 0x87C JUMP JUMPDEST PUSH1 0x40 MLOAD SWAP1 ISZERO ISZERO DUP2 MSTORE PUSH1 0x20 ADD PUSH2 0x2B2 JUMP JUMPDEST CALLVALUE DUP1 ISZERO PUSH2 0x2F7 JUMPI PUSH1 0x0 DUP1 REVERT JUMPDEST POP PUSH2 0x301 PUSH1 0x12 SLOAD DUP2 JUMP JUMPDEST PUSH1 0x40 MLOAD SWAP1 DUP2 MSTORE PUSH1 0x20 ADD PUSH2 0x2B2 JUMP JUMPDEST CALLVALUE DUP1 ISZERO PUSH2 0x31B JUMPI PUSH1 0x0 DUP1 REVERT JUMPDEST POP PUSH2 0x301 PUSH2 0x8E9 JUMP JUMPDEST CALLVALUE DUP1 ISZERO PUSH2 0x330 JUMPI PUSH1 0x0 DUP1 REVERT JUMPDEST POP PUSH2 0x2DB PUSH2 0x33F CALLDATASIZE PUSH1 0x4 PUSH2 0x291E JUMP JUMPDEST PUSH2 0x907 JUMP JUMPDEST CALLVALUE DUP1 ISZERO PUSH2 0x350 JUMPI PUSH1 0x0 DUP1 REVERT JUMPDEST POP PUSH2 0x301 PUSH1 0x5 SLOAD DUP2 JUMP JUMPDEST CALLVALUE DUP1 ISZERO PUSH2 0x366 JUMPI PUSH1 0x0 DUP1 REVERT JUMPDEST POP PUSH2 0x2DB PUSH2 0x375 CALLDATASIZE PUSH1 0x4 PUSH2 0x2A0E JUMP JUMPDEST PUSH2 0x91B JUMP JUMPDEST CALLVALUE DUP1 ISZERO PUSH2 0x386 JUMPI PUSH1 0x0 DUP1 REVERT JUMPDEST POP PUSH2 0x301 PUSH1 0x10 SLOAD DUP2 JUMP JUMPDEST CALLVALUE DUP1 ISZERO PUSH2 0x39C JUMPI PUSH1 0x0 DUP1 REVERT JUMPDEST POP PUSH2 0x2DB PUSH2 0x3AB CALLDATASIZE PUSH1 0x4 PUSH2 0x2A6F JUMP JUMPDEST PUSH2 0x9DE JUMP JUMPDEST CALLVALUE DUP1 ISZERO PUSH2 0x3BC JUMPI PUSH1 0x0 DUP1 REVERT JUMPDEST POP PUSH2 0x301 PUSH1 0xE SLOAD DUP2 JUMP JUMPDEST CALLVALUE DUP1 ISZERO PUSH2 0x3D2 JUMPI PUSH1 0x0 DUP1 REVERT JUMPDEST POP PUSH1 0x3 SLOAD PUSH2 0x3E6 SWAP1 PUSH1 0x1 PUSH1 0x1 PUSH1 0xA0 SHL SUB AND DUP2 JUMP JUMPDEST PUSH1 0x40 MLOAD PUSH1 0x1 PUSH1 0x1 PUSH1 0xA0 SHL SUB SWAP1 SWAP2 AND DUP2 MSTORE PUSH1 0x20 ADD PUSH2 0x2B2 JUMP JUMPDEST CALLVALUE DUP1 ISZERO PUSH2 0x40A JUMPI PUSH1 0x0 DUP1 REVERT JUMPDEST POP PUSH2 0x413 PUSH1 0x12 DUP2 JUMP JUMPDEST PUSH1 0x40 MLOAD PUSH1 0xFF SWAP1 SWAP2 AND DUP2 MSTORE PUSH1 0x20 ADD PUSH2 0x2B2 JUMP JUMPDEST CALLVALUE DUP1 ISZERO PUSH2 0x431 JUMPI PUSH1 0x0 DUP1 REVERT JUMPDEST POP PUSH1 0xC SLOAD PUSH2 0x301 JUMP JUMPDEST CALLVALUE DUP1 ISZERO PUSH2 0x446 JUMPI PUSH1 0x0 DUP1 REVERT JUMPDEST POP PUSH2 0x301 PUSH2 0xB40 DUP2 JUMP JUMPDEST CALLVALUE DUP1 ISZERO PUSH2 0x45C JUMPI PUSH1 0x0 DUP1 REVERT JUMPDEST POP PUSH2 0x301 PUSH2 0xADC JUMP JUMPDEST CALLVALUE DUP1 ISZERO PUSH2 0x471 JUMPI PUSH1 0x0 DUP1 REVERT JUMPDEST POP PUSH1 0xD SLOAD PUSH2 0x301 JUMP JUMPDEST CALLVALUE DUP1 ISZERO PUSH2 0x486 JUMPI PUSH1 0x0 DUP1 REVERT JUMPDEST POP PUSH2 0x301 PUSH1 0xF SLOAD DUP2 JUMP JUMPDEST CALLVALUE DUP1 ISZERO PUSH2 0x49C JUMPI PUSH1 0x0 DUP1 REVERT JUMPDEST POP PUSH1 0x4 SLOAD PUSH2 0x3E6 SWAP1 PUSH1 0x1 PUSH1 0x1 PUSH1 0xA0 SHL SUB AND DUP2 JUMP JUMPDEST CALLVALUE DUP1 ISZERO PUSH2 0x4BC JUMPI PUSH1 0x0 DUP1 REVERT JUMPDEST POP PUSH2 0x4D0 PUSH2 0x4CB CALLDATASIZE PUSH1 0x4 PUSH2 0x2AAB JUMP JUMPDEST PUSH2 0xB0D JUMP JUMPDEST STOP JUMPDEST CALLVALUE DUP1 ISZERO PUSH2 0x4DE JUMPI PUSH1 0x0 DUP1 REVERT JUMPDEST POP PUSH2 0x301 PUSH1 0x17 SLOAD DUP2 JUMP JUMPDEST CALLVALUE DUP1 ISZERO PUSH2 0x4F4 JUMPI PUSH1 0x0 DUP1 REVERT JUMPDEST POP PUSH2 0x301 PUSH2 0x503 CALLDATASIZE PUSH1 0x4 PUSH2 0x2AEE JUMP JUMPDEST PUSH1 0x1 PUSH1 0x1 PUSH1 0xA0 SHL SUB AND PUSH1 0x0 SWAP1 DUP2 MSTORE PUSH1 0x18 PUSH1 0x20 MSTORE PUSH1 0x40 SWAP1 KECCAK256 SLOAD SWAP1 JUMP JUMPDEST CALLVALUE DUP1 ISZERO PUSH2 0x52A JUMPI PUSH1 0x0 DUP1 REVERT JUMPDEST POP PUSH1 0x8 SLOAD PUSH2 0x301 JUMP JUMPDEST CALLVALUE DUP1 ISZERO PUSH2 0x53F JUMPI PUSH1 0x0 DUP1 REVERT JUMPDEST POP PUSH2 0x2DB PUSH2 0x54E CALLDATASIZE PUSH1 0x4 PUSH2 0x2B09 JUMP JUMPDEST PUSH2 0xC83 JUMP JUMPDEST CALLVALUE DUP1 ISZERO PUSH2 0x55F JUMPI PUSH1 0x0 DUP1 REVERT JUMPDEST POP PUSH2 0x301 PUSH1 0x8 SLOAD DUP2 JUMP JUMPDEST CALLVALUE DUP1 ISZERO PUSH2 0x575 JUMPI PUSH1 0x0 DUP1 REVERT JUMPDEST POP PUSH2 0x301 PUSH1 0xB SLOAD DUP2 JUMP JUMPDEST CALLVALUE DUP1 ISZERO PUSH2 0x58B JUMPI PUSH1 0x0 DUP1 REVERT JUMPDEST POP PUSH2 0x301 PUSH1 0xC SLOAD DUP2 JUMP JUMPDEST CALLVALUE DUP1 ISZERO PUSH2 0x5A1 JUMPI PUSH1 0x0 DUP1 REVERT JUMPDEST POP PUSH2 0x301 PUSH1 0xD SLOAD DUP2 JUMP JUMPDEST CALLVALUE DUP1 ISZERO PUSH2 0x5B7 JUMPI PUSH1 0x0 DUP1 REVERT JUMPDEST POP PUSH1 0x0 SLOAD PUSH2 0x3E6 SWAP1 PUSH1 0x1 PUSH1 0x1 PUSH1 0xA0 SHL SUB AND DUP2 JUMP JUMPDEST CALLVALUE DUP1 ISZERO PUSH2 0x5D7 JUMPI PUSH1 0x0 DUP1 REVERT JUMPDEST POP PUSH2 0x4D0 PUSH2 0x5E6 CALLDATASIZE PUSH1 0x4 PUSH2 0x2B3B JUMP JUMPDEST PUSH2 0xCCE JUMP JUMPDEST CALLVALUE DUP1 ISZERO PUSH2 0x5F7 JUMPI PUSH1 0x0 DUP1 REVERT JUMPDEST POP PUSH1 0x2 SLOAD PUSH2 0x3E6 SWAP1 PUSH1 0x1 PUSH1 0x1 PUSH1 0xA0 SHL SUB AND DUP2 JUMP JUMPDEST CALLVALUE DUP1 ISZERO PUSH2 0x617 JUMPI PUSH1 0x0 DUP1 REVERT JUMPDEST POP PUSH2 0x2A5 PUSH1 0x40 MLOAD DUP1 PUSH1 0x40 ADD PUSH1 0x40 MSTORE DUP1 PUSH1 0x3 DUP2 MSTORE PUSH1 0x20 ADD PUSH3 0x466765 PUSH1 0xE8 SHL DUP2 MSTORE POP DUP2 JUMP JUMPDEST CALLVALUE DUP1 ISZERO PUSH2 0x646 JUMPI PUSH1 0x0 DUP1 REVERT JUMPDEST POP PUSH2 0x301 PUSH2 0x655 CALLDATASIZE PUSH1 0x4 PUSH2 0x2BFB JUMP JUMPDEST PUSH2 0xD5B JUMP JUMPDEST CALLVALUE DUP1 ISZERO PUSH2 0x666 JUMPI PUSH1 0x0 DUP1 REVERT JUMPDEST POP PUSH2 0x301 PUSH1 0x1 SLOAD DUP2 JUMP JUMPDEST CALLVALUE DUP1 ISZERO PUSH2 0x67C JUMPI PUSH1 0x0 DUP1 REVERT JUMPDEST POP PUSH2 0x301 PUSH1 0x15 SLOAD DUP2 JUMP JUMPDEST CALLVALUE DUP1 ISZERO PUSH2 0x692 JUMPI PUSH1 0x0 DUP1 REVERT JUMPDEST POP PUSH2 0x2DB PUSH2 0x6A1 CALLDATASIZE PUSH1 0x4 PUSH2 0x28F4 JUMP JUMPDEST PUSH2 0xD96 JUMP JUMPDEST CALLVALUE DUP1 ISZERO PUSH2 0x6B2 JUMPI PUSH1 0x0 DUP1 REVERT JUMPDEST POP PUSH2 0x301 PUSH1 0x9 SLOAD DUP2 JUMP JUMPDEST CALLVALUE DUP1 ISZERO PUSH2 0x6C8 JUMPI PUSH1 0x0 DUP1 REVERT JUMPDEST POP PUSH1 0x17 SLOAD PUSH2 0x301 JUMP JUMPDEST CALLVALUE DUP1 ISZERO PUSH2 0x6DD JUMPI PUSH1 0x0 DUP1 REVERT JUMPDEST POP PUSH2 0x301 PUSH2 0x6EC CALLDATASIZE PUSH1 0x4 PUSH2 0x2C27 JUMP JUMPDEST PUSH2 0xE2D JUMP JUMPDEST CALLVALUE DUP1 ISZERO PUSH2 0x6FD JUMPI PUSH1 0x0 DUP1 REVERT JUMPDEST POP PUSH2 0x301 PUSH1 0x1E SLOAD DUP2 JUMP JUMPDEST CALLVALUE DUP1 ISZERO PUSH2 0x713 JUMPI PUSH1 0x0 DUP1 REVERT JUMPDEST POP PUSH2 0x4D0 PUSH2 0x1324 JUMP JUMPDEST CALLVALUE DUP1 ISZERO PUSH2 0x728 JUMPI PUSH1 0x0 DUP1 REVERT JUMPDEST POP PUSH2 0x301 PUSH1 0xA SLOAD DUP2 JUMP JUMPDEST CALLVALUE DUP1 ISZERO PUSH2 0x73E JUMPI PUSH1 0x0 DUP1 REVERT JUMPDEST POP PUSH2 0x301 PUSH2 0x74D CALLDATASIZE PUSH1 0x4 PUSH2 0x2C9E JUMP JUMPDEST PUSH1 0x1 PUSH1 0x1 PUSH1 0xA0 SHL SUB SWAP2 DUP3 AND PUSH1 0x0 SWAP1 DUP2 MSTORE PUSH1 0x19 PUSH1 0x20 SWAP1 DUP2 MSTORE PUSH1 0x40 DUP1 DUP4 KECCAK256 SWAP4 SWAP1 SWAP5 AND DUP3 MSTORE SWAP2 SWAP1 SWAP2 MSTORE KECCAK256 SLOAD SWAP1 JUMP JUMPDEST CALLVALUE DUP1 ISZERO PUSH2 0x784 JUMPI PUSH1 0x0 DUP1 REVERT JUMPDEST POP PUSH2 0x301 PUSH2 0x793 CALLDATASIZE PUSH1 0x4 PUSH2 0x2CD1 JUMP JUMPDEST PUSH2 0x1577 JUMP JUMPDEST CALLVALUE DUP1 ISZERO PUSH2 0x7A4 JUMPI PUSH1 0x0 DUP1 REVERT JUMPDEST POP PUSH2 0x301 PUSH1 0x7 SLOAD DUP2 JUMP JUMPDEST CALLVALUE DUP1 ISZERO PUSH2 0x7BA JUMPI PUSH1 0x0 DUP1 REVERT JUMPDEST POP PUSH2 0x301 PUSH2 0x7C9 CALLDATASIZE PUSH1 0x4 PUSH2 0x2C27 JUMP JUMPDEST PUSH2 0x1985 JUMP JUMPDEST CALLVALUE DUP1 ISZERO PUSH2 0x7DA JUMPI PUSH1 0x0 DUP1 REVERT JUMPDEST POP PUSH2 0x301 PUSH2 0x7E9 CALLDATASIZE PUSH1 0x4 PUSH2 0x2D0E JUMP JUMPDEST PUSH2 0x1F5D JUMP JUMPDEST PUSH1 0x1C DUP1 SLOAD PUSH2 0x7FB SWAP1 PUSH2 0x2D3E JUMP JUMPDEST DUP1 PUSH1 0x1F ADD PUSH1 0x20 DUP1 SWAP2 DIV MUL PUSH1 0x20 ADD PUSH1 0x40 MLOAD SWAP1 DUP2 ADD PUSH1 0x40 MSTORE DUP1 SWAP3 SWAP2 SWAP1 DUP2 DUP2 MSTORE PUSH1 0x20 ADD DUP3 DUP1 SLOAD PUSH2 0x827 SWAP1 PUSH2 0x2D3E JUMP JUMPDEST DUP1 ISZERO PUSH2 0x874 JUMPI DUP1 PUSH1 0x1F LT PUSH2 0x849 JUMPI PUSH2 0x100 DUP1 DUP4 SLOAD DIV MUL DUP4 MSTORE SWAP2 PUSH1 0x20 ADD SWAP2 PUSH2 0x874 JUMP JUMPDEST DUP3 ADD SWAP2 SWAP1 PUSH1 0x0 MSTORE PUSH1 0x20 PUSH1 0x0 KECCAK256 SWAP1 JUMPDEST DUP2 SLOAD DUP2 MSTORE SWAP1 PUSH1 0x1 ADD SWAP1 PUSH1 0x20 ADD DUP1 DUP4 GT PUSH2 0x857 JUMPI DUP3 SWAP1 SUB PUSH1 0x1F AND DUP3 ADD SWAP2 JUMPDEST POP POP POP POP POP DUP2 JUMP JUMPDEST CALLER PUSH1 0x0 DUP2 DUP2 MSTORE PUSH1 0x19 PUSH1 0x20 SWAP1 DUP2 MSTORE PUSH1 0x40 DUP1 DUP4 KECCAK256 PUSH1 0x1 PUSH1 0x1 PUSH1 0xA0 SHL SUB DUP8 AND DUP1 DUP6 MSTORE SWAP3 MSTORE DUP1 DUP4 KECCAK256 DUP6 SWAP1 SSTORE MLOAD SWAP2 SWAP3 SWAP1 SWAP2 PUSH32 0x8C5BE1E5EBEC7D5BD14F71427D1E84F3DD0314C0F7B2291E5B200AC8C7C3B925 SWAP1 PUSH2 0x8D7 SWAP1 DUP7 DUP2 MSTORE PUSH1 0x20 ADD SWAP1 JUMP JUMPDEST PUSH1 0x40 MLOAD DUP1 SWAP2 SUB SWAP1 LOG3 POP PUSH1 0x1 JUMPDEST SWAP3 SWAP2 POP POP JUMP JUMPDEST PUSH1 0x0 PUSH2 0x902 PUSH1 0xC SLOAD PUSH1 0xB SLOAD PUSH2 0x2287 SWAP1 SWAP2 SWAP1 PUSH4 0xFFFFFFFF AND JUMP JUMPDEST SWAP1 POP SWAP1 JUMP JUMPDEST PUSH1 0x0 PUSH2 0x914 DUP4 DUP4 CALLER PUSH2 0x1577 JUMP JUMPDEST POP SWAP3 SWAP2 POP POP JUMP JUMPDEST PUSH1 0x0 DUP1 DUP4 MLOAD PUSH1 0x1 PUSH2 0x92C SWAP2 SWAP1 PUSH2 0x2D8F JUMP JUMPDEST PUSH8 0xFFFFFFFFFFFFFFFF DUP2 GT ISZERO PUSH2 0x944 JUMPI PUSH2 0x944 PUSH2 0x2940 JUMP JUMPDEST PUSH1 0x40 MLOAD SWAP1 DUP1 DUP3 MSTORE DUP1 PUSH1 0x20 MUL PUSH1 0x20 ADD DUP3 ADD PUSH1 0x40 MSTORE DUP1 ISZERO PUSH2 0x96D JUMPI DUP2 PUSH1 0x20 ADD PUSH1 0x20 DUP3 MUL DUP1 CALLDATASIZE DUP4 CALLDATACOPY ADD SWAP1 POP JUMPDEST POP SWAP1 POP PUSH1 0x0 JUMPDEST DUP5 MLOAD PUSH2 0x980 SWAP1 PUSH1 0x1 PUSH2 0x2D8F JUMP JUMPDEST DUP2 LT ISZERO PUSH2 0x9C4 JUMPI DUP4 DUP3 DUP3 DUP2 MLOAD DUP2 LT PUSH2 0x99A JUMPI PUSH2 0x99A PUSH2 0x2DA7 JUMP JUMPDEST PUSH1 0x1 PUSH1 0x1 PUSH1 0xA0 SHL SUB SWAP1 SWAP3 AND PUSH1 0x20 SWAP3 DUP4 MUL SWAP2 SWAP1 SWAP2 ADD SWAP1 SWAP2 ADD MSTORE DUP1 PUSH2 0x9BC DUP2 PUSH2 0x2DBD JUMP JUMPDEST SWAP2 POP POP PUSH2 0x973 JUMP JUMPDEST POP PUSH2 0x9D1 DUP7 DUP7 DUP7 DUP5 PUSH2 0xE2D JUMP JUMPDEST POP PUSH1 0x1 SWAP7 SWAP6 POP POP POP POP POP POP JUMP JUMPDEST PUSH1 0x1 PUSH1 0x1 PUSH1 0xA0 SHL SUB DUP4 AND PUSH1 0x0 SWAP1 DUP2 MSTORE PUSH1 0x18 PUSH1 0x20 MSTORE PUSH1 0x40 DUP2 KECCAK256 SLOAD PUSH2 0xA01 SWAP1 DUP4 PUSH2 0x22D5 JUMP JUMPDEST PUSH1 0x1 PUSH1 0x1 PUSH1 0xA0 SHL SUB DUP6 AND PUSH1 0x0 SWAP1 DUP2 MSTORE PUSH1 0x18 PUSH1 0x20 SWAP1 DUP2 MSTORE PUSH1 0x40 DUP1 DUP4 KECCAK256 SWAP4 SWAP1 SWAP4 SSTORE PUSH1 0x19 DUP2 MSTORE DUP3 DUP3 KECCAK256 CALLER DUP4 MSTORE SWAP1 MSTORE KECCAK256 SLOAD PUSH2 0xA38 SWAP1 DUP4 PUSH2 0x22D5 JUMP JUMPDEST PUSH1 0x1 PUSH1 0x1 PUSH1 0xA0 SHL SUB DUP1 DUP7 AND PUSH1 0x0 SWAP1 DUP2 MSTORE PUSH1 0x19 PUSH1 0x20 SWAP1 DUP2 MSTORE PUSH1 0x40 DUP1 DUP4 KECCAK256 CALLER DUP5 MSTORE DUP3 MSTORE DUP1 DUP4 KECCAK256 SWAP5 SWAP1 SWAP5 SSTORE SWAP2 DUP7 AND DUP2 MSTORE PUSH1 0x18 SWAP1 SWAP2 MSTORE KECCAK256 SLOAD PUSH2 0xA76 SWAP1 DUP4 PUSH2 0x2321 JUMP JUMPDEST PUSH1 0x1 PUSH1 0x1 PUSH1 0xA0 SHL SUB DUP1 DUP6 AND PUSH1 0x0 DUP2 DUP2 MSTORE PUSH1 0x18 PUSH1 0x20 MSTORE PUSH1 0x40 SWAP1 DUP2 SWAP1 KECCAK256 SWAP4 SWAP1 SWAP4 SSTORE SWAP2 MLOAD SWAP1 DUP7 AND SWAP1 PUSH32 0xDDF252AD1BE2C89B69C2B068FC378DAA952BA7F163C4A11628F55A4DF523B3EF SWAP1 PUSH2 0xACA SWAP1 DUP7 DUP2 MSTORE PUSH1 0x20 ADD SWAP1 JUMP JUMPDEST PUSH1 0x40 MLOAD DUP1 SWAP2 SUB SWAP1 LOG3 POP PUSH1 0x1 SWAP4 SWAP3 POP POP POP JUMP JUMPDEST PUSH1 0x0 PUSH2 0x902 PUSH1 0xE SLOAD PUSH1 0x2 PUSH2 0xAF0 SWAP2 SWAP1 PUSH2 0x2EBC JUMP JUMPDEST PUSH2 0xAFC PUSH1 0x12 PUSH1 0xA PUSH2 0x2EBC JUMP JUMPDEST PUSH2 0xB07 SWAP1 PUSH1 0x64 PUSH2 0x2EC8 JUMP JUMPDEST SWAP1 PUSH2 0x2287 JUMP JUMPDEST PUSH1 0x0 SLOAD PUSH1 0x1 PUSH1 0x1 PUSH1 0xA0 SHL SUB AND CALLER EQ PUSH2 0xB59 JUMPI PUSH1 0x40 MLOAD PUSH3 0x461BCD PUSH1 0xE5 SHL DUP2 MSTORE PUSH1 0x20 PUSH1 0x4 DUP3 ADD MSTORE PUSH1 0xA PUSH1 0x24 DUP3 ADD MSTORE PUSH10 0x37B7363C9037BBB732B9 PUSH1 0xB1 SHL PUSH1 0x44 DUP3 ADD MSTORE PUSH1 0x64 ADD JUMPDEST PUSH1 0x40 MLOAD DUP1 SWAP2 SUB SWAP1 REVERT JUMPDEST PUSH1 0x1F SLOAD PUSH11 0x115EEC47F6CF7E35000000 SWAP1 PUSH1 0xFF AND ISZERO PUSH2 0xB79 JUMPI PUSH2 0xB79 PUSH2 0x2EE7 JUMP JUMPDEST PUSH1 0x1F DUP1 SLOAD PUSH1 0xFF NOT AND PUSH1 0x1 OR SWAP1 SSTORE TIMESTAMP PUSH1 0x12 SSTORE PUSH1 0xE SLOAD PUSH2 0xB9C SWAP1 PUSH2 0xAF0 SWAP1 PUSH1 0x2 PUSH2 0x2EBC JUMP JUMPDEST PUSH1 0x10 SSTORE PUSH1 0x0 PUSH1 0xE DUP2 SWAP1 SSTORE PUSH1 0x17 DUP2 SWAP1 SSTORE PUSH1 0x8 SSTORE PUSH1 0xB SLOAD PUSH2 0xBBC SWAP1 PUSH1 0x1 PUSH2 0x2287 JUMP JUMPDEST PUSH1 0xC SSTORE TIMESTAMP PUSH1 0x7 SSTORE PUSH2 0xBCB PUSH2 0x236F JUMP JUMPDEST PUSH2 0xBD6 PUSH1 0x2 DUP3 PUSH2 0x2F13 JUMP JUMPDEST PUSH1 0x1 PUSH1 0x1 PUSH1 0xA0 SHL SUB DUP6 AND PUSH1 0x0 DUP2 DUP2 MSTORE PUSH1 0x18 PUSH1 0x20 MSTORE PUSH1 0x40 DUP2 KECCAK256 SWAP3 SWAP1 SWAP3 SSTORE SWAP1 PUSH32 0xDDF252AD1BE2C89B69C2B068FC378DAA952BA7F163C4A11628F55A4DF523B3EF PUSH2 0xC1F PUSH1 0x2 DUP6 PUSH2 0x2F13 JUMP JUMPDEST PUSH1 0x40 MLOAD SWAP1 DUP2 MSTORE PUSH1 0x20 ADD PUSH1 0x40 MLOAD DUP1 SWAP2 SUB SWAP1 LOG3 PUSH1 0x2 DUP1 SLOAD PUSH1 0x1 PUSH1 0x1 PUSH1 0xA0 SHL SUB DUP1 DUP8 AND PUSH1 0x1 PUSH1 0x1 PUSH1 0xA0 SHL SUB NOT SWAP3 DUP4 AND OR SWAP1 SWAP3 SSTORE PUSH1 0x3 DUP1 SLOAD DUP7 DUP5 AND SWAP1 DUP4 AND OR SWAP1 SSTORE PUSH1 0x4 DUP1 SLOAD SWAP3 DUP6 AND SWAP3 SWAP1 SWAP2 AND SWAP2 SWAP1 SWAP2 OR SWAP1 SSTORE PUSH1 0x8 SLOAD PUSH1 0x11 SSTORE PUSH2 0xC7D PUSH1 0x0 PUSH2 0x25C0 JUMP JUMPDEST POP POP POP POP JUMP JUMPDEST PUSH1 0x0 DUP1 DUP4 CALLER DUP8 PUSH1 0x40 MLOAD PUSH1 0x20 ADD PUSH2 0xC9B SWAP4 SWAP3 SWAP2 SWAP1 PUSH2 0x2F27 JUMP JUMPDEST PUSH1 0x40 MLOAD PUSH1 0x20 DUP2 DUP4 SUB SUB DUP2 MSTORE SWAP1 PUSH1 0x40 MSTORE DUP1 MLOAD SWAP1 PUSH1 0x20 ADD KECCAK256 SWAP1 POP DUP3 DUP2 PUSH1 0x0 SHR GT ISZERO PUSH2 0xCC3 JUMPI PUSH1 0x0 DUP1 REVERT JUMPDEST SWAP1 SWAP4 EQ SWAP5 SWAP4 POP POP POP POP JUMP JUMPDEST PUSH1 0x1 PUSH1 0x1 PUSH1 0xA0 SHL SUB DUP3 AND ADDRESS EQ PUSH2 0xCE3 JUMPI PUSH1 0x0 DUP1 REVERT JUMPDEST PUSH1 0x40 MLOAD PUSH4 0xA9059CBB PUSH1 0xE0 SHL DUP2 MSTORE PUSH1 0x1 PUSH1 0x1 PUSH1 0xA0 SHL SUB DUP6 AND PUSH1 0x4 DUP3 ADD MSTORE PUSH1 0x24 DUP2 ADD DUP5 SWAP1 MSTORE ADDRESS SWAP1 PUSH4 0xA9059CBB SWAP1 PUSH1 0x44 ADD PUSH1 0x20 PUSH1 0x40 MLOAD DUP1 DUP4 SUB DUP2 PUSH1 0x0 DUP8 GAS CALL ISZERO DUP1 ISZERO PUSH2 0xD30 JUMPI RETURNDATASIZE PUSH1 0x0 DUP1 RETURNDATACOPY RETURNDATASIZE PUSH1 0x0 REVERT JUMPDEST POP POP POP POP PUSH1 0x40 MLOAD RETURNDATASIZE PUSH1 0x1F NOT PUSH1 0x1F DUP3 ADD AND DUP3 ADD DUP1 PUSH1 0x40 MSTORE POP DUP2 ADD SWAP1 PUSH2 0xD54 SWAP2 SWAP1 PUSH2 0x2F4F JUMP JUMPDEST POP POP POP POP POP JUMP JUMPDEST PUSH1 0x0 DUP1 PUSH1 0xD SLOAD CALLER DUP7 PUSH1 0x40 MLOAD PUSH1 0x20 ADD PUSH2 0xD75 SWAP4 SWAP3 SWAP2 SWAP1 PUSH2 0x2F27 JUMP JUMPDEST PUSH1 0x40 DUP1 MLOAD DUP1 DUP4 SUB PUSH1 0x1F NOT ADD DUP2 MSTORE SWAP2 SWAP1 MSTORE DUP1 MLOAD PUSH1 0x20 SWAP1 SWAP2 ADD KECCAK256 SWAP6 SWAP5 POP POP POP POP POP JUMP JUMPDEST CALLER PUSH1 0x0 SWAP1 DUP2 MSTORE PUSH1 0x18 PUSH1 0x20 MSTORE PUSH1 0x40 DUP2 KECCAK256 SLOAD PUSH2 0xDB0 SWAP1 DUP4 PUSH2 0x22D5 JUMP JUMPDEST CALLER PUSH1 0x0 SWAP1 DUP2 MSTORE PUSH1 0x18 PUSH1 0x20 MSTORE PUSH1 0x40 DUP1 DUP3 KECCAK256 SWAP3 SWAP1 SWAP3 SSTORE PUSH1 0x1 PUSH1 0x1 PUSH1 0xA0 SHL SUB DUP6 AND DUP2 MSTORE KECCAK256 SLOAD PUSH2 0xDDC SWAP1 DUP4 PUSH2 0x2321 JUMP JUMPDEST PUSH1 0x1 PUSH1 0x1 PUSH1 0xA0 SHL SUB DUP5 AND PUSH1 0x0 DUP2 DUP2 MSTORE PUSH1 0x18 PUSH1 0x20 MSTORE PUSH1 0x40 SWAP1 DUP2 SWAP1 KECCAK256 SWAP3 SWAP1 SWAP3 SSTORE SWAP1 MLOAD CALLER SWAP1 PUSH32 0xDDF252AD1BE2C89B69C2B068FC378DAA952BA7F163C4A11628F55A4DF523B3EF SWAP1 PUSH2 0x8D7 SWAP1 DUP7 DUP2 MSTORE PUSH1 0x20 ADD SWAP1 JUMP JUMPDEST PUSH1 0x0 DUP1 PUSH2 0xE55 DUP7 DUP7 DUP6 PUSH1 0x0 DUP2 MLOAD DUP2 LT PUSH2 0xE48 JUMPI PUSH2 0xE48 PUSH2 0x2DA7 JUMP JUMPDEST PUSH1 0x20 MUL PUSH1 0x20 ADD ADD MLOAD PUSH2 0x1577 JUMP JUMPDEST SWAP1 POP PUSH1 0x0 DUP2 GT PUSH2 0xE94 JUMPI PUSH1 0x40 MLOAD PUSH3 0x461BCD PUSH1 0xE5 SHL DUP2 MSTORE PUSH1 0x20 PUSH1 0x4 DUP3 ADD MSTORE PUSH1 0xA PUSH1 0x24 DUP3 ADD MSTORE PUSH10 0x6D696E74206973737565 PUSH1 0xB0 SHL PUSH1 0x44 DUP3 ADD MSTORE PUSH1 0x64 ADD PUSH2 0xB50 JUMP JUMPDEST DUP4 MLOAD PUSH2 0xEA1 SWAP1 PUSH1 0x1 PUSH2 0x2D8F JUMP JUMPDEST DUP4 MLOAD EQ PUSH2 0xF16 JUMPI PUSH1 0x40 MLOAD PUSH3 0x461BCD PUSH1 0xE5 SHL DUP2 MSTORE PUSH1 0x20 PUSH1 0x4 DUP3 ADD MSTORE PUSH1 0x3A PUSH1 0x24 DUP3 ADD MSTORE PUSH32 0x4D696E74546F2068617320746F206861766520616E2065787472612061646472 PUSH1 0x44 DUP3 ADD MSTORE PUSH32 0x65737320636F6D706172656420746F20457874726146756E6473000000000000 PUSH1 0x64 DUP3 ADD MSTORE PUSH1 0x84 ADD PUSH2 0xB50 JUMP JUMPDEST PUSH1 0x0 JUMPDEST DUP5 MLOAD DUP2 LT ISZERO PUSH2 0x10DA JUMPI PUSH2 0xF2D DUP2 PUSH1 0x1 PUSH2 0x2D8F JUMP JUMPDEST PUSH2 0xF38 SWAP1 PUSH1 0x2 PUSH2 0x2EBC JUMP JUMPDEST PUSH1 0x8 SLOAD PUSH2 0xF45 SWAP2 SWAP1 PUSH2 0x2F6C JUMP JUMPDEST ISZERO PUSH2 0xF4F JUMPI PUSH2 0x10DA JUMP JUMPDEST ADDRESS PUSH1 0x1 PUSH1 0x1 PUSH1 0xA0 SHL SUB AND DUP6 DUP3 DUP2 MLOAD DUP2 LT PUSH2 0xF6B JUMPI PUSH2 0xF6B PUSH2 0x2DA7 JUMP JUMPDEST PUSH1 0x20 MUL PUSH1 0x20 ADD ADD MLOAD PUSH1 0x1 PUSH1 0x1 PUSH1 0xA0 SHL SUB AND EQ ISZERO DUP1 ISZERO PUSH2 0xFBC JUMPI POP PUSH1 0x4 SLOAD DUP6 MLOAD PUSH1 0x1 PUSH1 0x1 PUSH1 0xA0 SHL SUB SWAP1 SWAP2 AND SWAP1 DUP7 SWAP1 DUP4 SWAP1 DUP2 LT PUSH2 0xFA8 JUMPI PUSH2 0xFA8 PUSH2 0x2DA7 JUMP JUMPDEST PUSH1 0x20 MUL PUSH1 0x20 ADD ADD MLOAD PUSH1 0x1 PUSH1 0x1 PUSH1 0xA0 SHL SUB AND EQ ISZERO JUMPDEST PUSH2 0x1008 JUMPI PUSH1 0x40 MLOAD PUSH3 0x461BCD PUSH1 0xE5 SHL DUP2 MSTORE PUSH1 0x20 PUSH1 0x4 DUP3 ADD MSTORE PUSH1 0x1A PUSH1 0x24 DUP3 ADD MSTORE PUSH32 0x4E6F2062617365207072696E74696E67206F6620746F6B656E73000000000000 PUSH1 0x44 DUP3 ADD MSTORE PUSH1 0x64 ADD PUSH2 0xB50 JUMP JUMPDEST PUSH1 0x0 PUSH2 0x1015 DUP3 PUSH1 0x1 PUSH2 0x2D8F JUMP JUMPDEST SWAP1 POP JUMPDEST DUP6 MLOAD DUP2 LT ISZERO PUSH2 0x10C7 JUMPI DUP6 DUP3 DUP2 MLOAD DUP2 LT PUSH2 0x1033 JUMPI PUSH2 0x1033 PUSH2 0x2DA7 JUMP JUMPDEST PUSH1 0x20 MUL PUSH1 0x20 ADD ADD MLOAD PUSH1 0x1 PUSH1 0x1 PUSH1 0xA0 SHL SUB AND DUP7 DUP3 DUP2 MLOAD DUP2 LT PUSH2 0x1056 JUMPI PUSH2 0x1056 PUSH2 0x2DA7 JUMP JUMPDEST PUSH1 0x20 MUL PUSH1 0x20 ADD ADD MLOAD PUSH1 0x1 PUSH1 0x1 PUSH1 0xA0 SHL SUB AND EQ ISZERO PUSH2 0x10B5 JUMPI PUSH1 0x40 MLOAD PUSH3 0x461BCD PUSH1 0xE5 SHL DUP2 MSTORE PUSH1 0x20 PUSH1 0x4 DUP3 ADD MSTORE PUSH1 0x1B PUSH1 0x24 DUP3 ADD MSTORE PUSH32 0x4E6F207072696E74696E67205468652073616D6520746F6B656E730000000000 PUSH1 0x44 DUP3 ADD MSTORE PUSH1 0x64 ADD PUSH2 0xB50 JUMP JUMPDEST DUP1 PUSH2 0x10BF DUP2 PUSH2 0x2DBD JUMP JUMPDEST SWAP2 POP POP PUSH2 0x1018 JUMP JUMPDEST POP DUP1 PUSH2 0x10D2 DUP2 PUSH2 0x2DBD JUMP JUMPDEST SWAP2 POP POP PUSH2 0xF19 JUMP JUMPDEST PUSH1 0x0 DUP1 PUSH1 0x0 JUMPDEST DUP4 DUP2 LT ISZERO PUSH2 0x12C6 JUMPI PUSH2 0x10F3 DUP2 PUSH1 0x1 PUSH2 0x2D8F JUMP JUMPDEST PUSH2 0x10FE SWAP1 PUSH1 0x2 PUSH2 0x2EBC JUMP JUMPDEST PUSH1 0x8 SLOAD PUSH2 0x110B SWAP2 SWAP1 PUSH2 0x2F6C JUMP JUMPDEST PUSH2 0x12B4 JUMPI DUP8 DUP2 DUP2 MLOAD DUP2 LT PUSH2 0x1121 JUMPI PUSH2 0x1121 PUSH2 0x2DA7 JUMP JUMPDEST PUSH1 0x20 SWAP1 DUP2 MUL SWAP2 SWAP1 SWAP2 ADD ADD MLOAD PUSH1 0x40 MLOAD PUSH4 0x70A08231 PUSH1 0xE0 SHL DUP2 MSTORE ADDRESS PUSH1 0x4 DUP3 ADD MSTORE PUSH1 0x1 PUSH1 0x1 PUSH1 0xA0 SHL SUB SWAP1 SWAP2 AND SWAP1 PUSH4 0x70A08231 SWAP1 PUSH1 0x24 ADD PUSH1 0x20 PUSH1 0x40 MLOAD DUP1 DUP4 SUB DUP2 DUP7 GAS STATICCALL ISZERO DUP1 ISZERO PUSH2 0x1171 JUMPI RETURNDATASIZE PUSH1 0x0 DUP1 RETURNDATACOPY RETURNDATASIZE PUSH1 0x0 REVERT JUMPDEST POP POP POP POP PUSH1 0x40 MLOAD RETURNDATASIZE PUSH1 0x1F NOT PUSH1 0x1F DUP3 ADD AND DUP3 ADD DUP1 PUSH1 0x40 MSTORE POP DUP2 ADD SWAP1 PUSH2 0x1195 SWAP2 SWAP1 PUSH2 0x2F80 JUMP JUMPDEST SWAP2 POP DUP2 ISZERO PUSH2 0x11EF JUMPI PUSH2 0x11A8 PUSH1 0x3 DUP3 PUSH2 0x2F6C JUMP JUMPDEST ISZERO DUP1 ISZERO PUSH2 0x11B4 JUMPI POP DUP1 ISZERO ISZERO JUMPDEST ISZERO PUSH2 0x11D9 JUMPI PUSH2 0x11D2 PUSH5 0x3A35294400 PUSH2 0x11CC DUP8 DUP6 PUSH2 0x2EC8 JUMP JUMPDEST SWAP1 PUSH2 0x2670 JUMP JUMPDEST SWAP3 POP PUSH2 0x11EF JUMP JUMPDEST PUSH2 0x11EC PUSH5 0x3A35294400 PUSH2 0xB07 DUP8 DUP6 PUSH2 0x2EC8 JUMP JUMPDEST SWAP3 POP JUMPDEST DUP8 DUP2 DUP2 MLOAD DUP2 LT PUSH2 0x1201 JUMPI PUSH2 0x1201 PUSH2 0x2DA7 JUMP JUMPDEST PUSH1 0x20 MUL PUSH1 0x20 ADD ADD MLOAD PUSH1 0x1 PUSH1 0x1 PUSH1 0xA0 SHL SUB AND PUSH4 0xA9059CBB DUP9 DUP4 PUSH1 0x1 PUSH2 0x1225 SWAP2 SWAP1 PUSH2 0x2D8F JUMP JUMPDEST DUP2 MLOAD DUP2 LT PUSH2 0x1235 JUMPI PUSH2 0x1235 PUSH2 0x2DA7 JUMP JUMPDEST PUSH1 0x20 MUL PUSH1 0x20 ADD ADD MLOAD DUP6 PUSH1 0x40 MLOAD DUP4 PUSH4 0xFFFFFFFF AND PUSH1 0xE0 SHL DUP2 MSTORE PUSH1 0x4 ADD PUSH2 0x126F SWAP3 SWAP2 SWAP1 PUSH1 0x1 PUSH1 0x1 PUSH1 0xA0 SHL SUB SWAP3 SWAP1 SWAP3 AND DUP3 MSTORE PUSH1 0x20 DUP3 ADD MSTORE PUSH1 0x40 ADD SWAP1 JUMP JUMPDEST PUSH1 0x20 PUSH1 0x40 MLOAD DUP1 DUP4 SUB DUP2 PUSH1 0x0 DUP8 GAS CALL ISZERO DUP1 ISZERO PUSH2 0x128E JUMPI RETURNDATASIZE PUSH1 0x0 DUP1 RETURNDATACOPY RETURNDATASIZE PUSH1 0x0 REVERT JUMPDEST POP POP POP POP PUSH1 0x40 MLOAD RETURNDATASIZE PUSH1 0x1F NOT PUSH1 0x1F DUP3 ADD AND DUP3 ADD DUP1 PUSH1 0x40 MSTORE POP DUP2 ADD SWAP1 PUSH2 0x12B2 SWAP2 SWAP1 PUSH2 0x2F4F JUMP JUMPDEST POP JUMPDEST DUP1 PUSH2 0x12BE DUP2 PUSH2 0x2DBD JUMP JUMPDEST SWAP2 POP POP PUSH2 0x10E0 JUMP JUMPDEST POP PUSH1 0x8 SLOAD PUSH1 0xD SLOAD PUSH1 0x40 DUP1 MLOAD SWAP3 DUP4 MSTORE PUSH1 0x20 DUP4 ADD SWAP2 SWAP1 SWAP2 MSTORE DUP2 ADD DUP5 SWAP1 MSTORE PUSH1 0x60 DUP2 ADD DUP6 SWAP1 MSTORE CALLER SWAP1 PUSH32 0x87E5A7775B8AC2EAD741E32752431BFFEFF76EC5F347CC202A6BAD454653930B SWAP1 PUSH1 0x80 ADD PUSH1 0x40 MLOAD DUP1 SWAP2 SUB SWAP1 LOG2 POP SWAP2 SWAP8 SWAP7 POP POP POP POP POP POP POP JUMP JUMPDEST PUSH1 0x0 PUSH1 0x1D SLOAD TIMESTAMP PUSH2 0x1334 SWAP2 SWAP1 PUSH2 0x2F99 JUMP JUMPDEST SWAP1 POP PUSH1 0x0 PUSH1 0x11 SLOAD PUSH1 0x8 SLOAD PUSH2 0x1348 SWAP2 SWAP1 PUSH2 0x2F99 JUMP JUMPDEST SWAP1 POP PUSH1 0x0 PUSH2 0x1356 DUP3 DUP5 PUSH2 0x2F13 JUMP JUMPDEST SWAP1 POP PUSH2 0x136A PUSH1 0xE SLOAD PUSH1 0x2 PUSH2 0xAF0 SWAP2 SWAP1 PUSH2 0x2EBC JUMP JUMPDEST PUSH1 0x10 SSTORE PUSH1 0x0 PUSH2 0x1381 PUSH2 0xB40 PUSH2 0x11CC DUP5 PUSH2 0x378 PUSH2 0x2EC8 JUMP JUMPDEST SWAP1 POP PUSH1 0x0 PUSH2 0x378 PUSH2 0x1393 DUP4 PUSH1 0x64 PUSH2 0x2EC8 JUMP JUMPDEST PUSH2 0x139D SWAP2 SWAP1 PUSH2 0x2F13 JUMP JUMPDEST SWAP1 POP PUSH1 0x0 PUSH1 0xC8 DUP3 LT ISZERO PUSH2 0x13EF JUMPI PUSH2 0x13BE PUSH2 0x378 PUSH2 0xB07 DUP6 PUSH4 0x26F7F3C PUSH2 0x2EC8 JUMP JUMPDEST PUSH2 0x13DE PUSH3 0xC0840 PUSH2 0x13D0 PUSH1 0x2 DUP8 PUSH2 0x2FB0 JUMP JUMPDEST PUSH2 0xB07 SWAP1 PUSH4 0x3A2CDF0 PUSH2 0x2EC8 JUMP JUMPDEST PUSH2 0x13E8 SWAP2 SWAP1 PUSH2 0x2D8F JUMP JUMPDEST SWAP1 POP PUSH2 0x13F6 JUMP JUMPDEST POP PUSH4 0x1443FD00 JUMPDEST PUSH1 0x4 PUSH1 0x9 SLOAD PUSH1 0x15 SLOAD PUSH2 0x1408 SWAP2 SWAP1 PUSH2 0x2EC8 JUMP JUMPDEST PUSH2 0x1413 SWAP1 PUSH1 0x3C PUSH2 0x2EC8 JUMP JUMPDEST PUSH2 0x141D SWAP2 SWAP1 PUSH2 0x2F13 JUMP JUMPDEST PUSH1 0x4 DUP1 SLOAD PUSH1 0x40 MLOAD PUSH4 0x70A08231 PUSH1 0xE0 SHL DUP2 MSTORE ADDRESS SWAP3 DUP2 ADD SWAP3 SWAP1 SWAP3 MSTORE PUSH1 0x1 PUSH1 0x1 PUSH1 0xA0 SHL SUB AND SWAP1 PUSH4 0x70A08231 SWAP1 PUSH1 0x24 ADD PUSH1 0x20 PUSH1 0x40 MLOAD DUP1 DUP4 SUB DUP2 DUP7 GAS STATICCALL ISZERO DUP1 ISZERO PUSH2 0x1466 JUMPI RETURNDATASIZE PUSH1 0x0 DUP1 RETURNDATACOPY RETURNDATASIZE PUSH1 0x0 REVERT JUMPDEST POP POP POP POP PUSH1 0x40 MLOAD RETURNDATASIZE PUSH1 0x1F NOT PUSH1 0x1F DUP3 ADD AND DUP3 ADD DUP1 PUSH1 0x40 MSTORE POP DUP2 ADD SWAP1 PUSH2 0x148A SWAP2 SWAP1 PUSH2 0x2F80 JUMP JUMPDEST GT ISZERO PUSH2 0x155F JUMPI PUSH1 0x4 SLOAD PUSH1 0x3 SLOAD PUSH1 0x1A SLOAD PUSH1 0x15 SLOAD PUSH1 0x1 PUSH1 0x1 PUSH1 0xA0 SHL SUB SWAP4 DUP5 AND SWAP4 PUSH4 0xA9059CBB SWAP4 AND SWAP2 PUSH2 0x14D9 SWAP2 PUSH4 0xBEBC200 SWAP2 SWAP1 PUSH2 0x14C5 DUP9 DUP14 PUSH2 0x2EC8 JUMP JUMPDEST PUSH2 0x14CF SWAP2 SWAP1 PUSH2 0x2EC8 JUMP JUMPDEST PUSH2 0xB07 SWAP2 SWAP1 PUSH2 0x2EC8 JUMP JUMPDEST PUSH1 0x40 MLOAD PUSH1 0x1 PUSH1 0x1 PUSH1 0xE0 SHL SUB NOT PUSH1 0xE0 DUP6 SWAP1 SHL AND DUP2 MSTORE PUSH1 0x1 PUSH1 0x1 PUSH1 0xA0 SHL SUB SWAP1 SWAP3 AND PUSH1 0x4 DUP4 ADD MSTORE PUSH1 0x24 DUP3 ADD MSTORE PUSH1 0x44 ADD PUSH1 0x20 PUSH1 0x40 MLOAD DUP1 DUP4 SUB DUP2 PUSH1 0x0 DUP8 GAS CALL ISZERO DUP1 ISZERO PUSH2 0x1524 JUMPI RETURNDATASIZE PUSH1 0x0 DUP1 RETURNDATACOPY RETURNDATASIZE PUSH1 0x0 REVERT JUMPDEST POP POP POP POP PUSH1 0x40 MLOAD RETURNDATASIZE PUSH1 0x1F NOT PUSH1 0x1F DUP3 ADD AND DUP3 ADD DUP1 PUSH1 0x40 MSTORE POP DUP2 ADD SWAP1 PUSH2 0x1548 SWAP2 SWAP1 PUSH2 0x2F4F JUMP JUMPDEST POP PUSH1 0x1B SLOAD PUSH2 0x1557 SWAP1 PUSH1 0x1 PUSH2 0x2EC8 JUMP JUMPDEST PUSH1 0x1A SSTORE PUSH2 0x1565 JUMP JUMPDEST PUSH1 0x0 PUSH1 0x1A SSTORE JUMPDEST POP POP PUSH1 0x8 SLOAD PUSH1 0x11 SSTORE POP POP TIMESTAMP PUSH1 0x1D SSTORE POP POP JUMP JUMPDEST PUSH1 0x0 DUP1 PUSH1 0xD SLOAD CALLER DUP7 PUSH1 0x40 MLOAD PUSH1 0x20 ADD PUSH2 0x1591 SWAP4 SWAP3 SWAP2 SWAP1 PUSH2 0x2F27 JUMP JUMPDEST PUSH1 0x40 MLOAD PUSH1 0x20 DUP2 DUP4 SUB SUB DUP2 MSTORE SWAP1 PUSH1 0x40 MSTORE DUP1 MLOAD SWAP1 PUSH1 0x20 ADD KECCAK256 SWAP1 POP DUP4 DUP2 EQ PUSH2 0x15C8 JUMPI PUSH1 0x40 MLOAD PUSH3 0x461BCD PUSH1 0xE5 SHL DUP2 MSTORE PUSH1 0x4 ADD PUSH2 0xB50 SWAP1 PUSH2 0x2FBF JUMP JUMPDEST PUSH1 0xC SLOAD DUP2 LT PUSH2 0x15E9 JUMPI PUSH1 0x40 MLOAD PUSH3 0x461BCD PUSH1 0xE5 SHL DUP2 MSTORE PUSH1 0x4 ADD PUSH2 0xB50 SWAP1 PUSH2 0x300D JUMP JUMPDEST PUSH2 0x15F1 PUSH2 0x236F JUMP JUMPDEST PUSH1 0x12 SLOAD TIMESTAMP GT PUSH2 0x163A JUMPI PUSH1 0x40 MLOAD PUSH3 0x461BCD PUSH1 0xE5 SHL DUP2 MSTORE PUSH1 0x20 PUSH1 0x4 DUP3 ADD MSTORE PUSH1 0x15 PUSH1 0x24 DUP3 ADD MSTORE PUSH21 0x4E6F2073616D65207365636F6E6420736F6C766573 PUSH1 0x58 SHL PUSH1 0x44 DUP3 ADD MSTORE PUSH1 0x64 ADD PUSH2 0xB50 JUMP JUMPDEST PUSH1 0x0 PUSH2 0xB40 PUSH1 0x12 SLOAD TIMESTAMP PUSH2 0x164D SWAP2 SWAP1 PUSH2 0x2F99 JUMP JUMPDEST PUSH2 0x1659 SWAP1 PUSH2 0x378 PUSH2 0x2EC8 JUMP JUMPDEST PUSH2 0x1663 SWAP2 SWAP1 PUSH2 0x2F13 JUMP JUMPDEST SWAP1 POP PUSH1 0x0 PUSH2 0x378 PUSH2 0x1675 DUP4 PUSH1 0x64 PUSH2 0x2EC8 JUMP JUMPDEST PUSH2 0x167F SWAP2 SWAP1 PUSH2 0x2F13 JUMP JUMPDEST SWAP1 POP PUSH1 0x0 PUSH2 0x13A DUP3 LT ISZERO PUSH2 0x16C4 JUMPI PUSH2 0x16A1 PUSH2 0x378 PUSH2 0xB07 DUP6 PUSH4 0x26F7F3C PUSH2 0x2EC8 JUMP JUMPDEST PUSH2 0x16B3 PUSH3 0xC0840 PUSH2 0x13D0 PUSH1 0x2 DUP8 PUSH2 0x2FB0 JUMP JUMPDEST PUSH2 0x16BD SWAP2 SWAP1 PUSH2 0x2D8F JUMP JUMPDEST SWAP1 POP PUSH2 0x16E9 JUMP JUMPDEST PUSH2 0x16D8 PUSH2 0x378 PUSH2 0xB07 DUP6 PUSH4 0x5F5E100 PUSH2 0x2EC8 JUMP JUMPDEST PUSH2 0x16E6 SWAP1 PUSH4 0x14DC9380 PUSH2 0x2D8F JUMP JUMPDEST SWAP1 POP JUMPDEST PUSH2 0x1721 PUSH2 0x1702 PUSH4 0x5F5E100 DUP4 PUSH1 0x10 SLOAD PUSH2 0xB07 SWAP2 SWAP1 PUSH2 0x2EC8 JUMP JUMPDEST PUSH1 0x1 PUSH1 0x1 PUSH1 0xA0 SHL SUB DUP9 AND PUSH1 0x0 SWAP1 DUP2 MSTORE PUSH1 0x18 PUSH1 0x20 MSTORE PUSH1 0x40 SWAP1 KECCAK256 SLOAD SWAP1 PUSH2 0x2321 JUMP JUMPDEST PUSH1 0x1 PUSH1 0x1 PUSH1 0xA0 SHL SUB DUP8 AND PUSH1 0x0 SWAP1 DUP2 MSTORE PUSH1 0x18 PUSH1 0x20 MSTORE PUSH1 0x40 SWAP1 KECCAK256 SSTORE PUSH1 0x10 SLOAD PUSH2 0x1777 SWAP1 PUSH2 0x1756 SWAP1 PUSH4 0xBEBC200 SWAP1 PUSH2 0xB07 SWAP1 DUP6 SWAP1 PUSH2 0x2EC8 JUMP JUMPDEST PUSH1 0x3 SLOAD PUSH1 0x1 PUSH1 0x1 PUSH1 0xA0 SHL SUB AND PUSH1 0x0 SWAP1 DUP2 MSTORE PUSH1 0x18 PUSH1 0x20 MSTORE PUSH1 0x40 SWAP1 KECCAK256 SLOAD SWAP1 PUSH2 0x2321 JUMP JUMPDEST PUSH1 0x3 SLOAD PUSH1 0x1 PUSH1 0x1 PUSH1 0xA0 SHL SUB AND PUSH1 0x0 SWAP1 DUP2 MSTORE PUSH1 0x18 PUSH1 0x20 MSTORE PUSH1 0x40 SWAP1 KECCAK256 SSTORE PUSH1 0x10 SLOAD PUSH2 0x17B7 SWAP1 PUSH2 0x17AE SWAP1 PUSH4 0x5F5E100 SWAP1 PUSH2 0xB07 SWAP1 DUP6 SWAP1 PUSH2 0x2EC8 JUMP JUMPDEST PUSH1 0x17 SLOAD SWAP1 PUSH2 0x2321 JUMP JUMPDEST PUSH1 0x17 SSTORE TIMESTAMP PUSH1 0x12 SSTORE PUSH1 0x1A SLOAD ISZERO PUSH2 0x1915 JUMPI PUSH1 0xC8 DUP3 LT ISZERO PUSH2 0x1875 JUMPI PUSH1 0x4 SLOAD PUSH1 0x1A SLOAD PUSH1 0x15 SLOAD PUSH1 0x1 PUSH1 0x1 PUSH1 0xA0 SHL SUB SWAP1 SWAP3 AND SWAP2 PUSH4 0xA9059CBB SWAP2 DUP10 SWAP2 PUSH2 0x1800 SWAP2 PUSH4 0x5F5E100 SWAP2 PUSH2 0x14CF SWAP1 DUP9 PUSH2 0x2EC8 JUMP JUMPDEST PUSH1 0x40 MLOAD PUSH1 0x1 PUSH1 0x1 PUSH1 0xE0 SHL SUB NOT PUSH1 0xE0 DUP6 SWAP1 SHL AND DUP2 MSTORE PUSH1 0x1 PUSH1 0x1 PUSH1 0xA0 SHL SUB SWAP1 SWAP3 AND PUSH1 0x4 DUP4 ADD MSTORE PUSH1 0x24 DUP3 ADD MSTORE PUSH1 0x44 ADD PUSH1 0x20 PUSH1 0x40 MLOAD DUP1 DUP4 SUB DUP2 PUSH1 0x0 DUP8 GAS CALL ISZERO DUP1 ISZERO PUSH2 0x184B JUMPI RETURNDATASIZE PUSH1 0x0 DUP1 RETURNDATACOPY RETURNDATASIZE PUSH1 0x0 REVERT JUMPDEST POP POP POP POP PUSH1 0x40 MLOAD RETURNDATASIZE PUSH1 0x1F NOT PUSH1 0x1F DUP3 ADD AND DUP3 ADD DUP1 PUSH1 0x40 MSTORE POP DUP2 ADD SWAP1 PUSH2 0x186F SWAP2 SWAP1 PUSH2 0x2F4F JUMP JUMPDEST POP PUSH2 0x1915 JUMP JUMPDEST PUSH1 0x4 SLOAD PUSH1 0x1A SLOAD PUSH1 0x15 SLOAD PUSH1 0x1 PUSH1 0x1 PUSH1 0xA0 SHL SUB SWAP1 SWAP3 AND SWAP2 PUSH4 0xA9059CBB SWAP2 DUP10 SWAP2 PUSH2 0x18A4 SWAP2 PUSH1 0xA SWAP2 PUSH2 0x14CF SWAP1 PUSH1 0x22 PUSH2 0x2EC8 JUMP JUMPDEST PUSH1 0x40 MLOAD PUSH1 0x1 PUSH1 0x1 PUSH1 0xE0 SHL SUB NOT PUSH1 0xE0 DUP6 SWAP1 SHL AND DUP2 MSTORE PUSH1 0x1 PUSH1 0x1 PUSH1 0xA0 SHL SUB SWAP1 SWAP3 AND PUSH1 0x4 DUP4 ADD MSTORE PUSH1 0x24 DUP3 ADD MSTORE PUSH1 0x44 ADD PUSH1 0x20 PUSH1 0x40 MLOAD DUP1 DUP4 SUB DUP2 PUSH1 0x0 DUP8 GAS CALL ISZERO DUP1 ISZERO PUSH2 0x18EF JUMPI RETURNDATASIZE PUSH1 0x0 DUP1 RETURNDATACOPY RETURNDATASIZE PUSH1 0x0 REVERT JUMPDEST POP POP POP POP PUSH1 0x40 MLOAD RETURNDATASIZE PUSH1 0x1F NOT PUSH1 0x1F DUP3 ADD AND DUP3 ADD DUP1 PUSH1 0x40 MSTORE POP DUP2 ADD SWAP1 PUSH2 0x1913 SWAP2 SWAP1 PUSH2 0x2F4F JUMP JUMPDEST POP JUMPDEST CALLER PUSH1 0x1 PUSH1 0x1 PUSH1 0xA0 SHL SUB AND PUSH32 0xCF6FBB9DCEA7D07263AB4F5C3A92F53AF33DFFC421D9D121E1C74B307E68189D PUSH2 0x1956 PUSH4 0x5F5E100 DUP5 PUSH1 0x10 SLOAD PUSH2 0xB07 SWAP2 SWAP1 PUSH2 0x2EC8 JUMP JUMPDEST PUSH1 0x8 SLOAD PUSH1 0xD SLOAD PUSH1 0x40 DUP1 MLOAD SWAP4 DUP5 MSTORE PUSH1 0x20 DUP5 ADD SWAP3 SWAP1 SWAP3 MSTORE SWAP1 DUP3 ADD MSTORE PUSH1 0x60 ADD PUSH1 0x40 MLOAD DUP1 SWAP2 SUB SWAP1 LOG2 SWAP8 SWAP7 POP POP POP POP POP POP POP JUMP JUMPDEST PUSH1 0x0 DUP1 PUSH1 0xD SLOAD CALLER DUP8 PUSH1 0x40 MLOAD PUSH1 0x20 ADD PUSH2 0x199F SWAP4 SWAP3 SWAP2 SWAP1 PUSH2 0x2F27 JUMP JUMPDEST PUSH1 0x40 MLOAD PUSH1 0x20 DUP2 DUP4 SUB SUB DUP2 MSTORE SWAP1 PUSH1 0x40 MSTORE DUP1 MLOAD SWAP1 PUSH1 0x20 ADD KECCAK256 SWAP1 POP DUP5 DUP2 EQ PUSH2 0x19D6 JUMPI PUSH1 0x40 MLOAD PUSH3 0x461BCD PUSH1 0xE5 SHL DUP2 MSTORE PUSH1 0x4 ADD PUSH2 0xB50 SWAP1 PUSH2 0x2FBF JUMP JUMPDEST PUSH1 0xC SLOAD DUP2 LT PUSH2 0x19F7 JUMPI PUSH1 0x40 MLOAD PUSH3 0x461BCD PUSH1 0xE5 SHL DUP2 MSTORE PUSH1 0x4 ADD PUSH2 0xB50 SWAP1 PUSH2 0x300D JUMP JUMPDEST PUSH2 0x19FF PUSH2 0x236F JUMP JUMPDEST PUSH1 0x12 SLOAD TIMESTAMP GT PUSH2 0x1A48 JUMPI PUSH1 0x40 MLOAD PUSH3 0x461BCD PUSH1 0xE5 SHL DUP2 MSTORE PUSH1 0x20 PUSH1 0x4 DUP3 ADD MSTORE PUSH1 0x15 PUSH1 0x24 DUP3 ADD MSTORE PUSH21 0x4E6F2073616D65207365636F6E6420736F6C766573 PUSH1 0x58 SHL PUSH1 0x44 DUP3 ADD MSTORE PUSH1 0x64 ADD PUSH2 0xB50 JUMP JUMPDEST DUP4 MLOAD DUP4 MLOAD EQ PUSH2 0x1ABF JUMPI PUSH1 0x40 MLOAD PUSH3 0x461BCD PUSH1 0xE5 SHL DUP2 MSTORE PUSH1 0x20 PUSH1 0x4 DUP3 ADD MSTORE PUSH1 0x3A PUSH1 0x24 DUP3 ADD MSTORE PUSH32 0x4D696E74546F2068617320746F20686176652073616D65206E756D626572206F PUSH1 0x44 DUP3 ADD MSTORE PUSH32 0x66206164647265737373657320617320457874726146756E6473000000000000 PUSH1 0x64 DUP3 ADD MSTORE PUSH1 0x84 ADD PUSH2 0xB50 JUMP JUMPDEST PUSH1 0x0 JUMPDEST DUP5 MLOAD DUP2 LT ISZERO PUSH2 0x1C83 JUMPI PUSH2 0x1AD6 DUP2 PUSH1 0x1 PUSH2 0x2D8F JUMP JUMPDEST PUSH2 0x1AE1 SWAP1 PUSH1 0x2 PUSH2 0x2EBC JUMP JUMPDEST PUSH1 0x8 SLOAD PUSH2 0x1AEE SWAP2 SWAP1 PUSH2 0x2F6C JUMP JUMPDEST ISZERO PUSH2 0x1AF8 JUMPI PUSH2 0x1C83 JUMP JUMPDEST ADDRESS PUSH1 0x1 PUSH1 0x1 PUSH1 0xA0 SHL SUB AND DUP6 DUP3 DUP2 MLOAD DUP2 LT PUSH2 0x1B14 JUMPI PUSH2 0x1B14 PUSH2 0x2DA7 JUMP JUMPDEST PUSH1 0x20 MUL PUSH1 0x20 ADD ADD MLOAD PUSH1 0x1 PUSH1 0x1 PUSH1 0xA0 SHL SUB AND EQ ISZERO DUP1 ISZERO PUSH2 0x1B65 JUMPI POP PUSH1 0x4 SLOAD DUP6 MLOAD PUSH1 0x1 PUSH1 0x1 PUSH1 0xA0 SHL SUB SWAP1 SWAP2 AND SWAP1 DUP7 SWAP1 DUP4 SWAP1 DUP2 LT PUSH2 0x1B51 JUMPI PUSH2 0x1B51 PUSH2 0x2DA7 JUMP JUMPDEST PUSH1 0x20 MUL PUSH1 0x20 ADD ADD MLOAD PUSH1 0x1 PUSH1 0x1 PUSH1 0xA0 SHL SUB AND EQ ISZERO JUMPDEST PUSH2 0x1BB1 JUMPI PUSH1 0x40 MLOAD PUSH3 0x461BCD PUSH1 0xE5 SHL DUP2 MSTORE PUSH1 0x20 PUSH1 0x4 DUP3 ADD MSTORE PUSH1 0x1A PUSH1 0x24 DUP3 ADD MSTORE PUSH32 0x4E6F2062617365207072696E74696E67206F6620746F6B656E73000000000000 PUSH1 0x44 DUP3 ADD MSTORE PUSH1 0x64 ADD PUSH2 0xB50 JUMP JUMPDEST PUSH1 0x0 PUSH2 0x1BBE DUP3 PUSH1 0x1 PUSH2 0x2D8F JUMP JUMPDEST SWAP1 POP JUMPDEST DUP6 MLOAD DUP2 LT ISZERO PUSH2 0x1C70 JUMPI DUP6 DUP3 DUP2 MLOAD DUP2 LT PUSH2 0x1BDC JUMPI PUSH2 0x1BDC PUSH2 0x2DA7 JUMP JUMPDEST PUSH1 0x20 MUL PUSH1 0x20 ADD ADD MLOAD PUSH1 0x1 PUSH1 0x1 PUSH1 0xA0 SHL SUB AND DUP7 DUP3 DUP2 MLOAD DUP2 LT PUSH2 0x1BFF JUMPI PUSH2 0x1BFF PUSH2 0x2DA7 JUMP JUMPDEST PUSH1 0x20 MUL PUSH1 0x20 ADD ADD MLOAD PUSH1 0x1 PUSH1 0x1 PUSH1 0xA0 SHL SUB AND EQ ISZERO PUSH2 0x1C5E JUMPI PUSH1 0x40 MLOAD PUSH3 0x461BCD PUSH1 0xE5 SHL DUP2 MSTORE PUSH1 0x20 PUSH1 0x4 DUP3 ADD MSTORE PUSH1 0x1B PUSH1 0x24 DUP3 ADD MSTORE PUSH32 0x4E6F207072696E74696E67205468652073616D6520746F6B656E730000000000 PUSH1 0x44 DUP3 ADD MSTORE PUSH1 0x64 ADD PUSH2 0xB50 JUMP JUMPDEST DUP1 PUSH2 0x1C68 DUP2 PUSH2 0x2DBD JUMP JUMPDEST SWAP2 POP POP PUSH2 0x1BC1 JUMP JUMPDEST POP DUP1 PUSH2 0x1C7B DUP2 PUSH2 0x2DBD JUMP JUMPDEST SWAP2 POP POP PUSH2 0x1AC2 JUMP JUMPDEST PUSH1 0x0 PUSH2 0xB40 PUSH1 0x12 SLOAD TIMESTAMP PUSH2 0x1C96 SWAP2 SWAP1 PUSH2 0x2F99 JUMP JUMPDEST PUSH2 0x1CA2 SWAP1 PUSH2 0x378 PUSH2 0x2EC8 JUMP JUMPDEST PUSH2 0x1CAC SWAP2 SWAP1 PUSH2 0x2F13 JUMP JUMPDEST SWAP1 POP PUSH1 0x0 PUSH2 0x378 PUSH2 0x1CBE DUP4 PUSH1 0x64 PUSH2 0x2EC8 JUMP JUMPDEST PUSH2 0x1CC8 SWAP2 SWAP1 PUSH2 0x2F13 JUMP JUMPDEST SWAP1 POP PUSH1 0x0 PUSH2 0x13A DUP3 LT ISZERO PUSH2 0x1D0D JUMPI PUSH2 0x1CEA PUSH2 0x378 PUSH2 0xB07 DUP6 PUSH4 0x26F7F3C PUSH2 0x2EC8 JUMP JUMPDEST PUSH2 0x1CFC PUSH3 0xC0840 PUSH2 0x13D0 PUSH1 0x2 DUP8 PUSH2 0x2FB0 JUMP JUMPDEST PUSH2 0x1D06 SWAP2 SWAP1 PUSH2 0x2D8F JUMP JUMPDEST SWAP1 POP PUSH2 0x1D32 JUMP JUMPDEST PUSH2 0x1D21 PUSH2 0x378 PUSH2 0xB07 DUP6 PUSH4 0x5F5E100 PUSH2 0x2EC8 JUMP JUMPDEST PUSH2 0x1D2F SWAP1 PUSH4 0x14DC9380 PUSH2 0x2D8F JUMP JUMPDEST SWAP1 POP JUMPDEST PUSH1 0x0 DUP2 GT PUSH2 0x1D6F JUMPI PUSH1 0x40 MLOAD PUSH3 0x461BCD PUSH1 0xE5 SHL DUP2 MSTORE PUSH1 0x20 PUSH1 0x4 DUP3 ADD MSTORE PUSH1 0xA PUSH1 0x24 DUP3 ADD MSTORE PUSH10 0x6D696E74206973737565 PUSH1 0xB0 SHL PUSH1 0x44 DUP3 ADD MSTORE PUSH1 0x64 ADD PUSH2 0xB50 JUMP JUMPDEST PUSH1 0x0 DUP1 PUSH1 0x0 JUMPDEST DUP7 DUP2 LT ISZERO PUSH2 0x1F49 JUMPI PUSH2 0x1D88 DUP2 PUSH1 0x1 PUSH2 0x2D8F JUMP JUMPDEST PUSH2 0x1D93 SWAP1 PUSH1 0x2 PUSH2 0x2EBC JUMP JUMPDEST PUSH1 0x8 SLOAD PUSH2 0x1DA0 SWAP2 SWAP1 PUSH2 0x2F6C JUMP JUMPDEST PUSH2 0x1F37 JUMPI DUP11 DUP2 DUP2 MLOAD DUP2 LT PUSH2 0x1DB6 JUMPI PUSH2 0x1DB6 PUSH2 0x2DA7 JUMP JUMPDEST PUSH1 0x20 SWAP1 DUP2 MUL SWAP2 SWAP1 SWAP2 ADD ADD MLOAD PUSH1 0x40 MLOAD PUSH4 0x70A08231 PUSH1 0xE0 SHL DUP2 MSTORE ADDRESS PUSH1 0x4 DUP3 ADD MSTORE PUSH1 0x1 PUSH1 0x1 PUSH1 0xA0 SHL SUB SWAP1 SWAP2 AND SWAP1 PUSH4 0x70A08231 SWAP1 PUSH1 0x24 ADD PUSH1 0x20 PUSH1 0x40 MLOAD DUP1 DUP4 SUB DUP2 DUP7 GAS STATICCALL ISZERO DUP1 ISZERO PUSH2 0x1E06 JUMPI RETURNDATASIZE PUSH1 0x0 DUP1 RETURNDATACOPY RETURNDATASIZE PUSH1 0x0 REVERT JUMPDEST POP POP POP POP PUSH1 0x40 MLOAD RETURNDATASIZE PUSH1 0x1F NOT PUSH1 0x1F DUP3 ADD AND DUP3 ADD DUP1 PUSH1 0x40 MSTORE POP DUP2 ADD SWAP1 PUSH2 0x1E2A SWAP2 SWAP1 PUSH2 0x2F80 JUMP JUMPDEST SWAP2 POP DUP2 ISZERO PUSH2 0x1F37 JUMPI PUSH2 0x1E3D PUSH1 0x3 DUP3 PUSH2 0x2F6C JUMP JUMPDEST ISZERO DUP1 ISZERO PUSH2 0x1E49 JUMPI POP DUP1 ISZERO ISZERO JUMPDEST ISZERO PUSH2 0x1E68 JUMPI PUSH2 0x1E61 PUSH5 0x3A35294400 PUSH2 0x11CC DUP7 DUP6 PUSH2 0x2EC8 JUMP JUMPDEST SWAP3 POP PUSH2 0x1E7E JUMP JUMPDEST PUSH2 0x1E7B PUSH5 0x3A35294400 PUSH2 0xB07 DUP7 DUP6 PUSH2 0x2EC8 JUMP JUMPDEST SWAP3 POP JUMPDEST DUP11 DUP2 DUP2 MLOAD DUP2 LT PUSH2 0x1E90 JUMPI PUSH2 0x1E90 PUSH2 0x2DA7 JUMP JUMPDEST PUSH1 0x20 MUL PUSH1 0x20 ADD ADD MLOAD PUSH1 0x1 PUSH1 0x1 PUSH1 0xA0 SHL SUB AND PUSH4 0xA9059CBB DUP12 DUP4 DUP2 MLOAD DUP2 LT PUSH2 0x1EB8 JUMPI PUSH2 0x1EB8 PUSH2 0x2DA7 JUMP JUMPDEST PUSH1 0x20 MUL PUSH1 0x20 ADD ADD MLOAD DUP6 PUSH1 0x40 MLOAD DUP4 PUSH4 0xFFFFFFFF AND PUSH1 0xE0 SHL DUP2 MSTORE PUSH1 0x4 ADD PUSH2 0x1EF2 SWAP3 SWAP2 SWAP1 PUSH1 0x1 PUSH1 0x1 PUSH1 0xA0 SHL SUB SWAP3 SWAP1 SWAP3 AND DUP3 MSTORE PUSH1 0x20 DUP3 ADD MSTORE PUSH1 0x40 ADD SWAP1 JUMP JUMPDEST PUSH1 0x20 PUSH1 0x40 MLOAD DUP1 DUP4 SUB DUP2 PUSH1 0x0 DUP8 GAS CALL ISZERO DUP1 ISZERO PUSH2 0x1F11 JUMPI RETURNDATASIZE PUSH1 0x0 DUP1 RETURNDATACOPY RETURNDATASIZE PUSH1 0x0 REVERT JUMPDEST POP POP POP POP PUSH1 0x40 MLOAD RETURNDATASIZE PUSH1 0x1F NOT PUSH1 0x1F DUP3 ADD AND DUP3 ADD DUP1 PUSH1 0x40 MSTORE POP DUP2 ADD SWAP1 PUSH2 0x1F35 SWAP2 SWAP1 PUSH2 0x2F4F JUMP JUMPDEST POP JUMPDEST DUP1 PUSH2 0x1F41 DUP2 PUSH2 0x2DBD JUMP JUMPDEST SWAP2 POP POP PUSH2 0x1D75 JUMP JUMPDEST POP POP TIMESTAMP PUSH1 0x12 SSTORE POP SWAP10 SWAP9 POP POP POP POP POP POP POP POP POP JUMP JUMPDEST PUSH1 0x0 PUSH2 0x1F67 PUSH2 0x236F JUMP JUMPDEST PUSH1 0x0 PUSH2 0xB40 PUSH1 0x12 SLOAD TIMESTAMP PUSH2 0x1F7A SWAP2 SWAP1 PUSH2 0x2F99 JUMP JUMPDEST PUSH2 0x1F86 SWAP1 PUSH2 0x378 PUSH2 0x2EC8 JUMP JUMPDEST PUSH2 0x1F90 SWAP2 SWAP1 PUSH2 0x2F13 JUMP JUMPDEST SWAP1 POP PUSH1 0x0 PUSH2 0x378 PUSH2 0x1FA2 DUP4 PUSH1 0x64 PUSH2 0x2EC8 JUMP JUMPDEST PUSH2 0x1FAC SWAP2 SWAP1 PUSH2 0x2F13 JUMP JUMPDEST SWAP1 POP PUSH1 0x0 PUSH2 0x13A DUP3 LT ISZERO PUSH2 0x1FF1 JUMPI PUSH2 0x1FCE PUSH2 0x378 PUSH2 0xB07 DUP6 PUSH4 0x26F7F3C PUSH2 0x2EC8 JUMP JUMPDEST PUSH2 0x1FE0 PUSH3 0xC0840 PUSH2 0x13D0 PUSH1 0x2 DUP8 PUSH2 0x2FB0 JUMP JUMPDEST PUSH2 0x1FEA SWAP2 SWAP1 PUSH2 0x2D8F JUMP JUMPDEST SWAP1 POP PUSH2 0x2016 JUMP JUMPDEST PUSH2 0x2005 PUSH2 0x378 PUSH2 0xB07 DUP6 PUSH4 0x5F5E100 PUSH2 0x2EC8 JUMP JUMPDEST PUSH2 0x2013 SWAP1 PUSH4 0x14DC9380 PUSH2 0x2D8F JUMP JUMPDEST SWAP1 POP JUMPDEST PUSH2 0x204E PUSH2 0x202F PUSH4 0x5F5E100 DUP4 PUSH1 0x10 SLOAD PUSH2 0xB07 SWAP2 SWAP1 PUSH2 0x2EC8 JUMP JUMPDEST PUSH1 0x1 PUSH1 0x1 PUSH1 0xA0 SHL SUB DUP8 AND PUSH1 0x0 SWAP1 DUP2 MSTORE PUSH1 0x18 PUSH1 0x20 MSTORE PUSH1 0x40 SWAP1 KECCAK256 SLOAD SWAP1 PUSH2 0x2321 JUMP JUMPDEST PUSH1 0x1 PUSH1 0x1 PUSH1 0xA0 SHL SUB DUP7 AND PUSH1 0x0 SWAP1 DUP2 MSTORE PUSH1 0x18 PUSH1 0x20 MSTORE PUSH1 0x40 SWAP1 KECCAK256 SSTORE PUSH1 0x10 SLOAD PUSH2 0x2083 SWAP1 PUSH2 0x1756 SWAP1 PUSH4 0xBEBC200 SWAP1 PUSH2 0xB07 SWAP1 DUP6 SWAP1 PUSH2 0x2EC8 JUMP JUMPDEST PUSH1 0x3 SLOAD PUSH1 0x1 PUSH1 0x1 PUSH1 0xA0 SHL SUB AND PUSH1 0x0 SWAP1 DUP2 MSTORE PUSH1 0x18 PUSH1 0x20 MSTORE PUSH1 0x40 SWAP1 KECCAK256 SSTORE PUSH1 0x10 SLOAD PUSH2 0x20BA SWAP1 PUSH2 0x17AE SWAP1 PUSH4 0x5F5E100 SWAP1 PUSH2 0xB07 SWAP1 DUP6 SWAP1 PUSH2 0x2EC8 JUMP JUMPDEST PUSH1 0x17 SSTORE TIMESTAMP PUSH1 0x12 SSTORE PUSH1 0x1A SLOAD ISZERO PUSH2 0x2218 JUMPI PUSH1 0xC8 DUP3 LT ISZERO PUSH2 0x2178 JUMPI PUSH1 0x4 SLOAD PUSH1 0x1A SLOAD PUSH1 0x15 SLOAD PUSH1 0x1 PUSH1 0x1 PUSH1 0xA0 SHL SUB SWAP1 SWAP3 AND SWAP2 PUSH4 0xA9059CBB SWAP2 DUP9 SWAP2 PUSH2 0x2103 SWAP2 PUSH4 0x5F5E100 SWAP2 PUSH2 0x14CF SWAP1 DUP9 PUSH2 0x2EC8 JUMP JUMPDEST PUSH1 0x40 MLOAD PUSH1 0x1 PUSH1 0x1 PUSH1 0xE0 SHL SUB NOT PUSH1 0xE0 DUP6 SWAP1 SHL AND DUP2 MSTORE PUSH1 0x1 PUSH1 0x1 PUSH1 0xA0 SHL SUB SWAP1 SWAP3 AND PUSH1 0x4 DUP4 ADD MSTORE PUSH1 0x24 DUP3 ADD MSTORE PUSH1 0x44 ADD PUSH1 0x20 PUSH1 0x40 MLOAD DUP1 DUP4 SUB DUP2 PUSH1 0x0 DUP8 GAS CALL ISZERO DUP1 ISZERO PUSH2 0x214E JUMPI RETURNDATASIZE PUSH1 0x0 DUP1 RETURNDATACOPY RETURNDATASIZE PUSH1 0x0 REVERT JUMPDEST POP POP POP POP PUSH1 0x40 MLOAD RETURNDATASIZE PUSH1 0x1F NOT PUSH1 0x1F DUP3 ADD AND DUP3 ADD DUP1 PUSH1 0x40 MSTORE POP DUP2 ADD SWAP1 PUSH2 0x2172 SWAP2 SWAP1 PUSH2 0x2F4F JUMP JUMPDEST POP PUSH2 0x2218 JUMP JUMPDEST PUSH1 0x4 SLOAD PUSH1 0x1A SLOAD PUSH1 0x15 SLOAD PUSH1 0x1 PUSH1 0x1 PUSH1 0xA0 SHL SUB SWAP1 SWAP3 AND SWAP2 PUSH4 0xA9059CBB SWAP2 DUP9 SWAP2 PUSH2 0x21A7 SWAP2 PUSH1 0xA SWAP2 PUSH2 0x14CF SWAP1 PUSH1 0x22 PUSH2 0x2EC8 JUMP JUMPDEST PUSH1 0x40 MLOAD PUSH1 0x1 PUSH1 0x1 PUSH1 0xE0 SHL SUB NOT PUSH1 0xE0 DUP6 SWAP1 SHL AND DUP2 MSTORE PUSH1 0x1 PUSH1 0x1 PUSH1 0xA0 SHL SUB SWAP1 SWAP3 AND PUSH1 0x4 DUP4 ADD MSTORE PUSH1 0x24 DUP3 ADD MSTORE PUSH1 0x44 ADD PUSH1 0x20 PUSH1 0x40 MLOAD DUP1 DUP4 SUB DUP2 PUSH1 0x0 DUP8 GAS CALL ISZERO DUP1 ISZERO PUSH2 0x21F2 JUMPI RETURNDATASIZE PUSH1 0x0 DUP1 RETURNDATACOPY RETURNDATASIZE PUSH1 0x0 REVERT JUMPDEST POP POP POP POP PUSH1 0x40 MLOAD RETURNDATASIZE PUSH1 0x1F NOT PUSH1 0x1F DUP3 ADD AND DUP3 ADD DUP1 PUSH1 0x40 MSTORE POP DUP2 ADD SWAP1 PUSH2 0x2216 SWAP2 SWAP1 PUSH2 0x2F4F JUMP JUMPDEST POP JUMPDEST CALLER PUSH1 0x1 PUSH1 0x1 PUSH1 0xA0 SHL SUB AND PUSH32 0xCF6FBB9DCEA7D07263AB4F5C3A92F53AF33DFFC421D9D121E1C74B307E68189D PUSH2 0x2259 PUSH4 0x5F5E100 DUP5 PUSH1 0x10 SLOAD PUSH2 0xB07 SWAP2 SWAP1 PUSH2 0x2EC8 JUMP JUMPDEST PUSH1 0x8 SLOAD PUSH1 0xD SLOAD PUSH1 0x40 DUP1 MLOAD SWAP4 DUP5 MSTORE PUSH1 0x20 DUP5 ADD SWAP3 SWAP1 SWAP3 MSTORE SWAP1 DUP3 ADD MSTORE PUSH1 0x60 ADD PUSH1 0x40 MLOAD DUP1 SWAP2 SUB SWAP1 LOG2 SWAP7 SWAP6 POP POP POP POP POP POP JUMP JUMPDEST PUSH1 0x0 DUP2 PUSH2 0x22C4 JUMPI PUSH1 0x40 MLOAD PUSH3 0x461BCD PUSH1 0xE5 SHL DUP2 MSTORE PUSH1 0x20 PUSH1 0x4 DUP3 ADD MSTORE PUSH1 0xB PUSH1 0x24 DUP3 ADD MSTORE PUSH11 0x446976206279207A65726F PUSH1 0xA8 SHL PUSH1 0x44 DUP3 ADD MSTORE PUSH1 0x64 ADD PUSH2 0xB50 JUMP JUMPDEST PUSH2 0x22CE DUP3 DUP5 PUSH2 0x2F13 JUMP JUMPDEST SWAP4 SWAP3 POP POP POP JUMP JUMPDEST PUSH1 0x0 DUP2 DUP4 LT ISZERO PUSH2 0x2317 JUMPI PUSH1 0x40 MLOAD PUSH3 0x461BCD PUSH1 0xE5 SHL DUP2 MSTORE PUSH1 0x20 PUSH1 0x4 DUP3 ADD MSTORE PUSH1 0xD PUSH1 0x24 DUP3 ADD MSTORE PUSH13 0x53756220756E646572666C6F77 PUSH1 0x98 SHL PUSH1 0x44 DUP3 ADD MSTORE PUSH1 0x64 ADD PUSH2 0xB50 JUMP JUMPDEST PUSH2 0x22CE DUP3 DUP5 PUSH2 0x2F99 JUMP JUMPDEST PUSH1 0x0 DUP1 PUSH2 0x232E DUP4 DUP6 PUSH2 0x2D8F JUMP JUMPDEST SWAP1 POP DUP4 DUP2 LT ISZERO PUSH2 0x22CE JUMPI PUSH1 0x40 MLOAD PUSH3 0x461BCD PUSH1 0xE5 SHL DUP2 MSTORE PUSH1 0x20 PUSH1 0x4 DUP3 ADD MSTORE PUSH1 0xC PUSH1 0x24 DUP3 ADD MSTORE PUSH12 0x416464206F766572666C6F77 PUSH1 0xA0 SHL PUSH1 0x44 DUP3 ADD MSTORE PUSH1 0x64 ADD PUSH2 0xB50 JUMP JUMPDEST PUSH1 0xF SLOAD PUSH1 0x10 SLOAD PUSH1 0x17 SLOAD PUSH2 0x2381 SWAP2 PUSH2 0x2321 JUMP JUMPDEST GT DUP1 ISZERO PUSH2 0x2390 JUMPI POP PUSH1 0x3C PUSH1 0xE SLOAD LT JUMPDEST ISZERO PUSH2 0x23DC JUMPI PUSH1 0xE SLOAD PUSH2 0x23A3 SWAP1 PUSH1 0x1 PUSH2 0x2D8F JUMP JUMPDEST PUSH1 0xE DUP2 SWAP1 SSTORE PUSH2 0x23CB SWAP1 PUSH2 0x23B7 SWAP1 PUSH1 0x1 PUSH2 0x2D8F JUMP JUMPDEST PUSH2 0x23C2 SWAP1 PUSH1 0x2 PUSH2 0x2EBC JUMP JUMPDEST PUSH1 0x6 SLOAD SWAP1 PUSH2 0x2287 JUMP JUMPDEST PUSH1 0x6 SLOAD PUSH2 0x23D8 SWAP2 SWAP1 PUSH2 0x2F99 JUMP JUMPDEST PUSH1 0xF SSTORE JUMPDEST PUSH1 0x8 SLOAD PUSH2 0x23EA SWAP1 PUSH1 0x1 PUSH2 0x2321 JUMP JUMPDEST PUSH1 0x8 SSTORE PUSH1 0x9 SLOAD PUSH2 0x23FC SWAP1 PUSH1 0x4 SWAP1 PUSH2 0x2F13 JUMP JUMPDEST PUSH1 0x8 SLOAD PUSH2 0x2409 SWAP2 SWAP1 PUSH2 0x2F6C JUMP JUMPDEST PUSH2 0x25AF JUMPI PUSH2 0x2415 PUSH2 0x1324 JUMP JUMPDEST PUSH2 0x2427 PUSH1 0xE SLOAD PUSH1 0x1 PUSH2 0x23B7 SWAP2 SWAP1 PUSH2 0x2D8F JUMP JUMPDEST PUSH1 0x6 SLOAD PUSH2 0x2434 SWAP2 SWAP1 PUSH2 0x2F99 JUMP JUMPDEST PUSH1 0xF SSTORE PUSH1 0x9 SLOAD PUSH1 0x8 SLOAD PUSH2 0x2447 SWAP2 SWAP1 PUSH2 0x2F6C JUMP JUMPDEST PUSH2 0x25AF JUMPI PUSH1 0x4 DUP1 SLOAD PUSH1 0x40 MLOAD PUSH4 0x70A08231 PUSH1 0xE0 SHL DUP2 MSTORE ADDRESS SWAP3 DUP2 ADD SWAP3 SWAP1 SWAP3 MSTORE PUSH5 0x2E90EDD000 SWAP2 PUSH1 0x1 PUSH1 0x1 PUSH1 0xA0 SHL SUB SWAP1 SWAP2 AND SWAP1 PUSH4 0x70A08231 SWAP1 PUSH1 0x24 ADD PUSH1 0x20 PUSH1 0x40 MLOAD DUP1 DUP4 SUB DUP2 DUP7 GAS STATICCALL ISZERO DUP1 ISZERO PUSH2 0x249D JUMPI RETURNDATASIZE PUSH1 0x0 DUP1 RETURNDATACOPY RETURNDATASIZE PUSH1 0x0 REVERT JUMPDEST POP POP POP POP PUSH1 0x40 MLOAD RETURNDATASIZE PUSH1 0x1F NOT PUSH1 0x1F DUP3 ADD AND DUP3 ADD DUP1 PUSH1 0x40 MSTORE POP DUP2 ADD SWAP1 PUSH2 0x24C1 SWAP2 SWAP1 PUSH2 0x2F80 JUMP JUMPDEST PUSH2 0x24CB SWAP2 SWAP1 PUSH2 0x2F13 JUMP JUMPDEST PUSH1 0x1 DUP2 SWAP1 SSTORE PUSH2 0x24DC SWAP1 PUSH2 0x2710 PUSH2 0x2EC8 JUMP JUMPDEST PUSH2 0x24E8 SWAP1 PUSH2 0x2710 PUSH2 0x2D8F JUMP JUMPDEST PUSH1 0x15 SLOAD PUSH1 0x4 DUP1 SLOAD PUSH1 0x40 MLOAD PUSH4 0x70A08231 PUSH1 0xE0 SHL DUP2 MSTORE ADDRESS SWAP3 DUP2 ADD SWAP3 SWAP1 SWAP3 MSTORE PUSH1 0x1 PUSH1 0x1 PUSH1 0xA0 SHL SUB AND SWAP1 PUSH4 0x70A08231 SWAP1 PUSH1 0x24 ADD PUSH1 0x20 PUSH1 0x40 MLOAD DUP1 DUP4 SUB DUP2 DUP7 GAS STATICCALL ISZERO DUP1 ISZERO PUSH2 0x2534 JUMPI RETURNDATASIZE PUSH1 0x0 DUP1 RETURNDATACOPY RETURNDATASIZE PUSH1 0x0 REVERT JUMPDEST POP POP POP POP PUSH1 0x40 MLOAD RETURNDATASIZE PUSH1 0x1F NOT PUSH1 0x1F DUP3 ADD AND DUP3 ADD DUP1 PUSH1 0x40 MSTORE POP DUP2 ADD SWAP1 PUSH2 0x2558 SWAP2 SWAP1 PUSH2 0x2F80 JUMP JUMPDEST PUSH2 0x2562 SWAP2 SWAP1 PUSH2 0x2F13 JUMP JUMPDEST GT PUSH2 0x2595 JUMPI PUSH1 0x16 SLOAD PUSH1 0x15 SLOAD PUSH2 0x2578 SWAP1 PUSH1 0x2 PUSH2 0x2287 JUMP JUMPDEST GT ISZERO PUSH2 0x2590 JUMPI PUSH1 0x15 SLOAD PUSH2 0x258C SWAP1 PUSH1 0x2 PUSH2 0x2287 JUMP JUMPDEST PUSH1 0x15 SSTORE JUMPDEST PUSH2 0x25A7 JUMP JUMPDEST PUSH1 0x15 SLOAD PUSH2 0x25A3 SWAP1 PUSH1 0x3 PUSH2 0x26DD JUMP JUMPDEST PUSH1 0x15 SSTORE JUMPDEST PUSH2 0x25AF PUSH2 0x2742 JUMP JUMPDEST PUSH2 0x25BA PUSH1 0x1 NUMBER PUSH2 0x2F99 JUMP JUMPDEST BLOCKHASH PUSH1 0xD SSTORE JUMP JUMPDEST PUSH1 0x0 SLOAD PUSH1 0x1 PUSH1 0x1 PUSH1 0xA0 SHL SUB AND CALLER EQ PUSH2 0x2607 JUMPI PUSH1 0x40 MLOAD PUSH3 0x461BCD PUSH1 0xE5 SHL DUP2 MSTORE PUSH1 0x20 PUSH1 0x4 DUP3 ADD MSTORE PUSH1 0xA PUSH1 0x24 DUP3 ADD MSTORE PUSH10 0x37B7363C9037BBB732B9 PUSH1 0xB1 SHL PUSH1 0x44 DUP3 ADD MSTORE PUSH1 0x64 ADD PUSH2 0xB50 JUMP JUMPDEST PUSH1 0x0 SLOAD PUSH1 0x40 DUP1 MLOAD PUSH1 0x1 PUSH1 0x1 PUSH1 0xA0 SHL SUB SWAP3 DUP4 AND DUP2 MSTORE SWAP2 DUP4 AND PUSH1 0x20 DUP4 ADD MSTORE PUSH32 0x5C486528EC3E3F0EA91181CFF8116F02BFA350E03B8B6F12E00765ADBB5AF85C SWAP2 ADD PUSH1 0x40 MLOAD DUP1 SWAP2 SUB SWAP1 LOG1 PUSH1 0x0 DUP1 SLOAD PUSH1 0x1 PUSH1 0x1 PUSH1 0xA0 SHL SUB NOT AND PUSH1 0x1 PUSH1 0x1 PUSH1 0xA0 SHL SUB SWAP3 SWAP1 SWAP3 AND SWAP2 SWAP1 SWAP2 OR SWAP1 SSTORE JUMP JUMPDEST PUSH1 0x0 DUP2 PUSH2 0x26AD JUMPI PUSH1 0x40 MLOAD PUSH3 0x461BCD PUSH1 0xE5 SHL DUP2 MSTORE PUSH1 0x20 PUSH1 0x4 DUP3 ADD MSTORE PUSH1 0xB PUSH1 0x24 DUP3 ADD MSTORE PUSH11 0x446976206279207A65726F PUSH1 0xA8 SHL PUSH1 0x44 DUP3 ADD MSTORE PUSH1 0x64 ADD PUSH2 0xB50 JUMP JUMPDEST PUSH1 0x0 PUSH2 0x26B9 DUP4 DUP6 PUSH2 0x2F13 JUMP JUMPDEST SWAP1 POP PUSH2 0x26C5 DUP4 DUP6 PUSH2 0x2F6C JUMP JUMPDEST ISZERO PUSH2 0x22CE JUMPI PUSH2 0x26D5 DUP2 PUSH1 0x1 PUSH2 0x2D8F JUMP JUMPDEST SWAP5 SWAP4 POP POP POP POP JUMP JUMPDEST PUSH1 0x0 DUP3 PUSH2 0x26EC JUMPI POP PUSH1 0x0 PUSH2 0x8E3 JUMP JUMPDEST PUSH1 0x0 PUSH2 0x26F8 DUP4 DUP6 PUSH2 0x2EC8 JUMP JUMPDEST SWAP1 POP DUP3 PUSH2 0x2705 DUP6 DUP4 PUSH2 0x2F13 JUMP JUMPDEST EQ PUSH2 0x22CE JUMPI PUSH1 0x40 MLOAD PUSH3 0x461BCD PUSH1 0xE5 SHL DUP2 MSTORE PUSH1 0x20 PUSH1 0x4 DUP3 ADD MSTORE PUSH1 0xD PUSH1 0x24 DUP3 ADD MSTORE PUSH13 0x4D756C74206F766572666C6F77 PUSH1 0x98 SHL PUSH1 0x44 DUP3 ADD MSTORE PUSH1 0x64 ADD PUSH2 0xB50 JUMP JUMPDEST PUSH1 0x7 SLOAD TIMESTAMP SWAP1 PUSH1 0x0 SWAP1 PUSH2 0x2754 SWAP1 DUP4 PUSH2 0x2F99 JUMP JUMPDEST SWAP1 POP PUSH1 0x0 PUSH1 0x9 SLOAD PUSH2 0xB40 PUSH2 0x2768 SWAP2 SWAP1 PUSH2 0x2EC8 JUMP JUMPDEST SWAP1 POP DUP1 DUP3 LT ISZERO PUSH2 0x27DD JUMPI PUSH1 0x0 PUSH2 0x2783 DUP4 PUSH2 0xB07 DUP5 PUSH1 0x64 PUSH2 0x26DD JUMP JUMPDEST PUSH1 0x1 PUSH1 0x1B SSTORE SWAP1 POP PUSH1 0x0 PUSH2 0x27A3 PUSH2 0x3E8 PUSH2 0x279D DUP5 PUSH1 0x64 PUSH2 0x22D5 JUMP JUMPDEST SWAP1 PUSH2 0x286B JUMP JUMPDEST SWAP1 POP PUSH2 0x27D2 PUSH2 0x27C9 DUP3 PUSH2 0x27C3 PUSH2 0x7D0 PUSH1 0xC SLOAD PUSH2 0x2287 SWAP1 SWAP2 SWAP1 PUSH4 0xFFFFFFFF AND JUMP JUMPDEST SWAP1 PUSH2 0x26DD JUMP JUMPDEST PUSH1 0xC SLOAD SWAP1 PUSH2 0x22D5 JUMP JUMPDEST PUSH1 0xC SSTORE POP PUSH2 0x2837 SWAP1 POP JUMP JUMPDEST PUSH1 0x0 PUSH2 0x27EE DUP3 PUSH2 0xB07 DUP6 PUSH1 0x64 PUSH2 0x26DD JUMP JUMPDEST PUSH1 0x2 PUSH1 0x1B SSTORE SWAP1 POP PUSH1 0x0 PUSH2 0x2808 PUSH2 0x3E8 PUSH2 0x279D DUP5 PUSH1 0x64 PUSH2 0x22D5 JUMP JUMPDEST SWAP1 POP PUSH2 0x2831 PUSH2 0x2828 DUP3 PUSH2 0x27C3 PUSH2 0x1F4 PUSH1 0xC SLOAD PUSH2 0x2287 SWAP1 SWAP2 SWAP1 PUSH4 0xFFFFFFFF AND JUMP JUMPDEST PUSH1 0xC SLOAD SWAP1 PUSH2 0x2321 JUMP JUMPDEST PUSH1 0xC SSTORE POP POP JUMPDEST PUSH1 0x7 DUP4 SWAP1 SSTORE NUMBER PUSH1 0x1E SSTORE PUSH1 0xA SLOAD PUSH1 0xC SLOAD LT ISZERO PUSH2 0x2853 JUMPI PUSH1 0xA SLOAD PUSH1 0xC SSTORE JUMPDEST PUSH1 0xB SLOAD PUSH1 0xC SLOAD GT ISZERO PUSH2 0x2866 JUMPI PUSH1 0xB SLOAD PUSH1 0xC SSTORE JUMPDEST POP POP POP JUMP JUMPDEST PUSH1 0x0 DUP2 DUP4 GT ISZERO PUSH2 0x287C JUMPI POP DUP1 PUSH2 0x8E3 JUMP JUMPDEST POP SWAP1 SWAP2 SWAP1 POP JUMP JUMPDEST PUSH1 0x0 PUSH1 0x20 DUP1 DUP4 MSTORE DUP4 MLOAD DUP1 DUP3 DUP6 ADD MSTORE PUSH1 0x0 JUMPDEST DUP2 DUP2 LT ISZERO PUSH2 0x28B0 JUMPI DUP6 DUP2 ADD DUP4 ADD MLOAD DUP6 DUP3 ADD PUSH1 0x40 ADD MSTORE DUP3 ADD PUSH2 0x2894 JUMP JUMPDEST DUP2 DUP2 GT ISZERO PUSH2 0x28C2 JUMPI PUSH1 0x0 PUSH1 0x40 DUP4 DUP8 ADD ADD MSTORE JUMPDEST POP PUSH1 0x1F ADD PUSH1 0x1F NOT AND SWAP3 SWAP1 SWAP3 ADD PUSH1 0x40 ADD SWAP4 SWAP3 POP POP POP JUMP JUMPDEST DUP1 CALLDATALOAD PUSH1 0x1 PUSH1 0x1 PUSH1 0xA0 SHL SUB DUP2 AND DUP2 EQ PUSH2 0x28EF JUMPI PUSH1 0x0 DUP1 REVERT JUMPDEST SWAP2 SWAP1 POP JUMP JUMPDEST PUSH1 0x0 DUP1 PUSH1 0x40 DUP4 DUP6 SUB SLT ISZERO PUSH2 0x2907 JUMPI PUSH1 0x0 DUP1 REVERT JUMPDEST PUSH2 0x2910 DUP4 PUSH2 0x28D8 JUMP JUMPDEST SWAP5 PUSH1 0x20 SWAP4 SWAP1 SWAP4 ADD CALLDATALOAD SWAP4 POP POP POP JUMP JUMPDEST PUSH1 0x0 DUP1 PUSH1 0x40 DUP4 DUP6 SUB SLT ISZERO PUSH2 0x2931 JUMPI PUSH1 0x0 DUP1 REVERT JUMPDEST POP POP DUP1 CALLDATALOAD SWAP3 PUSH1 0x20 SWAP1 SWAP2 ADD CALLDATALOAD SWAP2 POP JUMP JUMPDEST PUSH4 0x4E487B71 PUSH1 0xE0 SHL PUSH1 0x0 MSTORE PUSH1 0x41 PUSH1 0x4 MSTORE PUSH1 0x24 PUSH1 0x0 REVERT JUMPDEST PUSH1 0x40 MLOAD PUSH1 0x1F DUP3 ADD PUSH1 0x1F NOT AND DUP2 ADD PUSH8 0xFFFFFFFFFFFFFFFF DUP2 GT DUP3 DUP3 LT OR ISZERO PUSH2 0x297F JUMPI PUSH2 0x297F PUSH2 0x2940 JUMP JUMPDEST PUSH1 0x40 MSTORE SWAP2 SWAP1 POP JUMP JUMPDEST PUSH1 0x0 DUP3 PUSH1 0x1F DUP4 ADD SLT PUSH2 0x2998 JUMPI PUSH1 0x0 DUP1 REVERT JUMPDEST DUP2 CALLDATALOAD PUSH1 0x20 PUSH8 0xFFFFFFFFFFFFFFFF DUP3 GT ISZERO PUSH2 0x29B4 JUMPI PUSH2 0x29B4 PUSH2 0x2940 JUMP JUMPDEST DUP2 PUSH1 0x5 SHL PUSH2 0x29C3 DUP3 DUP3 ADD PUSH2 0x2956 JUMP JUMPDEST SWAP3 DUP4 MSTORE DUP5 DUP2 ADD DUP3 ADD SWAP3 DUP3 DUP2 ADD SWAP1 DUP8 DUP6 GT ISZERO PUSH2 0x29DD JUMPI PUSH1 0x0 DUP1 REVERT JUMPDEST DUP4 DUP8 ADD SWAP3 POP JUMPDEST DUP5 DUP4 LT ISZERO PUSH2 0x2A03 JUMPI PUSH2 0x29F4 DUP4 PUSH2 0x28D8 JUMP JUMPDEST DUP3 MSTORE SWAP2 DUP4 ADD SWAP2 SWAP1 DUP4 ADD SWAP1 PUSH2 0x29E3 JUMP JUMPDEST SWAP8 SWAP7 POP POP POP POP POP POP POP JUMP JUMPDEST PUSH1 0x0 DUP1 PUSH1 0x0 DUP1 PUSH1 0x80 DUP6 DUP8 SUB SLT ISZERO PUSH2 0x2A24 JUMPI PUSH1 0x0 DUP1 REVERT JUMPDEST DUP5 CALLDATALOAD SWAP4 POP PUSH1 0x20 DUP6 ADD CALLDATALOAD SWAP3 POP PUSH1 0x40 DUP6 ADD CALLDATALOAD PUSH8 0xFFFFFFFFFFFFFFFF DUP2 GT ISZERO PUSH2 0x2A49 JUMPI PUSH1 0x0 DUP1 REVERT JUMPDEST PUSH2 0x2A55 DUP8 DUP3 DUP9 ADD PUSH2 0x2987 JUMP JUMPDEST SWAP3 POP POP PUSH2 0x2A64 PUSH1 0x60 DUP7 ADD PUSH2 0x28D8 JUMP JUMPDEST SWAP1 POP SWAP3 SWAP6 SWAP2 SWAP5 POP SWAP3 POP JUMP JUMPDEST PUSH1 0x0 DUP1 PUSH1 0x0 PUSH1 0x60 DUP5 DUP7 SUB SLT ISZERO PUSH2 0x2A84 JUMPI PUSH1 0x0 DUP1 REVERT JUMPDEST PUSH2 0x2A8D DUP5 PUSH2 0x28D8 JUMP JUMPDEST SWAP3 POP PUSH2 0x2A9B PUSH1 0x20 DUP6 ADD PUSH2 0x28D8 JUMP JUMPDEST SWAP2 POP PUSH1 0x40 DUP5 ADD CALLDATALOAD SWAP1 POP SWAP3 POP SWAP3 POP SWAP3 JUMP JUMPDEST PUSH1 0x0 DUP1 PUSH1 0x0 PUSH1 0x60 DUP5 DUP7 SUB SLT ISZERO PUSH2 0x2AC0 JUMPI PUSH1 0x0 DUP1 REVERT JUMPDEST PUSH2 0x2AC9 DUP5 PUSH2 0x28D8 JUMP JUMPDEST SWAP3 POP PUSH2 0x2AD7 PUSH1 0x20 DUP6 ADD PUSH2 0x28D8 JUMP JUMPDEST SWAP2 POP PUSH2 0x2AE5 PUSH1 0x40 DUP6 ADD PUSH2 0x28D8 JUMP JUMPDEST SWAP1 POP SWAP3 POP SWAP3 POP SWAP3 JUMP JUMPDEST PUSH1 0x0 PUSH1 0x20 DUP3 DUP5 SUB SLT ISZERO PUSH2 0x2B00 JUMPI PUSH1 0x0 DUP1 REVERT JUMPDEST PUSH2 0x22CE DUP3 PUSH2 0x28D8 JUMP JUMPDEST PUSH1 0x0 DUP1 PUSH1 0x0 DUP1 PUSH1 0x80 DUP6 DUP8 SUB SLT ISZERO PUSH2 0x2B1F JUMPI PUSH1 0x0 DUP1 REVERT JUMPDEST POP POP DUP3 CALLDATALOAD SWAP5 PUSH1 0x20 DUP5 ADD CALLDATALOAD SWAP5 POP PUSH1 0x40 DUP5 ADD CALLDATALOAD SWAP4 PUSH1 0x60 ADD CALLDATALOAD SWAP3 POP SWAP1 POP JUMP JUMPDEST PUSH1 0x0 DUP1 PUSH1 0x0 DUP1 PUSH1 0x80 DUP6 DUP8 SUB SLT ISZERO PUSH2 0x2B51 JUMPI PUSH1 0x0 DUP1 REVERT JUMPDEST PUSH2 0x2B5A DUP6 PUSH2 0x28D8 JUMP JUMPDEST SWAP4 POP PUSH1 0x20 DUP1 DUP7 ADD CALLDATALOAD SWAP4 POP PUSH2 0x2B70 PUSH1 0x40 DUP8 ADD PUSH2 0x28D8 JUMP JUMPDEST SWAP3 POP PUSH1 0x60 DUP7 ADD CALLDATALOAD PUSH8 0xFFFFFFFFFFFFFFFF DUP1 DUP3 GT ISZERO PUSH2 0x2B8D JUMPI PUSH1 0x0 DUP1 REVERT JUMPDEST DUP2 DUP9 ADD SWAP2 POP DUP9 PUSH1 0x1F DUP4 ADD SLT PUSH2 0x2BA1 JUMPI PUSH1 0x0 DUP1 REVERT JUMPDEST DUP2 CALLDATALOAD DUP2 DUP2 GT ISZERO PUSH2 0x2BB3 JUMPI PUSH2 0x2BB3 PUSH2 0x2940 JUMP JUMPDEST PUSH2 0x2BC5 PUSH1 0x1F DUP3 ADD PUSH1 0x1F NOT AND DUP6 ADD PUSH2 0x2956 JUMP JUMPDEST SWAP2 POP DUP1 DUP3 MSTORE DUP10 DUP5 DUP3 DUP6 ADD ADD GT ISZERO PUSH2 0x2BDB JUMPI PUSH1 0x0 DUP1 REVERT JUMPDEST DUP1 DUP5 DUP5 ADD DUP6 DUP5 ADD CALLDATACOPY PUSH1 0x0 DUP5 DUP3 DUP5 ADD ADD MSTORE POP DUP1 SWAP4 POP POP POP POP SWAP3 SWAP6 SWAP2 SWAP5 POP SWAP3 POP JUMP JUMPDEST PUSH1 0x0 DUP1 PUSH1 0x0 PUSH1 0x60 DUP5 DUP7 SUB SLT ISZERO PUSH2 0x2C10 JUMPI PUSH1 0x0 DUP1 REVERT JUMPDEST POP POP DUP2 CALLDATALOAD SWAP4 PUSH1 0x20 DUP4 ADD CALLDATALOAD SWAP4 POP PUSH1 0x40 SWAP1 SWAP3 ADD CALLDATALOAD SWAP2 SWAP1 POP JUMP JUMPDEST PUSH1 0x0 DUP1 PUSH1 0x0 DUP1 PUSH1 0x80 DUP6 DUP8 SUB SLT ISZERO PUSH2 0x2C3D JUMPI PUSH1 0x0 DUP1 REVERT JUMPDEST DUP5 CALLDATALOAD SWAP4 POP PUSH1 0x20 DUP6 ADD CALLDATALOAD SWAP3 POP PUSH1 0x40 DUP6 ADD CALLDATALOAD PUSH8 0xFFFFFFFFFFFFFFFF DUP1 DUP3 GT ISZERO PUSH2 0x2C63 JUMPI PUSH1 0x0 DUP1 REVERT JUMPDEST PUSH2 0x2C6F DUP9 DUP4 DUP10 ADD PUSH2 0x2987 JUMP JUMPDEST SWAP4 POP PUSH1 0x60 DUP8 ADD CALLDATALOAD SWAP2 POP DUP1 DUP3 GT ISZERO PUSH2 0x2C85 JUMPI PUSH1 0x0 DUP1 REVERT JUMPDEST POP PUSH2 0x2C92 DUP8 DUP3 DUP9 ADD PUSH2 0x2987 JUMP JUMPDEST SWAP2 POP POP SWAP3 SWAP6 SWAP2 SWAP5 POP SWAP3 POP JUMP JUMPDEST PUSH1 0x0 DUP1 PUSH1 0x40 DUP4 DUP6 SUB SLT ISZERO PUSH2 0x2CB1 JUMPI PUSH1 0x0 DUP1 REVERT JUMPDEST PUSH2 0x2CBA DUP4 PUSH2 0x28D8 JUMP JUMPDEST SWAP2 POP PUSH2 0x2CC8 PUSH1 0x20 DUP5 ADD PUSH2 0x28D8 JUMP JUMPDEST SWAP1 POP SWAP3 POP SWAP3 SWAP1 POP JUMP JUMPDEST PUSH1 0x0 DUP1 PUSH1 0x0 PUSH1 0x60 DUP5 DUP7 SUB SLT ISZERO PUSH2 0x2CE6 JUMPI PUSH1 0x0 DUP1 REVERT JUMPDEST DUP4 CALLDATALOAD SWAP3 POP PUSH1 0x20 DUP5 ADD CALLDATALOAD SWAP2 POP PUSH2 0x2AE5 PUSH1 0x40 DUP6 ADD PUSH2 0x28D8 JUMP JUMPDEST DUP1 ISZERO ISZERO DUP2 EQ PUSH2 0x2D0B JUMPI PUSH1 0x0 DUP1 REVERT JUMPDEST POP JUMP JUMPDEST PUSH1 0x0 DUP1 PUSH1 0x0 PUSH1 0x60 DUP5 DUP7 SUB SLT ISZERO PUSH2 0x2D23 JUMPI PUSH1 0x0 DUP1 REVERT JUMPDEST DUP4 CALLDATALOAD PUSH2 0x2D2E DUP2 PUSH2 0x2CFD JUMP JUMPDEST SWAP3 POP PUSH1 0x20 DUP5 ADD CALLDATALOAD PUSH2 0x2AD7 DUP2 PUSH2 0x2CFD JUMP JUMPDEST PUSH1 0x1 DUP2 DUP2 SHR SWAP1 DUP3 AND DUP1 PUSH2 0x2D52 JUMPI PUSH1 0x7F DUP3 AND SWAP2 POP JUMPDEST PUSH1 0x20 DUP3 LT DUP2 EQ ISZERO PUSH2 0x2D73 JUMPI PUSH4 0x4E487B71 PUSH1 0xE0 SHL PUSH1 0x0 MSTORE PUSH1 0x22 PUSH1 0x4 MSTORE PUSH1 0x24 PUSH1 0x0 REVERT JUMPDEST POP SWAP2 SWAP1 POP JUMP JUMPDEST PUSH4 0x4E487B71 PUSH1 0xE0 SHL PUSH1 0x0 MSTORE PUSH1 0x11 PUSH1 0x4 MSTORE PUSH1 0x24 PUSH1 0x0 REVERT JUMPDEST PUSH1 0x0 DUP3 NOT DUP3 GT ISZERO PUSH2 0x2DA2 JUMPI PUSH2 0x2DA2 PUSH2 0x2D79 JUMP JUMPDEST POP ADD SWAP1 JUMP JUMPDEST PUSH4 0x4E487B71 PUSH1 0xE0 SHL PUSH1 0x0 MSTORE PUSH1 0x32 PUSH1 0x4 MSTORE PUSH1 0x24 PUSH1 0x0 REVERT JUMPDEST PUSH1 0x0 PUSH1 0x0 NOT DUP3 EQ ISZERO PUSH2 0x2DD1 JUMPI PUSH2 0x2DD1 PUSH2 0x2D79 JUMP JUMPDEST POP PUSH1 0x1 ADD SWAP1 JUMP JUMPDEST PUSH1 0x1 DUP2 DUP2 JUMPDEST DUP1 DUP6 GT ISZERO PUSH2 0x2E13 JUMPI DUP2 PUSH1 0x0 NOT DIV DUP3 GT ISZERO PUSH2 0x2DF9 JUMPI PUSH2 0x2DF9 PUSH2 0x2D79 JUMP JUMPDEST DUP1 DUP6 AND ISZERO PUSH2 0x2E06 JUMPI SWAP2 DUP2 MUL SWAP2 JUMPDEST SWAP4 DUP5 SHR SWAP4 SWAP1 DUP1 MUL SWAP1 PUSH2 0x2DDD JUMP JUMPDEST POP SWAP3 POP SWAP3 SWAP1 POP JUMP JUMPDEST PUSH1 0x0 DUP3 PUSH2 0x2E2A JUMPI POP PUSH1 0x1 PUSH2 0x8E3 JUMP JUMPDEST DUP2 PUSH2 0x2E37 JUMPI POP PUSH1 0x0 PUSH2 0x8E3 JUMP JUMPDEST DUP2 PUSH1 0x1 DUP2 EQ PUSH2 0x2E4D JUMPI PUSH1 0x2 DUP2 EQ PUSH2 0x2E57 JUMPI PUSH2 0x2E73 JUMP JUMPDEST PUSH1 0x1 SWAP2 POP POP PUSH2 0x8E3 JUMP JUMPDEST PUSH1 0xFF DUP5 GT ISZERO PUSH2 0x2E68 JUMPI PUSH2 0x2E68 PUSH2 0x2D79 JUMP JUMPDEST POP POP PUSH1 0x1 DUP3 SHL PUSH2 0x8E3 JUMP JUMPDEST POP PUSH1 0x20 DUP4 LT PUSH2 0x133 DUP4 LT AND PUSH1 0x4E DUP5 LT PUSH1 0xB DUP5 LT AND OR ISZERO PUSH2 0x2E96 JUMPI POP DUP2 DUP2 EXP PUSH2 0x8E3 JUMP JUMPDEST PUSH2 0x2EA0 DUP4 DUP4 PUSH2 0x2DD8 JUMP JUMPDEST DUP1 PUSH1 0x0 NOT DIV DUP3 GT ISZERO PUSH2 0x2EB4 JUMPI PUSH2 0x2EB4 PUSH2 0x2D79 JUMP JUMPDEST MUL SWAP4 SWAP3 POP POP POP JUMP JUMPDEST PUSH1 0x0 PUSH2 0x22CE DUP4 DUP4 PUSH2 0x2E1B JUMP JUMPDEST PUSH1 0x0 DUP2 PUSH1 0x0 NOT DIV DUP4 GT DUP3 ISZERO ISZERO AND ISZERO PUSH2 0x2EE2 JUMPI PUSH2 0x2EE2 PUSH2 0x2D79 JUMP JUMPDEST POP MUL SWAP1 JUMP JUMPDEST PUSH4 0x4E487B71 PUSH1 0xE0 SHL PUSH1 0x0 MSTORE PUSH1 0x1 PUSH1 0x4 MSTORE PUSH1 0x24 PUSH1 0x0 REVERT JUMPDEST PUSH4 0x4E487B71 PUSH1 0xE0 SHL PUSH1 0x0 MSTORE PUSH1 0x12 PUSH1 0x4 MSTORE PUSH1 0x24 PUSH1 0x0 REVERT JUMPDEST PUSH1 0x0 DUP3 PUSH2 0x2F22 JUMPI PUSH2 0x2F22 PUSH2 0x2EFD JUMP JUMPDEST POP DIV SWAP1 JUMP JUMPDEST SWAP3 DUP4 MSTORE PUSH1 0x60 SWAP2 SWAP1 SWAP2 SHL PUSH12 0xFFFFFFFFFFFFFFFFFFFFFFFF NOT AND PUSH1 0x20 DUP4 ADD MSTORE PUSH1 0x34 DUP3 ADD MSTORE PUSH1 0x54 ADD SWAP1 JUMP JUMPDEST PUSH1 0x0 PUSH1 0x20 DUP3 DUP5 SUB SLT ISZERO PUSH2 0x2F61 JUMPI PUSH1 0x0 DUP1 REVERT JUMPDEST DUP2 MLOAD PUSH2 0x22CE DUP2 PUSH2 0x2CFD JUMP JUMPDEST PUSH1 0x0 DUP3 PUSH2 0x2F7B JUMPI PUSH2 0x2F7B PUSH2 0x2EFD JUMP JUMPDEST POP MOD SWAP1 JUMP JUMPDEST PUSH1 0x0 PUSH1 0x20 DUP3 DUP5 SUB SLT ISZERO PUSH2 0x2F92 JUMPI PUSH1 0x0 DUP1 REVERT JUMPDEST POP MLOAD SWAP2 SWAP1 POP JUMP JUMPDEST PUSH1 0x0 DUP3 DUP3 LT ISZERO PUSH2 0x2FAB JUMPI PUSH2 0x2FAB PUSH2 0x2D79 JUMP JUMPDEST POP SUB SWAP1 JUMP JUMPDEST PUSH1 0x0 PUSH2 0x22CE PUSH1 0xFF DUP5 AND DUP4 PUSH2 0x2E1B JUMP JUMPDEST PUSH1 0x20 DUP1 DUP3 MSTORE PUSH1 0x2E SWAP1 DUP3 ADD MSTORE PUSH32 0x4F6C64206368616C6C656E67655F646967657374206F722077726F6E67206368 PUSH1 0x40 DUP3 ADD MSTORE PUSH14 0x185B1B195B99D957D91A59D95CDD PUSH1 0x92 SHL PUSH1 0x60 DUP3 ADD MSTORE PUSH1 0x80 ADD SWAP1 JUMP JUMPDEST PUSH1 0x20 DUP1 DUP3 MSTORE PUSH1 0x28 SWAP1 DUP3 ADD MSTORE PUSH32 0x446967657374206D75737420626520736D616C6C6572207468616E206D696E69 PUSH1 0x40 DUP3 ADD MSTORE PUSH8 0x1B99D5185C99D95D PUSH1 0xC2 SHL PUSH1 0x60 DUP3 ADD MSTORE PUSH1 0x80 ADD SWAP1 JUMP INVALID LOG2 PUSH5 0x6970667358 0x22 SLT KECCAK256 PUSH1 0x3A DUP5 0x5C PUSH10 0x8E00535CC52BCF649275 DUP5 DUP13 ADDRESS 0xD5 0xC2 0xAD CALLVALUE DUP15 PUSH7 0x1CA5F540D33773 DUP1 PUSH5 0x736F6C6343 STOP ADDMOD SIGNEXTEND STOP CALLER ",
  "sha1": "00870108fed08631c277350da13cd5f0f1db5c7a",
  "source": "/**\n *Submitted for verification at polygonscan.com on 2022-02-12\n*/\n\n// Forge - Contract\n//\n// Distrubtion of Forge Token is as follows:\n// 25% of Forge Token is Auctioned in the ForgeAuctions Contract which distributes tokens to users who use 0xBitcoin to buy tokens in fair price. Each auction lasts ~3 days. Using the Auctions contract\n// +\n// 25% of Forge Token is distributed as Liquidiy Pool rewards in the ForgeRewards Contract which distributes tokens to users who deposit the SpiritSwap Liquidity Pool tokens into the LPRewards contract.\n// +\n// 50% of Forge Token is distributed using Forge Contract(this Contract) which distributes tokens to users by using Proof of work. Computers solve a complicated problem to gain tokens!\n//\n// = 100% Of the Token is distributed to the users! No dev fee or premine!\n//\n// All distributions happen fairly using Bitcoins model of distribution using reward halvings and difficulty adjustments.  Distribution happens over 100 years!  \n// 100%  on-chain, decentralized, trustless, ownerless contracts*!\n//   The harder it is mined the less tokens that are awarded.\n// Network: Polygon Chain \n// ChainID = 89\n//\n//\n// Name: Forge\n// Symbol: Fge\n// Decimals: 18 \n//\n// Total supply: 42,000,001.000000000000000000\n//   =\n// 21,000,000 Mined over 100+ years using Bitcoins Distrubtion halvings every 4 years. Uses Proof-oF-Work to distribute the tokens. Public Miner is available.  Uses this contract.\n//   +\n// 10,500,000 Auctioned over 100+ years into 4 day auctions split fairly among all buyers. ALL 0xBitcoin proceeds go into THIS contract which it fairly distributes to miners.  Uses the ForgeAuctions contract\n//   +\n// 10,500,000 tokens goes to Liquidity Providers of the token over 100+ year using Bitcoins distribution!  Helps prevent LP losses!  Uses the ForgeRewards Contract\n//\n//  =\n//\n// 42,000,001 Tokens is the max Supply\n//      \n// 66% of the 0xBitcoin Token from this contract goes to the Miner to pay for the transaction cost and if the token grows enough earn 0xBitcoin per mint!!\n// 33% of the 0xBitcoin TOken from this contract goes to the Liquidity Providers via ForgeRewards Contract.  Helps prevent Impermant Loss! Larger Liquidity!\n//\n// No premine, dev cut, or advantage taken at launch. Public miner available at launch.  100% of the token is given away fairly over 100+ years using Bitcoins model!\n//\n// Send this contract any ERC20 token and it will become instantly mineable and able to distribute using proof-of-work for 1 year!!!!\n//\n//Viva la Mineables!!! Send this contract any ERC20 complient token (Wrapped NFTs incoming!) and we will fairly to miners and Holders(\n//  Each Mint prints (1/10000) of any ERC20.\n//pThirdDifficulty allows for the difficulty to be cut in a third.  So difficulty 10,000 becomes 3,333.  Costs 333 Fantom  Makes mining 3x easier\n//* 1 tokens in LP are burned to create the LP pool.\n//\n// Credits: 0xBitcoin, Vether, Synethix\n//* Except for Staking Rewards additional cryptocurrencies\n\n\npragma solidity ^0.8.11;\n\ncontract Ownable {\n    address public owner;\n\n    event TransferOwnership(address _from, address _to);\n\n    constructor() public {\n        owner = msg.sender;\n        emit TransferOwnership(address(0), msg.sender);\n    }\n\n    modifier onlyOwner() {\n        require(msg.sender == owner, \"only owner\");\n        _;\n    }\n\n    function setOwner(address _owner) internal onlyOwner {\n        emit TransferOwnership(owner, _owner);\n        owner = _owner;\n    }\n}\n\n\n\n\nlibrary IsContract {\n    function isContract(address _addr) internal view returns (bool) {\n        bytes32 codehash;\n        /* solium-disable-next-line */\n        assembly { codehash := extcodehash(_addr) }\n        return codehash != bytes32(0) && codehash != bytes32(0xc5d2460186f7233c927e7db2dcc703c0e500b653ca82273b7bfad8045d85a470);\n    }\n}\n\n// File: contracts/utils/SafeMath.sol\n\nlibrary SafeMath2 {\n    function add(uint256 x, uint256 y) internal pure returns (uint256) {\n        uint256 z = x + y;\n        require(z >= x, \"Add overflow\");\n        return z;\n    }\n\n    function sub(uint256 x, uint256 y) internal pure returns (uint256) {\n        require(x >= y, \"Sub underflow\");\n        return x - y;\n    }\n\n    function mult(uint256 x, uint256 y) internal pure returns (uint256) {\n        if (x == 0) {\n            return 0;\n        }\n\n        uint256 z = x * y;\n        require(z / x == y, \"Mult overflow\");\n        return z;\n    }\n\n    function div(uint256 x, uint256 y) internal pure returns (uint256) {\n        require(y != 0, \"Div by zero\");\n        return x / y;\n    }\n\n    function divRound(uint256 x, uint256 y) internal pure returns (uint256) {\n        require(y != 0, \"Div by zero\");\n        uint256 r = x / y;\n        if (x % y != 0) {\n            r = r + 1;\n        }\n\n        return r;\n    }\n}\n\n// File: contracts/utils/Math.sol\n\nlibrary ExtendedMath2 {\n\n\n    //return the smaller of the two inputs (a or b)\n    function limitLessThan(uint a, uint b) internal pure returns (uint c) {\n\n        if(a > b) return b;\n\n        return a;\n\n    }\n}\n\n// File: contracts/interfaces/IERC20.sol\n\ninterface IERC20 {\n\tfunction totalSupply() external view returns (uint256);\n    event Transfer(address indexed _from, address indexed _to, uint256 _value);\n    event Approval(address indexed _owner, address indexed _spender, uint256 _value);\n    function transfer(address _to, uint _value) external returns (bool success);\n    function transferFrom(address _from, address _to, uint256 _value) external returns (bool success);\n    function allowance(address _owner, address _spender) external view returns (uint256 remaining);\n    function approve(address _spender, uint256 _value) external returns (bool success);\n    function balanceOf(address _owner) external view returns (uint256 balance);\n    \n}\n\n\n// File: contracts/commons/AddressMinHeap.sol\n\n\n\nabstract contract ApproveAndCallFallBack {\n    function receiveApproval(address from, uint256 tokens, address token, bytes memory data) virtual public;\n}\n\n\n//Main contract\n\ncontract ForgeTest is Ownable, IERC20, ApproveAndCallFallBack {\n\tuint constant public targetTime = 60 * 48;\n    uint public multipler = 0;\n// SUPPORTING CONTRACTS\n    address public AddressAuction;\n    address public AddressLPReward;\n    address public AddressZeroXBTC;\n//Events\n    using SafeMath2 for uint256;\n    using ExtendedMath2 for uint;\n    event Mint(address indexed from, uint reward_amount, uint epochCount, bytes32 newChallengeNumber);\n    event MegaMint(address indexed from, uint epochCount, bytes32 newChallengeNumber, uint NumberOfTokensMinted, uint256 TokenMultipler);\n\n// Managment events\n    uint256 override public totalSupply = 42000001000000000000000000;\n    bytes32 private constant BALANCE_KEY = keccak256(\"balance\");\n\n    //BITCOIN INITALIZE Start\n\t\n    uint _totalSupply = 21000000000000000000000000;\n    uint public latestDifficultyPeriodStarted2 = block.timestamp;\n    uint public epochCount = 0;//number of 'blocks' mined\n\n    uint public _BLOCKS_PER_READJUSTMENT = 256;\n\n    //a little number\n    uint public  _MINIMUM_TARGET = 2**16;\n    \n    uint public  _MAXIMUM_TARGET = 2**234;\n    uint public miningTarget = _MAXIMUM_TARGET.div(200000000000*25);  //1000 million difficulty to start until i enable mining\n    \n    bytes32 public challengeNumber = blockhash(block.number - 1);   //generate a new one when a new reward is minted\n    uint public rewardEra = 0;\n    uint public maxSupplyForEra = (_totalSupply - _totalSupply.div( 2**(rewardEra + 1)));\n    uint public reward_amount = 0;\n    \n    //Stuff for Functions\n    uint oldecount = 0;\n    uint public previousBlockTime  =  block.timestamp;\n    uint oneEthUnit =    1000000000000000000;\n    uint one8unit   =              100000000;\n    uint public Token2Per=           1000000;\n    uint Token2Min=                       88;\n    uint public tokensMinted;\n    mapping(address => uint) balances;\n    mapping(address => mapping(address => uint)) allowed;\n    uint give0xBTC = 0;\n    uint give = 1;\n    // metadata\n    string public name = \"Forge\";\n    string public constant symbol = \"Fge\";\n    uint8 public constant decimals = 18;\n\n    uint256 lastrun = block.timestamp;\n    uint public latestDifficultyPeriodStarted = block.number;\n    bool initeds = false;\n    \n    // mint 1 token to setup LPs\n\t    constructor() public {\n    balances[msg.sender] = 1000000000000000000;\n    emit Transfer(address(0), msg.sender, 1000000000000000000);\n\t}\n\n    function zinit(address AuctionAddress2, address LPGuild2, address _ZeroXBTCAddress) public onlyOwner{\n        uint x = 21000000000000000000000000; \n        // Only init once\n        assert(!initeds);\n        initeds = true;\n\t    previousBlockTime = block.timestamp;\n\t    reward_amount = (100 * 10**uint(decimals) ).div( 2**rewardEra );\n    \trewardEra = 0;\n\t    tokensMinted = 0;\n\t    epochCount = 0;\n    \tminingTarget = _MAXIMUM_TARGET.div(1); //5000000 = 31gh/s @ 7 min for FPGA mining\n        latestDifficultyPeriodStarted2 = block.timestamp;\n    \t_startNewMiningEpoch();\n        // Init contract variables and mint\n        balances[AuctionAddress2] = x/2;\n\t\n        emit Transfer(address(0), AuctionAddress2, x/2);\n\t\n    \tAddressAuction = AuctionAddress2;\n        AddressLPReward = payable(LPGuild2);\n        AddressZeroXBTC = _ZeroXBTCAddress;\n\t\n        oldecount = epochCount;\n\t\n\t\tsetOwner(address(0));\n     \n    }\n\n\n\tfunction mintFREE(bool nonce, bool challenge_digest,  address mintTo) public returns (uint256 owed) {\n\n\t\t_startNewMiningEpoch();\n\n\t\t//uint diff = block.timestamp - previousBlockTime;\n\t\tuint256 x = ((block.timestamp - previousBlockTime) * 888) / targetTime;\n\t\tuint ratio = x * 100 / 888;\n\t\tuint totalOwed = 0;\n\t\tif(ratio < 314){\n\t\t\ttotalOwed = (61001200 * (x ** 2 )).div(888 ** 2)+ (40861500 * x).div(888);\n\t\t}else {\n\t\t\ttotalOwed = (x * 100000000).div(888) + (350000000);\n\t\t} \n\n\n\t\tbalances[mintTo] = balances[mintTo].add((reward_amount * totalOwed).div(100000000));\n\t\tbalances[AddressLPReward] = balances[AddressLPReward].add((reward_amount * totalOwed).div(100000000 * 2));\n\t\t\t\t\n\t\ttokensMinted = tokensMinted.add((reward_amount * totalOwed).div(100000000));\n\t\tpreviousBlockTime = block.timestamp;\n\n\t\tif(give0xBTC > 0){\n\t\t\tif(ratio < 200){\n\t\t\t\tIERC20(AddressZeroXBTC).transfer(mintTo, (totalOwed * Token2Per * give0xBTC).div(100000000));\n\t\t\t}else{\n\t\t\t\tIERC20(AddressZeroXBTC).transfer(mintTo, (34 * Token2Per * give0xBTC).div(10));\n\t\t\t}\n\t\t}\n\n\t\temit Mint(msg.sender, (reward_amount * totalOwed).div(100000000), epochCount, challengeNumber );\n\n\t\treturn totalOwed;\n\n\t}\n\n\n\t///\n\t// Managment\n\t///\n\t\n\tfunction ARewardSender() public {\n\t\t//runs every _BLOCKS_PER_READJUSTMENT / 4\n\n\t\tuint256 runs = block.timestamp - lastrun;\n\n\t\tuint256 epochsPast = epochCount - oldecount; //actually epoch\n\t\tuint256 runsperepoch = runs / epochsPast;\n\n\t\treward_amount = (100 * 10**uint(decimals)).div( 2**rewardEra );\n\t\tuint256 x = (runsperepoch * 888).divRound(targetTime);\n\t\tuint256 ratio = x * 100 / 888;\n\t\tuint256 totalOwed;\n\t\t\n\t\t if(ratio < 200){\n\t\t\ttotalOwed = (61001200 * (x ** 2 )).div(888**2) + (40861500 * x).div(888) ;\n\t\t }else {\n\t\t\ttotalOwed = (340000000);\n\t\t} \n\n\t\tif(IERC20(AddressZeroXBTC).balanceOf(address(this)) > (30 * 2 * (Token2Per * _BLOCKS_PER_READJUSTMENT)/4)){  // at least enough blocks to rerun this function for both LPRewards and Users\n\t\t\tIERC20(AddressZeroXBTC).transfer(AddressLPReward, ((epochsPast) * totalOwed * Token2Per * give0xBTC).div(2 * 100000000));\n\t\t\tgive0xBTC = 1 * give;\n\t\t}else{\n\t\t\tgive0xBTC = 0;\n\t\t}\n\t\toldecount = epochCount; //actually epoch\n\n\t\tlastrun = block.timestamp;\n\t}\n\n\n\t//comability function\n\tfunction mint(uint256 nonce, bytes32 challenge_digest) public returns (bool success) {\n\t\tmintTo(nonce, challenge_digest, msg.sender);\n\t}\n\n\n\tfunction mintTo(uint256 nonce, bytes32 challenge_digest,  address mintTo) public returns (uint256 owed) {\n\n\t\tbytes32 digest =  keccak256(abi.encodePacked(challengeNumber, msg.sender, nonce));\n\n\t\t//the challenge digest must match the expected\n\t\trequire(digest == challenge_digest, \"Old challenge_digest or wrong challenge_digest\");\n\n\t\t//the digest must be smaller than the target\n\t\trequire(uint256(digest) < miningTarget, \"Digest must be smaller than miningTarget\");\n\t\t_startNewMiningEpoch();\n\n\t\trequire(block.timestamp > previousBlockTime, \"No same second solves\");\n\n\t\t//uint diff = block.timestamp - previousBlockTime;\n\t\tuint256 x = ((block.timestamp - previousBlockTime) * 888) / targetTime;\n\t\tuint ratio = x * 100 / 888;\n\t\tuint totalOwed = 0;\n\t\tif(ratio < 314){\n\t\t\ttotalOwed = (61001200 * (x ** 2 )).div(888 ** 2)+ (40861500 * x).div(888);\n\t\t}else {\n\t\t\ttotalOwed = (x * 100000000).div(888) + (350000000);\n\t\t} \n\n\n\t\tbalances[mintTo] = balances[mintTo].add((reward_amount * totalOwed).div(100000000));\n\t\tbalances[AddressLPReward] = balances[AddressLPReward].add((reward_amount * totalOwed).div(100000000 * 2));\n\t\t\t\t\n\t\ttokensMinted = tokensMinted.add((reward_amount * totalOwed).div(100000000));\n\t\tpreviousBlockTime = block.timestamp;\n\n\t\tif(give0xBTC > 0){\n\t\t\tif(ratio < 200){\n\t\t\t\tIERC20(AddressZeroXBTC).transfer(mintTo, (totalOwed * Token2Per * give0xBTC).div(100000000));\n\t\t\t}else{\n\t\t\t\tIERC20(AddressZeroXBTC).transfer(mintTo, (34 * Token2Per * give0xBTC).div(10));\n\t\t\t}\n\t\t}\n\n\t\temit Mint(msg.sender, (reward_amount * totalOwed).div(100000000), epochCount, challengeNumber );\n\n\t\treturn totalOwed;\n\n\t}\n\n\n\tfunction mintTokensArrayTo(uint256 nonce, bytes32 challenge_digest, address[] memory ExtraFunds, address[] memory MintTo) public returns (uint256 owed) {\n\t\tuint256 totalOd = mintTo(nonce,challenge_digest, MintTo[0]);\n\t\trequire(totalOd > 0, \"mint issue\");\n\n\t\trequire(MintTo.length == ExtraFunds.length + 1,\"MintTo has to have an extra address compared to ExtraFunds\");\n\t\tuint xy=0;\n\t\tfor(xy = 0; xy< ExtraFunds.length; xy++)\n\t\t{\n\t\t\tif(epochCount % (2**(xy+1)) != 0){\n\t\t\t\tbreak;\n\t\t\t}\n\t\t\trequire(ExtraFunds[xy] != address(this) && ExtraFunds[xy] != AddressZeroXBTC, \"No base printing of tokens\");\n\t\t\tfor(uint y=xy+1; y< ExtraFunds.length; y++){\n\t\t\t\trequire(ExtraFunds[y] != ExtraFunds[xy], \"No printing The same tokens\");\n\t\t\t}\n\t\t}\n\t\t\n\t\tuint256 totalOwed = 0;\n\t\tuint256 TotalOwned = 0;\n\t\tfor(uint x=0; x<xy; x++)\n\t\t{\n\t\t\t//epoch count must evenly dividable by 2^n in order to get extra mints. \n\t\t\t//ex. epoch 2 = 1 extramint, epoch 4 = 2 extra, epoch 8 = 3 extra mints, epoch 16 = 4 extra mints w/ a divRound for the 4th mint(allows small balance token minting aka NFTs)\n\t\t\tif(epochCount % (2**(x+1)) == 0){\n\t\t\t\tTotalOwned = IERC20(ExtraFunds[x]).balanceOf(address(this));\n\t\t\t\tif(TotalOwned != 0){\n\t\t\t\t\tif( x % 3 == 0 && x != 0){\n\t\t\t\t\t\ttotalOwed = (TotalOwned * totalOd).divRound(100000000 * 2500);\n\t\t\t\t\t}else{\n\t\t\t\t\t\ttotalOwed = (TotalOwned * totalOd).div(100000000 * 2500 );\n\t\t\t\t\t}\n\t\t\t\t}\n\t\t\t    IERC20(ExtraFunds[x]).transfer(MintTo[x+1], totalOwed);\n\t\t\t}\n        }\n        \t\n\t\temit MegaMint(msg.sender, epochCount, challengeNumber, xy, totalOd );\n\n\t\treturn totalOd;\n\n    }\n\n\n\tfunction mintTokensSameAddress(uint256 nonce, bytes32 challenge_digest, address[] memory ExtraFunds, address MintTo) public returns (bool success) {\n\t\taddress[] memory dd = new address[](ExtraFunds.length + 1); \n\n\t\tfor(uint x=0; x< (ExtraFunds.length + 1); x++)\n\t\t{\n\t\t\tdd[x] = MintTo;\n\t\t}\n\t\t\n\t\tmintTokensArrayTo(nonce, challenge_digest, ExtraFunds, dd);\n\n\t\treturn true;\n\t}\n\n\n\tfunction empty_mintTo(uint256 nonce, bytes32 challenge_digest, address[] memory ExtraFunds, address[] memory MintTo) public returns (uint256 owed) {\n\t\tbytes32 digest =  keccak256(abi.encodePacked(challengeNumber, msg.sender, nonce));\n\n\t\t//the challenge digest must match the expected\n\t\trequire(digest == challenge_digest, \"Old challenge_digest or wrong challenge_digest\");\n\n\t\t//the digest must be smaller than the target\n\t\trequire(uint256(digest) < miningTarget, \"Digest must be smaller than miningTarget\");\n\t\t_startNewMiningEpoch();\n\n\t\trequire(block.timestamp > previousBlockTime, \"No same second solves\");\n\t\trequire(MintTo.length == ExtraFunds.length,\"MintTo has to have same number of addressses as ExtraFunds\");\n\t\tuint xy=0;\n\t\tfor(xy = 0; xy< ExtraFunds.length; xy++)\n\t\t{\n\t\t\tif(epochCount % (2**(xy+1)) != 0){\n\t\t\t\tbreak;\n\t\t\t}\n\t\t\trequire(ExtraFunds[xy] != address(this) && ExtraFunds[xy] != AddressZeroXBTC, \"No base printing of tokens\");\n\t\t\tfor(uint y=xy+1; y< ExtraFunds.length; y++){\n\t\t\t\trequire(ExtraFunds[y] != ExtraFunds[xy], \"No printing The same tokens\");\n\t\t\t}\n\t\t}\n\n\t\tuint256 x = ((block.timestamp - previousBlockTime) * 888) / targetTime;\n\t\tuint ratio = x * 100 / 888;\n\t\tuint totalIN = 0;\n\t\tif(ratio < 314){\n\t\t\ttotalIN = (61001200 * (x ** 2 )).div(888 ** 2)+ (40861500 * x).div(888);\n\t\t}else {\n\t\t\ttotalIN = (x * 100000000).div(888) + (350000000);\n\t\t} \n\t\trequire(totalIN > 0, \"mint issue\");\n\t\tuint256 totalOwed;\n\t\tuint256 TotalOwned;\n\t\tfor(uint x=0; x<xy; x++)\n\t\t{\n\t\t\t//epoch count must evenly dividable by 2^n in order to get extra mints. \n\t\t\t//ex. epoch 2 = 1 extramint, epoch 4 = 2 extra, epoch 8 = 3 extra mints, epoch 16 = 4 extra mints w/ a divRound for the 4th mint(allows small balance token minting aka NFTs)\n\t\t\tif(epochCount % (2**(x+1)) == 0){\n\t\t\t\tTotalOwned = IERC20(ExtraFunds[x]).balanceOf(address(this));\n\t\t\t\tif(TotalOwned != 0){\n\t\t\t\t\tif( x % 3 == 0 && x != 0){\n\t\t\t\t\t\ttotalOwed = (TotalOwned * totalIN).divRound(100000000 * 2500);\n\t\t\t\t\t}else{\n\t\t\t\t\t\ttotalOwed = (TotalOwned * totalIN).div(100000000 * 2500 );\n\t\t\t\t    }\n\t\t\t    IERC20(ExtraFunds[x]).transfer(MintTo[x], totalOwed);\n\t\t\t    }\n            }\n        }\n\n\t\tpreviousBlockTime = block.timestamp;\n\t\treturn totalIN;   \n\t}\n\n\n\n\tfunction _startNewMiningEpoch() internal {\n\n\n\t\t//if max supply for the era will be exceeded next reward round then enter the new era before that happens\n\t\t//59 is the final reward era, almost all tokens minted\n\t\tif( tokensMinted.add(reward_amount) > maxSupplyForEra && rewardEra < 60)\n\t\t{\n\t\t\trewardEra = rewardEra + 1;\n\t\t\tmaxSupplyForEra = _totalSupply - _totalSupply.div( 2**(rewardEra + 1));\n\t\t}\n\n\t\t//set the next minted supply at which the era will change\n\t\t// total supply of MINED tokens is 21000000000000000000000000  because of 16 decimal places\n\n\t\tepochCount = epochCount.add(1);\n\n\t\t//every so often, readjust difficulty. Dont readjust when deploying\n\t\tif((epochCount) % (_BLOCKS_PER_READJUSTMENT / 4) == 0)\n\t\t{\n\t\t\tARewardSender();\n\t\t\tmaxSupplyForEra = _totalSupply - _totalSupply.div( 2**(rewardEra + 1));\n\n\t\t\tif((epochCount % _BLOCKS_PER_READJUSTMENT== 0))\n\t\t\t{\n\t\t\t\tmultipler = (IERC20(AddressZeroXBTC).balanceOf(address(this)) / (2000 * 10 ** 8));\n\t\t\t\tif(( IERC20(AddressZeroXBTC).balanceOf(address(this)) / Token2Per) <= (10000 + 10000*(multipler))) //chosen to give keep 250 days payouts in reserve at current payout\n\t\t\t\t{\n\t\t\t\t\tif(Token2Per.div(2) > Token2Min)\n\t\t\t\t\t{\n\t\t\t\t\t\tToken2Per = Token2Per.div(2);\n\t\t\t\t\t}\n\t\t\t\t}else{\n\t\t\t\t\tToken2Per = Token2Per.mult(3);\n\t\t\t\t}\n\t\t\t\t_reAdjustDifficulty();\n\t\t\t}\n\t\t}\n\n\t\tchallengeNumber = blockhash(block.number - 1);\n\t}\n\n\n\tfunction _reAdjustDifficulty() internal {\n\t\tuint256 blktimestamp = block.timestamp;\n\t\tuint TimeSinceLastDifficultyPeriod2 = blktimestamp - latestDifficultyPeriodStarted2;\n\n\t\tuint adjusDiffTargetTime = targetTime *  _BLOCKS_PER_READJUSTMENT; //36 min per block 60 sec * 12\n\n\t\t//if there were less eth blocks passed in time than expected\n\t\tif( TimeSinceLastDifficultyPeriod2 < adjusDiffTargetTime )\n\t\t{\n\t\t\tuint excess_block_pct = (adjusDiffTargetTime.mult(100)).div( TimeSinceLastDifficultyPeriod2 );\n\t\t\tgive = 1;\n\t\t\tuint excess_block_pct_extra = excess_block_pct.sub(100).limitLessThan(1000);\n\t\t\t//make it harder \n\t\t\tminingTarget = miningTarget.sub(miningTarget.div(2000).mult(excess_block_pct_extra));   //by up to 50 %\n\t\t}else{\n\t\t\tuint shortage_block_pct = (TimeSinceLastDifficultyPeriod2.mult(100)).div( adjusDiffTargetTime );\n\t\t\tgive = 2;\n\t\t\tuint shortage_block_pct_extra = shortage_block_pct.sub(100).limitLessThan(1000); //always between 0 and 1000\n\t\t\t//make it easier\n\t\t\tminingTarget = miningTarget.add(miningTarget.div(500).mult(shortage_block_pct_extra));   //by up to 200 %\n\t\t}\n\n\t\tlatestDifficultyPeriodStarted2 = blktimestamp;\n\t\tlatestDifficultyPeriodStarted = block.number;\n\t\tif(miningTarget < _MINIMUM_TARGET) //very difficult\n\t\t{\n\t\t\tminingTarget = _MINIMUM_TARGET;\n\t\t}\n\t\tif(miningTarget > _MAXIMUM_TARGET) //very easy\n\t\t{\n\t\t\tminingTarget = _MAXIMUM_TARGET;\n\t\t}\n\t\t\n\t}\n\n\n\t\t//42 m coins total\n\t\t// = \n\t\t//21 million proof of work\n\t\t// + \n\t\t//10.5 million proof of burn\n\t\t// +\n\t\t//10.5 million rewards for Liquidity Providers\n\n\n\t//help debug mining software\n\tfunction checkMintSolution(uint256 nonce, bytes32 challenge_digest, bytes32 challenge_number, uint testTarget) public view returns (bool success) {\n\t\tbytes32 digest = bytes32(keccak256(abi.encodePacked(challenge_number,msg.sender,nonce)));\n\t\tif(uint256(digest) > testTarget) revert();\n\n\t\treturn (digest == challenge_digest);\n\t}\n\n\n\t//this is a recent ethereum block hash, used to prevent pre-mining future blocks\n\tfunction getChallengeNumber() public view returns (bytes32) {\n\n\t\treturn challengeNumber;\n\n\t}\n\n\n\t//the number of zeroes the digest of the PoW solution requires.  Auto adjusts\n\tfunction getMiningDifficulty() public view returns (uint) {\n\n\t\treturn _MAXIMUM_TARGET.div(miningTarget);\n\t}\n\n\n\tfunction getMiningTarget() public view returns (uint) {\n\n\t\treturn miningTarget;\n\n\t}\n\n\n\tfunction getMiningMinted() public view returns (uint) {\n\n\t\treturn tokensMinted;\n\n\t}\n\n\n\t//21m coins total\n\t//reward begins at 150 and is cut in half every reward era (as tokens are mined)\n\tfunction getMiningReward() public view returns (uint) {\n\t\t//once we get half way thru the coins, only get 25 per block\n\t\t//every reward era, the reward amount halves.\n\n\t\treturn (100 * 10**uint(decimals) ).div( 2**rewardEra ) ;\n\n\t\t}\n\n\n\tfunction getEpoch() public view returns (uint) {\n\n\t\treturn epochCount ;\n\n\t}\n\n\n\t//help debug mining software\n\tfunction getMintDigest(uint256 nonce, bytes32 challenge_digest, bytes32 challenge_number) public view returns (bytes32 digesttest) {\n\n\t\tbytes32 digest =  keccak256(abi.encodePacked(challengeNumber, msg.sender, nonce));\n\n\t\treturn digest;\n\n\t}\n\n\n\t\t// ------------------------------------------------------------------------\n\n\t\t// Get the token balance for account `tokenOwner`\n\n\t\t// ------------------------------------------------------------------------\n\n\tfunction balanceOf(address tokenOwner) public override view returns (uint balance) {\n\n\t\treturn balances[tokenOwner];\n\n\t}\n\n\n\t\t// ------------------------------------------------------------------------\n\n\t\t// Transfer the balance from token owner's account to `to` account\n\n\t\t// - Owner's account must have sufficient balance to transfer\n\n\t\t// - 0 value transfers are allowed\n\n\t\t// ------------------------------------------------------------------------\n\n\n\tfunction transfer(address to, uint tokens) public override returns (bool success) {\n\n\t\tbalances[msg.sender] = balances[msg.sender].sub(tokens);\n\t\tbalances[to] = balances[to].add(tokens);\n\n\t\temit Transfer(msg.sender, to, tokens);\n\n\t\treturn true;\n\n\t}\n\n\n\t\t// ------------------------------------------------------------------------\n\n\t\t// Token owner can approve for `spender` to transferFrom(...) `tokens`\n\n\t\t// from the token owner's account\n\n\t\t//\n\n\t\t// https://github.com/ethereum/EIPs/blob/master/EIPS/eip-20-token-standard.md\n\n\t\t// recommends that there are no checks for the approval double-spend attack\n\n\t\t// as this should be implemented in user interfaces\n\n\t\t// ------------------------------------------------------------------------\n\n\n\tfunction approve(address spender, uint tokens) public override returns (bool success) {\n\n\t\tallowed[msg.sender][spender] = tokens;\n\n\t\temit Approval(msg.sender, spender, tokens);\n\n\t\treturn true;\n\n\t}\n\n\n\t\t// ------------------------------------------------------------------------\n\n\t\t// Transfer `tokens` from the `from` account to the `to` account\n\n\t\t//\n\n\t\t// The calling account must already have sufficient tokens approve(...)-d\n\n\t\t// for spending from the `from` account and\n\n\t\t// - From account must have sufficient balance to transfer\n\n\t\t// - Spender must have sufficient allowance to transfer\n\n\t\t// - 0 value transfers are allowed\n\n\t\t// ------------------------------------------------------------------------\n\n\n\tfunction transferFrom(address from, address to, uint tokens) public override returns (bool success) {\n\n\t\tbalances[from] = balances[from].sub(tokens);\n\t\tallowed[from][msg.sender] = allowed[from][msg.sender].sub(tokens);\n\t\tbalances[to] = balances[to].add(tokens);\n\n\t\temit Transfer(from, to, tokens);\n\n\t\treturn true;\n\n\t}\n\n\n\t\t// ------------------------------------------------------------------------\n\n\t\t// Returns the amount of tokens approved by the owner that can be\n\n\t\t// transferred to the spender's account\n\n\t\t// ------------------------------------------------------------------------\n\n\n\tfunction allowance(address tokenOwner, address spender) public override view returns (uint remaining) {\n\n\t\treturn allowed[tokenOwner][spender];\n\n\t}\n\n\n\t\t// ------------------------------------------------------------------------\n\n\t\t// Token owner can approve for `spender` to transferFrom(...) `tokens`\n\n\t\t// from the token owner's account. The `spender` contract function\n\n\t\t// `receiveApproval(...)` is then executed\n\n\t\t// ------------------------------------------------------------------------\n\n\n\tfunction receiveApproval(address from, uint256 tokens, address token, bytes memory data) public override{\n\n\t\trequire(token == address(this));\n\t\tIERC20(address(this)).transfer(from, tokens);  \n\t}\n\n\n\t  //Do not allow ETH to enter\n\treceive() external payable {\n\n\t\trevert();\n\t}\n\n\n\tfallback() external payable {\n\n\t\trevert();\n\t}\n}\n\n/*\n*\n* MIT License\n* ===========\n*\n* Copyright (c) 2022 Forge\n*\n* Permission is hereby granted, free of charge, to any person obtaining a copy\n* of this software and associated documentation files (the \"Software\"), to deal\n* in the Software without restriction, including without limitation the rights\n* to use, copy, modify, merge, publish, distribute, sublicense, and/or sell\n* copies of the Software, and to permit persons to whom the Software is\n* furnished to do so, subject to the following conditions:\n*\n* The above copyright notice and this permission notice shall be included in all\n* copies or substantial portions of the Software.   \n*\n* THE SOFTWARE IS PROVIDED \"AS IS\", WITHOUT WARRANTY OF ANY KIND, EXPRESS OR\n* IMPLIED, INCLUDING BUT NOT LIMITED TO THE WARRANTIES OF MERCHANTABILITY,\n* FITNESS FOR A PARTICULAR PURPOSE AND NONINFRINGEMENT. IN NO EVENT SHALL THE\n* AUTHORS OR COPYRIGHT HOLDERS BE LIABLE FOR ANY CLAIM, DAMAGES OR OTHER\n* LIABILITY, WHETHER IN AN ACTION OF CONTRACT, TORT OR OTHERWISE, ARISING FROM,\n* OUT OF OR IN CONNECTION WITH THE SOFTWARE OR THE USE OR OTHER DEALINGS IN THE\n*/\n",
  "sourcePath": "contracts/ForgeTest.sol",
  "type": "contract"
}