{
  "abi": [
    {
      "inputs": [
        {
          "internalType": "contract IERC20",
          "name": "_reward0xPW",
          "type": "address"
        },
        {
          "internalType": "contract IERC20",
          "name": "_LP",
          "type": "address"
        },
        {
          "internalType": "contract IERC20",
          "name": "_reward0xBTC",
          "type": "address"
        }
      ],
      "stateMutability": "nonpayable",
      "type": "constructor"
    },
    {
      "anonymous": false,
      "inputs": [
        {
          "indexed": true,
          "internalType": "address",
          "name": "previousOwner",
          "type": "address"
        },
        {
          "indexed": true,
          "internalType": "address",
          "name": "newOwner",
          "type": "address"
        }
      ],
      "name": "OwnershipTransferred",
      "type": "event"
    },
    {
      "anonymous": false,
      "inputs": [
        {
          "indexed": false,
          "internalType": "uint256",
          "name": "reward",
          "type": "uint256"
        }
      ],
      "name": "RewardAdded",
      "type": "event"
    },
    {
      "anonymous": false,
      "inputs": [
        {
          "indexed": false,
          "internalType": "uint256",
          "name": "rewards2",
          "type": "uint256"
        }
      ],
      "name": "RewardAdded2",
      "type": "event"
    },
    {
      "anonymous": false,
      "inputs": [
        {
          "indexed": false,
          "internalType": "uint256",
          "name": "rewards3",
          "type": "uint256"
        }
      ],
      "name": "RewardAdded3",
      "type": "event"
    },
    {
      "anonymous": false,
      "inputs": [
        {
          "indexed": false,
          "internalType": "uint256",
          "name": "rewards4",
          "type": "uint256"
        }
      ],
      "name": "RewardAdded4",
      "type": "event"
    },
    {
      "anonymous": false,
      "inputs": [
        {
          "indexed": false,
          "internalType": "uint256",
          "name": "rewards5",
          "type": "uint256"
        }
      ],
      "name": "RewardAdded5",
      "type": "event"
    },
    {
      "anonymous": false,
      "inputs": [
        {
          "indexed": false,
          "internalType": "uint256",
          "name": "rewardsExtra",
          "type": "uint256"
        }
      ],
      "name": "RewardAddedExtra",
      "type": "event"
    },
    {
      "anonymous": false,
      "inputs": [
        {
          "indexed": false,
          "internalType": "uint256",
          "name": "rewardsExtraExtra",
          "type": "uint256"
        }
      ],
      "name": "RewardAddedExtraExtra",
      "type": "event"
    },
    {
      "anonymous": false,
      "inputs": [
        {
          "indexed": true,
          "internalType": "address",
          "name": "user",
          "type": "address"
        },
        {
          "indexed": false,
          "internalType": "uint256",
          "name": "reward",
          "type": "uint256"
        },
        {
          "indexed": false,
          "internalType": "uint256",
          "name": "rewards2",
          "type": "uint256"
        },
        {
          "indexed": false,
          "internalType": "uint256",
          "name": "rewards3",
          "type": "uint256"
        },
        {
          "indexed": false,
          "internalType": "uint256",
          "name": "rewardsExtra",
          "type": "uint256"
        },
        {
          "indexed": false,
          "internalType": "uint256",
          "name": "rewardsExtraExtra",
          "type": "uint256"
        }
      ],
      "name": "RewardPaid",
      "type": "event"
    },
    {
      "anonymous": false,
      "inputs": [
        {
          "indexed": true,
          "internalType": "address",
          "name": "user2",
          "type": "address"
        },
        {
          "indexed": false,
          "internalType": "uint256",
          "name": "rewards2",
          "type": "uint256"
        }
      ],
      "name": "RewardPaid2",
      "type": "event"
    },
    {
      "anonymous": false,
      "inputs": [
        {
          "indexed": true,
          "internalType": "address",
          "name": "user3",
          "type": "address"
        },
        {
          "indexed": false,
          "internalType": "uint256",
          "name": "rewards3",
          "type": "uint256"
        }
      ],
      "name": "RewardPaid3",
      "type": "event"
    },
    {
      "anonymous": false,
      "inputs": [
        {
          "indexed": true,
          "internalType": "address",
          "name": "user3",
          "type": "address"
        },
        {
          "indexed": false,
          "internalType": "uint256",
          "name": "rewards3",
          "type": "uint256"
        }
      ],
      "name": "RewardPaid4",
      "type": "event"
    },
    {
      "anonymous": false,
      "inputs": [
        {
          "indexed": true,
          "internalType": "address",
          "name": "user3",
          "type": "address"
        },
        {
          "indexed": false,
          "internalType": "uint256",
          "name": "rewards3",
          "type": "uint256"
        }
      ],
      "name": "RewardPaid5",
      "type": "event"
    },
    {
      "anonymous": false,
      "inputs": [
        {
          "indexed": true,
          "internalType": "address",
          "name": "user",
          "type": "address"
        },
        {
          "indexed": false,
          "internalType": "uint256",
          "name": "reward",
          "type": "uint256"
        },
        {
          "indexed": false,
          "internalType": "uint256",
          "name": "rewards2",
          "type": "uint256"
        }
      ],
      "name": "RewardPaidBasic",
      "type": "event"
    },
    {
      "anonymous": false,
      "inputs": [
        {
          "indexed": true,
          "internalType": "address",
          "name": "userExtra",
          "type": "address"
        },
        {
          "indexed": false,
          "internalType": "uint256",
          "name": "rewardsExtra",
          "type": "uint256"
        }
      ],
      "name": "RewardPaidExtra",
      "type": "event"
    },
    {
      "anonymous": false,
      "inputs": [
        {
          "indexed": true,
          "internalType": "address",
          "name": "userExtraExtra",
          "type": "address"
        },
        {
          "indexed": false,
          "internalType": "uint256",
          "name": "rewardsExtraExtra",
          "type": "uint256"
        }
      ],
      "name": "RewardPaidExtraExtra",
      "type": "event"
    },
    {
      "anonymous": false,
      "inputs": [
        {
          "indexed": true,
          "internalType": "address",
          "name": "user",
          "type": "address"
        },
        {
          "indexed": false,
          "internalType": "uint256",
          "name": "amount",
          "type": "uint256"
        }
      ],
      "name": "Staked",
      "type": "event"
    },
    {
      "anonymous": false,
      "inputs": [
        {
          "indexed": true,
          "internalType": "address",
          "name": "user",
          "type": "address"
        },
        {
          "indexed": false,
          "internalType": "uint256",
          "name": "amount",
          "type": "uint256"
        }
      ],
      "name": "Withdrawn",
      "type": "event"
    },
    {
      "inputs": [
        {
          "internalType": "uint256",
          "name": "",
          "type": "uint256"
        }
      ],
      "name": "AddressesEntered",
      "outputs": [
        {
          "internalType": "address",
          "name": "",
          "type": "address"
        }
      ],
      "stateMutability": "view",
      "type": "function"
    },
    {
      "inputs": [],
      "name": "Era",
      "outputs": [
        {
          "internalType": "uint256",
          "name": "",
          "type": "uint256"
        }
      ],
      "stateMutability": "view",
      "type": "function"
    },
    {
      "inputs": [
        {
          "internalType": "uint64",
          "name": "_rewardT",
          "type": "uint64"
        }
      ],
      "name": "Z_NewRewardTime",
      "outputs": [
        {
          "internalType": "bool",
          "name": "success",
          "type": "bool"
        }
      ],
      "stateMutability": "nonpayable",
      "type": "function"
    },
    {
      "inputs": [
        {
          "internalType": "uint256",
          "name": "starting",
          "type": "uint256"
        },
        {
          "internalType": "uint256",
          "name": "maxlength",
          "type": "uint256"
        }
      ],
      "name": "Z_Reset4and5",
      "outputs": [
        {
          "internalType": "bool",
          "name": "success",
          "type": "bool"
        }
      ],
      "stateMutability": "nonpayable",
      "type": "function"
    },
    {
      "inputs": [
        {
          "internalType": "address",
          "name": "newModerator",
          "type": "address"
        },
        {
          "internalType": "uint256",
          "name": "spot",
          "type": "uint256"
        }
      ],
      "name": "Z_addMod",
      "outputs": [],
      "stateMutability": "nonpayable",
      "type": "function"
    },
    {
      "inputs": [
        {
          "internalType": "contract IERC20",
          "name": "tokenExtra",
          "type": "address"
        },
        {
          "internalType": "uint256",
          "name": "_decimalsExtra",
          "type": "uint256"
        }
      ],
      "name": "Z_addNewToken",
      "outputs": [
        {
          "internalType": "bool",
          "name": "success",
          "type": "bool"
        }
      ],
      "stateMutability": "nonpayable",
      "type": "function"
    },
    {
      "inputs": [
        {
          "internalType": "contract IERC20",
          "name": "tokenTWOExtra",
          "type": "address"
        },
        {
          "internalType": "uint256",
          "name": "_decimalsExtraExtra",
          "type": "uint256"
        }
      ],
      "name": "Z_addNewToken2",
      "outputs": [
        {
          "internalType": "bool",
          "name": "success",
          "type": "bool"
        }
      ],
      "stateMutability": "nonpayable",
      "type": "function"
    },
    {
      "inputs": [
        {
          "internalType": "uint256",
          "name": "reward",
          "type": "uint256"
        },
        {
          "internalType": "uint64",
          "name": "duration",
          "type": "uint64"
        }
      ],
      "name": "Z_setRewardParams0xBTC",
      "outputs": [],
      "stateMutability": "nonpayable",
      "type": "function"
    },
    {
      "inputs": [
        {
          "internalType": "uint256",
          "name": "reward",
          "type": "uint256"
        },
        {
          "internalType": "uint64",
          "name": "duration",
          "type": "uint64"
        }
      ],
      "name": "Z_setRewardParamsETH",
      "outputs": [],
      "stateMutability": "nonpayable",
      "type": "function"
    },
    {
      "inputs": [
        {
          "internalType": "uint256",
          "name": "reward",
          "type": "uint256"
        },
        {
          "internalType": "uint64",
          "name": "duration",
          "type": "uint64"
        }
      ],
      "name": "Z_setRewardParamsExtra",
      "outputs": [],
      "stateMutability": "nonpayable",
      "type": "function"
    },
    {
      "inputs": [
        {
          "internalType": "uint256",
          "name": "reward",
          "type": "uint256"
        },
        {
          "internalType": "uint64",
          "name": "duration",
          "type": "uint64"
        }
      ],
      "name": "Z_setRewardParamsExtraExtra",
      "outputs": [],
      "stateMutability": "nonpayable",
      "type": "function"
    },
    {
      "inputs": [
        {
          "internalType": "uint256",
          "name": "reward",
          "type": "uint256"
        },
        {
          "internalType": "uint64",
          "name": "duration",
          "type": "uint64"
        }
      ],
      "name": "Z_setRewardParamsForge",
      "outputs": [],
      "stateMutability": "nonpayable",
      "type": "function"
    },
    {
      "inputs": [
        {
          "internalType": "address",
          "name": "newOwner",
          "type": "address"
        }
      ],
      "name": "Z_transferOwnership",
      "outputs": [],
      "stateMutability": "nonpayable",
      "type": "function"
    },
    {
      "inputs": [
        {
          "internalType": "address",
          "name": "account",
          "type": "address"
        }
      ],
      "name": "balanceOf",
      "outputs": [
        {
          "internalType": "uint256",
          "name": "",
          "type": "uint256"
        }
      ],
      "stateMutability": "view",
      "type": "function"
    },
    {
      "inputs": [],
      "name": "decimalsExtra",
      "outputs": [
        {
          "internalType": "uint256",
          "name": "",
          "type": "uint256"
        }
      ],
      "stateMutability": "view",
      "type": "function"
    },
    {
      "inputs": [],
      "name": "decimalsExtraExtra",
      "outputs": [
        {
          "internalType": "uint256",
          "name": "",
          "type": "uint256"
        }
      ],
      "stateMutability": "view",
      "type": "function"
    },
    {
      "inputs": [
        {
          "internalType": "address",
          "name": "account",
          "type": "address"
        }
      ],
      "name": "earned",
      "outputs": [
        {
          "internalType": "uint128",
          "name": "",
          "type": "uint128"
        }
      ],
      "stateMutability": "view",
      "type": "function"
    },
    {
      "inputs": [
        {
          "internalType": "address",
          "name": "account",
          "type": "address"
        }
      ],
      "name": "earned2",
      "outputs": [
        {
          "internalType": "uint128",
          "name": "",
          "type": "uint128"
        }
      ],
      "stateMutability": "view",
      "type": "function"
    },
    {
      "inputs": [
        {
          "internalType": "address",
          "name": "account",
          "type": "address"
        }
      ],
      "name": "earned3",
      "outputs": [
        {
          "internalType": "uint128",
          "name": "",
          "type": "uint128"
        }
      ],
      "stateMutability": "view",
      "type": "function"
    },
    {
      "inputs": [
        {
          "internalType": "address",
          "name": "account",
          "type": "address"
        }
      ],
      "name": "earnedExtra",
      "outputs": [
        {
          "internalType": "uint128",
          "name": "",
          "type": "uint128"
        }
      ],
      "stateMutability": "view",
      "type": "function"
    },
    {
      "inputs": [
        {
          "internalType": "address",
          "name": "account",
          "type": "address"
        }
      ],
      "name": "earnedExtraExtra",
      "outputs": [
        {
          "internalType": "uint128",
          "name": "",
          "type": "uint128"
        }
      ],
      "stateMutability": "view",
      "type": "function"
    },
    {
      "inputs": [],
      "name": "exit",
      "outputs": [],
      "stateMutability": "nonpayable",
      "type": "function"
    },
    {
      "inputs": [],
      "name": "getReward",
      "outputs": [],
      "stateMutability": "nonpayable",
      "type": "function"
    },
    {
      "inputs": [
        {
          "internalType": "uint256",
          "name": "choice",
          "type": "uint256"
        }
      ],
      "name": "getRewardBasicBasic",
      "outputs": [],
      "stateMutability": "nonpayable",
      "type": "function"
    },
    {
      "inputs": [],
      "name": "lastTimeRewardApplicable",
      "outputs": [
        {
          "internalType": "uint64",
          "name": "",
          "type": "uint64"
        }
      ],
      "stateMutability": "view",
      "type": "function"
    },
    {
      "inputs": [],
      "name": "lastTimeRewardApplicable2",
      "outputs": [
        {
          "internalType": "uint64",
          "name": "",
          "type": "uint64"
        }
      ],
      "stateMutability": "view",
      "type": "function"
    },
    {
      "inputs": [],
      "name": "lastTimeRewardApplicable3",
      "outputs": [
        {
          "internalType": "uint64",
          "name": "",
          "type": "uint64"
        }
      ],
      "stateMutability": "view",
      "type": "function"
    },
    {
      "inputs": [],
      "name": "lastTimeRewardApplicableExtra",
      "outputs": [
        {
          "internalType": "uint64",
          "name": "",
          "type": "uint64"
        }
      ],
      "stateMutability": "view",
      "type": "function"
    },
    {
      "inputs": [],
      "name": "lastTimeRewardApplicableExtraExtra",
      "outputs": [
        {
          "internalType": "uint64",
          "name": "",
          "type": "uint64"
        }
      ],
      "stateMutability": "view",
      "type": "function"
    },
    {
      "inputs": [],
      "name": "lastUpdateTime",
      "outputs": [
        {
          "internalType": "uint64",
          "name": "",
          "type": "uint64"
        }
      ],
      "stateMutability": "view",
      "type": "function"
    },
    {
      "inputs": [],
      "name": "lastUpdateTime2",
      "outputs": [
        {
          "internalType": "uint64",
          "name": "",
          "type": "uint64"
        }
      ],
      "stateMutability": "view",
      "type": "function"
    },
    {
      "inputs": [],
      "name": "lastUpdateTime3",
      "outputs": [
        {
          "internalType": "uint64",
          "name": "",
          "type": "uint64"
        }
      ],
      "stateMutability": "view",
      "type": "function"
    },
    {
      "inputs": [],
      "name": "lastUpdateTimeExtra",
      "outputs": [
        {
          "internalType": "uint64",
          "name": "",
          "type": "uint64"
        }
      ],
      "stateMutability": "view",
      "type": "function"
    },
    {
      "inputs": [],
      "name": "lastUpdateTimeExtraExtra",
      "outputs": [
        {
          "internalType": "uint64",
          "name": "",
          "type": "uint64"
        }
      ],
      "stateMutability": "view",
      "type": "function"
    },
    {
      "inputs": [
        {
          "internalType": "uint256",
          "name": "",
          "type": "uint256"
        }
      ],
      "name": "moderators",
      "outputs": [
        {
          "internalType": "address",
          "name": "",
          "type": "address"
        }
      ],
      "stateMutability": "view",
      "type": "function"
    },
    {
      "inputs": [],
      "name": "nextEra",
      "outputs": [
        {
          "internalType": "uint256",
          "name": "",
          "type": "uint256"
        }
      ],
      "stateMutability": "view",
      "type": "function"
    },
    {
      "inputs": [],
      "name": "owner",
      "outputs": [
        {
          "internalType": "address",
          "name": "",
          "type": "address"
        }
      ],
      "stateMutability": "view",
      "type": "function"
    },
    {
      "inputs": [],
      "name": "periodFinish",
      "outputs": [
        {
          "internalType": "uint64",
          "name": "",
          "type": "uint64"
        }
      ],
      "stateMutability": "view",
      "type": "function"
    },
    {
      "inputs": [],
      "name": "periodFinish2",
      "outputs": [
        {
          "internalType": "uint64",
          "name": "",
          "type": "uint64"
        }
      ],
      "stateMutability": "view",
      "type": "function"
    },
    {
      "inputs": [],
      "name": "periodFinish3",
      "outputs": [
        {
          "internalType": "uint64",
          "name": "",
          "type": "uint64"
        }
      ],
      "stateMutability": "view",
      "type": "function"
    },
    {
      "inputs": [],
      "name": "periodFinishExtra",
      "outputs": [
        {
          "internalType": "uint64",
          "name": "",
          "type": "uint64"
        }
      ],
      "stateMutability": "view",
      "type": "function"
    },
    {
      "inputs": [],
      "name": "periodFinishExtraExtra",
      "outputs": [
        {
          "internalType": "uint64",
          "name": "",
          "type": "uint64"
        }
      ],
      "stateMutability": "view",
      "type": "function"
    },
    {
      "inputs": [],
      "name": "poolLength",
      "outputs": [
        {
          "internalType": "uint64",
          "name": "",
          "type": "uint64"
        }
      ],
      "stateMutability": "view",
      "type": "function"
    },
    {
      "inputs": [],
      "name": "rewardPerToken",
      "outputs": [
        {
          "internalType": "uint128",
          "name": "",
          "type": "uint128"
        }
      ],
      "stateMutability": "view",
      "type": "function"
    },
    {
      "inputs": [],
      "name": "rewardPerToken2",
      "outputs": [
        {
          "internalType": "uint128",
          "name": "",
          "type": "uint128"
        }
      ],
      "stateMutability": "view",
      "type": "function"
    },
    {
      "inputs": [],
      "name": "rewardPerToken3",
      "outputs": [
        {
          "internalType": "uint128",
          "name": "",
          "type": "uint128"
        }
      ],
      "stateMutability": "view",
      "type": "function"
    },
    {
      "inputs": [],
      "name": "rewardPerTokenExtra",
      "outputs": [
        {
          "internalType": "uint128",
          "name": "",
          "type": "uint128"
        }
      ],
      "stateMutability": "view",
      "type": "function"
    },
    {
      "inputs": [],
      "name": "rewardPerTokenExtraExtra",
      "outputs": [
        {
          "internalType": "uint128",
          "name": "",
          "type": "uint128"
        }
      ],
      "stateMutability": "view",
      "type": "function"
    },
    {
      "inputs": [],
      "name": "rewardPerTokenStored",
      "outputs": [
        {
          "internalType": "uint128",
          "name": "",
          "type": "uint128"
        }
      ],
      "stateMutability": "view",
      "type": "function"
    },
    {
      "inputs": [],
      "name": "rewardPerTokenStored2",
      "outputs": [
        {
          "internalType": "uint128",
          "name": "",
          "type": "uint128"
        }
      ],
      "stateMutability": "view",
      "type": "function"
    },
    {
      "inputs": [],
      "name": "rewardPerTokenStored3",
      "outputs": [
        {
          "internalType": "uint128",
          "name": "",
          "type": "uint128"
        }
      ],
      "stateMutability": "view",
      "type": "function"
    },
    {
      "inputs": [],
      "name": "rewardPerTokenStoredExtra",
      "outputs": [
        {
          "internalType": "uint128",
          "name": "",
          "type": "uint128"
        }
      ],
      "stateMutability": "view",
      "type": "function"
    },
    {
      "inputs": [],
      "name": "rewardPerTokenStoredExtraExtra",
      "outputs": [
        {
          "internalType": "uint128",
          "name": "",
          "type": "uint128"
        }
      ],
      "stateMutability": "view",
      "type": "function"
    },
    {
      "inputs": [],
      "name": "rewardRate",
      "outputs": [
        {
          "internalType": "uint256",
          "name": "",
          "type": "uint256"
        }
      ],
      "stateMutability": "view",
      "type": "function"
    },
    {
      "inputs": [],
      "name": "rewardRate2",
      "outputs": [
        {
          "internalType": "uint256",
          "name": "",
          "type": "uint256"
        }
      ],
      "stateMutability": "view",
      "type": "function"
    },
    {
      "inputs": [],
      "name": "rewardRate3",
      "outputs": [
        {
          "internalType": "uint256",
          "name": "",
          "type": "uint256"
        }
      ],
      "stateMutability": "view",
      "type": "function"
    },
    {
      "inputs": [],
      "name": "rewardRateExtra",
      "outputs": [
        {
          "internalType": "uint256",
          "name": "",
          "type": "uint256"
        }
      ],
      "stateMutability": "view",
      "type": "function"
    },
    {
      "inputs": [],
      "name": "rewardRateExtraExtra",
      "outputs": [
        {
          "internalType": "uint256",
          "name": "",
          "type": "uint256"
        }
      ],
      "stateMutability": "view",
      "type": "function"
    },
    {
      "inputs": [],
      "name": "rewardToken",
      "outputs": [
        {
          "internalType": "contract IERC20",
          "name": "",
          "type": "address"
        }
      ],
      "stateMutability": "view",
      "type": "function"
    },
    {
      "inputs": [],
      "name": "rewardToken2",
      "outputs": [
        {
          "internalType": "contract IERC20",
          "name": "",
          "type": "address"
        }
      ],
      "stateMutability": "view",
      "type": "function"
    },
    {
      "inputs": [],
      "name": "rewardTokenExtra",
      "outputs": [
        {
          "internalType": "contract IERC20",
          "name": "",
          "type": "address"
        }
      ],
      "stateMutability": "view",
      "type": "function"
    },
    {
      "inputs": [],
      "name": "rewardTokenExtraExtra",
      "outputs": [
        {
          "internalType": "contract IERC20",
          "name": "",
          "type": "address"
        }
      ],
      "stateMutability": "view",
      "type": "function"
    },
    {
      "inputs": [
        {
          "internalType": "uint256",
          "name": "choice",
          "type": "uint256"
        }
      ],
      "name": "setRewardParamsALL",
      "outputs": [],
      "stateMutability": "nonpayable",
      "type": "function"
    },
    {
      "inputs": [
        {
          "internalType": "uint128",
          "name": "amount",
          "type": "uint128"
        }
      ],
      "name": "stake",
      "outputs": [],
      "stateMutability": "payable",
      "type": "function"
    },
    {
      "inputs": [
        {
          "internalType": "address",
          "name": "forWhom",
          "type": "address"
        },
        {
          "internalType": "uint128",
          "name": "amount",
          "type": "uint128"
        }
      ],
      "name": "stakeFor",
      "outputs": [],
      "stateMutability": "payable",
      "type": "function"
    },
    {
      "inputs": [],
      "name": "stakedToken",
      "outputs": [
        {
          "internalType": "contract IERC20",
          "name": "",
          "type": "address"
        }
      ],
      "stateMutability": "view",
      "type": "function"
    },
    {
      "inputs": [],
      "name": "totalRewarded",
      "outputs": [
        {
          "internalType": "uint256",
          "name": "",
          "type": "uint256"
        }
      ],
      "stateMutability": "view",
      "type": "function"
    },
    {
      "inputs": [],
      "name": "totalRewarded2",
      "outputs": [
        {
          "internalType": "uint256",
          "name": "",
          "type": "uint256"
        }
      ],
      "stateMutability": "view",
      "type": "function"
    },
    {
      "inputs": [],
      "name": "totalRewarded3",
      "outputs": [
        {
          "internalType": "uint256",
          "name": "",
          "type": "uint256"
        }
      ],
      "stateMutability": "view",
      "type": "function"
    },
    {
      "inputs": [],
      "name": "totalRewardedExtra",
      "outputs": [
        {
          "internalType": "uint256",
          "name": "",
          "type": "uint256"
        }
      ],
      "stateMutability": "view",
      "type": "function"
    },
    {
      "inputs": [],
      "name": "totalRewardedExtraExtra",
      "outputs": [
        {
          "internalType": "uint256",
          "name": "",
          "type": "uint256"
        }
      ],
      "stateMutability": "view",
      "type": "function"
    },
    {
      "inputs": [],
      "name": "totalSupply",
      "outputs": [
        {
          "internalType": "uint256",
          "name": "",
          "type": "uint256"
        }
      ],
      "stateMutability": "view",
      "type": "function"
    },
    {
      "inputs": [
        {
          "internalType": "address",
          "name": "",
          "type": "address"
        }
      ],
      "name": "userRewards",
      "outputs": [
        {
          "internalType": "uint128",
          "name": "userRewardPerTokenPaid",
          "type": "uint128"
        },
        {
          "internalType": "uint128",
          "name": "rewards",
          "type": "uint128"
        }
      ],
      "stateMutability": "view",
      "type": "function"
    },
    {
      "inputs": [
        {
          "internalType": "address",
          "name": "",
          "type": "address"
        }
      ],
      "name": "userRewards2",
      "outputs": [
        {
          "internalType": "uint128",
          "name": "userRewardPerTokenPaid2",
          "type": "uint128"
        },
        {
          "internalType": "uint128",
          "name": "rewards2",
          "type": "uint128"
        }
      ],
      "stateMutability": "view",
      "type": "function"
    },
    {
      "inputs": [
        {
          "internalType": "address",
          "name": "",
          "type": "address"
        }
      ],
      "name": "userRewards3",
      "outputs": [
        {
          "internalType": "uint128",
          "name": "userRewardPerTokenPaid3",
          "type": "uint128"
        },
        {
          "internalType": "uint128",
          "name": "rewards3",
          "type": "uint128"
        }
      ],
      "stateMutability": "view",
      "type": "function"
    },
    {
      "inputs": [
        {
          "internalType": "address",
          "name": "",
          "type": "address"
        }
      ],
      "name": "userRewardsExtra",
      "outputs": [
        {
          "internalType": "uint128",
          "name": "userRewardPerTokenPaidExtra",
          "type": "uint128"
        },
        {
          "internalType": "uint128",
          "name": "rewardsExtra",
          "type": "uint128"
        }
      ],
      "stateMutability": "view",
      "type": "function"
    },
    {
      "inputs": [
        {
          "internalType": "address",
          "name": "",
          "type": "address"
        }
      ],
      "name": "userRewardsExtraExtra",
      "outputs": [
        {
          "internalType": "uint128",
          "name": "userRewardPerTokenPaidExtraExtra",
          "type": "uint128"
        },
        {
          "internalType": "uint128",
          "name": "rewardsExtraExtra",
          "type": "uint128"
        }
      ],
      "stateMutability": "view",
      "type": "function"
    },
    {
      "inputs": [
        {
          "internalType": "uint128",
          "name": "amount",
          "type": "uint128"
        }
      ],
      "name": "withdraw",
      "outputs": [],
      "stateMutability": "nonpayable",
      "type": "function"
    }
  ],
  "bytecode": "6080604052601260058190556006819055600780546001600160401b031916605a179055600090553480156200003457600080fd5b5060405162004596380380620045968339810160408190526200005791620000c2565b600380546001600160a01b03199081163317909155601180546001600160a01b039586169083161790556002805493851693821693909317909255601080549190931691161790556200010c565b80516001600160a01b0381168114620000bd57600080fd5b919050565b600080600060608486031215620000d857600080fd5b620000e384620000a5565b9250620000f360208501620000a5565b91506200010360408501620000a5565b90509250925092565b61447a806200011c6000396000f3fe60806040526004361061045c5760003560e01c80638da5cb5b1161023f578063c436462211610139578063e3ec4165116100b6578063f590a6801161007a578063f590a68014610dd3578063f7c618c114610df3578063f8960b3b14610e13578063fd5741cc14610e33578063ff42cd5e14610e5a57600080fd5b8063e3ec416514610d52578063e95e8a7614610d68578063e9fad8ee14610d7e578063ebe2b12b14610d93578063f3e168d914610db357600080fd5b8063d575b4e3116100fd578063d575b4e314610cb6578063d61a47f114610cd6578063d80f4b8314610cf6578063df136d6514610d16578063df173f1614610d3d57600080fd5b8063c436462214610c1d578063c8f33c9114610c44578063cc4027c014610c6b578063cc7a262e14610c81578063cd3daf9d14610ca157600080fd5b8063a3735983116101c7578063b07bedc61161018b578063b07bedc614610b95578063b8e36ef414610bab578063bb58b6bc14610bc0578063bd842a1114610be7578063c2e8904714610c0757600080fd5b8063a373598314610adf578063a7f377cf14610aff578063aa5fb8e114610b3f578063ac07e3d714610b5f578063aed29d0714610b7f57600080fd5b80639b9ad5d61161020e5780639b9ad5d614610a5e5780639ddd674b14610a7e5780639fa5b78b14610a9e578063a1d639b514610ab3578063a20f677314610ac957600080fd5b80638da5cb5b146109f45780639617e95614610a145780639646961a14610a345780639a5239d514610a4957600080fd5b80633da31dc31161035b5780636504f403116102d8578063767769941161029c57806376776994146109805780637b0a47ee146109965780637b279ddc146109ac57806380faa57d146109cc57806388fe2be8146109e157600080fd5b80636504f403146108da5780636b379b52146108fa57806370458d851461091057806370a082311461092357806372d2782d1461095957600080fd5b8063559a171c1161031f578063559a171c1461082d5780635a0231c6146108435780635f16647d146108595780636101c71a14610879578063638e5f961461089957600080fd5b80633da31dc31461078a5780633ef3c91c146107aa578063434f8132146107bf578063483ee28b146107df5780634a8560791461080657600080fd5b806310eb81c4116103e957806338b3369a116103ad57806338b3369a146106d757806339b4edda146106fe5780633b20a349146107255780633b28bb75146107555780633d18b9121461077557600080fd5b806310eb81c41461060857806318160ddd14610628578063204cd8e81461063e57806325db42b21461067f5780632c33b05e1461069f57600080fd5b806307b9c2751161043057806307b9c27514610545578063081e3eda146105725780630bb8406b14610592578063104370e4146105d357806310d443a4146105f357600080fd5b80628cc2621461046157806302387a7b1461049e57806303263267146104c05780630660f1e8146104e4575b600080fd5b34801561046d57600080fd5b5061048161047c36600461407b565b610e7a565b6040516001600160801b0390911681526020015b60405180910390f35b3480156104aa57600080fd5b506104be6104b93660046140bb565b610ef7565b005b3480156104cc57600080fd5b506104d660055481565b604051908152602001610495565b3480156104f057600080fd5b506105256104ff36600461407b565b601e602052600090815260409020546001600160801b0380821691600160801b90041682565b604080516001600160801b03938416815292909116602083015201610495565b34801561055157600080fd5b5061055a61117f565b6040516001600160401b039091168152602001610495565b34801561057e57600080fd5b5060075461055a906001600160401b031681565b34801561059e57600080fd5b506105256105ad36600461407b565b6022602052600090815260409020546001600160801b0380821691600160801b90041682565b3480156105df57600080fd5b506104be6105ee3660046140d6565b6111b3565b3480156105ff57600080fd5b5061055a6113da565b34801561061457600080fd5b506104be610623366004614106565b611414565b34801561063457600080fd5b506104d660005481565b34801561064a57600080fd5b5061052561065936600461407b565b6021602052600090815260409020546001600160801b0380821691600160801b90041682565b34801561068b57600080fd5b5061048161069a36600461407b565b611632565b3480156106ab57600080fd5b50600f546106bf906001600160a01b031681565b6040516001600160a01b039091168152602001610495565b3480156106e357600080fd5b5060195461055a90600160801b90046001600160401b031681565b34801561070a57600080fd5b5060195461055a90600160c01b90046001600160401b031681565b34801561073157600080fd5b50610745610740366004614132565b61166f565b6040519015158152602001610495565b34801561076157600080fd5b506104be61077036600461407b565b6117a5565b34801561078157600080fd5b506104be611808565b34801561079657600080fd5b50600e546106bf906001600160a01b031681565b3480156107b657600080fd5b50610481611eeb565b3480156107cb57600080fd5b506106bf6107da3660046140d6565b611f59565b3480156107eb57600080fd5b50601a5461055a90600160c01b90046001600160401b031681565b34801561081257600080fd5b50601b5461055a90600160401b90046001600160401b031681565b34801561083957600080fd5b506104d660175481565b34801561084f57600080fd5b506104d6600c5481565b34801561086557600080fd5b506104be61087436600461414d565b611f83565b34801561088557600080fd5b50610745610894366004614179565b61207d565b3480156108a557600080fd5b506105256108b436600461407b565b601f602052600090815260409020546001600160801b0380821691600160801b90041682565b3480156108e657600080fd5b506107456108f536600461414d565b6122ad565b34801561090657600080fd5b506104d6600b5481565b6104be61091e36600461419b565b61236d565b34801561092f57600080fd5b506104d661093e36600461407b565b6001600160a01b031660009081526001602052604090205490565b34801561096557600080fd5b50601a5461055a90600160801b90046001600160401b031681565b34801561098c57600080fd5b506104d660155481565b3480156109a257600080fd5b506104d660145481565b3480156109b857600080fd5b506107456109c736600461414d565b61263f565b3480156109d857600080fd5b5061055a6126ff565b6104be6109ef3660046140bb565b61272b565b348015610a0057600080fd5b506003546106bf906001600160a01b031681565b348015610a2057600080fd5b50610481610a2f36600461407b565b61277a565b348015610a4057600080fd5b506104816127b8565b348015610a5557600080fd5b5061055a61282c565b348015610a6a57600080fd5b506104be610a79366004614106565b612866565b348015610a8a57600080fd5b506104be610a99366004614106565b612a5d565b348015610aaa57600080fd5b5061055a612bc3565b348015610abf57600080fd5b506104d660095481565b348015610ad557600080fd5b506104d6600a5481565b348015610aeb57600080fd5b50610481610afa36600461407b565b612bfd565b348015610b0b57600080fd5b50610525610b1a36600461407b565b60208052600090815260409020546001600160801b0380821691600160801b90041682565b348015610b4b57600080fd5b506104be610b5a366004614106565b612c3b565b348015610b6b57600080fd5b506104be610b7a366004614106565b612e1e565b348015610b8b57600080fd5b506104d660085481565b348015610ba157600080fd5b506104d660065481565b348015610bb757600080fd5b5061048161302d565b348015610bcc57600080fd5b5060195461055a90600160401b90046001600160401b031681565b348015610bf357600080fd5b506106bf610c023660046140d6565b6130b1565b348015610c1357600080fd5b506104d660185481565b348015610c2957600080fd5b50601c5461048190600160801b90046001600160801b031681565b348015610c5057600080fd5b50601a5461055a90600160401b90046001600160401b031681565b348015610c7757600080fd5b506104d660165481565b348015610c8d57600080fd5b506002546106bf906001600160a01b031681565b348015610cad57600080fd5b506104816130c1565b348015610cc257600080fd5b506104be610cd13660046140d6565b613148565b348015610ce257600080fd5b506010546106bf906001600160a01b031681565b348015610d0257600080fd5b50601c54610481906001600160801b031681565b348015610d2257600080fd5b50601b5461048190600160801b90046001600160801b031681565b348015610d4957600080fd5b50610481613abe565b348015610d5e57600080fd5b506104d660125481565b348015610d7457600080fd5b506104d660135481565b348015610d8a57600080fd5b506104be613b45565b348015610d9f57600080fd5b5060195461055a906001600160401b031681565b348015610dbf57600080fd5b50601a5461055a906001600160401b031681565b348015610ddf57600080fd5b50601b5461055a906001600160401b031681565b348015610dff57600080fd5b506011546106bf906001600160a01b031681565b348015610e1f57600080fd5b50601d54610481906001600160801b031681565b348015610e3f57600080fd5b50601d5461048190600160801b90046001600160801b031681565b348015610e6657600080fd5b50610481610e7536600461407b565b613b68565b6001600160a01b0381166000908152601e60205260408120546001600160801b03600160801b8204811691670de0b6b3a76400009116610eb86130c1565b036001600160801b0316610ee1856001600160a01b031660009081526001602052604090205490565b0281610eef57610eef6141c7565b040192915050565b336000610f026130c1565b90506000610f0e6127b8565b90506000610f1a613abe565b90506000610f26611eeb565b90506000610f3261302d565b9050610f3c6126ff565b601a60086101000a8154816001600160401b0302191690836001600160401b03160217905550610f6a61282c565b601a60106101000a8154816001600160401b0302191690836001600160401b03160217905550610f98612bc3565b601a60186101000a8154816001600160401b0302191690836001600160401b03160217905550610fc66113da565b601b80546001600160401b039290921667ffffffffffffffff60401b90921691909117600160801b6001600160801b03888116820292909217909255858116858216830217601c5583811690831690910217601d5561102486610e7a565b6001600160a01b0387166000908152601e6020526040902080546001600160801b03928316600160801b02921691909117905561106086613b68565b6001600160a01b0387166000908152601f6020526040902080546001600160801b03928316600160801b02921691909117905561109c86611632565b6001600160a01b0387166000908152602080526040902080546001600160801b03928316600160801b0292169190911790556110d786612bfd565b6001600160a01b038716600090815260216020908152604080832080546001600160801b03958616600160801b02908616178155601e835281842080548b87166001600160801b031991821617909155601f845282852080548b881690831617905583805282852080548a8816908316179055815488871690821617909155602290925290912080549284169290911691909117905561117687613ba2565b50505050505050565b601a5460009042906001600160401b03908116908216106111ab57601a546001600160401b03166111ad565b805b91505090565b60405163aa5fb8e160e01b81526002600482015260166024820152309063aa5fb8e190604401600060405180830381600087803b1580156111f357600080fd5b505af1158015611207573d6000803e3d6000fd5b5050604051634dcd6aeb60e11b81526002600482015260166024820152309250639b9ad5d69150604401600060405180830381600087803b15801561124b57600080fd5b505af115801561125f573d6000803e3d6000fd5b5050604051639ddd674b60e01b81526002600482015260166024820152309250639ddd674b9150604401600060405180830381600087803b1580156112a357600080fd5b505af11580156112b7573d6000803e3d6000fd5b50505050806001141561131d5760405163ac07e3d760e01b81526003600482015260216024820152309063ac07e3d790604401600060405180830381600087803b15801561130457600080fd5b505af1158015611318573d6000803e3d6000fd5b505050505b80600214156113d75760405163043ae07160e21b8152600360048201526021602482015230906310eb81c490604401600060405180830381600087803b15801561136657600080fd5b505af115801561137a573d6000803e3d6000fd5b505060405163ac07e3d760e01b8152600360048201526021602482015230925063ac07e3d79150604401600060405180830381600087803b1580156113be57600080fd5b505af11580156113d2573d6000803e3d6000fd5b505050505b50565b60195460009042906001600160401b03600160c01b9091048116908216106111ab57601954600160c01b90046001600160401b03166111ad565b6000821161142157600080fd5b506007546001600160401b031661143661302d565b601d80546001600160801b03928316600160801b0292169190911790554260036001600160401b03600484021604601960189054906101000a90046001600160401b0316016001600160401b0316816001600160401b0316116114b45760405162461bcd60e51b81526004016114ab906141dd565b60405180910390fd5b600c54600e546040516370a0823160e01b8152306004820152600092916001600160a01b0316906370a0823190602401602060405180830381865afa158015611501573d6000803e3d6000fd5b505050506040513d601f19601f82011682018060405250810190611525919061424f565b601a54600254600f549390920393506001600160401b03908116850316916001600160a01b039081169116141561155e57600054820391505b836001600160401b0316821115611596576001600160401b038416600a60048402048161158d5761158d6141c7565b0460185561159c565b60006018555b601b805467ffffffffffffffff60401b1916600160401b6001600160401b038681169190910291909117909155601a805467ffffffffffffffff1916868601909216919091179055600854600a6004840204908101600c556040518181529095507f9e0ea166a59c148d4334c77b0eda4ea4819df6a57e58a0fc764f8ec5cae7927c906020015b60405180910390a15050505050565b6001600160a01b03811660009081526020805260408120546001600160801b03600160801b8204811691670de0b6b3a76400009116610eb8613abe565b600080805b6004548110156116cd57336001600160a01b03166004828154811061169b5761169b614268565b6000918252602090912001546001600160a01b031614156116bb57600191505b806116c581614294565b915050611674565b506003546001600160a01b03163314806116e45750805b6117005760405162461bcd60e51b81526004016114ab906142af565b62015180836001600160401b03161015801561172857506251bd00836001600160401b031611155b61177f5760405162461bcd60e51b815260206004820152602260248201527f526577617264206d75737420737461792077697468696e20626f756e64617269604482015261657360f01b60648201526084016114ab565b506007805467ffffffffffffffff19166001600160401b03939093169290921790915590565b6003546001600160a01b031633146117ff5760405162461bcd60e51b815260206004820181905260248201527f4f776e61626c653a2063616c6c6572206973206e6f7420746865206f776e657260448201526064016114ab565b6113d781613df5565b3360006118136130c1565b9050600061181f6127b8565b9050600061182b613abe565b90506000611837611eeb565b9050600061184361302d565b905061184d6126ff565b601a60086101000a8154816001600160401b0302191690836001600160401b0316021790555061187b61282c565b601a60106101000a8154816001600160401b0302191690836001600160401b031602179055506118a9612bc3565b601a60186101000a8154816001600160401b0302191690836001600160401b031602179055506118d76113da565b601b80546001600160401b039290921667ffffffffffffffff60401b90921691909117600160801b6001600160801b03888116820292909217909255858116858216830217601c5583811690831690910217601d5561193586610e7a565b6001600160a01b0387166000908152601e6020526040902080546001600160801b03928316600160801b02921691909117905561197186613b68565b6001600160a01b0387166000908152601f6020526040902080546001600160801b03928316600160801b0292169190911790556119ad86611632565b6001600160a01b0387166000908152602080526040902080546001600160801b03928316600160801b0292169190911790556119e886612bfd565b6001600160a01b038716600090815260216020908152604080832080546001600160801b03958616600160801b02908616178155601e835281842080548b87166001600160801b031991821617909155601f845282852080548b881690831617905583805282852080548a88169083161790558154888716908216179091556022909252822080549385169390911692909217909155611a8733610e7a565b6001600160801b031690506000611a9d33613b68565b6001600160801b031690506000611ab333611632565b6001600160801b031690508215611c1257336000908152601e6020526040902080546001600160801b031690558015611b6f5733600081815260208052604080822080546001600160801b0316905551829184156108fc02918591818181858888f19350505050611b5c5760405162461bcd60e51b8152602060048201526013602482015272115d1a081d1c985b9cd9995c8819985a5b1959606a1b60448201526064016114ab565b81600a54611b6a91906142f3565b600a55505b60115460405163a9059cbb60e01b81526001600160a01b039091169063a9059cbb90611ba1903390879060040161430a565b6020604051808303816000875af1158015611bc0573d6000803e3d6000fd5b505050506040513d601f19601f82011682018060405250810190611be49190614323565b611c005760405162461bcd60e51b81526004016114ab90614345565b82600854611c0e91906142f3565b6008555b8115611cd757336000818152601f60205260409081902080546001600160801b03169055601054905163a9059cbb60e01b81526001600160a01b039091169163a9059cbb91611c669190869060040161430a565b6020604051808303816000875af1158015611c85573d6000803e3d6000fd5b505050506040513d601f19601f82011682018060405250810190611ca99190614323565b611cc55760405162461bcd60e51b81526004016114ab90614375565b81600954611cd391906142f3565b6009555b6000611ce233612bfd565b6001600160801b031690508015611db257336000818152602160205260409081902080546001600160801b03169055600f54905163a9059cbb60e01b81526001600160a01b039091169163a9059cbb91611d419190859060040161430a565b6020604051808303816000875af1158015611d60573d6000803e3d6000fd5b505050506040513d601f19601f82011682018060405250810190611d849190614323565b611da05760405162461bcd60e51b81526004016114ab90614345565b80600b54611dae91906142f3565b600b555b6000611dbd3361277a565b6001600160801b031690508015611e8d57336000818152602260205260409081902080546001600160801b03169055600e54905163a9059cbb60e01b81526001600160a01b039091169163a9059cbb91611e1c9190859060040161430a565b6020604051808303816000875af1158015611e3b573d6000803e3d6000fd5b505050506040513d601f19601f82011682018060405250810190611e5f9190614323565b611e7b5760405162461bcd60e51b81526004016114ab90614375565b80600c54611e8991906142f3565b600b555b6040805186815260208101869052908101849052606081018390526080810182905233907f6a1c9812f6d42eaf5c00058b4fc1d00233e24805a4965009d650401f50adc53e9060a00160405180910390a25050505050505050505050565b6000805480611f05575050601d546001600160801b031690565b601b546000906001600160401b0316611f1c6113da565b036001600160401b0316905081600554600a0a60175483020281611f4257611f426141c7565b601d546001600160801b0316919004019392505050565b600d8181548110611f6957600080fd5b6000918252602090912001546001600160a01b0316905081565b6003546001600160a01b03163314611fdd5760405162461bcd60e51b815260206004820181905260248201527f4f776e61626c653a2063616c6c6572206973206e6f7420746865206f776e657260448201526064016114ab565b600454811061203757600480546001810182556000919091527f8a35acfbc15ff81a39ae7d344fd709f28e8600b4aa8c65c6b64bfe7fe36bd19b0180546001600160a01b0384166001600160a01b03199091161790555050565b816004828154811061204b5761204b614268565b9060005260206000200160006101000a8154816001600160a01b0302191690836001600160a01b031602179055505050565b600080805b6004548110156120db57336001600160a01b0316600482815481106120a9576120a9614268565b6000918252602090912001546001600160a01b031614156120c957600191505b806120d381614294565b915050612082565b506003546001600160a01b03163314806120f25750805b61210e5760405162461bcd60e51b81526004016114ab906142af565b835b61211a84866143ac565b811161229d57600060216000600d848154811061213957612139614268565b60009182526020808320909101546001600160a01b03168352820192909252604001812080546001600160801b03938416600160801b02931692909217909155600d805460229183918590811061219257612192614268565b60009182526020808320909101546001600160a01b03168352820192909252604001812080546001600160801b03938416600160801b02931692909217909155600d80546021918391859081106121eb576121eb614268565b6000918252602080832091909101546001600160a01b03168352820192909252604001812080546001600160801b0319166001600160801b039390931692909217909155600d805460229183918590811061224857612248614268565b6000918252602080832091909101546001600160a01b03168352820192909252604001902080546001600160801b0319166001600160801b03929092169190911790558061229581614294565b915050612110565b50506000601d5550600192915050565b600080805b60045481101561230b57336001600160a01b0316600482815481106122d9576122d9614268565b6000918252602090912001546001600160a01b031614156122f957600191505b8061230381614294565b9150506122b2565b506003546001600160a01b03163314806123225750805b61233e5760405162461bcd60e51b81526004016114ab906142af565b50506005556000601755600f80546001600160a01b0319166001600160a01b0392909216919091179055600190565b8160006123786130c1565b905060006123846127b8565b90506000612390613abe565b9050600061239c611eeb565b905060006123a861302d565b90506123b26126ff565b601a60086101000a8154816001600160401b0302191690836001600160401b031602179055506123e061282c565b601a60106101000a8154816001600160401b0302191690836001600160401b0316021790555061240e612bc3565b601a60186101000a8154816001600160401b0302191690836001600160401b0316021790555061243c6113da565b601b80546001600160401b039290921667ffffffffffffffff60401b90921691909117600160801b6001600160801b03888116820292909217909255858116858216830217601c5583811690831690910217601d5561249a86610e7a565b6001600160a01b0387166000908152601e6020526040902080546001600160801b03928316600160801b0292169190911790556124d686613b68565b6001600160a01b0387166000908152601f6020526040902080546001600160801b03928316600160801b02921691909117905561251286611632565b6001600160a01b0387166000908152602080526040902080546001600160801b03928316600160801b02921691909117905561254d86612bfd565b6001600160a01b03808816600090815260216020908152604080832080546001600160801b03968716600160801b02908716178155601e835281842080548c88166001600160801b031991821617909155601f845282852080548c891690831617905583805282852080548b89169083161790558154898816908216179091556022909252822080549486169490911693909317909255600d805460018101825592527fd7b6990105719101dabeb77144f2a3385c8033acd3af97e9423a695e81ad1eb59091018054918a166001600160a01b03199092169190911790556126358888613e51565b5050505050505050565b600080805b60045481101561269d57336001600160a01b03166004828154811061266b5761266b614268565b6000918252602090912001546001600160a01b0316141561268b57600191505b8061269581614294565b915050612644565b506003546001600160a01b03163314806126b45750805b6126d05760405162461bcd60e51b81526004016114ab906142af565b50506006556000601855600e80546001600160a01b0319166001600160a01b0392909216919091179055600190565b60195460009042906001600160401b03908116908216106111ab576019546001600160401b03166111ad565b600d80546001810182556000919091527fd7b6990105719101dabeb77144f2a3385c8033acd3af97e9423a695e81ad1eb50180546001600160a01b031916339081179091556113d7908261236d565b6001600160a01b0381166000908152602260205260408120546006546001600160801b03600160801b8304811692600a9290920a9116610eb861302d565b60008054806127d2575050601c546001600160801b031690565b601a54600090600160801b90046001600160401b03166127f061282c565b036001600160401b031690508160155482026305f5e1000281612815576128156141c7565b601c546001600160801b0316919004019392505050565b60195460009042906001600160401b03600160401b9091048116908216106111ab57601954600160401b90046001600160401b03166111ad565b6000821161287357600080fd5b506007546001600160401b03166128886127b8565b601c80546001600160801b0319166001600160801b03929092169190911790556019544290600160401b90046001600160401b03908116908216116128df5760405162461bcd60e51b81526004016114ab906143c4565b6009546010546040516370a0823160e01b8152306004820152600092916001600160a01b0316906370a0823190602401602060405180830381865afa15801561292c573d6000803e3d6000fd5b505050506040513d601f19601f82011682018060405250810190612950919061424f565b6019546002546010549390920393506001600160401b03600160401b9091048116850316916001600160a01b039081169116141561299057600054820391505b848211156129bf576001600160401b038416600a6004840204816129b6576129b66141c7565b046015556129c5565b60006015555b600a60048302601a80546001600160401b03808816600160801b0267ffffffffffffffff60801b199092169190911790915560198054888801909216600160401b0267ffffffffffffffff60401b19909216919091179055600980549290910491820190556040518181529095507f686c47e59005842286d2977a436cc5ceeef835a38dde7754eb2b535e84fd45e590602001611623565b60008211612a6a57600080fd5b506007546012805460010190556001600160401b0316612a88613abe565b601c80546001600160801b03908116600160801b939091168302179055601954429190046001600160401b0390811690821611612ad75760405162461bcd60e51b81526004016114ab906143c4565b600a546019544791909103906001600160401b03600160801b909104811683038116908416821115612b2a576001600160401b038416600a600484020481612b2157612b216141c7565b04601655612b30565b60006016555b600a60048302601a80546001600160401b03808816600160c01b026001600160c01b039092169190911790915560198054888801909216600160801b0267ffffffffffffffff60801b19909216919091179055600a80549290910491820190556040518181529095507fd62583100c7524e43bda2404e1236dc6133a424ed253a00539e75be5e65a463390602001611623565b60195460009042906001600160401b03600160801b9091048116908216106111ab57601954600160801b90046001600160401b03166111ad565b6001600160a01b0381166000908152602160205260408120546005546001600160801b03600160801b8304811692600a9290920a9116610eb8611eeb565b60008211612c4857600080fd5b506007546001600160401b0316612c5d6130c1565b601b80546001600160801b03928316600160801b02921691909117905560195442906001600160401b0390811690821611612caa5760405162461bcd60e51b81526004016114ab906143c4565b6008546011546040516370a0823160e01b8152306004820152600092916001600160a01b0316906370a0823190602401602060405180830381865afa158015612cf7573d6000803e3d6000fd5b505050506040513d601f19601f82011682018060405250810190612d1b919061424f565b6019546002546011549390920393506001600160401b03908116850316916001600160a01b0390811691161415612d5457600054820391505b836001600160401b0316821115612d8c576001600160401b038416600a600484020481612d8357612d836141c7565b04601455612d92565b60006014555b601a805467ffffffffffffffff60401b1916600160401b6001600160401b0386811691909102919091179091556019805467ffffffffffffffff191686860190921691909117905560088054600a60048502049081019091556040518181529095507fde88a922e0d3b88b24e9623efeb464919c6bf9f66857a65e2bfcf2ce87a9433d90602001611623565b60008211612e2b57600080fd5b506007546001600160401b0316612e40611eeb565b601d80546001600160801b0319166001600160801b0392909216919091179055426003600483026001600160401b031604601960189054906101000a90046001600160401b0316016001600160401b0316816001600160401b031611612eb85760405162461bcd60e51b81526004016114ab906141dd565b600b54600f546040516370a0823160e01b8152306004820152600092916001600160a01b0316906370a0823190602401602060405180830381865afa158015612f05573d6000803e3d6000fd5b505050506040513d601f19601f82011682018060405250810190612f29919061424f565b601954600254600f549390920393506001600160401b03600160c01b9091048116850316916001600160a01b0390811691161415612f6957600054820391505b836001600160401b0316821115612fa1576001600160401b038416600a600484020481612f9857612f986141c7565b04601755612fa7565b60006017555b601b805467ffffffffffffffff19166001600160401b0385811691909117909155601980546001600160c01b0316600160c01b87870190931692909202919091179055600854600a6004840204908101600b556040518181529095507f0b37c80d67a02e9452cfe51996ad0f6fd57d8251edef007c7d84beb157dde7d290602001611623565b600080548061304e575050601d54600160801b90046001600160801b031690565b601b54600090600160401b90046001600160401b031661306c61117f565b036001600160401b0316905081600654600a0a60185483020281613092576130926141c7565b601d546001600160801b03600160801b90910416919004019392505050565b60048181548110611f6957600080fd5b60008054806130e2575050601b54600160801b90046001600160801b031690565b601a54600090600160401b90046001600160401b03166131006126ff565b036001600160401b03169050816014548202670de0b6b3a76400000281613129576131296141c7565b601b546001600160801b03600160801b90910416919004019392505050565b3360006131536130c1565b9050600061315f6127b8565b9050600061316b613abe565b90506000613177611eeb565b9050600061318361302d565b905061318d6126ff565b601a60086101000a8154816001600160401b0302191690836001600160401b031602179055506131bb61282c565b601a60106101000a8154816001600160401b0302191690836001600160401b031602179055506131e9612bc3565b601a60186101000a8154816001600160401b0302191690836001600160401b031602179055506132176113da565b601b80546001600160401b039290921667ffffffffffffffff60401b90921691909117600160801b6001600160801b03888116820292909217909255858116858216830217601c5583811690831690910217601d5561327586610e7a565b6001600160a01b0387166000908152601e6020526040902080546001600160801b03928316600160801b0292169190911790556132b186613b68565b6001600160a01b0387166000908152601f6020526040902080546001600160801b03928316600160801b0292169190911790556132ed86611632565b6001600160a01b0387166000908152602080526040902080546001600160801b03928316600160801b02921691909117905561332886612bfd565b6001600160a01b038716600090815260216020908152604080832080546001600160801b03958616600160801b02908616178155601e835281842080548b87166001600160801b031991821617909155601f845282852080548b881690831617905583805282852080548a881690831617905581548887169082161790915560229092528220805493851693909116929092179091556133c733610e7a565b6001600160801b0316905060006133dd33613b68565b6001600160801b03169050886135b85781156134b257336000818152601e60205260409081902080546001600160801b03169055601154905163a9059cbb60e01b81526001600160a01b039091169163a9059cbb916134419190869060040161430a565b6020604051808303816000875af1158015613460573d6000803e3d6000fd5b505050506040513d601f19601f820116820180604052508101906134849190614323565b6134a05760405162461bcd60e51b81526004016114ab90614345565b816008546134ae91906142f3565b6008555b801561357757336000818152601f60205260409081902080546001600160801b03169055601054905163a9059cbb60e01b81526001600160a01b039091169163a9059cbb916135069190859060040161430a565b6020604051808303816000875af1158015613525573d6000803e3d6000fd5b505050506040513d601f19601f820116820180604052508101906135499190614323565b6135655760405162461bcd60e51b81526004016114ab90614375565b8060095461357391906142f3565b6009555b604080518381526020810183905233917fa3afea219c0ff303d8c5c37cb6853c0cfe0c5772d2839b30405f40fe678aa91091015b60405180910390a2613ab3565b88600214156136bf57801561368657336000818152601f60205260409081902080546001600160801b03169055601054905163a9059cbb60e01b81526001600160a01b039091169163a9059cbb916136159190859060040161430a565b6020604051808303816000875af1158015613634573d6000803e3d6000fd5b505050506040513d601f19601f820116820180604052508101906136589190614323565b6136745760405162461bcd60e51b81526004016114ab90614375565b8060095461368291906142f3565b6009555b60408051600081526020810183905233917fa3afea219c0ff303d8c5c37cb6853c0cfe0c5772d2839b30405f40fe678aa91091016135ab565b88600114156137c557811561378d57336000818152601e60205260409081902080546001600160801b03169055601154905163a9059cbb60e01b81526001600160a01b039091169163a9059cbb9161371c9190869060040161430a565b6020604051808303816000875af115801561373b573d6000803e3d6000fd5b505050506040513d601f19601f8201168201806040525081019061375f9190614323565b61377b5760405162461bcd60e51b81526004016114ab90614345565b8160085461378991906142f3565b6008555b604080518381526000602082015233917fa3afea219c0ff303d8c5c37cb6853c0cfe0c5772d2839b30405f40fe678aa91091016135ab565b88600314156138795760006137d933611632565b6001600160801b0316905080156138735733600081815260208052604080822080546001600160801b0316905551829184156108fc02918591818181858888f193505050506138605760405162461bcd60e51b8152602060048201526013602482015272115d1a081d1c985b9cd9995c8819985a5b1959606a1b60448201526064016114ab565b81600a5461386e91906142f3565b600a55505b50613ab3565b886004141561399857600061388d33612bfd565b6001600160801b03169050801561395d57336000818152602160205260409081902080546001600160801b03169055600f54905163a9059cbb60e01b81526001600160a01b039091169163a9059cbb916138ec9190859060040161430a565b6020604051808303816000875af115801561390b573d6000803e3d6000fd5b505050506040513d601f19601f8201168201806040525081019061392f9190614323565b61394b5760405162461bcd60e51b81526004016114ab90614345565b80600b5461395991906142f3565b600b555b60405181815233907f525fc558fcbf99abb520246f57c090e574f034f2338829fcbf008d64df2c3c159060200160405180910390a250613ab3565b8860051415613ab35760006139ac3361277a565b6001600160801b031690508015613a7c57336000818152602260205260409081902080546001600160801b03169055600e54905163a9059cbb60e01b81526001600160a01b039091169163a9059cbb91613a0b9190859060040161430a565b6020604051808303816000875af1158015613a2a573d6000803e3d6000fd5b505050506040513d601f19601f82011682018060405250810190613a4e9190614323565b613a6a5760405162461bcd60e51b81526004016114ab90614375565b80600c54613a7891906142f3565b600b555b60405181815233907f61a694449708c0d360f1b95319c392b649bc5754615ac48fc1ee448dd6cc993c9060200160405180910390a2505b505050505050505050565b6000805480613adf575050601c54600160801b90046001600160801b031690565b601a54600090600160c01b90046001600160401b0316613afd612bc3565b036001600160401b03169050816016548202670de0b6b3a76400000281613b2657613b266141c7565b601c546001600160801b03600160801b90910416919004019392505050565b613b4d611808565b33600090815260016020526040902054613b6690610ef7565b565b6001600160a01b0381166000908152601f60205260408120546001600160801b03600160801b82048116916305f5e1009116610eb86127b8565b336000908152600160205260409020546001600160801b0382161115613c0a5760405162461bcd60e51b815260206004820152601a60248201527f77697468647261773a2062616c616e6365206973206c6f77657200000000000060448201526064016114ab565b33600090815260016020526040812080546001600160801b0384169081900390915581540390556002546001600160a01b031680613ce05760405160009033906001600160801b038516908381818185875af1925050503d8060008114613c8d576040519150601f19603f3d011682016040523d82523d6000602084013e613c92565b606091505b5050905080613cda5760405162461bcd60e51b8152602060048201526014602482015273657468207472616e73666572206661696c75726560601b60448201526064016114ab565b50613db3565b60025460405163a9059cbb60e01b81523360048201526001600160801b03841660248201526001600160a01b039091169063a9059cbb906044016020604051808303816000875af1158015613d39573d6000803e3d6000fd5b505050506040513d601f19601f82011682018060405250810190613d5d9190614323565b6040518060400160405280601c81526020017f7374616b656420746f6b656e207472616e73666572206661696c65640000000081525090613db15760405162461bcd60e51b81526004016114ab91906143ef565b505b6040516001600160801b038316815233907f7084f5476618d8e60b11ef0d7d3f06914655adb8793e28ff7f018d4c76d505d59060200160405180910390a25050565b6003546040516001600160a01b038084169216907f8be0079c531659141344cd1fd0a4f28419497f9722a3daafe3b4186f6b6457e090600090a3600380546001600160a01b0319166001600160a01b0392909216919091179055565b6002546001600160a01b031680613e8e57600080543490810182556001600160a01b0385168252600160205260409091208054909101905561401a565b3415613ecb5760405162461bcd60e51b815260206004820152600c60248201526b0dcdedc5af4cae4de40cae8d60a31b60448201526064016114ab565b6000826001600160801b031611613f155760405162461bcd60e51b815260206004820152600e60248201526d043616e6e6f74207374616b6520360941b60448201526064016114ab565b6040516323b872dd60e01b81523360048201523060248201526001600160801b03831660448201526001600160a01b038216906323b872dd906064016020604051808303816000875af1158015613f70573d6000803e3d6000fd5b505050506040513d601f19601f82011682018060405250810190613f949190614323565b6040518060400160405280601c81526020017f7374616b656420746f6b656e207472616e73666572206661696c65640000000081525090613fe85760405162461bcd60e51b81526004016114ab91906143ef565b50600080546001600160801b03841690810182556001600160a01b038516825260016020526040909120805490910190555b6040516001600160801b03831681526001600160a01b038416907f9e71bc8eea02a63969f509818f2dafb9254532904319f9dbda79b67bd34a5f3d9060200160405180910390a2505050565b6001600160a01b03811681146113d757600080fd5b60006020828403121561408d57600080fd5b813561409881614066565b9392505050565b80356001600160801b03811681146140b657600080fd5b919050565b6000602082840312156140cd57600080fd5b6140988261409f565b6000602082840312156140e857600080fd5b5035919050565b80356001600160401b03811681146140b657600080fd5b6000806040838503121561411957600080fd5b82359150614129602084016140ef565b90509250929050565b60006020828403121561414457600080fd5b614098826140ef565b6000806040838503121561416057600080fd5b823561416b81614066565b946020939093013593505050565b6000806040838503121561418c57600080fd5b50508035926020909101359150565b600080604083850312156141ae57600080fd5b82356141b981614066565b91506141296020840161409f565b634e487b7160e01b600052601260045260246000fd5b6020808252604c908201527f436c61696d20706572696f6420616c6c6f777320666f7220776974686472617760408201527f616c20706572696f64206265666f726520636c61696d73206368616e6765203160608201526b2f332023206f66206461797360a01b608082015260a00190565b60006020828403121561426157600080fd5b5051919050565b634e487b7160e01b600052603260045260246000fd5b634e487b7160e01b600052601160045260246000fd5b60006000198214156142a8576142a861427e565b5060010190565b60208082526024908201527f4f776e61626c653a2063616c6c6572206973206e6f7420746865206f776e65726040820152630bdb5bd960e21b606082015260800190565b6000828210156143055761430561427e565b500390565b6001600160a01b03929092168252602082015260400190565b60006020828403121561433557600080fd5b8151801515811461409857600080fd5b6020808252601690820152751c995dd85c99081d1c985b9cd9995c8819985a5b195960521b604082015260600190565b6020808252601e908201527f72657761726420746f6b656e2032207472616e73666572206661696c65640000604082015260600190565b600082198211156143bf576143bf61427e565b500190565b6020808252601190820152704d5553542042452041465445522045524160781b604082015260600190565b600060208083528351808285015260005b8181101561441c57858101830151858201604001528201614400565b8181111561442e576000604083870101525b50601f01601f191692909201604001939250505056fea2646970667358221220403b913dedffa293f871c15e40f9955386cb161be04d3e29b7ba10fbc4f04cd064736f6c634300080b0033",
  "bytecodeSha1": "188968854da50a5627fe8dccd4cd9061ec16df24",
  "compiler": {
    "evm_version": "istanbul",
    "optimizer": {
      "enabled": true,
      "runs": 200
    },
    "version": "0.8.11+commit.d7f03943"
  },
  "contractName": "ForgeRewards",
  "language": "Solidity",
  "natspec": {
    "kind": "dev",
    "methods": {
      "Z_addMod(address,uint256)": {
        "details": "Leaves the contract without owner. It will not be possible to call `onlyOwner` functions anymore. Can only be called by the current owner. NOTE: Renouncing ownership will leave the contract without an owner, thereby removing any functionality that is only available to the owner."
      },
      "Z_transferOwnership(address)": {
        "details": "Transfers ownership of the contract to a new account (`newOwner`). Can only be called by the current owner."
      }
    },
    "version": 1
  },
  "opcodes": "PUSH1 0x80 PUSH1 0x40 MSTORE PUSH1 0x4 CALLDATASIZE LT PUSH2 0x45C JUMPI PUSH1 0x0 CALLDATALOAD PUSH1 0xE0 SHR DUP1 PUSH4 0x8DA5CB5B GT PUSH2 0x23F JUMPI DUP1 PUSH4 0xC4364622 GT PUSH2 0x139 JUMPI DUP1 PUSH4 0xE3EC4165 GT PUSH2 0xB6 JUMPI DUP1 PUSH4 0xF590A680 GT PUSH2 0x7A JUMPI DUP1 PUSH4 0xF590A680 EQ PUSH2 0xDD3 JUMPI DUP1 PUSH4 0xF7C618C1 EQ PUSH2 0xDF3 JUMPI DUP1 PUSH4 0xF8960B3B EQ PUSH2 0xE13 JUMPI DUP1 PUSH4 0xFD5741CC EQ PUSH2 0xE33 JUMPI DUP1 PUSH4 0xFF42CD5E EQ PUSH2 0xE5A JUMPI PUSH1 0x0 DUP1 REVERT JUMPDEST DUP1 PUSH4 0xE3EC4165 EQ PUSH2 0xD52 JUMPI DUP1 PUSH4 0xE95E8A76 EQ PUSH2 0xD68 JUMPI DUP1 PUSH4 0xE9FAD8EE EQ PUSH2 0xD7E JUMPI DUP1 PUSH4 0xEBE2B12B EQ PUSH2 0xD93 JUMPI DUP1 PUSH4 0xF3E168D9 EQ PUSH2 0xDB3 JUMPI PUSH1 0x0 DUP1 REVERT JUMPDEST DUP1 PUSH4 0xD575B4E3 GT PUSH2 0xFD JUMPI DUP1 PUSH4 0xD575B4E3 EQ PUSH2 0xCB6 JUMPI DUP1 PUSH4 0xD61A47F1 EQ PUSH2 0xCD6 JUMPI DUP1 PUSH4 0xD80F4B83 EQ PUSH2 0xCF6 JUMPI DUP1 PUSH4 0xDF136D65 EQ PUSH2 0xD16 JUMPI DUP1 PUSH4 0xDF173F16 EQ PUSH2 0xD3D JUMPI PUSH1 0x0 DUP1 REVERT JUMPDEST DUP1 PUSH4 0xC4364622 EQ PUSH2 0xC1D JUMPI DUP1 PUSH4 0xC8F33C91 EQ PUSH2 0xC44 JUMPI DUP1 PUSH4 0xCC4027C0 EQ PUSH2 0xC6B JUMPI DUP1 PUSH4 0xCC7A262E EQ PUSH2 0xC81 JUMPI DUP1 PUSH4 0xCD3DAF9D EQ PUSH2 0xCA1 JUMPI PUSH1 0x0 DUP1 REVERT JUMPDEST DUP1 PUSH4 0xA3735983 GT PUSH2 0x1C7 JUMPI DUP1 PUSH4 0xB07BEDC6 GT PUSH2 0x18B JUMPI DUP1 PUSH4 0xB07BEDC6 EQ PUSH2 0xB95 JUMPI DUP1 PUSH4 0xB8E36EF4 EQ PUSH2 0xBAB JUMPI DUP1 PUSH4 0xBB58B6BC EQ PUSH2 0xBC0 JUMPI DUP1 PUSH4 0xBD842A11 EQ PUSH2 0xBE7 JUMPI DUP1 PUSH4 0xC2E89047 EQ PUSH2 0xC07 JUMPI PUSH1 0x0 DUP1 REVERT JUMPDEST DUP1 PUSH4 0xA3735983 EQ PUSH2 0xADF JUMPI DUP1 PUSH4 0xA7F377CF EQ PUSH2 0xAFF JUMPI DUP1 PUSH4 0xAA5FB8E1 EQ PUSH2 0xB3F JUMPI DUP1 PUSH4 0xAC07E3D7 EQ PUSH2 0xB5F JUMPI DUP1 PUSH4 0xAED29D07 EQ PUSH2 0xB7F JUMPI PUSH1 0x0 DUP1 REVERT JUMPDEST DUP1 PUSH4 0x9B9AD5D6 GT PUSH2 0x20E JUMPI DUP1 PUSH4 0x9B9AD5D6 EQ PUSH2 0xA5E JUMPI DUP1 PUSH4 0x9DDD674B EQ PUSH2 0xA7E JUMPI DUP1 PUSH4 0x9FA5B78B EQ PUSH2 0xA9E JUMPI DUP1 PUSH4 0xA1D639B5 EQ PUSH2 0xAB3 JUMPI DUP1 PUSH4 0xA20F6773 EQ PUSH2 0xAC9 JUMPI PUSH1 0x0 DUP1 REVERT JUMPDEST DUP1 PUSH4 0x8DA5CB5B EQ PUSH2 0x9F4 JUMPI DUP1 PUSH4 0x9617E956 EQ PUSH2 0xA14 JUMPI DUP1 PUSH4 0x9646961A EQ PUSH2 0xA34 JUMPI DUP1 PUSH4 0x9A5239D5 EQ PUSH2 0xA49 JUMPI PUSH1 0x0 DUP1 REVERT JUMPDEST DUP1 PUSH4 0x3DA31DC3 GT PUSH2 0x35B JUMPI DUP1 PUSH4 0x6504F403 GT PUSH2 0x2D8 JUMPI DUP1 PUSH4 0x76776994 GT PUSH2 0x29C JUMPI DUP1 PUSH4 0x76776994 EQ PUSH2 0x980 JUMPI DUP1 PUSH4 0x7B0A47EE EQ PUSH2 0x996 JUMPI DUP1 PUSH4 0x7B279DDC EQ PUSH2 0x9AC JUMPI DUP1 PUSH4 0x80FAA57D EQ PUSH2 0x9CC JUMPI DUP1 PUSH4 0x88FE2BE8 EQ PUSH2 0x9E1 JUMPI PUSH1 0x0 DUP1 REVERT JUMPDEST DUP1 PUSH4 0x6504F403 EQ PUSH2 0x8DA JUMPI DUP1 PUSH4 0x6B379B52 EQ PUSH2 0x8FA JUMPI DUP1 PUSH4 0x70458D85 EQ PUSH2 0x910 JUMPI DUP1 PUSH4 0x70A08231 EQ PUSH2 0x923 JUMPI DUP1 PUSH4 0x72D2782D EQ PUSH2 0x959 JUMPI PUSH1 0x0 DUP1 REVERT JUMPDEST DUP1 PUSH4 0x559A171C GT PUSH2 0x31F JUMPI DUP1 PUSH4 0x559A171C EQ PUSH2 0x82D JUMPI DUP1 PUSH4 0x5A0231C6 EQ PUSH2 0x843 JUMPI DUP1 PUSH4 0x5F16647D EQ PUSH2 0x859 JUMPI DUP1 PUSH4 0x6101C71A EQ PUSH2 0x879 JUMPI DUP1 PUSH4 0x638E5F96 EQ PUSH2 0x899 JUMPI PUSH1 0x0 DUP1 REVERT JUMPDEST DUP1 PUSH4 0x3DA31DC3 EQ PUSH2 0x78A JUMPI DUP1 PUSH4 0x3EF3C91C EQ PUSH2 0x7AA JUMPI DUP1 PUSH4 0x434F8132 EQ PUSH2 0x7BF JUMPI DUP1 PUSH4 0x483EE28B EQ PUSH2 0x7DF JUMPI DUP1 PUSH4 0x4A856079 EQ PUSH2 0x806 JUMPI PUSH1 0x0 DUP1 REVERT JUMPDEST DUP1 PUSH4 0x10EB81C4 GT PUSH2 0x3E9 JUMPI DUP1 PUSH4 0x38B3369A GT PUSH2 0x3AD JUMPI DUP1 PUSH4 0x38B3369A EQ PUSH2 0x6D7 JUMPI DUP1 PUSH4 0x39B4EDDA EQ PUSH2 0x6FE JUMPI DUP1 PUSH4 0x3B20A349 EQ PUSH2 0x725 JUMPI DUP1 PUSH4 0x3B28BB75 EQ PUSH2 0x755 JUMPI DUP1 PUSH4 0x3D18B912 EQ PUSH2 0x775 JUMPI PUSH1 0x0 DUP1 REVERT JUMPDEST DUP1 PUSH4 0x10EB81C4 EQ PUSH2 0x608 JUMPI DUP1 PUSH4 0x18160DDD EQ PUSH2 0x628 JUMPI DUP1 PUSH4 0x204CD8E8 EQ PUSH2 0x63E JUMPI DUP1 PUSH4 0x25DB42B2 EQ PUSH2 0x67F JUMPI DUP1 PUSH4 0x2C33B05E EQ PUSH2 0x69F JUMPI PUSH1 0x0 DUP1 REVERT JUMPDEST DUP1 PUSH4 0x7B9C275 GT PUSH2 0x430 JUMPI DUP1 PUSH4 0x7B9C275 EQ PUSH2 0x545 JUMPI DUP1 PUSH4 0x81E3EDA EQ PUSH2 0x572 JUMPI DUP1 PUSH4 0xBB8406B EQ PUSH2 0x592 JUMPI DUP1 PUSH4 0x104370E4 EQ PUSH2 0x5D3 JUMPI DUP1 PUSH4 0x10D443A4 EQ PUSH2 0x5F3 JUMPI PUSH1 0x0 DUP1 REVERT JUMPDEST DUP1 PUSH3 0x8CC262 EQ PUSH2 0x461 JUMPI DUP1 PUSH4 0x2387A7B EQ PUSH2 0x49E JUMPI DUP1 PUSH4 0x3263267 EQ PUSH2 0x4C0 JUMPI DUP1 PUSH4 0x660F1E8 EQ PUSH2 0x4E4 JUMPI JUMPDEST PUSH1 0x0 DUP1 REVERT JUMPDEST CALLVALUE DUP1 ISZERO PUSH2 0x46D JUMPI PUSH1 0x0 DUP1 REVERT JUMPDEST POP PUSH2 0x481 PUSH2 0x47C CALLDATASIZE PUSH1 0x4 PUSH2 0x407B JUMP JUMPDEST PUSH2 0xE7A JUMP JUMPDEST PUSH1 0x40 MLOAD PUSH1 0x1 PUSH1 0x1 PUSH1 0x80 SHL SUB SWAP1 SWAP2 AND DUP2 MSTORE PUSH1 0x20 ADD JUMPDEST PUSH1 0x40 MLOAD DUP1 SWAP2 SUB SWAP1 RETURN JUMPDEST CALLVALUE DUP1 ISZERO PUSH2 0x4AA JUMPI PUSH1 0x0 DUP1 REVERT JUMPDEST POP PUSH2 0x4BE PUSH2 0x4B9 CALLDATASIZE PUSH1 0x4 PUSH2 0x40BB JUMP JUMPDEST PUSH2 0xEF7 JUMP JUMPDEST STOP JUMPDEST CALLVALUE DUP1 ISZERO PUSH2 0x4CC JUMPI PUSH1 0x0 DUP1 REVERT JUMPDEST POP PUSH2 0x4D6 PUSH1 0x5 SLOAD DUP2 JUMP JUMPDEST PUSH1 0x40 MLOAD SWAP1 DUP2 MSTORE PUSH1 0x20 ADD PUSH2 0x495 JUMP JUMPDEST CALLVALUE DUP1 ISZERO PUSH2 0x4F0 JUMPI PUSH1 0x0 DUP1 REVERT JUMPDEST POP PUSH2 0x525 PUSH2 0x4FF CALLDATASIZE PUSH1 0x4 PUSH2 0x407B JUMP JUMPDEST PUSH1 0x1E PUSH1 0x20 MSTORE PUSH1 0x0 SWAP1 DUP2 MSTORE PUSH1 0x40 SWAP1 KECCAK256 SLOAD PUSH1 0x1 PUSH1 0x1 PUSH1 0x80 SHL SUB DUP1 DUP3 AND SWAP2 PUSH1 0x1 PUSH1 0x80 SHL SWAP1 DIV AND DUP3 JUMP JUMPDEST PUSH1 0x40 DUP1 MLOAD PUSH1 0x1 PUSH1 0x1 PUSH1 0x80 SHL SUB SWAP4 DUP5 AND DUP2 MSTORE SWAP3 SWAP1 SWAP2 AND PUSH1 0x20 DUP4 ADD MSTORE ADD PUSH2 0x495 JUMP JUMPDEST CALLVALUE DUP1 ISZERO PUSH2 0x551 JUMPI PUSH1 0x0 DUP1 REVERT JUMPDEST POP PUSH2 0x55A PUSH2 0x117F JUMP JUMPDEST PUSH1 0x40 MLOAD PUSH1 0x1 PUSH1 0x1 PUSH1 0x40 SHL SUB SWAP1 SWAP2 AND DUP2 MSTORE PUSH1 0x20 ADD PUSH2 0x495 JUMP JUMPDEST CALLVALUE DUP1 ISZERO PUSH2 0x57E JUMPI PUSH1 0x0 DUP1 REVERT JUMPDEST POP PUSH1 0x7 SLOAD PUSH2 0x55A SWAP1 PUSH1 0x1 PUSH1 0x1 PUSH1 0x40 SHL SUB AND DUP2 JUMP JUMPDEST CALLVALUE DUP1 ISZERO PUSH2 0x59E JUMPI PUSH1 0x0 DUP1 REVERT JUMPDEST POP PUSH2 0x525 PUSH2 0x5AD CALLDATASIZE PUSH1 0x4 PUSH2 0x407B JUMP JUMPDEST PUSH1 0x22 PUSH1 0x20 MSTORE PUSH1 0x0 SWAP1 DUP2 MSTORE PUSH1 0x40 SWAP1 KECCAK256 SLOAD PUSH1 0x1 PUSH1 0x1 PUSH1 0x80 SHL SUB DUP1 DUP3 AND SWAP2 PUSH1 0x1 PUSH1 0x80 SHL SWAP1 DIV AND DUP3 JUMP JUMPDEST CALLVALUE DUP1 ISZERO PUSH2 0x5DF JUMPI PUSH1 0x0 DUP1 REVERT JUMPDEST POP PUSH2 0x4BE PUSH2 0x5EE CALLDATASIZE PUSH1 0x4 PUSH2 0x40D6 JUMP JUMPDEST PUSH2 0x11B3 JUMP JUMPDEST CALLVALUE DUP1 ISZERO PUSH2 0x5FF JUMPI PUSH1 0x0 DUP1 REVERT JUMPDEST POP PUSH2 0x55A PUSH2 0x13DA JUMP JUMPDEST CALLVALUE DUP1 ISZERO PUSH2 0x614 JUMPI PUSH1 0x0 DUP1 REVERT JUMPDEST POP PUSH2 0x4BE PUSH2 0x623 CALLDATASIZE PUSH1 0x4 PUSH2 0x4106 JUMP JUMPDEST PUSH2 0x1414 JUMP JUMPDEST CALLVALUE DUP1 ISZERO PUSH2 0x634 JUMPI PUSH1 0x0 DUP1 REVERT JUMPDEST POP PUSH2 0x4D6 PUSH1 0x0 SLOAD DUP2 JUMP JUMPDEST CALLVALUE DUP1 ISZERO PUSH2 0x64A JUMPI PUSH1 0x0 DUP1 REVERT JUMPDEST POP PUSH2 0x525 PUSH2 0x659 CALLDATASIZE PUSH1 0x4 PUSH2 0x407B JUMP JUMPDEST PUSH1 0x21 PUSH1 0x20 MSTORE PUSH1 0x0 SWAP1 DUP2 MSTORE PUSH1 0x40 SWAP1 KECCAK256 SLOAD PUSH1 0x1 PUSH1 0x1 PUSH1 0x80 SHL SUB DUP1 DUP3 AND SWAP2 PUSH1 0x1 PUSH1 0x80 SHL SWAP1 DIV AND DUP3 JUMP JUMPDEST CALLVALUE DUP1 ISZERO PUSH2 0x68B JUMPI PUSH1 0x0 DUP1 REVERT JUMPDEST POP PUSH2 0x481 PUSH2 0x69A CALLDATASIZE PUSH1 0x4 PUSH2 0x407B JUMP JUMPDEST PUSH2 0x1632 JUMP JUMPDEST CALLVALUE DUP1 ISZERO PUSH2 0x6AB JUMPI PUSH1 0x0 DUP1 REVERT JUMPDEST POP PUSH1 0xF SLOAD PUSH2 0x6BF SWAP1 PUSH1 0x1 PUSH1 0x1 PUSH1 0xA0 SHL SUB AND DUP2 JUMP JUMPDEST PUSH1 0x40 MLOAD PUSH1 0x1 PUSH1 0x1 PUSH1 0xA0 SHL SUB SWAP1 SWAP2 AND DUP2 MSTORE PUSH1 0x20 ADD PUSH2 0x495 JUMP JUMPDEST CALLVALUE DUP1 ISZERO PUSH2 0x6E3 JUMPI PUSH1 0x0 DUP1 REVERT JUMPDEST POP PUSH1 0x19 SLOAD PUSH2 0x55A SWAP1 PUSH1 0x1 PUSH1 0x80 SHL SWAP1 DIV PUSH1 0x1 PUSH1 0x1 PUSH1 0x40 SHL SUB AND DUP2 JUMP JUMPDEST CALLVALUE DUP1 ISZERO PUSH2 0x70A JUMPI PUSH1 0x0 DUP1 REVERT JUMPDEST POP PUSH1 0x19 SLOAD PUSH2 0x55A SWAP1 PUSH1 0x1 PUSH1 0xC0 SHL SWAP1 DIV PUSH1 0x1 PUSH1 0x1 PUSH1 0x40 SHL SUB AND DUP2 JUMP JUMPDEST CALLVALUE DUP1 ISZERO PUSH2 0x731 JUMPI PUSH1 0x0 DUP1 REVERT JUMPDEST POP PUSH2 0x745 PUSH2 0x740 CALLDATASIZE PUSH1 0x4 PUSH2 0x4132 JUMP JUMPDEST PUSH2 0x166F JUMP JUMPDEST PUSH1 0x40 MLOAD SWAP1 ISZERO ISZERO DUP2 MSTORE PUSH1 0x20 ADD PUSH2 0x495 JUMP JUMPDEST CALLVALUE DUP1 ISZERO PUSH2 0x761 JUMPI PUSH1 0x0 DUP1 REVERT JUMPDEST POP PUSH2 0x4BE PUSH2 0x770 CALLDATASIZE PUSH1 0x4 PUSH2 0x407B JUMP JUMPDEST PUSH2 0x17A5 JUMP JUMPDEST CALLVALUE DUP1 ISZERO PUSH2 0x781 JUMPI PUSH1 0x0 DUP1 REVERT JUMPDEST POP PUSH2 0x4BE PUSH2 0x1808 JUMP JUMPDEST CALLVALUE DUP1 ISZERO PUSH2 0x796 JUMPI PUSH1 0x0 DUP1 REVERT JUMPDEST POP PUSH1 0xE SLOAD PUSH2 0x6BF SWAP1 PUSH1 0x1 PUSH1 0x1 PUSH1 0xA0 SHL SUB AND DUP2 JUMP JUMPDEST CALLVALUE DUP1 ISZERO PUSH2 0x7B6 JUMPI PUSH1 0x0 DUP1 REVERT JUMPDEST POP PUSH2 0x481 PUSH2 0x1EEB JUMP JUMPDEST CALLVALUE DUP1 ISZERO PUSH2 0x7CB JUMPI PUSH1 0x0 DUP1 REVERT JUMPDEST POP PUSH2 0x6BF PUSH2 0x7DA CALLDATASIZE PUSH1 0x4 PUSH2 0x40D6 JUMP JUMPDEST PUSH2 0x1F59 JUMP JUMPDEST CALLVALUE DUP1 ISZERO PUSH2 0x7EB JUMPI PUSH1 0x0 DUP1 REVERT JUMPDEST POP PUSH1 0x1A SLOAD PUSH2 0x55A SWAP1 PUSH1 0x1 PUSH1 0xC0 SHL SWAP1 DIV PUSH1 0x1 PUSH1 0x1 PUSH1 0x40 SHL SUB AND DUP2 JUMP JUMPDEST CALLVALUE DUP1 ISZERO PUSH2 0x812 JUMPI PUSH1 0x0 DUP1 REVERT JUMPDEST POP PUSH1 0x1B SLOAD PUSH2 0x55A SWAP1 PUSH1 0x1 PUSH1 0x40 SHL SWAP1 DIV PUSH1 0x1 PUSH1 0x1 PUSH1 0x40 SHL SUB AND DUP2 JUMP JUMPDEST CALLVALUE DUP1 ISZERO PUSH2 0x839 JUMPI PUSH1 0x0 DUP1 REVERT JUMPDEST POP PUSH2 0x4D6 PUSH1 0x17 SLOAD DUP2 JUMP JUMPDEST CALLVALUE DUP1 ISZERO PUSH2 0x84F JUMPI PUSH1 0x0 DUP1 REVERT JUMPDEST POP PUSH2 0x4D6 PUSH1 0xC SLOAD DUP2 JUMP JUMPDEST CALLVALUE DUP1 ISZERO PUSH2 0x865 JUMPI PUSH1 0x0 DUP1 REVERT JUMPDEST POP PUSH2 0x4BE PUSH2 0x874 CALLDATASIZE PUSH1 0x4 PUSH2 0x414D JUMP JUMPDEST PUSH2 0x1F83 JUMP JUMPDEST CALLVALUE DUP1 ISZERO PUSH2 0x885 JUMPI PUSH1 0x0 DUP1 REVERT JUMPDEST POP PUSH2 0x745 PUSH2 0x894 CALLDATASIZE PUSH1 0x4 PUSH2 0x4179 JUMP JUMPDEST PUSH2 0x207D JUMP JUMPDEST CALLVALUE DUP1 ISZERO PUSH2 0x8A5 JUMPI PUSH1 0x0 DUP1 REVERT JUMPDEST POP PUSH2 0x525 PUSH2 0x8B4 CALLDATASIZE PUSH1 0x4 PUSH2 0x407B JUMP JUMPDEST PUSH1 0x1F PUSH1 0x20 MSTORE PUSH1 0x0 SWAP1 DUP2 MSTORE PUSH1 0x40 SWAP1 KECCAK256 SLOAD PUSH1 0x1 PUSH1 0x1 PUSH1 0x80 SHL SUB DUP1 DUP3 AND SWAP2 PUSH1 0x1 PUSH1 0x80 SHL SWAP1 DIV AND DUP3 JUMP JUMPDEST CALLVALUE DUP1 ISZERO PUSH2 0x8E6 JUMPI PUSH1 0x0 DUP1 REVERT JUMPDEST POP PUSH2 0x745 PUSH2 0x8F5 CALLDATASIZE PUSH1 0x4 PUSH2 0x414D JUMP JUMPDEST PUSH2 0x22AD JUMP JUMPDEST CALLVALUE DUP1 ISZERO PUSH2 0x906 JUMPI PUSH1 0x0 DUP1 REVERT JUMPDEST POP PUSH2 0x4D6 PUSH1 0xB SLOAD DUP2 JUMP JUMPDEST PUSH2 0x4BE PUSH2 0x91E CALLDATASIZE PUSH1 0x4 PUSH2 0x419B JUMP JUMPDEST PUSH2 0x236D JUMP JUMPDEST CALLVALUE DUP1 ISZERO PUSH2 0x92F JUMPI PUSH1 0x0 DUP1 REVERT JUMPDEST POP PUSH2 0x4D6 PUSH2 0x93E CALLDATASIZE PUSH1 0x4 PUSH2 0x407B JUMP JUMPDEST PUSH1 0x1 PUSH1 0x1 PUSH1 0xA0 SHL SUB AND PUSH1 0x0 SWAP1 DUP2 MSTORE PUSH1 0x1 PUSH1 0x20 MSTORE PUSH1 0x40 SWAP1 KECCAK256 SLOAD SWAP1 JUMP JUMPDEST CALLVALUE DUP1 ISZERO PUSH2 0x965 JUMPI PUSH1 0x0 DUP1 REVERT JUMPDEST POP PUSH1 0x1A SLOAD PUSH2 0x55A SWAP1 PUSH1 0x1 PUSH1 0x80 SHL SWAP1 DIV PUSH1 0x1 PUSH1 0x1 PUSH1 0x40 SHL SUB AND DUP2 JUMP JUMPDEST CALLVALUE DUP1 ISZERO PUSH2 0x98C JUMPI PUSH1 0x0 DUP1 REVERT JUMPDEST POP PUSH2 0x4D6 PUSH1 0x15 SLOAD DUP2 JUMP JUMPDEST CALLVALUE DUP1 ISZERO PUSH2 0x9A2 JUMPI PUSH1 0x0 DUP1 REVERT JUMPDEST POP PUSH2 0x4D6 PUSH1 0x14 SLOAD DUP2 JUMP JUMPDEST CALLVALUE DUP1 ISZERO PUSH2 0x9B8 JUMPI PUSH1 0x0 DUP1 REVERT JUMPDEST POP PUSH2 0x745 PUSH2 0x9C7 CALLDATASIZE PUSH1 0x4 PUSH2 0x414D JUMP JUMPDEST PUSH2 0x263F JUMP JUMPDEST CALLVALUE DUP1 ISZERO PUSH2 0x9D8 JUMPI PUSH1 0x0 DUP1 REVERT JUMPDEST POP PUSH2 0x55A PUSH2 0x26FF JUMP JUMPDEST PUSH2 0x4BE PUSH2 0x9EF CALLDATASIZE PUSH1 0x4 PUSH2 0x40BB JUMP JUMPDEST PUSH2 0x272B JUMP JUMPDEST CALLVALUE DUP1 ISZERO PUSH2 0xA00 JUMPI PUSH1 0x0 DUP1 REVERT JUMPDEST POP PUSH1 0x3 SLOAD PUSH2 0x6BF SWAP1 PUSH1 0x1 PUSH1 0x1 PUSH1 0xA0 SHL SUB AND DUP2 JUMP JUMPDEST CALLVALUE DUP1 ISZERO PUSH2 0xA20 JUMPI PUSH1 0x0 DUP1 REVERT JUMPDEST POP PUSH2 0x481 PUSH2 0xA2F CALLDATASIZE PUSH1 0x4 PUSH2 0x407B JUMP JUMPDEST PUSH2 0x277A JUMP JUMPDEST CALLVALUE DUP1 ISZERO PUSH2 0xA40 JUMPI PUSH1 0x0 DUP1 REVERT JUMPDEST POP PUSH2 0x481 PUSH2 0x27B8 JUMP JUMPDEST CALLVALUE DUP1 ISZERO PUSH2 0xA55 JUMPI PUSH1 0x0 DUP1 REVERT JUMPDEST POP PUSH2 0x55A PUSH2 0x282C JUMP JUMPDEST CALLVALUE DUP1 ISZERO PUSH2 0xA6A JUMPI PUSH1 0x0 DUP1 REVERT JUMPDEST POP PUSH2 0x4BE PUSH2 0xA79 CALLDATASIZE PUSH1 0x4 PUSH2 0x4106 JUMP JUMPDEST PUSH2 0x2866 JUMP JUMPDEST CALLVALUE DUP1 ISZERO PUSH2 0xA8A JUMPI PUSH1 0x0 DUP1 REVERT JUMPDEST POP PUSH2 0x4BE PUSH2 0xA99 CALLDATASIZE PUSH1 0x4 PUSH2 0x4106 JUMP JUMPDEST PUSH2 0x2A5D JUMP JUMPDEST CALLVALUE DUP1 ISZERO PUSH2 0xAAA JUMPI PUSH1 0x0 DUP1 REVERT JUMPDEST POP PUSH2 0x55A PUSH2 0x2BC3 JUMP JUMPDEST CALLVALUE DUP1 ISZERO PUSH2 0xABF JUMPI PUSH1 0x0 DUP1 REVERT JUMPDEST POP PUSH2 0x4D6 PUSH1 0x9 SLOAD DUP2 JUMP JUMPDEST CALLVALUE DUP1 ISZERO PUSH2 0xAD5 JUMPI PUSH1 0x0 DUP1 REVERT JUMPDEST POP PUSH2 0x4D6 PUSH1 0xA SLOAD DUP2 JUMP JUMPDEST CALLVALUE DUP1 ISZERO PUSH2 0xAEB JUMPI PUSH1 0x0 DUP1 REVERT JUMPDEST POP PUSH2 0x481 PUSH2 0xAFA CALLDATASIZE PUSH1 0x4 PUSH2 0x407B JUMP JUMPDEST PUSH2 0x2BFD JUMP JUMPDEST CALLVALUE DUP1 ISZERO PUSH2 0xB0B JUMPI PUSH1 0x0 DUP1 REVERT JUMPDEST POP PUSH2 0x525 PUSH2 0xB1A CALLDATASIZE PUSH1 0x4 PUSH2 0x407B JUMP JUMPDEST PUSH1 0x20 DUP1 MSTORE PUSH1 0x0 SWAP1 DUP2 MSTORE PUSH1 0x40 SWAP1 KECCAK256 SLOAD PUSH1 0x1 PUSH1 0x1 PUSH1 0x80 SHL SUB DUP1 DUP3 AND SWAP2 PUSH1 0x1 PUSH1 0x80 SHL SWAP1 DIV AND DUP3 JUMP JUMPDEST CALLVALUE DUP1 ISZERO PUSH2 0xB4B JUMPI PUSH1 0x0 DUP1 REVERT JUMPDEST POP PUSH2 0x4BE PUSH2 0xB5A CALLDATASIZE PUSH1 0x4 PUSH2 0x4106 JUMP JUMPDEST PUSH2 0x2C3B JUMP JUMPDEST CALLVALUE DUP1 ISZERO PUSH2 0xB6B JUMPI PUSH1 0x0 DUP1 REVERT JUMPDEST POP PUSH2 0x4BE PUSH2 0xB7A CALLDATASIZE PUSH1 0x4 PUSH2 0x4106 JUMP JUMPDEST PUSH2 0x2E1E JUMP JUMPDEST CALLVALUE DUP1 ISZERO PUSH2 0xB8B JUMPI PUSH1 0x0 DUP1 REVERT JUMPDEST POP PUSH2 0x4D6 PUSH1 0x8 SLOAD DUP2 JUMP JUMPDEST CALLVALUE DUP1 ISZERO PUSH2 0xBA1 JUMPI PUSH1 0x0 DUP1 REVERT JUMPDEST POP PUSH2 0x4D6 PUSH1 0x6 SLOAD DUP2 JUMP JUMPDEST CALLVALUE DUP1 ISZERO PUSH2 0xBB7 JUMPI PUSH1 0x0 DUP1 REVERT JUMPDEST POP PUSH2 0x481 PUSH2 0x302D JUMP JUMPDEST CALLVALUE DUP1 ISZERO PUSH2 0xBCC JUMPI PUSH1 0x0 DUP1 REVERT JUMPDEST POP PUSH1 0x19 SLOAD PUSH2 0x55A SWAP1 PUSH1 0x1 PUSH1 0x40 SHL SWAP1 DIV PUSH1 0x1 PUSH1 0x1 PUSH1 0x40 SHL SUB AND DUP2 JUMP JUMPDEST CALLVALUE DUP1 ISZERO PUSH2 0xBF3 JUMPI PUSH1 0x0 DUP1 REVERT JUMPDEST POP PUSH2 0x6BF PUSH2 0xC02 CALLDATASIZE PUSH1 0x4 PUSH2 0x40D6 JUMP JUMPDEST PUSH2 0x30B1 JUMP JUMPDEST CALLVALUE DUP1 ISZERO PUSH2 0xC13 JUMPI PUSH1 0x0 DUP1 REVERT JUMPDEST POP PUSH2 0x4D6 PUSH1 0x18 SLOAD DUP2 JUMP JUMPDEST CALLVALUE DUP1 ISZERO PUSH2 0xC29 JUMPI PUSH1 0x0 DUP1 REVERT JUMPDEST POP PUSH1 0x1C SLOAD PUSH2 0x481 SWAP1 PUSH1 0x1 PUSH1 0x80 SHL SWAP1 DIV PUSH1 0x1 PUSH1 0x1 PUSH1 0x80 SHL SUB AND DUP2 JUMP JUMPDEST CALLVALUE DUP1 ISZERO PUSH2 0xC50 JUMPI PUSH1 0x0 DUP1 REVERT JUMPDEST POP PUSH1 0x1A SLOAD PUSH2 0x55A SWAP1 PUSH1 0x1 PUSH1 0x40 SHL SWAP1 DIV PUSH1 0x1 PUSH1 0x1 PUSH1 0x40 SHL SUB AND DUP2 JUMP JUMPDEST CALLVALUE DUP1 ISZERO PUSH2 0xC77 JUMPI PUSH1 0x0 DUP1 REVERT JUMPDEST POP PUSH2 0x4D6 PUSH1 0x16 SLOAD DUP2 JUMP JUMPDEST CALLVALUE DUP1 ISZERO PUSH2 0xC8D JUMPI PUSH1 0x0 DUP1 REVERT JUMPDEST POP PUSH1 0x2 SLOAD PUSH2 0x6BF SWAP1 PUSH1 0x1 PUSH1 0x1 PUSH1 0xA0 SHL SUB AND DUP2 JUMP JUMPDEST CALLVALUE DUP1 ISZERO PUSH2 0xCAD JUMPI PUSH1 0x0 DUP1 REVERT JUMPDEST POP PUSH2 0x481 PUSH2 0x30C1 JUMP JUMPDEST CALLVALUE DUP1 ISZERO PUSH2 0xCC2 JUMPI PUSH1 0x0 DUP1 REVERT JUMPDEST POP PUSH2 0x4BE PUSH2 0xCD1 CALLDATASIZE PUSH1 0x4 PUSH2 0x40D6 JUMP JUMPDEST PUSH2 0x3148 JUMP JUMPDEST CALLVALUE DUP1 ISZERO PUSH2 0xCE2 JUMPI PUSH1 0x0 DUP1 REVERT JUMPDEST POP PUSH1 0x10 SLOAD PUSH2 0x6BF SWAP1 PUSH1 0x1 PUSH1 0x1 PUSH1 0xA0 SHL SUB AND DUP2 JUMP JUMPDEST CALLVALUE DUP1 ISZERO PUSH2 0xD02 JUMPI PUSH1 0x0 DUP1 REVERT JUMPDEST POP PUSH1 0x1C SLOAD PUSH2 0x481 SWAP1 PUSH1 0x1 PUSH1 0x1 PUSH1 0x80 SHL SUB AND DUP2 JUMP JUMPDEST CALLVALUE DUP1 ISZERO PUSH2 0xD22 JUMPI PUSH1 0x0 DUP1 REVERT JUMPDEST POP PUSH1 0x1B SLOAD PUSH2 0x481 SWAP1 PUSH1 0x1 PUSH1 0x80 SHL SWAP1 DIV PUSH1 0x1 PUSH1 0x1 PUSH1 0x80 SHL SUB AND DUP2 JUMP JUMPDEST CALLVALUE DUP1 ISZERO PUSH2 0xD49 JUMPI PUSH1 0x0 DUP1 REVERT JUMPDEST POP PUSH2 0x481 PUSH2 0x3ABE JUMP JUMPDEST CALLVALUE DUP1 ISZERO PUSH2 0xD5E JUMPI PUSH1 0x0 DUP1 REVERT JUMPDEST POP PUSH2 0x4D6 PUSH1 0x12 SLOAD DUP2 JUMP JUMPDEST CALLVALUE DUP1 ISZERO PUSH2 0xD74 JUMPI PUSH1 0x0 DUP1 REVERT JUMPDEST POP PUSH2 0x4D6 PUSH1 0x13 SLOAD DUP2 JUMP JUMPDEST CALLVALUE DUP1 ISZERO PUSH2 0xD8A JUMPI PUSH1 0x0 DUP1 REVERT JUMPDEST POP PUSH2 0x4BE PUSH2 0x3B45 JUMP JUMPDEST CALLVALUE DUP1 ISZERO PUSH2 0xD9F JUMPI PUSH1 0x0 DUP1 REVERT JUMPDEST POP PUSH1 0x19 SLOAD PUSH2 0x55A SWAP1 PUSH1 0x1 PUSH1 0x1 PUSH1 0x40 SHL SUB AND DUP2 JUMP JUMPDEST CALLVALUE DUP1 ISZERO PUSH2 0xDBF JUMPI PUSH1 0x0 DUP1 REVERT JUMPDEST POP PUSH1 0x1A SLOAD PUSH2 0x55A SWAP1 PUSH1 0x1 PUSH1 0x1 PUSH1 0x40 SHL SUB AND DUP2 JUMP JUMPDEST CALLVALUE DUP1 ISZERO PUSH2 0xDDF JUMPI PUSH1 0x0 DUP1 REVERT JUMPDEST POP PUSH1 0x1B SLOAD PUSH2 0x55A SWAP1 PUSH1 0x1 PUSH1 0x1 PUSH1 0x40 SHL SUB AND DUP2 JUMP JUMPDEST CALLVALUE DUP1 ISZERO PUSH2 0xDFF JUMPI PUSH1 0x0 DUP1 REVERT JUMPDEST POP PUSH1 0x11 SLOAD PUSH2 0x6BF SWAP1 PUSH1 0x1 PUSH1 0x1 PUSH1 0xA0 SHL SUB AND DUP2 JUMP JUMPDEST CALLVALUE DUP1 ISZERO PUSH2 0xE1F JUMPI PUSH1 0x0 DUP1 REVERT JUMPDEST POP PUSH1 0x1D SLOAD PUSH2 0x481 SWAP1 PUSH1 0x1 PUSH1 0x1 PUSH1 0x80 SHL SUB AND DUP2 JUMP JUMPDEST CALLVALUE DUP1 ISZERO PUSH2 0xE3F JUMPI PUSH1 0x0 DUP1 REVERT JUMPDEST POP PUSH1 0x1D SLOAD PUSH2 0x481 SWAP1 PUSH1 0x1 PUSH1 0x80 SHL SWAP1 DIV PUSH1 0x1 PUSH1 0x1 PUSH1 0x80 SHL SUB AND DUP2 JUMP JUMPDEST CALLVALUE DUP1 ISZERO PUSH2 0xE66 JUMPI PUSH1 0x0 DUP1 REVERT JUMPDEST POP PUSH2 0x481 PUSH2 0xE75 CALLDATASIZE PUSH1 0x4 PUSH2 0x407B JUMP JUMPDEST PUSH2 0x3B68 JUMP JUMPDEST PUSH1 0x1 PUSH1 0x1 PUSH1 0xA0 SHL SUB DUP2 AND PUSH1 0x0 SWAP1 DUP2 MSTORE PUSH1 0x1E PUSH1 0x20 MSTORE PUSH1 0x40 DUP2 KECCAK256 SLOAD PUSH1 0x1 PUSH1 0x1 PUSH1 0x80 SHL SUB PUSH1 0x1 PUSH1 0x80 SHL DUP3 DIV DUP2 AND SWAP2 PUSH8 0xDE0B6B3A7640000 SWAP2 AND PUSH2 0xEB8 PUSH2 0x30C1 JUMP JUMPDEST SUB PUSH1 0x1 PUSH1 0x1 PUSH1 0x80 SHL SUB AND PUSH2 0xEE1 DUP6 PUSH1 0x1 PUSH1 0x1 PUSH1 0xA0 SHL SUB AND PUSH1 0x0 SWAP1 DUP2 MSTORE PUSH1 0x1 PUSH1 0x20 MSTORE PUSH1 0x40 SWAP1 KECCAK256 SLOAD SWAP1 JUMP JUMPDEST MUL DUP2 PUSH2 0xEEF JUMPI PUSH2 0xEEF PUSH2 0x41C7 JUMP JUMPDEST DIV ADD SWAP3 SWAP2 POP POP JUMP JUMPDEST CALLER PUSH1 0x0 PUSH2 0xF02 PUSH2 0x30C1 JUMP JUMPDEST SWAP1 POP PUSH1 0x0 PUSH2 0xF0E PUSH2 0x27B8 JUMP JUMPDEST SWAP1 POP PUSH1 0x0 PUSH2 0xF1A PUSH2 0x3ABE JUMP JUMPDEST SWAP1 POP PUSH1 0x0 PUSH2 0xF26 PUSH2 0x1EEB JUMP JUMPDEST SWAP1 POP PUSH1 0x0 PUSH2 0xF32 PUSH2 0x302D JUMP JUMPDEST SWAP1 POP PUSH2 0xF3C PUSH2 0x26FF JUMP JUMPDEST PUSH1 0x1A PUSH1 0x8 PUSH2 0x100 EXP DUP2 SLOAD DUP2 PUSH1 0x1 PUSH1 0x1 PUSH1 0x40 SHL SUB MUL NOT AND SWAP1 DUP4 PUSH1 0x1 PUSH1 0x1 PUSH1 0x40 SHL SUB AND MUL OR SWAP1 SSTORE POP PUSH2 0xF6A PUSH2 0x282C JUMP JUMPDEST PUSH1 0x1A PUSH1 0x10 PUSH2 0x100 EXP DUP2 SLOAD DUP2 PUSH1 0x1 PUSH1 0x1 PUSH1 0x40 SHL SUB MUL NOT AND SWAP1 DUP4 PUSH1 0x1 PUSH1 0x1 PUSH1 0x40 SHL SUB AND MUL OR SWAP1 SSTORE POP PUSH2 0xF98 PUSH2 0x2BC3 JUMP JUMPDEST PUSH1 0x1A PUSH1 0x18 PUSH2 0x100 EXP DUP2 SLOAD DUP2 PUSH1 0x1 PUSH1 0x1 PUSH1 0x40 SHL SUB MUL NOT AND SWAP1 DUP4 PUSH1 0x1 PUSH1 0x1 PUSH1 0x40 SHL SUB AND MUL OR SWAP1 SSTORE POP PUSH2 0xFC6 PUSH2 0x13DA JUMP JUMPDEST PUSH1 0x1B DUP1 SLOAD PUSH1 0x1 PUSH1 0x1 PUSH1 0x40 SHL SUB SWAP3 SWAP1 SWAP3 AND PUSH8 0xFFFFFFFFFFFFFFFF PUSH1 0x40 SHL SWAP1 SWAP3 AND SWAP2 SWAP1 SWAP2 OR PUSH1 0x1 PUSH1 0x80 SHL PUSH1 0x1 PUSH1 0x1 PUSH1 0x80 SHL SUB DUP9 DUP2 AND DUP3 MUL SWAP3 SWAP1 SWAP3 OR SWAP1 SWAP3 SSTORE DUP6 DUP2 AND DUP6 DUP3 AND DUP4 MUL OR PUSH1 0x1C SSTORE DUP4 DUP2 AND SWAP1 DUP4 AND SWAP1 SWAP2 MUL OR PUSH1 0x1D SSTORE PUSH2 0x1024 DUP7 PUSH2 0xE7A JUMP JUMPDEST PUSH1 0x1 PUSH1 0x1 PUSH1 0xA0 SHL SUB DUP8 AND PUSH1 0x0 SWAP1 DUP2 MSTORE PUSH1 0x1E PUSH1 0x20 MSTORE PUSH1 0x40 SWAP1 KECCAK256 DUP1 SLOAD PUSH1 0x1 PUSH1 0x1 PUSH1 0x80 SHL SUB SWAP3 DUP4 AND PUSH1 0x1 PUSH1 0x80 SHL MUL SWAP3 AND SWAP2 SWAP1 SWAP2 OR SWAP1 SSTORE PUSH2 0x1060 DUP7 PUSH2 0x3B68 JUMP JUMPDEST PUSH1 0x1 PUSH1 0x1 PUSH1 0xA0 SHL SUB DUP8 AND PUSH1 0x0 SWAP1 DUP2 MSTORE PUSH1 0x1F PUSH1 0x20 MSTORE PUSH1 0x40 SWAP1 KECCAK256 DUP1 SLOAD PUSH1 0x1 PUSH1 0x1 PUSH1 0x80 SHL SUB SWAP3 DUP4 AND PUSH1 0x1 PUSH1 0x80 SHL MUL SWAP3 AND SWAP2 SWAP1 SWAP2 OR SWAP1 SSTORE PUSH2 0x109C DUP7 PUSH2 0x1632 JUMP JUMPDEST PUSH1 0x1 PUSH1 0x1 PUSH1 0xA0 SHL SUB DUP8 AND PUSH1 0x0 SWAP1 DUP2 MSTORE PUSH1 0x20 DUP1 MSTORE PUSH1 0x40 SWAP1 KECCAK256 DUP1 SLOAD PUSH1 0x1 PUSH1 0x1 PUSH1 0x80 SHL SUB SWAP3 DUP4 AND PUSH1 0x1 PUSH1 0x80 SHL MUL SWAP3 AND SWAP2 SWAP1 SWAP2 OR SWAP1 SSTORE PUSH2 0x10D7 DUP7 PUSH2 0x2BFD JUMP JUMPDEST PUSH1 0x1 PUSH1 0x1 PUSH1 0xA0 SHL SUB DUP8 AND PUSH1 0x0 SWAP1 DUP2 MSTORE PUSH1 0x21 PUSH1 0x20 SWAP1 DUP2 MSTORE PUSH1 0x40 DUP1 DUP4 KECCAK256 DUP1 SLOAD PUSH1 0x1 PUSH1 0x1 PUSH1 0x80 SHL SUB SWAP6 DUP7 AND PUSH1 0x1 PUSH1 0x80 SHL MUL SWAP1 DUP7 AND OR DUP2 SSTORE PUSH1 0x1E DUP4 MSTORE DUP2 DUP5 KECCAK256 DUP1 SLOAD DUP12 DUP8 AND PUSH1 0x1 PUSH1 0x1 PUSH1 0x80 SHL SUB NOT SWAP2 DUP3 AND OR SWAP1 SWAP2 SSTORE PUSH1 0x1F DUP5 MSTORE DUP3 DUP6 KECCAK256 DUP1 SLOAD DUP12 DUP9 AND SWAP1 DUP4 AND OR SWAP1 SSTORE DUP4 DUP1 MSTORE DUP3 DUP6 KECCAK256 DUP1 SLOAD DUP11 DUP9 AND SWAP1 DUP4 AND OR SWAP1 SSTORE DUP2 SLOAD DUP9 DUP8 AND SWAP1 DUP3 AND OR SWAP1 SWAP2 SSTORE PUSH1 0x22 SWAP1 SWAP3 MSTORE SWAP1 SWAP2 KECCAK256 DUP1 SLOAD SWAP3 DUP5 AND SWAP3 SWAP1 SWAP2 AND SWAP2 SWAP1 SWAP2 OR SWAP1 SSTORE PUSH2 0x1176 DUP8 PUSH2 0x3BA2 JUMP JUMPDEST POP POP POP POP POP POP POP JUMP JUMPDEST PUSH1 0x1A SLOAD PUSH1 0x0 SWAP1 TIMESTAMP SWAP1 PUSH1 0x1 PUSH1 0x1 PUSH1 0x40 SHL SUB SWAP1 DUP2 AND SWAP1 DUP3 AND LT PUSH2 0x11AB JUMPI PUSH1 0x1A SLOAD PUSH1 0x1 PUSH1 0x1 PUSH1 0x40 SHL SUB AND PUSH2 0x11AD JUMP JUMPDEST DUP1 JUMPDEST SWAP2 POP POP SWAP1 JUMP JUMPDEST PUSH1 0x40 MLOAD PUSH4 0xAA5FB8E1 PUSH1 0xE0 SHL DUP2 MSTORE PUSH1 0x2 PUSH1 0x4 DUP3 ADD MSTORE PUSH1 0x16 PUSH1 0x24 DUP3 ADD MSTORE ADDRESS SWAP1 PUSH4 0xAA5FB8E1 SWAP1 PUSH1 0x44 ADD PUSH1 0x0 PUSH1 0x40 MLOAD DUP1 DUP4 SUB DUP2 PUSH1 0x0 DUP8 DUP1 EXTCODESIZE ISZERO DUP1 ISZERO PUSH2 0x11F3 JUMPI PUSH1 0x0 DUP1 REVERT JUMPDEST POP GAS CALL ISZERO DUP1 ISZERO PUSH2 0x1207 JUMPI RETURNDATASIZE PUSH1 0x0 DUP1 RETURNDATACOPY RETURNDATASIZE PUSH1 0x0 REVERT JUMPDEST POP POP PUSH1 0x40 MLOAD PUSH4 0x4DCD6AEB PUSH1 0xE1 SHL DUP2 MSTORE PUSH1 0x2 PUSH1 0x4 DUP3 ADD MSTORE PUSH1 0x16 PUSH1 0x24 DUP3 ADD MSTORE ADDRESS SWAP3 POP PUSH4 0x9B9AD5D6 SWAP2 POP PUSH1 0x44 ADD PUSH1 0x0 PUSH1 0x40 MLOAD DUP1 DUP4 SUB DUP2 PUSH1 0x0 DUP8 DUP1 EXTCODESIZE ISZERO DUP1 ISZERO PUSH2 0x124B JUMPI PUSH1 0x0 DUP1 REVERT JUMPDEST POP GAS CALL ISZERO DUP1 ISZERO PUSH2 0x125F JUMPI RETURNDATASIZE PUSH1 0x0 DUP1 RETURNDATACOPY RETURNDATASIZE PUSH1 0x0 REVERT JUMPDEST POP POP PUSH1 0x40 MLOAD PUSH4 0x9DDD674B PUSH1 0xE0 SHL DUP2 MSTORE PUSH1 0x2 PUSH1 0x4 DUP3 ADD MSTORE PUSH1 0x16 PUSH1 0x24 DUP3 ADD MSTORE ADDRESS SWAP3 POP PUSH4 0x9DDD674B SWAP2 POP PUSH1 0x44 ADD PUSH1 0x0 PUSH1 0x40 MLOAD DUP1 DUP4 SUB DUP2 PUSH1 0x0 DUP8 DUP1 EXTCODESIZE ISZERO DUP1 ISZERO PUSH2 0x12A3 JUMPI PUSH1 0x0 DUP1 REVERT JUMPDEST POP GAS CALL ISZERO DUP1 ISZERO PUSH2 0x12B7 JUMPI RETURNDATASIZE PUSH1 0x0 DUP1 RETURNDATACOPY RETURNDATASIZE PUSH1 0x0 REVERT JUMPDEST POP POP POP POP DUP1 PUSH1 0x1 EQ ISZERO PUSH2 0x131D JUMPI PUSH1 0x40 MLOAD PUSH4 0xAC07E3D7 PUSH1 0xE0 SHL DUP2 MSTORE PUSH1 0x3 PUSH1 0x4 DUP3 ADD MSTORE PUSH1 0x21 PUSH1 0x24 DUP3 ADD MSTORE ADDRESS SWAP1 PUSH4 0xAC07E3D7 SWAP1 PUSH1 0x44 ADD PUSH1 0x0 PUSH1 0x40 MLOAD DUP1 DUP4 SUB DUP2 PUSH1 0x0 DUP8 DUP1 EXTCODESIZE ISZERO DUP1 ISZERO PUSH2 0x1304 JUMPI PUSH1 0x0 DUP1 REVERT JUMPDEST POP GAS CALL ISZERO DUP1 ISZERO PUSH2 0x1318 JUMPI RETURNDATASIZE PUSH1 0x0 DUP1 RETURNDATACOPY RETURNDATASIZE PUSH1 0x0 REVERT JUMPDEST POP POP POP POP JUMPDEST DUP1 PUSH1 0x2 EQ ISZERO PUSH2 0x13D7 JUMPI PUSH1 0x40 MLOAD PUSH4 0x43AE071 PUSH1 0xE2 SHL DUP2 MSTORE PUSH1 0x3 PUSH1 0x4 DUP3 ADD MSTORE PUSH1 0x21 PUSH1 0x24 DUP3 ADD MSTORE ADDRESS SWAP1 PUSH4 0x10EB81C4 SWAP1 PUSH1 0x44 ADD PUSH1 0x0 PUSH1 0x40 MLOAD DUP1 DUP4 SUB DUP2 PUSH1 0x0 DUP8 DUP1 EXTCODESIZE ISZERO DUP1 ISZERO PUSH2 0x1366 JUMPI PUSH1 0x0 DUP1 REVERT JUMPDEST POP GAS CALL ISZERO DUP1 ISZERO PUSH2 0x137A JUMPI RETURNDATASIZE PUSH1 0x0 DUP1 RETURNDATACOPY RETURNDATASIZE PUSH1 0x0 REVERT JUMPDEST POP POP PUSH1 0x40 MLOAD PUSH4 0xAC07E3D7 PUSH1 0xE0 SHL DUP2 MSTORE PUSH1 0x3 PUSH1 0x4 DUP3 ADD MSTORE PUSH1 0x21 PUSH1 0x24 DUP3 ADD MSTORE ADDRESS SWAP3 POP PUSH4 0xAC07E3D7 SWAP2 POP PUSH1 0x44 ADD PUSH1 0x0 PUSH1 0x40 MLOAD DUP1 DUP4 SUB DUP2 PUSH1 0x0 DUP8 DUP1 EXTCODESIZE ISZERO DUP1 ISZERO PUSH2 0x13BE JUMPI PUSH1 0x0 DUP1 REVERT JUMPDEST POP GAS CALL ISZERO DUP1 ISZERO PUSH2 0x13D2 JUMPI RETURNDATASIZE PUSH1 0x0 DUP1 RETURNDATACOPY RETURNDATASIZE PUSH1 0x0 REVERT JUMPDEST POP POP POP POP JUMPDEST POP JUMP JUMPDEST PUSH1 0x19 SLOAD PUSH1 0x0 SWAP1 TIMESTAMP SWAP1 PUSH1 0x1 PUSH1 0x1 PUSH1 0x40 SHL SUB PUSH1 0x1 PUSH1 0xC0 SHL SWAP1 SWAP2 DIV DUP2 AND SWAP1 DUP3 AND LT PUSH2 0x11AB JUMPI PUSH1 0x19 SLOAD PUSH1 0x1 PUSH1 0xC0 SHL SWAP1 DIV PUSH1 0x1 PUSH1 0x1 PUSH1 0x40 SHL SUB AND PUSH2 0x11AD JUMP JUMPDEST PUSH1 0x0 DUP3 GT PUSH2 0x1421 JUMPI PUSH1 0x0 DUP1 REVERT JUMPDEST POP PUSH1 0x7 SLOAD PUSH1 0x1 PUSH1 0x1 PUSH1 0x40 SHL SUB AND PUSH2 0x1436 PUSH2 0x302D JUMP JUMPDEST PUSH1 0x1D DUP1 SLOAD PUSH1 0x1 PUSH1 0x1 PUSH1 0x80 SHL SUB SWAP3 DUP4 AND PUSH1 0x1 PUSH1 0x80 SHL MUL SWAP3 AND SWAP2 SWAP1 SWAP2 OR SWAP1 SSTORE TIMESTAMP PUSH1 0x3 PUSH1 0x1 PUSH1 0x1 PUSH1 0x40 SHL SUB PUSH1 0x4 DUP5 MUL AND DIV PUSH1 0x19 PUSH1 0x18 SWAP1 SLOAD SWAP1 PUSH2 0x100 EXP SWAP1 DIV PUSH1 0x1 PUSH1 0x1 PUSH1 0x40 SHL SUB AND ADD PUSH1 0x1 PUSH1 0x1 PUSH1 0x40 SHL SUB AND DUP2 PUSH1 0x1 PUSH1 0x1 PUSH1 0x40 SHL SUB AND GT PUSH2 0x14B4 JUMPI PUSH1 0x40 MLOAD PUSH3 0x461BCD PUSH1 0xE5 SHL DUP2 MSTORE PUSH1 0x4 ADD PUSH2 0x14AB SWAP1 PUSH2 0x41DD JUMP JUMPDEST PUSH1 0x40 MLOAD DUP1 SWAP2 SUB SWAP1 REVERT JUMPDEST PUSH1 0xC SLOAD PUSH1 0xE SLOAD PUSH1 0x40 MLOAD PUSH4 0x70A08231 PUSH1 0xE0 SHL DUP2 MSTORE ADDRESS PUSH1 0x4 DUP3 ADD MSTORE PUSH1 0x0 SWAP3 SWAP2 PUSH1 0x1 PUSH1 0x1 PUSH1 0xA0 SHL SUB AND SWAP1 PUSH4 0x70A08231 SWAP1 PUSH1 0x24 ADD PUSH1 0x20 PUSH1 0x40 MLOAD DUP1 DUP4 SUB DUP2 DUP7 GAS STATICCALL ISZERO DUP1 ISZERO PUSH2 0x1501 JUMPI RETURNDATASIZE PUSH1 0x0 DUP1 RETURNDATACOPY RETURNDATASIZE PUSH1 0x0 REVERT JUMPDEST POP POP POP POP PUSH1 0x40 MLOAD RETURNDATASIZE PUSH1 0x1F NOT PUSH1 0x1F DUP3 ADD AND DUP3 ADD DUP1 PUSH1 0x40 MSTORE POP DUP2 ADD SWAP1 PUSH2 0x1525 SWAP2 SWAP1 PUSH2 0x424F JUMP JUMPDEST PUSH1 0x1A SLOAD PUSH1 0x2 SLOAD PUSH1 0xF SLOAD SWAP4 SWAP1 SWAP3 SUB SWAP4 POP PUSH1 0x1 PUSH1 0x1 PUSH1 0x40 SHL SUB SWAP1 DUP2 AND DUP6 SUB AND SWAP2 PUSH1 0x1 PUSH1 0x1 PUSH1 0xA0 SHL SUB SWAP1 DUP2 AND SWAP2 AND EQ ISZERO PUSH2 0x155E JUMPI PUSH1 0x0 SLOAD DUP3 SUB SWAP2 POP JUMPDEST DUP4 PUSH1 0x1 PUSH1 0x1 PUSH1 0x40 SHL SUB AND DUP3 GT ISZERO PUSH2 0x1596 JUMPI PUSH1 0x1 PUSH1 0x1 PUSH1 0x40 SHL SUB DUP5 AND PUSH1 0xA PUSH1 0x4 DUP5 MUL DIV DUP2 PUSH2 0x158D JUMPI PUSH2 0x158D PUSH2 0x41C7 JUMP JUMPDEST DIV PUSH1 0x18 SSTORE PUSH2 0x159C JUMP JUMPDEST PUSH1 0x0 PUSH1 0x18 SSTORE JUMPDEST PUSH1 0x1B DUP1 SLOAD PUSH8 0xFFFFFFFFFFFFFFFF PUSH1 0x40 SHL NOT AND PUSH1 0x1 PUSH1 0x40 SHL PUSH1 0x1 PUSH1 0x1 PUSH1 0x40 SHL SUB DUP7 DUP2 AND SWAP2 SWAP1 SWAP2 MUL SWAP2 SWAP1 SWAP2 OR SWAP1 SWAP2 SSTORE PUSH1 0x1A DUP1 SLOAD PUSH8 0xFFFFFFFFFFFFFFFF NOT AND DUP7 DUP7 ADD SWAP1 SWAP3 AND SWAP2 SWAP1 SWAP2 OR SWAP1 SSTORE PUSH1 0x8 SLOAD PUSH1 0xA PUSH1 0x4 DUP5 MUL DIV SWAP1 DUP2 ADD PUSH1 0xC SSTORE PUSH1 0x40 MLOAD DUP2 DUP2 MSTORE SWAP1 SWAP6 POP PUSH32 0x9E0EA166A59C148D4334C77B0EDA4EA4819DF6A57E58A0FC764F8EC5CAE7927C SWAP1 PUSH1 0x20 ADD JUMPDEST PUSH1 0x40 MLOAD DUP1 SWAP2 SUB SWAP1 LOG1 POP POP POP POP POP JUMP JUMPDEST PUSH1 0x1 PUSH1 0x1 PUSH1 0xA0 SHL SUB DUP2 AND PUSH1 0x0 SWAP1 DUP2 MSTORE PUSH1 0x20 DUP1 MSTORE PUSH1 0x40 DUP2 KECCAK256 SLOAD PUSH1 0x1 PUSH1 0x1 PUSH1 0x80 SHL SUB PUSH1 0x1 PUSH1 0x80 SHL DUP3 DIV DUP2 AND SWAP2 PUSH8 0xDE0B6B3A7640000 SWAP2 AND PUSH2 0xEB8 PUSH2 0x3ABE JUMP JUMPDEST PUSH1 0x0 DUP1 DUP1 JUMPDEST PUSH1 0x4 SLOAD DUP2 LT ISZERO PUSH2 0x16CD JUMPI CALLER PUSH1 0x1 PUSH1 0x1 PUSH1 0xA0 SHL SUB AND PUSH1 0x4 DUP3 DUP2 SLOAD DUP2 LT PUSH2 0x169B JUMPI PUSH2 0x169B PUSH2 0x4268 JUMP JUMPDEST PUSH1 0x0 SWAP2 DUP3 MSTORE PUSH1 0x20 SWAP1 SWAP2 KECCAK256 ADD SLOAD PUSH1 0x1 PUSH1 0x1 PUSH1 0xA0 SHL SUB AND EQ ISZERO PUSH2 0x16BB JUMPI PUSH1 0x1 SWAP2 POP JUMPDEST DUP1 PUSH2 0x16C5 DUP2 PUSH2 0x4294 JUMP JUMPDEST SWAP2 POP POP PUSH2 0x1674 JUMP JUMPDEST POP PUSH1 0x3 SLOAD PUSH1 0x1 PUSH1 0x1 PUSH1 0xA0 SHL SUB AND CALLER EQ DUP1 PUSH2 0x16E4 JUMPI POP DUP1 JUMPDEST PUSH2 0x1700 JUMPI PUSH1 0x40 MLOAD PUSH3 0x461BCD PUSH1 0xE5 SHL DUP2 MSTORE PUSH1 0x4 ADD PUSH2 0x14AB SWAP1 PUSH2 0x42AF JUMP JUMPDEST PUSH3 0x15180 DUP4 PUSH1 0x1 PUSH1 0x1 PUSH1 0x40 SHL SUB AND LT ISZERO DUP1 ISZERO PUSH2 0x1728 JUMPI POP PUSH3 0x51BD00 DUP4 PUSH1 0x1 PUSH1 0x1 PUSH1 0x40 SHL SUB AND GT ISZERO JUMPDEST PUSH2 0x177F JUMPI PUSH1 0x40 MLOAD PUSH3 0x461BCD PUSH1 0xE5 SHL DUP2 MSTORE PUSH1 0x20 PUSH1 0x4 DUP3 ADD MSTORE PUSH1 0x22 PUSH1 0x24 DUP3 ADD MSTORE PUSH32 0x526577617264206D75737420737461792077697468696E20626F756E64617269 PUSH1 0x44 DUP3 ADD MSTORE PUSH2 0x6573 PUSH1 0xF0 SHL PUSH1 0x64 DUP3 ADD MSTORE PUSH1 0x84 ADD PUSH2 0x14AB JUMP JUMPDEST POP PUSH1 0x7 DUP1 SLOAD PUSH8 0xFFFFFFFFFFFFFFFF NOT AND PUSH1 0x1 PUSH1 0x1 PUSH1 0x40 SHL SUB SWAP4 SWAP1 SWAP4 AND SWAP3 SWAP1 SWAP3 OR SWAP1 SWAP2 SSTORE SWAP1 JUMP JUMPDEST PUSH1 0x3 SLOAD PUSH1 0x1 PUSH1 0x1 PUSH1 0xA0 SHL SUB AND CALLER EQ PUSH2 0x17FF JUMPI PUSH1 0x40 MLOAD PUSH3 0x461BCD PUSH1 0xE5 SHL DUP2 MSTORE PUSH1 0x20 PUSH1 0x4 DUP3 ADD DUP2 SWAP1 MSTORE PUSH1 0x24 DUP3 ADD MSTORE PUSH32 0x4F776E61626C653A2063616C6C6572206973206E6F7420746865206F776E6572 PUSH1 0x44 DUP3 ADD MSTORE PUSH1 0x64 ADD PUSH2 0x14AB JUMP JUMPDEST PUSH2 0x13D7 DUP2 PUSH2 0x3DF5 JUMP JUMPDEST CALLER PUSH1 0x0 PUSH2 0x1813 PUSH2 0x30C1 JUMP JUMPDEST SWAP1 POP PUSH1 0x0 PUSH2 0x181F PUSH2 0x27B8 JUMP JUMPDEST SWAP1 POP PUSH1 0x0 PUSH2 0x182B PUSH2 0x3ABE JUMP JUMPDEST SWAP1 POP PUSH1 0x0 PUSH2 0x1837 PUSH2 0x1EEB JUMP JUMPDEST SWAP1 POP PUSH1 0x0 PUSH2 0x1843 PUSH2 0x302D JUMP JUMPDEST SWAP1 POP PUSH2 0x184D PUSH2 0x26FF JUMP JUMPDEST PUSH1 0x1A PUSH1 0x8 PUSH2 0x100 EXP DUP2 SLOAD DUP2 PUSH1 0x1 PUSH1 0x1 PUSH1 0x40 SHL SUB MUL NOT AND SWAP1 DUP4 PUSH1 0x1 PUSH1 0x1 PUSH1 0x40 SHL SUB AND MUL OR SWAP1 SSTORE POP PUSH2 0x187B PUSH2 0x282C JUMP JUMPDEST PUSH1 0x1A PUSH1 0x10 PUSH2 0x100 EXP DUP2 SLOAD DUP2 PUSH1 0x1 PUSH1 0x1 PUSH1 0x40 SHL SUB MUL NOT AND SWAP1 DUP4 PUSH1 0x1 PUSH1 0x1 PUSH1 0x40 SHL SUB AND MUL OR SWAP1 SSTORE POP PUSH2 0x18A9 PUSH2 0x2BC3 JUMP JUMPDEST PUSH1 0x1A PUSH1 0x18 PUSH2 0x100 EXP DUP2 SLOAD DUP2 PUSH1 0x1 PUSH1 0x1 PUSH1 0x40 SHL SUB MUL NOT AND SWAP1 DUP4 PUSH1 0x1 PUSH1 0x1 PUSH1 0x40 SHL SUB AND MUL OR SWAP1 SSTORE POP PUSH2 0x18D7 PUSH2 0x13DA JUMP JUMPDEST PUSH1 0x1B DUP1 SLOAD PUSH1 0x1 PUSH1 0x1 PUSH1 0x40 SHL SUB SWAP3 SWAP1 SWAP3 AND PUSH8 0xFFFFFFFFFFFFFFFF PUSH1 0x40 SHL SWAP1 SWAP3 AND SWAP2 SWAP1 SWAP2 OR PUSH1 0x1 PUSH1 0x80 SHL PUSH1 0x1 PUSH1 0x1 PUSH1 0x80 SHL SUB DUP9 DUP2 AND DUP3 MUL SWAP3 SWAP1 SWAP3 OR SWAP1 SWAP3 SSTORE DUP6 DUP2 AND DUP6 DUP3 AND DUP4 MUL OR PUSH1 0x1C SSTORE DUP4 DUP2 AND SWAP1 DUP4 AND SWAP1 SWAP2 MUL OR PUSH1 0x1D SSTORE PUSH2 0x1935 DUP7 PUSH2 0xE7A JUMP JUMPDEST PUSH1 0x1 PUSH1 0x1 PUSH1 0xA0 SHL SUB DUP8 AND PUSH1 0x0 SWAP1 DUP2 MSTORE PUSH1 0x1E PUSH1 0x20 MSTORE PUSH1 0x40 SWAP1 KECCAK256 DUP1 SLOAD PUSH1 0x1 PUSH1 0x1 PUSH1 0x80 SHL SUB SWAP3 DUP4 AND PUSH1 0x1 PUSH1 0x80 SHL MUL SWAP3 AND SWAP2 SWAP1 SWAP2 OR SWAP1 SSTORE PUSH2 0x1971 DUP7 PUSH2 0x3B68 JUMP JUMPDEST PUSH1 0x1 PUSH1 0x1 PUSH1 0xA0 SHL SUB DUP8 AND PUSH1 0x0 SWAP1 DUP2 MSTORE PUSH1 0x1F PUSH1 0x20 MSTORE PUSH1 0x40 SWAP1 KECCAK256 DUP1 SLOAD PUSH1 0x1 PUSH1 0x1 PUSH1 0x80 SHL SUB SWAP3 DUP4 AND PUSH1 0x1 PUSH1 0x80 SHL MUL SWAP3 AND SWAP2 SWAP1 SWAP2 OR SWAP1 SSTORE PUSH2 0x19AD DUP7 PUSH2 0x1632 JUMP JUMPDEST PUSH1 0x1 PUSH1 0x1 PUSH1 0xA0 SHL SUB DUP8 AND PUSH1 0x0 SWAP1 DUP2 MSTORE PUSH1 0x20 DUP1 MSTORE PUSH1 0x40 SWAP1 KECCAK256 DUP1 SLOAD PUSH1 0x1 PUSH1 0x1 PUSH1 0x80 SHL SUB SWAP3 DUP4 AND PUSH1 0x1 PUSH1 0x80 SHL MUL SWAP3 AND SWAP2 SWAP1 SWAP2 OR SWAP1 SSTORE PUSH2 0x19E8 DUP7 PUSH2 0x2BFD JUMP JUMPDEST PUSH1 0x1 PUSH1 0x1 PUSH1 0xA0 SHL SUB DUP8 AND PUSH1 0x0 SWAP1 DUP2 MSTORE PUSH1 0x21 PUSH1 0x20 SWAP1 DUP2 MSTORE PUSH1 0x40 DUP1 DUP4 KECCAK256 DUP1 SLOAD PUSH1 0x1 PUSH1 0x1 PUSH1 0x80 SHL SUB SWAP6 DUP7 AND PUSH1 0x1 PUSH1 0x80 SHL MUL SWAP1 DUP7 AND OR DUP2 SSTORE PUSH1 0x1E DUP4 MSTORE DUP2 DUP5 KECCAK256 DUP1 SLOAD DUP12 DUP8 AND PUSH1 0x1 PUSH1 0x1 PUSH1 0x80 SHL SUB NOT SWAP2 DUP3 AND OR SWAP1 SWAP2 SSTORE PUSH1 0x1F DUP5 MSTORE DUP3 DUP6 KECCAK256 DUP1 SLOAD DUP12 DUP9 AND SWAP1 DUP4 AND OR SWAP1 SSTORE DUP4 DUP1 MSTORE DUP3 DUP6 KECCAK256 DUP1 SLOAD DUP11 DUP9 AND SWAP1 DUP4 AND OR SWAP1 SSTORE DUP2 SLOAD DUP9 DUP8 AND SWAP1 DUP3 AND OR SWAP1 SWAP2 SSTORE PUSH1 0x22 SWAP1 SWAP3 MSTORE DUP3 KECCAK256 DUP1 SLOAD SWAP4 DUP6 AND SWAP4 SWAP1 SWAP2 AND SWAP3 SWAP1 SWAP3 OR SWAP1 SWAP2 SSTORE PUSH2 0x1A87 CALLER PUSH2 0xE7A JUMP JUMPDEST PUSH1 0x1 PUSH1 0x1 PUSH1 0x80 SHL SUB AND SWAP1 POP PUSH1 0x0 PUSH2 0x1A9D CALLER PUSH2 0x3B68 JUMP JUMPDEST PUSH1 0x1 PUSH1 0x1 PUSH1 0x80 SHL SUB AND SWAP1 POP PUSH1 0x0 PUSH2 0x1AB3 CALLER PUSH2 0x1632 JUMP JUMPDEST PUSH1 0x1 PUSH1 0x1 PUSH1 0x80 SHL SUB AND SWAP1 POP DUP3 ISZERO PUSH2 0x1C12 JUMPI CALLER PUSH1 0x0 SWAP1 DUP2 MSTORE PUSH1 0x1E PUSH1 0x20 MSTORE PUSH1 0x40 SWAP1 KECCAK256 DUP1 SLOAD PUSH1 0x1 PUSH1 0x1 PUSH1 0x80 SHL SUB AND SWAP1 SSTORE DUP1 ISZERO PUSH2 0x1B6F JUMPI CALLER PUSH1 0x0 DUP2 DUP2 MSTORE PUSH1 0x20 DUP1 MSTORE PUSH1 0x40 DUP1 DUP3 KECCAK256 DUP1 SLOAD PUSH1 0x1 PUSH1 0x1 PUSH1 0x80 SHL SUB AND SWAP1 SSTORE MLOAD DUP3 SWAP2 DUP5 ISZERO PUSH2 0x8FC MUL SWAP2 DUP6 SWAP2 DUP2 DUP2 DUP2 DUP6 DUP9 DUP9 CALL SWAP4 POP POP POP POP PUSH2 0x1B5C JUMPI PUSH1 0x40 MLOAD PUSH3 0x461BCD PUSH1 0xE5 SHL DUP2 MSTORE PUSH1 0x20 PUSH1 0x4 DUP3 ADD MSTORE PUSH1 0x13 PUSH1 0x24 DUP3 ADD MSTORE PUSH19 0x115D1A081D1C985B9CD9995C8819985A5B1959 PUSH1 0x6A SHL PUSH1 0x44 DUP3 ADD MSTORE PUSH1 0x64 ADD PUSH2 0x14AB JUMP JUMPDEST DUP2 PUSH1 0xA SLOAD PUSH2 0x1B6A SWAP2 SWAP1 PUSH2 0x42F3 JUMP JUMPDEST PUSH1 0xA SSTORE POP JUMPDEST PUSH1 0x11 SLOAD PUSH1 0x40 MLOAD PUSH4 0xA9059CBB PUSH1 0xE0 SHL DUP2 MSTORE PUSH1 0x1 PUSH1 0x1 PUSH1 0xA0 SHL SUB SWAP1 SWAP2 AND SWAP1 PUSH4 0xA9059CBB SWAP1 PUSH2 0x1BA1 SWAP1 CALLER SWAP1 DUP8 SWAP1 PUSH1 0x4 ADD PUSH2 0x430A JUMP JUMPDEST PUSH1 0x20 PUSH1 0x40 MLOAD DUP1 DUP4 SUB DUP2 PUSH1 0x0 DUP8 GAS CALL ISZERO DUP1 ISZERO PUSH2 0x1BC0 JUMPI RETURNDATASIZE PUSH1 0x0 DUP1 RETURNDATACOPY RETURNDATASIZE PUSH1 0x0 REVERT JUMPDEST POP POP POP POP PUSH1 0x40 MLOAD RETURNDATASIZE PUSH1 0x1F NOT PUSH1 0x1F DUP3 ADD AND DUP3 ADD DUP1 PUSH1 0x40 MSTORE POP DUP2 ADD SWAP1 PUSH2 0x1BE4 SWAP2 SWAP1 PUSH2 0x4323 JUMP JUMPDEST PUSH2 0x1C00 JUMPI PUSH1 0x40 MLOAD PUSH3 0x461BCD PUSH1 0xE5 SHL DUP2 MSTORE PUSH1 0x4 ADD PUSH2 0x14AB SWAP1 PUSH2 0x4345 JUMP JUMPDEST DUP3 PUSH1 0x8 SLOAD PUSH2 0x1C0E SWAP2 SWAP1 PUSH2 0x42F3 JUMP JUMPDEST PUSH1 0x8 SSTORE JUMPDEST DUP2 ISZERO PUSH2 0x1CD7 JUMPI CALLER PUSH1 0x0 DUP2 DUP2 MSTORE PUSH1 0x1F PUSH1 0x20 MSTORE PUSH1 0x40 SWAP1 DUP2 SWAP1 KECCAK256 DUP1 SLOAD PUSH1 0x1 PUSH1 0x1 PUSH1 0x80 SHL SUB AND SWAP1 SSTORE PUSH1 0x10 SLOAD SWAP1 MLOAD PUSH4 0xA9059CBB PUSH1 0xE0 SHL DUP2 MSTORE PUSH1 0x1 PUSH1 0x1 PUSH1 0xA0 SHL SUB SWAP1 SWAP2 AND SWAP2 PUSH4 0xA9059CBB SWAP2 PUSH2 0x1C66 SWAP2 SWAP1 DUP7 SWAP1 PUSH1 0x4 ADD PUSH2 0x430A JUMP JUMPDEST PUSH1 0x20 PUSH1 0x40 MLOAD DUP1 DUP4 SUB DUP2 PUSH1 0x0 DUP8 GAS CALL ISZERO DUP1 ISZERO PUSH2 0x1C85 JUMPI RETURNDATASIZE PUSH1 0x0 DUP1 RETURNDATACOPY RETURNDATASIZE PUSH1 0x0 REVERT JUMPDEST POP POP POP POP PUSH1 0x40 MLOAD RETURNDATASIZE PUSH1 0x1F NOT PUSH1 0x1F DUP3 ADD AND DUP3 ADD DUP1 PUSH1 0x40 MSTORE POP DUP2 ADD SWAP1 PUSH2 0x1CA9 SWAP2 SWAP1 PUSH2 0x4323 JUMP JUMPDEST PUSH2 0x1CC5 JUMPI PUSH1 0x40 MLOAD PUSH3 0x461BCD PUSH1 0xE5 SHL DUP2 MSTORE PUSH1 0x4 ADD PUSH2 0x14AB SWAP1 PUSH2 0x4375 JUMP JUMPDEST DUP2 PUSH1 0x9 SLOAD PUSH2 0x1CD3 SWAP2 SWAP1 PUSH2 0x42F3 JUMP JUMPDEST PUSH1 0x9 SSTORE JUMPDEST PUSH1 0x0 PUSH2 0x1CE2 CALLER PUSH2 0x2BFD JUMP JUMPDEST PUSH1 0x1 PUSH1 0x1 PUSH1 0x80 SHL SUB AND SWAP1 POP DUP1 ISZERO PUSH2 0x1DB2 JUMPI CALLER PUSH1 0x0 DUP2 DUP2 MSTORE PUSH1 0x21 PUSH1 0x20 MSTORE PUSH1 0x40 SWAP1 DUP2 SWAP1 KECCAK256 DUP1 SLOAD PUSH1 0x1 PUSH1 0x1 PUSH1 0x80 SHL SUB AND SWAP1 SSTORE PUSH1 0xF SLOAD SWAP1 MLOAD PUSH4 0xA9059CBB PUSH1 0xE0 SHL DUP2 MSTORE PUSH1 0x1 PUSH1 0x1 PUSH1 0xA0 SHL SUB SWAP1 SWAP2 AND SWAP2 PUSH4 0xA9059CBB SWAP2 PUSH2 0x1D41 SWAP2 SWAP1 DUP6 SWAP1 PUSH1 0x4 ADD PUSH2 0x430A JUMP JUMPDEST PUSH1 0x20 PUSH1 0x40 MLOAD DUP1 DUP4 SUB DUP2 PUSH1 0x0 DUP8 GAS CALL ISZERO DUP1 ISZERO PUSH2 0x1D60 JUMPI RETURNDATASIZE PUSH1 0x0 DUP1 RETURNDATACOPY RETURNDATASIZE PUSH1 0x0 REVERT JUMPDEST POP POP POP POP PUSH1 0x40 MLOAD RETURNDATASIZE PUSH1 0x1F NOT PUSH1 0x1F DUP3 ADD AND DUP3 ADD DUP1 PUSH1 0x40 MSTORE POP DUP2 ADD SWAP1 PUSH2 0x1D84 SWAP2 SWAP1 PUSH2 0x4323 JUMP JUMPDEST PUSH2 0x1DA0 JUMPI PUSH1 0x40 MLOAD PUSH3 0x461BCD PUSH1 0xE5 SHL DUP2 MSTORE PUSH1 0x4 ADD PUSH2 0x14AB SWAP1 PUSH2 0x4345 JUMP JUMPDEST DUP1 PUSH1 0xB SLOAD PUSH2 0x1DAE SWAP2 SWAP1 PUSH2 0x42F3 JUMP JUMPDEST PUSH1 0xB SSTORE JUMPDEST PUSH1 0x0 PUSH2 0x1DBD CALLER PUSH2 0x277A JUMP JUMPDEST PUSH1 0x1 PUSH1 0x1 PUSH1 0x80 SHL SUB AND SWAP1 POP DUP1 ISZERO PUSH2 0x1E8D JUMPI CALLER PUSH1 0x0 DUP2 DUP2 MSTORE PUSH1 0x22 PUSH1 0x20 MSTORE PUSH1 0x40 SWAP1 DUP2 SWAP1 KECCAK256 DUP1 SLOAD PUSH1 0x1 PUSH1 0x1 PUSH1 0x80 SHL SUB AND SWAP1 SSTORE PUSH1 0xE SLOAD SWAP1 MLOAD PUSH4 0xA9059CBB PUSH1 0xE0 SHL DUP2 MSTORE PUSH1 0x1 PUSH1 0x1 PUSH1 0xA0 SHL SUB SWAP1 SWAP2 AND SWAP2 PUSH4 0xA9059CBB SWAP2 PUSH2 0x1E1C SWAP2 SWAP1 DUP6 SWAP1 PUSH1 0x4 ADD PUSH2 0x430A JUMP JUMPDEST PUSH1 0x20 PUSH1 0x40 MLOAD DUP1 DUP4 SUB DUP2 PUSH1 0x0 DUP8 GAS CALL ISZERO DUP1 ISZERO PUSH2 0x1E3B JUMPI RETURNDATASIZE PUSH1 0x0 DUP1 RETURNDATACOPY RETURNDATASIZE PUSH1 0x0 REVERT JUMPDEST POP POP POP POP PUSH1 0x40 MLOAD RETURNDATASIZE PUSH1 0x1F NOT PUSH1 0x1F DUP3 ADD AND DUP3 ADD DUP1 PUSH1 0x40 MSTORE POP DUP2 ADD SWAP1 PUSH2 0x1E5F SWAP2 SWAP1 PUSH2 0x4323 JUMP JUMPDEST PUSH2 0x1E7B JUMPI PUSH1 0x40 MLOAD PUSH3 0x461BCD PUSH1 0xE5 SHL DUP2 MSTORE PUSH1 0x4 ADD PUSH2 0x14AB SWAP1 PUSH2 0x4375 JUMP JUMPDEST DUP1 PUSH1 0xC SLOAD PUSH2 0x1E89 SWAP2 SWAP1 PUSH2 0x42F3 JUMP JUMPDEST PUSH1 0xB SSTORE JUMPDEST PUSH1 0x40 DUP1 MLOAD DUP7 DUP2 MSTORE PUSH1 0x20 DUP2 ADD DUP7 SWAP1 MSTORE SWAP1 DUP2 ADD DUP5 SWAP1 MSTORE PUSH1 0x60 DUP2 ADD DUP4 SWAP1 MSTORE PUSH1 0x80 DUP2 ADD DUP3 SWAP1 MSTORE CALLER SWAP1 PUSH32 0x6A1C9812F6D42EAF5C00058B4FC1D00233E24805A4965009D650401F50ADC53E SWAP1 PUSH1 0xA0 ADD PUSH1 0x40 MLOAD DUP1 SWAP2 SUB SWAP1 LOG2 POP POP POP POP POP POP POP POP POP POP POP JUMP JUMPDEST PUSH1 0x0 DUP1 SLOAD DUP1 PUSH2 0x1F05 JUMPI POP POP PUSH1 0x1D SLOAD PUSH1 0x1 PUSH1 0x1 PUSH1 0x80 SHL SUB AND SWAP1 JUMP JUMPDEST PUSH1 0x1B SLOAD PUSH1 0x0 SWAP1 PUSH1 0x1 PUSH1 0x1 PUSH1 0x40 SHL SUB AND PUSH2 0x1F1C PUSH2 0x13DA JUMP JUMPDEST SUB PUSH1 0x1 PUSH1 0x1 PUSH1 0x40 SHL SUB AND SWAP1 POP DUP2 PUSH1 0x5 SLOAD PUSH1 0xA EXP PUSH1 0x17 SLOAD DUP4 MUL MUL DUP2 PUSH2 0x1F42 JUMPI PUSH2 0x1F42 PUSH2 0x41C7 JUMP JUMPDEST PUSH1 0x1D SLOAD PUSH1 0x1 PUSH1 0x1 PUSH1 0x80 SHL SUB AND SWAP2 SWAP1 DIV ADD SWAP4 SWAP3 POP POP POP JUMP JUMPDEST PUSH1 0xD DUP2 DUP2 SLOAD DUP2 LT PUSH2 0x1F69 JUMPI PUSH1 0x0 DUP1 REVERT JUMPDEST PUSH1 0x0 SWAP2 DUP3 MSTORE PUSH1 0x20 SWAP1 SWAP2 KECCAK256 ADD SLOAD PUSH1 0x1 PUSH1 0x1 PUSH1 0xA0 SHL SUB AND SWAP1 POP DUP2 JUMP JUMPDEST PUSH1 0x3 SLOAD PUSH1 0x1 PUSH1 0x1 PUSH1 0xA0 SHL SUB AND CALLER EQ PUSH2 0x1FDD JUMPI PUSH1 0x40 MLOAD PUSH3 0x461BCD PUSH1 0xE5 SHL DUP2 MSTORE PUSH1 0x20 PUSH1 0x4 DUP3 ADD DUP2 SWAP1 MSTORE PUSH1 0x24 DUP3 ADD MSTORE PUSH32 0x4F776E61626C653A2063616C6C6572206973206E6F7420746865206F776E6572 PUSH1 0x44 DUP3 ADD MSTORE PUSH1 0x64 ADD PUSH2 0x14AB JUMP JUMPDEST PUSH1 0x4 SLOAD DUP2 LT PUSH2 0x2037 JUMPI PUSH1 0x4 DUP1 SLOAD PUSH1 0x1 DUP2 ADD DUP3 SSTORE PUSH1 0x0 SWAP2 SWAP1 SWAP2 MSTORE PUSH32 0x8A35ACFBC15FF81A39AE7D344FD709F28E8600B4AA8C65C6B64BFE7FE36BD19B ADD DUP1 SLOAD PUSH1 0x1 PUSH1 0x1 PUSH1 0xA0 SHL SUB DUP5 AND PUSH1 0x1 PUSH1 0x1 PUSH1 0xA0 SHL SUB NOT SWAP1 SWAP2 AND OR SWAP1 SSTORE POP POP JUMP JUMPDEST DUP2 PUSH1 0x4 DUP3 DUP2 SLOAD DUP2 LT PUSH2 0x204B JUMPI PUSH2 0x204B PUSH2 0x4268 JUMP JUMPDEST SWAP1 PUSH1 0x0 MSTORE PUSH1 0x20 PUSH1 0x0 KECCAK256 ADD PUSH1 0x0 PUSH2 0x100 EXP DUP2 SLOAD DUP2 PUSH1 0x1 PUSH1 0x1 PUSH1 0xA0 SHL SUB MUL NOT AND SWAP1 DUP4 PUSH1 0x1 PUSH1 0x1 PUSH1 0xA0 SHL SUB AND MUL OR SWAP1 SSTORE POP POP POP JUMP JUMPDEST PUSH1 0x0 DUP1 DUP1 JUMPDEST PUSH1 0x4 SLOAD DUP2 LT ISZERO PUSH2 0x20DB JUMPI CALLER PUSH1 0x1 PUSH1 0x1 PUSH1 0xA0 SHL SUB AND PUSH1 0x4 DUP3 DUP2 SLOAD DUP2 LT PUSH2 0x20A9 JUMPI PUSH2 0x20A9 PUSH2 0x4268 JUMP JUMPDEST PUSH1 0x0 SWAP2 DUP3 MSTORE PUSH1 0x20 SWAP1 SWAP2 KECCAK256 ADD SLOAD PUSH1 0x1 PUSH1 0x1 PUSH1 0xA0 SHL SUB AND EQ ISZERO PUSH2 0x20C9 JUMPI PUSH1 0x1 SWAP2 POP JUMPDEST DUP1 PUSH2 0x20D3 DUP2 PUSH2 0x4294 JUMP JUMPDEST SWAP2 POP POP PUSH2 0x2082 JUMP JUMPDEST POP PUSH1 0x3 SLOAD PUSH1 0x1 PUSH1 0x1 PUSH1 0xA0 SHL SUB AND CALLER EQ DUP1 PUSH2 0x20F2 JUMPI POP DUP1 JUMPDEST PUSH2 0x210E JUMPI PUSH1 0x40 MLOAD PUSH3 0x461BCD PUSH1 0xE5 SHL DUP2 MSTORE PUSH1 0x4 ADD PUSH2 0x14AB SWAP1 PUSH2 0x42AF JUMP JUMPDEST DUP4 JUMPDEST PUSH2 0x211A DUP5 DUP7 PUSH2 0x43AC JUMP JUMPDEST DUP2 GT PUSH2 0x229D JUMPI PUSH1 0x0 PUSH1 0x21 PUSH1 0x0 PUSH1 0xD DUP5 DUP2 SLOAD DUP2 LT PUSH2 0x2139 JUMPI PUSH2 0x2139 PUSH2 0x4268 JUMP JUMPDEST PUSH1 0x0 SWAP2 DUP3 MSTORE PUSH1 0x20 DUP1 DUP4 KECCAK256 SWAP1 SWAP2 ADD SLOAD PUSH1 0x1 PUSH1 0x1 PUSH1 0xA0 SHL SUB AND DUP4 MSTORE DUP3 ADD SWAP3 SWAP1 SWAP3 MSTORE PUSH1 0x40 ADD DUP2 KECCAK256 DUP1 SLOAD PUSH1 0x1 PUSH1 0x1 PUSH1 0x80 SHL SUB SWAP4 DUP5 AND PUSH1 0x1 PUSH1 0x80 SHL MUL SWAP4 AND SWAP3 SWAP1 SWAP3 OR SWAP1 SWAP2 SSTORE PUSH1 0xD DUP1 SLOAD PUSH1 0x22 SWAP2 DUP4 SWAP2 DUP6 SWAP1 DUP2 LT PUSH2 0x2192 JUMPI PUSH2 0x2192 PUSH2 0x4268 JUMP JUMPDEST PUSH1 0x0 SWAP2 DUP3 MSTORE PUSH1 0x20 DUP1 DUP4 KECCAK256 SWAP1 SWAP2 ADD SLOAD PUSH1 0x1 PUSH1 0x1 PUSH1 0xA0 SHL SUB AND DUP4 MSTORE DUP3 ADD SWAP3 SWAP1 SWAP3 MSTORE PUSH1 0x40 ADD DUP2 KECCAK256 DUP1 SLOAD PUSH1 0x1 PUSH1 0x1 PUSH1 0x80 SHL SUB SWAP4 DUP5 AND PUSH1 0x1 PUSH1 0x80 SHL MUL SWAP4 AND SWAP3 SWAP1 SWAP3 OR SWAP1 SWAP2 SSTORE PUSH1 0xD DUP1 SLOAD PUSH1 0x21 SWAP2 DUP4 SWAP2 DUP6 SWAP1 DUP2 LT PUSH2 0x21EB JUMPI PUSH2 0x21EB PUSH2 0x4268 JUMP JUMPDEST PUSH1 0x0 SWAP2 DUP3 MSTORE PUSH1 0x20 DUP1 DUP4 KECCAK256 SWAP2 SWAP1 SWAP2 ADD SLOAD PUSH1 0x1 PUSH1 0x1 PUSH1 0xA0 SHL SUB AND DUP4 MSTORE DUP3 ADD SWAP3 SWAP1 SWAP3 MSTORE PUSH1 0x40 ADD DUP2 KECCAK256 DUP1 SLOAD PUSH1 0x1 PUSH1 0x1 PUSH1 0x80 SHL SUB NOT AND PUSH1 0x1 PUSH1 0x1 PUSH1 0x80 SHL SUB SWAP4 SWAP1 SWAP4 AND SWAP3 SWAP1 SWAP3 OR SWAP1 SWAP2 SSTORE PUSH1 0xD DUP1 SLOAD PUSH1 0x22 SWAP2 DUP4 SWAP2 DUP6 SWAP1 DUP2 LT PUSH2 0x2248 JUMPI PUSH2 0x2248 PUSH2 0x4268 JUMP JUMPDEST PUSH1 0x0 SWAP2 DUP3 MSTORE PUSH1 0x20 DUP1 DUP4 KECCAK256 SWAP2 SWAP1 SWAP2 ADD SLOAD PUSH1 0x1 PUSH1 0x1 PUSH1 0xA0 SHL SUB AND DUP4 MSTORE DUP3 ADD SWAP3 SWAP1 SWAP3 MSTORE PUSH1 0x40 ADD SWAP1 KECCAK256 DUP1 SLOAD PUSH1 0x1 PUSH1 0x1 PUSH1 0x80 SHL SUB NOT AND PUSH1 0x1 PUSH1 0x1 PUSH1 0x80 SHL SUB SWAP3 SWAP1 SWAP3 AND SWAP2 SWAP1 SWAP2 OR SWAP1 SSTORE DUP1 PUSH2 0x2295 DUP2 PUSH2 0x4294 JUMP JUMPDEST SWAP2 POP POP PUSH2 0x2110 JUMP JUMPDEST POP POP PUSH1 0x0 PUSH1 0x1D SSTORE POP PUSH1 0x1 SWAP3 SWAP2 POP POP JUMP JUMPDEST PUSH1 0x0 DUP1 DUP1 JUMPDEST PUSH1 0x4 SLOAD DUP2 LT ISZERO PUSH2 0x230B JUMPI CALLER PUSH1 0x1 PUSH1 0x1 PUSH1 0xA0 SHL SUB AND PUSH1 0x4 DUP3 DUP2 SLOAD DUP2 LT PUSH2 0x22D9 JUMPI PUSH2 0x22D9 PUSH2 0x4268 JUMP JUMPDEST PUSH1 0x0 SWAP2 DUP3 MSTORE PUSH1 0x20 SWAP1 SWAP2 KECCAK256 ADD SLOAD PUSH1 0x1 PUSH1 0x1 PUSH1 0xA0 SHL SUB AND EQ ISZERO PUSH2 0x22F9 JUMPI PUSH1 0x1 SWAP2 POP JUMPDEST DUP1 PUSH2 0x2303 DUP2 PUSH2 0x4294 JUMP JUMPDEST SWAP2 POP POP PUSH2 0x22B2 JUMP JUMPDEST POP PUSH1 0x3 SLOAD PUSH1 0x1 PUSH1 0x1 PUSH1 0xA0 SHL SUB AND CALLER EQ DUP1 PUSH2 0x2322 JUMPI POP DUP1 JUMPDEST PUSH2 0x233E JUMPI PUSH1 0x40 MLOAD PUSH3 0x461BCD PUSH1 0xE5 SHL DUP2 MSTORE PUSH1 0x4 ADD PUSH2 0x14AB SWAP1 PUSH2 0x42AF JUMP JUMPDEST POP POP PUSH1 0x5 SSTORE PUSH1 0x0 PUSH1 0x17 SSTORE PUSH1 0xF DUP1 SLOAD PUSH1 0x1 PUSH1 0x1 PUSH1 0xA0 SHL SUB NOT AND PUSH1 0x1 PUSH1 0x1 PUSH1 0xA0 SHL SUB SWAP3 SWAP1 SWAP3 AND SWAP2 SWAP1 SWAP2 OR SWAP1 SSTORE PUSH1 0x1 SWAP1 JUMP JUMPDEST DUP2 PUSH1 0x0 PUSH2 0x2378 PUSH2 0x30C1 JUMP JUMPDEST SWAP1 POP PUSH1 0x0 PUSH2 0x2384 PUSH2 0x27B8 JUMP JUMPDEST SWAP1 POP PUSH1 0x0 PUSH2 0x2390 PUSH2 0x3ABE JUMP JUMPDEST SWAP1 POP PUSH1 0x0 PUSH2 0x239C PUSH2 0x1EEB JUMP JUMPDEST SWAP1 POP PUSH1 0x0 PUSH2 0x23A8 PUSH2 0x302D JUMP JUMPDEST SWAP1 POP PUSH2 0x23B2 PUSH2 0x26FF JUMP JUMPDEST PUSH1 0x1A PUSH1 0x8 PUSH2 0x100 EXP DUP2 SLOAD DUP2 PUSH1 0x1 PUSH1 0x1 PUSH1 0x40 SHL SUB MUL NOT AND SWAP1 DUP4 PUSH1 0x1 PUSH1 0x1 PUSH1 0x40 SHL SUB AND MUL OR SWAP1 SSTORE POP PUSH2 0x23E0 PUSH2 0x282C JUMP JUMPDEST PUSH1 0x1A PUSH1 0x10 PUSH2 0x100 EXP DUP2 SLOAD DUP2 PUSH1 0x1 PUSH1 0x1 PUSH1 0x40 SHL SUB MUL NOT AND SWAP1 DUP4 PUSH1 0x1 PUSH1 0x1 PUSH1 0x40 SHL SUB AND MUL OR SWAP1 SSTORE POP PUSH2 0x240E PUSH2 0x2BC3 JUMP JUMPDEST PUSH1 0x1A PUSH1 0x18 PUSH2 0x100 EXP DUP2 SLOAD DUP2 PUSH1 0x1 PUSH1 0x1 PUSH1 0x40 SHL SUB MUL NOT AND SWAP1 DUP4 PUSH1 0x1 PUSH1 0x1 PUSH1 0x40 SHL SUB AND MUL OR SWAP1 SSTORE POP PUSH2 0x243C PUSH2 0x13DA JUMP JUMPDEST PUSH1 0x1B DUP1 SLOAD PUSH1 0x1 PUSH1 0x1 PUSH1 0x40 SHL SUB SWAP3 SWAP1 SWAP3 AND PUSH8 0xFFFFFFFFFFFFFFFF PUSH1 0x40 SHL SWAP1 SWAP3 AND SWAP2 SWAP1 SWAP2 OR PUSH1 0x1 PUSH1 0x80 SHL PUSH1 0x1 PUSH1 0x1 PUSH1 0x80 SHL SUB DUP9 DUP2 AND DUP3 MUL SWAP3 SWAP1 SWAP3 OR SWAP1 SWAP3 SSTORE DUP6 DUP2 AND DUP6 DUP3 AND DUP4 MUL OR PUSH1 0x1C SSTORE DUP4 DUP2 AND SWAP1 DUP4 AND SWAP1 SWAP2 MUL OR PUSH1 0x1D SSTORE PUSH2 0x249A DUP7 PUSH2 0xE7A JUMP JUMPDEST PUSH1 0x1 PUSH1 0x1 PUSH1 0xA0 SHL SUB DUP8 AND PUSH1 0x0 SWAP1 DUP2 MSTORE PUSH1 0x1E PUSH1 0x20 MSTORE PUSH1 0x40 SWAP1 KECCAK256 DUP1 SLOAD PUSH1 0x1 PUSH1 0x1 PUSH1 0x80 SHL SUB SWAP3 DUP4 AND PUSH1 0x1 PUSH1 0x80 SHL MUL SWAP3 AND SWAP2 SWAP1 SWAP2 OR SWAP1 SSTORE PUSH2 0x24D6 DUP7 PUSH2 0x3B68 JUMP JUMPDEST PUSH1 0x1 PUSH1 0x1 PUSH1 0xA0 SHL SUB DUP8 AND PUSH1 0x0 SWAP1 DUP2 MSTORE PUSH1 0x1F PUSH1 0x20 MSTORE PUSH1 0x40 SWAP1 KECCAK256 DUP1 SLOAD PUSH1 0x1 PUSH1 0x1 PUSH1 0x80 SHL SUB SWAP3 DUP4 AND PUSH1 0x1 PUSH1 0x80 SHL MUL SWAP3 AND SWAP2 SWAP1 SWAP2 OR SWAP1 SSTORE PUSH2 0x2512 DUP7 PUSH2 0x1632 JUMP JUMPDEST PUSH1 0x1 PUSH1 0x1 PUSH1 0xA0 SHL SUB DUP8 AND PUSH1 0x0 SWAP1 DUP2 MSTORE PUSH1 0x20 DUP1 MSTORE PUSH1 0x40 SWAP1 KECCAK256 DUP1 SLOAD PUSH1 0x1 PUSH1 0x1 PUSH1 0x80 SHL SUB SWAP3 DUP4 AND PUSH1 0x1 PUSH1 0x80 SHL MUL SWAP3 AND SWAP2 SWAP1 SWAP2 OR SWAP1 SSTORE PUSH2 0x254D DUP7 PUSH2 0x2BFD JUMP JUMPDEST PUSH1 0x1 PUSH1 0x1 PUSH1 0xA0 SHL SUB DUP1 DUP9 AND PUSH1 0x0 SWAP1 DUP2 MSTORE PUSH1 0x21 PUSH1 0x20 SWAP1 DUP2 MSTORE PUSH1 0x40 DUP1 DUP4 KECCAK256 DUP1 SLOAD PUSH1 0x1 PUSH1 0x1 PUSH1 0x80 SHL SUB SWAP7 DUP8 AND PUSH1 0x1 PUSH1 0x80 SHL MUL SWAP1 DUP8 AND OR DUP2 SSTORE PUSH1 0x1E DUP4 MSTORE DUP2 DUP5 KECCAK256 DUP1 SLOAD DUP13 DUP9 AND PUSH1 0x1 PUSH1 0x1 PUSH1 0x80 SHL SUB NOT SWAP2 DUP3 AND OR SWAP1 SWAP2 SSTORE PUSH1 0x1F DUP5 MSTORE DUP3 DUP6 KECCAK256 DUP1 SLOAD DUP13 DUP10 AND SWAP1 DUP4 AND OR SWAP1 SSTORE DUP4 DUP1 MSTORE DUP3 DUP6 KECCAK256 DUP1 SLOAD DUP12 DUP10 AND SWAP1 DUP4 AND OR SWAP1 SSTORE DUP2 SLOAD DUP10 DUP9 AND SWAP1 DUP3 AND OR SWAP1 SWAP2 SSTORE PUSH1 0x22 SWAP1 SWAP3 MSTORE DUP3 KECCAK256 DUP1 SLOAD SWAP5 DUP7 AND SWAP5 SWAP1 SWAP2 AND SWAP4 SWAP1 SWAP4 OR SWAP1 SWAP3 SSTORE PUSH1 0xD DUP1 SLOAD PUSH1 0x1 DUP2 ADD DUP3 SSTORE SWAP3 MSTORE PUSH32 0xD7B6990105719101DABEB77144F2A3385C8033ACD3AF97E9423A695E81AD1EB5 SWAP1 SWAP2 ADD DUP1 SLOAD SWAP2 DUP11 AND PUSH1 0x1 PUSH1 0x1 PUSH1 0xA0 SHL SUB NOT SWAP1 SWAP3 AND SWAP2 SWAP1 SWAP2 OR SWAP1 SSTORE PUSH2 0x2635 DUP9 DUP9 PUSH2 0x3E51 JUMP JUMPDEST POP POP POP POP POP POP POP POP JUMP JUMPDEST PUSH1 0x0 DUP1 DUP1 JUMPDEST PUSH1 0x4 SLOAD DUP2 LT ISZERO PUSH2 0x269D JUMPI CALLER PUSH1 0x1 PUSH1 0x1 PUSH1 0xA0 SHL SUB AND PUSH1 0x4 DUP3 DUP2 SLOAD DUP2 LT PUSH2 0x266B JUMPI PUSH2 0x266B PUSH2 0x4268 JUMP JUMPDEST PUSH1 0x0 SWAP2 DUP3 MSTORE PUSH1 0x20 SWAP1 SWAP2 KECCAK256 ADD SLOAD PUSH1 0x1 PUSH1 0x1 PUSH1 0xA0 SHL SUB AND EQ ISZERO PUSH2 0x268B JUMPI PUSH1 0x1 SWAP2 POP JUMPDEST DUP1 PUSH2 0x2695 DUP2 PUSH2 0x4294 JUMP JUMPDEST SWAP2 POP POP PUSH2 0x2644 JUMP JUMPDEST POP PUSH1 0x3 SLOAD PUSH1 0x1 PUSH1 0x1 PUSH1 0xA0 SHL SUB AND CALLER EQ DUP1 PUSH2 0x26B4 JUMPI POP DUP1 JUMPDEST PUSH2 0x26D0 JUMPI PUSH1 0x40 MLOAD PUSH3 0x461BCD PUSH1 0xE5 SHL DUP2 MSTORE PUSH1 0x4 ADD PUSH2 0x14AB SWAP1 PUSH2 0x42AF JUMP JUMPDEST POP POP PUSH1 0x6 SSTORE PUSH1 0x0 PUSH1 0x18 SSTORE PUSH1 0xE DUP1 SLOAD PUSH1 0x1 PUSH1 0x1 PUSH1 0xA0 SHL SUB NOT AND PUSH1 0x1 PUSH1 0x1 PUSH1 0xA0 SHL SUB SWAP3 SWAP1 SWAP3 AND SWAP2 SWAP1 SWAP2 OR SWAP1 SSTORE PUSH1 0x1 SWAP1 JUMP JUMPDEST PUSH1 0x19 SLOAD PUSH1 0x0 SWAP1 TIMESTAMP SWAP1 PUSH1 0x1 PUSH1 0x1 PUSH1 0x40 SHL SUB SWAP1 DUP2 AND SWAP1 DUP3 AND LT PUSH2 0x11AB JUMPI PUSH1 0x19 SLOAD PUSH1 0x1 PUSH1 0x1 PUSH1 0x40 SHL SUB AND PUSH2 0x11AD JUMP JUMPDEST PUSH1 0xD DUP1 SLOAD PUSH1 0x1 DUP2 ADD DUP3 SSTORE PUSH1 0x0 SWAP2 SWAP1 SWAP2 MSTORE PUSH32 0xD7B6990105719101DABEB77144F2A3385C8033ACD3AF97E9423A695E81AD1EB5 ADD DUP1 SLOAD PUSH1 0x1 PUSH1 0x1 PUSH1 0xA0 SHL SUB NOT AND CALLER SWAP1 DUP2 OR SWAP1 SWAP2 SSTORE PUSH2 0x13D7 SWAP1 DUP3 PUSH2 0x236D JUMP JUMPDEST PUSH1 0x1 PUSH1 0x1 PUSH1 0xA0 SHL SUB DUP2 AND PUSH1 0x0 SWAP1 DUP2 MSTORE PUSH1 0x22 PUSH1 0x20 MSTORE PUSH1 0x40 DUP2 KECCAK256 SLOAD PUSH1 0x6 SLOAD PUSH1 0x1 PUSH1 0x1 PUSH1 0x80 SHL SUB PUSH1 0x1 PUSH1 0x80 SHL DUP4 DIV DUP2 AND SWAP3 PUSH1 0xA SWAP3 SWAP1 SWAP3 EXP SWAP2 AND PUSH2 0xEB8 PUSH2 0x302D JUMP JUMPDEST PUSH1 0x0 DUP1 SLOAD DUP1 PUSH2 0x27D2 JUMPI POP POP PUSH1 0x1C SLOAD PUSH1 0x1 PUSH1 0x1 PUSH1 0x80 SHL SUB AND SWAP1 JUMP JUMPDEST PUSH1 0x1A SLOAD PUSH1 0x0 SWAP1 PUSH1 0x1 PUSH1 0x80 SHL SWAP1 DIV PUSH1 0x1 PUSH1 0x1 PUSH1 0x40 SHL SUB AND PUSH2 0x27F0 PUSH2 0x282C JUMP JUMPDEST SUB PUSH1 0x1 PUSH1 0x1 PUSH1 0x40 SHL SUB AND SWAP1 POP DUP2 PUSH1 0x15 SLOAD DUP3 MUL PUSH4 0x5F5E100 MUL DUP2 PUSH2 0x2815 JUMPI PUSH2 0x2815 PUSH2 0x41C7 JUMP JUMPDEST PUSH1 0x1C SLOAD PUSH1 0x1 PUSH1 0x1 PUSH1 0x80 SHL SUB AND SWAP2 SWAP1 DIV ADD SWAP4 SWAP3 POP POP POP JUMP JUMPDEST PUSH1 0x19 SLOAD PUSH1 0x0 SWAP1 TIMESTAMP SWAP1 PUSH1 0x1 PUSH1 0x1 PUSH1 0x40 SHL SUB PUSH1 0x1 PUSH1 0x40 SHL SWAP1 SWAP2 DIV DUP2 AND SWAP1 DUP3 AND LT PUSH2 0x11AB JUMPI PUSH1 0x19 SLOAD PUSH1 0x1 PUSH1 0x40 SHL SWAP1 DIV PUSH1 0x1 PUSH1 0x1 PUSH1 0x40 SHL SUB AND PUSH2 0x11AD JUMP JUMPDEST PUSH1 0x0 DUP3 GT PUSH2 0x2873 JUMPI PUSH1 0x0 DUP1 REVERT JUMPDEST POP PUSH1 0x7 SLOAD PUSH1 0x1 PUSH1 0x1 PUSH1 0x40 SHL SUB AND PUSH2 0x2888 PUSH2 0x27B8 JUMP JUMPDEST PUSH1 0x1C DUP1 SLOAD PUSH1 0x1 PUSH1 0x1 PUSH1 0x80 SHL SUB NOT AND PUSH1 0x1 PUSH1 0x1 PUSH1 0x80 SHL SUB SWAP3 SWAP1 SWAP3 AND SWAP2 SWAP1 SWAP2 OR SWAP1 SSTORE PUSH1 0x19 SLOAD TIMESTAMP SWAP1 PUSH1 0x1 PUSH1 0x40 SHL SWAP1 DIV PUSH1 0x1 PUSH1 0x1 PUSH1 0x40 SHL SUB SWAP1 DUP2 AND SWAP1 DUP3 AND GT PUSH2 0x28DF JUMPI PUSH1 0x40 MLOAD PUSH3 0x461BCD PUSH1 0xE5 SHL DUP2 MSTORE PUSH1 0x4 ADD PUSH2 0x14AB SWAP1 PUSH2 0x43C4 JUMP JUMPDEST PUSH1 0x9 SLOAD PUSH1 0x10 SLOAD PUSH1 0x40 MLOAD PUSH4 0x70A08231 PUSH1 0xE0 SHL DUP2 MSTORE ADDRESS PUSH1 0x4 DUP3 ADD MSTORE PUSH1 0x0 SWAP3 SWAP2 PUSH1 0x1 PUSH1 0x1 PUSH1 0xA0 SHL SUB AND SWAP1 PUSH4 0x70A08231 SWAP1 PUSH1 0x24 ADD PUSH1 0x20 PUSH1 0x40 MLOAD DUP1 DUP4 SUB DUP2 DUP7 GAS STATICCALL ISZERO DUP1 ISZERO PUSH2 0x292C JUMPI RETURNDATASIZE PUSH1 0x0 DUP1 RETURNDATACOPY RETURNDATASIZE PUSH1 0x0 REVERT JUMPDEST POP POP POP POP PUSH1 0x40 MLOAD RETURNDATASIZE PUSH1 0x1F NOT PUSH1 0x1F DUP3 ADD AND DUP3 ADD DUP1 PUSH1 0x40 MSTORE POP DUP2 ADD SWAP1 PUSH2 0x2950 SWAP2 SWAP1 PUSH2 0x424F JUMP JUMPDEST PUSH1 0x19 SLOAD PUSH1 0x2 SLOAD PUSH1 0x10 SLOAD SWAP4 SWAP1 SWAP3 SUB SWAP4 POP PUSH1 0x1 PUSH1 0x1 PUSH1 0x40 SHL SUB PUSH1 0x1 PUSH1 0x40 SHL SWAP1 SWAP2 DIV DUP2 AND DUP6 SUB AND SWAP2 PUSH1 0x1 PUSH1 0x1 PUSH1 0xA0 SHL SUB SWAP1 DUP2 AND SWAP2 AND EQ ISZERO PUSH2 0x2990 JUMPI PUSH1 0x0 SLOAD DUP3 SUB SWAP2 POP JUMPDEST DUP5 DUP3 GT ISZERO PUSH2 0x29BF JUMPI PUSH1 0x1 PUSH1 0x1 PUSH1 0x40 SHL SUB DUP5 AND PUSH1 0xA PUSH1 0x4 DUP5 MUL DIV DUP2 PUSH2 0x29B6 JUMPI PUSH2 0x29B6 PUSH2 0x41C7 JUMP JUMPDEST DIV PUSH1 0x15 SSTORE PUSH2 0x29C5 JUMP JUMPDEST PUSH1 0x0 PUSH1 0x15 SSTORE JUMPDEST PUSH1 0xA PUSH1 0x4 DUP4 MUL PUSH1 0x1A DUP1 SLOAD PUSH1 0x1 PUSH1 0x1 PUSH1 0x40 SHL SUB DUP1 DUP9 AND PUSH1 0x1 PUSH1 0x80 SHL MUL PUSH8 0xFFFFFFFFFFFFFFFF PUSH1 0x80 SHL NOT SWAP1 SWAP3 AND SWAP2 SWAP1 SWAP2 OR SWAP1 SWAP2 SSTORE PUSH1 0x19 DUP1 SLOAD DUP9 DUP9 ADD SWAP1 SWAP3 AND PUSH1 0x1 PUSH1 0x40 SHL MUL PUSH8 0xFFFFFFFFFFFFFFFF PUSH1 0x40 SHL NOT SWAP1 SWAP3 AND SWAP2 SWAP1 SWAP2 OR SWAP1 SSTORE PUSH1 0x9 DUP1 SLOAD SWAP3 SWAP1 SWAP2 DIV SWAP2 DUP3 ADD SWAP1 SSTORE PUSH1 0x40 MLOAD DUP2 DUP2 MSTORE SWAP1 SWAP6 POP PUSH32 0x686C47E59005842286D2977A436CC5CEEEF835A38DDE7754EB2B535E84FD45E5 SWAP1 PUSH1 0x20 ADD PUSH2 0x1623 JUMP JUMPDEST PUSH1 0x0 DUP3 GT PUSH2 0x2A6A JUMPI PUSH1 0x0 DUP1 REVERT JUMPDEST POP PUSH1 0x7 SLOAD PUSH1 0x12 DUP1 SLOAD PUSH1 0x1 ADD SWAP1 SSTORE PUSH1 0x1 PUSH1 0x1 PUSH1 0x40 SHL SUB AND PUSH2 0x2A88 PUSH2 0x3ABE JUMP JUMPDEST PUSH1 0x1C DUP1 SLOAD PUSH1 0x1 PUSH1 0x1 PUSH1 0x80 SHL SUB SWAP1 DUP2 AND PUSH1 0x1 PUSH1 0x80 SHL SWAP4 SWAP1 SWAP2 AND DUP4 MUL OR SWAP1 SSTORE PUSH1 0x19 SLOAD TIMESTAMP SWAP2 SWAP1 DIV PUSH1 0x1 PUSH1 0x1 PUSH1 0x40 SHL SUB SWAP1 DUP2 AND SWAP1 DUP3 AND GT PUSH2 0x2AD7 JUMPI PUSH1 0x40 MLOAD PUSH3 0x461BCD PUSH1 0xE5 SHL DUP2 MSTORE PUSH1 0x4 ADD PUSH2 0x14AB SWAP1 PUSH2 0x43C4 JUMP JUMPDEST PUSH1 0xA SLOAD PUSH1 0x19 SLOAD SELFBALANCE SWAP2 SWAP1 SWAP2 SUB SWAP1 PUSH1 0x1 PUSH1 0x1 PUSH1 0x40 SHL SUB PUSH1 0x1 PUSH1 0x80 SHL SWAP1 SWAP2 DIV DUP2 AND DUP4 SUB DUP2 AND SWAP1 DUP5 AND DUP3 GT ISZERO PUSH2 0x2B2A JUMPI PUSH1 0x1 PUSH1 0x1 PUSH1 0x40 SHL SUB DUP5 AND PUSH1 0xA PUSH1 0x4 DUP5 MUL DIV DUP2 PUSH2 0x2B21 JUMPI PUSH2 0x2B21 PUSH2 0x41C7 JUMP JUMPDEST DIV PUSH1 0x16 SSTORE PUSH2 0x2B30 JUMP JUMPDEST PUSH1 0x0 PUSH1 0x16 SSTORE JUMPDEST PUSH1 0xA PUSH1 0x4 DUP4 MUL PUSH1 0x1A DUP1 SLOAD PUSH1 0x1 PUSH1 0x1 PUSH1 0x40 SHL SUB DUP1 DUP9 AND PUSH1 0x1 PUSH1 0xC0 SHL MUL PUSH1 0x1 PUSH1 0x1 PUSH1 0xC0 SHL SUB SWAP1 SWAP3 AND SWAP2 SWAP1 SWAP2 OR SWAP1 SWAP2 SSTORE PUSH1 0x19 DUP1 SLOAD DUP9 DUP9 ADD SWAP1 SWAP3 AND PUSH1 0x1 PUSH1 0x80 SHL MUL PUSH8 0xFFFFFFFFFFFFFFFF PUSH1 0x80 SHL NOT SWAP1 SWAP3 AND SWAP2 SWAP1 SWAP2 OR SWAP1 SSTORE PUSH1 0xA DUP1 SLOAD SWAP3 SWAP1 SWAP2 DIV SWAP2 DUP3 ADD SWAP1 SSTORE PUSH1 0x40 MLOAD DUP2 DUP2 MSTORE SWAP1 SWAP6 POP PUSH32 0xD62583100C7524E43BDA2404E1236DC6133A424ED253A00539E75BE5E65A4633 SWAP1 PUSH1 0x20 ADD PUSH2 0x1623 JUMP JUMPDEST PUSH1 0x19 SLOAD PUSH1 0x0 SWAP1 TIMESTAMP SWAP1 PUSH1 0x1 PUSH1 0x1 PUSH1 0x40 SHL SUB PUSH1 0x1 PUSH1 0x80 SHL SWAP1 SWAP2 DIV DUP2 AND SWAP1 DUP3 AND LT PUSH2 0x11AB JUMPI PUSH1 0x19 SLOAD PUSH1 0x1 PUSH1 0x80 SHL SWAP1 DIV PUSH1 0x1 PUSH1 0x1 PUSH1 0x40 SHL SUB AND PUSH2 0x11AD JUMP JUMPDEST PUSH1 0x1 PUSH1 0x1 PUSH1 0xA0 SHL SUB DUP2 AND PUSH1 0x0 SWAP1 DUP2 MSTORE PUSH1 0x21 PUSH1 0x20 MSTORE PUSH1 0x40 DUP2 KECCAK256 SLOAD PUSH1 0x5 SLOAD PUSH1 0x1 PUSH1 0x1 PUSH1 0x80 SHL SUB PUSH1 0x1 PUSH1 0x80 SHL DUP4 DIV DUP2 AND SWAP3 PUSH1 0xA SWAP3 SWAP1 SWAP3 EXP SWAP2 AND PUSH2 0xEB8 PUSH2 0x1EEB JUMP JUMPDEST PUSH1 0x0 DUP3 GT PUSH2 0x2C48 JUMPI PUSH1 0x0 DUP1 REVERT JUMPDEST POP PUSH1 0x7 SLOAD PUSH1 0x1 PUSH1 0x1 PUSH1 0x40 SHL SUB AND PUSH2 0x2C5D PUSH2 0x30C1 JUMP JUMPDEST PUSH1 0x1B DUP1 SLOAD PUSH1 0x1 PUSH1 0x1 PUSH1 0x80 SHL SUB SWAP3 DUP4 AND PUSH1 0x1 PUSH1 0x80 SHL MUL SWAP3 AND SWAP2 SWAP1 SWAP2 OR SWAP1 SSTORE PUSH1 0x19 SLOAD TIMESTAMP SWAP1 PUSH1 0x1 PUSH1 0x1 PUSH1 0x40 SHL SUB SWAP1 DUP2 AND SWAP1 DUP3 AND GT PUSH2 0x2CAA JUMPI PUSH1 0x40 MLOAD PUSH3 0x461BCD PUSH1 0xE5 SHL DUP2 MSTORE PUSH1 0x4 ADD PUSH2 0x14AB SWAP1 PUSH2 0x43C4 JUMP JUMPDEST PUSH1 0x8 SLOAD PUSH1 0x11 SLOAD PUSH1 0x40 MLOAD PUSH4 0x70A08231 PUSH1 0xE0 SHL DUP2 MSTORE ADDRESS PUSH1 0x4 DUP3 ADD MSTORE PUSH1 0x0 SWAP3 SWAP2 PUSH1 0x1 PUSH1 0x1 PUSH1 0xA0 SHL SUB AND SWAP1 PUSH4 0x70A08231 SWAP1 PUSH1 0x24 ADD PUSH1 0x20 PUSH1 0x40 MLOAD DUP1 DUP4 SUB DUP2 DUP7 GAS STATICCALL ISZERO DUP1 ISZERO PUSH2 0x2CF7 JUMPI RETURNDATASIZE PUSH1 0x0 DUP1 RETURNDATACOPY RETURNDATASIZE PUSH1 0x0 REVERT JUMPDEST POP POP POP POP PUSH1 0x40 MLOAD RETURNDATASIZE PUSH1 0x1F NOT PUSH1 0x1F DUP3 ADD AND DUP3 ADD DUP1 PUSH1 0x40 MSTORE POP DUP2 ADD SWAP1 PUSH2 0x2D1B SWAP2 SWAP1 PUSH2 0x424F JUMP JUMPDEST PUSH1 0x19 SLOAD PUSH1 0x2 SLOAD PUSH1 0x11 SLOAD SWAP4 SWAP1 SWAP3 SUB SWAP4 POP PUSH1 0x1 PUSH1 0x1 PUSH1 0x40 SHL SUB SWAP1 DUP2 AND DUP6 SUB AND SWAP2 PUSH1 0x1 PUSH1 0x1 PUSH1 0xA0 SHL SUB SWAP1 DUP2 AND SWAP2 AND EQ ISZERO PUSH2 0x2D54 JUMPI PUSH1 0x0 SLOAD DUP3 SUB SWAP2 POP JUMPDEST DUP4 PUSH1 0x1 PUSH1 0x1 PUSH1 0x40 SHL SUB AND DUP3 GT ISZERO PUSH2 0x2D8C JUMPI PUSH1 0x1 PUSH1 0x1 PUSH1 0x40 SHL SUB DUP5 AND PUSH1 0xA PUSH1 0x4 DUP5 MUL DIV DUP2 PUSH2 0x2D83 JUMPI PUSH2 0x2D83 PUSH2 0x41C7 JUMP JUMPDEST DIV PUSH1 0x14 SSTORE PUSH2 0x2D92 JUMP JUMPDEST PUSH1 0x0 PUSH1 0x14 SSTORE JUMPDEST PUSH1 0x1A DUP1 SLOAD PUSH8 0xFFFFFFFFFFFFFFFF PUSH1 0x40 SHL NOT AND PUSH1 0x1 PUSH1 0x40 SHL PUSH1 0x1 PUSH1 0x1 PUSH1 0x40 SHL SUB DUP7 DUP2 AND SWAP2 SWAP1 SWAP2 MUL SWAP2 SWAP1 SWAP2 OR SWAP1 SWAP2 SSTORE PUSH1 0x19 DUP1 SLOAD PUSH8 0xFFFFFFFFFFFFFFFF NOT AND DUP7 DUP7 ADD SWAP1 SWAP3 AND SWAP2 SWAP1 SWAP2 OR SWAP1 SSTORE PUSH1 0x8 DUP1 SLOAD PUSH1 0xA PUSH1 0x4 DUP6 MUL DIV SWAP1 DUP2 ADD SWAP1 SWAP2 SSTORE PUSH1 0x40 MLOAD DUP2 DUP2 MSTORE SWAP1 SWAP6 POP PUSH32 0xDE88A922E0D3B88B24E9623EFEB464919C6BF9F66857A65E2BFCF2CE87A9433D SWAP1 PUSH1 0x20 ADD PUSH2 0x1623 JUMP JUMPDEST PUSH1 0x0 DUP3 GT PUSH2 0x2E2B JUMPI PUSH1 0x0 DUP1 REVERT JUMPDEST POP PUSH1 0x7 SLOAD PUSH1 0x1 PUSH1 0x1 PUSH1 0x40 SHL SUB AND PUSH2 0x2E40 PUSH2 0x1EEB JUMP JUMPDEST PUSH1 0x1D DUP1 SLOAD PUSH1 0x1 PUSH1 0x1 PUSH1 0x80 SHL SUB NOT AND PUSH1 0x1 PUSH1 0x1 PUSH1 0x80 SHL SUB SWAP3 SWAP1 SWAP3 AND SWAP2 SWAP1 SWAP2 OR SWAP1 SSTORE TIMESTAMP PUSH1 0x3 PUSH1 0x4 DUP4 MUL PUSH1 0x1 PUSH1 0x1 PUSH1 0x40 SHL SUB AND DIV PUSH1 0x19 PUSH1 0x18 SWAP1 SLOAD SWAP1 PUSH2 0x100 EXP SWAP1 DIV PUSH1 0x1 PUSH1 0x1 PUSH1 0x40 SHL SUB AND ADD PUSH1 0x1 PUSH1 0x1 PUSH1 0x40 SHL SUB AND DUP2 PUSH1 0x1 PUSH1 0x1 PUSH1 0x40 SHL SUB AND GT PUSH2 0x2EB8 JUMPI PUSH1 0x40 MLOAD PUSH3 0x461BCD PUSH1 0xE5 SHL DUP2 MSTORE PUSH1 0x4 ADD PUSH2 0x14AB SWAP1 PUSH2 0x41DD JUMP JUMPDEST PUSH1 0xB SLOAD PUSH1 0xF SLOAD PUSH1 0x40 MLOAD PUSH4 0x70A08231 PUSH1 0xE0 SHL DUP2 MSTORE ADDRESS PUSH1 0x4 DUP3 ADD MSTORE PUSH1 0x0 SWAP3 SWAP2 PUSH1 0x1 PUSH1 0x1 PUSH1 0xA0 SHL SUB AND SWAP1 PUSH4 0x70A08231 SWAP1 PUSH1 0x24 ADD PUSH1 0x20 PUSH1 0x40 MLOAD DUP1 DUP4 SUB DUP2 DUP7 GAS STATICCALL ISZERO DUP1 ISZERO PUSH2 0x2F05 JUMPI RETURNDATASIZE PUSH1 0x0 DUP1 RETURNDATACOPY RETURNDATASIZE PUSH1 0x0 REVERT JUMPDEST POP POP POP POP PUSH1 0x40 MLOAD RETURNDATASIZE PUSH1 0x1F NOT PUSH1 0x1F DUP3 ADD AND DUP3 ADD DUP1 PUSH1 0x40 MSTORE POP DUP2 ADD SWAP1 PUSH2 0x2F29 SWAP2 SWAP1 PUSH2 0x424F JUMP JUMPDEST PUSH1 0x19 SLOAD PUSH1 0x2 SLOAD PUSH1 0xF SLOAD SWAP4 SWAP1 SWAP3 SUB SWAP4 POP PUSH1 0x1 PUSH1 0x1 PUSH1 0x40 SHL SUB PUSH1 0x1 PUSH1 0xC0 SHL SWAP1 SWAP2 DIV DUP2 AND DUP6 SUB AND SWAP2 PUSH1 0x1 PUSH1 0x1 PUSH1 0xA0 SHL SUB SWAP1 DUP2 AND SWAP2 AND EQ ISZERO PUSH2 0x2F69 JUMPI PUSH1 0x0 SLOAD DUP3 SUB SWAP2 POP JUMPDEST DUP4 PUSH1 0x1 PUSH1 0x1 PUSH1 0x40 SHL SUB AND DUP3 GT ISZERO PUSH2 0x2FA1 JUMPI PUSH1 0x1 PUSH1 0x1 PUSH1 0x40 SHL SUB DUP5 AND PUSH1 0xA PUSH1 0x4 DUP5 MUL DIV DUP2 PUSH2 0x2F98 JUMPI PUSH2 0x2F98 PUSH2 0x41C7 JUMP JUMPDEST DIV PUSH1 0x17 SSTORE PUSH2 0x2FA7 JUMP JUMPDEST PUSH1 0x0 PUSH1 0x17 SSTORE JUMPDEST PUSH1 0x1B DUP1 SLOAD PUSH8 0xFFFFFFFFFFFFFFFF NOT AND PUSH1 0x1 PUSH1 0x1 PUSH1 0x40 SHL SUB DUP6 DUP2 AND SWAP2 SWAP1 SWAP2 OR SWAP1 SWAP2 SSTORE PUSH1 0x19 DUP1 SLOAD PUSH1 0x1 PUSH1 0x1 PUSH1 0xC0 SHL SUB AND PUSH1 0x1 PUSH1 0xC0 SHL DUP8 DUP8 ADD SWAP1 SWAP4 AND SWAP3 SWAP1 SWAP3 MUL SWAP2 SWAP1 SWAP2 OR SWAP1 SSTORE PUSH1 0x8 SLOAD PUSH1 0xA PUSH1 0x4 DUP5 MUL DIV SWAP1 DUP2 ADD PUSH1 0xB SSTORE PUSH1 0x40 MLOAD DUP2 DUP2 MSTORE SWAP1 SWAP6 POP PUSH32 0xB37C80D67A02E9452CFE51996AD0F6FD57D8251EDEF007C7D84BEB157DDE7D2 SWAP1 PUSH1 0x20 ADD PUSH2 0x1623 JUMP JUMPDEST PUSH1 0x0 DUP1 SLOAD DUP1 PUSH2 0x304E JUMPI POP POP PUSH1 0x1D SLOAD PUSH1 0x1 PUSH1 0x80 SHL SWAP1 DIV PUSH1 0x1 PUSH1 0x1 PUSH1 0x80 SHL SUB AND SWAP1 JUMP JUMPDEST PUSH1 0x1B SLOAD PUSH1 0x0 SWAP1 PUSH1 0x1 PUSH1 0x40 SHL SWAP1 DIV PUSH1 0x1 PUSH1 0x1 PUSH1 0x40 SHL SUB AND PUSH2 0x306C PUSH2 0x117F JUMP JUMPDEST SUB PUSH1 0x1 PUSH1 0x1 PUSH1 0x40 SHL SUB AND SWAP1 POP DUP2 PUSH1 0x6 SLOAD PUSH1 0xA EXP PUSH1 0x18 SLOAD DUP4 MUL MUL DUP2 PUSH2 0x3092 JUMPI PUSH2 0x3092 PUSH2 0x41C7 JUMP JUMPDEST PUSH1 0x1D SLOAD PUSH1 0x1 PUSH1 0x1 PUSH1 0x80 SHL SUB PUSH1 0x1 PUSH1 0x80 SHL SWAP1 SWAP2 DIV AND SWAP2 SWAP1 DIV ADD SWAP4 SWAP3 POP POP POP JUMP JUMPDEST PUSH1 0x4 DUP2 DUP2 SLOAD DUP2 LT PUSH2 0x1F69 JUMPI PUSH1 0x0 DUP1 REVERT JUMPDEST PUSH1 0x0 DUP1 SLOAD DUP1 PUSH2 0x30E2 JUMPI POP POP PUSH1 0x1B SLOAD PUSH1 0x1 PUSH1 0x80 SHL SWAP1 DIV PUSH1 0x1 PUSH1 0x1 PUSH1 0x80 SHL SUB AND SWAP1 JUMP JUMPDEST PUSH1 0x1A SLOAD PUSH1 0x0 SWAP1 PUSH1 0x1 PUSH1 0x40 SHL SWAP1 DIV PUSH1 0x1 PUSH1 0x1 PUSH1 0x40 SHL SUB AND PUSH2 0x3100 PUSH2 0x26FF JUMP JUMPDEST SUB PUSH1 0x1 PUSH1 0x1 PUSH1 0x40 SHL SUB AND SWAP1 POP DUP2 PUSH1 0x14 SLOAD DUP3 MUL PUSH8 0xDE0B6B3A7640000 MUL DUP2 PUSH2 0x3129 JUMPI PUSH2 0x3129 PUSH2 0x41C7 JUMP JUMPDEST PUSH1 0x1B SLOAD PUSH1 0x1 PUSH1 0x1 PUSH1 0x80 SHL SUB PUSH1 0x1 PUSH1 0x80 SHL SWAP1 SWAP2 DIV AND SWAP2 SWAP1 DIV ADD SWAP4 SWAP3 POP POP POP JUMP JUMPDEST CALLER PUSH1 0x0 PUSH2 0x3153 PUSH2 0x30C1 JUMP JUMPDEST SWAP1 POP PUSH1 0x0 PUSH2 0x315F PUSH2 0x27B8 JUMP JUMPDEST SWAP1 POP PUSH1 0x0 PUSH2 0x316B PUSH2 0x3ABE JUMP JUMPDEST SWAP1 POP PUSH1 0x0 PUSH2 0x3177 PUSH2 0x1EEB JUMP JUMPDEST SWAP1 POP PUSH1 0x0 PUSH2 0x3183 PUSH2 0x302D JUMP JUMPDEST SWAP1 POP PUSH2 0x318D PUSH2 0x26FF JUMP JUMPDEST PUSH1 0x1A PUSH1 0x8 PUSH2 0x100 EXP DUP2 SLOAD DUP2 PUSH1 0x1 PUSH1 0x1 PUSH1 0x40 SHL SUB MUL NOT AND SWAP1 DUP4 PUSH1 0x1 PUSH1 0x1 PUSH1 0x40 SHL SUB AND MUL OR SWAP1 SSTORE POP PUSH2 0x31BB PUSH2 0x282C JUMP JUMPDEST PUSH1 0x1A PUSH1 0x10 PUSH2 0x100 EXP DUP2 SLOAD DUP2 PUSH1 0x1 PUSH1 0x1 PUSH1 0x40 SHL SUB MUL NOT AND SWAP1 DUP4 PUSH1 0x1 PUSH1 0x1 PUSH1 0x40 SHL SUB AND MUL OR SWAP1 SSTORE POP PUSH2 0x31E9 PUSH2 0x2BC3 JUMP JUMPDEST PUSH1 0x1A PUSH1 0x18 PUSH2 0x100 EXP DUP2 SLOAD DUP2 PUSH1 0x1 PUSH1 0x1 PUSH1 0x40 SHL SUB MUL NOT AND SWAP1 DUP4 PUSH1 0x1 PUSH1 0x1 PUSH1 0x40 SHL SUB AND MUL OR SWAP1 SSTORE POP PUSH2 0x3217 PUSH2 0x13DA JUMP JUMPDEST PUSH1 0x1B DUP1 SLOAD PUSH1 0x1 PUSH1 0x1 PUSH1 0x40 SHL SUB SWAP3 SWAP1 SWAP3 AND PUSH8 0xFFFFFFFFFFFFFFFF PUSH1 0x40 SHL SWAP1 SWAP3 AND SWAP2 SWAP1 SWAP2 OR PUSH1 0x1 PUSH1 0x80 SHL PUSH1 0x1 PUSH1 0x1 PUSH1 0x80 SHL SUB DUP9 DUP2 AND DUP3 MUL SWAP3 SWAP1 SWAP3 OR SWAP1 SWAP3 SSTORE DUP6 DUP2 AND DUP6 DUP3 AND DUP4 MUL OR PUSH1 0x1C SSTORE DUP4 DUP2 AND SWAP1 DUP4 AND SWAP1 SWAP2 MUL OR PUSH1 0x1D SSTORE PUSH2 0x3275 DUP7 PUSH2 0xE7A JUMP JUMPDEST PUSH1 0x1 PUSH1 0x1 PUSH1 0xA0 SHL SUB DUP8 AND PUSH1 0x0 SWAP1 DUP2 MSTORE PUSH1 0x1E PUSH1 0x20 MSTORE PUSH1 0x40 SWAP1 KECCAK256 DUP1 SLOAD PUSH1 0x1 PUSH1 0x1 PUSH1 0x80 SHL SUB SWAP3 DUP4 AND PUSH1 0x1 PUSH1 0x80 SHL MUL SWAP3 AND SWAP2 SWAP1 SWAP2 OR SWAP1 SSTORE PUSH2 0x32B1 DUP7 PUSH2 0x3B68 JUMP JUMPDEST PUSH1 0x1 PUSH1 0x1 PUSH1 0xA0 SHL SUB DUP8 AND PUSH1 0x0 SWAP1 DUP2 MSTORE PUSH1 0x1F PUSH1 0x20 MSTORE PUSH1 0x40 SWAP1 KECCAK256 DUP1 SLOAD PUSH1 0x1 PUSH1 0x1 PUSH1 0x80 SHL SUB SWAP3 DUP4 AND PUSH1 0x1 PUSH1 0x80 SHL MUL SWAP3 AND SWAP2 SWAP1 SWAP2 OR SWAP1 SSTORE PUSH2 0x32ED DUP7 PUSH2 0x1632 JUMP JUMPDEST PUSH1 0x1 PUSH1 0x1 PUSH1 0xA0 SHL SUB DUP8 AND PUSH1 0x0 SWAP1 DUP2 MSTORE PUSH1 0x20 DUP1 MSTORE PUSH1 0x40 SWAP1 KECCAK256 DUP1 SLOAD PUSH1 0x1 PUSH1 0x1 PUSH1 0x80 SHL SUB SWAP3 DUP4 AND PUSH1 0x1 PUSH1 0x80 SHL MUL SWAP3 AND SWAP2 SWAP1 SWAP2 OR SWAP1 SSTORE PUSH2 0x3328 DUP7 PUSH2 0x2BFD JUMP JUMPDEST PUSH1 0x1 PUSH1 0x1 PUSH1 0xA0 SHL SUB DUP8 AND PUSH1 0x0 SWAP1 DUP2 MSTORE PUSH1 0x21 PUSH1 0x20 SWAP1 DUP2 MSTORE PUSH1 0x40 DUP1 DUP4 KECCAK256 DUP1 SLOAD PUSH1 0x1 PUSH1 0x1 PUSH1 0x80 SHL SUB SWAP6 DUP7 AND PUSH1 0x1 PUSH1 0x80 SHL MUL SWAP1 DUP7 AND OR DUP2 SSTORE PUSH1 0x1E DUP4 MSTORE DUP2 DUP5 KECCAK256 DUP1 SLOAD DUP12 DUP8 AND PUSH1 0x1 PUSH1 0x1 PUSH1 0x80 SHL SUB NOT SWAP2 DUP3 AND OR SWAP1 SWAP2 SSTORE PUSH1 0x1F DUP5 MSTORE DUP3 DUP6 KECCAK256 DUP1 SLOAD DUP12 DUP9 AND SWAP1 DUP4 AND OR SWAP1 SSTORE DUP4 DUP1 MSTORE DUP3 DUP6 KECCAK256 DUP1 SLOAD DUP11 DUP9 AND SWAP1 DUP4 AND OR SWAP1 SSTORE DUP2 SLOAD DUP9 DUP8 AND SWAP1 DUP3 AND OR SWAP1 SWAP2 SSTORE PUSH1 0x22 SWAP1 SWAP3 MSTORE DUP3 KECCAK256 DUP1 SLOAD SWAP4 DUP6 AND SWAP4 SWAP1 SWAP2 AND SWAP3 SWAP1 SWAP3 OR SWAP1 SWAP2 SSTORE PUSH2 0x33C7 CALLER PUSH2 0xE7A JUMP JUMPDEST PUSH1 0x1 PUSH1 0x1 PUSH1 0x80 SHL SUB AND SWAP1 POP PUSH1 0x0 PUSH2 0x33DD CALLER PUSH2 0x3B68 JUMP JUMPDEST PUSH1 0x1 PUSH1 0x1 PUSH1 0x80 SHL SUB AND SWAP1 POP DUP9 PUSH2 0x35B8 JUMPI DUP2 ISZERO PUSH2 0x34B2 JUMPI CALLER PUSH1 0x0 DUP2 DUP2 MSTORE PUSH1 0x1E PUSH1 0x20 MSTORE PUSH1 0x40 SWAP1 DUP2 SWAP1 KECCAK256 DUP1 SLOAD PUSH1 0x1 PUSH1 0x1 PUSH1 0x80 SHL SUB AND SWAP1 SSTORE PUSH1 0x11 SLOAD SWAP1 MLOAD PUSH4 0xA9059CBB PUSH1 0xE0 SHL DUP2 MSTORE PUSH1 0x1 PUSH1 0x1 PUSH1 0xA0 SHL SUB SWAP1 SWAP2 AND SWAP2 PUSH4 0xA9059CBB SWAP2 PUSH2 0x3441 SWAP2 SWAP1 DUP7 SWAP1 PUSH1 0x4 ADD PUSH2 0x430A JUMP JUMPDEST PUSH1 0x20 PUSH1 0x40 MLOAD DUP1 DUP4 SUB DUP2 PUSH1 0x0 DUP8 GAS CALL ISZERO DUP1 ISZERO PUSH2 0x3460 JUMPI RETURNDATASIZE PUSH1 0x0 DUP1 RETURNDATACOPY RETURNDATASIZE PUSH1 0x0 REVERT JUMPDEST POP POP POP POP PUSH1 0x40 MLOAD RETURNDATASIZE PUSH1 0x1F NOT PUSH1 0x1F DUP3 ADD AND DUP3 ADD DUP1 PUSH1 0x40 MSTORE POP DUP2 ADD SWAP1 PUSH2 0x3484 SWAP2 SWAP1 PUSH2 0x4323 JUMP JUMPDEST PUSH2 0x34A0 JUMPI PUSH1 0x40 MLOAD PUSH3 0x461BCD PUSH1 0xE5 SHL DUP2 MSTORE PUSH1 0x4 ADD PUSH2 0x14AB SWAP1 PUSH2 0x4345 JUMP JUMPDEST DUP2 PUSH1 0x8 SLOAD PUSH2 0x34AE SWAP2 SWAP1 PUSH2 0x42F3 JUMP JUMPDEST PUSH1 0x8 SSTORE JUMPDEST DUP1 ISZERO PUSH2 0x3577 JUMPI CALLER PUSH1 0x0 DUP2 DUP2 MSTORE PUSH1 0x1F PUSH1 0x20 MSTORE PUSH1 0x40 SWAP1 DUP2 SWAP1 KECCAK256 DUP1 SLOAD PUSH1 0x1 PUSH1 0x1 PUSH1 0x80 SHL SUB AND SWAP1 SSTORE PUSH1 0x10 SLOAD SWAP1 MLOAD PUSH4 0xA9059CBB PUSH1 0xE0 SHL DUP2 MSTORE PUSH1 0x1 PUSH1 0x1 PUSH1 0xA0 SHL SUB SWAP1 SWAP2 AND SWAP2 PUSH4 0xA9059CBB SWAP2 PUSH2 0x3506 SWAP2 SWAP1 DUP6 SWAP1 PUSH1 0x4 ADD PUSH2 0x430A JUMP JUMPDEST PUSH1 0x20 PUSH1 0x40 MLOAD DUP1 DUP4 SUB DUP2 PUSH1 0x0 DUP8 GAS CALL ISZERO DUP1 ISZERO PUSH2 0x3525 JUMPI RETURNDATASIZE PUSH1 0x0 DUP1 RETURNDATACOPY RETURNDATASIZE PUSH1 0x0 REVERT JUMPDEST POP POP POP POP PUSH1 0x40 MLOAD RETURNDATASIZE PUSH1 0x1F NOT PUSH1 0x1F DUP3 ADD AND DUP3 ADD DUP1 PUSH1 0x40 MSTORE POP DUP2 ADD SWAP1 PUSH2 0x3549 SWAP2 SWAP1 PUSH2 0x4323 JUMP JUMPDEST PUSH2 0x3565 JUMPI PUSH1 0x40 MLOAD PUSH3 0x461BCD PUSH1 0xE5 SHL DUP2 MSTORE PUSH1 0x4 ADD PUSH2 0x14AB SWAP1 PUSH2 0x4375 JUMP JUMPDEST DUP1 PUSH1 0x9 SLOAD PUSH2 0x3573 SWAP2 SWAP1 PUSH2 0x42F3 JUMP JUMPDEST PUSH1 0x9 SSTORE JUMPDEST PUSH1 0x40 DUP1 MLOAD DUP4 DUP2 MSTORE PUSH1 0x20 DUP2 ADD DUP4 SWAP1 MSTORE CALLER SWAP2 PUSH32 0xA3AFEA219C0FF303D8C5C37CB6853C0CFE0C5772D2839B30405F40FE678AA910 SWAP2 ADD JUMPDEST PUSH1 0x40 MLOAD DUP1 SWAP2 SUB SWAP1 LOG2 PUSH2 0x3AB3 JUMP JUMPDEST DUP9 PUSH1 0x2 EQ ISZERO PUSH2 0x36BF JUMPI DUP1 ISZERO PUSH2 0x3686 JUMPI CALLER PUSH1 0x0 DUP2 DUP2 MSTORE PUSH1 0x1F PUSH1 0x20 MSTORE PUSH1 0x40 SWAP1 DUP2 SWAP1 KECCAK256 DUP1 SLOAD PUSH1 0x1 PUSH1 0x1 PUSH1 0x80 SHL SUB AND SWAP1 SSTORE PUSH1 0x10 SLOAD SWAP1 MLOAD PUSH4 0xA9059CBB PUSH1 0xE0 SHL DUP2 MSTORE PUSH1 0x1 PUSH1 0x1 PUSH1 0xA0 SHL SUB SWAP1 SWAP2 AND SWAP2 PUSH4 0xA9059CBB SWAP2 PUSH2 0x3615 SWAP2 SWAP1 DUP6 SWAP1 PUSH1 0x4 ADD PUSH2 0x430A JUMP JUMPDEST PUSH1 0x20 PUSH1 0x40 MLOAD DUP1 DUP4 SUB DUP2 PUSH1 0x0 DUP8 GAS CALL ISZERO DUP1 ISZERO PUSH2 0x3634 JUMPI RETURNDATASIZE PUSH1 0x0 DUP1 RETURNDATACOPY RETURNDATASIZE PUSH1 0x0 REVERT JUMPDEST POP POP POP POP PUSH1 0x40 MLOAD RETURNDATASIZE PUSH1 0x1F NOT PUSH1 0x1F DUP3 ADD AND DUP3 ADD DUP1 PUSH1 0x40 MSTORE POP DUP2 ADD SWAP1 PUSH2 0x3658 SWAP2 SWAP1 PUSH2 0x4323 JUMP JUMPDEST PUSH2 0x3674 JUMPI PUSH1 0x40 MLOAD PUSH3 0x461BCD PUSH1 0xE5 SHL DUP2 MSTORE PUSH1 0x4 ADD PUSH2 0x14AB SWAP1 PUSH2 0x4375 JUMP JUMPDEST DUP1 PUSH1 0x9 SLOAD PUSH2 0x3682 SWAP2 SWAP1 PUSH2 0x42F3 JUMP JUMPDEST PUSH1 0x9 SSTORE JUMPDEST PUSH1 0x40 DUP1 MLOAD PUSH1 0x0 DUP2 MSTORE PUSH1 0x20 DUP2 ADD DUP4 SWAP1 MSTORE CALLER SWAP2 PUSH32 0xA3AFEA219C0FF303D8C5C37CB6853C0CFE0C5772D2839B30405F40FE678AA910 SWAP2 ADD PUSH2 0x35AB JUMP JUMPDEST DUP9 PUSH1 0x1 EQ ISZERO PUSH2 0x37C5 JUMPI DUP2 ISZERO PUSH2 0x378D JUMPI CALLER PUSH1 0x0 DUP2 DUP2 MSTORE PUSH1 0x1E PUSH1 0x20 MSTORE PUSH1 0x40 SWAP1 DUP2 SWAP1 KECCAK256 DUP1 SLOAD PUSH1 0x1 PUSH1 0x1 PUSH1 0x80 SHL SUB AND SWAP1 SSTORE PUSH1 0x11 SLOAD SWAP1 MLOAD PUSH4 0xA9059CBB PUSH1 0xE0 SHL DUP2 MSTORE PUSH1 0x1 PUSH1 0x1 PUSH1 0xA0 SHL SUB SWAP1 SWAP2 AND SWAP2 PUSH4 0xA9059CBB SWAP2 PUSH2 0x371C SWAP2 SWAP1 DUP7 SWAP1 PUSH1 0x4 ADD PUSH2 0x430A JUMP JUMPDEST PUSH1 0x20 PUSH1 0x40 MLOAD DUP1 DUP4 SUB DUP2 PUSH1 0x0 DUP8 GAS CALL ISZERO DUP1 ISZERO PUSH2 0x373B JUMPI RETURNDATASIZE PUSH1 0x0 DUP1 RETURNDATACOPY RETURNDATASIZE PUSH1 0x0 REVERT JUMPDEST POP POP POP POP PUSH1 0x40 MLOAD RETURNDATASIZE PUSH1 0x1F NOT PUSH1 0x1F DUP3 ADD AND DUP3 ADD DUP1 PUSH1 0x40 MSTORE POP DUP2 ADD SWAP1 PUSH2 0x375F SWAP2 SWAP1 PUSH2 0x4323 JUMP JUMPDEST PUSH2 0x377B JUMPI PUSH1 0x40 MLOAD PUSH3 0x461BCD PUSH1 0xE5 SHL DUP2 MSTORE PUSH1 0x4 ADD PUSH2 0x14AB SWAP1 PUSH2 0x4345 JUMP JUMPDEST DUP2 PUSH1 0x8 SLOAD PUSH2 0x3789 SWAP2 SWAP1 PUSH2 0x42F3 JUMP JUMPDEST PUSH1 0x8 SSTORE JUMPDEST PUSH1 0x40 DUP1 MLOAD DUP4 DUP2 MSTORE PUSH1 0x0 PUSH1 0x20 DUP3 ADD MSTORE CALLER SWAP2 PUSH32 0xA3AFEA219C0FF303D8C5C37CB6853C0CFE0C5772D2839B30405F40FE678AA910 SWAP2 ADD PUSH2 0x35AB JUMP JUMPDEST DUP9 PUSH1 0x3 EQ ISZERO PUSH2 0x3879 JUMPI PUSH1 0x0 PUSH2 0x37D9 CALLER PUSH2 0x1632 JUMP JUMPDEST PUSH1 0x1 PUSH1 0x1 PUSH1 0x80 SHL SUB AND SWAP1 POP DUP1 ISZERO PUSH2 0x3873 JUMPI CALLER PUSH1 0x0 DUP2 DUP2 MSTORE PUSH1 0x20 DUP1 MSTORE PUSH1 0x40 DUP1 DUP3 KECCAK256 DUP1 SLOAD PUSH1 0x1 PUSH1 0x1 PUSH1 0x80 SHL SUB AND SWAP1 SSTORE MLOAD DUP3 SWAP2 DUP5 ISZERO PUSH2 0x8FC MUL SWAP2 DUP6 SWAP2 DUP2 DUP2 DUP2 DUP6 DUP9 DUP9 CALL SWAP4 POP POP POP POP PUSH2 0x3860 JUMPI PUSH1 0x40 MLOAD PUSH3 0x461BCD PUSH1 0xE5 SHL DUP2 MSTORE PUSH1 0x20 PUSH1 0x4 DUP3 ADD MSTORE PUSH1 0x13 PUSH1 0x24 DUP3 ADD MSTORE PUSH19 0x115D1A081D1C985B9CD9995C8819985A5B1959 PUSH1 0x6A SHL PUSH1 0x44 DUP3 ADD MSTORE PUSH1 0x64 ADD PUSH2 0x14AB JUMP JUMPDEST DUP2 PUSH1 0xA SLOAD PUSH2 0x386E SWAP2 SWAP1 PUSH2 0x42F3 JUMP JUMPDEST PUSH1 0xA SSTORE POP JUMPDEST POP PUSH2 0x3AB3 JUMP JUMPDEST DUP9 PUSH1 0x4 EQ ISZERO PUSH2 0x3998 JUMPI PUSH1 0x0 PUSH2 0x388D CALLER PUSH2 0x2BFD JUMP JUMPDEST PUSH1 0x1 PUSH1 0x1 PUSH1 0x80 SHL SUB AND SWAP1 POP DUP1 ISZERO PUSH2 0x395D JUMPI CALLER PUSH1 0x0 DUP2 DUP2 MSTORE PUSH1 0x21 PUSH1 0x20 MSTORE PUSH1 0x40 SWAP1 DUP2 SWAP1 KECCAK256 DUP1 SLOAD PUSH1 0x1 PUSH1 0x1 PUSH1 0x80 SHL SUB AND SWAP1 SSTORE PUSH1 0xF SLOAD SWAP1 MLOAD PUSH4 0xA9059CBB PUSH1 0xE0 SHL DUP2 MSTORE PUSH1 0x1 PUSH1 0x1 PUSH1 0xA0 SHL SUB SWAP1 SWAP2 AND SWAP2 PUSH4 0xA9059CBB SWAP2 PUSH2 0x38EC SWAP2 SWAP1 DUP6 SWAP1 PUSH1 0x4 ADD PUSH2 0x430A JUMP JUMPDEST PUSH1 0x20 PUSH1 0x40 MLOAD DUP1 DUP4 SUB DUP2 PUSH1 0x0 DUP8 GAS CALL ISZERO DUP1 ISZERO PUSH2 0x390B JUMPI RETURNDATASIZE PUSH1 0x0 DUP1 RETURNDATACOPY RETURNDATASIZE PUSH1 0x0 REVERT JUMPDEST POP POP POP POP PUSH1 0x40 MLOAD RETURNDATASIZE PUSH1 0x1F NOT PUSH1 0x1F DUP3 ADD AND DUP3 ADD DUP1 PUSH1 0x40 MSTORE POP DUP2 ADD SWAP1 PUSH2 0x392F SWAP2 SWAP1 PUSH2 0x4323 JUMP JUMPDEST PUSH2 0x394B JUMPI PUSH1 0x40 MLOAD PUSH3 0x461BCD PUSH1 0xE5 SHL DUP2 MSTORE PUSH1 0x4 ADD PUSH2 0x14AB SWAP1 PUSH2 0x4345 JUMP JUMPDEST DUP1 PUSH1 0xB SLOAD PUSH2 0x3959 SWAP2 SWAP1 PUSH2 0x42F3 JUMP JUMPDEST PUSH1 0xB SSTORE JUMPDEST PUSH1 0x40 MLOAD DUP2 DUP2 MSTORE CALLER SWAP1 PUSH32 0x525FC558FCBF99ABB520246F57C090E574F034F2338829FCBF008D64DF2C3C15 SWAP1 PUSH1 0x20 ADD PUSH1 0x40 MLOAD DUP1 SWAP2 SUB SWAP1 LOG2 POP PUSH2 0x3AB3 JUMP JUMPDEST DUP9 PUSH1 0x5 EQ ISZERO PUSH2 0x3AB3 JUMPI PUSH1 0x0 PUSH2 0x39AC CALLER PUSH2 0x277A JUMP JUMPDEST PUSH1 0x1 PUSH1 0x1 PUSH1 0x80 SHL SUB AND SWAP1 POP DUP1 ISZERO PUSH2 0x3A7C JUMPI CALLER PUSH1 0x0 DUP2 DUP2 MSTORE PUSH1 0x22 PUSH1 0x20 MSTORE PUSH1 0x40 SWAP1 DUP2 SWAP1 KECCAK256 DUP1 SLOAD PUSH1 0x1 PUSH1 0x1 PUSH1 0x80 SHL SUB AND SWAP1 SSTORE PUSH1 0xE SLOAD SWAP1 MLOAD PUSH4 0xA9059CBB PUSH1 0xE0 SHL DUP2 MSTORE PUSH1 0x1 PUSH1 0x1 PUSH1 0xA0 SHL SUB SWAP1 SWAP2 AND SWAP2 PUSH4 0xA9059CBB SWAP2 PUSH2 0x3A0B SWAP2 SWAP1 DUP6 SWAP1 PUSH1 0x4 ADD PUSH2 0x430A JUMP JUMPDEST PUSH1 0x20 PUSH1 0x40 MLOAD DUP1 DUP4 SUB DUP2 PUSH1 0x0 DUP8 GAS CALL ISZERO DUP1 ISZERO PUSH2 0x3A2A JUMPI RETURNDATASIZE PUSH1 0x0 DUP1 RETURNDATACOPY RETURNDATASIZE PUSH1 0x0 REVERT JUMPDEST POP POP POP POP PUSH1 0x40 MLOAD RETURNDATASIZE PUSH1 0x1F NOT PUSH1 0x1F DUP3 ADD AND DUP3 ADD DUP1 PUSH1 0x40 MSTORE POP DUP2 ADD SWAP1 PUSH2 0x3A4E SWAP2 SWAP1 PUSH2 0x4323 JUMP JUMPDEST PUSH2 0x3A6A JUMPI PUSH1 0x40 MLOAD PUSH3 0x461BCD PUSH1 0xE5 SHL DUP2 MSTORE PUSH1 0x4 ADD PUSH2 0x14AB SWAP1 PUSH2 0x4375 JUMP JUMPDEST DUP1 PUSH1 0xC SLOAD PUSH2 0x3A78 SWAP2 SWAP1 PUSH2 0x42F3 JUMP JUMPDEST PUSH1 0xB SSTORE JUMPDEST PUSH1 0x40 MLOAD DUP2 DUP2 MSTORE CALLER SWAP1 PUSH32 0x61A694449708C0D360F1B95319C392B649BC5754615AC48FC1EE448DD6CC993C SWAP1 PUSH1 0x20 ADD PUSH1 0x40 MLOAD DUP1 SWAP2 SUB SWAP1 LOG2 POP JUMPDEST POP POP POP POP POP POP POP POP POP JUMP JUMPDEST PUSH1 0x0 DUP1 SLOAD DUP1 PUSH2 0x3ADF JUMPI POP POP PUSH1 0x1C SLOAD PUSH1 0x1 PUSH1 0x80 SHL SWAP1 DIV PUSH1 0x1 PUSH1 0x1 PUSH1 0x80 SHL SUB AND SWAP1 JUMP JUMPDEST PUSH1 0x1A SLOAD PUSH1 0x0 SWAP1 PUSH1 0x1 PUSH1 0xC0 SHL SWAP1 DIV PUSH1 0x1 PUSH1 0x1 PUSH1 0x40 SHL SUB AND PUSH2 0x3AFD PUSH2 0x2BC3 JUMP JUMPDEST SUB PUSH1 0x1 PUSH1 0x1 PUSH1 0x40 SHL SUB AND SWAP1 POP DUP2 PUSH1 0x16 SLOAD DUP3 MUL PUSH8 0xDE0B6B3A7640000 MUL DUP2 PUSH2 0x3B26 JUMPI PUSH2 0x3B26 PUSH2 0x41C7 JUMP JUMPDEST PUSH1 0x1C SLOAD PUSH1 0x1 PUSH1 0x1 PUSH1 0x80 SHL SUB PUSH1 0x1 PUSH1 0x80 SHL SWAP1 SWAP2 DIV AND SWAP2 SWAP1 DIV ADD SWAP4 SWAP3 POP POP POP JUMP JUMPDEST PUSH2 0x3B4D PUSH2 0x1808 JUMP JUMPDEST CALLER PUSH1 0x0 SWAP1 DUP2 MSTORE PUSH1 0x1 PUSH1 0x20 MSTORE PUSH1 0x40 SWAP1 KECCAK256 SLOAD PUSH2 0x3B66 SWAP1 PUSH2 0xEF7 JUMP JUMPDEST JUMP JUMPDEST PUSH1 0x1 PUSH1 0x1 PUSH1 0xA0 SHL SUB DUP2 AND PUSH1 0x0 SWAP1 DUP2 MSTORE PUSH1 0x1F PUSH1 0x20 MSTORE PUSH1 0x40 DUP2 KECCAK256 SLOAD PUSH1 0x1 PUSH1 0x1 PUSH1 0x80 SHL SUB PUSH1 0x1 PUSH1 0x80 SHL DUP3 DIV DUP2 AND SWAP2 PUSH4 0x5F5E100 SWAP2 AND PUSH2 0xEB8 PUSH2 0x27B8 JUMP JUMPDEST CALLER PUSH1 0x0 SWAP1 DUP2 MSTORE PUSH1 0x1 PUSH1 0x20 MSTORE PUSH1 0x40 SWAP1 KECCAK256 SLOAD PUSH1 0x1 PUSH1 0x1 PUSH1 0x80 SHL SUB DUP3 AND GT ISZERO PUSH2 0x3C0A JUMPI PUSH1 0x40 MLOAD PUSH3 0x461BCD PUSH1 0xE5 SHL DUP2 MSTORE PUSH1 0x20 PUSH1 0x4 DUP3 ADD MSTORE PUSH1 0x1A PUSH1 0x24 DUP3 ADD MSTORE PUSH32 0x77697468647261773A2062616C616E6365206973206C6F776572000000000000 PUSH1 0x44 DUP3 ADD MSTORE PUSH1 0x64 ADD PUSH2 0x14AB JUMP JUMPDEST CALLER PUSH1 0x0 SWAP1 DUP2 MSTORE PUSH1 0x1 PUSH1 0x20 MSTORE PUSH1 0x40 DUP2 KECCAK256 DUP1 SLOAD PUSH1 0x1 PUSH1 0x1 PUSH1 0x80 SHL SUB DUP5 AND SWAP1 DUP2 SWAP1 SUB SWAP1 SWAP2 SSTORE DUP2 SLOAD SUB SWAP1 SSTORE PUSH1 0x2 SLOAD PUSH1 0x1 PUSH1 0x1 PUSH1 0xA0 SHL SUB AND DUP1 PUSH2 0x3CE0 JUMPI PUSH1 0x40 MLOAD PUSH1 0x0 SWAP1 CALLER SWAP1 PUSH1 0x1 PUSH1 0x1 PUSH1 0x80 SHL SUB DUP6 AND SWAP1 DUP4 DUP2 DUP2 DUP2 DUP6 DUP8 GAS CALL SWAP3 POP POP POP RETURNDATASIZE DUP1 PUSH1 0x0 DUP2 EQ PUSH2 0x3C8D JUMPI PUSH1 0x40 MLOAD SWAP2 POP PUSH1 0x1F NOT PUSH1 0x3F RETURNDATASIZE ADD AND DUP3 ADD PUSH1 0x40 MSTORE RETURNDATASIZE DUP3 MSTORE RETURNDATASIZE PUSH1 0x0 PUSH1 0x20 DUP5 ADD RETURNDATACOPY PUSH2 0x3C92 JUMP JUMPDEST PUSH1 0x60 SWAP2 POP JUMPDEST POP POP SWAP1 POP DUP1 PUSH2 0x3CDA JUMPI PUSH1 0x40 MLOAD PUSH3 0x461BCD PUSH1 0xE5 SHL DUP2 MSTORE PUSH1 0x20 PUSH1 0x4 DUP3 ADD MSTORE PUSH1 0x14 PUSH1 0x24 DUP3 ADD MSTORE PUSH20 0x657468207472616E73666572206661696C757265 PUSH1 0x60 SHL PUSH1 0x44 DUP3 ADD MSTORE PUSH1 0x64 ADD PUSH2 0x14AB JUMP JUMPDEST POP PUSH2 0x3DB3 JUMP JUMPDEST PUSH1 0x2 SLOAD PUSH1 0x40 MLOAD PUSH4 0xA9059CBB PUSH1 0xE0 SHL DUP2 MSTORE CALLER PUSH1 0x4 DUP3 ADD MSTORE PUSH1 0x1 PUSH1 0x1 PUSH1 0x80 SHL SUB DUP5 AND PUSH1 0x24 DUP3 ADD MSTORE PUSH1 0x1 PUSH1 0x1 PUSH1 0xA0 SHL SUB SWAP1 SWAP2 AND SWAP1 PUSH4 0xA9059CBB SWAP1 PUSH1 0x44 ADD PUSH1 0x20 PUSH1 0x40 MLOAD DUP1 DUP4 SUB DUP2 PUSH1 0x0 DUP8 GAS CALL ISZERO DUP1 ISZERO PUSH2 0x3D39 JUMPI RETURNDATASIZE PUSH1 0x0 DUP1 RETURNDATACOPY RETURNDATASIZE PUSH1 0x0 REVERT JUMPDEST POP POP POP POP PUSH1 0x40 MLOAD RETURNDATASIZE PUSH1 0x1F NOT PUSH1 0x1F DUP3 ADD AND DUP3 ADD DUP1 PUSH1 0x40 MSTORE POP DUP2 ADD SWAP1 PUSH2 0x3D5D SWAP2 SWAP1 PUSH2 0x4323 JUMP JUMPDEST PUSH1 0x40 MLOAD DUP1 PUSH1 0x40 ADD PUSH1 0x40 MSTORE DUP1 PUSH1 0x1C DUP2 MSTORE PUSH1 0x20 ADD PUSH32 0x7374616B656420746F6B656E207472616E73666572206661696C656400000000 DUP2 MSTORE POP SWAP1 PUSH2 0x3DB1 JUMPI PUSH1 0x40 MLOAD PUSH3 0x461BCD PUSH1 0xE5 SHL DUP2 MSTORE PUSH1 0x4 ADD PUSH2 0x14AB SWAP2 SWAP1 PUSH2 0x43EF JUMP JUMPDEST POP JUMPDEST PUSH1 0x40 MLOAD PUSH1 0x1 PUSH1 0x1 PUSH1 0x80 SHL SUB DUP4 AND DUP2 MSTORE CALLER SWAP1 PUSH32 0x7084F5476618D8E60B11EF0D7D3F06914655ADB8793E28FF7F018D4C76D505D5 SWAP1 PUSH1 0x20 ADD PUSH1 0x40 MLOAD DUP1 SWAP2 SUB SWAP1 LOG2 POP POP JUMP JUMPDEST PUSH1 0x3 SLOAD PUSH1 0x40 MLOAD PUSH1 0x1 PUSH1 0x1 PUSH1 0xA0 SHL SUB DUP1 DUP5 AND SWAP3 AND SWAP1 PUSH32 0x8BE0079C531659141344CD1FD0A4F28419497F9722A3DAAFE3B4186F6B6457E0 SWAP1 PUSH1 0x0 SWAP1 LOG3 PUSH1 0x3 DUP1 SLOAD PUSH1 0x1 PUSH1 0x1 PUSH1 0xA0 SHL SUB NOT AND PUSH1 0x1 PUSH1 0x1 PUSH1 0xA0 SHL SUB SWAP3 SWAP1 SWAP3 AND SWAP2 SWAP1 SWAP2 OR SWAP1 SSTORE JUMP JUMPDEST PUSH1 0x2 SLOAD PUSH1 0x1 PUSH1 0x1 PUSH1 0xA0 SHL SUB AND DUP1 PUSH2 0x3E8E JUMPI PUSH1 0x0 DUP1 SLOAD CALLVALUE SWAP1 DUP2 ADD DUP3 SSTORE PUSH1 0x1 PUSH1 0x1 PUSH1 0xA0 SHL SUB DUP6 AND DUP3 MSTORE PUSH1 0x1 PUSH1 0x20 MSTORE PUSH1 0x40 SWAP1 SWAP2 KECCAK256 DUP1 SLOAD SWAP1 SWAP2 ADD SWAP1 SSTORE PUSH2 0x401A JUMP JUMPDEST CALLVALUE ISZERO PUSH2 0x3ECB JUMPI PUSH1 0x40 MLOAD PUSH3 0x461BCD PUSH1 0xE5 SHL DUP2 MSTORE PUSH1 0x20 PUSH1 0x4 DUP3 ADD MSTORE PUSH1 0xC PUSH1 0x24 DUP3 ADD MSTORE PUSH12 0xDCDEDC5AF4CAE4DE40CAE8D PUSH1 0xA3 SHL PUSH1 0x44 DUP3 ADD MSTORE PUSH1 0x64 ADD PUSH2 0x14AB JUMP JUMPDEST PUSH1 0x0 DUP3 PUSH1 0x1 PUSH1 0x1 PUSH1 0x80 SHL SUB AND GT PUSH2 0x3F15 JUMPI PUSH1 0x40 MLOAD PUSH3 0x461BCD PUSH1 0xE5 SHL DUP2 MSTORE PUSH1 0x20 PUSH1 0x4 DUP3 ADD MSTORE PUSH1 0xE PUSH1 0x24 DUP3 ADD MSTORE PUSH14 0x43616E6E6F74207374616B65203 PUSH1 0x94 SHL PUSH1 0x44 DUP3 ADD MSTORE PUSH1 0x64 ADD PUSH2 0x14AB JUMP JUMPDEST PUSH1 0x40 MLOAD PUSH4 0x23B872DD PUSH1 0xE0 SHL DUP2 MSTORE CALLER PUSH1 0x4 DUP3 ADD MSTORE ADDRESS PUSH1 0x24 DUP3 ADD MSTORE PUSH1 0x1 PUSH1 0x1 PUSH1 0x80 SHL SUB DUP4 AND PUSH1 0x44 DUP3 ADD MSTORE PUSH1 0x1 PUSH1 0x1 PUSH1 0xA0 SHL SUB DUP3 AND SWAP1 PUSH4 0x23B872DD SWAP1 PUSH1 0x64 ADD PUSH1 0x20 PUSH1 0x40 MLOAD DUP1 DUP4 SUB DUP2 PUSH1 0x0 DUP8 GAS CALL ISZERO DUP1 ISZERO PUSH2 0x3F70 JUMPI RETURNDATASIZE PUSH1 0x0 DUP1 RETURNDATACOPY RETURNDATASIZE PUSH1 0x0 REVERT JUMPDEST POP POP POP POP PUSH1 0x40 MLOAD RETURNDATASIZE PUSH1 0x1F NOT PUSH1 0x1F DUP3 ADD AND DUP3 ADD DUP1 PUSH1 0x40 MSTORE POP DUP2 ADD SWAP1 PUSH2 0x3F94 SWAP2 SWAP1 PUSH2 0x4323 JUMP JUMPDEST PUSH1 0x40 MLOAD DUP1 PUSH1 0x40 ADD PUSH1 0x40 MSTORE DUP1 PUSH1 0x1C DUP2 MSTORE PUSH1 0x20 ADD PUSH32 0x7374616B656420746F6B656E207472616E73666572206661696C656400000000 DUP2 MSTORE POP SWAP1 PUSH2 0x3FE8 JUMPI PUSH1 0x40 MLOAD PUSH3 0x461BCD PUSH1 0xE5 SHL DUP2 MSTORE PUSH1 0x4 ADD PUSH2 0x14AB SWAP2 SWAP1 PUSH2 0x43EF JUMP JUMPDEST POP PUSH1 0x0 DUP1 SLOAD PUSH1 0x1 PUSH1 0x1 PUSH1 0x80 SHL SUB DUP5 AND SWAP1 DUP2 ADD DUP3 SSTORE PUSH1 0x1 PUSH1 0x1 PUSH1 0xA0 SHL SUB DUP6 AND DUP3 MSTORE PUSH1 0x1 PUSH1 0x20 MSTORE PUSH1 0x40 SWAP1 SWAP2 KECCAK256 DUP1 SLOAD SWAP1 SWAP2 ADD SWAP1 SSTORE JUMPDEST PUSH1 0x40 MLOAD PUSH1 0x1 PUSH1 0x1 PUSH1 0x80 SHL SUB DUP4 AND DUP2 MSTORE PUSH1 0x1 PUSH1 0x1 PUSH1 0xA0 SHL SUB DUP5 AND SWAP1 PUSH32 0x9E71BC8EEA02A63969F509818F2DAFB9254532904319F9DBDA79B67BD34A5F3D SWAP1 PUSH1 0x20 ADD PUSH1 0x40 MLOAD DUP1 SWAP2 SUB SWAP1 LOG2 POP POP POP JUMP JUMPDEST PUSH1 0x1 PUSH1 0x1 PUSH1 0xA0 SHL SUB DUP2 AND DUP2 EQ PUSH2 0x13D7 JUMPI PUSH1 0x0 DUP1 REVERT JUMPDEST PUSH1 0x0 PUSH1 0x20 DUP3 DUP5 SUB SLT ISZERO PUSH2 0x408D JUMPI PUSH1 0x0 DUP1 REVERT JUMPDEST DUP2 CALLDATALOAD PUSH2 0x4098 DUP2 PUSH2 0x4066 JUMP JUMPDEST SWAP4 SWAP3 POP POP POP JUMP JUMPDEST DUP1 CALLDATALOAD PUSH1 0x1 PUSH1 0x1 PUSH1 0x80 SHL SUB DUP2 AND DUP2 EQ PUSH2 0x40B6 JUMPI PUSH1 0x0 DUP1 REVERT JUMPDEST SWAP2 SWAP1 POP JUMP JUMPDEST PUSH1 0x0 PUSH1 0x20 DUP3 DUP5 SUB SLT ISZERO PUSH2 0x40CD JUMPI PUSH1 0x0 DUP1 REVERT JUMPDEST PUSH2 0x4098 DUP3 PUSH2 0x409F JUMP JUMPDEST PUSH1 0x0 PUSH1 0x20 DUP3 DUP5 SUB SLT ISZERO PUSH2 0x40E8 JUMPI PUSH1 0x0 DUP1 REVERT JUMPDEST POP CALLDATALOAD SWAP2 SWAP1 POP JUMP JUMPDEST DUP1 CALLDATALOAD PUSH1 0x1 PUSH1 0x1 PUSH1 0x40 SHL SUB DUP2 AND DUP2 EQ PUSH2 0x40B6 JUMPI PUSH1 0x0 DUP1 REVERT JUMPDEST PUSH1 0x0 DUP1 PUSH1 0x40 DUP4 DUP6 SUB SLT ISZERO PUSH2 0x4119 JUMPI PUSH1 0x0 DUP1 REVERT JUMPDEST DUP3 CALLDATALOAD SWAP2 POP PUSH2 0x4129 PUSH1 0x20 DUP5 ADD PUSH2 0x40EF JUMP JUMPDEST SWAP1 POP SWAP3 POP SWAP3 SWAP1 POP JUMP JUMPDEST PUSH1 0x0 PUSH1 0x20 DUP3 DUP5 SUB SLT ISZERO PUSH2 0x4144 JUMPI PUSH1 0x0 DUP1 REVERT JUMPDEST PUSH2 0x4098 DUP3 PUSH2 0x40EF JUMP JUMPDEST PUSH1 0x0 DUP1 PUSH1 0x40 DUP4 DUP6 SUB SLT ISZERO PUSH2 0x4160 JUMPI PUSH1 0x0 DUP1 REVERT JUMPDEST DUP3 CALLDATALOAD PUSH2 0x416B DUP2 PUSH2 0x4066 JUMP JUMPDEST SWAP5 PUSH1 0x20 SWAP4 SWAP1 SWAP4 ADD CALLDATALOAD SWAP4 POP POP POP JUMP JUMPDEST PUSH1 0x0 DUP1 PUSH1 0x40 DUP4 DUP6 SUB SLT ISZERO PUSH2 0x418C JUMPI PUSH1 0x0 DUP1 REVERT JUMPDEST POP POP DUP1 CALLDATALOAD SWAP3 PUSH1 0x20 SWAP1 SWAP2 ADD CALLDATALOAD SWAP2 POP JUMP JUMPDEST PUSH1 0x0 DUP1 PUSH1 0x40 DUP4 DUP6 SUB SLT ISZERO PUSH2 0x41AE JUMPI PUSH1 0x0 DUP1 REVERT JUMPDEST DUP3 CALLDATALOAD PUSH2 0x41B9 DUP2 PUSH2 0x4066 JUMP JUMPDEST SWAP2 POP PUSH2 0x4129 PUSH1 0x20 DUP5 ADD PUSH2 0x409F JUMP JUMPDEST PUSH4 0x4E487B71 PUSH1 0xE0 SHL PUSH1 0x0 MSTORE PUSH1 0x12 PUSH1 0x4 MSTORE PUSH1 0x24 PUSH1 0x0 REVERT JUMPDEST PUSH1 0x20 DUP1 DUP3 MSTORE PUSH1 0x4C SWAP1 DUP3 ADD MSTORE PUSH32 0x436C61696D20706572696F6420616C6C6F777320666F72207769746864726177 PUSH1 0x40 DUP3 ADD MSTORE PUSH32 0x616C20706572696F64206265666F726520636C61696D73206368616E67652031 PUSH1 0x60 DUP3 ADD MSTORE PUSH12 0x2F332023206F662064617973 PUSH1 0xA0 SHL PUSH1 0x80 DUP3 ADD MSTORE PUSH1 0xA0 ADD SWAP1 JUMP JUMPDEST PUSH1 0x0 PUSH1 0x20 DUP3 DUP5 SUB SLT ISZERO PUSH2 0x4261 JUMPI PUSH1 0x0 DUP1 REVERT JUMPDEST POP MLOAD SWAP2 SWAP1 POP JUMP JUMPDEST PUSH4 0x4E487B71 PUSH1 0xE0 SHL PUSH1 0x0 MSTORE PUSH1 0x32 PUSH1 0x4 MSTORE PUSH1 0x24 PUSH1 0x0 REVERT JUMPDEST PUSH4 0x4E487B71 PUSH1 0xE0 SHL PUSH1 0x0 MSTORE PUSH1 0x11 PUSH1 0x4 MSTORE PUSH1 0x24 PUSH1 0x0 REVERT JUMPDEST PUSH1 0x0 PUSH1 0x0 NOT DUP3 EQ ISZERO PUSH2 0x42A8 JUMPI PUSH2 0x42A8 PUSH2 0x427E JUMP JUMPDEST POP PUSH1 0x1 ADD SWAP1 JUMP JUMPDEST PUSH1 0x20 DUP1 DUP3 MSTORE PUSH1 0x24 SWAP1 DUP3 ADD MSTORE PUSH32 0x4F776E61626C653A2063616C6C6572206973206E6F7420746865206F776E6572 PUSH1 0x40 DUP3 ADD MSTORE PUSH4 0xBDB5BD9 PUSH1 0xE2 SHL PUSH1 0x60 DUP3 ADD MSTORE PUSH1 0x80 ADD SWAP1 JUMP JUMPDEST PUSH1 0x0 DUP3 DUP3 LT ISZERO PUSH2 0x4305 JUMPI PUSH2 0x4305 PUSH2 0x427E JUMP JUMPDEST POP SUB SWAP1 JUMP JUMPDEST PUSH1 0x1 PUSH1 0x1 PUSH1 0xA0 SHL SUB SWAP3 SWAP1 SWAP3 AND DUP3 MSTORE PUSH1 0x20 DUP3 ADD MSTORE PUSH1 0x40 ADD SWAP1 JUMP JUMPDEST PUSH1 0x0 PUSH1 0x20 DUP3 DUP5 SUB SLT ISZERO PUSH2 0x4335 JUMPI PUSH1 0x0 DUP1 REVERT JUMPDEST DUP2 MLOAD DUP1 ISZERO ISZERO DUP2 EQ PUSH2 0x4098 JUMPI PUSH1 0x0 DUP1 REVERT JUMPDEST PUSH1 0x20 DUP1 DUP3 MSTORE PUSH1 0x16 SWAP1 DUP3 ADD MSTORE PUSH22 0x1C995DD85C99081D1C985B9CD9995C8819985A5B1959 PUSH1 0x52 SHL PUSH1 0x40 DUP3 ADD MSTORE PUSH1 0x60 ADD SWAP1 JUMP JUMPDEST PUSH1 0x20 DUP1 DUP3 MSTORE PUSH1 0x1E SWAP1 DUP3 ADD MSTORE PUSH32 0x72657761726420746F6B656E2032207472616E73666572206661696C65640000 PUSH1 0x40 DUP3 ADD MSTORE PUSH1 0x60 ADD SWAP1 JUMP JUMPDEST PUSH1 0x0 DUP3 NOT DUP3 GT ISZERO PUSH2 0x43BF JUMPI PUSH2 0x43BF PUSH2 0x427E JUMP JUMPDEST POP ADD SWAP1 JUMP JUMPDEST PUSH1 0x20 DUP1 DUP3 MSTORE PUSH1 0x11 SWAP1 DUP3 ADD MSTORE PUSH17 0x4D55535420424520414654455220455241 PUSH1 0x78 SHL PUSH1 0x40 DUP3 ADD MSTORE PUSH1 0x60 ADD SWAP1 JUMP JUMPDEST PUSH1 0x0 PUSH1 0x20 DUP1 DUP4 MSTORE DUP4 MLOAD DUP1 DUP3 DUP6 ADD MSTORE PUSH1 0x0 JUMPDEST DUP2 DUP2 LT ISZERO PUSH2 0x441C JUMPI DUP6 DUP2 ADD DUP4 ADD MLOAD DUP6 DUP3 ADD PUSH1 0x40 ADD MSTORE DUP3 ADD PUSH2 0x4400 JUMP JUMPDEST DUP2 DUP2 GT ISZERO PUSH2 0x442E JUMPI PUSH1 0x0 PUSH1 0x40 DUP4 DUP8 ADD ADD MSTORE JUMPDEST POP PUSH1 0x1F ADD PUSH1 0x1F NOT AND SWAP3 SWAP1 SWAP3 ADD PUSH1 0x40 ADD SWAP4 SWAP3 POP POP POP JUMP INVALID LOG2 PUSH5 0x6970667358 0x22 SLT KECCAK256 BLOCKHASH EXTCODESIZE SWAP2 RETURNDATASIZE 0xED SELFDESTRUCT LOG2 SWAP4 0xF8 PUSH18 0xC15E40F9955386CB161BE04D3E29B7BA10FB 0xC4 CREATE 0x4C 0xD0 PUSH5 0x736F6C6343 STOP ADDMOD SIGNEXTEND STOP CALLER ",
  "sha1": "c09780d453f28c7b56343ce96233d1c2b514f2c3",
  "source": "// Forge Rewards Contract\n// Recieves 25% or 10,500,000 Forge Tokens from the ForgeMining Contract over 100+ years.\n// Also recieve 33% of the 0xBitcoin Tokens from the ForgeMining Contract over forever.\n\n\n// What we are staking:  Forge/0xBitcoin Liquidity Pool Tokens\n//What is it?  It is the pool traders use to buy and sell the coin\n//The larger the pool, the larger the order the token can handle\n\n//\n//Rewards: Forge, 0xBitcoin, and Polygon currently.\n// Funds gathered will be dispered over 21 days. 21 Day reward period\n//Room to Expand to two other cryptocurrencies(only admin in everything! This feature will be decentralized)\n\npragma solidity ^0.8.7;\n\n/**\n * @dev Contract module which provides a basic access control mechanism, where\n * there is an account (an owner) that can be granted exclusive access to\n * specific functions.\n *\n * This module is used through inheritance. It will make available the modifier\n * `onlyOwner`, which can be applied to your functions to restrict their use to\n * the owner.\n */\n \ncontract Ownable2 {\n    address public owner;\n    address [] public moderators;\n\n    event OwnershipTransferred(address indexed previousOwner, address indexed newOwner);\n\n    constructor() {\n        owner = msg.sender;\n    }\n\n    /**\n     * @dev Throws if called by any account other than the owner.\n     */\n    modifier onlyOwner() {\n        require(msg.sender == owner, \"Ownable: caller is not the owner\");\n        _;\n    }\n    modifier OnlyModerators() {\n    bool isModerator = false;\n    for(uint x=0; x< moderators.length; x++){\n    \tif(moderators[x] == msg.sender){\n\t\tisModerator = true;\n\t\t}\n\t\t}\n        require(msg.sender == owner || isModerator, \"Ownable: caller is not the owner/mod\");\n        _;\n    }\n\n    /**\n     * @dev Leaves the contract without owner. It will not be possible to call\n     * `onlyOwner` functions anymore. Can only be called by the current owner.\n     *\n     * NOTE: Renouncing ownership will leave the contract without an owner,\n     * thereby removing any functionality that is only available to the owner.\n     */\n\n    function Z_addMod(address newModerator, uint spot) public onlyOwner {\n    if(spot >= moderators.length){\n    \tmoderators.push(newModerator);\n\t}else{\n\tmoderators[spot] = newModerator;\n\t}\n    }\n    /**\n     * @dev Transfers ownership of the contract to a new account (`newOwner`).\n     * Can only be called by the current owner.\n     */\n    function Z_transferOwnership(address newOwner) public onlyOwner {\n        _transferOwnership(newOwner);\n    }\n\n    /**\n     * @dev Transfers ownership of the contract to a new account (`newOwner`).\n     */\n    function _transferOwnership(address newOwner) internal {\n        emit OwnershipTransferred(owner, newOwner);\n        owner = newOwner;\n    }\n}\n\ninterface IERC20 {\n    function totalSupply() external view returns (uint256);\n    function balanceOf(address account) external view returns (uint256);\n    function transfer(address recipient, uint256 amount) external returns (bool);\n    function allowance(address owner, address spender) external view returns (uint256);\n    function approve(address spender, uint256 amount) external returns (bool);\n    function transferFrom(address sender, address recipient, uint256 amount) external returns (bool);\n    \n    event Transfer(address indexed from, address indexed to, uint256 value);\n    event Approval(address indexed owner, address indexed spender, uint256 value);\n}\n\ncontract StakedTokenWrapper {\n    uint256 public totalSupply;\n\n    mapping(address => uint256) private _balances;\n    IERC20 public stakedToken;\n    \n    event Staked(address indexed user, uint256 amount);\n    event Withdrawn(address indexed user, uint256 amount);\n\n    function balanceOf(address account) public view returns (uint256) {\n        return _balances[account];\n    }\n\n    string constant _transferErrorMessage = \"staked token transfer failed\";\n    \n    function stakeFor(address forWhom, uint128 amount) public payable virtual {\n        IERC20 st = stakedToken;\n        if(st == IERC20(address(0))) { //eth\n            unchecked {\n                totalSupply += msg.value;\n                _balances[forWhom] += msg.value;\n            }\n        }\n        else {\n            require(msg.value == 0, \"non-zero eth\");\n            require(amount > 0, \"Cannot stake 0\");\n            require(st.transferFrom(msg.sender, address(this), amount), _transferErrorMessage);\n            unchecked { \n                totalSupply += amount;\n                _balances[forWhom] += amount;\n            }\n        }\n        emit Staked(forWhom, amount);\n    }\n\n    function withdraw(uint128 amount) public virtual {\n        require(amount <= _balances[msg.sender], \"withdraw: balance is lower\");\n        unchecked {\n            _balances[msg.sender] -= amount;\n            totalSupply = totalSupply-amount;\n        }\n        IERC20 st = stakedToken;\n        if(st == IERC20(address(0))) { //eth\n            (bool success, ) = msg.sender.call{value: amount}(\"\");\n            require(success, \"eth transfer failure\");\n        }\n        else {\n            require(stakedToken.transfer(msg.sender, amount), _transferErrorMessage);\n        }\n        emit Withdrawn(msg.sender, amount);\n    }\n}\n\ncontract ForgeRewards is StakedTokenWrapper, Ownable2 {\n    uint256 public decimalsExtra=18;\n    uint256 public decimalsExtraExtra=18;\n    uint64 public poolLength = 90; //60 * 60 * 24 * 7; //3 Day reward periods\n    uint256 public totalRewarded;\n    uint256 public totalRewarded2;\n    uint256 public totalRewarded3;\n    uint256 public totalRewardedExtra;\n    uint256 public totalRewardedExtraExtra;\n    address[] public AddressesEntered;\n    IERC20 public rewardTokenExtraExtra;\n    IERC20 public rewardTokenExtra;\n    IERC20 public rewardToken2;\n    IERC20 public rewardToken;\n    uint256 public Era = 0;\n    uint256 public nextEra;\n    uint256 public rewardRate;\n    uint256 public rewardRate2;\n    uint256 public rewardRate3;\n    uint256 public rewardRateExtra;\n    uint256 public rewardRateExtraExtra;\n    uint64 public periodFinish;\n    uint64 public periodFinish2;\n    uint64 public periodFinish3;\n    uint64 public periodFinishExtra;\n    uint64 public periodFinishExtraExtra;\n    uint64 public lastUpdateTime;\n    uint64 public lastUpdateTime2;\n    uint64 public lastUpdateTime3;\n    uint64 public lastUpdateTimeExtra;\n    uint64 public lastUpdateTimeExtraExtra;\n    \n    uint128 public rewardPerTokenStored;\n    uint128 public rewardPerTokenStored2;\n    uint128 public rewardPerTokenStored3;\n    uint128 public rewardPerTokenStoredExtra;\n    uint128 public rewardPerTokenStoredExtraExtra;\n    struct UserRewards {\n        uint128 userRewardPerTokenPaid;\n        uint128 rewards;\n    }\n    struct UserRewards2 {\n        uint128 userRewardPerTokenPaid2;\n        uint128 rewards2;\n    }\n    struct UserRewards3 {\n        uint128 userRewardPerTokenPaid3;\n        uint128 rewards3;\n    }\n    struct UserRewardsExtra {\n        uint128 userRewardPerTokenPaidExtra;\n        uint128 rewardsExtra;\n    }\n    \n    struct UserRewardsExtraExtra {\n        uint128 userRewardPerTokenPaidExtraExtra;\n        uint128 rewardsExtraExtra;\n    }\n    mapping(address => UserRewards) public userRewards;\n    mapping(address => UserRewards2) public userRewards2;\n    mapping(address => UserRewards3) public userRewards3;\n    mapping(address => UserRewardsExtra) public userRewardsExtra;\n    mapping(address => UserRewardsExtraExtra) public userRewardsExtraExtra;\n\n    event RewardAdded(uint256 reward);\n    event RewardPaid(address indexed user, uint256 reward, uint256 rewards2, uint256 rewards3, uint256 rewardsExtra, uint256 rewardsExtraExtra);\n    event RewardPaidBasic(address indexed user, uint256 reward, uint256 rewards2);\n\n    event RewardAdded2(uint256 rewards2);\n    event RewardPaid2(address indexed user2, uint256 rewards2);\n\n    event RewardAdded3(uint256 rewards3);\n    event RewardPaid3(address indexed user3, uint256 rewards3);\n\n    \n    event RewardAdded4(uint256 rewards4);\n    event RewardPaid4(address indexed user3, uint256 rewards3);\n\n    \n    event RewardAdded5(uint256 rewards5);\n    event RewardPaid5(address indexed user3, uint256 rewards3);\n\n    event RewardAddedExtra(uint256 rewardsExtra);\n    event RewardPaidExtra(address indexed userExtra, uint256 rewardsExtra);\n\n    event RewardAddedExtraExtra(uint256 rewardsExtraExtra);\n    event RewardPaidExtraExtra(address indexed userExtraExtra, uint256 rewardsExtraExtra);\n\n\n    constructor(IERC20 _reward0xPW, IERC20 _LP, IERC20 _reward0xBTC) {\n        rewardToken = _reward0xPW;\n        stakedToken = _LP;\n        rewardToken2 = _reward0xBTC;\n\n\n    }\n\n    function Z_NewRewardTime( uint64 _rewardT) external OnlyModerators returns (bool success){\n    \trequire( _rewardT >= 60*60*24 && _rewardT <= 60*60*24*62, \"Reward must stay within boundaries\");\n\t    poolLength = _rewardT;\n\t}\n\t\n\t\n    function Z_addNewToken(IERC20 tokenExtra, uint _decimalsExtra) external OnlyModerators returns (bool success){\n\tdecimalsExtra = _decimalsExtra;\n        rewardRateExtra = 0;\n        rewardTokenExtra = tokenExtra;\n        return true;\n    }\n\n    function Z_addNewToken2(IERC20 tokenTWOExtra, uint _decimalsExtraExtra) external OnlyModerators returns (bool success){\n\tdecimalsExtraExtra = _decimalsExtraExtra;\n        rewardRateExtraExtra = 0;\n        rewardTokenExtraExtra = tokenTWOExtra;\n        return true;\n    }\n\n    modifier updateReward(address account) {\n        uint128 _rewardPerTokenStored = rewardPerToken();\n        uint128 _rewardPerTokenStored2 = rewardPerToken2(); \n        uint128 _rewardPerTokenStored3 = rewardPerToken3(); \n        uint128 _rewardPerTokenStoredExtra = rewardPerTokenExtra(); \n        uint128 _rewardPerTokenStoredExtraExtra = rewardPerTokenExtraExtra(); \n\n        lastUpdateTime = lastTimeRewardApplicable();\n        lastUpdateTime2 = lastTimeRewardApplicable2();\n        lastUpdateTime3 = lastTimeRewardApplicable3();\n        lastUpdateTimeExtra = lastTimeRewardApplicableExtra();\n        rewardPerTokenStored = _rewardPerTokenStored;\n        rewardPerTokenStored2 = _rewardPerTokenStored2;\n        rewardPerTokenStored3 = _rewardPerTokenStored3;\n        rewardPerTokenStoredExtra = _rewardPerTokenStoredExtra;\n        rewardPerTokenStoredExtraExtra = _rewardPerTokenStoredExtraExtra;\n\n        userRewards[account].rewards = earned(account);\n        userRewards2[account].rewards2 = earned2(account);\n        userRewards3[account].rewards3 = earned3(account);\n        userRewardsExtra[account].rewardsExtra = earnedExtra(account);\n        userRewards[account].userRewardPerTokenPaid = _rewardPerTokenStored;\n        userRewards2[account].userRewardPerTokenPaid2 = _rewardPerTokenStored2;\n        userRewards3[account].userRewardPerTokenPaid3 = _rewardPerTokenStored3;\n        userRewardsExtra[account].userRewardPerTokenPaidExtra = _rewardPerTokenStoredExtra;\n        userRewardsExtraExtra[account].userRewardPerTokenPaidExtraExtra = _rewardPerTokenStoredExtraExtra;\n        _;\n    }\n\n//admin set up a new token\n    function lastTimeRewardApplicable() public view returns (uint64) {\n        uint64 blockTimestamp = uint64(block.timestamp);\n        return blockTimestamp < periodFinish ? blockTimestamp : periodFinish;\n    }\n\n\n\n    function lastTimeRewardApplicable2() public view returns (uint64) {\n        uint64 blockTimestamp = uint64(block.timestamp);\n        return blockTimestamp < periodFinish2 ? blockTimestamp : periodFinish2;\n    }\n\n    function lastTimeRewardApplicable3() public view returns (uint64) {\n        uint64 blockTimestamp = uint64(block.timestamp);\n        return blockTimestamp < periodFinish3 ? blockTimestamp : periodFinish3;\n    }\n\n    function lastTimeRewardApplicableExtra() public view returns (uint64) {\n        uint64 blockTimestamp = uint64(block.timestamp);\n        return blockTimestamp < periodFinishExtra ? blockTimestamp : periodFinishExtra;\n    }\n\n    function lastTimeRewardApplicableExtraExtra() public view returns (uint64) {\n        uint64 blockTimestamp = uint64(block.timestamp);\n        return blockTimestamp < periodFinishExtraExtra ? blockTimestamp : periodFinishExtraExtra;\n    }\n    function rewardPerToken() public view returns (uint128) {\n        uint256 totalStakedSupply = totalSupply;\n        if (totalStakedSupply == 0) {\n            return rewardPerTokenStored;\n        }\n        unchecked {\n            uint256 rewardDuration = lastTimeRewardApplicable()-lastUpdateTime;\n            return uint128(rewardPerTokenStored + rewardDuration*rewardRate*(1e18)/totalStakedSupply);\n        }\n    }\n\n//1e8 for 0xBTC\n    function rewardPerToken2() public view returns (uint128) {\n        uint256 totalStakedSupply = totalSupply;\n        if (totalStakedSupply == 0) {\n            return rewardPerTokenStored2;\n        }\n        unchecked {\n            uint256 rewardDuration2 = lastTimeRewardApplicable2()-lastUpdateTime2;\n            return uint128(rewardPerTokenStored2 + rewardDuration2*rewardRate2*1e8/totalStakedSupply);\n        }\n    }\n\n\n    function rewardPerToken3() public view returns (uint128) {\n        uint256 totalStakedSupply = totalSupply;\n        if (totalStakedSupply == 0) {\n            return rewardPerTokenStored3;\n        }\n        unchecked {\n            uint256 rewardDuration3 = lastTimeRewardApplicable3()-lastUpdateTime3;\n            return uint128(rewardPerTokenStored3 + rewardDuration3*rewardRate3*1e18/totalStakedSupply);\n        }\n    }\n\n\n\n    function rewardPerTokenExtra() public view returns (uint128) {\n        uint256 totalStakedSupply = totalSupply;\n        if (totalStakedSupply == 0) {\n            return rewardPerTokenStoredExtra;\n        }\n        unchecked {\n            uint256 rewardDurationExtra = lastTimeRewardApplicableExtra()-lastUpdateTimeExtra;\n            return uint128(rewardPerTokenStoredExtra + rewardDurationExtra*rewardRateExtra*(10**uint(decimalsExtra))/totalStakedSupply);\n        }\n    }\n    function rewardPerTokenExtraExtra() public view returns (uint128) {\n        uint256 totalStakedSupply = totalSupply;\n        if (totalStakedSupply == 0) {\n            return rewardPerTokenStoredExtraExtra;\n        }\n        unchecked {\n            uint256 rewardDurationExtraExtra = lastTimeRewardApplicableExtraExtra()-lastUpdateTimeExtraExtra;\n            return uint128(rewardPerTokenStoredExtraExtra + rewardDurationExtraExtra*rewardRateExtraExtra*(10**uint(decimalsExtraExtra))/totalStakedSupply);\n        }\n    }\n\n    function earned(address account) public view returns (uint128) {\n        unchecked { \n            return uint128(balanceOf(account)*(rewardPerToken()-userRewards[account].userRewardPerTokenPaid)/1e18 + userRewards[account].rewards);\n        }\n    }\n\n//1e8 for 0xBTC\n    function earned2(address account) public view returns (uint128) {\n        unchecked { \n            return uint128(balanceOf(account)*(rewardPerToken2()-userRewards2[account].userRewardPerTokenPaid2)/1e8 + userRewards2[account].rewards2);\n        }\n    }\n\n    function earned3(address account) public view returns (uint128) {\n        unchecked { \n            return uint128(balanceOf(account)*(rewardPerToken3()-userRewards3[account].userRewardPerTokenPaid3)/1e18 + userRewards3[account].rewards3);\n        }\n    }\n    function earnedExtra(address account) public view returns (uint128) {\n        unchecked { \n            return uint128(balanceOf(account)*(rewardPerTokenExtra()-userRewardsExtra[account].userRewardPerTokenPaidExtra)/(10 **(decimalsExtra)) + userRewardsExtra[account].rewardsExtra);\n        }\n    }\n    function earnedExtraExtra(address account) public view returns (uint128) {\n        unchecked { \n            return uint128(balanceOf(account)*(rewardPerTokenExtraExtra()-userRewardsExtraExtra[account].userRewardPerTokenPaidExtraExtra)/(10 **(decimalsExtraExtra)) + userRewardsExtraExtra[account].rewardsExtraExtra);\n        }\n    }\n\n    function stake(uint128 amount) external payable {\n        AddressesEntered.push(msg.sender);\n        stakeFor(msg.sender, amount);\n    }\n\n    function stakeFor(address forWhom, uint128 amount) public payable override updateReward(forWhom) {\n        AddressesEntered.push(forWhom);\n        super.stakeFor(forWhom, amount);\n    }\n\n    function withdraw(uint128 amount) public override updateReward(msg.sender) {\n        \n        super.withdraw(amount);\n    }\n\n    function exit() external {\n        getReward();\n        withdraw(uint128(balanceOf(msg.sender)));\n    }\n\n    function Z_Reset4and5(uint starting, uint maxlength) external OnlyModerators returns (bool success){\n\n        for(uint x=starting; x <= starting + maxlength; x++)\n        {\n                userRewardsExtra[AddressesEntered[x]].rewardsExtra = 0;\n                userRewardsExtraExtra[AddressesEntered[x]].rewardsExtraExtra = 0;\n                \n                userRewardsExtra[AddressesEntered[x]].userRewardPerTokenPaidExtra = 0;\n                userRewardsExtraExtra[AddressesEntered[x]].userRewardPerTokenPaidExtraExtra = 0;\n        }\n        rewardPerTokenStoredExtra = 0;\n        rewardPerTokenStoredExtraExtra = 0;\n        return true;\n    }\n\n//0 = Reward1 and Reward2, 1 = Reward1, 2 = Reward2, 3 = Reward3, 4 = RewardExtra, 5 = RewardExtraExtra\nfunction getRewardBasicBasic(uint choice) public updateReward(msg.sender) {\n        uint256 reward = earned(msg.sender);\n        uint256 reward2 = earned2(msg.sender);\n        //Reward & Reward2 aka 1 and 2\n        if(choice == 0)\n        {\n            if (reward > 0) {\n            userRewards[msg.sender].rewards = 0;\n            require(rewardToken.transfer(msg.sender, reward), \"reward transfer failed\");\n            totalRewarded = totalRewarded - reward;\n            }\n            if(reward2 > 0)\n            {\n                userRewards2[msg.sender].rewards2 = 0;\n                require(rewardToken2.transfer(msg.sender, reward2), \"reward token 2 transfer failed\");\n                totalRewarded2 = totalRewarded2 - reward2;\n            }\n\t    \n           emit RewardPaidBasic(msg.sender, reward, reward2);\n        }\n        //Reward2 Only\n        else if(choice == 2)\n        {\n            if(reward2 > 0)\n          {\n               userRewards2[msg.sender].rewards2 = 0;\n              require(rewardToken2.transfer(msg.sender, reward2), \"reward token 2 transfer failed\");\n               totalRewarded2 = totalRewarded2 - reward2;\n           }\n\t   \n           emit RewardPaidBasic(msg.sender, 0, reward2);\n        }\n        //Reward Only\n        else if(choice == 1){\n               if (reward > 0) {\n                   userRewards[msg.sender].rewards = 0;\n                    require(rewardToken.transfer(msg.sender, reward), \"reward transfer failed\");\n                  totalRewarded = totalRewarded - reward;\n                }\n\t\t\n           emit RewardPaidBasic(msg.sender, reward, 0);\n            }\n        else if(choice == 3){\n                    uint256 reward3= earned3(msg.sender);\n                    if(reward3 > 0){\n                userRewards3[msg.sender].rewards3 = 0;\n                address payable receiver = payable(msg.sender);\n\t            require(receiver.send(reward3), \"Eth transfer failed\");\n                totalRewarded3 = totalRewarded3 - reward3;\n                }\n                }\n        else if(choice == 4)\n        {\n            uint256 rewardExtra = earnedExtra(msg.sender);\n            if (rewardExtra > 0) {\n                userRewardsExtra[msg.sender].rewardsExtra = 0;\n                require(rewardTokenExtra.transfer(msg.sender, rewardExtra), \"reward transfer failed\");\n               totalRewardedExtra = totalRewardedExtra - rewardExtra;\n\t       \n        }\n\t\n            emit RewardPaidExtra(msg.sender, rewardExtra);\n\n        }\n        else if(choice == 5)\n        {\n            \n            uint256 rewardExtraExtra = earnedExtraExtra(msg.sender);\n             if(rewardExtraExtra > 0)\n              {\n            \n                   userRewardsExtraExtra[msg.sender].rewardsExtraExtra = 0;\n                   require(rewardTokenExtraExtra.transfer(msg.sender, rewardExtraExtra), \"reward token 2 transfer failed\");\n                   totalRewardedExtra = totalRewardedExtraExtra - rewardExtraExtra;\n\t\t   \n              }\n            emit RewardPaidExtraExtra(msg.sender, rewardExtraExtra);\n        }\n    }\n\n \n    function getReward() public updateReward(msg.sender) {\n        uint256 reward = earned(msg.sender);\n        uint256 reward2 = earned2(msg.sender);\n        uint256 reward3= earned3(msg.sender);\n        if (reward > 0) {\n            userRewards[msg.sender].rewards = 0;\n            if(reward3 > 0){\n                userRewards3[msg.sender].rewards3 = 0;\n                address payable receiver = payable(msg.sender);\n\t            require(receiver.send(reward3), \"Eth transfer failed\");\n                totalRewarded3 = totalRewarded3 - reward3;\n            }\n            require(rewardToken.transfer(msg.sender, reward), \"reward transfer failed\");\n            totalRewarded = totalRewarded - reward;\n        }\n        if(reward2 > 0)\n        {\n            \n            userRewards2[msg.sender].rewards2 = 0;\n            require(rewardToken2.transfer(msg.sender, reward2), \"reward token 2 transfer failed\");\n            totalRewarded2 = totalRewarded2 - reward2;\n        }\n        uint256 rewardExtra = earnedExtra(msg.sender);\n        if (rewardExtra > 0) {\n            userRewardsExtra[msg.sender].rewardsExtra = 0;\n            require(rewardTokenExtra.transfer(msg.sender, rewardExtra), \"reward transfer failed\");\n            totalRewardedExtra = totalRewardedExtra - rewardExtra;\n\t    \n        }\n        \n        uint256 rewardExtraExtra = earnedExtraExtra(msg.sender);\n        if(rewardExtraExtra > 0)\n        {\n            \n            userRewardsExtraExtra[msg.sender].rewardsExtraExtra = 0;\n            require(rewardTokenExtraExtra.transfer(msg.sender, rewardExtraExtra), \"reward token 2 transfer failed\");\n            totalRewardedExtra = totalRewardedExtraExtra - rewardExtraExtra;\n        }\n        \n            emit RewardPaid(msg.sender, reward, reward2, reward3, rewardExtra, rewardExtraExtra);\n    }\n \n \n \n    function Z_setRewardParamsExtraExtra(uint256 reward, uint64 duration) external {\n        unchecked {\n            require(reward > 0);\n            duration = poolLength;  // Updates every 14 days\n            rewardPerTokenStoredExtraExtra = rewardPerTokenExtraExtra();\n            uint64 blockTimestamp = uint64(block.timestamp);\n            require(blockTimestamp > (periodFinishExtra + (duration*4) / (3)), \"Claim period allows for withdrawal period before claims change 1/3 # of days\");\n            uint256 maxRewardSupply = rewardTokenExtraExtra.balanceOf(address(this)) - totalRewardedExtraExtra;\n            \n            uint256 remaining = blockTimestamp - periodFinishExtraExtra;\n            if(rewardTokenExtra == stakedToken)\n                maxRewardSupply -= totalSupply;\n            if(maxRewardSupply > duration)\n            {\n                rewardRateExtraExtra = ((maxRewardSupply*4)/10)/duration;\n            }\n            else{\n                rewardRateExtraExtra = 0;\n            }\n            reward = (maxRewardSupply*4)/10;\n\n            lastUpdateTimeExtraExtra = blockTimestamp;\n            periodFinishExtraExtra = blockTimestamp+duration;\n            totalRewardedExtraExtra = reward + totalRewarded;\n            emit RewardAdded5(reward);\n        }\n    }\n\n\n\n    function Z_setRewardParamsExtra(uint256 reward, uint64 duration) external {\n        unchecked {\n            require(reward > 0);\n            duration = poolLength;  // Updates every 14 days\n            rewardPerTokenStoredExtra = rewardPerTokenExtra();\n            uint64 blockTimestamp = uint64(block.timestamp);\n            require(blockTimestamp > (periodFinishExtra + (duration*4) / (3)), \"Claim period allows for withdrawal period before claims change 1/3 # of days\");\n            uint256 maxRewardSupply = rewardTokenExtra.balanceOf(address(this)) - totalRewardedExtra;\n            \n            uint256 remaining = blockTimestamp - periodFinishExtra;\n            if(rewardTokenExtra == stakedToken)\n                maxRewardSupply -= totalSupply;\n            if(maxRewardSupply > duration)\n            {\n                rewardRateExtra = ((maxRewardSupply*4)/10)/duration;\n            }\n            else{\n                rewardRateExtra = 0;\n            }\n            reward = (maxRewardSupply*4)/10;\n\n            lastUpdateTimeExtra = blockTimestamp;\n            periodFinishExtra = blockTimestamp+duration;\n            totalRewardedExtra = reward + totalRewarded;\n            emit RewardAdded4(reward);\n        }\n    }\n\n\n\n\n\n    function setRewardParamsALL(uint choice) external {\n\n            this.Z_setRewardParamsForge(2, 22);\n            this.Z_setRewardParams0xBTC(2, 22);\n            this.Z_setRewardParamsETH(2, 22);\n\n        if(choice == 1)\n        {\n            this.Z_setRewardParamsExtra(3, 33);\n        }\n        if(choice == 2){\n            this.Z_setRewardParamsExtraExtra(3, 33);\n            this.Z_setRewardParamsExtra(3, 33);\n        }\n    }\n\n\n\n\n    function Z_setRewardParamsForge(uint256 reward, uint64 duration) external {\n        unchecked {\n            require(reward > 0);\n            duration = poolLength;  // Updates every 14 days\n            rewardPerTokenStored = rewardPerToken();\n            uint64 blockTimestamp = uint64(block.timestamp);\n            require(blockTimestamp > periodFinish, \"MUST BE AFTER ERA\");\n            uint256 maxRewardSupply = rewardToken.balanceOf(address(this)) - totalRewarded;\n            \n            uint256 remaining = blockTimestamp - periodFinish;\n            if(rewardToken == stakedToken)\n                maxRewardSupply -= totalSupply;\n            if(maxRewardSupply > duration)\n            {\n                rewardRate = ((maxRewardSupply*4)/10)/duration;\n            }\n            else{\n                rewardRate = 0;\n            }\n            \n            reward = (maxRewardSupply*4)/10;\n            lastUpdateTime = blockTimestamp;\n            periodFinish = blockTimestamp+duration;\n            totalRewarded = reward + totalRewarded;\n            emit RewardAdded(reward);\n        }\n    }\n\n    function Z_setRewardParams0xBTC(uint256 reward, uint64 duration) external {\n        unchecked {\n            require(reward > 0);\n            duration = poolLength;  // Updates every 14 days\n            rewardPerTokenStored2 = rewardPerToken2();\n            uint64 blockTimestamp = uint64(block.timestamp);\n            require(blockTimestamp > periodFinish2, \"MUST BE AFTER ERA\");\n            \n            uint256 maxRewardSupply2 = rewardToken2.balanceOf(address(this)) - totalRewarded2;\n            uint256 remaining = blockTimestamp - periodFinish2;\n            if(rewardToken2 == stakedToken)\n                maxRewardSupply2 -= totalSupply;\n            if(maxRewardSupply2 > reward)\n            {\n                rewardRate2 = ((maxRewardSupply2*4)/10)/duration;\n            }\n            else{\n                rewardRate2 = 0;\n            }\n            reward = (maxRewardSupply2*4)/10;\n            lastUpdateTime2 = blockTimestamp;\n            periodFinish2 = blockTimestamp+duration;\n            totalRewarded2 = reward + totalRewarded2;\n            emit RewardAdded2(reward);\n        }\n    }\n\n    \n\n    \n\n    function Z_setRewardParamsETH(uint256 reward, uint64 duration) external {\n                unchecked {\n            require(reward > 0);\n            duration = poolLength;  // Updates every 14 days\n            Era += 1;\n            rewardPerTokenStored3 = rewardPerToken3();\n            uint64 blockTimestamp = uint64(block.timestamp);\n            require(blockTimestamp > periodFinish3, \"MUST BE AFTER ERA\");\n            uint256 maxRewardSupply3 = address(this).balance - totalRewarded3;\n            uint256 remaining = blockTimestamp - periodFinish3;\n\n            if(maxRewardSupply3 > duration)\n            {\n                rewardRate3 = ((maxRewardSupply3*4)/10)/duration;\n            }\n            else{\n                rewardRate3 = 0;\n            }            \n            reward = (maxRewardSupply3*4)/10;\n            lastUpdateTime3 = blockTimestamp;\n            periodFinish3 = blockTimestamp+duration;\n            totalRewarded3 = reward + totalRewarded3;\n            emit RewardAdded3(reward);\n                }\n    }\n\n\n}\n\n/*\n   ____            __   __        __   _\n  / __/__ __ ___  / /_ / /  ___  / /_ (_)__ __\n _\\ \\ / // // _ \\/ __// _ \\/ -_)/ __// / \\ \\ /\n/___/ \\_, //_//_/\\__//_//_/\\__/ \\__//_/ /_\\_\\\n     /___/\n* Synthetix: YFIRewards.sol\n*\n* Docs: https://docs.synthetix.io/\n*\n*\n* MIT License\n* ===========\n*\n* Copyright (c) 2020 Synthetix\n*\n* Permission is hereby granted, free of charge, to any person obtaining a copy\n* of this software and associated documentation files (the \"Software\"), to deal\n* in the Software without restriction, including without limitation the rights\n* to use, copy, modify, merge, publish, distribute, sublicense, and/or sell\n* copies of the Software, and to permit persons to whom the Software is\n* furnished to do so, subject to the following conditions:\n*\n* The above copyright notice and this permission notice shall be included in all\n* copies or substantial portions of the Software.   \n*\n* THE SOFTWARE IS PROVIDED \"AS IS\", WITHOUT WARRANTY OF ANY KIND, EXPRESS OR\n* IMPLIED, INCLUDING BUT NOT LIMITED TO THE WARRANTIES OF MERCHANTABILITY,\n* FITNESS FOR A PARTICULAR PURPOSE AND NONINFRINGEMENT. IN NO EVENT SHALL THE\n* AUTHORS OR COPYRIGHT HOLDERS BE LIABLE FOR ANY CLAIM, DAMAGES OR OTHER\n* LIABILITY, WHETHER IN AN ACTION OF CONTRACT, TORT OR OTHERWISE, ARISING FROM,\n* OUT OF OR IN CONNECTION WITH THE SOFTWARE OR THE USE OR OTHER DEALINGS IN THE\n*/\n",
  "sourcePath": "contracts/lprewards.sol",
  "type": "contract"
}