{
  "abi": [
    {
      "inputs": [
        {
          "internalType": "contract IERC20",
          "name": "_rewardForge",
          "type": "address"
        },
        {
          "internalType": "contract IERC20",
          "name": "_LP",
          "type": "address"
        },
        {
          "internalType": "contract IERC20",
          "name": "_reward0xBTC",
          "type": "address"
        }
      ],
      "stateMutability": "nonpayable",
      "type": "constructor"
    },
    {
      "anonymous": false,
      "inputs": [
        {
          "indexed": true,
          "internalType": "address",
          "name": "previousOwner",
          "type": "address"
        },
        {
          "indexed": true,
          "internalType": "address",
          "name": "newOwner",
          "type": "address"
        }
      ],
      "name": "OwnershipTransferred",
      "type": "event"
    },
    {
      "anonymous": false,
      "inputs": [
        {
          "indexed": false,
          "internalType": "uint256",
          "name": "reward",
          "type": "uint256"
        }
      ],
      "name": "RewardAdded",
      "type": "event"
    },
    {
      "anonymous": false,
      "inputs": [
        {
          "indexed": false,
          "internalType": "uint256",
          "name": "rewards2",
          "type": "uint256"
        }
      ],
      "name": "RewardAdded2",
      "type": "event"
    },
    {
      "anonymous": false,
      "inputs": [
        {
          "indexed": false,
          "internalType": "uint256",
          "name": "rewards3",
          "type": "uint256"
        }
      ],
      "name": "RewardAdded3",
      "type": "event"
    },
    {
      "anonymous": false,
      "inputs": [
        {
          "indexed": false,
          "internalType": "uint256",
          "name": "rewards4",
          "type": "uint256"
        }
      ],
      "name": "RewardAdded4",
      "type": "event"
    },
    {
      "anonymous": false,
      "inputs": [
        {
          "indexed": false,
          "internalType": "uint256",
          "name": "rewards5",
          "type": "uint256"
        }
      ],
      "name": "RewardAdded5",
      "type": "event"
    },
    {
      "anonymous": false,
      "inputs": [
        {
          "indexed": false,
          "internalType": "uint256",
          "name": "rewards6",
          "type": "uint256"
        }
      ],
      "name": "RewardAdded6",
      "type": "event"
    },
    {
      "anonymous": false,
      "inputs": [
        {
          "indexed": true,
          "internalType": "address",
          "name": "user",
          "type": "address"
        },
        {
          "indexed": false,
          "internalType": "uint256",
          "name": "reward",
          "type": "uint256"
        },
        {
          "indexed": false,
          "internalType": "uint256",
          "name": "rewards2",
          "type": "uint256"
        },
        {
          "indexed": false,
          "internalType": "uint256",
          "name": "rewards3",
          "type": "uint256"
        },
        {
          "indexed": false,
          "internalType": "uint256",
          "name": "rewardsExtra",
          "type": "uint256"
        },
        {
          "indexed": false,
          "internalType": "uint256",
          "name": "rewardsExtraExtra",
          "type": "uint256"
        },
        {
          "indexed": false,
          "internalType": "uint256",
          "name": "rewardsExtraExtra2",
          "type": "uint256"
        }
      ],
      "name": "RewardPaid",
      "type": "event"
    },
    {
      "anonymous": false,
      "inputs": [
        {
          "indexed": true,
          "internalType": "address",
          "name": "user",
          "type": "address"
        },
        {
          "indexed": false,
          "internalType": "uint256",
          "name": "rewards3",
          "type": "uint256"
        }
      ],
      "name": "RewardPaid3",
      "type": "event"
    },
    {
      "anonymous": false,
      "inputs": [
        {
          "indexed": true,
          "internalType": "address",
          "name": "user",
          "type": "address"
        },
        {
          "indexed": false,
          "internalType": "uint256",
          "name": "reward1",
          "type": "uint256"
        },
        {
          "indexed": false,
          "internalType": "uint256",
          "name": "rewards2",
          "type": "uint256"
        }
      ],
      "name": "RewardPaidBasic",
      "type": "event"
    },
    {
      "anonymous": false,
      "inputs": [
        {
          "indexed": true,
          "internalType": "address",
          "name": "user",
          "type": "address"
        },
        {
          "indexed": false,
          "internalType": "uint256",
          "name": "rewardsExtra",
          "type": "uint256"
        }
      ],
      "name": "RewardPaidExtra",
      "type": "event"
    },
    {
      "anonymous": false,
      "inputs": [
        {
          "indexed": true,
          "internalType": "address",
          "name": "user",
          "type": "address"
        },
        {
          "indexed": false,
          "internalType": "uint256",
          "name": "rewardsExtraExtra",
          "type": "uint256"
        }
      ],
      "name": "RewardPaidExtraExtra",
      "type": "event"
    },
    {
      "anonymous": false,
      "inputs": [
        {
          "indexed": true,
          "internalType": "address",
          "name": "userExtraExtra",
          "type": "address"
        },
        {
          "indexed": false,
          "internalType": "uint256",
          "name": "rewardsExtraExtra",
          "type": "uint256"
        }
      ],
      "name": "RewardPaidExtraExtra2",
      "type": "event"
    },
    {
      "anonymous": false,
      "inputs": [
        {
          "indexed": true,
          "internalType": "address",
          "name": "user",
          "type": "address"
        },
        {
          "indexed": false,
          "internalType": "uint256",
          "name": "amount",
          "type": "uint256"
        }
      ],
      "name": "Staked",
      "type": "event"
    },
    {
      "anonymous": false,
      "inputs": [
        {
          "indexed": true,
          "internalType": "address",
          "name": "user",
          "type": "address"
        },
        {
          "indexed": false,
          "internalType": "uint256",
          "name": "amount",
          "type": "uint256"
        }
      ],
      "name": "Withdrawn",
      "type": "event"
    },
    {
      "inputs": [
        {
          "internalType": "uint256",
          "name": "",
          "type": "uint256"
        }
      ],
      "name": "AddressesEntered",
      "outputs": [
        {
          "internalType": "address",
          "name": "",
          "type": "address"
        }
      ],
      "stateMutability": "view",
      "type": "function"
    },
    {
      "inputs": [
        {
          "internalType": "uint64",
          "name": "_rewardT",
          "type": "uint64"
        }
      ],
      "name": "Z_NewRewardTime",
      "outputs": [
        {
          "internalType": "bool",
          "name": "success",
          "type": "bool"
        }
      ],
      "stateMutability": "nonpayable",
      "type": "function"
    },
    {
      "inputs": [
        {
          "internalType": "address",
          "name": "newModerator",
          "type": "address"
        },
        {
          "internalType": "uint256",
          "name": "spot",
          "type": "uint256"
        }
      ],
      "name": "Z_addMod",
      "outputs": [],
      "stateMutability": "nonpayable",
      "type": "function"
    },
    {
      "inputs": [
        {
          "internalType": "contract IERC20",
          "name": "tokenExtra",
          "type": "address"
        },
        {
          "internalType": "uint256",
          "name": "_decimalsExtra",
          "type": "uint256"
        }
      ],
      "name": "Z_addNewToken",
      "outputs": [
        {
          "internalType": "bool",
          "name": "success",
          "type": "bool"
        }
      ],
      "stateMutability": "nonpayable",
      "type": "function"
    },
    {
      "inputs": [
        {
          "internalType": "contract IERC20",
          "name": "tokenTWOExtra",
          "type": "address"
        },
        {
          "internalType": "uint256",
          "name": "_decimalsExtraExtra",
          "type": "uint256"
        }
      ],
      "name": "Z_addNewToken2",
      "outputs": [
        {
          "internalType": "bool",
          "name": "success",
          "type": "bool"
        }
      ],
      "stateMutability": "nonpayable",
      "type": "function"
    },
    {
      "inputs": [
        {
          "internalType": "contract IERC20",
          "name": "tokenTWOExtra2",
          "type": "address"
        },
        {
          "internalType": "uint256",
          "name": "_decimalsExtraExtra2",
          "type": "uint256"
        }
      ],
      "name": "Z_addNewToken3",
      "outputs": [
        {
          "internalType": "bool",
          "name": "success",
          "type": "bool"
        }
      ],
      "stateMutability": "nonpayable",
      "type": "function"
    },
    {
      "inputs": [
        {
          "internalType": "uint256",
          "name": "reward",
          "type": "uint256"
        },
        {
          "internalType": "uint64",
          "name": "duration",
          "type": "uint64"
        }
      ],
      "name": "Z_setRewardParams0xBTC",
      "outputs": [],
      "stateMutability": "nonpayable",
      "type": "function"
    },
    {
      "inputs": [
        {
          "internalType": "uint256",
          "name": "reward",
          "type": "uint256"
        },
        {
          "internalType": "uint64",
          "name": "duration",
          "type": "uint64"
        }
      ],
      "name": "Z_setRewardParamsETH",
      "outputs": [],
      "stateMutability": "nonpayable",
      "type": "function"
    },
    {
      "inputs": [
        {
          "internalType": "uint256",
          "name": "reward",
          "type": "uint256"
        },
        {
          "internalType": "uint64",
          "name": "duration",
          "type": "uint64"
        }
      ],
      "name": "Z_setRewardParamsExtra",
      "outputs": [],
      "stateMutability": "nonpayable",
      "type": "function"
    },
    {
      "inputs": [
        {
          "internalType": "uint256",
          "name": "reward",
          "type": "uint256"
        },
        {
          "internalType": "uint64",
          "name": "duration",
          "type": "uint64"
        }
      ],
      "name": "Z_setRewardParamsExtraExtra",
      "outputs": [],
      "stateMutability": "nonpayable",
      "type": "function"
    },
    {
      "inputs": [
        {
          "internalType": "uint256",
          "name": "reward",
          "type": "uint256"
        },
        {
          "internalType": "uint64",
          "name": "duration",
          "type": "uint64"
        }
      ],
      "name": "Z_setRewardParamsExtraExtra2",
      "outputs": [],
      "stateMutability": "nonpayable",
      "type": "function"
    },
    {
      "inputs": [
        {
          "internalType": "uint256",
          "name": "reward",
          "type": "uint256"
        },
        {
          "internalType": "uint64",
          "name": "duration",
          "type": "uint64"
        }
      ],
      "name": "Z_setRewardParamsForge",
      "outputs": [],
      "stateMutability": "nonpayable",
      "type": "function"
    },
    {
      "inputs": [
        {
          "internalType": "address",
          "name": "newOwner",
          "type": "address"
        }
      ],
      "name": "Z_transferOwnership",
      "outputs": [],
      "stateMutability": "nonpayable",
      "type": "function"
    },
    {
      "inputs": [
        {
          "internalType": "address",
          "name": "account",
          "type": "address"
        }
      ],
      "name": "balanceOf",
      "outputs": [
        {
          "internalType": "uint256",
          "name": "",
          "type": "uint256"
        }
      ],
      "stateMutability": "view",
      "type": "function"
    },
    {
      "inputs": [],
      "name": "decimalsExtra",
      "outputs": [
        {
          "internalType": "uint256",
          "name": "",
          "type": "uint256"
        }
      ],
      "stateMutability": "view",
      "type": "function"
    },
    {
      "inputs": [],
      "name": "decimalsExtraExtra",
      "outputs": [
        {
          "internalType": "uint256",
          "name": "",
          "type": "uint256"
        }
      ],
      "stateMutability": "view",
      "type": "function"
    },
    {
      "inputs": [],
      "name": "decimalsExtraExtra2",
      "outputs": [
        {
          "internalType": "uint256",
          "name": "",
          "type": "uint256"
        }
      ],
      "stateMutability": "view",
      "type": "function"
    },
    {
      "inputs": [
        {
          "internalType": "address",
          "name": "account",
          "type": "address"
        }
      ],
      "name": "earned",
      "outputs": [
        {
          "internalType": "uint256",
          "name": "",
          "type": "uint256"
        }
      ],
      "stateMutability": "view",
      "type": "function"
    },
    {
      "inputs": [
        {
          "internalType": "address",
          "name": "account",
          "type": "address"
        }
      ],
      "name": "earned2",
      "outputs": [
        {
          "internalType": "uint256",
          "name": "",
          "type": "uint256"
        }
      ],
      "stateMutability": "view",
      "type": "function"
    },
    {
      "inputs": [
        {
          "internalType": "address",
          "name": "account",
          "type": "address"
        }
      ],
      "name": "earned3",
      "outputs": [
        {
          "internalType": "uint256",
          "name": "",
          "type": "uint256"
        }
      ],
      "stateMutability": "view",
      "type": "function"
    },
    {
      "inputs": [
        {
          "internalType": "address",
          "name": "account",
          "type": "address"
        }
      ],
      "name": "earnedExtra",
      "outputs": [
        {
          "internalType": "uint256",
          "name": "",
          "type": "uint256"
        }
      ],
      "stateMutability": "view",
      "type": "function"
    },
    {
      "inputs": [
        {
          "internalType": "address",
          "name": "account",
          "type": "address"
        }
      ],
      "name": "earnedExtraExtra",
      "outputs": [
        {
          "internalType": "uint256",
          "name": "",
          "type": "uint256"
        }
      ],
      "stateMutability": "view",
      "type": "function"
    },
    {
      "inputs": [
        {
          "internalType": "address",
          "name": "account",
          "type": "address"
        }
      ],
      "name": "earnedExtraExtra2",
      "outputs": [
        {
          "internalType": "uint256",
          "name": "",
          "type": "uint256"
        }
      ],
      "stateMutability": "view",
      "type": "function"
    },
    {
      "inputs": [],
      "name": "exit",
      "outputs": [],
      "stateMutability": "nonpayable",
      "type": "function"
    },
    {
      "inputs": [],
      "name": "getReward",
      "outputs": [],
      "stateMutability": "nonpayable",
      "type": "function"
    },
    {
      "inputs": [
        {
          "internalType": "uint256",
          "name": "choice",
          "type": "uint256"
        }
      ],
      "name": "getRewardBasicBasic",
      "outputs": [],
      "stateMutability": "nonpayable",
      "type": "function"
    },
    {
      "inputs": [],
      "name": "lastTimeRewardApplicable",
      "outputs": [
        {
          "internalType": "uint64",
          "name": "",
          "type": "uint64"
        }
      ],
      "stateMutability": "view",
      "type": "function"
    },
    {
      "inputs": [],
      "name": "lastTimeRewardApplicable2",
      "outputs": [
        {
          "internalType": "uint64",
          "name": "",
          "type": "uint64"
        }
      ],
      "stateMutability": "view",
      "type": "function"
    },
    {
      "inputs": [],
      "name": "lastTimeRewardApplicable3",
      "outputs": [
        {
          "internalType": "uint64",
          "name": "",
          "type": "uint64"
        }
      ],
      "stateMutability": "view",
      "type": "function"
    },
    {
      "inputs": [],
      "name": "lastTimeRewardApplicableExtra",
      "outputs": [
        {
          "internalType": "uint64",
          "name": "",
          "type": "uint64"
        }
      ],
      "stateMutability": "view",
      "type": "function"
    },
    {
      "inputs": [],
      "name": "lastTimeRewardApplicableExtraExtra",
      "outputs": [
        {
          "internalType": "uint64",
          "name": "",
          "type": "uint64"
        }
      ],
      "stateMutability": "view",
      "type": "function"
    },
    {
      "inputs": [],
      "name": "lastTimeRewardApplicableExtraExtra2",
      "outputs": [
        {
          "internalType": "uint64",
          "name": "",
          "type": "uint64"
        }
      ],
      "stateMutability": "view",
      "type": "function"
    },
    {
      "inputs": [],
      "name": "lastUpdateTime",
      "outputs": [
        {
          "internalType": "uint64",
          "name": "",
          "type": "uint64"
        }
      ],
      "stateMutability": "view",
      "type": "function"
    },
    {
      "inputs": [],
      "name": "lastUpdateTime2",
      "outputs": [
        {
          "internalType": "uint64",
          "name": "",
          "type": "uint64"
        }
      ],
      "stateMutability": "view",
      "type": "function"
    },
    {
      "inputs": [],
      "name": "lastUpdateTime3",
      "outputs": [
        {
          "internalType": "uint64",
          "name": "",
          "type": "uint64"
        }
      ],
      "stateMutability": "view",
      "type": "function"
    },
    {
      "inputs": [],
      "name": "lastUpdateTimeExtra",
      "outputs": [
        {
          "internalType": "uint64",
          "name": "",
          "type": "uint64"
        }
      ],
      "stateMutability": "view",
      "type": "function"
    },
    {
      "inputs": [],
      "name": "lastUpdateTimeExtraExtra",
      "outputs": [
        {
          "internalType": "uint64",
          "name": "",
          "type": "uint64"
        }
      ],
      "stateMutability": "view",
      "type": "function"
    },
    {
      "inputs": [],
      "name": "lastUpdateTimeExtraExtra2",
      "outputs": [
        {
          "internalType": "uint64",
          "name": "",
          "type": "uint64"
        }
      ],
      "stateMutability": "view",
      "type": "function"
    },
    {
      "inputs": [
        {
          "internalType": "uint256",
          "name": "",
          "type": "uint256"
        }
      ],
      "name": "moderators",
      "outputs": [
        {
          "internalType": "address",
          "name": "",
          "type": "address"
        }
      ],
      "stateMutability": "view",
      "type": "function"
    },
    {
      "inputs": [],
      "name": "owner",
      "outputs": [
        {
          "internalType": "address",
          "name": "",
          "type": "address"
        }
      ],
      "stateMutability": "view",
      "type": "function"
    },
    {
      "inputs": [],
      "name": "periodFinish",
      "outputs": [
        {
          "internalType": "uint64",
          "name": "",
          "type": "uint64"
        }
      ],
      "stateMutability": "view",
      "type": "function"
    },
    {
      "inputs": [],
      "name": "periodFinish2",
      "outputs": [
        {
          "internalType": "uint64",
          "name": "",
          "type": "uint64"
        }
      ],
      "stateMutability": "view",
      "type": "function"
    },
    {
      "inputs": [],
      "name": "periodFinish3",
      "outputs": [
        {
          "internalType": "uint64",
          "name": "",
          "type": "uint64"
        }
      ],
      "stateMutability": "view",
      "type": "function"
    },
    {
      "inputs": [],
      "name": "periodFinishExtra",
      "outputs": [
        {
          "internalType": "uint64",
          "name": "",
          "type": "uint64"
        }
      ],
      "stateMutability": "view",
      "type": "function"
    },
    {
      "inputs": [],
      "name": "periodFinishExtraExtra",
      "outputs": [
        {
          "internalType": "uint64",
          "name": "",
          "type": "uint64"
        }
      ],
      "stateMutability": "view",
      "type": "function"
    },
    {
      "inputs": [],
      "name": "periodFinishExtraExtra2",
      "outputs": [
        {
          "internalType": "uint64",
          "name": "",
          "type": "uint64"
        }
      ],
      "stateMutability": "view",
      "type": "function"
    },
    {
      "inputs": [],
      "name": "poolLength",
      "outputs": [
        {
          "internalType": "uint64",
          "name": "",
          "type": "uint64"
        }
      ],
      "stateMutability": "view",
      "type": "function"
    },
    {
      "inputs": [],
      "name": "rewardPerToken",
      "outputs": [
        {
          "internalType": "uint256",
          "name": "",
          "type": "uint256"
        }
      ],
      "stateMutability": "view",
      "type": "function"
    },
    {
      "inputs": [],
      "name": "rewardPerToken2",
      "outputs": [
        {
          "internalType": "uint256",
          "name": "",
          "type": "uint256"
        }
      ],
      "stateMutability": "view",
      "type": "function"
    },
    {
      "inputs": [],
      "name": "rewardPerToken3",
      "outputs": [
        {
          "internalType": "uint256",
          "name": "",
          "type": "uint256"
        }
      ],
      "stateMutability": "view",
      "type": "function"
    },
    {
      "inputs": [],
      "name": "rewardPerTokenExtra",
      "outputs": [
        {
          "internalType": "uint256",
          "name": "",
          "type": "uint256"
        }
      ],
      "stateMutability": "view",
      "type": "function"
    },
    {
      "inputs": [],
      "name": "rewardPerTokenExtraExtra",
      "outputs": [
        {
          "internalType": "uint256",
          "name": "",
          "type": "uint256"
        }
      ],
      "stateMutability": "view",
      "type": "function"
    },
    {
      "inputs": [],
      "name": "rewardPerTokenExtraExtra2",
      "outputs": [
        {
          "internalType": "uint256",
          "name": "",
          "type": "uint256"
        }
      ],
      "stateMutability": "view",
      "type": "function"
    },
    {
      "inputs": [],
      "name": "rewardPerTokenStored",
      "outputs": [
        {
          "internalType": "uint256",
          "name": "",
          "type": "uint256"
        }
      ],
      "stateMutability": "view",
      "type": "function"
    },
    {
      "inputs": [],
      "name": "rewardPerTokenStored2",
      "outputs": [
        {
          "internalType": "uint256",
          "name": "",
          "type": "uint256"
        }
      ],
      "stateMutability": "view",
      "type": "function"
    },
    {
      "inputs": [],
      "name": "rewardPerTokenStored3",
      "outputs": [
        {
          "internalType": "uint256",
          "name": "",
          "type": "uint256"
        }
      ],
      "stateMutability": "view",
      "type": "function"
    },
    {
      "inputs": [],
      "name": "rewardPerTokenStoredExtra",
      "outputs": [
        {
          "internalType": "uint256",
          "name": "",
          "type": "uint256"
        }
      ],
      "stateMutability": "view",
      "type": "function"
    },
    {
      "inputs": [],
      "name": "rewardPerTokenStoredExtraExtra",
      "outputs": [
        {
          "internalType": "uint256",
          "name": "",
          "type": "uint256"
        }
      ],
      "stateMutability": "view",
      "type": "function"
    },
    {
      "inputs": [],
      "name": "rewardPerTokenStoredExtraExtra2",
      "outputs": [
        {
          "internalType": "uint256",
          "name": "",
          "type": "uint256"
        }
      ],
      "stateMutability": "view",
      "type": "function"
    },
    {
      "inputs": [],
      "name": "rewardRate",
      "outputs": [
        {
          "internalType": "uint256",
          "name": "",
          "type": "uint256"
        }
      ],
      "stateMutability": "view",
      "type": "function"
    },
    {
      "inputs": [],
      "name": "rewardRate2",
      "outputs": [
        {
          "internalType": "uint256",
          "name": "",
          "type": "uint256"
        }
      ],
      "stateMutability": "view",
      "type": "function"
    },
    {
      "inputs": [],
      "name": "rewardRate3",
      "outputs": [
        {
          "internalType": "uint256",
          "name": "",
          "type": "uint256"
        }
      ],
      "stateMutability": "view",
      "type": "function"
    },
    {
      "inputs": [],
      "name": "rewardRateExtra",
      "outputs": [
        {
          "internalType": "uint256",
          "name": "",
          "type": "uint256"
        }
      ],
      "stateMutability": "view",
      "type": "function"
    },
    {
      "inputs": [],
      "name": "rewardRateExtraExtra",
      "outputs": [
        {
          "internalType": "uint256",
          "name": "",
          "type": "uint256"
        }
      ],
      "stateMutability": "view",
      "type": "function"
    },
    {
      "inputs": [],
      "name": "rewardRateExtraExtra2",
      "outputs": [
        {
          "internalType": "uint256",
          "name": "",
          "type": "uint256"
        }
      ],
      "stateMutability": "view",
      "type": "function"
    },
    {
      "inputs": [],
      "name": "rewardToken",
      "outputs": [
        {
          "internalType": "contract IERC20",
          "name": "",
          "type": "address"
        }
      ],
      "stateMutability": "view",
      "type": "function"
    },
    {
      "inputs": [],
      "name": "rewardToken2",
      "outputs": [
        {
          "internalType": "contract IERC20",
          "name": "",
          "type": "address"
        }
      ],
      "stateMutability": "view",
      "type": "function"
    },
    {
      "inputs": [],
      "name": "rewardTokenExtra",
      "outputs": [
        {
          "internalType": "contract IERC20",
          "name": "",
          "type": "address"
        }
      ],
      "stateMutability": "view",
      "type": "function"
    },
    {
      "inputs": [],
      "name": "rewardTokenExtraExtra",
      "outputs": [
        {
          "internalType": "contract IERC20",
          "name": "",
          "type": "address"
        }
      ],
      "stateMutability": "view",
      "type": "function"
    },
    {
      "inputs": [],
      "name": "rewardTokenExtraExtra2",
      "outputs": [
        {
          "internalType": "contract IERC20",
          "name": "",
          "type": "address"
        }
      ],
      "stateMutability": "view",
      "type": "function"
    },
    {
      "inputs": [
        {
          "internalType": "uint256",
          "name": "choice",
          "type": "uint256"
        }
      ],
      "name": "setRewardParamsALL",
      "outputs": [],
      "stateMutability": "nonpayable",
      "type": "function"
    },
    {
      "inputs": [
        {
          "internalType": "uint256",
          "name": "amount",
          "type": "uint256"
        }
      ],
      "name": "stake",
      "outputs": [],
      "stateMutability": "payable",
      "type": "function"
    },
    {
      "inputs": [
        {
          "internalType": "address",
          "name": "forWhom",
          "type": "address"
        },
        {
          "internalType": "uint256",
          "name": "amount",
          "type": "uint256"
        }
      ],
      "name": "stakeFor",
      "outputs": [],
      "stateMutability": "payable",
      "type": "function"
    },
    {
      "inputs": [],
      "name": "stakedToken",
      "outputs": [
        {
          "internalType": "contract IERC20",
          "name": "",
          "type": "address"
        }
      ],
      "stateMutability": "view",
      "type": "function"
    },
    {
      "inputs": [],
      "name": "totalRewarded",
      "outputs": [
        {
          "internalType": "uint256",
          "name": "",
          "type": "uint256"
        }
      ],
      "stateMutability": "view",
      "type": "function"
    },
    {
      "inputs": [],
      "name": "totalRewarded2",
      "outputs": [
        {
          "internalType": "uint256",
          "name": "",
          "type": "uint256"
        }
      ],
      "stateMutability": "view",
      "type": "function"
    },
    {
      "inputs": [],
      "name": "totalRewarded3",
      "outputs": [
        {
          "internalType": "uint256",
          "name": "",
          "type": "uint256"
        }
      ],
      "stateMutability": "view",
      "type": "function"
    },
    {
      "inputs": [],
      "name": "totalRewardedExtra",
      "outputs": [
        {
          "internalType": "uint256",
          "name": "",
          "type": "uint256"
        }
      ],
      "stateMutability": "view",
      "type": "function"
    },
    {
      "inputs": [],
      "name": "totalRewardedExtraExtra",
      "outputs": [
        {
          "internalType": "uint256",
          "name": "",
          "type": "uint256"
        }
      ],
      "stateMutability": "view",
      "type": "function"
    },
    {
      "inputs": [],
      "name": "totalRewardedExtraExtra2",
      "outputs": [
        {
          "internalType": "uint256",
          "name": "",
          "type": "uint256"
        }
      ],
      "stateMutability": "view",
      "type": "function"
    },
    {
      "inputs": [],
      "name": "totalSupply",
      "outputs": [
        {
          "internalType": "uint256",
          "name": "",
          "type": "uint256"
        }
      ],
      "stateMutability": "view",
      "type": "function"
    },
    {
      "inputs": [
        {
          "internalType": "address",
          "name": "",
          "type": "address"
        }
      ],
      "name": "userRewards",
      "outputs": [
        {
          "internalType": "uint256",
          "name": "userRewardPerTokenPaid",
          "type": "uint256"
        },
        {
          "internalType": "uint256",
          "name": "rewards",
          "type": "uint256"
        }
      ],
      "stateMutability": "view",
      "type": "function"
    },
    {
      "inputs": [
        {
          "internalType": "address",
          "name": "",
          "type": "address"
        }
      ],
      "name": "userRewards2",
      "outputs": [
        {
          "internalType": "uint256",
          "name": "userRewardPerTokenPaid2",
          "type": "uint256"
        },
        {
          "internalType": "uint256",
          "name": "rewards2",
          "type": "uint256"
        }
      ],
      "stateMutability": "view",
      "type": "function"
    },
    {
      "inputs": [
        {
          "internalType": "address",
          "name": "",
          "type": "address"
        }
      ],
      "name": "userRewards3",
      "outputs": [
        {
          "internalType": "uint256",
          "name": "userRewardPerTokenPaid3",
          "type": "uint256"
        },
        {
          "internalType": "uint256",
          "name": "rewards3",
          "type": "uint256"
        }
      ],
      "stateMutability": "view",
      "type": "function"
    },
    {
      "inputs": [
        {
          "internalType": "address",
          "name": "",
          "type": "address"
        }
      ],
      "name": "userRewardsExtra",
      "outputs": [
        {
          "internalType": "uint256",
          "name": "userRewardPerTokenPaidExtra",
          "type": "uint256"
        },
        {
          "internalType": "uint256",
          "name": "rewardsExtra",
          "type": "uint256"
        }
      ],
      "stateMutability": "view",
      "type": "function"
    },
    {
      "inputs": [
        {
          "internalType": "address",
          "name": "",
          "type": "address"
        }
      ],
      "name": "userRewardsExtraExtra",
      "outputs": [
        {
          "internalType": "uint256",
          "name": "userRewardPerTokenPaidExtraExtra",
          "type": "uint256"
        },
        {
          "internalType": "uint256",
          "name": "rewardsExtraExtra",
          "type": "uint256"
        }
      ],
      "stateMutability": "view",
      "type": "function"
    },
    {
      "inputs": [
        {
          "internalType": "address",
          "name": "",
          "type": "address"
        }
      ],
      "name": "userRewardsExtraExtra2",
      "outputs": [
        {
          "internalType": "uint256",
          "name": "userRewardPerTokenPaidExtraExtra2",
          "type": "uint256"
        },
        {
          "internalType": "uint256",
          "name": "rewardsExtraExtra2",
          "type": "uint256"
        }
      ],
      "stateMutability": "view",
      "type": "function"
    },
    {
      "inputs": [
        {
          "internalType": "uint256",
          "name": "amount",
          "type": "uint256"
        }
      ],
      "name": "withdraw",
      "outputs": [],
      "stateMutability": "nonpayable",
      "type": "function"
    }
  ],
  "bytecode": "60806040526005805462ffffff19169055601260068190556007819055600855600980546001600160401b03191662093a801790553480156200004157600080fd5b5060405162004d0038038062004d008339810160408190526200006491620000cf565b600380546001600160a01b03199081163317909155601580546001600160a01b0395861690831617905560028054938516938216939093179092556014805491909316911617905562000119565b80516001600160a01b0381168114620000ca57600080fd5b919050565b600080600060608486031215620000e557600080fd5b620000f084620000b2565b92506200010060208501620000b2565b91506200011060408501620000b2565b90509250925092565b614bd780620001296000396000f3fe6080604052600436106104ca5760003560e01c80639646961a11610276578063c2e890471161014f578063df173f16116100c1578063f3e168d911610085578063f3e168d914610ec3578063f590a68014610ee3578063f7c618c114610f0a578063f8960b3b14610f2a578063fd5741cc14610f40578063ff42cd5e14610f5657600080fd5b8063df173f1614610e43578063e1019fa214610e58578063e9fad8ee14610e78578063ebe2b12b14610e8d578063eda1888814610ead57600080fd5b8063cc7a262e11610113578063cc7a262e14610da2578063cd3daf9d14610dc2578063d575b4e314610dd7578063d61a47f114610df7578063d80f4b8314610e17578063df136d6514610e2d57600080fd5b8063c2e8904714610d23578063c436462214610d39578063c8f33c9114610d4f578063cb35a57714610d76578063cc4027c014610d8c57600080fd5b8063a694fc3a116101e8578063b07bedc6116101ac578063b07bedc614610c5d578063b302181a14610c73578063b8e36ef414610c93578063bb58b6bc14610ca8578063bd842a1114610ccf578063c09486db14610cef57600080fd5b8063a694fc3a14610bc0578063a7f377cf14610bd3578063aa5fb8e114610c07578063ac07e3d714610c27578063aed29d0714610c4757600080fd5b80639f0aacdf1161023a5780639f0aacdf14610b295780639fa5b78b14610b3f578063a1d639b514610b54578063a20f677314610b6a578063a2d5e03614610b80578063a373598314610ba057600080fd5b80639646961a14610a98578063980a03a614610aad5780639a5239d514610ad45780639b9ad5d614610ae95780639ddd674b14610b0957600080fd5b80633da31dc3116103a85780636b379b521161031a5780637b0a47ee116102de5780637b0a47ee146109ed5780637b279ddc14610a035780637b64a86d14610a2357806380faa57d14610a435780638da5cb5b14610a585780639617e95614610a7857600080fd5b80636b379b521461094e578063702a09081461096457806370a082311461097a57806372d2782d146109b057806376776994146109d757600080fd5b806350913b011161036c57806350913b0114610887578063559a171c146108ae5780635a0231c6146108c45780635f16647d146108da578063638e5f96146108fa5780636504f4031461092e57600080fd5b80633da31dc3146107eb5780633ef3c91c1461080b578063434f813214610820578063483ee28b146108405780634a8560791461086057600080fd5b806318160ddd116104415780632ee40908116104055780632ee409081461072557806338b3369a1461073857806339b4edda1461075f5780633b20a349146107865780633b28bb75146107b65780633d18b912146107d657600080fd5b806318160ddd14610663578063204cd8e81461067957806325db42b2146106ad5780632c33b05e146106cd5780632e1a7d4d1461070557600080fd5b8063081e3eda11610493578063081e3eda146105a35780630bb8406b146105c3578063104370e4146105f757806310d443a41461061957806310eb81c41461062e57806316464ed61461064e57600080fd5b80628cc262146104cf57806303263267146105025780630660f1e814610518578063069104d31461056157806307b9c27514610576575b600080fd5b3480156104db57600080fd5b506104ef6104ea366004614870565b610f76565b6040519081526020015b60405180910390f35b34801561050e57600080fd5b506104ef60065481565b34801561052457600080fd5b5061054c610533366004614870565b6025602052600090815260409020805460019091015482565b604080519283526020830191909152016104f9565b34801561056d57600080fd5b506104ef611083565b34801561058257600080fd5b5061058b6110e7565b6040516001600160401b0390911681526020016104f9565b3480156105af57600080fd5b5060095461058b906001600160401b031681565b3480156105cf57600080fd5b5061054c6105de366004614870565b6029602052600090815260409020805460019091015482565b34801561060357600080fd5b50610617610612366004614894565b61111b565b005b34801561062557600080fd5b5061058b611454565b34801561063a57600080fd5b506106176106493660046148c4565b61148e565b34801561065a57600080fd5b5061058b61165c565b34801561066f57600080fd5b506104ef60005481565b34801561068557600080fd5b5061054c610694366004614870565b6028602052600090815260409020805460019091015482565b3480156106b957600080fd5b506104ef6106c8366004614870565b611696565b3480156106d957600080fd5b506013546106ed906001600160a01b031681565b6040516001600160a01b0390911681526020016104f9565b34801561071157600080fd5b50610617610720366004614894565b61172c565b6106176107333660046148f0565b6119d2565b34801561074457600080fd5b50601c5461058b90600160801b90046001600160401b031681565b34801561076b57600080fd5b50601c5461058b90600160c01b90046001600160401b031681565b34801561079257600080fd5b506107a66107a136600461491c565b611c7a565b60405190151581526020016104f9565b3480156107c257600080fd5b506106176107d1366004614870565b611db0565b3480156107e257600080fd5b50610617611e13565b3480156107f757600080fd5b506012546106ed906001600160a01b031681565b34801561081757600080fd5b506104ef612595565b34801561082c57600080fd5b506106ed61083b366004614894565b6125f9565b34801561084c57600080fd5b50601e5461058b906001600160401b031681565b34801561086c57600080fd5b50601e5461058b90600160801b90046001600160401b031681565b34801561089357600080fd5b50601d5461058b90600160401b90046001600160401b031681565b3480156108ba57600080fd5b506104ef60195481565b3480156108d057600080fd5b506104ef600e5481565b3480156108e657600080fd5b506106176108f53660046148f0565b612623565b34801561090657600080fd5b5061054c610915366004614870565b6026602052600090815260409020805460019091015482565b34801561093a57600080fd5b506107a66109493660046148f0565b61271d565b34801561095a57600080fd5b506104ef600d5481565b34801561097057600080fd5b506104ef60245481565b34801561098657600080fd5b506104ef610995366004614870565b6001600160a01b031660009081526001602052604090205490565b3480156109bc57600080fd5b50601d5461058b90600160c01b90046001600160401b031681565b3480156109e357600080fd5b506104ef60175481565b3480156109f957600080fd5b506104ef60165481565b348015610a0f57600080fd5b506107a6610a1e3660046148f0565b6128c9565b348015610a2f57600080fd5b506107a6610a3e3660046148f0565b612a72565b348015610a4f57600080fd5b5061058b612c13565b348015610a6457600080fd5b506003546106ed906001600160a01b031681565b348015610a8457600080fd5b506104ef610a93366004614870565b612c3f565b348015610aa457600080fd5b506104ef612cc7565b348015610ab957600080fd5b50601e5461058b90600160c01b90046001600160401b031681565b348015610ae057600080fd5b5061058b612d32565b348015610af557600080fd5b50610617610b043660046148c4565b612d6c565b348015610b1557600080fd5b50610617610b243660046148c4565b612f5c565b348015610b3557600080fd5b506104ef601b5481565b348015610b4b57600080fd5b5061058b6130bd565b348015610b6057600080fd5b506104ef600b5481565b348015610b7657600080fd5b506104ef600c5481565b348015610b8c57600080fd5b50610617610b9b3660046148c4565b6130f7565b348015610bac57600080fd5b506104ef610bbb366004614870565b6132c0565b610617610bce366004614894565b613348565b348015610bdf57600080fd5b5061054c610bee366004614870565b6027602052600090815260409020805460019091015482565b348015610c1357600080fd5b50610617610c223660046148c4565b613352565b348015610c3357600080fd5b50610617610c423660046148c4565b613507565b348015610c5357600080fd5b506104ef600a5481565b348015610c6957600080fd5b506104ef60075481565b348015610c7f57600080fd5b506011546106ed906001600160a01b031681565b348015610c9f57600080fd5b506104ef6136dd565b348015610cb457600080fd5b50601c5461058b90600160401b90046001600160401b031681565b348015610cdb57600080fd5b506106ed610cea366004614894565b613741565b348015610cfb57600080fd5b5061054c610d0a366004614870565b602a602052600090815260409020805460019091015482565b348015610d2f57600080fd5b506104ef601a5481565b348015610d4557600080fd5b506104ef60215481565b348015610d5b57600080fd5b50601d5461058b90600160801b90046001600160401b031681565b348015610d8257600080fd5b506104ef600f5481565b348015610d9857600080fd5b506104ef60185481565b348015610dae57600080fd5b506002546106ed906001600160a01b031681565b348015610dce57600080fd5b506104ef613751565b348015610de357600080fd5b50610617610df2366004614894565b6137bc565b348015610e0357600080fd5b506014546106ed906001600160a01b031681565b348015610e2357600080fd5b506104ef60205481565b348015610e3957600080fd5b506104ef601f5481565b348015610e4f57600080fd5b506104ef614240565b348015610e6457600080fd5b506104ef610e73366004614870565b61429f565b348015610e8457600080fd5b50610617614327565b348015610e9957600080fd5b50601c5461058b906001600160401b031681565b348015610eb957600080fd5b506104ef60085481565b348015610ecf57600080fd5b50601d5461058b906001600160401b031681565b348015610eef57600080fd5b50601e5461058b90600160401b90046001600160401b031681565b348015610f1657600080fd5b506015546106ed906001600160a01b031681565b348015610f3657600080fd5b506104ef60225481565b348015610f4c57600080fd5b506104ef60235481565b348015610f6257600080fd5b506104ef610f71366004614870565b61434a565b60006f01aba4714957d300d0e549208b31adb160341b610f94613751565b101561100c576001600160a01b0382166000908152602560205260409020600181015490546f01aba4714957d300d0e549208b31adb160341b90610fd6613751565b03610ff6856001600160a01b031660009081526001602052604090205490565b028161100457611004614937565b040192915050565b6001600160a01b0382166000908152602560205260409020600181015490546f01aba4714957d300d0e549208b31adb160341b90611048613751565b038161105657611056614937565b04611076846001600160a01b031660009081526001602052604090205490565b020192915050565b919050565b600080548061109457505060245490565b601e54600090600160c01b90046001600160401b03166110b261165c565b036001600160401b0316905081600854600202600a0a601b54830202816110db576110db614937565b04602454019250505090565b601d5460009042906001600160401b039081169082161061111357601d546001600160401b0316611115565b805b91505090565b60405163aa5fb8e160e01b81526002600482015260166024820152309063aa5fb8e190604401600060405180830381600087803b15801561115b57600080fd5b505af115801561116f573d6000803e3d6000fd5b5050604051634dcd6aeb60e11b81526002600482015260166024820152309250639b9ad5d69150604401600060405180830381600087803b1580156111b357600080fd5b505af11580156111c7573d6000803e3d6000fd5b5050604051639ddd674b60e01b81526002600482015260166024820152309250639ddd674b9150604401600060405180830381600087803b15801561120b57600080fd5b505af115801561121f573d6000803e3d6000fd5b5050505080600114156112855760405163ac07e3d760e01b81526003600482015260216024820152309063ac07e3d790604401600060405180830381600087803b15801561126c57600080fd5b505af1158015611280573d6000803e3d6000fd5b505050505b806002141561133f5760405163043ae07160e21b8152600360048201526021602482015230906310eb81c490604401600060405180830381600087803b1580156112ce57600080fd5b505af11580156112e2573d6000803e3d6000fd5b505060405163ac07e3d760e01b8152600360048201526021602482015230925063ac07e3d79150604401600060405180830381600087803b15801561132657600080fd5b505af115801561133a573d6000803e3d6000fd5b505050505b80600314156114515760405163516af01b60e11b81526003600482015260216024820152309063a2d5e03690604401600060405180830381600087803b15801561138857600080fd5b505af115801561139c573d6000803e3d6000fd5b505060405163043ae07160e21b815260036004820152602160248201523092506310eb81c49150604401600060405180830381600087803b1580156113e057600080fd5b505af11580156113f4573d6000803e3d6000fd5b505060405163ac07e3d760e01b8152600360048201526021602482015230925063ac07e3d79150604401600060405180830381600087803b15801561143857600080fd5b505af115801561144c573d6000803e3d6000fd5b505050505b50565b601c5460009042906001600160401b03600160c01b90910481169082161061111357601c54600160c01b90046001600160401b0316611115565b6000821161149b57600080fd5b506009546001600160401b03166114b06136dd565b602355601d5442906001600160401b03908116908216116114ec5760405162461bcd60e51b81526004016114e39061494d565b60405180910390fd5b600e546012546040516370a0823160e01b8152306004820152600092916001600160a01b0316906370a0823190602401602060405180830381865afa158015611539573d6000803e3d6000fd5b505050506040513d601f19601f8201168201806040525081019061155d9190614991565b6002546012549290910392506001600160a01b03918216911614156115825760005490035b826001600160401b03168111156115c0576001600160401b038316600a668e1bc9bf040000830204816115b7576115b7614937565b04601a556115c6565b6000601a555b601e805467ffffffffffffffff60801b1916600160801b6001600160401b038581169190910291909117909155601d805467ffffffffffffffff1916858501909216919091179055600e8054600a60048402049081019091556040518181529094507f9e0ea166a59c148d4334c77b0eda4ea4819df6a57e58a0fc764f8ec5cae7927c906020015b60405180910390a150505050565b601d5460009042906001600160401b03600160401b90910481169082161061111357601d54600160401b90046001600160401b0316611115565b6000701d6329f1c35ca4bfabb9f56100000000006116b2614240565b10156116f2576001600160a01b038216600090815260276020526040902060018101549054701d6329f1c35ca4bfabb9f561000000000090610fd6614240565b6001600160a01b038216600090815260276020526040902060018101549054701d6329f1c35ca4bfabb9f561000000000090611048614240565b336000611737613751565b90506000611743612cc7565b9050600061174f614240565b9050600061175b612595565b905060006117676136dd565b90506000611773611083565b905061177d612c13565b601d60106101000a8154816001600160401b0302191690836001600160401b031602179055506117ab612d32565b601d60186101000a8154816001600160401b0302191690836001600160401b031602179055506117d96130bd565b601e805467ffffffffffffffff19166001600160401b0392909216919091179055611802611454565b601e60086101000a8154816001600160401b0302191690836001600160401b031602179055506118306110e7565b601e60106101000a8154816001600160401b0302191690836001600160401b0316021790555061185e61165c565b601e80546001600160401b0392909216600160c01b026001600160c01b03909216919091179055601f869055602085905560218490556022839055602382905560248190556118ac87610f76565b6001600160a01b0388166000908152602560205260409020600101556118d18761434a565b6001600160a01b0388166000908152602660205260409020600101556118f687611696565b6001600160a01b03881660009081526027602052604090206001015561191b876132c0565b6001600160a01b03881660009081526028602052604090206001015561194087612c3f565b6001600160a01b0388166000908152602960205260409020600101556119658761429f565b6001600160a01b0388166000908152602a602081815260408084206001810195909555602582528084208b9055602682528084208a905560278252808420899055602882528084208890556029825290922085905590528190556119c8886143e6565b5050505050505050565b8160006119dd613751565b905060006119e9612cc7565b905060006119f5614240565b90506000611a01612595565b90506000611a0d6136dd565b90506000611a19611083565b9050611a23612c13565b601d60106101000a8154816001600160401b0302191690836001600160401b03160217905550611a51612d32565b601d60186101000a8154816001600160401b0302191690836001600160401b03160217905550611a7f6130bd565b601e805467ffffffffffffffff19166001600160401b0392909216919091179055611aa8611454565b601e60086101000a8154816001600160401b0302191690836001600160401b03160217905550611ad66110e7565b601e60106101000a8154816001600160401b0302191690836001600160401b03160217905550611b0461165c565b601e80546001600160401b0392909216600160c01b026001600160c01b03909216919091179055601f86905560208590556021849055602283905560238290556024819055611b5287610f76565b6001600160a01b038816600090815260256020526040902060010155611b778761434a565b6001600160a01b038816600090815260266020526040902060010155611b9c87611696565b6001600160a01b038816600090815260276020526040902060010155611bc1876132c0565b6001600160a01b038816600090815260286020526040902060010155611be687612c3f565b6001600160a01b038816600090815260296020526040902060010155611c0b8761429f565b6001600160a01b0388166000908152602a602081815260408084206001810195909555602582528084208b9055602682528084208a90556027825280842089905560288252808420889055602982529092208590559052819055611c6f898961460c565b505050505050505050565b600080805b600454811015611cd857336001600160a01b031660048281548110611ca657611ca66149aa565b6000918252602090912001546001600160a01b03161415611cc657600191505b80611cd0816149d6565b915050611c7f565b506003546001600160a01b0316331480611cef5750805b611d0b5760405162461bcd60e51b81526004016114e3906149f1565b62093a80836001600160401b031610158015611d3357506251bd00836001600160401b031611155b611d8a5760405162461bcd60e51b815260206004820152602260248201527f526577617264206d75737420737461792077697468696e20626f756e64617269604482015261657360f01b60648201526084016114e3565b506009805467ffffffffffffffff19166001600160401b03939093169290921790915590565b6003546001600160a01b03163314611e0a5760405162461bcd60e51b815260206004820181905260248201527f4f776e61626c653a2063616c6c6572206973206e6f7420746865206f776e657260448201526064016114e3565b611451816147ff565b336000611e1e613751565b90506000611e2a612cc7565b90506000611e36614240565b90506000611e42612595565b90506000611e4e6136dd565b90506000611e5a611083565b9050611e64612c13565b601d60106101000a8154816001600160401b0302191690836001600160401b03160217905550611e92612d32565b601d60186101000a8154816001600160401b0302191690836001600160401b03160217905550611ec06130bd565b601e805467ffffffffffffffff19166001600160401b0392909216919091179055611ee9611454565b601e60086101000a8154816001600160401b0302191690836001600160401b03160217905550611f176110e7565b601e60106101000a8154816001600160401b0302191690836001600160401b03160217905550611f4561165c565b601e80546001600160401b0392909216600160c01b026001600160c01b03909216919091179055601f86905560208590556021849055602283905560238290556024819055611f9387610f76565b6001600160a01b038816600090815260256020526040902060010155611fb88761434a565b6001600160a01b038816600090815260266020526040902060010155611fdd87611696565b6001600160a01b038816600090815260276020526040902060010155612002876132c0565b6001600160a01b03881660009081526028602052604090206001015561202787612c3f565b6001600160a01b03881660009081526029602052604090206001015561204c8761429f565b6001600160a01b0388166000908152602a602081815260408084206001810195909555602582528084208b9055602682528084208a9055602782528084208990556028825280842088905560298252832086905552908290556120ae33610f76565b905060006120bb3361434a565b905060006120c833611696565b9050821561220f5733600090815260256020526040812060010155801561216c573360008181526027602052604080822060010182905551829184156108fc02918591818181858888f193505050506121595760405162461bcd60e51b8152602060048201526013602482015272115d1a081d1c985b9cd9995c8819985a5b1959606a1b60448201526064016114e3565b81600c546121679190614a35565b600c55505b60155460405163a9059cbb60e01b81526001600160a01b039091169063a9059cbb9061219e9033908790600401614a4c565b6020604051808303816000875af11580156121bd573d6000803e3d6000fd5b505050506040513d601f19601f820116820180604052508101906121e19190614a65565b6121fd5760405162461bcd60e51b81526004016114e390614a87565b82600a5461220b9190614a35565b600a555b81156122cd573360008181526026602052604080822060010191909155601454905163a9059cbb60e01b81526001600160a01b039091169163a9059cbb9161225c91908690600401614a4c565b6020604051808303816000875af115801561227b573d6000803e3d6000fd5b505050506040513d601f19601f8201168201806040525081019061229f9190614a65565b6122bb5760405162461bcd60e51b81526004016114e390614ab7565b81600b546122c99190614a35565b600b555b60006122d8336132c0565b90508015612398573360008181526028602052604080822060010191909155601354905163a9059cbb60e01b81526001600160a01b039091169163a9059cbb9161232791908590600401614a4c565b6020604051808303816000875af1158015612346573d6000803e3d6000fd5b505050506040513d601f19601f8201168201806040525081019061236a9190614a65565b6123865760405162461bcd60e51b81526004016114e390614a87565b80600d546123949190614a35565b600d555b60006123a333612c3f565b90508015612463573360008181526029602052604080822060010191909155601254905163a9059cbb60e01b81526001600160a01b039091169163a9059cbb916123f291908590600401614a4c565b6020604051808303816000875af1158015612411573d6000803e3d6000fd5b505050506040513d601f19601f820116820180604052508101906124359190614a65565b6124515760405162461bcd60e51b81526004016114e390614ab7565b80600e5461245f9190614a35565b600e555b600061246e3361429f565b9050801561252e57336000818152602a602052604080822060010191909155601154905163a9059cbb60e01b81526001600160a01b039091169163a9059cbb916124bd91908590600401614a4c565b6020604051808303816000875af11580156124dc573d6000803e3d6000fd5b505050506040513d601f19601f820116820180604052508101906125009190614a65565b61251c5760405162461bcd60e51b81526004016114e390614ab7565b80600f5461252a9190614a35565b600f555b6040805187815260208101879052908101859052606081018490526080810183905260a0810182905233907f9e47cd2646bc931c94f5188d211cf8fa0e569326c205fb274070bf580aedc3899060c00160405180910390a250505050505050505050505050565b60008054806125a657505060225490565b601e54600090600160401b90046001600160401b03166125c4611454565b036001600160401b0316905081600654600202600a0a601954830202816125ed576125ed614937565b04602254019250505090565b6010818154811061260957600080fd5b6000918252602090912001546001600160a01b0316905081565b6003546001600160a01b0316331461267d5760405162461bcd60e51b815260206004820181905260248201527f4f776e61626c653a2063616c6c6572206973206e6f7420746865206f776e657260448201526064016114e3565b60045481106126d757600480546001810182556000919091527f8a35acfbc15ff81a39ae7d344fd709f28e8600b4aa8c65c6b64bfe7fe36bd19b0180546001600160a01b0384166001600160a01b03199091161790555050565b81600482815481106126eb576126eb6149aa565b9060005260206000200160006101000a8154816001600160a01b0302191690836001600160a01b031602179055505050565b600080805b60045481101561277b57336001600160a01b031660048281548110612749576127496149aa565b6000918252602090912001546001600160a01b0316141561276957600191505b80612773816149d6565b915050612722565b506003546001600160a01b03163314806127925750805b6127ae5760405162461bcd60e51b81526004016114e3906149f1565b6015546001600160a01b038581169116148015906127da57506002546001600160a01b03858116911614155b80156127f457506014546001600160a01b03858116911614155b801561280e57506012546001600160a01b03858116911614155b801561282857506013546001600160a01b03858116911614155b801561284257506011546001600160a01b03858116911614155b61285e5760405162461bcd60e51b81526004016114e390614aee565b60055462010000900460ff16156128875760405162461bcd60e51b81526004016114e390614b15565b50506006556000601955601380546001600160a01b0319166001600160a01b0392909216919091179055600580546201000062ff000019909116179055600190565b600080805b60045481101561292757336001600160a01b0316600482815481106128f5576128f56149aa565b6000918252602090912001546001600160a01b0316141561291557600191505b8061291f816149d6565b9150506128ce565b506003546001600160a01b031633148061293e5750805b61295a5760405162461bcd60e51b81526004016114e3906149f1565b6015546001600160a01b0385811691161480159061298657506002546001600160a01b03858116911614155b80156129a057506014546001600160a01b03858116911614155b80156129ba57506013546001600160a01b03858116911614155b80156129d457506012546001600160a01b03858116911614155b80156129ee57506011546001600160a01b03858116911614155b612a0a5760405162461bcd60e51b81526004016114e390614aee565b600554610100900460ff1615612a325760405162461bcd60e51b81526004016114e390614b15565b50506007556000601a55601280546001600160a01b0319166001600160a01b03929092169190911790556005805461010061ff0019909116179055600190565b600080805b600454811015612ad057336001600160a01b031660048281548110612a9e57612a9e6149aa565b6000918252602090912001546001600160a01b03161415612abe57600191505b80612ac8816149d6565b915050612a77565b506003546001600160a01b0316331480612ae75750805b612b035760405162461bcd60e51b81526004016114e3906149f1565b6015546001600160a01b03858116911614801590612b2f57506002546001600160a01b03858116911614155b8015612b4957506014546001600160a01b03858116911614155b8015612b6357506013546001600160a01b03858116911614155b8015612b7d57506012546001600160a01b03858116911614155b8015612b9757506011546001600160a01b03858116911614155b612bb35760405162461bcd60e51b81526004016114e390614aee565b60055460ff1615612bd65760405162461bcd60e51b81526004016114e390614b15565b50506008556000601b55601180546001600160a01b0319166001600160a01b03929092169190911790556005805460ff1916600190811790915590565b601c5460009042906001600160401b039081169082161061111357601c546001600160401b0316611115565b6000600754600202601001600a0a612c556136dd565b1015612c91576001600160a01b0382166000908152602960205260409020600181015460075491549091600202601001600a0a90610fd66136dd565b6001600160a01b0382166000908152602960205260409020600181015460075491549091600202601001600a0a906110486136dd565b6000805480612cd857505060205490565b601d54600090600160c01b90046001600160401b0316612cf6612d32565b036001600160401b031690508160175482026ec097ce7bc90715b34b9f10000000000281612d2657612d26614937565b04602054019250505090565b601c5460009042906001600160401b03600160401b90910481169082161061111357601c54600160401b90046001600160401b0316611115565b60008211612d7957600080fd5b506009546001600160401b0316612d8e612cc7565b602055601c5442906001600160401b03600160401b909104811690821611612df85760405162461bcd60e51b815260206004820152601e60248201527f4d5553542042452041465445522050726576696f75732052657761726473000060448201526064016114e3565b600b546014546040516370a0823160e01b8152306004820152600092916001600160a01b0316906370a0823190602401602060405180830381865afa158015612e45573d6000803e3d6000fd5b505050506040513d601f19601f82011682018060405250810190612e699190614991565b6002546014549290910392506001600160a01b0391821691161415612e8e5760005490035b83811115612ec3576001600160401b038316600a668e1bc9bf04000083020481612eba57612eba614937565b04601755612ec9565b60006017555b600a60048202601d80546001600160401b03808716600160c01b026001600160c01b0390921691909117909155601c8054878701909216600160401b0267ffffffffffffffff60401b19909216919091179055600b80549290910491820190556040518181529094507f686c47e59005842286d2977a436cc5ceeef835a38dde7754eb2b535e84fd45e59060200161164e565b60008211612f6957600080fd5b506009546001600160401b0316612f7e614240565b602155601c5442906001600160401b03600160801b909104811690821611612fe85760405162461bcd60e51b815260206004820152601e60248201527f4d5553542042452041465445522050726576696f75732052657761726473000060448201526064016114e3565b600c5447036001600160401b03831681111561302b576001600160401b038316600a668e1bc9bf0400008302048161302257613022614937565b04601855613031565b60006018555b601e805467ffffffffffffffff19166001600160401b0384811691909117909155601c805467ffffffffffffffff60801b1916600160801b86860190931692909202919091179055600c8054600a60048402049081019091556040518181529094507fd62583100c7524e43bda2404e1236dc6133a424ed253a00539e75be5e65a46339060200161164e565b601c5460009042906001600160401b03600160801b90910481169082161061111357601c54600160801b90046001600160401b0316611115565b6000821161310457600080fd5b506009546001600160401b0316613119611083565b602455601d5442906001600160401b03600160401b9091048116908216116131535760405162461bcd60e51b81526004016114e39061494d565b600f546011546040516370a0823160e01b8152306004820152600092916001600160a01b0316906370a0823190602401602060405180830381865afa1580156131a0573d6000803e3d6000fd5b505050506040513d601f19601f820116820180604052508101906131c49190614991565b6002546011549290910392506001600160a01b03918216911614156131e95760005490035b826001600160401b0316811115613227576001600160401b038316600a668e1bc9bf0400008302048161321e5761321e614937565b04601b5561322d565b6000601b555b600a60048202601e80546001600160401b03808716600160c01b026001600160c01b0390921691909117909155601d8054878701909216600160401b0267ffffffffffffffff60401b19909216919091179055600f80549290910491820190556040518181529094507f64d3cde2dc1540606d230d87940ff48590614ddb49b6bbef93518bef1be2788e9060200161164e565b6000600654600202601001600a0a6132d6612595565b1015613312576001600160a01b0382166000908152602860205260409020600181015460065491549091600202601001600a0a90610fd6612595565b6001600160a01b0382166000908152602860205260409020600181015460065491549091600202601001600a0a90611048612595565b61145133826119d2565b6000821161335f57600080fd5b506009546001600160401b0316613374613751565b601f55601c5442906001600160401b03908116908216116133a75760405162461bcd60e51b81526004016114e39061494d565b600a546015546040516370a0823160e01b8152306004820152600092916001600160a01b0316906370a0823190602401602060405180830381865afa1580156133f4573d6000803e3d6000fd5b505050506040513d601f19601f820116820180604052508101906134189190614991565b6002546015549290910392506001600160a01b039182169116141561343d5760005490035b6003811115613473576001600160401b038316600a668e1bc9bf0400008302048161346a5761346a614937565b04601655613479565b60006016555b600a60048202601d805467ffffffffffffffff60801b1916600160801b6001600160401b038781169190910291909117909155601c805467ffffffffffffffff1916878701909216919091179055600a80549290910491820190556040518181529094507fde88a922e0d3b88b24e9623efeb464919c6bf9f66857a65e2bfcf2ce87a9433d9060200161164e565b6000821161351457600080fd5b506009546001600160401b0316613529612595565b602255601c5442906001600160401b03600160c01b9091048116908216116135635760405162461bcd60e51b81526004016114e39061494d565b600d546013546040516370a0823160e01b8152306004820152600092916001600160a01b0316906370a0823190602401602060405180830381865afa1580156135b0573d6000803e3d6000fd5b505050506040513d601f19601f820116820180604052508101906135d49190614991565b6002546013549290910392506001600160a01b03918216911614156135f95760005490035b826001600160401b031681111561364457600a6001600160401b038416668e1bc9bf04000083028161362d5761362d614937565b048161363b5761363b614937565b0460195561364a565b60006019555b600a60048202601e80546001600160401b03808716600160401b0267ffffffffffffffff60401b1990921691909117909155601c8054878701909216600160c01b026001600160c01b03909216919091179055600d80549290910491820190556040518181529094507f0b37c80d67a02e9452cfe51996ad0f6fd57d8251edef007c7d84beb157dde7d29060200161164e565b60008054806136ee57505060235490565b601e54600090600160801b90046001600160401b031661370c6110e7565b036001600160401b0316905081600754600202600a0a601a548302028161373557613735614937565b04602354019250505090565b6004818154811061260957600080fd5b6000805480613762575050601f5490565b601d54600090600160801b90046001600160401b0316613780612c13565b036001600160401b031690508160165482026ec097ce7bc90715b34b9f100000000002816137b0576137b0614937565b04601f54019250505090565b3360006137c7613751565b905060006137d3612cc7565b905060006137df614240565b905060006137eb612595565b905060006137f76136dd565b90506000613803611083565b905061380d612c13565b601d60106101000a8154816001600160401b0302191690836001600160401b0316021790555061383b612d32565b601d60186101000a8154816001600160401b0302191690836001600160401b031602179055506138696130bd565b601e805467ffffffffffffffff19166001600160401b0392909216919091179055613892611454565b601e60086101000a8154816001600160401b0302191690836001600160401b031602179055506138c06110e7565b601e60106101000a8154816001600160401b0302191690836001600160401b031602179055506138ee61165c565b601e80546001600160401b0392909216600160c01b026001600160c01b03909216919091179055601f8690556020859055602184905560228390556023829055602481905561393c87610f76565b6001600160a01b0388166000908152602560205260409020600101556139618761434a565b6001600160a01b03881660009081526026602052604090206001015561398687611696565b6001600160a01b0388166000908152602760205260409020600101556139ab876132c0565b6001600160a01b0388166000908152602860205260409020600101556139d087612c3f565b6001600160a01b0388166000908152602960205260409020600101556139f58761429f565b6001600160a01b0388166000908152602a602081815260408084206001810195909555602582528084208b9055602682528084208a9055602782528084208990556028825280842088905560298252909220859055905281905587613c2c576000613a5f33610f76565b90506000613a6c3361434a565b90508115613b2c573360008181526025602052604080822060010191909155601554905163a9059cbb60e01b81526001600160a01b039091169163a9059cbb91613abb91908690600401614a4c565b6020604051808303816000875af1158015613ada573d6000803e3d6000fd5b505050506040513d601f19601f82011682018060405250810190613afe9190614a65565b613b1a5760405162461bcd60e51b81526004016114e390614a87565b81600a54613b289190614a35565b600a555b8015613bea573360008181526026602052604080822060010191909155601454905163a9059cbb60e01b81526001600160a01b039091169163a9059cbb91613b7991908590600401614a4c565b6020604051808303816000875af1158015613b98573d6000803e3d6000fd5b505050506040513d601f19601f82011682018060405250810190613bbc9190614a65565b613bd85760405162461bcd60e51b81526004016114e390614ab7565b80600b54613be69190614a35565b600b555b604080518381526020810183905233917fa3afea219c0ff303d8c5c37cb6853c0cfe0c5772d2839b30405f40fe678aa910910160405180910390a250506119c8565b8760021415613d43576000613c403361434a565b90508015613d00573360008181526026602052604080822060010191909155601454905163a9059cbb60e01b81526001600160a01b039091169163a9059cbb91613c8f91908590600401614a4c565b6020604051808303816000875af1158015613cae573d6000803e3d6000fd5b505050506040513d601f19601f82011682018060405250810190613cd29190614a65565b613cee5760405162461bcd60e51b81526004016114e390614ab7565b80600b54613cfc9190614a35565b600b555b60408051600081526020810183905233917fa3afea219c0ff303d8c5c37cb6853c0cfe0c5772d2839b30405f40fe678aa91091015b60405180910390a2506119c8565b8760011415613e4f576000613d5733610f76565b90508015613e17573360008181526025602052604080822060010191909155601554905163a9059cbb60e01b81526001600160a01b039091169163a9059cbb91613da691908590600401614a4c565b6020604051808303816000875af1158015613dc5573d6000803e3d6000fd5b505050506040513d601f19601f82011682018060405250810190613de99190614a65565b613e055760405162461bcd60e51b81526004016114e390614a87565b80600a54613e139190614a35565b600a555b604080518281526000602082015233917fa3afea219c0ff303d8c5c37cb6853c0cfe0c5772d2839b30405f40fe678aa9109101613d35565b8760031415613f20576000613e6333611696565b90508015613eee573360008181526027602052604080822060010182905551829184156108fc02918591818181858888f19350505050613edb5760405162461bcd60e51b8152602060048201526013602482015272115d1a081d1c985b9cd9995c8819985a5b1959606a1b60448201526064016114e3565b81600c54613ee99190614a35565b600c55505b60405181815233907f48dd3928db90e52c8cbcf928db48ffc4d39e086383222340458017e0da391e5390602001613d35565b8760041415614026576000613f34336132c0565b90508015613ff4573360008181526028602052604080822060010191909155601354905163a9059cbb60e01b81526001600160a01b039091169163a9059cbb91613f8391908590600401614a4c565b6020604051808303816000875af1158015613fa2573d6000803e3d6000fd5b505050506040513d601f19601f82011682018060405250810190613fc69190614a65565b613fe25760405162461bcd60e51b81526004016114e390614a87565b80600d54613ff09190614a35565b600d555b60405181815233907f525fc558fcbf99abb520246f57c090e574f034f2338829fcbf008d64df2c3c1590602001613d35565b876005141561412c57600061403a33612c3f565b905080156140fa573360008181526029602052604080822060010191909155601254905163a9059cbb60e01b81526001600160a01b039091169163a9059cbb9161408991908590600401614a4c565b6020604051808303816000875af11580156140a8573d6000803e3d6000fd5b505050506040513d601f19601f820116820180604052508101906140cc9190614a65565b6140e85760405162461bcd60e51b81526004016114e390614ab7565b80600e546140f69190614a35565b600e555b60405181815233907f61a694449708c0d360f1b95319c392b649bc5754615ac48fc1ee448dd6cc993c90602001613d35565b87600614156119c85760006141403361429f565b9050801561420057336000818152602a602052604080822060010191909155601154905163a9059cbb60e01b81526001600160a01b039091169163a9059cbb9161418f91908590600401614a4c565b6020604051808303816000875af11580156141ae573d6000803e3d6000fd5b505050506040513d601f19601f820116820180604052508101906141d29190614a65565b6141ee5760405162461bcd60e51b81526004016114e390614ab7565b80600f546141fc9190614a35565b600f555b60405181815233907fdd747d764da1c38c629ff5e7953e2f9755a9017bb1c0977f4a3e8158a85cce8a9060200160405180910390a2505050505050505050565b600080548061425157505060215490565b601e546000906001600160401b03166142686130bd565b036001600160401b0316905081601854820269d3c21bcecceda1000000028161429357614293614937565b04602154019250505090565b6000600854600202601001600a0a6142b5611083565b10156142f1576001600160a01b0382166000908152602a60205260409020600181015460085491549091600202601001600a0a90610fd6611083565b6001600160a01b0382166000908152602a60205260409020600181015460085491549091600202601001600a0a90611048611083565b61432f611e13565b336000908152600160205260409020546143489061172c565b565b60006f01aba4714957d300d0e549208b31adb160341b614368612cc7565b10156143aa576001600160a01b0382166000908152602660205260409020600181015490546f01aba4714957d300d0e549208b31adb160341b90610fd6612cc7565b6001600160a01b0382166000908152602660205260409020600181015490546f01aba4714957d300d0e549208b31adb160341b90611048612cc7565b336000908152600160205260409020548111156144455760405162461bcd60e51b815260206004820152601a60248201527f77697468647261773a2062616c616e6365206973206c6f77657200000000000060448201526064016114e3565b33600090815260016020526040812080548390039055805482900390556002546001600160a01b03168061450857604051600090339084908381818185875af1925050503d80600081146144b5576040519150601f19603f3d011682016040523d82523d6000602084013e6144ba565b606091505b50509050806145025760405162461bcd60e51b8152602060048201526014602482015273657468207472616e73666572206661696c75726560601b60448201526064016114e3565b506145d3565b60025460405163a9059cbb60e01b81526001600160a01b039091169063a9059cbb9061453a9033908690600401614a4c565b6020604051808303816000875af1158015614559573d6000803e3d6000fd5b505050506040513d601f19601f8201168201806040525081019061457d9190614a65565b6040518060400160405280601c81526020017f7374616b656420746f6b656e207472616e73666572206661696c656400000000815250906145d15760405162461bcd60e51b81526004016114e39190614b4c565b505b60405182815233907f7084f5476618d8e60b11ef0d7d3f06914655adb8793e28ff7f018d4c76d505d59060200160405180910390a25050565b6002546001600160a01b03168061464957600080543490810182556001600160a01b038516825260016020526040909120805490910190556147b7565b34156146865760405162461bcd60e51b815260206004820152600c60248201526b0dcdedc5af4cae4de40cae8d60a31b60448201526064016114e3565b600082116146c75760405162461bcd60e51b815260206004820152600e60248201526d043616e6e6f74207374616b6520360941b60448201526064016114e3565b6040516323b872dd60e01b8152336004820152306024820152604481018390526001600160a01b038216906323b872dd906064016020604051808303816000875af115801561471a573d6000803e3d6000fd5b505050506040513d601f19601f8201168201806040525081019061473e9190614a65565b6040518060400160405280601c81526020017f7374616b656420746f6b656e207472616e73666572206661696c656400000000815250906147925760405162461bcd60e51b81526004016114e39190614b4c565b5060008054830181556001600160a01b03841681526001602052604090208054830190555b826001600160a01b03167f9e71bc8eea02a63969f509818f2dafb9254532904319f9dbda79b67bd34a5f3d836040516147f291815260200190565b60405180910390a2505050565b6003546040516001600160a01b038084169216907f8be0079c531659141344cd1fd0a4f28419497f9722a3daafe3b4186f6b6457e090600090a3600380546001600160a01b0319166001600160a01b0392909216919091179055565b6001600160a01b038116811461145157600080fd5b60006020828403121561488257600080fd5b813561488d8161485b565b9392505050565b6000602082840312156148a657600080fd5b5035919050565b80356001600160401b038116811461107e57600080fd5b600080604083850312156148d757600080fd5b823591506148e7602084016148ad565b90509250929050565b6000806040838503121561490357600080fd5b823561490e8161485b565b946020939093013593505050565b60006020828403121561492e57600080fd5b61488d826148ad565b634e487b7160e01b600052601260045260246000fd5b60208082526024908201527f4d5553542042452041465445522050726576696f757320446973747269627574604082015263034b7b7160e51b606082015260800190565b6000602082840312156149a357600080fd5b5051919050565b634e487b7160e01b600052603260045260246000fd5b634e487b7160e01b600052601160045260246000fd5b60006000198214156149ea576149ea6149c0565b5060010190565b60208082526024908201527f4f776e61626c653a2063616c6c6572206973206e6f7420746865206f776e65726040820152630bdb5bd960e21b606082015260800190565b600082821015614a4757614a476149c0565b500390565b6001600160a01b03929092168252602082015260400190565b600060208284031215614a7757600080fd5b8151801515811461488d57600080fd5b6020808252601690820152751c995dd85c99081d1c985b9cd9995c8819985a5b195960521b604082015260600190565b6020808252601e908201527f72657761726420746f6b656e2032207472616e73666572206661696c65640000604082015260600190565b6020808252600d908201526c37379039b0b6b2903a37b5b2b760991b604082015260600190565b6020808252601d908201527f4f6e6c7920616c6c6f77656420746f20616464206f6e6520746f6b656e000000604082015260600190565b600060208083528351808285015260005b81811015614b7957858101830151858201604001528201614b5d565b81811115614b8b576000604083870101525b50601f01601f191692909201604001939250505056fea264697066735822122047ccfbd31041b54b76873274e5a612f3ff57a009c638097006e200aa7b3fb0ad64736f6c634300080b0033",
  "bytecodeSha1": "baecebf90c13e3a38f6bb45aa93a33041d252d27",
  "compiler": {
    "evm_version": "istanbul",
    "optimizer": {
      "enabled": true,
      "runs": 200
    },
    "version": "0.8.11+commit.d7f03943"
  },
  "contractName": "ForgeRewards",
  "language": "Solidity",
  "natspec": {
    "kind": "dev",
    "methods": {
      "Z_addMod(address,uint256)": {
        "details": "Leaves the contract without owner. It will not be possible to call `onlyOwner` functions anymore. Can only be called by the current owner. NOTE: Renouncing ownership will leave the contract without an owner, thereby removing any functionality that is only available to the owner."
      },
      "Z_transferOwnership(address)": {
        "details": "Transfers ownership of the contract to a new account (`newOwner`). Can only be called by the current owner."
      }
    },
    "version": 1
  },
  "opcodes": "PUSH1 0x80 PUSH1 0x40 MSTORE PUSH1 0x4 CALLDATASIZE LT PUSH2 0x4CA JUMPI PUSH1 0x0 CALLDATALOAD PUSH1 0xE0 SHR DUP1 PUSH4 0x9646961A GT PUSH2 0x276 JUMPI DUP1 PUSH4 0xC2E89047 GT PUSH2 0x14F JUMPI DUP1 PUSH4 0xDF173F16 GT PUSH2 0xC1 JUMPI DUP1 PUSH4 0xF3E168D9 GT PUSH2 0x85 JUMPI DUP1 PUSH4 0xF3E168D9 EQ PUSH2 0xEC3 JUMPI DUP1 PUSH4 0xF590A680 EQ PUSH2 0xEE3 JUMPI DUP1 PUSH4 0xF7C618C1 EQ PUSH2 0xF0A JUMPI DUP1 PUSH4 0xF8960B3B EQ PUSH2 0xF2A JUMPI DUP1 PUSH4 0xFD5741CC EQ PUSH2 0xF40 JUMPI DUP1 PUSH4 0xFF42CD5E EQ PUSH2 0xF56 JUMPI PUSH1 0x0 DUP1 REVERT JUMPDEST DUP1 PUSH4 0xDF173F16 EQ PUSH2 0xE43 JUMPI DUP1 PUSH4 0xE1019FA2 EQ PUSH2 0xE58 JUMPI DUP1 PUSH4 0xE9FAD8EE EQ PUSH2 0xE78 JUMPI DUP1 PUSH4 0xEBE2B12B EQ PUSH2 0xE8D JUMPI DUP1 PUSH4 0xEDA18888 EQ PUSH2 0xEAD JUMPI PUSH1 0x0 DUP1 REVERT JUMPDEST DUP1 PUSH4 0xCC7A262E GT PUSH2 0x113 JUMPI DUP1 PUSH4 0xCC7A262E EQ PUSH2 0xDA2 JUMPI DUP1 PUSH4 0xCD3DAF9D EQ PUSH2 0xDC2 JUMPI DUP1 PUSH4 0xD575B4E3 EQ PUSH2 0xDD7 JUMPI DUP1 PUSH4 0xD61A47F1 EQ PUSH2 0xDF7 JUMPI DUP1 PUSH4 0xD80F4B83 EQ PUSH2 0xE17 JUMPI DUP1 PUSH4 0xDF136D65 EQ PUSH2 0xE2D JUMPI PUSH1 0x0 DUP1 REVERT JUMPDEST DUP1 PUSH4 0xC2E89047 EQ PUSH2 0xD23 JUMPI DUP1 PUSH4 0xC4364622 EQ PUSH2 0xD39 JUMPI DUP1 PUSH4 0xC8F33C91 EQ PUSH2 0xD4F JUMPI DUP1 PUSH4 0xCB35A577 EQ PUSH2 0xD76 JUMPI DUP1 PUSH4 0xCC4027C0 EQ PUSH2 0xD8C JUMPI PUSH1 0x0 DUP1 REVERT JUMPDEST DUP1 PUSH4 0xA694FC3A GT PUSH2 0x1E8 JUMPI DUP1 PUSH4 0xB07BEDC6 GT PUSH2 0x1AC JUMPI DUP1 PUSH4 0xB07BEDC6 EQ PUSH2 0xC5D JUMPI DUP1 PUSH4 0xB302181A EQ PUSH2 0xC73 JUMPI DUP1 PUSH4 0xB8E36EF4 EQ PUSH2 0xC93 JUMPI DUP1 PUSH4 0xBB58B6BC EQ PUSH2 0xCA8 JUMPI DUP1 PUSH4 0xBD842A11 EQ PUSH2 0xCCF JUMPI DUP1 PUSH4 0xC09486DB EQ PUSH2 0xCEF JUMPI PUSH1 0x0 DUP1 REVERT JUMPDEST DUP1 PUSH4 0xA694FC3A EQ PUSH2 0xBC0 JUMPI DUP1 PUSH4 0xA7F377CF EQ PUSH2 0xBD3 JUMPI DUP1 PUSH4 0xAA5FB8E1 EQ PUSH2 0xC07 JUMPI DUP1 PUSH4 0xAC07E3D7 EQ PUSH2 0xC27 JUMPI DUP1 PUSH4 0xAED29D07 EQ PUSH2 0xC47 JUMPI PUSH1 0x0 DUP1 REVERT JUMPDEST DUP1 PUSH4 0x9F0AACDF GT PUSH2 0x23A JUMPI DUP1 PUSH4 0x9F0AACDF EQ PUSH2 0xB29 JUMPI DUP1 PUSH4 0x9FA5B78B EQ PUSH2 0xB3F JUMPI DUP1 PUSH4 0xA1D639B5 EQ PUSH2 0xB54 JUMPI DUP1 PUSH4 0xA20F6773 EQ PUSH2 0xB6A JUMPI DUP1 PUSH4 0xA2D5E036 EQ PUSH2 0xB80 JUMPI DUP1 PUSH4 0xA3735983 EQ PUSH2 0xBA0 JUMPI PUSH1 0x0 DUP1 REVERT JUMPDEST DUP1 PUSH4 0x9646961A EQ PUSH2 0xA98 JUMPI DUP1 PUSH4 0x980A03A6 EQ PUSH2 0xAAD JUMPI DUP1 PUSH4 0x9A5239D5 EQ PUSH2 0xAD4 JUMPI DUP1 PUSH4 0x9B9AD5D6 EQ PUSH2 0xAE9 JUMPI DUP1 PUSH4 0x9DDD674B EQ PUSH2 0xB09 JUMPI PUSH1 0x0 DUP1 REVERT JUMPDEST DUP1 PUSH4 0x3DA31DC3 GT PUSH2 0x3A8 JUMPI DUP1 PUSH4 0x6B379B52 GT PUSH2 0x31A JUMPI DUP1 PUSH4 0x7B0A47EE GT PUSH2 0x2DE JUMPI DUP1 PUSH4 0x7B0A47EE EQ PUSH2 0x9ED JUMPI DUP1 PUSH4 0x7B279DDC EQ PUSH2 0xA03 JUMPI DUP1 PUSH4 0x7B64A86D EQ PUSH2 0xA23 JUMPI DUP1 PUSH4 0x80FAA57D EQ PUSH2 0xA43 JUMPI DUP1 PUSH4 0x8DA5CB5B EQ PUSH2 0xA58 JUMPI DUP1 PUSH4 0x9617E956 EQ PUSH2 0xA78 JUMPI PUSH1 0x0 DUP1 REVERT JUMPDEST DUP1 PUSH4 0x6B379B52 EQ PUSH2 0x94E JUMPI DUP1 PUSH4 0x702A0908 EQ PUSH2 0x964 JUMPI DUP1 PUSH4 0x70A08231 EQ PUSH2 0x97A JUMPI DUP1 PUSH4 0x72D2782D EQ PUSH2 0x9B0 JUMPI DUP1 PUSH4 0x76776994 EQ PUSH2 0x9D7 JUMPI PUSH1 0x0 DUP1 REVERT JUMPDEST DUP1 PUSH4 0x50913B01 GT PUSH2 0x36C JUMPI DUP1 PUSH4 0x50913B01 EQ PUSH2 0x887 JUMPI DUP1 PUSH4 0x559A171C EQ PUSH2 0x8AE JUMPI DUP1 PUSH4 0x5A0231C6 EQ PUSH2 0x8C4 JUMPI DUP1 PUSH4 0x5F16647D EQ PUSH2 0x8DA JUMPI DUP1 PUSH4 0x638E5F96 EQ PUSH2 0x8FA JUMPI DUP1 PUSH4 0x6504F403 EQ PUSH2 0x92E JUMPI PUSH1 0x0 DUP1 REVERT JUMPDEST DUP1 PUSH4 0x3DA31DC3 EQ PUSH2 0x7EB JUMPI DUP1 PUSH4 0x3EF3C91C EQ PUSH2 0x80B JUMPI DUP1 PUSH4 0x434F8132 EQ PUSH2 0x820 JUMPI DUP1 PUSH4 0x483EE28B EQ PUSH2 0x840 JUMPI DUP1 PUSH4 0x4A856079 EQ PUSH2 0x860 JUMPI PUSH1 0x0 DUP1 REVERT JUMPDEST DUP1 PUSH4 0x18160DDD GT PUSH2 0x441 JUMPI DUP1 PUSH4 0x2EE40908 GT PUSH2 0x405 JUMPI DUP1 PUSH4 0x2EE40908 EQ PUSH2 0x725 JUMPI DUP1 PUSH4 0x38B3369A EQ PUSH2 0x738 JUMPI DUP1 PUSH4 0x39B4EDDA EQ PUSH2 0x75F JUMPI DUP1 PUSH4 0x3B20A349 EQ PUSH2 0x786 JUMPI DUP1 PUSH4 0x3B28BB75 EQ PUSH2 0x7B6 JUMPI DUP1 PUSH4 0x3D18B912 EQ PUSH2 0x7D6 JUMPI PUSH1 0x0 DUP1 REVERT JUMPDEST DUP1 PUSH4 0x18160DDD EQ PUSH2 0x663 JUMPI DUP1 PUSH4 0x204CD8E8 EQ PUSH2 0x679 JUMPI DUP1 PUSH4 0x25DB42B2 EQ PUSH2 0x6AD JUMPI DUP1 PUSH4 0x2C33B05E EQ PUSH2 0x6CD JUMPI DUP1 PUSH4 0x2E1A7D4D EQ PUSH2 0x705 JUMPI PUSH1 0x0 DUP1 REVERT JUMPDEST DUP1 PUSH4 0x81E3EDA GT PUSH2 0x493 JUMPI DUP1 PUSH4 0x81E3EDA EQ PUSH2 0x5A3 JUMPI DUP1 PUSH4 0xBB8406B EQ PUSH2 0x5C3 JUMPI DUP1 PUSH4 0x104370E4 EQ PUSH2 0x5F7 JUMPI DUP1 PUSH4 0x10D443A4 EQ PUSH2 0x619 JUMPI DUP1 PUSH4 0x10EB81C4 EQ PUSH2 0x62E JUMPI DUP1 PUSH4 0x16464ED6 EQ PUSH2 0x64E JUMPI PUSH1 0x0 DUP1 REVERT JUMPDEST DUP1 PUSH3 0x8CC262 EQ PUSH2 0x4CF JUMPI DUP1 PUSH4 0x3263267 EQ PUSH2 0x502 JUMPI DUP1 PUSH4 0x660F1E8 EQ PUSH2 0x518 JUMPI DUP1 PUSH4 0x69104D3 EQ PUSH2 0x561 JUMPI DUP1 PUSH4 0x7B9C275 EQ PUSH2 0x576 JUMPI JUMPDEST PUSH1 0x0 DUP1 REVERT JUMPDEST CALLVALUE DUP1 ISZERO PUSH2 0x4DB JUMPI PUSH1 0x0 DUP1 REVERT JUMPDEST POP PUSH2 0x4EF PUSH2 0x4EA CALLDATASIZE PUSH1 0x4 PUSH2 0x4870 JUMP JUMPDEST PUSH2 0xF76 JUMP JUMPDEST PUSH1 0x40 MLOAD SWAP1 DUP2 MSTORE PUSH1 0x20 ADD JUMPDEST PUSH1 0x40 MLOAD DUP1 SWAP2 SUB SWAP1 RETURN JUMPDEST CALLVALUE DUP1 ISZERO PUSH2 0x50E JUMPI PUSH1 0x0 DUP1 REVERT JUMPDEST POP PUSH2 0x4EF PUSH1 0x6 SLOAD DUP2 JUMP JUMPDEST CALLVALUE DUP1 ISZERO PUSH2 0x524 JUMPI PUSH1 0x0 DUP1 REVERT JUMPDEST POP PUSH2 0x54C PUSH2 0x533 CALLDATASIZE PUSH1 0x4 PUSH2 0x4870 JUMP JUMPDEST PUSH1 0x25 PUSH1 0x20 MSTORE PUSH1 0x0 SWAP1 DUP2 MSTORE PUSH1 0x40 SWAP1 KECCAK256 DUP1 SLOAD PUSH1 0x1 SWAP1 SWAP2 ADD SLOAD DUP3 JUMP JUMPDEST PUSH1 0x40 DUP1 MLOAD SWAP3 DUP4 MSTORE PUSH1 0x20 DUP4 ADD SWAP2 SWAP1 SWAP2 MSTORE ADD PUSH2 0x4F9 JUMP JUMPDEST CALLVALUE DUP1 ISZERO PUSH2 0x56D JUMPI PUSH1 0x0 DUP1 REVERT JUMPDEST POP PUSH2 0x4EF PUSH2 0x1083 JUMP JUMPDEST CALLVALUE DUP1 ISZERO PUSH2 0x582 JUMPI PUSH1 0x0 DUP1 REVERT JUMPDEST POP PUSH2 0x58B PUSH2 0x10E7 JUMP JUMPDEST PUSH1 0x40 MLOAD PUSH1 0x1 PUSH1 0x1 PUSH1 0x40 SHL SUB SWAP1 SWAP2 AND DUP2 MSTORE PUSH1 0x20 ADD PUSH2 0x4F9 JUMP JUMPDEST CALLVALUE DUP1 ISZERO PUSH2 0x5AF JUMPI PUSH1 0x0 DUP1 REVERT JUMPDEST POP PUSH1 0x9 SLOAD PUSH2 0x58B SWAP1 PUSH1 0x1 PUSH1 0x1 PUSH1 0x40 SHL SUB AND DUP2 JUMP JUMPDEST CALLVALUE DUP1 ISZERO PUSH2 0x5CF JUMPI PUSH1 0x0 DUP1 REVERT JUMPDEST POP PUSH2 0x54C PUSH2 0x5DE CALLDATASIZE PUSH1 0x4 PUSH2 0x4870 JUMP JUMPDEST PUSH1 0x29 PUSH1 0x20 MSTORE PUSH1 0x0 SWAP1 DUP2 MSTORE PUSH1 0x40 SWAP1 KECCAK256 DUP1 SLOAD PUSH1 0x1 SWAP1 SWAP2 ADD SLOAD DUP3 JUMP JUMPDEST CALLVALUE DUP1 ISZERO PUSH2 0x603 JUMPI PUSH1 0x0 DUP1 REVERT JUMPDEST POP PUSH2 0x617 PUSH2 0x612 CALLDATASIZE PUSH1 0x4 PUSH2 0x4894 JUMP JUMPDEST PUSH2 0x111B JUMP JUMPDEST STOP JUMPDEST CALLVALUE DUP1 ISZERO PUSH2 0x625 JUMPI PUSH1 0x0 DUP1 REVERT JUMPDEST POP PUSH2 0x58B PUSH2 0x1454 JUMP JUMPDEST CALLVALUE DUP1 ISZERO PUSH2 0x63A JUMPI PUSH1 0x0 DUP1 REVERT JUMPDEST POP PUSH2 0x617 PUSH2 0x649 CALLDATASIZE PUSH1 0x4 PUSH2 0x48C4 JUMP JUMPDEST PUSH2 0x148E JUMP JUMPDEST CALLVALUE DUP1 ISZERO PUSH2 0x65A JUMPI PUSH1 0x0 DUP1 REVERT JUMPDEST POP PUSH2 0x58B PUSH2 0x165C JUMP JUMPDEST CALLVALUE DUP1 ISZERO PUSH2 0x66F JUMPI PUSH1 0x0 DUP1 REVERT JUMPDEST POP PUSH2 0x4EF PUSH1 0x0 SLOAD DUP2 JUMP JUMPDEST CALLVALUE DUP1 ISZERO PUSH2 0x685 JUMPI PUSH1 0x0 DUP1 REVERT JUMPDEST POP PUSH2 0x54C PUSH2 0x694 CALLDATASIZE PUSH1 0x4 PUSH2 0x4870 JUMP JUMPDEST PUSH1 0x28 PUSH1 0x20 MSTORE PUSH1 0x0 SWAP1 DUP2 MSTORE PUSH1 0x40 SWAP1 KECCAK256 DUP1 SLOAD PUSH1 0x1 SWAP1 SWAP2 ADD SLOAD DUP3 JUMP JUMPDEST CALLVALUE DUP1 ISZERO PUSH2 0x6B9 JUMPI PUSH1 0x0 DUP1 REVERT JUMPDEST POP PUSH2 0x4EF PUSH2 0x6C8 CALLDATASIZE PUSH1 0x4 PUSH2 0x4870 JUMP JUMPDEST PUSH2 0x1696 JUMP JUMPDEST CALLVALUE DUP1 ISZERO PUSH2 0x6D9 JUMPI PUSH1 0x0 DUP1 REVERT JUMPDEST POP PUSH1 0x13 SLOAD PUSH2 0x6ED SWAP1 PUSH1 0x1 PUSH1 0x1 PUSH1 0xA0 SHL SUB AND DUP2 JUMP JUMPDEST PUSH1 0x40 MLOAD PUSH1 0x1 PUSH1 0x1 PUSH1 0xA0 SHL SUB SWAP1 SWAP2 AND DUP2 MSTORE PUSH1 0x20 ADD PUSH2 0x4F9 JUMP JUMPDEST CALLVALUE DUP1 ISZERO PUSH2 0x711 JUMPI PUSH1 0x0 DUP1 REVERT JUMPDEST POP PUSH2 0x617 PUSH2 0x720 CALLDATASIZE PUSH1 0x4 PUSH2 0x4894 JUMP JUMPDEST PUSH2 0x172C JUMP JUMPDEST PUSH2 0x617 PUSH2 0x733 CALLDATASIZE PUSH1 0x4 PUSH2 0x48F0 JUMP JUMPDEST PUSH2 0x19D2 JUMP JUMPDEST CALLVALUE DUP1 ISZERO PUSH2 0x744 JUMPI PUSH1 0x0 DUP1 REVERT JUMPDEST POP PUSH1 0x1C SLOAD PUSH2 0x58B SWAP1 PUSH1 0x1 PUSH1 0x80 SHL SWAP1 DIV PUSH1 0x1 PUSH1 0x1 PUSH1 0x40 SHL SUB AND DUP2 JUMP JUMPDEST CALLVALUE DUP1 ISZERO PUSH2 0x76B JUMPI PUSH1 0x0 DUP1 REVERT JUMPDEST POP PUSH1 0x1C SLOAD PUSH2 0x58B SWAP1 PUSH1 0x1 PUSH1 0xC0 SHL SWAP1 DIV PUSH1 0x1 PUSH1 0x1 PUSH1 0x40 SHL SUB AND DUP2 JUMP JUMPDEST CALLVALUE DUP1 ISZERO PUSH2 0x792 JUMPI PUSH1 0x0 DUP1 REVERT JUMPDEST POP PUSH2 0x7A6 PUSH2 0x7A1 CALLDATASIZE PUSH1 0x4 PUSH2 0x491C JUMP JUMPDEST PUSH2 0x1C7A JUMP JUMPDEST PUSH1 0x40 MLOAD SWAP1 ISZERO ISZERO DUP2 MSTORE PUSH1 0x20 ADD PUSH2 0x4F9 JUMP JUMPDEST CALLVALUE DUP1 ISZERO PUSH2 0x7C2 JUMPI PUSH1 0x0 DUP1 REVERT JUMPDEST POP PUSH2 0x617 PUSH2 0x7D1 CALLDATASIZE PUSH1 0x4 PUSH2 0x4870 JUMP JUMPDEST PUSH2 0x1DB0 JUMP JUMPDEST CALLVALUE DUP1 ISZERO PUSH2 0x7E2 JUMPI PUSH1 0x0 DUP1 REVERT JUMPDEST POP PUSH2 0x617 PUSH2 0x1E13 JUMP JUMPDEST CALLVALUE DUP1 ISZERO PUSH2 0x7F7 JUMPI PUSH1 0x0 DUP1 REVERT JUMPDEST POP PUSH1 0x12 SLOAD PUSH2 0x6ED SWAP1 PUSH1 0x1 PUSH1 0x1 PUSH1 0xA0 SHL SUB AND DUP2 JUMP JUMPDEST CALLVALUE DUP1 ISZERO PUSH2 0x817 JUMPI PUSH1 0x0 DUP1 REVERT JUMPDEST POP PUSH2 0x4EF PUSH2 0x2595 JUMP JUMPDEST CALLVALUE DUP1 ISZERO PUSH2 0x82C JUMPI PUSH1 0x0 DUP1 REVERT JUMPDEST POP PUSH2 0x6ED PUSH2 0x83B CALLDATASIZE PUSH1 0x4 PUSH2 0x4894 JUMP JUMPDEST PUSH2 0x25F9 JUMP JUMPDEST CALLVALUE DUP1 ISZERO PUSH2 0x84C JUMPI PUSH1 0x0 DUP1 REVERT JUMPDEST POP PUSH1 0x1E SLOAD PUSH2 0x58B SWAP1 PUSH1 0x1 PUSH1 0x1 PUSH1 0x40 SHL SUB AND DUP2 JUMP JUMPDEST CALLVALUE DUP1 ISZERO PUSH2 0x86C JUMPI PUSH1 0x0 DUP1 REVERT JUMPDEST POP PUSH1 0x1E SLOAD PUSH2 0x58B SWAP1 PUSH1 0x1 PUSH1 0x80 SHL SWAP1 DIV PUSH1 0x1 PUSH1 0x1 PUSH1 0x40 SHL SUB AND DUP2 JUMP JUMPDEST CALLVALUE DUP1 ISZERO PUSH2 0x893 JUMPI PUSH1 0x0 DUP1 REVERT JUMPDEST POP PUSH1 0x1D SLOAD PUSH2 0x58B SWAP1 PUSH1 0x1 PUSH1 0x40 SHL SWAP1 DIV PUSH1 0x1 PUSH1 0x1 PUSH1 0x40 SHL SUB AND DUP2 JUMP JUMPDEST CALLVALUE DUP1 ISZERO PUSH2 0x8BA JUMPI PUSH1 0x0 DUP1 REVERT JUMPDEST POP PUSH2 0x4EF PUSH1 0x19 SLOAD DUP2 JUMP JUMPDEST CALLVALUE DUP1 ISZERO PUSH2 0x8D0 JUMPI PUSH1 0x0 DUP1 REVERT JUMPDEST POP PUSH2 0x4EF PUSH1 0xE SLOAD DUP2 JUMP JUMPDEST CALLVALUE DUP1 ISZERO PUSH2 0x8E6 JUMPI PUSH1 0x0 DUP1 REVERT JUMPDEST POP PUSH2 0x617 PUSH2 0x8F5 CALLDATASIZE PUSH1 0x4 PUSH2 0x48F0 JUMP JUMPDEST PUSH2 0x2623 JUMP JUMPDEST CALLVALUE DUP1 ISZERO PUSH2 0x906 JUMPI PUSH1 0x0 DUP1 REVERT JUMPDEST POP PUSH2 0x54C PUSH2 0x915 CALLDATASIZE PUSH1 0x4 PUSH2 0x4870 JUMP JUMPDEST PUSH1 0x26 PUSH1 0x20 MSTORE PUSH1 0x0 SWAP1 DUP2 MSTORE PUSH1 0x40 SWAP1 KECCAK256 DUP1 SLOAD PUSH1 0x1 SWAP1 SWAP2 ADD SLOAD DUP3 JUMP JUMPDEST CALLVALUE DUP1 ISZERO PUSH2 0x93A JUMPI PUSH1 0x0 DUP1 REVERT JUMPDEST POP PUSH2 0x7A6 PUSH2 0x949 CALLDATASIZE PUSH1 0x4 PUSH2 0x48F0 JUMP JUMPDEST PUSH2 0x271D JUMP JUMPDEST CALLVALUE DUP1 ISZERO PUSH2 0x95A JUMPI PUSH1 0x0 DUP1 REVERT JUMPDEST POP PUSH2 0x4EF PUSH1 0xD SLOAD DUP2 JUMP JUMPDEST CALLVALUE DUP1 ISZERO PUSH2 0x970 JUMPI PUSH1 0x0 DUP1 REVERT JUMPDEST POP PUSH2 0x4EF PUSH1 0x24 SLOAD DUP2 JUMP JUMPDEST CALLVALUE DUP1 ISZERO PUSH2 0x986 JUMPI PUSH1 0x0 DUP1 REVERT JUMPDEST POP PUSH2 0x4EF PUSH2 0x995 CALLDATASIZE PUSH1 0x4 PUSH2 0x4870 JUMP JUMPDEST PUSH1 0x1 PUSH1 0x1 PUSH1 0xA0 SHL SUB AND PUSH1 0x0 SWAP1 DUP2 MSTORE PUSH1 0x1 PUSH1 0x20 MSTORE PUSH1 0x40 SWAP1 KECCAK256 SLOAD SWAP1 JUMP JUMPDEST CALLVALUE DUP1 ISZERO PUSH2 0x9BC JUMPI PUSH1 0x0 DUP1 REVERT JUMPDEST POP PUSH1 0x1D SLOAD PUSH2 0x58B SWAP1 PUSH1 0x1 PUSH1 0xC0 SHL SWAP1 DIV PUSH1 0x1 PUSH1 0x1 PUSH1 0x40 SHL SUB AND DUP2 JUMP JUMPDEST CALLVALUE DUP1 ISZERO PUSH2 0x9E3 JUMPI PUSH1 0x0 DUP1 REVERT JUMPDEST POP PUSH2 0x4EF PUSH1 0x17 SLOAD DUP2 JUMP JUMPDEST CALLVALUE DUP1 ISZERO PUSH2 0x9F9 JUMPI PUSH1 0x0 DUP1 REVERT JUMPDEST POP PUSH2 0x4EF PUSH1 0x16 SLOAD DUP2 JUMP JUMPDEST CALLVALUE DUP1 ISZERO PUSH2 0xA0F JUMPI PUSH1 0x0 DUP1 REVERT JUMPDEST POP PUSH2 0x7A6 PUSH2 0xA1E CALLDATASIZE PUSH1 0x4 PUSH2 0x48F0 JUMP JUMPDEST PUSH2 0x28C9 JUMP JUMPDEST CALLVALUE DUP1 ISZERO PUSH2 0xA2F JUMPI PUSH1 0x0 DUP1 REVERT JUMPDEST POP PUSH2 0x7A6 PUSH2 0xA3E CALLDATASIZE PUSH1 0x4 PUSH2 0x48F0 JUMP JUMPDEST PUSH2 0x2A72 JUMP JUMPDEST CALLVALUE DUP1 ISZERO PUSH2 0xA4F JUMPI PUSH1 0x0 DUP1 REVERT JUMPDEST POP PUSH2 0x58B PUSH2 0x2C13 JUMP JUMPDEST CALLVALUE DUP1 ISZERO PUSH2 0xA64 JUMPI PUSH1 0x0 DUP1 REVERT JUMPDEST POP PUSH1 0x3 SLOAD PUSH2 0x6ED SWAP1 PUSH1 0x1 PUSH1 0x1 PUSH1 0xA0 SHL SUB AND DUP2 JUMP JUMPDEST CALLVALUE DUP1 ISZERO PUSH2 0xA84 JUMPI PUSH1 0x0 DUP1 REVERT JUMPDEST POP PUSH2 0x4EF PUSH2 0xA93 CALLDATASIZE PUSH1 0x4 PUSH2 0x4870 JUMP JUMPDEST PUSH2 0x2C3F JUMP JUMPDEST CALLVALUE DUP1 ISZERO PUSH2 0xAA4 JUMPI PUSH1 0x0 DUP1 REVERT JUMPDEST POP PUSH2 0x4EF PUSH2 0x2CC7 JUMP JUMPDEST CALLVALUE DUP1 ISZERO PUSH2 0xAB9 JUMPI PUSH1 0x0 DUP1 REVERT JUMPDEST POP PUSH1 0x1E SLOAD PUSH2 0x58B SWAP1 PUSH1 0x1 PUSH1 0xC0 SHL SWAP1 DIV PUSH1 0x1 PUSH1 0x1 PUSH1 0x40 SHL SUB AND DUP2 JUMP JUMPDEST CALLVALUE DUP1 ISZERO PUSH2 0xAE0 JUMPI PUSH1 0x0 DUP1 REVERT JUMPDEST POP PUSH2 0x58B PUSH2 0x2D32 JUMP JUMPDEST CALLVALUE DUP1 ISZERO PUSH2 0xAF5 JUMPI PUSH1 0x0 DUP1 REVERT JUMPDEST POP PUSH2 0x617 PUSH2 0xB04 CALLDATASIZE PUSH1 0x4 PUSH2 0x48C4 JUMP JUMPDEST PUSH2 0x2D6C JUMP JUMPDEST CALLVALUE DUP1 ISZERO PUSH2 0xB15 JUMPI PUSH1 0x0 DUP1 REVERT JUMPDEST POP PUSH2 0x617 PUSH2 0xB24 CALLDATASIZE PUSH1 0x4 PUSH2 0x48C4 JUMP JUMPDEST PUSH2 0x2F5C JUMP JUMPDEST CALLVALUE DUP1 ISZERO PUSH2 0xB35 JUMPI PUSH1 0x0 DUP1 REVERT JUMPDEST POP PUSH2 0x4EF PUSH1 0x1B SLOAD DUP2 JUMP JUMPDEST CALLVALUE DUP1 ISZERO PUSH2 0xB4B JUMPI PUSH1 0x0 DUP1 REVERT JUMPDEST POP PUSH2 0x58B PUSH2 0x30BD JUMP JUMPDEST CALLVALUE DUP1 ISZERO PUSH2 0xB60 JUMPI PUSH1 0x0 DUP1 REVERT JUMPDEST POP PUSH2 0x4EF PUSH1 0xB SLOAD DUP2 JUMP JUMPDEST CALLVALUE DUP1 ISZERO PUSH2 0xB76 JUMPI PUSH1 0x0 DUP1 REVERT JUMPDEST POP PUSH2 0x4EF PUSH1 0xC SLOAD DUP2 JUMP JUMPDEST CALLVALUE DUP1 ISZERO PUSH2 0xB8C JUMPI PUSH1 0x0 DUP1 REVERT JUMPDEST POP PUSH2 0x617 PUSH2 0xB9B CALLDATASIZE PUSH1 0x4 PUSH2 0x48C4 JUMP JUMPDEST PUSH2 0x30F7 JUMP JUMPDEST CALLVALUE DUP1 ISZERO PUSH2 0xBAC JUMPI PUSH1 0x0 DUP1 REVERT JUMPDEST POP PUSH2 0x4EF PUSH2 0xBBB CALLDATASIZE PUSH1 0x4 PUSH2 0x4870 JUMP JUMPDEST PUSH2 0x32C0 JUMP JUMPDEST PUSH2 0x617 PUSH2 0xBCE CALLDATASIZE PUSH1 0x4 PUSH2 0x4894 JUMP JUMPDEST PUSH2 0x3348 JUMP JUMPDEST CALLVALUE DUP1 ISZERO PUSH2 0xBDF JUMPI PUSH1 0x0 DUP1 REVERT JUMPDEST POP PUSH2 0x54C PUSH2 0xBEE CALLDATASIZE PUSH1 0x4 PUSH2 0x4870 JUMP JUMPDEST PUSH1 0x27 PUSH1 0x20 MSTORE PUSH1 0x0 SWAP1 DUP2 MSTORE PUSH1 0x40 SWAP1 KECCAK256 DUP1 SLOAD PUSH1 0x1 SWAP1 SWAP2 ADD SLOAD DUP3 JUMP JUMPDEST CALLVALUE DUP1 ISZERO PUSH2 0xC13 JUMPI PUSH1 0x0 DUP1 REVERT JUMPDEST POP PUSH2 0x617 PUSH2 0xC22 CALLDATASIZE PUSH1 0x4 PUSH2 0x48C4 JUMP JUMPDEST PUSH2 0x3352 JUMP JUMPDEST CALLVALUE DUP1 ISZERO PUSH2 0xC33 JUMPI PUSH1 0x0 DUP1 REVERT JUMPDEST POP PUSH2 0x617 PUSH2 0xC42 CALLDATASIZE PUSH1 0x4 PUSH2 0x48C4 JUMP JUMPDEST PUSH2 0x3507 JUMP JUMPDEST CALLVALUE DUP1 ISZERO PUSH2 0xC53 JUMPI PUSH1 0x0 DUP1 REVERT JUMPDEST POP PUSH2 0x4EF PUSH1 0xA SLOAD DUP2 JUMP JUMPDEST CALLVALUE DUP1 ISZERO PUSH2 0xC69 JUMPI PUSH1 0x0 DUP1 REVERT JUMPDEST POP PUSH2 0x4EF PUSH1 0x7 SLOAD DUP2 JUMP JUMPDEST CALLVALUE DUP1 ISZERO PUSH2 0xC7F JUMPI PUSH1 0x0 DUP1 REVERT JUMPDEST POP PUSH1 0x11 SLOAD PUSH2 0x6ED SWAP1 PUSH1 0x1 PUSH1 0x1 PUSH1 0xA0 SHL SUB AND DUP2 JUMP JUMPDEST CALLVALUE DUP1 ISZERO PUSH2 0xC9F JUMPI PUSH1 0x0 DUP1 REVERT JUMPDEST POP PUSH2 0x4EF PUSH2 0x36DD JUMP JUMPDEST CALLVALUE DUP1 ISZERO PUSH2 0xCB4 JUMPI PUSH1 0x0 DUP1 REVERT JUMPDEST POP PUSH1 0x1C SLOAD PUSH2 0x58B SWAP1 PUSH1 0x1 PUSH1 0x40 SHL SWAP1 DIV PUSH1 0x1 PUSH1 0x1 PUSH1 0x40 SHL SUB AND DUP2 JUMP JUMPDEST CALLVALUE DUP1 ISZERO PUSH2 0xCDB JUMPI PUSH1 0x0 DUP1 REVERT JUMPDEST POP PUSH2 0x6ED PUSH2 0xCEA CALLDATASIZE PUSH1 0x4 PUSH2 0x4894 JUMP JUMPDEST PUSH2 0x3741 JUMP JUMPDEST CALLVALUE DUP1 ISZERO PUSH2 0xCFB JUMPI PUSH1 0x0 DUP1 REVERT JUMPDEST POP PUSH2 0x54C PUSH2 0xD0A CALLDATASIZE PUSH1 0x4 PUSH2 0x4870 JUMP JUMPDEST PUSH1 0x2A PUSH1 0x20 MSTORE PUSH1 0x0 SWAP1 DUP2 MSTORE PUSH1 0x40 SWAP1 KECCAK256 DUP1 SLOAD PUSH1 0x1 SWAP1 SWAP2 ADD SLOAD DUP3 JUMP JUMPDEST CALLVALUE DUP1 ISZERO PUSH2 0xD2F JUMPI PUSH1 0x0 DUP1 REVERT JUMPDEST POP PUSH2 0x4EF PUSH1 0x1A SLOAD DUP2 JUMP JUMPDEST CALLVALUE DUP1 ISZERO PUSH2 0xD45 JUMPI PUSH1 0x0 DUP1 REVERT JUMPDEST POP PUSH2 0x4EF PUSH1 0x21 SLOAD DUP2 JUMP JUMPDEST CALLVALUE DUP1 ISZERO PUSH2 0xD5B JUMPI PUSH1 0x0 DUP1 REVERT JUMPDEST POP PUSH1 0x1D SLOAD PUSH2 0x58B SWAP1 PUSH1 0x1 PUSH1 0x80 SHL SWAP1 DIV PUSH1 0x1 PUSH1 0x1 PUSH1 0x40 SHL SUB AND DUP2 JUMP JUMPDEST CALLVALUE DUP1 ISZERO PUSH2 0xD82 JUMPI PUSH1 0x0 DUP1 REVERT JUMPDEST POP PUSH2 0x4EF PUSH1 0xF SLOAD DUP2 JUMP JUMPDEST CALLVALUE DUP1 ISZERO PUSH2 0xD98 JUMPI PUSH1 0x0 DUP1 REVERT JUMPDEST POP PUSH2 0x4EF PUSH1 0x18 SLOAD DUP2 JUMP JUMPDEST CALLVALUE DUP1 ISZERO PUSH2 0xDAE JUMPI PUSH1 0x0 DUP1 REVERT JUMPDEST POP PUSH1 0x2 SLOAD PUSH2 0x6ED SWAP1 PUSH1 0x1 PUSH1 0x1 PUSH1 0xA0 SHL SUB AND DUP2 JUMP JUMPDEST CALLVALUE DUP1 ISZERO PUSH2 0xDCE JUMPI PUSH1 0x0 DUP1 REVERT JUMPDEST POP PUSH2 0x4EF PUSH2 0x3751 JUMP JUMPDEST CALLVALUE DUP1 ISZERO PUSH2 0xDE3 JUMPI PUSH1 0x0 DUP1 REVERT JUMPDEST POP PUSH2 0x617 PUSH2 0xDF2 CALLDATASIZE PUSH1 0x4 PUSH2 0x4894 JUMP JUMPDEST PUSH2 0x37BC JUMP JUMPDEST CALLVALUE DUP1 ISZERO PUSH2 0xE03 JUMPI PUSH1 0x0 DUP1 REVERT JUMPDEST POP PUSH1 0x14 SLOAD PUSH2 0x6ED SWAP1 PUSH1 0x1 PUSH1 0x1 PUSH1 0xA0 SHL SUB AND DUP2 JUMP JUMPDEST CALLVALUE DUP1 ISZERO PUSH2 0xE23 JUMPI PUSH1 0x0 DUP1 REVERT JUMPDEST POP PUSH2 0x4EF PUSH1 0x20 SLOAD DUP2 JUMP JUMPDEST CALLVALUE DUP1 ISZERO PUSH2 0xE39 JUMPI PUSH1 0x0 DUP1 REVERT JUMPDEST POP PUSH2 0x4EF PUSH1 0x1F SLOAD DUP2 JUMP JUMPDEST CALLVALUE DUP1 ISZERO PUSH2 0xE4F JUMPI PUSH1 0x0 DUP1 REVERT JUMPDEST POP PUSH2 0x4EF PUSH2 0x4240 JUMP JUMPDEST CALLVALUE DUP1 ISZERO PUSH2 0xE64 JUMPI PUSH1 0x0 DUP1 REVERT JUMPDEST POP PUSH2 0x4EF PUSH2 0xE73 CALLDATASIZE PUSH1 0x4 PUSH2 0x4870 JUMP JUMPDEST PUSH2 0x429F JUMP JUMPDEST CALLVALUE DUP1 ISZERO PUSH2 0xE84 JUMPI PUSH1 0x0 DUP1 REVERT JUMPDEST POP PUSH2 0x617 PUSH2 0x4327 JUMP JUMPDEST CALLVALUE DUP1 ISZERO PUSH2 0xE99 JUMPI PUSH1 0x0 DUP1 REVERT JUMPDEST POP PUSH1 0x1C SLOAD PUSH2 0x58B SWAP1 PUSH1 0x1 PUSH1 0x1 PUSH1 0x40 SHL SUB AND DUP2 JUMP JUMPDEST CALLVALUE DUP1 ISZERO PUSH2 0xEB9 JUMPI PUSH1 0x0 DUP1 REVERT JUMPDEST POP PUSH2 0x4EF PUSH1 0x8 SLOAD DUP2 JUMP JUMPDEST CALLVALUE DUP1 ISZERO PUSH2 0xECF JUMPI PUSH1 0x0 DUP1 REVERT JUMPDEST POP PUSH1 0x1D SLOAD PUSH2 0x58B SWAP1 PUSH1 0x1 PUSH1 0x1 PUSH1 0x40 SHL SUB AND DUP2 JUMP JUMPDEST CALLVALUE DUP1 ISZERO PUSH2 0xEEF JUMPI PUSH1 0x0 DUP1 REVERT JUMPDEST POP PUSH1 0x1E SLOAD PUSH2 0x58B SWAP1 PUSH1 0x1 PUSH1 0x40 SHL SWAP1 DIV PUSH1 0x1 PUSH1 0x1 PUSH1 0x40 SHL SUB AND DUP2 JUMP JUMPDEST CALLVALUE DUP1 ISZERO PUSH2 0xF16 JUMPI PUSH1 0x0 DUP1 REVERT JUMPDEST POP PUSH1 0x15 SLOAD PUSH2 0x6ED SWAP1 PUSH1 0x1 PUSH1 0x1 PUSH1 0xA0 SHL SUB AND DUP2 JUMP JUMPDEST CALLVALUE DUP1 ISZERO PUSH2 0xF36 JUMPI PUSH1 0x0 DUP1 REVERT JUMPDEST POP PUSH2 0x4EF PUSH1 0x22 SLOAD DUP2 JUMP JUMPDEST CALLVALUE DUP1 ISZERO PUSH2 0xF4C JUMPI PUSH1 0x0 DUP1 REVERT JUMPDEST POP PUSH2 0x4EF PUSH1 0x23 SLOAD DUP2 JUMP JUMPDEST CALLVALUE DUP1 ISZERO PUSH2 0xF62 JUMPI PUSH1 0x0 DUP1 REVERT JUMPDEST POP PUSH2 0x4EF PUSH2 0xF71 CALLDATASIZE PUSH1 0x4 PUSH2 0x4870 JUMP JUMPDEST PUSH2 0x434A JUMP JUMPDEST PUSH1 0x0 PUSH16 0x1ABA4714957D300D0E549208B31ADB1 PUSH1 0x34 SHL PUSH2 0xF94 PUSH2 0x3751 JUMP JUMPDEST LT ISZERO PUSH2 0x100C JUMPI PUSH1 0x1 PUSH1 0x1 PUSH1 0xA0 SHL SUB DUP3 AND PUSH1 0x0 SWAP1 DUP2 MSTORE PUSH1 0x25 PUSH1 0x20 MSTORE PUSH1 0x40 SWAP1 KECCAK256 PUSH1 0x1 DUP2 ADD SLOAD SWAP1 SLOAD PUSH16 0x1ABA4714957D300D0E549208B31ADB1 PUSH1 0x34 SHL SWAP1 PUSH2 0xFD6 PUSH2 0x3751 JUMP JUMPDEST SUB PUSH2 0xFF6 DUP6 PUSH1 0x1 PUSH1 0x1 PUSH1 0xA0 SHL SUB AND PUSH1 0x0 SWAP1 DUP2 MSTORE PUSH1 0x1 PUSH1 0x20 MSTORE PUSH1 0x40 SWAP1 KECCAK256 SLOAD SWAP1 JUMP JUMPDEST MUL DUP2 PUSH2 0x1004 JUMPI PUSH2 0x1004 PUSH2 0x4937 JUMP JUMPDEST DIV ADD SWAP3 SWAP2 POP POP JUMP JUMPDEST PUSH1 0x1 PUSH1 0x1 PUSH1 0xA0 SHL SUB DUP3 AND PUSH1 0x0 SWAP1 DUP2 MSTORE PUSH1 0x25 PUSH1 0x20 MSTORE PUSH1 0x40 SWAP1 KECCAK256 PUSH1 0x1 DUP2 ADD SLOAD SWAP1 SLOAD PUSH16 0x1ABA4714957D300D0E549208B31ADB1 PUSH1 0x34 SHL SWAP1 PUSH2 0x1048 PUSH2 0x3751 JUMP JUMPDEST SUB DUP2 PUSH2 0x1056 JUMPI PUSH2 0x1056 PUSH2 0x4937 JUMP JUMPDEST DIV PUSH2 0x1076 DUP5 PUSH1 0x1 PUSH1 0x1 PUSH1 0xA0 SHL SUB AND PUSH1 0x0 SWAP1 DUP2 MSTORE PUSH1 0x1 PUSH1 0x20 MSTORE PUSH1 0x40 SWAP1 KECCAK256 SLOAD SWAP1 JUMP JUMPDEST MUL ADD SWAP3 SWAP2 POP POP JUMP JUMPDEST SWAP2 SWAP1 POP JUMP JUMPDEST PUSH1 0x0 DUP1 SLOAD DUP1 PUSH2 0x1094 JUMPI POP POP PUSH1 0x24 SLOAD SWAP1 JUMP JUMPDEST PUSH1 0x1E SLOAD PUSH1 0x0 SWAP1 PUSH1 0x1 PUSH1 0xC0 SHL SWAP1 DIV PUSH1 0x1 PUSH1 0x1 PUSH1 0x40 SHL SUB AND PUSH2 0x10B2 PUSH2 0x165C JUMP JUMPDEST SUB PUSH1 0x1 PUSH1 0x1 PUSH1 0x40 SHL SUB AND SWAP1 POP DUP2 PUSH1 0x8 SLOAD PUSH1 0x2 MUL PUSH1 0xA EXP PUSH1 0x1B SLOAD DUP4 MUL MUL DUP2 PUSH2 0x10DB JUMPI PUSH2 0x10DB PUSH2 0x4937 JUMP JUMPDEST DIV PUSH1 0x24 SLOAD ADD SWAP3 POP POP POP SWAP1 JUMP JUMPDEST PUSH1 0x1D SLOAD PUSH1 0x0 SWAP1 TIMESTAMP SWAP1 PUSH1 0x1 PUSH1 0x1 PUSH1 0x40 SHL SUB SWAP1 DUP2 AND SWAP1 DUP3 AND LT PUSH2 0x1113 JUMPI PUSH1 0x1D SLOAD PUSH1 0x1 PUSH1 0x1 PUSH1 0x40 SHL SUB AND PUSH2 0x1115 JUMP JUMPDEST DUP1 JUMPDEST SWAP2 POP POP SWAP1 JUMP JUMPDEST PUSH1 0x40 MLOAD PUSH4 0xAA5FB8E1 PUSH1 0xE0 SHL DUP2 MSTORE PUSH1 0x2 PUSH1 0x4 DUP3 ADD MSTORE PUSH1 0x16 PUSH1 0x24 DUP3 ADD MSTORE ADDRESS SWAP1 PUSH4 0xAA5FB8E1 SWAP1 PUSH1 0x44 ADD PUSH1 0x0 PUSH1 0x40 MLOAD DUP1 DUP4 SUB DUP2 PUSH1 0x0 DUP8 DUP1 EXTCODESIZE ISZERO DUP1 ISZERO PUSH2 0x115B JUMPI PUSH1 0x0 DUP1 REVERT JUMPDEST POP GAS CALL ISZERO DUP1 ISZERO PUSH2 0x116F JUMPI RETURNDATASIZE PUSH1 0x0 DUP1 RETURNDATACOPY RETURNDATASIZE PUSH1 0x0 REVERT JUMPDEST POP POP PUSH1 0x40 MLOAD PUSH4 0x4DCD6AEB PUSH1 0xE1 SHL DUP2 MSTORE PUSH1 0x2 PUSH1 0x4 DUP3 ADD MSTORE PUSH1 0x16 PUSH1 0x24 DUP3 ADD MSTORE ADDRESS SWAP3 POP PUSH4 0x9B9AD5D6 SWAP2 POP PUSH1 0x44 ADD PUSH1 0x0 PUSH1 0x40 MLOAD DUP1 DUP4 SUB DUP2 PUSH1 0x0 DUP8 DUP1 EXTCODESIZE ISZERO DUP1 ISZERO PUSH2 0x11B3 JUMPI PUSH1 0x0 DUP1 REVERT JUMPDEST POP GAS CALL ISZERO DUP1 ISZERO PUSH2 0x11C7 JUMPI RETURNDATASIZE PUSH1 0x0 DUP1 RETURNDATACOPY RETURNDATASIZE PUSH1 0x0 REVERT JUMPDEST POP POP PUSH1 0x40 MLOAD PUSH4 0x9DDD674B PUSH1 0xE0 SHL DUP2 MSTORE PUSH1 0x2 PUSH1 0x4 DUP3 ADD MSTORE PUSH1 0x16 PUSH1 0x24 DUP3 ADD MSTORE ADDRESS SWAP3 POP PUSH4 0x9DDD674B SWAP2 POP PUSH1 0x44 ADD PUSH1 0x0 PUSH1 0x40 MLOAD DUP1 DUP4 SUB DUP2 PUSH1 0x0 DUP8 DUP1 EXTCODESIZE ISZERO DUP1 ISZERO PUSH2 0x120B JUMPI PUSH1 0x0 DUP1 REVERT JUMPDEST POP GAS CALL ISZERO DUP1 ISZERO PUSH2 0x121F JUMPI RETURNDATASIZE PUSH1 0x0 DUP1 RETURNDATACOPY RETURNDATASIZE PUSH1 0x0 REVERT JUMPDEST POP POP POP POP DUP1 PUSH1 0x1 EQ ISZERO PUSH2 0x1285 JUMPI PUSH1 0x40 MLOAD PUSH4 0xAC07E3D7 PUSH1 0xE0 SHL DUP2 MSTORE PUSH1 0x3 PUSH1 0x4 DUP3 ADD MSTORE PUSH1 0x21 PUSH1 0x24 DUP3 ADD MSTORE ADDRESS SWAP1 PUSH4 0xAC07E3D7 SWAP1 PUSH1 0x44 ADD PUSH1 0x0 PUSH1 0x40 MLOAD DUP1 DUP4 SUB DUP2 PUSH1 0x0 DUP8 DUP1 EXTCODESIZE ISZERO DUP1 ISZERO PUSH2 0x126C JUMPI PUSH1 0x0 DUP1 REVERT JUMPDEST POP GAS CALL ISZERO DUP1 ISZERO PUSH2 0x1280 JUMPI RETURNDATASIZE PUSH1 0x0 DUP1 RETURNDATACOPY RETURNDATASIZE PUSH1 0x0 REVERT JUMPDEST POP POP POP POP JUMPDEST DUP1 PUSH1 0x2 EQ ISZERO PUSH2 0x133F JUMPI PUSH1 0x40 MLOAD PUSH4 0x43AE071 PUSH1 0xE2 SHL DUP2 MSTORE PUSH1 0x3 PUSH1 0x4 DUP3 ADD MSTORE PUSH1 0x21 PUSH1 0x24 DUP3 ADD MSTORE ADDRESS SWAP1 PUSH4 0x10EB81C4 SWAP1 PUSH1 0x44 ADD PUSH1 0x0 PUSH1 0x40 MLOAD DUP1 DUP4 SUB DUP2 PUSH1 0x0 DUP8 DUP1 EXTCODESIZE ISZERO DUP1 ISZERO PUSH2 0x12CE JUMPI PUSH1 0x0 DUP1 REVERT JUMPDEST POP GAS CALL ISZERO DUP1 ISZERO PUSH2 0x12E2 JUMPI RETURNDATASIZE PUSH1 0x0 DUP1 RETURNDATACOPY RETURNDATASIZE PUSH1 0x0 REVERT JUMPDEST POP POP PUSH1 0x40 MLOAD PUSH4 0xAC07E3D7 PUSH1 0xE0 SHL DUP2 MSTORE PUSH1 0x3 PUSH1 0x4 DUP3 ADD MSTORE PUSH1 0x21 PUSH1 0x24 DUP3 ADD MSTORE ADDRESS SWAP3 POP PUSH4 0xAC07E3D7 SWAP2 POP PUSH1 0x44 ADD PUSH1 0x0 PUSH1 0x40 MLOAD DUP1 DUP4 SUB DUP2 PUSH1 0x0 DUP8 DUP1 EXTCODESIZE ISZERO DUP1 ISZERO PUSH2 0x1326 JUMPI PUSH1 0x0 DUP1 REVERT JUMPDEST POP GAS CALL ISZERO DUP1 ISZERO PUSH2 0x133A JUMPI RETURNDATASIZE PUSH1 0x0 DUP1 RETURNDATACOPY RETURNDATASIZE PUSH1 0x0 REVERT JUMPDEST POP POP POP POP JUMPDEST DUP1 PUSH1 0x3 EQ ISZERO PUSH2 0x1451 JUMPI PUSH1 0x40 MLOAD PUSH4 0x516AF01B PUSH1 0xE1 SHL DUP2 MSTORE PUSH1 0x3 PUSH1 0x4 DUP3 ADD MSTORE PUSH1 0x21 PUSH1 0x24 DUP3 ADD MSTORE ADDRESS SWAP1 PUSH4 0xA2D5E036 SWAP1 PUSH1 0x44 ADD PUSH1 0x0 PUSH1 0x40 MLOAD DUP1 DUP4 SUB DUP2 PUSH1 0x0 DUP8 DUP1 EXTCODESIZE ISZERO DUP1 ISZERO PUSH2 0x1388 JUMPI PUSH1 0x0 DUP1 REVERT JUMPDEST POP GAS CALL ISZERO DUP1 ISZERO PUSH2 0x139C JUMPI RETURNDATASIZE PUSH1 0x0 DUP1 RETURNDATACOPY RETURNDATASIZE PUSH1 0x0 REVERT JUMPDEST POP POP PUSH1 0x40 MLOAD PUSH4 0x43AE071 PUSH1 0xE2 SHL DUP2 MSTORE PUSH1 0x3 PUSH1 0x4 DUP3 ADD MSTORE PUSH1 0x21 PUSH1 0x24 DUP3 ADD MSTORE ADDRESS SWAP3 POP PUSH4 0x10EB81C4 SWAP2 POP PUSH1 0x44 ADD PUSH1 0x0 PUSH1 0x40 MLOAD DUP1 DUP4 SUB DUP2 PUSH1 0x0 DUP8 DUP1 EXTCODESIZE ISZERO DUP1 ISZERO PUSH2 0x13E0 JUMPI PUSH1 0x0 DUP1 REVERT JUMPDEST POP GAS CALL ISZERO DUP1 ISZERO PUSH2 0x13F4 JUMPI RETURNDATASIZE PUSH1 0x0 DUP1 RETURNDATACOPY RETURNDATASIZE PUSH1 0x0 REVERT JUMPDEST POP POP PUSH1 0x40 MLOAD PUSH4 0xAC07E3D7 PUSH1 0xE0 SHL DUP2 MSTORE PUSH1 0x3 PUSH1 0x4 DUP3 ADD MSTORE PUSH1 0x21 PUSH1 0x24 DUP3 ADD MSTORE ADDRESS SWAP3 POP PUSH4 0xAC07E3D7 SWAP2 POP PUSH1 0x44 ADD PUSH1 0x0 PUSH1 0x40 MLOAD DUP1 DUP4 SUB DUP2 PUSH1 0x0 DUP8 DUP1 EXTCODESIZE ISZERO DUP1 ISZERO PUSH2 0x1438 JUMPI PUSH1 0x0 DUP1 REVERT JUMPDEST POP GAS CALL ISZERO DUP1 ISZERO PUSH2 0x144C JUMPI RETURNDATASIZE PUSH1 0x0 DUP1 RETURNDATACOPY RETURNDATASIZE PUSH1 0x0 REVERT JUMPDEST POP POP POP POP JUMPDEST POP JUMP JUMPDEST PUSH1 0x1C SLOAD PUSH1 0x0 SWAP1 TIMESTAMP SWAP1 PUSH1 0x1 PUSH1 0x1 PUSH1 0x40 SHL SUB PUSH1 0x1 PUSH1 0xC0 SHL SWAP1 SWAP2 DIV DUP2 AND SWAP1 DUP3 AND LT PUSH2 0x1113 JUMPI PUSH1 0x1C SLOAD PUSH1 0x1 PUSH1 0xC0 SHL SWAP1 DIV PUSH1 0x1 PUSH1 0x1 PUSH1 0x40 SHL SUB AND PUSH2 0x1115 JUMP JUMPDEST PUSH1 0x0 DUP3 GT PUSH2 0x149B JUMPI PUSH1 0x0 DUP1 REVERT JUMPDEST POP PUSH1 0x9 SLOAD PUSH1 0x1 PUSH1 0x1 PUSH1 0x40 SHL SUB AND PUSH2 0x14B0 PUSH2 0x36DD JUMP JUMPDEST PUSH1 0x23 SSTORE PUSH1 0x1D SLOAD TIMESTAMP SWAP1 PUSH1 0x1 PUSH1 0x1 PUSH1 0x40 SHL SUB SWAP1 DUP2 AND SWAP1 DUP3 AND GT PUSH2 0x14EC JUMPI PUSH1 0x40 MLOAD PUSH3 0x461BCD PUSH1 0xE5 SHL DUP2 MSTORE PUSH1 0x4 ADD PUSH2 0x14E3 SWAP1 PUSH2 0x494D JUMP JUMPDEST PUSH1 0x40 MLOAD DUP1 SWAP2 SUB SWAP1 REVERT JUMPDEST PUSH1 0xE SLOAD PUSH1 0x12 SLOAD PUSH1 0x40 MLOAD PUSH4 0x70A08231 PUSH1 0xE0 SHL DUP2 MSTORE ADDRESS PUSH1 0x4 DUP3 ADD MSTORE PUSH1 0x0 SWAP3 SWAP2 PUSH1 0x1 PUSH1 0x1 PUSH1 0xA0 SHL SUB AND SWAP1 PUSH4 0x70A08231 SWAP1 PUSH1 0x24 ADD PUSH1 0x20 PUSH1 0x40 MLOAD DUP1 DUP4 SUB DUP2 DUP7 GAS STATICCALL ISZERO DUP1 ISZERO PUSH2 0x1539 JUMPI RETURNDATASIZE PUSH1 0x0 DUP1 RETURNDATACOPY RETURNDATASIZE PUSH1 0x0 REVERT JUMPDEST POP POP POP POP PUSH1 0x40 MLOAD RETURNDATASIZE PUSH1 0x1F NOT PUSH1 0x1F DUP3 ADD AND DUP3 ADD DUP1 PUSH1 0x40 MSTORE POP DUP2 ADD SWAP1 PUSH2 0x155D SWAP2 SWAP1 PUSH2 0x4991 JUMP JUMPDEST PUSH1 0x2 SLOAD PUSH1 0x12 SLOAD SWAP3 SWAP1 SWAP2 SUB SWAP3 POP PUSH1 0x1 PUSH1 0x1 PUSH1 0xA0 SHL SUB SWAP2 DUP3 AND SWAP2 AND EQ ISZERO PUSH2 0x1582 JUMPI PUSH1 0x0 SLOAD SWAP1 SUB JUMPDEST DUP3 PUSH1 0x1 PUSH1 0x1 PUSH1 0x40 SHL SUB AND DUP2 GT ISZERO PUSH2 0x15C0 JUMPI PUSH1 0x1 PUSH1 0x1 PUSH1 0x40 SHL SUB DUP4 AND PUSH1 0xA PUSH7 0x8E1BC9BF040000 DUP4 MUL DIV DUP2 PUSH2 0x15B7 JUMPI PUSH2 0x15B7 PUSH2 0x4937 JUMP JUMPDEST DIV PUSH1 0x1A SSTORE PUSH2 0x15C6 JUMP JUMPDEST PUSH1 0x0 PUSH1 0x1A SSTORE JUMPDEST PUSH1 0x1E DUP1 SLOAD PUSH8 0xFFFFFFFFFFFFFFFF PUSH1 0x80 SHL NOT AND PUSH1 0x1 PUSH1 0x80 SHL PUSH1 0x1 PUSH1 0x1 PUSH1 0x40 SHL SUB DUP6 DUP2 AND SWAP2 SWAP1 SWAP2 MUL SWAP2 SWAP1 SWAP2 OR SWAP1 SWAP2 SSTORE PUSH1 0x1D DUP1 SLOAD PUSH8 0xFFFFFFFFFFFFFFFF NOT AND DUP6 DUP6 ADD SWAP1 SWAP3 AND SWAP2 SWAP1 SWAP2 OR SWAP1 SSTORE PUSH1 0xE DUP1 SLOAD PUSH1 0xA PUSH1 0x4 DUP5 MUL DIV SWAP1 DUP2 ADD SWAP1 SWAP2 SSTORE PUSH1 0x40 MLOAD DUP2 DUP2 MSTORE SWAP1 SWAP5 POP PUSH32 0x9E0EA166A59C148D4334C77B0EDA4EA4819DF6A57E58A0FC764F8EC5CAE7927C SWAP1 PUSH1 0x20 ADD JUMPDEST PUSH1 0x40 MLOAD DUP1 SWAP2 SUB SWAP1 LOG1 POP POP POP POP JUMP JUMPDEST PUSH1 0x1D SLOAD PUSH1 0x0 SWAP1 TIMESTAMP SWAP1 PUSH1 0x1 PUSH1 0x1 PUSH1 0x40 SHL SUB PUSH1 0x1 PUSH1 0x40 SHL SWAP1 SWAP2 DIV DUP2 AND SWAP1 DUP3 AND LT PUSH2 0x1113 JUMPI PUSH1 0x1D SLOAD PUSH1 0x1 PUSH1 0x40 SHL SWAP1 DIV PUSH1 0x1 PUSH1 0x1 PUSH1 0x40 SHL SUB AND PUSH2 0x1115 JUMP JUMPDEST PUSH1 0x0 PUSH17 0x1D6329F1C35CA4BFABB9F5610000000000 PUSH2 0x16B2 PUSH2 0x4240 JUMP JUMPDEST LT ISZERO PUSH2 0x16F2 JUMPI PUSH1 0x1 PUSH1 0x1 PUSH1 0xA0 SHL SUB DUP3 AND PUSH1 0x0 SWAP1 DUP2 MSTORE PUSH1 0x27 PUSH1 0x20 MSTORE PUSH1 0x40 SWAP1 KECCAK256 PUSH1 0x1 DUP2 ADD SLOAD SWAP1 SLOAD PUSH17 0x1D6329F1C35CA4BFABB9F5610000000000 SWAP1 PUSH2 0xFD6 PUSH2 0x4240 JUMP JUMPDEST PUSH1 0x1 PUSH1 0x1 PUSH1 0xA0 SHL SUB DUP3 AND PUSH1 0x0 SWAP1 DUP2 MSTORE PUSH1 0x27 PUSH1 0x20 MSTORE PUSH1 0x40 SWAP1 KECCAK256 PUSH1 0x1 DUP2 ADD SLOAD SWAP1 SLOAD PUSH17 0x1D6329F1C35CA4BFABB9F5610000000000 SWAP1 PUSH2 0x1048 PUSH2 0x4240 JUMP JUMPDEST CALLER PUSH1 0x0 PUSH2 0x1737 PUSH2 0x3751 JUMP JUMPDEST SWAP1 POP PUSH1 0x0 PUSH2 0x1743 PUSH2 0x2CC7 JUMP JUMPDEST SWAP1 POP PUSH1 0x0 PUSH2 0x174F PUSH2 0x4240 JUMP JUMPDEST SWAP1 POP PUSH1 0x0 PUSH2 0x175B PUSH2 0x2595 JUMP JUMPDEST SWAP1 POP PUSH1 0x0 PUSH2 0x1767 PUSH2 0x36DD JUMP JUMPDEST SWAP1 POP PUSH1 0x0 PUSH2 0x1773 PUSH2 0x1083 JUMP JUMPDEST SWAP1 POP PUSH2 0x177D PUSH2 0x2C13 JUMP JUMPDEST PUSH1 0x1D PUSH1 0x10 PUSH2 0x100 EXP DUP2 SLOAD DUP2 PUSH1 0x1 PUSH1 0x1 PUSH1 0x40 SHL SUB MUL NOT AND SWAP1 DUP4 PUSH1 0x1 PUSH1 0x1 PUSH1 0x40 SHL SUB AND MUL OR SWAP1 SSTORE POP PUSH2 0x17AB PUSH2 0x2D32 JUMP JUMPDEST PUSH1 0x1D PUSH1 0x18 PUSH2 0x100 EXP DUP2 SLOAD DUP2 PUSH1 0x1 PUSH1 0x1 PUSH1 0x40 SHL SUB MUL NOT AND SWAP1 DUP4 PUSH1 0x1 PUSH1 0x1 PUSH1 0x40 SHL SUB AND MUL OR SWAP1 SSTORE POP PUSH2 0x17D9 PUSH2 0x30BD JUMP JUMPDEST PUSH1 0x1E DUP1 SLOAD PUSH8 0xFFFFFFFFFFFFFFFF NOT AND PUSH1 0x1 PUSH1 0x1 PUSH1 0x40 SHL SUB SWAP3 SWAP1 SWAP3 AND SWAP2 SWAP1 SWAP2 OR SWAP1 SSTORE PUSH2 0x1802 PUSH2 0x1454 JUMP JUMPDEST PUSH1 0x1E PUSH1 0x8 PUSH2 0x100 EXP DUP2 SLOAD DUP2 PUSH1 0x1 PUSH1 0x1 PUSH1 0x40 SHL SUB MUL NOT AND SWAP1 DUP4 PUSH1 0x1 PUSH1 0x1 PUSH1 0x40 SHL SUB AND MUL OR SWAP1 SSTORE POP PUSH2 0x1830 PUSH2 0x10E7 JUMP JUMPDEST PUSH1 0x1E PUSH1 0x10 PUSH2 0x100 EXP DUP2 SLOAD DUP2 PUSH1 0x1 PUSH1 0x1 PUSH1 0x40 SHL SUB MUL NOT AND SWAP1 DUP4 PUSH1 0x1 PUSH1 0x1 PUSH1 0x40 SHL SUB AND MUL OR SWAP1 SSTORE POP PUSH2 0x185E PUSH2 0x165C JUMP JUMPDEST PUSH1 0x1E DUP1 SLOAD PUSH1 0x1 PUSH1 0x1 PUSH1 0x40 SHL SUB SWAP3 SWAP1 SWAP3 AND PUSH1 0x1 PUSH1 0xC0 SHL MUL PUSH1 0x1 PUSH1 0x1 PUSH1 0xC0 SHL SUB SWAP1 SWAP3 AND SWAP2 SWAP1 SWAP2 OR SWAP1 SSTORE PUSH1 0x1F DUP7 SWAP1 SSTORE PUSH1 0x20 DUP6 SWAP1 SSTORE PUSH1 0x21 DUP5 SWAP1 SSTORE PUSH1 0x22 DUP4 SWAP1 SSTORE PUSH1 0x23 DUP3 SWAP1 SSTORE PUSH1 0x24 DUP2 SWAP1 SSTORE PUSH2 0x18AC DUP8 PUSH2 0xF76 JUMP JUMPDEST PUSH1 0x1 PUSH1 0x1 PUSH1 0xA0 SHL SUB DUP9 AND PUSH1 0x0 SWAP1 DUP2 MSTORE PUSH1 0x25 PUSH1 0x20 MSTORE PUSH1 0x40 SWAP1 KECCAK256 PUSH1 0x1 ADD SSTORE PUSH2 0x18D1 DUP8 PUSH2 0x434A JUMP JUMPDEST PUSH1 0x1 PUSH1 0x1 PUSH1 0xA0 SHL SUB DUP9 AND PUSH1 0x0 SWAP1 DUP2 MSTORE PUSH1 0x26 PUSH1 0x20 MSTORE PUSH1 0x40 SWAP1 KECCAK256 PUSH1 0x1 ADD SSTORE PUSH2 0x18F6 DUP8 PUSH2 0x1696 JUMP JUMPDEST PUSH1 0x1 PUSH1 0x1 PUSH1 0xA0 SHL SUB DUP9 AND PUSH1 0x0 SWAP1 DUP2 MSTORE PUSH1 0x27 PUSH1 0x20 MSTORE PUSH1 0x40 SWAP1 KECCAK256 PUSH1 0x1 ADD SSTORE PUSH2 0x191B DUP8 PUSH2 0x32C0 JUMP JUMPDEST PUSH1 0x1 PUSH1 0x1 PUSH1 0xA0 SHL SUB DUP9 AND PUSH1 0x0 SWAP1 DUP2 MSTORE PUSH1 0x28 PUSH1 0x20 MSTORE PUSH1 0x40 SWAP1 KECCAK256 PUSH1 0x1 ADD SSTORE PUSH2 0x1940 DUP8 PUSH2 0x2C3F JUMP JUMPDEST PUSH1 0x1 PUSH1 0x1 PUSH1 0xA0 SHL SUB DUP9 AND PUSH1 0x0 SWAP1 DUP2 MSTORE PUSH1 0x29 PUSH1 0x20 MSTORE PUSH1 0x40 SWAP1 KECCAK256 PUSH1 0x1 ADD SSTORE PUSH2 0x1965 DUP8 PUSH2 0x429F JUMP JUMPDEST PUSH1 0x1 PUSH1 0x1 PUSH1 0xA0 SHL SUB DUP9 AND PUSH1 0x0 SWAP1 DUP2 MSTORE PUSH1 0x2A PUSH1 0x20 DUP2 DUP2 MSTORE PUSH1 0x40 DUP1 DUP5 KECCAK256 PUSH1 0x1 DUP2 ADD SWAP6 SWAP1 SWAP6 SSTORE PUSH1 0x25 DUP3 MSTORE DUP1 DUP5 KECCAK256 DUP12 SWAP1 SSTORE PUSH1 0x26 DUP3 MSTORE DUP1 DUP5 KECCAK256 DUP11 SWAP1 SSTORE PUSH1 0x27 DUP3 MSTORE DUP1 DUP5 KECCAK256 DUP10 SWAP1 SSTORE PUSH1 0x28 DUP3 MSTORE DUP1 DUP5 KECCAK256 DUP9 SWAP1 SSTORE PUSH1 0x29 DUP3 MSTORE SWAP1 SWAP3 KECCAK256 DUP6 SWAP1 SSTORE SWAP1 MSTORE DUP2 SWAP1 SSTORE PUSH2 0x19C8 DUP9 PUSH2 0x43E6 JUMP JUMPDEST POP POP POP POP POP POP POP POP JUMP JUMPDEST DUP2 PUSH1 0x0 PUSH2 0x19DD PUSH2 0x3751 JUMP JUMPDEST SWAP1 POP PUSH1 0x0 PUSH2 0x19E9 PUSH2 0x2CC7 JUMP JUMPDEST SWAP1 POP PUSH1 0x0 PUSH2 0x19F5 PUSH2 0x4240 JUMP JUMPDEST SWAP1 POP PUSH1 0x0 PUSH2 0x1A01 PUSH2 0x2595 JUMP JUMPDEST SWAP1 POP PUSH1 0x0 PUSH2 0x1A0D PUSH2 0x36DD JUMP JUMPDEST SWAP1 POP PUSH1 0x0 PUSH2 0x1A19 PUSH2 0x1083 JUMP JUMPDEST SWAP1 POP PUSH2 0x1A23 PUSH2 0x2C13 JUMP JUMPDEST PUSH1 0x1D PUSH1 0x10 PUSH2 0x100 EXP DUP2 SLOAD DUP2 PUSH1 0x1 PUSH1 0x1 PUSH1 0x40 SHL SUB MUL NOT AND SWAP1 DUP4 PUSH1 0x1 PUSH1 0x1 PUSH1 0x40 SHL SUB AND MUL OR SWAP1 SSTORE POP PUSH2 0x1A51 PUSH2 0x2D32 JUMP JUMPDEST PUSH1 0x1D PUSH1 0x18 PUSH2 0x100 EXP DUP2 SLOAD DUP2 PUSH1 0x1 PUSH1 0x1 PUSH1 0x40 SHL SUB MUL NOT AND SWAP1 DUP4 PUSH1 0x1 PUSH1 0x1 PUSH1 0x40 SHL SUB AND MUL OR SWAP1 SSTORE POP PUSH2 0x1A7F PUSH2 0x30BD JUMP JUMPDEST PUSH1 0x1E DUP1 SLOAD PUSH8 0xFFFFFFFFFFFFFFFF NOT AND PUSH1 0x1 PUSH1 0x1 PUSH1 0x40 SHL SUB SWAP3 SWAP1 SWAP3 AND SWAP2 SWAP1 SWAP2 OR SWAP1 SSTORE PUSH2 0x1AA8 PUSH2 0x1454 JUMP JUMPDEST PUSH1 0x1E PUSH1 0x8 PUSH2 0x100 EXP DUP2 SLOAD DUP2 PUSH1 0x1 PUSH1 0x1 PUSH1 0x40 SHL SUB MUL NOT AND SWAP1 DUP4 PUSH1 0x1 PUSH1 0x1 PUSH1 0x40 SHL SUB AND MUL OR SWAP1 SSTORE POP PUSH2 0x1AD6 PUSH2 0x10E7 JUMP JUMPDEST PUSH1 0x1E PUSH1 0x10 PUSH2 0x100 EXP DUP2 SLOAD DUP2 PUSH1 0x1 PUSH1 0x1 PUSH1 0x40 SHL SUB MUL NOT AND SWAP1 DUP4 PUSH1 0x1 PUSH1 0x1 PUSH1 0x40 SHL SUB AND MUL OR SWAP1 SSTORE POP PUSH2 0x1B04 PUSH2 0x165C JUMP JUMPDEST PUSH1 0x1E DUP1 SLOAD PUSH1 0x1 PUSH1 0x1 PUSH1 0x40 SHL SUB SWAP3 SWAP1 SWAP3 AND PUSH1 0x1 PUSH1 0xC0 SHL MUL PUSH1 0x1 PUSH1 0x1 PUSH1 0xC0 SHL SUB SWAP1 SWAP3 AND SWAP2 SWAP1 SWAP2 OR SWAP1 SSTORE PUSH1 0x1F DUP7 SWAP1 SSTORE PUSH1 0x20 DUP6 SWAP1 SSTORE PUSH1 0x21 DUP5 SWAP1 SSTORE PUSH1 0x22 DUP4 SWAP1 SSTORE PUSH1 0x23 DUP3 SWAP1 SSTORE PUSH1 0x24 DUP2 SWAP1 SSTORE PUSH2 0x1B52 DUP8 PUSH2 0xF76 JUMP JUMPDEST PUSH1 0x1 PUSH1 0x1 PUSH1 0xA0 SHL SUB DUP9 AND PUSH1 0x0 SWAP1 DUP2 MSTORE PUSH1 0x25 PUSH1 0x20 MSTORE PUSH1 0x40 SWAP1 KECCAK256 PUSH1 0x1 ADD SSTORE PUSH2 0x1B77 DUP8 PUSH2 0x434A JUMP JUMPDEST PUSH1 0x1 PUSH1 0x1 PUSH1 0xA0 SHL SUB DUP9 AND PUSH1 0x0 SWAP1 DUP2 MSTORE PUSH1 0x26 PUSH1 0x20 MSTORE PUSH1 0x40 SWAP1 KECCAK256 PUSH1 0x1 ADD SSTORE PUSH2 0x1B9C DUP8 PUSH2 0x1696 JUMP JUMPDEST PUSH1 0x1 PUSH1 0x1 PUSH1 0xA0 SHL SUB DUP9 AND PUSH1 0x0 SWAP1 DUP2 MSTORE PUSH1 0x27 PUSH1 0x20 MSTORE PUSH1 0x40 SWAP1 KECCAK256 PUSH1 0x1 ADD SSTORE PUSH2 0x1BC1 DUP8 PUSH2 0x32C0 JUMP JUMPDEST PUSH1 0x1 PUSH1 0x1 PUSH1 0xA0 SHL SUB DUP9 AND PUSH1 0x0 SWAP1 DUP2 MSTORE PUSH1 0x28 PUSH1 0x20 MSTORE PUSH1 0x40 SWAP1 KECCAK256 PUSH1 0x1 ADD SSTORE PUSH2 0x1BE6 DUP8 PUSH2 0x2C3F JUMP JUMPDEST PUSH1 0x1 PUSH1 0x1 PUSH1 0xA0 SHL SUB DUP9 AND PUSH1 0x0 SWAP1 DUP2 MSTORE PUSH1 0x29 PUSH1 0x20 MSTORE PUSH1 0x40 SWAP1 KECCAK256 PUSH1 0x1 ADD SSTORE PUSH2 0x1C0B DUP8 PUSH2 0x429F JUMP JUMPDEST PUSH1 0x1 PUSH1 0x1 PUSH1 0xA0 SHL SUB DUP9 AND PUSH1 0x0 SWAP1 DUP2 MSTORE PUSH1 0x2A PUSH1 0x20 DUP2 DUP2 MSTORE PUSH1 0x40 DUP1 DUP5 KECCAK256 PUSH1 0x1 DUP2 ADD SWAP6 SWAP1 SWAP6 SSTORE PUSH1 0x25 DUP3 MSTORE DUP1 DUP5 KECCAK256 DUP12 SWAP1 SSTORE PUSH1 0x26 DUP3 MSTORE DUP1 DUP5 KECCAK256 DUP11 SWAP1 SSTORE PUSH1 0x27 DUP3 MSTORE DUP1 DUP5 KECCAK256 DUP10 SWAP1 SSTORE PUSH1 0x28 DUP3 MSTORE DUP1 DUP5 KECCAK256 DUP9 SWAP1 SSTORE PUSH1 0x29 DUP3 MSTORE SWAP1 SWAP3 KECCAK256 DUP6 SWAP1 SSTORE SWAP1 MSTORE DUP2 SWAP1 SSTORE PUSH2 0x1C6F DUP10 DUP10 PUSH2 0x460C JUMP JUMPDEST POP POP POP POP POP POP POP POP POP JUMP JUMPDEST PUSH1 0x0 DUP1 DUP1 JUMPDEST PUSH1 0x4 SLOAD DUP2 LT ISZERO PUSH2 0x1CD8 JUMPI CALLER PUSH1 0x1 PUSH1 0x1 PUSH1 0xA0 SHL SUB AND PUSH1 0x4 DUP3 DUP2 SLOAD DUP2 LT PUSH2 0x1CA6 JUMPI PUSH2 0x1CA6 PUSH2 0x49AA JUMP JUMPDEST PUSH1 0x0 SWAP2 DUP3 MSTORE PUSH1 0x20 SWAP1 SWAP2 KECCAK256 ADD SLOAD PUSH1 0x1 PUSH1 0x1 PUSH1 0xA0 SHL SUB AND EQ ISZERO PUSH2 0x1CC6 JUMPI PUSH1 0x1 SWAP2 POP JUMPDEST DUP1 PUSH2 0x1CD0 DUP2 PUSH2 0x49D6 JUMP JUMPDEST SWAP2 POP POP PUSH2 0x1C7F JUMP JUMPDEST POP PUSH1 0x3 SLOAD PUSH1 0x1 PUSH1 0x1 PUSH1 0xA0 SHL SUB AND CALLER EQ DUP1 PUSH2 0x1CEF JUMPI POP DUP1 JUMPDEST PUSH2 0x1D0B JUMPI PUSH1 0x40 MLOAD PUSH3 0x461BCD PUSH1 0xE5 SHL DUP2 MSTORE PUSH1 0x4 ADD PUSH2 0x14E3 SWAP1 PUSH2 0x49F1 JUMP JUMPDEST PUSH3 0x93A80 DUP4 PUSH1 0x1 PUSH1 0x1 PUSH1 0x40 SHL SUB AND LT ISZERO DUP1 ISZERO PUSH2 0x1D33 JUMPI POP PUSH3 0x51BD00 DUP4 PUSH1 0x1 PUSH1 0x1 PUSH1 0x40 SHL SUB AND GT ISZERO JUMPDEST PUSH2 0x1D8A JUMPI PUSH1 0x40 MLOAD PUSH3 0x461BCD PUSH1 0xE5 SHL DUP2 MSTORE PUSH1 0x20 PUSH1 0x4 DUP3 ADD MSTORE PUSH1 0x22 PUSH1 0x24 DUP3 ADD MSTORE PUSH32 0x526577617264206D75737420737461792077697468696E20626F756E64617269 PUSH1 0x44 DUP3 ADD MSTORE PUSH2 0x6573 PUSH1 0xF0 SHL PUSH1 0x64 DUP3 ADD MSTORE PUSH1 0x84 ADD PUSH2 0x14E3 JUMP JUMPDEST POP PUSH1 0x9 DUP1 SLOAD PUSH8 0xFFFFFFFFFFFFFFFF NOT AND PUSH1 0x1 PUSH1 0x1 PUSH1 0x40 SHL SUB SWAP4 SWAP1 SWAP4 AND SWAP3 SWAP1 SWAP3 OR SWAP1 SWAP2 SSTORE SWAP1 JUMP JUMPDEST PUSH1 0x3 SLOAD PUSH1 0x1 PUSH1 0x1 PUSH1 0xA0 SHL SUB AND CALLER EQ PUSH2 0x1E0A JUMPI PUSH1 0x40 MLOAD PUSH3 0x461BCD PUSH1 0xE5 SHL DUP2 MSTORE PUSH1 0x20 PUSH1 0x4 DUP3 ADD DUP2 SWAP1 MSTORE PUSH1 0x24 DUP3 ADD MSTORE PUSH32 0x4F776E61626C653A2063616C6C6572206973206E6F7420746865206F776E6572 PUSH1 0x44 DUP3 ADD MSTORE PUSH1 0x64 ADD PUSH2 0x14E3 JUMP JUMPDEST PUSH2 0x1451 DUP2 PUSH2 0x47FF JUMP JUMPDEST CALLER PUSH1 0x0 PUSH2 0x1E1E PUSH2 0x3751 JUMP JUMPDEST SWAP1 POP PUSH1 0x0 PUSH2 0x1E2A PUSH2 0x2CC7 JUMP JUMPDEST SWAP1 POP PUSH1 0x0 PUSH2 0x1E36 PUSH2 0x4240 JUMP JUMPDEST SWAP1 POP PUSH1 0x0 PUSH2 0x1E42 PUSH2 0x2595 JUMP JUMPDEST SWAP1 POP PUSH1 0x0 PUSH2 0x1E4E PUSH2 0x36DD JUMP JUMPDEST SWAP1 POP PUSH1 0x0 PUSH2 0x1E5A PUSH2 0x1083 JUMP JUMPDEST SWAP1 POP PUSH2 0x1E64 PUSH2 0x2C13 JUMP JUMPDEST PUSH1 0x1D PUSH1 0x10 PUSH2 0x100 EXP DUP2 SLOAD DUP2 PUSH1 0x1 PUSH1 0x1 PUSH1 0x40 SHL SUB MUL NOT AND SWAP1 DUP4 PUSH1 0x1 PUSH1 0x1 PUSH1 0x40 SHL SUB AND MUL OR SWAP1 SSTORE POP PUSH2 0x1E92 PUSH2 0x2D32 JUMP JUMPDEST PUSH1 0x1D PUSH1 0x18 PUSH2 0x100 EXP DUP2 SLOAD DUP2 PUSH1 0x1 PUSH1 0x1 PUSH1 0x40 SHL SUB MUL NOT AND SWAP1 DUP4 PUSH1 0x1 PUSH1 0x1 PUSH1 0x40 SHL SUB AND MUL OR SWAP1 SSTORE POP PUSH2 0x1EC0 PUSH2 0x30BD JUMP JUMPDEST PUSH1 0x1E DUP1 SLOAD PUSH8 0xFFFFFFFFFFFFFFFF NOT AND PUSH1 0x1 PUSH1 0x1 PUSH1 0x40 SHL SUB SWAP3 SWAP1 SWAP3 AND SWAP2 SWAP1 SWAP2 OR SWAP1 SSTORE PUSH2 0x1EE9 PUSH2 0x1454 JUMP JUMPDEST PUSH1 0x1E PUSH1 0x8 PUSH2 0x100 EXP DUP2 SLOAD DUP2 PUSH1 0x1 PUSH1 0x1 PUSH1 0x40 SHL SUB MUL NOT AND SWAP1 DUP4 PUSH1 0x1 PUSH1 0x1 PUSH1 0x40 SHL SUB AND MUL OR SWAP1 SSTORE POP PUSH2 0x1F17 PUSH2 0x10E7 JUMP JUMPDEST PUSH1 0x1E PUSH1 0x10 PUSH2 0x100 EXP DUP2 SLOAD DUP2 PUSH1 0x1 PUSH1 0x1 PUSH1 0x40 SHL SUB MUL NOT AND SWAP1 DUP4 PUSH1 0x1 PUSH1 0x1 PUSH1 0x40 SHL SUB AND MUL OR SWAP1 SSTORE POP PUSH2 0x1F45 PUSH2 0x165C JUMP JUMPDEST PUSH1 0x1E DUP1 SLOAD PUSH1 0x1 PUSH1 0x1 PUSH1 0x40 SHL SUB SWAP3 SWAP1 SWAP3 AND PUSH1 0x1 PUSH1 0xC0 SHL MUL PUSH1 0x1 PUSH1 0x1 PUSH1 0xC0 SHL SUB SWAP1 SWAP3 AND SWAP2 SWAP1 SWAP2 OR SWAP1 SSTORE PUSH1 0x1F DUP7 SWAP1 SSTORE PUSH1 0x20 DUP6 SWAP1 SSTORE PUSH1 0x21 DUP5 SWAP1 SSTORE PUSH1 0x22 DUP4 SWAP1 SSTORE PUSH1 0x23 DUP3 SWAP1 SSTORE PUSH1 0x24 DUP2 SWAP1 SSTORE PUSH2 0x1F93 DUP8 PUSH2 0xF76 JUMP JUMPDEST PUSH1 0x1 PUSH1 0x1 PUSH1 0xA0 SHL SUB DUP9 AND PUSH1 0x0 SWAP1 DUP2 MSTORE PUSH1 0x25 PUSH1 0x20 MSTORE PUSH1 0x40 SWAP1 KECCAK256 PUSH1 0x1 ADD SSTORE PUSH2 0x1FB8 DUP8 PUSH2 0x434A JUMP JUMPDEST PUSH1 0x1 PUSH1 0x1 PUSH1 0xA0 SHL SUB DUP9 AND PUSH1 0x0 SWAP1 DUP2 MSTORE PUSH1 0x26 PUSH1 0x20 MSTORE PUSH1 0x40 SWAP1 KECCAK256 PUSH1 0x1 ADD SSTORE PUSH2 0x1FDD DUP8 PUSH2 0x1696 JUMP JUMPDEST PUSH1 0x1 PUSH1 0x1 PUSH1 0xA0 SHL SUB DUP9 AND PUSH1 0x0 SWAP1 DUP2 MSTORE PUSH1 0x27 PUSH1 0x20 MSTORE PUSH1 0x40 SWAP1 KECCAK256 PUSH1 0x1 ADD SSTORE PUSH2 0x2002 DUP8 PUSH2 0x32C0 JUMP JUMPDEST PUSH1 0x1 PUSH1 0x1 PUSH1 0xA0 SHL SUB DUP9 AND PUSH1 0x0 SWAP1 DUP2 MSTORE PUSH1 0x28 PUSH1 0x20 MSTORE PUSH1 0x40 SWAP1 KECCAK256 PUSH1 0x1 ADD SSTORE PUSH2 0x2027 DUP8 PUSH2 0x2C3F JUMP JUMPDEST PUSH1 0x1 PUSH1 0x1 PUSH1 0xA0 SHL SUB DUP9 AND PUSH1 0x0 SWAP1 DUP2 MSTORE PUSH1 0x29 PUSH1 0x20 MSTORE PUSH1 0x40 SWAP1 KECCAK256 PUSH1 0x1 ADD SSTORE PUSH2 0x204C DUP8 PUSH2 0x429F JUMP JUMPDEST PUSH1 0x1 PUSH1 0x1 PUSH1 0xA0 SHL SUB DUP9 AND PUSH1 0x0 SWAP1 DUP2 MSTORE PUSH1 0x2A PUSH1 0x20 DUP2 DUP2 MSTORE PUSH1 0x40 DUP1 DUP5 KECCAK256 PUSH1 0x1 DUP2 ADD SWAP6 SWAP1 SWAP6 SSTORE PUSH1 0x25 DUP3 MSTORE DUP1 DUP5 KECCAK256 DUP12 SWAP1 SSTORE PUSH1 0x26 DUP3 MSTORE DUP1 DUP5 KECCAK256 DUP11 SWAP1 SSTORE PUSH1 0x27 DUP3 MSTORE DUP1 DUP5 KECCAK256 DUP10 SWAP1 SSTORE PUSH1 0x28 DUP3 MSTORE DUP1 DUP5 KECCAK256 DUP9 SWAP1 SSTORE PUSH1 0x29 DUP3 MSTORE DUP4 KECCAK256 DUP7 SWAP1 SSTORE MSTORE SWAP1 DUP3 SWAP1 SSTORE PUSH2 0x20AE CALLER PUSH2 0xF76 JUMP JUMPDEST SWAP1 POP PUSH1 0x0 PUSH2 0x20BB CALLER PUSH2 0x434A JUMP JUMPDEST SWAP1 POP PUSH1 0x0 PUSH2 0x20C8 CALLER PUSH2 0x1696 JUMP JUMPDEST SWAP1 POP DUP3 ISZERO PUSH2 0x220F JUMPI CALLER PUSH1 0x0 SWAP1 DUP2 MSTORE PUSH1 0x25 PUSH1 0x20 MSTORE PUSH1 0x40 DUP2 KECCAK256 PUSH1 0x1 ADD SSTORE DUP1 ISZERO PUSH2 0x216C JUMPI CALLER PUSH1 0x0 DUP2 DUP2 MSTORE PUSH1 0x27 PUSH1 0x20 MSTORE PUSH1 0x40 DUP1 DUP3 KECCAK256 PUSH1 0x1 ADD DUP3 SWAP1 SSTORE MLOAD DUP3 SWAP2 DUP5 ISZERO PUSH2 0x8FC MUL SWAP2 DUP6 SWAP2 DUP2 DUP2 DUP2 DUP6 DUP9 DUP9 CALL SWAP4 POP POP POP POP PUSH2 0x2159 JUMPI PUSH1 0x40 MLOAD PUSH3 0x461BCD PUSH1 0xE5 SHL DUP2 MSTORE PUSH1 0x20 PUSH1 0x4 DUP3 ADD MSTORE PUSH1 0x13 PUSH1 0x24 DUP3 ADD MSTORE PUSH19 0x115D1A081D1C985B9CD9995C8819985A5B1959 PUSH1 0x6A SHL PUSH1 0x44 DUP3 ADD MSTORE PUSH1 0x64 ADD PUSH2 0x14E3 JUMP JUMPDEST DUP2 PUSH1 0xC SLOAD PUSH2 0x2167 SWAP2 SWAP1 PUSH2 0x4A35 JUMP JUMPDEST PUSH1 0xC SSTORE POP JUMPDEST PUSH1 0x15 SLOAD PUSH1 0x40 MLOAD PUSH4 0xA9059CBB PUSH1 0xE0 SHL DUP2 MSTORE PUSH1 0x1 PUSH1 0x1 PUSH1 0xA0 SHL SUB SWAP1 SWAP2 AND SWAP1 PUSH4 0xA9059CBB SWAP1 PUSH2 0x219E SWAP1 CALLER SWAP1 DUP8 SWAP1 PUSH1 0x4 ADD PUSH2 0x4A4C JUMP JUMPDEST PUSH1 0x20 PUSH1 0x40 MLOAD DUP1 DUP4 SUB DUP2 PUSH1 0x0 DUP8 GAS CALL ISZERO DUP1 ISZERO PUSH2 0x21BD JUMPI RETURNDATASIZE PUSH1 0x0 DUP1 RETURNDATACOPY RETURNDATASIZE PUSH1 0x0 REVERT JUMPDEST POP POP POP POP PUSH1 0x40 MLOAD RETURNDATASIZE PUSH1 0x1F NOT PUSH1 0x1F DUP3 ADD AND DUP3 ADD DUP1 PUSH1 0x40 MSTORE POP DUP2 ADD SWAP1 PUSH2 0x21E1 SWAP2 SWAP1 PUSH2 0x4A65 JUMP JUMPDEST PUSH2 0x21FD JUMPI PUSH1 0x40 MLOAD PUSH3 0x461BCD PUSH1 0xE5 SHL DUP2 MSTORE PUSH1 0x4 ADD PUSH2 0x14E3 SWAP1 PUSH2 0x4A87 JUMP JUMPDEST DUP3 PUSH1 0xA SLOAD PUSH2 0x220B SWAP2 SWAP1 PUSH2 0x4A35 JUMP JUMPDEST PUSH1 0xA SSTORE JUMPDEST DUP2 ISZERO PUSH2 0x22CD JUMPI CALLER PUSH1 0x0 DUP2 DUP2 MSTORE PUSH1 0x26 PUSH1 0x20 MSTORE PUSH1 0x40 DUP1 DUP3 KECCAK256 PUSH1 0x1 ADD SWAP2 SWAP1 SWAP2 SSTORE PUSH1 0x14 SLOAD SWAP1 MLOAD PUSH4 0xA9059CBB PUSH1 0xE0 SHL DUP2 MSTORE PUSH1 0x1 PUSH1 0x1 PUSH1 0xA0 SHL SUB SWAP1 SWAP2 AND SWAP2 PUSH4 0xA9059CBB SWAP2 PUSH2 0x225C SWAP2 SWAP1 DUP7 SWAP1 PUSH1 0x4 ADD PUSH2 0x4A4C JUMP JUMPDEST PUSH1 0x20 PUSH1 0x40 MLOAD DUP1 DUP4 SUB DUP2 PUSH1 0x0 DUP8 GAS CALL ISZERO DUP1 ISZERO PUSH2 0x227B JUMPI RETURNDATASIZE PUSH1 0x0 DUP1 RETURNDATACOPY RETURNDATASIZE PUSH1 0x0 REVERT JUMPDEST POP POP POP POP PUSH1 0x40 MLOAD RETURNDATASIZE PUSH1 0x1F NOT PUSH1 0x1F DUP3 ADD AND DUP3 ADD DUP1 PUSH1 0x40 MSTORE POP DUP2 ADD SWAP1 PUSH2 0x229F SWAP2 SWAP1 PUSH2 0x4A65 JUMP JUMPDEST PUSH2 0x22BB JUMPI PUSH1 0x40 MLOAD PUSH3 0x461BCD PUSH1 0xE5 SHL DUP2 MSTORE PUSH1 0x4 ADD PUSH2 0x14E3 SWAP1 PUSH2 0x4AB7 JUMP JUMPDEST DUP2 PUSH1 0xB SLOAD PUSH2 0x22C9 SWAP2 SWAP1 PUSH2 0x4A35 JUMP JUMPDEST PUSH1 0xB SSTORE JUMPDEST PUSH1 0x0 PUSH2 0x22D8 CALLER PUSH2 0x32C0 JUMP JUMPDEST SWAP1 POP DUP1 ISZERO PUSH2 0x2398 JUMPI CALLER PUSH1 0x0 DUP2 DUP2 MSTORE PUSH1 0x28 PUSH1 0x20 MSTORE PUSH1 0x40 DUP1 DUP3 KECCAK256 PUSH1 0x1 ADD SWAP2 SWAP1 SWAP2 SSTORE PUSH1 0x13 SLOAD SWAP1 MLOAD PUSH4 0xA9059CBB PUSH1 0xE0 SHL DUP2 MSTORE PUSH1 0x1 PUSH1 0x1 PUSH1 0xA0 SHL SUB SWAP1 SWAP2 AND SWAP2 PUSH4 0xA9059CBB SWAP2 PUSH2 0x2327 SWAP2 SWAP1 DUP6 SWAP1 PUSH1 0x4 ADD PUSH2 0x4A4C JUMP JUMPDEST PUSH1 0x20 PUSH1 0x40 MLOAD DUP1 DUP4 SUB DUP2 PUSH1 0x0 DUP8 GAS CALL ISZERO DUP1 ISZERO PUSH2 0x2346 JUMPI RETURNDATASIZE PUSH1 0x0 DUP1 RETURNDATACOPY RETURNDATASIZE PUSH1 0x0 REVERT JUMPDEST POP POP POP POP PUSH1 0x40 MLOAD RETURNDATASIZE PUSH1 0x1F NOT PUSH1 0x1F DUP3 ADD AND DUP3 ADD DUP1 PUSH1 0x40 MSTORE POP DUP2 ADD SWAP1 PUSH2 0x236A SWAP2 SWAP1 PUSH2 0x4A65 JUMP JUMPDEST PUSH2 0x2386 JUMPI PUSH1 0x40 MLOAD PUSH3 0x461BCD PUSH1 0xE5 SHL DUP2 MSTORE PUSH1 0x4 ADD PUSH2 0x14E3 SWAP1 PUSH2 0x4A87 JUMP JUMPDEST DUP1 PUSH1 0xD SLOAD PUSH2 0x2394 SWAP2 SWAP1 PUSH2 0x4A35 JUMP JUMPDEST PUSH1 0xD SSTORE JUMPDEST PUSH1 0x0 PUSH2 0x23A3 CALLER PUSH2 0x2C3F JUMP JUMPDEST SWAP1 POP DUP1 ISZERO PUSH2 0x2463 JUMPI CALLER PUSH1 0x0 DUP2 DUP2 MSTORE PUSH1 0x29 PUSH1 0x20 MSTORE PUSH1 0x40 DUP1 DUP3 KECCAK256 PUSH1 0x1 ADD SWAP2 SWAP1 SWAP2 SSTORE PUSH1 0x12 SLOAD SWAP1 MLOAD PUSH4 0xA9059CBB PUSH1 0xE0 SHL DUP2 MSTORE PUSH1 0x1 PUSH1 0x1 PUSH1 0xA0 SHL SUB SWAP1 SWAP2 AND SWAP2 PUSH4 0xA9059CBB SWAP2 PUSH2 0x23F2 SWAP2 SWAP1 DUP6 SWAP1 PUSH1 0x4 ADD PUSH2 0x4A4C JUMP JUMPDEST PUSH1 0x20 PUSH1 0x40 MLOAD DUP1 DUP4 SUB DUP2 PUSH1 0x0 DUP8 GAS CALL ISZERO DUP1 ISZERO PUSH2 0x2411 JUMPI RETURNDATASIZE PUSH1 0x0 DUP1 RETURNDATACOPY RETURNDATASIZE PUSH1 0x0 REVERT JUMPDEST POP POP POP POP PUSH1 0x40 MLOAD RETURNDATASIZE PUSH1 0x1F NOT PUSH1 0x1F DUP3 ADD AND DUP3 ADD DUP1 PUSH1 0x40 MSTORE POP DUP2 ADD SWAP1 PUSH2 0x2435 SWAP2 SWAP1 PUSH2 0x4A65 JUMP JUMPDEST PUSH2 0x2451 JUMPI PUSH1 0x40 MLOAD PUSH3 0x461BCD PUSH1 0xE5 SHL DUP2 MSTORE PUSH1 0x4 ADD PUSH2 0x14E3 SWAP1 PUSH2 0x4AB7 JUMP JUMPDEST DUP1 PUSH1 0xE SLOAD PUSH2 0x245F SWAP2 SWAP1 PUSH2 0x4A35 JUMP JUMPDEST PUSH1 0xE SSTORE JUMPDEST PUSH1 0x0 PUSH2 0x246E CALLER PUSH2 0x429F JUMP JUMPDEST SWAP1 POP DUP1 ISZERO PUSH2 0x252E JUMPI CALLER PUSH1 0x0 DUP2 DUP2 MSTORE PUSH1 0x2A PUSH1 0x20 MSTORE PUSH1 0x40 DUP1 DUP3 KECCAK256 PUSH1 0x1 ADD SWAP2 SWAP1 SWAP2 SSTORE PUSH1 0x11 SLOAD SWAP1 MLOAD PUSH4 0xA9059CBB PUSH1 0xE0 SHL DUP2 MSTORE PUSH1 0x1 PUSH1 0x1 PUSH1 0xA0 SHL SUB SWAP1 SWAP2 AND SWAP2 PUSH4 0xA9059CBB SWAP2 PUSH2 0x24BD SWAP2 SWAP1 DUP6 SWAP1 PUSH1 0x4 ADD PUSH2 0x4A4C JUMP JUMPDEST PUSH1 0x20 PUSH1 0x40 MLOAD DUP1 DUP4 SUB DUP2 PUSH1 0x0 DUP8 GAS CALL ISZERO DUP1 ISZERO PUSH2 0x24DC JUMPI RETURNDATASIZE PUSH1 0x0 DUP1 RETURNDATACOPY RETURNDATASIZE PUSH1 0x0 REVERT JUMPDEST POP POP POP POP PUSH1 0x40 MLOAD RETURNDATASIZE PUSH1 0x1F NOT PUSH1 0x1F DUP3 ADD AND DUP3 ADD DUP1 PUSH1 0x40 MSTORE POP DUP2 ADD SWAP1 PUSH2 0x2500 SWAP2 SWAP1 PUSH2 0x4A65 JUMP JUMPDEST PUSH2 0x251C JUMPI PUSH1 0x40 MLOAD PUSH3 0x461BCD PUSH1 0xE5 SHL DUP2 MSTORE PUSH1 0x4 ADD PUSH2 0x14E3 SWAP1 PUSH2 0x4AB7 JUMP JUMPDEST DUP1 PUSH1 0xF SLOAD PUSH2 0x252A SWAP2 SWAP1 PUSH2 0x4A35 JUMP JUMPDEST PUSH1 0xF SSTORE JUMPDEST PUSH1 0x40 DUP1 MLOAD DUP8 DUP2 MSTORE PUSH1 0x20 DUP2 ADD DUP8 SWAP1 MSTORE SWAP1 DUP2 ADD DUP6 SWAP1 MSTORE PUSH1 0x60 DUP2 ADD DUP5 SWAP1 MSTORE PUSH1 0x80 DUP2 ADD DUP4 SWAP1 MSTORE PUSH1 0xA0 DUP2 ADD DUP3 SWAP1 MSTORE CALLER SWAP1 PUSH32 0x9E47CD2646BC931C94F5188D211CF8FA0E569326C205FB274070BF580AEDC389 SWAP1 PUSH1 0xC0 ADD PUSH1 0x40 MLOAD DUP1 SWAP2 SUB SWAP1 LOG2 POP POP POP POP POP POP POP POP POP POP POP POP POP JUMP JUMPDEST PUSH1 0x0 DUP1 SLOAD DUP1 PUSH2 0x25A6 JUMPI POP POP PUSH1 0x22 SLOAD SWAP1 JUMP JUMPDEST PUSH1 0x1E SLOAD PUSH1 0x0 SWAP1 PUSH1 0x1 PUSH1 0x40 SHL SWAP1 DIV PUSH1 0x1 PUSH1 0x1 PUSH1 0x40 SHL SUB AND PUSH2 0x25C4 PUSH2 0x1454 JUMP JUMPDEST SUB PUSH1 0x1 PUSH1 0x1 PUSH1 0x40 SHL SUB AND SWAP1 POP DUP2 PUSH1 0x6 SLOAD PUSH1 0x2 MUL PUSH1 0xA EXP PUSH1 0x19 SLOAD DUP4 MUL MUL DUP2 PUSH2 0x25ED JUMPI PUSH2 0x25ED PUSH2 0x4937 JUMP JUMPDEST DIV PUSH1 0x22 SLOAD ADD SWAP3 POP POP POP SWAP1 JUMP JUMPDEST PUSH1 0x10 DUP2 DUP2 SLOAD DUP2 LT PUSH2 0x2609 JUMPI PUSH1 0x0 DUP1 REVERT JUMPDEST PUSH1 0x0 SWAP2 DUP3 MSTORE PUSH1 0x20 SWAP1 SWAP2 KECCAK256 ADD SLOAD PUSH1 0x1 PUSH1 0x1 PUSH1 0xA0 SHL SUB AND SWAP1 POP DUP2 JUMP JUMPDEST PUSH1 0x3 SLOAD PUSH1 0x1 PUSH1 0x1 PUSH1 0xA0 SHL SUB AND CALLER EQ PUSH2 0x267D JUMPI PUSH1 0x40 MLOAD PUSH3 0x461BCD PUSH1 0xE5 SHL DUP2 MSTORE PUSH1 0x20 PUSH1 0x4 DUP3 ADD DUP2 SWAP1 MSTORE PUSH1 0x24 DUP3 ADD MSTORE PUSH32 0x4F776E61626C653A2063616C6C6572206973206E6F7420746865206F776E6572 PUSH1 0x44 DUP3 ADD MSTORE PUSH1 0x64 ADD PUSH2 0x14E3 JUMP JUMPDEST PUSH1 0x4 SLOAD DUP2 LT PUSH2 0x26D7 JUMPI PUSH1 0x4 DUP1 SLOAD PUSH1 0x1 DUP2 ADD DUP3 SSTORE PUSH1 0x0 SWAP2 SWAP1 SWAP2 MSTORE PUSH32 0x8A35ACFBC15FF81A39AE7D344FD709F28E8600B4AA8C65C6B64BFE7FE36BD19B ADD DUP1 SLOAD PUSH1 0x1 PUSH1 0x1 PUSH1 0xA0 SHL SUB DUP5 AND PUSH1 0x1 PUSH1 0x1 PUSH1 0xA0 SHL SUB NOT SWAP1 SWAP2 AND OR SWAP1 SSTORE POP POP JUMP JUMPDEST DUP2 PUSH1 0x4 DUP3 DUP2 SLOAD DUP2 LT PUSH2 0x26EB JUMPI PUSH2 0x26EB PUSH2 0x49AA JUMP JUMPDEST SWAP1 PUSH1 0x0 MSTORE PUSH1 0x20 PUSH1 0x0 KECCAK256 ADD PUSH1 0x0 PUSH2 0x100 EXP DUP2 SLOAD DUP2 PUSH1 0x1 PUSH1 0x1 PUSH1 0xA0 SHL SUB MUL NOT AND SWAP1 DUP4 PUSH1 0x1 PUSH1 0x1 PUSH1 0xA0 SHL SUB AND MUL OR SWAP1 SSTORE POP POP POP JUMP JUMPDEST PUSH1 0x0 DUP1 DUP1 JUMPDEST PUSH1 0x4 SLOAD DUP2 LT ISZERO PUSH2 0x277B JUMPI CALLER PUSH1 0x1 PUSH1 0x1 PUSH1 0xA0 SHL SUB AND PUSH1 0x4 DUP3 DUP2 SLOAD DUP2 LT PUSH2 0x2749 JUMPI PUSH2 0x2749 PUSH2 0x49AA JUMP JUMPDEST PUSH1 0x0 SWAP2 DUP3 MSTORE PUSH1 0x20 SWAP1 SWAP2 KECCAK256 ADD SLOAD PUSH1 0x1 PUSH1 0x1 PUSH1 0xA0 SHL SUB AND EQ ISZERO PUSH2 0x2769 JUMPI PUSH1 0x1 SWAP2 POP JUMPDEST DUP1 PUSH2 0x2773 DUP2 PUSH2 0x49D6 JUMP JUMPDEST SWAP2 POP POP PUSH2 0x2722 JUMP JUMPDEST POP PUSH1 0x3 SLOAD PUSH1 0x1 PUSH1 0x1 PUSH1 0xA0 SHL SUB AND CALLER EQ DUP1 PUSH2 0x2792 JUMPI POP DUP1 JUMPDEST PUSH2 0x27AE JUMPI PUSH1 0x40 MLOAD PUSH3 0x461BCD PUSH1 0xE5 SHL DUP2 MSTORE PUSH1 0x4 ADD PUSH2 0x14E3 SWAP1 PUSH2 0x49F1 JUMP JUMPDEST PUSH1 0x15 SLOAD PUSH1 0x1 PUSH1 0x1 PUSH1 0xA0 SHL SUB DUP6 DUP2 AND SWAP2 AND EQ DUP1 ISZERO SWAP1 PUSH2 0x27DA JUMPI POP PUSH1 0x2 SLOAD PUSH1 0x1 PUSH1 0x1 PUSH1 0xA0 SHL SUB DUP6 DUP2 AND SWAP2 AND EQ ISZERO JUMPDEST DUP1 ISZERO PUSH2 0x27F4 JUMPI POP PUSH1 0x14 SLOAD PUSH1 0x1 PUSH1 0x1 PUSH1 0xA0 SHL SUB DUP6 DUP2 AND SWAP2 AND EQ ISZERO JUMPDEST DUP1 ISZERO PUSH2 0x280E JUMPI POP PUSH1 0x12 SLOAD PUSH1 0x1 PUSH1 0x1 PUSH1 0xA0 SHL SUB DUP6 DUP2 AND SWAP2 AND EQ ISZERO JUMPDEST DUP1 ISZERO PUSH2 0x2828 JUMPI POP PUSH1 0x13 SLOAD PUSH1 0x1 PUSH1 0x1 PUSH1 0xA0 SHL SUB DUP6 DUP2 AND SWAP2 AND EQ ISZERO JUMPDEST DUP1 ISZERO PUSH2 0x2842 JUMPI POP PUSH1 0x11 SLOAD PUSH1 0x1 PUSH1 0x1 PUSH1 0xA0 SHL SUB DUP6 DUP2 AND SWAP2 AND EQ ISZERO JUMPDEST PUSH2 0x285E JUMPI PUSH1 0x40 MLOAD PUSH3 0x461BCD PUSH1 0xE5 SHL DUP2 MSTORE PUSH1 0x4 ADD PUSH2 0x14E3 SWAP1 PUSH2 0x4AEE JUMP JUMPDEST PUSH1 0x5 SLOAD PUSH3 0x10000 SWAP1 DIV PUSH1 0xFF AND ISZERO PUSH2 0x2887 JUMPI PUSH1 0x40 MLOAD PUSH3 0x461BCD PUSH1 0xE5 SHL DUP2 MSTORE PUSH1 0x4 ADD PUSH2 0x14E3 SWAP1 PUSH2 0x4B15 JUMP JUMPDEST POP POP PUSH1 0x6 SSTORE PUSH1 0x0 PUSH1 0x19 SSTORE PUSH1 0x13 DUP1 SLOAD PUSH1 0x1 PUSH1 0x1 PUSH1 0xA0 SHL SUB NOT AND PUSH1 0x1 PUSH1 0x1 PUSH1 0xA0 SHL SUB SWAP3 SWAP1 SWAP3 AND SWAP2 SWAP1 SWAP2 OR SWAP1 SSTORE PUSH1 0x5 DUP1 SLOAD PUSH3 0x10000 PUSH3 0xFF0000 NOT SWAP1 SWAP2 AND OR SWAP1 SSTORE PUSH1 0x1 SWAP1 JUMP JUMPDEST PUSH1 0x0 DUP1 DUP1 JUMPDEST PUSH1 0x4 SLOAD DUP2 LT ISZERO PUSH2 0x2927 JUMPI CALLER PUSH1 0x1 PUSH1 0x1 PUSH1 0xA0 SHL SUB AND PUSH1 0x4 DUP3 DUP2 SLOAD DUP2 LT PUSH2 0x28F5 JUMPI PUSH2 0x28F5 PUSH2 0x49AA JUMP JUMPDEST PUSH1 0x0 SWAP2 DUP3 MSTORE PUSH1 0x20 SWAP1 SWAP2 KECCAK256 ADD SLOAD PUSH1 0x1 PUSH1 0x1 PUSH1 0xA0 SHL SUB AND EQ ISZERO PUSH2 0x2915 JUMPI PUSH1 0x1 SWAP2 POP JUMPDEST DUP1 PUSH2 0x291F DUP2 PUSH2 0x49D6 JUMP JUMPDEST SWAP2 POP POP PUSH2 0x28CE JUMP JUMPDEST POP PUSH1 0x3 SLOAD PUSH1 0x1 PUSH1 0x1 PUSH1 0xA0 SHL SUB AND CALLER EQ DUP1 PUSH2 0x293E JUMPI POP DUP1 JUMPDEST PUSH2 0x295A JUMPI PUSH1 0x40 MLOAD PUSH3 0x461BCD PUSH1 0xE5 SHL DUP2 MSTORE PUSH1 0x4 ADD PUSH2 0x14E3 SWAP1 PUSH2 0x49F1 JUMP JUMPDEST PUSH1 0x15 SLOAD PUSH1 0x1 PUSH1 0x1 PUSH1 0xA0 SHL SUB DUP6 DUP2 AND SWAP2 AND EQ DUP1 ISZERO SWAP1 PUSH2 0x2986 JUMPI POP PUSH1 0x2 SLOAD PUSH1 0x1 PUSH1 0x1 PUSH1 0xA0 SHL SUB DUP6 DUP2 AND SWAP2 AND EQ ISZERO JUMPDEST DUP1 ISZERO PUSH2 0x29A0 JUMPI POP PUSH1 0x14 SLOAD PUSH1 0x1 PUSH1 0x1 PUSH1 0xA0 SHL SUB DUP6 DUP2 AND SWAP2 AND EQ ISZERO JUMPDEST DUP1 ISZERO PUSH2 0x29BA JUMPI POP PUSH1 0x13 SLOAD PUSH1 0x1 PUSH1 0x1 PUSH1 0xA0 SHL SUB DUP6 DUP2 AND SWAP2 AND EQ ISZERO JUMPDEST DUP1 ISZERO PUSH2 0x29D4 JUMPI POP PUSH1 0x12 SLOAD PUSH1 0x1 PUSH1 0x1 PUSH1 0xA0 SHL SUB DUP6 DUP2 AND SWAP2 AND EQ ISZERO JUMPDEST DUP1 ISZERO PUSH2 0x29EE JUMPI POP PUSH1 0x11 SLOAD PUSH1 0x1 PUSH1 0x1 PUSH1 0xA0 SHL SUB DUP6 DUP2 AND SWAP2 AND EQ ISZERO JUMPDEST PUSH2 0x2A0A JUMPI PUSH1 0x40 MLOAD PUSH3 0x461BCD PUSH1 0xE5 SHL DUP2 MSTORE PUSH1 0x4 ADD PUSH2 0x14E3 SWAP1 PUSH2 0x4AEE JUMP JUMPDEST PUSH1 0x5 SLOAD PUSH2 0x100 SWAP1 DIV PUSH1 0xFF AND ISZERO PUSH2 0x2A32 JUMPI PUSH1 0x40 MLOAD PUSH3 0x461BCD PUSH1 0xE5 SHL DUP2 MSTORE PUSH1 0x4 ADD PUSH2 0x14E3 SWAP1 PUSH2 0x4B15 JUMP JUMPDEST POP POP PUSH1 0x7 SSTORE PUSH1 0x0 PUSH1 0x1A SSTORE PUSH1 0x12 DUP1 SLOAD PUSH1 0x1 PUSH1 0x1 PUSH1 0xA0 SHL SUB NOT AND PUSH1 0x1 PUSH1 0x1 PUSH1 0xA0 SHL SUB SWAP3 SWAP1 SWAP3 AND SWAP2 SWAP1 SWAP2 OR SWAP1 SSTORE PUSH1 0x5 DUP1 SLOAD PUSH2 0x100 PUSH2 0xFF00 NOT SWAP1 SWAP2 AND OR SWAP1 SSTORE PUSH1 0x1 SWAP1 JUMP JUMPDEST PUSH1 0x0 DUP1 DUP1 JUMPDEST PUSH1 0x4 SLOAD DUP2 LT ISZERO PUSH2 0x2AD0 JUMPI CALLER PUSH1 0x1 PUSH1 0x1 PUSH1 0xA0 SHL SUB AND PUSH1 0x4 DUP3 DUP2 SLOAD DUP2 LT PUSH2 0x2A9E JUMPI PUSH2 0x2A9E PUSH2 0x49AA JUMP JUMPDEST PUSH1 0x0 SWAP2 DUP3 MSTORE PUSH1 0x20 SWAP1 SWAP2 KECCAK256 ADD SLOAD PUSH1 0x1 PUSH1 0x1 PUSH1 0xA0 SHL SUB AND EQ ISZERO PUSH2 0x2ABE JUMPI PUSH1 0x1 SWAP2 POP JUMPDEST DUP1 PUSH2 0x2AC8 DUP2 PUSH2 0x49D6 JUMP JUMPDEST SWAP2 POP POP PUSH2 0x2A77 JUMP JUMPDEST POP PUSH1 0x3 SLOAD PUSH1 0x1 PUSH1 0x1 PUSH1 0xA0 SHL SUB AND CALLER EQ DUP1 PUSH2 0x2AE7 JUMPI POP DUP1 JUMPDEST PUSH2 0x2B03 JUMPI PUSH1 0x40 MLOAD PUSH3 0x461BCD PUSH1 0xE5 SHL DUP2 MSTORE PUSH1 0x4 ADD PUSH2 0x14E3 SWAP1 PUSH2 0x49F1 JUMP JUMPDEST PUSH1 0x15 SLOAD PUSH1 0x1 PUSH1 0x1 PUSH1 0xA0 SHL SUB DUP6 DUP2 AND SWAP2 AND EQ DUP1 ISZERO SWAP1 PUSH2 0x2B2F JUMPI POP PUSH1 0x2 SLOAD PUSH1 0x1 PUSH1 0x1 PUSH1 0xA0 SHL SUB DUP6 DUP2 AND SWAP2 AND EQ ISZERO JUMPDEST DUP1 ISZERO PUSH2 0x2B49 JUMPI POP PUSH1 0x14 SLOAD PUSH1 0x1 PUSH1 0x1 PUSH1 0xA0 SHL SUB DUP6 DUP2 AND SWAP2 AND EQ ISZERO JUMPDEST DUP1 ISZERO PUSH2 0x2B63 JUMPI POP PUSH1 0x13 SLOAD PUSH1 0x1 PUSH1 0x1 PUSH1 0xA0 SHL SUB DUP6 DUP2 AND SWAP2 AND EQ ISZERO JUMPDEST DUP1 ISZERO PUSH2 0x2B7D JUMPI POP PUSH1 0x12 SLOAD PUSH1 0x1 PUSH1 0x1 PUSH1 0xA0 SHL SUB DUP6 DUP2 AND SWAP2 AND EQ ISZERO JUMPDEST DUP1 ISZERO PUSH2 0x2B97 JUMPI POP PUSH1 0x11 SLOAD PUSH1 0x1 PUSH1 0x1 PUSH1 0xA0 SHL SUB DUP6 DUP2 AND SWAP2 AND EQ ISZERO JUMPDEST PUSH2 0x2BB3 JUMPI PUSH1 0x40 MLOAD PUSH3 0x461BCD PUSH1 0xE5 SHL DUP2 MSTORE PUSH1 0x4 ADD PUSH2 0x14E3 SWAP1 PUSH2 0x4AEE JUMP JUMPDEST PUSH1 0x5 SLOAD PUSH1 0xFF AND ISZERO PUSH2 0x2BD6 JUMPI PUSH1 0x40 MLOAD PUSH3 0x461BCD PUSH1 0xE5 SHL DUP2 MSTORE PUSH1 0x4 ADD PUSH2 0x14E3 SWAP1 PUSH2 0x4B15 JUMP JUMPDEST POP POP PUSH1 0x8 SSTORE PUSH1 0x0 PUSH1 0x1B SSTORE PUSH1 0x11 DUP1 SLOAD PUSH1 0x1 PUSH1 0x1 PUSH1 0xA0 SHL SUB NOT AND PUSH1 0x1 PUSH1 0x1 PUSH1 0xA0 SHL SUB SWAP3 SWAP1 SWAP3 AND SWAP2 SWAP1 SWAP2 OR SWAP1 SSTORE PUSH1 0x5 DUP1 SLOAD PUSH1 0xFF NOT AND PUSH1 0x1 SWAP1 DUP2 OR SWAP1 SWAP2 SSTORE SWAP1 JUMP JUMPDEST PUSH1 0x1C SLOAD PUSH1 0x0 SWAP1 TIMESTAMP SWAP1 PUSH1 0x1 PUSH1 0x1 PUSH1 0x40 SHL SUB SWAP1 DUP2 AND SWAP1 DUP3 AND LT PUSH2 0x1113 JUMPI PUSH1 0x1C SLOAD PUSH1 0x1 PUSH1 0x1 PUSH1 0x40 SHL SUB AND PUSH2 0x1115 JUMP JUMPDEST PUSH1 0x0 PUSH1 0x7 SLOAD PUSH1 0x2 MUL PUSH1 0x10 ADD PUSH1 0xA EXP PUSH2 0x2C55 PUSH2 0x36DD JUMP JUMPDEST LT ISZERO PUSH2 0x2C91 JUMPI PUSH1 0x1 PUSH1 0x1 PUSH1 0xA0 SHL SUB DUP3 AND PUSH1 0x0 SWAP1 DUP2 MSTORE PUSH1 0x29 PUSH1 0x20 MSTORE PUSH1 0x40 SWAP1 KECCAK256 PUSH1 0x1 DUP2 ADD SLOAD PUSH1 0x7 SLOAD SWAP2 SLOAD SWAP1 SWAP2 PUSH1 0x2 MUL PUSH1 0x10 ADD PUSH1 0xA EXP SWAP1 PUSH2 0xFD6 PUSH2 0x36DD JUMP JUMPDEST PUSH1 0x1 PUSH1 0x1 PUSH1 0xA0 SHL SUB DUP3 AND PUSH1 0x0 SWAP1 DUP2 MSTORE PUSH1 0x29 PUSH1 0x20 MSTORE PUSH1 0x40 SWAP1 KECCAK256 PUSH1 0x1 DUP2 ADD SLOAD PUSH1 0x7 SLOAD SWAP2 SLOAD SWAP1 SWAP2 PUSH1 0x2 MUL PUSH1 0x10 ADD PUSH1 0xA EXP SWAP1 PUSH2 0x1048 PUSH2 0x36DD JUMP JUMPDEST PUSH1 0x0 DUP1 SLOAD DUP1 PUSH2 0x2CD8 JUMPI POP POP PUSH1 0x20 SLOAD SWAP1 JUMP JUMPDEST PUSH1 0x1D SLOAD PUSH1 0x0 SWAP1 PUSH1 0x1 PUSH1 0xC0 SHL SWAP1 DIV PUSH1 0x1 PUSH1 0x1 PUSH1 0x40 SHL SUB AND PUSH2 0x2CF6 PUSH2 0x2D32 JUMP JUMPDEST SUB PUSH1 0x1 PUSH1 0x1 PUSH1 0x40 SHL SUB AND SWAP1 POP DUP2 PUSH1 0x17 SLOAD DUP3 MUL PUSH15 0xC097CE7BC90715B34B9F1000000000 MUL DUP2 PUSH2 0x2D26 JUMPI PUSH2 0x2D26 PUSH2 0x4937 JUMP JUMPDEST DIV PUSH1 0x20 SLOAD ADD SWAP3 POP POP POP SWAP1 JUMP JUMPDEST PUSH1 0x1C SLOAD PUSH1 0x0 SWAP1 TIMESTAMP SWAP1 PUSH1 0x1 PUSH1 0x1 PUSH1 0x40 SHL SUB PUSH1 0x1 PUSH1 0x40 SHL SWAP1 SWAP2 DIV DUP2 AND SWAP1 DUP3 AND LT PUSH2 0x1113 JUMPI PUSH1 0x1C SLOAD PUSH1 0x1 PUSH1 0x40 SHL SWAP1 DIV PUSH1 0x1 PUSH1 0x1 PUSH1 0x40 SHL SUB AND PUSH2 0x1115 JUMP JUMPDEST PUSH1 0x0 DUP3 GT PUSH2 0x2D79 JUMPI PUSH1 0x0 DUP1 REVERT JUMPDEST POP PUSH1 0x9 SLOAD PUSH1 0x1 PUSH1 0x1 PUSH1 0x40 SHL SUB AND PUSH2 0x2D8E PUSH2 0x2CC7 JUMP JUMPDEST PUSH1 0x20 SSTORE PUSH1 0x1C SLOAD TIMESTAMP SWAP1 PUSH1 0x1 PUSH1 0x1 PUSH1 0x40 SHL SUB PUSH1 0x1 PUSH1 0x40 SHL SWAP1 SWAP2 DIV DUP2 AND SWAP1 DUP3 AND GT PUSH2 0x2DF8 JUMPI PUSH1 0x40 MLOAD PUSH3 0x461BCD PUSH1 0xE5 SHL DUP2 MSTORE PUSH1 0x20 PUSH1 0x4 DUP3 ADD MSTORE PUSH1 0x1E PUSH1 0x24 DUP3 ADD MSTORE PUSH32 0x4D5553542042452041465445522050726576696F757320526577617264730000 PUSH1 0x44 DUP3 ADD MSTORE PUSH1 0x64 ADD PUSH2 0x14E3 JUMP JUMPDEST PUSH1 0xB SLOAD PUSH1 0x14 SLOAD PUSH1 0x40 MLOAD PUSH4 0x70A08231 PUSH1 0xE0 SHL DUP2 MSTORE ADDRESS PUSH1 0x4 DUP3 ADD MSTORE PUSH1 0x0 SWAP3 SWAP2 PUSH1 0x1 PUSH1 0x1 PUSH1 0xA0 SHL SUB AND SWAP1 PUSH4 0x70A08231 SWAP1 PUSH1 0x24 ADD PUSH1 0x20 PUSH1 0x40 MLOAD DUP1 DUP4 SUB DUP2 DUP7 GAS STATICCALL ISZERO DUP1 ISZERO PUSH2 0x2E45 JUMPI RETURNDATASIZE PUSH1 0x0 DUP1 RETURNDATACOPY RETURNDATASIZE PUSH1 0x0 REVERT JUMPDEST POP POP POP POP PUSH1 0x40 MLOAD RETURNDATASIZE PUSH1 0x1F NOT PUSH1 0x1F DUP3 ADD AND DUP3 ADD DUP1 PUSH1 0x40 MSTORE POP DUP2 ADD SWAP1 PUSH2 0x2E69 SWAP2 SWAP1 PUSH2 0x4991 JUMP JUMPDEST PUSH1 0x2 SLOAD PUSH1 0x14 SLOAD SWAP3 SWAP1 SWAP2 SUB SWAP3 POP PUSH1 0x1 PUSH1 0x1 PUSH1 0xA0 SHL SUB SWAP2 DUP3 AND SWAP2 AND EQ ISZERO PUSH2 0x2E8E JUMPI PUSH1 0x0 SLOAD SWAP1 SUB JUMPDEST DUP4 DUP2 GT ISZERO PUSH2 0x2EC3 JUMPI PUSH1 0x1 PUSH1 0x1 PUSH1 0x40 SHL SUB DUP4 AND PUSH1 0xA PUSH7 0x8E1BC9BF040000 DUP4 MUL DIV DUP2 PUSH2 0x2EBA JUMPI PUSH2 0x2EBA PUSH2 0x4937 JUMP JUMPDEST DIV PUSH1 0x17 SSTORE PUSH2 0x2EC9 JUMP JUMPDEST PUSH1 0x0 PUSH1 0x17 SSTORE JUMPDEST PUSH1 0xA PUSH1 0x4 DUP3 MUL PUSH1 0x1D DUP1 SLOAD PUSH1 0x1 PUSH1 0x1 PUSH1 0x40 SHL SUB DUP1 DUP8 AND PUSH1 0x1 PUSH1 0xC0 SHL MUL PUSH1 0x1 PUSH1 0x1 PUSH1 0xC0 SHL SUB SWAP1 SWAP3 AND SWAP2 SWAP1 SWAP2 OR SWAP1 SWAP2 SSTORE PUSH1 0x1C DUP1 SLOAD DUP8 DUP8 ADD SWAP1 SWAP3 AND PUSH1 0x1 PUSH1 0x40 SHL MUL PUSH8 0xFFFFFFFFFFFFFFFF PUSH1 0x40 SHL NOT SWAP1 SWAP3 AND SWAP2 SWAP1 SWAP2 OR SWAP1 SSTORE PUSH1 0xB DUP1 SLOAD SWAP3 SWAP1 SWAP2 DIV SWAP2 DUP3 ADD SWAP1 SSTORE PUSH1 0x40 MLOAD DUP2 DUP2 MSTORE SWAP1 SWAP5 POP PUSH32 0x686C47E59005842286D2977A436CC5CEEEF835A38DDE7754EB2B535E84FD45E5 SWAP1 PUSH1 0x20 ADD PUSH2 0x164E JUMP JUMPDEST PUSH1 0x0 DUP3 GT PUSH2 0x2F69 JUMPI PUSH1 0x0 DUP1 REVERT JUMPDEST POP PUSH1 0x9 SLOAD PUSH1 0x1 PUSH1 0x1 PUSH1 0x40 SHL SUB AND PUSH2 0x2F7E PUSH2 0x4240 JUMP JUMPDEST PUSH1 0x21 SSTORE PUSH1 0x1C SLOAD TIMESTAMP SWAP1 PUSH1 0x1 PUSH1 0x1 PUSH1 0x40 SHL SUB PUSH1 0x1 PUSH1 0x80 SHL SWAP1 SWAP2 DIV DUP2 AND SWAP1 DUP3 AND GT PUSH2 0x2FE8 JUMPI PUSH1 0x40 MLOAD PUSH3 0x461BCD PUSH1 0xE5 SHL DUP2 MSTORE PUSH1 0x20 PUSH1 0x4 DUP3 ADD MSTORE PUSH1 0x1E PUSH1 0x24 DUP3 ADD MSTORE PUSH32 0x4D5553542042452041465445522050726576696F757320526577617264730000 PUSH1 0x44 DUP3 ADD MSTORE PUSH1 0x64 ADD PUSH2 0x14E3 JUMP JUMPDEST PUSH1 0xC SLOAD SELFBALANCE SUB PUSH1 0x1 PUSH1 0x1 PUSH1 0x40 SHL SUB DUP4 AND DUP2 GT ISZERO PUSH2 0x302B JUMPI PUSH1 0x1 PUSH1 0x1 PUSH1 0x40 SHL SUB DUP4 AND PUSH1 0xA PUSH7 0x8E1BC9BF040000 DUP4 MUL DIV DUP2 PUSH2 0x3022 JUMPI PUSH2 0x3022 PUSH2 0x4937 JUMP JUMPDEST DIV PUSH1 0x18 SSTORE PUSH2 0x3031 JUMP JUMPDEST PUSH1 0x0 PUSH1 0x18 SSTORE JUMPDEST PUSH1 0x1E DUP1 SLOAD PUSH8 0xFFFFFFFFFFFFFFFF NOT AND PUSH1 0x1 PUSH1 0x1 PUSH1 0x40 SHL SUB DUP5 DUP2 AND SWAP2 SWAP1 SWAP2 OR SWAP1 SWAP2 SSTORE PUSH1 0x1C DUP1 SLOAD PUSH8 0xFFFFFFFFFFFFFFFF PUSH1 0x80 SHL NOT AND PUSH1 0x1 PUSH1 0x80 SHL DUP7 DUP7 ADD SWAP1 SWAP4 AND SWAP3 SWAP1 SWAP3 MUL SWAP2 SWAP1 SWAP2 OR SWAP1 SSTORE PUSH1 0xC DUP1 SLOAD PUSH1 0xA PUSH1 0x4 DUP5 MUL DIV SWAP1 DUP2 ADD SWAP1 SWAP2 SSTORE PUSH1 0x40 MLOAD DUP2 DUP2 MSTORE SWAP1 SWAP5 POP PUSH32 0xD62583100C7524E43BDA2404E1236DC6133A424ED253A00539E75BE5E65A4633 SWAP1 PUSH1 0x20 ADD PUSH2 0x164E JUMP JUMPDEST PUSH1 0x1C SLOAD PUSH1 0x0 SWAP1 TIMESTAMP SWAP1 PUSH1 0x1 PUSH1 0x1 PUSH1 0x40 SHL SUB PUSH1 0x1 PUSH1 0x80 SHL SWAP1 SWAP2 DIV DUP2 AND SWAP1 DUP3 AND LT PUSH2 0x1113 JUMPI PUSH1 0x1C SLOAD PUSH1 0x1 PUSH1 0x80 SHL SWAP1 DIV PUSH1 0x1 PUSH1 0x1 PUSH1 0x40 SHL SUB AND PUSH2 0x1115 JUMP JUMPDEST PUSH1 0x0 DUP3 GT PUSH2 0x3104 JUMPI PUSH1 0x0 DUP1 REVERT JUMPDEST POP PUSH1 0x9 SLOAD PUSH1 0x1 PUSH1 0x1 PUSH1 0x40 SHL SUB AND PUSH2 0x3119 PUSH2 0x1083 JUMP JUMPDEST PUSH1 0x24 SSTORE PUSH1 0x1D SLOAD TIMESTAMP SWAP1 PUSH1 0x1 PUSH1 0x1 PUSH1 0x40 SHL SUB PUSH1 0x1 PUSH1 0x40 SHL SWAP1 SWAP2 DIV DUP2 AND SWAP1 DUP3 AND GT PUSH2 0x3153 JUMPI PUSH1 0x40 MLOAD PUSH3 0x461BCD PUSH1 0xE5 SHL DUP2 MSTORE PUSH1 0x4 ADD PUSH2 0x14E3 SWAP1 PUSH2 0x494D JUMP JUMPDEST PUSH1 0xF SLOAD PUSH1 0x11 SLOAD PUSH1 0x40 MLOAD PUSH4 0x70A08231 PUSH1 0xE0 SHL DUP2 MSTORE ADDRESS PUSH1 0x4 DUP3 ADD MSTORE PUSH1 0x0 SWAP3 SWAP2 PUSH1 0x1 PUSH1 0x1 PUSH1 0xA0 SHL SUB AND SWAP1 PUSH4 0x70A08231 SWAP1 PUSH1 0x24 ADD PUSH1 0x20 PUSH1 0x40 MLOAD DUP1 DUP4 SUB DUP2 DUP7 GAS STATICCALL ISZERO DUP1 ISZERO PUSH2 0x31A0 JUMPI RETURNDATASIZE PUSH1 0x0 DUP1 RETURNDATACOPY RETURNDATASIZE PUSH1 0x0 REVERT JUMPDEST POP POP POP POP PUSH1 0x40 MLOAD RETURNDATASIZE PUSH1 0x1F NOT PUSH1 0x1F DUP3 ADD AND DUP3 ADD DUP1 PUSH1 0x40 MSTORE POP DUP2 ADD SWAP1 PUSH2 0x31C4 SWAP2 SWAP1 PUSH2 0x4991 JUMP JUMPDEST PUSH1 0x2 SLOAD PUSH1 0x11 SLOAD SWAP3 SWAP1 SWAP2 SUB SWAP3 POP PUSH1 0x1 PUSH1 0x1 PUSH1 0xA0 SHL SUB SWAP2 DUP3 AND SWAP2 AND EQ ISZERO PUSH2 0x31E9 JUMPI PUSH1 0x0 SLOAD SWAP1 SUB JUMPDEST DUP3 PUSH1 0x1 PUSH1 0x1 PUSH1 0x40 SHL SUB AND DUP2 GT ISZERO PUSH2 0x3227 JUMPI PUSH1 0x1 PUSH1 0x1 PUSH1 0x40 SHL SUB DUP4 AND PUSH1 0xA PUSH7 0x8E1BC9BF040000 DUP4 MUL DIV DUP2 PUSH2 0x321E JUMPI PUSH2 0x321E PUSH2 0x4937 JUMP JUMPDEST DIV PUSH1 0x1B SSTORE PUSH2 0x322D JUMP JUMPDEST PUSH1 0x0 PUSH1 0x1B SSTORE JUMPDEST PUSH1 0xA PUSH1 0x4 DUP3 MUL PUSH1 0x1E DUP1 SLOAD PUSH1 0x1 PUSH1 0x1 PUSH1 0x40 SHL SUB DUP1 DUP8 AND PUSH1 0x1 PUSH1 0xC0 SHL MUL PUSH1 0x1 PUSH1 0x1 PUSH1 0xC0 SHL SUB SWAP1 SWAP3 AND SWAP2 SWAP1 SWAP2 OR SWAP1 SWAP2 SSTORE PUSH1 0x1D DUP1 SLOAD DUP8 DUP8 ADD SWAP1 SWAP3 AND PUSH1 0x1 PUSH1 0x40 SHL MUL PUSH8 0xFFFFFFFFFFFFFFFF PUSH1 0x40 SHL NOT SWAP1 SWAP3 AND SWAP2 SWAP1 SWAP2 OR SWAP1 SSTORE PUSH1 0xF DUP1 SLOAD SWAP3 SWAP1 SWAP2 DIV SWAP2 DUP3 ADD SWAP1 SSTORE PUSH1 0x40 MLOAD DUP2 DUP2 MSTORE SWAP1 SWAP5 POP PUSH32 0x64D3CDE2DC1540606D230D87940FF48590614DDB49B6BBEF93518BEF1BE2788E SWAP1 PUSH1 0x20 ADD PUSH2 0x164E JUMP JUMPDEST PUSH1 0x0 PUSH1 0x6 SLOAD PUSH1 0x2 MUL PUSH1 0x10 ADD PUSH1 0xA EXP PUSH2 0x32D6 PUSH2 0x2595 JUMP JUMPDEST LT ISZERO PUSH2 0x3312 JUMPI PUSH1 0x1 PUSH1 0x1 PUSH1 0xA0 SHL SUB DUP3 AND PUSH1 0x0 SWAP1 DUP2 MSTORE PUSH1 0x28 PUSH1 0x20 MSTORE PUSH1 0x40 SWAP1 KECCAK256 PUSH1 0x1 DUP2 ADD SLOAD PUSH1 0x6 SLOAD SWAP2 SLOAD SWAP1 SWAP2 PUSH1 0x2 MUL PUSH1 0x10 ADD PUSH1 0xA EXP SWAP1 PUSH2 0xFD6 PUSH2 0x2595 JUMP JUMPDEST PUSH1 0x1 PUSH1 0x1 PUSH1 0xA0 SHL SUB DUP3 AND PUSH1 0x0 SWAP1 DUP2 MSTORE PUSH1 0x28 PUSH1 0x20 MSTORE PUSH1 0x40 SWAP1 KECCAK256 PUSH1 0x1 DUP2 ADD SLOAD PUSH1 0x6 SLOAD SWAP2 SLOAD SWAP1 SWAP2 PUSH1 0x2 MUL PUSH1 0x10 ADD PUSH1 0xA EXP SWAP1 PUSH2 0x1048 PUSH2 0x2595 JUMP JUMPDEST PUSH2 0x1451 CALLER DUP3 PUSH2 0x19D2 JUMP JUMPDEST PUSH1 0x0 DUP3 GT PUSH2 0x335F JUMPI PUSH1 0x0 DUP1 REVERT JUMPDEST POP PUSH1 0x9 SLOAD PUSH1 0x1 PUSH1 0x1 PUSH1 0x40 SHL SUB AND PUSH2 0x3374 PUSH2 0x3751 JUMP JUMPDEST PUSH1 0x1F SSTORE PUSH1 0x1C SLOAD TIMESTAMP SWAP1 PUSH1 0x1 PUSH1 0x1 PUSH1 0x40 SHL SUB SWAP1 DUP2 AND SWAP1 DUP3 AND GT PUSH2 0x33A7 JUMPI PUSH1 0x40 MLOAD PUSH3 0x461BCD PUSH1 0xE5 SHL DUP2 MSTORE PUSH1 0x4 ADD PUSH2 0x14E3 SWAP1 PUSH2 0x494D JUMP JUMPDEST PUSH1 0xA SLOAD PUSH1 0x15 SLOAD PUSH1 0x40 MLOAD PUSH4 0x70A08231 PUSH1 0xE0 SHL DUP2 MSTORE ADDRESS PUSH1 0x4 DUP3 ADD MSTORE PUSH1 0x0 SWAP3 SWAP2 PUSH1 0x1 PUSH1 0x1 PUSH1 0xA0 SHL SUB AND SWAP1 PUSH4 0x70A08231 SWAP1 PUSH1 0x24 ADD PUSH1 0x20 PUSH1 0x40 MLOAD DUP1 DUP4 SUB DUP2 DUP7 GAS STATICCALL ISZERO DUP1 ISZERO PUSH2 0x33F4 JUMPI RETURNDATASIZE PUSH1 0x0 DUP1 RETURNDATACOPY RETURNDATASIZE PUSH1 0x0 REVERT JUMPDEST POP POP POP POP PUSH1 0x40 MLOAD RETURNDATASIZE PUSH1 0x1F NOT PUSH1 0x1F DUP3 ADD AND DUP3 ADD DUP1 PUSH1 0x40 MSTORE POP DUP2 ADD SWAP1 PUSH2 0x3418 SWAP2 SWAP1 PUSH2 0x4991 JUMP JUMPDEST PUSH1 0x2 SLOAD PUSH1 0x15 SLOAD SWAP3 SWAP1 SWAP2 SUB SWAP3 POP PUSH1 0x1 PUSH1 0x1 PUSH1 0xA0 SHL SUB SWAP2 DUP3 AND SWAP2 AND EQ ISZERO PUSH2 0x343D JUMPI PUSH1 0x0 SLOAD SWAP1 SUB JUMPDEST PUSH1 0x3 DUP2 GT ISZERO PUSH2 0x3473 JUMPI PUSH1 0x1 PUSH1 0x1 PUSH1 0x40 SHL SUB DUP4 AND PUSH1 0xA PUSH7 0x8E1BC9BF040000 DUP4 MUL DIV DUP2 PUSH2 0x346A JUMPI PUSH2 0x346A PUSH2 0x4937 JUMP JUMPDEST DIV PUSH1 0x16 SSTORE PUSH2 0x3479 JUMP JUMPDEST PUSH1 0x0 PUSH1 0x16 SSTORE JUMPDEST PUSH1 0xA PUSH1 0x4 DUP3 MUL PUSH1 0x1D DUP1 SLOAD PUSH8 0xFFFFFFFFFFFFFFFF PUSH1 0x80 SHL NOT AND PUSH1 0x1 PUSH1 0x80 SHL PUSH1 0x1 PUSH1 0x1 PUSH1 0x40 SHL SUB DUP8 DUP2 AND SWAP2 SWAP1 SWAP2 MUL SWAP2 SWAP1 SWAP2 OR SWAP1 SWAP2 SSTORE PUSH1 0x1C DUP1 SLOAD PUSH8 0xFFFFFFFFFFFFFFFF NOT AND DUP8 DUP8 ADD SWAP1 SWAP3 AND SWAP2 SWAP1 SWAP2 OR SWAP1 SSTORE PUSH1 0xA DUP1 SLOAD SWAP3 SWAP1 SWAP2 DIV SWAP2 DUP3 ADD SWAP1 SSTORE PUSH1 0x40 MLOAD DUP2 DUP2 MSTORE SWAP1 SWAP5 POP PUSH32 0xDE88A922E0D3B88B24E9623EFEB464919C6BF9F66857A65E2BFCF2CE87A9433D SWAP1 PUSH1 0x20 ADD PUSH2 0x164E JUMP JUMPDEST PUSH1 0x0 DUP3 GT PUSH2 0x3514 JUMPI PUSH1 0x0 DUP1 REVERT JUMPDEST POP PUSH1 0x9 SLOAD PUSH1 0x1 PUSH1 0x1 PUSH1 0x40 SHL SUB AND PUSH2 0x3529 PUSH2 0x2595 JUMP JUMPDEST PUSH1 0x22 SSTORE PUSH1 0x1C SLOAD TIMESTAMP SWAP1 PUSH1 0x1 PUSH1 0x1 PUSH1 0x40 SHL SUB PUSH1 0x1 PUSH1 0xC0 SHL SWAP1 SWAP2 DIV DUP2 AND SWAP1 DUP3 AND GT PUSH2 0x3563 JUMPI PUSH1 0x40 MLOAD PUSH3 0x461BCD PUSH1 0xE5 SHL DUP2 MSTORE PUSH1 0x4 ADD PUSH2 0x14E3 SWAP1 PUSH2 0x494D JUMP JUMPDEST PUSH1 0xD SLOAD PUSH1 0x13 SLOAD PUSH1 0x40 MLOAD PUSH4 0x70A08231 PUSH1 0xE0 SHL DUP2 MSTORE ADDRESS PUSH1 0x4 DUP3 ADD MSTORE PUSH1 0x0 SWAP3 SWAP2 PUSH1 0x1 PUSH1 0x1 PUSH1 0xA0 SHL SUB AND SWAP1 PUSH4 0x70A08231 SWAP1 PUSH1 0x24 ADD PUSH1 0x20 PUSH1 0x40 MLOAD DUP1 DUP4 SUB DUP2 DUP7 GAS STATICCALL ISZERO DUP1 ISZERO PUSH2 0x35B0 JUMPI RETURNDATASIZE PUSH1 0x0 DUP1 RETURNDATACOPY RETURNDATASIZE PUSH1 0x0 REVERT JUMPDEST POP POP POP POP PUSH1 0x40 MLOAD RETURNDATASIZE PUSH1 0x1F NOT PUSH1 0x1F DUP3 ADD AND DUP3 ADD DUP1 PUSH1 0x40 MSTORE POP DUP2 ADD SWAP1 PUSH2 0x35D4 SWAP2 SWAP1 PUSH2 0x4991 JUMP JUMPDEST PUSH1 0x2 SLOAD PUSH1 0x13 SLOAD SWAP3 SWAP1 SWAP2 SUB SWAP3 POP PUSH1 0x1 PUSH1 0x1 PUSH1 0xA0 SHL SUB SWAP2 DUP3 AND SWAP2 AND EQ ISZERO PUSH2 0x35F9 JUMPI PUSH1 0x0 SLOAD SWAP1 SUB JUMPDEST DUP3 PUSH1 0x1 PUSH1 0x1 PUSH1 0x40 SHL SUB AND DUP2 GT ISZERO PUSH2 0x3644 JUMPI PUSH1 0xA PUSH1 0x1 PUSH1 0x1 PUSH1 0x40 SHL SUB DUP5 AND PUSH7 0x8E1BC9BF040000 DUP4 MUL DUP2 PUSH2 0x362D JUMPI PUSH2 0x362D PUSH2 0x4937 JUMP JUMPDEST DIV DUP2 PUSH2 0x363B JUMPI PUSH2 0x363B PUSH2 0x4937 JUMP JUMPDEST DIV PUSH1 0x19 SSTORE PUSH2 0x364A JUMP JUMPDEST PUSH1 0x0 PUSH1 0x19 SSTORE JUMPDEST PUSH1 0xA PUSH1 0x4 DUP3 MUL PUSH1 0x1E DUP1 SLOAD PUSH1 0x1 PUSH1 0x1 PUSH1 0x40 SHL SUB DUP1 DUP8 AND PUSH1 0x1 PUSH1 0x40 SHL MUL PUSH8 0xFFFFFFFFFFFFFFFF PUSH1 0x40 SHL NOT SWAP1 SWAP3 AND SWAP2 SWAP1 SWAP2 OR SWAP1 SWAP2 SSTORE PUSH1 0x1C DUP1 SLOAD DUP8 DUP8 ADD SWAP1 SWAP3 AND PUSH1 0x1 PUSH1 0xC0 SHL MUL PUSH1 0x1 PUSH1 0x1 PUSH1 0xC0 SHL SUB SWAP1 SWAP3 AND SWAP2 SWAP1 SWAP2 OR SWAP1 SSTORE PUSH1 0xD DUP1 SLOAD SWAP3 SWAP1 SWAP2 DIV SWAP2 DUP3 ADD SWAP1 SSTORE PUSH1 0x40 MLOAD DUP2 DUP2 MSTORE SWAP1 SWAP5 POP PUSH32 0xB37C80D67A02E9452CFE51996AD0F6FD57D8251EDEF007C7D84BEB157DDE7D2 SWAP1 PUSH1 0x20 ADD PUSH2 0x164E JUMP JUMPDEST PUSH1 0x0 DUP1 SLOAD DUP1 PUSH2 0x36EE JUMPI POP POP PUSH1 0x23 SLOAD SWAP1 JUMP JUMPDEST PUSH1 0x1E SLOAD PUSH1 0x0 SWAP1 PUSH1 0x1 PUSH1 0x80 SHL SWAP1 DIV PUSH1 0x1 PUSH1 0x1 PUSH1 0x40 SHL SUB AND PUSH2 0x370C PUSH2 0x10E7 JUMP JUMPDEST SUB PUSH1 0x1 PUSH1 0x1 PUSH1 0x40 SHL SUB AND SWAP1 POP DUP2 PUSH1 0x7 SLOAD PUSH1 0x2 MUL PUSH1 0xA EXP PUSH1 0x1A SLOAD DUP4 MUL MUL DUP2 PUSH2 0x3735 JUMPI PUSH2 0x3735 PUSH2 0x4937 JUMP JUMPDEST DIV PUSH1 0x23 SLOAD ADD SWAP3 POP POP POP SWAP1 JUMP JUMPDEST PUSH1 0x4 DUP2 DUP2 SLOAD DUP2 LT PUSH2 0x2609 JUMPI PUSH1 0x0 DUP1 REVERT JUMPDEST PUSH1 0x0 DUP1 SLOAD DUP1 PUSH2 0x3762 JUMPI POP POP PUSH1 0x1F SLOAD SWAP1 JUMP JUMPDEST PUSH1 0x1D SLOAD PUSH1 0x0 SWAP1 PUSH1 0x1 PUSH1 0x80 SHL SWAP1 DIV PUSH1 0x1 PUSH1 0x1 PUSH1 0x40 SHL SUB AND PUSH2 0x3780 PUSH2 0x2C13 JUMP JUMPDEST SUB PUSH1 0x1 PUSH1 0x1 PUSH1 0x40 SHL SUB AND SWAP1 POP DUP2 PUSH1 0x16 SLOAD DUP3 MUL PUSH15 0xC097CE7BC90715B34B9F1000000000 MUL DUP2 PUSH2 0x37B0 JUMPI PUSH2 0x37B0 PUSH2 0x4937 JUMP JUMPDEST DIV PUSH1 0x1F SLOAD ADD SWAP3 POP POP POP SWAP1 JUMP JUMPDEST CALLER PUSH1 0x0 PUSH2 0x37C7 PUSH2 0x3751 JUMP JUMPDEST SWAP1 POP PUSH1 0x0 PUSH2 0x37D3 PUSH2 0x2CC7 JUMP JUMPDEST SWAP1 POP PUSH1 0x0 PUSH2 0x37DF PUSH2 0x4240 JUMP JUMPDEST SWAP1 POP PUSH1 0x0 PUSH2 0x37EB PUSH2 0x2595 JUMP JUMPDEST SWAP1 POP PUSH1 0x0 PUSH2 0x37F7 PUSH2 0x36DD JUMP JUMPDEST SWAP1 POP PUSH1 0x0 PUSH2 0x3803 PUSH2 0x1083 JUMP JUMPDEST SWAP1 POP PUSH2 0x380D PUSH2 0x2C13 JUMP JUMPDEST PUSH1 0x1D PUSH1 0x10 PUSH2 0x100 EXP DUP2 SLOAD DUP2 PUSH1 0x1 PUSH1 0x1 PUSH1 0x40 SHL SUB MUL NOT AND SWAP1 DUP4 PUSH1 0x1 PUSH1 0x1 PUSH1 0x40 SHL SUB AND MUL OR SWAP1 SSTORE POP PUSH2 0x383B PUSH2 0x2D32 JUMP JUMPDEST PUSH1 0x1D PUSH1 0x18 PUSH2 0x100 EXP DUP2 SLOAD DUP2 PUSH1 0x1 PUSH1 0x1 PUSH1 0x40 SHL SUB MUL NOT AND SWAP1 DUP4 PUSH1 0x1 PUSH1 0x1 PUSH1 0x40 SHL SUB AND MUL OR SWAP1 SSTORE POP PUSH2 0x3869 PUSH2 0x30BD JUMP JUMPDEST PUSH1 0x1E DUP1 SLOAD PUSH8 0xFFFFFFFFFFFFFFFF NOT AND PUSH1 0x1 PUSH1 0x1 PUSH1 0x40 SHL SUB SWAP3 SWAP1 SWAP3 AND SWAP2 SWAP1 SWAP2 OR SWAP1 SSTORE PUSH2 0x3892 PUSH2 0x1454 JUMP JUMPDEST PUSH1 0x1E PUSH1 0x8 PUSH2 0x100 EXP DUP2 SLOAD DUP2 PUSH1 0x1 PUSH1 0x1 PUSH1 0x40 SHL SUB MUL NOT AND SWAP1 DUP4 PUSH1 0x1 PUSH1 0x1 PUSH1 0x40 SHL SUB AND MUL OR SWAP1 SSTORE POP PUSH2 0x38C0 PUSH2 0x10E7 JUMP JUMPDEST PUSH1 0x1E PUSH1 0x10 PUSH2 0x100 EXP DUP2 SLOAD DUP2 PUSH1 0x1 PUSH1 0x1 PUSH1 0x40 SHL SUB MUL NOT AND SWAP1 DUP4 PUSH1 0x1 PUSH1 0x1 PUSH1 0x40 SHL SUB AND MUL OR SWAP1 SSTORE POP PUSH2 0x38EE PUSH2 0x165C JUMP JUMPDEST PUSH1 0x1E DUP1 SLOAD PUSH1 0x1 PUSH1 0x1 PUSH1 0x40 SHL SUB SWAP3 SWAP1 SWAP3 AND PUSH1 0x1 PUSH1 0xC0 SHL MUL PUSH1 0x1 PUSH1 0x1 PUSH1 0xC0 SHL SUB SWAP1 SWAP3 AND SWAP2 SWAP1 SWAP2 OR SWAP1 SSTORE PUSH1 0x1F DUP7 SWAP1 SSTORE PUSH1 0x20 DUP6 SWAP1 SSTORE PUSH1 0x21 DUP5 SWAP1 SSTORE PUSH1 0x22 DUP4 SWAP1 SSTORE PUSH1 0x23 DUP3 SWAP1 SSTORE PUSH1 0x24 DUP2 SWAP1 SSTORE PUSH2 0x393C DUP8 PUSH2 0xF76 JUMP JUMPDEST PUSH1 0x1 PUSH1 0x1 PUSH1 0xA0 SHL SUB DUP9 AND PUSH1 0x0 SWAP1 DUP2 MSTORE PUSH1 0x25 PUSH1 0x20 MSTORE PUSH1 0x40 SWAP1 KECCAK256 PUSH1 0x1 ADD SSTORE PUSH2 0x3961 DUP8 PUSH2 0x434A JUMP JUMPDEST PUSH1 0x1 PUSH1 0x1 PUSH1 0xA0 SHL SUB DUP9 AND PUSH1 0x0 SWAP1 DUP2 MSTORE PUSH1 0x26 PUSH1 0x20 MSTORE PUSH1 0x40 SWAP1 KECCAK256 PUSH1 0x1 ADD SSTORE PUSH2 0x3986 DUP8 PUSH2 0x1696 JUMP JUMPDEST PUSH1 0x1 PUSH1 0x1 PUSH1 0xA0 SHL SUB DUP9 AND PUSH1 0x0 SWAP1 DUP2 MSTORE PUSH1 0x27 PUSH1 0x20 MSTORE PUSH1 0x40 SWAP1 KECCAK256 PUSH1 0x1 ADD SSTORE PUSH2 0x39AB DUP8 PUSH2 0x32C0 JUMP JUMPDEST PUSH1 0x1 PUSH1 0x1 PUSH1 0xA0 SHL SUB DUP9 AND PUSH1 0x0 SWAP1 DUP2 MSTORE PUSH1 0x28 PUSH1 0x20 MSTORE PUSH1 0x40 SWAP1 KECCAK256 PUSH1 0x1 ADD SSTORE PUSH2 0x39D0 DUP8 PUSH2 0x2C3F JUMP JUMPDEST PUSH1 0x1 PUSH1 0x1 PUSH1 0xA0 SHL SUB DUP9 AND PUSH1 0x0 SWAP1 DUP2 MSTORE PUSH1 0x29 PUSH1 0x20 MSTORE PUSH1 0x40 SWAP1 KECCAK256 PUSH1 0x1 ADD SSTORE PUSH2 0x39F5 DUP8 PUSH2 0x429F JUMP JUMPDEST PUSH1 0x1 PUSH1 0x1 PUSH1 0xA0 SHL SUB DUP9 AND PUSH1 0x0 SWAP1 DUP2 MSTORE PUSH1 0x2A PUSH1 0x20 DUP2 DUP2 MSTORE PUSH1 0x40 DUP1 DUP5 KECCAK256 PUSH1 0x1 DUP2 ADD SWAP6 SWAP1 SWAP6 SSTORE PUSH1 0x25 DUP3 MSTORE DUP1 DUP5 KECCAK256 DUP12 SWAP1 SSTORE PUSH1 0x26 DUP3 MSTORE DUP1 DUP5 KECCAK256 DUP11 SWAP1 SSTORE PUSH1 0x27 DUP3 MSTORE DUP1 DUP5 KECCAK256 DUP10 SWAP1 SSTORE PUSH1 0x28 DUP3 MSTORE DUP1 DUP5 KECCAK256 DUP9 SWAP1 SSTORE PUSH1 0x29 DUP3 MSTORE SWAP1 SWAP3 KECCAK256 DUP6 SWAP1 SSTORE SWAP1 MSTORE DUP2 SWAP1 SSTORE DUP8 PUSH2 0x3C2C JUMPI PUSH1 0x0 PUSH2 0x3A5F CALLER PUSH2 0xF76 JUMP JUMPDEST SWAP1 POP PUSH1 0x0 PUSH2 0x3A6C CALLER PUSH2 0x434A JUMP JUMPDEST SWAP1 POP DUP2 ISZERO PUSH2 0x3B2C JUMPI CALLER PUSH1 0x0 DUP2 DUP2 MSTORE PUSH1 0x25 PUSH1 0x20 MSTORE PUSH1 0x40 DUP1 DUP3 KECCAK256 PUSH1 0x1 ADD SWAP2 SWAP1 SWAP2 SSTORE PUSH1 0x15 SLOAD SWAP1 MLOAD PUSH4 0xA9059CBB PUSH1 0xE0 SHL DUP2 MSTORE PUSH1 0x1 PUSH1 0x1 PUSH1 0xA0 SHL SUB SWAP1 SWAP2 AND SWAP2 PUSH4 0xA9059CBB SWAP2 PUSH2 0x3ABB SWAP2 SWAP1 DUP7 SWAP1 PUSH1 0x4 ADD PUSH2 0x4A4C JUMP JUMPDEST PUSH1 0x20 PUSH1 0x40 MLOAD DUP1 DUP4 SUB DUP2 PUSH1 0x0 DUP8 GAS CALL ISZERO DUP1 ISZERO PUSH2 0x3ADA JUMPI RETURNDATASIZE PUSH1 0x0 DUP1 RETURNDATACOPY RETURNDATASIZE PUSH1 0x0 REVERT JUMPDEST POP POP POP POP PUSH1 0x40 MLOAD RETURNDATASIZE PUSH1 0x1F NOT PUSH1 0x1F DUP3 ADD AND DUP3 ADD DUP1 PUSH1 0x40 MSTORE POP DUP2 ADD SWAP1 PUSH2 0x3AFE SWAP2 SWAP1 PUSH2 0x4A65 JUMP JUMPDEST PUSH2 0x3B1A JUMPI PUSH1 0x40 MLOAD PUSH3 0x461BCD PUSH1 0xE5 SHL DUP2 MSTORE PUSH1 0x4 ADD PUSH2 0x14E3 SWAP1 PUSH2 0x4A87 JUMP JUMPDEST DUP2 PUSH1 0xA SLOAD PUSH2 0x3B28 SWAP2 SWAP1 PUSH2 0x4A35 JUMP JUMPDEST PUSH1 0xA SSTORE JUMPDEST DUP1 ISZERO PUSH2 0x3BEA JUMPI CALLER PUSH1 0x0 DUP2 DUP2 MSTORE PUSH1 0x26 PUSH1 0x20 MSTORE PUSH1 0x40 DUP1 DUP3 KECCAK256 PUSH1 0x1 ADD SWAP2 SWAP1 SWAP2 SSTORE PUSH1 0x14 SLOAD SWAP1 MLOAD PUSH4 0xA9059CBB PUSH1 0xE0 SHL DUP2 MSTORE PUSH1 0x1 PUSH1 0x1 PUSH1 0xA0 SHL SUB SWAP1 SWAP2 AND SWAP2 PUSH4 0xA9059CBB SWAP2 PUSH2 0x3B79 SWAP2 SWAP1 DUP6 SWAP1 PUSH1 0x4 ADD PUSH2 0x4A4C JUMP JUMPDEST PUSH1 0x20 PUSH1 0x40 MLOAD DUP1 DUP4 SUB DUP2 PUSH1 0x0 DUP8 GAS CALL ISZERO DUP1 ISZERO PUSH2 0x3B98 JUMPI RETURNDATASIZE PUSH1 0x0 DUP1 RETURNDATACOPY RETURNDATASIZE PUSH1 0x0 REVERT JUMPDEST POP POP POP POP PUSH1 0x40 MLOAD RETURNDATASIZE PUSH1 0x1F NOT PUSH1 0x1F DUP3 ADD AND DUP3 ADD DUP1 PUSH1 0x40 MSTORE POP DUP2 ADD SWAP1 PUSH2 0x3BBC SWAP2 SWAP1 PUSH2 0x4A65 JUMP JUMPDEST PUSH2 0x3BD8 JUMPI PUSH1 0x40 MLOAD PUSH3 0x461BCD PUSH1 0xE5 SHL DUP2 MSTORE PUSH1 0x4 ADD PUSH2 0x14E3 SWAP1 PUSH2 0x4AB7 JUMP JUMPDEST DUP1 PUSH1 0xB SLOAD PUSH2 0x3BE6 SWAP2 SWAP1 PUSH2 0x4A35 JUMP JUMPDEST PUSH1 0xB SSTORE JUMPDEST PUSH1 0x40 DUP1 MLOAD DUP4 DUP2 MSTORE PUSH1 0x20 DUP2 ADD DUP4 SWAP1 MSTORE CALLER SWAP2 PUSH32 0xA3AFEA219C0FF303D8C5C37CB6853C0CFE0C5772D2839B30405F40FE678AA910 SWAP2 ADD PUSH1 0x40 MLOAD DUP1 SWAP2 SUB SWAP1 LOG2 POP POP PUSH2 0x19C8 JUMP JUMPDEST DUP8 PUSH1 0x2 EQ ISZERO PUSH2 0x3D43 JUMPI PUSH1 0x0 PUSH2 0x3C40 CALLER PUSH2 0x434A JUMP JUMPDEST SWAP1 POP DUP1 ISZERO PUSH2 0x3D00 JUMPI CALLER PUSH1 0x0 DUP2 DUP2 MSTORE PUSH1 0x26 PUSH1 0x20 MSTORE PUSH1 0x40 DUP1 DUP3 KECCAK256 PUSH1 0x1 ADD SWAP2 SWAP1 SWAP2 SSTORE PUSH1 0x14 SLOAD SWAP1 MLOAD PUSH4 0xA9059CBB PUSH1 0xE0 SHL DUP2 MSTORE PUSH1 0x1 PUSH1 0x1 PUSH1 0xA0 SHL SUB SWAP1 SWAP2 AND SWAP2 PUSH4 0xA9059CBB SWAP2 PUSH2 0x3C8F SWAP2 SWAP1 DUP6 SWAP1 PUSH1 0x4 ADD PUSH2 0x4A4C JUMP JUMPDEST PUSH1 0x20 PUSH1 0x40 MLOAD DUP1 DUP4 SUB DUP2 PUSH1 0x0 DUP8 GAS CALL ISZERO DUP1 ISZERO PUSH2 0x3CAE JUMPI RETURNDATASIZE PUSH1 0x0 DUP1 RETURNDATACOPY RETURNDATASIZE PUSH1 0x0 REVERT JUMPDEST POP POP POP POP PUSH1 0x40 MLOAD RETURNDATASIZE PUSH1 0x1F NOT PUSH1 0x1F DUP3 ADD AND DUP3 ADD DUP1 PUSH1 0x40 MSTORE POP DUP2 ADD SWAP1 PUSH2 0x3CD2 SWAP2 SWAP1 PUSH2 0x4A65 JUMP JUMPDEST PUSH2 0x3CEE JUMPI PUSH1 0x40 MLOAD PUSH3 0x461BCD PUSH1 0xE5 SHL DUP2 MSTORE PUSH1 0x4 ADD PUSH2 0x14E3 SWAP1 PUSH2 0x4AB7 JUMP JUMPDEST DUP1 PUSH1 0xB SLOAD PUSH2 0x3CFC SWAP2 SWAP1 PUSH2 0x4A35 JUMP JUMPDEST PUSH1 0xB SSTORE JUMPDEST PUSH1 0x40 DUP1 MLOAD PUSH1 0x0 DUP2 MSTORE PUSH1 0x20 DUP2 ADD DUP4 SWAP1 MSTORE CALLER SWAP2 PUSH32 0xA3AFEA219C0FF303D8C5C37CB6853C0CFE0C5772D2839B30405F40FE678AA910 SWAP2 ADD JUMPDEST PUSH1 0x40 MLOAD DUP1 SWAP2 SUB SWAP1 LOG2 POP PUSH2 0x19C8 JUMP JUMPDEST DUP8 PUSH1 0x1 EQ ISZERO PUSH2 0x3E4F JUMPI PUSH1 0x0 PUSH2 0x3D57 CALLER PUSH2 0xF76 JUMP JUMPDEST SWAP1 POP DUP1 ISZERO PUSH2 0x3E17 JUMPI CALLER PUSH1 0x0 DUP2 DUP2 MSTORE PUSH1 0x25 PUSH1 0x20 MSTORE PUSH1 0x40 DUP1 DUP3 KECCAK256 PUSH1 0x1 ADD SWAP2 SWAP1 SWAP2 SSTORE PUSH1 0x15 SLOAD SWAP1 MLOAD PUSH4 0xA9059CBB PUSH1 0xE0 SHL DUP2 MSTORE PUSH1 0x1 PUSH1 0x1 PUSH1 0xA0 SHL SUB SWAP1 SWAP2 AND SWAP2 PUSH4 0xA9059CBB SWAP2 PUSH2 0x3DA6 SWAP2 SWAP1 DUP6 SWAP1 PUSH1 0x4 ADD PUSH2 0x4A4C JUMP JUMPDEST PUSH1 0x20 PUSH1 0x40 MLOAD DUP1 DUP4 SUB DUP2 PUSH1 0x0 DUP8 GAS CALL ISZERO DUP1 ISZERO PUSH2 0x3DC5 JUMPI RETURNDATASIZE PUSH1 0x0 DUP1 RETURNDATACOPY RETURNDATASIZE PUSH1 0x0 REVERT JUMPDEST POP POP POP POP PUSH1 0x40 MLOAD RETURNDATASIZE PUSH1 0x1F NOT PUSH1 0x1F DUP3 ADD AND DUP3 ADD DUP1 PUSH1 0x40 MSTORE POP DUP2 ADD SWAP1 PUSH2 0x3DE9 SWAP2 SWAP1 PUSH2 0x4A65 JUMP JUMPDEST PUSH2 0x3E05 JUMPI PUSH1 0x40 MLOAD PUSH3 0x461BCD PUSH1 0xE5 SHL DUP2 MSTORE PUSH1 0x4 ADD PUSH2 0x14E3 SWAP1 PUSH2 0x4A87 JUMP JUMPDEST DUP1 PUSH1 0xA SLOAD PUSH2 0x3E13 SWAP2 SWAP1 PUSH2 0x4A35 JUMP JUMPDEST PUSH1 0xA SSTORE JUMPDEST PUSH1 0x40 DUP1 MLOAD DUP3 DUP2 MSTORE PUSH1 0x0 PUSH1 0x20 DUP3 ADD MSTORE CALLER SWAP2 PUSH32 0xA3AFEA219C0FF303D8C5C37CB6853C0CFE0C5772D2839B30405F40FE678AA910 SWAP2 ADD PUSH2 0x3D35 JUMP JUMPDEST DUP8 PUSH1 0x3 EQ ISZERO PUSH2 0x3F20 JUMPI PUSH1 0x0 PUSH2 0x3E63 CALLER PUSH2 0x1696 JUMP JUMPDEST SWAP1 POP DUP1 ISZERO PUSH2 0x3EEE JUMPI CALLER PUSH1 0x0 DUP2 DUP2 MSTORE PUSH1 0x27 PUSH1 0x20 MSTORE PUSH1 0x40 DUP1 DUP3 KECCAK256 PUSH1 0x1 ADD DUP3 SWAP1 SSTORE MLOAD DUP3 SWAP2 DUP5 ISZERO PUSH2 0x8FC MUL SWAP2 DUP6 SWAP2 DUP2 DUP2 DUP2 DUP6 DUP9 DUP9 CALL SWAP4 POP POP POP POP PUSH2 0x3EDB JUMPI PUSH1 0x40 MLOAD PUSH3 0x461BCD PUSH1 0xE5 SHL DUP2 MSTORE PUSH1 0x20 PUSH1 0x4 DUP3 ADD MSTORE PUSH1 0x13 PUSH1 0x24 DUP3 ADD MSTORE PUSH19 0x115D1A081D1C985B9CD9995C8819985A5B1959 PUSH1 0x6A SHL PUSH1 0x44 DUP3 ADD MSTORE PUSH1 0x64 ADD PUSH2 0x14E3 JUMP JUMPDEST DUP2 PUSH1 0xC SLOAD PUSH2 0x3EE9 SWAP2 SWAP1 PUSH2 0x4A35 JUMP JUMPDEST PUSH1 0xC SSTORE POP JUMPDEST PUSH1 0x40 MLOAD DUP2 DUP2 MSTORE CALLER SWAP1 PUSH32 0x48DD3928DB90E52C8CBCF928DB48FFC4D39E086383222340458017E0DA391E53 SWAP1 PUSH1 0x20 ADD PUSH2 0x3D35 JUMP JUMPDEST DUP8 PUSH1 0x4 EQ ISZERO PUSH2 0x4026 JUMPI PUSH1 0x0 PUSH2 0x3F34 CALLER PUSH2 0x32C0 JUMP JUMPDEST SWAP1 POP DUP1 ISZERO PUSH2 0x3FF4 JUMPI CALLER PUSH1 0x0 DUP2 DUP2 MSTORE PUSH1 0x28 PUSH1 0x20 MSTORE PUSH1 0x40 DUP1 DUP3 KECCAK256 PUSH1 0x1 ADD SWAP2 SWAP1 SWAP2 SSTORE PUSH1 0x13 SLOAD SWAP1 MLOAD PUSH4 0xA9059CBB PUSH1 0xE0 SHL DUP2 MSTORE PUSH1 0x1 PUSH1 0x1 PUSH1 0xA0 SHL SUB SWAP1 SWAP2 AND SWAP2 PUSH4 0xA9059CBB SWAP2 PUSH2 0x3F83 SWAP2 SWAP1 DUP6 SWAP1 PUSH1 0x4 ADD PUSH2 0x4A4C JUMP JUMPDEST PUSH1 0x20 PUSH1 0x40 MLOAD DUP1 DUP4 SUB DUP2 PUSH1 0x0 DUP8 GAS CALL ISZERO DUP1 ISZERO PUSH2 0x3FA2 JUMPI RETURNDATASIZE PUSH1 0x0 DUP1 RETURNDATACOPY RETURNDATASIZE PUSH1 0x0 REVERT JUMPDEST POP POP POP POP PUSH1 0x40 MLOAD RETURNDATASIZE PUSH1 0x1F NOT PUSH1 0x1F DUP3 ADD AND DUP3 ADD DUP1 PUSH1 0x40 MSTORE POP DUP2 ADD SWAP1 PUSH2 0x3FC6 SWAP2 SWAP1 PUSH2 0x4A65 JUMP JUMPDEST PUSH2 0x3FE2 JUMPI PUSH1 0x40 MLOAD PUSH3 0x461BCD PUSH1 0xE5 SHL DUP2 MSTORE PUSH1 0x4 ADD PUSH2 0x14E3 SWAP1 PUSH2 0x4A87 JUMP JUMPDEST DUP1 PUSH1 0xD SLOAD PUSH2 0x3FF0 SWAP2 SWAP1 PUSH2 0x4A35 JUMP JUMPDEST PUSH1 0xD SSTORE JUMPDEST PUSH1 0x40 MLOAD DUP2 DUP2 MSTORE CALLER SWAP1 PUSH32 0x525FC558FCBF99ABB520246F57C090E574F034F2338829FCBF008D64DF2C3C15 SWAP1 PUSH1 0x20 ADD PUSH2 0x3D35 JUMP JUMPDEST DUP8 PUSH1 0x5 EQ ISZERO PUSH2 0x412C JUMPI PUSH1 0x0 PUSH2 0x403A CALLER PUSH2 0x2C3F JUMP JUMPDEST SWAP1 POP DUP1 ISZERO PUSH2 0x40FA JUMPI CALLER PUSH1 0x0 DUP2 DUP2 MSTORE PUSH1 0x29 PUSH1 0x20 MSTORE PUSH1 0x40 DUP1 DUP3 KECCAK256 PUSH1 0x1 ADD SWAP2 SWAP1 SWAP2 SSTORE PUSH1 0x12 SLOAD SWAP1 MLOAD PUSH4 0xA9059CBB PUSH1 0xE0 SHL DUP2 MSTORE PUSH1 0x1 PUSH1 0x1 PUSH1 0xA0 SHL SUB SWAP1 SWAP2 AND SWAP2 PUSH4 0xA9059CBB SWAP2 PUSH2 0x4089 SWAP2 SWAP1 DUP6 SWAP1 PUSH1 0x4 ADD PUSH2 0x4A4C JUMP JUMPDEST PUSH1 0x20 PUSH1 0x40 MLOAD DUP1 DUP4 SUB DUP2 PUSH1 0x0 DUP8 GAS CALL ISZERO DUP1 ISZERO PUSH2 0x40A8 JUMPI RETURNDATASIZE PUSH1 0x0 DUP1 RETURNDATACOPY RETURNDATASIZE PUSH1 0x0 REVERT JUMPDEST POP POP POP POP PUSH1 0x40 MLOAD RETURNDATASIZE PUSH1 0x1F NOT PUSH1 0x1F DUP3 ADD AND DUP3 ADD DUP1 PUSH1 0x40 MSTORE POP DUP2 ADD SWAP1 PUSH2 0x40CC SWAP2 SWAP1 PUSH2 0x4A65 JUMP JUMPDEST PUSH2 0x40E8 JUMPI PUSH1 0x40 MLOAD PUSH3 0x461BCD PUSH1 0xE5 SHL DUP2 MSTORE PUSH1 0x4 ADD PUSH2 0x14E3 SWAP1 PUSH2 0x4AB7 JUMP JUMPDEST DUP1 PUSH1 0xE SLOAD PUSH2 0x40F6 SWAP2 SWAP1 PUSH2 0x4A35 JUMP JUMPDEST PUSH1 0xE SSTORE JUMPDEST PUSH1 0x40 MLOAD DUP2 DUP2 MSTORE CALLER SWAP1 PUSH32 0x61A694449708C0D360F1B95319C392B649BC5754615AC48FC1EE448DD6CC993C SWAP1 PUSH1 0x20 ADD PUSH2 0x3D35 JUMP JUMPDEST DUP8 PUSH1 0x6 EQ ISZERO PUSH2 0x19C8 JUMPI PUSH1 0x0 PUSH2 0x4140 CALLER PUSH2 0x429F JUMP JUMPDEST SWAP1 POP DUP1 ISZERO PUSH2 0x4200 JUMPI CALLER PUSH1 0x0 DUP2 DUP2 MSTORE PUSH1 0x2A PUSH1 0x20 MSTORE PUSH1 0x40 DUP1 DUP3 KECCAK256 PUSH1 0x1 ADD SWAP2 SWAP1 SWAP2 SSTORE PUSH1 0x11 SLOAD SWAP1 MLOAD PUSH4 0xA9059CBB PUSH1 0xE0 SHL DUP2 MSTORE PUSH1 0x1 PUSH1 0x1 PUSH1 0xA0 SHL SUB SWAP1 SWAP2 AND SWAP2 PUSH4 0xA9059CBB SWAP2 PUSH2 0x418F SWAP2 SWAP1 DUP6 SWAP1 PUSH1 0x4 ADD PUSH2 0x4A4C JUMP JUMPDEST PUSH1 0x20 PUSH1 0x40 MLOAD DUP1 DUP4 SUB DUP2 PUSH1 0x0 DUP8 GAS CALL ISZERO DUP1 ISZERO PUSH2 0x41AE JUMPI RETURNDATASIZE PUSH1 0x0 DUP1 RETURNDATACOPY RETURNDATASIZE PUSH1 0x0 REVERT JUMPDEST POP POP POP POP PUSH1 0x40 MLOAD RETURNDATASIZE PUSH1 0x1F NOT PUSH1 0x1F DUP3 ADD AND DUP3 ADD DUP1 PUSH1 0x40 MSTORE POP DUP2 ADD SWAP1 PUSH2 0x41D2 SWAP2 SWAP1 PUSH2 0x4A65 JUMP JUMPDEST PUSH2 0x41EE JUMPI PUSH1 0x40 MLOAD PUSH3 0x461BCD PUSH1 0xE5 SHL DUP2 MSTORE PUSH1 0x4 ADD PUSH2 0x14E3 SWAP1 PUSH2 0x4AB7 JUMP JUMPDEST DUP1 PUSH1 0xF SLOAD PUSH2 0x41FC SWAP2 SWAP1 PUSH2 0x4A35 JUMP JUMPDEST PUSH1 0xF SSTORE JUMPDEST PUSH1 0x40 MLOAD DUP2 DUP2 MSTORE CALLER SWAP1 PUSH32 0xDD747D764DA1C38C629FF5E7953E2F9755A9017BB1C0977F4A3E8158A85CCE8A SWAP1 PUSH1 0x20 ADD PUSH1 0x40 MLOAD DUP1 SWAP2 SUB SWAP1 LOG2 POP POP POP POP POP POP POP POP POP JUMP JUMPDEST PUSH1 0x0 DUP1 SLOAD DUP1 PUSH2 0x4251 JUMPI POP POP PUSH1 0x21 SLOAD SWAP1 JUMP JUMPDEST PUSH1 0x1E SLOAD PUSH1 0x0 SWAP1 PUSH1 0x1 PUSH1 0x1 PUSH1 0x40 SHL SUB AND PUSH2 0x4268 PUSH2 0x30BD JUMP JUMPDEST SUB PUSH1 0x1 PUSH1 0x1 PUSH1 0x40 SHL SUB AND SWAP1 POP DUP2 PUSH1 0x18 SLOAD DUP3 MUL PUSH10 0xD3C21BCECCEDA1000000 MUL DUP2 PUSH2 0x4293 JUMPI PUSH2 0x4293 PUSH2 0x4937 JUMP JUMPDEST DIV PUSH1 0x21 SLOAD ADD SWAP3 POP POP POP SWAP1 JUMP JUMPDEST PUSH1 0x0 PUSH1 0x8 SLOAD PUSH1 0x2 MUL PUSH1 0x10 ADD PUSH1 0xA EXP PUSH2 0x42B5 PUSH2 0x1083 JUMP JUMPDEST LT ISZERO PUSH2 0x42F1 JUMPI PUSH1 0x1 PUSH1 0x1 PUSH1 0xA0 SHL SUB DUP3 AND PUSH1 0x0 SWAP1 DUP2 MSTORE PUSH1 0x2A PUSH1 0x20 MSTORE PUSH1 0x40 SWAP1 KECCAK256 PUSH1 0x1 DUP2 ADD SLOAD PUSH1 0x8 SLOAD SWAP2 SLOAD SWAP1 SWAP2 PUSH1 0x2 MUL PUSH1 0x10 ADD PUSH1 0xA EXP SWAP1 PUSH2 0xFD6 PUSH2 0x1083 JUMP JUMPDEST PUSH1 0x1 PUSH1 0x1 PUSH1 0xA0 SHL SUB DUP3 AND PUSH1 0x0 SWAP1 DUP2 MSTORE PUSH1 0x2A PUSH1 0x20 MSTORE PUSH1 0x40 SWAP1 KECCAK256 PUSH1 0x1 DUP2 ADD SLOAD PUSH1 0x8 SLOAD SWAP2 SLOAD SWAP1 SWAP2 PUSH1 0x2 MUL PUSH1 0x10 ADD PUSH1 0xA EXP SWAP1 PUSH2 0x1048 PUSH2 0x1083 JUMP JUMPDEST PUSH2 0x432F PUSH2 0x1E13 JUMP JUMPDEST CALLER PUSH1 0x0 SWAP1 DUP2 MSTORE PUSH1 0x1 PUSH1 0x20 MSTORE PUSH1 0x40 SWAP1 KECCAK256 SLOAD PUSH2 0x4348 SWAP1 PUSH2 0x172C JUMP JUMPDEST JUMP JUMPDEST PUSH1 0x0 PUSH16 0x1ABA4714957D300D0E549208B31ADB1 PUSH1 0x34 SHL PUSH2 0x4368 PUSH2 0x2CC7 JUMP JUMPDEST LT ISZERO PUSH2 0x43AA JUMPI PUSH1 0x1 PUSH1 0x1 PUSH1 0xA0 SHL SUB DUP3 AND PUSH1 0x0 SWAP1 DUP2 MSTORE PUSH1 0x26 PUSH1 0x20 MSTORE PUSH1 0x40 SWAP1 KECCAK256 PUSH1 0x1 DUP2 ADD SLOAD SWAP1 SLOAD PUSH16 0x1ABA4714957D300D0E549208B31ADB1 PUSH1 0x34 SHL SWAP1 PUSH2 0xFD6 PUSH2 0x2CC7 JUMP JUMPDEST PUSH1 0x1 PUSH1 0x1 PUSH1 0xA0 SHL SUB DUP3 AND PUSH1 0x0 SWAP1 DUP2 MSTORE PUSH1 0x26 PUSH1 0x20 MSTORE PUSH1 0x40 SWAP1 KECCAK256 PUSH1 0x1 DUP2 ADD SLOAD SWAP1 SLOAD PUSH16 0x1ABA4714957D300D0E549208B31ADB1 PUSH1 0x34 SHL SWAP1 PUSH2 0x1048 PUSH2 0x2CC7 JUMP JUMPDEST CALLER PUSH1 0x0 SWAP1 DUP2 MSTORE PUSH1 0x1 PUSH1 0x20 MSTORE PUSH1 0x40 SWAP1 KECCAK256 SLOAD DUP2 GT ISZERO PUSH2 0x4445 JUMPI PUSH1 0x40 MLOAD PUSH3 0x461BCD PUSH1 0xE5 SHL DUP2 MSTORE PUSH1 0x20 PUSH1 0x4 DUP3 ADD MSTORE PUSH1 0x1A PUSH1 0x24 DUP3 ADD MSTORE PUSH32 0x77697468647261773A2062616C616E6365206973206C6F776572000000000000 PUSH1 0x44 DUP3 ADD MSTORE PUSH1 0x64 ADD PUSH2 0x14E3 JUMP JUMPDEST CALLER PUSH1 0x0 SWAP1 DUP2 MSTORE PUSH1 0x1 PUSH1 0x20 MSTORE PUSH1 0x40 DUP2 KECCAK256 DUP1 SLOAD DUP4 SWAP1 SUB SWAP1 SSTORE DUP1 SLOAD DUP3 SWAP1 SUB SWAP1 SSTORE PUSH1 0x2 SLOAD PUSH1 0x1 PUSH1 0x1 PUSH1 0xA0 SHL SUB AND DUP1 PUSH2 0x4508 JUMPI PUSH1 0x40 MLOAD PUSH1 0x0 SWAP1 CALLER SWAP1 DUP5 SWAP1 DUP4 DUP2 DUP2 DUP2 DUP6 DUP8 GAS CALL SWAP3 POP POP POP RETURNDATASIZE DUP1 PUSH1 0x0 DUP2 EQ PUSH2 0x44B5 JUMPI PUSH1 0x40 MLOAD SWAP2 POP PUSH1 0x1F NOT PUSH1 0x3F RETURNDATASIZE ADD AND DUP3 ADD PUSH1 0x40 MSTORE RETURNDATASIZE DUP3 MSTORE RETURNDATASIZE PUSH1 0x0 PUSH1 0x20 DUP5 ADD RETURNDATACOPY PUSH2 0x44BA JUMP JUMPDEST PUSH1 0x60 SWAP2 POP JUMPDEST POP POP SWAP1 POP DUP1 PUSH2 0x4502 JUMPI PUSH1 0x40 MLOAD PUSH3 0x461BCD PUSH1 0xE5 SHL DUP2 MSTORE PUSH1 0x20 PUSH1 0x4 DUP3 ADD MSTORE PUSH1 0x14 PUSH1 0x24 DUP3 ADD MSTORE PUSH20 0x657468207472616E73666572206661696C757265 PUSH1 0x60 SHL PUSH1 0x44 DUP3 ADD MSTORE PUSH1 0x64 ADD PUSH2 0x14E3 JUMP JUMPDEST POP PUSH2 0x45D3 JUMP JUMPDEST PUSH1 0x2 SLOAD PUSH1 0x40 MLOAD PUSH4 0xA9059CBB PUSH1 0xE0 SHL DUP2 MSTORE PUSH1 0x1 PUSH1 0x1 PUSH1 0xA0 SHL SUB SWAP1 SWAP2 AND SWAP1 PUSH4 0xA9059CBB SWAP1 PUSH2 0x453A SWAP1 CALLER SWAP1 DUP7 SWAP1 PUSH1 0x4 ADD PUSH2 0x4A4C JUMP JUMPDEST PUSH1 0x20 PUSH1 0x40 MLOAD DUP1 DUP4 SUB DUP2 PUSH1 0x0 DUP8 GAS CALL ISZERO DUP1 ISZERO PUSH2 0x4559 JUMPI RETURNDATASIZE PUSH1 0x0 DUP1 RETURNDATACOPY RETURNDATASIZE PUSH1 0x0 REVERT JUMPDEST POP POP POP POP PUSH1 0x40 MLOAD RETURNDATASIZE PUSH1 0x1F NOT PUSH1 0x1F DUP3 ADD AND DUP3 ADD DUP1 PUSH1 0x40 MSTORE POP DUP2 ADD SWAP1 PUSH2 0x457D SWAP2 SWAP1 PUSH2 0x4A65 JUMP JUMPDEST PUSH1 0x40 MLOAD DUP1 PUSH1 0x40 ADD PUSH1 0x40 MSTORE DUP1 PUSH1 0x1C DUP2 MSTORE PUSH1 0x20 ADD PUSH32 0x7374616B656420746F6B656E207472616E73666572206661696C656400000000 DUP2 MSTORE POP SWAP1 PUSH2 0x45D1 JUMPI PUSH1 0x40 MLOAD PUSH3 0x461BCD PUSH1 0xE5 SHL DUP2 MSTORE PUSH1 0x4 ADD PUSH2 0x14E3 SWAP2 SWAP1 PUSH2 0x4B4C JUMP JUMPDEST POP JUMPDEST PUSH1 0x40 MLOAD DUP3 DUP2 MSTORE CALLER SWAP1 PUSH32 0x7084F5476618D8E60B11EF0D7D3F06914655ADB8793E28FF7F018D4C76D505D5 SWAP1 PUSH1 0x20 ADD PUSH1 0x40 MLOAD DUP1 SWAP2 SUB SWAP1 LOG2 POP POP JUMP JUMPDEST PUSH1 0x2 SLOAD PUSH1 0x1 PUSH1 0x1 PUSH1 0xA0 SHL SUB AND DUP1 PUSH2 0x4649 JUMPI PUSH1 0x0 DUP1 SLOAD CALLVALUE SWAP1 DUP2 ADD DUP3 SSTORE PUSH1 0x1 PUSH1 0x1 PUSH1 0xA0 SHL SUB DUP6 AND DUP3 MSTORE PUSH1 0x1 PUSH1 0x20 MSTORE PUSH1 0x40 SWAP1 SWAP2 KECCAK256 DUP1 SLOAD SWAP1 SWAP2 ADD SWAP1 SSTORE PUSH2 0x47B7 JUMP JUMPDEST CALLVALUE ISZERO PUSH2 0x4686 JUMPI PUSH1 0x40 MLOAD PUSH3 0x461BCD PUSH1 0xE5 SHL DUP2 MSTORE PUSH1 0x20 PUSH1 0x4 DUP3 ADD MSTORE PUSH1 0xC PUSH1 0x24 DUP3 ADD MSTORE PUSH12 0xDCDEDC5AF4CAE4DE40CAE8D PUSH1 0xA3 SHL PUSH1 0x44 DUP3 ADD MSTORE PUSH1 0x64 ADD PUSH2 0x14E3 JUMP JUMPDEST PUSH1 0x0 DUP3 GT PUSH2 0x46C7 JUMPI PUSH1 0x40 MLOAD PUSH3 0x461BCD PUSH1 0xE5 SHL DUP2 MSTORE PUSH1 0x20 PUSH1 0x4 DUP3 ADD MSTORE PUSH1 0xE PUSH1 0x24 DUP3 ADD MSTORE PUSH14 0x43616E6E6F74207374616B65203 PUSH1 0x94 SHL PUSH1 0x44 DUP3 ADD MSTORE PUSH1 0x64 ADD PUSH2 0x14E3 JUMP JUMPDEST PUSH1 0x40 MLOAD PUSH4 0x23B872DD PUSH1 0xE0 SHL DUP2 MSTORE CALLER PUSH1 0x4 DUP3 ADD MSTORE ADDRESS PUSH1 0x24 DUP3 ADD MSTORE PUSH1 0x44 DUP2 ADD DUP4 SWAP1 MSTORE PUSH1 0x1 PUSH1 0x1 PUSH1 0xA0 SHL SUB DUP3 AND SWAP1 PUSH4 0x23B872DD SWAP1 PUSH1 0x64 ADD PUSH1 0x20 PUSH1 0x40 MLOAD DUP1 DUP4 SUB DUP2 PUSH1 0x0 DUP8 GAS CALL ISZERO DUP1 ISZERO PUSH2 0x471A JUMPI RETURNDATASIZE PUSH1 0x0 DUP1 RETURNDATACOPY RETURNDATASIZE PUSH1 0x0 REVERT JUMPDEST POP POP POP POP PUSH1 0x40 MLOAD RETURNDATASIZE PUSH1 0x1F NOT PUSH1 0x1F DUP3 ADD AND DUP3 ADD DUP1 PUSH1 0x40 MSTORE POP DUP2 ADD SWAP1 PUSH2 0x473E SWAP2 SWAP1 PUSH2 0x4A65 JUMP JUMPDEST PUSH1 0x40 MLOAD DUP1 PUSH1 0x40 ADD PUSH1 0x40 MSTORE DUP1 PUSH1 0x1C DUP2 MSTORE PUSH1 0x20 ADD PUSH32 0x7374616B656420746F6B656E207472616E73666572206661696C656400000000 DUP2 MSTORE POP SWAP1 PUSH2 0x4792 JUMPI PUSH1 0x40 MLOAD PUSH3 0x461BCD PUSH1 0xE5 SHL DUP2 MSTORE PUSH1 0x4 ADD PUSH2 0x14E3 SWAP2 SWAP1 PUSH2 0x4B4C JUMP JUMPDEST POP PUSH1 0x0 DUP1 SLOAD DUP4 ADD DUP2 SSTORE PUSH1 0x1 PUSH1 0x1 PUSH1 0xA0 SHL SUB DUP5 AND DUP2 MSTORE PUSH1 0x1 PUSH1 0x20 MSTORE PUSH1 0x40 SWAP1 KECCAK256 DUP1 SLOAD DUP4 ADD SWAP1 SSTORE JUMPDEST DUP3 PUSH1 0x1 PUSH1 0x1 PUSH1 0xA0 SHL SUB AND PUSH32 0x9E71BC8EEA02A63969F509818F2DAFB9254532904319F9DBDA79B67BD34A5F3D DUP4 PUSH1 0x40 MLOAD PUSH2 0x47F2 SWAP2 DUP2 MSTORE PUSH1 0x20 ADD SWAP1 JUMP JUMPDEST PUSH1 0x40 MLOAD DUP1 SWAP2 SUB SWAP1 LOG2 POP POP POP JUMP JUMPDEST PUSH1 0x3 SLOAD PUSH1 0x40 MLOAD PUSH1 0x1 PUSH1 0x1 PUSH1 0xA0 SHL SUB DUP1 DUP5 AND SWAP3 AND SWAP1 PUSH32 0x8BE0079C531659141344CD1FD0A4F28419497F9722A3DAAFE3B4186F6B6457E0 SWAP1 PUSH1 0x0 SWAP1 LOG3 PUSH1 0x3 DUP1 SLOAD PUSH1 0x1 PUSH1 0x1 PUSH1 0xA0 SHL SUB NOT AND PUSH1 0x1 PUSH1 0x1 PUSH1 0xA0 SHL SUB SWAP3 SWAP1 SWAP3 AND SWAP2 SWAP1 SWAP2 OR SWAP1 SSTORE JUMP JUMPDEST PUSH1 0x1 PUSH1 0x1 PUSH1 0xA0 SHL SUB DUP2 AND DUP2 EQ PUSH2 0x1451 JUMPI PUSH1 0x0 DUP1 REVERT JUMPDEST PUSH1 0x0 PUSH1 0x20 DUP3 DUP5 SUB SLT ISZERO PUSH2 0x4882 JUMPI PUSH1 0x0 DUP1 REVERT JUMPDEST DUP2 CALLDATALOAD PUSH2 0x488D DUP2 PUSH2 0x485B JUMP JUMPDEST SWAP4 SWAP3 POP POP POP JUMP JUMPDEST PUSH1 0x0 PUSH1 0x20 DUP3 DUP5 SUB SLT ISZERO PUSH2 0x48A6 JUMPI PUSH1 0x0 DUP1 REVERT JUMPDEST POP CALLDATALOAD SWAP2 SWAP1 POP JUMP JUMPDEST DUP1 CALLDATALOAD PUSH1 0x1 PUSH1 0x1 PUSH1 0x40 SHL SUB DUP2 AND DUP2 EQ PUSH2 0x107E JUMPI PUSH1 0x0 DUP1 REVERT JUMPDEST PUSH1 0x0 DUP1 PUSH1 0x40 DUP4 DUP6 SUB SLT ISZERO PUSH2 0x48D7 JUMPI PUSH1 0x0 DUP1 REVERT JUMPDEST DUP3 CALLDATALOAD SWAP2 POP PUSH2 0x48E7 PUSH1 0x20 DUP5 ADD PUSH2 0x48AD JUMP JUMPDEST SWAP1 POP SWAP3 POP SWAP3 SWAP1 POP JUMP JUMPDEST PUSH1 0x0 DUP1 PUSH1 0x40 DUP4 DUP6 SUB SLT ISZERO PUSH2 0x4903 JUMPI PUSH1 0x0 DUP1 REVERT JUMPDEST DUP3 CALLDATALOAD PUSH2 0x490E DUP2 PUSH2 0x485B JUMP JUMPDEST SWAP5 PUSH1 0x20 SWAP4 SWAP1 SWAP4 ADD CALLDATALOAD SWAP4 POP POP POP JUMP JUMPDEST PUSH1 0x0 PUSH1 0x20 DUP3 DUP5 SUB SLT ISZERO PUSH2 0x492E JUMPI PUSH1 0x0 DUP1 REVERT JUMPDEST PUSH2 0x488D DUP3 PUSH2 0x48AD JUMP JUMPDEST PUSH4 0x4E487B71 PUSH1 0xE0 SHL PUSH1 0x0 MSTORE PUSH1 0x12 PUSH1 0x4 MSTORE PUSH1 0x24 PUSH1 0x0 REVERT JUMPDEST PUSH1 0x20 DUP1 DUP3 MSTORE PUSH1 0x24 SWAP1 DUP3 ADD MSTORE PUSH32 0x4D5553542042452041465445522050726576696F757320446973747269627574 PUSH1 0x40 DUP3 ADD MSTORE PUSH4 0x34B7B71 PUSH1 0xE5 SHL PUSH1 0x60 DUP3 ADD MSTORE PUSH1 0x80 ADD SWAP1 JUMP JUMPDEST PUSH1 0x0 PUSH1 0x20 DUP3 DUP5 SUB SLT ISZERO PUSH2 0x49A3 JUMPI PUSH1 0x0 DUP1 REVERT JUMPDEST POP MLOAD SWAP2 SWAP1 POP JUMP JUMPDEST PUSH4 0x4E487B71 PUSH1 0xE0 SHL PUSH1 0x0 MSTORE PUSH1 0x32 PUSH1 0x4 MSTORE PUSH1 0x24 PUSH1 0x0 REVERT JUMPDEST PUSH4 0x4E487B71 PUSH1 0xE0 SHL PUSH1 0x0 MSTORE PUSH1 0x11 PUSH1 0x4 MSTORE PUSH1 0x24 PUSH1 0x0 REVERT JUMPDEST PUSH1 0x0 PUSH1 0x0 NOT DUP3 EQ ISZERO PUSH2 0x49EA JUMPI PUSH2 0x49EA PUSH2 0x49C0 JUMP JUMPDEST POP PUSH1 0x1 ADD SWAP1 JUMP JUMPDEST PUSH1 0x20 DUP1 DUP3 MSTORE PUSH1 0x24 SWAP1 DUP3 ADD MSTORE PUSH32 0x4F776E61626C653A2063616C6C6572206973206E6F7420746865206F776E6572 PUSH1 0x40 DUP3 ADD MSTORE PUSH4 0xBDB5BD9 PUSH1 0xE2 SHL PUSH1 0x60 DUP3 ADD MSTORE PUSH1 0x80 ADD SWAP1 JUMP JUMPDEST PUSH1 0x0 DUP3 DUP3 LT ISZERO PUSH2 0x4A47 JUMPI PUSH2 0x4A47 PUSH2 0x49C0 JUMP JUMPDEST POP SUB SWAP1 JUMP JUMPDEST PUSH1 0x1 PUSH1 0x1 PUSH1 0xA0 SHL SUB SWAP3 SWAP1 SWAP3 AND DUP3 MSTORE PUSH1 0x20 DUP3 ADD MSTORE PUSH1 0x40 ADD SWAP1 JUMP JUMPDEST PUSH1 0x0 PUSH1 0x20 DUP3 DUP5 SUB SLT ISZERO PUSH2 0x4A77 JUMPI PUSH1 0x0 DUP1 REVERT JUMPDEST DUP2 MLOAD DUP1 ISZERO ISZERO DUP2 EQ PUSH2 0x488D JUMPI PUSH1 0x0 DUP1 REVERT JUMPDEST PUSH1 0x20 DUP1 DUP3 MSTORE PUSH1 0x16 SWAP1 DUP3 ADD MSTORE PUSH22 0x1C995DD85C99081D1C985B9CD9995C8819985A5B1959 PUSH1 0x52 SHL PUSH1 0x40 DUP3 ADD MSTORE PUSH1 0x60 ADD SWAP1 JUMP JUMPDEST PUSH1 0x20 DUP1 DUP3 MSTORE PUSH1 0x1E SWAP1 DUP3 ADD MSTORE PUSH32 0x72657761726420746F6B656E2032207472616E73666572206661696C65640000 PUSH1 0x40 DUP3 ADD MSTORE PUSH1 0x60 ADD SWAP1 JUMP JUMPDEST PUSH1 0x20 DUP1 DUP3 MSTORE PUSH1 0xD SWAP1 DUP3 ADD MSTORE PUSH13 0x37379039B0B6B2903A37B5B2B7 PUSH1 0x99 SHL PUSH1 0x40 DUP3 ADD MSTORE PUSH1 0x60 ADD SWAP1 JUMP JUMPDEST PUSH1 0x20 DUP1 DUP3 MSTORE PUSH1 0x1D SWAP1 DUP3 ADD MSTORE PUSH32 0x4F6E6C7920616C6C6F77656420746F20616464206F6E6520746F6B656E000000 PUSH1 0x40 DUP3 ADD MSTORE PUSH1 0x60 ADD SWAP1 JUMP JUMPDEST PUSH1 0x0 PUSH1 0x20 DUP1 DUP4 MSTORE DUP4 MLOAD DUP1 DUP3 DUP6 ADD MSTORE PUSH1 0x0 JUMPDEST DUP2 DUP2 LT ISZERO PUSH2 0x4B79 JUMPI DUP6 DUP2 ADD DUP4 ADD MLOAD DUP6 DUP3 ADD PUSH1 0x40 ADD MSTORE DUP3 ADD PUSH2 0x4B5D JUMP JUMPDEST DUP2 DUP2 GT ISZERO PUSH2 0x4B8B JUMPI PUSH1 0x0 PUSH1 0x40 DUP4 DUP8 ADD ADD MSTORE JUMPDEST POP PUSH1 0x1F ADD PUSH1 0x1F NOT AND SWAP3 SWAP1 SWAP3 ADD PUSH1 0x40 ADD SWAP4 SWAP3 POP POP POP JUMP INVALID LOG2 PUSH5 0x6970667358 0x22 SLT KECCAK256 SELFBALANCE 0xCC 0xFB 0xD3 LT COINBASE 0xB5 0x4B PUSH23 0x873274E5A612F3FF57A009C638097006E200AA7B3FB0AD PUSH5 0x736F6C6343 STOP ADDMOD SIGNEXTEND STOP CALLER ",
  "sha1": "97484c73362313618331326c69029379386abbed",
  "source": "/**\n *Submitted for verification at polygonscan.com on 2022-02-03\n*/\n\n// Forge Rewards Contract\n// Recieves 25% or 10,500,000 Forge Tokens from the ForgeMining Contract over 100+ years.\n// Also recieve 33% of the 0xBitcoin Tokens from the ForgeMining Contract over forever.\n\n\n// What we are staking:  Forge/0xBitcoin Liquidity Pool Tokens\n//What is it?  It is the pool traders use to buy and sell the coin\n//The larger the pool, the larger the order the token can handle\n\n//\n//Rewards: Forge, 0xBitcoin, and Polygon currently.\n// Funds gathered will be dispered over 21 days. 21 Day reward period\n//Room to Expand to three other cryptocurrencies(Only admin function in all three contracts is to add up to three more cryptocurrencies!)\n\npragma solidity ^0.8.11;\n\n/**\n * @dev Contract module which provides a basic access control mechanism, where\n * there is an account (an owner) that can be granted exclusive access to\n * specific functions.\n *\n * This module is used through inheritance. It will make available the modifier\n * `onlyOwner`, which can be applied to your functions to restrict their use to\n * the owner.\n */\n \ncontract Ownable2 {\n    address public owner;\n    address [] public moderators;\n\n    event OwnershipTransferred(address indexed previousOwner, address indexed newOwner);\n\n    constructor() {\n        owner = msg.sender;\n    }\n\n    /**\n     * @dev Throws if called by any account other than the owner.\n     */\n    modifier onlyOwner() {\n        require(msg.sender == owner, \"Ownable: caller is not the owner\");\n        _;\n    }\n    modifier OnlyModerators() {\n    bool isModerator = false;\n    for(uint x=0; x< moderators.length; x++){\n    \tif(moderators[x] == msg.sender){\n\t\tisModerator = true;\n\t\t}\n\t\t}\n        require(msg.sender == owner || isModerator, \"Ownable: caller is not the owner/mod\");\n        _;\n    }\n\n    /**\n     * @dev Leaves the contract without owner. It will not be possible to call\n     * `onlyOwner` functions anymore. Can only be called by the current owner.\n     *\n     * NOTE: Renouncing ownership will leave the contract without an owner,\n     * thereby removing any functionality that is only available to the owner.\n     */\n\n    function Z_addMod(address newModerator, uint spot) public onlyOwner {\n    if(spot >= moderators.length){\n    \tmoderators.push(newModerator);\n\t}else{\n\tmoderators[spot] = newModerator;\n\t}\n    }\n    /**\n     * @dev Transfers ownership of the contract to a new account (`newOwner`).\n     * Can only be called by the current owner.\n     */\n    function Z_transferOwnership(address newOwner) public onlyOwner {\n        _transferOwnership(newOwner);\n    }\n\n    /**\n     * @dev Transfers ownership of the contract to a new account (`newOwner`).\n     */\n    function _transferOwnership(address newOwner) internal {\n        emit OwnershipTransferred(owner, newOwner);\n        owner = newOwner;\n    }\n}\n\ninterface IERC20 {\n    function totalSupply() external view returns (uint256);\n    function balanceOf(address account) external view returns (uint256);\n    function transfer(address recipient, uint256 amount) external returns (bool);\n    function allowance(address owner, address spender) external view returns (uint256);\n    function approve(address spender, uint256 amount) external returns (bool);\n    function transferFrom(address sender, address recipient, uint256 amount) external returns (bool);\n    \n    event Transfer(address indexed from, address indexed to, uint256 value);\n    event Approval(address indexed owner, address indexed spender, uint256 value);\n}\n\ncontract StakedTokenWrapper {\n    uint256 public totalSupply;\n\n    mapping(address => uint256) private _balances;\n    IERC20 public stakedToken;\n    \n    event Staked(address indexed user, uint256 amount);\n    event Withdrawn(address indexed user, uint256 amount);\n\n    function balanceOf(address account) public view returns (uint256) {\n        return _balances[account];\n    }\n\n    string constant _transferErrorMessage = \"staked token transfer failed\";\n    \n    function stakeFor(address forWhom, uint256 amount) public payable virtual {\n        IERC20 st = stakedToken;\n        if(st == IERC20(address(0))) { //eth\n            unchecked {\n                totalSupply += msg.value;\n                _balances[forWhom] += msg.value;\n            }\n        }\n        else {\n            require(msg.value == 0, \"non-zero eth\");\n            require(amount > 0, \"Cannot stake 0\");\n            require(st.transferFrom(msg.sender, address(this), amount), _transferErrorMessage);\n            unchecked { \n                totalSupply += amount;\n                _balances[forWhom] += amount;\n            }\n        }\n        emit Staked(forWhom, amount);\n    }\n\n    function withdraw(uint256 amount) public virtual {\n        require(amount <= _balances[msg.sender], \"withdraw: balance is lower\");\n        unchecked {\n            _balances[msg.sender] -= amount;\n            totalSupply = totalSupply-amount;\n        }\n        IERC20 st = stakedToken;\n        if(st == IERC20(address(0))) { //eth\n            (bool success, ) = msg.sender.call{value: amount}(\"\");\n            require(success, \"eth transfer failure\");\n        }\n        else {\n            require(stakedToken.transfer(msg.sender, amount), _transferErrorMessage);\n        }\n        emit Withdrawn(msg.sender, amount);\n    }\n}\n\ncontract ForgeRewards is StakedTokenWrapper, Ownable2 {\n    bool activated6 = false;\n    bool activated5 = false;\n    bool activated4 = false;\n    uint256 public decimalsExtra=18;\n    uint256 public decimalsExtraExtra=18;\n    uint256 public decimalsExtraExtra2=18;\n    uint64 public poolLength = 24*60*60*7;\n    uint256 public totalRewarded;\n    uint256 public totalRewarded2;\n    uint256 public totalRewarded3;\n    uint256 public totalRewardedExtra;\n    uint256 public totalRewardedExtraExtra;\n    uint256 public totalRewardedExtraExtra2;\n    address[] public AddressesEntered;\n    IERC20 public rewardTokenExtraExtra2;\n    IERC20 public rewardTokenExtraExtra;\n    IERC20 public rewardTokenExtra;\n    IERC20 public rewardToken2;\n    IERC20 public rewardToken;\n    uint256 public rewardRate;\n    uint256 public rewardRate2;\n    uint256 public rewardRate3;\n    uint256 public rewardRateExtra;\n    uint256 public rewardRateExtraExtra;\n    uint256 public rewardRateExtraExtra2;\n    uint64 public periodFinish;\n    uint64 public periodFinish2;\n    uint64 public periodFinish3;\n    uint64 public periodFinishExtra;\n    uint64 public periodFinishExtraExtra;\n    uint64 public periodFinishExtraExtra2;\n    uint64 public lastUpdateTime;\n    uint64 public lastUpdateTime2;\n    uint64 public lastUpdateTime3;\n    uint64 public lastUpdateTimeExtra;\n    uint64 public lastUpdateTimeExtraExtra;\n    uint64 public lastUpdateTimeExtraExtra2;\n\n    uint256 public rewardPerTokenStored;\n    uint256 public rewardPerTokenStored2;\n    uint256 public rewardPerTokenStored3;\n    uint256 public rewardPerTokenStoredExtra;\n    uint256 public rewardPerTokenStoredExtraExtra;\n    uint256 public rewardPerTokenStoredExtraExtra2;\n\t\n    struct UserRewards {\n        uint256 userRewardPerTokenPaid;\n        uint256 rewards;\n    }\n\t\n    struct UserRewards2 {\n        uint256 userRewardPerTokenPaid2;\n        uint256 rewards2;\n    }\n\t\n    struct UserRewards3 {\n        uint256 userRewardPerTokenPaid3;\n        uint256 rewards3;\n    }\n\t\n    struct UserRewardsExtra {\n        uint256 userRewardPerTokenPaidExtra;\n        uint256 rewardsExtra;\n    }\n    \n    struct UserRewardsExtraExtra {\n        uint256 userRewardPerTokenPaidExtraExtra;\n        uint256 rewardsExtraExtra;\n    }\n\t\n    struct UserRewardsExtraExtra2 {\n        uint256 userRewardPerTokenPaidExtraExtra2;\n        uint256 rewardsExtraExtra2;\n    }\n\t\n    mapping(address => UserRewards) public userRewards;\n    mapping(address => UserRewards2) public userRewards2;\n    mapping(address => UserRewards3) public userRewards3;\n    mapping(address => UserRewardsExtra) public userRewardsExtra;\n    mapping(address => UserRewardsExtraExtra) public userRewardsExtraExtra;\n    mapping(address => UserRewardsExtraExtra2) public userRewardsExtraExtra2;\n\n    event RewardPaid(address indexed user, uint256 reward, uint256 rewards2, uint256 rewards3, uint256 rewardsExtra, uint256 rewardsExtraExtra, uint256 rewardsExtraExtra2);\n\n    event RewardAdded(uint256 reward);\n    event RewardAdded2(uint256 rewards2);\n    event RewardPaidBasic(address indexed user, uint256 reward1, uint256 rewards2);\n\n    event RewardAdded3(uint256 rewards3);\n    event RewardPaid3(address indexed user, uint256 rewards3);\n\n    \n    event RewardAdded4(uint256 rewards4);\n    event RewardPaidExtra(address indexed user, uint256 rewardsExtra);\n\n    event RewardAdded5(uint256 rewards5);\n    event RewardPaidExtraExtra(address indexed user, uint256 rewardsExtraExtra);\n\n    event RewardAdded6(uint256 rewards6);\n    event RewardPaidExtraExtra2(address indexed userExtraExtra, uint256 rewardsExtraExtra);\n\n    constructor(IERC20 _rewardForge, IERC20 _LP, IERC20 _reward0xBTC) {\n        rewardToken = _rewardForge;\n        stakedToken = _LP;\n        rewardToken2 = _reward0xBTC;\n    }\n\n\n    function Z_NewRewardTime( uint64 _rewardT) external OnlyModerators returns (bool success){\n    \trequire( _rewardT >= 60*60*24*7 && _rewardT <= 60*60*24*62, \"Reward must stay within boundaries\");\n\t    poolLength = _rewardT;\n\t}\n\n\n    function Z_addNewToken(IERC20 tokenExtra, uint _decimalsExtra) external OnlyModerators returns (bool success){\n    \trequire(tokenExtra != rewardToken && tokenExtra != stakedToken && tokenExtra != rewardToken2 && tokenExtra != rewardTokenExtraExtra && tokenExtra != rewardTokenExtra && tokenExtra != rewardTokenExtraExtra2, \"no same token\");\n\trequire(!activated4, \"Only allowed to add one token\");\n        decimalsExtra = _decimalsExtra;\n        rewardRateExtra = 0;\n        rewardTokenExtra = tokenExtra;\n        activated4 = true;\n\n        return true;\n    }\n\t\n\n    function Z_addNewToken2(IERC20 tokenTWOExtra, uint _decimalsExtraExtra) external OnlyModerators returns (bool success){\n\trequire(tokenTWOExtra != rewardToken && tokenTWOExtra != stakedToken && tokenTWOExtra != rewardToken2 && tokenTWOExtra != rewardTokenExtra && tokenTWOExtra != rewardTokenExtraExtra && tokenTWOExtra != rewardTokenExtraExtra2, \"no same token\");\n\trequire(!activated5, \"Only allowed to add one token\");\n        decimalsExtraExtra = _decimalsExtraExtra;\n        rewardRateExtraExtra = 0;\n        rewardTokenExtraExtra = tokenTWOExtra;\n        activated5 = true;\n\t\n        return true;\n    }\n        \n    function Z_addNewToken3(IERC20 tokenTWOExtra2, uint _decimalsExtraExtra2) external OnlyModerators returns (bool success){\n\trequire(tokenTWOExtra2 != rewardToken && tokenTWOExtra2 != stakedToken && tokenTWOExtra2 != rewardToken2 && tokenTWOExtra2 != rewardTokenExtra && tokenTWOExtra2 != rewardTokenExtraExtra && tokenTWOExtra2 != rewardTokenExtraExtra2, \"no same token\");\n\trequire(!activated6, \"Only allowed to add one token\");\n        decimalsExtraExtra2 = _decimalsExtraExtra2;\n        rewardRateExtraExtra2 = 0;\n        rewardTokenExtraExtra2 = tokenTWOExtra2;\n        activated6 = true;\n\t\n        return true;\n    }\n        \n\n    modifier updateReward(address account) {\n        uint256 _rewardPerTokenStored = rewardPerToken();\n        uint256 _rewardPerTokenStored2 = rewardPerToken2(); \n        uint256 _rewardPerTokenStored3 = rewardPerToken3(); \n        uint256 _rewardPerTokenStoredExtra = rewardPerTokenExtra(); \n        uint256 _rewardPerTokenStoredExtraExtra = rewardPerTokenExtraExtra(); \n        uint256 _rewardPerTokenStoredExtraExtra2 = rewardPerTokenExtraExtra2(); \n\n        lastUpdateTime = lastTimeRewardApplicable();\n        lastUpdateTime2 = lastTimeRewardApplicable2();\n        lastUpdateTime3 = lastTimeRewardApplicable3();\n        lastUpdateTimeExtra = lastTimeRewardApplicableExtra();\n        lastUpdateTimeExtraExtra = lastTimeRewardApplicableExtraExtra();\n        lastUpdateTimeExtraExtra2 = lastTimeRewardApplicableExtraExtra2();\n\t\n        rewardPerTokenStored = _rewardPerTokenStored;\n        rewardPerTokenStored2 = _rewardPerTokenStored2;\n        rewardPerTokenStored3 = _rewardPerTokenStored3;\n        rewardPerTokenStoredExtra = _rewardPerTokenStoredExtra;\n        rewardPerTokenStoredExtraExtra = _rewardPerTokenStoredExtraExtra;\n        rewardPerTokenStoredExtraExtra2 = _rewardPerTokenStoredExtraExtra2;\n\t\n        userRewards[account].rewards = earned(account);\n        userRewards2[account].rewards2 = earned2(account);\n        userRewards3[account].rewards3 = earned3(account);\n        userRewardsExtra[account].rewardsExtra = earnedExtra(account);\n        userRewardsExtraExtra[account].rewardsExtraExtra = earnedExtraExtra(account);\n        userRewardsExtraExtra2[account].rewardsExtraExtra2 = earnedExtraExtra2(account);\n\t\n        userRewards[account].userRewardPerTokenPaid = _rewardPerTokenStored;\n        userRewards2[account].userRewardPerTokenPaid2 = _rewardPerTokenStored2;\n        userRewards3[account].userRewardPerTokenPaid3 = _rewardPerTokenStored3;\n        userRewardsExtra[account].userRewardPerTokenPaidExtra = _rewardPerTokenStoredExtra;\n        userRewardsExtraExtra[account].userRewardPerTokenPaidExtraExtra = _rewardPerTokenStoredExtraExtra;\n        userRewardsExtraExtra2[account].userRewardPerTokenPaidExtraExtra2 = _rewardPerTokenStoredExtraExtra2;\n        _;\n    }\n\n\n\t//admin set up a new token\n    function lastTimeRewardApplicable() public view returns (uint64) {\n        uint64 blockTimestamp = uint64(block.timestamp);\n        return blockTimestamp < periodFinish ? blockTimestamp : periodFinish;\n    }\n\n\n    function lastTimeRewardApplicable2() public view returns (uint64) {\n        uint64 blockTimestamp = uint64(block.timestamp);\n        return blockTimestamp < periodFinish2 ? blockTimestamp : periodFinish2;\n    }\n\n\n    function lastTimeRewardApplicable3() public view returns (uint64) {\n        uint64 blockTimestamp = uint64(block.timestamp);\n        return blockTimestamp < periodFinish3 ? blockTimestamp : periodFinish3;\n    }\n\n\n    function lastTimeRewardApplicableExtra() public view returns (uint64) {\n        uint64 blockTimestamp = uint64(block.timestamp);\n        return blockTimestamp < periodFinishExtra ? blockTimestamp : periodFinishExtra;\n    }\n\n\n    function lastTimeRewardApplicableExtraExtra() public view returns (uint64) {\n        uint64 blockTimestamp = uint64(block.timestamp);\n        return blockTimestamp < periodFinishExtraExtra ? blockTimestamp : periodFinishExtraExtra;\n    }\n\t\n\n    function lastTimeRewardApplicableExtraExtra2() public view returns (uint64) {\n        uint64 blockTimestamp = uint64(block.timestamp);\n        return blockTimestamp < periodFinishExtraExtra2 ? blockTimestamp : periodFinishExtraExtra2;\n    }\n\t\n\t\n    function rewardPerToken() public view returns (uint256) {\n        uint256 totalStakedSupply = totalSupply;\n        if (totalStakedSupply == 0) {\n            return rewardPerTokenStored;\n        }\n        unchecked {\n            uint256 rewardDuration = lastTimeRewardApplicable()-lastUpdateTime;\n            return uint256(rewardPerTokenStored + rewardDuration*rewardRate*(1e36)/totalStakedSupply);\n        }\n    }\n\n\n    function rewardPerToken2() public view returns (uint256) {\n        uint256 totalStakedSupply = totalSupply;\n        if (totalStakedSupply == 0) {\n            return rewardPerTokenStored2;\n        }\n        unchecked {\n            uint256 rewardDuration2 = lastTimeRewardApplicable2()-lastUpdateTime2;\n            return uint256(rewardPerTokenStored2 + rewardDuration2*rewardRate2*1e36/totalStakedSupply);\n        }\n    }\n\n\n    function rewardPerToken3() public view returns (uint256) {\n        uint256 totalStakedSupply = totalSupply;\n        if (totalStakedSupply == 0) {\n            return rewardPerTokenStored3;\n        }\n        unchecked {\n            uint256 rewardDuration3 = lastTimeRewardApplicable3()-lastUpdateTime3;\n            return uint256(rewardPerTokenStored3 + rewardDuration3*rewardRate3*1e24/totalStakedSupply);\n        }\n    }\n\n\n    function rewardPerTokenExtra() public view returns (uint256) {\n        uint256 totalStakedSupply = totalSupply;\n        if (totalStakedSupply == 0) {\n            return rewardPerTokenStoredExtra;\n        }\n        unchecked {\n            uint256 rewardDurationExtra = lastTimeRewardApplicableExtra()-lastUpdateTimeExtra;\n            return uint256(rewardPerTokenStoredExtra + rewardDurationExtra*rewardRateExtra*(10**uint(decimalsExtra*2))/totalStakedSupply);\n        }\n    }\n\t\n\t\n    function rewardPerTokenExtraExtra() public view returns (uint256) {\n        uint256 totalStakedSupply = totalSupply;\n        if (totalStakedSupply == 0) {\n            return rewardPerTokenStoredExtraExtra;\n        }\n        unchecked {\n            uint256 rewardDurationExtraExtra = lastTimeRewardApplicableExtraExtra()-lastUpdateTimeExtraExtra;\n            return uint256(rewardPerTokenStoredExtraExtra + rewardDurationExtraExtra*rewardRateExtraExtra*(10**uint(decimalsExtraExtra*2))/totalStakedSupply);\n        }\n    }\n\n    function rewardPerTokenExtraExtra2() public view returns (uint256) {\n        uint256 totalStakedSupply = totalSupply;\n        if (totalStakedSupply == 0) {\n            return rewardPerTokenStoredExtraExtra2;\n        }\n        unchecked {\n            uint256 rewardDurationExtraExtra2 = lastTimeRewardApplicableExtraExtra2()-lastUpdateTimeExtraExtra2;\n            return uint256(rewardPerTokenStoredExtraExtra2 + rewardDurationExtraExtra2*rewardRateExtraExtra2*(10**uint(decimalsExtraExtra2*2))/totalStakedSupply);\n        }\n    }\n\n\n    function earned(address account) public view returns (uint256) {\n        unchecked { \n            if(rewardPerToken() < 1e52)\n            {\n                return uint256(balanceOf(account)*(rewardPerToken()-userRewards[account].userRewardPerTokenPaid)/1e52 + userRewards[account].rewards);\n            }else{\n\n                return uint256(balanceOf(account)*((rewardPerToken()-userRewards[account].userRewardPerTokenPaid)/1e52) + userRewards[account].rewards);\n                         \n            }\n        }\n    }\n\n\n    function earned2(address account) public view returns (uint256) {\n        unchecked {             \n            \n            if(rewardPerToken2() < 1e52)\n            {\n                return uint256(balanceOf(account)*(rewardPerToken2()-userRewards2[account].userRewardPerTokenPaid2)/1e52 + userRewards2[account].rewards2);\n            }else{\n                 \n                return uint256(balanceOf(account)*((rewardPerToken2()-userRewards2[account].userRewardPerTokenPaid2)/1e52) + userRewards2[account].rewards2);\n            }\n        }\n    }\n\n\n    function earned3(address account) public view returns (uint256) {\n        unchecked {             \n            if(rewardPerToken3() < 1e40)\n            {\n                return uint256(balanceOf(account)*(rewardPerToken3()-userRewards3[account].userRewardPerTokenPaid3)/1e40 + userRewards3[account].rewards3);\n            }else{\n                return uint256(balanceOf(account)*((rewardPerToken3()-userRewards3[account].userRewardPerTokenPaid3)/1e40) + userRewards3[account].rewards3);\n            }\n        }\n    }\n\t\n\t\n    function earnedExtra(address account) public view returns (uint256) {\n        unchecked {            \n            if(rewardPerTokenExtra() < (10**(decimalsExtra * 2 + 16)))\n            {\n                return uint256(balanceOf(account)*(rewardPerTokenExtra()-userRewardsExtra[account].userRewardPerTokenPaidExtra)/(10 **(decimalsExtra * 2 + 16)) + userRewardsExtra[account].rewardsExtra);\n            }else{\n                return uint256(balanceOf(account)*((rewardPerTokenExtra()-userRewardsExtra[account].userRewardPerTokenPaidExtra)/(10 **(decimalsExtra * 2 + 16))) + userRewardsExtra[account].rewardsExtra);\n            }\n        }\n    }\n\t\n\t\n    function earnedExtraExtra(address account) public view returns (uint256) {\n        unchecked {             \n            if(rewardPerTokenExtraExtra() < (10 **(decimalsExtraExtra * 2 + 16)))\n            {\n                return uint256(balanceOf(account)*(rewardPerTokenExtraExtra()-userRewardsExtraExtra[account].userRewardPerTokenPaidExtraExtra)/(10 **(decimalsExtraExtra * 2 + 16)) + userRewardsExtraExtra[account].rewardsExtraExtra);\n            }else{\n                return uint256(balanceOf(account)*((rewardPerTokenExtraExtra()-userRewardsExtraExtra[account].userRewardPerTokenPaidExtraExtra)/(10 **(decimalsExtraExtra * 2 + 16))) + userRewardsExtraExtra[account].rewardsExtraExtra);\n            }\n        }\n    }\n\t\n\n    function earnedExtraExtra2(address account) public view returns (uint256) {\n        unchecked { \n            if(rewardPerTokenExtraExtra2() < (10 **(decimalsExtraExtra2 * 2 + 16)))\n            {\n                return uint256(balanceOf(account)*(rewardPerTokenExtraExtra2()-userRewardsExtraExtra2[account].userRewardPerTokenPaidExtraExtra2)/(10 **(decimalsExtraExtra2 * 2+ 16)) + userRewardsExtraExtra2[account].rewardsExtraExtra2);\n            }else{\n                return uint256(balanceOf(account)*((rewardPerTokenExtraExtra2()-userRewardsExtraExtra2[account].userRewardPerTokenPaidExtraExtra2)/(10 **(decimalsExtraExtra2 * 2+ 16))) + userRewardsExtraExtra2[account].rewardsExtraExtra2);\n            }\n        }\n    }\n\t\n\n    function stake(uint256 amount) external payable {\n        stakeFor(msg.sender, amount);\n    }\n\n\n    function stakeFor(address forWhom, uint256 amount) public payable override updateReward(forWhom) {\n        super.stakeFor(forWhom, amount);\n    }\n\t\n\n    function withdraw(uint256 amount) public override updateReward(msg.sender) {\n        super.withdraw(amount);\n    }\n\t\n\n    function exit() external {\n        getReward();\n        withdraw(uint256(balanceOf(msg.sender)));\n\t\t\n    }\n\n\n\n//0 = Reward1 and Reward2, 1 = Reward1, 2 = Reward2, 3 = Reward3, 4 = RewardExtra, 5 = RewardExtraExtra\nfunction getRewardBasicBasic(uint choice) public updateReward(msg.sender) {\n        //Reward & Reward2 aka 1 and 2\n        if(choice == 0){\n\t    uint256 reward = earned(msg.sender);\n            uint256 reward2 = earned2(msg.sender);\n            if (reward > 0) {\n            \tuserRewards[msg.sender].rewards = 0;\n           \t require(rewardToken.transfer(msg.sender, reward), \"reward transfer failed\");\n            \ttotalRewarded = totalRewarded - reward;\n            }\n            if(reward2 > 0){\n                userRewards2[msg.sender].rewards2 = 0;\n                require(rewardToken2.transfer(msg.sender, reward2), \"reward token 2 transfer failed\");\n                totalRewarded2 = totalRewarded2 - reward2;\n            }\n           emit RewardPaidBasic(msg.sender, reward, reward2);\n\t\t   \n        }else if(choice == 2){\n            uint256 reward2 = earned2(msg.sender);\n            if(reward2 > 0){\n               userRewards2[msg.sender].rewards2 = 0;\n              require(rewardToken2.transfer(msg.sender, reward2), \"reward token 2 transfer failed\");\n               totalRewarded2 = totalRewarded2 - reward2;\n           }\n           emit RewardPaidBasic(msg.sender, 0, reward2);\n\t\t   \n        }else if(choice == 1){\n\t    uint256 reward = earned(msg.sender);\n            if (reward > 0){\n               userRewards[msg.sender].rewards = 0;\n               require(rewardToken.transfer(msg.sender, reward), \"reward transfer failed\");\n               totalRewarded = totalRewarded - reward;\n            }\n\t    emit RewardPaidBasic(msg.sender, reward, 0);\n\t\t\t\n        }else if(choice == 3){\n\t    uint256 reward3= earned3(msg.sender);\n\t    if(reward3 > 0){\n\t\tuserRewards3[msg.sender].rewards3 = 0;\n\t\taddress payable receiver = payable(msg.sender);\n\t\trequire(receiver.send(reward3), \"Eth transfer failed\");\n\t\ttotalRewarded3 = totalRewarded3 - reward3;\n\t    }\n\t    emit RewardPaid3(msg.sender, reward3);\n\n        }else if(choice == 4){\n            uint256 rewardExtra = earnedExtra(msg.sender);\n            if (rewardExtra > 0){\n                userRewardsExtra[msg.sender].rewardsExtra = 0;\n                require(rewardTokenExtra.transfer(msg.sender, rewardExtra), \"reward transfer failed\");\n               totalRewardedExtra = totalRewardedExtra - rewardExtra;\n       \t    }\n            emit RewardPaidExtra(msg.sender, rewardExtra);\n\t\t\t\n        }else if(choice == 5){\n            uint256 rewardExtraExtra = earnedExtraExtra(msg.sender);\n            if(rewardExtraExtra > 0)\n            {\n            \tuserRewardsExtraExtra[msg.sender].rewardsExtraExtra = 0;\n                require(rewardTokenExtraExtra.transfer(msg.sender, rewardExtraExtra), \"reward token 2 transfer failed\");\n                totalRewardedExtraExtra = totalRewardedExtraExtra - rewardExtraExtra;\n            }\n            emit RewardPaidExtraExtra(msg.sender, rewardExtraExtra);\n\t    \n        }else if(choice == 6){\n            uint256 rewardExtraExtra2 = earnedExtraExtra2(msg.sender);\n            if(rewardExtraExtra2 > 0)\n            {\n            \tuserRewardsExtraExtra2[msg.sender].rewardsExtraExtra2 = 0;\n                require(rewardTokenExtraExtra2.transfer(msg.sender, rewardExtraExtra2), \"reward token 2 transfer failed\");\n                totalRewardedExtraExtra2 = totalRewardedExtraExtra2 - rewardExtraExtra2;\n            }\n            emit RewardPaidExtraExtra2(msg.sender, rewardExtraExtra2);\n\t\t\t\n        }\n    }\n\n \n    function getReward() public updateReward(msg.sender) {\n        uint256 reward = earned(msg.sender);\n        uint256 reward2 = earned2(msg.sender);\n        uint256 reward3= earned3(msg.sender);\n        if (reward > 0) {\n            userRewards[msg.sender].rewards = 0;\n            if(reward3 > 0){\n                userRewards3[msg.sender].rewards3 = 0;\n                address payable receiver = payable(msg.sender);\n\t            require(receiver.send(reward3), \"Eth transfer failed\");\n                totalRewarded3 = totalRewarded3 - reward3;\n            }\n            require(rewardToken.transfer(msg.sender, reward), \"reward transfer failed\");\n            totalRewarded = totalRewarded - reward;\n        }\n        if(reward2 > 0)\n        {\n            \n            userRewards2[msg.sender].rewards2 = 0;\n            require(rewardToken2.transfer(msg.sender, reward2), \"reward token 2 transfer failed\");\n            totalRewarded2 = totalRewarded2 - reward2;\n        }\n        uint256 rewardExtra = earnedExtra(msg.sender);\n        if (rewardExtra > 0) {\n            userRewardsExtra[msg.sender].rewardsExtra = 0;\n            require(rewardTokenExtra.transfer(msg.sender, rewardExtra), \"reward transfer failed\");\n            totalRewardedExtra = totalRewardedExtra - rewardExtra;\n\t    \n        }\n        uint256 rewardExtraExtra = earnedExtraExtra(msg.sender);\n        if(rewardExtraExtra > 0)\n        {\n            \n            userRewardsExtraExtra[msg.sender].rewardsExtraExtra = 0;\n            require(rewardTokenExtraExtra.transfer(msg.sender, rewardExtraExtra), \"reward token 2 transfer failed\");\n            totalRewardedExtraExtra = totalRewardedExtraExtra - rewardExtraExtra;\n        }\n\t\n        uint256 rewardExtraExtra2 = earnedExtraExtra2(msg.sender);\n        if(rewardExtraExtra2 > 0)\n        {\n            \n            userRewardsExtraExtra2[msg.sender].rewardsExtraExtra2 = 0;\n            require(rewardTokenExtraExtra2.transfer(msg.sender, rewardExtraExtra2), \"reward token 2 transfer failed\");\n            totalRewardedExtraExtra2 = totalRewardedExtraExtra2 - rewardExtraExtra2;\n        }\n        \n            emit RewardPaid(msg.sender, reward, reward2, reward3, rewardExtra, rewardExtraExtra, rewardExtraExtra2);\n\t\t\t\n    }\n \n \n    function Z_setRewardParamsExtraExtra2(uint256 reward, uint64 duration) external {\n        unchecked {\n            require(reward > 0);\n            duration = poolLength;  \n            rewardPerTokenStoredExtraExtra2 = rewardPerTokenExtraExtra2();\n            uint64 blockTimestamp = uint64(block.timestamp);\n            require(blockTimestamp > periodFinishExtraExtra2, \"MUST BE AFTER Previous Distribution \");\n\t    \n            uint256 maxRewardSupply = rewardTokenExtraExtra2.balanceOf(address(this)) - totalRewardedExtraExtra2;\n            \n            if(rewardTokenExtraExtra2 == stakedToken){\n                maxRewardSupply -= totalSupply;\n\t    }\n            if(maxRewardSupply > duration)\n            {\n                rewardRateExtraExtra2 = ((maxRewardSupply*4*10**16)/10)/duration;\n            }\n            else{\n                rewardRateExtraExtra2 = 0;\n            }\n            reward = (maxRewardSupply*4)/10;\n\n            lastUpdateTimeExtraExtra2 = blockTimestamp;\n            periodFinishExtraExtra2 = blockTimestamp+duration;\n            totalRewardedExtraExtra2 = reward + totalRewardedExtraExtra2;\n\t\t\t\n            emit RewardAdded6(reward);\n\t\t\t\n        }\n    }\n\n \n    function Z_setRewardParamsExtraExtra(uint256 reward, uint64 duration) external {\n        unchecked {\n            require(reward > 0);\n            duration = poolLength;  \n            rewardPerTokenStoredExtraExtra = rewardPerTokenExtraExtra();\n            uint64 blockTimestamp = uint64(block.timestamp);\n            require(blockTimestamp > periodFinishExtraExtra, \"MUST BE AFTER Previous Distribution \");\n            uint256 maxRewardSupply = rewardTokenExtraExtra.balanceOf(address(this)) - totalRewardedExtraExtra;\n            \n            if(rewardTokenExtraExtra == stakedToken){\n                maxRewardSupply -= totalSupply;\n\t    }\n            if(maxRewardSupply > duration)\n            {\n                rewardRateExtraExtra = ((maxRewardSupply*4*10**16)/10)/duration;\n            }\n            else{\n                rewardRateExtraExtra = 0;\n            }\n            reward = (maxRewardSupply*4)/10;\n\n            lastUpdateTimeExtraExtra = blockTimestamp;\n            periodFinishExtraExtra = blockTimestamp+duration;\n            totalRewardedExtraExtra = reward + totalRewardedExtraExtra;\n\t\t\t\n            emit RewardAdded5(reward);\n\t\t\t\n        }\n    }\n\n\n\n    function Z_setRewardParamsExtra(uint256 reward, uint64 duration) external {\n        unchecked {\n            require(reward > 0);\n            duration = poolLength; \n            rewardPerTokenStoredExtra = rewardPerTokenExtra();\n            uint64 blockTimestamp = uint64(block.timestamp);\n            require(blockTimestamp > periodFinishExtra, \"MUST BE AFTER Previous Distribution \");\n            uint256 maxRewardSupply = rewardTokenExtra.balanceOf(address(this)) - totalRewardedExtra;\n            \n            if(rewardTokenExtra == stakedToken){\n                maxRewardSupply -= totalSupply;\n\t    }\n            if(maxRewardSupply > duration)\n            {\n                rewardRateExtra = (maxRewardSupply*4*10**16)/duration/10;\n            }\n            else{\n                rewardRateExtra = 0;\n            }\n            reward = (maxRewardSupply*4)/10;\n            lastUpdateTimeExtra = blockTimestamp;\n            periodFinishExtra = blockTimestamp+duration;\n            totalRewardedExtra = reward + totalRewardedExtra;\n\t\t\t\n            emit RewardAdded4(reward);\n\t\t\t\n        }\n    }\n\n\n\n\n\n    function setRewardParamsALL(uint choice) external {\n        this.Z_setRewardParamsForge(2, 22);\n        this.Z_setRewardParams0xBTC(2, 22);\n        this.Z_setRewardParamsETH(2, 22);\n        if(choice == 1)\n        {\n            this.Z_setRewardParamsExtra(3, 33);\n        }\n        if(choice == 2){\n            this.Z_setRewardParamsExtraExtra(3, 33);\n            this.Z_setRewardParamsExtra(3, 33);\n        }\n\t    if(choice == 3){\n            this.Z_setRewardParamsExtraExtra2(3, 33);\n            this.Z_setRewardParamsExtraExtra(3, 33);\n            this.Z_setRewardParamsExtra(3, 33);\n\t    }\n    }\n\n\n    function Z_setRewardParamsForge(uint256 reward, uint64 duration) external {\n        unchecked {\n            require(reward > 0);\n            duration = poolLength; \n            rewardPerTokenStored = rewardPerToken();\n            uint64 blockTimestamp = uint64(block.timestamp);\n            require(blockTimestamp > periodFinish, \"MUST BE AFTER Previous Distribution \");\n            uint256 maxRewardSupply = rewardToken.balanceOf(address(this)) - totalRewarded;\n            \n            if(rewardToken == stakedToken){\n                maxRewardSupply -= totalSupply;\n\t    }\n            if(maxRewardSupply > 3)\n            {\n                rewardRate = ((maxRewardSupply*4*10**16)/10)/duration ;\n            }\n            else{\n                rewardRate = 0;\n            }\n            \n            reward = (maxRewardSupply*4)/10;\n            lastUpdateTime = blockTimestamp;\n            periodFinish = blockTimestamp+duration;\n            totalRewarded = reward + totalRewarded;\n            emit RewardAdded(reward);\n        }\n    }\n\t\n\n    function Z_setRewardParams0xBTC(uint256 reward, uint64 duration) external {\n        unchecked {\n            require(reward > 0);\n            duration = poolLength;  \n            rewardPerTokenStored2 = rewardPerToken2();\n            uint64 blockTimestamp = uint64(block.timestamp);\n            require(blockTimestamp > periodFinish2, \"MUST BE AFTER Previous Rewards\");\n            \n            uint256 maxRewardSupply2 = rewardToken2.balanceOf(address(this)) - totalRewarded2;\n            if(rewardToken2 == stakedToken){\n                maxRewardSupply2 -= totalSupply;\n\t    }\n            if(maxRewardSupply2 > reward)\n            {\n                rewardRate2 = ((maxRewardSupply2*4*10**16)/10)/duration;\n            }\n            else{\n                rewardRate2 = 0;\n            }\n            reward = (maxRewardSupply2*4)/10;\n            lastUpdateTime2 = blockTimestamp;\n            periodFinish2 = blockTimestamp+duration;\n            totalRewarded2 = reward + totalRewarded2;\n            emit RewardAdded2(reward);\n        }\n    }\n\n\n    function Z_setRewardParamsETH(uint256 reward, uint64 duration) external {\n        unchecked {\n            require(reward > 0);\n            duration = poolLength;  \n            rewardPerTokenStored3 = rewardPerToken3();\n            uint64 blockTimestamp = uint64(block.timestamp);\n            require(blockTimestamp > periodFinish3, \"MUST BE AFTER Previous Rewards\");\n            uint256 maxRewardSupply3 = address(this).balance - totalRewarded3;\n\n            if(maxRewardSupply3 > duration)\n            {\n                rewardRate3 = ((maxRewardSupply3*4*10**16)/10)/duration;\n            }\n            else{\n                rewardRate3 = 0;\n            }            \n            reward = (maxRewardSupply3*4)/10;\n            lastUpdateTime3 = blockTimestamp;\n            periodFinish3 = blockTimestamp+duration;\n            totalRewarded3 = reward + totalRewarded3;\n            emit RewardAdded3(reward);\n        }\n    }\n}\n\n/*\n   ____            __   __        __   _\n  / __/__ __ ___  / /_ / /  ___  / /_ (_)__ __\n _\\ \\ / // // _ \\/ __// _ \\/ -_)/ __// / \\ \\ /\n/___/ \\_, //_//_/\\__//_//_/\\__/ \\__//_/ /_\\_\\\n     /___/\n* Synthetix: YFIRewards.sol\n*\n* Docs: https://docs.synthetix.io/\n*\n*\n* MIT License\n* ===========\n*\n* Copyright (c) 2020 Synthetix\n*\n* Permission is hereby granted, free of charge, to any person obtaining a copy\n* of this software and associated documentation files (the \"Software\"), to deal\n* in the Software without restriction, including without limitation the rights\n* to use, copy, modify, merge, publish, distribute, sublicense, and/or sell\n* copies of the Software, and to permit persons to whom the Software is\n* furnished to do so, subject to the following conditions:\n*\n* The above copyright notice and this permission notice shall be included in all\n* copies or substantial portions of the Software.   \n*\n* THE SOFTWARE IS PROVIDED \"AS IS\", WITHOUT WARRANTY OF ANY KIND, EXPRESS OR\n* IMPLIED, INCLUDING BUT NOT LIMITED TO THE WARRANTIES OF MERCHANTABILITY,\n* FITNESS FOR A PARTICULAR PURPOSE AND NONINFRINGEMENT. IN NO EVENT SHALL THE\n* AUTHORS OR COPYRIGHT HOLDERS BE LIABLE FOR ANY CLAIM, DAMAGES OR OTHER\n* LIABILITY, WHETHER IN AN ACTION OF CONTRACT, TORT OR OTHERWISE, ARISING FROM,\n* OUT OF OR IN CONNECTION WITH THE SOFTWARE OR THE USE OR OTHER DEALINGS IN THE\n*/\n",
  "sourcePath": "contracts/NyanRewards.sol",
  "type": "contract"
}