{
  "abi": [
    {
      "anonymous": false,
      "inputs": [
        {
          "indexed": true,
          "internalType": "address",
          "name": "_owner",
          "type": "address"
        },
        {
          "indexed": true,
          "internalType": "address",
          "name": "_spender",
          "type": "address"
        },
        {
          "indexed": false,
          "internalType": "uint256",
          "name": "_value",
          "type": "uint256"
        }
      ],
      "name": "Approval",
      "type": "event"
    },
    {
      "anonymous": false,
      "inputs": [
        {
          "indexed": true,
          "internalType": "address",
          "name": "from",
          "type": "address"
        },
        {
          "indexed": false,
          "internalType": "uint256",
          "name": "reward_amount",
          "type": "uint256"
        },
        {
          "indexed": false,
          "internalType": "uint256",
          "name": "epochCount",
          "type": "uint256"
        },
        {
          "indexed": false,
          "internalType": "bytes32",
          "name": "newChallengeNumber",
          "type": "bytes32"
        },
        {
          "indexed": false,
          "internalType": "uint256",
          "name": "NumberOfTokensMinted",
          "type": "uint256"
        }
      ],
      "name": "MegaMint",
      "type": "event"
    },
    {
      "anonymous": false,
      "inputs": [
        {
          "indexed": true,
          "internalType": "address",
          "name": "from",
          "type": "address"
        },
        {
          "indexed": false,
          "internalType": "uint256",
          "name": "reward_amount",
          "type": "uint256"
        },
        {
          "indexed": false,
          "internalType": "uint256",
          "name": "epochCount",
          "type": "uint256"
        },
        {
          "indexed": false,
          "internalType": "bytes32",
          "name": "newChallengeNumber",
          "type": "bytes32"
        }
      ],
      "name": "Mint",
      "type": "event"
    },
    {
      "anonymous": false,
      "inputs": [
        {
          "indexed": true,
          "internalType": "address",
          "name": "_from",
          "type": "address"
        },
        {
          "indexed": true,
          "internalType": "address",
          "name": "_to",
          "type": "address"
        },
        {
          "indexed": false,
          "internalType": "uint256",
          "name": "_value",
          "type": "uint256"
        }
      ],
      "name": "Transfer",
      "type": "event"
    },
    {
      "anonymous": false,
      "inputs": [
        {
          "indexed": false,
          "internalType": "address",
          "name": "_from",
          "type": "address"
        },
        {
          "indexed": false,
          "internalType": "address",
          "name": "_to",
          "type": "address"
        }
      ],
      "name": "TransferOwnership",
      "type": "event"
    },
    {
      "stateMutability": "payable",
      "type": "fallback"
    },
    {
      "inputs": [
        {
          "internalType": "bool",
          "name": "nonce",
          "type": "bool"
        },
        {
          "internalType": "bool",
          "name": "challenge_digest",
          "type": "bool"
        }
      ],
      "name": "AOpenMint",
      "outputs": [
        {
          "internalType": "bool",
          "name": "success",
          "type": "bool"
        }
      ],
      "stateMutability": "nonpayable",
      "type": "function"
    },
    {
      "inputs": [],
      "name": "ARewardSender",
      "outputs": [],
      "stateMutability": "nonpayable",
      "type": "function"
    },
    {
      "inputs": [],
      "name": "AddressAuction",
      "outputs": [
        {
          "internalType": "address",
          "name": "",
          "type": "address"
        }
      ],
      "stateMutability": "view",
      "type": "function"
    },
    {
      "inputs": [],
      "name": "AddressLPReward",
      "outputs": [
        {
          "internalType": "address",
          "name": "",
          "type": "address"
        }
      ],
      "stateMutability": "view",
      "type": "function"
    },
    {
      "inputs": [],
      "name": "AddressZeroXBTC",
      "outputs": [
        {
          "internalType": "address",
          "name": "",
          "type": "address"
        }
      ],
      "stateMutability": "view",
      "type": "function"
    },
    {
      "inputs": [
        {
          "internalType": "uint256",
          "name": "",
          "type": "uint256"
        }
      ],
      "name": "ChallengeForEpoch",
      "outputs": [
        {
          "internalType": "bytes32",
          "name": "",
          "type": "bytes32"
        }
      ],
      "stateMutability": "view",
      "type": "function"
    },
    {
      "inputs": [
        {
          "internalType": "bytes32",
          "name": "",
          "type": "bytes32"
        }
      ],
      "name": "EpochForChallenge",
      "outputs": [
        {
          "internalType": "uint256",
          "name": "",
          "type": "uint256"
        }
      ],
      "stateMutability": "view",
      "type": "function"
    },
    {
      "inputs": [],
      "name": "Token2Per",
      "outputs": [
        {
          "internalType": "uint256",
          "name": "",
          "type": "uint256"
        }
      ],
      "stateMutability": "view",
      "type": "function"
    },
    {
      "inputs": [],
      "name": "_BLOCKS_PER_READJUSTMENT",
      "outputs": [
        {
          "internalType": "uint256",
          "name": "",
          "type": "uint256"
        }
      ],
      "stateMutability": "view",
      "type": "function"
    },
    {
      "inputs": [],
      "name": "_MAXIMUM_TARGET",
      "outputs": [
        {
          "internalType": "uint256",
          "name": "",
          "type": "uint256"
        }
      ],
      "stateMutability": "view",
      "type": "function"
    },
    {
      "inputs": [],
      "name": "_MINIMUM_TARGET",
      "outputs": [
        {
          "internalType": "uint256",
          "name": "",
          "type": "uint256"
        }
      ],
      "stateMutability": "view",
      "type": "function"
    },
    {
      "inputs": [
        {
          "internalType": "address",
          "name": "tokenOwner",
          "type": "address"
        },
        {
          "internalType": "address",
          "name": "spender",
          "type": "address"
        }
      ],
      "name": "allowance",
      "outputs": [
        {
          "internalType": "uint256",
          "name": "remaining",
          "type": "uint256"
        }
      ],
      "stateMutability": "view",
      "type": "function"
    },
    {
      "inputs": [
        {
          "internalType": "address",
          "name": "spender",
          "type": "address"
        },
        {
          "internalType": "uint256",
          "name": "tokens",
          "type": "uint256"
        }
      ],
      "name": "approve",
      "outputs": [
        {
          "internalType": "bool",
          "name": "success",
          "type": "bool"
        }
      ],
      "stateMutability": "nonpayable",
      "type": "function"
    },
    {
      "inputs": [
        {
          "internalType": "address",
          "name": "tokenOwner",
          "type": "address"
        }
      ],
      "name": "balanceOf",
      "outputs": [
        {
          "internalType": "uint256",
          "name": "balance",
          "type": "uint256"
        }
      ],
      "stateMutability": "view",
      "type": "function"
    },
    {
      "inputs": [],
      "name": "challengeNumber",
      "outputs": [
        {
          "internalType": "bytes32",
          "name": "",
          "type": "bytes32"
        }
      ],
      "stateMutability": "view",
      "type": "function"
    },
    {
      "inputs": [
        {
          "internalType": "uint256",
          "name": "nonce",
          "type": "uint256"
        },
        {
          "internalType": "bytes32",
          "name": "challenge_digest",
          "type": "bytes32"
        },
        {
          "internalType": "bytes32",
          "name": "challenge_number",
          "type": "bytes32"
        },
        {
          "internalType": "uint256",
          "name": "testTarget",
          "type": "uint256"
        }
      ],
      "name": "checkMintSolution",
      "outputs": [
        {
          "internalType": "bool",
          "name": "success",
          "type": "bool"
        }
      ],
      "stateMutability": "view",
      "type": "function"
    },
    {
      "inputs": [],
      "name": "decimals",
      "outputs": [
        {
          "internalType": "uint8",
          "name": "",
          "type": "uint8"
        }
      ],
      "stateMutability": "view",
      "type": "function"
    },
    {
      "inputs": [],
      "name": "epochCount",
      "outputs": [
        {
          "internalType": "uint256",
          "name": "",
          "type": "uint256"
        }
      ],
      "stateMutability": "view",
      "type": "function"
    },
    {
      "inputs": [],
      "name": "getChallengeNumber",
      "outputs": [
        {
          "internalType": "bytes32",
          "name": "",
          "type": "bytes32"
        }
      ],
      "stateMutability": "view",
      "type": "function"
    },
    {
      "inputs": [],
      "name": "getEpoch",
      "outputs": [
        {
          "internalType": "uint256",
          "name": "",
          "type": "uint256"
        }
      ],
      "stateMutability": "view",
      "type": "function"
    },
    {
      "inputs": [],
      "name": "getMiningDifficulty",
      "outputs": [
        {
          "internalType": "uint256",
          "name": "",
          "type": "uint256"
        }
      ],
      "stateMutability": "view",
      "type": "function"
    },
    {
      "inputs": [],
      "name": "getMiningMinted",
      "outputs": [
        {
          "internalType": "uint256",
          "name": "",
          "type": "uint256"
        }
      ],
      "stateMutability": "view",
      "type": "function"
    },
    {
      "inputs": [],
      "name": "getMiningReward",
      "outputs": [
        {
          "internalType": "uint256",
          "name": "",
          "type": "uint256"
        }
      ],
      "stateMutability": "view",
      "type": "function"
    },
    {
      "inputs": [],
      "name": "getMiningTarget",
      "outputs": [
        {
          "internalType": "uint256",
          "name": "",
          "type": "uint256"
        }
      ],
      "stateMutability": "view",
      "type": "function"
    },
    {
      "inputs": [
        {
          "internalType": "uint256",
          "name": "nonce",
          "type": "uint256"
        },
        {
          "internalType": "bytes32",
          "name": "challenge_digest",
          "type": "bytes32"
        },
        {
          "internalType": "bytes32",
          "name": "challenge_number",
          "type": "bytes32"
        }
      ],
      "name": "getMintDigest",
      "outputs": [
        {
          "internalType": "bytes32",
          "name": "digesttest",
          "type": "bytes32"
        }
      ],
      "stateMutability": "view",
      "type": "function"
    },
    {
      "inputs": [],
      "name": "latestDifficultyPeriodStarted",
      "outputs": [
        {
          "internalType": "uint256",
          "name": "",
          "type": "uint256"
        }
      ],
      "stateMutability": "view",
      "type": "function"
    },
    {
      "inputs": [],
      "name": "latestDifficultyPeriodStarted2",
      "outputs": [
        {
          "internalType": "uint256",
          "name": "",
          "type": "uint256"
        }
      ],
      "stateMutability": "view",
      "type": "function"
    },
    {
      "inputs": [],
      "name": "maxSupplyForEra",
      "outputs": [
        {
          "internalType": "uint256",
          "name": "",
          "type": "uint256"
        }
      ],
      "stateMutability": "view",
      "type": "function"
    },
    {
      "inputs": [],
      "name": "miningTarget",
      "outputs": [
        {
          "internalType": "uint256",
          "name": "",
          "type": "uint256"
        }
      ],
      "stateMutability": "view",
      "type": "function"
    },
    {
      "inputs": [
        {
          "internalType": "uint256",
          "name": "nonce",
          "type": "uint256"
        },
        {
          "internalType": "bytes32",
          "name": "challenge_digest",
          "type": "bytes32"
        }
      ],
      "name": "mint",
      "outputs": [
        {
          "internalType": "bool",
          "name": "success",
          "type": "bool"
        }
      ],
      "stateMutability": "nonpayable",
      "type": "function"
    },
    {
      "inputs": [
        {
          "internalType": "uint256",
          "name": "nonce",
          "type": "uint256"
        },
        {
          "internalType": "bytes32",
          "name": "challenge_digest",
          "type": "bytes32"
        },
        {
          "internalType": "address",
          "name": "mintTo",
          "type": "address"
        }
      ],
      "name": "mintTo",
      "outputs": [
        {
          "internalType": "bool",
          "name": "success",
          "type": "bool"
        }
      ],
      "stateMutability": "nonpayable",
      "type": "function"
    },
    {
      "inputs": [
        {
          "internalType": "uint256",
          "name": "nonce",
          "type": "uint256"
        },
        {
          "internalType": "bytes32",
          "name": "challenge_digest",
          "type": "bytes32"
        },
        {
          "internalType": "address[]",
          "name": "ExtraFunds",
          "type": "address[]"
        },
        {
          "internalType": "address[]",
          "name": "MintTo",
          "type": "address[]"
        }
      ],
      "name": "mintTokensArrayTo",
      "outputs": [
        {
          "internalType": "bool",
          "name": "success",
          "type": "bool"
        }
      ],
      "stateMutability": "nonpayable",
      "type": "function"
    },
    {
      "inputs": [
        {
          "internalType": "uint256",
          "name": "nonce",
          "type": "uint256"
        },
        {
          "internalType": "bytes32",
          "name": "challenge_digest",
          "type": "bytes32"
        },
        {
          "internalType": "address[]",
          "name": "ExtraFunds",
          "type": "address[]"
        },
        {
          "internalType": "address",
          "name": "MintTo",
          "type": "address"
        }
      ],
      "name": "mintTokensSameAddress",
      "outputs": [
        {
          "internalType": "bool",
          "name": "success",
          "type": "bool"
        }
      ],
      "stateMutability": "nonpayable",
      "type": "function"
    },
    {
      "inputs": [],
      "name": "name",
      "outputs": [
        {
          "internalType": "string",
          "name": "",
          "type": "string"
        }
      ],
      "stateMutability": "view",
      "type": "function"
    },
    {
      "inputs": [],
      "name": "owner",
      "outputs": [
        {
          "internalType": "address",
          "name": "",
          "type": "address"
        }
      ],
      "stateMutability": "view",
      "type": "function"
    },
    {
      "inputs": [],
      "name": "previousBlockTime",
      "outputs": [
        {
          "internalType": "uint256",
          "name": "",
          "type": "uint256"
        }
      ],
      "stateMutability": "view",
      "type": "function"
    },
    {
      "inputs": [
        {
          "internalType": "address",
          "name": "from",
          "type": "address"
        },
        {
          "internalType": "uint256",
          "name": "tokens",
          "type": "uint256"
        },
        {
          "internalType": "address",
          "name": "token",
          "type": "address"
        },
        {
          "internalType": "bytes",
          "name": "data",
          "type": "bytes"
        }
      ],
      "name": "receiveApproval",
      "outputs": [],
      "stateMutability": "nonpayable",
      "type": "function"
    },
    {
      "inputs": [],
      "name": "rewardEra",
      "outputs": [
        {
          "internalType": "uint256",
          "name": "",
          "type": "uint256"
        }
      ],
      "stateMutability": "view",
      "type": "function"
    },
    {
      "inputs": [],
      "name": "reward_amount",
      "outputs": [
        {
          "internalType": "uint256",
          "name": "",
          "type": "uint256"
        }
      ],
      "stateMutability": "view",
      "type": "function"
    },
    {
      "inputs": [
        {
          "internalType": "bytes32",
          "name": "",
          "type": "bytes32"
        }
      ],
      "name": "solutionForChallenge",
      "outputs": [
        {
          "internalType": "bytes32",
          "name": "",
          "type": "bytes32"
        }
      ],
      "stateMutability": "view",
      "type": "function"
    },
    {
      "inputs": [],
      "name": "symbol",
      "outputs": [
        {
          "internalType": "string",
          "name": "",
          "type": "string"
        }
      ],
      "stateMutability": "view",
      "type": "function"
    },
    {
      "inputs": [],
      "name": "targetTime",
      "outputs": [
        {
          "internalType": "uint256",
          "name": "",
          "type": "uint256"
        }
      ],
      "stateMutability": "view",
      "type": "function"
    },
    {
      "inputs": [],
      "name": "tokensMinted",
      "outputs": [
        {
          "internalType": "uint256",
          "name": "",
          "type": "uint256"
        }
      ],
      "stateMutability": "view",
      "type": "function"
    },
    {
      "inputs": [],
      "name": "totalLifetimes",
      "outputs": [
        {
          "internalType": "uint256",
          "name": "",
          "type": "uint256"
        }
      ],
      "stateMutability": "view",
      "type": "function"
    },
    {
      "inputs": [],
      "name": "totalSupply",
      "outputs": [
        {
          "internalType": "uint256",
          "name": "",
          "type": "uint256"
        }
      ],
      "stateMutability": "view",
      "type": "function"
    },
    {
      "inputs": [
        {
          "internalType": "address",
          "name": "to",
          "type": "address"
        },
        {
          "internalType": "uint256",
          "name": "tokens",
          "type": "uint256"
        }
      ],
      "name": "transfer",
      "outputs": [
        {
          "internalType": "bool",
          "name": "success",
          "type": "bool"
        }
      ],
      "stateMutability": "nonpayable",
      "type": "function"
    },
    {
      "inputs": [
        {
          "internalType": "address",
          "name": "from",
          "type": "address"
        },
        {
          "internalType": "address",
          "name": "to",
          "type": "address"
        },
        {
          "internalType": "uint256",
          "name": "tokens",
          "type": "uint256"
        }
      ],
      "name": "transferFrom",
      "outputs": [
        {
          "internalType": "bool",
          "name": "success",
          "type": "bool"
        }
      ],
      "stateMutability": "nonpayable",
      "type": "function"
    },
    {
      "inputs": [
        {
          "internalType": "address",
          "name": "AuctionAddress2",
          "type": "address"
        },
        {
          "internalType": "address",
          "name": "LPGuild2",
          "type": "address"
        },
        {
          "internalType": "address",
          "name": "_ZeroXBTCAddress",
          "type": "address"
        }
      ],
      "name": "zinit",
      "outputs": [],
      "stateMutability": "nonpayable",
      "type": "function"
    },
    {
      "inputs": [
        {
          "internalType": "address",
          "name": "AuctionAddress2",
          "type": "address"
        },
        {
          "internalType": "address",
          "name": "LPGuild2",
          "type": "address"
        },
        {
          "internalType": "address",
          "name": "_ZeroXBTCAddress",
          "type": "address"
        }
      ],
      "name": "zinit2",
      "outputs": [],
      "stateMutability": "nonpayable",
      "type": "function"
    },
    {
      "stateMutability": "payable",
      "type": "receive"
    }
  ],
  "bytecode": "60806040526a22bdd89dce55b0116400006004556a115eec47f6cf7e3500000060055542600655600060075561010060085562010000600955600160ea1b600a556200006265048c27395000600a54620001d360201b62001c921790919060201c565b600b556000600d55620000a3600d5460016200007f9190620002e6565b6200008c906002620003fe565b600554620001d360201b62001c921790919060201c565b600554620000b291906200040c565b600e55620000f9600d546002620000ca9190620003fe565b620000d86012600a620003fe565b620000e590609662000426565b620001d360201b62001c921790919060201c565b600f556000601081905542601155670de0b6b3a76400006012556305f5e100601355620f42406014819055601555601c556001601d5560408051808201909152600580825264466f72676560d81b60209092019182526200015d91601e916200022a565b506000601f55436020556021805460ff191690553480156200017e57600080fd5b50600080546001600160a01b0319163390811782556040805192835260208301919091527f5c486528ec3e3f0ea91181cff8116f02bfa350e03b8b6f12e00765adbb5af85c910160405180910390a1620004a8565b600081620002155760405162461bcd60e51b815260206004820152600b60248201526a446976206279207a65726f60a81b604482015260640160405180910390fd5b62000221828462000448565b90505b92915050565b82805462000238906200046b565b90600052602060002090601f0160209004810192826200025c5760008555620002a7565b82601f106200027757805160ff1916838001178555620002a7565b82800160010185558215620002a7579182015b82811115620002a75782518255916020019190600101906200028a565b50620002b5929150620002b9565b5090565b5b80821115620002b55760008155600101620002ba565b634e487b7160e01b600052601160045260246000fd5b60008219821115620002fc57620002fc620002d0565b500190565b600181815b8085111562000342578160001904821115620003265762000326620002d0565b808516156200033457918102915b93841c939080029062000306565b509250929050565b6000826200035b5750600162000224565b816200036a5750600062000224565b81600181146200038357600281146200038e57620003ae565b600191505062000224565b60ff841115620003a257620003a2620002d0565b50506001821b62000224565b5060208310610133831016604e8410600b8410161715620003d3575081810a62000224565b620003df838362000301565b8060001904821115620003f657620003f6620002d0565b029392505050565b60006200022183836200034a565b600082821015620004215762000421620002d0565b500390565b6000816000190483118215151615620004435762000443620002d0565b500290565b6000826200046657634e487b7160e01b600052601260045260246000fd5b500490565b600181811c908216806200048057607f821691505b60208210811415620004a257634e487b7160e01b600052602260045260246000fd5b50919050565b6128e580620004b86000396000f3fe6080604052600436106102b25760003560e01c8063757991a81161017557806397566aa0116100dc578063c8a1465c11610095578063dc6e9cf91161006f578063dc6e9cf914610816578063dd62ed3e1461082c578063ddfbd8dd14610872578063e932012b1461089257600080fd5b8063c8a1465c146107cb578063cb9ae707146107eb578063d0856d161461080157600080fd5b806397566aa01461071d578063a68eb88e1461073d578063a70a8d2314610753578063a9059cbb14610780578063b5ade81b146107a0578063c0abebe0146107b657600080fd5b80638ae0368b1161012e5780638ae0368b146106495780638da5cb5b1461065f5780638f4ffcb11461067f57806390dc1ca31461069f57806394b939ef146106cc57806395d89b41146106ec57600080fd5b8063757991a8146105bc57806381269a56146105d1578063829965cc146105f157806387a2a9d6146106075780638a5550f61461061d5780638a769d351461063357600080fd5b8063313ce56711610219578063510de094116101d2578063510de094146104e157806359c5bf601461050157806364e4672614610523578063669753a7146105435780636de9f32b1461057057806370a082311461058657600080fd5b8063313ce5671461044f57806332e997081461047657806345d8a2321461048b578063490203a7146104a15780634ef37628146104b65780634fa972e1146104cb57600080fd5b806318160ddd1161026b57806318160ddd146103955780631fccb33c146103ab5780632381a60e146103cb57806323b872dd146103e15780632d38bf7a146104015780632f104e0c1461041757600080fd5b806306fdde03146102c1578063095ea7b3146102ec5780630d56d6e11461031c578063102943171461033c57806317da485f146103605780631801fbe51461037557600080fd5b366102bc57600080fd5b600080fd5b3480156102cd57600080fd5b506102d66108a8565b6040516102e39190612140565b60405180910390f35b3480156102f857600080fd5b5061030c6103073660046121b1565b610936565b60405190151581526020016102e3565b34801561032857600080fd5b5061030c6103373660046121ec565b6109a3565b34801561034857600080fd5b5061035260115481565b6040519081526020016102e3565b34801561036c57600080fd5b50610352610ba3565b34801561038157600080fd5b5061030c610390366004612225565b610bc1565b3480156103a157600080fd5b5061035260045481565b3480156103b757600080fd5b5061030c6103c6366004612315565b610bd5565b3480156103d757600080fd5b50610352600f5481565b3480156103ed57600080fd5b5061030c6103fc366004612376565b610c9a565b34801561040d57600080fd5b50610352600d5481565b34801561042357600080fd5b50600254610437906001600160a01b031681565b6040516001600160a01b0390911681526020016102e3565b34801561045b57600080fd5b50610464601281565b60405160ff90911681526020016102e3565b34801561048257600080fd5b50600b54610352565b34801561049757600080fd5b5061035261087081565b3480156104ad57600080fd5b50610352610d86565b3480156104c257600080fd5b50600c54610352565b3480156104d757600080fd5b50610352600e5481565b3480156104ed57600080fd5b50600354610437906001600160a01b031681565b34801561050d57600080fd5b5061052161051c3660046123b2565b610db1565b005b34801561052f57600080fd5b5061052161053e3660046123b2565b610e3c565b34801561054f57600080fd5b5061035261055e3660046123f5565b60176020526000908152604090205481565b34801561057c57600080fd5b5061035260195481565b34801561059257600080fd5b506103526105a136600461240e565b6001600160a01b03166000908152601a602052604090205490565b3480156105c857600080fd5b50600754610352565b3480156105dd57600080fd5b5061030c6105ec366004612429565b610fc3565b3480156105fd57600080fd5b5061035260075481565b34801561061357600080fd5b50610352600a5481565b34801561062957600080fd5b50610352601f5481565b34801561063f57600080fd5b50610352600b5481565b34801561065557600080fd5b50610352600c5481565b34801561066b57600080fd5b50600054610437906001600160a01b031681565b34801561068b57600080fd5b5061052161069a36600461245b565b61100e565b3480156106ab57600080fd5b506103526106ba3660046123f5565b60186020526000908152604090205481565b3480156106d857600080fd5b50600154610437906001600160a01b031681565b3480156106f857600080fd5b506102d660405180604001604052806005815260200164466f72676560d81b81525081565b34801561072957600080fd5b5061035261073836600461251b565b61109b565b34801561074957600080fd5b5061035260145481565b34801561075f57600080fd5b5061035261076e3660046123f5565b60166020526000908152604090205481565b34801561078c57600080fd5b5061030c61079b3660046121b1565b6110d6565b3480156107ac57600080fd5b5061035260085481565b3480156107c257600080fd5b50601954610352565b3480156107d757600080fd5b5061030c6107e6366004612547565b61115b565b3480156107f757600080fd5b5061035260205481565b34801561080d57600080fd5b50610521611766565b34801561082257600080fd5b5061035260095481565b34801561083857600080fd5b506103526108473660046125be565b6001600160a01b039182166000908152601b6020908152604080832093909416825291909152205490565b34801561087e57600080fd5b5061030c61088d3660046125f1565b6118ff565b34801561089e57600080fd5b5061035260065481565b601e80546108b59061261d565b80601f01602080910402602001604051908101604052809291908181526020018280546108e19061261d565b801561092e5780601f106109035761010080835404028352916020019161092e565b820191906000526020600020905b81548152906001019060200180831161091157829003601f168201915b505050505081565b336000818152601b602090815260408083206001600160a01b038716808552925280832085905551919290917f8c5be1e5ebec7d5bd14f71427d1e84f3dd0314c0f7b2291e5b200ac8c7c3b925906109919086815260200190565b60405180910390a35060015b92915050565b60006109ad611ce0565b6000601154426109bd919061266e565b90506004610870821115610a0c575060045b600a811015610a0c576109ef60036109e983610870612685565b90611c92565b82116109fa57610a0c565b80610a04816126a4565b9150506109cf565b6000610a216004600f54846109e99190612685565b336000908152601a6020526040902054909150610a3e9082611e92565b336000908152601a6020526040902055610a7d610a5c826002611c92565b6002546001600160a01b03166000908152601a602052604090205490611e92565b6002546001600160a01b03166000908152601a6020526040902055601954610aa59082611e92565b60195542601155601c5415610b4c57600354601c546014546001600160a01b039092169163a9059cbb913391610adb9190612685565b6040516001600160e01b031960e085901b1681526001600160a01b03909216600483015260248201526044016020604051808303816000875af1158015610b26573d6000803e3d6000fd5b505050506040513d601f19601f82011682018060405250810190610b4a91906126bf565b505b600f54600754600c546040805193845260208401929092529082015233907fcf6fbb9dcea7d07263ab4f5c3a92f53af33dffc421d9d121e1c74b307e68189d9060600160405180910390a250600195945050505050565b6000610bbc600b54600a54611c9290919063ffffffff16565b905090565b6000610bce8383336118ff565b5092915050565b60008083516001610be691906126dc565b67ffffffffffffffff811115610bfe57610bfe612247565b604051908082528060200260200182016040528015610c27578160200160208202803683370190505b5090506000805b8551610c3b9060016126dc565b811015610c7f5784838281518110610c5557610c556126f4565b6001600160a01b039092166020928302919091019091015280610c77816126a4565b915050610c2e565b50610c8c8787878561115b565b506001979650505050505050565b6001600160a01b0383166000908152601a6020526040812054610cbd9083611ee0565b6001600160a01b0385166000908152601a6020908152604080832093909355601b815282822033835290522054610cf49083611ee0565b6001600160a01b038086166000908152601b602090815260408083203384528252808320949094559186168152601a9091522054610d329083611e92565b6001600160a01b038085166000818152601a6020526040908190209390935591519086169060008051602061289083398151915290610d749086815260200190565b60405180910390a35060019392505050565b6000610bbc600d546002610d9a91906127ee565b610da66012600a6127ee565b6109e9906096612685565b6000546001600160a01b03163314610dfd5760405162461bcd60e51b815260206004820152600a60248201526937b7363c9037bbb732b960b11b60448201526064015b60405180910390fd5b600180546001600160a01b039485166001600160a01b031991821617909155600280549385169382169390931790925560038054919093169116179055565b6000546001600160a01b03163314610e835760405162461bcd60e51b815260206004820152600a60248201526937b7363c9037bbb732b960b11b6044820152606401610df4565b6000601f546002610e9491906127ee565b610e9f906002612685565b610eb4906a115eec47f6cf7e35000000612810565b60215490915060ff1615610eca57610eca612824565b6021805460ff191660011790556000600d819055601955600a54610ef090617535611c92565b600b55610efb611ce0565b6001600160a01b0384166000818152601a6020908152604080832085905551848152600080516020612890833981519152910160405180910390a3600180546001600160a01b038087166001600160a01b031992831617909255600280548684169083161790556003805492851692909116919091179055600754601055336000818152601a6020526040808220670de0b6b3a764000090819055905160008051602061289083398151915291610fb59190815260200190565b60405180910390a350505050565b600080833387604051602001610fdb9392919061283a565b604051602081830303815290604052805190602001209050828160001c111561100357600080fd5b909314949350505050565b6001600160a01b038216301461102357600080fd5b60405163a9059cbb60e01b81526001600160a01b038516600482015260248101849052309063a9059cbb906044016020604051808303816000875af1158015611070573d6000803e3d6000fd5b505050506040513d601f19601f8201168201806040525081019061109491906126bf565b5050505050565b600080600c5433866040516020016110b59392919061283a565b60408051808303601f19018152919052805160209091012095945050505050565b336000908152601a60205260408120546110f09083611ee0565b336000908152601a6020526040808220929092556001600160a01b0385168152205461111c9083611e92565b6001600160a01b0384166000818152601a6020526040908190209290925590513390600080516020612890833981519152906109919086815260200190565b601154600090600a908290611170904261266e565b90505b61118460586109e984610870612685565b811161119c5781611194816126a4565b925050611173565b84516111a99060016126dc565b84511461121e5760405162461bcd60e51b815260206004820152603d60248201527f536f204d696e74546f2068617320746f20686176652073616d65206e756d626560448201527f72206f66206164647265737373657320617320457874726146756e64730000006064820152608401610df4565b60005b85518110156113b257306001600160a01b0316868281518110611246576112466126f4565b60200260200101516001600160a01b031614158015611297575060035486516001600160a01b0390911690879083908110611283576112836126f4565b60200260200101516001600160a01b031614155b6112e35760405162461bcd60e51b815260206004820152601a60248201527f4e6f2062617365207072696e74696e67206f6620746f6b656e730000000000006044820152606401610df4565b60015b865181101561139f57868281518110611301576113016126f4565b60200260200101516001600160a01b0316878281518110611324576113246126f4565b60200260200101516001600160a01b031614158061134157508082145b61138d5760405162461bcd60e51b815260206004820152601b60248201527f4e6f207072696e74696e67205468652073616d6520746f6b656e7300000000006044820152606401610df4565b80611397816126a4565b9150506112e6565b50806113aa816126a4565b915050611221565b506113d88787866000815181106113cb576113cb6126f4565b60200260200101516118ff565b6114115760405162461bcd60e51b815260206004820152600a6024820152696d696e7420697373756560b01b6044820152606401610df4565b6000805b8651811015611705576114298160016126dc565b6114349060026127ee565b6007546114419190612862565b6116f3576000878281518110611459576114596126f4565b60209081029190910101516040516370a0823160e01b81523060048201526001600160a01b03909116906370a0823190602401602060405180830381865afa1580156114a9573d6000803e3d6000fd5b505050506040513d601f19601f820116820180604052508101906114cd9190612876565b905080156116ee5760008060586114e5886064612685565b6114ef9190612810565b905060036114fe8560016126dc565b6115089190612862565b15801561151457508315155b156115aa5761076081106115405761153962035b606115338986612685565b90611f2c565b9150611633565b60c881106115655761153962035b608861155b866002612685565b6115339190612685565b60968110611580576115396206b6c08861155b866003612685565b6067811061159b57611539620a12208861155b866004612685565b61153960586115338986612685565b61076081106115c45761153962035b606109e98986612685565b60c881106115e95761153962035b60886115df866002612685565b6109e99190612685565b60968110611604576115396206b6c0886115df866003612685565b6067811061161f57611539620a1220886115df866004612685565b61163062035b606109e98986612685565b91505b898481518110611645576116456126f4565b60200260200101516001600160a01b031663a9059cbb8a868151811061166d5761166d6126f4565b6020026020010151846040518363ffffffff1660e01b81526004016116a79291906001600160a01b03929092168252602082015260400190565b6020604051808303816000875af11580156116c6573d6000803e3d6000fd5b505050506040513d601f19601f820116820180604052508101906116ea91906126bf565b5050505b819250505b806116fd816126a4565b915050611415565b50600f54600754600c54604080519384526020840192909252908201526060810182905233907f8d1274a08a1f38c385cc00828b937d1a29d4ce3a901ede97b42639d0c19ae2ae9060800160405180910390a2506001979650505050505050565b6000601054600754611778919061266e565b905061178c600d546002610d9a91906127ee565b600f556008546014546004916117a191612685565b6117ac906006612685565b6117b69190612810565b6003546040516370a0823160e01b81523060048201526001600160a01b03909116906370a0823190602401602060405180830381865afa1580156117fe573d6000803e3d6000fd5b505050506040513d601f19601f820116820180604052508101906118229190612876565b11156118f057601d54611836906001612685565b601c819055600354600280546014546001600160a01b039384169463a9059cbb949092169291906118679087612685565b6118719190612685565b61187b9190612810565b6040516001600160e01b031960e085901b1681526001600160a01b03909216600483015260248201526044016020604051808303816000875af11580156118c6573d6000803e3d6000fd5b505050506040513d601f19601f820116820180604052508101906118ea91906126bf565b506118f6565b6000601c555b50600754601055565b6000611918600f54601954611e9290919063ffffffff16565b506000600c5433866040516020016119329392919061283a565b6040516020818303038152906040528051906020012090508381146119b05760405162461bcd60e51b815260206004820152602e60248201527f4f6c64206368616c6c656e67655f646967657374206f722077726f6e6720636860448201526d185b1b195b99d957d91a59d95cdd60921b6064820152608401610df4565b600b548110611a125760405162461bcd60e51b815260206004820152602860248201527f446967657374206d75737420626520736d616c6c6572207468616e206d696e696044820152671b99d5185c99d95d60c21b6064820152608401610df4565b611a1a611ce0565b600060115442611a2a919061266e565b905060035b611a4060586109e983610870612685565b8211611a585780611a50816126a4565b915050611a2f565b60006058611a67836064612685565b611a719190612810565b905060006107608210611a9857611a91605884600f546109e99190612685565b9050611b06565b60c88210611ab557611a91605884600f5460026115df9190612685565b60968210611ad257611a9160b084600f5460036115df9190612685565b60678210611af057611a9161010884600f5460046115df9190612685565b611b03605884600f546109e99190612685565b90505b6001600160a01b0387166000908152601a60205260409020548190611b2b9082611e92565b6001600160a01b0389166000908152601a6020526040902055611b52610a5c826002611c92565b600280546001600160a01b03166000908152601a6020526040902091909155611b9490611b80908390611c92565b611b8b906003612685565b60195490611e92565b60195542601155601c5415611c3b57600354601c546014546001600160a01b039092169163a9059cbb918b91611bca9190612685565b6040516001600160e01b031960e085901b1681526001600160a01b03909216600483015260248201526044016020604051808303816000875af1158015611c15573d6000803e3d6000fd5b505050506040513d601f19601f82011682018060405250810190611c3991906126bf565b505b600754600c5460408051848152602081019390935282015233907fcf6fbb9dcea7d07263ab4f5c3a92f53af33dffc421d9d121e1c74b307e68189d9060600160405180910390a25060019998505050505050505050565b600081611ccf5760405162461bcd60e51b815260206004820152600b60248201526a446976206279207a65726f60a81b6044820152606401610df4565b611cd98284612810565b9392505050565b600e54600f54601954611cf291611e92565b118015611d0157506027600d54105b15611d3557600d54611d149060016126dc565b600d819055611d3190611d289060026127ee565b600b5490611c92565b600b555b600754611d43906001611e92565b600755600854611d5590600490612810565b600754611d629190612862565b611e8157611d6e611766565b611d94600d546001611d8091906126dc565b611d8b9060026127ee565b60055490611c92565b600554611da1919061266e565b600e55600854600754611db49190612862565b611e81576014546003546040516370a0823160e01b8152306004820152614e2092916001600160a01b0316906370a0823190602401602060405180830381865afa158015611e06573d6000803e3d6000fd5b505050506040513d601f19601f82011682018060405250810190611e2a9190612876565b611e349190612810565b11611e6757601554601454611e4a906002611c92565b1115611e6257601454611e5e906002611c92565b6014555b611e79565b601454611e75906003611f99565b6014555b611e81611ffe565b611e8c60014361266e565b40600c55565b600080611e9f83856126dc565b905083811015611cd95760405162461bcd60e51b815260206004820152600c60248201526b416464206f766572666c6f7760a01b6044820152606401610df4565b600081831015611f225760405162461bcd60e51b815260206004820152600d60248201526c53756220756e646572666c6f7760981b6044820152606401610df4565b611cd9828461266e565b600081611f695760405162461bcd60e51b815260206004820152600b60248201526a446976206279207a65726f60a81b6044820152606401610df4565b6000611f758385612810565b9050611f818385612862565b15611cd957611f918160016126dc565b949350505050565b600082611fa85750600061099d565b6000611fb48385612685565b905082611fc18583612810565b14611cd95760405162461bcd60e51b815260206004820152600d60248201526c4d756c74206f766572666c6f7760981b6044820152606401610df4565b436020556006544290600090612014908361266e565b600854909150600061202882610870612685565b90508083101561209d576000612043846109e9846064611f99565b6001601d55905060006120636103e861205d846064611ee0565b90612128565b9050612092612089826120836107d0600b54611c9290919063ffffffff16565b90611f99565b600b5490611ee0565b600b55506120f79050565b60006120ae826109e9866064611f99565b6002601d55905060006120c86103e861205d846064611ee0565b90506120f16120e8826120836107d0600b54611c9290919063ffffffff16565b600b5490611e92565b600b5550505b6006849055600954600b54101561210f57600954600b555b600a54600b54111561212257600a54600b555b50505050565b60008183111561213957508061099d565b5090919050565b600060208083528351808285015260005b8181101561216d57858101830151858201604001528201612151565b8181111561217f576000604083870101525b50601f01601f1916929092016040019392505050565b80356001600160a01b03811681146121ac57600080fd5b919050565b600080604083850312156121c457600080fd5b6121cd83612195565b946020939093013593505050565b80151581146121e957600080fd5b50565b600080604083850312156121ff57600080fd5b823561220a816121db565b9150602083013561221a816121db565b809150509250929050565b6000806040838503121561223857600080fd5b50508035926020909101359150565b634e487b7160e01b600052604160045260246000fd5b604051601f8201601f1916810167ffffffffffffffff8111828210171561228657612286612247565b604052919050565b600082601f83011261229f57600080fd5b8135602067ffffffffffffffff8211156122bb576122bb612247565b8160051b6122ca82820161225d565b92835284810182019282810190878511156122e457600080fd5b83870192505b8483101561230a576122fb83612195565b825291830191908301906122ea565b979650505050505050565b6000806000806080858703121561232b57600080fd5b8435935060208501359250604085013567ffffffffffffffff81111561235057600080fd5b61235c8782880161228e565b92505061236b60608601612195565b905092959194509250565b60008060006060848603121561238b57600080fd5b61239484612195565b92506123a260208501612195565b9150604084013590509250925092565b6000806000606084860312156123c757600080fd5b6123d084612195565b92506123de60208501612195565b91506123ec60408501612195565b90509250925092565b60006020828403121561240757600080fd5b5035919050565b60006020828403121561242057600080fd5b611cd982612195565b6000806000806080858703121561243f57600080fd5b5050823594602084013594506040840135936060013592509050565b6000806000806080858703121561247157600080fd5b61247a85612195565b9350602080860135935061249060408701612195565b9250606086013567ffffffffffffffff808211156124ad57600080fd5b818801915088601f8301126124c157600080fd5b8135818111156124d3576124d3612247565b6124e5601f8201601f1916850161225d565b915080825289848285010111156124fb57600080fd5b808484018584013760008482840101525080935050505092959194509250565b60008060006060848603121561253057600080fd5b505081359360208301359350604090920135919050565b6000806000806080858703121561255d57600080fd5b8435935060208501359250604085013567ffffffffffffffff8082111561258357600080fd5b61258f8883890161228e565b935060608701359150808211156125a557600080fd5b506125b28782880161228e565b91505092959194509250565b600080604083850312156125d157600080fd5b6125da83612195565b91506125e860208401612195565b90509250929050565b60008060006060848603121561260657600080fd5b83359250602084013591506123ec60408501612195565b600181811c9082168061263157607f821691505b6020821081141561265257634e487b7160e01b600052602260045260246000fd5b50919050565b634e487b7160e01b600052601160045260246000fd5b60008282101561268057612680612658565b500390565b600081600019048311821515161561269f5761269f612658565b500290565b60006000198214156126b8576126b8612658565b5060010190565b6000602082840312156126d157600080fd5b8151611cd9816121db565b600082198211156126ef576126ef612658565b500190565b634e487b7160e01b600052603260045260246000fd5b600181815b8085111561274557816000190482111561272b5761272b612658565b8085161561273857918102915b93841c939080029061270f565b509250929050565b60008261275c5750600161099d565b816127695750600061099d565b816001811461277f5760028114612789576127a5565b600191505061099d565b60ff84111561279a5761279a612658565b50506001821b61099d565b5060208310610133831016604e8410600b84101617156127c8575081810a61099d565b6127d2838361270a565b80600019048211156127e6576127e6612658565b029392505050565b6000611cd9838361274d565b634e487b7160e01b600052601260045260246000fd5b60008261281f5761281f6127fa565b500490565b634e487b7160e01b600052600160045260246000fd5b92835260609190911b6bffffffffffffffffffffffff19166020830152603482015260540190565b600082612871576128716127fa565b500690565b60006020828403121561288857600080fd5b505191905056feddf252ad1be2c89b69c2b068fc378daa952ba7f163c4a11628f55a4df523b3efa2646970667358221220ccced2850f85e22d1a82e95b0c69fce2acefb508912561129f914b23a866ccdf64736f6c634300080b0033",
  "bytecodeSha1": "9aaf04314ef151ec7f70f9fb714853ea2625f62b",
  "compiler": {
    "evm_version": "istanbul",
    "optimizer": {
      "enabled": true,
      "runs": 200
    },
    "version": "0.8.11+commit.d7f03943"
  },
  "contractName": "ForgeMining",
  "language": "Solidity",
  "natspec": {
    "kind": "dev",
    "methods": {},
    "version": 1
  },
  "opcodes": "PUSH1 0x80 PUSH1 0x40 MSTORE PUSH1 0x4 CALLDATASIZE LT PUSH2 0x2B2 JUMPI PUSH1 0x0 CALLDATALOAD PUSH1 0xE0 SHR DUP1 PUSH4 0x757991A8 GT PUSH2 0x175 JUMPI DUP1 PUSH4 0x97566AA0 GT PUSH2 0xDC JUMPI DUP1 PUSH4 0xC8A1465C GT PUSH2 0x95 JUMPI DUP1 PUSH4 0xDC6E9CF9 GT PUSH2 0x6F JUMPI DUP1 PUSH4 0xDC6E9CF9 EQ PUSH2 0x816 JUMPI DUP1 PUSH4 0xDD62ED3E EQ PUSH2 0x82C JUMPI DUP1 PUSH4 0xDDFBD8DD EQ PUSH2 0x872 JUMPI DUP1 PUSH4 0xE932012B EQ PUSH2 0x892 JUMPI PUSH1 0x0 DUP1 REVERT JUMPDEST DUP1 PUSH4 0xC8A1465C EQ PUSH2 0x7CB JUMPI DUP1 PUSH4 0xCB9AE707 EQ PUSH2 0x7EB JUMPI DUP1 PUSH4 0xD0856D16 EQ PUSH2 0x801 JUMPI PUSH1 0x0 DUP1 REVERT JUMPDEST DUP1 PUSH4 0x97566AA0 EQ PUSH2 0x71D JUMPI DUP1 PUSH4 0xA68EB88E EQ PUSH2 0x73D JUMPI DUP1 PUSH4 0xA70A8D23 EQ PUSH2 0x753 JUMPI DUP1 PUSH4 0xA9059CBB EQ PUSH2 0x780 JUMPI DUP1 PUSH4 0xB5ADE81B EQ PUSH2 0x7A0 JUMPI DUP1 PUSH4 0xC0ABEBE0 EQ PUSH2 0x7B6 JUMPI PUSH1 0x0 DUP1 REVERT JUMPDEST DUP1 PUSH4 0x8AE0368B GT PUSH2 0x12E JUMPI DUP1 PUSH4 0x8AE0368B EQ PUSH2 0x649 JUMPI DUP1 PUSH4 0x8DA5CB5B EQ PUSH2 0x65F JUMPI DUP1 PUSH4 0x8F4FFCB1 EQ PUSH2 0x67F JUMPI DUP1 PUSH4 0x90DC1CA3 EQ PUSH2 0x69F JUMPI DUP1 PUSH4 0x94B939EF EQ PUSH2 0x6CC JUMPI DUP1 PUSH4 0x95D89B41 EQ PUSH2 0x6EC JUMPI PUSH1 0x0 DUP1 REVERT JUMPDEST DUP1 PUSH4 0x757991A8 EQ PUSH2 0x5BC JUMPI DUP1 PUSH4 0x81269A56 EQ PUSH2 0x5D1 JUMPI DUP1 PUSH4 0x829965CC EQ PUSH2 0x5F1 JUMPI DUP1 PUSH4 0x87A2A9D6 EQ PUSH2 0x607 JUMPI DUP1 PUSH4 0x8A5550F6 EQ PUSH2 0x61D JUMPI DUP1 PUSH4 0x8A769D35 EQ PUSH2 0x633 JUMPI PUSH1 0x0 DUP1 REVERT JUMPDEST DUP1 PUSH4 0x313CE567 GT PUSH2 0x219 JUMPI DUP1 PUSH4 0x510DE094 GT PUSH2 0x1D2 JUMPI DUP1 PUSH4 0x510DE094 EQ PUSH2 0x4E1 JUMPI DUP1 PUSH4 0x59C5BF60 EQ PUSH2 0x501 JUMPI DUP1 PUSH4 0x64E46726 EQ PUSH2 0x523 JUMPI DUP1 PUSH4 0x669753A7 EQ PUSH2 0x543 JUMPI DUP1 PUSH4 0x6DE9F32B EQ PUSH2 0x570 JUMPI DUP1 PUSH4 0x70A08231 EQ PUSH2 0x586 JUMPI PUSH1 0x0 DUP1 REVERT JUMPDEST DUP1 PUSH4 0x313CE567 EQ PUSH2 0x44F JUMPI DUP1 PUSH4 0x32E99708 EQ PUSH2 0x476 JUMPI DUP1 PUSH4 0x45D8A232 EQ PUSH2 0x48B JUMPI DUP1 PUSH4 0x490203A7 EQ PUSH2 0x4A1 JUMPI DUP1 PUSH4 0x4EF37628 EQ PUSH2 0x4B6 JUMPI DUP1 PUSH4 0x4FA972E1 EQ PUSH2 0x4CB JUMPI PUSH1 0x0 DUP1 REVERT JUMPDEST DUP1 PUSH4 0x18160DDD GT PUSH2 0x26B JUMPI DUP1 PUSH4 0x18160DDD EQ PUSH2 0x395 JUMPI DUP1 PUSH4 0x1FCCB33C EQ PUSH2 0x3AB JUMPI DUP1 PUSH4 0x2381A60E EQ PUSH2 0x3CB JUMPI DUP1 PUSH4 0x23B872DD EQ PUSH2 0x3E1 JUMPI DUP1 PUSH4 0x2D38BF7A EQ PUSH2 0x401 JUMPI DUP1 PUSH4 0x2F104E0C EQ PUSH2 0x417 JUMPI PUSH1 0x0 DUP1 REVERT JUMPDEST DUP1 PUSH4 0x6FDDE03 EQ PUSH2 0x2C1 JUMPI DUP1 PUSH4 0x95EA7B3 EQ PUSH2 0x2EC JUMPI DUP1 PUSH4 0xD56D6E1 EQ PUSH2 0x31C JUMPI DUP1 PUSH4 0x10294317 EQ PUSH2 0x33C JUMPI DUP1 PUSH4 0x17DA485F EQ PUSH2 0x360 JUMPI DUP1 PUSH4 0x1801FBE5 EQ PUSH2 0x375 JUMPI PUSH1 0x0 DUP1 REVERT JUMPDEST CALLDATASIZE PUSH2 0x2BC JUMPI PUSH1 0x0 DUP1 REVERT JUMPDEST PUSH1 0x0 DUP1 REVERT JUMPDEST CALLVALUE DUP1 ISZERO PUSH2 0x2CD JUMPI PUSH1 0x0 DUP1 REVERT JUMPDEST POP PUSH2 0x2D6 PUSH2 0x8A8 JUMP JUMPDEST PUSH1 0x40 MLOAD PUSH2 0x2E3 SWAP2 SWAP1 PUSH2 0x2140 JUMP JUMPDEST PUSH1 0x40 MLOAD DUP1 SWAP2 SUB SWAP1 RETURN JUMPDEST CALLVALUE DUP1 ISZERO PUSH2 0x2F8 JUMPI PUSH1 0x0 DUP1 REVERT JUMPDEST POP PUSH2 0x30C PUSH2 0x307 CALLDATASIZE PUSH1 0x4 PUSH2 0x21B1 JUMP JUMPDEST PUSH2 0x936 JUMP JUMPDEST PUSH1 0x40 MLOAD SWAP1 ISZERO ISZERO DUP2 MSTORE PUSH1 0x20 ADD PUSH2 0x2E3 JUMP JUMPDEST CALLVALUE DUP1 ISZERO PUSH2 0x328 JUMPI PUSH1 0x0 DUP1 REVERT JUMPDEST POP PUSH2 0x30C PUSH2 0x337 CALLDATASIZE PUSH1 0x4 PUSH2 0x21EC JUMP JUMPDEST PUSH2 0x9A3 JUMP JUMPDEST CALLVALUE DUP1 ISZERO PUSH2 0x348 JUMPI PUSH1 0x0 DUP1 REVERT JUMPDEST POP PUSH2 0x352 PUSH1 0x11 SLOAD DUP2 JUMP JUMPDEST PUSH1 0x40 MLOAD SWAP1 DUP2 MSTORE PUSH1 0x20 ADD PUSH2 0x2E3 JUMP JUMPDEST CALLVALUE DUP1 ISZERO PUSH2 0x36C JUMPI PUSH1 0x0 DUP1 REVERT JUMPDEST POP PUSH2 0x352 PUSH2 0xBA3 JUMP JUMPDEST CALLVALUE DUP1 ISZERO PUSH2 0x381 JUMPI PUSH1 0x0 DUP1 REVERT JUMPDEST POP PUSH2 0x30C PUSH2 0x390 CALLDATASIZE PUSH1 0x4 PUSH2 0x2225 JUMP JUMPDEST PUSH2 0xBC1 JUMP JUMPDEST CALLVALUE DUP1 ISZERO PUSH2 0x3A1 JUMPI PUSH1 0x0 DUP1 REVERT JUMPDEST POP PUSH2 0x352 PUSH1 0x4 SLOAD DUP2 JUMP JUMPDEST CALLVALUE DUP1 ISZERO PUSH2 0x3B7 JUMPI PUSH1 0x0 DUP1 REVERT JUMPDEST POP PUSH2 0x30C PUSH2 0x3C6 CALLDATASIZE PUSH1 0x4 PUSH2 0x2315 JUMP JUMPDEST PUSH2 0xBD5 JUMP JUMPDEST CALLVALUE DUP1 ISZERO PUSH2 0x3D7 JUMPI PUSH1 0x0 DUP1 REVERT JUMPDEST POP PUSH2 0x352 PUSH1 0xF SLOAD DUP2 JUMP JUMPDEST CALLVALUE DUP1 ISZERO PUSH2 0x3ED JUMPI PUSH1 0x0 DUP1 REVERT JUMPDEST POP PUSH2 0x30C PUSH2 0x3FC CALLDATASIZE PUSH1 0x4 PUSH2 0x2376 JUMP JUMPDEST PUSH2 0xC9A JUMP JUMPDEST CALLVALUE DUP1 ISZERO PUSH2 0x40D JUMPI PUSH1 0x0 DUP1 REVERT JUMPDEST POP PUSH2 0x352 PUSH1 0xD SLOAD DUP2 JUMP JUMPDEST CALLVALUE DUP1 ISZERO PUSH2 0x423 JUMPI PUSH1 0x0 DUP1 REVERT JUMPDEST POP PUSH1 0x2 SLOAD PUSH2 0x437 SWAP1 PUSH1 0x1 PUSH1 0x1 PUSH1 0xA0 SHL SUB AND DUP2 JUMP JUMPDEST PUSH1 0x40 MLOAD PUSH1 0x1 PUSH1 0x1 PUSH1 0xA0 SHL SUB SWAP1 SWAP2 AND DUP2 MSTORE PUSH1 0x20 ADD PUSH2 0x2E3 JUMP JUMPDEST CALLVALUE DUP1 ISZERO PUSH2 0x45B JUMPI PUSH1 0x0 DUP1 REVERT JUMPDEST POP PUSH2 0x464 PUSH1 0x12 DUP2 JUMP JUMPDEST PUSH1 0x40 MLOAD PUSH1 0xFF SWAP1 SWAP2 AND DUP2 MSTORE PUSH1 0x20 ADD PUSH2 0x2E3 JUMP JUMPDEST CALLVALUE DUP1 ISZERO PUSH2 0x482 JUMPI PUSH1 0x0 DUP1 REVERT JUMPDEST POP PUSH1 0xB SLOAD PUSH2 0x352 JUMP JUMPDEST CALLVALUE DUP1 ISZERO PUSH2 0x497 JUMPI PUSH1 0x0 DUP1 REVERT JUMPDEST POP PUSH2 0x352 PUSH2 0x870 DUP2 JUMP JUMPDEST CALLVALUE DUP1 ISZERO PUSH2 0x4AD JUMPI PUSH1 0x0 DUP1 REVERT JUMPDEST POP PUSH2 0x352 PUSH2 0xD86 JUMP JUMPDEST CALLVALUE DUP1 ISZERO PUSH2 0x4C2 JUMPI PUSH1 0x0 DUP1 REVERT JUMPDEST POP PUSH1 0xC SLOAD PUSH2 0x352 JUMP JUMPDEST CALLVALUE DUP1 ISZERO PUSH2 0x4D7 JUMPI PUSH1 0x0 DUP1 REVERT JUMPDEST POP PUSH2 0x352 PUSH1 0xE SLOAD DUP2 JUMP JUMPDEST CALLVALUE DUP1 ISZERO PUSH2 0x4ED JUMPI PUSH1 0x0 DUP1 REVERT JUMPDEST POP PUSH1 0x3 SLOAD PUSH2 0x437 SWAP1 PUSH1 0x1 PUSH1 0x1 PUSH1 0xA0 SHL SUB AND DUP2 JUMP JUMPDEST CALLVALUE DUP1 ISZERO PUSH2 0x50D JUMPI PUSH1 0x0 DUP1 REVERT JUMPDEST POP PUSH2 0x521 PUSH2 0x51C CALLDATASIZE PUSH1 0x4 PUSH2 0x23B2 JUMP JUMPDEST PUSH2 0xDB1 JUMP JUMPDEST STOP JUMPDEST CALLVALUE DUP1 ISZERO PUSH2 0x52F JUMPI PUSH1 0x0 DUP1 REVERT JUMPDEST POP PUSH2 0x521 PUSH2 0x53E CALLDATASIZE PUSH1 0x4 PUSH2 0x23B2 JUMP JUMPDEST PUSH2 0xE3C JUMP JUMPDEST CALLVALUE DUP1 ISZERO PUSH2 0x54F JUMPI PUSH1 0x0 DUP1 REVERT JUMPDEST POP PUSH2 0x352 PUSH2 0x55E CALLDATASIZE PUSH1 0x4 PUSH2 0x23F5 JUMP JUMPDEST PUSH1 0x17 PUSH1 0x20 MSTORE PUSH1 0x0 SWAP1 DUP2 MSTORE PUSH1 0x40 SWAP1 KECCAK256 SLOAD DUP2 JUMP JUMPDEST CALLVALUE DUP1 ISZERO PUSH2 0x57C JUMPI PUSH1 0x0 DUP1 REVERT JUMPDEST POP PUSH2 0x352 PUSH1 0x19 SLOAD DUP2 JUMP JUMPDEST CALLVALUE DUP1 ISZERO PUSH2 0x592 JUMPI PUSH1 0x0 DUP1 REVERT JUMPDEST POP PUSH2 0x352 PUSH2 0x5A1 CALLDATASIZE PUSH1 0x4 PUSH2 0x240E JUMP JUMPDEST PUSH1 0x1 PUSH1 0x1 PUSH1 0xA0 SHL SUB AND PUSH1 0x0 SWAP1 DUP2 MSTORE PUSH1 0x1A PUSH1 0x20 MSTORE PUSH1 0x40 SWAP1 KECCAK256 SLOAD SWAP1 JUMP JUMPDEST CALLVALUE DUP1 ISZERO PUSH2 0x5C8 JUMPI PUSH1 0x0 DUP1 REVERT JUMPDEST POP PUSH1 0x7 SLOAD PUSH2 0x352 JUMP JUMPDEST CALLVALUE DUP1 ISZERO PUSH2 0x5DD JUMPI PUSH1 0x0 DUP1 REVERT JUMPDEST POP PUSH2 0x30C PUSH2 0x5EC CALLDATASIZE PUSH1 0x4 PUSH2 0x2429 JUMP JUMPDEST PUSH2 0xFC3 JUMP JUMPDEST CALLVALUE DUP1 ISZERO PUSH2 0x5FD JUMPI PUSH1 0x0 DUP1 REVERT JUMPDEST POP PUSH2 0x352 PUSH1 0x7 SLOAD DUP2 JUMP JUMPDEST CALLVALUE DUP1 ISZERO PUSH2 0x613 JUMPI PUSH1 0x0 DUP1 REVERT JUMPDEST POP PUSH2 0x352 PUSH1 0xA SLOAD DUP2 JUMP JUMPDEST CALLVALUE DUP1 ISZERO PUSH2 0x629 JUMPI PUSH1 0x0 DUP1 REVERT JUMPDEST POP PUSH2 0x352 PUSH1 0x1F SLOAD DUP2 JUMP JUMPDEST CALLVALUE DUP1 ISZERO PUSH2 0x63F JUMPI PUSH1 0x0 DUP1 REVERT JUMPDEST POP PUSH2 0x352 PUSH1 0xB SLOAD DUP2 JUMP JUMPDEST CALLVALUE DUP1 ISZERO PUSH2 0x655 JUMPI PUSH1 0x0 DUP1 REVERT JUMPDEST POP PUSH2 0x352 PUSH1 0xC SLOAD DUP2 JUMP JUMPDEST CALLVALUE DUP1 ISZERO PUSH2 0x66B JUMPI PUSH1 0x0 DUP1 REVERT JUMPDEST POP PUSH1 0x0 SLOAD PUSH2 0x437 SWAP1 PUSH1 0x1 PUSH1 0x1 PUSH1 0xA0 SHL SUB AND DUP2 JUMP JUMPDEST CALLVALUE DUP1 ISZERO PUSH2 0x68B JUMPI PUSH1 0x0 DUP1 REVERT JUMPDEST POP PUSH2 0x521 PUSH2 0x69A CALLDATASIZE PUSH1 0x4 PUSH2 0x245B JUMP JUMPDEST PUSH2 0x100E JUMP JUMPDEST CALLVALUE DUP1 ISZERO PUSH2 0x6AB JUMPI PUSH1 0x0 DUP1 REVERT JUMPDEST POP PUSH2 0x352 PUSH2 0x6BA CALLDATASIZE PUSH1 0x4 PUSH2 0x23F5 JUMP JUMPDEST PUSH1 0x18 PUSH1 0x20 MSTORE PUSH1 0x0 SWAP1 DUP2 MSTORE PUSH1 0x40 SWAP1 KECCAK256 SLOAD DUP2 JUMP JUMPDEST CALLVALUE DUP1 ISZERO PUSH2 0x6D8 JUMPI PUSH1 0x0 DUP1 REVERT JUMPDEST POP PUSH1 0x1 SLOAD PUSH2 0x437 SWAP1 PUSH1 0x1 PUSH1 0x1 PUSH1 0xA0 SHL SUB AND DUP2 JUMP JUMPDEST CALLVALUE DUP1 ISZERO PUSH2 0x6F8 JUMPI PUSH1 0x0 DUP1 REVERT JUMPDEST POP PUSH2 0x2D6 PUSH1 0x40 MLOAD DUP1 PUSH1 0x40 ADD PUSH1 0x40 MSTORE DUP1 PUSH1 0x5 DUP2 MSTORE PUSH1 0x20 ADD PUSH5 0x466F726765 PUSH1 0xD8 SHL DUP2 MSTORE POP DUP2 JUMP JUMPDEST CALLVALUE DUP1 ISZERO PUSH2 0x729 JUMPI PUSH1 0x0 DUP1 REVERT JUMPDEST POP PUSH2 0x352 PUSH2 0x738 CALLDATASIZE PUSH1 0x4 PUSH2 0x251B JUMP JUMPDEST PUSH2 0x109B JUMP JUMPDEST CALLVALUE DUP1 ISZERO PUSH2 0x749 JUMPI PUSH1 0x0 DUP1 REVERT JUMPDEST POP PUSH2 0x352 PUSH1 0x14 SLOAD DUP2 JUMP JUMPDEST CALLVALUE DUP1 ISZERO PUSH2 0x75F JUMPI PUSH1 0x0 DUP1 REVERT JUMPDEST POP PUSH2 0x352 PUSH2 0x76E CALLDATASIZE PUSH1 0x4 PUSH2 0x23F5 JUMP JUMPDEST PUSH1 0x16 PUSH1 0x20 MSTORE PUSH1 0x0 SWAP1 DUP2 MSTORE PUSH1 0x40 SWAP1 KECCAK256 SLOAD DUP2 JUMP JUMPDEST CALLVALUE DUP1 ISZERO PUSH2 0x78C JUMPI PUSH1 0x0 DUP1 REVERT JUMPDEST POP PUSH2 0x30C PUSH2 0x79B CALLDATASIZE PUSH1 0x4 PUSH2 0x21B1 JUMP JUMPDEST PUSH2 0x10D6 JUMP JUMPDEST CALLVALUE DUP1 ISZERO PUSH2 0x7AC JUMPI PUSH1 0x0 DUP1 REVERT JUMPDEST POP PUSH2 0x352 PUSH1 0x8 SLOAD DUP2 JUMP JUMPDEST CALLVALUE DUP1 ISZERO PUSH2 0x7C2 JUMPI PUSH1 0x0 DUP1 REVERT JUMPDEST POP PUSH1 0x19 SLOAD PUSH2 0x352 JUMP JUMPDEST CALLVALUE DUP1 ISZERO PUSH2 0x7D7 JUMPI PUSH1 0x0 DUP1 REVERT JUMPDEST POP PUSH2 0x30C PUSH2 0x7E6 CALLDATASIZE PUSH1 0x4 PUSH2 0x2547 JUMP JUMPDEST PUSH2 0x115B JUMP JUMPDEST CALLVALUE DUP1 ISZERO PUSH2 0x7F7 JUMPI PUSH1 0x0 DUP1 REVERT JUMPDEST POP PUSH2 0x352 PUSH1 0x20 SLOAD DUP2 JUMP JUMPDEST CALLVALUE DUP1 ISZERO PUSH2 0x80D JUMPI PUSH1 0x0 DUP1 REVERT JUMPDEST POP PUSH2 0x521 PUSH2 0x1766 JUMP JUMPDEST CALLVALUE DUP1 ISZERO PUSH2 0x822 JUMPI PUSH1 0x0 DUP1 REVERT JUMPDEST POP PUSH2 0x352 PUSH1 0x9 SLOAD DUP2 JUMP JUMPDEST CALLVALUE DUP1 ISZERO PUSH2 0x838 JUMPI PUSH1 0x0 DUP1 REVERT JUMPDEST POP PUSH2 0x352 PUSH2 0x847 CALLDATASIZE PUSH1 0x4 PUSH2 0x25BE JUMP JUMPDEST PUSH1 0x1 PUSH1 0x1 PUSH1 0xA0 SHL SUB SWAP2 DUP3 AND PUSH1 0x0 SWAP1 DUP2 MSTORE PUSH1 0x1B PUSH1 0x20 SWAP1 DUP2 MSTORE PUSH1 0x40 DUP1 DUP4 KECCAK256 SWAP4 SWAP1 SWAP5 AND DUP3 MSTORE SWAP2 SWAP1 SWAP2 MSTORE KECCAK256 SLOAD SWAP1 JUMP JUMPDEST CALLVALUE DUP1 ISZERO PUSH2 0x87E JUMPI PUSH1 0x0 DUP1 REVERT JUMPDEST POP PUSH2 0x30C PUSH2 0x88D CALLDATASIZE PUSH1 0x4 PUSH2 0x25F1 JUMP JUMPDEST PUSH2 0x18FF JUMP JUMPDEST CALLVALUE DUP1 ISZERO PUSH2 0x89E JUMPI PUSH1 0x0 DUP1 REVERT JUMPDEST POP PUSH2 0x352 PUSH1 0x6 SLOAD DUP2 JUMP JUMPDEST PUSH1 0x1E DUP1 SLOAD PUSH2 0x8B5 SWAP1 PUSH2 0x261D JUMP JUMPDEST DUP1 PUSH1 0x1F ADD PUSH1 0x20 DUP1 SWAP2 DIV MUL PUSH1 0x20 ADD PUSH1 0x40 MLOAD SWAP1 DUP2 ADD PUSH1 0x40 MSTORE DUP1 SWAP3 SWAP2 SWAP1 DUP2 DUP2 MSTORE PUSH1 0x20 ADD DUP3 DUP1 SLOAD PUSH2 0x8E1 SWAP1 PUSH2 0x261D JUMP JUMPDEST DUP1 ISZERO PUSH2 0x92E JUMPI DUP1 PUSH1 0x1F LT PUSH2 0x903 JUMPI PUSH2 0x100 DUP1 DUP4 SLOAD DIV MUL DUP4 MSTORE SWAP2 PUSH1 0x20 ADD SWAP2 PUSH2 0x92E JUMP JUMPDEST DUP3 ADD SWAP2 SWAP1 PUSH1 0x0 MSTORE PUSH1 0x20 PUSH1 0x0 KECCAK256 SWAP1 JUMPDEST DUP2 SLOAD DUP2 MSTORE SWAP1 PUSH1 0x1 ADD SWAP1 PUSH1 0x20 ADD DUP1 DUP4 GT PUSH2 0x911 JUMPI DUP3 SWAP1 SUB PUSH1 0x1F AND DUP3 ADD SWAP2 JUMPDEST POP POP POP POP POP DUP2 JUMP JUMPDEST CALLER PUSH1 0x0 DUP2 DUP2 MSTORE PUSH1 0x1B PUSH1 0x20 SWAP1 DUP2 MSTORE PUSH1 0x40 DUP1 DUP4 KECCAK256 PUSH1 0x1 PUSH1 0x1 PUSH1 0xA0 SHL SUB DUP8 AND DUP1 DUP6 MSTORE SWAP3 MSTORE DUP1 DUP4 KECCAK256 DUP6 SWAP1 SSTORE MLOAD SWAP2 SWAP3 SWAP1 SWAP2 PUSH32 0x8C5BE1E5EBEC7D5BD14F71427D1E84F3DD0314C0F7B2291E5B200AC8C7C3B925 SWAP1 PUSH2 0x991 SWAP1 DUP7 DUP2 MSTORE PUSH1 0x20 ADD SWAP1 JUMP JUMPDEST PUSH1 0x40 MLOAD DUP1 SWAP2 SUB SWAP1 LOG3 POP PUSH1 0x1 JUMPDEST SWAP3 SWAP2 POP POP JUMP JUMPDEST PUSH1 0x0 PUSH2 0x9AD PUSH2 0x1CE0 JUMP JUMPDEST PUSH1 0x0 PUSH1 0x11 SLOAD TIMESTAMP PUSH2 0x9BD SWAP2 SWAP1 PUSH2 0x266E JUMP JUMPDEST SWAP1 POP PUSH1 0x4 PUSH2 0x870 DUP3 GT ISZERO PUSH2 0xA0C JUMPI POP PUSH1 0x4 JUMPDEST PUSH1 0xA DUP2 LT ISZERO PUSH2 0xA0C JUMPI PUSH2 0x9EF PUSH1 0x3 PUSH2 0x9E9 DUP4 PUSH2 0x870 PUSH2 0x2685 JUMP JUMPDEST SWAP1 PUSH2 0x1C92 JUMP JUMPDEST DUP3 GT PUSH2 0x9FA JUMPI PUSH2 0xA0C JUMP JUMPDEST DUP1 PUSH2 0xA04 DUP2 PUSH2 0x26A4 JUMP JUMPDEST SWAP2 POP POP PUSH2 0x9CF JUMP JUMPDEST PUSH1 0x0 PUSH2 0xA21 PUSH1 0x4 PUSH1 0xF SLOAD DUP5 PUSH2 0x9E9 SWAP2 SWAP1 PUSH2 0x2685 JUMP JUMPDEST CALLER PUSH1 0x0 SWAP1 DUP2 MSTORE PUSH1 0x1A PUSH1 0x20 MSTORE PUSH1 0x40 SWAP1 KECCAK256 SLOAD SWAP1 SWAP2 POP PUSH2 0xA3E SWAP1 DUP3 PUSH2 0x1E92 JUMP JUMPDEST CALLER PUSH1 0x0 SWAP1 DUP2 MSTORE PUSH1 0x1A PUSH1 0x20 MSTORE PUSH1 0x40 SWAP1 KECCAK256 SSTORE PUSH2 0xA7D PUSH2 0xA5C DUP3 PUSH1 0x2 PUSH2 0x1C92 JUMP JUMPDEST PUSH1 0x2 SLOAD PUSH1 0x1 PUSH1 0x1 PUSH1 0xA0 SHL SUB AND PUSH1 0x0 SWAP1 DUP2 MSTORE PUSH1 0x1A PUSH1 0x20 MSTORE PUSH1 0x40 SWAP1 KECCAK256 SLOAD SWAP1 PUSH2 0x1E92 JUMP JUMPDEST PUSH1 0x2 SLOAD PUSH1 0x1 PUSH1 0x1 PUSH1 0xA0 SHL SUB AND PUSH1 0x0 SWAP1 DUP2 MSTORE PUSH1 0x1A PUSH1 0x20 MSTORE PUSH1 0x40 SWAP1 KECCAK256 SSTORE PUSH1 0x19 SLOAD PUSH2 0xAA5 SWAP1 DUP3 PUSH2 0x1E92 JUMP JUMPDEST PUSH1 0x19 SSTORE TIMESTAMP PUSH1 0x11 SSTORE PUSH1 0x1C SLOAD ISZERO PUSH2 0xB4C JUMPI PUSH1 0x3 SLOAD PUSH1 0x1C SLOAD PUSH1 0x14 SLOAD PUSH1 0x1 PUSH1 0x1 PUSH1 0xA0 SHL SUB SWAP1 SWAP3 AND SWAP2 PUSH4 0xA9059CBB SWAP2 CALLER SWAP2 PUSH2 0xADB SWAP2 SWAP1 PUSH2 0x2685 JUMP JUMPDEST PUSH1 0x40 MLOAD PUSH1 0x1 PUSH1 0x1 PUSH1 0xE0 SHL SUB NOT PUSH1 0xE0 DUP6 SWAP1 SHL AND DUP2 MSTORE PUSH1 0x1 PUSH1 0x1 PUSH1 0xA0 SHL SUB SWAP1 SWAP3 AND PUSH1 0x4 DUP4 ADD MSTORE PUSH1 0x24 DUP3 ADD MSTORE PUSH1 0x44 ADD PUSH1 0x20 PUSH1 0x40 MLOAD DUP1 DUP4 SUB DUP2 PUSH1 0x0 DUP8 GAS CALL ISZERO DUP1 ISZERO PUSH2 0xB26 JUMPI RETURNDATASIZE PUSH1 0x0 DUP1 RETURNDATACOPY RETURNDATASIZE PUSH1 0x0 REVERT JUMPDEST POP POP POP POP PUSH1 0x40 MLOAD RETURNDATASIZE PUSH1 0x1F NOT PUSH1 0x1F DUP3 ADD AND DUP3 ADD DUP1 PUSH1 0x40 MSTORE POP DUP2 ADD SWAP1 PUSH2 0xB4A SWAP2 SWAP1 PUSH2 0x26BF JUMP JUMPDEST POP JUMPDEST PUSH1 0xF SLOAD PUSH1 0x7 SLOAD PUSH1 0xC SLOAD PUSH1 0x40 DUP1 MLOAD SWAP4 DUP5 MSTORE PUSH1 0x20 DUP5 ADD SWAP3 SWAP1 SWAP3 MSTORE SWAP1 DUP3 ADD MSTORE CALLER SWAP1 PUSH32 0xCF6FBB9DCEA7D07263AB4F5C3A92F53AF33DFFC421D9D121E1C74B307E68189D SWAP1 PUSH1 0x60 ADD PUSH1 0x40 MLOAD DUP1 SWAP2 SUB SWAP1 LOG2 POP PUSH1 0x1 SWAP6 SWAP5 POP POP POP POP POP JUMP JUMPDEST PUSH1 0x0 PUSH2 0xBBC PUSH1 0xB SLOAD PUSH1 0xA SLOAD PUSH2 0x1C92 SWAP1 SWAP2 SWAP1 PUSH4 0xFFFFFFFF AND JUMP JUMPDEST SWAP1 POP SWAP1 JUMP JUMPDEST PUSH1 0x0 PUSH2 0xBCE DUP4 DUP4 CALLER PUSH2 0x18FF JUMP JUMPDEST POP SWAP3 SWAP2 POP POP JUMP JUMPDEST PUSH1 0x0 DUP1 DUP4 MLOAD PUSH1 0x1 PUSH2 0xBE6 SWAP2 SWAP1 PUSH2 0x26DC JUMP JUMPDEST PUSH8 0xFFFFFFFFFFFFFFFF DUP2 GT ISZERO PUSH2 0xBFE JUMPI PUSH2 0xBFE PUSH2 0x2247 JUMP JUMPDEST PUSH1 0x40 MLOAD SWAP1 DUP1 DUP3 MSTORE DUP1 PUSH1 0x20 MUL PUSH1 0x20 ADD DUP3 ADD PUSH1 0x40 MSTORE DUP1 ISZERO PUSH2 0xC27 JUMPI DUP2 PUSH1 0x20 ADD PUSH1 0x20 DUP3 MUL DUP1 CALLDATASIZE DUP4 CALLDATACOPY ADD SWAP1 POP JUMPDEST POP SWAP1 POP PUSH1 0x0 DUP1 JUMPDEST DUP6 MLOAD PUSH2 0xC3B SWAP1 PUSH1 0x1 PUSH2 0x26DC JUMP JUMPDEST DUP2 LT ISZERO PUSH2 0xC7F JUMPI DUP5 DUP4 DUP3 DUP2 MLOAD DUP2 LT PUSH2 0xC55 JUMPI PUSH2 0xC55 PUSH2 0x26F4 JUMP JUMPDEST PUSH1 0x1 PUSH1 0x1 PUSH1 0xA0 SHL SUB SWAP1 SWAP3 AND PUSH1 0x20 SWAP3 DUP4 MUL SWAP2 SWAP1 SWAP2 ADD SWAP1 SWAP2 ADD MSTORE DUP1 PUSH2 0xC77 DUP2 PUSH2 0x26A4 JUMP JUMPDEST SWAP2 POP POP PUSH2 0xC2E JUMP JUMPDEST POP PUSH2 0xC8C DUP8 DUP8 DUP8 DUP6 PUSH2 0x115B JUMP JUMPDEST POP PUSH1 0x1 SWAP8 SWAP7 POP POP POP POP POP POP POP JUMP JUMPDEST PUSH1 0x1 PUSH1 0x1 PUSH1 0xA0 SHL SUB DUP4 AND PUSH1 0x0 SWAP1 DUP2 MSTORE PUSH1 0x1A PUSH1 0x20 MSTORE PUSH1 0x40 DUP2 KECCAK256 SLOAD PUSH2 0xCBD SWAP1 DUP4 PUSH2 0x1EE0 JUMP JUMPDEST PUSH1 0x1 PUSH1 0x1 PUSH1 0xA0 SHL SUB DUP6 AND PUSH1 0x0 SWAP1 DUP2 MSTORE PUSH1 0x1A PUSH1 0x20 SWAP1 DUP2 MSTORE PUSH1 0x40 DUP1 DUP4 KECCAK256 SWAP4 SWAP1 SWAP4 SSTORE PUSH1 0x1B DUP2 MSTORE DUP3 DUP3 KECCAK256 CALLER DUP4 MSTORE SWAP1 MSTORE KECCAK256 SLOAD PUSH2 0xCF4 SWAP1 DUP4 PUSH2 0x1EE0 JUMP JUMPDEST PUSH1 0x1 PUSH1 0x1 PUSH1 0xA0 SHL SUB DUP1 DUP7 AND PUSH1 0x0 SWAP1 DUP2 MSTORE PUSH1 0x1B PUSH1 0x20 SWAP1 DUP2 MSTORE PUSH1 0x40 DUP1 DUP4 KECCAK256 CALLER DUP5 MSTORE DUP3 MSTORE DUP1 DUP4 KECCAK256 SWAP5 SWAP1 SWAP5 SSTORE SWAP2 DUP7 AND DUP2 MSTORE PUSH1 0x1A SWAP1 SWAP2 MSTORE KECCAK256 SLOAD PUSH2 0xD32 SWAP1 DUP4 PUSH2 0x1E92 JUMP JUMPDEST PUSH1 0x1 PUSH1 0x1 PUSH1 0xA0 SHL SUB DUP1 DUP6 AND PUSH1 0x0 DUP2 DUP2 MSTORE PUSH1 0x1A PUSH1 0x20 MSTORE PUSH1 0x40 SWAP1 DUP2 SWAP1 KECCAK256 SWAP4 SWAP1 SWAP4 SSTORE SWAP2 MLOAD SWAP1 DUP7 AND SWAP1 PUSH1 0x0 DUP1 MLOAD PUSH1 0x20 PUSH2 0x2890 DUP4 CODECOPY DUP2 MLOAD SWAP2 MSTORE SWAP1 PUSH2 0xD74 SWAP1 DUP7 DUP2 MSTORE PUSH1 0x20 ADD SWAP1 JUMP JUMPDEST PUSH1 0x40 MLOAD DUP1 SWAP2 SUB SWAP1 LOG3 POP PUSH1 0x1 SWAP4 SWAP3 POP POP POP JUMP JUMPDEST PUSH1 0x0 PUSH2 0xBBC PUSH1 0xD SLOAD PUSH1 0x2 PUSH2 0xD9A SWAP2 SWAP1 PUSH2 0x27EE JUMP JUMPDEST PUSH2 0xDA6 PUSH1 0x12 PUSH1 0xA PUSH2 0x27EE JUMP JUMPDEST PUSH2 0x9E9 SWAP1 PUSH1 0x96 PUSH2 0x2685 JUMP JUMPDEST PUSH1 0x0 SLOAD PUSH1 0x1 PUSH1 0x1 PUSH1 0xA0 SHL SUB AND CALLER EQ PUSH2 0xDFD JUMPI PUSH1 0x40 MLOAD PUSH3 0x461BCD PUSH1 0xE5 SHL DUP2 MSTORE PUSH1 0x20 PUSH1 0x4 DUP3 ADD MSTORE PUSH1 0xA PUSH1 0x24 DUP3 ADD MSTORE PUSH10 0x37B7363C9037BBB732B9 PUSH1 0xB1 SHL PUSH1 0x44 DUP3 ADD MSTORE PUSH1 0x64 ADD JUMPDEST PUSH1 0x40 MLOAD DUP1 SWAP2 SUB SWAP1 REVERT JUMPDEST PUSH1 0x1 DUP1 SLOAD PUSH1 0x1 PUSH1 0x1 PUSH1 0xA0 SHL SUB SWAP5 DUP6 AND PUSH1 0x1 PUSH1 0x1 PUSH1 0xA0 SHL SUB NOT SWAP2 DUP3 AND OR SWAP1 SWAP2 SSTORE PUSH1 0x2 DUP1 SLOAD SWAP4 DUP6 AND SWAP4 DUP3 AND SWAP4 SWAP1 SWAP4 OR SWAP1 SWAP3 SSTORE PUSH1 0x3 DUP1 SLOAD SWAP2 SWAP1 SWAP4 AND SWAP2 AND OR SWAP1 SSTORE JUMP JUMPDEST PUSH1 0x0 SLOAD PUSH1 0x1 PUSH1 0x1 PUSH1 0xA0 SHL SUB AND CALLER EQ PUSH2 0xE83 JUMPI PUSH1 0x40 MLOAD PUSH3 0x461BCD PUSH1 0xE5 SHL DUP2 MSTORE PUSH1 0x20 PUSH1 0x4 DUP3 ADD MSTORE PUSH1 0xA PUSH1 0x24 DUP3 ADD MSTORE PUSH10 0x37B7363C9037BBB732B9 PUSH1 0xB1 SHL PUSH1 0x44 DUP3 ADD MSTORE PUSH1 0x64 ADD PUSH2 0xDF4 JUMP JUMPDEST PUSH1 0x0 PUSH1 0x1F SLOAD PUSH1 0x2 PUSH2 0xE94 SWAP2 SWAP1 PUSH2 0x27EE JUMP JUMPDEST PUSH2 0xE9F SWAP1 PUSH1 0x2 PUSH2 0x2685 JUMP JUMPDEST PUSH2 0xEB4 SWAP1 PUSH11 0x115EEC47F6CF7E35000000 PUSH2 0x2810 JUMP JUMPDEST PUSH1 0x21 SLOAD SWAP1 SWAP2 POP PUSH1 0xFF AND ISZERO PUSH2 0xECA JUMPI PUSH2 0xECA PUSH2 0x2824 JUMP JUMPDEST PUSH1 0x21 DUP1 SLOAD PUSH1 0xFF NOT AND PUSH1 0x1 OR SWAP1 SSTORE PUSH1 0x0 PUSH1 0xD DUP2 SWAP1 SSTORE PUSH1 0x19 SSTORE PUSH1 0xA SLOAD PUSH2 0xEF0 SWAP1 PUSH2 0x7535 PUSH2 0x1C92 JUMP JUMPDEST PUSH1 0xB SSTORE PUSH2 0xEFB PUSH2 0x1CE0 JUMP JUMPDEST PUSH1 0x1 PUSH1 0x1 PUSH1 0xA0 SHL SUB DUP5 AND PUSH1 0x0 DUP2 DUP2 MSTORE PUSH1 0x1A PUSH1 0x20 SWAP1 DUP2 MSTORE PUSH1 0x40 DUP1 DUP4 KECCAK256 DUP6 SWAP1 SSTORE MLOAD DUP5 DUP2 MSTORE PUSH1 0x0 DUP1 MLOAD PUSH1 0x20 PUSH2 0x2890 DUP4 CODECOPY DUP2 MLOAD SWAP2 MSTORE SWAP2 ADD PUSH1 0x40 MLOAD DUP1 SWAP2 SUB SWAP1 LOG3 PUSH1 0x1 DUP1 SLOAD PUSH1 0x1 PUSH1 0x1 PUSH1 0xA0 SHL SUB DUP1 DUP8 AND PUSH1 0x1 PUSH1 0x1 PUSH1 0xA0 SHL SUB NOT SWAP3 DUP4 AND OR SWAP1 SWAP3 SSTORE PUSH1 0x2 DUP1 SLOAD DUP7 DUP5 AND SWAP1 DUP4 AND OR SWAP1 SSTORE PUSH1 0x3 DUP1 SLOAD SWAP3 DUP6 AND SWAP3 SWAP1 SWAP2 AND SWAP2 SWAP1 SWAP2 OR SWAP1 SSTORE PUSH1 0x7 SLOAD PUSH1 0x10 SSTORE CALLER PUSH1 0x0 DUP2 DUP2 MSTORE PUSH1 0x1A PUSH1 0x20 MSTORE PUSH1 0x40 DUP1 DUP3 KECCAK256 PUSH8 0xDE0B6B3A7640000 SWAP1 DUP2 SWAP1 SSTORE SWAP1 MLOAD PUSH1 0x0 DUP1 MLOAD PUSH1 0x20 PUSH2 0x2890 DUP4 CODECOPY DUP2 MLOAD SWAP2 MSTORE SWAP2 PUSH2 0xFB5 SWAP2 SWAP1 DUP2 MSTORE PUSH1 0x20 ADD SWAP1 JUMP JUMPDEST PUSH1 0x40 MLOAD DUP1 SWAP2 SUB SWAP1 LOG3 POP POP POP POP JUMP JUMPDEST PUSH1 0x0 DUP1 DUP4 CALLER DUP8 PUSH1 0x40 MLOAD PUSH1 0x20 ADD PUSH2 0xFDB SWAP4 SWAP3 SWAP2 SWAP1 PUSH2 0x283A JUMP JUMPDEST PUSH1 0x40 MLOAD PUSH1 0x20 DUP2 DUP4 SUB SUB DUP2 MSTORE SWAP1 PUSH1 0x40 MSTORE DUP1 MLOAD SWAP1 PUSH1 0x20 ADD KECCAK256 SWAP1 POP DUP3 DUP2 PUSH1 0x0 SHR GT ISZERO PUSH2 0x1003 JUMPI PUSH1 0x0 DUP1 REVERT JUMPDEST SWAP1 SWAP4 EQ SWAP5 SWAP4 POP POP POP POP JUMP JUMPDEST PUSH1 0x1 PUSH1 0x1 PUSH1 0xA0 SHL SUB DUP3 AND ADDRESS EQ PUSH2 0x1023 JUMPI PUSH1 0x0 DUP1 REVERT JUMPDEST PUSH1 0x40 MLOAD PUSH4 0xA9059CBB PUSH1 0xE0 SHL DUP2 MSTORE PUSH1 0x1 PUSH1 0x1 PUSH1 0xA0 SHL SUB DUP6 AND PUSH1 0x4 DUP3 ADD MSTORE PUSH1 0x24 DUP2 ADD DUP5 SWAP1 MSTORE ADDRESS SWAP1 PUSH4 0xA9059CBB SWAP1 PUSH1 0x44 ADD PUSH1 0x20 PUSH1 0x40 MLOAD DUP1 DUP4 SUB DUP2 PUSH1 0x0 DUP8 GAS CALL ISZERO DUP1 ISZERO PUSH2 0x1070 JUMPI RETURNDATASIZE PUSH1 0x0 DUP1 RETURNDATACOPY RETURNDATASIZE PUSH1 0x0 REVERT JUMPDEST POP POP POP POP PUSH1 0x40 MLOAD RETURNDATASIZE PUSH1 0x1F NOT PUSH1 0x1F DUP3 ADD AND DUP3 ADD DUP1 PUSH1 0x40 MSTORE POP DUP2 ADD SWAP1 PUSH2 0x1094 SWAP2 SWAP1 PUSH2 0x26BF JUMP JUMPDEST POP POP POP POP POP JUMP JUMPDEST PUSH1 0x0 DUP1 PUSH1 0xC SLOAD CALLER DUP7 PUSH1 0x40 MLOAD PUSH1 0x20 ADD PUSH2 0x10B5 SWAP4 SWAP3 SWAP2 SWAP1 PUSH2 0x283A JUMP JUMPDEST PUSH1 0x40 DUP1 MLOAD DUP1 DUP4 SUB PUSH1 0x1F NOT ADD DUP2 MSTORE SWAP2 SWAP1 MSTORE DUP1 MLOAD PUSH1 0x20 SWAP1 SWAP2 ADD KECCAK256 SWAP6 SWAP5 POP POP POP POP POP JUMP JUMPDEST CALLER PUSH1 0x0 SWAP1 DUP2 MSTORE PUSH1 0x1A PUSH1 0x20 MSTORE PUSH1 0x40 DUP2 KECCAK256 SLOAD PUSH2 0x10F0 SWAP1 DUP4 PUSH2 0x1EE0 JUMP JUMPDEST CALLER PUSH1 0x0 SWAP1 DUP2 MSTORE PUSH1 0x1A PUSH1 0x20 MSTORE PUSH1 0x40 DUP1 DUP3 KECCAK256 SWAP3 SWAP1 SWAP3 SSTORE PUSH1 0x1 PUSH1 0x1 PUSH1 0xA0 SHL SUB DUP6 AND DUP2 MSTORE KECCAK256 SLOAD PUSH2 0x111C SWAP1 DUP4 PUSH2 0x1E92 JUMP JUMPDEST PUSH1 0x1 PUSH1 0x1 PUSH1 0xA0 SHL SUB DUP5 AND PUSH1 0x0 DUP2 DUP2 MSTORE PUSH1 0x1A PUSH1 0x20 MSTORE PUSH1 0x40 SWAP1 DUP2 SWAP1 KECCAK256 SWAP3 SWAP1 SWAP3 SSTORE SWAP1 MLOAD CALLER SWAP1 PUSH1 0x0 DUP1 MLOAD PUSH1 0x20 PUSH2 0x2890 DUP4 CODECOPY DUP2 MLOAD SWAP2 MSTORE SWAP1 PUSH2 0x991 SWAP1 DUP7 DUP2 MSTORE PUSH1 0x20 ADD SWAP1 JUMP JUMPDEST PUSH1 0x11 SLOAD PUSH1 0x0 SWAP1 PUSH1 0xA SWAP1 DUP3 SWAP1 PUSH2 0x1170 SWAP1 TIMESTAMP PUSH2 0x266E JUMP JUMPDEST SWAP1 POP JUMPDEST PUSH2 0x1184 PUSH1 0x58 PUSH2 0x9E9 DUP5 PUSH2 0x870 PUSH2 0x2685 JUMP JUMPDEST DUP2 GT PUSH2 0x119C JUMPI DUP2 PUSH2 0x1194 DUP2 PUSH2 0x26A4 JUMP JUMPDEST SWAP3 POP POP PUSH2 0x1173 JUMP JUMPDEST DUP5 MLOAD PUSH2 0x11A9 SWAP1 PUSH1 0x1 PUSH2 0x26DC JUMP JUMPDEST DUP5 MLOAD EQ PUSH2 0x121E JUMPI PUSH1 0x40 MLOAD PUSH3 0x461BCD PUSH1 0xE5 SHL DUP2 MSTORE PUSH1 0x20 PUSH1 0x4 DUP3 ADD MSTORE PUSH1 0x3D PUSH1 0x24 DUP3 ADD MSTORE PUSH32 0x536F204D696E74546F2068617320746F20686176652073616D65206E756D6265 PUSH1 0x44 DUP3 ADD MSTORE PUSH32 0x72206F66206164647265737373657320617320457874726146756E6473000000 PUSH1 0x64 DUP3 ADD MSTORE PUSH1 0x84 ADD PUSH2 0xDF4 JUMP JUMPDEST PUSH1 0x0 JUMPDEST DUP6 MLOAD DUP2 LT ISZERO PUSH2 0x13B2 JUMPI ADDRESS PUSH1 0x1 PUSH1 0x1 PUSH1 0xA0 SHL SUB AND DUP7 DUP3 DUP2 MLOAD DUP2 LT PUSH2 0x1246 JUMPI PUSH2 0x1246 PUSH2 0x26F4 JUMP JUMPDEST PUSH1 0x20 MUL PUSH1 0x20 ADD ADD MLOAD PUSH1 0x1 PUSH1 0x1 PUSH1 0xA0 SHL SUB AND EQ ISZERO DUP1 ISZERO PUSH2 0x1297 JUMPI POP PUSH1 0x3 SLOAD DUP7 MLOAD PUSH1 0x1 PUSH1 0x1 PUSH1 0xA0 SHL SUB SWAP1 SWAP2 AND SWAP1 DUP8 SWAP1 DUP4 SWAP1 DUP2 LT PUSH2 0x1283 JUMPI PUSH2 0x1283 PUSH2 0x26F4 JUMP JUMPDEST PUSH1 0x20 MUL PUSH1 0x20 ADD ADD MLOAD PUSH1 0x1 PUSH1 0x1 PUSH1 0xA0 SHL SUB AND EQ ISZERO JUMPDEST PUSH2 0x12E3 JUMPI PUSH1 0x40 MLOAD PUSH3 0x461BCD PUSH1 0xE5 SHL DUP2 MSTORE PUSH1 0x20 PUSH1 0x4 DUP3 ADD MSTORE PUSH1 0x1A PUSH1 0x24 DUP3 ADD MSTORE PUSH32 0x4E6F2062617365207072696E74696E67206F6620746F6B656E73000000000000 PUSH1 0x44 DUP3 ADD MSTORE PUSH1 0x64 ADD PUSH2 0xDF4 JUMP JUMPDEST PUSH1 0x1 JUMPDEST DUP7 MLOAD DUP2 LT ISZERO PUSH2 0x139F JUMPI DUP7 DUP3 DUP2 MLOAD DUP2 LT PUSH2 0x1301 JUMPI PUSH2 0x1301 PUSH2 0x26F4 JUMP JUMPDEST PUSH1 0x20 MUL PUSH1 0x20 ADD ADD MLOAD PUSH1 0x1 PUSH1 0x1 PUSH1 0xA0 SHL SUB AND DUP8 DUP3 DUP2 MLOAD DUP2 LT PUSH2 0x1324 JUMPI PUSH2 0x1324 PUSH2 0x26F4 JUMP JUMPDEST PUSH1 0x20 MUL PUSH1 0x20 ADD ADD MLOAD PUSH1 0x1 PUSH1 0x1 PUSH1 0xA0 SHL SUB AND EQ ISZERO DUP1 PUSH2 0x1341 JUMPI POP DUP1 DUP3 EQ JUMPDEST PUSH2 0x138D JUMPI PUSH1 0x40 MLOAD PUSH3 0x461BCD PUSH1 0xE5 SHL DUP2 MSTORE PUSH1 0x20 PUSH1 0x4 DUP3 ADD MSTORE PUSH1 0x1B PUSH1 0x24 DUP3 ADD MSTORE PUSH32 0x4E6F207072696E74696E67205468652073616D6520746F6B656E730000000000 PUSH1 0x44 DUP3 ADD MSTORE PUSH1 0x64 ADD PUSH2 0xDF4 JUMP JUMPDEST DUP1 PUSH2 0x1397 DUP2 PUSH2 0x26A4 JUMP JUMPDEST SWAP2 POP POP PUSH2 0x12E6 JUMP JUMPDEST POP DUP1 PUSH2 0x13AA DUP2 PUSH2 0x26A4 JUMP JUMPDEST SWAP2 POP POP PUSH2 0x1221 JUMP JUMPDEST POP PUSH2 0x13D8 DUP8 DUP8 DUP7 PUSH1 0x0 DUP2 MLOAD DUP2 LT PUSH2 0x13CB JUMPI PUSH2 0x13CB PUSH2 0x26F4 JUMP JUMPDEST PUSH1 0x20 MUL PUSH1 0x20 ADD ADD MLOAD PUSH2 0x18FF JUMP JUMPDEST PUSH2 0x1411 JUMPI PUSH1 0x40 MLOAD PUSH3 0x461BCD PUSH1 0xE5 SHL DUP2 MSTORE PUSH1 0x20 PUSH1 0x4 DUP3 ADD MSTORE PUSH1 0xA PUSH1 0x24 DUP3 ADD MSTORE PUSH10 0x6D696E74206973737565 PUSH1 0xB0 SHL PUSH1 0x44 DUP3 ADD MSTORE PUSH1 0x64 ADD PUSH2 0xDF4 JUMP JUMPDEST PUSH1 0x0 DUP1 JUMPDEST DUP7 MLOAD DUP2 LT ISZERO PUSH2 0x1705 JUMPI PUSH2 0x1429 DUP2 PUSH1 0x1 PUSH2 0x26DC JUMP JUMPDEST PUSH2 0x1434 SWAP1 PUSH1 0x2 PUSH2 0x27EE JUMP JUMPDEST PUSH1 0x7 SLOAD PUSH2 0x1441 SWAP2 SWAP1 PUSH2 0x2862 JUMP JUMPDEST PUSH2 0x16F3 JUMPI PUSH1 0x0 DUP8 DUP3 DUP2 MLOAD DUP2 LT PUSH2 0x1459 JUMPI PUSH2 0x1459 PUSH2 0x26F4 JUMP JUMPDEST PUSH1 0x20 SWAP1 DUP2 MUL SWAP2 SWAP1 SWAP2 ADD ADD MLOAD PUSH1 0x40 MLOAD PUSH4 0x70A08231 PUSH1 0xE0 SHL DUP2 MSTORE ADDRESS PUSH1 0x4 DUP3 ADD MSTORE PUSH1 0x1 PUSH1 0x1 PUSH1 0xA0 SHL SUB SWAP1 SWAP2 AND SWAP1 PUSH4 0x70A08231 SWAP1 PUSH1 0x24 ADD PUSH1 0x20 PUSH1 0x40 MLOAD DUP1 DUP4 SUB DUP2 DUP7 GAS STATICCALL ISZERO DUP1 ISZERO PUSH2 0x14A9 JUMPI RETURNDATASIZE PUSH1 0x0 DUP1 RETURNDATACOPY RETURNDATASIZE PUSH1 0x0 REVERT JUMPDEST POP POP POP POP PUSH1 0x40 MLOAD RETURNDATASIZE PUSH1 0x1F NOT PUSH1 0x1F DUP3 ADD AND DUP3 ADD DUP1 PUSH1 0x40 MSTORE POP DUP2 ADD SWAP1 PUSH2 0x14CD SWAP2 SWAP1 PUSH2 0x2876 JUMP JUMPDEST SWAP1 POP DUP1 ISZERO PUSH2 0x16EE JUMPI PUSH1 0x0 DUP1 PUSH1 0x58 PUSH2 0x14E5 DUP9 PUSH1 0x64 PUSH2 0x2685 JUMP JUMPDEST PUSH2 0x14EF SWAP2 SWAP1 PUSH2 0x2810 JUMP JUMPDEST SWAP1 POP PUSH1 0x3 PUSH2 0x14FE DUP6 PUSH1 0x1 PUSH2 0x26DC JUMP JUMPDEST PUSH2 0x1508 SWAP2 SWAP1 PUSH2 0x2862 JUMP JUMPDEST ISZERO DUP1 ISZERO PUSH2 0x1514 JUMPI POP DUP4 ISZERO ISZERO JUMPDEST ISZERO PUSH2 0x15AA JUMPI PUSH2 0x760 DUP2 LT PUSH2 0x1540 JUMPI PUSH2 0x1539 PUSH3 0x35B60 PUSH2 0x1533 DUP10 DUP7 PUSH2 0x2685 JUMP JUMPDEST SWAP1 PUSH2 0x1F2C JUMP JUMPDEST SWAP2 POP PUSH2 0x1633 JUMP JUMPDEST PUSH1 0xC8 DUP2 LT PUSH2 0x1565 JUMPI PUSH2 0x1539 PUSH3 0x35B60 DUP9 PUSH2 0x155B DUP7 PUSH1 0x2 PUSH2 0x2685 JUMP JUMPDEST PUSH2 0x1533 SWAP2 SWAP1 PUSH2 0x2685 JUMP JUMPDEST PUSH1 0x96 DUP2 LT PUSH2 0x1580 JUMPI PUSH2 0x1539 PUSH3 0x6B6C0 DUP9 PUSH2 0x155B DUP7 PUSH1 0x3 PUSH2 0x2685 JUMP JUMPDEST PUSH1 0x67 DUP2 LT PUSH2 0x159B JUMPI PUSH2 0x1539 PUSH3 0xA1220 DUP9 PUSH2 0x155B DUP7 PUSH1 0x4 PUSH2 0x2685 JUMP JUMPDEST PUSH2 0x1539 PUSH1 0x58 PUSH2 0x1533 DUP10 DUP7 PUSH2 0x2685 JUMP JUMPDEST PUSH2 0x760 DUP2 LT PUSH2 0x15C4 JUMPI PUSH2 0x1539 PUSH3 0x35B60 PUSH2 0x9E9 DUP10 DUP7 PUSH2 0x2685 JUMP JUMPDEST PUSH1 0xC8 DUP2 LT PUSH2 0x15E9 JUMPI PUSH2 0x1539 PUSH3 0x35B60 DUP9 PUSH2 0x15DF DUP7 PUSH1 0x2 PUSH2 0x2685 JUMP JUMPDEST PUSH2 0x9E9 SWAP2 SWAP1 PUSH2 0x2685 JUMP JUMPDEST PUSH1 0x96 DUP2 LT PUSH2 0x1604 JUMPI PUSH2 0x1539 PUSH3 0x6B6C0 DUP9 PUSH2 0x15DF DUP7 PUSH1 0x3 PUSH2 0x2685 JUMP JUMPDEST PUSH1 0x67 DUP2 LT PUSH2 0x161F JUMPI PUSH2 0x1539 PUSH3 0xA1220 DUP9 PUSH2 0x15DF DUP7 PUSH1 0x4 PUSH2 0x2685 JUMP JUMPDEST PUSH2 0x1630 PUSH3 0x35B60 PUSH2 0x9E9 DUP10 DUP7 PUSH2 0x2685 JUMP JUMPDEST SWAP2 POP JUMPDEST DUP10 DUP5 DUP2 MLOAD DUP2 LT PUSH2 0x1645 JUMPI PUSH2 0x1645 PUSH2 0x26F4 JUMP JUMPDEST PUSH1 0x20 MUL PUSH1 0x20 ADD ADD MLOAD PUSH1 0x1 PUSH1 0x1 PUSH1 0xA0 SHL SUB AND PUSH4 0xA9059CBB DUP11 DUP7 DUP2 MLOAD DUP2 LT PUSH2 0x166D JUMPI PUSH2 0x166D PUSH2 0x26F4 JUMP JUMPDEST PUSH1 0x20 MUL PUSH1 0x20 ADD ADD MLOAD DUP5 PUSH1 0x40 MLOAD DUP4 PUSH4 0xFFFFFFFF AND PUSH1 0xE0 SHL DUP2 MSTORE PUSH1 0x4 ADD PUSH2 0x16A7 SWAP3 SWAP2 SWAP1 PUSH1 0x1 PUSH1 0x1 PUSH1 0xA0 SHL SUB SWAP3 SWAP1 SWAP3 AND DUP3 MSTORE PUSH1 0x20 DUP3 ADD MSTORE PUSH1 0x40 ADD SWAP1 JUMP JUMPDEST PUSH1 0x20 PUSH1 0x40 MLOAD DUP1 DUP4 SUB DUP2 PUSH1 0x0 DUP8 GAS CALL ISZERO DUP1 ISZERO PUSH2 0x16C6 JUMPI RETURNDATASIZE PUSH1 0x0 DUP1 RETURNDATACOPY RETURNDATASIZE PUSH1 0x0 REVERT JUMPDEST POP POP POP POP PUSH1 0x40 MLOAD RETURNDATASIZE PUSH1 0x1F NOT PUSH1 0x1F DUP3 ADD AND DUP3 ADD DUP1 PUSH1 0x40 MSTORE POP DUP2 ADD SWAP1 PUSH2 0x16EA SWAP2 SWAP1 PUSH2 0x26BF JUMP JUMPDEST POP POP POP JUMPDEST DUP2 SWAP3 POP POP JUMPDEST DUP1 PUSH2 0x16FD DUP2 PUSH2 0x26A4 JUMP JUMPDEST SWAP2 POP POP PUSH2 0x1415 JUMP JUMPDEST POP PUSH1 0xF SLOAD PUSH1 0x7 SLOAD PUSH1 0xC SLOAD PUSH1 0x40 DUP1 MLOAD SWAP4 DUP5 MSTORE PUSH1 0x20 DUP5 ADD SWAP3 SWAP1 SWAP3 MSTORE SWAP1 DUP3 ADD MSTORE PUSH1 0x60 DUP2 ADD DUP3 SWAP1 MSTORE CALLER SWAP1 PUSH32 0x8D1274A08A1F38C385CC00828B937D1A29D4CE3A901EDE97B42639D0C19AE2AE SWAP1 PUSH1 0x80 ADD PUSH1 0x40 MLOAD DUP1 SWAP2 SUB SWAP1 LOG2 POP PUSH1 0x1 SWAP8 SWAP7 POP POP POP POP POP POP POP JUMP JUMPDEST PUSH1 0x0 PUSH1 0x10 SLOAD PUSH1 0x7 SLOAD PUSH2 0x1778 SWAP2 SWAP1 PUSH2 0x266E JUMP JUMPDEST SWAP1 POP PUSH2 0x178C PUSH1 0xD SLOAD PUSH1 0x2 PUSH2 0xD9A SWAP2 SWAP1 PUSH2 0x27EE JUMP JUMPDEST PUSH1 0xF SSTORE PUSH1 0x8 SLOAD PUSH1 0x14 SLOAD PUSH1 0x4 SWAP2 PUSH2 0x17A1 SWAP2 PUSH2 0x2685 JUMP JUMPDEST PUSH2 0x17AC SWAP1 PUSH1 0x6 PUSH2 0x2685 JUMP JUMPDEST PUSH2 0x17B6 SWAP2 SWAP1 PUSH2 0x2810 JUMP JUMPDEST PUSH1 0x3 SLOAD PUSH1 0x40 MLOAD PUSH4 0x70A08231 PUSH1 0xE0 SHL DUP2 MSTORE ADDRESS PUSH1 0x4 DUP3 ADD MSTORE PUSH1 0x1 PUSH1 0x1 PUSH1 0xA0 SHL SUB SWAP1 SWAP2 AND SWAP1 PUSH4 0x70A08231 SWAP1 PUSH1 0x24 ADD PUSH1 0x20 PUSH1 0x40 MLOAD DUP1 DUP4 SUB DUP2 DUP7 GAS STATICCALL ISZERO DUP1 ISZERO PUSH2 0x17FE JUMPI RETURNDATASIZE PUSH1 0x0 DUP1 RETURNDATACOPY RETURNDATASIZE PUSH1 0x0 REVERT JUMPDEST POP POP POP POP PUSH1 0x40 MLOAD RETURNDATASIZE PUSH1 0x1F NOT PUSH1 0x1F DUP3 ADD AND DUP3 ADD DUP1 PUSH1 0x40 MSTORE POP DUP2 ADD SWAP1 PUSH2 0x1822 SWAP2 SWAP1 PUSH2 0x2876 JUMP JUMPDEST GT ISZERO PUSH2 0x18F0 JUMPI PUSH1 0x1D SLOAD PUSH2 0x1836 SWAP1 PUSH1 0x1 PUSH2 0x2685 JUMP JUMPDEST PUSH1 0x1C DUP2 SWAP1 SSTORE PUSH1 0x3 SLOAD PUSH1 0x2 DUP1 SLOAD PUSH1 0x14 SLOAD PUSH1 0x1 PUSH1 0x1 PUSH1 0xA0 SHL SUB SWAP4 DUP5 AND SWAP5 PUSH4 0xA9059CBB SWAP5 SWAP1 SWAP3 AND SWAP3 SWAP2 SWAP1 PUSH2 0x1867 SWAP1 DUP8 PUSH2 0x2685 JUMP JUMPDEST PUSH2 0x1871 SWAP2 SWAP1 PUSH2 0x2685 JUMP JUMPDEST PUSH2 0x187B SWAP2 SWAP1 PUSH2 0x2810 JUMP JUMPDEST PUSH1 0x40 MLOAD PUSH1 0x1 PUSH1 0x1 PUSH1 0xE0 SHL SUB NOT PUSH1 0xE0 DUP6 SWAP1 SHL AND DUP2 MSTORE PUSH1 0x1 PUSH1 0x1 PUSH1 0xA0 SHL SUB SWAP1 SWAP3 AND PUSH1 0x4 DUP4 ADD MSTORE PUSH1 0x24 DUP3 ADD MSTORE PUSH1 0x44 ADD PUSH1 0x20 PUSH1 0x40 MLOAD DUP1 DUP4 SUB DUP2 PUSH1 0x0 DUP8 GAS CALL ISZERO DUP1 ISZERO PUSH2 0x18C6 JUMPI RETURNDATASIZE PUSH1 0x0 DUP1 RETURNDATACOPY RETURNDATASIZE PUSH1 0x0 REVERT JUMPDEST POP POP POP POP PUSH1 0x40 MLOAD RETURNDATASIZE PUSH1 0x1F NOT PUSH1 0x1F DUP3 ADD AND DUP3 ADD DUP1 PUSH1 0x40 MSTORE POP DUP2 ADD SWAP1 PUSH2 0x18EA SWAP2 SWAP1 PUSH2 0x26BF JUMP JUMPDEST POP PUSH2 0x18F6 JUMP JUMPDEST PUSH1 0x0 PUSH1 0x1C SSTORE JUMPDEST POP PUSH1 0x7 SLOAD PUSH1 0x10 SSTORE JUMP JUMPDEST PUSH1 0x0 PUSH2 0x1918 PUSH1 0xF SLOAD PUSH1 0x19 SLOAD PUSH2 0x1E92 SWAP1 SWAP2 SWAP1 PUSH4 0xFFFFFFFF AND JUMP JUMPDEST POP PUSH1 0x0 PUSH1 0xC SLOAD CALLER DUP7 PUSH1 0x40 MLOAD PUSH1 0x20 ADD PUSH2 0x1932 SWAP4 SWAP3 SWAP2 SWAP1 PUSH2 0x283A JUMP JUMPDEST PUSH1 0x40 MLOAD PUSH1 0x20 DUP2 DUP4 SUB SUB DUP2 MSTORE SWAP1 PUSH1 0x40 MSTORE DUP1 MLOAD SWAP1 PUSH1 0x20 ADD KECCAK256 SWAP1 POP DUP4 DUP2 EQ PUSH2 0x19B0 JUMPI PUSH1 0x40 MLOAD PUSH3 0x461BCD PUSH1 0xE5 SHL DUP2 MSTORE PUSH1 0x20 PUSH1 0x4 DUP3 ADD MSTORE PUSH1 0x2E PUSH1 0x24 DUP3 ADD MSTORE PUSH32 0x4F6C64206368616C6C656E67655F646967657374206F722077726F6E67206368 PUSH1 0x44 DUP3 ADD MSTORE PUSH14 0x185B1B195B99D957D91A59D95CDD PUSH1 0x92 SHL PUSH1 0x64 DUP3 ADD MSTORE PUSH1 0x84 ADD PUSH2 0xDF4 JUMP JUMPDEST PUSH1 0xB SLOAD DUP2 LT PUSH2 0x1A12 JUMPI PUSH1 0x40 MLOAD PUSH3 0x461BCD PUSH1 0xE5 SHL DUP2 MSTORE PUSH1 0x20 PUSH1 0x4 DUP3 ADD MSTORE PUSH1 0x28 PUSH1 0x24 DUP3 ADD MSTORE PUSH32 0x446967657374206D75737420626520736D616C6C6572207468616E206D696E69 PUSH1 0x44 DUP3 ADD MSTORE PUSH8 0x1B99D5185C99D95D PUSH1 0xC2 SHL PUSH1 0x64 DUP3 ADD MSTORE PUSH1 0x84 ADD PUSH2 0xDF4 JUMP JUMPDEST PUSH2 0x1A1A PUSH2 0x1CE0 JUMP JUMPDEST PUSH1 0x0 PUSH1 0x11 SLOAD TIMESTAMP PUSH2 0x1A2A SWAP2 SWAP1 PUSH2 0x266E JUMP JUMPDEST SWAP1 POP PUSH1 0x3 JUMPDEST PUSH2 0x1A40 PUSH1 0x58 PUSH2 0x9E9 DUP4 PUSH2 0x870 PUSH2 0x2685 JUMP JUMPDEST DUP3 GT PUSH2 0x1A58 JUMPI DUP1 PUSH2 0x1A50 DUP2 PUSH2 0x26A4 JUMP JUMPDEST SWAP2 POP POP PUSH2 0x1A2F JUMP JUMPDEST PUSH1 0x0 PUSH1 0x58 PUSH2 0x1A67 DUP4 PUSH1 0x64 PUSH2 0x2685 JUMP JUMPDEST PUSH2 0x1A71 SWAP2 SWAP1 PUSH2 0x2810 JUMP JUMPDEST SWAP1 POP PUSH1 0x0 PUSH2 0x760 DUP3 LT PUSH2 0x1A98 JUMPI PUSH2 0x1A91 PUSH1 0x58 DUP5 PUSH1 0xF SLOAD PUSH2 0x9E9 SWAP2 SWAP1 PUSH2 0x2685 JUMP JUMPDEST SWAP1 POP PUSH2 0x1B06 JUMP JUMPDEST PUSH1 0xC8 DUP3 LT PUSH2 0x1AB5 JUMPI PUSH2 0x1A91 PUSH1 0x58 DUP5 PUSH1 0xF SLOAD PUSH1 0x2 PUSH2 0x15DF SWAP2 SWAP1 PUSH2 0x2685 JUMP JUMPDEST PUSH1 0x96 DUP3 LT PUSH2 0x1AD2 JUMPI PUSH2 0x1A91 PUSH1 0xB0 DUP5 PUSH1 0xF SLOAD PUSH1 0x3 PUSH2 0x15DF SWAP2 SWAP1 PUSH2 0x2685 JUMP JUMPDEST PUSH1 0x67 DUP3 LT PUSH2 0x1AF0 JUMPI PUSH2 0x1A91 PUSH2 0x108 DUP5 PUSH1 0xF SLOAD PUSH1 0x4 PUSH2 0x15DF SWAP2 SWAP1 PUSH2 0x2685 JUMP JUMPDEST PUSH2 0x1B03 PUSH1 0x58 DUP5 PUSH1 0xF SLOAD PUSH2 0x9E9 SWAP2 SWAP1 PUSH2 0x2685 JUMP JUMPDEST SWAP1 POP JUMPDEST PUSH1 0x1 PUSH1 0x1 PUSH1 0xA0 SHL SUB DUP8 AND PUSH1 0x0 SWAP1 DUP2 MSTORE PUSH1 0x1A PUSH1 0x20 MSTORE PUSH1 0x40 SWAP1 KECCAK256 SLOAD DUP2 SWAP1 PUSH2 0x1B2B SWAP1 DUP3 PUSH2 0x1E92 JUMP JUMPDEST PUSH1 0x1 PUSH1 0x1 PUSH1 0xA0 SHL SUB DUP10 AND PUSH1 0x0 SWAP1 DUP2 MSTORE PUSH1 0x1A PUSH1 0x20 MSTORE PUSH1 0x40 SWAP1 KECCAK256 SSTORE PUSH2 0x1B52 PUSH2 0xA5C DUP3 PUSH1 0x2 PUSH2 0x1C92 JUMP JUMPDEST PUSH1 0x2 DUP1 SLOAD PUSH1 0x1 PUSH1 0x1 PUSH1 0xA0 SHL SUB AND PUSH1 0x0 SWAP1 DUP2 MSTORE PUSH1 0x1A PUSH1 0x20 MSTORE PUSH1 0x40 SWAP1 KECCAK256 SWAP2 SWAP1 SWAP2 SSTORE PUSH2 0x1B94 SWAP1 PUSH2 0x1B80 SWAP1 DUP4 SWAP1 PUSH2 0x1C92 JUMP JUMPDEST PUSH2 0x1B8B SWAP1 PUSH1 0x3 PUSH2 0x2685 JUMP JUMPDEST PUSH1 0x19 SLOAD SWAP1 PUSH2 0x1E92 JUMP JUMPDEST PUSH1 0x19 SSTORE TIMESTAMP PUSH1 0x11 SSTORE PUSH1 0x1C SLOAD ISZERO PUSH2 0x1C3B JUMPI PUSH1 0x3 SLOAD PUSH1 0x1C SLOAD PUSH1 0x14 SLOAD PUSH1 0x1 PUSH1 0x1 PUSH1 0xA0 SHL SUB SWAP1 SWAP3 AND SWAP2 PUSH4 0xA9059CBB SWAP2 DUP12 SWAP2 PUSH2 0x1BCA SWAP2 SWAP1 PUSH2 0x2685 JUMP JUMPDEST PUSH1 0x40 MLOAD PUSH1 0x1 PUSH1 0x1 PUSH1 0xE0 SHL SUB NOT PUSH1 0xE0 DUP6 SWAP1 SHL AND DUP2 MSTORE PUSH1 0x1 PUSH1 0x1 PUSH1 0xA0 SHL SUB SWAP1 SWAP3 AND PUSH1 0x4 DUP4 ADD MSTORE PUSH1 0x24 DUP3 ADD MSTORE PUSH1 0x44 ADD PUSH1 0x20 PUSH1 0x40 MLOAD DUP1 DUP4 SUB DUP2 PUSH1 0x0 DUP8 GAS CALL ISZERO DUP1 ISZERO PUSH2 0x1C15 JUMPI RETURNDATASIZE PUSH1 0x0 DUP1 RETURNDATACOPY RETURNDATASIZE PUSH1 0x0 REVERT JUMPDEST POP POP POP POP PUSH1 0x40 MLOAD RETURNDATASIZE PUSH1 0x1F NOT PUSH1 0x1F DUP3 ADD AND DUP3 ADD DUP1 PUSH1 0x40 MSTORE POP DUP2 ADD SWAP1 PUSH2 0x1C39 SWAP2 SWAP1 PUSH2 0x26BF JUMP JUMPDEST POP JUMPDEST PUSH1 0x7 SLOAD PUSH1 0xC SLOAD PUSH1 0x40 DUP1 MLOAD DUP5 DUP2 MSTORE PUSH1 0x20 DUP2 ADD SWAP4 SWAP1 SWAP4 MSTORE DUP3 ADD MSTORE CALLER SWAP1 PUSH32 0xCF6FBB9DCEA7D07263AB4F5C3A92F53AF33DFFC421D9D121E1C74B307E68189D SWAP1 PUSH1 0x60 ADD PUSH1 0x40 MLOAD DUP1 SWAP2 SUB SWAP1 LOG2 POP PUSH1 0x1 SWAP10 SWAP9 POP POP POP POP POP POP POP POP POP JUMP JUMPDEST PUSH1 0x0 DUP2 PUSH2 0x1CCF JUMPI PUSH1 0x40 MLOAD PUSH3 0x461BCD PUSH1 0xE5 SHL DUP2 MSTORE PUSH1 0x20 PUSH1 0x4 DUP3 ADD MSTORE PUSH1 0xB PUSH1 0x24 DUP3 ADD MSTORE PUSH11 0x446976206279207A65726F PUSH1 0xA8 SHL PUSH1 0x44 DUP3 ADD MSTORE PUSH1 0x64 ADD PUSH2 0xDF4 JUMP JUMPDEST PUSH2 0x1CD9 DUP3 DUP5 PUSH2 0x2810 JUMP JUMPDEST SWAP4 SWAP3 POP POP POP JUMP JUMPDEST PUSH1 0xE SLOAD PUSH1 0xF SLOAD PUSH1 0x19 SLOAD PUSH2 0x1CF2 SWAP2 PUSH2 0x1E92 JUMP JUMPDEST GT DUP1 ISZERO PUSH2 0x1D01 JUMPI POP PUSH1 0x27 PUSH1 0xD SLOAD LT JUMPDEST ISZERO PUSH2 0x1D35 JUMPI PUSH1 0xD SLOAD PUSH2 0x1D14 SWAP1 PUSH1 0x1 PUSH2 0x26DC JUMP JUMPDEST PUSH1 0xD DUP2 SWAP1 SSTORE PUSH2 0x1D31 SWAP1 PUSH2 0x1D28 SWAP1 PUSH1 0x2 PUSH2 0x27EE JUMP JUMPDEST PUSH1 0xB SLOAD SWAP1 PUSH2 0x1C92 JUMP JUMPDEST PUSH1 0xB SSTORE JUMPDEST PUSH1 0x7 SLOAD PUSH2 0x1D43 SWAP1 PUSH1 0x1 PUSH2 0x1E92 JUMP JUMPDEST PUSH1 0x7 SSTORE PUSH1 0x8 SLOAD PUSH2 0x1D55 SWAP1 PUSH1 0x4 SWAP1 PUSH2 0x2810 JUMP JUMPDEST PUSH1 0x7 SLOAD PUSH2 0x1D62 SWAP2 SWAP1 PUSH2 0x2862 JUMP JUMPDEST PUSH2 0x1E81 JUMPI PUSH2 0x1D6E PUSH2 0x1766 JUMP JUMPDEST PUSH2 0x1D94 PUSH1 0xD SLOAD PUSH1 0x1 PUSH2 0x1D80 SWAP2 SWAP1 PUSH2 0x26DC JUMP JUMPDEST PUSH2 0x1D8B SWAP1 PUSH1 0x2 PUSH2 0x27EE JUMP JUMPDEST PUSH1 0x5 SLOAD SWAP1 PUSH2 0x1C92 JUMP JUMPDEST PUSH1 0x5 SLOAD PUSH2 0x1DA1 SWAP2 SWAP1 PUSH2 0x266E JUMP JUMPDEST PUSH1 0xE SSTORE PUSH1 0x8 SLOAD PUSH1 0x7 SLOAD PUSH2 0x1DB4 SWAP2 SWAP1 PUSH2 0x2862 JUMP JUMPDEST PUSH2 0x1E81 JUMPI PUSH1 0x14 SLOAD PUSH1 0x3 SLOAD PUSH1 0x40 MLOAD PUSH4 0x70A08231 PUSH1 0xE0 SHL DUP2 MSTORE ADDRESS PUSH1 0x4 DUP3 ADD MSTORE PUSH2 0x4E20 SWAP3 SWAP2 PUSH1 0x1 PUSH1 0x1 PUSH1 0xA0 SHL SUB AND SWAP1 PUSH4 0x70A08231 SWAP1 PUSH1 0x24 ADD PUSH1 0x20 PUSH1 0x40 MLOAD DUP1 DUP4 SUB DUP2 DUP7 GAS STATICCALL ISZERO DUP1 ISZERO PUSH2 0x1E06 JUMPI RETURNDATASIZE PUSH1 0x0 DUP1 RETURNDATACOPY RETURNDATASIZE PUSH1 0x0 REVERT JUMPDEST POP POP POP POP PUSH1 0x40 MLOAD RETURNDATASIZE PUSH1 0x1F NOT PUSH1 0x1F DUP3 ADD AND DUP3 ADD DUP1 PUSH1 0x40 MSTORE POP DUP2 ADD SWAP1 PUSH2 0x1E2A SWAP2 SWAP1 PUSH2 0x2876 JUMP JUMPDEST PUSH2 0x1E34 SWAP2 SWAP1 PUSH2 0x2810 JUMP JUMPDEST GT PUSH2 0x1E67 JUMPI PUSH1 0x15 SLOAD PUSH1 0x14 SLOAD PUSH2 0x1E4A SWAP1 PUSH1 0x2 PUSH2 0x1C92 JUMP JUMPDEST GT ISZERO PUSH2 0x1E62 JUMPI PUSH1 0x14 SLOAD PUSH2 0x1E5E SWAP1 PUSH1 0x2 PUSH2 0x1C92 JUMP JUMPDEST PUSH1 0x14 SSTORE JUMPDEST PUSH2 0x1E79 JUMP JUMPDEST PUSH1 0x14 SLOAD PUSH2 0x1E75 SWAP1 PUSH1 0x3 PUSH2 0x1F99 JUMP JUMPDEST PUSH1 0x14 SSTORE JUMPDEST PUSH2 0x1E81 PUSH2 0x1FFE JUMP JUMPDEST PUSH2 0x1E8C PUSH1 0x1 NUMBER PUSH2 0x266E JUMP JUMPDEST BLOCKHASH PUSH1 0xC SSTORE JUMP JUMPDEST PUSH1 0x0 DUP1 PUSH2 0x1E9F DUP4 DUP6 PUSH2 0x26DC JUMP JUMPDEST SWAP1 POP DUP4 DUP2 LT ISZERO PUSH2 0x1CD9 JUMPI PUSH1 0x40 MLOAD PUSH3 0x461BCD PUSH1 0xE5 SHL DUP2 MSTORE PUSH1 0x20 PUSH1 0x4 DUP3 ADD MSTORE PUSH1 0xC PUSH1 0x24 DUP3 ADD MSTORE PUSH12 0x416464206F766572666C6F77 PUSH1 0xA0 SHL PUSH1 0x44 DUP3 ADD MSTORE PUSH1 0x64 ADD PUSH2 0xDF4 JUMP JUMPDEST PUSH1 0x0 DUP2 DUP4 LT ISZERO PUSH2 0x1F22 JUMPI PUSH1 0x40 MLOAD PUSH3 0x461BCD PUSH1 0xE5 SHL DUP2 MSTORE PUSH1 0x20 PUSH1 0x4 DUP3 ADD MSTORE PUSH1 0xD PUSH1 0x24 DUP3 ADD MSTORE PUSH13 0x53756220756E646572666C6F77 PUSH1 0x98 SHL PUSH1 0x44 DUP3 ADD MSTORE PUSH1 0x64 ADD PUSH2 0xDF4 JUMP JUMPDEST PUSH2 0x1CD9 DUP3 DUP5 PUSH2 0x266E JUMP JUMPDEST PUSH1 0x0 DUP2 PUSH2 0x1F69 JUMPI PUSH1 0x40 MLOAD PUSH3 0x461BCD PUSH1 0xE5 SHL DUP2 MSTORE PUSH1 0x20 PUSH1 0x4 DUP3 ADD MSTORE PUSH1 0xB PUSH1 0x24 DUP3 ADD MSTORE PUSH11 0x446976206279207A65726F PUSH1 0xA8 SHL PUSH1 0x44 DUP3 ADD MSTORE PUSH1 0x64 ADD PUSH2 0xDF4 JUMP JUMPDEST PUSH1 0x0 PUSH2 0x1F75 DUP4 DUP6 PUSH2 0x2810 JUMP JUMPDEST SWAP1 POP PUSH2 0x1F81 DUP4 DUP6 PUSH2 0x2862 JUMP JUMPDEST ISZERO PUSH2 0x1CD9 JUMPI PUSH2 0x1F91 DUP2 PUSH1 0x1 PUSH2 0x26DC JUMP JUMPDEST SWAP5 SWAP4 POP POP POP POP JUMP JUMPDEST PUSH1 0x0 DUP3 PUSH2 0x1FA8 JUMPI POP PUSH1 0x0 PUSH2 0x99D JUMP JUMPDEST PUSH1 0x0 PUSH2 0x1FB4 DUP4 DUP6 PUSH2 0x2685 JUMP JUMPDEST SWAP1 POP DUP3 PUSH2 0x1FC1 DUP6 DUP4 PUSH2 0x2810 JUMP JUMPDEST EQ PUSH2 0x1CD9 JUMPI PUSH1 0x40 MLOAD PUSH3 0x461BCD PUSH1 0xE5 SHL DUP2 MSTORE PUSH1 0x20 PUSH1 0x4 DUP3 ADD MSTORE PUSH1 0xD PUSH1 0x24 DUP3 ADD MSTORE PUSH13 0x4D756C74206F766572666C6F77 PUSH1 0x98 SHL PUSH1 0x44 DUP3 ADD MSTORE PUSH1 0x64 ADD PUSH2 0xDF4 JUMP JUMPDEST NUMBER PUSH1 0x20 SSTORE PUSH1 0x6 SLOAD TIMESTAMP SWAP1 PUSH1 0x0 SWAP1 PUSH2 0x2014 SWAP1 DUP4 PUSH2 0x266E JUMP JUMPDEST PUSH1 0x8 SLOAD SWAP1 SWAP2 POP PUSH1 0x0 PUSH2 0x2028 DUP3 PUSH2 0x870 PUSH2 0x2685 JUMP JUMPDEST SWAP1 POP DUP1 DUP4 LT ISZERO PUSH2 0x209D JUMPI PUSH1 0x0 PUSH2 0x2043 DUP5 PUSH2 0x9E9 DUP5 PUSH1 0x64 PUSH2 0x1F99 JUMP JUMPDEST PUSH1 0x1 PUSH1 0x1D SSTORE SWAP1 POP PUSH1 0x0 PUSH2 0x2063 PUSH2 0x3E8 PUSH2 0x205D DUP5 PUSH1 0x64 PUSH2 0x1EE0 JUMP JUMPDEST SWAP1 PUSH2 0x2128 JUMP JUMPDEST SWAP1 POP PUSH2 0x2092 PUSH2 0x2089 DUP3 PUSH2 0x2083 PUSH2 0x7D0 PUSH1 0xB SLOAD PUSH2 0x1C92 SWAP1 SWAP2 SWAP1 PUSH4 0xFFFFFFFF AND JUMP JUMPDEST SWAP1 PUSH2 0x1F99 JUMP JUMPDEST PUSH1 0xB SLOAD SWAP1 PUSH2 0x1EE0 JUMP JUMPDEST PUSH1 0xB SSTORE POP PUSH2 0x20F7 SWAP1 POP JUMP JUMPDEST PUSH1 0x0 PUSH2 0x20AE DUP3 PUSH2 0x9E9 DUP7 PUSH1 0x64 PUSH2 0x1F99 JUMP JUMPDEST PUSH1 0x2 PUSH1 0x1D SSTORE SWAP1 POP PUSH1 0x0 PUSH2 0x20C8 PUSH2 0x3E8 PUSH2 0x205D DUP5 PUSH1 0x64 PUSH2 0x1EE0 JUMP JUMPDEST SWAP1 POP PUSH2 0x20F1 PUSH2 0x20E8 DUP3 PUSH2 0x2083 PUSH2 0x7D0 PUSH1 0xB SLOAD PUSH2 0x1C92 SWAP1 SWAP2 SWAP1 PUSH4 0xFFFFFFFF AND JUMP JUMPDEST PUSH1 0xB SLOAD SWAP1 PUSH2 0x1E92 JUMP JUMPDEST PUSH1 0xB SSTORE POP POP JUMPDEST PUSH1 0x6 DUP5 SWAP1 SSTORE PUSH1 0x9 SLOAD PUSH1 0xB SLOAD LT ISZERO PUSH2 0x210F JUMPI PUSH1 0x9 SLOAD PUSH1 0xB SSTORE JUMPDEST PUSH1 0xA SLOAD PUSH1 0xB SLOAD GT ISZERO PUSH2 0x2122 JUMPI PUSH1 0xA SLOAD PUSH1 0xB SSTORE JUMPDEST POP POP POP POP JUMP JUMPDEST PUSH1 0x0 DUP2 DUP4 GT ISZERO PUSH2 0x2139 JUMPI POP DUP1 PUSH2 0x99D JUMP JUMPDEST POP SWAP1 SWAP2 SWAP1 POP JUMP JUMPDEST PUSH1 0x0 PUSH1 0x20 DUP1 DUP4 MSTORE DUP4 MLOAD DUP1 DUP3 DUP6 ADD MSTORE PUSH1 0x0 JUMPDEST DUP2 DUP2 LT ISZERO PUSH2 0x216D JUMPI DUP6 DUP2 ADD DUP4 ADD MLOAD DUP6 DUP3 ADD PUSH1 0x40 ADD MSTORE DUP3 ADD PUSH2 0x2151 JUMP JUMPDEST DUP2 DUP2 GT ISZERO PUSH2 0x217F JUMPI PUSH1 0x0 PUSH1 0x40 DUP4 DUP8 ADD ADD MSTORE JUMPDEST POP PUSH1 0x1F ADD PUSH1 0x1F NOT AND SWAP3 SWAP1 SWAP3 ADD PUSH1 0x40 ADD SWAP4 SWAP3 POP POP POP JUMP JUMPDEST DUP1 CALLDATALOAD PUSH1 0x1 PUSH1 0x1 PUSH1 0xA0 SHL SUB DUP2 AND DUP2 EQ PUSH2 0x21AC JUMPI PUSH1 0x0 DUP1 REVERT JUMPDEST SWAP2 SWAP1 POP JUMP JUMPDEST PUSH1 0x0 DUP1 PUSH1 0x40 DUP4 DUP6 SUB SLT ISZERO PUSH2 0x21C4 JUMPI PUSH1 0x0 DUP1 REVERT JUMPDEST PUSH2 0x21CD DUP4 PUSH2 0x2195 JUMP JUMPDEST SWAP5 PUSH1 0x20 SWAP4 SWAP1 SWAP4 ADD CALLDATALOAD SWAP4 POP POP POP JUMP JUMPDEST DUP1 ISZERO ISZERO DUP2 EQ PUSH2 0x21E9 JUMPI PUSH1 0x0 DUP1 REVERT JUMPDEST POP JUMP JUMPDEST PUSH1 0x0 DUP1 PUSH1 0x40 DUP4 DUP6 SUB SLT ISZERO PUSH2 0x21FF JUMPI PUSH1 0x0 DUP1 REVERT JUMPDEST DUP3 CALLDATALOAD PUSH2 0x220A DUP2 PUSH2 0x21DB JUMP JUMPDEST SWAP2 POP PUSH1 0x20 DUP4 ADD CALLDATALOAD PUSH2 0x221A DUP2 PUSH2 0x21DB JUMP JUMPDEST DUP1 SWAP2 POP POP SWAP3 POP SWAP3 SWAP1 POP JUMP JUMPDEST PUSH1 0x0 DUP1 PUSH1 0x40 DUP4 DUP6 SUB SLT ISZERO PUSH2 0x2238 JUMPI PUSH1 0x0 DUP1 REVERT JUMPDEST POP POP DUP1 CALLDATALOAD SWAP3 PUSH1 0x20 SWAP1 SWAP2 ADD CALLDATALOAD SWAP2 POP JUMP JUMPDEST PUSH4 0x4E487B71 PUSH1 0xE0 SHL PUSH1 0x0 MSTORE PUSH1 0x41 PUSH1 0x4 MSTORE PUSH1 0x24 PUSH1 0x0 REVERT JUMPDEST PUSH1 0x40 MLOAD PUSH1 0x1F DUP3 ADD PUSH1 0x1F NOT AND DUP2 ADD PUSH8 0xFFFFFFFFFFFFFFFF DUP2 GT DUP3 DUP3 LT OR ISZERO PUSH2 0x2286 JUMPI PUSH2 0x2286 PUSH2 0x2247 JUMP JUMPDEST PUSH1 0x40 MSTORE SWAP2 SWAP1 POP JUMP JUMPDEST PUSH1 0x0 DUP3 PUSH1 0x1F DUP4 ADD SLT PUSH2 0x229F JUMPI PUSH1 0x0 DUP1 REVERT JUMPDEST DUP2 CALLDATALOAD PUSH1 0x20 PUSH8 0xFFFFFFFFFFFFFFFF DUP3 GT ISZERO PUSH2 0x22BB JUMPI PUSH2 0x22BB PUSH2 0x2247 JUMP JUMPDEST DUP2 PUSH1 0x5 SHL PUSH2 0x22CA DUP3 DUP3 ADD PUSH2 0x225D JUMP JUMPDEST SWAP3 DUP4 MSTORE DUP5 DUP2 ADD DUP3 ADD SWAP3 DUP3 DUP2 ADD SWAP1 DUP8 DUP6 GT ISZERO PUSH2 0x22E4 JUMPI PUSH1 0x0 DUP1 REVERT JUMPDEST DUP4 DUP8 ADD SWAP3 POP JUMPDEST DUP5 DUP4 LT ISZERO PUSH2 0x230A JUMPI PUSH2 0x22FB DUP4 PUSH2 0x2195 JUMP JUMPDEST DUP3 MSTORE SWAP2 DUP4 ADD SWAP2 SWAP1 DUP4 ADD SWAP1 PUSH2 0x22EA JUMP JUMPDEST SWAP8 SWAP7 POP POP POP POP POP POP POP JUMP JUMPDEST PUSH1 0x0 DUP1 PUSH1 0x0 DUP1 PUSH1 0x80 DUP6 DUP8 SUB SLT ISZERO PUSH2 0x232B JUMPI PUSH1 0x0 DUP1 REVERT JUMPDEST DUP5 CALLDATALOAD SWAP4 POP PUSH1 0x20 DUP6 ADD CALLDATALOAD SWAP3 POP PUSH1 0x40 DUP6 ADD CALLDATALOAD PUSH8 0xFFFFFFFFFFFFFFFF DUP2 GT ISZERO PUSH2 0x2350 JUMPI PUSH1 0x0 DUP1 REVERT JUMPDEST PUSH2 0x235C DUP8 DUP3 DUP9 ADD PUSH2 0x228E JUMP JUMPDEST SWAP3 POP POP PUSH2 0x236B PUSH1 0x60 DUP7 ADD PUSH2 0x2195 JUMP JUMPDEST SWAP1 POP SWAP3 SWAP6 SWAP2 SWAP5 POP SWAP3 POP JUMP JUMPDEST PUSH1 0x0 DUP1 PUSH1 0x0 PUSH1 0x60 DUP5 DUP7 SUB SLT ISZERO PUSH2 0x238B JUMPI PUSH1 0x0 DUP1 REVERT JUMPDEST PUSH2 0x2394 DUP5 PUSH2 0x2195 JUMP JUMPDEST SWAP3 POP PUSH2 0x23A2 PUSH1 0x20 DUP6 ADD PUSH2 0x2195 JUMP JUMPDEST SWAP2 POP PUSH1 0x40 DUP5 ADD CALLDATALOAD SWAP1 POP SWAP3 POP SWAP3 POP SWAP3 JUMP JUMPDEST PUSH1 0x0 DUP1 PUSH1 0x0 PUSH1 0x60 DUP5 DUP7 SUB SLT ISZERO PUSH2 0x23C7 JUMPI PUSH1 0x0 DUP1 REVERT JUMPDEST PUSH2 0x23D0 DUP5 PUSH2 0x2195 JUMP JUMPDEST SWAP3 POP PUSH2 0x23DE PUSH1 0x20 DUP6 ADD PUSH2 0x2195 JUMP JUMPDEST SWAP2 POP PUSH2 0x23EC PUSH1 0x40 DUP6 ADD PUSH2 0x2195 JUMP JUMPDEST SWAP1 POP SWAP3 POP SWAP3 POP SWAP3 JUMP JUMPDEST PUSH1 0x0 PUSH1 0x20 DUP3 DUP5 SUB SLT ISZERO PUSH2 0x2407 JUMPI PUSH1 0x0 DUP1 REVERT JUMPDEST POP CALLDATALOAD SWAP2 SWAP1 POP JUMP JUMPDEST PUSH1 0x0 PUSH1 0x20 DUP3 DUP5 SUB SLT ISZERO PUSH2 0x2420 JUMPI PUSH1 0x0 DUP1 REVERT JUMPDEST PUSH2 0x1CD9 DUP3 PUSH2 0x2195 JUMP JUMPDEST PUSH1 0x0 DUP1 PUSH1 0x0 DUP1 PUSH1 0x80 DUP6 DUP8 SUB SLT ISZERO PUSH2 0x243F JUMPI PUSH1 0x0 DUP1 REVERT JUMPDEST POP POP DUP3 CALLDATALOAD SWAP5 PUSH1 0x20 DUP5 ADD CALLDATALOAD SWAP5 POP PUSH1 0x40 DUP5 ADD CALLDATALOAD SWAP4 PUSH1 0x60 ADD CALLDATALOAD SWAP3 POP SWAP1 POP JUMP JUMPDEST PUSH1 0x0 DUP1 PUSH1 0x0 DUP1 PUSH1 0x80 DUP6 DUP8 SUB SLT ISZERO PUSH2 0x2471 JUMPI PUSH1 0x0 DUP1 REVERT JUMPDEST PUSH2 0x247A DUP6 PUSH2 0x2195 JUMP JUMPDEST SWAP4 POP PUSH1 0x20 DUP1 DUP7 ADD CALLDATALOAD SWAP4 POP PUSH2 0x2490 PUSH1 0x40 DUP8 ADD PUSH2 0x2195 JUMP JUMPDEST SWAP3 POP PUSH1 0x60 DUP7 ADD CALLDATALOAD PUSH8 0xFFFFFFFFFFFFFFFF DUP1 DUP3 GT ISZERO PUSH2 0x24AD JUMPI PUSH1 0x0 DUP1 REVERT JUMPDEST DUP2 DUP9 ADD SWAP2 POP DUP9 PUSH1 0x1F DUP4 ADD SLT PUSH2 0x24C1 JUMPI PUSH1 0x0 DUP1 REVERT JUMPDEST DUP2 CALLDATALOAD DUP2 DUP2 GT ISZERO PUSH2 0x24D3 JUMPI PUSH2 0x24D3 PUSH2 0x2247 JUMP JUMPDEST PUSH2 0x24E5 PUSH1 0x1F DUP3 ADD PUSH1 0x1F NOT AND DUP6 ADD PUSH2 0x225D JUMP JUMPDEST SWAP2 POP DUP1 DUP3 MSTORE DUP10 DUP5 DUP3 DUP6 ADD ADD GT ISZERO PUSH2 0x24FB JUMPI PUSH1 0x0 DUP1 REVERT JUMPDEST DUP1 DUP5 DUP5 ADD DUP6 DUP5 ADD CALLDATACOPY PUSH1 0x0 DUP5 DUP3 DUP5 ADD ADD MSTORE POP DUP1 SWAP4 POP POP POP POP SWAP3 SWAP6 SWAP2 SWAP5 POP SWAP3 POP JUMP JUMPDEST PUSH1 0x0 DUP1 PUSH1 0x0 PUSH1 0x60 DUP5 DUP7 SUB SLT ISZERO PUSH2 0x2530 JUMPI PUSH1 0x0 DUP1 REVERT JUMPDEST POP POP DUP2 CALLDATALOAD SWAP4 PUSH1 0x20 DUP4 ADD CALLDATALOAD SWAP4 POP PUSH1 0x40 SWAP1 SWAP3 ADD CALLDATALOAD SWAP2 SWAP1 POP JUMP JUMPDEST PUSH1 0x0 DUP1 PUSH1 0x0 DUP1 PUSH1 0x80 DUP6 DUP8 SUB SLT ISZERO PUSH2 0x255D JUMPI PUSH1 0x0 DUP1 REVERT JUMPDEST DUP5 CALLDATALOAD SWAP4 POP PUSH1 0x20 DUP6 ADD CALLDATALOAD SWAP3 POP PUSH1 0x40 DUP6 ADD CALLDATALOAD PUSH8 0xFFFFFFFFFFFFFFFF DUP1 DUP3 GT ISZERO PUSH2 0x2583 JUMPI PUSH1 0x0 DUP1 REVERT JUMPDEST PUSH2 0x258F DUP9 DUP4 DUP10 ADD PUSH2 0x228E JUMP JUMPDEST SWAP4 POP PUSH1 0x60 DUP8 ADD CALLDATALOAD SWAP2 POP DUP1 DUP3 GT ISZERO PUSH2 0x25A5 JUMPI PUSH1 0x0 DUP1 REVERT JUMPDEST POP PUSH2 0x25B2 DUP8 DUP3 DUP9 ADD PUSH2 0x228E JUMP JUMPDEST SWAP2 POP POP SWAP3 SWAP6 SWAP2 SWAP5 POP SWAP3 POP JUMP JUMPDEST PUSH1 0x0 DUP1 PUSH1 0x40 DUP4 DUP6 SUB SLT ISZERO PUSH2 0x25D1 JUMPI PUSH1 0x0 DUP1 REVERT JUMPDEST PUSH2 0x25DA DUP4 PUSH2 0x2195 JUMP JUMPDEST SWAP2 POP PUSH2 0x25E8 PUSH1 0x20 DUP5 ADD PUSH2 0x2195 JUMP JUMPDEST SWAP1 POP SWAP3 POP SWAP3 SWAP1 POP JUMP JUMPDEST PUSH1 0x0 DUP1 PUSH1 0x0 PUSH1 0x60 DUP5 DUP7 SUB SLT ISZERO PUSH2 0x2606 JUMPI PUSH1 0x0 DUP1 REVERT JUMPDEST DUP4 CALLDATALOAD SWAP3 POP PUSH1 0x20 DUP5 ADD CALLDATALOAD SWAP2 POP PUSH2 0x23EC PUSH1 0x40 DUP6 ADD PUSH2 0x2195 JUMP JUMPDEST PUSH1 0x1 DUP2 DUP2 SHR SWAP1 DUP3 AND DUP1 PUSH2 0x2631 JUMPI PUSH1 0x7F DUP3 AND SWAP2 POP JUMPDEST PUSH1 0x20 DUP3 LT DUP2 EQ ISZERO PUSH2 0x2652 JUMPI PUSH4 0x4E487B71 PUSH1 0xE0 SHL PUSH1 0x0 MSTORE PUSH1 0x22 PUSH1 0x4 MSTORE PUSH1 0x24 PUSH1 0x0 REVERT JUMPDEST POP SWAP2 SWAP1 POP JUMP JUMPDEST PUSH4 0x4E487B71 PUSH1 0xE0 SHL PUSH1 0x0 MSTORE PUSH1 0x11 PUSH1 0x4 MSTORE PUSH1 0x24 PUSH1 0x0 REVERT JUMPDEST PUSH1 0x0 DUP3 DUP3 LT ISZERO PUSH2 0x2680 JUMPI PUSH2 0x2680 PUSH2 0x2658 JUMP JUMPDEST POP SUB SWAP1 JUMP JUMPDEST PUSH1 0x0 DUP2 PUSH1 0x0 NOT DIV DUP4 GT DUP3 ISZERO ISZERO AND ISZERO PUSH2 0x269F JUMPI PUSH2 0x269F PUSH2 0x2658 JUMP JUMPDEST POP MUL SWAP1 JUMP JUMPDEST PUSH1 0x0 PUSH1 0x0 NOT DUP3 EQ ISZERO PUSH2 0x26B8 JUMPI PUSH2 0x26B8 PUSH2 0x2658 JUMP JUMPDEST POP PUSH1 0x1 ADD SWAP1 JUMP JUMPDEST PUSH1 0x0 PUSH1 0x20 DUP3 DUP5 SUB SLT ISZERO PUSH2 0x26D1 JUMPI PUSH1 0x0 DUP1 REVERT JUMPDEST DUP2 MLOAD PUSH2 0x1CD9 DUP2 PUSH2 0x21DB JUMP JUMPDEST PUSH1 0x0 DUP3 NOT DUP3 GT ISZERO PUSH2 0x26EF JUMPI PUSH2 0x26EF PUSH2 0x2658 JUMP JUMPDEST POP ADD SWAP1 JUMP JUMPDEST PUSH4 0x4E487B71 PUSH1 0xE0 SHL PUSH1 0x0 MSTORE PUSH1 0x32 PUSH1 0x4 MSTORE PUSH1 0x24 PUSH1 0x0 REVERT JUMPDEST PUSH1 0x1 DUP2 DUP2 JUMPDEST DUP1 DUP6 GT ISZERO PUSH2 0x2745 JUMPI DUP2 PUSH1 0x0 NOT DIV DUP3 GT ISZERO PUSH2 0x272B JUMPI PUSH2 0x272B PUSH2 0x2658 JUMP JUMPDEST DUP1 DUP6 AND ISZERO PUSH2 0x2738 JUMPI SWAP2 DUP2 MUL SWAP2 JUMPDEST SWAP4 DUP5 SHR SWAP4 SWAP1 DUP1 MUL SWAP1 PUSH2 0x270F JUMP JUMPDEST POP SWAP3 POP SWAP3 SWAP1 POP JUMP JUMPDEST PUSH1 0x0 DUP3 PUSH2 0x275C JUMPI POP PUSH1 0x1 PUSH2 0x99D JUMP JUMPDEST DUP2 PUSH2 0x2769 JUMPI POP PUSH1 0x0 PUSH2 0x99D JUMP JUMPDEST DUP2 PUSH1 0x1 DUP2 EQ PUSH2 0x277F JUMPI PUSH1 0x2 DUP2 EQ PUSH2 0x2789 JUMPI PUSH2 0x27A5 JUMP JUMPDEST PUSH1 0x1 SWAP2 POP POP PUSH2 0x99D JUMP JUMPDEST PUSH1 0xFF DUP5 GT ISZERO PUSH2 0x279A JUMPI PUSH2 0x279A PUSH2 0x2658 JUMP JUMPDEST POP POP PUSH1 0x1 DUP3 SHL PUSH2 0x99D JUMP JUMPDEST POP PUSH1 0x20 DUP4 LT PUSH2 0x133 DUP4 LT AND PUSH1 0x4E DUP5 LT PUSH1 0xB DUP5 LT AND OR ISZERO PUSH2 0x27C8 JUMPI POP DUP2 DUP2 EXP PUSH2 0x99D JUMP JUMPDEST PUSH2 0x27D2 DUP4 DUP4 PUSH2 0x270A JUMP JUMPDEST DUP1 PUSH1 0x0 NOT DIV DUP3 GT ISZERO PUSH2 0x27E6 JUMPI PUSH2 0x27E6 PUSH2 0x2658 JUMP JUMPDEST MUL SWAP4 SWAP3 POP POP POP JUMP JUMPDEST PUSH1 0x0 PUSH2 0x1CD9 DUP4 DUP4 PUSH2 0x274D JUMP JUMPDEST PUSH4 0x4E487B71 PUSH1 0xE0 SHL PUSH1 0x0 MSTORE PUSH1 0x12 PUSH1 0x4 MSTORE PUSH1 0x24 PUSH1 0x0 REVERT JUMPDEST PUSH1 0x0 DUP3 PUSH2 0x281F JUMPI PUSH2 0x281F PUSH2 0x27FA JUMP JUMPDEST POP DIV SWAP1 JUMP JUMPDEST PUSH4 0x4E487B71 PUSH1 0xE0 SHL PUSH1 0x0 MSTORE PUSH1 0x1 PUSH1 0x4 MSTORE PUSH1 0x24 PUSH1 0x0 REVERT JUMPDEST SWAP3 DUP4 MSTORE PUSH1 0x60 SWAP2 SWAP1 SWAP2 SHL PUSH12 0xFFFFFFFFFFFFFFFFFFFFFFFF NOT AND PUSH1 0x20 DUP4 ADD MSTORE PUSH1 0x34 DUP3 ADD MSTORE PUSH1 0x54 ADD SWAP1 JUMP JUMPDEST PUSH1 0x0 DUP3 PUSH2 0x2871 JUMPI PUSH2 0x2871 PUSH2 0x27FA JUMP JUMPDEST POP MOD SWAP1 JUMP JUMPDEST PUSH1 0x0 PUSH1 0x20 DUP3 DUP5 SUB SLT ISZERO PUSH2 0x2888 JUMPI PUSH1 0x0 DUP1 REVERT JUMPDEST POP MLOAD SWAP2 SWAP1 POP JUMP INVALID 0xDD CALLCODE MSTORE 0xAD SHL 0xE2 0xC8 SWAP12 PUSH10 0xC2B068FC378DAA952BA7 CALL PUSH4 0xC4A11628 CREATE2 GAS 0x4D CREATE2 0x23 0xB3 0xEF LOG2 PUSH5 0x6970667358 0x22 SLT KECCAK256 0xCC 0xCE 0xD2 DUP6 0xF DUP6 0xE2 0x2D BYTE DUP3 0xE9 JUMPDEST 0xC PUSH10 0xFCE2ACEFB50891256112 SWAP16 SWAP2 0x4B 0x23 0xA8 PUSH7 0xCCDF64736F6C63 NUMBER STOP ADDMOD SIGNEXTEND STOP CALLER ",
  "sha1": "17968e9fadbe4cc215d12fc7a3207a2c3d8fc148",
  "source": "// Forge - Proof of Work Mining Contract\n// MUST REMOVE AOPENMINT\n// Distrubtion of Forge Token is as follows:\n// 25% of Forge Token is Auctioned in the ForgeAuctions Contract which distributes tokens to users who use 0xBitcoin to buy tokens in fair price. Each auction lasts ~3 days. Using the Auctions contract\n// +\n// 25% of Forge Token is distributed as Liquidiy Pool rewards in the ForgeRewards Contract which distributes tokens to users who deposit the SpiritSwap Liquidity Pool tokens into the LPRewards contract.\n// +\n// 50% of Forge Token is distributed using ForgeMining Contract(this Contract) which distributes tokens to users by using GPUs/FPGAs to solve a complicated problem to gain tokens!  Uses this contract\n//\n// = 100% Of the Token is distributed to the users! No dev fee or premine!\n//\n// All distributions happen fairly using Bitcoins model of distribution for over 100+ years, on-chain, decentralized, trustless, ownerless contracts!\n//   The harder it is mined the less tokens that are awarded.\n// Network: Polygon Chain \n// ChainID = 89\n//\n//\n// Name: Forge\n// Symbol: Frg\n// Decimals: 18 \n//\n// Total supply: 42,000,001.000000000000000000\n//   =\n// 21,000,000 Mined over 100+ years using Bitcoins Distrubtion halvings every 4 years. Uses Proof-oF-Work to distribute the tokens. Public Miner is available.  Uses this contract.\n//   +\n// 10,500,000 Auctioned over 100+ years into 4 day auctions split fairly among all buyers. ALL 0xBitcoin proceeds go into THIS contract which it fairly distributes to miners.  Uses the ForgeAuctions contract\n//   +\n// 10,500,000 tokens goes to Liquidity Providers of the token over 100+ year using Bitcoins distribution!  Helps prevent LP losses!  Uses the ForgeRewards Contract\n//\n//  =\n//\n// 42,000,001 Tokens is the max Supply\n//      \n// 66% of the 0xBitcoin Token from this contract goes to the Miner to pay for the transaction cost and if the token grows enough earn 0xBitcoin per mint!!\n// 33% of the 0xBitcoin TOken from this contract goes to the Liquidity Providers via ForgeRewards Contract.  Helps prevent Impermant Loss! Larger Liquidity!\n//\n// No premine, dev cut, or advantage taken at launch. Public miner available at launch.  100% of the token is given away fairly over 100+ years using Bitcoins model!\n//\n// Send this contract any ERC20 token and it will become instantly mineable and able to distribute using proof-of-work for 1 year!!!!\n//\n//Viva la Mineables!!! Send this contract any ERC20 complient token (Wrapped NFTs incoming!) and we will fairly to miners and Holders(\n//  Each Mint prints (1/10000) of any ERC20.\n//pThirdDifficulty allows for the difficulty to be cut in a third.  So difficulty 10,000 becomes 3,333.  Costs 333 Fantom  Makes mining 3x easier\n//* 1 tokens in LP are burned to create the LP pool.\n//\n// Credits: 0xBitcoin, Vether, Synethix\n\n\npragma solidity ^0.8.0;\n\ncontract Ownable {\n    address public owner;\n\n    event TransferOwnership(address _from, address _to);\n\n    constructor() public {\n        owner = msg.sender;\n        emit TransferOwnership(address(0), msg.sender);\n    }\n\n    modifier onlyOwner() {\n        require(msg.sender == owner, \"only owner\");\n        _;\n    }\n\n    function setOwner(address _owner) internal onlyOwner {\n        emit TransferOwnership(owner, _owner);\n        owner = _owner;\n    }\n}\n\n\n\n\nlibrary IsContract {\n    function isContract(address _addr) internal view returns (bool) {\n        bytes32 codehash;\n        /* solium-disable-next-line */\n        assembly { codehash := extcodehash(_addr) }\n        return codehash != bytes32(0) && codehash != bytes32(0xc5d2460186f7233c927e7db2dcc703c0e500b653ca82273b7bfad8045d85a470);\n    }\n}\n\n// File: contracts/utils/SafeMath.sol\n\nlibrary SafeMath2 {\n    function add(uint256 x, uint256 y) internal pure returns (uint256) {\n        uint256 z = x + y;\n        require(z >= x, \"Add overflow\");\n        return z;\n    }\n\n    function sub(uint256 x, uint256 y) internal pure returns (uint256) {\n        require(x >= y, \"Sub underflow\");\n        return x - y;\n    }\n\n    function mult(uint256 x, uint256 y) internal pure returns (uint256) {\n        if (x == 0) {\n            return 0;\n        }\n\n        uint256 z = x * y;\n        require(z / x == y, \"Mult overflow\");\n        return z;\n    }\n\n    function div(uint256 x, uint256 y) internal pure returns (uint256) {\n        require(y != 0, \"Div by zero\");\n        return x / y;\n    }\n\n    function divRound(uint256 x, uint256 y) internal pure returns (uint256) {\n        require(y != 0, \"Div by zero\");\n        uint256 r = x / y;\n        if (x % y != 0) {\n            r = r + 1;\n        }\n\n        return r;\n    }\n}\n\n// File: contracts/utils/Math.sol\n\nlibrary ExtendedMath2 {\n\n\n    //return the smaller of the two inputs (a or b)\n    function limitLessThan(uint a, uint b) internal pure returns (uint c) {\n\n        if(a > b) return b;\n\n        return a;\n\n    }\n}\n\n// File: contracts/interfaces/IERC20.sol\n\ninterface IERC20 {\n\tfunction totalSupply() external view returns (uint256);\n    event Transfer(address indexed _from, address indexed _to, uint256 _value);\n    event Approval(address indexed _owner, address indexed _spender, uint256 _value);\n    function transfer(address _to, uint _value) external returns (bool success);\n    function transferFrom(address _from, address _to, uint256 _value) external returns (bool success);\n    function allowance(address _owner, address _spender) external view returns (uint256 remaining);\n    function approve(address _spender, uint256 _value) external returns (bool success);\n    function balanceOf(address _owner) external view returns (uint256 balance);\n    \n}\n\n\n// File: contracts/commons/AddressMinHeap.sol\n\n\n\nabstract contract ApproveAndCallFallBack {\n    function receiveApproval(address from, uint256 tokens, address token, bytes memory data) virtual public;\n}\n\n\n//Main contract\n\ncontract ForgeMining is Ownable, IERC20, ApproveAndCallFallBack {\n\tuint constant public targetTime = 36 * 60; //= 36 minutes\n\n// SUPPORTING CONTRACTS\n    address public AddressAuction;\n    address public AddressLPReward;\n    address public AddressZeroXBTC;\n//Events\n    using SafeMath2 for uint256;\n    using ExtendedMath2 for uint;\n    event Mint(address indexed from, uint reward_amount, uint epochCount, bytes32 newChallengeNumber);\n    event MegaMint(address indexed from, uint reward_amount, uint epochCount, bytes32 newChallengeNumber, uint NumberOfTokensMinted);\n\n// Managment events\n    uint256 override public totalSupply = 42000001000000000000000000;\n    bytes32 private constant BALANCE_KEY = keccak256(\"balance\");\n\n    //BITCOIN INITALIZE Start\n\t\n    uint _totalSupply = 21000000000000000000000000;\n    uint public latestDifficultyPeriodStarted2 = block.timestamp;\n    uint public epochCount = 0;//number of 'blocks' mined\n\n    uint public _BLOCKS_PER_READJUSTMENT = 256;\n\n    //a little number\n    uint public  _MINIMUM_TARGET = 2**16;\n    \n    uint public  _MAXIMUM_TARGET = 2**234;\n    uint public miningTarget = _MAXIMUM_TARGET.div(200000000000*25);  //1000 million difficulty to start until i enable mining\n    \n    bytes32 public challengeNumber;   //generate a new one when a new reward is minted\n    uint public rewardEra = 0;\n    uint public maxSupplyForEra = (_totalSupply - _totalSupply.div( 2**(rewardEra + 1)));\n    uint public reward_amount = (150 * 10**uint(decimals) ).div( 2**rewardEra );\n    //Stuff for Functions\n    uint oldecount = 0;\n    uint public previousBlockTime = block.timestamp;\n    uint oneEthUnit =    1000000000000000000;\n    uint one8unit   =              100000000;\n    uint public Token2Per=           1000000;\n    uint Token2Min=                  1000000;\n    mapping(bytes32 => bytes32) public solutionForChallenge;\n    mapping(bytes32 => uint) public EpochForChallenge;\n    mapping(uint => bytes32) public ChallengeForEpoch;\n    uint public tokensMinted;\n    mapping(address => uint) balances;\n    mapping(address => mapping(address => uint)) allowed;\n    //mapping(address => uint) Token_balances;\n    uint give0xBTC = 0;\n    uint give = 1;\n    // metadata\n    string public name = \"Forge\";\n    string public constant symbol = \"Forge\";\n    uint8 public constant decimals = 18;\n    uint public totalLifetimes = 0;\n\n    uint public latestDifficultyPeriodStarted = block.number;\n    bool inited = false;\n    function zinit(address AuctionAddress2, address LPGuild2, address _ZeroXBTCAddress) public onlyOwner{\n        uint x = 21000000000000000000000000 / (2* (2 ** totalLifetimes)); //half supply for LP Mine and Burn\n        // Only init once\n        assert(!inited);\n        inited = true;\n\t\n    \trewardEra = 0;\n\t    tokensMinted = 0;\n    \t//bitcoin commands short and sweet //sets to previous difficulty\n    \tminingTarget = _MAXIMUM_TARGET.div(30005); //5000000 = 31gh/s @ 7 min for FPGA mining\n        //latestDifficultyPeriodStarted2 = block.timestamp;\n    \t\n    \t_startNewMiningEpoch();\n    \t\n    \t\n        // Init contract variables and mint\n        balances[AuctionAddress2] = x;\n        emit Transfer(address(0), AuctionAddress2, x);\n    \tAddressAuction = AuctionAddress2;\n\t\n        AddressLPReward = payable(LPGuild2);\n        AddressZeroXBTC = _ZeroXBTCAddress;\n        oldecount = epochCount;\n        // mint 1 token to setup LPs\n        balances[msg.sender] = 1000000000000000000;\n        emit Transfer(address(0), msg.sender, 1000000000000000000);\n        \n        \n        \n    }\n\n    ///\n    // Managment\n    ///\n//MUST REMOVE MUST REMOVE\n\nfunction zinit2(address AuctionAddress2, address LPGuild2, address _ZeroXBTCAddress) public onlyOwner{\n\n    \tAddressAuction = AuctionAddress2;\n        AddressLPReward = payable(LPGuild2);\n        AddressZeroXBTC = _ZeroXBTCAddress;\n        \n    }\n\n\nfunction AOpenMint(bool nonce, bool challenge_digest) public returns (bool success) {\n\n     \t    _startNewMiningEpoch();\n\n        \tuint diff = block.timestamp - previousBlockTime;\n\t    \tuint x = 4;\n\t    \tif(diff  > targetTime)\n\t    \t{\n\t    \t\tfor(x = 4; x< 10; x++){\n\t    \t\tif(diff <= (targetTime * x).div(3)){\n\t    \t\t \tbreak;\n\t    \t\t}}\n\t    \t}\n            uint reward = (x * reward_amount).div(4);\n\t\n\t    \tbalances[msg.sender] = balances[msg.sender].add(reward);\n\t        balances[AddressLPReward] = balances[AddressLPReward].add((reward).div(2));\n\n\n\t    \ttokensMinted = tokensMinted.add(reward);\n            previousBlockTime = block.timestamp;\n            if(give0xBTC > 0){\n            IERC20(AddressZeroXBTC).transfer(msg.sender, Token2Per*give0xBTC);\n           }\n           emit Mint(msg.sender, reward_amount, epochCount, challengeNumber );\n           return true;\n    }\n\n\nfunction ARewardSender() public {\n    //runs every _BLOCKS_PER_READJUSTMENT / 4\n    uint256 epochsPast = epochCount - oldecount; //actually epoch\n    reward_amount = (150 * 10**uint(decimals)).div( 2**rewardEra );\n\n    if(IERC20(AddressZeroXBTC).balanceOf(address(this)) > (6 * (Token2Per * _BLOCKS_PER_READJUSTMENT)/4)) // at least enough blocks to rerun this function for both LPRewards and Users\n    {\n        give0xBTC = 1 * give;\n        IERC20(AddressZeroXBTC).transfer(AddressLPReward, ((epochsPast) * Token2Per * give0xBTC) / 2);\n    }\n    else{\n        give0xBTC = 0;\n    }\n    oldecount = epochCount; //actually epoch\n}\n\n\n//Mints to the payee Forge, 0xBitcoin always to the sender. Making it the heaviest currency in here.\n//\n//function mint(bool nonce, bool challenge_digest) public returns (bool success) {\nfunction mint(uint256 nonce, bytes32 challenge_digest) public returns (bool success) {\n    mintTo(nonce, challenge_digest, msg.sender);\n}\n\n//function mintTo(bool nonce, bool challenge_digest,  address mintTo) public returns (bool success) {\nfunction mintTo(uint256 nonce, bytes32 challenge_digest,  address mintTo) public returns (bool success) {\n\n    \t\ttokensMinted.add(reward_amount);\n            bytes32 digest =  keccak256(abi.encodePacked(challengeNumber, msg.sender, nonce));\n\n            //the challenge digest must match the expected\n            require(digest == challenge_digest, \"Old challenge_digest or wrong challenge_digest\");\n\n            //the digest must be smaller than the target\n            require(uint256(digest) < miningTarget, \"Digest must be smaller than miningTarget\");\n\t\t    _startNewMiningEpoch();\n\n        \tuint diff = block.timestamp - previousBlockTime;\n            uint x=3;\n\t    \t\twhile(diff <= (targetTime * x).div(88)){\n\t\t\t\tx++;\n\t    \t\t}\n            uint ratio = x * 100 / 88;\n            uint totalOwed = 0;\n\t    \n\t    \tif(ratio >=1888){\n\t\t\ttotalOwed = (reward_amount * x).div(88 );\n            }else if( ratio >= 200){\n                totalOwed = (reward_amount * 2* x).div(88);   //2500 was chosen to give each token a ~1/4 year per token of distribution using Proof-of-Work\n            }else if( ratio >= 150){\n                totalOwed = (reward_amount * 3* x).div(88 * 2);   //2500 was chosen to give each token a ~1/4 year per token of distribution using Proof-of-Work\n            }else if( ratio >= 103){\n                totalOwed = (reward_amount * 4* x).div(88 * 3);   //2500 was chosen to give each token a ~1/4 year per token of distribution using Proof-of-Work\n            }else {\n\t\t        totalOwed = (reward_amount * x).div(88 );\n\t    \t}\n\n    \n\n            \tuint reward = totalOwed;\n\t\n\t    \tbalances[mintTo] = balances[mintTo].add(reward);\n\t        balances[AddressLPReward] = balances[AddressLPReward].add((reward).div(2));\n\n\t    \ttokensMinted = tokensMinted.add(reward.div(2) * 3);\n            previousBlockTime = block.timestamp;\n            if(give0xBTC > 0){\n            IERC20(AddressZeroXBTC).transfer(mintTo, Token2Per*give0xBTC);\n           }\n           emit Mint(msg.sender, reward, epochCount, challengeNumber );\n           return true;\n}\n\n//First address for mintSend(Forge + 0xBitcoin), Second address+ for other tokens\n// REPALCE WITH LINE BELOW in production\n//function mintTokensArrayTo(bool nonce, bool challenge_digest, address[] memory ExtraFunds, address[] memory MintTo) public returns (bool success) {\nfunction mintTokensArrayTo(uint256 nonce, bytes32 challenge_digest, address[] memory ExtraFunds, address[] memory MintTo) public returns (bool success) {\n\t\tuint xx = 10;\n        uint diff = block.timestamp - previousBlockTime;\n\t\twhile(diff <= (targetTime * xx).div(88)){\n\t\t\txx++;\n\t\t}\n          \n\t\t\n        require(MintTo.length == ExtraFunds.length + 1,\"So MintTo has to have same number of addressses as ExtraFunds\");\n       for(uint x=0; x< ExtraFunds.length; x++)\n        {\n        require(ExtraFunds[x] != address(this) && ExtraFunds[x] != AddressZeroXBTC, \"No base printing of tokens\");\n        \n            for(uint y=1; y< ExtraFunds.length; y++){\n                require(ExtraFunds[y] != ExtraFunds[x] || x == y, \"No printing The same tokens\");\n            }\n\n    \t}\n\t\n    require(mintTo(nonce,challenge_digest, MintTo[0]), \"mint issue\");\n\n    \n    uint savex=0;\n    for(uint x=0; x<ExtraFunds.length; x++)\n    {\n        //exponentialy more valueable\nif(epochCount % (2**(x+1)) == 0){\n    uint256 TotalOwned = IERC20(ExtraFunds[x]).balanceOf(address(this));\n    if(TotalOwned != 0)\n    {\n        uint256 totalOwed = 0;\n\n\t\tuint256 ratio = 100 *xx/88;\n\t\tif( (x+1) % 3 == 0 && x != 0){\n\t\t\n\t\tif(ratio >=1888){\n\t\t\ttotalOwed = (TotalOwned * xx).divRound(88 * 2500 );\n\t\t}else if( ratio >= 200){\n                totalOwed = (TotalOwned * 2* xx).divRound(88 * 2500 );   //2500 was chosen to give each token a ~1/4 year per token of distribution using Proof-of-Work\n            }else if( ratio >= 150){\n                totalOwed = (TotalOwned * 3* xx).divRound(88 * 2 * 2500 );   //2500 was chosen to give each token a ~1/4 year per token of distribution using Proof-of-Work\n            }else if( ratio >= 103){\n                totalOwed = (TotalOwned * 4* xx).divRound(88 * 3 * 2500 );   //2500 was chosen to give each token a ~1/4 year per token of distribution using Proof-of-Work\n            }else {\n\t\t        totalOwed = (TotalOwned * xx).divRound(88 );\n\t    \t}\n\t\t}\n\t\telse{\n\t    \tif(ratio >=1888){\n\t\t\ttotalOwed = (TotalOwned * xx).div(88 * 2500 );\n\t\t    }else if( ratio >= 200){\n                totalOwed = (TotalOwned * 2* xx).div(88* 2500 );   //2500 was chosen to give each token a ~1/4 year per token of distribution using Proof-of-Work\n            }else if( ratio >= 150){\n                totalOwed = (TotalOwned * 3* xx).div(88 * 2 * 2500 );   //2500 was chosen to give each token a ~1/4 year per token of distribution using Proof-of-Work\n            }else if( ratio >= 103){\n                totalOwed = (TotalOwned * 4* xx).div(88 * 3 * 2500 );   //2500 was chosen to give each token a ~1/4 year per token of distribution using Proof-of-Work\n            }else {\n\t\t        totalOwed = (TotalOwned * xx).div(88 * 2500 );\n\t    \t}\n\t\t}\n            IERC20(ExtraFunds[x]).transfer(MintTo[x], totalOwed);\n        \n    }\n    savex = x;\n    } else {\n\n\n\n    }\n\t\t\t\t\n        \n    }\n    \n    \n    emit MegaMint(msg.sender, reward_amount, epochCount, challengeNumber, savex );\n    return true;\n}\n    \n\n\nfunction mintTokensSameAddress(uint256 nonce, bytes32 challenge_digest, address[] memory ExtraFunds, address MintTo) public returns (bool success) {\n        address[] memory dd = new address[](ExtraFunds.length + 1); \n        uint y=0;\n        for(uint x=0; x< (ExtraFunds.length + 1); x++)\n        {\n            dd[x] = MintTo;\n        }\n        mintTokensArrayTo(nonce, challenge_digest, ExtraFunds, dd);\n        return true;\n}\n\n\n\nfunction _startNewMiningEpoch() internal {\n        \n \n      //if max supply for the era will be exceeded next reward round then enter the new era before that happens\n\n      //40 is the final reward era, almost all tokens minted\n      //once the final era is reached, more tokens will not be given out because the assert function\n      if( tokensMinted.add((reward_amount)) > maxSupplyForEra && rewardEra < 39)\n      {\n        rewardEra = rewardEra + 1;\n        miningTarget = miningTarget.div(2 ** rewardEra);\n        \n      }\n\n      //set the next minted supply at which the era will change\n      // total supply of MINED tokens is 21000000000000000000000000  because of 16 decimal places\n\n      epochCount = epochCount.add(1);\n\n      //every so often, readjust difficulty. Dont readjust when deploying\n    if((epochCount) % (_BLOCKS_PER_READJUSTMENT / 4) == 0)\n    {\n        \tARewardSender();\n\t\tmaxSupplyForEra = _totalSupply - _totalSupply.div( 2**(rewardEra + 1));\n\n    if((epochCount % _BLOCKS_PER_READJUSTMENT== 0))\n    {\n         if(( IERC20(AddressZeroXBTC).balanceOf(address(this)) / Token2Per) <= 20000) //chosen to give keep 250 days payouts in reserve at current payout\n         {\n             if(Token2Per.div(2) > Token2Min)\n             {\n             Token2Per = Token2Per.div(2);\n            }\n         }\n         else\n         {\n             Token2Per = Token2Per.mult(3);\n         }\n        _reAdjustDifficulty();\n    }\n    }\n\n    challengeNumber = blockhash(block.number - 1);\n}\n\n\n\n\n    //https://en.bitcoin.it/wiki/Difficulty#What_is_the_formula_for_difficulty.3F\n    //as of 2017 the bitcoin difficulty was up to 17 zeroes, it was only 8 in the early days\n\n    function _reAdjustDifficulty() internal {\n        latestDifficultyPeriodStarted = block.number;\n        uint256 blktimestamp = block.timestamp;\n        uint ethBlocksSinceLastDifficultyPeriod2 = blktimestamp - latestDifficultyPeriodStarted2;\n\n        uint epochsMined = _BLOCKS_PER_READJUSTMENT; //256\n\n        uint adjusDiffTargetTime = targetTime * epochsMined; //36 min per block 60 sec * 12\n\n        //if there were less eth blocks passed in time than expected\n        if( ethBlocksSinceLastDifficultyPeriod2 < adjusDiffTargetTime )\n        {\n          uint excess_block_pct = (adjusDiffTargetTime.mult(100)).div( ethBlocksSinceLastDifficultyPeriod2 );\n\tgive = 1;\n          uint excess_block_pct_extra = excess_block_pct.sub(100).limitLessThan(1000);\n          // If there were 5% more blocks mined than expected then this is 5.  If there were 100% more blocks mined than expected then this is 100.\n\n          //make it harder q\n          miningTarget = miningTarget.sub(miningTarget.div(2000).mult(excess_block_pct_extra));   //by up to 50 %\n        }else{\n          uint shortage_block_pct = (ethBlocksSinceLastDifficultyPeriod2.mult(100)).div( adjusDiffTargetTime );\n\tgive = 2;\n          uint shortage_block_pct_extra = shortage_block_pct.sub(100).limitLessThan(1000); //always between 0 and 1000\n          //make it easier\n          miningTarget = miningTarget.add(miningTarget.div(2000).mult(shortage_block_pct_extra));   //by up to 50 %\n        }\n\n\n        latestDifficultyPeriodStarted2 = blktimestamp;\n\n        if(miningTarget < _MINIMUM_TARGET) //very difficult\n        {\n          miningTarget = _MINIMUM_TARGET;\n        }\n\n        if(miningTarget > _MAXIMUM_TARGET) //very easy\n        {\n          miningTarget = _MAXIMUM_TARGET;\n        }\n    }\n\n\n    //42 m coins total\n    // = \n    //21 million proof of work\n    // + \n    //10.5 million proof of burn\n    // +\n    //10.5 million rewards for Liquidity Providers\n\n\n\n\n        //help debug mining software\n     function checkMintSolution(uint256 nonce, bytes32 challenge_digest, bytes32 challenge_number, uint testTarget) public view returns (bool success) {\n\n        bytes32 digest = bytes32(keccak256(abi.encodePacked(challenge_number,msg.sender,nonce)));\n\n        if(uint256(digest) > testTarget) revert();\n\n        return (digest == challenge_digest);\n        }\n\t\t\n\t\t\n\n    //this is a recent ethereum block hash, used to prevent pre-mining future blocks\n    function getChallengeNumber() public view returns (bytes32) {\n        return challengeNumber;\n    }\n\n    //the number of zeroes the digest of the PoW solution requires.  Auto adjusts\n     function getMiningDifficulty() public view returns (uint) {\n        return _MAXIMUM_TARGET.div(miningTarget);\n    }\n\n    function getMiningTarget() public view returns (uint) {\n       return miningTarget;\n   }\n   \n    function getMiningMinted() public view returns (uint) {\n      return tokensMinted;\n    }\n\n\n    //21m coins total\n    //reward begins at 150 and is cut in half every reward era (as tokens are mined)\n    function getMiningReward() public view returns (uint) {\n        //once we get half way thru the coins, only get 25 per block\n\n         //every reward era, the reward amount halves.\n\n         return (150 * 10**uint(decimals) ).div( 2**rewardEra ) ;\n\n    }\n\n\n    //21m coins total\n    //reward begins at 150 and is cut in half every reward era (as tokens are mined)\n    function getEpoch() public view returns (uint) {\n        //once we get half way thru the coins, only get 25 per block\n\n         //every reward era, the reward amount halves.\n\n         return epochCount ;\n\n    }\n\n\n\n\n\n    //help debug mining software\n    function getMintDigest(uint256 nonce, bytes32 challenge_digest, bytes32 challenge_number) public view returns (bytes32 digesttest) {\n\n            bytes32 digest =  keccak256(abi.encodePacked(challengeNumber, msg.sender, nonce));\n\n        return digest;\n\n      }\n\n\n\n    // ------------------------------------------------------------------------\n\n    // Total supply\n\n    // ------------------------------------------------------------------------\n\n\n\n\n\n    // ------------------------------------------------------------------------\n\n    // Get the token balance for account `tokenOwner`\n\n    // ------------------------------------------------------------------------\n\n    function balanceOf(address tokenOwner) public override view returns (uint balance) {\n\n        return balances[tokenOwner];\n\n    }\n\n\n\n    // ------------------------------------------------------------------------\n\n    // Transfer the balance from token owner's account to `to` account\n\n    // - Owner's account must have sufficient balance to transfer\n\n    // - 0 value transfers are allowed\n\n    // ------------------------------------------------------------------------\n\n    function transfer(address to, uint tokens) public override returns (bool success) {\n\n        balances[msg.sender] = balances[msg.sender].sub(tokens);\n\n        balances[to] = balances[to].add(tokens);\n\n        emit Transfer(msg.sender, to, tokens);\n\n        return true;\n\n    }\n\n\n\n    // ------------------------------------------------------------------------\n\n    // Token owner can approve for `spender` to transferFrom(...) `tokens`\n\n    // from the token owner's account\n\n    //\n\n    // https://github.com/ethereum/EIPs/blob/master/EIPS/eip-20-token-standard.md\n\n    // recommends that there are no checks for the approval double-spend attack\n\n    // as this should be implemented in user interfaces\n\n    // ------------------------------------------------------------------------\n\n    function approve(address spender, uint tokens) public override returns (bool success) {\n\n        allowed[msg.sender][spender] = tokens;\n\n        emit Approval(msg.sender, spender, tokens);\n\n        return true;\n\n    }\n\n\n\n    // ------------------------------------------------------------------------\n\n    // Transfer `tokens` from the `from` account to the `to` account\n\n    //\n\n    // The calling account must already have sufficient tokens approve(...)-d\n\n    // for spending from the `from` account and\n\n    // - From account must have sufficient balance to transfer\n\n    // - Spender must have sufficient allowance to transfer\n\n    // - 0 value transfers are allowed\n\n    // ------------------------------------------------------------------------\n\n    function transferFrom(address from, address to, uint tokens) public override returns (bool success) {\n\n        balances[from] = balances[from].sub(tokens);\n\n        allowed[from][msg.sender] = allowed[from][msg.sender].sub(tokens);\n\n        balances[to] = balances[to].add(tokens);\n\n        emit Transfer(from, to, tokens);\n\n        return true;\n\n    }\n\n\n    // ------------------------------------------------------------------------\n\n    // Returns the amount of tokens approved by the owner that can be\n\n    // transferred to the spender's account\n\n    // ------------------------------------------------------------------------\n\n    function allowance(address tokenOwner, address spender) public override view returns (uint remaining) {\n\n        return allowed[tokenOwner][spender];\n\n    }\n\n\n\n    // ------------------------------------------------------------------------\n\n    // Token owner can approve for `spender` to transferFrom(...) `tokens`\n\n    // from the token owner's account. The `spender` contract function\n\n    // `receiveApproval(...)` is then executed\n\n    // ------------------------------------------------------------------------\n\n    function receiveApproval(address from, uint256 tokens, address token, bytes memory data) public override{\n      require(token == address(this));\n      \n       IERC20(address(this)).transfer(from, tokens);  \n    }\n    \n\n\n\n  //Do not allow ETH to enter\n  receive() external payable {\n    revert();\n  }\n\n  fallback() external payable {\n    revert();\n  }\n\n        \n}\n\n",
  "sourcePath": "contracts/mining.sol",
  "type": "contract"
}