{
  "abi": [
    {
      "anonymous": false,
      "inputs": [
        {
          "indexed": true,
          "internalType": "address",
          "name": "_owner",
          "type": "address"
        },
        {
          "indexed": true,
          "internalType": "address",
          "name": "_spender",
          "type": "address"
        },
        {
          "indexed": false,
          "internalType": "uint256",
          "name": "_value",
          "type": "uint256"
        }
      ],
      "name": "Approval",
      "type": "event"
    },
    {
      "anonymous": false,
      "inputs": [
        {
          "indexed": true,
          "internalType": "address",
          "name": "from",
          "type": "address"
        },
        {
          "indexed": false,
          "internalType": "uint256",
          "name": "reward_amount",
          "type": "uint256"
        },
        {
          "indexed": false,
          "internalType": "uint256",
          "name": "epochCount",
          "type": "uint256"
        },
        {
          "indexed": false,
          "internalType": "bytes32",
          "name": "newChallengeNumber",
          "type": "bytes32"
        },
        {
          "indexed": false,
          "internalType": "uint256",
          "name": "NumberOfTokensMinted",
          "type": "uint256"
        }
      ],
      "name": "MegaMint",
      "type": "event"
    },
    {
      "anonymous": false,
      "inputs": [
        {
          "indexed": true,
          "internalType": "address",
          "name": "from",
          "type": "address"
        },
        {
          "indexed": false,
          "internalType": "uint256",
          "name": "reward_amount",
          "type": "uint256"
        },
        {
          "indexed": false,
          "internalType": "uint256",
          "name": "epochCount",
          "type": "uint256"
        },
        {
          "indexed": false,
          "internalType": "bytes32",
          "name": "newChallengeNumber",
          "type": "bytes32"
        }
      ],
      "name": "Mint",
      "type": "event"
    },
    {
      "anonymous": false,
      "inputs": [
        {
          "indexed": true,
          "internalType": "address",
          "name": "_from",
          "type": "address"
        },
        {
          "indexed": true,
          "internalType": "address",
          "name": "_to",
          "type": "address"
        },
        {
          "indexed": false,
          "internalType": "uint256",
          "name": "_value",
          "type": "uint256"
        }
      ],
      "name": "Transfer",
      "type": "event"
    },
    {
      "anonymous": false,
      "inputs": [
        {
          "indexed": false,
          "internalType": "address",
          "name": "_from",
          "type": "address"
        },
        {
          "indexed": false,
          "internalType": "address",
          "name": "_to",
          "type": "address"
        }
      ],
      "name": "TransferOwnership",
      "type": "event"
    },
    {
      "inputs": [
        {
          "internalType": "bool",
          "name": "nonce",
          "type": "bool"
        },
        {
          "internalType": "bool",
          "name": "challenge_digest",
          "type": "bool"
        }
      ],
      "name": "AOpenMint",
      "outputs": [
        {
          "internalType": "bool",
          "name": "success",
          "type": "bool"
        }
      ],
      "stateMutability": "nonpayable",
      "type": "function"
    },
    {
      "inputs": [],
      "name": "ARewardSender",
      "outputs": [],
      "stateMutability": "nonpayable",
      "type": "function"
    },
    {
      "inputs": [],
      "name": "AddressAuction",
      "outputs": [
        {
          "internalType": "address",
          "name": "",
          "type": "address"
        }
      ],
      "stateMutability": "view",
      "type": "function"
    },
    {
      "inputs": [],
      "name": "AddressLPReward",
      "outputs": [
        {
          "internalType": "address",
          "name": "",
          "type": "address"
        }
      ],
      "stateMutability": "view",
      "type": "function"
    },
    {
      "inputs": [],
      "name": "AddressZeroXBTC",
      "outputs": [
        {
          "internalType": "address",
          "name": "",
          "type": "address"
        }
      ],
      "stateMutability": "view",
      "type": "function"
    },
    {
      "inputs": [
        {
          "internalType": "uint256",
          "name": "",
          "type": "uint256"
        }
      ],
      "name": "ChallengeForEpoch",
      "outputs": [
        {
          "internalType": "bytes32",
          "name": "",
          "type": "bytes32"
        }
      ],
      "stateMutability": "view",
      "type": "function"
    },
    {
      "inputs": [
        {
          "internalType": "bytes32",
          "name": "",
          "type": "bytes32"
        }
      ],
      "name": "EpochForChallenge",
      "outputs": [
        {
          "internalType": "uint256",
          "name": "",
          "type": "uint256"
        }
      ],
      "stateMutability": "view",
      "type": "function"
    },
    {
      "inputs": [],
      "name": "Token2Per",
      "outputs": [
        {
          "internalType": "uint256",
          "name": "",
          "type": "uint256"
        }
      ],
      "stateMutability": "view",
      "type": "function"
    },
    {
      "inputs": [],
      "name": "_BLOCKS_PER_READJUSTMENT",
      "outputs": [
        {
          "internalType": "uint256",
          "name": "",
          "type": "uint256"
        }
      ],
      "stateMutability": "view",
      "type": "function"
    },
    {
      "inputs": [],
      "name": "_MAXIMUM_TARGET",
      "outputs": [
        {
          "internalType": "uint256",
          "name": "",
          "type": "uint256"
        }
      ],
      "stateMutability": "view",
      "type": "function"
    },
    {
      "inputs": [],
      "name": "_MINIMUM_TARGET",
      "outputs": [
        {
          "internalType": "uint256",
          "name": "",
          "type": "uint256"
        }
      ],
      "stateMutability": "view",
      "type": "function"
    },
    {
      "inputs": [
        {
          "internalType": "address",
          "name": "tokenOwner",
          "type": "address"
        },
        {
          "internalType": "address",
          "name": "spender",
          "type": "address"
        }
      ],
      "name": "allowance",
      "outputs": [
        {
          "internalType": "uint256",
          "name": "remaining",
          "type": "uint256"
        }
      ],
      "stateMutability": "view",
      "type": "function"
    },
    {
      "inputs": [
        {
          "internalType": "address",
          "name": "spender",
          "type": "address"
        },
        {
          "internalType": "uint256",
          "name": "tokens",
          "type": "uint256"
        }
      ],
      "name": "approve",
      "outputs": [
        {
          "internalType": "bool",
          "name": "success",
          "type": "bool"
        }
      ],
      "stateMutability": "nonpayable",
      "type": "function"
    },
    {
      "inputs": [
        {
          "internalType": "address",
          "name": "tokenOwner",
          "type": "address"
        }
      ],
      "name": "balanceOf",
      "outputs": [
        {
          "internalType": "uint256",
          "name": "balance",
          "type": "uint256"
        }
      ],
      "stateMutability": "view",
      "type": "function"
    },
    {
      "inputs": [],
      "name": "challengeNumber",
      "outputs": [
        {
          "internalType": "bytes32",
          "name": "",
          "type": "bytes32"
        }
      ],
      "stateMutability": "view",
      "type": "function"
    },
    {
      "inputs": [
        {
          "internalType": "uint256",
          "name": "nonce",
          "type": "uint256"
        },
        {
          "internalType": "bytes32",
          "name": "challenge_digest",
          "type": "bytes32"
        },
        {
          "internalType": "bytes32",
          "name": "challenge_number",
          "type": "bytes32"
        },
        {
          "internalType": "uint256",
          "name": "testTarget",
          "type": "uint256"
        }
      ],
      "name": "checkMintSolution",
      "outputs": [
        {
          "internalType": "bool",
          "name": "success",
          "type": "bool"
        }
      ],
      "stateMutability": "view",
      "type": "function"
    },
    {
      "inputs": [],
      "name": "decimals",
      "outputs": [
        {
          "internalType": "uint8",
          "name": "",
          "type": "uint8"
        }
      ],
      "stateMutability": "view",
      "type": "function"
    },
    {
      "inputs": [],
      "name": "epochCount",
      "outputs": [
        {
          "internalType": "uint256",
          "name": "",
          "type": "uint256"
        }
      ],
      "stateMutability": "view",
      "type": "function"
    },
    {
      "inputs": [],
      "name": "getChallengeNumber",
      "outputs": [
        {
          "internalType": "bytes32",
          "name": "",
          "type": "bytes32"
        }
      ],
      "stateMutability": "view",
      "type": "function"
    },
    {
      "inputs": [],
      "name": "getEpoch",
      "outputs": [
        {
          "internalType": "uint256",
          "name": "",
          "type": "uint256"
        }
      ],
      "stateMutability": "view",
      "type": "function"
    },
    {
      "inputs": [],
      "name": "getMiningDifficulty",
      "outputs": [
        {
          "internalType": "uint256",
          "name": "",
          "type": "uint256"
        }
      ],
      "stateMutability": "view",
      "type": "function"
    },
    {
      "inputs": [],
      "name": "getMiningMinted",
      "outputs": [
        {
          "internalType": "uint256",
          "name": "",
          "type": "uint256"
        }
      ],
      "stateMutability": "view",
      "type": "function"
    },
    {
      "inputs": [],
      "name": "getMiningReward",
      "outputs": [
        {
          "internalType": "uint256",
          "name": "",
          "type": "uint256"
        }
      ],
      "stateMutability": "view",
      "type": "function"
    },
    {
      "inputs": [],
      "name": "getMiningTarget",
      "outputs": [
        {
          "internalType": "uint256",
          "name": "",
          "type": "uint256"
        }
      ],
      "stateMutability": "view",
      "type": "function"
    },
    {
      "inputs": [
        {
          "internalType": "uint256",
          "name": "nonce",
          "type": "uint256"
        },
        {
          "internalType": "bytes32",
          "name": "challenge_digest",
          "type": "bytes32"
        },
        {
          "internalType": "bytes32",
          "name": "challenge_number",
          "type": "bytes32"
        }
      ],
      "name": "getMintDigest",
      "outputs": [
        {
          "internalType": "bytes32",
          "name": "digesttest",
          "type": "bytes32"
        }
      ],
      "stateMutability": "view",
      "type": "function"
    },
    {
      "inputs": [],
      "name": "latestDifficultyPeriodStarted2",
      "outputs": [
        {
          "internalType": "uint256",
          "name": "",
          "type": "uint256"
        }
      ],
      "stateMutability": "view",
      "type": "function"
    },
    {
      "inputs": [],
      "name": "maxSupplyForEra",
      "outputs": [
        {
          "internalType": "uint256",
          "name": "",
          "type": "uint256"
        }
      ],
      "stateMutability": "view",
      "type": "function"
    },
    {
      "inputs": [],
      "name": "miningTarget",
      "outputs": [
        {
          "internalType": "uint256",
          "name": "",
          "type": "uint256"
        }
      ],
      "stateMutability": "view",
      "type": "function"
    },
    {
      "inputs": [
        {
          "internalType": "uint256",
          "name": "nonce",
          "type": "uint256"
        },
        {
          "internalType": "bytes32",
          "name": "challenge_digest",
          "type": "bytes32"
        }
      ],
      "name": "mint",
      "outputs": [
        {
          "internalType": "bool",
          "name": "success",
          "type": "bool"
        }
      ],
      "stateMutability": "nonpayable",
      "type": "function"
    },
    {
      "inputs": [
        {
          "internalType": "uint256",
          "name": "nonce",
          "type": "uint256"
        },
        {
          "internalType": "bytes32",
          "name": "challenge_digest",
          "type": "bytes32"
        },
        {
          "internalType": "address",
          "name": "mintTo",
          "type": "address"
        }
      ],
      "name": "mintTo",
      "outputs": [
        {
          "internalType": "bool",
          "name": "success",
          "type": "bool"
        }
      ],
      "stateMutability": "nonpayable",
      "type": "function"
    },
    {
      "inputs": [
        {
          "internalType": "uint256",
          "name": "nonce",
          "type": "uint256"
        },
        {
          "internalType": "bytes32",
          "name": "challenge_digest",
          "type": "bytes32"
        },
        {
          "internalType": "address[]",
          "name": "ExtraFunds",
          "type": "address[]"
        },
        {
          "internalType": "address[]",
          "name": "MintTo",
          "type": "address[]"
        }
      ],
      "name": "mintTokensArrayTo",
      "outputs": [
        {
          "internalType": "bool",
          "name": "success",
          "type": "bool"
        }
      ],
      "stateMutability": "nonpayable",
      "type": "function"
    },
    {
      "inputs": [
        {
          "internalType": "uint256",
          "name": "nonce",
          "type": "uint256"
        },
        {
          "internalType": "bytes32",
          "name": "challenge_digest",
          "type": "bytes32"
        },
        {
          "internalType": "address[]",
          "name": "ExtraFunds",
          "type": "address[]"
        },
        {
          "internalType": "address",
          "name": "MintTo",
          "type": "address"
        }
      ],
      "name": "mintTokensSameAddress",
      "outputs": [
        {
          "internalType": "bool",
          "name": "success",
          "type": "bool"
        }
      ],
      "stateMutability": "nonpayable",
      "type": "function"
    },
    {
      "inputs": [],
      "name": "name",
      "outputs": [
        {
          "internalType": "string",
          "name": "",
          "type": "string"
        }
      ],
      "stateMutability": "view",
      "type": "function"
    },
    {
      "inputs": [],
      "name": "owner",
      "outputs": [
        {
          "internalType": "address",
          "name": "",
          "type": "address"
        }
      ],
      "stateMutability": "view",
      "type": "function"
    },
    {
      "inputs": [
        {
          "internalType": "address",
          "name": "from",
          "type": "address"
        },
        {
          "internalType": "uint256",
          "name": "tokens",
          "type": "uint256"
        },
        {
          "internalType": "address",
          "name": "token",
          "type": "address"
        },
        {
          "internalType": "bytes",
          "name": "data",
          "type": "bytes"
        }
      ],
      "name": "receiveApproval",
      "outputs": [],
      "stateMutability": "nonpayable",
      "type": "function"
    },
    {
      "inputs": [],
      "name": "rewardEra",
      "outputs": [
        {
          "internalType": "uint256",
          "name": "",
          "type": "uint256"
        }
      ],
      "stateMutability": "view",
      "type": "function"
    },
    {
      "inputs": [],
      "name": "reward_amount",
      "outputs": [
        {
          "internalType": "uint256",
          "name": "",
          "type": "uint256"
        }
      ],
      "stateMutability": "view",
      "type": "function"
    },
    {
      "inputs": [
        {
          "internalType": "bytes32",
          "name": "",
          "type": "bytes32"
        }
      ],
      "name": "solutionForChallenge",
      "outputs": [
        {
          "internalType": "bytes32",
          "name": "",
          "type": "bytes32"
        }
      ],
      "stateMutability": "view",
      "type": "function"
    },
    {
      "inputs": [],
      "name": "symbol",
      "outputs": [
        {
          "internalType": "string",
          "name": "",
          "type": "string"
        }
      ],
      "stateMutability": "view",
      "type": "function"
    },
    {
      "inputs": [],
      "name": "targetTime",
      "outputs": [
        {
          "internalType": "uint256",
          "name": "",
          "type": "uint256"
        }
      ],
      "stateMutability": "view",
      "type": "function"
    },
    {
      "inputs": [],
      "name": "tokensMinted",
      "outputs": [
        {
          "internalType": "uint256",
          "name": "",
          "type": "uint256"
        }
      ],
      "stateMutability": "view",
      "type": "function"
    },
    {
      "inputs": [],
      "name": "totalLifetimes",
      "outputs": [
        {
          "internalType": "uint256",
          "name": "",
          "type": "uint256"
        }
      ],
      "stateMutability": "view",
      "type": "function"
    },
    {
      "inputs": [],
      "name": "totalSupply",
      "outputs": [
        {
          "internalType": "uint256",
          "name": "",
          "type": "uint256"
        }
      ],
      "stateMutability": "view",
      "type": "function"
    },
    {
      "inputs": [
        {
          "internalType": "address",
          "name": "to",
          "type": "address"
        },
        {
          "internalType": "uint256",
          "name": "tokens",
          "type": "uint256"
        }
      ],
      "name": "transfer",
      "outputs": [
        {
          "internalType": "bool",
          "name": "success",
          "type": "bool"
        }
      ],
      "stateMutability": "nonpayable",
      "type": "function"
    },
    {
      "inputs": [
        {
          "internalType": "address",
          "name": "from",
          "type": "address"
        },
        {
          "internalType": "address",
          "name": "to",
          "type": "address"
        },
        {
          "internalType": "uint256",
          "name": "tokens",
          "type": "uint256"
        }
      ],
      "name": "transferFrom",
      "outputs": [
        {
          "internalType": "bool",
          "name": "success",
          "type": "bool"
        }
      ],
      "stateMutability": "nonpayable",
      "type": "function"
    },
    {
      "inputs": [],
      "name": "zFIRST",
      "outputs": [],
      "stateMutability": "nonpayable",
      "type": "function"
    },
    {
      "inputs": [
        {
          "internalType": "address",
          "name": "AuctionAddress2",
          "type": "address"
        },
        {
          "internalType": "address",
          "name": "LPGuild2",
          "type": "address"
        },
        {
          "internalType": "address",
          "name": "_ZeroXBTCAddress",
          "type": "address"
        }
      ],
      "name": "zinit",
      "outputs": [],
      "stateMutability": "nonpayable",
      "type": "function"
    }
  ],
  "bytecode": "60806040526a22bdd89dce55b0116400006004556a115eec47f6cf7e3500000060055542600655600060075561010060085562010000600955600160ea1b600a556200006265048c27395000600a54620001cf60201b620018541790919060201c565b600b556000600d55620000a3600d5460016200007f9190620002e2565b6200008c906002620003fa565b600554620001cf60201b620018541790919060201c565b600554620000b2919062000408565b600e55620000f9600d546002620000ca9190620003fa565b620000d86012600a620003fa565b620000e590609662000422565b620001cf60201b620018541790919060201c565b600f556000601081905542601155670de0b6b3a76400006012556305f5e100601355622dc6c0601455600a601555601c556001601d5560408051808201909152600580825264466f72676560d81b60209092019182526200015d91601e9162000226565b506000601f556020805460ff191690553480156200017a57600080fd5b50600080546001600160a01b0319163390811782556040805192835260208301919091527f5c486528ec3e3f0ea91181cff8116f02bfa350e03b8b6f12e00765adbb5af85c910160405180910390a1620004a4565b600081620002115760405162461bcd60e51b815260206004820152600b60248201526a446976206279207a65726f60a81b604482015260640160405180910390fd5b6200021d828462000444565b90505b92915050565b828054620002349062000467565b90600052602060002090601f016020900481019282620002585760008555620002a3565b82601f106200027357805160ff1916838001178555620002a3565b82800160010185558215620002a3579182015b82811115620002a357825182559160200191906001019062000286565b50620002b1929150620002b5565b5090565b5b80821115620002b15760008155600101620002b6565b634e487b7160e01b600052601160045260246000fd5b60008219821115620002f857620002f8620002cc565b500190565b600181815b808511156200033e578160001904821115620003225762000322620002cc565b808516156200033057918102915b93841c939080029062000302565b509250929050565b600082620003575750600162000220565b81620003665750600062000220565b81600181146200037f57600281146200038a57620003aa565b600191505062000220565b60ff8411156200039e576200039e620002cc565b50506001821b62000220565b5060208310610133831016604e8410600b8410161715620003cf575081810a62000220565b620003db8383620002fd565b8060001904821115620003f257620003f2620002cc565b029392505050565b60006200021d838362000346565b6000828210156200041d576200041d620002cc565b500390565b60008160001904831182151516156200043f576200043f620002cc565b500290565b6000826200046257634e487b7160e01b600052601260045260246000fd5b500490565b600181811c908216806200047c57607f821691505b602082108114156200049e57634e487b7160e01b600052602260045260246000fd5b50919050565b6124a380620004b46000396000f3fe608060405234801561001057600080fd5b50600436106102955760003560e01c8063757991a81161016757806397566aa0116100ce578063c8a1465c11610087578063c8a1465c1461056c578063d0856d161461057f578063dc6e9cf914610587578063dd62ed3e14610590578063ddfbd8dd146105c9578063e932012b146105dc57600080fd5b806397566aa01461050c578063a68eb88e1461051f578063a70a8d2314610528578063a9059cbb14610548578063b5ade81b1461055b578063c0abebe01461056457600080fd5b80638ae0368b116101205780638ae0368b146104885780638da5cb5b146104915780638f4ffcb1146104a457806390dc1ca3146104b757806394b939ef146104d757806395d89b41146104ea57600080fd5b8063757991a81461044957806381269a5614610451578063829965cc1461046457806387a2a9d61461046d5780638a5550f6146104765780638a769d351461047f57600080fd5b80632f104e0c1161020b5780634fa972e1116101c45780634fa972e1146103c8578063510de094146103d157806364e46726146103e4578063669753a7146103f75780636de9f32b1461041757806370a082311461042057600080fd5b80632f104e0c14610362578063313ce5671461038d57806332e99708146103a757806345d8a232146103af578063490203a7146103b85780634ef37628146103c057600080fd5b80631801fbe51161025d5780631801fbe51461030e57806318160ddd146103215780631fccb33c1461032a5780632381a60e1461033d57806323b872dd146103465780632d38bf7a1461035957600080fd5b806306fdde031461029a578063095ea7b3146102b85780630d56d6e1146102db57806311b1225f146102ee57806317da485f146102f8575b600080fd5b6102a26105e5565b6040516102af9190611cfe565b60405180910390f35b6102cb6102c6366004611d6f565b610673565b60405190151581526020016102af565b6102cb6102e9366004611daa565b6106e0565b6102f66108e0565b005b61030061097e565b6040519081526020016102af565b6102cb61031c366004611de3565b61099c565b61030060045481565b6102cb610338366004611ed3565b6109b0565b610300600f5481565b6102cb610354366004611f34565b610a75565b610300600d5481565b600254610375906001600160a01b031681565b6040516001600160a01b0390911681526020016102af565b610395601281565b60405160ff90911681526020016102af565b600b54610300565b61030061087081565b610300610b61565b600c54610300565b610300600e5481565b600354610375906001600160a01b031681565b6102f66103f2366004611f70565b610b8c565b610300610405366004611fb3565b60176020526000908152604090205481565b61030060195481565b61030061042e366004611fcc565b6001600160a01b03166000908152601a602052604090205490565b600754610300565b6102cb61045f366004611fe7565b610d0f565b61030060075481565b610300600a5481565b610300601f5481565b610300600b5481565b610300600c5481565b600054610375906001600160a01b031681565b6102f66104b2366004612019565b610d5a565b6103006104c5366004611fb3565b60186020526000908152604090205481565b600154610375906001600160a01b031681565b6102a26040518060400160405280600381526020016246676560e81b81525081565b61030061051a3660046120d9565b610de7565b61030060145481565b610300610536366004611fb3565b60166020526000908152604090205481565b6102cb610556366004611d6f565b610e22565b61030060085481565b601954610300565b6102cb61057a366004612105565b610ea7565b6102f66113c9565b61030060095481565b61030061059e36600461217c565b6001600160a01b039182166000908152601b6020908152604080832093909416825291909152205490565b6102cb6105d73660046121af565b611556565b61030060065481565b601e80546105f2906121db565b80601f016020809104026020016040519081016040528092919081815260200182805461061e906121db565b801561066b5780601f106106405761010080835404028352916020019161066b565b820191906000526020600020905b81548152906001019060200180831161064e57829003601f168201915b505050505081565b336000818152601b602090815260408083206001600160a01b038716808552925280832085905551919290917f8c5be1e5ebec7d5bd14f71427d1e84f3dd0314c0f7b2291e5b200ac8c7c3b925906106ce9086815260200190565b60405180910390a35060015b92915050565b60006106ea6118a2565b6000601154426106fa919061222c565b90506004610870821115610749575060045b600a8110156107495761072c600361072683610870612243565b90611854565b821161073757610749565b8061074181612262565b91505061070c565b600061075e6004600f54846107269190612243565b336000908152601a602052604090205490915061077b9082611a54565b336000908152601a60205260409020556107ba610799826002611854565b6002546001600160a01b03166000908152601a602052604090205490611a54565b6002546001600160a01b03166000908152601a60205260409020556019546107e29082611a54565b60195542601155601c541561088957600354601c546014546001600160a01b039092169163a9059cbb9133916108189190612243565b6040516001600160e01b031960e085901b1681526001600160a01b03909216600483015260248201526044016020604051808303816000875af1158015610863573d6000803e3d6000fd5b505050506040513d601f19601f82011682018060405250810190610887919061227d565b505b600f54600754600c546040805193845260208401929092529082015233907fcf6fbb9dcea7d07263ab4f5c3a92f53af33dffc421d9d121e1c74b307e68189d9060600160405180910390a250600195945050505050565b6000546001600160a01b0316331461092c5760405162461bcd60e51b815260206004820152600a60248201526937b7363c9037bbb732b960b11b60448201526064015b60405180910390fd5b60205460ff161561093f5761093f61229a565b336000818152601a60209081526040808320670de0b6b3a764000090819055905190815260008051602061244e833981519152910160405180910390a3565b6000610997600b54600a5461185490919063ffffffff16565b905090565b60006109a9838333611556565b5092915050565b600080835160016109c191906122b0565b67ffffffffffffffff8111156109d9576109d9611e05565b604051908082528060200260200182016040528015610a02578160200160208202803683370190505b5090506000805b8551610a169060016122b0565b811015610a5a5784838281518110610a3057610a306122c8565b6001600160a01b039092166020928302919091019091015280610a5281612262565b915050610a09565b50610a6787878785610ea7565b506001979650505050505050565b6001600160a01b0383166000908152601a6020526040812054610a989083611aa2565b6001600160a01b0385166000908152601a6020908152604080832093909355601b815282822033835290522054610acf9083611aa2565b6001600160a01b038086166000908152601b602090815260408083203384528252808320949094559186168152601a9091522054610b0d9083611a54565b6001600160a01b038085166000818152601a6020526040908190209390935591519086169060008051602061244e83398151915290610b4f9086815260200190565b60405180910390a35060019392505050565b6000610997600d546002610b7591906123c2565b610b816012600a6123c2565b610726906096612243565b6000546001600160a01b03163314610bd35760405162461bcd60e51b815260206004820152600a60248201526937b7363c9037bbb732b960b11b6044820152606401610923565b6000601f546002610be491906123c2565b610bef906002612243565b610c04906a115eec47f6cf7e350000006123e4565b60205490915060ff1615610c1a57610c1a61229a565b6020805460ff191660011790556000600d819055601955600a54610c40906103e9611854565b600b55610c4b6118a2565b6001600160a01b0384166000818152601a602090815260408083208590555184815260008051602061244e833981519152910160405180910390a3600180546001600160a01b038087166001600160a01b031992831617909255600280548684169083161790556003805492851692909116919091179055600754601055336000818152601a60205260408082206305f5e10090819055905160008051602061244e83398151915291610d019190815260200190565b60405180910390a350505050565b600080833387604051602001610d27939291906123f8565b604051602081830303815290604052805190602001209050828160001c1115610d4f57600080fd5b909314949350505050565b6001600160a01b0382163014610d6f57600080fd5b60405163a9059cbb60e01b81526001600160a01b038516600482015260248101849052309063a9059cbb906044016020604051808303816000875af1158015610dbc573d6000803e3d6000fd5b505050506040513d601f19601f82011682018060405250810190610de0919061227d565b5050505050565b600080600c543386604051602001610e01939291906123f8565b60408051808303601f19018152919052805160209091012095945050505050565b336000908152601a6020526040812054610e3c9083611aa2565b336000908152601a6020526040808220929092556001600160a01b03851681522054610e689083611a54565b6001600160a01b0384166000818152601a602052604090819020929092559051339060008051602061244e833981519152906106ce9086815260200190565b6011546000906004908290610ebc904261222c565b9050610870811115610f0457600491505b600a821015610f0457610ee7600361072684610870612243565b8111610ef257610f04565b81610efc81612262565b925050610ecd565b8451610f119060016122b0565b845114610f865760405162461bcd60e51b815260206004820152603d60248201527f536f204d696e74546f2068617320746f20686176652073616d65206e756d626560448201527f72206f66206164647265737373657320617320457874726146756e64730000006064820152608401610923565b60005b855181101561111a57306001600160a01b0316868281518110610fae57610fae6122c8565b60200260200101516001600160a01b031614158015610fff575060035486516001600160a01b0390911690879083908110610feb57610feb6122c8565b60200260200101516001600160a01b031614155b61104b5760405162461bcd60e51b815260206004820152601a60248201527f4e6f2062617365207072696e74696e67206f6620746f6b656e730000000000006044820152606401610923565b60015b865181101561110757868281518110611069576110696122c8565b60200260200101516001600160a01b031687828151811061108c5761108c6122c8565b60200260200101516001600160a01b03161415806110a957508082145b6110f55760405162461bcd60e51b815260206004820152601b60248201527f4e6f207072696e74696e67205468652073616d6520746f6b656e7300000000006044820152606401610923565b806110ff81612262565b91505061104e565b508061111281612262565b915050610f89565b50611140878786600081518110611133576111336122c8565b6020026020010151611556565b6111795760405162461bcd60e51b815260206004820152600a6024820152696d696e7420697373756560b01b6044820152606401610923565b6000805b8651811015611368576111918160016122b0565b61119c9060026123c2565b6007546111a99190612420565b6113565760008782815181106111c1576111c16122c8565b60209081029190910101516040516370a0823160e01b81523060048201526001600160a01b03909116906370a0823190602401602060405180830381865afa158015611211573d6000803e3d6000fd5b505050506040513d601f19601f820116820180604052508101906112359190612434565b90508015611351576000600361124c8460016122b0565b6112569190612420565b15801561126257508215155b156112845761127d6127106112778885612243565b90611aee565b9050611297565b6112946127106107268885612243565b90505b8883815181106112a9576112a96122c8565b60200260200101516001600160a01b031663a9059cbb8985815181106112d1576112d16122c8565b6020026020010151836040518363ffffffff1660e01b815260040161130b9291906001600160a01b03929092168252602082015260400190565b6020604051808303816000875af115801561132a573d6000803e3d6000fd5b505050506040513d601f19601f8201168201806040525081019061134e919061227d565b50505b819250505b8061136081612262565b91505061117d565b50600f54600754600c54604080519384526020840192909252908201526060810182905233907f8d1274a08a1f38c385cc00828b937d1a29d4ce3a901ede97b42639d0c19ae2ae9060800160405180910390a2506001979650505050505050565b60006010546007546113db919061222c565b90506113ef600d546002610b7591906123c2565b600f5560085460145460049161140491612243565b61140f906006612243565b61141991906123e4565b6003546040516370a0823160e01b81523060048201526001600160a01b03909116906370a0823190602401602060405180830381865afa158015611461573d6000803e3d6000fd5b505050506040513d601f19601f820116820180604052508101906114859190612434565b111561154757601d54611499906001612243565b601c8190556003546002546014546001600160a01b039283169363a9059cbb9390921691906114c89086612243565b6114d29190612243565b6040516001600160e01b031960e085901b1681526001600160a01b03909216600483015260248201526044016020604051808303816000875af115801561151d573d6000803e3d6000fd5b505050506040513d601f19601f82011682018060405250810190611541919061227d565b5061154d565b6000601c555b50600754601055565b600061156f600f54601954611a5490919063ffffffff16565b506000600c543386604051602001611589939291906123f8565b6040516020818303038152906040528051906020012090508381146116075760405162461bcd60e51b815260206004820152602e60248201527f4f6c64206368616c6c656e67655f646967657374206f722077726f6e6720636860448201526d185b1b195b99d957d91a59d95cdd60921b6064820152608401610923565b600b5481106116695760405162461bcd60e51b815260206004820152602860248201527f446967657374206d75737420626520736d616c6c6572207468616e206d696e696044820152671b99d5185c99d95d60c21b6064820152608401610923565b6116716118a2565b600060115442611681919061222c565b905060046108708211156116ca575060045b600a8110156116ca576116ad600361072683610870612243565b82116116b8576116ca565b806116c281612262565b915050611693565b60006116df6004600f54846107269190612243565b6001600160a01b0387166000908152601a60205260409020549091506117059082611a54565b6001600160a01b0387166000908152601a602052604090205561172c610799826002611854565b6002546001600160a01b03166000908152601a60205260409020556019546117549082611a54565b60195542601155601c54156117fb57600354601c546014546001600160a01b039092169163a9059cbb91899161178a9190612243565b6040516001600160e01b031960e085901b1681526001600160a01b03909216600483015260248201526044016020604051808303816000875af11580156117d5573d6000803e3d6000fd5b505050506040513d601f19601f820116820180604052508101906117f9919061227d565b505b600f54600754600c546040805193845260208401929092529082015233907fcf6fbb9dcea7d07263ab4f5c3a92f53af33dffc421d9d121e1c74b307e68189d9060600160405180910390a2506001979650505050505050565b6000816118915760405162461bcd60e51b815260206004820152600b60248201526a446976206279207a65726f60a81b6044820152606401610923565b61189b82846123e4565b9392505050565b600e54600f546019546118b491611a54565b1180156118c357506027600d54105b156118f757600d546118d69060016122b0565b600d8190556118f3906118ea9060026123c2565b600b5490611854565b600b555b600754611905906001611a54565b600755600854611917906004906123e4565b6007546119249190612420565b611a43576119306113c9565b611956600d54600161194291906122b0565b61194d9060026123c2565b60055490611854565b600554611963919061222c565b600e556008546007546119769190612420565b611a43576014546003546040516370a0823160e01b815230600482015261271092916001600160a01b0316906370a0823190602401602060405180830381865afa1580156119c8573d6000803e3d6000fd5b505050506040513d601f19601f820116820180604052508101906119ec9190612434565b6119f691906123e4565b11611a2957601554601454611a0c906002611854565b1115611a2457601454611a20906002611854565b6014555b611a3b565b601454611a37906003611b5b565b6014555b611a43611bc0565b611a4e60014361222c565b40600c55565b600080611a6183856122b0565b90508381101561189b5760405162461bcd60e51b815260206004820152600c60248201526b416464206f766572666c6f7760a01b6044820152606401610923565b600081831015611ae45760405162461bcd60e51b815260206004820152600d60248201526c53756220756e646572666c6f7760981b6044820152606401610923565b61189b828461222c565b600081611b2b5760405162461bcd60e51b815260206004820152600b60248201526a446976206279207a65726f60a81b6044820152606401610923565b6000611b3783856123e4565b9050611b438385612420565b1561189b57611b538160016122b0565b949350505050565b600082611b6a575060006106da565b6000611b768385612243565b905082611b8385836123e4565b1461189b5760405162461bcd60e51b815260206004820152600d60248201526c4d756c74206f766572666c6f7760981b6044820152606401610923565b6006544290600090611bd2908361222c565b6008549091506000611be682610870612243565b905080831015611c5b576000611c0184610726846064611b5b565b6001601d5590506000611c216103e8611c1b846064611aa2565b90611ce6565b9050611c50611c4782611c416107d0600b5461185490919063ffffffff16565b90611b5b565b600b5490611aa2565b600b5550611cb59050565b6000611c6c82610726866064611b5b565b6002601d5590506000611c866103e8611c1b846064611aa2565b9050611caf611ca682611c416107d0600b5461185490919063ffffffff16565b600b5490611a54565b600b5550505b6006849055600954600b541015611ccd57600954600b555b600a54600b541115611ce057600a54600b555b50505050565b600081831115611cf75750806106da565b5090919050565b600060208083528351808285015260005b81811015611d2b57858101830151858201604001528201611d0f565b81811115611d3d576000604083870101525b50601f01601f1916929092016040019392505050565b80356001600160a01b0381168114611d6a57600080fd5b919050565b60008060408385031215611d8257600080fd5b611d8b83611d53565b946020939093013593505050565b8015158114611da757600080fd5b50565b60008060408385031215611dbd57600080fd5b8235611dc881611d99565b91506020830135611dd881611d99565b809150509250929050565b60008060408385031215611df657600080fd5b50508035926020909101359150565b634e487b7160e01b600052604160045260246000fd5b604051601f8201601f1916810167ffffffffffffffff81118282101715611e4457611e44611e05565b604052919050565b600082601f830112611e5d57600080fd5b8135602067ffffffffffffffff821115611e7957611e79611e05565b8160051b611e88828201611e1b565b9283528481018201928281019087851115611ea257600080fd5b83870192505b84831015611ec857611eb983611d53565b82529183019190830190611ea8565b979650505050505050565b60008060008060808587031215611ee957600080fd5b8435935060208501359250604085013567ffffffffffffffff811115611f0e57600080fd5b611f1a87828801611e4c565b925050611f2960608601611d53565b905092959194509250565b600080600060608486031215611f4957600080fd5b611f5284611d53565b9250611f6060208501611d53565b9150604084013590509250925092565b600080600060608486031215611f8557600080fd5b611f8e84611d53565b9250611f9c60208501611d53565b9150611faa60408501611d53565b90509250925092565b600060208284031215611fc557600080fd5b5035919050565b600060208284031215611fde57600080fd5b61189b82611d53565b60008060008060808587031215611ffd57600080fd5b5050823594602084013594506040840135936060013592509050565b6000806000806080858703121561202f57600080fd5b61203885611d53565b9350602080860135935061204e60408701611d53565b9250606086013567ffffffffffffffff8082111561206b57600080fd5b818801915088601f83011261207f57600080fd5b81358181111561209157612091611e05565b6120a3601f8201601f19168501611e1b565b915080825289848285010111156120b957600080fd5b808484018584013760008482840101525080935050505092959194509250565b6000806000606084860312156120ee57600080fd5b505081359360208301359350604090920135919050565b6000806000806080858703121561211b57600080fd5b8435935060208501359250604085013567ffffffffffffffff8082111561214157600080fd5b61214d88838901611e4c565b9350606087013591508082111561216357600080fd5b5061217087828801611e4c565b91505092959194509250565b6000806040838503121561218f57600080fd5b61219883611d53565b91506121a660208401611d53565b90509250929050565b6000806000606084860312156121c457600080fd5b8335925060208401359150611faa60408501611d53565b600181811c908216806121ef57607f821691505b6020821081141561221057634e487b7160e01b600052602260045260246000fd5b50919050565b634e487b7160e01b600052601160045260246000fd5b60008282101561223e5761223e612216565b500390565b600081600019048311821515161561225d5761225d612216565b500290565b600060001982141561227657612276612216565b5060010190565b60006020828403121561228f57600080fd5b815161189b81611d99565b634e487b7160e01b600052600160045260246000fd5b600082198211156122c3576122c3612216565b500190565b634e487b7160e01b600052603260045260246000fd5b600181815b808511156123195781600019048211156122ff576122ff612216565b8085161561230c57918102915b93841c93908002906122e3565b509250929050565b600082612330575060016106da565b8161233d575060006106da565b8160018114612353576002811461235d57612379565b60019150506106da565b60ff84111561236e5761236e612216565b50506001821b6106da565b5060208310610133831016604e8410600b841016171561239c575081810a6106da565b6123a683836122de565b80600019048211156123ba576123ba612216565b029392505050565b600061189b8383612321565b634e487b7160e01b600052601260045260246000fd5b6000826123f3576123f36123ce565b500490565b92835260609190911b6bffffffffffffffffffffffff19166020830152603482015260540190565b60008261242f5761242f6123ce565b500690565b60006020828403121561244657600080fd5b505191905056feddf252ad1be2c89b69c2b068fc378daa952ba7f163c4a11628f55a4df523b3efa2646970667358221220fd0c36359e2de55b59d42f2f00426e70a0971f66b56ea67bf7b4d63560d213d064736f6c634300080b0033",
  "bytecodeSha1": "09cda96e2421b11fbf44228cc286e7f383d3b74b",
  "compiler": {
    "evm_version": "istanbul",
    "optimizer": {
      "enabled": true,
      "runs": 200
    },
    "version": "0.8.11+commit.d7f03943"
  },
  "contractName": "ForgeMining",
  "language": "Solidity",
  "natspec": {
    "kind": "dev",
    "methods": {},
    "version": 1
  },
  "opcodes": "PUSH1 0x80 PUSH1 0x40 MSTORE CALLVALUE DUP1 ISZERO PUSH2 0x10 JUMPI PUSH1 0x0 DUP1 REVERT JUMPDEST POP PUSH1 0x4 CALLDATASIZE LT PUSH2 0x295 JUMPI PUSH1 0x0 CALLDATALOAD PUSH1 0xE0 SHR DUP1 PUSH4 0x757991A8 GT PUSH2 0x167 JUMPI DUP1 PUSH4 0x97566AA0 GT PUSH2 0xCE JUMPI DUP1 PUSH4 0xC8A1465C GT PUSH2 0x87 JUMPI DUP1 PUSH4 0xC8A1465C EQ PUSH2 0x56C JUMPI DUP1 PUSH4 0xD0856D16 EQ PUSH2 0x57F JUMPI DUP1 PUSH4 0xDC6E9CF9 EQ PUSH2 0x587 JUMPI DUP1 PUSH4 0xDD62ED3E EQ PUSH2 0x590 JUMPI DUP1 PUSH4 0xDDFBD8DD EQ PUSH2 0x5C9 JUMPI DUP1 PUSH4 0xE932012B EQ PUSH2 0x5DC JUMPI PUSH1 0x0 DUP1 REVERT JUMPDEST DUP1 PUSH4 0x97566AA0 EQ PUSH2 0x50C JUMPI DUP1 PUSH4 0xA68EB88E EQ PUSH2 0x51F JUMPI DUP1 PUSH4 0xA70A8D23 EQ PUSH2 0x528 JUMPI DUP1 PUSH4 0xA9059CBB EQ PUSH2 0x548 JUMPI DUP1 PUSH4 0xB5ADE81B EQ PUSH2 0x55B JUMPI DUP1 PUSH4 0xC0ABEBE0 EQ PUSH2 0x564 JUMPI PUSH1 0x0 DUP1 REVERT JUMPDEST DUP1 PUSH4 0x8AE0368B GT PUSH2 0x120 JUMPI DUP1 PUSH4 0x8AE0368B EQ PUSH2 0x488 JUMPI DUP1 PUSH4 0x8DA5CB5B EQ PUSH2 0x491 JUMPI DUP1 PUSH4 0x8F4FFCB1 EQ PUSH2 0x4A4 JUMPI DUP1 PUSH4 0x90DC1CA3 EQ PUSH2 0x4B7 JUMPI DUP1 PUSH4 0x94B939EF EQ PUSH2 0x4D7 JUMPI DUP1 PUSH4 0x95D89B41 EQ PUSH2 0x4EA JUMPI PUSH1 0x0 DUP1 REVERT JUMPDEST DUP1 PUSH4 0x757991A8 EQ PUSH2 0x449 JUMPI DUP1 PUSH4 0x81269A56 EQ PUSH2 0x451 JUMPI DUP1 PUSH4 0x829965CC EQ PUSH2 0x464 JUMPI DUP1 PUSH4 0x87A2A9D6 EQ PUSH2 0x46D JUMPI DUP1 PUSH4 0x8A5550F6 EQ PUSH2 0x476 JUMPI DUP1 PUSH4 0x8A769D35 EQ PUSH2 0x47F JUMPI PUSH1 0x0 DUP1 REVERT JUMPDEST DUP1 PUSH4 0x2F104E0C GT PUSH2 0x20B JUMPI DUP1 PUSH4 0x4FA972E1 GT PUSH2 0x1C4 JUMPI DUP1 PUSH4 0x4FA972E1 EQ PUSH2 0x3C8 JUMPI DUP1 PUSH4 0x510DE094 EQ PUSH2 0x3D1 JUMPI DUP1 PUSH4 0x64E46726 EQ PUSH2 0x3E4 JUMPI DUP1 PUSH4 0x669753A7 EQ PUSH2 0x3F7 JUMPI DUP1 PUSH4 0x6DE9F32B EQ PUSH2 0x417 JUMPI DUP1 PUSH4 0x70A08231 EQ PUSH2 0x420 JUMPI PUSH1 0x0 DUP1 REVERT JUMPDEST DUP1 PUSH4 0x2F104E0C EQ PUSH2 0x362 JUMPI DUP1 PUSH4 0x313CE567 EQ PUSH2 0x38D JUMPI DUP1 PUSH4 0x32E99708 EQ PUSH2 0x3A7 JUMPI DUP1 PUSH4 0x45D8A232 EQ PUSH2 0x3AF JUMPI DUP1 PUSH4 0x490203A7 EQ PUSH2 0x3B8 JUMPI DUP1 PUSH4 0x4EF37628 EQ PUSH2 0x3C0 JUMPI PUSH1 0x0 DUP1 REVERT JUMPDEST DUP1 PUSH4 0x1801FBE5 GT PUSH2 0x25D JUMPI DUP1 PUSH4 0x1801FBE5 EQ PUSH2 0x30E JUMPI DUP1 PUSH4 0x18160DDD EQ PUSH2 0x321 JUMPI DUP1 PUSH4 0x1FCCB33C EQ PUSH2 0x32A JUMPI DUP1 PUSH4 0x2381A60E EQ PUSH2 0x33D JUMPI DUP1 PUSH4 0x23B872DD EQ PUSH2 0x346 JUMPI DUP1 PUSH4 0x2D38BF7A EQ PUSH2 0x359 JUMPI PUSH1 0x0 DUP1 REVERT JUMPDEST DUP1 PUSH4 0x6FDDE03 EQ PUSH2 0x29A JUMPI DUP1 PUSH4 0x95EA7B3 EQ PUSH2 0x2B8 JUMPI DUP1 PUSH4 0xD56D6E1 EQ PUSH2 0x2DB JUMPI DUP1 PUSH4 0x11B1225F EQ PUSH2 0x2EE JUMPI DUP1 PUSH4 0x17DA485F EQ PUSH2 0x2F8 JUMPI JUMPDEST PUSH1 0x0 DUP1 REVERT JUMPDEST PUSH2 0x2A2 PUSH2 0x5E5 JUMP JUMPDEST PUSH1 0x40 MLOAD PUSH2 0x2AF SWAP2 SWAP1 PUSH2 0x1CFE JUMP JUMPDEST PUSH1 0x40 MLOAD DUP1 SWAP2 SUB SWAP1 RETURN JUMPDEST PUSH2 0x2CB PUSH2 0x2C6 CALLDATASIZE PUSH1 0x4 PUSH2 0x1D6F JUMP JUMPDEST PUSH2 0x673 JUMP JUMPDEST PUSH1 0x40 MLOAD SWAP1 ISZERO ISZERO DUP2 MSTORE PUSH1 0x20 ADD PUSH2 0x2AF JUMP JUMPDEST PUSH2 0x2CB PUSH2 0x2E9 CALLDATASIZE PUSH1 0x4 PUSH2 0x1DAA JUMP JUMPDEST PUSH2 0x6E0 JUMP JUMPDEST PUSH2 0x2F6 PUSH2 0x8E0 JUMP JUMPDEST STOP JUMPDEST PUSH2 0x300 PUSH2 0x97E JUMP JUMPDEST PUSH1 0x40 MLOAD SWAP1 DUP2 MSTORE PUSH1 0x20 ADD PUSH2 0x2AF JUMP JUMPDEST PUSH2 0x2CB PUSH2 0x31C CALLDATASIZE PUSH1 0x4 PUSH2 0x1DE3 JUMP JUMPDEST PUSH2 0x99C JUMP JUMPDEST PUSH2 0x300 PUSH1 0x4 SLOAD DUP2 JUMP JUMPDEST PUSH2 0x2CB PUSH2 0x338 CALLDATASIZE PUSH1 0x4 PUSH2 0x1ED3 JUMP JUMPDEST PUSH2 0x9B0 JUMP JUMPDEST PUSH2 0x300 PUSH1 0xF SLOAD DUP2 JUMP JUMPDEST PUSH2 0x2CB PUSH2 0x354 CALLDATASIZE PUSH1 0x4 PUSH2 0x1F34 JUMP JUMPDEST PUSH2 0xA75 JUMP JUMPDEST PUSH2 0x300 PUSH1 0xD SLOAD DUP2 JUMP JUMPDEST PUSH1 0x2 SLOAD PUSH2 0x375 SWAP1 PUSH1 0x1 PUSH1 0x1 PUSH1 0xA0 SHL SUB AND DUP2 JUMP JUMPDEST PUSH1 0x40 MLOAD PUSH1 0x1 PUSH1 0x1 PUSH1 0xA0 SHL SUB SWAP1 SWAP2 AND DUP2 MSTORE PUSH1 0x20 ADD PUSH2 0x2AF JUMP JUMPDEST PUSH2 0x395 PUSH1 0x12 DUP2 JUMP JUMPDEST PUSH1 0x40 MLOAD PUSH1 0xFF SWAP1 SWAP2 AND DUP2 MSTORE PUSH1 0x20 ADD PUSH2 0x2AF JUMP JUMPDEST PUSH1 0xB SLOAD PUSH2 0x300 JUMP JUMPDEST PUSH2 0x300 PUSH2 0x870 DUP2 JUMP JUMPDEST PUSH2 0x300 PUSH2 0xB61 JUMP JUMPDEST PUSH1 0xC SLOAD PUSH2 0x300 JUMP JUMPDEST PUSH2 0x300 PUSH1 0xE SLOAD DUP2 JUMP JUMPDEST PUSH1 0x3 SLOAD PUSH2 0x375 SWAP1 PUSH1 0x1 PUSH1 0x1 PUSH1 0xA0 SHL SUB AND DUP2 JUMP JUMPDEST PUSH2 0x2F6 PUSH2 0x3F2 CALLDATASIZE PUSH1 0x4 PUSH2 0x1F70 JUMP JUMPDEST PUSH2 0xB8C JUMP JUMPDEST PUSH2 0x300 PUSH2 0x405 CALLDATASIZE PUSH1 0x4 PUSH2 0x1FB3 JUMP JUMPDEST PUSH1 0x17 PUSH1 0x20 MSTORE PUSH1 0x0 SWAP1 DUP2 MSTORE PUSH1 0x40 SWAP1 KECCAK256 SLOAD DUP2 JUMP JUMPDEST PUSH2 0x300 PUSH1 0x19 SLOAD DUP2 JUMP JUMPDEST PUSH2 0x300 PUSH2 0x42E CALLDATASIZE PUSH1 0x4 PUSH2 0x1FCC JUMP JUMPDEST PUSH1 0x1 PUSH1 0x1 PUSH1 0xA0 SHL SUB AND PUSH1 0x0 SWAP1 DUP2 MSTORE PUSH1 0x1A PUSH1 0x20 MSTORE PUSH1 0x40 SWAP1 KECCAK256 SLOAD SWAP1 JUMP JUMPDEST PUSH1 0x7 SLOAD PUSH2 0x300 JUMP JUMPDEST PUSH2 0x2CB PUSH2 0x45F CALLDATASIZE PUSH1 0x4 PUSH2 0x1FE7 JUMP JUMPDEST PUSH2 0xD0F JUMP JUMPDEST PUSH2 0x300 PUSH1 0x7 SLOAD DUP2 JUMP JUMPDEST PUSH2 0x300 PUSH1 0xA SLOAD DUP2 JUMP JUMPDEST PUSH2 0x300 PUSH1 0x1F SLOAD DUP2 JUMP JUMPDEST PUSH2 0x300 PUSH1 0xB SLOAD DUP2 JUMP JUMPDEST PUSH2 0x300 PUSH1 0xC SLOAD DUP2 JUMP JUMPDEST PUSH1 0x0 SLOAD PUSH2 0x375 SWAP1 PUSH1 0x1 PUSH1 0x1 PUSH1 0xA0 SHL SUB AND DUP2 JUMP JUMPDEST PUSH2 0x2F6 PUSH2 0x4B2 CALLDATASIZE PUSH1 0x4 PUSH2 0x2019 JUMP JUMPDEST PUSH2 0xD5A JUMP JUMPDEST PUSH2 0x300 PUSH2 0x4C5 CALLDATASIZE PUSH1 0x4 PUSH2 0x1FB3 JUMP JUMPDEST PUSH1 0x18 PUSH1 0x20 MSTORE PUSH1 0x0 SWAP1 DUP2 MSTORE PUSH1 0x40 SWAP1 KECCAK256 SLOAD DUP2 JUMP JUMPDEST PUSH1 0x1 SLOAD PUSH2 0x375 SWAP1 PUSH1 0x1 PUSH1 0x1 PUSH1 0xA0 SHL SUB AND DUP2 JUMP JUMPDEST PUSH2 0x2A2 PUSH1 0x40 MLOAD DUP1 PUSH1 0x40 ADD PUSH1 0x40 MSTORE DUP1 PUSH1 0x3 DUP2 MSTORE PUSH1 0x20 ADD PUSH3 0x466765 PUSH1 0xE8 SHL DUP2 MSTORE POP DUP2 JUMP JUMPDEST PUSH2 0x300 PUSH2 0x51A CALLDATASIZE PUSH1 0x4 PUSH2 0x20D9 JUMP JUMPDEST PUSH2 0xDE7 JUMP JUMPDEST PUSH2 0x300 PUSH1 0x14 SLOAD DUP2 JUMP JUMPDEST PUSH2 0x300 PUSH2 0x536 CALLDATASIZE PUSH1 0x4 PUSH2 0x1FB3 JUMP JUMPDEST PUSH1 0x16 PUSH1 0x20 MSTORE PUSH1 0x0 SWAP1 DUP2 MSTORE PUSH1 0x40 SWAP1 KECCAK256 SLOAD DUP2 JUMP JUMPDEST PUSH2 0x2CB PUSH2 0x556 CALLDATASIZE PUSH1 0x4 PUSH2 0x1D6F JUMP JUMPDEST PUSH2 0xE22 JUMP JUMPDEST PUSH2 0x300 PUSH1 0x8 SLOAD DUP2 JUMP JUMPDEST PUSH1 0x19 SLOAD PUSH2 0x300 JUMP JUMPDEST PUSH2 0x2CB PUSH2 0x57A CALLDATASIZE PUSH1 0x4 PUSH2 0x2105 JUMP JUMPDEST PUSH2 0xEA7 JUMP JUMPDEST PUSH2 0x2F6 PUSH2 0x13C9 JUMP JUMPDEST PUSH2 0x300 PUSH1 0x9 SLOAD DUP2 JUMP JUMPDEST PUSH2 0x300 PUSH2 0x59E CALLDATASIZE PUSH1 0x4 PUSH2 0x217C JUMP JUMPDEST PUSH1 0x1 PUSH1 0x1 PUSH1 0xA0 SHL SUB SWAP2 DUP3 AND PUSH1 0x0 SWAP1 DUP2 MSTORE PUSH1 0x1B PUSH1 0x20 SWAP1 DUP2 MSTORE PUSH1 0x40 DUP1 DUP4 KECCAK256 SWAP4 SWAP1 SWAP5 AND DUP3 MSTORE SWAP2 SWAP1 SWAP2 MSTORE KECCAK256 SLOAD SWAP1 JUMP JUMPDEST PUSH2 0x2CB PUSH2 0x5D7 CALLDATASIZE PUSH1 0x4 PUSH2 0x21AF JUMP JUMPDEST PUSH2 0x1556 JUMP JUMPDEST PUSH2 0x300 PUSH1 0x6 SLOAD DUP2 JUMP JUMPDEST PUSH1 0x1E DUP1 SLOAD PUSH2 0x5F2 SWAP1 PUSH2 0x21DB JUMP JUMPDEST DUP1 PUSH1 0x1F ADD PUSH1 0x20 DUP1 SWAP2 DIV MUL PUSH1 0x20 ADD PUSH1 0x40 MLOAD SWAP1 DUP2 ADD PUSH1 0x40 MSTORE DUP1 SWAP3 SWAP2 SWAP1 DUP2 DUP2 MSTORE PUSH1 0x20 ADD DUP3 DUP1 SLOAD PUSH2 0x61E SWAP1 PUSH2 0x21DB JUMP JUMPDEST DUP1 ISZERO PUSH2 0x66B JUMPI DUP1 PUSH1 0x1F LT PUSH2 0x640 JUMPI PUSH2 0x100 DUP1 DUP4 SLOAD DIV MUL DUP4 MSTORE SWAP2 PUSH1 0x20 ADD SWAP2 PUSH2 0x66B JUMP JUMPDEST DUP3 ADD SWAP2 SWAP1 PUSH1 0x0 MSTORE PUSH1 0x20 PUSH1 0x0 KECCAK256 SWAP1 JUMPDEST DUP2 SLOAD DUP2 MSTORE SWAP1 PUSH1 0x1 ADD SWAP1 PUSH1 0x20 ADD DUP1 DUP4 GT PUSH2 0x64E JUMPI DUP3 SWAP1 SUB PUSH1 0x1F AND DUP3 ADD SWAP2 JUMPDEST POP POP POP POP POP DUP2 JUMP JUMPDEST CALLER PUSH1 0x0 DUP2 DUP2 MSTORE PUSH1 0x1B PUSH1 0x20 SWAP1 DUP2 MSTORE PUSH1 0x40 DUP1 DUP4 KECCAK256 PUSH1 0x1 PUSH1 0x1 PUSH1 0xA0 SHL SUB DUP8 AND DUP1 DUP6 MSTORE SWAP3 MSTORE DUP1 DUP4 KECCAK256 DUP6 SWAP1 SSTORE MLOAD SWAP2 SWAP3 SWAP1 SWAP2 PUSH32 0x8C5BE1E5EBEC7D5BD14F71427D1E84F3DD0314C0F7B2291E5B200AC8C7C3B925 SWAP1 PUSH2 0x6CE SWAP1 DUP7 DUP2 MSTORE PUSH1 0x20 ADD SWAP1 JUMP JUMPDEST PUSH1 0x40 MLOAD DUP1 SWAP2 SUB SWAP1 LOG3 POP PUSH1 0x1 JUMPDEST SWAP3 SWAP2 POP POP JUMP JUMPDEST PUSH1 0x0 PUSH2 0x6EA PUSH2 0x18A2 JUMP JUMPDEST PUSH1 0x0 PUSH1 0x11 SLOAD TIMESTAMP PUSH2 0x6FA SWAP2 SWAP1 PUSH2 0x222C JUMP JUMPDEST SWAP1 POP PUSH1 0x4 PUSH2 0x870 DUP3 GT ISZERO PUSH2 0x749 JUMPI POP PUSH1 0x4 JUMPDEST PUSH1 0xA DUP2 LT ISZERO PUSH2 0x749 JUMPI PUSH2 0x72C PUSH1 0x3 PUSH2 0x726 DUP4 PUSH2 0x870 PUSH2 0x2243 JUMP JUMPDEST SWAP1 PUSH2 0x1854 JUMP JUMPDEST DUP3 GT PUSH2 0x737 JUMPI PUSH2 0x749 JUMP JUMPDEST DUP1 PUSH2 0x741 DUP2 PUSH2 0x2262 JUMP JUMPDEST SWAP2 POP POP PUSH2 0x70C JUMP JUMPDEST PUSH1 0x0 PUSH2 0x75E PUSH1 0x4 PUSH1 0xF SLOAD DUP5 PUSH2 0x726 SWAP2 SWAP1 PUSH2 0x2243 JUMP JUMPDEST CALLER PUSH1 0x0 SWAP1 DUP2 MSTORE PUSH1 0x1A PUSH1 0x20 MSTORE PUSH1 0x40 SWAP1 KECCAK256 SLOAD SWAP1 SWAP2 POP PUSH2 0x77B SWAP1 DUP3 PUSH2 0x1A54 JUMP JUMPDEST CALLER PUSH1 0x0 SWAP1 DUP2 MSTORE PUSH1 0x1A PUSH1 0x20 MSTORE PUSH1 0x40 SWAP1 KECCAK256 SSTORE PUSH2 0x7BA PUSH2 0x799 DUP3 PUSH1 0x2 PUSH2 0x1854 JUMP JUMPDEST PUSH1 0x2 SLOAD PUSH1 0x1 PUSH1 0x1 PUSH1 0xA0 SHL SUB AND PUSH1 0x0 SWAP1 DUP2 MSTORE PUSH1 0x1A PUSH1 0x20 MSTORE PUSH1 0x40 SWAP1 KECCAK256 SLOAD SWAP1 PUSH2 0x1A54 JUMP JUMPDEST PUSH1 0x2 SLOAD PUSH1 0x1 PUSH1 0x1 PUSH1 0xA0 SHL SUB AND PUSH1 0x0 SWAP1 DUP2 MSTORE PUSH1 0x1A PUSH1 0x20 MSTORE PUSH1 0x40 SWAP1 KECCAK256 SSTORE PUSH1 0x19 SLOAD PUSH2 0x7E2 SWAP1 DUP3 PUSH2 0x1A54 JUMP JUMPDEST PUSH1 0x19 SSTORE TIMESTAMP PUSH1 0x11 SSTORE PUSH1 0x1C SLOAD ISZERO PUSH2 0x889 JUMPI PUSH1 0x3 SLOAD PUSH1 0x1C SLOAD PUSH1 0x14 SLOAD PUSH1 0x1 PUSH1 0x1 PUSH1 0xA0 SHL SUB SWAP1 SWAP3 AND SWAP2 PUSH4 0xA9059CBB SWAP2 CALLER SWAP2 PUSH2 0x818 SWAP2 SWAP1 PUSH2 0x2243 JUMP JUMPDEST PUSH1 0x40 MLOAD PUSH1 0x1 PUSH1 0x1 PUSH1 0xE0 SHL SUB NOT PUSH1 0xE0 DUP6 SWAP1 SHL AND DUP2 MSTORE PUSH1 0x1 PUSH1 0x1 PUSH1 0xA0 SHL SUB SWAP1 SWAP3 AND PUSH1 0x4 DUP4 ADD MSTORE PUSH1 0x24 DUP3 ADD MSTORE PUSH1 0x44 ADD PUSH1 0x20 PUSH1 0x40 MLOAD DUP1 DUP4 SUB DUP2 PUSH1 0x0 DUP8 GAS CALL ISZERO DUP1 ISZERO PUSH2 0x863 JUMPI RETURNDATASIZE PUSH1 0x0 DUP1 RETURNDATACOPY RETURNDATASIZE PUSH1 0x0 REVERT JUMPDEST POP POP POP POP PUSH1 0x40 MLOAD RETURNDATASIZE PUSH1 0x1F NOT PUSH1 0x1F DUP3 ADD AND DUP3 ADD DUP1 PUSH1 0x40 MSTORE POP DUP2 ADD SWAP1 PUSH2 0x887 SWAP2 SWAP1 PUSH2 0x227D JUMP JUMPDEST POP JUMPDEST PUSH1 0xF SLOAD PUSH1 0x7 SLOAD PUSH1 0xC SLOAD PUSH1 0x40 DUP1 MLOAD SWAP4 DUP5 MSTORE PUSH1 0x20 DUP5 ADD SWAP3 SWAP1 SWAP3 MSTORE SWAP1 DUP3 ADD MSTORE CALLER SWAP1 PUSH32 0xCF6FBB9DCEA7D07263AB4F5C3A92F53AF33DFFC421D9D121E1C74B307E68189D SWAP1 PUSH1 0x60 ADD PUSH1 0x40 MLOAD DUP1 SWAP2 SUB SWAP1 LOG2 POP PUSH1 0x1 SWAP6 SWAP5 POP POP POP POP POP JUMP JUMPDEST PUSH1 0x0 SLOAD PUSH1 0x1 PUSH1 0x1 PUSH1 0xA0 SHL SUB AND CALLER EQ PUSH2 0x92C JUMPI PUSH1 0x40 MLOAD PUSH3 0x461BCD PUSH1 0xE5 SHL DUP2 MSTORE PUSH1 0x20 PUSH1 0x4 DUP3 ADD MSTORE PUSH1 0xA PUSH1 0x24 DUP3 ADD MSTORE PUSH10 0x37B7363C9037BBB732B9 PUSH1 0xB1 SHL PUSH1 0x44 DUP3 ADD MSTORE PUSH1 0x64 ADD JUMPDEST PUSH1 0x40 MLOAD DUP1 SWAP2 SUB SWAP1 REVERT JUMPDEST PUSH1 0x20 SLOAD PUSH1 0xFF AND ISZERO PUSH2 0x93F JUMPI PUSH2 0x93F PUSH2 0x229A JUMP JUMPDEST CALLER PUSH1 0x0 DUP2 DUP2 MSTORE PUSH1 0x1A PUSH1 0x20 SWAP1 DUP2 MSTORE PUSH1 0x40 DUP1 DUP4 KECCAK256 PUSH8 0xDE0B6B3A7640000 SWAP1 DUP2 SWAP1 SSTORE SWAP1 MLOAD SWAP1 DUP2 MSTORE PUSH1 0x0 DUP1 MLOAD PUSH1 0x20 PUSH2 0x244E DUP4 CODECOPY DUP2 MLOAD SWAP2 MSTORE SWAP2 ADD PUSH1 0x40 MLOAD DUP1 SWAP2 SUB SWAP1 LOG3 JUMP JUMPDEST PUSH1 0x0 PUSH2 0x997 PUSH1 0xB SLOAD PUSH1 0xA SLOAD PUSH2 0x1854 SWAP1 SWAP2 SWAP1 PUSH4 0xFFFFFFFF AND JUMP JUMPDEST SWAP1 POP SWAP1 JUMP JUMPDEST PUSH1 0x0 PUSH2 0x9A9 DUP4 DUP4 CALLER PUSH2 0x1556 JUMP JUMPDEST POP SWAP3 SWAP2 POP POP JUMP JUMPDEST PUSH1 0x0 DUP1 DUP4 MLOAD PUSH1 0x1 PUSH2 0x9C1 SWAP2 SWAP1 PUSH2 0x22B0 JUMP JUMPDEST PUSH8 0xFFFFFFFFFFFFFFFF DUP2 GT ISZERO PUSH2 0x9D9 JUMPI PUSH2 0x9D9 PUSH2 0x1E05 JUMP JUMPDEST PUSH1 0x40 MLOAD SWAP1 DUP1 DUP3 MSTORE DUP1 PUSH1 0x20 MUL PUSH1 0x20 ADD DUP3 ADD PUSH1 0x40 MSTORE DUP1 ISZERO PUSH2 0xA02 JUMPI DUP2 PUSH1 0x20 ADD PUSH1 0x20 DUP3 MUL DUP1 CALLDATASIZE DUP4 CALLDATACOPY ADD SWAP1 POP JUMPDEST POP SWAP1 POP PUSH1 0x0 DUP1 JUMPDEST DUP6 MLOAD PUSH2 0xA16 SWAP1 PUSH1 0x1 PUSH2 0x22B0 JUMP JUMPDEST DUP2 LT ISZERO PUSH2 0xA5A JUMPI DUP5 DUP4 DUP3 DUP2 MLOAD DUP2 LT PUSH2 0xA30 JUMPI PUSH2 0xA30 PUSH2 0x22C8 JUMP JUMPDEST PUSH1 0x1 PUSH1 0x1 PUSH1 0xA0 SHL SUB SWAP1 SWAP3 AND PUSH1 0x20 SWAP3 DUP4 MUL SWAP2 SWAP1 SWAP2 ADD SWAP1 SWAP2 ADD MSTORE DUP1 PUSH2 0xA52 DUP2 PUSH2 0x2262 JUMP JUMPDEST SWAP2 POP POP PUSH2 0xA09 JUMP JUMPDEST POP PUSH2 0xA67 DUP8 DUP8 DUP8 DUP6 PUSH2 0xEA7 JUMP JUMPDEST POP PUSH1 0x1 SWAP8 SWAP7 POP POP POP POP POP POP POP JUMP JUMPDEST PUSH1 0x1 PUSH1 0x1 PUSH1 0xA0 SHL SUB DUP4 AND PUSH1 0x0 SWAP1 DUP2 MSTORE PUSH1 0x1A PUSH1 0x20 MSTORE PUSH1 0x40 DUP2 KECCAK256 SLOAD PUSH2 0xA98 SWAP1 DUP4 PUSH2 0x1AA2 JUMP JUMPDEST PUSH1 0x1 PUSH1 0x1 PUSH1 0xA0 SHL SUB DUP6 AND PUSH1 0x0 SWAP1 DUP2 MSTORE PUSH1 0x1A PUSH1 0x20 SWAP1 DUP2 MSTORE PUSH1 0x40 DUP1 DUP4 KECCAK256 SWAP4 SWAP1 SWAP4 SSTORE PUSH1 0x1B DUP2 MSTORE DUP3 DUP3 KECCAK256 CALLER DUP4 MSTORE SWAP1 MSTORE KECCAK256 SLOAD PUSH2 0xACF SWAP1 DUP4 PUSH2 0x1AA2 JUMP JUMPDEST PUSH1 0x1 PUSH1 0x1 PUSH1 0xA0 SHL SUB DUP1 DUP7 AND PUSH1 0x0 SWAP1 DUP2 MSTORE PUSH1 0x1B PUSH1 0x20 SWAP1 DUP2 MSTORE PUSH1 0x40 DUP1 DUP4 KECCAK256 CALLER DUP5 MSTORE DUP3 MSTORE DUP1 DUP4 KECCAK256 SWAP5 SWAP1 SWAP5 SSTORE SWAP2 DUP7 AND DUP2 MSTORE PUSH1 0x1A SWAP1 SWAP2 MSTORE KECCAK256 SLOAD PUSH2 0xB0D SWAP1 DUP4 PUSH2 0x1A54 JUMP JUMPDEST PUSH1 0x1 PUSH1 0x1 PUSH1 0xA0 SHL SUB DUP1 DUP6 AND PUSH1 0x0 DUP2 DUP2 MSTORE PUSH1 0x1A PUSH1 0x20 MSTORE PUSH1 0x40 SWAP1 DUP2 SWAP1 KECCAK256 SWAP4 SWAP1 SWAP4 SSTORE SWAP2 MLOAD SWAP1 DUP7 AND SWAP1 PUSH1 0x0 DUP1 MLOAD PUSH1 0x20 PUSH2 0x244E DUP4 CODECOPY DUP2 MLOAD SWAP2 MSTORE SWAP1 PUSH2 0xB4F SWAP1 DUP7 DUP2 MSTORE PUSH1 0x20 ADD SWAP1 JUMP JUMPDEST PUSH1 0x40 MLOAD DUP1 SWAP2 SUB SWAP1 LOG3 POP PUSH1 0x1 SWAP4 SWAP3 POP POP POP JUMP JUMPDEST PUSH1 0x0 PUSH2 0x997 PUSH1 0xD SLOAD PUSH1 0x2 PUSH2 0xB75 SWAP2 SWAP1 PUSH2 0x23C2 JUMP JUMPDEST PUSH2 0xB81 PUSH1 0x12 PUSH1 0xA PUSH2 0x23C2 JUMP JUMPDEST PUSH2 0x726 SWAP1 PUSH1 0x96 PUSH2 0x2243 JUMP JUMPDEST PUSH1 0x0 SLOAD PUSH1 0x1 PUSH1 0x1 PUSH1 0xA0 SHL SUB AND CALLER EQ PUSH2 0xBD3 JUMPI PUSH1 0x40 MLOAD PUSH3 0x461BCD PUSH1 0xE5 SHL DUP2 MSTORE PUSH1 0x20 PUSH1 0x4 DUP3 ADD MSTORE PUSH1 0xA PUSH1 0x24 DUP3 ADD MSTORE PUSH10 0x37B7363C9037BBB732B9 PUSH1 0xB1 SHL PUSH1 0x44 DUP3 ADD MSTORE PUSH1 0x64 ADD PUSH2 0x923 JUMP JUMPDEST PUSH1 0x0 PUSH1 0x1F SLOAD PUSH1 0x2 PUSH2 0xBE4 SWAP2 SWAP1 PUSH2 0x23C2 JUMP JUMPDEST PUSH2 0xBEF SWAP1 PUSH1 0x2 PUSH2 0x2243 JUMP JUMPDEST PUSH2 0xC04 SWAP1 PUSH11 0x115EEC47F6CF7E35000000 PUSH2 0x23E4 JUMP JUMPDEST PUSH1 0x20 SLOAD SWAP1 SWAP2 POP PUSH1 0xFF AND ISZERO PUSH2 0xC1A JUMPI PUSH2 0xC1A PUSH2 0x229A JUMP JUMPDEST PUSH1 0x20 DUP1 SLOAD PUSH1 0xFF NOT AND PUSH1 0x1 OR SWAP1 SSTORE PUSH1 0x0 PUSH1 0xD DUP2 SWAP1 SSTORE PUSH1 0x19 SSTORE PUSH1 0xA SLOAD PUSH2 0xC40 SWAP1 PUSH2 0x3E9 PUSH2 0x1854 JUMP JUMPDEST PUSH1 0xB SSTORE PUSH2 0xC4B PUSH2 0x18A2 JUMP JUMPDEST PUSH1 0x1 PUSH1 0x1 PUSH1 0xA0 SHL SUB DUP5 AND PUSH1 0x0 DUP2 DUP2 MSTORE PUSH1 0x1A PUSH1 0x20 SWAP1 DUP2 MSTORE PUSH1 0x40 DUP1 DUP4 KECCAK256 DUP6 SWAP1 SSTORE MLOAD DUP5 DUP2 MSTORE PUSH1 0x0 DUP1 MLOAD PUSH1 0x20 PUSH2 0x244E DUP4 CODECOPY DUP2 MLOAD SWAP2 MSTORE SWAP2 ADD PUSH1 0x40 MLOAD DUP1 SWAP2 SUB SWAP1 LOG3 PUSH1 0x1 DUP1 SLOAD PUSH1 0x1 PUSH1 0x1 PUSH1 0xA0 SHL SUB DUP1 DUP8 AND PUSH1 0x1 PUSH1 0x1 PUSH1 0xA0 SHL SUB NOT SWAP3 DUP4 AND OR SWAP1 SWAP3 SSTORE PUSH1 0x2 DUP1 SLOAD DUP7 DUP5 AND SWAP1 DUP4 AND OR SWAP1 SSTORE PUSH1 0x3 DUP1 SLOAD SWAP3 DUP6 AND SWAP3 SWAP1 SWAP2 AND SWAP2 SWAP1 SWAP2 OR SWAP1 SSTORE PUSH1 0x7 SLOAD PUSH1 0x10 SSTORE CALLER PUSH1 0x0 DUP2 DUP2 MSTORE PUSH1 0x1A PUSH1 0x20 MSTORE PUSH1 0x40 DUP1 DUP3 KECCAK256 PUSH4 0x5F5E100 SWAP1 DUP2 SWAP1 SSTORE SWAP1 MLOAD PUSH1 0x0 DUP1 MLOAD PUSH1 0x20 PUSH2 0x244E DUP4 CODECOPY DUP2 MLOAD SWAP2 MSTORE SWAP2 PUSH2 0xD01 SWAP2 SWAP1 DUP2 MSTORE PUSH1 0x20 ADD SWAP1 JUMP JUMPDEST PUSH1 0x40 MLOAD DUP1 SWAP2 SUB SWAP1 LOG3 POP POP POP POP JUMP JUMPDEST PUSH1 0x0 DUP1 DUP4 CALLER DUP8 PUSH1 0x40 MLOAD PUSH1 0x20 ADD PUSH2 0xD27 SWAP4 SWAP3 SWAP2 SWAP1 PUSH2 0x23F8 JUMP JUMPDEST PUSH1 0x40 MLOAD PUSH1 0x20 DUP2 DUP4 SUB SUB DUP2 MSTORE SWAP1 PUSH1 0x40 MSTORE DUP1 MLOAD SWAP1 PUSH1 0x20 ADD KECCAK256 SWAP1 POP DUP3 DUP2 PUSH1 0x0 SHR GT ISZERO PUSH2 0xD4F JUMPI PUSH1 0x0 DUP1 REVERT JUMPDEST SWAP1 SWAP4 EQ SWAP5 SWAP4 POP POP POP POP JUMP JUMPDEST PUSH1 0x1 PUSH1 0x1 PUSH1 0xA0 SHL SUB DUP3 AND ADDRESS EQ PUSH2 0xD6F JUMPI PUSH1 0x0 DUP1 REVERT JUMPDEST PUSH1 0x40 MLOAD PUSH4 0xA9059CBB PUSH1 0xE0 SHL DUP2 MSTORE PUSH1 0x1 PUSH1 0x1 PUSH1 0xA0 SHL SUB DUP6 AND PUSH1 0x4 DUP3 ADD MSTORE PUSH1 0x24 DUP2 ADD DUP5 SWAP1 MSTORE ADDRESS SWAP1 PUSH4 0xA9059CBB SWAP1 PUSH1 0x44 ADD PUSH1 0x20 PUSH1 0x40 MLOAD DUP1 DUP4 SUB DUP2 PUSH1 0x0 DUP8 GAS CALL ISZERO DUP1 ISZERO PUSH2 0xDBC JUMPI RETURNDATASIZE PUSH1 0x0 DUP1 RETURNDATACOPY RETURNDATASIZE PUSH1 0x0 REVERT JUMPDEST POP POP POP POP PUSH1 0x40 MLOAD RETURNDATASIZE PUSH1 0x1F NOT PUSH1 0x1F DUP3 ADD AND DUP3 ADD DUP1 PUSH1 0x40 MSTORE POP DUP2 ADD SWAP1 PUSH2 0xDE0 SWAP2 SWAP1 PUSH2 0x227D JUMP JUMPDEST POP POP POP POP POP JUMP JUMPDEST PUSH1 0x0 DUP1 PUSH1 0xC SLOAD CALLER DUP7 PUSH1 0x40 MLOAD PUSH1 0x20 ADD PUSH2 0xE01 SWAP4 SWAP3 SWAP2 SWAP1 PUSH2 0x23F8 JUMP JUMPDEST PUSH1 0x40 DUP1 MLOAD DUP1 DUP4 SUB PUSH1 0x1F NOT ADD DUP2 MSTORE SWAP2 SWAP1 MSTORE DUP1 MLOAD PUSH1 0x20 SWAP1 SWAP2 ADD KECCAK256 SWAP6 SWAP5 POP POP POP POP POP JUMP JUMPDEST CALLER PUSH1 0x0 SWAP1 DUP2 MSTORE PUSH1 0x1A PUSH1 0x20 MSTORE PUSH1 0x40 DUP2 KECCAK256 SLOAD PUSH2 0xE3C SWAP1 DUP4 PUSH2 0x1AA2 JUMP JUMPDEST CALLER PUSH1 0x0 SWAP1 DUP2 MSTORE PUSH1 0x1A PUSH1 0x20 MSTORE PUSH1 0x40 DUP1 DUP3 KECCAK256 SWAP3 SWAP1 SWAP3 SSTORE PUSH1 0x1 PUSH1 0x1 PUSH1 0xA0 SHL SUB DUP6 AND DUP2 MSTORE KECCAK256 SLOAD PUSH2 0xE68 SWAP1 DUP4 PUSH2 0x1A54 JUMP JUMPDEST PUSH1 0x1 PUSH1 0x1 PUSH1 0xA0 SHL SUB DUP5 AND PUSH1 0x0 DUP2 DUP2 MSTORE PUSH1 0x1A PUSH1 0x20 MSTORE PUSH1 0x40 SWAP1 DUP2 SWAP1 KECCAK256 SWAP3 SWAP1 SWAP3 SSTORE SWAP1 MLOAD CALLER SWAP1 PUSH1 0x0 DUP1 MLOAD PUSH1 0x20 PUSH2 0x244E DUP4 CODECOPY DUP2 MLOAD SWAP2 MSTORE SWAP1 PUSH2 0x6CE SWAP1 DUP7 DUP2 MSTORE PUSH1 0x20 ADD SWAP1 JUMP JUMPDEST PUSH1 0x11 SLOAD PUSH1 0x0 SWAP1 PUSH1 0x4 SWAP1 DUP3 SWAP1 PUSH2 0xEBC SWAP1 TIMESTAMP PUSH2 0x222C JUMP JUMPDEST SWAP1 POP PUSH2 0x870 DUP2 GT ISZERO PUSH2 0xF04 JUMPI PUSH1 0x4 SWAP2 POP JUMPDEST PUSH1 0xA DUP3 LT ISZERO PUSH2 0xF04 JUMPI PUSH2 0xEE7 PUSH1 0x3 PUSH2 0x726 DUP5 PUSH2 0x870 PUSH2 0x2243 JUMP JUMPDEST DUP2 GT PUSH2 0xEF2 JUMPI PUSH2 0xF04 JUMP JUMPDEST DUP2 PUSH2 0xEFC DUP2 PUSH2 0x2262 JUMP JUMPDEST SWAP3 POP POP PUSH2 0xECD JUMP JUMPDEST DUP5 MLOAD PUSH2 0xF11 SWAP1 PUSH1 0x1 PUSH2 0x22B0 JUMP JUMPDEST DUP5 MLOAD EQ PUSH2 0xF86 JUMPI PUSH1 0x40 MLOAD PUSH3 0x461BCD PUSH1 0xE5 SHL DUP2 MSTORE PUSH1 0x20 PUSH1 0x4 DUP3 ADD MSTORE PUSH1 0x3D PUSH1 0x24 DUP3 ADD MSTORE PUSH32 0x536F204D696E74546F2068617320746F20686176652073616D65206E756D6265 PUSH1 0x44 DUP3 ADD MSTORE PUSH32 0x72206F66206164647265737373657320617320457874726146756E6473000000 PUSH1 0x64 DUP3 ADD MSTORE PUSH1 0x84 ADD PUSH2 0x923 JUMP JUMPDEST PUSH1 0x0 JUMPDEST DUP6 MLOAD DUP2 LT ISZERO PUSH2 0x111A JUMPI ADDRESS PUSH1 0x1 PUSH1 0x1 PUSH1 0xA0 SHL SUB AND DUP7 DUP3 DUP2 MLOAD DUP2 LT PUSH2 0xFAE JUMPI PUSH2 0xFAE PUSH2 0x22C8 JUMP JUMPDEST PUSH1 0x20 MUL PUSH1 0x20 ADD ADD MLOAD PUSH1 0x1 PUSH1 0x1 PUSH1 0xA0 SHL SUB AND EQ ISZERO DUP1 ISZERO PUSH2 0xFFF JUMPI POP PUSH1 0x3 SLOAD DUP7 MLOAD PUSH1 0x1 PUSH1 0x1 PUSH1 0xA0 SHL SUB SWAP1 SWAP2 AND SWAP1 DUP8 SWAP1 DUP4 SWAP1 DUP2 LT PUSH2 0xFEB JUMPI PUSH2 0xFEB PUSH2 0x22C8 JUMP JUMPDEST PUSH1 0x20 MUL PUSH1 0x20 ADD ADD MLOAD PUSH1 0x1 PUSH1 0x1 PUSH1 0xA0 SHL SUB AND EQ ISZERO JUMPDEST PUSH2 0x104B JUMPI PUSH1 0x40 MLOAD PUSH3 0x461BCD PUSH1 0xE5 SHL DUP2 MSTORE PUSH1 0x20 PUSH1 0x4 DUP3 ADD MSTORE PUSH1 0x1A PUSH1 0x24 DUP3 ADD MSTORE PUSH32 0x4E6F2062617365207072696E74696E67206F6620746F6B656E73000000000000 PUSH1 0x44 DUP3 ADD MSTORE PUSH1 0x64 ADD PUSH2 0x923 JUMP JUMPDEST PUSH1 0x1 JUMPDEST DUP7 MLOAD DUP2 LT ISZERO PUSH2 0x1107 JUMPI DUP7 DUP3 DUP2 MLOAD DUP2 LT PUSH2 0x1069 JUMPI PUSH2 0x1069 PUSH2 0x22C8 JUMP JUMPDEST PUSH1 0x20 MUL PUSH1 0x20 ADD ADD MLOAD PUSH1 0x1 PUSH1 0x1 PUSH1 0xA0 SHL SUB AND DUP8 DUP3 DUP2 MLOAD DUP2 LT PUSH2 0x108C JUMPI PUSH2 0x108C PUSH2 0x22C8 JUMP JUMPDEST PUSH1 0x20 MUL PUSH1 0x20 ADD ADD MLOAD PUSH1 0x1 PUSH1 0x1 PUSH1 0xA0 SHL SUB AND EQ ISZERO DUP1 PUSH2 0x10A9 JUMPI POP DUP1 DUP3 EQ JUMPDEST PUSH2 0x10F5 JUMPI PUSH1 0x40 MLOAD PUSH3 0x461BCD PUSH1 0xE5 SHL DUP2 MSTORE PUSH1 0x20 PUSH1 0x4 DUP3 ADD MSTORE PUSH1 0x1B PUSH1 0x24 DUP3 ADD MSTORE PUSH32 0x4E6F207072696E74696E67205468652073616D6520746F6B656E730000000000 PUSH1 0x44 DUP3 ADD MSTORE PUSH1 0x64 ADD PUSH2 0x923 JUMP JUMPDEST DUP1 PUSH2 0x10FF DUP2 PUSH2 0x2262 JUMP JUMPDEST SWAP2 POP POP PUSH2 0x104E JUMP JUMPDEST POP DUP1 PUSH2 0x1112 DUP2 PUSH2 0x2262 JUMP JUMPDEST SWAP2 POP POP PUSH2 0xF89 JUMP JUMPDEST POP PUSH2 0x1140 DUP8 DUP8 DUP7 PUSH1 0x0 DUP2 MLOAD DUP2 LT PUSH2 0x1133 JUMPI PUSH2 0x1133 PUSH2 0x22C8 JUMP JUMPDEST PUSH1 0x20 MUL PUSH1 0x20 ADD ADD MLOAD PUSH2 0x1556 JUMP JUMPDEST PUSH2 0x1179 JUMPI PUSH1 0x40 MLOAD PUSH3 0x461BCD PUSH1 0xE5 SHL DUP2 MSTORE PUSH1 0x20 PUSH1 0x4 DUP3 ADD MSTORE PUSH1 0xA PUSH1 0x24 DUP3 ADD MSTORE PUSH10 0x6D696E74206973737565 PUSH1 0xB0 SHL PUSH1 0x44 DUP3 ADD MSTORE PUSH1 0x64 ADD PUSH2 0x923 JUMP JUMPDEST PUSH1 0x0 DUP1 JUMPDEST DUP7 MLOAD DUP2 LT ISZERO PUSH2 0x1368 JUMPI PUSH2 0x1191 DUP2 PUSH1 0x1 PUSH2 0x22B0 JUMP JUMPDEST PUSH2 0x119C SWAP1 PUSH1 0x2 PUSH2 0x23C2 JUMP JUMPDEST PUSH1 0x7 SLOAD PUSH2 0x11A9 SWAP2 SWAP1 PUSH2 0x2420 JUMP JUMPDEST PUSH2 0x1356 JUMPI PUSH1 0x0 DUP8 DUP3 DUP2 MLOAD DUP2 LT PUSH2 0x11C1 JUMPI PUSH2 0x11C1 PUSH2 0x22C8 JUMP JUMPDEST PUSH1 0x20 SWAP1 DUP2 MUL SWAP2 SWAP1 SWAP2 ADD ADD MLOAD PUSH1 0x40 MLOAD PUSH4 0x70A08231 PUSH1 0xE0 SHL DUP2 MSTORE ADDRESS PUSH1 0x4 DUP3 ADD MSTORE PUSH1 0x1 PUSH1 0x1 PUSH1 0xA0 SHL SUB SWAP1 SWAP2 AND SWAP1 PUSH4 0x70A08231 SWAP1 PUSH1 0x24 ADD PUSH1 0x20 PUSH1 0x40 MLOAD DUP1 DUP4 SUB DUP2 DUP7 GAS STATICCALL ISZERO DUP1 ISZERO PUSH2 0x1211 JUMPI RETURNDATASIZE PUSH1 0x0 DUP1 RETURNDATACOPY RETURNDATASIZE PUSH1 0x0 REVERT JUMPDEST POP POP POP POP PUSH1 0x40 MLOAD RETURNDATASIZE PUSH1 0x1F NOT PUSH1 0x1F DUP3 ADD AND DUP3 ADD DUP1 PUSH1 0x40 MSTORE POP DUP2 ADD SWAP1 PUSH2 0x1235 SWAP2 SWAP1 PUSH2 0x2434 JUMP JUMPDEST SWAP1 POP DUP1 ISZERO PUSH2 0x1351 JUMPI PUSH1 0x0 PUSH1 0x3 PUSH2 0x124C DUP5 PUSH1 0x1 PUSH2 0x22B0 JUMP JUMPDEST PUSH2 0x1256 SWAP2 SWAP1 PUSH2 0x2420 JUMP JUMPDEST ISZERO DUP1 ISZERO PUSH2 0x1262 JUMPI POP DUP3 ISZERO ISZERO JUMPDEST ISZERO PUSH2 0x1284 JUMPI PUSH2 0x127D PUSH2 0x2710 PUSH2 0x1277 DUP9 DUP6 PUSH2 0x2243 JUMP JUMPDEST SWAP1 PUSH2 0x1AEE JUMP JUMPDEST SWAP1 POP PUSH2 0x1297 JUMP JUMPDEST PUSH2 0x1294 PUSH2 0x2710 PUSH2 0x726 DUP9 DUP6 PUSH2 0x2243 JUMP JUMPDEST SWAP1 POP JUMPDEST DUP9 DUP4 DUP2 MLOAD DUP2 LT PUSH2 0x12A9 JUMPI PUSH2 0x12A9 PUSH2 0x22C8 JUMP JUMPDEST PUSH1 0x20 MUL PUSH1 0x20 ADD ADD MLOAD PUSH1 0x1 PUSH1 0x1 PUSH1 0xA0 SHL SUB AND PUSH4 0xA9059CBB DUP10 DUP6 DUP2 MLOAD DUP2 LT PUSH2 0x12D1 JUMPI PUSH2 0x12D1 PUSH2 0x22C8 JUMP JUMPDEST PUSH1 0x20 MUL PUSH1 0x20 ADD ADD MLOAD DUP4 PUSH1 0x40 MLOAD DUP4 PUSH4 0xFFFFFFFF AND PUSH1 0xE0 SHL DUP2 MSTORE PUSH1 0x4 ADD PUSH2 0x130B SWAP3 SWAP2 SWAP1 PUSH1 0x1 PUSH1 0x1 PUSH1 0xA0 SHL SUB SWAP3 SWAP1 SWAP3 AND DUP3 MSTORE PUSH1 0x20 DUP3 ADD MSTORE PUSH1 0x40 ADD SWAP1 JUMP JUMPDEST PUSH1 0x20 PUSH1 0x40 MLOAD DUP1 DUP4 SUB DUP2 PUSH1 0x0 DUP8 GAS CALL ISZERO DUP1 ISZERO PUSH2 0x132A JUMPI RETURNDATASIZE PUSH1 0x0 DUP1 RETURNDATACOPY RETURNDATASIZE PUSH1 0x0 REVERT JUMPDEST POP POP POP POP PUSH1 0x40 MLOAD RETURNDATASIZE PUSH1 0x1F NOT PUSH1 0x1F DUP3 ADD AND DUP3 ADD DUP1 PUSH1 0x40 MSTORE POP DUP2 ADD SWAP1 PUSH2 0x134E SWAP2 SWAP1 PUSH2 0x227D JUMP JUMPDEST POP POP JUMPDEST DUP2 SWAP3 POP POP JUMPDEST DUP1 PUSH2 0x1360 DUP2 PUSH2 0x2262 JUMP JUMPDEST SWAP2 POP POP PUSH2 0x117D JUMP JUMPDEST POP PUSH1 0xF SLOAD PUSH1 0x7 SLOAD PUSH1 0xC SLOAD PUSH1 0x40 DUP1 MLOAD SWAP4 DUP5 MSTORE PUSH1 0x20 DUP5 ADD SWAP3 SWAP1 SWAP3 MSTORE SWAP1 DUP3 ADD MSTORE PUSH1 0x60 DUP2 ADD DUP3 SWAP1 MSTORE CALLER SWAP1 PUSH32 0x8D1274A08A1F38C385CC00828B937D1A29D4CE3A901EDE97B42639D0C19AE2AE SWAP1 PUSH1 0x80 ADD PUSH1 0x40 MLOAD DUP1 SWAP2 SUB SWAP1 LOG2 POP PUSH1 0x1 SWAP8 SWAP7 POP POP POP POP POP POP POP JUMP JUMPDEST PUSH1 0x0 PUSH1 0x10 SLOAD PUSH1 0x7 SLOAD PUSH2 0x13DB SWAP2 SWAP1 PUSH2 0x222C JUMP JUMPDEST SWAP1 POP PUSH2 0x13EF PUSH1 0xD SLOAD PUSH1 0x2 PUSH2 0xB75 SWAP2 SWAP1 PUSH2 0x23C2 JUMP JUMPDEST PUSH1 0xF SSTORE PUSH1 0x8 SLOAD PUSH1 0x14 SLOAD PUSH1 0x4 SWAP2 PUSH2 0x1404 SWAP2 PUSH2 0x2243 JUMP JUMPDEST PUSH2 0x140F SWAP1 PUSH1 0x6 PUSH2 0x2243 JUMP JUMPDEST PUSH2 0x1419 SWAP2 SWAP1 PUSH2 0x23E4 JUMP JUMPDEST PUSH1 0x3 SLOAD PUSH1 0x40 MLOAD PUSH4 0x70A08231 PUSH1 0xE0 SHL DUP2 MSTORE ADDRESS PUSH1 0x4 DUP3 ADD MSTORE PUSH1 0x1 PUSH1 0x1 PUSH1 0xA0 SHL SUB SWAP1 SWAP2 AND SWAP1 PUSH4 0x70A08231 SWAP1 PUSH1 0x24 ADD PUSH1 0x20 PUSH1 0x40 MLOAD DUP1 DUP4 SUB DUP2 DUP7 GAS STATICCALL ISZERO DUP1 ISZERO PUSH2 0x1461 JUMPI RETURNDATASIZE PUSH1 0x0 DUP1 RETURNDATACOPY RETURNDATASIZE PUSH1 0x0 REVERT JUMPDEST POP POP POP POP PUSH1 0x40 MLOAD RETURNDATASIZE PUSH1 0x1F NOT PUSH1 0x1F DUP3 ADD AND DUP3 ADD DUP1 PUSH1 0x40 MSTORE POP DUP2 ADD SWAP1 PUSH2 0x1485 SWAP2 SWAP1 PUSH2 0x2434 JUMP JUMPDEST GT ISZERO PUSH2 0x1547 JUMPI PUSH1 0x1D SLOAD PUSH2 0x1499 SWAP1 PUSH1 0x1 PUSH2 0x2243 JUMP JUMPDEST PUSH1 0x1C DUP2 SWAP1 SSTORE PUSH1 0x3 SLOAD PUSH1 0x2 SLOAD PUSH1 0x14 SLOAD PUSH1 0x1 PUSH1 0x1 PUSH1 0xA0 SHL SUB SWAP3 DUP4 AND SWAP4 PUSH4 0xA9059CBB SWAP4 SWAP1 SWAP3 AND SWAP2 SWAP1 PUSH2 0x14C8 SWAP1 DUP7 PUSH2 0x2243 JUMP JUMPDEST PUSH2 0x14D2 SWAP2 SWAP1 PUSH2 0x2243 JUMP JUMPDEST PUSH1 0x40 MLOAD PUSH1 0x1 PUSH1 0x1 PUSH1 0xE0 SHL SUB NOT PUSH1 0xE0 DUP6 SWAP1 SHL AND DUP2 MSTORE PUSH1 0x1 PUSH1 0x1 PUSH1 0xA0 SHL SUB SWAP1 SWAP3 AND PUSH1 0x4 DUP4 ADD MSTORE PUSH1 0x24 DUP3 ADD MSTORE PUSH1 0x44 ADD PUSH1 0x20 PUSH1 0x40 MLOAD DUP1 DUP4 SUB DUP2 PUSH1 0x0 DUP8 GAS CALL ISZERO DUP1 ISZERO PUSH2 0x151D JUMPI RETURNDATASIZE PUSH1 0x0 DUP1 RETURNDATACOPY RETURNDATASIZE PUSH1 0x0 REVERT JUMPDEST POP POP POP POP PUSH1 0x40 MLOAD RETURNDATASIZE PUSH1 0x1F NOT PUSH1 0x1F DUP3 ADD AND DUP3 ADD DUP1 PUSH1 0x40 MSTORE POP DUP2 ADD SWAP1 PUSH2 0x1541 SWAP2 SWAP1 PUSH2 0x227D JUMP JUMPDEST POP PUSH2 0x154D JUMP JUMPDEST PUSH1 0x0 PUSH1 0x1C SSTORE JUMPDEST POP PUSH1 0x7 SLOAD PUSH1 0x10 SSTORE JUMP JUMPDEST PUSH1 0x0 PUSH2 0x156F PUSH1 0xF SLOAD PUSH1 0x19 SLOAD PUSH2 0x1A54 SWAP1 SWAP2 SWAP1 PUSH4 0xFFFFFFFF AND JUMP JUMPDEST POP PUSH1 0x0 PUSH1 0xC SLOAD CALLER DUP7 PUSH1 0x40 MLOAD PUSH1 0x20 ADD PUSH2 0x1589 SWAP4 SWAP3 SWAP2 SWAP1 PUSH2 0x23F8 JUMP JUMPDEST PUSH1 0x40 MLOAD PUSH1 0x20 DUP2 DUP4 SUB SUB DUP2 MSTORE SWAP1 PUSH1 0x40 MSTORE DUP1 MLOAD SWAP1 PUSH1 0x20 ADD KECCAK256 SWAP1 POP DUP4 DUP2 EQ PUSH2 0x1607 JUMPI PUSH1 0x40 MLOAD PUSH3 0x461BCD PUSH1 0xE5 SHL DUP2 MSTORE PUSH1 0x20 PUSH1 0x4 DUP3 ADD MSTORE PUSH1 0x2E PUSH1 0x24 DUP3 ADD MSTORE PUSH32 0x4F6C64206368616C6C656E67655F646967657374206F722077726F6E67206368 PUSH1 0x44 DUP3 ADD MSTORE PUSH14 0x185B1B195B99D957D91A59D95CDD PUSH1 0x92 SHL PUSH1 0x64 DUP3 ADD MSTORE PUSH1 0x84 ADD PUSH2 0x923 JUMP JUMPDEST PUSH1 0xB SLOAD DUP2 LT PUSH2 0x1669 JUMPI PUSH1 0x40 MLOAD PUSH3 0x461BCD PUSH1 0xE5 SHL DUP2 MSTORE PUSH1 0x20 PUSH1 0x4 DUP3 ADD MSTORE PUSH1 0x28 PUSH1 0x24 DUP3 ADD MSTORE PUSH32 0x446967657374206D75737420626520736D616C6C6572207468616E206D696E69 PUSH1 0x44 DUP3 ADD MSTORE PUSH8 0x1B99D5185C99D95D PUSH1 0xC2 SHL PUSH1 0x64 DUP3 ADD MSTORE PUSH1 0x84 ADD PUSH2 0x923 JUMP JUMPDEST PUSH2 0x1671 PUSH2 0x18A2 JUMP JUMPDEST PUSH1 0x0 PUSH1 0x11 SLOAD TIMESTAMP PUSH2 0x1681 SWAP2 SWAP1 PUSH2 0x222C JUMP JUMPDEST SWAP1 POP PUSH1 0x4 PUSH2 0x870 DUP3 GT ISZERO PUSH2 0x16CA JUMPI POP PUSH1 0x4 JUMPDEST PUSH1 0xA DUP2 LT ISZERO PUSH2 0x16CA JUMPI PUSH2 0x16AD PUSH1 0x3 PUSH2 0x726 DUP4 PUSH2 0x870 PUSH2 0x2243 JUMP JUMPDEST DUP3 GT PUSH2 0x16B8 JUMPI PUSH2 0x16CA JUMP JUMPDEST DUP1 PUSH2 0x16C2 DUP2 PUSH2 0x2262 JUMP JUMPDEST SWAP2 POP POP PUSH2 0x1693 JUMP JUMPDEST PUSH1 0x0 PUSH2 0x16DF PUSH1 0x4 PUSH1 0xF SLOAD DUP5 PUSH2 0x726 SWAP2 SWAP1 PUSH2 0x2243 JUMP JUMPDEST PUSH1 0x1 PUSH1 0x1 PUSH1 0xA0 SHL SUB DUP8 AND PUSH1 0x0 SWAP1 DUP2 MSTORE PUSH1 0x1A PUSH1 0x20 MSTORE PUSH1 0x40 SWAP1 KECCAK256 SLOAD SWAP1 SWAP2 POP PUSH2 0x1705 SWAP1 DUP3 PUSH2 0x1A54 JUMP JUMPDEST PUSH1 0x1 PUSH1 0x1 PUSH1 0xA0 SHL SUB DUP8 AND PUSH1 0x0 SWAP1 DUP2 MSTORE PUSH1 0x1A PUSH1 0x20 MSTORE PUSH1 0x40 SWAP1 KECCAK256 SSTORE PUSH2 0x172C PUSH2 0x799 DUP3 PUSH1 0x2 PUSH2 0x1854 JUMP JUMPDEST PUSH1 0x2 SLOAD PUSH1 0x1 PUSH1 0x1 PUSH1 0xA0 SHL SUB AND PUSH1 0x0 SWAP1 DUP2 MSTORE PUSH1 0x1A PUSH1 0x20 MSTORE PUSH1 0x40 SWAP1 KECCAK256 SSTORE PUSH1 0x19 SLOAD PUSH2 0x1754 SWAP1 DUP3 PUSH2 0x1A54 JUMP JUMPDEST PUSH1 0x19 SSTORE TIMESTAMP PUSH1 0x11 SSTORE PUSH1 0x1C SLOAD ISZERO PUSH2 0x17FB JUMPI PUSH1 0x3 SLOAD PUSH1 0x1C SLOAD PUSH1 0x14 SLOAD PUSH1 0x1 PUSH1 0x1 PUSH1 0xA0 SHL SUB SWAP1 SWAP3 AND SWAP2 PUSH4 0xA9059CBB SWAP2 DUP10 SWAP2 PUSH2 0x178A SWAP2 SWAP1 PUSH2 0x2243 JUMP JUMPDEST PUSH1 0x40 MLOAD PUSH1 0x1 PUSH1 0x1 PUSH1 0xE0 SHL SUB NOT PUSH1 0xE0 DUP6 SWAP1 SHL AND DUP2 MSTORE PUSH1 0x1 PUSH1 0x1 PUSH1 0xA0 SHL SUB SWAP1 SWAP3 AND PUSH1 0x4 DUP4 ADD MSTORE PUSH1 0x24 DUP3 ADD MSTORE PUSH1 0x44 ADD PUSH1 0x20 PUSH1 0x40 MLOAD DUP1 DUP4 SUB DUP2 PUSH1 0x0 DUP8 GAS CALL ISZERO DUP1 ISZERO PUSH2 0x17D5 JUMPI RETURNDATASIZE PUSH1 0x0 DUP1 RETURNDATACOPY RETURNDATASIZE PUSH1 0x0 REVERT JUMPDEST POP POP POP POP PUSH1 0x40 MLOAD RETURNDATASIZE PUSH1 0x1F NOT PUSH1 0x1F DUP3 ADD AND DUP3 ADD DUP1 PUSH1 0x40 MSTORE POP DUP2 ADD SWAP1 PUSH2 0x17F9 SWAP2 SWAP1 PUSH2 0x227D JUMP JUMPDEST POP JUMPDEST PUSH1 0xF SLOAD PUSH1 0x7 SLOAD PUSH1 0xC SLOAD PUSH1 0x40 DUP1 MLOAD SWAP4 DUP5 MSTORE PUSH1 0x20 DUP5 ADD SWAP3 SWAP1 SWAP3 MSTORE SWAP1 DUP3 ADD MSTORE CALLER SWAP1 PUSH32 0xCF6FBB9DCEA7D07263AB4F5C3A92F53AF33DFFC421D9D121E1C74B307E68189D SWAP1 PUSH1 0x60 ADD PUSH1 0x40 MLOAD DUP1 SWAP2 SUB SWAP1 LOG2 POP PUSH1 0x1 SWAP8 SWAP7 POP POP POP POP POP POP POP JUMP JUMPDEST PUSH1 0x0 DUP2 PUSH2 0x1891 JUMPI PUSH1 0x40 MLOAD PUSH3 0x461BCD PUSH1 0xE5 SHL DUP2 MSTORE PUSH1 0x20 PUSH1 0x4 DUP3 ADD MSTORE PUSH1 0xB PUSH1 0x24 DUP3 ADD MSTORE PUSH11 0x446976206279207A65726F PUSH1 0xA8 SHL PUSH1 0x44 DUP3 ADD MSTORE PUSH1 0x64 ADD PUSH2 0x923 JUMP JUMPDEST PUSH2 0x189B DUP3 DUP5 PUSH2 0x23E4 JUMP JUMPDEST SWAP4 SWAP3 POP POP POP JUMP JUMPDEST PUSH1 0xE SLOAD PUSH1 0xF SLOAD PUSH1 0x19 SLOAD PUSH2 0x18B4 SWAP2 PUSH2 0x1A54 JUMP JUMPDEST GT DUP1 ISZERO PUSH2 0x18C3 JUMPI POP PUSH1 0x27 PUSH1 0xD SLOAD LT JUMPDEST ISZERO PUSH2 0x18F7 JUMPI PUSH1 0xD SLOAD PUSH2 0x18D6 SWAP1 PUSH1 0x1 PUSH2 0x22B0 JUMP JUMPDEST PUSH1 0xD DUP2 SWAP1 SSTORE PUSH2 0x18F3 SWAP1 PUSH2 0x18EA SWAP1 PUSH1 0x2 PUSH2 0x23C2 JUMP JUMPDEST PUSH1 0xB SLOAD SWAP1 PUSH2 0x1854 JUMP JUMPDEST PUSH1 0xB SSTORE JUMPDEST PUSH1 0x7 SLOAD PUSH2 0x1905 SWAP1 PUSH1 0x1 PUSH2 0x1A54 JUMP JUMPDEST PUSH1 0x7 SSTORE PUSH1 0x8 SLOAD PUSH2 0x1917 SWAP1 PUSH1 0x4 SWAP1 PUSH2 0x23E4 JUMP JUMPDEST PUSH1 0x7 SLOAD PUSH2 0x1924 SWAP2 SWAP1 PUSH2 0x2420 JUMP JUMPDEST PUSH2 0x1A43 JUMPI PUSH2 0x1930 PUSH2 0x13C9 JUMP JUMPDEST PUSH2 0x1956 PUSH1 0xD SLOAD PUSH1 0x1 PUSH2 0x1942 SWAP2 SWAP1 PUSH2 0x22B0 JUMP JUMPDEST PUSH2 0x194D SWAP1 PUSH1 0x2 PUSH2 0x23C2 JUMP JUMPDEST PUSH1 0x5 SLOAD SWAP1 PUSH2 0x1854 JUMP JUMPDEST PUSH1 0x5 SLOAD PUSH2 0x1963 SWAP2 SWAP1 PUSH2 0x222C JUMP JUMPDEST PUSH1 0xE SSTORE PUSH1 0x8 SLOAD PUSH1 0x7 SLOAD PUSH2 0x1976 SWAP2 SWAP1 PUSH2 0x2420 JUMP JUMPDEST PUSH2 0x1A43 JUMPI PUSH1 0x14 SLOAD PUSH1 0x3 SLOAD PUSH1 0x40 MLOAD PUSH4 0x70A08231 PUSH1 0xE0 SHL DUP2 MSTORE ADDRESS PUSH1 0x4 DUP3 ADD MSTORE PUSH2 0x2710 SWAP3 SWAP2 PUSH1 0x1 PUSH1 0x1 PUSH1 0xA0 SHL SUB AND SWAP1 PUSH4 0x70A08231 SWAP1 PUSH1 0x24 ADD PUSH1 0x20 PUSH1 0x40 MLOAD DUP1 DUP4 SUB DUP2 DUP7 GAS STATICCALL ISZERO DUP1 ISZERO PUSH2 0x19C8 JUMPI RETURNDATASIZE PUSH1 0x0 DUP1 RETURNDATACOPY RETURNDATASIZE PUSH1 0x0 REVERT JUMPDEST POP POP POP POP PUSH1 0x40 MLOAD RETURNDATASIZE PUSH1 0x1F NOT PUSH1 0x1F DUP3 ADD AND DUP3 ADD DUP1 PUSH1 0x40 MSTORE POP DUP2 ADD SWAP1 PUSH2 0x19EC SWAP2 SWAP1 PUSH2 0x2434 JUMP JUMPDEST PUSH2 0x19F6 SWAP2 SWAP1 PUSH2 0x23E4 JUMP JUMPDEST GT PUSH2 0x1A29 JUMPI PUSH1 0x15 SLOAD PUSH1 0x14 SLOAD PUSH2 0x1A0C SWAP1 PUSH1 0x2 PUSH2 0x1854 JUMP JUMPDEST GT ISZERO PUSH2 0x1A24 JUMPI PUSH1 0x14 SLOAD PUSH2 0x1A20 SWAP1 PUSH1 0x2 PUSH2 0x1854 JUMP JUMPDEST PUSH1 0x14 SSTORE JUMPDEST PUSH2 0x1A3B JUMP JUMPDEST PUSH1 0x14 SLOAD PUSH2 0x1A37 SWAP1 PUSH1 0x3 PUSH2 0x1B5B JUMP JUMPDEST PUSH1 0x14 SSTORE JUMPDEST PUSH2 0x1A43 PUSH2 0x1BC0 JUMP JUMPDEST PUSH2 0x1A4E PUSH1 0x1 NUMBER PUSH2 0x222C JUMP JUMPDEST BLOCKHASH PUSH1 0xC SSTORE JUMP JUMPDEST PUSH1 0x0 DUP1 PUSH2 0x1A61 DUP4 DUP6 PUSH2 0x22B0 JUMP JUMPDEST SWAP1 POP DUP4 DUP2 LT ISZERO PUSH2 0x189B JUMPI PUSH1 0x40 MLOAD PUSH3 0x461BCD PUSH1 0xE5 SHL DUP2 MSTORE PUSH1 0x20 PUSH1 0x4 DUP3 ADD MSTORE PUSH1 0xC PUSH1 0x24 DUP3 ADD MSTORE PUSH12 0x416464206F766572666C6F77 PUSH1 0xA0 SHL PUSH1 0x44 DUP3 ADD MSTORE PUSH1 0x64 ADD PUSH2 0x923 JUMP JUMPDEST PUSH1 0x0 DUP2 DUP4 LT ISZERO PUSH2 0x1AE4 JUMPI PUSH1 0x40 MLOAD PUSH3 0x461BCD PUSH1 0xE5 SHL DUP2 MSTORE PUSH1 0x20 PUSH1 0x4 DUP3 ADD MSTORE PUSH1 0xD PUSH1 0x24 DUP3 ADD MSTORE PUSH13 0x53756220756E646572666C6F77 PUSH1 0x98 SHL PUSH1 0x44 DUP3 ADD MSTORE PUSH1 0x64 ADD PUSH2 0x923 JUMP JUMPDEST PUSH2 0x189B DUP3 DUP5 PUSH2 0x222C JUMP JUMPDEST PUSH1 0x0 DUP2 PUSH2 0x1B2B JUMPI PUSH1 0x40 MLOAD PUSH3 0x461BCD PUSH1 0xE5 SHL DUP2 MSTORE PUSH1 0x20 PUSH1 0x4 DUP3 ADD MSTORE PUSH1 0xB PUSH1 0x24 DUP3 ADD MSTORE PUSH11 0x446976206279207A65726F PUSH1 0xA8 SHL PUSH1 0x44 DUP3 ADD MSTORE PUSH1 0x64 ADD PUSH2 0x923 JUMP JUMPDEST PUSH1 0x0 PUSH2 0x1B37 DUP4 DUP6 PUSH2 0x23E4 JUMP JUMPDEST SWAP1 POP PUSH2 0x1B43 DUP4 DUP6 PUSH2 0x2420 JUMP JUMPDEST ISZERO PUSH2 0x189B JUMPI PUSH2 0x1B53 DUP2 PUSH1 0x1 PUSH2 0x22B0 JUMP JUMPDEST SWAP5 SWAP4 POP POP POP POP JUMP JUMPDEST PUSH1 0x0 DUP3 PUSH2 0x1B6A JUMPI POP PUSH1 0x0 PUSH2 0x6DA JUMP JUMPDEST PUSH1 0x0 PUSH2 0x1B76 DUP4 DUP6 PUSH2 0x2243 JUMP JUMPDEST SWAP1 POP DUP3 PUSH2 0x1B83 DUP6 DUP4 PUSH2 0x23E4 JUMP JUMPDEST EQ PUSH2 0x189B JUMPI PUSH1 0x40 MLOAD PUSH3 0x461BCD PUSH1 0xE5 SHL DUP2 MSTORE PUSH1 0x20 PUSH1 0x4 DUP3 ADD MSTORE PUSH1 0xD PUSH1 0x24 DUP3 ADD MSTORE PUSH13 0x4D756C74206F766572666C6F77 PUSH1 0x98 SHL PUSH1 0x44 DUP3 ADD MSTORE PUSH1 0x64 ADD PUSH2 0x923 JUMP JUMPDEST PUSH1 0x6 SLOAD TIMESTAMP SWAP1 PUSH1 0x0 SWAP1 PUSH2 0x1BD2 SWAP1 DUP4 PUSH2 0x222C JUMP JUMPDEST PUSH1 0x8 SLOAD SWAP1 SWAP2 POP PUSH1 0x0 PUSH2 0x1BE6 DUP3 PUSH2 0x870 PUSH2 0x2243 JUMP JUMPDEST SWAP1 POP DUP1 DUP4 LT ISZERO PUSH2 0x1C5B JUMPI PUSH1 0x0 PUSH2 0x1C01 DUP5 PUSH2 0x726 DUP5 PUSH1 0x64 PUSH2 0x1B5B JUMP JUMPDEST PUSH1 0x1 PUSH1 0x1D SSTORE SWAP1 POP PUSH1 0x0 PUSH2 0x1C21 PUSH2 0x3E8 PUSH2 0x1C1B DUP5 PUSH1 0x64 PUSH2 0x1AA2 JUMP JUMPDEST SWAP1 PUSH2 0x1CE6 JUMP JUMPDEST SWAP1 POP PUSH2 0x1C50 PUSH2 0x1C47 DUP3 PUSH2 0x1C41 PUSH2 0x7D0 PUSH1 0xB SLOAD PUSH2 0x1854 SWAP1 SWAP2 SWAP1 PUSH4 0xFFFFFFFF AND JUMP JUMPDEST SWAP1 PUSH2 0x1B5B JUMP JUMPDEST PUSH1 0xB SLOAD SWAP1 PUSH2 0x1AA2 JUMP JUMPDEST PUSH1 0xB SSTORE POP PUSH2 0x1CB5 SWAP1 POP JUMP JUMPDEST PUSH1 0x0 PUSH2 0x1C6C DUP3 PUSH2 0x726 DUP7 PUSH1 0x64 PUSH2 0x1B5B JUMP JUMPDEST PUSH1 0x2 PUSH1 0x1D SSTORE SWAP1 POP PUSH1 0x0 PUSH2 0x1C86 PUSH2 0x3E8 PUSH2 0x1C1B DUP5 PUSH1 0x64 PUSH2 0x1AA2 JUMP JUMPDEST SWAP1 POP PUSH2 0x1CAF PUSH2 0x1CA6 DUP3 PUSH2 0x1C41 PUSH2 0x7D0 PUSH1 0xB SLOAD PUSH2 0x1854 SWAP1 SWAP2 SWAP1 PUSH4 0xFFFFFFFF AND JUMP JUMPDEST PUSH1 0xB SLOAD SWAP1 PUSH2 0x1A54 JUMP JUMPDEST PUSH1 0xB SSTORE POP POP JUMPDEST PUSH1 0x6 DUP5 SWAP1 SSTORE PUSH1 0x9 SLOAD PUSH1 0xB SLOAD LT ISZERO PUSH2 0x1CCD JUMPI PUSH1 0x9 SLOAD PUSH1 0xB SSTORE JUMPDEST PUSH1 0xA SLOAD PUSH1 0xB SLOAD GT ISZERO PUSH2 0x1CE0 JUMPI PUSH1 0xA SLOAD PUSH1 0xB SSTORE JUMPDEST POP POP POP POP JUMP JUMPDEST PUSH1 0x0 DUP2 DUP4 GT ISZERO PUSH2 0x1CF7 JUMPI POP DUP1 PUSH2 0x6DA JUMP JUMPDEST POP SWAP1 SWAP2 SWAP1 POP JUMP JUMPDEST PUSH1 0x0 PUSH1 0x20 DUP1 DUP4 MSTORE DUP4 MLOAD DUP1 DUP3 DUP6 ADD MSTORE PUSH1 0x0 JUMPDEST DUP2 DUP2 LT ISZERO PUSH2 0x1D2B JUMPI DUP6 DUP2 ADD DUP4 ADD MLOAD DUP6 DUP3 ADD PUSH1 0x40 ADD MSTORE DUP3 ADD PUSH2 0x1D0F JUMP JUMPDEST DUP2 DUP2 GT ISZERO PUSH2 0x1D3D JUMPI PUSH1 0x0 PUSH1 0x40 DUP4 DUP8 ADD ADD MSTORE JUMPDEST POP PUSH1 0x1F ADD PUSH1 0x1F NOT AND SWAP3 SWAP1 SWAP3 ADD PUSH1 0x40 ADD SWAP4 SWAP3 POP POP POP JUMP JUMPDEST DUP1 CALLDATALOAD PUSH1 0x1 PUSH1 0x1 PUSH1 0xA0 SHL SUB DUP2 AND DUP2 EQ PUSH2 0x1D6A JUMPI PUSH1 0x0 DUP1 REVERT JUMPDEST SWAP2 SWAP1 POP JUMP JUMPDEST PUSH1 0x0 DUP1 PUSH1 0x40 DUP4 DUP6 SUB SLT ISZERO PUSH2 0x1D82 JUMPI PUSH1 0x0 DUP1 REVERT JUMPDEST PUSH2 0x1D8B DUP4 PUSH2 0x1D53 JUMP JUMPDEST SWAP5 PUSH1 0x20 SWAP4 SWAP1 SWAP4 ADD CALLDATALOAD SWAP4 POP POP POP JUMP JUMPDEST DUP1 ISZERO ISZERO DUP2 EQ PUSH2 0x1DA7 JUMPI PUSH1 0x0 DUP1 REVERT JUMPDEST POP JUMP JUMPDEST PUSH1 0x0 DUP1 PUSH1 0x40 DUP4 DUP6 SUB SLT ISZERO PUSH2 0x1DBD JUMPI PUSH1 0x0 DUP1 REVERT JUMPDEST DUP3 CALLDATALOAD PUSH2 0x1DC8 DUP2 PUSH2 0x1D99 JUMP JUMPDEST SWAP2 POP PUSH1 0x20 DUP4 ADD CALLDATALOAD PUSH2 0x1DD8 DUP2 PUSH2 0x1D99 JUMP JUMPDEST DUP1 SWAP2 POP POP SWAP3 POP SWAP3 SWAP1 POP JUMP JUMPDEST PUSH1 0x0 DUP1 PUSH1 0x40 DUP4 DUP6 SUB SLT ISZERO PUSH2 0x1DF6 JUMPI PUSH1 0x0 DUP1 REVERT JUMPDEST POP POP DUP1 CALLDATALOAD SWAP3 PUSH1 0x20 SWAP1 SWAP2 ADD CALLDATALOAD SWAP2 POP JUMP JUMPDEST PUSH4 0x4E487B71 PUSH1 0xE0 SHL PUSH1 0x0 MSTORE PUSH1 0x41 PUSH1 0x4 MSTORE PUSH1 0x24 PUSH1 0x0 REVERT JUMPDEST PUSH1 0x40 MLOAD PUSH1 0x1F DUP3 ADD PUSH1 0x1F NOT AND DUP2 ADD PUSH8 0xFFFFFFFFFFFFFFFF DUP2 GT DUP3 DUP3 LT OR ISZERO PUSH2 0x1E44 JUMPI PUSH2 0x1E44 PUSH2 0x1E05 JUMP JUMPDEST PUSH1 0x40 MSTORE SWAP2 SWAP1 POP JUMP JUMPDEST PUSH1 0x0 DUP3 PUSH1 0x1F DUP4 ADD SLT PUSH2 0x1E5D JUMPI PUSH1 0x0 DUP1 REVERT JUMPDEST DUP2 CALLDATALOAD PUSH1 0x20 PUSH8 0xFFFFFFFFFFFFFFFF DUP3 GT ISZERO PUSH2 0x1E79 JUMPI PUSH2 0x1E79 PUSH2 0x1E05 JUMP JUMPDEST DUP2 PUSH1 0x5 SHL PUSH2 0x1E88 DUP3 DUP3 ADD PUSH2 0x1E1B JUMP JUMPDEST SWAP3 DUP4 MSTORE DUP5 DUP2 ADD DUP3 ADD SWAP3 DUP3 DUP2 ADD SWAP1 DUP8 DUP6 GT ISZERO PUSH2 0x1EA2 JUMPI PUSH1 0x0 DUP1 REVERT JUMPDEST DUP4 DUP8 ADD SWAP3 POP JUMPDEST DUP5 DUP4 LT ISZERO PUSH2 0x1EC8 JUMPI PUSH2 0x1EB9 DUP4 PUSH2 0x1D53 JUMP JUMPDEST DUP3 MSTORE SWAP2 DUP4 ADD SWAP2 SWAP1 DUP4 ADD SWAP1 PUSH2 0x1EA8 JUMP JUMPDEST SWAP8 SWAP7 POP POP POP POP POP POP POP JUMP JUMPDEST PUSH1 0x0 DUP1 PUSH1 0x0 DUP1 PUSH1 0x80 DUP6 DUP8 SUB SLT ISZERO PUSH2 0x1EE9 JUMPI PUSH1 0x0 DUP1 REVERT JUMPDEST DUP5 CALLDATALOAD SWAP4 POP PUSH1 0x20 DUP6 ADD CALLDATALOAD SWAP3 POP PUSH1 0x40 DUP6 ADD CALLDATALOAD PUSH8 0xFFFFFFFFFFFFFFFF DUP2 GT ISZERO PUSH2 0x1F0E JUMPI PUSH1 0x0 DUP1 REVERT JUMPDEST PUSH2 0x1F1A DUP8 DUP3 DUP9 ADD PUSH2 0x1E4C JUMP JUMPDEST SWAP3 POP POP PUSH2 0x1F29 PUSH1 0x60 DUP7 ADD PUSH2 0x1D53 JUMP JUMPDEST SWAP1 POP SWAP3 SWAP6 SWAP2 SWAP5 POP SWAP3 POP JUMP JUMPDEST PUSH1 0x0 DUP1 PUSH1 0x0 PUSH1 0x60 DUP5 DUP7 SUB SLT ISZERO PUSH2 0x1F49 JUMPI PUSH1 0x0 DUP1 REVERT JUMPDEST PUSH2 0x1F52 DUP5 PUSH2 0x1D53 JUMP JUMPDEST SWAP3 POP PUSH2 0x1F60 PUSH1 0x20 DUP6 ADD PUSH2 0x1D53 JUMP JUMPDEST SWAP2 POP PUSH1 0x40 DUP5 ADD CALLDATALOAD SWAP1 POP SWAP3 POP SWAP3 POP SWAP3 JUMP JUMPDEST PUSH1 0x0 DUP1 PUSH1 0x0 PUSH1 0x60 DUP5 DUP7 SUB SLT ISZERO PUSH2 0x1F85 JUMPI PUSH1 0x0 DUP1 REVERT JUMPDEST PUSH2 0x1F8E DUP5 PUSH2 0x1D53 JUMP JUMPDEST SWAP3 POP PUSH2 0x1F9C PUSH1 0x20 DUP6 ADD PUSH2 0x1D53 JUMP JUMPDEST SWAP2 POP PUSH2 0x1FAA PUSH1 0x40 DUP6 ADD PUSH2 0x1D53 JUMP JUMPDEST SWAP1 POP SWAP3 POP SWAP3 POP SWAP3 JUMP JUMPDEST PUSH1 0x0 PUSH1 0x20 DUP3 DUP5 SUB SLT ISZERO PUSH2 0x1FC5 JUMPI PUSH1 0x0 DUP1 REVERT JUMPDEST POP CALLDATALOAD SWAP2 SWAP1 POP JUMP JUMPDEST PUSH1 0x0 PUSH1 0x20 DUP3 DUP5 SUB SLT ISZERO PUSH2 0x1FDE JUMPI PUSH1 0x0 DUP1 REVERT JUMPDEST PUSH2 0x189B DUP3 PUSH2 0x1D53 JUMP JUMPDEST PUSH1 0x0 DUP1 PUSH1 0x0 DUP1 PUSH1 0x80 DUP6 DUP8 SUB SLT ISZERO PUSH2 0x1FFD JUMPI PUSH1 0x0 DUP1 REVERT JUMPDEST POP POP DUP3 CALLDATALOAD SWAP5 PUSH1 0x20 DUP5 ADD CALLDATALOAD SWAP5 POP PUSH1 0x40 DUP5 ADD CALLDATALOAD SWAP4 PUSH1 0x60 ADD CALLDATALOAD SWAP3 POP SWAP1 POP JUMP JUMPDEST PUSH1 0x0 DUP1 PUSH1 0x0 DUP1 PUSH1 0x80 DUP6 DUP8 SUB SLT ISZERO PUSH2 0x202F JUMPI PUSH1 0x0 DUP1 REVERT JUMPDEST PUSH2 0x2038 DUP6 PUSH2 0x1D53 JUMP JUMPDEST SWAP4 POP PUSH1 0x20 DUP1 DUP7 ADD CALLDATALOAD SWAP4 POP PUSH2 0x204E PUSH1 0x40 DUP8 ADD PUSH2 0x1D53 JUMP JUMPDEST SWAP3 POP PUSH1 0x60 DUP7 ADD CALLDATALOAD PUSH8 0xFFFFFFFFFFFFFFFF DUP1 DUP3 GT ISZERO PUSH2 0x206B JUMPI PUSH1 0x0 DUP1 REVERT JUMPDEST DUP2 DUP9 ADD SWAP2 POP DUP9 PUSH1 0x1F DUP4 ADD SLT PUSH2 0x207F JUMPI PUSH1 0x0 DUP1 REVERT JUMPDEST DUP2 CALLDATALOAD DUP2 DUP2 GT ISZERO PUSH2 0x2091 JUMPI PUSH2 0x2091 PUSH2 0x1E05 JUMP JUMPDEST PUSH2 0x20A3 PUSH1 0x1F DUP3 ADD PUSH1 0x1F NOT AND DUP6 ADD PUSH2 0x1E1B JUMP JUMPDEST SWAP2 POP DUP1 DUP3 MSTORE DUP10 DUP5 DUP3 DUP6 ADD ADD GT ISZERO PUSH2 0x20B9 JUMPI PUSH1 0x0 DUP1 REVERT JUMPDEST DUP1 DUP5 DUP5 ADD DUP6 DUP5 ADD CALLDATACOPY PUSH1 0x0 DUP5 DUP3 DUP5 ADD ADD MSTORE POP DUP1 SWAP4 POP POP POP POP SWAP3 SWAP6 SWAP2 SWAP5 POP SWAP3 POP JUMP JUMPDEST PUSH1 0x0 DUP1 PUSH1 0x0 PUSH1 0x60 DUP5 DUP7 SUB SLT ISZERO PUSH2 0x20EE JUMPI PUSH1 0x0 DUP1 REVERT JUMPDEST POP POP DUP2 CALLDATALOAD SWAP4 PUSH1 0x20 DUP4 ADD CALLDATALOAD SWAP4 POP PUSH1 0x40 SWAP1 SWAP3 ADD CALLDATALOAD SWAP2 SWAP1 POP JUMP JUMPDEST PUSH1 0x0 DUP1 PUSH1 0x0 DUP1 PUSH1 0x80 DUP6 DUP8 SUB SLT ISZERO PUSH2 0x211B JUMPI PUSH1 0x0 DUP1 REVERT JUMPDEST DUP5 CALLDATALOAD SWAP4 POP PUSH1 0x20 DUP6 ADD CALLDATALOAD SWAP3 POP PUSH1 0x40 DUP6 ADD CALLDATALOAD PUSH8 0xFFFFFFFFFFFFFFFF DUP1 DUP3 GT ISZERO PUSH2 0x2141 JUMPI PUSH1 0x0 DUP1 REVERT JUMPDEST PUSH2 0x214D DUP9 DUP4 DUP10 ADD PUSH2 0x1E4C JUMP JUMPDEST SWAP4 POP PUSH1 0x60 DUP8 ADD CALLDATALOAD SWAP2 POP DUP1 DUP3 GT ISZERO PUSH2 0x2163 JUMPI PUSH1 0x0 DUP1 REVERT JUMPDEST POP PUSH2 0x2170 DUP8 DUP3 DUP9 ADD PUSH2 0x1E4C JUMP JUMPDEST SWAP2 POP POP SWAP3 SWAP6 SWAP2 SWAP5 POP SWAP3 POP JUMP JUMPDEST PUSH1 0x0 DUP1 PUSH1 0x40 DUP4 DUP6 SUB SLT ISZERO PUSH2 0x218F JUMPI PUSH1 0x0 DUP1 REVERT JUMPDEST PUSH2 0x2198 DUP4 PUSH2 0x1D53 JUMP JUMPDEST SWAP2 POP PUSH2 0x21A6 PUSH1 0x20 DUP5 ADD PUSH2 0x1D53 JUMP JUMPDEST SWAP1 POP SWAP3 POP SWAP3 SWAP1 POP JUMP JUMPDEST PUSH1 0x0 DUP1 PUSH1 0x0 PUSH1 0x60 DUP5 DUP7 SUB SLT ISZERO PUSH2 0x21C4 JUMPI PUSH1 0x0 DUP1 REVERT JUMPDEST DUP4 CALLDATALOAD SWAP3 POP PUSH1 0x20 DUP5 ADD CALLDATALOAD SWAP2 POP PUSH2 0x1FAA PUSH1 0x40 DUP6 ADD PUSH2 0x1D53 JUMP JUMPDEST PUSH1 0x1 DUP2 DUP2 SHR SWAP1 DUP3 AND DUP1 PUSH2 0x21EF JUMPI PUSH1 0x7F DUP3 AND SWAP2 POP JUMPDEST PUSH1 0x20 DUP3 LT DUP2 EQ ISZERO PUSH2 0x2210 JUMPI PUSH4 0x4E487B71 PUSH1 0xE0 SHL PUSH1 0x0 MSTORE PUSH1 0x22 PUSH1 0x4 MSTORE PUSH1 0x24 PUSH1 0x0 REVERT JUMPDEST POP SWAP2 SWAP1 POP JUMP JUMPDEST PUSH4 0x4E487B71 PUSH1 0xE0 SHL PUSH1 0x0 MSTORE PUSH1 0x11 PUSH1 0x4 MSTORE PUSH1 0x24 PUSH1 0x0 REVERT JUMPDEST PUSH1 0x0 DUP3 DUP3 LT ISZERO PUSH2 0x223E JUMPI PUSH2 0x223E PUSH2 0x2216 JUMP JUMPDEST POP SUB SWAP1 JUMP JUMPDEST PUSH1 0x0 DUP2 PUSH1 0x0 NOT DIV DUP4 GT DUP3 ISZERO ISZERO AND ISZERO PUSH2 0x225D JUMPI PUSH2 0x225D PUSH2 0x2216 JUMP JUMPDEST POP MUL SWAP1 JUMP JUMPDEST PUSH1 0x0 PUSH1 0x0 NOT DUP3 EQ ISZERO PUSH2 0x2276 JUMPI PUSH2 0x2276 PUSH2 0x2216 JUMP JUMPDEST POP PUSH1 0x1 ADD SWAP1 JUMP JUMPDEST PUSH1 0x0 PUSH1 0x20 DUP3 DUP5 SUB SLT ISZERO PUSH2 0x228F JUMPI PUSH1 0x0 DUP1 REVERT JUMPDEST DUP2 MLOAD PUSH2 0x189B DUP2 PUSH2 0x1D99 JUMP JUMPDEST PUSH4 0x4E487B71 PUSH1 0xE0 SHL PUSH1 0x0 MSTORE PUSH1 0x1 PUSH1 0x4 MSTORE PUSH1 0x24 PUSH1 0x0 REVERT JUMPDEST PUSH1 0x0 DUP3 NOT DUP3 GT ISZERO PUSH2 0x22C3 JUMPI PUSH2 0x22C3 PUSH2 0x2216 JUMP JUMPDEST POP ADD SWAP1 JUMP JUMPDEST PUSH4 0x4E487B71 PUSH1 0xE0 SHL PUSH1 0x0 MSTORE PUSH1 0x32 PUSH1 0x4 MSTORE PUSH1 0x24 PUSH1 0x0 REVERT JUMPDEST PUSH1 0x1 DUP2 DUP2 JUMPDEST DUP1 DUP6 GT ISZERO PUSH2 0x2319 JUMPI DUP2 PUSH1 0x0 NOT DIV DUP3 GT ISZERO PUSH2 0x22FF JUMPI PUSH2 0x22FF PUSH2 0x2216 JUMP JUMPDEST DUP1 DUP6 AND ISZERO PUSH2 0x230C JUMPI SWAP2 DUP2 MUL SWAP2 JUMPDEST SWAP4 DUP5 SHR SWAP4 SWAP1 DUP1 MUL SWAP1 PUSH2 0x22E3 JUMP JUMPDEST POP SWAP3 POP SWAP3 SWAP1 POP JUMP JUMPDEST PUSH1 0x0 DUP3 PUSH2 0x2330 JUMPI POP PUSH1 0x1 PUSH2 0x6DA JUMP JUMPDEST DUP2 PUSH2 0x233D JUMPI POP PUSH1 0x0 PUSH2 0x6DA JUMP JUMPDEST DUP2 PUSH1 0x1 DUP2 EQ PUSH2 0x2353 JUMPI PUSH1 0x2 DUP2 EQ PUSH2 0x235D JUMPI PUSH2 0x2379 JUMP JUMPDEST PUSH1 0x1 SWAP2 POP POP PUSH2 0x6DA JUMP JUMPDEST PUSH1 0xFF DUP5 GT ISZERO PUSH2 0x236E JUMPI PUSH2 0x236E PUSH2 0x2216 JUMP JUMPDEST POP POP PUSH1 0x1 DUP3 SHL PUSH2 0x6DA JUMP JUMPDEST POP PUSH1 0x20 DUP4 LT PUSH2 0x133 DUP4 LT AND PUSH1 0x4E DUP5 LT PUSH1 0xB DUP5 LT AND OR ISZERO PUSH2 0x239C JUMPI POP DUP2 DUP2 EXP PUSH2 0x6DA JUMP JUMPDEST PUSH2 0x23A6 DUP4 DUP4 PUSH2 0x22DE JUMP JUMPDEST DUP1 PUSH1 0x0 NOT DIV DUP3 GT ISZERO PUSH2 0x23BA JUMPI PUSH2 0x23BA PUSH2 0x2216 JUMP JUMPDEST MUL SWAP4 SWAP3 POP POP POP JUMP JUMPDEST PUSH1 0x0 PUSH2 0x189B DUP4 DUP4 PUSH2 0x2321 JUMP JUMPDEST PUSH4 0x4E487B71 PUSH1 0xE0 SHL PUSH1 0x0 MSTORE PUSH1 0x12 PUSH1 0x4 MSTORE PUSH1 0x24 PUSH1 0x0 REVERT JUMPDEST PUSH1 0x0 DUP3 PUSH2 0x23F3 JUMPI PUSH2 0x23F3 PUSH2 0x23CE JUMP JUMPDEST POP DIV SWAP1 JUMP JUMPDEST SWAP3 DUP4 MSTORE PUSH1 0x60 SWAP2 SWAP1 SWAP2 SHL PUSH12 0xFFFFFFFFFFFFFFFFFFFFFFFF NOT AND PUSH1 0x20 DUP4 ADD MSTORE PUSH1 0x34 DUP3 ADD MSTORE PUSH1 0x54 ADD SWAP1 JUMP JUMPDEST PUSH1 0x0 DUP3 PUSH2 0x242F JUMPI PUSH2 0x242F PUSH2 0x23CE JUMP JUMPDEST POP MOD SWAP1 JUMP JUMPDEST PUSH1 0x0 PUSH1 0x20 DUP3 DUP5 SUB SLT ISZERO PUSH2 0x2446 JUMPI PUSH1 0x0 DUP1 REVERT JUMPDEST POP MLOAD SWAP2 SWAP1 POP JUMP INVALID 0xDD CALLCODE MSTORE 0xAD SHL 0xE2 0xC8 SWAP12 PUSH10 0xC2B068FC378DAA952BA7 CALL PUSH4 0xC4A11628 CREATE2 GAS 0x4D CREATE2 0x23 0xB3 0xEF LOG2 PUSH5 0x6970667358 0x22 SLT KECCAK256 REVERT 0xC CALLDATASIZE CALLDATALOAD SWAP15 0x2D 0xE5 JUMPDEST MSIZE 0xD4 0x2F 0x2F STOP TIMESTAMP PUSH15 0x70A0971F66B56EA67BF7B4D63560D2 SGT 0xD0 PUSH5 0x736F6C6343 STOP ADDMOD SIGNEXTEND STOP CALLER ",
  "sha1": "3933295430107bc64fbd745f1e69acbf940f38a2",
  "source": "// Forge - Proof of Work Mining Contract\n// MUST REMOVE AOPENMINT\n// Distrubtion of Forge Token is as follows:\n// 25% of Forge Token is Auctioned in the ForgeAuctions Contract which distributes tokens to users who use 0xBitcoin to buy tokens in fair price. Each auction lasts ~3 days. Using the Auctions contract\n// +\n// 25% of Forge Token is distributed as Liquidiy Pool rewards in the ForgeRewards Contract which distributes tokens to users who deposit the SpiritSwap Liquidity Pool tokens into the LPRewards contract.\n// +\n// 50% of Forge Token is distributed using ForgeMining Contract(this Contract) which distributes tokens to users by using GPUs/FPGAs to solve a complicated problem to gain tokens!  Uses this contract\n//\n// = 100% Of the Token is distributed to the users! No dev fee or premine!\n//\n// All distributions happen fairly using Bitcoins model of distribution for over 100+ years, on-chain, decentralized, trustless, ownerless contracts!\n//\n// Network: Polygon Chain \n// ChainID = 89\n//\n//\n// Name: Forge\n// Symbol: Frg\n// Decimals: 18 \n//\n// Total supply: 42,000,001.000000000000000000\n//   =\n// 21,000,000 Mined over 100+ years using Bitcoins Distrubtion halvings every 4 years. Uses Proof-oF-Work to distribute the tokens. Public Miner is available.  Uses this contract.\n//   +\n// 10,500,000 Auctioned over 100+ years into 4 day auctions split fairly among all buyers. ALL 0xBitcoin proceeds go into THIS contract which it fairly distributes to miners.  Uses the ForgeAuctions contract\n//   +\n// 10,500,000 tokens goes to Liquidity Providers of the token over 100+ year using Bitcoins distribution!  Helps prevent LP losses!  Uses the ForgeRewards Contract\n//\n//  =\n//\n// 42,000,001 Tokens is the max Supply\n//      \n// 50% of the 0xBitcoin Token from this contract goes to the Miner to pay for the transaction cost and if the token grows enough earn 0xBitcoin per mint!!\n// 50% of the 0xBitcoin TOken from this contract goes to the Liquidity Providers via ForgeRewards Contract.  Helps prevent Impermant Loss! Larger Liquidity!\n//\n// No premine, dev cut, or advantage taken at launch. Public miner available at launch.  100% of the token is given away fairly over 100+ years using Bitcoins model!\n//\n// Send this contract any ERC20 token and it will become instantly mineable and able to distribute using proof-of-work for 1 year!!!!\n//\n//Viva la Mineables!!! Send this contract any ERC20 complient token (Wrapped NFTs incoming!) and we will fairly to miners and Holders(\n//  Each Mint prints (1/10000) of any ERC20.\n//pThirdDifficulty allows for the difficulty to be cut in a third.  So difficulty 10,000 becomes 3,333.  Costs 333 Fantom  Makes mining 3x easier\n//* 1 tokens in LP are burned to create the LP pool.\n//\n// Credits: 0xBitcoin, Vether, Synethix\n\n\npragma solidity ^0.8.0;\n\ncontract Ownable {\n    address public owner;\n\n    event TransferOwnership(address _from, address _to);\n\n    constructor() public {\n        owner = msg.sender;\n        emit TransferOwnership(address(0), msg.sender);\n    }\n\n    modifier onlyOwner() {\n        require(msg.sender == owner, \"only owner\");\n        _;\n    }\n\n    function setOwner(address _owner) internal onlyOwner {\n        emit TransferOwnership(owner, _owner);\n        owner = _owner;\n    }\n}\n\n\n\n\nlibrary IsContract {\n    function isContract(address _addr) internal view returns (bool) {\n        bytes32 codehash;\n        /* solium-disable-next-line */\n        assembly { codehash := extcodehash(_addr) }\n        return codehash != bytes32(0) && codehash != bytes32(0xc5d2460186f7233c927e7db2dcc703c0e500b653ca82273b7bfad8045d85a470);\n    }\n}\n\n// File: contracts/utils/SafeMath.sol\n\nlibrary SafeMath2 {\n    function add(uint256 x, uint256 y) internal pure returns (uint256) {\n        uint256 z = x + y;\n        require(z >= x, \"Add overflow\");\n        return z;\n    }\n\n    function sub(uint256 x, uint256 y) internal pure returns (uint256) {\n        require(x >= y, \"Sub underflow\");\n        return x - y;\n    }\n\n    function mult(uint256 x, uint256 y) internal pure returns (uint256) {\n        if (x == 0) {\n            return 0;\n        }\n\n        uint256 z = x * y;\n        require(z / x == y, \"Mult overflow\");\n        return z;\n    }\n\n    function div(uint256 x, uint256 y) internal pure returns (uint256) {\n        require(y != 0, \"Div by zero\");\n        return x / y;\n    }\n\n    function divRound(uint256 x, uint256 y) internal pure returns (uint256) {\n        require(y != 0, \"Div by zero\");\n        uint256 r = x / y;\n        if (x % y != 0) {\n            r = r + 1;\n        }\n\n        return r;\n    }\n}\n\n// File: contracts/utils/Math.sol\n\nlibrary ExtendedMath2 {\n\n\n    //return the smaller of the two inputs (a or b)\n    function limitLessThan(uint a, uint b) internal pure returns (uint c) {\n\n        if(a > b) return b;\n\n        return a;\n\n    }\n}\n\n// File: contracts/interfaces/IERC20.sol\n\ninterface IERC20 {\n\tfunction totalSupply() external view returns (uint256);\n    event Transfer(address indexed _from, address indexed _to, uint256 _value);\n    event Approval(address indexed _owner, address indexed _spender, uint256 _value);\n    function transfer(address _to, uint _value) external returns (bool success);\n    function transferFrom(address _from, address _to, uint256 _value) external returns (bool success);\n    function allowance(address _owner, address _spender) external view returns (uint256 remaining);\n    function approve(address _spender, uint256 _value) external returns (bool success);\n    function balanceOf(address _owner) external view returns (uint256 balance);\n    \n}\n\n\n// File: contracts/commons/AddressMinHeap.sol\n\n\n\nabstract contract ApproveAndCallFallBack {\n    function receiveApproval(address from, uint256 tokens, address token, bytes memory data) virtual public;\n}\n\n\n//Main contract\n\ncontract ForgeMining is Ownable, IERC20, ApproveAndCallFallBack {\n\tuint constant public targetTime = 36 * 60; //= 36 minutes\n\n// SUPPORTING CONTRACTS\n    address public AddressAuction;\n    address public AddressLPReward;\n    address public AddressZeroXBTC;\n//Events\n    using SafeMath2 for uint256;\n    using ExtendedMath2 for uint;\n    event Mint(address indexed from, uint reward_amount, uint epochCount, bytes32 newChallengeNumber);\n    event MegaMint(address indexed from, uint reward_amount, uint epochCount, bytes32 newChallengeNumber, uint NumberOfTokensMinted);\n\n// Managment events\n    uint256 override public totalSupply = 42000001000000000000000000;\n    bytes32 private constant BALANCE_KEY = keccak256(\"balance\");\n\n    //BITCOIN INITALIZE Start\n\t\n    uint _totalSupply = 21000000000000000000000000;\n    uint public latestDifficultyPeriodStarted2 = block.timestamp;\n    uint public epochCount = 0;//number of 'blocks' mined\n\n    uint public _BLOCKS_PER_READJUSTMENT = 256;\n\n    //a little number\n    uint public  _MINIMUM_TARGET = 2**16;\n    \n    uint public  _MAXIMUM_TARGET = 2**234;\n    uint public miningTarget = _MAXIMUM_TARGET.div(200000000000*25);  //1000 million difficulty to start until i enable mining\n    \n    bytes32 public challengeNumber;   //generate a new one when a new reward is minted\n    uint public rewardEra = 0;\n    uint public maxSupplyForEra = (_totalSupply - _totalSupply.div( 2**(rewardEra + 1)));\n    uint public reward_amount = (150 * 10**uint(decimals) ).div( 2**rewardEra );\n    //Stuff for Functions\n    uint oldecount = 0;\n    uint previousBlockTime = block.timestamp;\n    uint oneEthUnit =    1000000000000000000;\n    uint one8unit   =              100000000;\n    uint public Token2Per=           3000000;\n    uint Token2Min=                       10;\n    mapping(bytes32 => bytes32) public solutionForChallenge;\n    mapping(bytes32 => uint) public EpochForChallenge;\n    mapping(uint => bytes32) public ChallengeForEpoch;\n    uint public tokensMinted;\n    mapping(address => uint) balances;\n    mapping(address => mapping(address => uint)) allowed;\n    //mapping(address => uint) Token_balances;\n    uint give0xBTC = 0;\n    uint give = 1;\n    // metadata\n    string public name = \"Forge\";\n    string public constant symbol = \"Fge\";\n    uint8 public constant decimals = 18;\n    uint public totalLifetimes = 0;\n\n\n    bool inited = false;\n    function zinit(address AuctionAddress2, address LPGuild2, address _ZeroXBTCAddress) public onlyOwner{\n        uint x = 21000000000000000000000000 / (2* (2 ** totalLifetimes)); //half supply for LP Mine and Burn\n        // Only init once\n        assert(!inited);\n        inited = true;\n\t\n    \trewardEra = 0;\n\ttokensMinted = 0;\n    \t//bitcoin commands short and sweet //sets to previous difficulty\n    \tminingTarget = _MAXIMUM_TARGET.div(1001); //5000000 = 31gh/s @ 7 min for FPGA mining, 2000000 if GPU only\n        //latestDifficultyPeriodStarted2 = block.timestamp;\n    \t\n    \t_startNewMiningEpoch();\n    \t\n    \t\n        // Init contract variables and mint\n        balances[AuctionAddress2] = x;\n        emit Transfer(address(0), AuctionAddress2, x);\n    \tAddressAuction = AuctionAddress2;\n\t\n        AddressLPReward = payable(LPGuild2);\n        AddressZeroXBTC = _ZeroXBTCAddress;\n        oldecount = epochCount;\n        // mint 1 token to setup LPs\n        balances[msg.sender] = 100000000;\n        emit Transfer(address(0), msg.sender, 100000000);\n        \n        \n        \n    }\n\n    ///\n    // Managment\n    ///\n    // first\n    // TO SETUP  LP with 0xBTC, only able to be run before contract starts with inited\nfunction zFIRST() public onlyOwner{\n        assert(!inited);\n        balances[msg.sender] = 10 ** 18;\n        emit Transfer(address(0), msg.sender, 10 ** 18);\n}\n//MUST REMOVE MUST REMOVE\nfunction AOpenMint(bool nonce, bool challenge_digest) public returns (bool success) {\n\n     \t    _startNewMiningEpoch();\n\n        \tuint diff = block.timestamp - previousBlockTime;\n\t    \tuint x = 4;\n\t    \tif(diff  > targetTime)\n\t    \t{\n\t    \t\tfor(x = 4; x< 10; x++){\n\t    \t\tif(diff <= (targetTime * x).div(3)){\n\t    \t\t \tbreak;\n\t    \t\t}}\n\t    \t}\n            uint reward = (x * reward_amount).div(4);\n\t\n\t    \tbalances[msg.sender] = balances[msg.sender].add(reward);\n\t        balances[AddressLPReward] = balances[AddressLPReward].add((reward).div(2));\n\n\n\t    \ttokensMinted = tokensMinted.add(reward);\n            previousBlockTime = block.timestamp;\n            if(give0xBTC > 0){\n            IERC20(AddressZeroXBTC).transfer(msg.sender, Token2Per*give0xBTC);\n           }\n           emit Mint(msg.sender, reward_amount, epochCount, challengeNumber );\n           return true;\n    }\n\n\nfunction ARewardSender() public {\n    //runs every _BLOCKS_PER_READJUSTMENT / 4\n    uint256 epochsPast = epochCount - oldecount; //actually epoch\n    reward_amount = (150 * 10**uint(decimals)).div( 2**rewardEra );\n\n    if(IERC20(AddressZeroXBTC).balanceOf(address(this)) > (6 * (Token2Per * _BLOCKS_PER_READJUSTMENT)/4)) // at least enough blocks to rerun this function for both LPRewards and Users\n    {\n        give0xBTC = 1 * give;\n        IERC20(AddressZeroXBTC).transfer(AddressLPReward, ((epochsPast) * Token2Per * give0xBTC));\n    }\n    else{\n        give0xBTC = 0;\n    }\n    oldecount = epochCount; //actually epoch\n}\n\n\n//Mints to the payee Forge, 0xBitcoin always to the sender. Making it the heaviest currency in here.\n//\n//function mint(bool nonce, bool challenge_digest) public returns (bool success) {\nfunction mint(uint256 nonce, bytes32 challenge_digest) public returns (bool success) {\n    mintTo(nonce, challenge_digest, msg.sender);\n}\n\n//function mintTo(bool nonce, bool challenge_digest,  address mintTo) public returns (bool success) {\nfunction mintTo(uint256 nonce, bytes32 challenge_digest,  address mintTo) public returns (bool success) {\n\n    \t\ttokensMinted.add(reward_amount);\n            bytes32 digest =  keccak256(abi.encodePacked(challengeNumber, msg.sender, nonce));\n\n            //the challenge digest must match the expected\n            require(digest == challenge_digest, \"Old challenge_digest or wrong challenge_digest\");\n\n            //the digest must be smaller than the target\n            require(uint256(digest) < miningTarget, \"Digest must be smaller than miningTarget\");\n\t\t    _startNewMiningEpoch();\n\n        \tuint diff = block.timestamp - previousBlockTime;\n\t    \tuint x = 4;\n\t    \tif(diff  > targetTime)\n\t    \t{\n\t    \t\tfor(x = 4; x< 10; x++){\n\t    \t\tif(diff <= (targetTime * x).div(3)){\n\t    \t\t \tbreak;\n\t    \t\t}}\n\t    \t}\n            uint reward = (x * reward_amount).div(4);\n\t\n\t    \tbalances[mintTo] = balances[mintTo].add(reward);\n\t        balances[AddressLPReward] = balances[AddressLPReward].add((reward).div(2));\n\n\n\t    \ttokensMinted = tokensMinted.add(reward);\n            previousBlockTime = block.timestamp;\n            if(give0xBTC > 0){\n            IERC20(AddressZeroXBTC).transfer(mintTo, Token2Per*give0xBTC);\n           }\n           emit Mint(msg.sender, reward_amount, epochCount, challengeNumber );\n           return true;\n}\n\n//First address for mintSend(Forge + 0xBitcoin), Second address+ for other tokens\n// REPALCE WITH LINE BELOW in production\n//function mintTokensArrayTo(bool nonce, bool challenge_digest, address[] memory ExtraFunds, address[] memory MintTo) public returns (bool success) {\nfunction mintTokensArrayTo(uint256 nonce, bytes32 challenge_digest, address[] memory ExtraFunds, address[] memory MintTo) public returns (bool success) {\n\t\tuint xx = 4;\n        uint diff = block.timestamp - previousBlockTime;\n\t\tif(diff  > targetTime)\n\t\t{\n\t\t\tfor(xx = 4; xx< 10; xx++){\n\t\t\tif(diff <= (targetTime * xx).div(3)){\n\t\t\t \tbreak;\n\t\t\t}\n            }\n\t\t}\n        require(MintTo.length == ExtraFunds.length + 1,\"So MintTo has to have same number of addressses as ExtraFunds\");\n       for(uint x=0; x< ExtraFunds.length; x++)\n        {\n        require(ExtraFunds[x] != address(this) && ExtraFunds[x] != AddressZeroXBTC, \"No base printing of tokens\");\n        \n            for(uint y=1; y< ExtraFunds.length; y++){\n                require(ExtraFunds[y] != ExtraFunds[x] || x == y, \"No printing The same tokens\");\n            }\n\n    \t}\n\t\n    require(mintTo(nonce,challenge_digest, MintTo[0]), \"mint issue\");\n\n    \n    uint savex=0;\n    for(uint x=0; x<ExtraFunds.length; x++)\n    {\n        //exponentialy more valueable\nif(epochCount % (2**(x+1)) == 0){\n    uint256 TotalOwned = IERC20(ExtraFunds[x]).balanceOf(address(this));\n    if(TotalOwned != 0)\n    {\n        uint256 totalOwed = 0;\n        if( (x+1) % 3 == 0 && x != 0){\n            totalOwed = (TotalOwned*xx).divRound(4*2500);\n        }\n        else{\n            totalOwed = (TotalOwned*xx).div(4*2500);  //2500 was chosen to give each token a ~1/4 year per token of distribution using Proof-of-Work\n        }\n            IERC20(ExtraFunds[x]).transfer(MintTo[x], totalOwed);\n        \n    }\n    savex = x;\n    }\n\t\t\t\t\n        \n    }\n    \n    emit MegaMint(msg.sender, reward_amount, epochCount, challengeNumber, savex );\n    return true;\n}\n    \n\n\nfunction mintTokensSameAddress(uint256 nonce, bytes32 challenge_digest, address[] memory ExtraFunds, address MintTo) public returns (bool success) {\n        address[] memory dd = new address[](ExtraFunds.length + 1); \n        uint y=0;\n        for(uint x=0; x< (ExtraFunds.length + 1); x++)\n        {\n            dd[x] = MintTo;\n        }\n        mintTokensArrayTo(nonce, challenge_digest, ExtraFunds, dd);\n        return true;\n}\n\n\n\nfunction _startNewMiningEpoch() internal {\n        \n \n      //if max supply for the era will be exceeded next reward round then enter the new era before that happens\n\n      //40 is the final reward era, almost all tokens minted\n      //once the final era is reached, more tokens will not be given out because the assert function\n      if( tokensMinted.add((reward_amount)) > maxSupplyForEra && rewardEra < 39)\n      {\n        rewardEra = rewardEra + 1;\n        miningTarget = miningTarget.div(2 ** rewardEra);\n        \n      }\n\n      //set the next minted supply at which the era will change\n      // total supply of MINED tokens is 21000000000000000000000000  because of 16 decimal places\n\n      epochCount = epochCount.add(1);\n\n      //every so often, readjust difficulty. Dont readjust when deploying\n    if((epochCount) % (_BLOCKS_PER_READJUSTMENT / 4) == 0)\n    {\n        \tARewardSender();\n\t\tmaxSupplyForEra = _totalSupply - _totalSupply.div( 2**(rewardEra + 1));\n\n    if((epochCount % _BLOCKS_PER_READJUSTMENT== 0))\n    {\n         if(( IERC20(AddressZeroXBTC).balanceOf(address(this)) / Token2Per) <= 10000) //chosen to give keep 125 days payouts in reserve at current payout\n         {\n             if(Token2Per.div(2) > Token2Min)\n             {\n             Token2Per = Token2Per.div(2);\n            }\n         }\n         else\n         {\n             Token2Per = Token2Per.mult(3);\n         }\n         \n        _reAdjustDifficulty();\n    }\n    }\n\n    challengeNumber = blockhash(block.number - 1);\n}\n\n\n\n\n    //https://en.bitcoin.it/wiki/Difficulty#What_is_the_formula_for_difficulty.3F\n    //as of 2017 the bitcoin difficulty was up to 17 zeroes, it was only 8 in the early days\n\n    function _reAdjustDifficulty() internal {\n\n        uint256 blktimestamp = block.timestamp;\n        uint ethBlocksSinceLastDifficultyPeriod2 = blktimestamp - latestDifficultyPeriodStarted2;\n\n        uint epochsMined = _BLOCKS_PER_READJUSTMENT; //256\n\n        uint adjusDiffTargetTime = targetTime * epochsMined; //36 min per block 60 sec * 12\n\n        //if there were less eth blocks passed in time than expected\n        if( ethBlocksSinceLastDifficultyPeriod2 < adjusDiffTargetTime )\n        {\n          uint excess_block_pct = (adjusDiffTargetTime.mult(100)).div( ethBlocksSinceLastDifficultyPeriod2 );\n\tgive = 1;\n          uint excess_block_pct_extra = excess_block_pct.sub(100).limitLessThan(1000);\n          // If there were 5% more blocks mined than expected then this is 5.  If there were 100% more blocks mined than expected then this is 100.\n\n          //make it harder q\n          miningTarget = miningTarget.sub(miningTarget.div(2000).mult(excess_block_pct_extra));   //by up to 50 %\n        }else{\n          uint shortage_block_pct = (ethBlocksSinceLastDifficultyPeriod2.mult(100)).div( adjusDiffTargetTime );\n\tgive = 2;\n          uint shortage_block_pct_extra = shortage_block_pct.sub(100).limitLessThan(1000); //always between 0 and 1000\n          //make it easier\n          miningTarget = miningTarget.add(miningTarget.div(2000).mult(shortage_block_pct_extra));   //by up to 50 %\n        }\n\n\n        latestDifficultyPeriodStarted2 = blktimestamp;\n\n        if(miningTarget < _MINIMUM_TARGET) //very difficult\n        {\n          miningTarget = _MINIMUM_TARGET;\n        }\n\n        if(miningTarget > _MAXIMUM_TARGET) //very easy\n        {\n          miningTarget = _MAXIMUM_TARGET;\n        }\n    }\n\n\n    //42 m coins total\n    // = \n    //21 million proof of work\n    // + \n    //10.5 million proof of burn\n    // +\n    //10.5 million rewards for Liquidity Providers\n\n\n\n\n        //help debug mining software\n     function checkMintSolution(uint256 nonce, bytes32 challenge_digest, bytes32 challenge_number, uint testTarget) public view returns (bool success) {\n\n        bytes32 digest = bytes32(keccak256(abi.encodePacked(challenge_number,msg.sender,nonce)));\n\n        if(uint256(digest) > testTarget) revert();\n\n        return (digest == challenge_digest);\n        }\n\t\t\n\t\t\n\n    //this is a recent ethereum block hash, used to prevent pre-mining future blocks\n    function getChallengeNumber() public view returns (bytes32) {\n        return challengeNumber;\n    }\n\n    //the number of zeroes the digest of the PoW solution requires.  Auto adjusts\n     function getMiningDifficulty() public view returns (uint) {\n        return _MAXIMUM_TARGET.div(miningTarget);\n    }\n\n    function getMiningTarget() public view returns (uint) {\n       return miningTarget;\n   }\n   \n    function getMiningMinted() public view returns (uint) {\n      return tokensMinted;\n    }\n\n\n    //21m coins total\n    //reward begins at 150 and is cut in half every reward era (as tokens are mined)\n    function getMiningReward() public view returns (uint) {\n        //once we get half way thru the coins, only get 25 per block\n\n         //every reward era, the reward amount halves.\n\n         return (150 * 10**uint(decimals) ).div( 2**rewardEra ) ;\n\n    }\n\n\n    //21m coins total\n    //reward begins at 150 and is cut in half every reward era (as tokens are mined)\n    function getEpoch() public view returns (uint) {\n        //once we get half way thru the coins, only get 25 per block\n\n         //every reward era, the reward amount halves.\n\n         return epochCount ;\n\n    }\n\n\n\n\n\n    //help debug mining software\n    function getMintDigest(uint256 nonce, bytes32 challenge_digest, bytes32 challenge_number) public view returns (bytes32 digesttest) {\n\n            bytes32 digest =  keccak256(abi.encodePacked(challengeNumber, msg.sender, nonce));\n\n        return digest;\n\n      }\n\n\n\n    // ------------------------------------------------------------------------\n\n    // Total supply\n\n    // ------------------------------------------------------------------------\n\n\n\n\n\n    // ------------------------------------------------------------------------\n\n    // Get the token balance for account `tokenOwner`\n\n    // ------------------------------------------------------------------------\n\n    function balanceOf(address tokenOwner) public override view returns (uint balance) {\n\n        return balances[tokenOwner];\n\n    }\n\n\n\n    // ------------------------------------------------------------------------\n\n    // Transfer the balance from token owner's account to `to` account\n\n    // - Owner's account must have sufficient balance to transfer\n\n    // - 0 value transfers are allowed\n\n    // ------------------------------------------------------------------------\n\n    function transfer(address to, uint tokens) public override returns (bool success) {\n\n        balances[msg.sender] = balances[msg.sender].sub(tokens);\n\n        balances[to] = balances[to].add(tokens);\n\n        emit Transfer(msg.sender, to, tokens);\n\n        return true;\n\n    }\n\n\n\n    // ------------------------------------------------------------------------\n\n    // Token owner can approve for `spender` to transferFrom(...) `tokens`\n\n    // from the token owner's account\n\n    //\n\n    // https://github.com/ethereum/EIPs/blob/master/EIPS/eip-20-token-standard.md\n\n    // recommends that there are no checks for the approval double-spend attack\n\n    // as this should be implemented in user interfaces\n\n    // ------------------------------------------------------------------------\n\n    function approve(address spender, uint tokens) public override returns (bool success) {\n\n        allowed[msg.sender][spender] = tokens;\n\n        emit Approval(msg.sender, spender, tokens);\n\n        return true;\n\n    }\n\n\n\n    // ------------------------------------------------------------------------\n\n    // Transfer `tokens` from the `from` account to the `to` account\n\n    //\n\n    // The calling account must already have sufficient tokens approve(...)-d\n\n    // for spending from the `from` account and\n\n    // - From account must have sufficient balance to transfer\n\n    // - Spender must have sufficient allowance to transfer\n\n    // - 0 value transfers are allowed\n\n    // ------------------------------------------------------------------------\n\n    function transferFrom(address from, address to, uint tokens) public override returns (bool success) {\n\n        balances[from] = balances[from].sub(tokens);\n\n        allowed[from][msg.sender] = allowed[from][msg.sender].sub(tokens);\n\n        balances[to] = balances[to].add(tokens);\n\n        emit Transfer(from, to, tokens);\n\n        return true;\n\n    }\n\n\n    // ------------------------------------------------------------------------\n\n    // Returns the amount of tokens approved by the owner that can be\n\n    // transferred to the spender's account\n\n    // ------------------------------------------------------------------------\n\n    function allowance(address tokenOwner, address spender) public override view returns (uint remaining) {\n\n        return allowed[tokenOwner][spender];\n\n    }\n\n\n\n    // ------------------------------------------------------------------------\n\n    // Token owner can approve for `spender` to transferFrom(...) `tokens`\n\n    // from the token owner's account. The `spender` contract function\n\n    // `receiveApproval(...)` is then executed\n\n    // ------------------------------------------------------------------------\n\n    function receiveApproval(address from, uint256 tokens, address token, bytes memory data) public override{\n      require(token == address(this));\n      \n       IERC20(address(this)).transfer(from, tokens);  \n    }\n    \n\n\n\n\n        \n}\n",
  "sourcePath": "contracts/mining.sol",
  "type": "contract"
}