{
  "abi": [
    {
      "anonymous": false,
      "inputs": [
        {
          "indexed": true,
          "internalType": "address",
          "name": "_owner",
          "type": "address"
        },
        {
          "indexed": true,
          "internalType": "address",
          "name": "_spender",
          "type": "address"
        },
        {
          "indexed": false,
          "internalType": "uint256",
          "name": "_value",
          "type": "uint256"
        }
      ],
      "name": "Approval",
      "type": "event"
    },
    {
      "anonymous": false,
      "inputs": [
        {
          "indexed": true,
          "internalType": "address",
          "name": "from",
          "type": "address"
        },
        {
          "indexed": false,
          "internalType": "uint256",
          "name": "epochCount",
          "type": "uint256"
        },
        {
          "indexed": false,
          "internalType": "bytes32",
          "name": "newChallengeNumber",
          "type": "bytes32"
        },
        {
          "indexed": false,
          "internalType": "uint256",
          "name": "NumberOfTokensMinted",
          "type": "uint256"
        }
      ],
      "name": "MegaMint",
      "type": "event"
    },
    {
      "anonymous": false,
      "inputs": [
        {
          "indexed": true,
          "internalType": "address",
          "name": "from",
          "type": "address"
        },
        {
          "indexed": false,
          "internalType": "uint256",
          "name": "reward_amount",
          "type": "uint256"
        },
        {
          "indexed": false,
          "internalType": "uint256",
          "name": "epochCount",
          "type": "uint256"
        },
        {
          "indexed": false,
          "internalType": "bytes32",
          "name": "newChallengeNumber",
          "type": "bytes32"
        }
      ],
      "name": "Mint",
      "type": "event"
    },
    {
      "anonymous": false,
      "inputs": [
        {
          "indexed": true,
          "internalType": "address",
          "name": "_from",
          "type": "address"
        },
        {
          "indexed": true,
          "internalType": "address",
          "name": "_to",
          "type": "address"
        },
        {
          "indexed": false,
          "internalType": "uint256",
          "name": "_value",
          "type": "uint256"
        }
      ],
      "name": "Transfer",
      "type": "event"
    },
    {
      "anonymous": false,
      "inputs": [
        {
          "indexed": false,
          "internalType": "address",
          "name": "_from",
          "type": "address"
        },
        {
          "indexed": false,
          "internalType": "address",
          "name": "_to",
          "type": "address"
        }
      ],
      "name": "TransferOwnership",
      "type": "event"
    },
    {
      "stateMutability": "payable",
      "type": "fallback"
    },
    {
      "inputs": [
        {
          "internalType": "bool",
          "name": "nonce",
          "type": "bool"
        },
        {
          "internalType": "bool",
          "name": "challenge_digest",
          "type": "bool"
        },
        {
          "internalType": "address",
          "name": "mintTo",
          "type": "address"
        }
      ],
      "name": "AOpenMint",
      "outputs": [
        {
          "internalType": "uint256",
          "name": "success",
          "type": "uint256"
        }
      ],
      "stateMutability": "nonpayable",
      "type": "function"
    },
    {
      "inputs": [],
      "name": "ARewardSender",
      "outputs": [],
      "stateMutability": "nonpayable",
      "type": "function"
    },
    {
      "inputs": [],
      "name": "AddressAuction",
      "outputs": [
        {
          "internalType": "address",
          "name": "",
          "type": "address"
        }
      ],
      "stateMutability": "view",
      "type": "function"
    },
    {
      "inputs": [],
      "name": "AddressLPReward",
      "outputs": [
        {
          "internalType": "address",
          "name": "",
          "type": "address"
        }
      ],
      "stateMutability": "view",
      "type": "function"
    },
    {
      "inputs": [],
      "name": "AddressZeroXBTC",
      "outputs": [
        {
          "internalType": "address",
          "name": "",
          "type": "address"
        }
      ],
      "stateMutability": "view",
      "type": "function"
    },
    {
      "inputs": [],
      "name": "Token2Per",
      "outputs": [
        {
          "internalType": "uint256",
          "name": "",
          "type": "uint256"
        }
      ],
      "stateMutability": "view",
      "type": "function"
    },
    {
      "inputs": [],
      "name": "_BLOCKS_PER_READJUSTMENT",
      "outputs": [
        {
          "internalType": "uint256",
          "name": "",
          "type": "uint256"
        }
      ],
      "stateMutability": "view",
      "type": "function"
    },
    {
      "inputs": [],
      "name": "_MAXIMUM_TARGET",
      "outputs": [
        {
          "internalType": "uint256",
          "name": "",
          "type": "uint256"
        }
      ],
      "stateMutability": "view",
      "type": "function"
    },
    {
      "inputs": [],
      "name": "_MINIMUM_TARGET",
      "outputs": [
        {
          "internalType": "uint256",
          "name": "",
          "type": "uint256"
        }
      ],
      "stateMutability": "view",
      "type": "function"
    },
    {
      "inputs": [
        {
          "internalType": "address",
          "name": "tokenOwner",
          "type": "address"
        },
        {
          "internalType": "address",
          "name": "spender",
          "type": "address"
        }
      ],
      "name": "allowance",
      "outputs": [
        {
          "internalType": "uint256",
          "name": "remaining",
          "type": "uint256"
        }
      ],
      "stateMutability": "view",
      "type": "function"
    },
    {
      "inputs": [
        {
          "internalType": "address",
          "name": "spender",
          "type": "address"
        },
        {
          "internalType": "uint256",
          "name": "tokens",
          "type": "uint256"
        }
      ],
      "name": "approve",
      "outputs": [
        {
          "internalType": "bool",
          "name": "success",
          "type": "bool"
        }
      ],
      "stateMutability": "nonpayable",
      "type": "function"
    },
    {
      "inputs": [
        {
          "internalType": "address",
          "name": "tokenOwner",
          "type": "address"
        }
      ],
      "name": "balanceOf",
      "outputs": [
        {
          "internalType": "uint256",
          "name": "balance",
          "type": "uint256"
        }
      ],
      "stateMutability": "view",
      "type": "function"
    },
    {
      "inputs": [],
      "name": "challengeNumber",
      "outputs": [
        {
          "internalType": "bytes32",
          "name": "",
          "type": "bytes32"
        }
      ],
      "stateMutability": "view",
      "type": "function"
    },
    {
      "inputs": [
        {
          "internalType": "uint256",
          "name": "nonce",
          "type": "uint256"
        },
        {
          "internalType": "bytes32",
          "name": "challenge_digest",
          "type": "bytes32"
        },
        {
          "internalType": "bytes32",
          "name": "challenge_number",
          "type": "bytes32"
        },
        {
          "internalType": "uint256",
          "name": "testTarget",
          "type": "uint256"
        }
      ],
      "name": "checkMintSolution",
      "outputs": [
        {
          "internalType": "bool",
          "name": "success",
          "type": "bool"
        }
      ],
      "stateMutability": "view",
      "type": "function"
    },
    {
      "inputs": [],
      "name": "decimals",
      "outputs": [
        {
          "internalType": "uint8",
          "name": "",
          "type": "uint8"
        }
      ],
      "stateMutability": "view",
      "type": "function"
    },
    {
      "inputs": [
        {
          "internalType": "uint256",
          "name": "nonce",
          "type": "uint256"
        },
        {
          "internalType": "bytes32",
          "name": "challenge_digest",
          "type": "bytes32"
        }
      ],
      "name": "empty_mintTo",
      "outputs": [
        {
          "internalType": "uint256",
          "name": "owed",
          "type": "uint256"
        }
      ],
      "stateMutability": "nonpayable",
      "type": "function"
    },
    {
      "inputs": [],
      "name": "epochCount",
      "outputs": [
        {
          "internalType": "uint256",
          "name": "",
          "type": "uint256"
        }
      ],
      "stateMutability": "view",
      "type": "function"
    },
    {
      "inputs": [],
      "name": "getChallengeNumber",
      "outputs": [
        {
          "internalType": "bytes32",
          "name": "",
          "type": "bytes32"
        }
      ],
      "stateMutability": "view",
      "type": "function"
    },
    {
      "inputs": [],
      "name": "getEpoch",
      "outputs": [
        {
          "internalType": "uint256",
          "name": "",
          "type": "uint256"
        }
      ],
      "stateMutability": "view",
      "type": "function"
    },
    {
      "inputs": [],
      "name": "getMiningDifficulty",
      "outputs": [
        {
          "internalType": "uint256",
          "name": "",
          "type": "uint256"
        }
      ],
      "stateMutability": "view",
      "type": "function"
    },
    {
      "inputs": [],
      "name": "getMiningMinted",
      "outputs": [
        {
          "internalType": "uint256",
          "name": "",
          "type": "uint256"
        }
      ],
      "stateMutability": "view",
      "type": "function"
    },
    {
      "inputs": [],
      "name": "getMiningReward",
      "outputs": [
        {
          "internalType": "uint256",
          "name": "",
          "type": "uint256"
        }
      ],
      "stateMutability": "view",
      "type": "function"
    },
    {
      "inputs": [],
      "name": "getMiningTarget",
      "outputs": [
        {
          "internalType": "uint256",
          "name": "",
          "type": "uint256"
        }
      ],
      "stateMutability": "view",
      "type": "function"
    },
    {
      "inputs": [
        {
          "internalType": "uint256",
          "name": "nonce",
          "type": "uint256"
        },
        {
          "internalType": "bytes32",
          "name": "challenge_digest",
          "type": "bytes32"
        },
        {
          "internalType": "bytes32",
          "name": "challenge_number",
          "type": "bytes32"
        }
      ],
      "name": "getMintDigest",
      "outputs": [
        {
          "internalType": "bytes32",
          "name": "digesttest",
          "type": "bytes32"
        }
      ],
      "stateMutability": "view",
      "type": "function"
    },
    {
      "inputs": [],
      "name": "latestDifficultyPeriodStarted",
      "outputs": [
        {
          "internalType": "uint256",
          "name": "",
          "type": "uint256"
        }
      ],
      "stateMutability": "view",
      "type": "function"
    },
    {
      "inputs": [],
      "name": "latestDifficultyPeriodStarted2",
      "outputs": [
        {
          "internalType": "uint256",
          "name": "",
          "type": "uint256"
        }
      ],
      "stateMutability": "view",
      "type": "function"
    },
    {
      "inputs": [],
      "name": "maxSupplyForEra",
      "outputs": [
        {
          "internalType": "uint256",
          "name": "",
          "type": "uint256"
        }
      ],
      "stateMutability": "view",
      "type": "function"
    },
    {
      "inputs": [],
      "name": "miningTarget",
      "outputs": [
        {
          "internalType": "uint256",
          "name": "",
          "type": "uint256"
        }
      ],
      "stateMutability": "view",
      "type": "function"
    },
    {
      "inputs": [
        {
          "internalType": "uint256",
          "name": "nonce",
          "type": "uint256"
        },
        {
          "internalType": "bytes32",
          "name": "challenge_digest",
          "type": "bytes32"
        }
      ],
      "name": "mint",
      "outputs": [
        {
          "internalType": "bool",
          "name": "success",
          "type": "bool"
        }
      ],
      "stateMutability": "nonpayable",
      "type": "function"
    },
    {
      "inputs": [
        {
          "internalType": "uint256",
          "name": "nonce",
          "type": "uint256"
        },
        {
          "internalType": "bytes32",
          "name": "challenge_digest",
          "type": "bytes32"
        },
        {
          "internalType": "address",
          "name": "mintTo",
          "type": "address"
        }
      ],
      "name": "mintTo",
      "outputs": [
        {
          "internalType": "uint256",
          "name": "owed",
          "type": "uint256"
        }
      ],
      "stateMutability": "nonpayable",
      "type": "function"
    },
    {
      "inputs": [
        {
          "internalType": "uint256",
          "name": "nonce",
          "type": "uint256"
        },
        {
          "internalType": "bytes32",
          "name": "challenge_digest",
          "type": "bytes32"
        },
        {
          "internalType": "address[]",
          "name": "ExtraFunds",
          "type": "address[]"
        },
        {
          "internalType": "address[]",
          "name": "MintTo",
          "type": "address[]"
        }
      ],
      "name": "mintTokensArrayTo",
      "outputs": [
        {
          "internalType": "uint256",
          "name": "owed",
          "type": "uint256"
        }
      ],
      "stateMutability": "nonpayable",
      "type": "function"
    },
    {
      "inputs": [
        {
          "internalType": "bool",
          "name": "nonce",
          "type": "bool"
        },
        {
          "internalType": "bool",
          "name": "challenge_digest",
          "type": "bool"
        },
        {
          "internalType": "address[]",
          "name": "ExtraFunds",
          "type": "address[]"
        },
        {
          "internalType": "address[]",
          "name": "MintTo",
          "type": "address[]"
        }
      ],
      "name": "mintTokensArrayToOPENMUSTERASE",
      "outputs": [
        {
          "internalType": "uint256",
          "name": "owed",
          "type": "uint256"
        }
      ],
      "stateMutability": "nonpayable",
      "type": "function"
    },
    {
      "inputs": [
        {
          "internalType": "uint256",
          "name": "nonce",
          "type": "uint256"
        },
        {
          "internalType": "bytes32",
          "name": "challenge_digest",
          "type": "bytes32"
        },
        {
          "internalType": "address[]",
          "name": "ExtraFunds",
          "type": "address[]"
        },
        {
          "internalType": "address",
          "name": "MintTo",
          "type": "address"
        }
      ],
      "name": "mintTokensSameAddress",
      "outputs": [
        {
          "internalType": "bool",
          "name": "success",
          "type": "bool"
        }
      ],
      "stateMutability": "nonpayable",
      "type": "function"
    },
    {
      "inputs": [],
      "name": "name",
      "outputs": [
        {
          "internalType": "string",
          "name": "",
          "type": "string"
        }
      ],
      "stateMutability": "view",
      "type": "function"
    },
    {
      "inputs": [],
      "name": "owner",
      "outputs": [
        {
          "internalType": "address",
          "name": "",
          "type": "address"
        }
      ],
      "stateMutability": "view",
      "type": "function"
    },
    {
      "inputs": [],
      "name": "previousBlockTime",
      "outputs": [
        {
          "internalType": "uint256",
          "name": "",
          "type": "uint256"
        }
      ],
      "stateMutability": "view",
      "type": "function"
    },
    {
      "inputs": [
        {
          "internalType": "address",
          "name": "from",
          "type": "address"
        },
        {
          "internalType": "uint256",
          "name": "tokens",
          "type": "uint256"
        },
        {
          "internalType": "address",
          "name": "token",
          "type": "address"
        },
        {
          "internalType": "bytes",
          "name": "data",
          "type": "bytes"
        }
      ],
      "name": "receiveApproval",
      "outputs": [],
      "stateMutability": "nonpayable",
      "type": "function"
    },
    {
      "inputs": [],
      "name": "rewardEra",
      "outputs": [
        {
          "internalType": "uint256",
          "name": "",
          "type": "uint256"
        }
      ],
      "stateMutability": "view",
      "type": "function"
    },
    {
      "inputs": [],
      "name": "reward_amount",
      "outputs": [
        {
          "internalType": "uint256",
          "name": "",
          "type": "uint256"
        }
      ],
      "stateMutability": "view",
      "type": "function"
    },
    {
      "inputs": [],
      "name": "symbol",
      "outputs": [
        {
          "internalType": "string",
          "name": "",
          "type": "string"
        }
      ],
      "stateMutability": "view",
      "type": "function"
    },
    {
      "inputs": [],
      "name": "targetTime",
      "outputs": [
        {
          "internalType": "uint256",
          "name": "",
          "type": "uint256"
        }
      ],
      "stateMutability": "view",
      "type": "function"
    },
    {
      "inputs": [
        {
          "internalType": "uint256",
          "name": "_testx",
          "type": "uint256"
        },
        {
          "internalType": "uint256",
          "name": "_testthisblk",
          "type": "uint256"
        },
        {
          "internalType": "uint256",
          "name": "_testlastblk",
          "type": "uint256"
        }
      ],
      "name": "test",
      "outputs": [],
      "stateMutability": "nonpayable",
      "type": "function"
    },
    {
      "inputs": [],
      "name": "testden",
      "outputs": [
        {
          "internalType": "uint256",
          "name": "",
          "type": "uint256"
        }
      ],
      "stateMutability": "view",
      "type": "function"
    },
    {
      "inputs": [],
      "name": "testnum",
      "outputs": [
        {
          "internalType": "uint256",
          "name": "",
          "type": "uint256"
        }
      ],
      "stateMutability": "view",
      "type": "function"
    },
    {
      "inputs": [],
      "name": "testx",
      "outputs": [
        {
          "internalType": "uint256",
          "name": "",
          "type": "uint256"
        }
      ],
      "stateMutability": "view",
      "type": "function"
    },
    {
      "inputs": [],
      "name": "testxx",
      "outputs": [
        {
          "internalType": "uint256",
          "name": "",
          "type": "uint256"
        }
      ],
      "stateMutability": "view",
      "type": "function"
    },
    {
      "inputs": [],
      "name": "testxy",
      "outputs": [
        {
          "internalType": "uint256",
          "name": "",
          "type": "uint256"
        }
      ],
      "stateMutability": "view",
      "type": "function"
    },
    {
      "inputs": [],
      "name": "tokensMinted",
      "outputs": [
        {
          "internalType": "uint256",
          "name": "",
          "type": "uint256"
        }
      ],
      "stateMutability": "view",
      "type": "function"
    },
    {
      "inputs": [],
      "name": "totalLifetimes",
      "outputs": [
        {
          "internalType": "uint256",
          "name": "",
          "type": "uint256"
        }
      ],
      "stateMutability": "view",
      "type": "function"
    },
    {
      "inputs": [],
      "name": "totalSupply",
      "outputs": [
        {
          "internalType": "uint256",
          "name": "",
          "type": "uint256"
        }
      ],
      "stateMutability": "view",
      "type": "function"
    },
    {
      "inputs": [
        {
          "internalType": "address",
          "name": "to",
          "type": "address"
        },
        {
          "internalType": "uint256",
          "name": "tokens",
          "type": "uint256"
        }
      ],
      "name": "transfer",
      "outputs": [
        {
          "internalType": "bool",
          "name": "success",
          "type": "bool"
        }
      ],
      "stateMutability": "nonpayable",
      "type": "function"
    },
    {
      "inputs": [
        {
          "internalType": "address",
          "name": "from",
          "type": "address"
        },
        {
          "internalType": "address",
          "name": "to",
          "type": "address"
        },
        {
          "internalType": "uint256",
          "name": "tokens",
          "type": "uint256"
        }
      ],
      "name": "transferFrom",
      "outputs": [
        {
          "internalType": "bool",
          "name": "success",
          "type": "bool"
        }
      ],
      "stateMutability": "nonpayable",
      "type": "function"
    },
    {
      "inputs": [
        {
          "internalType": "address",
          "name": "AuctionAddress2",
          "type": "address"
        },
        {
          "internalType": "address",
          "name": "LPGuild2",
          "type": "address"
        },
        {
          "internalType": "address",
          "name": "_ZeroXBTCAddress",
          "type": "address"
        }
      ],
      "name": "zinit",
      "outputs": [],
      "stateMutability": "nonpayable",
      "type": "function"
    },
    {
      "inputs": [
        {
          "internalType": "address",
          "name": "AuctionAddress2",
          "type": "address"
        },
        {
          "internalType": "address",
          "name": "LPGuild2",
          "type": "address"
        },
        {
          "internalType": "address",
          "name": "_ZeroXBTCAddress",
          "type": "address"
        }
      ],
      "name": "zinit2",
      "outputs": [],
      "stateMutability": "nonpayable",
      "type": "function"
    },
    {
      "stateMutability": "payable",
      "type": "receive"
    }
  ],
  "bytecode": "60806040526a22bdd89dce55b0116400006009556a115eec47f6cf7e35000000600a5542600b556000600c55610100600d5562010000600e55600160ea1b600f556200006265048c27395000600f54620001d560201b620024a81790919060201c565b6010556000601255620000a360125460016200007f9190620002e8565b6200008c90600262000400565b600a54620001d560201b620024a81790919060201c565b600a54620000b291906200040e565b601355620000f96012546002620000ca919062000400565b620000d86012600a62000400565b620000e590606462000428565b620001d560201b620024a81790919060201c565b6014556000601581905542601655670de0b6b3a76400006017556305f5e100601855620f42406019556058601a55601e556001601f5560408051808201909152600580825264466f72676560d81b60209283019081526200015b92916200022c565b50600060215542602255436023556024805460ff191690553480156200018057600080fd5b50600080546001600160a01b0319163390811782556040805192835260208301919091527f5c486528ec3e3f0ea91181cff8116f02bfa350e03b8b6f12e00765adbb5af85c910160405180910390a1620004aa565b600081620002175760405162461bcd60e51b815260206004820152600b60248201526a446976206279207a65726f60a81b604482015260640160405180910390fd5b6200022382846200044a565b90505b92915050565b8280546200023a906200046d565b90600052602060002090601f0160209004810192826200025e5760008555620002a9565b82601f106200027957805160ff1916838001178555620002a9565b82800160010185558215620002a9579182015b82811115620002a95782518255916020019190600101906200028c565b50620002b7929150620002bb565b5090565b5b80821115620002b75760008155600101620002bc565b634e487b7160e01b600052601160045260246000fd5b60008219821115620002fe57620002fe620002d2565b500190565b600181815b8085111562000344578160001904821115620003285762000328620002d2565b808516156200033657918102915b93841c939080029062000308565b509250929050565b6000826200035d5750600162000226565b816200036c5750600062000226565b81600181146200038557600281146200039057620003b0565b600191505062000226565b60ff841115620003a457620003a4620002d2565b50506001821b62000226565b5060208310610133831016604e8410600b8410161715620003d5575081810a62000226565b620003e1838362000303565b8060001904821115620003f857620003f8620002d2565b029392505050565b60006200022383836200034c565b600082821015620004235762000423620002d2565b500390565b6000816000190483118215151615620004455762000445620002d2565b500290565b6000826200046857634e487b7160e01b600052601260045260246000fd5b500490565b600181811c908216806200048257607f821691505b60208210811415620004a457634e487b7160e01b600052602260045260246000fd5b50919050565b61324b80620004ba6000396000f3fe6080604052600436106103395760003560e01c8063757991a8116101ab5780639ff5ff49116100f7578063cb9ae70711610095578063dc6e9cf91161006f578063dc6e9cf9146108e4578063dd62ed3e146108fa578063ddfbd8dd14610940578063e932012b1461096057600080fd5b8063cb9ae707146108a3578063d0856d16146108b9578063d60d2ce6146108ce57600080fd5b8063b5ade81b116100d1578063b5ade81b14610838578063bb7a779d1461084e578063c0abebe01461086e578063c8a1465c1461088357600080fd5b80639ff5ff49146107e2578063a68eb88e14610802578063a9059cbb1461081857600080fd5b80638ae0368b1161016457806394b939ef1161013e57806394b939ef1461075b57806395d89b411461077b57806397566aa0146107ac5780639fa879d9146107cc57600080fd5b80638ae0368b146107055780638da5cb5b1461071b5780638f4ffcb11461073b57600080fd5b8063757991a81461067857806381269a561461068d578063829965cc146106ad57806387a2a9d6146106c35780638a5550f6146106d95780638a769d35146106ef57600080fd5b806330717bf311610285578063510de0941161022357806364e46726116101fd57806364e46726146105ec57806365104a911461060c5780636de9f32b1461062c57806370a082311461064257600080fd5b8063510de0941461058a57806359c5bf60146105aa57806361805cc3146105cc57600080fd5b806345d8a2321161025f57806345d8a23214610534578063490203a71461054a5780634ef376281461055f5780634fa972e11461057457600080fd5b806330717bf3146104e2578063313ce567146104f857806332e997081461051f57600080fd5b80631fccb33c116102f257806323b872dd116102cc57806323b872dd1461045e5780632d38bf7a1461047e5780632ea83565146104945780632f104e0c146104aa57600080fd5b80631fccb33c1461041257806320fa80d9146104325780632381a60e1461044857600080fd5b806306fdde0314610348578063095ea7b31461037357806310294317146103a357806317da485f146103c75780631801fbe5146103dc57806318160ddd146103fc57600080fd5b3661034357600080fd5b600080fd5b34801561035457600080fd5b5061035d610976565b60405161036a9190612949565b60405180910390f35b34801561037f57600080fd5b5061039361038e3660046129ba565b610a04565b604051901515815260200161036a565b3480156103af57600080fd5b506103b960165481565b60405190815260200161036a565b3480156103d357600080fd5b506103b9610a71565b3480156103e857600080fd5b506103936103f73660046129e4565b610a8f565b34801561040857600080fd5b506103b960095481565b34801561041e57600080fd5b5061039361042d366004612ad4565b610aa3565b34801561043e57600080fd5b506103b960055481565b34801561045457600080fd5b506103b960145481565b34801561046a57600080fd5b50610393610479366004612b35565b610b66565b34801561048a57600080fd5b506103b960125481565b3480156104a057600080fd5b506103b960035481565b3480156104b657600080fd5b506007546104ca906001600160a01b031681565b6040516001600160a01b03909116815260200161036a565b3480156104ee57600080fd5b506103b960045481565b34801561050457600080fd5b5061050d601281565b60405160ff909116815260200161036a565b34801561052b57600080fd5b506010546103b9565b34801561054057600080fd5b506103b9610b4081565b34801561055657600080fd5b506103b9610c52565b34801561056b57600080fd5b506011546103b9565b34801561058057600080fd5b506103b960135481565b34801561059657600080fd5b506008546104ca906001600160a01b031681565b3480156105b657600080fd5b506105ca6105c5366004612b71565b610c83565b005b3480156105d857600080fd5b506105ca6105e7366004612bb4565b610d0e565b3480156105f857600080fd5b506105ca610607366004612b71565b610de4565b34801561061857600080fd5b506103b96106273660046129e4565b610f6f565b34801561063857600080fd5b506103b9601b5481565b34801561064e57600080fd5b506103b961065d366004612be0565b6001600160a01b03166000908152601c602052604090205490565b34801561068457600080fd5b50600c546103b9565b34801561069957600080fd5b506103936106a8366004612bfb565b611060565b3480156106b957600080fd5b506103b9600c5481565b3480156106cf57600080fd5b506103b9600f5481565b3480156106e557600080fd5b506103b960215481565b3480156106fb57600080fd5b506103b960105481565b34801561071157600080fd5b506103b960115481565b34801561072757600080fd5b506000546104ca906001600160a01b031681565b34801561074757600080fd5b506105ca610756366004612c2d565b6110ab565b34801561076757600080fd5b506006546104ca906001600160a01b031681565b34801561078757600080fd5b5061035d60405180604001604052806005815260200164466f72676560d81b81525081565b3480156107b857600080fd5b506103b96107c7366004612bb4565b611138565b3480156107d857600080fd5b506103b960025481565b3480156107ee57600080fd5b506103b96107fd366004612cfe565b611173565b34801561080e57600080fd5b506103b960195481565b34801561082457600080fd5b506103936108333660046129ba565b611602565b34801561084457600080fd5b506103b9600d5481565b34801561085a57600080fd5b506103b9610869366004612d87565b611687565b34801561087a57600080fd5b50601b546103b9565b34801561088f57600080fd5b506103b961089e366004612db7565b611a06565b3480156108af57600080fd5b506103b960235481565b3480156108c557600080fd5b506105ca611e90565b3480156108da57600080fd5b506103b960015481565b3480156108f057600080fd5b506103b9600e5481565b34801561090657600080fd5b506103b9610915366004612df3565b6001600160a01b039182166000908152601d6020908152604080832093909416825291909152205490565b34801561094c57600080fd5b506103b961095b366004612e26565b6120ec565b34801561096c57600080fd5b506103b9600b5481565b6020805461098390612e52565b80601f01602080910402602001604051908101604052809291908181526020018280546109af90612e52565b80156109fc5780601f106109d1576101008083540402835291602001916109fc565b820191906000526020600020905b8154815290600101906020018083116109df57829003601f168201915b505050505081565b336000818152601d602090815260408083206001600160a01b038716808552925280832085905551919290917f8c5be1e5ebec7d5bd14f71427d1e84f3dd0314c0f7b2291e5b200ac8c7c3b92590610a5f9086815260200190565b60405180910390a35060015b92915050565b6000610a8a601054600f546124a890919063ffffffff16565b905090565b6000610a9c8383336120ec565b5092915050565b60008083516001610ab49190612ea3565b67ffffffffffffffff811115610acc57610acc612a06565b604051908082528060200260200182016040528015610af5578160200160208202803683370190505b50905060005b8451610b08906001612ea3565b811015610b4c5783828281518110610b2257610b22612ebb565b6001600160a01b039092166020928302919091019091015280610b4481612ed1565b915050610afb565b50610b5986868684611a06565b5060019695505050505050565b6001600160a01b0383166000908152601c6020526040812054610b8990836124f6565b6001600160a01b0385166000908152601c6020908152604080832093909355601d815282822033835290522054610bc090836124f6565b6001600160a01b038086166000908152601d602090815260408083203384528252808320949094559186168152601c9091522054610bfe9083612542565b6001600160a01b038085166000818152601c602052604090819020939093559151908616906000805160206131f683398151915290610c409086815260200190565b60405180910390a35060019392505050565b6000610a8a6012546002610c669190612fd0565b610c726012600a612fd0565b610c7d906064612fdc565b906124a8565b6000546001600160a01b03163314610ccf5760405162461bcd60e51b815260206004820152600a60248201526937b7363c9037bbb732b960b11b60448201526064015b60405180910390fd5b600680546001600160a01b039485166001600160a01b031991821617909155600780549385169382169390931790925560088054919093169116179055565b6000610b40610d1d8385612ffb565b610d2990610378612fdc565b610d339190613028565b600381905590506000610378610d4a836064612fdc565b610d549190613028565b9050600061013a821015610db557620470dc610d7a610378610c7d8663026f7f3c612fdc565b610d9a620c0840610d8c60028861303c565b610c7d906303a2cdf0612fdc565b610da49190612ea3565b610dae9190612ffb565b9050610dda565b610dc9610378610c7d856305f5e100612fdc565b610dd7906314dc9380612ea3565b90505b6001555050505050565b6000546001600160a01b03163314610e2b5760405162461bcd60e51b815260206004820152600a60248201526937b7363c9037bbb732b960b11b6044820152606401610cc6565b60006021546002610e3c9190612fd0565b610e47906002612fdc565b610e5c906a115eec47f6cf7e35000000613028565b60245490915060ff1615610e7257610e7261304b565b6024805460ff1916600117905560006012819055601b55600f54610e98906175356124a8565b60105542600b55610ea7612590565b6001600160a01b0384166000818152601c60209081526040808320859055518481526000805160206131f6833981519152910160405180910390a3600680546001600160a01b038087166001600160a01b031992831617909255600780548684169083161790556008805492851692909116919091179055600c54601555336000818152601c6020526040808220670de0b6b3a76400009081905590516000805160206131f683398151915291610f619190815260200190565b60405180910390a350505050565b6000806011543385604051602001610f8993929190613061565b604051602081830303815290604052805190602001209050828114610fc05760405162461bcd60e51b8152600401610cc690613089565b6010548110610fe15760405162461bcd60e51b8152600401610cc6906130d7565b610fe9612590565b601654421161100a5760405162461bcd60e51b8152600401610cc69061311f565b42601655600c546011546040805160008152602081019390935282015233907fcf6fbb9dcea7d07263ab4f5c3a92f53af33dffc421d9d121e1c74b307e68189d9060600160405180910390a25060009392505050565b60008083338760405160200161107893929190613061565b604051602081830303815290604052805190602001209050828160001c11156110a057600080fd5b909314949350505050565b6001600160a01b03821630146110c057600080fd5b60405163a9059cbb60e01b81526001600160a01b038516600482015260248101849052309063a9059cbb906044016020604051808303816000875af115801561110d573d6000803e3d6000fd5b505050506040513d601f19601f82011682018060405250810190611131919061314e565b5050505050565b600080601154338660405160200161115293929190613061565b60408051808303601f19018152919052805160209091012095945050505050565b6000825160016111839190612ea3565b8251146111a25760405162461bcd60e51b8152600401610cc69061316b565b60005b8351811015611366576111b9816001612ea3565b6111c4906002612fd0565b600c546111d191906131c8565b156111db57611366565b306001600160a01b03168482815181106111f7576111f7612ebb565b60200260200101516001600160a01b031614158015611248575060085484516001600160a01b039091169085908390811061123457611234612ebb565b60200260200101516001600160a01b031614155b6112945760405162461bcd60e51b815260206004820152601a60248201527f4e6f2062617365207072696e74696e67206f6620746f6b656e730000000000006044820152606401610cc6565b60006112a1826001612ea3565b90505b8451811015611353578482815181106112bf576112bf612ebb565b60200260200101516001600160a01b03168582815181106112e2576112e2612ebb565b60200260200101516001600160a01b031614156113415760405162461bcd60e51b815260206004820152601b60248201527f4e6f207072696e74696e67205468652073616d6520746f6b656e7300000000006044820152606401610cc6565b8061134b81612ed1565b9150506112a4565b508061135e81612ed1565b9150506111a5565b600061138d87878660008151811061138057611380612ebb565b6020026020010151611687565b9050600081116113cc5760405162461bcd60e51b815260206004820152600a6024820152696d696e7420697373756560b01b6044820152606401610cc6565b60008060005b848110156115ac576113e5816001612ea3565b6113f0906002612fd0565b600c546113fd91906131c8565b61159a5787818151811061141357611413612ebb565b60209081029190910101516040516370a0823160e01b81523060048201526001600160a01b03909116906370a0823190602401602060405180830381865afa158015611463573d6000803e3d6000fd5b505050506040513d601f19601f8201168201806040525081019061148791906131dc565b9150811561159a5761149a6003826131c8565b1580156114a657508015155b156114cb576114c4643a352944006114be8685612fdc565b90612736565b92506114e1565b6114de643a35294400610c7d8685612fdc565b92505b8781815181106114f3576114f3612ebb565b60200260200101516001600160a01b031663a9059cbb88838151811061151b5761151b612ebb565b6020026020010151856040518363ffffffff1660e01b81526004016115559291906001600160a01b03929092168252602082015260400190565b6020604051808303816000875af1158015611574573d6000803e3d6000fd5b505050506040513d601f19601f82011682018060405250810190611598919061314e565b505b806115a481612ed1565b9150506113d2565b50600c54601154604080519283526020830191909152810185905233907fc32557acceb6aeb205c3115ac08a8dc54d82fb5ea08f2b7f1e6b794488e3851c9060600160405180910390a250979650505050505050565b336000908152601c602052604081205461161c90836124f6565b336000908152601c6020526040808220929092556001600160a01b038516815220546116489083612542565b6001600160a01b0384166000818152601c60205260409081902092909255905133906000805160206131f683398151915290610a5f9086815260200190565b6000611691612590565b60165442116116b25760405162461bcd60e51b8152600401610cc69061311f565b6000610b40601654426116c59190612ffb565b6116d190610378612fdc565b6116db9190613028565b905060006103786116ed836064612fdc565b6116f79190613028565b9050600061013a82101561173c57611719610378610c7d8563026f7f3c612fdc565b61172b620c0840610d8c60028761303c565b6117359190612ea3565b9050611761565b611750610378610c7d856305f5e100612fdc565b61175e9063d09dc300612ea3565b90505b61179961177a6305f5e10083601454610c7d9190612fdc565b6001600160a01b0387166000908152601c602052604090205490612542565b6001600160a01b0386166000908152601c60205260409020556014546117ef906117ce90630bebc20090610c7d908590612fdc565b6007546001600160a01b03166000908152601c602052604090205490612542565b6007546001600160a01b03166000908152601c602052604090205560145461182f90611826906305f5e10090610c7d908590612fdc565b601b5490612542565b601b5542601655601e54156119975760c88210156118f757600854601e546019546001600160a01b039092169163a9059cbb918891611882916305f5e100916118789088612fdc565b610c7d9190612fdc565b6040516001600160e01b031960e085901b1681526001600160a01b03909216600483015260248201526044016020604051808303816000875af11580156118cd573d6000803e3d6000fd5b505050506040513d601f19601f820116820180604052508101906118f1919061314e565b50611997565b600854601e546019546001600160a01b039092169163a9059cbb91889161192691600a91611878906017612fdc565b6040516001600160e01b031960e085901b1681526001600160a01b03909216600483015260248201526044016020604051808303816000875af1158015611971573d6000803e3d6000fd5b505050506040513d601f19601f82011682018060405250810190611995919061314e565b505b336001600160a01b03167fcf6fbb9dcea7d07263ab4f5c3a92f53af33dffc421d9d121e1c74b307e68189d6119d86305f5e10084601454610c7d9190612fdc565b600c546011546040805193845260208401929092529082015260600160405180910390a29695505050505050565b600082516001611a169190612ea3565b825114611a355760405162461bcd60e51b8152600401610cc69061316b565b60005b8351811015611bf957611a4c816001612ea3565b611a57906002612fd0565b600c54611a6491906131c8565b15611a6e57611bf9565b306001600160a01b0316848281518110611a8a57611a8a612ebb565b60200260200101516001600160a01b031614158015611adb575060085484516001600160a01b0390911690859083908110611ac757611ac7612ebb565b60200260200101516001600160a01b031614155b611b275760405162461bcd60e51b815260206004820152601a60248201527f4e6f2062617365207072696e74696e67206f6620746f6b656e730000000000006044820152606401610cc6565b6000611b34826001612ea3565b90505b8451811015611be657848281518110611b5257611b52612ebb565b60200260200101516001600160a01b0316858281518110611b7557611b75612ebb565b60200260200101516001600160a01b03161415611bd45760405162461bcd60e51b815260206004820152601b60248201527f4e6f207072696e74696e67205468652073616d6520746f6b656e7300000000006044820152606401610cc6565b80611bde81612ed1565b915050611b37565b5080611bf181612ed1565b915050611a38565b6000611c20878786600081518110611c1357611c13612ebb565b60200260200101516120ec565b905060008111611c5f5760405162461bcd60e51b815260206004820152600a6024820152696d696e7420697373756560b01b6044820152606401610cc6565b60008060005b84811015611e3957611c78816001612ea3565b611c83906002612fd0565b600c54611c9091906131c8565b611e2757878181518110611ca657611ca6612ebb565b60209081029190910101516040516370a0823160e01b81523060048201526001600160a01b03909116906370a0823190602401602060405180830381865afa158015611cf6573d6000803e3d6000fd5b505050506040513d601f19601f82011682018060405250810190611d1a91906131dc565b91508115611d6e57611d2d6003826131c8565b158015611d3957508015155b15611d5857611d51643a352944006114be8685612fdc565b9250611d6e565b611d6b643a35294400610c7d8685612fdc565b92505b878181518110611d8057611d80612ebb565b60200260200101516001600160a01b031663a9059cbb888381518110611da857611da8612ebb565b6020026020010151856040518363ffffffff1660e01b8152600401611de29291906001600160a01b03929092168252602082015260400190565b6020604051808303816000875af1158015611e01573d6000803e3d6000fd5b505050506040513d601f19601f82011682018060405250810190611e25919061314e565b505b80611e3181612ed1565b915050611c65565b50600c54601154604080519283526020830191909152810185905233907fc32557acceb6aeb205c3115ac08a8dc54d82fb5ea08f2b7f1e6b794488e3851c9060600160405180910390a25090979650505050505050565b600060225442611ea09190612ffb565b90506000601554600c54611eb49190612ffb565b90506000611ec28284613028565b9050611ed66012546002610c669190612fd0565b6014556000611eed610b406114be84610378612fdc565b600481905590506000610378611f04836064612fdc565b611f0e9190613028565b9050600060c8821015611f5257611f2f610378610c7d8563026f7f3c612fdc565b611f41620c0840610d8c60028761303c565b611f4b9190612ea3565b9050611f59565b50630db585805b611f7d630bebc200601e546019548489611f739190612fdc565b6118789190612fdc565b600555600d54601954600491611f9291612fdc565b611f9d90603c612fdc565b611fa79190613028565b6008546040516370a0823160e01b81523060048201526001600160a01b03909116906370a0823190602401602060405180830381865afa158015611fef573d6000803e3d6000fd5b505050506040513d601f19601f8201168201806040525081019061201391906131dc565b11156120d457600854600754601e546019546001600160a01b039384169363a9059cbb93169161204e91630bebc2009190611f73888d612fdc565b6040516001600160e01b031960e085901b1681526001600160a01b03909216600483015260248201526044016020604051808303816000875af1158015612099573d6000803e3d6000fd5b505050506040513d601f19601f820116820180604052508101906120bd919061314e565b50601f546120cc906001612fdc565b601e556120da565b6000601e555b5050600c546015555050426022555050565b600080601154338660405160200161210693929190613061565b60405160208183030381529060405280519060200120905083811461213d5760405162461bcd60e51b8152600401610cc690613089565b601054811061215e5760405162461bcd60e51b8152600401610cc6906130d7565b612166612590565b60165442116121875760405162461bcd60e51b8152600401610cc69061311f565b6000610b406016544261219a9190612ffb565b6121a690610378612fdc565b6121b09190613028565b905060006103786121c2836064612fdc565b6121cc9190613028565b9050600061013a821015612211576121ee610378610c7d8563026f7f3c612fdc565b612200620c0840610d8c60028761303c565b61220a9190612ea3565b9050612236565b612225610378610c7d856305f5e100612fdc565b612233906314dc9380612ea3565b90505b61226e61224f6305f5e10083601454610c7d9190612fdc565b6001600160a01b0388166000908152601c602052604090205490612542565b6001600160a01b0387166000908152601c60205260409020556014546122a3906117ce90630bebc20090610c7d908590612fdc565b6007546001600160a01b03166000908152601c60205260409020556014546122da90611826906305f5e10090610c7d908590612fdc565b601b5542601655601e54156124385760c882101561239857600854601e546019546001600160a01b039092169163a9059cbb918991612323916305f5e100916118789088612fdc565b6040516001600160e01b031960e085901b1681526001600160a01b03909216600483015260248201526044016020604051808303816000875af115801561236e573d6000803e3d6000fd5b505050506040513d601f19601f82011682018060405250810190612392919061314e565b50612438565b600854601e546019546001600160a01b039092169163a9059cbb9189916123c791600a91611878906017612fdc565b6040516001600160e01b031960e085901b1681526001600160a01b03909216600483015260248201526044016020604051808303816000875af1158015612412573d6000803e3d6000fd5b505050506040513d601f19601f82011682018060405250810190612436919061314e565b505b336001600160a01b03167fcf6fbb9dcea7d07263ab4f5c3a92f53af33dffc421d9d121e1c74b307e68189d6124796305f5e10084601454610c7d9190612fdc565b600c546011546040805193845260208401929092529082015260600160405180910390a2979650505050505050565b6000816124e55760405162461bcd60e51b815260206004820152600b60248201526a446976206279207a65726f60a81b6044820152606401610cc6565b6124ef8284613028565b9392505050565b6000818310156125385760405162461bcd60e51b815260206004820152600d60248201526c53756220756e646572666c6f7760981b6044820152606401610cc6565b6124ef8284612ffb565b60008061254f8385612ea3565b9050838110156124ef5760405162461bcd60e51b815260206004820152600c60248201526b416464206f766572666c6f7760a01b6044820152606401610cc6565b601354601b541180156125a557506027601254105b156125d9576012546125b8906001612ea3565b60128190556125d5906125cc906002612fd0565b601054906127a3565b6010555b600c546125e7906001612542565b600c55600d546125f990600490613028565b600c5461260691906131c8565b61272557612612611e90565b61263860125460016126249190612ea3565b61262f906002612fd0565b600a54906124a8565b600a546126459190612ffb565b601355600d54600c5461265891906131c8565b612725576019546008546040516370a0823160e01b8152306004820152614e2092916001600160a01b0316906370a0823190602401602060405180830381865afa1580156126aa573d6000803e3d6000fd5b505050506040513d601f19601f820116820180604052508101906126ce91906131dc565b6126d89190613028565b1161270b57601a546019546126ee9060026124a8565b1115612706576019546127029060026124a8565b6019555b61271d565b6019546127199060036127a3565b6019555b612725612808565b612730600143612ffb565b40601155565b6000816127735760405162461bcd60e51b815260206004820152600b60248201526a446976206279207a65726f60a81b6044820152606401610cc6565b600061277f8385613028565b905061278b83856131c8565b156124ef5761279b816001612ea3565b949350505050565b6000826127b257506000610a6b565b60006127be8385612fdc565b9050826127cb8583613028565b146124ef5760405162461bcd60e51b815260206004820152600d60248201526c4d756c74206f766572666c6f7760981b6044820152606401610cc6565b600b54429060009061281a9083612ffb565b90506000600d54610b4061282e9190612fdc565b9050808210156128a357600061284983610c7d8460646127a3565b6001601f55905060006128696103e86128638460646124f6565b90612931565b905061289861288f826128896107d06010546124a890919063ffffffff16565b906127a3565b601054906124f6565b601055506128fd9050565b60006128b482610c7d8560646127a3565b6002601f55905060006128ce6103e86128638460646124f6565b90506128f76128ee826128896103e86010546124a890919063ffffffff16565b60105490612542565b60105550505b600b83905543602355600e54601054101561291957600e546010555b600f54601054111561292c57600f546010555b505050565b600081831115612942575080610a6b565b5090919050565b600060208083528351808285015260005b818110156129765785810183015185820160400152820161295a565b81811115612988576000604083870101525b50601f01601f1916929092016040019392505050565b80356001600160a01b03811681146129b557600080fd5b919050565b600080604083850312156129cd57600080fd5b6129d68361299e565b946020939093013593505050565b600080604083850312156129f757600080fd5b50508035926020909101359150565b634e487b7160e01b600052604160045260246000fd5b604051601f8201601f1916810167ffffffffffffffff81118282101715612a4557612a45612a06565b604052919050565b600082601f830112612a5e57600080fd5b8135602067ffffffffffffffff821115612a7a57612a7a612a06565b8160051b612a89828201612a1c565b9283528481018201928281019087851115612aa357600080fd5b83870192505b84831015612ac957612aba8361299e565b82529183019190830190612aa9565b979650505050505050565b60008060008060808587031215612aea57600080fd5b8435935060208501359250604085013567ffffffffffffffff811115612b0f57600080fd5b612b1b87828801612a4d565b925050612b2a6060860161299e565b905092959194509250565b600080600060608486031215612b4a57600080fd5b612b538461299e565b9250612b616020850161299e565b9150604084013590509250925092565b600080600060608486031215612b8657600080fd5b612b8f8461299e565b9250612b9d6020850161299e565b9150612bab6040850161299e565b90509250925092565b600080600060608486031215612bc957600080fd5b505081359360208301359350604090920135919050565b600060208284031215612bf257600080fd5b6124ef8261299e565b60008060008060808587031215612c1157600080fd5b5050823594602084013594506040840135936060013592509050565b60008060008060808587031215612c4357600080fd5b612c4c8561299e565b93506020808601359350612c626040870161299e565b9250606086013567ffffffffffffffff80821115612c7f57600080fd5b818801915088601f830112612c9357600080fd5b813581811115612ca557612ca5612a06565b612cb7601f8201601f19168501612a1c565b91508082528984828501011115612ccd57600080fd5b808484018584013760008482840101525080935050505092959194509250565b8015158114612cfb57600080fd5b50565b60008060008060808587031215612d1457600080fd5b8435612d1f81612ced565b93506020850135612d2f81612ced565b9250604085013567ffffffffffffffff80821115612d4c57600080fd5b612d5888838901612a4d565b93506060870135915080821115612d6e57600080fd5b50612d7b87828801612a4d565b91505092959194509250565b600080600060608486031215612d9c57600080fd5b8335612da781612ced565b92506020840135612b9d81612ced565b60008060008060808587031215612dcd57600080fd5b8435935060208501359250604085013567ffffffffffffffff80821115612d4c57600080fd5b60008060408385031215612e0657600080fd5b612e0f8361299e565b9150612e1d6020840161299e565b90509250929050565b600080600060608486031215612e3b57600080fd5b8335925060208401359150612bab6040850161299e565b600181811c90821680612e6657607f821691505b60208210811415612e8757634e487b7160e01b600052602260045260246000fd5b50919050565b634e487b7160e01b600052601160045260246000fd5b60008219821115612eb657612eb6612e8d565b500190565b634e487b7160e01b600052603260045260246000fd5b6000600019821415612ee557612ee5612e8d565b5060010190565b600181815b80851115612f27578160001904821115612f0d57612f0d612e8d565b80851615612f1a57918102915b93841c9390800290612ef1565b509250929050565b600082612f3e57506001610a6b565b81612f4b57506000610a6b565b8160018114612f615760028114612f6b57612f87565b6001915050610a6b565b60ff841115612f7c57612f7c612e8d565b50506001821b610a6b565b5060208310610133831016604e8410600b8410161715612faa575081810a610a6b565b612fb48383612eec565b8060001904821115612fc857612fc8612e8d565b029392505050565b60006124ef8383612f2f565b6000816000190483118215151615612ff657612ff6612e8d565b500290565b60008282101561300d5761300d612e8d565b500390565b634e487b7160e01b600052601260045260246000fd5b60008261303757613037613012565b500490565b60006124ef60ff841683612f2f565b634e487b7160e01b600052600160045260246000fd5b92835260609190911b6bffffffffffffffffffffffff19166020830152603482015260540190565b6020808252602e908201527f4f6c64206368616c6c656e67655f646967657374206f722077726f6e6720636860408201526d185b1b195b99d957d91a59d95cdd60921b606082015260800190565b60208082526028908201527f446967657374206d75737420626520736d616c6c6572207468616e206d696e696040820152671b99d5185c99d95d60c21b606082015260800190565b6020808252601590820152744e6f2073616d65207365636f6e6420736f6c76657360581b604082015260600190565b60006020828403121561316057600080fd5b81516124ef81612ced565b6020808252603d908201527f536f204d696e74546f2068617320746f20686176652073616d65206e756d626560408201527f72206f66206164647265737373657320617320457874726146756e6473000000606082015260800190565b6000826131d7576131d7613012565b500690565b6000602082840312156131ee57600080fd5b505191905056feddf252ad1be2c89b69c2b068fc378daa952ba7f163c4a11628f55a4df523b3efa2646970667358221220adeb11185509c70de48da6f44ffcec30b2b783741f46fa800755eab4dbdb4cd664736f6c634300080b0033",
  "bytecodeSha1": "4ed067298767d91a5afb6cdad47386002bd18900",
  "compiler": {
    "evm_version": "istanbul",
    "optimizer": {
      "enabled": true,
      "runs": 200
    },
    "version": "0.8.11+commit.d7f03943"
  },
  "contractName": "ForgeMining",
  "language": "Solidity",
  "natspec": {
    "kind": "dev",
    "methods": {},
    "version": 1
  },
  "opcodes": "PUSH1 0x80 PUSH1 0x40 MSTORE PUSH1 0x4 CALLDATASIZE LT PUSH2 0x339 JUMPI PUSH1 0x0 CALLDATALOAD PUSH1 0xE0 SHR DUP1 PUSH4 0x757991A8 GT PUSH2 0x1AB JUMPI DUP1 PUSH4 0x9FF5FF49 GT PUSH2 0xF7 JUMPI DUP1 PUSH4 0xCB9AE707 GT PUSH2 0x95 JUMPI DUP1 PUSH4 0xDC6E9CF9 GT PUSH2 0x6F JUMPI DUP1 PUSH4 0xDC6E9CF9 EQ PUSH2 0x8E4 JUMPI DUP1 PUSH4 0xDD62ED3E EQ PUSH2 0x8FA JUMPI DUP1 PUSH4 0xDDFBD8DD EQ PUSH2 0x940 JUMPI DUP1 PUSH4 0xE932012B EQ PUSH2 0x960 JUMPI PUSH1 0x0 DUP1 REVERT JUMPDEST DUP1 PUSH4 0xCB9AE707 EQ PUSH2 0x8A3 JUMPI DUP1 PUSH4 0xD0856D16 EQ PUSH2 0x8B9 JUMPI DUP1 PUSH4 0xD60D2CE6 EQ PUSH2 0x8CE JUMPI PUSH1 0x0 DUP1 REVERT JUMPDEST DUP1 PUSH4 0xB5ADE81B GT PUSH2 0xD1 JUMPI DUP1 PUSH4 0xB5ADE81B EQ PUSH2 0x838 JUMPI DUP1 PUSH4 0xBB7A779D EQ PUSH2 0x84E JUMPI DUP1 PUSH4 0xC0ABEBE0 EQ PUSH2 0x86E JUMPI DUP1 PUSH4 0xC8A1465C EQ PUSH2 0x883 JUMPI PUSH1 0x0 DUP1 REVERT JUMPDEST DUP1 PUSH4 0x9FF5FF49 EQ PUSH2 0x7E2 JUMPI DUP1 PUSH4 0xA68EB88E EQ PUSH2 0x802 JUMPI DUP1 PUSH4 0xA9059CBB EQ PUSH2 0x818 JUMPI PUSH1 0x0 DUP1 REVERT JUMPDEST DUP1 PUSH4 0x8AE0368B GT PUSH2 0x164 JUMPI DUP1 PUSH4 0x94B939EF GT PUSH2 0x13E JUMPI DUP1 PUSH4 0x94B939EF EQ PUSH2 0x75B JUMPI DUP1 PUSH4 0x95D89B41 EQ PUSH2 0x77B JUMPI DUP1 PUSH4 0x97566AA0 EQ PUSH2 0x7AC JUMPI DUP1 PUSH4 0x9FA879D9 EQ PUSH2 0x7CC JUMPI PUSH1 0x0 DUP1 REVERT JUMPDEST DUP1 PUSH4 0x8AE0368B EQ PUSH2 0x705 JUMPI DUP1 PUSH4 0x8DA5CB5B EQ PUSH2 0x71B JUMPI DUP1 PUSH4 0x8F4FFCB1 EQ PUSH2 0x73B JUMPI PUSH1 0x0 DUP1 REVERT JUMPDEST DUP1 PUSH4 0x757991A8 EQ PUSH2 0x678 JUMPI DUP1 PUSH4 0x81269A56 EQ PUSH2 0x68D JUMPI DUP1 PUSH4 0x829965CC EQ PUSH2 0x6AD JUMPI DUP1 PUSH4 0x87A2A9D6 EQ PUSH2 0x6C3 JUMPI DUP1 PUSH4 0x8A5550F6 EQ PUSH2 0x6D9 JUMPI DUP1 PUSH4 0x8A769D35 EQ PUSH2 0x6EF JUMPI PUSH1 0x0 DUP1 REVERT JUMPDEST DUP1 PUSH4 0x30717BF3 GT PUSH2 0x285 JUMPI DUP1 PUSH4 0x510DE094 GT PUSH2 0x223 JUMPI DUP1 PUSH4 0x64E46726 GT PUSH2 0x1FD JUMPI DUP1 PUSH4 0x64E46726 EQ PUSH2 0x5EC JUMPI DUP1 PUSH4 0x65104A91 EQ PUSH2 0x60C JUMPI DUP1 PUSH4 0x6DE9F32B EQ PUSH2 0x62C JUMPI DUP1 PUSH4 0x70A08231 EQ PUSH2 0x642 JUMPI PUSH1 0x0 DUP1 REVERT JUMPDEST DUP1 PUSH4 0x510DE094 EQ PUSH2 0x58A JUMPI DUP1 PUSH4 0x59C5BF60 EQ PUSH2 0x5AA JUMPI DUP1 PUSH4 0x61805CC3 EQ PUSH2 0x5CC JUMPI PUSH1 0x0 DUP1 REVERT JUMPDEST DUP1 PUSH4 0x45D8A232 GT PUSH2 0x25F JUMPI DUP1 PUSH4 0x45D8A232 EQ PUSH2 0x534 JUMPI DUP1 PUSH4 0x490203A7 EQ PUSH2 0x54A JUMPI DUP1 PUSH4 0x4EF37628 EQ PUSH2 0x55F JUMPI DUP1 PUSH4 0x4FA972E1 EQ PUSH2 0x574 JUMPI PUSH1 0x0 DUP1 REVERT JUMPDEST DUP1 PUSH4 0x30717BF3 EQ PUSH2 0x4E2 JUMPI DUP1 PUSH4 0x313CE567 EQ PUSH2 0x4F8 JUMPI DUP1 PUSH4 0x32E99708 EQ PUSH2 0x51F JUMPI PUSH1 0x0 DUP1 REVERT JUMPDEST DUP1 PUSH4 0x1FCCB33C GT PUSH2 0x2F2 JUMPI DUP1 PUSH4 0x23B872DD GT PUSH2 0x2CC JUMPI DUP1 PUSH4 0x23B872DD EQ PUSH2 0x45E JUMPI DUP1 PUSH4 0x2D38BF7A EQ PUSH2 0x47E JUMPI DUP1 PUSH4 0x2EA83565 EQ PUSH2 0x494 JUMPI DUP1 PUSH4 0x2F104E0C EQ PUSH2 0x4AA JUMPI PUSH1 0x0 DUP1 REVERT JUMPDEST DUP1 PUSH4 0x1FCCB33C EQ PUSH2 0x412 JUMPI DUP1 PUSH4 0x20FA80D9 EQ PUSH2 0x432 JUMPI DUP1 PUSH4 0x2381A60E EQ PUSH2 0x448 JUMPI PUSH1 0x0 DUP1 REVERT JUMPDEST DUP1 PUSH4 0x6FDDE03 EQ PUSH2 0x348 JUMPI DUP1 PUSH4 0x95EA7B3 EQ PUSH2 0x373 JUMPI DUP1 PUSH4 0x10294317 EQ PUSH2 0x3A3 JUMPI DUP1 PUSH4 0x17DA485F EQ PUSH2 0x3C7 JUMPI DUP1 PUSH4 0x1801FBE5 EQ PUSH2 0x3DC JUMPI DUP1 PUSH4 0x18160DDD EQ PUSH2 0x3FC JUMPI PUSH1 0x0 DUP1 REVERT JUMPDEST CALLDATASIZE PUSH2 0x343 JUMPI PUSH1 0x0 DUP1 REVERT JUMPDEST PUSH1 0x0 DUP1 REVERT JUMPDEST CALLVALUE DUP1 ISZERO PUSH2 0x354 JUMPI PUSH1 0x0 DUP1 REVERT JUMPDEST POP PUSH2 0x35D PUSH2 0x976 JUMP JUMPDEST PUSH1 0x40 MLOAD PUSH2 0x36A SWAP2 SWAP1 PUSH2 0x2949 JUMP JUMPDEST PUSH1 0x40 MLOAD DUP1 SWAP2 SUB SWAP1 RETURN JUMPDEST CALLVALUE DUP1 ISZERO PUSH2 0x37F JUMPI PUSH1 0x0 DUP1 REVERT JUMPDEST POP PUSH2 0x393 PUSH2 0x38E CALLDATASIZE PUSH1 0x4 PUSH2 0x29BA JUMP JUMPDEST PUSH2 0xA04 JUMP JUMPDEST PUSH1 0x40 MLOAD SWAP1 ISZERO ISZERO DUP2 MSTORE PUSH1 0x20 ADD PUSH2 0x36A JUMP JUMPDEST CALLVALUE DUP1 ISZERO PUSH2 0x3AF JUMPI PUSH1 0x0 DUP1 REVERT JUMPDEST POP PUSH2 0x3B9 PUSH1 0x16 SLOAD DUP2 JUMP JUMPDEST PUSH1 0x40 MLOAD SWAP1 DUP2 MSTORE PUSH1 0x20 ADD PUSH2 0x36A JUMP JUMPDEST CALLVALUE DUP1 ISZERO PUSH2 0x3D3 JUMPI PUSH1 0x0 DUP1 REVERT JUMPDEST POP PUSH2 0x3B9 PUSH2 0xA71 JUMP JUMPDEST CALLVALUE DUP1 ISZERO PUSH2 0x3E8 JUMPI PUSH1 0x0 DUP1 REVERT JUMPDEST POP PUSH2 0x393 PUSH2 0x3F7 CALLDATASIZE PUSH1 0x4 PUSH2 0x29E4 JUMP JUMPDEST PUSH2 0xA8F JUMP JUMPDEST CALLVALUE DUP1 ISZERO PUSH2 0x408 JUMPI PUSH1 0x0 DUP1 REVERT JUMPDEST POP PUSH2 0x3B9 PUSH1 0x9 SLOAD DUP2 JUMP JUMPDEST CALLVALUE DUP1 ISZERO PUSH2 0x41E JUMPI PUSH1 0x0 DUP1 REVERT JUMPDEST POP PUSH2 0x393 PUSH2 0x42D CALLDATASIZE PUSH1 0x4 PUSH2 0x2AD4 JUMP JUMPDEST PUSH2 0xAA3 JUMP JUMPDEST CALLVALUE DUP1 ISZERO PUSH2 0x43E JUMPI PUSH1 0x0 DUP1 REVERT JUMPDEST POP PUSH2 0x3B9 PUSH1 0x5 SLOAD DUP2 JUMP JUMPDEST CALLVALUE DUP1 ISZERO PUSH2 0x454 JUMPI PUSH1 0x0 DUP1 REVERT JUMPDEST POP PUSH2 0x3B9 PUSH1 0x14 SLOAD DUP2 JUMP JUMPDEST CALLVALUE DUP1 ISZERO PUSH2 0x46A JUMPI PUSH1 0x0 DUP1 REVERT JUMPDEST POP PUSH2 0x393 PUSH2 0x479 CALLDATASIZE PUSH1 0x4 PUSH2 0x2B35 JUMP JUMPDEST PUSH2 0xB66 JUMP JUMPDEST CALLVALUE DUP1 ISZERO PUSH2 0x48A JUMPI PUSH1 0x0 DUP1 REVERT JUMPDEST POP PUSH2 0x3B9 PUSH1 0x12 SLOAD DUP2 JUMP JUMPDEST CALLVALUE DUP1 ISZERO PUSH2 0x4A0 JUMPI PUSH1 0x0 DUP1 REVERT JUMPDEST POP PUSH2 0x3B9 PUSH1 0x3 SLOAD DUP2 JUMP JUMPDEST CALLVALUE DUP1 ISZERO PUSH2 0x4B6 JUMPI PUSH1 0x0 DUP1 REVERT JUMPDEST POP PUSH1 0x7 SLOAD PUSH2 0x4CA SWAP1 PUSH1 0x1 PUSH1 0x1 PUSH1 0xA0 SHL SUB AND DUP2 JUMP JUMPDEST PUSH1 0x40 MLOAD PUSH1 0x1 PUSH1 0x1 PUSH1 0xA0 SHL SUB SWAP1 SWAP2 AND DUP2 MSTORE PUSH1 0x20 ADD PUSH2 0x36A JUMP JUMPDEST CALLVALUE DUP1 ISZERO PUSH2 0x4EE JUMPI PUSH1 0x0 DUP1 REVERT JUMPDEST POP PUSH2 0x3B9 PUSH1 0x4 SLOAD DUP2 JUMP JUMPDEST CALLVALUE DUP1 ISZERO PUSH2 0x504 JUMPI PUSH1 0x0 DUP1 REVERT JUMPDEST POP PUSH2 0x50D PUSH1 0x12 DUP2 JUMP JUMPDEST PUSH1 0x40 MLOAD PUSH1 0xFF SWAP1 SWAP2 AND DUP2 MSTORE PUSH1 0x20 ADD PUSH2 0x36A JUMP JUMPDEST CALLVALUE DUP1 ISZERO PUSH2 0x52B JUMPI PUSH1 0x0 DUP1 REVERT JUMPDEST POP PUSH1 0x10 SLOAD PUSH2 0x3B9 JUMP JUMPDEST CALLVALUE DUP1 ISZERO PUSH2 0x540 JUMPI PUSH1 0x0 DUP1 REVERT JUMPDEST POP PUSH2 0x3B9 PUSH2 0xB40 DUP2 JUMP JUMPDEST CALLVALUE DUP1 ISZERO PUSH2 0x556 JUMPI PUSH1 0x0 DUP1 REVERT JUMPDEST POP PUSH2 0x3B9 PUSH2 0xC52 JUMP JUMPDEST CALLVALUE DUP1 ISZERO PUSH2 0x56B JUMPI PUSH1 0x0 DUP1 REVERT JUMPDEST POP PUSH1 0x11 SLOAD PUSH2 0x3B9 JUMP JUMPDEST CALLVALUE DUP1 ISZERO PUSH2 0x580 JUMPI PUSH1 0x0 DUP1 REVERT JUMPDEST POP PUSH2 0x3B9 PUSH1 0x13 SLOAD DUP2 JUMP JUMPDEST CALLVALUE DUP1 ISZERO PUSH2 0x596 JUMPI PUSH1 0x0 DUP1 REVERT JUMPDEST POP PUSH1 0x8 SLOAD PUSH2 0x4CA SWAP1 PUSH1 0x1 PUSH1 0x1 PUSH1 0xA0 SHL SUB AND DUP2 JUMP JUMPDEST CALLVALUE DUP1 ISZERO PUSH2 0x5B6 JUMPI PUSH1 0x0 DUP1 REVERT JUMPDEST POP PUSH2 0x5CA PUSH2 0x5C5 CALLDATASIZE PUSH1 0x4 PUSH2 0x2B71 JUMP JUMPDEST PUSH2 0xC83 JUMP JUMPDEST STOP JUMPDEST CALLVALUE DUP1 ISZERO PUSH2 0x5D8 JUMPI PUSH1 0x0 DUP1 REVERT JUMPDEST POP PUSH2 0x5CA PUSH2 0x5E7 CALLDATASIZE PUSH1 0x4 PUSH2 0x2BB4 JUMP JUMPDEST PUSH2 0xD0E JUMP JUMPDEST CALLVALUE DUP1 ISZERO PUSH2 0x5F8 JUMPI PUSH1 0x0 DUP1 REVERT JUMPDEST POP PUSH2 0x5CA PUSH2 0x607 CALLDATASIZE PUSH1 0x4 PUSH2 0x2B71 JUMP JUMPDEST PUSH2 0xDE4 JUMP JUMPDEST CALLVALUE DUP1 ISZERO PUSH2 0x618 JUMPI PUSH1 0x0 DUP1 REVERT JUMPDEST POP PUSH2 0x3B9 PUSH2 0x627 CALLDATASIZE PUSH1 0x4 PUSH2 0x29E4 JUMP JUMPDEST PUSH2 0xF6F JUMP JUMPDEST CALLVALUE DUP1 ISZERO PUSH2 0x638 JUMPI PUSH1 0x0 DUP1 REVERT JUMPDEST POP PUSH2 0x3B9 PUSH1 0x1B SLOAD DUP2 JUMP JUMPDEST CALLVALUE DUP1 ISZERO PUSH2 0x64E JUMPI PUSH1 0x0 DUP1 REVERT JUMPDEST POP PUSH2 0x3B9 PUSH2 0x65D CALLDATASIZE PUSH1 0x4 PUSH2 0x2BE0 JUMP JUMPDEST PUSH1 0x1 PUSH1 0x1 PUSH1 0xA0 SHL SUB AND PUSH1 0x0 SWAP1 DUP2 MSTORE PUSH1 0x1C PUSH1 0x20 MSTORE PUSH1 0x40 SWAP1 KECCAK256 SLOAD SWAP1 JUMP JUMPDEST CALLVALUE DUP1 ISZERO PUSH2 0x684 JUMPI PUSH1 0x0 DUP1 REVERT JUMPDEST POP PUSH1 0xC SLOAD PUSH2 0x3B9 JUMP JUMPDEST CALLVALUE DUP1 ISZERO PUSH2 0x699 JUMPI PUSH1 0x0 DUP1 REVERT JUMPDEST POP PUSH2 0x393 PUSH2 0x6A8 CALLDATASIZE PUSH1 0x4 PUSH2 0x2BFB JUMP JUMPDEST PUSH2 0x1060 JUMP JUMPDEST CALLVALUE DUP1 ISZERO PUSH2 0x6B9 JUMPI PUSH1 0x0 DUP1 REVERT JUMPDEST POP PUSH2 0x3B9 PUSH1 0xC SLOAD DUP2 JUMP JUMPDEST CALLVALUE DUP1 ISZERO PUSH2 0x6CF JUMPI PUSH1 0x0 DUP1 REVERT JUMPDEST POP PUSH2 0x3B9 PUSH1 0xF SLOAD DUP2 JUMP JUMPDEST CALLVALUE DUP1 ISZERO PUSH2 0x6E5 JUMPI PUSH1 0x0 DUP1 REVERT JUMPDEST POP PUSH2 0x3B9 PUSH1 0x21 SLOAD DUP2 JUMP JUMPDEST CALLVALUE DUP1 ISZERO PUSH2 0x6FB JUMPI PUSH1 0x0 DUP1 REVERT JUMPDEST POP PUSH2 0x3B9 PUSH1 0x10 SLOAD DUP2 JUMP JUMPDEST CALLVALUE DUP1 ISZERO PUSH2 0x711 JUMPI PUSH1 0x0 DUP1 REVERT JUMPDEST POP PUSH2 0x3B9 PUSH1 0x11 SLOAD DUP2 JUMP JUMPDEST CALLVALUE DUP1 ISZERO PUSH2 0x727 JUMPI PUSH1 0x0 DUP1 REVERT JUMPDEST POP PUSH1 0x0 SLOAD PUSH2 0x4CA SWAP1 PUSH1 0x1 PUSH1 0x1 PUSH1 0xA0 SHL SUB AND DUP2 JUMP JUMPDEST CALLVALUE DUP1 ISZERO PUSH2 0x747 JUMPI PUSH1 0x0 DUP1 REVERT JUMPDEST POP PUSH2 0x5CA PUSH2 0x756 CALLDATASIZE PUSH1 0x4 PUSH2 0x2C2D JUMP JUMPDEST PUSH2 0x10AB JUMP JUMPDEST CALLVALUE DUP1 ISZERO PUSH2 0x767 JUMPI PUSH1 0x0 DUP1 REVERT JUMPDEST POP PUSH1 0x6 SLOAD PUSH2 0x4CA SWAP1 PUSH1 0x1 PUSH1 0x1 PUSH1 0xA0 SHL SUB AND DUP2 JUMP JUMPDEST CALLVALUE DUP1 ISZERO PUSH2 0x787 JUMPI PUSH1 0x0 DUP1 REVERT JUMPDEST POP PUSH2 0x35D PUSH1 0x40 MLOAD DUP1 PUSH1 0x40 ADD PUSH1 0x40 MSTORE DUP1 PUSH1 0x5 DUP2 MSTORE PUSH1 0x20 ADD PUSH5 0x466F726765 PUSH1 0xD8 SHL DUP2 MSTORE POP DUP2 JUMP JUMPDEST CALLVALUE DUP1 ISZERO PUSH2 0x7B8 JUMPI PUSH1 0x0 DUP1 REVERT JUMPDEST POP PUSH2 0x3B9 PUSH2 0x7C7 CALLDATASIZE PUSH1 0x4 PUSH2 0x2BB4 JUMP JUMPDEST PUSH2 0x1138 JUMP JUMPDEST CALLVALUE DUP1 ISZERO PUSH2 0x7D8 JUMPI PUSH1 0x0 DUP1 REVERT JUMPDEST POP PUSH2 0x3B9 PUSH1 0x2 SLOAD DUP2 JUMP JUMPDEST CALLVALUE DUP1 ISZERO PUSH2 0x7EE JUMPI PUSH1 0x0 DUP1 REVERT JUMPDEST POP PUSH2 0x3B9 PUSH2 0x7FD CALLDATASIZE PUSH1 0x4 PUSH2 0x2CFE JUMP JUMPDEST PUSH2 0x1173 JUMP JUMPDEST CALLVALUE DUP1 ISZERO PUSH2 0x80E JUMPI PUSH1 0x0 DUP1 REVERT JUMPDEST POP PUSH2 0x3B9 PUSH1 0x19 SLOAD DUP2 JUMP JUMPDEST CALLVALUE DUP1 ISZERO PUSH2 0x824 JUMPI PUSH1 0x0 DUP1 REVERT JUMPDEST POP PUSH2 0x393 PUSH2 0x833 CALLDATASIZE PUSH1 0x4 PUSH2 0x29BA JUMP JUMPDEST PUSH2 0x1602 JUMP JUMPDEST CALLVALUE DUP1 ISZERO PUSH2 0x844 JUMPI PUSH1 0x0 DUP1 REVERT JUMPDEST POP PUSH2 0x3B9 PUSH1 0xD SLOAD DUP2 JUMP JUMPDEST CALLVALUE DUP1 ISZERO PUSH2 0x85A JUMPI PUSH1 0x0 DUP1 REVERT JUMPDEST POP PUSH2 0x3B9 PUSH2 0x869 CALLDATASIZE PUSH1 0x4 PUSH2 0x2D87 JUMP JUMPDEST PUSH2 0x1687 JUMP JUMPDEST CALLVALUE DUP1 ISZERO PUSH2 0x87A JUMPI PUSH1 0x0 DUP1 REVERT JUMPDEST POP PUSH1 0x1B SLOAD PUSH2 0x3B9 JUMP JUMPDEST CALLVALUE DUP1 ISZERO PUSH2 0x88F JUMPI PUSH1 0x0 DUP1 REVERT JUMPDEST POP PUSH2 0x3B9 PUSH2 0x89E CALLDATASIZE PUSH1 0x4 PUSH2 0x2DB7 JUMP JUMPDEST PUSH2 0x1A06 JUMP JUMPDEST CALLVALUE DUP1 ISZERO PUSH2 0x8AF JUMPI PUSH1 0x0 DUP1 REVERT JUMPDEST POP PUSH2 0x3B9 PUSH1 0x23 SLOAD DUP2 JUMP JUMPDEST CALLVALUE DUP1 ISZERO PUSH2 0x8C5 JUMPI PUSH1 0x0 DUP1 REVERT JUMPDEST POP PUSH2 0x5CA PUSH2 0x1E90 JUMP JUMPDEST CALLVALUE DUP1 ISZERO PUSH2 0x8DA JUMPI PUSH1 0x0 DUP1 REVERT JUMPDEST POP PUSH2 0x3B9 PUSH1 0x1 SLOAD DUP2 JUMP JUMPDEST CALLVALUE DUP1 ISZERO PUSH2 0x8F0 JUMPI PUSH1 0x0 DUP1 REVERT JUMPDEST POP PUSH2 0x3B9 PUSH1 0xE SLOAD DUP2 JUMP JUMPDEST CALLVALUE DUP1 ISZERO PUSH2 0x906 JUMPI PUSH1 0x0 DUP1 REVERT JUMPDEST POP PUSH2 0x3B9 PUSH2 0x915 CALLDATASIZE PUSH1 0x4 PUSH2 0x2DF3 JUMP JUMPDEST PUSH1 0x1 PUSH1 0x1 PUSH1 0xA0 SHL SUB SWAP2 DUP3 AND PUSH1 0x0 SWAP1 DUP2 MSTORE PUSH1 0x1D PUSH1 0x20 SWAP1 DUP2 MSTORE PUSH1 0x40 DUP1 DUP4 KECCAK256 SWAP4 SWAP1 SWAP5 AND DUP3 MSTORE SWAP2 SWAP1 SWAP2 MSTORE KECCAK256 SLOAD SWAP1 JUMP JUMPDEST CALLVALUE DUP1 ISZERO PUSH2 0x94C JUMPI PUSH1 0x0 DUP1 REVERT JUMPDEST POP PUSH2 0x3B9 PUSH2 0x95B CALLDATASIZE PUSH1 0x4 PUSH2 0x2E26 JUMP JUMPDEST PUSH2 0x20EC JUMP JUMPDEST CALLVALUE DUP1 ISZERO PUSH2 0x96C JUMPI PUSH1 0x0 DUP1 REVERT JUMPDEST POP PUSH2 0x3B9 PUSH1 0xB SLOAD DUP2 JUMP JUMPDEST PUSH1 0x20 DUP1 SLOAD PUSH2 0x983 SWAP1 PUSH2 0x2E52 JUMP JUMPDEST DUP1 PUSH1 0x1F ADD PUSH1 0x20 DUP1 SWAP2 DIV MUL PUSH1 0x20 ADD PUSH1 0x40 MLOAD SWAP1 DUP2 ADD PUSH1 0x40 MSTORE DUP1 SWAP3 SWAP2 SWAP1 DUP2 DUP2 MSTORE PUSH1 0x20 ADD DUP3 DUP1 SLOAD PUSH2 0x9AF SWAP1 PUSH2 0x2E52 JUMP JUMPDEST DUP1 ISZERO PUSH2 0x9FC JUMPI DUP1 PUSH1 0x1F LT PUSH2 0x9D1 JUMPI PUSH2 0x100 DUP1 DUP4 SLOAD DIV MUL DUP4 MSTORE SWAP2 PUSH1 0x20 ADD SWAP2 PUSH2 0x9FC JUMP JUMPDEST DUP3 ADD SWAP2 SWAP1 PUSH1 0x0 MSTORE PUSH1 0x20 PUSH1 0x0 KECCAK256 SWAP1 JUMPDEST DUP2 SLOAD DUP2 MSTORE SWAP1 PUSH1 0x1 ADD SWAP1 PUSH1 0x20 ADD DUP1 DUP4 GT PUSH2 0x9DF JUMPI DUP3 SWAP1 SUB PUSH1 0x1F AND DUP3 ADD SWAP2 JUMPDEST POP POP POP POP POP DUP2 JUMP JUMPDEST CALLER PUSH1 0x0 DUP2 DUP2 MSTORE PUSH1 0x1D PUSH1 0x20 SWAP1 DUP2 MSTORE PUSH1 0x40 DUP1 DUP4 KECCAK256 PUSH1 0x1 PUSH1 0x1 PUSH1 0xA0 SHL SUB DUP8 AND DUP1 DUP6 MSTORE SWAP3 MSTORE DUP1 DUP4 KECCAK256 DUP6 SWAP1 SSTORE MLOAD SWAP2 SWAP3 SWAP1 SWAP2 PUSH32 0x8C5BE1E5EBEC7D5BD14F71427D1E84F3DD0314C0F7B2291E5B200AC8C7C3B925 SWAP1 PUSH2 0xA5F SWAP1 DUP7 DUP2 MSTORE PUSH1 0x20 ADD SWAP1 JUMP JUMPDEST PUSH1 0x40 MLOAD DUP1 SWAP2 SUB SWAP1 LOG3 POP PUSH1 0x1 JUMPDEST SWAP3 SWAP2 POP POP JUMP JUMPDEST PUSH1 0x0 PUSH2 0xA8A PUSH1 0x10 SLOAD PUSH1 0xF SLOAD PUSH2 0x24A8 SWAP1 SWAP2 SWAP1 PUSH4 0xFFFFFFFF AND JUMP JUMPDEST SWAP1 POP SWAP1 JUMP JUMPDEST PUSH1 0x0 PUSH2 0xA9C DUP4 DUP4 CALLER PUSH2 0x20EC JUMP JUMPDEST POP SWAP3 SWAP2 POP POP JUMP JUMPDEST PUSH1 0x0 DUP1 DUP4 MLOAD PUSH1 0x1 PUSH2 0xAB4 SWAP2 SWAP1 PUSH2 0x2EA3 JUMP JUMPDEST PUSH8 0xFFFFFFFFFFFFFFFF DUP2 GT ISZERO PUSH2 0xACC JUMPI PUSH2 0xACC PUSH2 0x2A06 JUMP JUMPDEST PUSH1 0x40 MLOAD SWAP1 DUP1 DUP3 MSTORE DUP1 PUSH1 0x20 MUL PUSH1 0x20 ADD DUP3 ADD PUSH1 0x40 MSTORE DUP1 ISZERO PUSH2 0xAF5 JUMPI DUP2 PUSH1 0x20 ADD PUSH1 0x20 DUP3 MUL DUP1 CALLDATASIZE DUP4 CALLDATACOPY ADD SWAP1 POP JUMPDEST POP SWAP1 POP PUSH1 0x0 JUMPDEST DUP5 MLOAD PUSH2 0xB08 SWAP1 PUSH1 0x1 PUSH2 0x2EA3 JUMP JUMPDEST DUP2 LT ISZERO PUSH2 0xB4C JUMPI DUP4 DUP3 DUP3 DUP2 MLOAD DUP2 LT PUSH2 0xB22 JUMPI PUSH2 0xB22 PUSH2 0x2EBB JUMP JUMPDEST PUSH1 0x1 PUSH1 0x1 PUSH1 0xA0 SHL SUB SWAP1 SWAP3 AND PUSH1 0x20 SWAP3 DUP4 MUL SWAP2 SWAP1 SWAP2 ADD SWAP1 SWAP2 ADD MSTORE DUP1 PUSH2 0xB44 DUP2 PUSH2 0x2ED1 JUMP JUMPDEST SWAP2 POP POP PUSH2 0xAFB JUMP JUMPDEST POP PUSH2 0xB59 DUP7 DUP7 DUP7 DUP5 PUSH2 0x1A06 JUMP JUMPDEST POP PUSH1 0x1 SWAP7 SWAP6 POP POP POP POP POP POP JUMP JUMPDEST PUSH1 0x1 PUSH1 0x1 PUSH1 0xA0 SHL SUB DUP4 AND PUSH1 0x0 SWAP1 DUP2 MSTORE PUSH1 0x1C PUSH1 0x20 MSTORE PUSH1 0x40 DUP2 KECCAK256 SLOAD PUSH2 0xB89 SWAP1 DUP4 PUSH2 0x24F6 JUMP JUMPDEST PUSH1 0x1 PUSH1 0x1 PUSH1 0xA0 SHL SUB DUP6 AND PUSH1 0x0 SWAP1 DUP2 MSTORE PUSH1 0x1C PUSH1 0x20 SWAP1 DUP2 MSTORE PUSH1 0x40 DUP1 DUP4 KECCAK256 SWAP4 SWAP1 SWAP4 SSTORE PUSH1 0x1D DUP2 MSTORE DUP3 DUP3 KECCAK256 CALLER DUP4 MSTORE SWAP1 MSTORE KECCAK256 SLOAD PUSH2 0xBC0 SWAP1 DUP4 PUSH2 0x24F6 JUMP JUMPDEST PUSH1 0x1 PUSH1 0x1 PUSH1 0xA0 SHL SUB DUP1 DUP7 AND PUSH1 0x0 SWAP1 DUP2 MSTORE PUSH1 0x1D PUSH1 0x20 SWAP1 DUP2 MSTORE PUSH1 0x40 DUP1 DUP4 KECCAK256 CALLER DUP5 MSTORE DUP3 MSTORE DUP1 DUP4 KECCAK256 SWAP5 SWAP1 SWAP5 SSTORE SWAP2 DUP7 AND DUP2 MSTORE PUSH1 0x1C SWAP1 SWAP2 MSTORE KECCAK256 SLOAD PUSH2 0xBFE SWAP1 DUP4 PUSH2 0x2542 JUMP JUMPDEST PUSH1 0x1 PUSH1 0x1 PUSH1 0xA0 SHL SUB DUP1 DUP6 AND PUSH1 0x0 DUP2 DUP2 MSTORE PUSH1 0x1C PUSH1 0x20 MSTORE PUSH1 0x40 SWAP1 DUP2 SWAP1 KECCAK256 SWAP4 SWAP1 SWAP4 SSTORE SWAP2 MLOAD SWAP1 DUP7 AND SWAP1 PUSH1 0x0 DUP1 MLOAD PUSH1 0x20 PUSH2 0x31F6 DUP4 CODECOPY DUP2 MLOAD SWAP2 MSTORE SWAP1 PUSH2 0xC40 SWAP1 DUP7 DUP2 MSTORE PUSH1 0x20 ADD SWAP1 JUMP JUMPDEST PUSH1 0x40 MLOAD DUP1 SWAP2 SUB SWAP1 LOG3 POP PUSH1 0x1 SWAP4 SWAP3 POP POP POP JUMP JUMPDEST PUSH1 0x0 PUSH2 0xA8A PUSH1 0x12 SLOAD PUSH1 0x2 PUSH2 0xC66 SWAP2 SWAP1 PUSH2 0x2FD0 JUMP JUMPDEST PUSH2 0xC72 PUSH1 0x12 PUSH1 0xA PUSH2 0x2FD0 JUMP JUMPDEST PUSH2 0xC7D SWAP1 PUSH1 0x64 PUSH2 0x2FDC JUMP JUMPDEST SWAP1 PUSH2 0x24A8 JUMP JUMPDEST PUSH1 0x0 SLOAD PUSH1 0x1 PUSH1 0x1 PUSH1 0xA0 SHL SUB AND CALLER EQ PUSH2 0xCCF JUMPI PUSH1 0x40 MLOAD PUSH3 0x461BCD PUSH1 0xE5 SHL DUP2 MSTORE PUSH1 0x20 PUSH1 0x4 DUP3 ADD MSTORE PUSH1 0xA PUSH1 0x24 DUP3 ADD MSTORE PUSH10 0x37B7363C9037BBB732B9 PUSH1 0xB1 SHL PUSH1 0x44 DUP3 ADD MSTORE PUSH1 0x64 ADD JUMPDEST PUSH1 0x40 MLOAD DUP1 SWAP2 SUB SWAP1 REVERT JUMPDEST PUSH1 0x6 DUP1 SLOAD PUSH1 0x1 PUSH1 0x1 PUSH1 0xA0 SHL SUB SWAP5 DUP6 AND PUSH1 0x1 PUSH1 0x1 PUSH1 0xA0 SHL SUB NOT SWAP2 DUP3 AND OR SWAP1 SWAP2 SSTORE PUSH1 0x7 DUP1 SLOAD SWAP4 DUP6 AND SWAP4 DUP3 AND SWAP4 SWAP1 SWAP4 OR SWAP1 SWAP3 SSTORE PUSH1 0x8 DUP1 SLOAD SWAP2 SWAP1 SWAP4 AND SWAP2 AND OR SWAP1 SSTORE JUMP JUMPDEST PUSH1 0x0 PUSH2 0xB40 PUSH2 0xD1D DUP4 DUP6 PUSH2 0x2FFB JUMP JUMPDEST PUSH2 0xD29 SWAP1 PUSH2 0x378 PUSH2 0x2FDC JUMP JUMPDEST PUSH2 0xD33 SWAP2 SWAP1 PUSH2 0x3028 JUMP JUMPDEST PUSH1 0x3 DUP2 SWAP1 SSTORE SWAP1 POP PUSH1 0x0 PUSH2 0x378 PUSH2 0xD4A DUP4 PUSH1 0x64 PUSH2 0x2FDC JUMP JUMPDEST PUSH2 0xD54 SWAP2 SWAP1 PUSH2 0x3028 JUMP JUMPDEST SWAP1 POP PUSH1 0x0 PUSH2 0x13A DUP3 LT ISZERO PUSH2 0xDB5 JUMPI PUSH3 0x470DC PUSH2 0xD7A PUSH2 0x378 PUSH2 0xC7D DUP7 PUSH4 0x26F7F3C PUSH2 0x2FDC JUMP JUMPDEST PUSH2 0xD9A PUSH3 0xC0840 PUSH2 0xD8C PUSH1 0x2 DUP9 PUSH2 0x303C JUMP JUMPDEST PUSH2 0xC7D SWAP1 PUSH4 0x3A2CDF0 PUSH2 0x2FDC JUMP JUMPDEST PUSH2 0xDA4 SWAP2 SWAP1 PUSH2 0x2EA3 JUMP JUMPDEST PUSH2 0xDAE SWAP2 SWAP1 PUSH2 0x2FFB JUMP JUMPDEST SWAP1 POP PUSH2 0xDDA JUMP JUMPDEST PUSH2 0xDC9 PUSH2 0x378 PUSH2 0xC7D DUP6 PUSH4 0x5F5E100 PUSH2 0x2FDC JUMP JUMPDEST PUSH2 0xDD7 SWAP1 PUSH4 0x14DC9380 PUSH2 0x2EA3 JUMP JUMPDEST SWAP1 POP JUMPDEST PUSH1 0x1 SSTORE POP POP POP POP POP JUMP JUMPDEST PUSH1 0x0 SLOAD PUSH1 0x1 PUSH1 0x1 PUSH1 0xA0 SHL SUB AND CALLER EQ PUSH2 0xE2B JUMPI PUSH1 0x40 MLOAD PUSH3 0x461BCD PUSH1 0xE5 SHL DUP2 MSTORE PUSH1 0x20 PUSH1 0x4 DUP3 ADD MSTORE PUSH1 0xA PUSH1 0x24 DUP3 ADD MSTORE PUSH10 0x37B7363C9037BBB732B9 PUSH1 0xB1 SHL PUSH1 0x44 DUP3 ADD MSTORE PUSH1 0x64 ADD PUSH2 0xCC6 JUMP JUMPDEST PUSH1 0x0 PUSH1 0x21 SLOAD PUSH1 0x2 PUSH2 0xE3C SWAP2 SWAP1 PUSH2 0x2FD0 JUMP JUMPDEST PUSH2 0xE47 SWAP1 PUSH1 0x2 PUSH2 0x2FDC JUMP JUMPDEST PUSH2 0xE5C SWAP1 PUSH11 0x115EEC47F6CF7E35000000 PUSH2 0x3028 JUMP JUMPDEST PUSH1 0x24 SLOAD SWAP1 SWAP2 POP PUSH1 0xFF AND ISZERO PUSH2 0xE72 JUMPI PUSH2 0xE72 PUSH2 0x304B JUMP JUMPDEST PUSH1 0x24 DUP1 SLOAD PUSH1 0xFF NOT AND PUSH1 0x1 OR SWAP1 SSTORE PUSH1 0x0 PUSH1 0x12 DUP2 SWAP1 SSTORE PUSH1 0x1B SSTORE PUSH1 0xF SLOAD PUSH2 0xE98 SWAP1 PUSH2 0x7535 PUSH2 0x24A8 JUMP JUMPDEST PUSH1 0x10 SSTORE TIMESTAMP PUSH1 0xB SSTORE PUSH2 0xEA7 PUSH2 0x2590 JUMP JUMPDEST PUSH1 0x1 PUSH1 0x1 PUSH1 0xA0 SHL SUB DUP5 AND PUSH1 0x0 DUP2 DUP2 MSTORE PUSH1 0x1C PUSH1 0x20 SWAP1 DUP2 MSTORE PUSH1 0x40 DUP1 DUP4 KECCAK256 DUP6 SWAP1 SSTORE MLOAD DUP5 DUP2 MSTORE PUSH1 0x0 DUP1 MLOAD PUSH1 0x20 PUSH2 0x31F6 DUP4 CODECOPY DUP2 MLOAD SWAP2 MSTORE SWAP2 ADD PUSH1 0x40 MLOAD DUP1 SWAP2 SUB SWAP1 LOG3 PUSH1 0x6 DUP1 SLOAD PUSH1 0x1 PUSH1 0x1 PUSH1 0xA0 SHL SUB DUP1 DUP8 AND PUSH1 0x1 PUSH1 0x1 PUSH1 0xA0 SHL SUB NOT SWAP3 DUP4 AND OR SWAP1 SWAP3 SSTORE PUSH1 0x7 DUP1 SLOAD DUP7 DUP5 AND SWAP1 DUP4 AND OR SWAP1 SSTORE PUSH1 0x8 DUP1 SLOAD SWAP3 DUP6 AND SWAP3 SWAP1 SWAP2 AND SWAP2 SWAP1 SWAP2 OR SWAP1 SSTORE PUSH1 0xC SLOAD PUSH1 0x15 SSTORE CALLER PUSH1 0x0 DUP2 DUP2 MSTORE PUSH1 0x1C PUSH1 0x20 MSTORE PUSH1 0x40 DUP1 DUP3 KECCAK256 PUSH8 0xDE0B6B3A7640000 SWAP1 DUP2 SWAP1 SSTORE SWAP1 MLOAD PUSH1 0x0 DUP1 MLOAD PUSH1 0x20 PUSH2 0x31F6 DUP4 CODECOPY DUP2 MLOAD SWAP2 MSTORE SWAP2 PUSH2 0xF61 SWAP2 SWAP1 DUP2 MSTORE PUSH1 0x20 ADD SWAP1 JUMP JUMPDEST PUSH1 0x40 MLOAD DUP1 SWAP2 SUB SWAP1 LOG3 POP POP POP POP JUMP JUMPDEST PUSH1 0x0 DUP1 PUSH1 0x11 SLOAD CALLER DUP6 PUSH1 0x40 MLOAD PUSH1 0x20 ADD PUSH2 0xF89 SWAP4 SWAP3 SWAP2 SWAP1 PUSH2 0x3061 JUMP JUMPDEST PUSH1 0x40 MLOAD PUSH1 0x20 DUP2 DUP4 SUB SUB DUP2 MSTORE SWAP1 PUSH1 0x40 MSTORE DUP1 MLOAD SWAP1 PUSH1 0x20 ADD KECCAK256 SWAP1 POP DUP3 DUP2 EQ PUSH2 0xFC0 JUMPI PUSH1 0x40 MLOAD PUSH3 0x461BCD PUSH1 0xE5 SHL DUP2 MSTORE PUSH1 0x4 ADD PUSH2 0xCC6 SWAP1 PUSH2 0x3089 JUMP JUMPDEST PUSH1 0x10 SLOAD DUP2 LT PUSH2 0xFE1 JUMPI PUSH1 0x40 MLOAD PUSH3 0x461BCD PUSH1 0xE5 SHL DUP2 MSTORE PUSH1 0x4 ADD PUSH2 0xCC6 SWAP1 PUSH2 0x30D7 JUMP JUMPDEST PUSH2 0xFE9 PUSH2 0x2590 JUMP JUMPDEST PUSH1 0x16 SLOAD TIMESTAMP GT PUSH2 0x100A JUMPI PUSH1 0x40 MLOAD PUSH3 0x461BCD PUSH1 0xE5 SHL DUP2 MSTORE PUSH1 0x4 ADD PUSH2 0xCC6 SWAP1 PUSH2 0x311F JUMP JUMPDEST TIMESTAMP PUSH1 0x16 SSTORE PUSH1 0xC SLOAD PUSH1 0x11 SLOAD PUSH1 0x40 DUP1 MLOAD PUSH1 0x0 DUP2 MSTORE PUSH1 0x20 DUP2 ADD SWAP4 SWAP1 SWAP4 MSTORE DUP3 ADD MSTORE CALLER SWAP1 PUSH32 0xCF6FBB9DCEA7D07263AB4F5C3A92F53AF33DFFC421D9D121E1C74B307E68189D SWAP1 PUSH1 0x60 ADD PUSH1 0x40 MLOAD DUP1 SWAP2 SUB SWAP1 LOG2 POP PUSH1 0x0 SWAP4 SWAP3 POP POP POP JUMP JUMPDEST PUSH1 0x0 DUP1 DUP4 CALLER DUP8 PUSH1 0x40 MLOAD PUSH1 0x20 ADD PUSH2 0x1078 SWAP4 SWAP3 SWAP2 SWAP1 PUSH2 0x3061 JUMP JUMPDEST PUSH1 0x40 MLOAD PUSH1 0x20 DUP2 DUP4 SUB SUB DUP2 MSTORE SWAP1 PUSH1 0x40 MSTORE DUP1 MLOAD SWAP1 PUSH1 0x20 ADD KECCAK256 SWAP1 POP DUP3 DUP2 PUSH1 0x0 SHR GT ISZERO PUSH2 0x10A0 JUMPI PUSH1 0x0 DUP1 REVERT JUMPDEST SWAP1 SWAP4 EQ SWAP5 SWAP4 POP POP POP POP JUMP JUMPDEST PUSH1 0x1 PUSH1 0x1 PUSH1 0xA0 SHL SUB DUP3 AND ADDRESS EQ PUSH2 0x10C0 JUMPI PUSH1 0x0 DUP1 REVERT JUMPDEST PUSH1 0x40 MLOAD PUSH4 0xA9059CBB PUSH1 0xE0 SHL DUP2 MSTORE PUSH1 0x1 PUSH1 0x1 PUSH1 0xA0 SHL SUB DUP6 AND PUSH1 0x4 DUP3 ADD MSTORE PUSH1 0x24 DUP2 ADD DUP5 SWAP1 MSTORE ADDRESS SWAP1 PUSH4 0xA9059CBB SWAP1 PUSH1 0x44 ADD PUSH1 0x20 PUSH1 0x40 MLOAD DUP1 DUP4 SUB DUP2 PUSH1 0x0 DUP8 GAS CALL ISZERO DUP1 ISZERO PUSH2 0x110D JUMPI RETURNDATASIZE PUSH1 0x0 DUP1 RETURNDATACOPY RETURNDATASIZE PUSH1 0x0 REVERT JUMPDEST POP POP POP POP PUSH1 0x40 MLOAD RETURNDATASIZE PUSH1 0x1F NOT PUSH1 0x1F DUP3 ADD AND DUP3 ADD DUP1 PUSH1 0x40 MSTORE POP DUP2 ADD SWAP1 PUSH2 0x1131 SWAP2 SWAP1 PUSH2 0x314E JUMP JUMPDEST POP POP POP POP POP JUMP JUMPDEST PUSH1 0x0 DUP1 PUSH1 0x11 SLOAD CALLER DUP7 PUSH1 0x40 MLOAD PUSH1 0x20 ADD PUSH2 0x1152 SWAP4 SWAP3 SWAP2 SWAP1 PUSH2 0x3061 JUMP JUMPDEST PUSH1 0x40 DUP1 MLOAD DUP1 DUP4 SUB PUSH1 0x1F NOT ADD DUP2 MSTORE SWAP2 SWAP1 MSTORE DUP1 MLOAD PUSH1 0x20 SWAP1 SWAP2 ADD KECCAK256 SWAP6 SWAP5 POP POP POP POP POP JUMP JUMPDEST PUSH1 0x0 DUP3 MLOAD PUSH1 0x1 PUSH2 0x1183 SWAP2 SWAP1 PUSH2 0x2EA3 JUMP JUMPDEST DUP3 MLOAD EQ PUSH2 0x11A2 JUMPI PUSH1 0x40 MLOAD PUSH3 0x461BCD PUSH1 0xE5 SHL DUP2 MSTORE PUSH1 0x4 ADD PUSH2 0xCC6 SWAP1 PUSH2 0x316B JUMP JUMPDEST PUSH1 0x0 JUMPDEST DUP4 MLOAD DUP2 LT ISZERO PUSH2 0x1366 JUMPI PUSH2 0x11B9 DUP2 PUSH1 0x1 PUSH2 0x2EA3 JUMP JUMPDEST PUSH2 0x11C4 SWAP1 PUSH1 0x2 PUSH2 0x2FD0 JUMP JUMPDEST PUSH1 0xC SLOAD PUSH2 0x11D1 SWAP2 SWAP1 PUSH2 0x31C8 JUMP JUMPDEST ISZERO PUSH2 0x11DB JUMPI PUSH2 0x1366 JUMP JUMPDEST ADDRESS PUSH1 0x1 PUSH1 0x1 PUSH1 0xA0 SHL SUB AND DUP5 DUP3 DUP2 MLOAD DUP2 LT PUSH2 0x11F7 JUMPI PUSH2 0x11F7 PUSH2 0x2EBB JUMP JUMPDEST PUSH1 0x20 MUL PUSH1 0x20 ADD ADD MLOAD PUSH1 0x1 PUSH1 0x1 PUSH1 0xA0 SHL SUB AND EQ ISZERO DUP1 ISZERO PUSH2 0x1248 JUMPI POP PUSH1 0x8 SLOAD DUP5 MLOAD PUSH1 0x1 PUSH1 0x1 PUSH1 0xA0 SHL SUB SWAP1 SWAP2 AND SWAP1 DUP6 SWAP1 DUP4 SWAP1 DUP2 LT PUSH2 0x1234 JUMPI PUSH2 0x1234 PUSH2 0x2EBB JUMP JUMPDEST PUSH1 0x20 MUL PUSH1 0x20 ADD ADD MLOAD PUSH1 0x1 PUSH1 0x1 PUSH1 0xA0 SHL SUB AND EQ ISZERO JUMPDEST PUSH2 0x1294 JUMPI PUSH1 0x40 MLOAD PUSH3 0x461BCD PUSH1 0xE5 SHL DUP2 MSTORE PUSH1 0x20 PUSH1 0x4 DUP3 ADD MSTORE PUSH1 0x1A PUSH1 0x24 DUP3 ADD MSTORE PUSH32 0x4E6F2062617365207072696E74696E67206F6620746F6B656E73000000000000 PUSH1 0x44 DUP3 ADD MSTORE PUSH1 0x64 ADD PUSH2 0xCC6 JUMP JUMPDEST PUSH1 0x0 PUSH2 0x12A1 DUP3 PUSH1 0x1 PUSH2 0x2EA3 JUMP JUMPDEST SWAP1 POP JUMPDEST DUP5 MLOAD DUP2 LT ISZERO PUSH2 0x1353 JUMPI DUP5 DUP3 DUP2 MLOAD DUP2 LT PUSH2 0x12BF JUMPI PUSH2 0x12BF PUSH2 0x2EBB JUMP JUMPDEST PUSH1 0x20 MUL PUSH1 0x20 ADD ADD MLOAD PUSH1 0x1 PUSH1 0x1 PUSH1 0xA0 SHL SUB AND DUP6 DUP3 DUP2 MLOAD DUP2 LT PUSH2 0x12E2 JUMPI PUSH2 0x12E2 PUSH2 0x2EBB JUMP JUMPDEST PUSH1 0x20 MUL PUSH1 0x20 ADD ADD MLOAD PUSH1 0x1 PUSH1 0x1 PUSH1 0xA0 SHL SUB AND EQ ISZERO PUSH2 0x1341 JUMPI PUSH1 0x40 MLOAD PUSH3 0x461BCD PUSH1 0xE5 SHL DUP2 MSTORE PUSH1 0x20 PUSH1 0x4 DUP3 ADD MSTORE PUSH1 0x1B PUSH1 0x24 DUP3 ADD MSTORE PUSH32 0x4E6F207072696E74696E67205468652073616D6520746F6B656E730000000000 PUSH1 0x44 DUP3 ADD MSTORE PUSH1 0x64 ADD PUSH2 0xCC6 JUMP JUMPDEST DUP1 PUSH2 0x134B DUP2 PUSH2 0x2ED1 JUMP JUMPDEST SWAP2 POP POP PUSH2 0x12A4 JUMP JUMPDEST POP DUP1 PUSH2 0x135E DUP2 PUSH2 0x2ED1 JUMP JUMPDEST SWAP2 POP POP PUSH2 0x11A5 JUMP JUMPDEST PUSH1 0x0 PUSH2 0x138D DUP8 DUP8 DUP7 PUSH1 0x0 DUP2 MLOAD DUP2 LT PUSH2 0x1380 JUMPI PUSH2 0x1380 PUSH2 0x2EBB JUMP JUMPDEST PUSH1 0x20 MUL PUSH1 0x20 ADD ADD MLOAD PUSH2 0x1687 JUMP JUMPDEST SWAP1 POP PUSH1 0x0 DUP2 GT PUSH2 0x13CC JUMPI PUSH1 0x40 MLOAD PUSH3 0x461BCD PUSH1 0xE5 SHL DUP2 MSTORE PUSH1 0x20 PUSH1 0x4 DUP3 ADD MSTORE PUSH1 0xA PUSH1 0x24 DUP3 ADD MSTORE PUSH10 0x6D696E74206973737565 PUSH1 0xB0 SHL PUSH1 0x44 DUP3 ADD MSTORE PUSH1 0x64 ADD PUSH2 0xCC6 JUMP JUMPDEST PUSH1 0x0 DUP1 PUSH1 0x0 JUMPDEST DUP5 DUP2 LT ISZERO PUSH2 0x15AC JUMPI PUSH2 0x13E5 DUP2 PUSH1 0x1 PUSH2 0x2EA3 JUMP JUMPDEST PUSH2 0x13F0 SWAP1 PUSH1 0x2 PUSH2 0x2FD0 JUMP JUMPDEST PUSH1 0xC SLOAD PUSH2 0x13FD SWAP2 SWAP1 PUSH2 0x31C8 JUMP JUMPDEST PUSH2 0x159A JUMPI DUP8 DUP2 DUP2 MLOAD DUP2 LT PUSH2 0x1413 JUMPI PUSH2 0x1413 PUSH2 0x2EBB JUMP JUMPDEST PUSH1 0x20 SWAP1 DUP2 MUL SWAP2 SWAP1 SWAP2 ADD ADD MLOAD PUSH1 0x40 MLOAD PUSH4 0x70A08231 PUSH1 0xE0 SHL DUP2 MSTORE ADDRESS PUSH1 0x4 DUP3 ADD MSTORE PUSH1 0x1 PUSH1 0x1 PUSH1 0xA0 SHL SUB SWAP1 SWAP2 AND SWAP1 PUSH4 0x70A08231 SWAP1 PUSH1 0x24 ADD PUSH1 0x20 PUSH1 0x40 MLOAD DUP1 DUP4 SUB DUP2 DUP7 GAS STATICCALL ISZERO DUP1 ISZERO PUSH2 0x1463 JUMPI RETURNDATASIZE PUSH1 0x0 DUP1 RETURNDATACOPY RETURNDATASIZE PUSH1 0x0 REVERT JUMPDEST POP POP POP POP PUSH1 0x40 MLOAD RETURNDATASIZE PUSH1 0x1F NOT PUSH1 0x1F DUP3 ADD AND DUP3 ADD DUP1 PUSH1 0x40 MSTORE POP DUP2 ADD SWAP1 PUSH2 0x1487 SWAP2 SWAP1 PUSH2 0x31DC JUMP JUMPDEST SWAP2 POP DUP2 ISZERO PUSH2 0x159A JUMPI PUSH2 0x149A PUSH1 0x3 DUP3 PUSH2 0x31C8 JUMP JUMPDEST ISZERO DUP1 ISZERO PUSH2 0x14A6 JUMPI POP DUP1 ISZERO ISZERO JUMPDEST ISZERO PUSH2 0x14CB JUMPI PUSH2 0x14C4 PUSH5 0x3A35294400 PUSH2 0x14BE DUP7 DUP6 PUSH2 0x2FDC JUMP JUMPDEST SWAP1 PUSH2 0x2736 JUMP JUMPDEST SWAP3 POP PUSH2 0x14E1 JUMP JUMPDEST PUSH2 0x14DE PUSH5 0x3A35294400 PUSH2 0xC7D DUP7 DUP6 PUSH2 0x2FDC JUMP JUMPDEST SWAP3 POP JUMPDEST DUP8 DUP2 DUP2 MLOAD DUP2 LT PUSH2 0x14F3 JUMPI PUSH2 0x14F3 PUSH2 0x2EBB JUMP JUMPDEST PUSH1 0x20 MUL PUSH1 0x20 ADD ADD MLOAD PUSH1 0x1 PUSH1 0x1 PUSH1 0xA0 SHL SUB AND PUSH4 0xA9059CBB DUP9 DUP4 DUP2 MLOAD DUP2 LT PUSH2 0x151B JUMPI PUSH2 0x151B PUSH2 0x2EBB JUMP JUMPDEST PUSH1 0x20 MUL PUSH1 0x20 ADD ADD MLOAD DUP6 PUSH1 0x40 MLOAD DUP4 PUSH4 0xFFFFFFFF AND PUSH1 0xE0 SHL DUP2 MSTORE PUSH1 0x4 ADD PUSH2 0x1555 SWAP3 SWAP2 SWAP1 PUSH1 0x1 PUSH1 0x1 PUSH1 0xA0 SHL SUB SWAP3 SWAP1 SWAP3 AND DUP3 MSTORE PUSH1 0x20 DUP3 ADD MSTORE PUSH1 0x40 ADD SWAP1 JUMP JUMPDEST PUSH1 0x20 PUSH1 0x40 MLOAD DUP1 DUP4 SUB DUP2 PUSH1 0x0 DUP8 GAS CALL ISZERO DUP1 ISZERO PUSH2 0x1574 JUMPI RETURNDATASIZE PUSH1 0x0 DUP1 RETURNDATACOPY RETURNDATASIZE PUSH1 0x0 REVERT JUMPDEST POP POP POP POP PUSH1 0x40 MLOAD RETURNDATASIZE PUSH1 0x1F NOT PUSH1 0x1F DUP3 ADD AND DUP3 ADD DUP1 PUSH1 0x40 MSTORE POP DUP2 ADD SWAP1 PUSH2 0x1598 SWAP2 SWAP1 PUSH2 0x314E JUMP JUMPDEST POP JUMPDEST DUP1 PUSH2 0x15A4 DUP2 PUSH2 0x2ED1 JUMP JUMPDEST SWAP2 POP POP PUSH2 0x13D2 JUMP JUMPDEST POP PUSH1 0xC SLOAD PUSH1 0x11 SLOAD PUSH1 0x40 DUP1 MLOAD SWAP3 DUP4 MSTORE PUSH1 0x20 DUP4 ADD SWAP2 SWAP1 SWAP2 MSTORE DUP2 ADD DUP6 SWAP1 MSTORE CALLER SWAP1 PUSH32 0xC32557ACCEB6AEB205C3115AC08A8DC54D82FB5EA08F2B7F1E6B794488E3851C SWAP1 PUSH1 0x60 ADD PUSH1 0x40 MLOAD DUP1 SWAP2 SUB SWAP1 LOG2 POP SWAP8 SWAP7 POP POP POP POP POP POP POP JUMP JUMPDEST CALLER PUSH1 0x0 SWAP1 DUP2 MSTORE PUSH1 0x1C PUSH1 0x20 MSTORE PUSH1 0x40 DUP2 KECCAK256 SLOAD PUSH2 0x161C SWAP1 DUP4 PUSH2 0x24F6 JUMP JUMPDEST CALLER PUSH1 0x0 SWAP1 DUP2 MSTORE PUSH1 0x1C PUSH1 0x20 MSTORE PUSH1 0x40 DUP1 DUP3 KECCAK256 SWAP3 SWAP1 SWAP3 SSTORE PUSH1 0x1 PUSH1 0x1 PUSH1 0xA0 SHL SUB DUP6 AND DUP2 MSTORE KECCAK256 SLOAD PUSH2 0x1648 SWAP1 DUP4 PUSH2 0x2542 JUMP JUMPDEST PUSH1 0x1 PUSH1 0x1 PUSH1 0xA0 SHL SUB DUP5 AND PUSH1 0x0 DUP2 DUP2 MSTORE PUSH1 0x1C PUSH1 0x20 MSTORE PUSH1 0x40 SWAP1 DUP2 SWAP1 KECCAK256 SWAP3 SWAP1 SWAP3 SSTORE SWAP1 MLOAD CALLER SWAP1 PUSH1 0x0 DUP1 MLOAD PUSH1 0x20 PUSH2 0x31F6 DUP4 CODECOPY DUP2 MLOAD SWAP2 MSTORE SWAP1 PUSH2 0xA5F SWAP1 DUP7 DUP2 MSTORE PUSH1 0x20 ADD SWAP1 JUMP JUMPDEST PUSH1 0x0 PUSH2 0x1691 PUSH2 0x2590 JUMP JUMPDEST PUSH1 0x16 SLOAD TIMESTAMP GT PUSH2 0x16B2 JUMPI PUSH1 0x40 MLOAD PUSH3 0x461BCD PUSH1 0xE5 SHL DUP2 MSTORE PUSH1 0x4 ADD PUSH2 0xCC6 SWAP1 PUSH2 0x311F JUMP JUMPDEST PUSH1 0x0 PUSH2 0xB40 PUSH1 0x16 SLOAD TIMESTAMP PUSH2 0x16C5 SWAP2 SWAP1 PUSH2 0x2FFB JUMP JUMPDEST PUSH2 0x16D1 SWAP1 PUSH2 0x378 PUSH2 0x2FDC JUMP JUMPDEST PUSH2 0x16DB SWAP2 SWAP1 PUSH2 0x3028 JUMP JUMPDEST SWAP1 POP PUSH1 0x0 PUSH2 0x378 PUSH2 0x16ED DUP4 PUSH1 0x64 PUSH2 0x2FDC JUMP JUMPDEST PUSH2 0x16F7 SWAP2 SWAP1 PUSH2 0x3028 JUMP JUMPDEST SWAP1 POP PUSH1 0x0 PUSH2 0x13A DUP3 LT ISZERO PUSH2 0x173C JUMPI PUSH2 0x1719 PUSH2 0x378 PUSH2 0xC7D DUP6 PUSH4 0x26F7F3C PUSH2 0x2FDC JUMP JUMPDEST PUSH2 0x172B PUSH3 0xC0840 PUSH2 0xD8C PUSH1 0x2 DUP8 PUSH2 0x303C JUMP JUMPDEST PUSH2 0x1735 SWAP2 SWAP1 PUSH2 0x2EA3 JUMP JUMPDEST SWAP1 POP PUSH2 0x1761 JUMP JUMPDEST PUSH2 0x1750 PUSH2 0x378 PUSH2 0xC7D DUP6 PUSH4 0x5F5E100 PUSH2 0x2FDC JUMP JUMPDEST PUSH2 0x175E SWAP1 PUSH4 0xD09DC300 PUSH2 0x2EA3 JUMP JUMPDEST SWAP1 POP JUMPDEST PUSH2 0x1799 PUSH2 0x177A PUSH4 0x5F5E100 DUP4 PUSH1 0x14 SLOAD PUSH2 0xC7D SWAP2 SWAP1 PUSH2 0x2FDC JUMP JUMPDEST PUSH1 0x1 PUSH1 0x1 PUSH1 0xA0 SHL SUB DUP8 AND PUSH1 0x0 SWAP1 DUP2 MSTORE PUSH1 0x1C PUSH1 0x20 MSTORE PUSH1 0x40 SWAP1 KECCAK256 SLOAD SWAP1 PUSH2 0x2542 JUMP JUMPDEST PUSH1 0x1 PUSH1 0x1 PUSH1 0xA0 SHL SUB DUP7 AND PUSH1 0x0 SWAP1 DUP2 MSTORE PUSH1 0x1C PUSH1 0x20 MSTORE PUSH1 0x40 SWAP1 KECCAK256 SSTORE PUSH1 0x14 SLOAD PUSH2 0x17EF SWAP1 PUSH2 0x17CE SWAP1 PUSH4 0xBEBC200 SWAP1 PUSH2 0xC7D SWAP1 DUP6 SWAP1 PUSH2 0x2FDC JUMP JUMPDEST PUSH1 0x7 SLOAD PUSH1 0x1 PUSH1 0x1 PUSH1 0xA0 SHL SUB AND PUSH1 0x0 SWAP1 DUP2 MSTORE PUSH1 0x1C PUSH1 0x20 MSTORE PUSH1 0x40 SWAP1 KECCAK256 SLOAD SWAP1 PUSH2 0x2542 JUMP JUMPDEST PUSH1 0x7 SLOAD PUSH1 0x1 PUSH1 0x1 PUSH1 0xA0 SHL SUB AND PUSH1 0x0 SWAP1 DUP2 MSTORE PUSH1 0x1C PUSH1 0x20 MSTORE PUSH1 0x40 SWAP1 KECCAK256 SSTORE PUSH1 0x14 SLOAD PUSH2 0x182F SWAP1 PUSH2 0x1826 SWAP1 PUSH4 0x5F5E100 SWAP1 PUSH2 0xC7D SWAP1 DUP6 SWAP1 PUSH2 0x2FDC JUMP JUMPDEST PUSH1 0x1B SLOAD SWAP1 PUSH2 0x2542 JUMP JUMPDEST PUSH1 0x1B SSTORE TIMESTAMP PUSH1 0x16 SSTORE PUSH1 0x1E SLOAD ISZERO PUSH2 0x1997 JUMPI PUSH1 0xC8 DUP3 LT ISZERO PUSH2 0x18F7 JUMPI PUSH1 0x8 SLOAD PUSH1 0x1E SLOAD PUSH1 0x19 SLOAD PUSH1 0x1 PUSH1 0x1 PUSH1 0xA0 SHL SUB SWAP1 SWAP3 AND SWAP2 PUSH4 0xA9059CBB SWAP2 DUP9 SWAP2 PUSH2 0x1882 SWAP2 PUSH4 0x5F5E100 SWAP2 PUSH2 0x1878 SWAP1 DUP9 PUSH2 0x2FDC JUMP JUMPDEST PUSH2 0xC7D SWAP2 SWAP1 PUSH2 0x2FDC JUMP JUMPDEST PUSH1 0x40 MLOAD PUSH1 0x1 PUSH1 0x1 PUSH1 0xE0 SHL SUB NOT PUSH1 0xE0 DUP6 SWAP1 SHL AND DUP2 MSTORE PUSH1 0x1 PUSH1 0x1 PUSH1 0xA0 SHL SUB SWAP1 SWAP3 AND PUSH1 0x4 DUP4 ADD MSTORE PUSH1 0x24 DUP3 ADD MSTORE PUSH1 0x44 ADD PUSH1 0x20 PUSH1 0x40 MLOAD DUP1 DUP4 SUB DUP2 PUSH1 0x0 DUP8 GAS CALL ISZERO DUP1 ISZERO PUSH2 0x18CD JUMPI RETURNDATASIZE PUSH1 0x0 DUP1 RETURNDATACOPY RETURNDATASIZE PUSH1 0x0 REVERT JUMPDEST POP POP POP POP PUSH1 0x40 MLOAD RETURNDATASIZE PUSH1 0x1F NOT PUSH1 0x1F DUP3 ADD AND DUP3 ADD DUP1 PUSH1 0x40 MSTORE POP DUP2 ADD SWAP1 PUSH2 0x18F1 SWAP2 SWAP1 PUSH2 0x314E JUMP JUMPDEST POP PUSH2 0x1997 JUMP JUMPDEST PUSH1 0x8 SLOAD PUSH1 0x1E SLOAD PUSH1 0x19 SLOAD PUSH1 0x1 PUSH1 0x1 PUSH1 0xA0 SHL SUB SWAP1 SWAP3 AND SWAP2 PUSH4 0xA9059CBB SWAP2 DUP9 SWAP2 PUSH2 0x1926 SWAP2 PUSH1 0xA SWAP2 PUSH2 0x1878 SWAP1 PUSH1 0x17 PUSH2 0x2FDC JUMP JUMPDEST PUSH1 0x40 MLOAD PUSH1 0x1 PUSH1 0x1 PUSH1 0xE0 SHL SUB NOT PUSH1 0xE0 DUP6 SWAP1 SHL AND DUP2 MSTORE PUSH1 0x1 PUSH1 0x1 PUSH1 0xA0 SHL SUB SWAP1 SWAP3 AND PUSH1 0x4 DUP4 ADD MSTORE PUSH1 0x24 DUP3 ADD MSTORE PUSH1 0x44 ADD PUSH1 0x20 PUSH1 0x40 MLOAD DUP1 DUP4 SUB DUP2 PUSH1 0x0 DUP8 GAS CALL ISZERO DUP1 ISZERO PUSH2 0x1971 JUMPI RETURNDATASIZE PUSH1 0x0 DUP1 RETURNDATACOPY RETURNDATASIZE PUSH1 0x0 REVERT JUMPDEST POP POP POP POP PUSH1 0x40 MLOAD RETURNDATASIZE PUSH1 0x1F NOT PUSH1 0x1F DUP3 ADD AND DUP3 ADD DUP1 PUSH1 0x40 MSTORE POP DUP2 ADD SWAP1 PUSH2 0x1995 SWAP2 SWAP1 PUSH2 0x314E JUMP JUMPDEST POP JUMPDEST CALLER PUSH1 0x1 PUSH1 0x1 PUSH1 0xA0 SHL SUB AND PUSH32 0xCF6FBB9DCEA7D07263AB4F5C3A92F53AF33DFFC421D9D121E1C74B307E68189D PUSH2 0x19D8 PUSH4 0x5F5E100 DUP5 PUSH1 0x14 SLOAD PUSH2 0xC7D SWAP2 SWAP1 PUSH2 0x2FDC JUMP JUMPDEST PUSH1 0xC SLOAD PUSH1 0x11 SLOAD PUSH1 0x40 DUP1 MLOAD SWAP4 DUP5 MSTORE PUSH1 0x20 DUP5 ADD SWAP3 SWAP1 SWAP3 MSTORE SWAP1 DUP3 ADD MSTORE PUSH1 0x60 ADD PUSH1 0x40 MLOAD DUP1 SWAP2 SUB SWAP1 LOG2 SWAP7 SWAP6 POP POP POP POP POP POP JUMP JUMPDEST PUSH1 0x0 DUP3 MLOAD PUSH1 0x1 PUSH2 0x1A16 SWAP2 SWAP1 PUSH2 0x2EA3 JUMP JUMPDEST DUP3 MLOAD EQ PUSH2 0x1A35 JUMPI PUSH1 0x40 MLOAD PUSH3 0x461BCD PUSH1 0xE5 SHL DUP2 MSTORE PUSH1 0x4 ADD PUSH2 0xCC6 SWAP1 PUSH2 0x316B JUMP JUMPDEST PUSH1 0x0 JUMPDEST DUP4 MLOAD DUP2 LT ISZERO PUSH2 0x1BF9 JUMPI PUSH2 0x1A4C DUP2 PUSH1 0x1 PUSH2 0x2EA3 JUMP JUMPDEST PUSH2 0x1A57 SWAP1 PUSH1 0x2 PUSH2 0x2FD0 JUMP JUMPDEST PUSH1 0xC SLOAD PUSH2 0x1A64 SWAP2 SWAP1 PUSH2 0x31C8 JUMP JUMPDEST ISZERO PUSH2 0x1A6E JUMPI PUSH2 0x1BF9 JUMP JUMPDEST ADDRESS PUSH1 0x1 PUSH1 0x1 PUSH1 0xA0 SHL SUB AND DUP5 DUP3 DUP2 MLOAD DUP2 LT PUSH2 0x1A8A JUMPI PUSH2 0x1A8A PUSH2 0x2EBB JUMP JUMPDEST PUSH1 0x20 MUL PUSH1 0x20 ADD ADD MLOAD PUSH1 0x1 PUSH1 0x1 PUSH1 0xA0 SHL SUB AND EQ ISZERO DUP1 ISZERO PUSH2 0x1ADB JUMPI POP PUSH1 0x8 SLOAD DUP5 MLOAD PUSH1 0x1 PUSH1 0x1 PUSH1 0xA0 SHL SUB SWAP1 SWAP2 AND SWAP1 DUP6 SWAP1 DUP4 SWAP1 DUP2 LT PUSH2 0x1AC7 JUMPI PUSH2 0x1AC7 PUSH2 0x2EBB JUMP JUMPDEST PUSH1 0x20 MUL PUSH1 0x20 ADD ADD MLOAD PUSH1 0x1 PUSH1 0x1 PUSH1 0xA0 SHL SUB AND EQ ISZERO JUMPDEST PUSH2 0x1B27 JUMPI PUSH1 0x40 MLOAD PUSH3 0x461BCD PUSH1 0xE5 SHL DUP2 MSTORE PUSH1 0x20 PUSH1 0x4 DUP3 ADD MSTORE PUSH1 0x1A PUSH1 0x24 DUP3 ADD MSTORE PUSH32 0x4E6F2062617365207072696E74696E67206F6620746F6B656E73000000000000 PUSH1 0x44 DUP3 ADD MSTORE PUSH1 0x64 ADD PUSH2 0xCC6 JUMP JUMPDEST PUSH1 0x0 PUSH2 0x1B34 DUP3 PUSH1 0x1 PUSH2 0x2EA3 JUMP JUMPDEST SWAP1 POP JUMPDEST DUP5 MLOAD DUP2 LT ISZERO PUSH2 0x1BE6 JUMPI DUP5 DUP3 DUP2 MLOAD DUP2 LT PUSH2 0x1B52 JUMPI PUSH2 0x1B52 PUSH2 0x2EBB JUMP JUMPDEST PUSH1 0x20 MUL PUSH1 0x20 ADD ADD MLOAD PUSH1 0x1 PUSH1 0x1 PUSH1 0xA0 SHL SUB AND DUP6 DUP3 DUP2 MLOAD DUP2 LT PUSH2 0x1B75 JUMPI PUSH2 0x1B75 PUSH2 0x2EBB JUMP JUMPDEST PUSH1 0x20 MUL PUSH1 0x20 ADD ADD MLOAD PUSH1 0x1 PUSH1 0x1 PUSH1 0xA0 SHL SUB AND EQ ISZERO PUSH2 0x1BD4 JUMPI PUSH1 0x40 MLOAD PUSH3 0x461BCD PUSH1 0xE5 SHL DUP2 MSTORE PUSH1 0x20 PUSH1 0x4 DUP3 ADD MSTORE PUSH1 0x1B PUSH1 0x24 DUP3 ADD MSTORE PUSH32 0x4E6F207072696E74696E67205468652073616D6520746F6B656E730000000000 PUSH1 0x44 DUP3 ADD MSTORE PUSH1 0x64 ADD PUSH2 0xCC6 JUMP JUMPDEST DUP1 PUSH2 0x1BDE DUP2 PUSH2 0x2ED1 JUMP JUMPDEST SWAP2 POP POP PUSH2 0x1B37 JUMP JUMPDEST POP DUP1 PUSH2 0x1BF1 DUP2 PUSH2 0x2ED1 JUMP JUMPDEST SWAP2 POP POP PUSH2 0x1A38 JUMP JUMPDEST PUSH1 0x0 PUSH2 0x1C20 DUP8 DUP8 DUP7 PUSH1 0x0 DUP2 MLOAD DUP2 LT PUSH2 0x1C13 JUMPI PUSH2 0x1C13 PUSH2 0x2EBB JUMP JUMPDEST PUSH1 0x20 MUL PUSH1 0x20 ADD ADD MLOAD PUSH2 0x20EC JUMP JUMPDEST SWAP1 POP PUSH1 0x0 DUP2 GT PUSH2 0x1C5F JUMPI PUSH1 0x40 MLOAD PUSH3 0x461BCD PUSH1 0xE5 SHL DUP2 MSTORE PUSH1 0x20 PUSH1 0x4 DUP3 ADD MSTORE PUSH1 0xA PUSH1 0x24 DUP3 ADD MSTORE PUSH10 0x6D696E74206973737565 PUSH1 0xB0 SHL PUSH1 0x44 DUP3 ADD MSTORE PUSH1 0x64 ADD PUSH2 0xCC6 JUMP JUMPDEST PUSH1 0x0 DUP1 PUSH1 0x0 JUMPDEST DUP5 DUP2 LT ISZERO PUSH2 0x1E39 JUMPI PUSH2 0x1C78 DUP2 PUSH1 0x1 PUSH2 0x2EA3 JUMP JUMPDEST PUSH2 0x1C83 SWAP1 PUSH1 0x2 PUSH2 0x2FD0 JUMP JUMPDEST PUSH1 0xC SLOAD PUSH2 0x1C90 SWAP2 SWAP1 PUSH2 0x31C8 JUMP JUMPDEST PUSH2 0x1E27 JUMPI DUP8 DUP2 DUP2 MLOAD DUP2 LT PUSH2 0x1CA6 JUMPI PUSH2 0x1CA6 PUSH2 0x2EBB JUMP JUMPDEST PUSH1 0x20 SWAP1 DUP2 MUL SWAP2 SWAP1 SWAP2 ADD ADD MLOAD PUSH1 0x40 MLOAD PUSH4 0x70A08231 PUSH1 0xE0 SHL DUP2 MSTORE ADDRESS PUSH1 0x4 DUP3 ADD MSTORE PUSH1 0x1 PUSH1 0x1 PUSH1 0xA0 SHL SUB SWAP1 SWAP2 AND SWAP1 PUSH4 0x70A08231 SWAP1 PUSH1 0x24 ADD PUSH1 0x20 PUSH1 0x40 MLOAD DUP1 DUP4 SUB DUP2 DUP7 GAS STATICCALL ISZERO DUP1 ISZERO PUSH2 0x1CF6 JUMPI RETURNDATASIZE PUSH1 0x0 DUP1 RETURNDATACOPY RETURNDATASIZE PUSH1 0x0 REVERT JUMPDEST POP POP POP POP PUSH1 0x40 MLOAD RETURNDATASIZE PUSH1 0x1F NOT PUSH1 0x1F DUP3 ADD AND DUP3 ADD DUP1 PUSH1 0x40 MSTORE POP DUP2 ADD SWAP1 PUSH2 0x1D1A SWAP2 SWAP1 PUSH2 0x31DC JUMP JUMPDEST SWAP2 POP DUP2 ISZERO PUSH2 0x1D6E JUMPI PUSH2 0x1D2D PUSH1 0x3 DUP3 PUSH2 0x31C8 JUMP JUMPDEST ISZERO DUP1 ISZERO PUSH2 0x1D39 JUMPI POP DUP1 ISZERO ISZERO JUMPDEST ISZERO PUSH2 0x1D58 JUMPI PUSH2 0x1D51 PUSH5 0x3A35294400 PUSH2 0x14BE DUP7 DUP6 PUSH2 0x2FDC JUMP JUMPDEST SWAP3 POP PUSH2 0x1D6E JUMP JUMPDEST PUSH2 0x1D6B PUSH5 0x3A35294400 PUSH2 0xC7D DUP7 DUP6 PUSH2 0x2FDC JUMP JUMPDEST SWAP3 POP JUMPDEST DUP8 DUP2 DUP2 MLOAD DUP2 LT PUSH2 0x1D80 JUMPI PUSH2 0x1D80 PUSH2 0x2EBB JUMP JUMPDEST PUSH1 0x20 MUL PUSH1 0x20 ADD ADD MLOAD PUSH1 0x1 PUSH1 0x1 PUSH1 0xA0 SHL SUB AND PUSH4 0xA9059CBB DUP9 DUP4 DUP2 MLOAD DUP2 LT PUSH2 0x1DA8 JUMPI PUSH2 0x1DA8 PUSH2 0x2EBB JUMP JUMPDEST PUSH1 0x20 MUL PUSH1 0x20 ADD ADD MLOAD DUP6 PUSH1 0x40 MLOAD DUP4 PUSH4 0xFFFFFFFF AND PUSH1 0xE0 SHL DUP2 MSTORE PUSH1 0x4 ADD PUSH2 0x1DE2 SWAP3 SWAP2 SWAP1 PUSH1 0x1 PUSH1 0x1 PUSH1 0xA0 SHL SUB SWAP3 SWAP1 SWAP3 AND DUP3 MSTORE PUSH1 0x20 DUP3 ADD MSTORE PUSH1 0x40 ADD SWAP1 JUMP JUMPDEST PUSH1 0x20 PUSH1 0x40 MLOAD DUP1 DUP4 SUB DUP2 PUSH1 0x0 DUP8 GAS CALL ISZERO DUP1 ISZERO PUSH2 0x1E01 JUMPI RETURNDATASIZE PUSH1 0x0 DUP1 RETURNDATACOPY RETURNDATASIZE PUSH1 0x0 REVERT JUMPDEST POP POP POP POP PUSH1 0x40 MLOAD RETURNDATASIZE PUSH1 0x1F NOT PUSH1 0x1F DUP3 ADD AND DUP3 ADD DUP1 PUSH1 0x40 MSTORE POP DUP2 ADD SWAP1 PUSH2 0x1E25 SWAP2 SWAP1 PUSH2 0x314E JUMP JUMPDEST POP JUMPDEST DUP1 PUSH2 0x1E31 DUP2 PUSH2 0x2ED1 JUMP JUMPDEST SWAP2 POP POP PUSH2 0x1C65 JUMP JUMPDEST POP PUSH1 0xC SLOAD PUSH1 0x11 SLOAD PUSH1 0x40 DUP1 MLOAD SWAP3 DUP4 MSTORE PUSH1 0x20 DUP4 ADD SWAP2 SWAP1 SWAP2 MSTORE DUP2 ADD DUP6 SWAP1 MSTORE CALLER SWAP1 PUSH32 0xC32557ACCEB6AEB205C3115AC08A8DC54D82FB5EA08F2B7F1E6B794488E3851C SWAP1 PUSH1 0x60 ADD PUSH1 0x40 MLOAD DUP1 SWAP2 SUB SWAP1 LOG2 POP SWAP1 SWAP8 SWAP7 POP POP POP POP POP POP POP JUMP JUMPDEST PUSH1 0x0 PUSH1 0x22 SLOAD TIMESTAMP PUSH2 0x1EA0 SWAP2 SWAP1 PUSH2 0x2FFB JUMP JUMPDEST SWAP1 POP PUSH1 0x0 PUSH1 0x15 SLOAD PUSH1 0xC SLOAD PUSH2 0x1EB4 SWAP2 SWAP1 PUSH2 0x2FFB JUMP JUMPDEST SWAP1 POP PUSH1 0x0 PUSH2 0x1EC2 DUP3 DUP5 PUSH2 0x3028 JUMP JUMPDEST SWAP1 POP PUSH2 0x1ED6 PUSH1 0x12 SLOAD PUSH1 0x2 PUSH2 0xC66 SWAP2 SWAP1 PUSH2 0x2FD0 JUMP JUMPDEST PUSH1 0x14 SSTORE PUSH1 0x0 PUSH2 0x1EED PUSH2 0xB40 PUSH2 0x14BE DUP5 PUSH2 0x378 PUSH2 0x2FDC JUMP JUMPDEST PUSH1 0x4 DUP2 SWAP1 SSTORE SWAP1 POP PUSH1 0x0 PUSH2 0x378 PUSH2 0x1F04 DUP4 PUSH1 0x64 PUSH2 0x2FDC JUMP JUMPDEST PUSH2 0x1F0E SWAP2 SWAP1 PUSH2 0x3028 JUMP JUMPDEST SWAP1 POP PUSH1 0x0 PUSH1 0xC8 DUP3 LT ISZERO PUSH2 0x1F52 JUMPI PUSH2 0x1F2F PUSH2 0x378 PUSH2 0xC7D DUP6 PUSH4 0x26F7F3C PUSH2 0x2FDC JUMP JUMPDEST PUSH2 0x1F41 PUSH3 0xC0840 PUSH2 0xD8C PUSH1 0x2 DUP8 PUSH2 0x303C JUMP JUMPDEST PUSH2 0x1F4B SWAP2 SWAP1 PUSH2 0x2EA3 JUMP JUMPDEST SWAP1 POP PUSH2 0x1F59 JUMP JUMPDEST POP PUSH4 0xDB58580 JUMPDEST PUSH2 0x1F7D PUSH4 0xBEBC200 PUSH1 0x1E SLOAD PUSH1 0x19 SLOAD DUP5 DUP10 PUSH2 0x1F73 SWAP2 SWAP1 PUSH2 0x2FDC JUMP JUMPDEST PUSH2 0x1878 SWAP2 SWAP1 PUSH2 0x2FDC JUMP JUMPDEST PUSH1 0x5 SSTORE PUSH1 0xD SLOAD PUSH1 0x19 SLOAD PUSH1 0x4 SWAP2 PUSH2 0x1F92 SWAP2 PUSH2 0x2FDC JUMP JUMPDEST PUSH2 0x1F9D SWAP1 PUSH1 0x3C PUSH2 0x2FDC JUMP JUMPDEST PUSH2 0x1FA7 SWAP2 SWAP1 PUSH2 0x3028 JUMP JUMPDEST PUSH1 0x8 SLOAD PUSH1 0x40 MLOAD PUSH4 0x70A08231 PUSH1 0xE0 SHL DUP2 MSTORE ADDRESS PUSH1 0x4 DUP3 ADD MSTORE PUSH1 0x1 PUSH1 0x1 PUSH1 0xA0 SHL SUB SWAP1 SWAP2 AND SWAP1 PUSH4 0x70A08231 SWAP1 PUSH1 0x24 ADD PUSH1 0x20 PUSH1 0x40 MLOAD DUP1 DUP4 SUB DUP2 DUP7 GAS STATICCALL ISZERO DUP1 ISZERO PUSH2 0x1FEF JUMPI RETURNDATASIZE PUSH1 0x0 DUP1 RETURNDATACOPY RETURNDATASIZE PUSH1 0x0 REVERT JUMPDEST POP POP POP POP PUSH1 0x40 MLOAD RETURNDATASIZE PUSH1 0x1F NOT PUSH1 0x1F DUP3 ADD AND DUP3 ADD DUP1 PUSH1 0x40 MSTORE POP DUP2 ADD SWAP1 PUSH2 0x2013 SWAP2 SWAP1 PUSH2 0x31DC JUMP JUMPDEST GT ISZERO PUSH2 0x20D4 JUMPI PUSH1 0x8 SLOAD PUSH1 0x7 SLOAD PUSH1 0x1E SLOAD PUSH1 0x19 SLOAD PUSH1 0x1 PUSH1 0x1 PUSH1 0xA0 SHL SUB SWAP4 DUP5 AND SWAP4 PUSH4 0xA9059CBB SWAP4 AND SWAP2 PUSH2 0x204E SWAP2 PUSH4 0xBEBC200 SWAP2 SWAP1 PUSH2 0x1F73 DUP9 DUP14 PUSH2 0x2FDC JUMP JUMPDEST PUSH1 0x40 MLOAD PUSH1 0x1 PUSH1 0x1 PUSH1 0xE0 SHL SUB NOT PUSH1 0xE0 DUP6 SWAP1 SHL AND DUP2 MSTORE PUSH1 0x1 PUSH1 0x1 PUSH1 0xA0 SHL SUB SWAP1 SWAP3 AND PUSH1 0x4 DUP4 ADD MSTORE PUSH1 0x24 DUP3 ADD MSTORE PUSH1 0x44 ADD PUSH1 0x20 PUSH1 0x40 MLOAD DUP1 DUP4 SUB DUP2 PUSH1 0x0 DUP8 GAS CALL ISZERO DUP1 ISZERO PUSH2 0x2099 JUMPI RETURNDATASIZE PUSH1 0x0 DUP1 RETURNDATACOPY RETURNDATASIZE PUSH1 0x0 REVERT JUMPDEST POP POP POP POP PUSH1 0x40 MLOAD RETURNDATASIZE PUSH1 0x1F NOT PUSH1 0x1F DUP3 ADD AND DUP3 ADD DUP1 PUSH1 0x40 MSTORE POP DUP2 ADD SWAP1 PUSH2 0x20BD SWAP2 SWAP1 PUSH2 0x314E JUMP JUMPDEST POP PUSH1 0x1F SLOAD PUSH2 0x20CC SWAP1 PUSH1 0x1 PUSH2 0x2FDC JUMP JUMPDEST PUSH1 0x1E SSTORE PUSH2 0x20DA JUMP JUMPDEST PUSH1 0x0 PUSH1 0x1E SSTORE JUMPDEST POP POP PUSH1 0xC SLOAD PUSH1 0x15 SSTORE POP POP TIMESTAMP PUSH1 0x22 SSTORE POP POP JUMP JUMPDEST PUSH1 0x0 DUP1 PUSH1 0x11 SLOAD CALLER DUP7 PUSH1 0x40 MLOAD PUSH1 0x20 ADD PUSH2 0x2106 SWAP4 SWAP3 SWAP2 SWAP1 PUSH2 0x3061 JUMP JUMPDEST PUSH1 0x40 MLOAD PUSH1 0x20 DUP2 DUP4 SUB SUB DUP2 MSTORE SWAP1 PUSH1 0x40 MSTORE DUP1 MLOAD SWAP1 PUSH1 0x20 ADD KECCAK256 SWAP1 POP DUP4 DUP2 EQ PUSH2 0x213D JUMPI PUSH1 0x40 MLOAD PUSH3 0x461BCD PUSH1 0xE5 SHL DUP2 MSTORE PUSH1 0x4 ADD PUSH2 0xCC6 SWAP1 PUSH2 0x3089 JUMP JUMPDEST PUSH1 0x10 SLOAD DUP2 LT PUSH2 0x215E JUMPI PUSH1 0x40 MLOAD PUSH3 0x461BCD PUSH1 0xE5 SHL DUP2 MSTORE PUSH1 0x4 ADD PUSH2 0xCC6 SWAP1 PUSH2 0x30D7 JUMP JUMPDEST PUSH2 0x2166 PUSH2 0x2590 JUMP JUMPDEST PUSH1 0x16 SLOAD TIMESTAMP GT PUSH2 0x2187 JUMPI PUSH1 0x40 MLOAD PUSH3 0x461BCD PUSH1 0xE5 SHL DUP2 MSTORE PUSH1 0x4 ADD PUSH2 0xCC6 SWAP1 PUSH2 0x311F JUMP JUMPDEST PUSH1 0x0 PUSH2 0xB40 PUSH1 0x16 SLOAD TIMESTAMP PUSH2 0x219A SWAP2 SWAP1 PUSH2 0x2FFB JUMP JUMPDEST PUSH2 0x21A6 SWAP1 PUSH2 0x378 PUSH2 0x2FDC JUMP JUMPDEST PUSH2 0x21B0 SWAP2 SWAP1 PUSH2 0x3028 JUMP JUMPDEST SWAP1 POP PUSH1 0x0 PUSH2 0x378 PUSH2 0x21C2 DUP4 PUSH1 0x64 PUSH2 0x2FDC JUMP JUMPDEST PUSH2 0x21CC SWAP2 SWAP1 PUSH2 0x3028 JUMP JUMPDEST SWAP1 POP PUSH1 0x0 PUSH2 0x13A DUP3 LT ISZERO PUSH2 0x2211 JUMPI PUSH2 0x21EE PUSH2 0x378 PUSH2 0xC7D DUP6 PUSH4 0x26F7F3C PUSH2 0x2FDC JUMP JUMPDEST PUSH2 0x2200 PUSH3 0xC0840 PUSH2 0xD8C PUSH1 0x2 DUP8 PUSH2 0x303C JUMP JUMPDEST PUSH2 0x220A SWAP2 SWAP1 PUSH2 0x2EA3 JUMP JUMPDEST SWAP1 POP PUSH2 0x2236 JUMP JUMPDEST PUSH2 0x2225 PUSH2 0x378 PUSH2 0xC7D DUP6 PUSH4 0x5F5E100 PUSH2 0x2FDC JUMP JUMPDEST PUSH2 0x2233 SWAP1 PUSH4 0x14DC9380 PUSH2 0x2EA3 JUMP JUMPDEST SWAP1 POP JUMPDEST PUSH2 0x226E PUSH2 0x224F PUSH4 0x5F5E100 DUP4 PUSH1 0x14 SLOAD PUSH2 0xC7D SWAP2 SWAP1 PUSH2 0x2FDC JUMP JUMPDEST PUSH1 0x1 PUSH1 0x1 PUSH1 0xA0 SHL SUB DUP9 AND PUSH1 0x0 SWAP1 DUP2 MSTORE PUSH1 0x1C PUSH1 0x20 MSTORE PUSH1 0x40 SWAP1 KECCAK256 SLOAD SWAP1 PUSH2 0x2542 JUMP JUMPDEST PUSH1 0x1 PUSH1 0x1 PUSH1 0xA0 SHL SUB DUP8 AND PUSH1 0x0 SWAP1 DUP2 MSTORE PUSH1 0x1C PUSH1 0x20 MSTORE PUSH1 0x40 SWAP1 KECCAK256 SSTORE PUSH1 0x14 SLOAD PUSH2 0x22A3 SWAP1 PUSH2 0x17CE SWAP1 PUSH4 0xBEBC200 SWAP1 PUSH2 0xC7D SWAP1 DUP6 SWAP1 PUSH2 0x2FDC JUMP JUMPDEST PUSH1 0x7 SLOAD PUSH1 0x1 PUSH1 0x1 PUSH1 0xA0 SHL SUB AND PUSH1 0x0 SWAP1 DUP2 MSTORE PUSH1 0x1C PUSH1 0x20 MSTORE PUSH1 0x40 SWAP1 KECCAK256 SSTORE PUSH1 0x14 SLOAD PUSH2 0x22DA SWAP1 PUSH2 0x1826 SWAP1 PUSH4 0x5F5E100 SWAP1 PUSH2 0xC7D SWAP1 DUP6 SWAP1 PUSH2 0x2FDC JUMP JUMPDEST PUSH1 0x1B SSTORE TIMESTAMP PUSH1 0x16 SSTORE PUSH1 0x1E SLOAD ISZERO PUSH2 0x2438 JUMPI PUSH1 0xC8 DUP3 LT ISZERO PUSH2 0x2398 JUMPI PUSH1 0x8 SLOAD PUSH1 0x1E SLOAD PUSH1 0x19 SLOAD PUSH1 0x1 PUSH1 0x1 PUSH1 0xA0 SHL SUB SWAP1 SWAP3 AND SWAP2 PUSH4 0xA9059CBB SWAP2 DUP10 SWAP2 PUSH2 0x2323 SWAP2 PUSH4 0x5F5E100 SWAP2 PUSH2 0x1878 SWAP1 DUP9 PUSH2 0x2FDC JUMP JUMPDEST PUSH1 0x40 MLOAD PUSH1 0x1 PUSH1 0x1 PUSH1 0xE0 SHL SUB NOT PUSH1 0xE0 DUP6 SWAP1 SHL AND DUP2 MSTORE PUSH1 0x1 PUSH1 0x1 PUSH1 0xA0 SHL SUB SWAP1 SWAP3 AND PUSH1 0x4 DUP4 ADD MSTORE PUSH1 0x24 DUP3 ADD MSTORE PUSH1 0x44 ADD PUSH1 0x20 PUSH1 0x40 MLOAD DUP1 DUP4 SUB DUP2 PUSH1 0x0 DUP8 GAS CALL ISZERO DUP1 ISZERO PUSH2 0x236E JUMPI RETURNDATASIZE PUSH1 0x0 DUP1 RETURNDATACOPY RETURNDATASIZE PUSH1 0x0 REVERT JUMPDEST POP POP POP POP PUSH1 0x40 MLOAD RETURNDATASIZE PUSH1 0x1F NOT PUSH1 0x1F DUP3 ADD AND DUP3 ADD DUP1 PUSH1 0x40 MSTORE POP DUP2 ADD SWAP1 PUSH2 0x2392 SWAP2 SWAP1 PUSH2 0x314E JUMP JUMPDEST POP PUSH2 0x2438 JUMP JUMPDEST PUSH1 0x8 SLOAD PUSH1 0x1E SLOAD PUSH1 0x19 SLOAD PUSH1 0x1 PUSH1 0x1 PUSH1 0xA0 SHL SUB SWAP1 SWAP3 AND SWAP2 PUSH4 0xA9059CBB SWAP2 DUP10 SWAP2 PUSH2 0x23C7 SWAP2 PUSH1 0xA SWAP2 PUSH2 0x1878 SWAP1 PUSH1 0x17 PUSH2 0x2FDC JUMP JUMPDEST PUSH1 0x40 MLOAD PUSH1 0x1 PUSH1 0x1 PUSH1 0xE0 SHL SUB NOT PUSH1 0xE0 DUP6 SWAP1 SHL AND DUP2 MSTORE PUSH1 0x1 PUSH1 0x1 PUSH1 0xA0 SHL SUB SWAP1 SWAP3 AND PUSH1 0x4 DUP4 ADD MSTORE PUSH1 0x24 DUP3 ADD MSTORE PUSH1 0x44 ADD PUSH1 0x20 PUSH1 0x40 MLOAD DUP1 DUP4 SUB DUP2 PUSH1 0x0 DUP8 GAS CALL ISZERO DUP1 ISZERO PUSH2 0x2412 JUMPI RETURNDATASIZE PUSH1 0x0 DUP1 RETURNDATACOPY RETURNDATASIZE PUSH1 0x0 REVERT JUMPDEST POP POP POP POP PUSH1 0x40 MLOAD RETURNDATASIZE PUSH1 0x1F NOT PUSH1 0x1F DUP3 ADD AND DUP3 ADD DUP1 PUSH1 0x40 MSTORE POP DUP2 ADD SWAP1 PUSH2 0x2436 SWAP2 SWAP1 PUSH2 0x314E JUMP JUMPDEST POP JUMPDEST CALLER PUSH1 0x1 PUSH1 0x1 PUSH1 0xA0 SHL SUB AND PUSH32 0xCF6FBB9DCEA7D07263AB4F5C3A92F53AF33DFFC421D9D121E1C74B307E68189D PUSH2 0x2479 PUSH4 0x5F5E100 DUP5 PUSH1 0x14 SLOAD PUSH2 0xC7D SWAP2 SWAP1 PUSH2 0x2FDC JUMP JUMPDEST PUSH1 0xC SLOAD PUSH1 0x11 SLOAD PUSH1 0x40 DUP1 MLOAD SWAP4 DUP5 MSTORE PUSH1 0x20 DUP5 ADD SWAP3 SWAP1 SWAP3 MSTORE SWAP1 DUP3 ADD MSTORE PUSH1 0x60 ADD PUSH1 0x40 MLOAD DUP1 SWAP2 SUB SWAP1 LOG2 SWAP8 SWAP7 POP POP POP POP POP POP POP JUMP JUMPDEST PUSH1 0x0 DUP2 PUSH2 0x24E5 JUMPI PUSH1 0x40 MLOAD PUSH3 0x461BCD PUSH1 0xE5 SHL DUP2 MSTORE PUSH1 0x20 PUSH1 0x4 DUP3 ADD MSTORE PUSH1 0xB PUSH1 0x24 DUP3 ADD MSTORE PUSH11 0x446976206279207A65726F PUSH1 0xA8 SHL PUSH1 0x44 DUP3 ADD MSTORE PUSH1 0x64 ADD PUSH2 0xCC6 JUMP JUMPDEST PUSH2 0x24EF DUP3 DUP5 PUSH2 0x3028 JUMP JUMPDEST SWAP4 SWAP3 POP POP POP JUMP JUMPDEST PUSH1 0x0 DUP2 DUP4 LT ISZERO PUSH2 0x2538 JUMPI PUSH1 0x40 MLOAD PUSH3 0x461BCD PUSH1 0xE5 SHL DUP2 MSTORE PUSH1 0x20 PUSH1 0x4 DUP3 ADD MSTORE PUSH1 0xD PUSH1 0x24 DUP3 ADD MSTORE PUSH13 0x53756220756E646572666C6F77 PUSH1 0x98 SHL PUSH1 0x44 DUP3 ADD MSTORE PUSH1 0x64 ADD PUSH2 0xCC6 JUMP JUMPDEST PUSH2 0x24EF DUP3 DUP5 PUSH2 0x2FFB JUMP JUMPDEST PUSH1 0x0 DUP1 PUSH2 0x254F DUP4 DUP6 PUSH2 0x2EA3 JUMP JUMPDEST SWAP1 POP DUP4 DUP2 LT ISZERO PUSH2 0x24EF JUMPI PUSH1 0x40 MLOAD PUSH3 0x461BCD PUSH1 0xE5 SHL DUP2 MSTORE PUSH1 0x20 PUSH1 0x4 DUP3 ADD MSTORE PUSH1 0xC PUSH1 0x24 DUP3 ADD MSTORE PUSH12 0x416464206F766572666C6F77 PUSH1 0xA0 SHL PUSH1 0x44 DUP3 ADD MSTORE PUSH1 0x64 ADD PUSH2 0xCC6 JUMP JUMPDEST PUSH1 0x13 SLOAD PUSH1 0x1B SLOAD GT DUP1 ISZERO PUSH2 0x25A5 JUMPI POP PUSH1 0x27 PUSH1 0x12 SLOAD LT JUMPDEST ISZERO PUSH2 0x25D9 JUMPI PUSH1 0x12 SLOAD PUSH2 0x25B8 SWAP1 PUSH1 0x1 PUSH2 0x2EA3 JUMP JUMPDEST PUSH1 0x12 DUP2 SWAP1 SSTORE PUSH2 0x25D5 SWAP1 PUSH2 0x25CC SWAP1 PUSH1 0x2 PUSH2 0x2FD0 JUMP JUMPDEST PUSH1 0x10 SLOAD SWAP1 PUSH2 0x27A3 JUMP JUMPDEST PUSH1 0x10 SSTORE JUMPDEST PUSH1 0xC SLOAD PUSH2 0x25E7 SWAP1 PUSH1 0x1 PUSH2 0x2542 JUMP JUMPDEST PUSH1 0xC SSTORE PUSH1 0xD SLOAD PUSH2 0x25F9 SWAP1 PUSH1 0x4 SWAP1 PUSH2 0x3028 JUMP JUMPDEST PUSH1 0xC SLOAD PUSH2 0x2606 SWAP2 SWAP1 PUSH2 0x31C8 JUMP JUMPDEST PUSH2 0x2725 JUMPI PUSH2 0x2612 PUSH2 0x1E90 JUMP JUMPDEST PUSH2 0x2638 PUSH1 0x12 SLOAD PUSH1 0x1 PUSH2 0x2624 SWAP2 SWAP1 PUSH2 0x2EA3 JUMP JUMPDEST PUSH2 0x262F SWAP1 PUSH1 0x2 PUSH2 0x2FD0 JUMP JUMPDEST PUSH1 0xA SLOAD SWAP1 PUSH2 0x24A8 JUMP JUMPDEST PUSH1 0xA SLOAD PUSH2 0x2645 SWAP2 SWAP1 PUSH2 0x2FFB JUMP JUMPDEST PUSH1 0x13 SSTORE PUSH1 0xD SLOAD PUSH1 0xC SLOAD PUSH2 0x2658 SWAP2 SWAP1 PUSH2 0x31C8 JUMP JUMPDEST PUSH2 0x2725 JUMPI PUSH1 0x19 SLOAD PUSH1 0x8 SLOAD PUSH1 0x40 MLOAD PUSH4 0x70A08231 PUSH1 0xE0 SHL DUP2 MSTORE ADDRESS PUSH1 0x4 DUP3 ADD MSTORE PUSH2 0x4E20 SWAP3 SWAP2 PUSH1 0x1 PUSH1 0x1 PUSH1 0xA0 SHL SUB AND SWAP1 PUSH4 0x70A08231 SWAP1 PUSH1 0x24 ADD PUSH1 0x20 PUSH1 0x40 MLOAD DUP1 DUP4 SUB DUP2 DUP7 GAS STATICCALL ISZERO DUP1 ISZERO PUSH2 0x26AA JUMPI RETURNDATASIZE PUSH1 0x0 DUP1 RETURNDATACOPY RETURNDATASIZE PUSH1 0x0 REVERT JUMPDEST POP POP POP POP PUSH1 0x40 MLOAD RETURNDATASIZE PUSH1 0x1F NOT PUSH1 0x1F DUP3 ADD AND DUP3 ADD DUP1 PUSH1 0x40 MSTORE POP DUP2 ADD SWAP1 PUSH2 0x26CE SWAP2 SWAP1 PUSH2 0x31DC JUMP JUMPDEST PUSH2 0x26D8 SWAP2 SWAP1 PUSH2 0x3028 JUMP JUMPDEST GT PUSH2 0x270B JUMPI PUSH1 0x1A SLOAD PUSH1 0x19 SLOAD PUSH2 0x26EE SWAP1 PUSH1 0x2 PUSH2 0x24A8 JUMP JUMPDEST GT ISZERO PUSH2 0x2706 JUMPI PUSH1 0x19 SLOAD PUSH2 0x2702 SWAP1 PUSH1 0x2 PUSH2 0x24A8 JUMP JUMPDEST PUSH1 0x19 SSTORE JUMPDEST PUSH2 0x271D JUMP JUMPDEST PUSH1 0x19 SLOAD PUSH2 0x2719 SWAP1 PUSH1 0x3 PUSH2 0x27A3 JUMP JUMPDEST PUSH1 0x19 SSTORE JUMPDEST PUSH2 0x2725 PUSH2 0x2808 JUMP JUMPDEST PUSH2 0x2730 PUSH1 0x1 NUMBER PUSH2 0x2FFB JUMP JUMPDEST BLOCKHASH PUSH1 0x11 SSTORE JUMP JUMPDEST PUSH1 0x0 DUP2 PUSH2 0x2773 JUMPI PUSH1 0x40 MLOAD PUSH3 0x461BCD PUSH1 0xE5 SHL DUP2 MSTORE PUSH1 0x20 PUSH1 0x4 DUP3 ADD MSTORE PUSH1 0xB PUSH1 0x24 DUP3 ADD MSTORE PUSH11 0x446976206279207A65726F PUSH1 0xA8 SHL PUSH1 0x44 DUP3 ADD MSTORE PUSH1 0x64 ADD PUSH2 0xCC6 JUMP JUMPDEST PUSH1 0x0 PUSH2 0x277F DUP4 DUP6 PUSH2 0x3028 JUMP JUMPDEST SWAP1 POP PUSH2 0x278B DUP4 DUP6 PUSH2 0x31C8 JUMP JUMPDEST ISZERO PUSH2 0x24EF JUMPI PUSH2 0x279B DUP2 PUSH1 0x1 PUSH2 0x2EA3 JUMP JUMPDEST SWAP5 SWAP4 POP POP POP POP JUMP JUMPDEST PUSH1 0x0 DUP3 PUSH2 0x27B2 JUMPI POP PUSH1 0x0 PUSH2 0xA6B JUMP JUMPDEST PUSH1 0x0 PUSH2 0x27BE DUP4 DUP6 PUSH2 0x2FDC JUMP JUMPDEST SWAP1 POP DUP3 PUSH2 0x27CB DUP6 DUP4 PUSH2 0x3028 JUMP JUMPDEST EQ PUSH2 0x24EF JUMPI PUSH1 0x40 MLOAD PUSH3 0x461BCD PUSH1 0xE5 SHL DUP2 MSTORE PUSH1 0x20 PUSH1 0x4 DUP3 ADD MSTORE PUSH1 0xD PUSH1 0x24 DUP3 ADD MSTORE PUSH13 0x4D756C74206F766572666C6F77 PUSH1 0x98 SHL PUSH1 0x44 DUP3 ADD MSTORE PUSH1 0x64 ADD PUSH2 0xCC6 JUMP JUMPDEST PUSH1 0xB SLOAD TIMESTAMP SWAP1 PUSH1 0x0 SWAP1 PUSH2 0x281A SWAP1 DUP4 PUSH2 0x2FFB JUMP JUMPDEST SWAP1 POP PUSH1 0x0 PUSH1 0xD SLOAD PUSH2 0xB40 PUSH2 0x282E SWAP2 SWAP1 PUSH2 0x2FDC JUMP JUMPDEST SWAP1 POP DUP1 DUP3 LT ISZERO PUSH2 0x28A3 JUMPI PUSH1 0x0 PUSH2 0x2849 DUP4 PUSH2 0xC7D DUP5 PUSH1 0x64 PUSH2 0x27A3 JUMP JUMPDEST PUSH1 0x1 PUSH1 0x1F SSTORE SWAP1 POP PUSH1 0x0 PUSH2 0x2869 PUSH2 0x3E8 PUSH2 0x2863 DUP5 PUSH1 0x64 PUSH2 0x24F6 JUMP JUMPDEST SWAP1 PUSH2 0x2931 JUMP JUMPDEST SWAP1 POP PUSH2 0x2898 PUSH2 0x288F DUP3 PUSH2 0x2889 PUSH2 0x7D0 PUSH1 0x10 SLOAD PUSH2 0x24A8 SWAP1 SWAP2 SWAP1 PUSH4 0xFFFFFFFF AND JUMP JUMPDEST SWAP1 PUSH2 0x27A3 JUMP JUMPDEST PUSH1 0x10 SLOAD SWAP1 PUSH2 0x24F6 JUMP JUMPDEST PUSH1 0x10 SSTORE POP PUSH2 0x28FD SWAP1 POP JUMP JUMPDEST PUSH1 0x0 PUSH2 0x28B4 DUP3 PUSH2 0xC7D DUP6 PUSH1 0x64 PUSH2 0x27A3 JUMP JUMPDEST PUSH1 0x2 PUSH1 0x1F SSTORE SWAP1 POP PUSH1 0x0 PUSH2 0x28CE PUSH2 0x3E8 PUSH2 0x2863 DUP5 PUSH1 0x64 PUSH2 0x24F6 JUMP JUMPDEST SWAP1 POP PUSH2 0x28F7 PUSH2 0x28EE DUP3 PUSH2 0x2889 PUSH2 0x3E8 PUSH1 0x10 SLOAD PUSH2 0x24A8 SWAP1 SWAP2 SWAP1 PUSH4 0xFFFFFFFF AND JUMP JUMPDEST PUSH1 0x10 SLOAD SWAP1 PUSH2 0x2542 JUMP JUMPDEST PUSH1 0x10 SSTORE POP POP JUMPDEST PUSH1 0xB DUP4 SWAP1 SSTORE NUMBER PUSH1 0x23 SSTORE PUSH1 0xE SLOAD PUSH1 0x10 SLOAD LT ISZERO PUSH2 0x2919 JUMPI PUSH1 0xE SLOAD PUSH1 0x10 SSTORE JUMPDEST PUSH1 0xF SLOAD PUSH1 0x10 SLOAD GT ISZERO PUSH2 0x292C JUMPI PUSH1 0xF SLOAD PUSH1 0x10 SSTORE JUMPDEST POP POP POP JUMP JUMPDEST PUSH1 0x0 DUP2 DUP4 GT ISZERO PUSH2 0x2942 JUMPI POP DUP1 PUSH2 0xA6B JUMP JUMPDEST POP SWAP1 SWAP2 SWAP1 POP JUMP JUMPDEST PUSH1 0x0 PUSH1 0x20 DUP1 DUP4 MSTORE DUP4 MLOAD DUP1 DUP3 DUP6 ADD MSTORE PUSH1 0x0 JUMPDEST DUP2 DUP2 LT ISZERO PUSH2 0x2976 JUMPI DUP6 DUP2 ADD DUP4 ADD MLOAD DUP6 DUP3 ADD PUSH1 0x40 ADD MSTORE DUP3 ADD PUSH2 0x295A JUMP JUMPDEST DUP2 DUP2 GT ISZERO PUSH2 0x2988 JUMPI PUSH1 0x0 PUSH1 0x40 DUP4 DUP8 ADD ADD MSTORE JUMPDEST POP PUSH1 0x1F ADD PUSH1 0x1F NOT AND SWAP3 SWAP1 SWAP3 ADD PUSH1 0x40 ADD SWAP4 SWAP3 POP POP POP JUMP JUMPDEST DUP1 CALLDATALOAD PUSH1 0x1 PUSH1 0x1 PUSH1 0xA0 SHL SUB DUP2 AND DUP2 EQ PUSH2 0x29B5 JUMPI PUSH1 0x0 DUP1 REVERT JUMPDEST SWAP2 SWAP1 POP JUMP JUMPDEST PUSH1 0x0 DUP1 PUSH1 0x40 DUP4 DUP6 SUB SLT ISZERO PUSH2 0x29CD JUMPI PUSH1 0x0 DUP1 REVERT JUMPDEST PUSH2 0x29D6 DUP4 PUSH2 0x299E JUMP JUMPDEST SWAP5 PUSH1 0x20 SWAP4 SWAP1 SWAP4 ADD CALLDATALOAD SWAP4 POP POP POP JUMP JUMPDEST PUSH1 0x0 DUP1 PUSH1 0x40 DUP4 DUP6 SUB SLT ISZERO PUSH2 0x29F7 JUMPI PUSH1 0x0 DUP1 REVERT JUMPDEST POP POP DUP1 CALLDATALOAD SWAP3 PUSH1 0x20 SWAP1 SWAP2 ADD CALLDATALOAD SWAP2 POP JUMP JUMPDEST PUSH4 0x4E487B71 PUSH1 0xE0 SHL PUSH1 0x0 MSTORE PUSH1 0x41 PUSH1 0x4 MSTORE PUSH1 0x24 PUSH1 0x0 REVERT JUMPDEST PUSH1 0x40 MLOAD PUSH1 0x1F DUP3 ADD PUSH1 0x1F NOT AND DUP2 ADD PUSH8 0xFFFFFFFFFFFFFFFF DUP2 GT DUP3 DUP3 LT OR ISZERO PUSH2 0x2A45 JUMPI PUSH2 0x2A45 PUSH2 0x2A06 JUMP JUMPDEST PUSH1 0x40 MSTORE SWAP2 SWAP1 POP JUMP JUMPDEST PUSH1 0x0 DUP3 PUSH1 0x1F DUP4 ADD SLT PUSH2 0x2A5E JUMPI PUSH1 0x0 DUP1 REVERT JUMPDEST DUP2 CALLDATALOAD PUSH1 0x20 PUSH8 0xFFFFFFFFFFFFFFFF DUP3 GT ISZERO PUSH2 0x2A7A JUMPI PUSH2 0x2A7A PUSH2 0x2A06 JUMP JUMPDEST DUP2 PUSH1 0x5 SHL PUSH2 0x2A89 DUP3 DUP3 ADD PUSH2 0x2A1C JUMP JUMPDEST SWAP3 DUP4 MSTORE DUP5 DUP2 ADD DUP3 ADD SWAP3 DUP3 DUP2 ADD SWAP1 DUP8 DUP6 GT ISZERO PUSH2 0x2AA3 JUMPI PUSH1 0x0 DUP1 REVERT JUMPDEST DUP4 DUP8 ADD SWAP3 POP JUMPDEST DUP5 DUP4 LT ISZERO PUSH2 0x2AC9 JUMPI PUSH2 0x2ABA DUP4 PUSH2 0x299E JUMP JUMPDEST DUP3 MSTORE SWAP2 DUP4 ADD SWAP2 SWAP1 DUP4 ADD SWAP1 PUSH2 0x2AA9 JUMP JUMPDEST SWAP8 SWAP7 POP POP POP POP POP POP POP JUMP JUMPDEST PUSH1 0x0 DUP1 PUSH1 0x0 DUP1 PUSH1 0x80 DUP6 DUP8 SUB SLT ISZERO PUSH2 0x2AEA JUMPI PUSH1 0x0 DUP1 REVERT JUMPDEST DUP5 CALLDATALOAD SWAP4 POP PUSH1 0x20 DUP6 ADD CALLDATALOAD SWAP3 POP PUSH1 0x40 DUP6 ADD CALLDATALOAD PUSH8 0xFFFFFFFFFFFFFFFF DUP2 GT ISZERO PUSH2 0x2B0F JUMPI PUSH1 0x0 DUP1 REVERT JUMPDEST PUSH2 0x2B1B DUP8 DUP3 DUP9 ADD PUSH2 0x2A4D JUMP JUMPDEST SWAP3 POP POP PUSH2 0x2B2A PUSH1 0x60 DUP7 ADD PUSH2 0x299E JUMP JUMPDEST SWAP1 POP SWAP3 SWAP6 SWAP2 SWAP5 POP SWAP3 POP JUMP JUMPDEST PUSH1 0x0 DUP1 PUSH1 0x0 PUSH1 0x60 DUP5 DUP7 SUB SLT ISZERO PUSH2 0x2B4A JUMPI PUSH1 0x0 DUP1 REVERT JUMPDEST PUSH2 0x2B53 DUP5 PUSH2 0x299E JUMP JUMPDEST SWAP3 POP PUSH2 0x2B61 PUSH1 0x20 DUP6 ADD PUSH2 0x299E JUMP JUMPDEST SWAP2 POP PUSH1 0x40 DUP5 ADD CALLDATALOAD SWAP1 POP SWAP3 POP SWAP3 POP SWAP3 JUMP JUMPDEST PUSH1 0x0 DUP1 PUSH1 0x0 PUSH1 0x60 DUP5 DUP7 SUB SLT ISZERO PUSH2 0x2B86 JUMPI PUSH1 0x0 DUP1 REVERT JUMPDEST PUSH2 0x2B8F DUP5 PUSH2 0x299E JUMP JUMPDEST SWAP3 POP PUSH2 0x2B9D PUSH1 0x20 DUP6 ADD PUSH2 0x299E JUMP JUMPDEST SWAP2 POP PUSH2 0x2BAB PUSH1 0x40 DUP6 ADD PUSH2 0x299E JUMP JUMPDEST SWAP1 POP SWAP3 POP SWAP3 POP SWAP3 JUMP JUMPDEST PUSH1 0x0 DUP1 PUSH1 0x0 PUSH1 0x60 DUP5 DUP7 SUB SLT ISZERO PUSH2 0x2BC9 JUMPI PUSH1 0x0 DUP1 REVERT JUMPDEST POP POP DUP2 CALLDATALOAD SWAP4 PUSH1 0x20 DUP4 ADD CALLDATALOAD SWAP4 POP PUSH1 0x40 SWAP1 SWAP3 ADD CALLDATALOAD SWAP2 SWAP1 POP JUMP JUMPDEST PUSH1 0x0 PUSH1 0x20 DUP3 DUP5 SUB SLT ISZERO PUSH2 0x2BF2 JUMPI PUSH1 0x0 DUP1 REVERT JUMPDEST PUSH2 0x24EF DUP3 PUSH2 0x299E JUMP JUMPDEST PUSH1 0x0 DUP1 PUSH1 0x0 DUP1 PUSH1 0x80 DUP6 DUP8 SUB SLT ISZERO PUSH2 0x2C11 JUMPI PUSH1 0x0 DUP1 REVERT JUMPDEST POP POP DUP3 CALLDATALOAD SWAP5 PUSH1 0x20 DUP5 ADD CALLDATALOAD SWAP5 POP PUSH1 0x40 DUP5 ADD CALLDATALOAD SWAP4 PUSH1 0x60 ADD CALLDATALOAD SWAP3 POP SWAP1 POP JUMP JUMPDEST PUSH1 0x0 DUP1 PUSH1 0x0 DUP1 PUSH1 0x80 DUP6 DUP8 SUB SLT ISZERO PUSH2 0x2C43 JUMPI PUSH1 0x0 DUP1 REVERT JUMPDEST PUSH2 0x2C4C DUP6 PUSH2 0x299E JUMP JUMPDEST SWAP4 POP PUSH1 0x20 DUP1 DUP7 ADD CALLDATALOAD SWAP4 POP PUSH2 0x2C62 PUSH1 0x40 DUP8 ADD PUSH2 0x299E JUMP JUMPDEST SWAP3 POP PUSH1 0x60 DUP7 ADD CALLDATALOAD PUSH8 0xFFFFFFFFFFFFFFFF DUP1 DUP3 GT ISZERO PUSH2 0x2C7F JUMPI PUSH1 0x0 DUP1 REVERT JUMPDEST DUP2 DUP9 ADD SWAP2 POP DUP9 PUSH1 0x1F DUP4 ADD SLT PUSH2 0x2C93 JUMPI PUSH1 0x0 DUP1 REVERT JUMPDEST DUP2 CALLDATALOAD DUP2 DUP2 GT ISZERO PUSH2 0x2CA5 JUMPI PUSH2 0x2CA5 PUSH2 0x2A06 JUMP JUMPDEST PUSH2 0x2CB7 PUSH1 0x1F DUP3 ADD PUSH1 0x1F NOT AND DUP6 ADD PUSH2 0x2A1C JUMP JUMPDEST SWAP2 POP DUP1 DUP3 MSTORE DUP10 DUP5 DUP3 DUP6 ADD ADD GT ISZERO PUSH2 0x2CCD JUMPI PUSH1 0x0 DUP1 REVERT JUMPDEST DUP1 DUP5 DUP5 ADD DUP6 DUP5 ADD CALLDATACOPY PUSH1 0x0 DUP5 DUP3 DUP5 ADD ADD MSTORE POP DUP1 SWAP4 POP POP POP POP SWAP3 SWAP6 SWAP2 SWAP5 POP SWAP3 POP JUMP JUMPDEST DUP1 ISZERO ISZERO DUP2 EQ PUSH2 0x2CFB JUMPI PUSH1 0x0 DUP1 REVERT JUMPDEST POP JUMP JUMPDEST PUSH1 0x0 DUP1 PUSH1 0x0 DUP1 PUSH1 0x80 DUP6 DUP8 SUB SLT ISZERO PUSH2 0x2D14 JUMPI PUSH1 0x0 DUP1 REVERT JUMPDEST DUP5 CALLDATALOAD PUSH2 0x2D1F DUP2 PUSH2 0x2CED JUMP JUMPDEST SWAP4 POP PUSH1 0x20 DUP6 ADD CALLDATALOAD PUSH2 0x2D2F DUP2 PUSH2 0x2CED JUMP JUMPDEST SWAP3 POP PUSH1 0x40 DUP6 ADD CALLDATALOAD PUSH8 0xFFFFFFFFFFFFFFFF DUP1 DUP3 GT ISZERO PUSH2 0x2D4C JUMPI PUSH1 0x0 DUP1 REVERT JUMPDEST PUSH2 0x2D58 DUP9 DUP4 DUP10 ADD PUSH2 0x2A4D JUMP JUMPDEST SWAP4 POP PUSH1 0x60 DUP8 ADD CALLDATALOAD SWAP2 POP DUP1 DUP3 GT ISZERO PUSH2 0x2D6E JUMPI PUSH1 0x0 DUP1 REVERT JUMPDEST POP PUSH2 0x2D7B DUP8 DUP3 DUP9 ADD PUSH2 0x2A4D JUMP JUMPDEST SWAP2 POP POP SWAP3 SWAP6 SWAP2 SWAP5 POP SWAP3 POP JUMP JUMPDEST PUSH1 0x0 DUP1 PUSH1 0x0 PUSH1 0x60 DUP5 DUP7 SUB SLT ISZERO PUSH2 0x2D9C JUMPI PUSH1 0x0 DUP1 REVERT JUMPDEST DUP4 CALLDATALOAD PUSH2 0x2DA7 DUP2 PUSH2 0x2CED JUMP JUMPDEST SWAP3 POP PUSH1 0x20 DUP5 ADD CALLDATALOAD PUSH2 0x2B9D DUP2 PUSH2 0x2CED JUMP JUMPDEST PUSH1 0x0 DUP1 PUSH1 0x0 DUP1 PUSH1 0x80 DUP6 DUP8 SUB SLT ISZERO PUSH2 0x2DCD JUMPI PUSH1 0x0 DUP1 REVERT JUMPDEST DUP5 CALLDATALOAD SWAP4 POP PUSH1 0x20 DUP6 ADD CALLDATALOAD SWAP3 POP PUSH1 0x40 DUP6 ADD CALLDATALOAD PUSH8 0xFFFFFFFFFFFFFFFF DUP1 DUP3 GT ISZERO PUSH2 0x2D4C JUMPI PUSH1 0x0 DUP1 REVERT JUMPDEST PUSH1 0x0 DUP1 PUSH1 0x40 DUP4 DUP6 SUB SLT ISZERO PUSH2 0x2E06 JUMPI PUSH1 0x0 DUP1 REVERT JUMPDEST PUSH2 0x2E0F DUP4 PUSH2 0x299E JUMP JUMPDEST SWAP2 POP PUSH2 0x2E1D PUSH1 0x20 DUP5 ADD PUSH2 0x299E JUMP JUMPDEST SWAP1 POP SWAP3 POP SWAP3 SWAP1 POP JUMP JUMPDEST PUSH1 0x0 DUP1 PUSH1 0x0 PUSH1 0x60 DUP5 DUP7 SUB SLT ISZERO PUSH2 0x2E3B JUMPI PUSH1 0x0 DUP1 REVERT JUMPDEST DUP4 CALLDATALOAD SWAP3 POP PUSH1 0x20 DUP5 ADD CALLDATALOAD SWAP2 POP PUSH2 0x2BAB PUSH1 0x40 DUP6 ADD PUSH2 0x299E JUMP JUMPDEST PUSH1 0x1 DUP2 DUP2 SHR SWAP1 DUP3 AND DUP1 PUSH2 0x2E66 JUMPI PUSH1 0x7F DUP3 AND SWAP2 POP JUMPDEST PUSH1 0x20 DUP3 LT DUP2 EQ ISZERO PUSH2 0x2E87 JUMPI PUSH4 0x4E487B71 PUSH1 0xE0 SHL PUSH1 0x0 MSTORE PUSH1 0x22 PUSH1 0x4 MSTORE PUSH1 0x24 PUSH1 0x0 REVERT JUMPDEST POP SWAP2 SWAP1 POP JUMP JUMPDEST PUSH4 0x4E487B71 PUSH1 0xE0 SHL PUSH1 0x0 MSTORE PUSH1 0x11 PUSH1 0x4 MSTORE PUSH1 0x24 PUSH1 0x0 REVERT JUMPDEST PUSH1 0x0 DUP3 NOT DUP3 GT ISZERO PUSH2 0x2EB6 JUMPI PUSH2 0x2EB6 PUSH2 0x2E8D JUMP JUMPDEST POP ADD SWAP1 JUMP JUMPDEST PUSH4 0x4E487B71 PUSH1 0xE0 SHL PUSH1 0x0 MSTORE PUSH1 0x32 PUSH1 0x4 MSTORE PUSH1 0x24 PUSH1 0x0 REVERT JUMPDEST PUSH1 0x0 PUSH1 0x0 NOT DUP3 EQ ISZERO PUSH2 0x2EE5 JUMPI PUSH2 0x2EE5 PUSH2 0x2E8D JUMP JUMPDEST POP PUSH1 0x1 ADD SWAP1 JUMP JUMPDEST PUSH1 0x1 DUP2 DUP2 JUMPDEST DUP1 DUP6 GT ISZERO PUSH2 0x2F27 JUMPI DUP2 PUSH1 0x0 NOT DIV DUP3 GT ISZERO PUSH2 0x2F0D JUMPI PUSH2 0x2F0D PUSH2 0x2E8D JUMP JUMPDEST DUP1 DUP6 AND ISZERO PUSH2 0x2F1A JUMPI SWAP2 DUP2 MUL SWAP2 JUMPDEST SWAP4 DUP5 SHR SWAP4 SWAP1 DUP1 MUL SWAP1 PUSH2 0x2EF1 JUMP JUMPDEST POP SWAP3 POP SWAP3 SWAP1 POP JUMP JUMPDEST PUSH1 0x0 DUP3 PUSH2 0x2F3E JUMPI POP PUSH1 0x1 PUSH2 0xA6B JUMP JUMPDEST DUP2 PUSH2 0x2F4B JUMPI POP PUSH1 0x0 PUSH2 0xA6B JUMP JUMPDEST DUP2 PUSH1 0x1 DUP2 EQ PUSH2 0x2F61 JUMPI PUSH1 0x2 DUP2 EQ PUSH2 0x2F6B JUMPI PUSH2 0x2F87 JUMP JUMPDEST PUSH1 0x1 SWAP2 POP POP PUSH2 0xA6B JUMP JUMPDEST PUSH1 0xFF DUP5 GT ISZERO PUSH2 0x2F7C JUMPI PUSH2 0x2F7C PUSH2 0x2E8D JUMP JUMPDEST POP POP PUSH1 0x1 DUP3 SHL PUSH2 0xA6B JUMP JUMPDEST POP PUSH1 0x20 DUP4 LT PUSH2 0x133 DUP4 LT AND PUSH1 0x4E DUP5 LT PUSH1 0xB DUP5 LT AND OR ISZERO PUSH2 0x2FAA JUMPI POP DUP2 DUP2 EXP PUSH2 0xA6B JUMP JUMPDEST PUSH2 0x2FB4 DUP4 DUP4 PUSH2 0x2EEC JUMP JUMPDEST DUP1 PUSH1 0x0 NOT DIV DUP3 GT ISZERO PUSH2 0x2FC8 JUMPI PUSH2 0x2FC8 PUSH2 0x2E8D JUMP JUMPDEST MUL SWAP4 SWAP3 POP POP POP JUMP JUMPDEST PUSH1 0x0 PUSH2 0x24EF DUP4 DUP4 PUSH2 0x2F2F JUMP JUMPDEST PUSH1 0x0 DUP2 PUSH1 0x0 NOT DIV DUP4 GT DUP3 ISZERO ISZERO AND ISZERO PUSH2 0x2FF6 JUMPI PUSH2 0x2FF6 PUSH2 0x2E8D JUMP JUMPDEST POP MUL SWAP1 JUMP JUMPDEST PUSH1 0x0 DUP3 DUP3 LT ISZERO PUSH2 0x300D JUMPI PUSH2 0x300D PUSH2 0x2E8D JUMP JUMPDEST POP SUB SWAP1 JUMP JUMPDEST PUSH4 0x4E487B71 PUSH1 0xE0 SHL PUSH1 0x0 MSTORE PUSH1 0x12 PUSH1 0x4 MSTORE PUSH1 0x24 PUSH1 0x0 REVERT JUMPDEST PUSH1 0x0 DUP3 PUSH2 0x3037 JUMPI PUSH2 0x3037 PUSH2 0x3012 JUMP JUMPDEST POP DIV SWAP1 JUMP JUMPDEST PUSH1 0x0 PUSH2 0x24EF PUSH1 0xFF DUP5 AND DUP4 PUSH2 0x2F2F JUMP JUMPDEST PUSH4 0x4E487B71 PUSH1 0xE0 SHL PUSH1 0x0 MSTORE PUSH1 0x1 PUSH1 0x4 MSTORE PUSH1 0x24 PUSH1 0x0 REVERT JUMPDEST SWAP3 DUP4 MSTORE PUSH1 0x60 SWAP2 SWAP1 SWAP2 SHL PUSH12 0xFFFFFFFFFFFFFFFFFFFFFFFF NOT AND PUSH1 0x20 DUP4 ADD MSTORE PUSH1 0x34 DUP3 ADD MSTORE PUSH1 0x54 ADD SWAP1 JUMP JUMPDEST PUSH1 0x20 DUP1 DUP3 MSTORE PUSH1 0x2E SWAP1 DUP3 ADD MSTORE PUSH32 0x4F6C64206368616C6C656E67655F646967657374206F722077726F6E67206368 PUSH1 0x40 DUP3 ADD MSTORE PUSH14 0x185B1B195B99D957D91A59D95CDD PUSH1 0x92 SHL PUSH1 0x60 DUP3 ADD MSTORE PUSH1 0x80 ADD SWAP1 JUMP JUMPDEST PUSH1 0x20 DUP1 DUP3 MSTORE PUSH1 0x28 SWAP1 DUP3 ADD MSTORE PUSH32 0x446967657374206D75737420626520736D616C6C6572207468616E206D696E69 PUSH1 0x40 DUP3 ADD MSTORE PUSH8 0x1B99D5185C99D95D PUSH1 0xC2 SHL PUSH1 0x60 DUP3 ADD MSTORE PUSH1 0x80 ADD SWAP1 JUMP JUMPDEST PUSH1 0x20 DUP1 DUP3 MSTORE PUSH1 0x15 SWAP1 DUP3 ADD MSTORE PUSH21 0x4E6F2073616D65207365636F6E6420736F6C766573 PUSH1 0x58 SHL PUSH1 0x40 DUP3 ADD MSTORE PUSH1 0x60 ADD SWAP1 JUMP JUMPDEST PUSH1 0x0 PUSH1 0x20 DUP3 DUP5 SUB SLT ISZERO PUSH2 0x3160 JUMPI PUSH1 0x0 DUP1 REVERT JUMPDEST DUP2 MLOAD PUSH2 0x24EF DUP2 PUSH2 0x2CED JUMP JUMPDEST PUSH1 0x20 DUP1 DUP3 MSTORE PUSH1 0x3D SWAP1 DUP3 ADD MSTORE PUSH32 0x536F204D696E74546F2068617320746F20686176652073616D65206E756D6265 PUSH1 0x40 DUP3 ADD MSTORE PUSH32 0x72206F66206164647265737373657320617320457874726146756E6473000000 PUSH1 0x60 DUP3 ADD MSTORE PUSH1 0x80 ADD SWAP1 JUMP JUMPDEST PUSH1 0x0 DUP3 PUSH2 0x31D7 JUMPI PUSH2 0x31D7 PUSH2 0x3012 JUMP JUMPDEST POP MOD SWAP1 JUMP JUMPDEST PUSH1 0x0 PUSH1 0x20 DUP3 DUP5 SUB SLT ISZERO PUSH2 0x31EE JUMPI PUSH1 0x0 DUP1 REVERT JUMPDEST POP MLOAD SWAP2 SWAP1 POP JUMP INVALID 0xDD CALLCODE MSTORE 0xAD SHL 0xE2 0xC8 SWAP12 PUSH10 0xC2B068FC378DAA952BA7 CALL PUSH4 0xC4A11628 CREATE2 GAS 0x4D CREATE2 0x23 0xB3 0xEF LOG2 PUSH5 0x6970667358 0x22 SLT KECCAK256 0xAD 0xEB GT XOR SSTORE MULMOD 0xC7 0xD 0xE4 DUP14 0xA6 DELEGATECALL 0x4F 0xFC 0xEC ADDRESS 0xB2 0xB7 DUP4 PUSH21 0x1F46FA800755EAB4DBDB4CD664736F6C634300080B STOP CALLER ",
  "sha1": "e638f79b99382a259bcfa794c05ff63a01bbffdb",
  "source": "// Forge - Proof of Work Mining Contract\n// MUST REMOVE AOPENMINT\n// Distrubtion of Forge Token is as follows:\n// 25% of Forge Token is Auctioned in the ForgeAuctions Contract which distributes tokens to users who use 0xBitcoin to buy tokens in fair price. Each auction lasts ~3 days. Using the Auctions contract\n// +\n// 25% of Forge Token is distributed as Liquidiy Pool rewards in the ForgeRewards Contract which distributes tokens to users who deposit the SpiritSwap Liquidity Pool tokens into the LPRewards contract.\n// +\n// 50% of Forge Token is distributed using ForgeMining Contract(this Contract) which distributes tokens to users by using GPUs/FPGAs to solve a complicated problem to gain tokens!  Uses this contract\n//\n// = 100% Of the Token is distributed to the users! No dev fee or premine!\n//\n// All distributions happen fairly using Bitcoins model of distribution for over 100+ years, on-chain, decentralized, trustless, ownerless contracts!\n//   The harder it is mined the less tokens that are awarded.\n// Network: Polygon Chain \n// ChainID = 89\n//\n//\n// Name: Forge\n// Symbol: Frg\n// Decimals: 18 \n//\n// Total supply: 42,000,001.000000000000000000\n//   =\n// 21,000,000 Mined over 100+ years using Bitcoins Distrubtion halvings every 4 years. Uses Proof-oF-Work to distribute the tokens. Public Miner is available.  Uses this contract.\n//   +\n// 10,500,000 Auctioned over 100+ years into 4 day auctions split fairly among all buyers. ALL 0xBitcoin proceeds go into THIS contract which it fairly distributes to miners.  Uses the ForgeAuctions contract\n//   +\n// 10,500,000 tokens goes to Liquidity Providers of the token over 100+ year using Bitcoins distribution!  Helps prevent LP losses!  Uses the ForgeRewards Contract\n//\n//  =\n//\n// 42,000,001 Tokens is the max Supply\n//      \n// 66% of the 0xBitcoin Token from this contract goes to the Miner to pay for the transaction cost and if the token grows enough earn 0xBitcoin per mint!!\n// 33% of the 0xBitcoin TOken from this contract goes to the Liquidity Providers via ForgeRewards Contract.  Helps prevent Impermant Loss! Larger Liquidity!\n//\n// No premine, dev cut, or advantage taken at launch. Public miner available at launch.  100% of the token is given away fairly over 100+ years using Bitcoins model!\n//\n// Send this contract any ERC20 token and it will become instantly mineable and able to distribute using proof-of-work for 1 year!!!!\n//\n//Viva la Mineables!!! Send this contract any ERC20 complient token (Wrapped NFTs incoming!) and we will fairly to miners and Holders(\n//  Each Mint prints (1/10000) of any ERC20.\n//pThirdDifficulty allows for the difficulty to be cut in a third.  So difficulty 10,000 becomes 3,333.  Costs 333 Fantom  Makes mining 3x easier\n//* 1 tokens in LP are burned to create the LP pool.\n//\n// Credits: 0xBitcoin, Vether, Synethix\n\n\npragma solidity ^0.8.0;\n\ncontract Ownable {\n    address public owner;\n\n    event TransferOwnership(address _from, address _to);\n\n    constructor() public {\n        owner = msg.sender;\n        emit TransferOwnership(address(0), msg.sender);\n    }\n\n    modifier onlyOwner() {\n        require(msg.sender == owner, \"only owner\");\n        _;\n    }\n\n    function setOwner(address _owner) internal onlyOwner {\n        emit TransferOwnership(owner, _owner);\n        owner = _owner;\n    }\n}\n\n\n\n\nlibrary IsContract {\n    function isContract(address _addr) internal view returns (bool) {\n        bytes32 codehash;\n        /* solium-disable-next-line */\n        assembly { codehash := extcodehash(_addr) }\n        return codehash != bytes32(0) && codehash != bytes32(0xc5d2460186f7233c927e7db2dcc703c0e500b653ca82273b7bfad8045d85a470);\n    }\n}\n\n// File: contracts/utils/SafeMath.sol\n\nlibrary SafeMath2 {\n    function add(uint256 x, uint256 y) internal pure returns (uint256) {\n        uint256 z = x + y;\n        require(z >= x, \"Add overflow\");\n        return z;\n    }\n\n    function sub(uint256 x, uint256 y) internal pure returns (uint256) {\n        require(x >= y, \"Sub underflow\");\n        return x - y;\n    }\n\n    function mult(uint256 x, uint256 y) internal pure returns (uint256) {\n        if (x == 0) {\n            return 0;\n        }\n\n        uint256 z = x * y;\n        require(z / x == y, \"Mult overflow\");\n        return z;\n    }\n\n    function div(uint256 x, uint256 y) internal pure returns (uint256) {\n        require(y != 0, \"Div by zero\");\n        return x / y;\n    }\n\n    function divRound(uint256 x, uint256 y) internal pure returns (uint256) {\n        require(y != 0, \"Div by zero\");\n        uint256 r = x / y;\n        if (x % y != 0) {\n            r = r + 1;\n        }\n\n        return r;\n    }\n}\n\n// File: contracts/utils/Math.sol\n\nlibrary ExtendedMath2 {\n\n\n    //return the smaller of the two inputs (a or b)\n    function limitLessThan(uint a, uint b) internal pure returns (uint c) {\n\n        if(a > b) return b;\n\n        return a;\n\n    }\n}\n\n// File: contracts/interfaces/IERC20.sol\n\ninterface IERC20 {\n\tfunction totalSupply() external view returns (uint256);\n    event Transfer(address indexed _from, address indexed _to, uint256 _value);\n    event Approval(address indexed _owner, address indexed _spender, uint256 _value);\n    function transfer(address _to, uint _value) external returns (bool success);\n    function transferFrom(address _from, address _to, uint256 _value) external returns (bool success);\n    function allowance(address _owner, address _spender) external view returns (uint256 remaining);\n    function approve(address _spender, uint256 _value) external returns (bool success);\n    function balanceOf(address _owner) external view returns (uint256 balance);\n    \n}\n\n\n// File: contracts/commons/AddressMinHeap.sol\n\n\n\nabstract contract ApproveAndCallFallBack {\n    function receiveApproval(address from, uint256 tokens, address token, bytes memory data) virtual public;\n}\n\n\n//Main contract\n\ncontract ForgeMining is Ownable, IERC20, ApproveAndCallFallBack {\n\tuint constant public targetTime = 60 * 48;\n\tuint256 public testx;\n\tuint256 public  testnum;\n\tuint256 public testden;\n    uint256 public testxx;\n    uint256 public testxy;\n// SUPPORTING CONTRACTS\n    address public AddressAuction;\n    address public AddressLPReward;\n    address public AddressZeroXBTC;\n//Events\n    using SafeMath2 for uint256;\n    using ExtendedMath2 for uint;\n    event Mint(address indexed from, uint reward_amount, uint epochCount, bytes32 newChallengeNumber);\n    event MegaMint(address indexed from, uint epochCount, bytes32 newChallengeNumber, uint NumberOfTokensMinted);\n\n// Managment events\n    uint256 override public totalSupply = 42000001000000000000000000;\n    bytes32 private constant BALANCE_KEY = keccak256(\"balance\");\n\n    //BITCOIN INITALIZE Start\n\t\n    uint _totalSupply = 21000000000000000000000000;\n    uint public latestDifficultyPeriodStarted2 = block.timestamp;\n    uint public epochCount = 0;//number of 'blocks' mined\n\n    uint public _BLOCKS_PER_READJUSTMENT = 256;\n\n    //a little number\n    uint public  _MINIMUM_TARGET = 2**16;\n    \n    uint public  _MAXIMUM_TARGET = 2**234;\n    uint public miningTarget = _MAXIMUM_TARGET.div(200000000000*25);  //1000 million difficulty to start until i enable mining\n    \n    bytes32 public challengeNumber;   //generate a new one when a new reward is minted\n    uint public rewardEra = 0;\n    uint public maxSupplyForEra = (_totalSupply - _totalSupply.div( 2**(rewardEra + 1)));\n    uint public reward_amount = (100 * 10**uint(decimals) ).div( 2**rewardEra );\n    //Stuff for Functions\n    uint oldecount = 0;\n    uint public previousBlockTime = block.timestamp;\n    uint oneEthUnit =    1000000000000000000;\n    uint one8unit   =              100000000;\n    uint public Token2Per=           1000000;\n    uint Token2Min=                       88;\n    uint public tokensMinted;\n    mapping(address => uint) balances;\n    mapping(address => mapping(address => uint)) allowed;\n    //mapping(address => uint) Token_balances;\n    uint give0xBTC = 0;\n    uint give = 1;\n    // metadata\n    string public name = \"Forge\";\n    string public constant symbol = \"Forge\";\n    uint8 public constant decimals = 18;\n    uint public totalLifetimes = 0;\n\n    uint256 lastrun = block.timestamp;\n    uint public latestDifficultyPeriodStarted = block.number;\n    bool inited = false;\n    function zinit(address AuctionAddress2, address LPGuild2, address _ZeroXBTCAddress) public onlyOwner{\n        uint x = 21000000000000000000000000 / (2* (2 ** totalLifetimes)); //half supply for LP Mine and Burn\n        // Only init once\n        assert(!inited);\n        inited = true;\n\t\n    \trewardEra = 0;\n\ttokensMinted = 0;\n    \tminingTarget = _MAXIMUM_TARGET.div(30005); //5000000 = 31gh/s @ 7 min for FPGA mining\n        latestDifficultyPeriodStarted2 = block.timestamp;\n    \t_startNewMiningEpoch();\n\t\n        // Init contract variables and mint\n        balances[AuctionAddress2] = x;\n\t\n        emit Transfer(address(0), AuctionAddress2, x);\n\t\n    \tAddressAuction = AuctionAddress2;\n        AddressLPReward = payable(LPGuild2);\n        AddressZeroXBTC = _ZeroXBTCAddress;\n\t\n        oldecount = epochCount;\n\t\n        // mint 1 token to setup LPs\n        balances[msg.sender] = 1000000000000000000;\n\t\n        emit Transfer(address(0), msg.sender, 1000000000000000000);\n     \n    }\n\n\n\n\t///\n\t// Managment\n\t///\n\t//MUST REMOVE MUST REMOVE\n\n\n\tfunction zinit2(address AuctionAddress2, address LPGuild2, address _ZeroXBTCAddress) public onlyOwner{\n\n\t\t\tAddressAuction = AuctionAddress2;\n\t\t\tAddressLPReward = payable(LPGuild2);\n\t\t\tAddressZeroXBTC = _ZeroXBTCAddress;\n\n\t\t}\n\n\n\tfunction AOpenMint(bool nonce, bool challenge_digest, address mintTo) public returns (uint256 success) {\n\n\n\t\t_startNewMiningEpoch();\n\n\t\trequire(block.timestamp > previousBlockTime, \"No same second solves\");\n\n\t\t//uint diff = block.timestamp - previousBlockTime;\n\t\tuint256 x = ((block.timestamp - previousBlockTime) * 888) / targetTime;\n\t\tuint ratio = x * 100 / 888;\n\t\tuint totalOwed = 0;\n\t\tif(ratio < 314){\n\t\t\ttotalOwed = (61001200 * (x ** 2 )).div(888 ** 2)+ (40861500 * x).div(888);\n\t\t}else {\n\t\t\ttotalOwed = (x * 100000000).div(888) + (3500000000);\n\t\t} \n\n\n\t\tbalances[mintTo] = balances[mintTo].add((reward_amount * totalOwed).div(100000000));\n\t\tbalances[AddressLPReward] = balances[AddressLPReward].add((reward_amount * totalOwed).div(100000000 * 2));\n\t\ttokensMinted = tokensMinted.add((reward_amount * totalOwed).div(100000000));\n\t\tpreviousBlockTime = block.timestamp;\n\n\t\tif(give0xBTC > 0){\n\t\t\tif(ratio < 200){\n\t\t\t\tIERC20(AddressZeroXBTC).transfer(mintTo, (totalOwed * Token2Per * give0xBTC).div(100000000));\n\t\t\t}else{\n\t\t\t\tIERC20(AddressZeroXBTC).transfer(mintTo, (23 * Token2Per * give0xBTC).div(10));\n\t\t\t}\n\t\t}\n\n\t\temit Mint(msg.sender, (reward_amount * totalOwed).div(100000000), epochCount, challengeNumber );\n\n\t\treturn totalOwed;\n\n    }\n\tfunction ARewardSender() public {\n\t\t//runs every _BLOCKS_PER_READJUSTMENT / 4\n\n\t\tuint256 runs = block.timestamp - lastrun;\n\n\t\tuint256 epochsPast = epochCount - oldecount; //actually epoch\n\t\tuint256 runsperepoch = runs / epochsPast;\n\n\t\treward_amount = (100 * 10**uint(decimals)).div( 2**rewardEra );\n\t\tuint256 x = (runsperepoch * 888).divRound(targetTime);\n        \ttestxx = x;\n\t\tuint256 ratio = x * 100 / 888;\n\t\tuint256 totalOwed;\n\t\t if(ratio < 200){\n\t\t\ttotalOwed = (61001200 * (x ** 2 )).div(888**2) + (40861500 * x).div(888) ;\n\t\t }else {\n\t\t\ttotalOwed = (230000000);\n\t\t} \n        \ttestxy = ((epochsPast) * totalOwed * Token2Per * give0xBTC).div(2 * 100000000);\n\t\tif(IERC20(AddressZeroXBTC).balanceOf(address(this)) > (30 * 2 * (Token2Per * _BLOCKS_PER_READJUSTMENT)/4)) // at least enough blocks to rerun this function for both LPRewards and Users\n\t\t{\n\t\t\tIERC20(AddressZeroXBTC).transfer(AddressLPReward, ((epochsPast) * totalOwed * Token2Per * give0xBTC).div(2 * 100000000));\n\t\t\tgive0xBTC = 1 * give;\n\t\t}\n\t\telse{\n\t\t\tgive0xBTC = 0;\n\t\t}\n\t\toldecount = epochCount; //actually epoch\n\n\t\tlastrun = block.timestamp;\n\t}\n\n\n\t//Mints to the payee Forge, 0xBitcoin always to the sender. Making it the heaviest currency in here.\n\t//\n\t//function mint(bool nonce, bool challenge_digest) public returns (bool success) {\n\tfunction mint(uint256 nonce, bytes32 challenge_digest) public returns (bool success) {\n\t\tmintTo(nonce, challenge_digest, msg.sender);\n\t}\n\n\n\t//function mintTo(bool nonce, bool challenge_digest,  address mintTo) public returns (bool success) {\n\tfunction mintTo(uint256 nonce, bytes32 challenge_digest,  address mintTo) public returns (uint256 owed) {\n\n\t\tbytes32 digest =  keccak256(abi.encodePacked(challengeNumber, msg.sender, nonce));\n\n\t\t//the challenge digest must match the expected\n\t\trequire(digest == challenge_digest, \"Old challenge_digest or wrong challenge_digest\");\n\n\t\t//the digest must be smaller than the target\n\t\trequire(uint256(digest) < miningTarget, \"Digest must be smaller than miningTarget\");\n\t\t_startNewMiningEpoch();\n\n\t\trequire(block.timestamp > previousBlockTime, \"No same second solves\");\n\n\t\t//uint diff = block.timestamp - previousBlockTime;\n\t\tuint256 x = ((block.timestamp - previousBlockTime) * 888) / targetTime;\n\t\tuint ratio = x * 100 / 888;\n\t\tuint totalOwed = 0;\n\t\tif(ratio < 314){\n\t\t\ttotalOwed = (61001200 * (x ** 2 )).div(888 ** 2)+ (40861500 * x).div(888);\n\t\t}else {\n\t\t\ttotalOwed = (x * 100000000).div(888) + (350000000);\n\t\t} \n\n\n\t\tbalances[mintTo] = balances[mintTo].add((reward_amount * totalOwed).div(100000000));\n\t\tbalances[AddressLPReward] = balances[AddressLPReward].add((reward_amount * totalOwed).div(100000000 * 2));\n\t\t\t\t\n\t\ttokensMinted = tokensMinted.add((reward_amount * totalOwed).div(100000000));\n\t\tpreviousBlockTime = block.timestamp;\n\n\t\tif(give0xBTC > 0){\n\t\t\tif(ratio < 200){\n\t\t\t\tIERC20(AddressZeroXBTC).transfer(mintTo, (totalOwed * Token2Per * give0xBTC).div(100000000));\n\t\t\t}else{\n\t\t\t\tIERC20(AddressZeroXBTC).transfer(mintTo, (23 * Token2Per * give0xBTC).div(10));\n\t\t\t}\n\t\t}\n\n\t\temit Mint(msg.sender, (reward_amount * totalOwed).div(100000000), epochCount, challengeNumber );\n\n\t\treturn totalOwed;\n\n\t}\n\n\n\t//First address for mintSend(Forge + 0xBitcoin), Second address+ for other tokens\n\t// REPALCE WITH LINE BELOW in production\n\t//function mintTokensArrayTo(bool nonce, bool challenge_digest, address[] memory ExtraFunds, address[] memory MintTo) public returns (bool success) {\n\t//testnet function MUSAT REMOVE\n\n\tfunction mintTokensArrayToOPENMUSTERASE(bool nonce, bool challenge_digest, address[] memory ExtraFunds, address[] memory MintTo) public returns (uint256 owed) {\n\n\t\trequire(MintTo.length == ExtraFunds.length + 1,\"So MintTo has to have same number of addressses as ExtraFunds\");\n\t\tuint xy=0;\n\t\tfor(xy = 0; xy< ExtraFunds.length; xy++)\n\t\t{\n\t\t\tif(epochCount % (2**(xy+1)) != 0){\n\t\t\t\tbreak;\n\t\t\t}\n\t\t\trequire(ExtraFunds[xy] != address(this) && ExtraFunds[xy] != AddressZeroXBTC, \"No base printing of tokens\");\n\t\t\tfor(uint y=xy+1; y< ExtraFunds.length; y++){\n\t\t\t\trequire(ExtraFunds[y] != ExtraFunds[xy], \"No printing The same tokens\");\n\t\t\t}\n\t\t}\n\t\t\n\t\tuint256 totalIN = AOpenMint(nonce,challenge_digest, MintTo[0]);\n\t\trequire(totalIN > 0, \"mint issue\");\n\t\tuint256 totalOwed;\n\t\tuint256 TotalOwned;\n\t\tfor(uint x=0; x<xy; x++)\n\t\t{\n\t\t\t//epoch count must evenly dividable by 2^n in order to get extra mints. \n\t\t\t//ex. epoch 2 = 1 extramint, epoch 4 = 2 extra, epoch 8 = 3 extra mints, epoch 16 = 4 extra mints w/ a divRound for the 4th mint(allows small balance token minting aka NFTs)\n\t\t\tif(epochCount % (2**(x+1)) == 0){\n\t\t\t\tTotalOwned = IERC20(ExtraFunds[x]).balanceOf(address(this));\n\t\t\t\tif(TotalOwned != 0){\n\t\t\t\t\tif( x % 3 == 0 && x != 0){\n\t\t\t\t\t\ttotalOwed = (TotalOwned * totalIN).divRound(100000000 * 2500);\n\t\t\t\t\t}else{\n\t\t\t\t\t\ttotalOwed = (TotalOwned * totalIN).div(100000000 * 2500 );\n\t\t\t\t    }\n\t\t\t    IERC20(ExtraFunds[x]).transfer(MintTo[x], totalOwed);\n\t\t\t    }\n            \t\t}\n        \t}\n\n\t\temit MegaMint(msg.sender, epochCount, challengeNumber, xy );\n\n\t\treturn totalOwed;\n\n    \t}\n    \n    \n\tfunction mintTokensArrayTo(uint256 nonce, bytes32 challenge_digest, address[] memory ExtraFunds, address[] memory MintTo) public returns (uint256 owed) {\n\n\t\t\n\n\t\trequire(MintTo.length == ExtraFunds.length + 1,\"So MintTo has to have same number of addressses as ExtraFunds\");\n\t\tuint xy=0;\n\t\tfor(xy = 0; xy< ExtraFunds.length; xy++)\n\t\t{\n\t\t\tif(epochCount % (2**(xy+1)) != 0){\n\t\t\t\tbreak;\n\t\t\t}\n\t\t\trequire(ExtraFunds[xy] != address(this) && ExtraFunds[xy] != AddressZeroXBTC, \"No base printing of tokens\");\n\t\t\tfor(uint y=xy+1; y< ExtraFunds.length; y++){\n\t\t\t\trequire(ExtraFunds[y] != ExtraFunds[xy], \"No printing The same tokens\");\n\t\t\t}\n\t\t}\n\t\t\n\t\tuint256 totalOd = mintTo(nonce,challenge_digest, MintTo[0]);\n\t\trequire(totalOd > 0, \"mint issue\");\n\t\tuint256 totalOwed;\n\t\tuint256 TotalOwned;\n\t\tfor(uint x=0; x<xy; x++)\n\t\t{\n\t\t\t//epoch count must evenly dividable by 2^n in order to get extra mints. \n\t\t\t//ex. epoch 2 = 1 extramint, epoch 4 = 2 extra, epoch 8 = 3 extra mints, epoch 16 = 4 extra mints w/ a divRound for the 4th mint(allows small balance token minting aka NFTs)\n\t\t\tif(epochCount % (2**(x+1)) == 0){\n\t\t\t\tTotalOwned = IERC20(ExtraFunds[x]).balanceOf(address(this));\n\t\t\t\tif(TotalOwned != 0){\n\t\t\t\t\tif( x % 3 == 0 && x != 0){\n\t\t\t\t\t\ttotalOwed = (TotalOwned * totalOd).divRound(100000000 * 2500);\n\t\t\t\t\t}else{\n\t\t\t\t\t\ttotalOwed = (TotalOwned * totalOd).div(100000000 * 2500 );\n\t\t\t\t\t}\n\t\t\t\t}\n\t\t\t    IERC20(ExtraFunds[x]).transfer(MintTo[x], totalOwed);\n\t\t\t}\n        }\n        \t\n\t\temit MegaMint(msg.sender, epochCount, challengeNumber, xy );\n\n\t\treturn totalOd;\n\n    }\n\n\n\tfunction mintTokensSameAddress(uint256 nonce, bytes32 challenge_digest, address[] memory ExtraFunds, address MintTo) public returns (bool success) {\n\t\taddress[] memory dd = new address[](ExtraFunds.length + 1); \n\n\t\tfor(uint x=0; x< (ExtraFunds.length + 1); x++)\n\t\t{\n\t\t\tdd[x] = MintTo;\n\t\t}\n\t\t\n\t\tmintTokensArrayTo(nonce, challenge_digest, ExtraFunds, dd);\n\n\t\treturn true;\n\t}\n\n\n\tfunction empty_mintTo(uint256 nonce, bytes32 challenge_digest) public returns (uint256 owed) {\n\n\t\tbytes32 digest =  keccak256(abi.encodePacked(challengeNumber, msg.sender, nonce));\n\n\t\t//the challenge digest must match the expected\n\t\trequire(digest == challenge_digest, \"Old challenge_digest or wrong challenge_digest\");\n\n\t\t//the digest must be smaller than the target\n\t\trequire(uint256(digest) < miningTarget, \"Digest must be smaller than miningTarget\");\n\t\t_startNewMiningEpoch();\n\n\t\trequire(block.timestamp > previousBlockTime, \"No same second solves\");\n\n\t\tpreviousBlockTime = block.timestamp;\n\n\n\t\temit Mint(msg.sender, 0, epochCount, challengeNumber );\n\n\t\treturn 0;\n\t\t\t   \n\t}\n\n\n\tfunction test(\tuint256 _testx,\tuint256 _testthisblk, uint256 _testlastblk ) public {\n\n\t\tuint256 x = ((_testthisblk - _testlastblk) * 888) / targetTime;\n\t\ttestden = x;\n\t\tuint ratio = x * 100 / 888;\n\t\tuint totalOwed = 0;\n\t\t\n\t\tif(ratio < 314){\n\t\t\ttotalOwed = (( 61001200 * (x ** 2 )).div(888 ** 2)+ (40861500 * x).div(888) -  291036);\n\t\t}else {\n\t\t\ttotalOwed = (x * 100000000).div(888) + (350000000);\n\t\t} \n\t\ttestx = totalOwed;\t\n\t}\n\n\n\tfunction _startNewMiningEpoch() internal {\n\n\n\t\t//if max supply for the era will be exceeded next reward round then enter the new era before that happens\n\n\t\t//40 is the final reward era, almost all tokens minted\n\t\t//once the final era is reached, more tokens will not be given out because the assert function\n\t\tif( tokensMinted > maxSupplyForEra && rewardEra < 39)\n\t\t{\n\t\t\trewardEra = rewardEra + 1;\n\t\t\tminingTarget = miningTarget.mult(2 ** rewardEra);\n\t\t}\n\n\t\t//set the next minted supply at which the era will change\n\t\t// total supply of MINED tokens is 21000000000000000000000000  because of 16 decimal places\n\n\t\tepochCount = epochCount.add(1);\n\n\t\t//every so often, readjust difficulty. Dont readjust when deploying\n\t\tif((epochCount) % (_BLOCKS_PER_READJUSTMENT / 4) == 0)\n\t\t{\n\t\t\tARewardSender();\n\t\t\tmaxSupplyForEra = _totalSupply - _totalSupply.div( 2**(rewardEra + 1));\n\n\t\t\tif((epochCount % _BLOCKS_PER_READJUSTMENT== 0))\n\t\t\t{\n\t\t\t\tif(( IERC20(AddressZeroXBTC).balanceOf(address(this)) / Token2Per) <= 20000) //chosen to give keep 250 days payouts in reserve at current payout\n\t\t\t\t{\n\t\t\t\t\tif(Token2Per.div(2) > Token2Min)\n\t\t\t\t\t{\n\t\t\t\t\t\tToken2Per = Token2Per.div(2);\n\t\t\t\t\t}\n\t\t\t\t}else{\n\t\t\t\t\tToken2Per = Token2Per.mult(3);\n\t\t\t\t}\n\t\t\t\t_reAdjustDifficulty();\n\t\t\t}\n\t\t}\n\n\t\tchallengeNumber = blockhash(block.number - 1);\n\t}\n\n\n\tfunction _reAdjustDifficulty() internal {\n\t\tuint256 blktimestamp = block.timestamp;\n\t\tuint ethBlocksSinceLastDifficultyPeriod2 = blktimestamp - latestDifficultyPeriodStarted2;\n\n\t\tuint adjusDiffTargetTime = targetTime *  _BLOCKS_PER_READJUSTMENT; //36 min per block 60 sec * 12\n\n\t\t//if there were less eth blocks passed in time than expected\n\t\tif( ethBlocksSinceLastDifficultyPeriod2 < adjusDiffTargetTime )\n\t\t{\n\t\t\tuint excess_block_pct = (adjusDiffTargetTime.mult(100)).div( ethBlocksSinceLastDifficultyPeriod2 );\n\t\t\tgive = 1;\n\t\t\tuint excess_block_pct_extra = excess_block_pct.sub(100).limitLessThan(1000);\n\t\t\t//make it harder \n\t\t\tminingTarget = miningTarget.sub(miningTarget.div(2000).mult(excess_block_pct_extra));   //by up to 50 %\n\t\t}else{\n\t\t\tuint shortage_block_pct = (ethBlocksSinceLastDifficultyPeriod2.mult(100)).div( adjusDiffTargetTime );\n\t\t\tgive = 2;\n\t\t\tuint shortage_block_pct_extra = shortage_block_pct.sub(100).limitLessThan(1000); //always between 0 and 1000\n\t\t\t//make it easier\n\t\t\tminingTarget = miningTarget.add(miningTarget.div(1000).mult(shortage_block_pct_extra));   //by up to 100 %\n\t\t}\n\n\t\tlatestDifficultyPeriodStarted2 = blktimestamp;\n\t\tlatestDifficultyPeriodStarted = block.number;\n\t\tif(miningTarget < _MINIMUM_TARGET) //very difficult\n\t\t{\n\t\t\tminingTarget = _MINIMUM_TARGET;\n\t\t}\n\t\tif(miningTarget > _MAXIMUM_TARGET) //very easy\n\t\t{\n\t\t\tminingTarget = _MAXIMUM_TARGET;\n\t\t}\n\t\t\n\t}\n\n\n\t\t//42 m coins total\n\t\t// = \n\t\t//21 million proof of work\n\t\t// + \n\t\t//10.5 million proof of burn\n\t\t// +\n\t\t//10.5 million rewards for Liquidity Providers\n\n\n\t//help debug mining software\n\tfunction checkMintSolution(uint256 nonce, bytes32 challenge_digest, bytes32 challenge_number, uint testTarget) public view returns (bool success) {\n\t\tbytes32 digest = bytes32(keccak256(abi.encodePacked(challenge_number,msg.sender,nonce)));\n\t\tif(uint256(digest) > testTarget) revert();\n\n\t\treturn (digest == challenge_digest);\n\t}\n\n\n\t//this is a recent ethereum block hash, used to prevent pre-mining future blocks\n\tfunction getChallengeNumber() public view returns (bytes32) {\n\n\t\treturn challengeNumber;\n\n\t}\n\n\n\t//the number of zeroes the digest of the PoW solution requires.  Auto adjusts\n\tfunction getMiningDifficulty() public view returns (uint) {\n\n\t\treturn _MAXIMUM_TARGET.div(miningTarget);\n\t}\n\n\n\tfunction getMiningTarget() public view returns (uint) {\n\n\t\treturn miningTarget;\n\n\t}\n\n\n\tfunction getMiningMinted() public view returns (uint) {\n\n\t\treturn tokensMinted;\n\n\t}\n\n\n\t//21m coins total\n\t//reward begins at 150 and is cut in half every reward era (as tokens are mined)\n\tfunction getMiningReward() public view returns (uint) {\n\t\t//once we get half way thru the coins, only get 25 per block\n\t\t//every reward era, the reward amount halves.\n\n\t\treturn (100 * 10**uint(decimals) ).div( 2**rewardEra ) ;\n\n\t\t}\n\n\n\tfunction getEpoch() public view returns (uint) {\n\n\t\treturn epochCount ;\n\n\t}\n\n\n\t//help debug mining software\n\tfunction getMintDigest(uint256 nonce, bytes32 challenge_digest, bytes32 challenge_number) public view returns (bytes32 digesttest) {\n\n\t\tbytes32 digest =  keccak256(abi.encodePacked(challengeNumber, msg.sender, nonce));\n\n\t\treturn digest;\n\n\t}\n\n\n\t\t// ------------------------------------------------------------------------\n\n\t\t// Get the token balance for account `tokenOwner`\n\n\t\t// ------------------------------------------------------------------------\n\n\tfunction balanceOf(address tokenOwner) public override view returns (uint balance) {\n\n\t\treturn balances[tokenOwner];\n\n\t}\n\n\n\t\t// ------------------------------------------------------------------------\n\n\t\t// Transfer the balance from token owner's account to `to` account\n\n\t\t// - Owner's account must have sufficient balance to transfer\n\n\t\t// - 0 value transfers are allowed\n\n\t\t// ------------------------------------------------------------------------\n\n\n\tfunction transfer(address to, uint tokens) public override returns (bool success) {\n\n\t\tbalances[msg.sender] = balances[msg.sender].sub(tokens);\n\t\tbalances[to] = balances[to].add(tokens);\n\n\t\temit Transfer(msg.sender, to, tokens);\n\n\t\treturn true;\n\n\t}\n\n\n\t\t// ------------------------------------------------------------------------\n\n\t\t// Token owner can approve for `spender` to transferFrom(...) `tokens`\n\n\t\t// from the token owner's account\n\n\t\t//\n\n\t\t// https://github.com/ethereum/EIPs/blob/master/EIPS/eip-20-token-standard.md\n\n\t\t// recommends that there are no checks for the approval double-spend attack\n\n\t\t// as this should be implemented in user interfaces\n\n\t\t// ------------------------------------------------------------------------\n\n\n\tfunction approve(address spender, uint tokens) public override returns (bool success) {\n\n\t\tallowed[msg.sender][spender] = tokens;\n\n\t\temit Approval(msg.sender, spender, tokens);\n\n\t\treturn true;\n\n\t}\n\n\n\t\t// ------------------------------------------------------------------------\n\n\t\t// Transfer `tokens` from the `from` account to the `to` account\n\n\t\t//\n\n\t\t// The calling account must already have sufficient tokens approve(...)-d\n\n\t\t// for spending from the `from` account and\n\n\t\t// - From account must have sufficient balance to transfer\n\n\t\t// - Spender must have sufficient allowance to transfer\n\n\t\t// - 0 value transfers are allowed\n\n\t\t// ------------------------------------------------------------------------\n\n\n\tfunction transferFrom(address from, address to, uint tokens) public override returns (bool success) {\n\n\t\tbalances[from] = balances[from].sub(tokens);\n\t\tallowed[from][msg.sender] = allowed[from][msg.sender].sub(tokens);\n\t\tbalances[to] = balances[to].add(tokens);\n\n\t\temit Transfer(from, to, tokens);\n\n\t\treturn true;\n\n\t}\n\n\n\t\t// ------------------------------------------------------------------------\n\n\t\t// Returns the amount of tokens approved by the owner that can be\n\n\t\t// transferred to the spender's account\n\n\t\t// ------------------------------------------------------------------------\n\n\n\tfunction allowance(address tokenOwner, address spender) public override view returns (uint remaining) {\n\n\t\treturn allowed[tokenOwner][spender];\n\n\t}\n\n\n\t\t// ------------------------------------------------------------------------\n\n\t\t// Token owner can approve for `spender` to transferFrom(...) `tokens`\n\n\t\t// from the token owner's account. The `spender` contract function\n\n\t\t// `receiveApproval(...)` is then executed\n\n\t\t// ------------------------------------------------------------------------\n\n\n\tfunction receiveApproval(address from, uint256 tokens, address token, bytes memory data) public override{\n\n\t\trequire(token == address(this));\n\t\tIERC20(address(this)).transfer(from, tokens);  \n\t}\n\n\n\t  //Do not allow ETH to enter\n\treceive() external payable {\n\n\t\trevert();\n\t}\n\n\n\tfallback() external payable {\n\n\t\trevert();\n\t}\n\n\n}\n",
  "sourcePath": "contracts/ProofOfWork.sol",
  "type": "contract"
}