{
  "abi": [
    {
      "inputs": [],
      "stateMutability": "nonpayable",
      "type": "constructor"
    },
    {
      "anonymous": false,
      "inputs": [
        {
          "indexed": true,
          "internalType": "address",
          "name": "owner",
          "type": "address"
        },
        {
          "indexed": true,
          "internalType": "address",
          "name": "spender",
          "type": "address"
        },
        {
          "indexed": false,
          "internalType": "uint256",
          "name": "value",
          "type": "uint256"
        }
      ],
      "name": "Approval",
      "type": "event"
    },
    {
      "anonymous": false,
      "inputs": [
        {
          "indexed": true,
          "internalType": "address",
          "name": "previousOwner",
          "type": "address"
        },
        {
          "indexed": true,
          "internalType": "address",
          "name": "newOwner",
          "type": "address"
        }
      ],
      "name": "OwnershipTransferred",
      "type": "event"
    },
    {
      "anonymous": false,
      "inputs": [
        {
          "indexed": true,
          "internalType": "address",
          "name": "from",
          "type": "address"
        },
        {
          "indexed": true,
          "internalType": "address",
          "name": "to",
          "type": "address"
        },
        {
          "indexed": false,
          "internalType": "uint256",
          "name": "value",
          "type": "uint256"
        }
      ],
      "name": "Transfer",
      "type": "event"
    },
    {
      "inputs": [
        {
          "internalType": "uint256",
          "name": "TokenID",
          "type": "uint256"
        }
      ],
      "name": "Admin_Depsoit",
      "outputs": [],
      "stateMutability": "nonpayable",
      "type": "function"
    },
    {
      "inputs": [
        {
          "internalType": "uint256",
          "name": "startTokenID",
          "type": "uint256"
        },
        {
          "internalType": "uint256",
          "name": "totalIDs",
          "type": "uint256"
        }
      ],
      "name": "Admin_Depsoit_Multi",
      "outputs": [],
      "stateMutability": "nonpayable",
      "type": "function"
    },
    {
      "inputs": [
        {
          "internalType": "address",
          "name": "NFT",
          "type": "address"
        },
        {
          "internalType": "uint256",
          "name": "startTokenID",
          "type": "uint256"
        },
        {
          "internalType": "uint256",
          "name": "totalIDs",
          "type": "uint256"
        }
      ],
      "name": "Admin_TokenAddress",
      "outputs": [],
      "stateMutability": "nonpayable",
      "type": "function"
    },
    {
      "inputs": [
        {
          "internalType": "uint256",
          "name": "TokenID",
          "type": "uint256"
        }
      ],
      "name": "Admin_Withdrawl",
      "outputs": [],
      "stateMutability": "nonpayable",
      "type": "function"
    },
    {
      "inputs": [
        {
          "internalType": "uint256",
          "name": "",
          "type": "uint256"
        }
      ],
      "name": "AuctionEnd",
      "outputs": [
        {
          "internalType": "uint256",
          "name": "",
          "type": "uint256"
        }
      ],
      "stateMutability": "view",
      "type": "function"
    },
    {
      "inputs": [],
      "name": "AuctionEndsAt",
      "outputs": [
        {
          "internalType": "uint256",
          "name": "endTime",
          "type": "uint256"
        }
      ],
      "stateMutability": "view",
      "type": "function"
    },
    {
      "inputs": [
        {
          "internalType": "address",
          "name": "didTheyWin",
          "type": "address"
        }
      ],
      "name": "AuctionWon",
      "outputs": [
        {
          "internalType": "int256",
          "name": "auctionWon",
          "type": "int256"
        }
      ],
      "stateMutability": "view",
      "type": "function"
    },
    {
      "inputs": [],
      "name": "TokenAboveAddress",
      "outputs": [
        {
          "internalType": "address",
          "name": "",
          "type": "address"
        }
      ],
      "stateMutability": "view",
      "type": "function"
    },
    {
      "inputs": [],
      "name": "TokenAddress",
      "outputs": [
        {
          "internalType": "address",
          "name": "",
          "type": "address"
        }
      ],
      "stateMutability": "view",
      "type": "function"
    },
    {
      "inputs": [
        {
          "internalType": "address",
          "name": "newModerator",
          "type": "address"
        },
        {
          "internalType": "uint256",
          "name": "spot",
          "type": "uint256"
        }
      ],
      "name": "Z_addMod",
      "outputs": [],
      "stateMutability": "nonpayable",
      "type": "function"
    },
    {
      "inputs": [
        {
          "internalType": "address",
          "name": "newOwner",
          "type": "address"
        }
      ],
      "name": "Z_transferOwnership",
      "outputs": [],
      "stateMutability": "nonpayable",
      "type": "function"
    },
    {
      "inputs": [],
      "name": "_decimals",
      "outputs": [
        {
          "internalType": "uint8",
          "name": "",
          "type": "uint8"
        }
      ],
      "stateMutability": "view",
      "type": "function"
    },
    {
      "inputs": [
        {
          "internalType": "address",
          "name": "owner",
          "type": "address"
        },
        {
          "internalType": "address",
          "name": "spender",
          "type": "address"
        }
      ],
      "name": "allowance",
      "outputs": [
        {
          "internalType": "uint256",
          "name": "",
          "type": "uint256"
        }
      ],
      "stateMutability": "view",
      "type": "function"
    },
    {
      "inputs": [
        {
          "internalType": "address",
          "name": "spender",
          "type": "address"
        },
        {
          "internalType": "uint256",
          "name": "amount",
          "type": "uint256"
        }
      ],
      "name": "approve",
      "outputs": [
        {
          "internalType": "bool",
          "name": "",
          "type": "bool"
        }
      ],
      "stateMutability": "nonpayable",
      "type": "function"
    },
    {
      "inputs": [
        {
          "internalType": "uint256",
          "name": "",
          "type": "uint256"
        }
      ],
      "name": "arrayNFTSymbols",
      "outputs": [
        {
          "internalType": "uint256",
          "name": "",
          "type": "uint256"
        }
      ],
      "stateMutability": "view",
      "type": "function"
    },
    {
      "inputs": [
        {
          "internalType": "uint256",
          "name": "",
          "type": "uint256"
        }
      ],
      "name": "arraySoldNFTs",
      "outputs": [
        {
          "internalType": "uint256",
          "name": "",
          "type": "uint256"
        }
      ],
      "stateMutability": "view",
      "type": "function"
    },
    {
      "inputs": [],
      "name": "aucLength",
      "outputs": [
        {
          "internalType": "uint256",
          "name": "",
          "type": "uint256"
        }
      ],
      "stateMutability": "view",
      "type": "function"
    },
    {
      "inputs": [],
      "name": "aucNum",
      "outputs": [
        {
          "internalType": "uint256",
          "name": "",
          "type": "uint256"
        }
      ],
      "stateMutability": "view",
      "type": "function"
    },
    {
      "inputs": [
        {
          "internalType": "address",
          "name": "account",
          "type": "address"
        }
      ],
      "name": "balanceOf",
      "outputs": [
        {
          "internalType": "uint256",
          "name": "",
          "type": "uint256"
        }
      ],
      "stateMutability": "view",
      "type": "function"
    },
    {
      "inputs": [
        {
          "internalType": "address",
          "name": "bidForWhom",
          "type": "address"
        }
      ],
      "name": "bid",
      "outputs": [
        {
          "internalType": "bool",
          "name": "success",
          "type": "bool"
        }
      ],
      "stateMutability": "payable",
      "type": "function"
    },
    {
      "inputs": [
        {
          "internalType": "address",
          "name": "bidForWhom",
          "type": "address"
        },
        {
          "internalType": "uint256",
          "name": "value",
          "type": "uint256"
        }
      ],
      "name": "bidERC20",
      "outputs": [
        {
          "internalType": "bool",
          "name": "success",
          "type": "bool"
        }
      ],
      "stateMutability": "nonpayable",
      "type": "function"
    },
    {
      "inputs": [],
      "name": "buyForERC",
      "outputs": [],
      "stateMutability": "nonpayable",
      "type": "function"
    },
    {
      "inputs": [],
      "name": "buyoutNum",
      "outputs": [
        {
          "internalType": "uint256",
          "name": "",
          "type": "uint256"
        }
      ],
      "stateMutability": "view",
      "type": "function"
    },
    {
      "inputs": [],
      "name": "currentAuctionBid",
      "outputs": [
        {
          "internalType": "uint256",
          "name": "number",
          "type": "uint256"
        }
      ],
      "stateMutability": "view",
      "type": "function"
    },
    {
      "inputs": [],
      "name": "currentAuctionTopBidAddress",
      "outputs": [
        {
          "internalType": "address",
          "name": "user",
          "type": "address"
        }
      ],
      "stateMutability": "view",
      "type": "function"
    },
    {
      "inputs": [
        {
          "internalType": "uint256",
          "name": "",
          "type": "uint256"
        }
      ],
      "name": "currentBid",
      "outputs": [
        {
          "internalType": "uint256",
          "name": "",
          "type": "uint256"
        }
      ],
      "stateMutability": "view",
      "type": "function"
    },
    {
      "inputs": [],
      "name": "decimals",
      "outputs": [
        {
          "internalType": "uint8",
          "name": "",
          "type": "uint8"
        }
      ],
      "stateMutability": "view",
      "type": "function"
    },
    {
      "inputs": [
        {
          "internalType": "address",
          "name": "spender",
          "type": "address"
        },
        {
          "internalType": "uint256",
          "name": "subtractedValue",
          "type": "uint256"
        }
      ],
      "name": "decreaseAllowance",
      "outputs": [
        {
          "internalType": "bool",
          "name": "",
          "type": "bool"
        }
      ],
      "stateMutability": "nonpayable",
      "type": "function"
    },
    {
      "inputs": [
        {
          "internalType": "uint256",
          "name": "amount",
          "type": "uint256"
        }
      ],
      "name": "dispenseAuction",
      "outputs": [],
      "stateMutability": "nonpayable",
      "type": "function"
    },
    {
      "inputs": [
        {
          "internalType": "uint256",
          "name": "amount",
          "type": "uint256"
        }
      ],
      "name": "estimator",
      "outputs": [
        {
          "internalType": "uint256",
          "name": "amt",
          "type": "uint256"
        }
      ],
      "stateMutability": "view",
      "type": "function"
    },
    {
      "inputs": [
        {
          "internalType": "uint256",
          "name": "amount",
          "type": "uint256"
        },
        {
          "internalType": "uint256[]",
          "name": "aucNumbers",
          "type": "uint256[]"
        }
      ],
      "name": "getAuctionTotals",
      "outputs": [
        {
          "internalType": "uint256",
          "name": "total",
          "type": "uint256"
        }
      ],
      "stateMutability": "view",
      "type": "function"
    },
    {
      "inputs": [
        {
          "internalType": "address",
          "name": "spender",
          "type": "address"
        },
        {
          "internalType": "uint256",
          "name": "addedValue",
          "type": "uint256"
        }
      ],
      "name": "increaseAllowance",
      "outputs": [
        {
          "internalType": "bool",
          "name": "",
          "type": "bool"
        }
      ],
      "stateMutability": "nonpayable",
      "type": "function"
    },
    {
      "inputs": [
        {
          "internalType": "uint256",
          "name": "",
          "type": "uint256"
        }
      ],
      "name": "moderators",
      "outputs": [
        {
          "internalType": "address",
          "name": "",
          "type": "address"
        }
      ],
      "stateMutability": "view",
      "type": "function"
    },
    {
      "inputs": [],
      "name": "name",
      "outputs": [
        {
          "internalType": "string",
          "name": "",
          "type": "string"
        }
      ],
      "stateMutability": "view",
      "type": "function"
    },
    {
      "inputs": [],
      "name": "owner",
      "outputs": [
        {
          "internalType": "address",
          "name": "",
          "type": "address"
        }
      ],
      "stateMutability": "view",
      "type": "function"
    },
    {
      "inputs": [],
      "name": "reservePrice",
      "outputs": [
        {
          "internalType": "uint256",
          "name": "amtz",
          "type": "uint256"
        }
      ],
      "stateMutability": "view",
      "type": "function"
    },
    {
      "inputs": [],
      "name": "savedTotal",
      "outputs": [
        {
          "internalType": "uint256",
          "name": "",
          "type": "uint256"
        }
      ],
      "stateMutability": "view",
      "type": "function"
    },
    {
      "inputs": [
        {
          "internalType": "uint256",
          "name": "aucWin",
          "type": "uint256"
        },
        {
          "internalType": "uint256",
          "name": "TokenID",
          "type": "uint256"
        }
      ],
      "name": "send_NFTs_To_winner",
      "outputs": [],
      "stateMutability": "nonpayable",
      "type": "function"
    },
    {
      "inputs": [
        {
          "internalType": "uint256",
          "name": "Price",
          "type": "uint256"
        }
      ],
      "name": "setVotePrice",
      "outputs": [
        {
          "internalType": "bool",
          "name": "success",
          "type": "bool"
        }
      ],
      "stateMutability": "nonpayable",
      "type": "function"
    },
    {
      "inputs": [],
      "name": "sharesNeeded",
      "outputs": [
        {
          "internalType": "uint256",
          "name": "shares",
          "type": "uint256"
        }
      ],
      "stateMutability": "view",
      "type": "function"
    },
    {
      "inputs": [],
      "name": "stakingContract",
      "outputs": [
        {
          "internalType": "address",
          "name": "",
          "type": "address"
        }
      ],
      "stateMutability": "view",
      "type": "function"
    },
    {
      "inputs": [
        {
          "internalType": "uint256",
          "name": "",
          "type": "uint256"
        }
      ],
      "name": "startAucBurn",
      "outputs": [
        {
          "internalType": "uint256",
          "name": "",
          "type": "uint256"
        }
      ],
      "stateMutability": "view",
      "type": "function"
    },
    {
      "inputs": [
        {
          "internalType": "address",
          "name": "bidForWhom",
          "type": "address"
        }
      ],
      "name": "startBuyoutAuction",
      "outputs": [
        {
          "internalType": "bool",
          "name": "success",
          "type": "bool"
        }
      ],
      "stateMutability": "payable",
      "type": "function"
    },
    {
      "inputs": [
        {
          "internalType": "address",
          "name": "bidForWhom",
          "type": "address"
        },
        {
          "internalType": "uint256",
          "name": "value",
          "type": "uint256"
        }
      ],
      "name": "startBuyoutAuctionERC20",
      "outputs": [
        {
          "internalType": "bool",
          "name": "success",
          "type": "bool"
        }
      ],
      "stateMutability": "nonpayable",
      "type": "function"
    },
    {
      "inputs": [],
      "name": "symbol",
      "outputs": [
        {
          "internalType": "string",
          "name": "",
          "type": "string"
        }
      ],
      "stateMutability": "view",
      "type": "function"
    },
    {
      "inputs": [
        {
          "internalType": "uint256",
          "name": "",
          "type": "uint256"
        }
      ],
      "name": "topBidder",
      "outputs": [
        {
          "internalType": "address",
          "name": "",
          "type": "address"
        }
      ],
      "stateMutability": "view",
      "type": "function"
    },
    {
      "inputs": [],
      "name": "totalAuc",
      "outputs": [
        {
          "internalType": "uint256",
          "name": "",
          "type": "uint256"
        }
      ],
      "stateMutability": "view",
      "type": "function"
    },
    {
      "inputs": [],
      "name": "totalSupply",
      "outputs": [
        {
          "internalType": "uint256",
          "name": "",
          "type": "uint256"
        }
      ],
      "stateMutability": "view",
      "type": "function"
    },
    {
      "inputs": [
        {
          "internalType": "address",
          "name": "to",
          "type": "address"
        },
        {
          "internalType": "uint256",
          "name": "amount",
          "type": "uint256"
        }
      ],
      "name": "transfer",
      "outputs": [
        {
          "internalType": "bool",
          "name": "",
          "type": "bool"
        }
      ],
      "stateMutability": "nonpayable",
      "type": "function"
    },
    {
      "inputs": [
        {
          "internalType": "address",
          "name": "from",
          "type": "address"
        },
        {
          "internalType": "address",
          "name": "to",
          "type": "address"
        },
        {
          "internalType": "uint256",
          "name": "amount",
          "type": "uint256"
        }
      ],
      "name": "transferFrom",
      "outputs": [
        {
          "internalType": "bool",
          "name": "",
          "type": "bool"
        }
      ],
      "stateMutability": "nonpayable",
      "type": "function"
    },
    {
      "inputs": [
        {
          "internalType": "address",
          "name": "",
          "type": "address"
        }
      ],
      "name": "votes",
      "outputs": [
        {
          "internalType": "uint256",
          "name": "",
          "type": "uint256"
        }
      ],
      "stateMutability": "view",
      "type": "function"
    },
    {
      "inputs": [
        {
          "internalType": "address",
          "name": "",
          "type": "address"
        }
      ],
      "name": "votesPrice",
      "outputs": [
        {
          "internalType": "uint256",
          "name": "",
          "type": "uint256"
        }
      ],
      "stateMutability": "view",
      "type": "function"
    },
    {
      "inputs": [],
      "name": "votesTotal",
      "outputs": [
        {
          "internalType": "uint256",
          "name": "",
          "type": "uint256"
        }
      ],
      "stateMutability": "view",
      "type": "function"
    },
    {
      "inputs": [],
      "name": "votesTotalAmt",
      "outputs": [
        {
          "internalType": "uint256",
          "name": "",
          "type": "uint256"
        }
      ],
      "stateMutability": "view",
      "type": "function"
    },
    {
      "inputs": [],
      "name": "xyy",
      "outputs": [
        {
          "internalType": "uint256",
          "name": "",
          "type": "uint256"
        }
      ],
      "stateMutability": "view",
      "type": "function"
    }
  ],
  "bytecode": "6080604052600060038190556004819055600c805460ff60a01b19169055601080546001600160a01b031990811673bf4493415fd1e79dcda8cd0cad7e5ed65dce70741790915561028a601155601382905560148290556015829055601682905560198054909116737d28fa576a4e08922b01e897ce4f5517ad351578179055601a553480156200008f57600080fd5b50604080518082018252600981526815195cdd119c9858dd60ba1b6020808301918252835180850190945260028452612a2360f11b908401528151919291600091620000df9160079190620002db565b508151620000f5906008906020850190620002db565b506009805460ff929092166001600160a81b031990921691909117610100330217905550620001479050735798659253a33d32723a88ecbe5ef37bb8332d5d6204e20067016345785d8a00006200014d565b62000410565b6001600160a01b038316620001a85760405162461bcd60e51b815260206004820152601f60248201527f45524332303a206d696e7420746f20746865207a65726f206164647265737300604482015260640160405180910390fd5b8160026000828254620001bc919062000397565b90915550506001600160a01b03831660009081526020819052604081208054849290620001eb90849062000397565b90915550506040518281526001600160a01b038416906000907fddf252ad1be2c89b69c2b068fc378daa952ba7f163c4a11628f55a4df523b3ef9060200160405180910390a36001600160a01b0383166000908152600560205260409020546200025790839062000397565b6001600160a01b0384166000908152600560205260409020556200027c8183620003b2565b600360008282546200028f919062000397565b90915550506001600160a01b0383166000908152600660205260409020819055600454620002bf90839062000397565b600455620002d6600084846001600160e01b038416565b505050565b828054620002e990620003d4565b90600052602060002090601f0160209004810192826200030d576000855562000358565b82601f106200032857805160ff191683800117855562000358565b8280016001018555821562000358579182015b82811115620003585782518255916020019190600101906200033b565b50620003669291506200036a565b5090565b5b808211156200036657600081556001016200036b565b634e487b7160e01b600052601160045260246000fd5b60008219821115620003ad57620003ad62000381565b500190565b6000816000190483118215151615620003cf57620003cf62000381565b500290565b600181811c90821680620003e957607f821691505b6020821081036200040a57634e487b7160e01b600052602260045260246000fd5b50919050565b61351b80620004206000396000f3fe6080604052600436106103505760003560e01c80637f082ce4116101c6578063bac4b2c5116100f7578063db2e1eed11610095578063e3de915b1161006f578063e3de915b14610998578063ede7502e146109b8578063ee99205c146109cd578063f9eca2ce146109ed57600080fd5b8063db2e1eed14610927578063dd62ed3e1461093c578063e38aaa141461098257600080fd5b8063c2cba306116100d1578063c2cba3061461089a578063c6118c85146108ba578063d6a94dc0146108da578063d8bff5a5146108fa57600080fd5b8063bac4b2c51461083a578063bd842a111461085a578063c1064d611461087a57600080fd5b806395d89b4111610164578063a877fc161161013e578063a877fc16146107b8578063a8d9693b146107cd578063a9059cbb146107fa578063b93283f41461081a57600080fd5b806395d89b41146107705780639cf5453d14610785578063a457c2d71461079857600080fd5b80638da5cb5b116101a05780638da5cb5b146106f557806392d8147b1461071a5780639426856d1461073a57806395ccca261461075a57600080fd5b80637f082ce4146106ab57806380bd9e09146106c05780638978f62d146106e057600080fd5b80633f60913b116102a05780635ff3c4c21161023e5780636fa978f8116102185780636fa978f81461062957806370a0823114610649578063729763181461067f578063797b56901461069557600080fd5b80635ff3c4c2146105e057806360ab1a2814610600578063675264de1461061657600080fd5b806354218cd81161027a57806354218cd8146105525780635d67cddf146105685780635e1ff1e5146105885780635f16647d146105c057600080fd5b80633f60913b146104fc578063434ed83e1461051257806343cf4cdf1461053257600080fd5b8063313ce5671161030d57806339509351116102e7578063395093511461047a5780633b28bb751461049a5780633bfca926146104bc5780633c7cfe34146104dc57600080fd5b8063313ce5671461041a57806332424aa31461044057806336ad83a21461045a57600080fd5b806306fdde0314610355578063095ea7b31461038057806318160ddd146103b057806323b872dd146103cf57806327a7a9b1146103ef5780632e9a0c3e14610405575b600080fd5b34801561036157600080fd5b5061036a610a0d565b60405161037791906130d1565b60405180910390f35b34801561038c57600080fd5b506103a061039b366004613142565b610a9f565b6040519015158152602001610377565b3480156103bc57600080fd5b506002545b604051908152602001610377565b3480156103db57600080fd5b506103a06103ea36600461316c565b610ab7565b3480156103fb57600080fd5b506103c160135481565b34801561041157600080fd5b506103c1610adb565b34801561042657600080fd5b5060095460ff165b60405160ff9091168152602001610377565b34801561044c57600080fd5b5060095461042e9060ff1681565b34801561046657600080fd5b506103c16104753660046131be565b610b00565b34801561048657600080fd5b506103a0610495366004613142565b610c0e565b3480156104a657600080fd5b506104ba6104b5366004613288565b610c4d565b005b3480156104c857600080fd5b506104ba6104d73660046132aa565b610cbd565b3480156104e857600080fd5b506103c16104f73660046132cc565b610d99565b34801561050857600080fd5b506103c160155481565b34801561051e57600080fd5b506103c161052d3660046132cc565b610dba565b34801561053e57600080fd5b506104ba61054d3660046132e5565b610dca565b34801561055e57600080fd5b506103c160045481565b34801561057457600080fd5b506103a0610583366004613142565b610f18565b34801561059457600080fd5b506105a86105a33660046132cc565b61128d565b6040516001600160a01b039091168152602001610377565b3480156105cc57600080fd5b506104ba6105db366004613142565b6112b7565b3480156105ec57600080fd5b506103c16105fb3660046132cc565b6113b6565b34801561060c57600080fd5b506103c1601a5481565b6103a0610624366004613288565b6113c6565b34801561063557600080fd5b506104ba6106443660046132cc565b611689565b34801561065557600080fd5b506103c1610664366004613288565b6001600160a01b031660009081526020819052604090205490565b34801561068b57600080fd5b506103c160035481565b3480156106a157600080fd5b506103c160115481565b3480156106b757600080fd5b506105a861173d565b3480156106cc57600080fd5b506012546105a8906001600160a01b031681565b3480156106ec57600080fd5b506104ba61178a565b34801561070157600080fd5b506009546105a89061010090046001600160a01b031681565b34801561072657600080fd5b506103c16107353660046132cc565b611a66565b34801561074657600080fd5b506103a06107553660046132cc565b611a76565b34801561076657600080fd5b506103c160145481565b34801561077c57600080fd5b5061036a611bec565b6103a0610793366004613288565b611bfb565b3480156107a457600080fd5b506103a06107b3366004613142565b611e27565b3480156107c457600080fd5b506103c1611eb9565b3480156107d957600080fd5b506103c16107e8366004613288565b60066020526000908152604090205481565b34801561080657600080fd5b506103a0610815366004613142565b611efc565b34801561082657600080fd5b506104ba6108353660046132cc565b611f0a565b34801561084657600080fd5b506104ba6108553660046132aa565b612169565b34801561086657600080fd5b506105a86108753660046132cc565b6123f7565b34801561088657600080fd5b506104ba6108953660046132cc565b612407565b3480156108a657600080fd5b506010546105a8906001600160a01b031681565b3480156108c657600080fd5b506103a06108d5366004613142565b612470565b3480156108e657600080fd5b506103c16108f53660046132cc565b612828565b34801561090657600080fd5b506103c1610915366004613288565b60056020526000908152604090205481565b34801561093357600080fd5b506103c1612a14565b34801561094857600080fd5b506103c1610957366004613318565b6001600160a01b03918216600090815260016020908152604080832093909416825291909152205490565b34801561098e57600080fd5b506103c160165481565b3480156109a457600080fd5b506103c16109b3366004613288565b612a87565b3480156109c457600080fd5b506103c1612b17565b3480156109d957600080fd5b506019546105a8906001600160a01b031681565b3480156109f957600080fd5b506103c1610a083660046132cc565b612b3a565b606060078054610a1c9061334b565b80601f0160208091040260200160405190810160405280929190818152602001828054610a489061334b565b8015610a955780601f10610a6a57610100808354040283529160200191610a95565b820191906000526020600020905b815481529060010190602001808311610a7857829003601f168201915b5050505050905090565b600033610aad818585612b4a565b5060019392505050565b600033610ac5858285612c6e565b610ad0858585612cfa565b506001949350505050565b6000601454601354610aed919061339b565b6002545b610afb91906133b3565b905090565b60008080805b8451811015610be657600d858281518110610b2357610b236133d5565b602002602001015181548110610b3b57610b3b6133d5565b90600052602060002001544210610be657600e858281518110610b6057610b606133d5565b602002602001015181548110610b7857610b786133d5565b906000526020600020015483610b8e919061339b565b92506017858281518110610ba457610ba46133d5565b602002602001015181548110610bbc57610bbc6133d5565b906000526020600020015482610bd2919061339b565b915080610bde816133eb565b915050610b06565b610bf081836133b3565b610bfa8488613404565b610c0491906133b3565b9695505050505050565b3360008181526001602090815260408083206001600160a01b0387168452909152812054909190610aad9082908690610c4890879061339b565b612b4a565b60095461010090046001600160a01b03163314610cb15760405162461bcd60e51b815260206004820181905260248201527f4f776e61626c653a2063616c6c6572206973206e6f7420746865206f776e657260448201526064015b60405180910390fd5b610cba8161306a565b50565b815b610cc9838361339b565b811015610d9457600b80546001810182556000919091527f0175b7a638427703f0dbe7bb9bbf987a2551717b34e79f33b5b1008d1fa01db901819055600c546040516323b872dd60e01b81526001600160a01b03909116906323b872dd90610d3990339030908690600401613423565b600060405180830381600087803b158015610d5357600080fd5b505af1158015610d67573d6000803e3d6000fd5b505060138054925090506000610d7c836133eb565b91905055508080610d8c906133eb565b915050610cbf565b505050565b600e8181548110610da957600080fd5b600091825260209091200154905081565b60178181548110610da957600080fd5b600c54600160a01b900460ff1615610e185760405162461bcd60e51b81526020600482015260116024820152706f6e6c7920736574204e4654206f6e636560781b6044820152606401610ca8565b600c80546001600160a01b0385166001600160a81b031990911617600160a01b179055815b610e47838361339b565b811015610f1257600b80546001810182556000919091527f0175b7a638427703f0dbe7bb9bbf987a2551717b34e79f33b5b1008d1fa01db901819055600c546040516323b872dd60e01b81526001600160a01b03909116906323b872dd90610eb790339030908690600401613423565b600060405180830381600087803b158015610ed157600080fd5b505af1158015610ee5573d6000803e3d6000fd5b505060138054925090506000610efa836133eb565b91905055508080610f0a906133eb565b915050610e3d565b50505050565b60008060135411610f6b5760405162461bcd60e51b815260206004820152601b60248201527f4d757374206861766520616e204e465420746f2061756374696f6e00000000006044820152606401610ca8565b6010546001600160a01b0316610fda5760405162461bcd60e51b815260206004820152602e60248201527f6d757374206e6f7420657175616c2030206164647265737320666f722065726360448201526d0c8c081d1bdad95b881d985d5b1d60921b6064820152608401610ca8565b610fe2612a14565b8210156110015760405162461bcd60e51b8152600401610ca890613447565b6010546040516323b872dd60e01b81526001600160a01b03909116906323b872dd9061103590339030908790600401613423565b6020604051808303816000875af1158015611054573d6000803e3d6000fd5b505050506040513d601f19601f82011682018060405250810190611078919061347c565b6110b95760405162461bcd60e51b81526020600482015260126024820152717472616e73666572206d75737420776f726b60701b6044820152606401610ca8565b6014541561113b5742600d60016014546110d3919061349e565b815481106110e3576110e36133d5565b90600052602060002001541061113b5760405162461bcd60e51b815260206004820152601e60248201527f4e6f2061756374696f6e732077697468696e2073616d6520706572696f6400006044820152606401610ca8565b600d6011544261114b919061339b565b81546001808201845560009384526020842090910191909155600e80548083019091557fbb7b4a454dc3493923482f07822329ed19e8244eff582cc204f8554c3620c3fd01849055600f805491820181559091527f8d1108e10bcb7c27dddfc02ed9d693a074039d026cf4ea4240b40f7d581ac8020180546001600160a01b0319166001600160a01b0385161790556040516370a0823160e01b815230600482018190526017916370a0823190602401602060405180830381865afa158015611218573d6000803e3d6000fd5b505050506040513d601f19601f8201168201806040525081019061123c91906134b5565b600254611249919061349e565b81546001810183556000928352602083200155601480549161126a836133eb565b90915550506013805490600061127f836134ce565b909155506001949350505050565b600f818154811061129d57600080fd5b6000918252602090912001546001600160a01b0316905081565b60095461010090046001600160a01b031633146113165760405162461bcd60e51b815260206004820181905260248201527f4f776e61626c653a2063616c6c6572206973206e6f7420746865206f776e65726044820152606401610ca8565b600a54811061137057600a80546001810182556000919091527fc65a7bb8d6351c1cf70c95a316cc6a92839c986682d98bc35f958f4883f9d2a80180546001600160a01b0384166001600160a01b03199091161790555050565b81600a8281548110611384576113846133d5565b9060005260206000200160006101000a8154816001600160a01b0302191690836001600160a01b031602179055505050565b60188181548110610da957600080fd5b600080601354116114195760405162461bcd60e51b815260206004820152601b60248201527f4d757374206861766520616e204e465420746f2061756374696f6e00000000006044820152606401610ca8565b6001601454111561149e5742600d6001601454611436919061349e565b81548110611446576114466133d5565b90600052602060002001541061149e5760405162461bcd60e51b815260206004820152601e60248201527f4e6f2061756374696f6e732077697468696e2073616d6520706572696f6400006044820152606401610ca8565b6010546001600160a01b0316156115025760405162461bcd60e51b815260206004820152602260248201527f6d75737420657175616c2030206164647265737320666f7220657468207661756044820152611b1d60f21b6064820152608401610ca8565b60045460035461151291906133b3565b3410156115315760405162461bcd60e51b8152600401610ca890613447565b600e8054600181018255600091909152347fbb7b4a454dc3493923482f07822329ed19e8244eff582cc204f8554c3620c3fd90910155601154600d90611577904261339b565b81546001808201845560009384526020842090910191909155600f805491820181559091527f8d1108e10bcb7c27dddfc02ed9d693a074039d026cf4ea4240b40f7d581ac8020180546001600160a01b0319166001600160a01b0384161790556040516370a0823160e01b815230600482018190526017916370a0823190602401602060405180830381865afa158015611615573d6000803e3d6000fd5b505050506040513d601f19601f8201168201806040525081019061163991906134b5565b600254611646919061349e565b815460018101835560009283526020832001556014805491611667836133eb565b90915550506013805490600061167c836134ce565b9091555060019392505050565b600b80546001810182556000919091527f0175b7a638427703f0dbe7bb9bbf987a2551717b34e79f33b5b1008d1fa01db901819055600c546040516323b872dd60e01b81526001600160a01b03909116906323b872dd906116f290339030908690600401613423565b600060405180830381600087803b15801561170c57600080fd5b505af1158015611720573d6000803e3d6000fd5b505060138054925090506000611735836133eb565b919050555050565b600060145460000361174f5750600090565b600f6001601454611760919061349e565b81548110611770576117706133d5565b6000918252602090912001546001600160a01b0316919050565b6014541561181f5742600d60016014546117a4919061349e565b815481106117b4576117b46133d5565b90600052602060002001541061181f5760405162461bcd60e51b815260206004820152602a60248201527f4d757374207761697420756e74696c2061756374696f6e7320617265206f76656044820152697220746f20636c61696d60b01b6064820152608401610ca8565b6001601354101561186a5760405162461bcd60e51b8152602060048201526015602482015274135d5cdd081a185d9948139195081d1bc81cd95b1b605a1b6044820152606401610ca8565b306323b872dd338261187a610adb565b6040518463ffffffff1660e01b815260040161189893929190613423565b6020604051808303816000875af11580156118b7573d6000803e3d6000fd5b505050506040513d601f19601f820116820180604052508101906118db919061347c565b6119185760405162461bcd60e51b815260206004820152600e60248201526d78666572206d75737420776f726b60901b6044820152606401610ca8565b60138054906000611928836134ce565b9091555050600e8054600180820190925560007fbb7b4a454dc3493923482f07822329ed19e8244eff582cc204f8554c3620c3fd909101819055600d8054808401909155427fd7b6990105719101dabeb77144f2a3385c8033acd3af97e9423a695e81ad1eb590910155600f8054928301815590527f8d1108e10bcb7c27dddfc02ed9d693a074039d026cf4ea4240b40f7d581ac8020180546001600160a01b031916331790556040516370a0823160e01b815230600482018190526017916370a0823190602401602060405180830381865afa158015611a0d573d6000803e3d6000fd5b505050506040513d601f19601f82011682018060405250810190611a3191906134b5565b600254611a3e919061349e565b815460018101835560009283526020832001556014805491611a5f836133eb565b9190505550565b600b8181548110610da957600080fd5b6000600454600354611a8891906133b3565b611a9390600f613404565b821115611af85760405162461bcd60e51b815260206004820152602d60248201527f5072696365206d75737420626520617420756e64657220313078207468616e2060448201526c63757272656e7420507269636560981b6064820152608401610ca8565b600f600454600354611b0a91906133b3565b611b1491906133b3565b821015611b775760405162461bcd60e51b815260206004820152602b60248201527f5072696365206d757374206265206174206c6561737420312f3130746820637560448201526a7272656e7420507269636560a81b6064820152608401610ca8565b33600090815260066020908152604080832054600590925290912054611b9d9190613404565b60036000828254611bae919061349e565b90915550503360009081526006602090815260408083208590556005909152902054611bdb908390613404565b6003600082825461167c919061339b565b606060088054610a1c9061334b565b6000600d60145481548110611c1257611c126133d5565b9060005260206000200154421115611c6c5760405162461bcd60e51b815260206004820152601c60248201527f4d75737420626964206265666f72652061756374696f6e20656e6473000000006044820152606401610ca8565b600e60145481548110611c8157611c816133d5565b90600052602060002001543411611caa5760405162461bcd60e51b8152600401610ca890613447565b6000600f60145481548110611cc157611cc16133d5565b600091825260209091200154601454600e80546001600160a01b03909316935083926108fc92908110611cf657611cf66133d5565b90600052602060002001549081150290604051600060405180830381858888f19350505050158015611d2c573d6000803e3d6000fd5b5034600e60145481548110611d4357611d436133d5565b906000526020600020018190555082600f60145481548110611d6757611d676133d5565b600091825260209091200180546001600160a01b0319166001600160a01b03929092169190911790556040516370a0823160e01b81523060048201819052906370a0823190602401602060405180830381865afa158015611dcc573d6000803e3d6000fd5b505050506040513d601f19601f82011682018060405250810190611df091906134b5565b600254611dfd919061349e565b601760145481548110611e1257611e126133d5565b60009182526020909120015550600192915050565b3360008181526001602090815260408083206001600160a01b038716845290915281205490919083811015611eac5760405162461bcd60e51b815260206004820152602560248201527f45524332303a2064656372656173656420616c6c6f77616e63652062656c6f77604482015264207a65726f60d81b6064820152608401610ca8565b610ad08286868403612b4a565b6000601454600003611ecb5750600090565b600d6001601454611edc919061349e565b81548110611eec57611eec6133d5565b9060005260206000200154905090565b600033610aad818585612cfa565b6040516323b872dd60e01b815230906323b872dd90611f3190339084908690600401613423565b6020604051808303816000875af1158015611f50573d6000803e3d6000fd5b505050506040513d601f19601f82011682018060405250810190611f74919061347c565b611fb15760405162461bcd60e51b815260206004820152600e60248201526d78666572206d75737420776f726b60901b6044820152606401610ca8565b6000611fbc82612828565b90506000611fcb6003836133b3565b6010549091506001600160a01b0316156120e5576010546001600160a01b031663a9059cbb33611ffc846002613404565b6040516001600160e01b031960e085901b1681526001600160a01b03909216600483015260248201526044016020604051808303816000875af1158015612047573d6000803e3d6000fd5b505050506040513d601f19601f8201168201806040525081019061206b919061347c565b5060105460195460405163a9059cbb60e01b81526001600160a01b0391821660048201526024810184905291169063a9059cbb906044016020604051808303816000875af11580156120c1573d6000803e3d6000fd5b505050506040513d601f19601f82011682018060405250810190610f12919061347c565b60195433906001600160a01b0316816108fc612102856002613404565b6040518115909202916000818181858888f1935050505015801561212a573d6000803e3d6000fd5b506040516001600160a01b0382169084156108fc029085906000818181858888f19350505050158015612161573d6000803e3d6000fd5b505050505050565b600f828154811061217c5761217c6133d5565b6000918252602090912001546001600160a01b031633146121d75760405162461bcd60e51b815260206004820152601560248201527426bab9ba103430bb32903bb7b71030bab1ba34b7b760591b6044820152606401610ca8565b600f82815481106121ea576121ea6133d5565b6000918252602090912001546001600160a01b031630036122465760405162461bcd60e51b81526020600482015260166024820152754e6f2073656c6620636c61696d696e67207468696e6760501b6044820152606401610ca8565b42600d838154811061225a5761225a6133d5565b90600052602060002001546001612271919061339b565b106122be5760405162461bcd60e51b815260206004820152601760248201527f416674657220626c6f636b206973206f766572776974680000000000000000006044820152606401610ca8565b600c5460405163095ea7b360e01b8152336004820152602481018390526001600160a01b039091169063095ea7b390604401600060405180830381600087803b15801561230a57600080fd5b505af115801561231e573d6000803e3d6000fd5b5050600c546040516323b872dd60e01b81526001600160a01b0390911692506323b872dd915061235690309033908690600401613423565b600060405180830381600087803b15801561237057600080fd5b505af1158015612384573d6000803e3d6000fd5b5050505030600f838154811061239c5761239c6133d5565b6000918252602082200180546001600160a01b0319166001600160a01b0393909316929092179091556018805460018101825591527fb13d2d76d1f4b7be834882e410b3e3a8afaf69f83600ae24db354391d2378d2e015550565b600a818154811061129d57600080fd5b600c546040516323b872dd60e01b81526001600160a01b03909116906323b872dd9061243b90309033908690600401613423565b600060405180830381600087803b15801561245557600080fd5b505af1158015612469573d6000803e3d6000fd5b5050505050565b6000600d6001601454612483919061349e565b81548110612493576124936133d5565b90600052602060002001544211156124ed5760405162461bcd60e51b815260206004820152601c60248201527f4d75737420626964206265666f72652061756374696f6e20656e6473000000006044820152606401610ca8565b600e60016014546124fe919061349e565b8154811061250e5761250e6133d5565b906000526020600020015482116125375760405162461bcd60e51b8152600401610ca890613447565b6010546040516323b872dd60e01b81526001600160a01b03909116906323b872dd9061256b90339030908790600401613423565b6020604051808303816000875af115801561258a573d6000803e3d6000fd5b505050506040513d601f19601f820116820180604052508101906125ae919061347c565b6125ef5760405162461bcd60e51b81526020600482015260126024820152717472616e73666572206d75737420776f726b60701b6044820152606401610ca8565b6010546014546001600160a01b039091169063a9059cbb90600f906126169060019061349e565b81548110612626576126266133d5565b6000918252602090912001546014546001600160a01b0390911690600e906126509060019061349e565b81548110612660576126606133d5565b6000918252602090912001546040516001600160e01b031960e085901b1681526001600160a01b03909216600483015260248201526044016020604051808303816000875af11580156126b7573d6000803e3d6000fd5b505050506040513d601f19601f820116820180604052508101906126db919061347c565b61271f5760405162461bcd60e51b8152602060048201526015602482015274135d5cdd081e19995c88189858dac81d1bdc109a59605a1b6044820152606401610ca8565b81600e6001601454612731919061349e565b81548110612741576127416133d5565b906000526020600020018190555082600f6001601454612761919061349e565b81548110612771576127716133d5565b600091825260209091200180546001600160a01b0319166001600160a01b03929092169190911790556040516370a0823160e01b81523060048201819052906370a0823190602401602060405180830381865afa1580156127d6573d6000803e3d6000fd5b505050506040513d601f19601f820116820180604052508101906127fa91906134b5565b600254612807919061349e565b60176001601454612818919061349e565b81548110611e1257611e126133d5565b600060145460001480612865575060145460011480156128655750600d600081548110612857576128576133d5565b906000526020600020015442105b1561287257506000919050565b600060145467ffffffffffffffff81111561288f5761288f6131a8565b6040519080825280602002602001820160405280156128b8578160200160208202803683370190505b50905060005b6014548110156128f857808282815181106128db576128db6133d5565b6020908102919091010152806128f0816133eb565b9150506128be565b508051600090819081905b84518410156129eb57600d858581518110612920576129206133d5565b602002602001015181548110612938576129386133d5565b90600052602060002001544210156129515750826129eb565b600e858581518110612965576129656133d5565b60200260200101518154811061297d5761297d6133d5565b906000526020600020015483612993919061339b565b925060178585815181106129a9576129a96133d5565b6020026020010151815481106129c1576129c16133d5565b9060005260206000200154826129d7919061339b565b9150836129e3816133eb565b945050612903565b6129f581836133b3565b6129ff8489613404565b612a0991906133b3565b979650505050505050565b600480546040516370a0823160e01b815230928101839052600092906370a0823190602401602060405180830381865afa158015612a56573d6000803e3d6000fd5b505050506040513d601f19601f82011682018060405250810190612a7a91906134b5565b600354610af1919061349e565b6000805b601454811015612b0d57826001600160a01b0316600f8281548110612ab257612ab26133d5565b6000918252602090912001546001600160a01b0316148015612af0575042600d8281548110612ae357612ae36133d5565b9060005260206000200154105b15612afb5792915050565b80612b05816133eb565b915050612a8b565b5060001992915050565b6000601454600003612b295750600090565b600e6001601454611edc919061349e565b600d8181548110610da957600080fd5b6001600160a01b038316612bac5760405162461bcd60e51b8152602060048201526024808201527f45524332303a20617070726f76652066726f6d20746865207a65726f206164646044820152637265737360e01b6064820152608401610ca8565b6001600160a01b038216612c0d5760405162461bcd60e51b815260206004820152602260248201527f45524332303a20617070726f766520746f20746865207a65726f206164647265604482015261737360f01b6064820152608401610ca8565b6001600160a01b0383811660008181526001602090815260408083209487168084529482529182902085905590518481527f8c5be1e5ebec7d5bd14f71427d1e84f3dd0314c0f7b2291e5b200ac8c7c3b925910160405180910390a3505050565b6001600160a01b038381166000908152600160209081526040808320938616835292905220546000198114610f125781811015612ced5760405162461bcd60e51b815260206004820152601d60248201527f45524332303a20696e73756666696369656e7420616c6c6f77616e63650000006044820152606401610ca8565b610f128484848403612b4a565b6001600160a01b038316612d5e5760405162461bcd60e51b815260206004820152602560248201527f45524332303a207472616e736665722066726f6d20746865207a65726f206164604482015264647265737360d81b6064820152608401610ca8565b6001600160a01b038216612dc05760405162461bcd60e51b815260206004820152602360248201527f45524332303a207472616e7366657220746f20746865207a65726f206164647260448201526265737360e81b6064820152608401610ca8565b6001600160a01b03831660009081526020819052604090205481811015612e385760405162461bcd60e51b815260206004820152602660248201527f45524332303a207472616e7366657220616d6f756e7420657863656564732062604482015265616c616e636560d01b6064820152608401610ca8565b6001600160a01b03808516600090815260208190526040808220858503905591851681529081208054849290612e6f90849061339b565b90915550506001600160a01b038416600090815260056020526040902054612e9890839061349e565b6001600160a01b038086166000908152600560205260408082209390935590851681522054612ec890839061339b565b6001600160a01b03808516600090815260056020908152604080832094909455918716815260069091522054612efe9083613404565b60036000828254612f0f919061349e565b90915550506001600160a01b03831660009081526006602052604090205415612f71576001600160a01b038316600090815260066020526040902054612f559083613404565b60036000828254612f66919061339b565b90915550612fb79050565b6001600160a01b038085166000908152600660205260408082205492861682529020819055612fa09083613404565b60036000828254612fb1919061339b565b90915550505b306001600160a01b03841603613018578160046000828254612fd9919061349e565b90915550506001600160a01b0383166000908152600660205260409020546130019083613404565b60036000828254613012919061349e565b90915550505b826001600160a01b0316846001600160a01b03167fddf252ad1be2c89b69c2b068fc378daa952ba7f163c4a11628f55a4df523b3ef8460405161305d91815260200190565b60405180910390a3610f12565b6009546040516001600160a01b0380841692610100900416907f8be0079c531659141344cd1fd0a4f28419497f9722a3daafe3b4186f6b6457e090600090a3600980546001600160a01b0390921661010002610100600160a81b0319909216919091179055565b600060208083528351808285015260005b818110156130fe578581018301518582016040015282016130e2565b81811115613110576000604083870101525b50601f01601f1916929092016040019392505050565b80356001600160a01b038116811461313d57600080fd5b919050565b6000806040838503121561315557600080fd5b61315e83613126565b946020939093013593505050565b60008060006060848603121561318157600080fd5b61318a84613126565b925061319860208501613126565b9150604084013590509250925092565b634e487b7160e01b600052604160045260246000fd5b600080604083850312156131d157600080fd5b8235915060208084013567ffffffffffffffff808211156131f157600080fd5b818601915086601f83011261320557600080fd5b813581811115613217576132176131a8565b8060051b604051601f19603f8301168101818110858211171561323c5761323c6131a8565b60405291825284820192508381018501918983111561325a57600080fd5b938501935b828510156132785784358452938501939285019261325f565b8096505050505050509250929050565b60006020828403121561329a57600080fd5b6132a382613126565b9392505050565b600080604083850312156132bd57600080fd5b50508035926020909101359150565b6000602082840312156132de57600080fd5b5035919050565b6000806000606084860312156132fa57600080fd5b61330384613126565b95602085013595506040909401359392505050565b6000806040838503121561332b57600080fd5b61333483613126565b915061334260208401613126565b90509250929050565b600181811c9082168061335f57607f821691505b60208210810361337f57634e487b7160e01b600052602260045260246000fd5b50919050565b634e487b7160e01b600052601160045260246000fd5b600082198211156133ae576133ae613385565b500190565b6000826133d057634e487b7160e01b600052601260045260246000fd5b500490565b634e487b7160e01b600052603260045260246000fd5b6000600182016133fd576133fd613385565b5060010190565b600081600019048311821515161561341e5761341e613385565b500290565b6001600160a01b039384168152919092166020820152604081019190915260600190565b6020808252818101527f4d75737420626964206d6f7265207468616e2072657365727665207072696365604082015260600190565b60006020828403121561348e57600080fd5b815180151581146132a357600080fd5b6000828210156134b0576134b0613385565b500390565b6000602082840312156134c757600080fd5b5051919050565b6000816134dd576134dd613385565b50600019019056fea2646970667358221220e2ee1a806429aa326aa9c995d4c40b28fdf30589559a8c0e906c6b0a28ff7de664736f6c634300080e0033",
  "bytecodeSha1": "3e3d403dea8633a8a9f12f7115dfc67e947b0031",
  "compiler": {
    "evm_version": "istanbul",
    "optimizer": {
      "enabled": true,
      "runs": 200
    },
    "version": "0.8.14+commit.80d49f37"
  },
  "contractName": "DaughterContract",
  "language": "Solidity",
  "natspec": {
    "kind": "dev",
    "methods": {
      "Z_addMod(address,uint256)": {
        "details": "Leaves the contract without owner. It will not be possible to call `onlyOwner` functions anymore. Can only be called by the current owner. NOTE: Renouncing ownership will leave the contract without an owner, thereby removing any functionality that is only available to the owner."
      },
      "Z_transferOwnership(address)": {
        "details": "Transfers ownership of the contract to a new account (`newOwner`). Can only be called by the current owner."
      },
      "allowance(address,address)": {
        "details": "See {IERC20-allowance}."
      },
      "approve(address,uint256)": {
        "details": "See {IERC20-approve}. NOTE: If `amount` is the maximum `uint256`, the allowance is not updated on `transferFrom`. This is semantically equivalent to an infinite approval. Requirements: - `spender` cannot be the zero address."
      },
      "balanceOf(address)": {
        "details": "See {IERC20-balanceOf}."
      },
      "decimals()": {
        "details": "Returns the number of decimals used to get its user representation. For example, if `decimals` equals `2`, a balance of `505` tokens should be displayed to a user as `5.05` (`505 / 10 ** 2`). Tokens usually opt for a value of 18, imitating the relationship between Ether and Wei. This is the value {ERC20} uses, unless this function is overridden; NOTE: This information is only used for _display_ purposes: it in no way affects any of the arithmetic of the contract, including {IERC20-balanceOf} and {IERC20-transfer}."
      },
      "decreaseAllowance(address,uint256)": {
        "details": "Atomically decreases the allowance granted to `spender` by the caller. This is an alternative to {approve} that can be used as a mitigation for problems described in {IERC20-approve}. Emits an {Approval} event indicating the updated allowance. Requirements: - `spender` cannot be the zero address. - `spender` must have allowance for the caller of at least `subtractedValue`."
      },
      "increaseAllowance(address,uint256)": {
        "details": "Atomically increases the allowance granted to `spender` by the caller. This is an alternative to {approve} that can be used as a mitigation for problems described in {IERC20-approve}. Emits an {Approval} event indicating the updated allowance. Requirements: - `spender` cannot be the zero address."
      },
      "name()": {
        "details": "Returns the name of the token."
      },
      "setVotePrice(uint256)": {
        "details": "Returns the name of the token."
      },
      "symbol()": {
        "details": "Returns the symbol of the token, usually a shorter version of the name."
      },
      "totalSupply()": {
        "details": "See {IERC20-totalSupply}."
      },
      "transfer(address,uint256)": {
        "details": "See {IERC20-transfer}. Requirements: - `to` cannot be the zero address. - the caller must have a balance of at least `amount`."
      },
      "transferFrom(address,address,uint256)": {
        "details": "See {IERC20-transferFrom}. Emits an {Approval} event indicating the updated allowance. This is not required by the EIP. See the note at the beginning of {ERC20}. NOTE: Does not update the allowance if the current allowance is the maximum `uint256`. Requirements: - `from` and `to` cannot be the zero address. - `from` must have a balance of at least `amount`. - the caller must have allowance for ``from``'s tokens of at least `amount`."
      }
    },
    "version": 1
  },
  "opcodes": "PUSH1 0x80 PUSH1 0x40 MSTORE PUSH1 0x4 CALLDATASIZE LT PUSH2 0x350 JUMPI PUSH1 0x0 CALLDATALOAD PUSH1 0xE0 SHR DUP1 PUSH4 0x7F082CE4 GT PUSH2 0x1C6 JUMPI DUP1 PUSH4 0xBAC4B2C5 GT PUSH2 0xF7 JUMPI DUP1 PUSH4 0xDB2E1EED GT PUSH2 0x95 JUMPI DUP1 PUSH4 0xE3DE915B GT PUSH2 0x6F JUMPI DUP1 PUSH4 0xE3DE915B EQ PUSH2 0x998 JUMPI DUP1 PUSH4 0xEDE7502E EQ PUSH2 0x9B8 JUMPI DUP1 PUSH4 0xEE99205C EQ PUSH2 0x9CD JUMPI DUP1 PUSH4 0xF9ECA2CE EQ PUSH2 0x9ED JUMPI PUSH1 0x0 DUP1 REVERT JUMPDEST DUP1 PUSH4 0xDB2E1EED EQ PUSH2 0x927 JUMPI DUP1 PUSH4 0xDD62ED3E EQ PUSH2 0x93C JUMPI DUP1 PUSH4 0xE38AAA14 EQ PUSH2 0x982 JUMPI PUSH1 0x0 DUP1 REVERT JUMPDEST DUP1 PUSH4 0xC2CBA306 GT PUSH2 0xD1 JUMPI DUP1 PUSH4 0xC2CBA306 EQ PUSH2 0x89A JUMPI DUP1 PUSH4 0xC6118C85 EQ PUSH2 0x8BA JUMPI DUP1 PUSH4 0xD6A94DC0 EQ PUSH2 0x8DA JUMPI DUP1 PUSH4 0xD8BFF5A5 EQ PUSH2 0x8FA JUMPI PUSH1 0x0 DUP1 REVERT JUMPDEST DUP1 PUSH4 0xBAC4B2C5 EQ PUSH2 0x83A JUMPI DUP1 PUSH4 0xBD842A11 EQ PUSH2 0x85A JUMPI DUP1 PUSH4 0xC1064D61 EQ PUSH2 0x87A JUMPI PUSH1 0x0 DUP1 REVERT JUMPDEST DUP1 PUSH4 0x95D89B41 GT PUSH2 0x164 JUMPI DUP1 PUSH4 0xA877FC16 GT PUSH2 0x13E JUMPI DUP1 PUSH4 0xA877FC16 EQ PUSH2 0x7B8 JUMPI DUP1 PUSH4 0xA8D9693B EQ PUSH2 0x7CD JUMPI DUP1 PUSH4 0xA9059CBB EQ PUSH2 0x7FA JUMPI DUP1 PUSH4 0xB93283F4 EQ PUSH2 0x81A JUMPI PUSH1 0x0 DUP1 REVERT JUMPDEST DUP1 PUSH4 0x95D89B41 EQ PUSH2 0x770 JUMPI DUP1 PUSH4 0x9CF5453D EQ PUSH2 0x785 JUMPI DUP1 PUSH4 0xA457C2D7 EQ PUSH2 0x798 JUMPI PUSH1 0x0 DUP1 REVERT JUMPDEST DUP1 PUSH4 0x8DA5CB5B GT PUSH2 0x1A0 JUMPI DUP1 PUSH4 0x8DA5CB5B EQ PUSH2 0x6F5 JUMPI DUP1 PUSH4 0x92D8147B EQ PUSH2 0x71A JUMPI DUP1 PUSH4 0x9426856D EQ PUSH2 0x73A JUMPI DUP1 PUSH4 0x95CCCA26 EQ PUSH2 0x75A JUMPI PUSH1 0x0 DUP1 REVERT JUMPDEST DUP1 PUSH4 0x7F082CE4 EQ PUSH2 0x6AB JUMPI DUP1 PUSH4 0x80BD9E09 EQ PUSH2 0x6C0 JUMPI DUP1 PUSH4 0x8978F62D EQ PUSH2 0x6E0 JUMPI PUSH1 0x0 DUP1 REVERT JUMPDEST DUP1 PUSH4 0x3F60913B GT PUSH2 0x2A0 JUMPI DUP1 PUSH4 0x5FF3C4C2 GT PUSH2 0x23E JUMPI DUP1 PUSH4 0x6FA978F8 GT PUSH2 0x218 JUMPI DUP1 PUSH4 0x6FA978F8 EQ PUSH2 0x629 JUMPI DUP1 PUSH4 0x70A08231 EQ PUSH2 0x649 JUMPI DUP1 PUSH4 0x72976318 EQ PUSH2 0x67F JUMPI DUP1 PUSH4 0x797B5690 EQ PUSH2 0x695 JUMPI PUSH1 0x0 DUP1 REVERT JUMPDEST DUP1 PUSH4 0x5FF3C4C2 EQ PUSH2 0x5E0 JUMPI DUP1 PUSH4 0x60AB1A28 EQ PUSH2 0x600 JUMPI DUP1 PUSH4 0x675264DE EQ PUSH2 0x616 JUMPI PUSH1 0x0 DUP1 REVERT JUMPDEST DUP1 PUSH4 0x54218CD8 GT PUSH2 0x27A JUMPI DUP1 PUSH4 0x54218CD8 EQ PUSH2 0x552 JUMPI DUP1 PUSH4 0x5D67CDDF EQ PUSH2 0x568 JUMPI DUP1 PUSH4 0x5E1FF1E5 EQ PUSH2 0x588 JUMPI DUP1 PUSH4 0x5F16647D EQ PUSH2 0x5C0 JUMPI PUSH1 0x0 DUP1 REVERT JUMPDEST DUP1 PUSH4 0x3F60913B EQ PUSH2 0x4FC JUMPI DUP1 PUSH4 0x434ED83E EQ PUSH2 0x512 JUMPI DUP1 PUSH4 0x43CF4CDF EQ PUSH2 0x532 JUMPI PUSH1 0x0 DUP1 REVERT JUMPDEST DUP1 PUSH4 0x313CE567 GT PUSH2 0x30D JUMPI DUP1 PUSH4 0x39509351 GT PUSH2 0x2E7 JUMPI DUP1 PUSH4 0x39509351 EQ PUSH2 0x47A JUMPI DUP1 PUSH4 0x3B28BB75 EQ PUSH2 0x49A JUMPI DUP1 PUSH4 0x3BFCA926 EQ PUSH2 0x4BC JUMPI DUP1 PUSH4 0x3C7CFE34 EQ PUSH2 0x4DC JUMPI PUSH1 0x0 DUP1 REVERT JUMPDEST DUP1 PUSH4 0x313CE567 EQ PUSH2 0x41A JUMPI DUP1 PUSH4 0x32424AA3 EQ PUSH2 0x440 JUMPI DUP1 PUSH4 0x36AD83A2 EQ PUSH2 0x45A JUMPI PUSH1 0x0 DUP1 REVERT JUMPDEST DUP1 PUSH4 0x6FDDE03 EQ PUSH2 0x355 JUMPI DUP1 PUSH4 0x95EA7B3 EQ PUSH2 0x380 JUMPI DUP1 PUSH4 0x18160DDD EQ PUSH2 0x3B0 JUMPI DUP1 PUSH4 0x23B872DD EQ PUSH2 0x3CF JUMPI DUP1 PUSH4 0x27A7A9B1 EQ PUSH2 0x3EF JUMPI DUP1 PUSH4 0x2E9A0C3E EQ PUSH2 0x405 JUMPI JUMPDEST PUSH1 0x0 DUP1 REVERT JUMPDEST CALLVALUE DUP1 ISZERO PUSH2 0x361 JUMPI PUSH1 0x0 DUP1 REVERT JUMPDEST POP PUSH2 0x36A PUSH2 0xA0D JUMP JUMPDEST PUSH1 0x40 MLOAD PUSH2 0x377 SWAP2 SWAP1 PUSH2 0x30D1 JUMP JUMPDEST PUSH1 0x40 MLOAD DUP1 SWAP2 SUB SWAP1 RETURN JUMPDEST CALLVALUE DUP1 ISZERO PUSH2 0x38C JUMPI PUSH1 0x0 DUP1 REVERT JUMPDEST POP PUSH2 0x3A0 PUSH2 0x39B CALLDATASIZE PUSH1 0x4 PUSH2 0x3142 JUMP JUMPDEST PUSH2 0xA9F JUMP JUMPDEST PUSH1 0x40 MLOAD SWAP1 ISZERO ISZERO DUP2 MSTORE PUSH1 0x20 ADD PUSH2 0x377 JUMP JUMPDEST CALLVALUE DUP1 ISZERO PUSH2 0x3BC JUMPI PUSH1 0x0 DUP1 REVERT JUMPDEST POP PUSH1 0x2 SLOAD JUMPDEST PUSH1 0x40 MLOAD SWAP1 DUP2 MSTORE PUSH1 0x20 ADD PUSH2 0x377 JUMP JUMPDEST CALLVALUE DUP1 ISZERO PUSH2 0x3DB JUMPI PUSH1 0x0 DUP1 REVERT JUMPDEST POP PUSH2 0x3A0 PUSH2 0x3EA CALLDATASIZE PUSH1 0x4 PUSH2 0x316C JUMP JUMPDEST PUSH2 0xAB7 JUMP JUMPDEST CALLVALUE DUP1 ISZERO PUSH2 0x3FB JUMPI PUSH1 0x0 DUP1 REVERT JUMPDEST POP PUSH2 0x3C1 PUSH1 0x13 SLOAD DUP2 JUMP JUMPDEST CALLVALUE DUP1 ISZERO PUSH2 0x411 JUMPI PUSH1 0x0 DUP1 REVERT JUMPDEST POP PUSH2 0x3C1 PUSH2 0xADB JUMP JUMPDEST CALLVALUE DUP1 ISZERO PUSH2 0x426 JUMPI PUSH1 0x0 DUP1 REVERT JUMPDEST POP PUSH1 0x9 SLOAD PUSH1 0xFF AND JUMPDEST PUSH1 0x40 MLOAD PUSH1 0xFF SWAP1 SWAP2 AND DUP2 MSTORE PUSH1 0x20 ADD PUSH2 0x377 JUMP JUMPDEST CALLVALUE DUP1 ISZERO PUSH2 0x44C JUMPI PUSH1 0x0 DUP1 REVERT JUMPDEST POP PUSH1 0x9 SLOAD PUSH2 0x42E SWAP1 PUSH1 0xFF AND DUP2 JUMP JUMPDEST CALLVALUE DUP1 ISZERO PUSH2 0x466 JUMPI PUSH1 0x0 DUP1 REVERT JUMPDEST POP PUSH2 0x3C1 PUSH2 0x475 CALLDATASIZE PUSH1 0x4 PUSH2 0x31BE JUMP JUMPDEST PUSH2 0xB00 JUMP JUMPDEST CALLVALUE DUP1 ISZERO PUSH2 0x486 JUMPI PUSH1 0x0 DUP1 REVERT JUMPDEST POP PUSH2 0x3A0 PUSH2 0x495 CALLDATASIZE PUSH1 0x4 PUSH2 0x3142 JUMP JUMPDEST PUSH2 0xC0E JUMP JUMPDEST CALLVALUE DUP1 ISZERO PUSH2 0x4A6 JUMPI PUSH1 0x0 DUP1 REVERT JUMPDEST POP PUSH2 0x4BA PUSH2 0x4B5 CALLDATASIZE PUSH1 0x4 PUSH2 0x3288 JUMP JUMPDEST PUSH2 0xC4D JUMP JUMPDEST STOP JUMPDEST CALLVALUE DUP1 ISZERO PUSH2 0x4C8 JUMPI PUSH1 0x0 DUP1 REVERT JUMPDEST POP PUSH2 0x4BA PUSH2 0x4D7 CALLDATASIZE PUSH1 0x4 PUSH2 0x32AA JUMP JUMPDEST PUSH2 0xCBD JUMP JUMPDEST CALLVALUE DUP1 ISZERO PUSH2 0x4E8 JUMPI PUSH1 0x0 DUP1 REVERT JUMPDEST POP PUSH2 0x3C1 PUSH2 0x4F7 CALLDATASIZE PUSH1 0x4 PUSH2 0x32CC JUMP JUMPDEST PUSH2 0xD99 JUMP JUMPDEST CALLVALUE DUP1 ISZERO PUSH2 0x508 JUMPI PUSH1 0x0 DUP1 REVERT JUMPDEST POP PUSH2 0x3C1 PUSH1 0x15 SLOAD DUP2 JUMP JUMPDEST CALLVALUE DUP1 ISZERO PUSH2 0x51E JUMPI PUSH1 0x0 DUP1 REVERT JUMPDEST POP PUSH2 0x3C1 PUSH2 0x52D CALLDATASIZE PUSH1 0x4 PUSH2 0x32CC JUMP JUMPDEST PUSH2 0xDBA JUMP JUMPDEST CALLVALUE DUP1 ISZERO PUSH2 0x53E JUMPI PUSH1 0x0 DUP1 REVERT JUMPDEST POP PUSH2 0x4BA PUSH2 0x54D CALLDATASIZE PUSH1 0x4 PUSH2 0x32E5 JUMP JUMPDEST PUSH2 0xDCA JUMP JUMPDEST CALLVALUE DUP1 ISZERO PUSH2 0x55E JUMPI PUSH1 0x0 DUP1 REVERT JUMPDEST POP PUSH2 0x3C1 PUSH1 0x4 SLOAD DUP2 JUMP JUMPDEST CALLVALUE DUP1 ISZERO PUSH2 0x574 JUMPI PUSH1 0x0 DUP1 REVERT JUMPDEST POP PUSH2 0x3A0 PUSH2 0x583 CALLDATASIZE PUSH1 0x4 PUSH2 0x3142 JUMP JUMPDEST PUSH2 0xF18 JUMP JUMPDEST CALLVALUE DUP1 ISZERO PUSH2 0x594 JUMPI PUSH1 0x0 DUP1 REVERT JUMPDEST POP PUSH2 0x5A8 PUSH2 0x5A3 CALLDATASIZE PUSH1 0x4 PUSH2 0x32CC JUMP JUMPDEST PUSH2 0x128D JUMP JUMPDEST PUSH1 0x40 MLOAD PUSH1 0x1 PUSH1 0x1 PUSH1 0xA0 SHL SUB SWAP1 SWAP2 AND DUP2 MSTORE PUSH1 0x20 ADD PUSH2 0x377 JUMP JUMPDEST CALLVALUE DUP1 ISZERO PUSH2 0x5CC JUMPI PUSH1 0x0 DUP1 REVERT JUMPDEST POP PUSH2 0x4BA PUSH2 0x5DB CALLDATASIZE PUSH1 0x4 PUSH2 0x3142 JUMP JUMPDEST PUSH2 0x12B7 JUMP JUMPDEST CALLVALUE DUP1 ISZERO PUSH2 0x5EC JUMPI PUSH1 0x0 DUP1 REVERT JUMPDEST POP PUSH2 0x3C1 PUSH2 0x5FB CALLDATASIZE PUSH1 0x4 PUSH2 0x32CC JUMP JUMPDEST PUSH2 0x13B6 JUMP JUMPDEST CALLVALUE DUP1 ISZERO PUSH2 0x60C JUMPI PUSH1 0x0 DUP1 REVERT JUMPDEST POP PUSH2 0x3C1 PUSH1 0x1A SLOAD DUP2 JUMP JUMPDEST PUSH2 0x3A0 PUSH2 0x624 CALLDATASIZE PUSH1 0x4 PUSH2 0x3288 JUMP JUMPDEST PUSH2 0x13C6 JUMP JUMPDEST CALLVALUE DUP1 ISZERO PUSH2 0x635 JUMPI PUSH1 0x0 DUP1 REVERT JUMPDEST POP PUSH2 0x4BA PUSH2 0x644 CALLDATASIZE PUSH1 0x4 PUSH2 0x32CC JUMP JUMPDEST PUSH2 0x1689 JUMP JUMPDEST CALLVALUE DUP1 ISZERO PUSH2 0x655 JUMPI PUSH1 0x0 DUP1 REVERT JUMPDEST POP PUSH2 0x3C1 PUSH2 0x664 CALLDATASIZE PUSH1 0x4 PUSH2 0x3288 JUMP JUMPDEST PUSH1 0x1 PUSH1 0x1 PUSH1 0xA0 SHL SUB AND PUSH1 0x0 SWAP1 DUP2 MSTORE PUSH1 0x20 DUP2 SWAP1 MSTORE PUSH1 0x40 SWAP1 KECCAK256 SLOAD SWAP1 JUMP JUMPDEST CALLVALUE DUP1 ISZERO PUSH2 0x68B JUMPI PUSH1 0x0 DUP1 REVERT JUMPDEST POP PUSH2 0x3C1 PUSH1 0x3 SLOAD DUP2 JUMP JUMPDEST CALLVALUE DUP1 ISZERO PUSH2 0x6A1 JUMPI PUSH1 0x0 DUP1 REVERT JUMPDEST POP PUSH2 0x3C1 PUSH1 0x11 SLOAD DUP2 JUMP JUMPDEST CALLVALUE DUP1 ISZERO PUSH2 0x6B7 JUMPI PUSH1 0x0 DUP1 REVERT JUMPDEST POP PUSH2 0x5A8 PUSH2 0x173D JUMP JUMPDEST CALLVALUE DUP1 ISZERO PUSH2 0x6CC JUMPI PUSH1 0x0 DUP1 REVERT JUMPDEST POP PUSH1 0x12 SLOAD PUSH2 0x5A8 SWAP1 PUSH1 0x1 PUSH1 0x1 PUSH1 0xA0 SHL SUB AND DUP2 JUMP JUMPDEST CALLVALUE DUP1 ISZERO PUSH2 0x6EC JUMPI PUSH1 0x0 DUP1 REVERT JUMPDEST POP PUSH2 0x4BA PUSH2 0x178A JUMP JUMPDEST CALLVALUE DUP1 ISZERO PUSH2 0x701 JUMPI PUSH1 0x0 DUP1 REVERT JUMPDEST POP PUSH1 0x9 SLOAD PUSH2 0x5A8 SWAP1 PUSH2 0x100 SWAP1 DIV PUSH1 0x1 PUSH1 0x1 PUSH1 0xA0 SHL SUB AND DUP2 JUMP JUMPDEST CALLVALUE DUP1 ISZERO PUSH2 0x726 JUMPI PUSH1 0x0 DUP1 REVERT JUMPDEST POP PUSH2 0x3C1 PUSH2 0x735 CALLDATASIZE PUSH1 0x4 PUSH2 0x32CC JUMP JUMPDEST PUSH2 0x1A66 JUMP JUMPDEST CALLVALUE DUP1 ISZERO PUSH2 0x746 JUMPI PUSH1 0x0 DUP1 REVERT JUMPDEST POP PUSH2 0x3A0 PUSH2 0x755 CALLDATASIZE PUSH1 0x4 PUSH2 0x32CC JUMP JUMPDEST PUSH2 0x1A76 JUMP JUMPDEST CALLVALUE DUP1 ISZERO PUSH2 0x766 JUMPI PUSH1 0x0 DUP1 REVERT JUMPDEST POP PUSH2 0x3C1 PUSH1 0x14 SLOAD DUP2 JUMP JUMPDEST CALLVALUE DUP1 ISZERO PUSH2 0x77C JUMPI PUSH1 0x0 DUP1 REVERT JUMPDEST POP PUSH2 0x36A PUSH2 0x1BEC JUMP JUMPDEST PUSH2 0x3A0 PUSH2 0x793 CALLDATASIZE PUSH1 0x4 PUSH2 0x3288 JUMP JUMPDEST PUSH2 0x1BFB JUMP JUMPDEST CALLVALUE DUP1 ISZERO PUSH2 0x7A4 JUMPI PUSH1 0x0 DUP1 REVERT JUMPDEST POP PUSH2 0x3A0 PUSH2 0x7B3 CALLDATASIZE PUSH1 0x4 PUSH2 0x3142 JUMP JUMPDEST PUSH2 0x1E27 JUMP JUMPDEST CALLVALUE DUP1 ISZERO PUSH2 0x7C4 JUMPI PUSH1 0x0 DUP1 REVERT JUMPDEST POP PUSH2 0x3C1 PUSH2 0x1EB9 JUMP JUMPDEST CALLVALUE DUP1 ISZERO PUSH2 0x7D9 JUMPI PUSH1 0x0 DUP1 REVERT JUMPDEST POP PUSH2 0x3C1 PUSH2 0x7E8 CALLDATASIZE PUSH1 0x4 PUSH2 0x3288 JUMP JUMPDEST PUSH1 0x6 PUSH1 0x20 MSTORE PUSH1 0x0 SWAP1 DUP2 MSTORE PUSH1 0x40 SWAP1 KECCAK256 SLOAD DUP2 JUMP JUMPDEST CALLVALUE DUP1 ISZERO PUSH2 0x806 JUMPI PUSH1 0x0 DUP1 REVERT JUMPDEST POP PUSH2 0x3A0 PUSH2 0x815 CALLDATASIZE PUSH1 0x4 PUSH2 0x3142 JUMP JUMPDEST PUSH2 0x1EFC JUMP JUMPDEST CALLVALUE DUP1 ISZERO PUSH2 0x826 JUMPI PUSH1 0x0 DUP1 REVERT JUMPDEST POP PUSH2 0x4BA PUSH2 0x835 CALLDATASIZE PUSH1 0x4 PUSH2 0x32CC JUMP JUMPDEST PUSH2 0x1F0A JUMP JUMPDEST CALLVALUE DUP1 ISZERO PUSH2 0x846 JUMPI PUSH1 0x0 DUP1 REVERT JUMPDEST POP PUSH2 0x4BA PUSH2 0x855 CALLDATASIZE PUSH1 0x4 PUSH2 0x32AA JUMP JUMPDEST PUSH2 0x2169 JUMP JUMPDEST CALLVALUE DUP1 ISZERO PUSH2 0x866 JUMPI PUSH1 0x0 DUP1 REVERT JUMPDEST POP PUSH2 0x5A8 PUSH2 0x875 CALLDATASIZE PUSH1 0x4 PUSH2 0x32CC JUMP JUMPDEST PUSH2 0x23F7 JUMP JUMPDEST CALLVALUE DUP1 ISZERO PUSH2 0x886 JUMPI PUSH1 0x0 DUP1 REVERT JUMPDEST POP PUSH2 0x4BA PUSH2 0x895 CALLDATASIZE PUSH1 0x4 PUSH2 0x32CC JUMP JUMPDEST PUSH2 0x2407 JUMP JUMPDEST CALLVALUE DUP1 ISZERO PUSH2 0x8A6 JUMPI PUSH1 0x0 DUP1 REVERT JUMPDEST POP PUSH1 0x10 SLOAD PUSH2 0x5A8 SWAP1 PUSH1 0x1 PUSH1 0x1 PUSH1 0xA0 SHL SUB AND DUP2 JUMP JUMPDEST CALLVALUE DUP1 ISZERO PUSH2 0x8C6 JUMPI PUSH1 0x0 DUP1 REVERT JUMPDEST POP PUSH2 0x3A0 PUSH2 0x8D5 CALLDATASIZE PUSH1 0x4 PUSH2 0x3142 JUMP JUMPDEST PUSH2 0x2470 JUMP JUMPDEST CALLVALUE DUP1 ISZERO PUSH2 0x8E6 JUMPI PUSH1 0x0 DUP1 REVERT JUMPDEST POP PUSH2 0x3C1 PUSH2 0x8F5 CALLDATASIZE PUSH1 0x4 PUSH2 0x32CC JUMP JUMPDEST PUSH2 0x2828 JUMP JUMPDEST CALLVALUE DUP1 ISZERO PUSH2 0x906 JUMPI PUSH1 0x0 DUP1 REVERT JUMPDEST POP PUSH2 0x3C1 PUSH2 0x915 CALLDATASIZE PUSH1 0x4 PUSH2 0x3288 JUMP JUMPDEST PUSH1 0x5 PUSH1 0x20 MSTORE PUSH1 0x0 SWAP1 DUP2 MSTORE PUSH1 0x40 SWAP1 KECCAK256 SLOAD DUP2 JUMP JUMPDEST CALLVALUE DUP1 ISZERO PUSH2 0x933 JUMPI PUSH1 0x0 DUP1 REVERT JUMPDEST POP PUSH2 0x3C1 PUSH2 0x2A14 JUMP JUMPDEST CALLVALUE DUP1 ISZERO PUSH2 0x948 JUMPI PUSH1 0x0 DUP1 REVERT JUMPDEST POP PUSH2 0x3C1 PUSH2 0x957 CALLDATASIZE PUSH1 0x4 PUSH2 0x3318 JUMP JUMPDEST PUSH1 0x1 PUSH1 0x1 PUSH1 0xA0 SHL SUB SWAP2 DUP3 AND PUSH1 0x0 SWAP1 DUP2 MSTORE PUSH1 0x1 PUSH1 0x20 SWAP1 DUP2 MSTORE PUSH1 0x40 DUP1 DUP4 KECCAK256 SWAP4 SWAP1 SWAP5 AND DUP3 MSTORE SWAP2 SWAP1 SWAP2 MSTORE KECCAK256 SLOAD SWAP1 JUMP JUMPDEST CALLVALUE DUP1 ISZERO PUSH2 0x98E JUMPI PUSH1 0x0 DUP1 REVERT JUMPDEST POP PUSH2 0x3C1 PUSH1 0x16 SLOAD DUP2 JUMP JUMPDEST CALLVALUE DUP1 ISZERO PUSH2 0x9A4 JUMPI PUSH1 0x0 DUP1 REVERT JUMPDEST POP PUSH2 0x3C1 PUSH2 0x9B3 CALLDATASIZE PUSH1 0x4 PUSH2 0x3288 JUMP JUMPDEST PUSH2 0x2A87 JUMP JUMPDEST CALLVALUE DUP1 ISZERO PUSH2 0x9C4 JUMPI PUSH1 0x0 DUP1 REVERT JUMPDEST POP PUSH2 0x3C1 PUSH2 0x2B17 JUMP JUMPDEST CALLVALUE DUP1 ISZERO PUSH2 0x9D9 JUMPI PUSH1 0x0 DUP1 REVERT JUMPDEST POP PUSH1 0x19 SLOAD PUSH2 0x5A8 SWAP1 PUSH1 0x1 PUSH1 0x1 PUSH1 0xA0 SHL SUB AND DUP2 JUMP JUMPDEST CALLVALUE DUP1 ISZERO PUSH2 0x9F9 JUMPI PUSH1 0x0 DUP1 REVERT JUMPDEST POP PUSH2 0x3C1 PUSH2 0xA08 CALLDATASIZE PUSH1 0x4 PUSH2 0x32CC JUMP JUMPDEST PUSH2 0x2B3A JUMP JUMPDEST PUSH1 0x60 PUSH1 0x7 DUP1 SLOAD PUSH2 0xA1C SWAP1 PUSH2 0x334B JUMP JUMPDEST DUP1 PUSH1 0x1F ADD PUSH1 0x20 DUP1 SWAP2 DIV MUL PUSH1 0x20 ADD PUSH1 0x40 MLOAD SWAP1 DUP2 ADD PUSH1 0x40 MSTORE DUP1 SWAP3 SWAP2 SWAP1 DUP2 DUP2 MSTORE PUSH1 0x20 ADD DUP3 DUP1 SLOAD PUSH2 0xA48 SWAP1 PUSH2 0x334B JUMP JUMPDEST DUP1 ISZERO PUSH2 0xA95 JUMPI DUP1 PUSH1 0x1F LT PUSH2 0xA6A JUMPI PUSH2 0x100 DUP1 DUP4 SLOAD DIV MUL DUP4 MSTORE SWAP2 PUSH1 0x20 ADD SWAP2 PUSH2 0xA95 JUMP JUMPDEST DUP3 ADD SWAP2 SWAP1 PUSH1 0x0 MSTORE PUSH1 0x20 PUSH1 0x0 KECCAK256 SWAP1 JUMPDEST DUP2 SLOAD DUP2 MSTORE SWAP1 PUSH1 0x1 ADD SWAP1 PUSH1 0x20 ADD DUP1 DUP4 GT PUSH2 0xA78 JUMPI DUP3 SWAP1 SUB PUSH1 0x1F AND DUP3 ADD SWAP2 JUMPDEST POP POP POP POP POP SWAP1 POP SWAP1 JUMP JUMPDEST PUSH1 0x0 CALLER PUSH2 0xAAD DUP2 DUP6 DUP6 PUSH2 0x2B4A JUMP JUMPDEST POP PUSH1 0x1 SWAP4 SWAP3 POP POP POP JUMP JUMPDEST PUSH1 0x0 CALLER PUSH2 0xAC5 DUP6 DUP3 DUP6 PUSH2 0x2C6E JUMP JUMPDEST PUSH2 0xAD0 DUP6 DUP6 DUP6 PUSH2 0x2CFA JUMP JUMPDEST POP PUSH1 0x1 SWAP5 SWAP4 POP POP POP POP JUMP JUMPDEST PUSH1 0x0 PUSH1 0x14 SLOAD PUSH1 0x13 SLOAD PUSH2 0xAED SWAP2 SWAP1 PUSH2 0x339B JUMP JUMPDEST PUSH1 0x2 SLOAD JUMPDEST PUSH2 0xAFB SWAP2 SWAP1 PUSH2 0x33B3 JUMP JUMPDEST SWAP1 POP SWAP1 JUMP JUMPDEST PUSH1 0x0 DUP1 DUP1 DUP1 JUMPDEST DUP5 MLOAD DUP2 LT ISZERO PUSH2 0xBE6 JUMPI PUSH1 0xD DUP6 DUP3 DUP2 MLOAD DUP2 LT PUSH2 0xB23 JUMPI PUSH2 0xB23 PUSH2 0x33D5 JUMP JUMPDEST PUSH1 0x20 MUL PUSH1 0x20 ADD ADD MLOAD DUP2 SLOAD DUP2 LT PUSH2 0xB3B JUMPI PUSH2 0xB3B PUSH2 0x33D5 JUMP JUMPDEST SWAP1 PUSH1 0x0 MSTORE PUSH1 0x20 PUSH1 0x0 KECCAK256 ADD SLOAD TIMESTAMP LT PUSH2 0xBE6 JUMPI PUSH1 0xE DUP6 DUP3 DUP2 MLOAD DUP2 LT PUSH2 0xB60 JUMPI PUSH2 0xB60 PUSH2 0x33D5 JUMP JUMPDEST PUSH1 0x20 MUL PUSH1 0x20 ADD ADD MLOAD DUP2 SLOAD DUP2 LT PUSH2 0xB78 JUMPI PUSH2 0xB78 PUSH2 0x33D5 JUMP JUMPDEST SWAP1 PUSH1 0x0 MSTORE PUSH1 0x20 PUSH1 0x0 KECCAK256 ADD SLOAD DUP4 PUSH2 0xB8E SWAP2 SWAP1 PUSH2 0x339B JUMP JUMPDEST SWAP3 POP PUSH1 0x17 DUP6 DUP3 DUP2 MLOAD DUP2 LT PUSH2 0xBA4 JUMPI PUSH2 0xBA4 PUSH2 0x33D5 JUMP JUMPDEST PUSH1 0x20 MUL PUSH1 0x20 ADD ADD MLOAD DUP2 SLOAD DUP2 LT PUSH2 0xBBC JUMPI PUSH2 0xBBC PUSH2 0x33D5 JUMP JUMPDEST SWAP1 PUSH1 0x0 MSTORE PUSH1 0x20 PUSH1 0x0 KECCAK256 ADD SLOAD DUP3 PUSH2 0xBD2 SWAP2 SWAP1 PUSH2 0x339B JUMP JUMPDEST SWAP2 POP DUP1 PUSH2 0xBDE DUP2 PUSH2 0x33EB JUMP JUMPDEST SWAP2 POP POP PUSH2 0xB06 JUMP JUMPDEST PUSH2 0xBF0 DUP2 DUP4 PUSH2 0x33B3 JUMP JUMPDEST PUSH2 0xBFA DUP5 DUP9 PUSH2 0x3404 JUMP JUMPDEST PUSH2 0xC04 SWAP2 SWAP1 PUSH2 0x33B3 JUMP JUMPDEST SWAP7 SWAP6 POP POP POP POP POP POP JUMP JUMPDEST CALLER PUSH1 0x0 DUP2 DUP2 MSTORE PUSH1 0x1 PUSH1 0x20 SWAP1 DUP2 MSTORE PUSH1 0x40 DUP1 DUP4 KECCAK256 PUSH1 0x1 PUSH1 0x1 PUSH1 0xA0 SHL SUB DUP8 AND DUP5 MSTORE SWAP1 SWAP2 MSTORE DUP2 KECCAK256 SLOAD SWAP1 SWAP2 SWAP1 PUSH2 0xAAD SWAP1 DUP3 SWAP1 DUP7 SWAP1 PUSH2 0xC48 SWAP1 DUP8 SWAP1 PUSH2 0x339B JUMP JUMPDEST PUSH2 0x2B4A JUMP JUMPDEST PUSH1 0x9 SLOAD PUSH2 0x100 SWAP1 DIV PUSH1 0x1 PUSH1 0x1 PUSH1 0xA0 SHL SUB AND CALLER EQ PUSH2 0xCB1 JUMPI PUSH1 0x40 MLOAD PUSH3 0x461BCD PUSH1 0xE5 SHL DUP2 MSTORE PUSH1 0x20 PUSH1 0x4 DUP3 ADD DUP2 SWAP1 MSTORE PUSH1 0x24 DUP3 ADD MSTORE PUSH32 0x4F776E61626C653A2063616C6C6572206973206E6F7420746865206F776E6572 PUSH1 0x44 DUP3 ADD MSTORE PUSH1 0x64 ADD JUMPDEST PUSH1 0x40 MLOAD DUP1 SWAP2 SUB SWAP1 REVERT JUMPDEST PUSH2 0xCBA DUP2 PUSH2 0x306A JUMP JUMPDEST POP JUMP JUMPDEST DUP2 JUMPDEST PUSH2 0xCC9 DUP4 DUP4 PUSH2 0x339B JUMP JUMPDEST DUP2 LT ISZERO PUSH2 0xD94 JUMPI PUSH1 0xB DUP1 SLOAD PUSH1 0x1 DUP2 ADD DUP3 SSTORE PUSH1 0x0 SWAP2 SWAP1 SWAP2 MSTORE PUSH32 0x175B7A638427703F0DBE7BB9BBF987A2551717B34E79F33B5B1008D1FA01DB9 ADD DUP2 SWAP1 SSTORE PUSH1 0xC SLOAD PUSH1 0x40 MLOAD PUSH4 0x23B872DD PUSH1 0xE0 SHL DUP2 MSTORE PUSH1 0x1 PUSH1 0x1 PUSH1 0xA0 SHL SUB SWAP1 SWAP2 AND SWAP1 PUSH4 0x23B872DD SWAP1 PUSH2 0xD39 SWAP1 CALLER SWAP1 ADDRESS SWAP1 DUP7 SWAP1 PUSH1 0x4 ADD PUSH2 0x3423 JUMP JUMPDEST PUSH1 0x0 PUSH1 0x40 MLOAD DUP1 DUP4 SUB DUP2 PUSH1 0x0 DUP8 DUP1 EXTCODESIZE ISZERO DUP1 ISZERO PUSH2 0xD53 JUMPI PUSH1 0x0 DUP1 REVERT JUMPDEST POP GAS CALL ISZERO DUP1 ISZERO PUSH2 0xD67 JUMPI RETURNDATASIZE PUSH1 0x0 DUP1 RETURNDATACOPY RETURNDATASIZE PUSH1 0x0 REVERT JUMPDEST POP POP PUSH1 0x13 DUP1 SLOAD SWAP3 POP SWAP1 POP PUSH1 0x0 PUSH2 0xD7C DUP4 PUSH2 0x33EB JUMP JUMPDEST SWAP2 SWAP1 POP SSTORE POP DUP1 DUP1 PUSH2 0xD8C SWAP1 PUSH2 0x33EB JUMP JUMPDEST SWAP2 POP POP PUSH2 0xCBF JUMP JUMPDEST POP POP POP JUMP JUMPDEST PUSH1 0xE DUP2 DUP2 SLOAD DUP2 LT PUSH2 0xDA9 JUMPI PUSH1 0x0 DUP1 REVERT JUMPDEST PUSH1 0x0 SWAP2 DUP3 MSTORE PUSH1 0x20 SWAP1 SWAP2 KECCAK256 ADD SLOAD SWAP1 POP DUP2 JUMP JUMPDEST PUSH1 0x17 DUP2 DUP2 SLOAD DUP2 LT PUSH2 0xDA9 JUMPI PUSH1 0x0 DUP1 REVERT JUMPDEST PUSH1 0xC SLOAD PUSH1 0x1 PUSH1 0xA0 SHL SWAP1 DIV PUSH1 0xFF AND ISZERO PUSH2 0xE18 JUMPI PUSH1 0x40 MLOAD PUSH3 0x461BCD PUSH1 0xE5 SHL DUP2 MSTORE PUSH1 0x20 PUSH1 0x4 DUP3 ADD MSTORE PUSH1 0x11 PUSH1 0x24 DUP3 ADD MSTORE PUSH17 0x6F6E6C7920736574204E4654206F6E6365 PUSH1 0x78 SHL PUSH1 0x44 DUP3 ADD MSTORE PUSH1 0x64 ADD PUSH2 0xCA8 JUMP JUMPDEST PUSH1 0xC DUP1 SLOAD PUSH1 0x1 PUSH1 0x1 PUSH1 0xA0 SHL SUB DUP6 AND PUSH1 0x1 PUSH1 0x1 PUSH1 0xA8 SHL SUB NOT SWAP1 SWAP2 AND OR PUSH1 0x1 PUSH1 0xA0 SHL OR SWAP1 SSTORE DUP2 JUMPDEST PUSH2 0xE47 DUP4 DUP4 PUSH2 0x339B JUMP JUMPDEST DUP2 LT ISZERO PUSH2 0xF12 JUMPI PUSH1 0xB DUP1 SLOAD PUSH1 0x1 DUP2 ADD DUP3 SSTORE PUSH1 0x0 SWAP2 SWAP1 SWAP2 MSTORE PUSH32 0x175B7A638427703F0DBE7BB9BBF987A2551717B34E79F33B5B1008D1FA01DB9 ADD DUP2 SWAP1 SSTORE PUSH1 0xC SLOAD PUSH1 0x40 MLOAD PUSH4 0x23B872DD PUSH1 0xE0 SHL DUP2 MSTORE PUSH1 0x1 PUSH1 0x1 PUSH1 0xA0 SHL SUB SWAP1 SWAP2 AND SWAP1 PUSH4 0x23B872DD SWAP1 PUSH2 0xEB7 SWAP1 CALLER SWAP1 ADDRESS SWAP1 DUP7 SWAP1 PUSH1 0x4 ADD PUSH2 0x3423 JUMP JUMPDEST PUSH1 0x0 PUSH1 0x40 MLOAD DUP1 DUP4 SUB DUP2 PUSH1 0x0 DUP8 DUP1 EXTCODESIZE ISZERO DUP1 ISZERO PUSH2 0xED1 JUMPI PUSH1 0x0 DUP1 REVERT JUMPDEST POP GAS CALL ISZERO DUP1 ISZERO PUSH2 0xEE5 JUMPI RETURNDATASIZE PUSH1 0x0 DUP1 RETURNDATACOPY RETURNDATASIZE PUSH1 0x0 REVERT JUMPDEST POP POP PUSH1 0x13 DUP1 SLOAD SWAP3 POP SWAP1 POP PUSH1 0x0 PUSH2 0xEFA DUP4 PUSH2 0x33EB JUMP JUMPDEST SWAP2 SWAP1 POP SSTORE POP DUP1 DUP1 PUSH2 0xF0A SWAP1 PUSH2 0x33EB JUMP JUMPDEST SWAP2 POP POP PUSH2 0xE3D JUMP JUMPDEST POP POP POP POP JUMP JUMPDEST PUSH1 0x0 DUP1 PUSH1 0x13 SLOAD GT PUSH2 0xF6B JUMPI PUSH1 0x40 MLOAD PUSH3 0x461BCD PUSH1 0xE5 SHL DUP2 MSTORE PUSH1 0x20 PUSH1 0x4 DUP3 ADD MSTORE PUSH1 0x1B PUSH1 0x24 DUP3 ADD MSTORE PUSH32 0x4D757374206861766520616E204E465420746F2061756374696F6E0000000000 PUSH1 0x44 DUP3 ADD MSTORE PUSH1 0x64 ADD PUSH2 0xCA8 JUMP JUMPDEST PUSH1 0x10 SLOAD PUSH1 0x1 PUSH1 0x1 PUSH1 0xA0 SHL SUB AND PUSH2 0xFDA JUMPI PUSH1 0x40 MLOAD PUSH3 0x461BCD PUSH1 0xE5 SHL DUP2 MSTORE PUSH1 0x20 PUSH1 0x4 DUP3 ADD MSTORE PUSH1 0x2E PUSH1 0x24 DUP3 ADD MSTORE PUSH32 0x6D757374206E6F7420657175616C2030206164647265737320666F7220657263 PUSH1 0x44 DUP3 ADD MSTORE PUSH14 0xC8C081D1BDAD95B881D985D5B1D PUSH1 0x92 SHL PUSH1 0x64 DUP3 ADD MSTORE PUSH1 0x84 ADD PUSH2 0xCA8 JUMP JUMPDEST PUSH2 0xFE2 PUSH2 0x2A14 JUMP JUMPDEST DUP3 LT ISZERO PUSH2 0x1001 JUMPI PUSH1 0x40 MLOAD PUSH3 0x461BCD PUSH1 0xE5 SHL DUP2 MSTORE PUSH1 0x4 ADD PUSH2 0xCA8 SWAP1 PUSH2 0x3447 JUMP JUMPDEST PUSH1 0x10 SLOAD PUSH1 0x40 MLOAD PUSH4 0x23B872DD PUSH1 0xE0 SHL DUP2 MSTORE PUSH1 0x1 PUSH1 0x1 PUSH1 0xA0 SHL SUB SWAP1 SWAP2 AND SWAP1 PUSH4 0x23B872DD SWAP1 PUSH2 0x1035 SWAP1 CALLER SWAP1 ADDRESS SWAP1 DUP8 SWAP1 PUSH1 0x4 ADD PUSH2 0x3423 JUMP JUMPDEST PUSH1 0x20 PUSH1 0x40 MLOAD DUP1 DUP4 SUB DUP2 PUSH1 0x0 DUP8 GAS CALL ISZERO DUP1 ISZERO PUSH2 0x1054 JUMPI RETURNDATASIZE PUSH1 0x0 DUP1 RETURNDATACOPY RETURNDATASIZE PUSH1 0x0 REVERT JUMPDEST POP POP POP POP PUSH1 0x40 MLOAD RETURNDATASIZE PUSH1 0x1F NOT PUSH1 0x1F DUP3 ADD AND DUP3 ADD DUP1 PUSH1 0x40 MSTORE POP DUP2 ADD SWAP1 PUSH2 0x1078 SWAP2 SWAP1 PUSH2 0x347C JUMP JUMPDEST PUSH2 0x10B9 JUMPI PUSH1 0x40 MLOAD PUSH3 0x461BCD PUSH1 0xE5 SHL DUP2 MSTORE PUSH1 0x20 PUSH1 0x4 DUP3 ADD MSTORE PUSH1 0x12 PUSH1 0x24 DUP3 ADD MSTORE PUSH18 0x7472616E73666572206D75737420776F726B PUSH1 0x70 SHL PUSH1 0x44 DUP3 ADD MSTORE PUSH1 0x64 ADD PUSH2 0xCA8 JUMP JUMPDEST PUSH1 0x14 SLOAD ISZERO PUSH2 0x113B JUMPI TIMESTAMP PUSH1 0xD PUSH1 0x1 PUSH1 0x14 SLOAD PUSH2 0x10D3 SWAP2 SWAP1 PUSH2 0x349E JUMP JUMPDEST DUP2 SLOAD DUP2 LT PUSH2 0x10E3 JUMPI PUSH2 0x10E3 PUSH2 0x33D5 JUMP JUMPDEST SWAP1 PUSH1 0x0 MSTORE PUSH1 0x20 PUSH1 0x0 KECCAK256 ADD SLOAD LT PUSH2 0x113B JUMPI PUSH1 0x40 MLOAD PUSH3 0x461BCD PUSH1 0xE5 SHL DUP2 MSTORE PUSH1 0x20 PUSH1 0x4 DUP3 ADD MSTORE PUSH1 0x1E PUSH1 0x24 DUP3 ADD MSTORE PUSH32 0x4E6F2061756374696F6E732077697468696E2073616D6520706572696F640000 PUSH1 0x44 DUP3 ADD MSTORE PUSH1 0x64 ADD PUSH2 0xCA8 JUMP JUMPDEST PUSH1 0xD PUSH1 0x11 SLOAD TIMESTAMP PUSH2 0x114B SWAP2 SWAP1 PUSH2 0x339B JUMP JUMPDEST DUP2 SLOAD PUSH1 0x1 DUP1 DUP3 ADD DUP5 SSTORE PUSH1 0x0 SWAP4 DUP5 MSTORE PUSH1 0x20 DUP5 KECCAK256 SWAP1 SWAP2 ADD SWAP2 SWAP1 SWAP2 SSTORE PUSH1 0xE DUP1 SLOAD DUP1 DUP4 ADD SWAP1 SWAP2 SSTORE PUSH32 0xBB7B4A454DC3493923482F07822329ED19E8244EFF582CC204F8554C3620C3FD ADD DUP5 SWAP1 SSTORE PUSH1 0xF DUP1 SLOAD SWAP2 DUP3 ADD DUP2 SSTORE SWAP1 SWAP2 MSTORE PUSH32 0x8D1108E10BCB7C27DDDFC02ED9D693A074039D026CF4EA4240B40F7D581AC802 ADD DUP1 SLOAD PUSH1 0x1 PUSH1 0x1 PUSH1 0xA0 SHL SUB NOT AND PUSH1 0x1 PUSH1 0x1 PUSH1 0xA0 SHL SUB DUP6 AND OR SWAP1 SSTORE PUSH1 0x40 MLOAD PUSH4 0x70A08231 PUSH1 0xE0 SHL DUP2 MSTORE ADDRESS PUSH1 0x4 DUP3 ADD DUP2 SWAP1 MSTORE PUSH1 0x17 SWAP2 PUSH4 0x70A08231 SWAP1 PUSH1 0x24 ADD PUSH1 0x20 PUSH1 0x40 MLOAD DUP1 DUP4 SUB DUP2 DUP7 GAS STATICCALL ISZERO DUP1 ISZERO PUSH2 0x1218 JUMPI RETURNDATASIZE PUSH1 0x0 DUP1 RETURNDATACOPY RETURNDATASIZE PUSH1 0x0 REVERT JUMPDEST POP POP POP POP PUSH1 0x40 MLOAD RETURNDATASIZE PUSH1 0x1F NOT PUSH1 0x1F DUP3 ADD AND DUP3 ADD DUP1 PUSH1 0x40 MSTORE POP DUP2 ADD SWAP1 PUSH2 0x123C SWAP2 SWAP1 PUSH2 0x34B5 JUMP JUMPDEST PUSH1 0x2 SLOAD PUSH2 0x1249 SWAP2 SWAP1 PUSH2 0x349E JUMP JUMPDEST DUP2 SLOAD PUSH1 0x1 DUP2 ADD DUP4 SSTORE PUSH1 0x0 SWAP3 DUP4 MSTORE PUSH1 0x20 DUP4 KECCAK256 ADD SSTORE PUSH1 0x14 DUP1 SLOAD SWAP2 PUSH2 0x126A DUP4 PUSH2 0x33EB JUMP JUMPDEST SWAP1 SWAP2 SSTORE POP POP PUSH1 0x13 DUP1 SLOAD SWAP1 PUSH1 0x0 PUSH2 0x127F DUP4 PUSH2 0x34CE JUMP JUMPDEST SWAP1 SWAP2 SSTORE POP PUSH1 0x1 SWAP5 SWAP4 POP POP POP POP JUMP JUMPDEST PUSH1 0xF DUP2 DUP2 SLOAD DUP2 LT PUSH2 0x129D JUMPI PUSH1 0x0 DUP1 REVERT JUMPDEST PUSH1 0x0 SWAP2 DUP3 MSTORE PUSH1 0x20 SWAP1 SWAP2 KECCAK256 ADD SLOAD PUSH1 0x1 PUSH1 0x1 PUSH1 0xA0 SHL SUB AND SWAP1 POP DUP2 JUMP JUMPDEST PUSH1 0x9 SLOAD PUSH2 0x100 SWAP1 DIV PUSH1 0x1 PUSH1 0x1 PUSH1 0xA0 SHL SUB AND CALLER EQ PUSH2 0x1316 JUMPI PUSH1 0x40 MLOAD PUSH3 0x461BCD PUSH1 0xE5 SHL DUP2 MSTORE PUSH1 0x20 PUSH1 0x4 DUP3 ADD DUP2 SWAP1 MSTORE PUSH1 0x24 DUP3 ADD MSTORE PUSH32 0x4F776E61626C653A2063616C6C6572206973206E6F7420746865206F776E6572 PUSH1 0x44 DUP3 ADD MSTORE PUSH1 0x64 ADD PUSH2 0xCA8 JUMP JUMPDEST PUSH1 0xA SLOAD DUP2 LT PUSH2 0x1370 JUMPI PUSH1 0xA DUP1 SLOAD PUSH1 0x1 DUP2 ADD DUP3 SSTORE PUSH1 0x0 SWAP2 SWAP1 SWAP2 MSTORE PUSH32 0xC65A7BB8D6351C1CF70C95A316CC6A92839C986682D98BC35F958F4883F9D2A8 ADD DUP1 SLOAD PUSH1 0x1 PUSH1 0x1 PUSH1 0xA0 SHL SUB DUP5 AND PUSH1 0x1 PUSH1 0x1 PUSH1 0xA0 SHL SUB NOT SWAP1 SWAP2 AND OR SWAP1 SSTORE POP POP JUMP JUMPDEST DUP2 PUSH1 0xA DUP3 DUP2 SLOAD DUP2 LT PUSH2 0x1384 JUMPI PUSH2 0x1384 PUSH2 0x33D5 JUMP JUMPDEST SWAP1 PUSH1 0x0 MSTORE PUSH1 0x20 PUSH1 0x0 KECCAK256 ADD PUSH1 0x0 PUSH2 0x100 EXP DUP2 SLOAD DUP2 PUSH1 0x1 PUSH1 0x1 PUSH1 0xA0 SHL SUB MUL NOT AND SWAP1 DUP4 PUSH1 0x1 PUSH1 0x1 PUSH1 0xA0 SHL SUB AND MUL OR SWAP1 SSTORE POP POP POP JUMP JUMPDEST PUSH1 0x18 DUP2 DUP2 SLOAD DUP2 LT PUSH2 0xDA9 JUMPI PUSH1 0x0 DUP1 REVERT JUMPDEST PUSH1 0x0 DUP1 PUSH1 0x13 SLOAD GT PUSH2 0x1419 JUMPI PUSH1 0x40 MLOAD PUSH3 0x461BCD PUSH1 0xE5 SHL DUP2 MSTORE PUSH1 0x20 PUSH1 0x4 DUP3 ADD MSTORE PUSH1 0x1B PUSH1 0x24 DUP3 ADD MSTORE PUSH32 0x4D757374206861766520616E204E465420746F2061756374696F6E0000000000 PUSH1 0x44 DUP3 ADD MSTORE PUSH1 0x64 ADD PUSH2 0xCA8 JUMP JUMPDEST PUSH1 0x1 PUSH1 0x14 SLOAD GT ISZERO PUSH2 0x149E JUMPI TIMESTAMP PUSH1 0xD PUSH1 0x1 PUSH1 0x14 SLOAD PUSH2 0x1436 SWAP2 SWAP1 PUSH2 0x349E JUMP JUMPDEST DUP2 SLOAD DUP2 LT PUSH2 0x1446 JUMPI PUSH2 0x1446 PUSH2 0x33D5 JUMP JUMPDEST SWAP1 PUSH1 0x0 MSTORE PUSH1 0x20 PUSH1 0x0 KECCAK256 ADD SLOAD LT PUSH2 0x149E JUMPI PUSH1 0x40 MLOAD PUSH3 0x461BCD PUSH1 0xE5 SHL DUP2 MSTORE PUSH1 0x20 PUSH1 0x4 DUP3 ADD MSTORE PUSH1 0x1E PUSH1 0x24 DUP3 ADD MSTORE PUSH32 0x4E6F2061756374696F6E732077697468696E2073616D6520706572696F640000 PUSH1 0x44 DUP3 ADD MSTORE PUSH1 0x64 ADD PUSH2 0xCA8 JUMP JUMPDEST PUSH1 0x10 SLOAD PUSH1 0x1 PUSH1 0x1 PUSH1 0xA0 SHL SUB AND ISZERO PUSH2 0x1502 JUMPI PUSH1 0x40 MLOAD PUSH3 0x461BCD PUSH1 0xE5 SHL DUP2 MSTORE PUSH1 0x20 PUSH1 0x4 DUP3 ADD MSTORE PUSH1 0x22 PUSH1 0x24 DUP3 ADD MSTORE PUSH32 0x6D75737420657175616C2030206164647265737320666F722065746820766175 PUSH1 0x44 DUP3 ADD MSTORE PUSH2 0x1B1D PUSH1 0xF2 SHL PUSH1 0x64 DUP3 ADD MSTORE PUSH1 0x84 ADD PUSH2 0xCA8 JUMP JUMPDEST PUSH1 0x4 SLOAD PUSH1 0x3 SLOAD PUSH2 0x1512 SWAP2 SWAP1 PUSH2 0x33B3 JUMP JUMPDEST CALLVALUE LT ISZERO PUSH2 0x1531 JUMPI PUSH1 0x40 MLOAD PUSH3 0x461BCD PUSH1 0xE5 SHL DUP2 MSTORE PUSH1 0x4 ADD PUSH2 0xCA8 SWAP1 PUSH2 0x3447 JUMP JUMPDEST PUSH1 0xE DUP1 SLOAD PUSH1 0x1 DUP2 ADD DUP3 SSTORE PUSH1 0x0 SWAP2 SWAP1 SWAP2 MSTORE CALLVALUE PUSH32 0xBB7B4A454DC3493923482F07822329ED19E8244EFF582CC204F8554C3620C3FD SWAP1 SWAP2 ADD SSTORE PUSH1 0x11 SLOAD PUSH1 0xD SWAP1 PUSH2 0x1577 SWAP1 TIMESTAMP PUSH2 0x339B JUMP JUMPDEST DUP2 SLOAD PUSH1 0x1 DUP1 DUP3 ADD DUP5 SSTORE PUSH1 0x0 SWAP4 DUP5 MSTORE PUSH1 0x20 DUP5 KECCAK256 SWAP1 SWAP2 ADD SWAP2 SWAP1 SWAP2 SSTORE PUSH1 0xF DUP1 SLOAD SWAP2 DUP3 ADD DUP2 SSTORE SWAP1 SWAP2 MSTORE PUSH32 0x8D1108E10BCB7C27DDDFC02ED9D693A074039D026CF4EA4240B40F7D581AC802 ADD DUP1 SLOAD PUSH1 0x1 PUSH1 0x1 PUSH1 0xA0 SHL SUB NOT AND PUSH1 0x1 PUSH1 0x1 PUSH1 0xA0 SHL SUB DUP5 AND OR SWAP1 SSTORE PUSH1 0x40 MLOAD PUSH4 0x70A08231 PUSH1 0xE0 SHL DUP2 MSTORE ADDRESS PUSH1 0x4 DUP3 ADD DUP2 SWAP1 MSTORE PUSH1 0x17 SWAP2 PUSH4 0x70A08231 SWAP1 PUSH1 0x24 ADD PUSH1 0x20 PUSH1 0x40 MLOAD DUP1 DUP4 SUB DUP2 DUP7 GAS STATICCALL ISZERO DUP1 ISZERO PUSH2 0x1615 JUMPI RETURNDATASIZE PUSH1 0x0 DUP1 RETURNDATACOPY RETURNDATASIZE PUSH1 0x0 REVERT JUMPDEST POP POP POP POP PUSH1 0x40 MLOAD RETURNDATASIZE PUSH1 0x1F NOT PUSH1 0x1F DUP3 ADD AND DUP3 ADD DUP1 PUSH1 0x40 MSTORE POP DUP2 ADD SWAP1 PUSH2 0x1639 SWAP2 SWAP1 PUSH2 0x34B5 JUMP JUMPDEST PUSH1 0x2 SLOAD PUSH2 0x1646 SWAP2 SWAP1 PUSH2 0x349E JUMP JUMPDEST DUP2 SLOAD PUSH1 0x1 DUP2 ADD DUP4 SSTORE PUSH1 0x0 SWAP3 DUP4 MSTORE PUSH1 0x20 DUP4 KECCAK256 ADD SSTORE PUSH1 0x14 DUP1 SLOAD SWAP2 PUSH2 0x1667 DUP4 PUSH2 0x33EB JUMP JUMPDEST SWAP1 SWAP2 SSTORE POP POP PUSH1 0x13 DUP1 SLOAD SWAP1 PUSH1 0x0 PUSH2 0x167C DUP4 PUSH2 0x34CE JUMP JUMPDEST SWAP1 SWAP2 SSTORE POP PUSH1 0x1 SWAP4 SWAP3 POP POP POP JUMP JUMPDEST PUSH1 0xB DUP1 SLOAD PUSH1 0x1 DUP2 ADD DUP3 SSTORE PUSH1 0x0 SWAP2 SWAP1 SWAP2 MSTORE PUSH32 0x175B7A638427703F0DBE7BB9BBF987A2551717B34E79F33B5B1008D1FA01DB9 ADD DUP2 SWAP1 SSTORE PUSH1 0xC SLOAD PUSH1 0x40 MLOAD PUSH4 0x23B872DD PUSH1 0xE0 SHL DUP2 MSTORE PUSH1 0x1 PUSH1 0x1 PUSH1 0xA0 SHL SUB SWAP1 SWAP2 AND SWAP1 PUSH4 0x23B872DD SWAP1 PUSH2 0x16F2 SWAP1 CALLER SWAP1 ADDRESS SWAP1 DUP7 SWAP1 PUSH1 0x4 ADD PUSH2 0x3423 JUMP JUMPDEST PUSH1 0x0 PUSH1 0x40 MLOAD DUP1 DUP4 SUB DUP2 PUSH1 0x0 DUP8 DUP1 EXTCODESIZE ISZERO DUP1 ISZERO PUSH2 0x170C JUMPI PUSH1 0x0 DUP1 REVERT JUMPDEST POP GAS CALL ISZERO DUP1 ISZERO PUSH2 0x1720 JUMPI RETURNDATASIZE PUSH1 0x0 DUP1 RETURNDATACOPY RETURNDATASIZE PUSH1 0x0 REVERT JUMPDEST POP POP PUSH1 0x13 DUP1 SLOAD SWAP3 POP SWAP1 POP PUSH1 0x0 PUSH2 0x1735 DUP4 PUSH2 0x33EB JUMP JUMPDEST SWAP2 SWAP1 POP SSTORE POP POP JUMP JUMPDEST PUSH1 0x0 PUSH1 0x14 SLOAD PUSH1 0x0 SUB PUSH2 0x174F JUMPI POP PUSH1 0x0 SWAP1 JUMP JUMPDEST PUSH1 0xF PUSH1 0x1 PUSH1 0x14 SLOAD PUSH2 0x1760 SWAP2 SWAP1 PUSH2 0x349E JUMP JUMPDEST DUP2 SLOAD DUP2 LT PUSH2 0x1770 JUMPI PUSH2 0x1770 PUSH2 0x33D5 JUMP JUMPDEST PUSH1 0x0 SWAP2 DUP3 MSTORE PUSH1 0x20 SWAP1 SWAP2 KECCAK256 ADD SLOAD PUSH1 0x1 PUSH1 0x1 PUSH1 0xA0 SHL SUB AND SWAP2 SWAP1 POP JUMP JUMPDEST PUSH1 0x14 SLOAD ISZERO PUSH2 0x181F JUMPI TIMESTAMP PUSH1 0xD PUSH1 0x1 PUSH1 0x14 SLOAD PUSH2 0x17A4 SWAP2 SWAP1 PUSH2 0x349E JUMP JUMPDEST DUP2 SLOAD DUP2 LT PUSH2 0x17B4 JUMPI PUSH2 0x17B4 PUSH2 0x33D5 JUMP JUMPDEST SWAP1 PUSH1 0x0 MSTORE PUSH1 0x20 PUSH1 0x0 KECCAK256 ADD SLOAD LT PUSH2 0x181F JUMPI PUSH1 0x40 MLOAD PUSH3 0x461BCD PUSH1 0xE5 SHL DUP2 MSTORE PUSH1 0x20 PUSH1 0x4 DUP3 ADD MSTORE PUSH1 0x2A PUSH1 0x24 DUP3 ADD MSTORE PUSH32 0x4D757374207761697420756E74696C2061756374696F6E7320617265206F7665 PUSH1 0x44 DUP3 ADD MSTORE PUSH10 0x7220746F20636C61696D PUSH1 0xB0 SHL PUSH1 0x64 DUP3 ADD MSTORE PUSH1 0x84 ADD PUSH2 0xCA8 JUMP JUMPDEST PUSH1 0x1 PUSH1 0x13 SLOAD LT ISZERO PUSH2 0x186A JUMPI PUSH1 0x40 MLOAD PUSH3 0x461BCD PUSH1 0xE5 SHL DUP2 MSTORE PUSH1 0x20 PUSH1 0x4 DUP3 ADD MSTORE PUSH1 0x15 PUSH1 0x24 DUP3 ADD MSTORE PUSH21 0x135D5CDD081A185D9948139195081D1BC81CD95B1B PUSH1 0x5A SHL PUSH1 0x44 DUP3 ADD MSTORE PUSH1 0x64 ADD PUSH2 0xCA8 JUMP JUMPDEST ADDRESS PUSH4 0x23B872DD CALLER DUP3 PUSH2 0x187A PUSH2 0xADB JUMP JUMPDEST PUSH1 0x40 MLOAD DUP5 PUSH4 0xFFFFFFFF AND PUSH1 0xE0 SHL DUP2 MSTORE PUSH1 0x4 ADD PUSH2 0x1898 SWAP4 SWAP3 SWAP2 SWAP1 PUSH2 0x3423 JUMP JUMPDEST PUSH1 0x20 PUSH1 0x40 MLOAD DUP1 DUP4 SUB DUP2 PUSH1 0x0 DUP8 GAS CALL ISZERO DUP1 ISZERO PUSH2 0x18B7 JUMPI RETURNDATASIZE PUSH1 0x0 DUP1 RETURNDATACOPY RETURNDATASIZE PUSH1 0x0 REVERT JUMPDEST POP POP POP POP PUSH1 0x40 MLOAD RETURNDATASIZE PUSH1 0x1F NOT PUSH1 0x1F DUP3 ADD AND DUP3 ADD DUP1 PUSH1 0x40 MSTORE POP DUP2 ADD SWAP1 PUSH2 0x18DB SWAP2 SWAP1 PUSH2 0x347C JUMP JUMPDEST PUSH2 0x1918 JUMPI PUSH1 0x40 MLOAD PUSH3 0x461BCD PUSH1 0xE5 SHL DUP2 MSTORE PUSH1 0x20 PUSH1 0x4 DUP3 ADD MSTORE PUSH1 0xE PUSH1 0x24 DUP3 ADD MSTORE PUSH14 0x78666572206D75737420776F726B PUSH1 0x90 SHL PUSH1 0x44 DUP3 ADD MSTORE PUSH1 0x64 ADD PUSH2 0xCA8 JUMP JUMPDEST PUSH1 0x13 DUP1 SLOAD SWAP1 PUSH1 0x0 PUSH2 0x1928 DUP4 PUSH2 0x34CE JUMP JUMPDEST SWAP1 SWAP2 SSTORE POP POP PUSH1 0xE DUP1 SLOAD PUSH1 0x1 DUP1 DUP3 ADD SWAP1 SWAP3 SSTORE PUSH1 0x0 PUSH32 0xBB7B4A454DC3493923482F07822329ED19E8244EFF582CC204F8554C3620C3FD SWAP1 SWAP2 ADD DUP2 SWAP1 SSTORE PUSH1 0xD DUP1 SLOAD DUP1 DUP5 ADD SWAP1 SWAP2 SSTORE TIMESTAMP PUSH32 0xD7B6990105719101DABEB77144F2A3385C8033ACD3AF97E9423A695E81AD1EB5 SWAP1 SWAP2 ADD SSTORE PUSH1 0xF DUP1 SLOAD SWAP3 DUP4 ADD DUP2 SSTORE SWAP1 MSTORE PUSH32 0x8D1108E10BCB7C27DDDFC02ED9D693A074039D026CF4EA4240B40F7D581AC802 ADD DUP1 SLOAD PUSH1 0x1 PUSH1 0x1 PUSH1 0xA0 SHL SUB NOT AND CALLER OR SWAP1 SSTORE PUSH1 0x40 MLOAD PUSH4 0x70A08231 PUSH1 0xE0 SHL DUP2 MSTORE ADDRESS PUSH1 0x4 DUP3 ADD DUP2 SWAP1 MSTORE PUSH1 0x17 SWAP2 PUSH4 0x70A08231 SWAP1 PUSH1 0x24 ADD PUSH1 0x20 PUSH1 0x40 MLOAD DUP1 DUP4 SUB DUP2 DUP7 GAS STATICCALL ISZERO DUP1 ISZERO PUSH2 0x1A0D JUMPI RETURNDATASIZE PUSH1 0x0 DUP1 RETURNDATACOPY RETURNDATASIZE PUSH1 0x0 REVERT JUMPDEST POP POP POP POP PUSH1 0x40 MLOAD RETURNDATASIZE PUSH1 0x1F NOT PUSH1 0x1F DUP3 ADD AND DUP3 ADD DUP1 PUSH1 0x40 MSTORE POP DUP2 ADD SWAP1 PUSH2 0x1A31 SWAP2 SWAP1 PUSH2 0x34B5 JUMP JUMPDEST PUSH1 0x2 SLOAD PUSH2 0x1A3E SWAP2 SWAP1 PUSH2 0x349E JUMP JUMPDEST DUP2 SLOAD PUSH1 0x1 DUP2 ADD DUP4 SSTORE PUSH1 0x0 SWAP3 DUP4 MSTORE PUSH1 0x20 DUP4 KECCAK256 ADD SSTORE PUSH1 0x14 DUP1 SLOAD SWAP2 PUSH2 0x1A5F DUP4 PUSH2 0x33EB JUMP JUMPDEST SWAP2 SWAP1 POP SSTORE POP JUMP JUMPDEST PUSH1 0xB DUP2 DUP2 SLOAD DUP2 LT PUSH2 0xDA9 JUMPI PUSH1 0x0 DUP1 REVERT JUMPDEST PUSH1 0x0 PUSH1 0x4 SLOAD PUSH1 0x3 SLOAD PUSH2 0x1A88 SWAP2 SWAP1 PUSH2 0x33B3 JUMP JUMPDEST PUSH2 0x1A93 SWAP1 PUSH1 0xF PUSH2 0x3404 JUMP JUMPDEST DUP3 GT ISZERO PUSH2 0x1AF8 JUMPI PUSH1 0x40 MLOAD PUSH3 0x461BCD PUSH1 0xE5 SHL DUP2 MSTORE PUSH1 0x20 PUSH1 0x4 DUP3 ADD MSTORE PUSH1 0x2D PUSH1 0x24 DUP3 ADD MSTORE PUSH32 0x5072696365206D75737420626520617420756E64657220313078207468616E20 PUSH1 0x44 DUP3 ADD MSTORE PUSH13 0x63757272656E74205072696365 PUSH1 0x98 SHL PUSH1 0x64 DUP3 ADD MSTORE PUSH1 0x84 ADD PUSH2 0xCA8 JUMP JUMPDEST PUSH1 0xF PUSH1 0x4 SLOAD PUSH1 0x3 SLOAD PUSH2 0x1B0A SWAP2 SWAP1 PUSH2 0x33B3 JUMP JUMPDEST PUSH2 0x1B14 SWAP2 SWAP1 PUSH2 0x33B3 JUMP JUMPDEST DUP3 LT ISZERO PUSH2 0x1B77 JUMPI PUSH1 0x40 MLOAD PUSH3 0x461BCD PUSH1 0xE5 SHL DUP2 MSTORE PUSH1 0x20 PUSH1 0x4 DUP3 ADD MSTORE PUSH1 0x2B PUSH1 0x24 DUP3 ADD MSTORE PUSH32 0x5072696365206D757374206265206174206C6561737420312F31307468206375 PUSH1 0x44 DUP3 ADD MSTORE PUSH11 0x7272656E74205072696365 PUSH1 0xA8 SHL PUSH1 0x64 DUP3 ADD MSTORE PUSH1 0x84 ADD PUSH2 0xCA8 JUMP JUMPDEST CALLER PUSH1 0x0 SWAP1 DUP2 MSTORE PUSH1 0x6 PUSH1 0x20 SWAP1 DUP2 MSTORE PUSH1 0x40 DUP1 DUP4 KECCAK256 SLOAD PUSH1 0x5 SWAP1 SWAP3 MSTORE SWAP1 SWAP2 KECCAK256 SLOAD PUSH2 0x1B9D SWAP2 SWAP1 PUSH2 0x3404 JUMP JUMPDEST PUSH1 0x3 PUSH1 0x0 DUP3 DUP3 SLOAD PUSH2 0x1BAE SWAP2 SWAP1 PUSH2 0x349E JUMP JUMPDEST SWAP1 SWAP2 SSTORE POP POP CALLER PUSH1 0x0 SWAP1 DUP2 MSTORE PUSH1 0x6 PUSH1 0x20 SWAP1 DUP2 MSTORE PUSH1 0x40 DUP1 DUP4 KECCAK256 DUP6 SWAP1 SSTORE PUSH1 0x5 SWAP1 SWAP2 MSTORE SWAP1 KECCAK256 SLOAD PUSH2 0x1BDB SWAP1 DUP4 SWAP1 PUSH2 0x3404 JUMP JUMPDEST PUSH1 0x3 PUSH1 0x0 DUP3 DUP3 SLOAD PUSH2 0x167C SWAP2 SWAP1 PUSH2 0x339B JUMP JUMPDEST PUSH1 0x60 PUSH1 0x8 DUP1 SLOAD PUSH2 0xA1C SWAP1 PUSH2 0x334B JUMP JUMPDEST PUSH1 0x0 PUSH1 0xD PUSH1 0x14 SLOAD DUP2 SLOAD DUP2 LT PUSH2 0x1C12 JUMPI PUSH2 0x1C12 PUSH2 0x33D5 JUMP JUMPDEST SWAP1 PUSH1 0x0 MSTORE PUSH1 0x20 PUSH1 0x0 KECCAK256 ADD SLOAD TIMESTAMP GT ISZERO PUSH2 0x1C6C JUMPI PUSH1 0x40 MLOAD PUSH3 0x461BCD PUSH1 0xE5 SHL DUP2 MSTORE PUSH1 0x20 PUSH1 0x4 DUP3 ADD MSTORE PUSH1 0x1C PUSH1 0x24 DUP3 ADD MSTORE PUSH32 0x4D75737420626964206265666F72652061756374696F6E20656E647300000000 PUSH1 0x44 DUP3 ADD MSTORE PUSH1 0x64 ADD PUSH2 0xCA8 JUMP JUMPDEST PUSH1 0xE PUSH1 0x14 SLOAD DUP2 SLOAD DUP2 LT PUSH2 0x1C81 JUMPI PUSH2 0x1C81 PUSH2 0x33D5 JUMP JUMPDEST SWAP1 PUSH1 0x0 MSTORE PUSH1 0x20 PUSH1 0x0 KECCAK256 ADD SLOAD CALLVALUE GT PUSH2 0x1CAA JUMPI PUSH1 0x40 MLOAD PUSH3 0x461BCD PUSH1 0xE5 SHL DUP2 MSTORE PUSH1 0x4 ADD PUSH2 0xCA8 SWAP1 PUSH2 0x3447 JUMP JUMPDEST PUSH1 0x0 PUSH1 0xF PUSH1 0x14 SLOAD DUP2 SLOAD DUP2 LT PUSH2 0x1CC1 JUMPI PUSH2 0x1CC1 PUSH2 0x33D5 JUMP JUMPDEST PUSH1 0x0 SWAP2 DUP3 MSTORE PUSH1 0x20 SWAP1 SWAP2 KECCAK256 ADD SLOAD PUSH1 0x14 SLOAD PUSH1 0xE DUP1 SLOAD PUSH1 0x1 PUSH1 0x1 PUSH1 0xA0 SHL SUB SWAP1 SWAP4 AND SWAP4 POP DUP4 SWAP3 PUSH2 0x8FC SWAP3 SWAP1 DUP2 LT PUSH2 0x1CF6 JUMPI PUSH2 0x1CF6 PUSH2 0x33D5 JUMP JUMPDEST SWAP1 PUSH1 0x0 MSTORE PUSH1 0x20 PUSH1 0x0 KECCAK256 ADD SLOAD SWAP1 DUP2 ISZERO MUL SWAP1 PUSH1 0x40 MLOAD PUSH1 0x0 PUSH1 0x40 MLOAD DUP1 DUP4 SUB DUP2 DUP6 DUP9 DUP9 CALL SWAP4 POP POP POP POP ISZERO DUP1 ISZERO PUSH2 0x1D2C JUMPI RETURNDATASIZE PUSH1 0x0 DUP1 RETURNDATACOPY RETURNDATASIZE PUSH1 0x0 REVERT JUMPDEST POP CALLVALUE PUSH1 0xE PUSH1 0x14 SLOAD DUP2 SLOAD DUP2 LT PUSH2 0x1D43 JUMPI PUSH2 0x1D43 PUSH2 0x33D5 JUMP JUMPDEST SWAP1 PUSH1 0x0 MSTORE PUSH1 0x20 PUSH1 0x0 KECCAK256 ADD DUP2 SWAP1 SSTORE POP DUP3 PUSH1 0xF PUSH1 0x14 SLOAD DUP2 SLOAD DUP2 LT PUSH2 0x1D67 JUMPI PUSH2 0x1D67 PUSH2 0x33D5 JUMP JUMPDEST PUSH1 0x0 SWAP2 DUP3 MSTORE PUSH1 0x20 SWAP1 SWAP2 KECCAK256 ADD DUP1 SLOAD PUSH1 0x1 PUSH1 0x1 PUSH1 0xA0 SHL SUB NOT AND PUSH1 0x1 PUSH1 0x1 PUSH1 0xA0 SHL SUB SWAP3 SWAP1 SWAP3 AND SWAP2 SWAP1 SWAP2 OR SWAP1 SSTORE PUSH1 0x40 MLOAD PUSH4 0x70A08231 PUSH1 0xE0 SHL DUP2 MSTORE ADDRESS PUSH1 0x4 DUP3 ADD DUP2 SWAP1 MSTORE SWAP1 PUSH4 0x70A08231 SWAP1 PUSH1 0x24 ADD PUSH1 0x20 PUSH1 0x40 MLOAD DUP1 DUP4 SUB DUP2 DUP7 GAS STATICCALL ISZERO DUP1 ISZERO PUSH2 0x1DCC JUMPI RETURNDATASIZE PUSH1 0x0 DUP1 RETURNDATACOPY RETURNDATASIZE PUSH1 0x0 REVERT JUMPDEST POP POP POP POP PUSH1 0x40 MLOAD RETURNDATASIZE PUSH1 0x1F NOT PUSH1 0x1F DUP3 ADD AND DUP3 ADD DUP1 PUSH1 0x40 MSTORE POP DUP2 ADD SWAP1 PUSH2 0x1DF0 SWAP2 SWAP1 PUSH2 0x34B5 JUMP JUMPDEST PUSH1 0x2 SLOAD PUSH2 0x1DFD SWAP2 SWAP1 PUSH2 0x349E JUMP JUMPDEST PUSH1 0x17 PUSH1 0x14 SLOAD DUP2 SLOAD DUP2 LT PUSH2 0x1E12 JUMPI PUSH2 0x1E12 PUSH2 0x33D5 JUMP JUMPDEST PUSH1 0x0 SWAP2 DUP3 MSTORE PUSH1 0x20 SWAP1 SWAP2 KECCAK256 ADD SSTORE POP PUSH1 0x1 SWAP3 SWAP2 POP POP JUMP JUMPDEST CALLER PUSH1 0x0 DUP2 DUP2 MSTORE PUSH1 0x1 PUSH1 0x20 SWAP1 DUP2 MSTORE PUSH1 0x40 DUP1 DUP4 KECCAK256 PUSH1 0x1 PUSH1 0x1 PUSH1 0xA0 SHL SUB DUP8 AND DUP5 MSTORE SWAP1 SWAP2 MSTORE DUP2 KECCAK256 SLOAD SWAP1 SWAP2 SWAP1 DUP4 DUP2 LT ISZERO PUSH2 0x1EAC JUMPI PUSH1 0x40 MLOAD PUSH3 0x461BCD PUSH1 0xE5 SHL DUP2 MSTORE PUSH1 0x20 PUSH1 0x4 DUP3 ADD MSTORE PUSH1 0x25 PUSH1 0x24 DUP3 ADD MSTORE PUSH32 0x45524332303A2064656372656173656420616C6C6F77616E63652062656C6F77 PUSH1 0x44 DUP3 ADD MSTORE PUSH5 0x207A65726F PUSH1 0xD8 SHL PUSH1 0x64 DUP3 ADD MSTORE PUSH1 0x84 ADD PUSH2 0xCA8 JUMP JUMPDEST PUSH2 0xAD0 DUP3 DUP7 DUP7 DUP5 SUB PUSH2 0x2B4A JUMP JUMPDEST PUSH1 0x0 PUSH1 0x14 SLOAD PUSH1 0x0 SUB PUSH2 0x1ECB JUMPI POP PUSH1 0x0 SWAP1 JUMP JUMPDEST PUSH1 0xD PUSH1 0x1 PUSH1 0x14 SLOAD PUSH2 0x1EDC SWAP2 SWAP1 PUSH2 0x349E JUMP JUMPDEST DUP2 SLOAD DUP2 LT PUSH2 0x1EEC JUMPI PUSH2 0x1EEC PUSH2 0x33D5 JUMP JUMPDEST SWAP1 PUSH1 0x0 MSTORE PUSH1 0x20 PUSH1 0x0 KECCAK256 ADD SLOAD SWAP1 POP SWAP1 JUMP JUMPDEST PUSH1 0x0 CALLER PUSH2 0xAAD DUP2 DUP6 DUP6 PUSH2 0x2CFA JUMP JUMPDEST PUSH1 0x40 MLOAD PUSH4 0x23B872DD PUSH1 0xE0 SHL DUP2 MSTORE ADDRESS SWAP1 PUSH4 0x23B872DD SWAP1 PUSH2 0x1F31 SWAP1 CALLER SWAP1 DUP5 SWAP1 DUP7 SWAP1 PUSH1 0x4 ADD PUSH2 0x3423 JUMP JUMPDEST PUSH1 0x20 PUSH1 0x40 MLOAD DUP1 DUP4 SUB DUP2 PUSH1 0x0 DUP8 GAS CALL ISZERO DUP1 ISZERO PUSH2 0x1F50 JUMPI RETURNDATASIZE PUSH1 0x0 DUP1 RETURNDATACOPY RETURNDATASIZE PUSH1 0x0 REVERT JUMPDEST POP POP POP POP PUSH1 0x40 MLOAD RETURNDATASIZE PUSH1 0x1F NOT PUSH1 0x1F DUP3 ADD AND DUP3 ADD DUP1 PUSH1 0x40 MSTORE POP DUP2 ADD SWAP1 PUSH2 0x1F74 SWAP2 SWAP1 PUSH2 0x347C JUMP JUMPDEST PUSH2 0x1FB1 JUMPI PUSH1 0x40 MLOAD PUSH3 0x461BCD PUSH1 0xE5 SHL DUP2 MSTORE PUSH1 0x20 PUSH1 0x4 DUP3 ADD MSTORE PUSH1 0xE PUSH1 0x24 DUP3 ADD MSTORE PUSH14 0x78666572206D75737420776F726B PUSH1 0x90 SHL PUSH1 0x44 DUP3 ADD MSTORE PUSH1 0x64 ADD PUSH2 0xCA8 JUMP JUMPDEST PUSH1 0x0 PUSH2 0x1FBC DUP3 PUSH2 0x2828 JUMP JUMPDEST SWAP1 POP PUSH1 0x0 PUSH2 0x1FCB PUSH1 0x3 DUP4 PUSH2 0x33B3 JUMP JUMPDEST PUSH1 0x10 SLOAD SWAP1 SWAP2 POP PUSH1 0x1 PUSH1 0x1 PUSH1 0xA0 SHL SUB AND ISZERO PUSH2 0x20E5 JUMPI PUSH1 0x10 SLOAD PUSH1 0x1 PUSH1 0x1 PUSH1 0xA0 SHL SUB AND PUSH4 0xA9059CBB CALLER PUSH2 0x1FFC DUP5 PUSH1 0x2 PUSH2 0x3404 JUMP JUMPDEST PUSH1 0x40 MLOAD PUSH1 0x1 PUSH1 0x1 PUSH1 0xE0 SHL SUB NOT PUSH1 0xE0 DUP6 SWAP1 SHL AND DUP2 MSTORE PUSH1 0x1 PUSH1 0x1 PUSH1 0xA0 SHL SUB SWAP1 SWAP3 AND PUSH1 0x4 DUP4 ADD MSTORE PUSH1 0x24 DUP3 ADD MSTORE PUSH1 0x44 ADD PUSH1 0x20 PUSH1 0x40 MLOAD DUP1 DUP4 SUB DUP2 PUSH1 0x0 DUP8 GAS CALL ISZERO DUP1 ISZERO PUSH2 0x2047 JUMPI RETURNDATASIZE PUSH1 0x0 DUP1 RETURNDATACOPY RETURNDATASIZE PUSH1 0x0 REVERT JUMPDEST POP POP POP POP PUSH1 0x40 MLOAD RETURNDATASIZE PUSH1 0x1F NOT PUSH1 0x1F DUP3 ADD AND DUP3 ADD DUP1 PUSH1 0x40 MSTORE POP DUP2 ADD SWAP1 PUSH2 0x206B SWAP2 SWAP1 PUSH2 0x347C JUMP JUMPDEST POP PUSH1 0x10 SLOAD PUSH1 0x19 SLOAD PUSH1 0x40 MLOAD PUSH4 0xA9059CBB PUSH1 0xE0 SHL DUP2 MSTORE PUSH1 0x1 PUSH1 0x1 PUSH1 0xA0 SHL SUB SWAP2 DUP3 AND PUSH1 0x4 DUP3 ADD MSTORE PUSH1 0x24 DUP2 ADD DUP5 SWAP1 MSTORE SWAP2 AND SWAP1 PUSH4 0xA9059CBB SWAP1 PUSH1 0x44 ADD PUSH1 0x20 PUSH1 0x40 MLOAD DUP1 DUP4 SUB DUP2 PUSH1 0x0 DUP8 GAS CALL ISZERO DUP1 ISZERO PUSH2 0x20C1 JUMPI RETURNDATASIZE PUSH1 0x0 DUP1 RETURNDATACOPY RETURNDATASIZE PUSH1 0x0 REVERT JUMPDEST POP POP POP POP PUSH1 0x40 MLOAD RETURNDATASIZE PUSH1 0x1F NOT PUSH1 0x1F DUP3 ADD AND DUP3 ADD DUP1 PUSH1 0x40 MSTORE POP DUP2 ADD SWAP1 PUSH2 0xF12 SWAP2 SWAP1 PUSH2 0x347C JUMP JUMPDEST PUSH1 0x19 SLOAD CALLER SWAP1 PUSH1 0x1 PUSH1 0x1 PUSH1 0xA0 SHL SUB AND DUP2 PUSH2 0x8FC PUSH2 0x2102 DUP6 PUSH1 0x2 PUSH2 0x3404 JUMP JUMPDEST PUSH1 0x40 MLOAD DUP2 ISZERO SWAP1 SWAP3 MUL SWAP2 PUSH1 0x0 DUP2 DUP2 DUP2 DUP6 DUP9 DUP9 CALL SWAP4 POP POP POP POP ISZERO DUP1 ISZERO PUSH2 0x212A JUMPI RETURNDATASIZE PUSH1 0x0 DUP1 RETURNDATACOPY RETURNDATASIZE PUSH1 0x0 REVERT JUMPDEST POP PUSH1 0x40 MLOAD PUSH1 0x1 PUSH1 0x1 PUSH1 0xA0 SHL SUB DUP3 AND SWAP1 DUP5 ISZERO PUSH2 0x8FC MUL SWAP1 DUP6 SWAP1 PUSH1 0x0 DUP2 DUP2 DUP2 DUP6 DUP9 DUP9 CALL SWAP4 POP POP POP POP ISZERO DUP1 ISZERO PUSH2 0x2161 JUMPI RETURNDATASIZE PUSH1 0x0 DUP1 RETURNDATACOPY RETURNDATASIZE PUSH1 0x0 REVERT JUMPDEST POP POP POP POP POP POP JUMP JUMPDEST PUSH1 0xF DUP3 DUP2 SLOAD DUP2 LT PUSH2 0x217C JUMPI PUSH2 0x217C PUSH2 0x33D5 JUMP JUMPDEST PUSH1 0x0 SWAP2 DUP3 MSTORE PUSH1 0x20 SWAP1 SWAP2 KECCAK256 ADD SLOAD PUSH1 0x1 PUSH1 0x1 PUSH1 0xA0 SHL SUB AND CALLER EQ PUSH2 0x21D7 JUMPI PUSH1 0x40 MLOAD PUSH3 0x461BCD PUSH1 0xE5 SHL DUP2 MSTORE PUSH1 0x20 PUSH1 0x4 DUP3 ADD MSTORE PUSH1 0x15 PUSH1 0x24 DUP3 ADD MSTORE PUSH21 0x26BAB9BA103430BB32903BB7B71030BAB1BA34B7B7 PUSH1 0x59 SHL PUSH1 0x44 DUP3 ADD MSTORE PUSH1 0x64 ADD PUSH2 0xCA8 JUMP JUMPDEST PUSH1 0xF DUP3 DUP2 SLOAD DUP2 LT PUSH2 0x21EA JUMPI PUSH2 0x21EA PUSH2 0x33D5 JUMP JUMPDEST PUSH1 0x0 SWAP2 DUP3 MSTORE PUSH1 0x20 SWAP1 SWAP2 KECCAK256 ADD SLOAD PUSH1 0x1 PUSH1 0x1 PUSH1 0xA0 SHL SUB AND ADDRESS SUB PUSH2 0x2246 JUMPI PUSH1 0x40 MLOAD PUSH3 0x461BCD PUSH1 0xE5 SHL DUP2 MSTORE PUSH1 0x20 PUSH1 0x4 DUP3 ADD MSTORE PUSH1 0x16 PUSH1 0x24 DUP3 ADD MSTORE PUSH22 0x4E6F2073656C6620636C61696D696E67207468696E67 PUSH1 0x50 SHL PUSH1 0x44 DUP3 ADD MSTORE PUSH1 0x64 ADD PUSH2 0xCA8 JUMP JUMPDEST TIMESTAMP PUSH1 0xD DUP4 DUP2 SLOAD DUP2 LT PUSH2 0x225A JUMPI PUSH2 0x225A PUSH2 0x33D5 JUMP JUMPDEST SWAP1 PUSH1 0x0 MSTORE PUSH1 0x20 PUSH1 0x0 KECCAK256 ADD SLOAD PUSH1 0x1 PUSH2 0x2271 SWAP2 SWAP1 PUSH2 0x339B JUMP JUMPDEST LT PUSH2 0x22BE JUMPI PUSH1 0x40 MLOAD PUSH3 0x461BCD PUSH1 0xE5 SHL DUP2 MSTORE PUSH1 0x20 PUSH1 0x4 DUP3 ADD MSTORE PUSH1 0x17 PUSH1 0x24 DUP3 ADD MSTORE PUSH32 0x416674657220626C6F636B206973206F76657277697468000000000000000000 PUSH1 0x44 DUP3 ADD MSTORE PUSH1 0x64 ADD PUSH2 0xCA8 JUMP JUMPDEST PUSH1 0xC SLOAD PUSH1 0x40 MLOAD PUSH4 0x95EA7B3 PUSH1 0xE0 SHL DUP2 MSTORE CALLER PUSH1 0x4 DUP3 ADD MSTORE PUSH1 0x24 DUP2 ADD DUP4 SWAP1 MSTORE PUSH1 0x1 PUSH1 0x1 PUSH1 0xA0 SHL SUB SWAP1 SWAP2 AND SWAP1 PUSH4 0x95EA7B3 SWAP1 PUSH1 0x44 ADD PUSH1 0x0 PUSH1 0x40 MLOAD DUP1 DUP4 SUB DUP2 PUSH1 0x0 DUP8 DUP1 EXTCODESIZE ISZERO DUP1 ISZERO PUSH2 0x230A JUMPI PUSH1 0x0 DUP1 REVERT JUMPDEST POP GAS CALL ISZERO DUP1 ISZERO PUSH2 0x231E JUMPI RETURNDATASIZE PUSH1 0x0 DUP1 RETURNDATACOPY RETURNDATASIZE PUSH1 0x0 REVERT JUMPDEST POP POP PUSH1 0xC SLOAD PUSH1 0x40 MLOAD PUSH4 0x23B872DD PUSH1 0xE0 SHL DUP2 MSTORE PUSH1 0x1 PUSH1 0x1 PUSH1 0xA0 SHL SUB SWAP1 SWAP2 AND SWAP3 POP PUSH4 0x23B872DD SWAP2 POP PUSH2 0x2356 SWAP1 ADDRESS SWAP1 CALLER SWAP1 DUP7 SWAP1 PUSH1 0x4 ADD PUSH2 0x3423 JUMP JUMPDEST PUSH1 0x0 PUSH1 0x40 MLOAD DUP1 DUP4 SUB DUP2 PUSH1 0x0 DUP8 DUP1 EXTCODESIZE ISZERO DUP1 ISZERO PUSH2 0x2370 JUMPI PUSH1 0x0 DUP1 REVERT JUMPDEST POP GAS CALL ISZERO DUP1 ISZERO PUSH2 0x2384 JUMPI RETURNDATASIZE PUSH1 0x0 DUP1 RETURNDATACOPY RETURNDATASIZE PUSH1 0x0 REVERT JUMPDEST POP POP POP POP ADDRESS PUSH1 0xF DUP4 DUP2 SLOAD DUP2 LT PUSH2 0x239C JUMPI PUSH2 0x239C PUSH2 0x33D5 JUMP JUMPDEST PUSH1 0x0 SWAP2 DUP3 MSTORE PUSH1 0x20 DUP3 KECCAK256 ADD DUP1 SLOAD PUSH1 0x1 PUSH1 0x1 PUSH1 0xA0 SHL SUB NOT AND PUSH1 0x1 PUSH1 0x1 PUSH1 0xA0 SHL SUB SWAP4 SWAP1 SWAP4 AND SWAP3 SWAP1 SWAP3 OR SWAP1 SWAP2 SSTORE PUSH1 0x18 DUP1 SLOAD PUSH1 0x1 DUP2 ADD DUP3 SSTORE SWAP2 MSTORE PUSH32 0xB13D2D76D1F4B7BE834882E410B3E3A8AFAF69F83600AE24DB354391D2378D2E ADD SSTORE POP JUMP JUMPDEST PUSH1 0xA DUP2 DUP2 SLOAD DUP2 LT PUSH2 0x129D JUMPI PUSH1 0x0 DUP1 REVERT JUMPDEST PUSH1 0xC SLOAD PUSH1 0x40 MLOAD PUSH4 0x23B872DD PUSH1 0xE0 SHL DUP2 MSTORE PUSH1 0x1 PUSH1 0x1 PUSH1 0xA0 SHL SUB SWAP1 SWAP2 AND SWAP1 PUSH4 0x23B872DD SWAP1 PUSH2 0x243B SWAP1 ADDRESS SWAP1 CALLER SWAP1 DUP7 SWAP1 PUSH1 0x4 ADD PUSH2 0x3423 JUMP JUMPDEST PUSH1 0x0 PUSH1 0x40 MLOAD DUP1 DUP4 SUB DUP2 PUSH1 0x0 DUP8 DUP1 EXTCODESIZE ISZERO DUP1 ISZERO PUSH2 0x2455 JUMPI PUSH1 0x0 DUP1 REVERT JUMPDEST POP GAS CALL ISZERO DUP1 ISZERO PUSH2 0x2469 JUMPI RETURNDATASIZE PUSH1 0x0 DUP1 RETURNDATACOPY RETURNDATASIZE PUSH1 0x0 REVERT JUMPDEST POP POP POP POP POP JUMP JUMPDEST PUSH1 0x0 PUSH1 0xD PUSH1 0x1 PUSH1 0x14 SLOAD PUSH2 0x2483 SWAP2 SWAP1 PUSH2 0x349E JUMP JUMPDEST DUP2 SLOAD DUP2 LT PUSH2 0x2493 JUMPI PUSH2 0x2493 PUSH2 0x33D5 JUMP JUMPDEST SWAP1 PUSH1 0x0 MSTORE PUSH1 0x20 PUSH1 0x0 KECCAK256 ADD SLOAD TIMESTAMP GT ISZERO PUSH2 0x24ED JUMPI PUSH1 0x40 MLOAD PUSH3 0x461BCD PUSH1 0xE5 SHL DUP2 MSTORE PUSH1 0x20 PUSH1 0x4 DUP3 ADD MSTORE PUSH1 0x1C PUSH1 0x24 DUP3 ADD MSTORE PUSH32 0x4D75737420626964206265666F72652061756374696F6E20656E647300000000 PUSH1 0x44 DUP3 ADD MSTORE PUSH1 0x64 ADD PUSH2 0xCA8 JUMP JUMPDEST PUSH1 0xE PUSH1 0x1 PUSH1 0x14 SLOAD PUSH2 0x24FE SWAP2 SWAP1 PUSH2 0x349E JUMP JUMPDEST DUP2 SLOAD DUP2 LT PUSH2 0x250E JUMPI PUSH2 0x250E PUSH2 0x33D5 JUMP JUMPDEST SWAP1 PUSH1 0x0 MSTORE PUSH1 0x20 PUSH1 0x0 KECCAK256 ADD SLOAD DUP3 GT PUSH2 0x2537 JUMPI PUSH1 0x40 MLOAD PUSH3 0x461BCD PUSH1 0xE5 SHL DUP2 MSTORE PUSH1 0x4 ADD PUSH2 0xCA8 SWAP1 PUSH2 0x3447 JUMP JUMPDEST PUSH1 0x10 SLOAD PUSH1 0x40 MLOAD PUSH4 0x23B872DD PUSH1 0xE0 SHL DUP2 MSTORE PUSH1 0x1 PUSH1 0x1 PUSH1 0xA0 SHL SUB SWAP1 SWAP2 AND SWAP1 PUSH4 0x23B872DD SWAP1 PUSH2 0x256B SWAP1 CALLER SWAP1 ADDRESS SWAP1 DUP8 SWAP1 PUSH1 0x4 ADD PUSH2 0x3423 JUMP JUMPDEST PUSH1 0x20 PUSH1 0x40 MLOAD DUP1 DUP4 SUB DUP2 PUSH1 0x0 DUP8 GAS CALL ISZERO DUP1 ISZERO PUSH2 0x258A JUMPI RETURNDATASIZE PUSH1 0x0 DUP1 RETURNDATACOPY RETURNDATASIZE PUSH1 0x0 REVERT JUMPDEST POP POP POP POP PUSH1 0x40 MLOAD RETURNDATASIZE PUSH1 0x1F NOT PUSH1 0x1F DUP3 ADD AND DUP3 ADD DUP1 PUSH1 0x40 MSTORE POP DUP2 ADD SWAP1 PUSH2 0x25AE SWAP2 SWAP1 PUSH2 0x347C JUMP JUMPDEST PUSH2 0x25EF JUMPI PUSH1 0x40 MLOAD PUSH3 0x461BCD PUSH1 0xE5 SHL DUP2 MSTORE PUSH1 0x20 PUSH1 0x4 DUP3 ADD MSTORE PUSH1 0x12 PUSH1 0x24 DUP3 ADD MSTORE PUSH18 0x7472616E73666572206D75737420776F726B PUSH1 0x70 SHL PUSH1 0x44 DUP3 ADD MSTORE PUSH1 0x64 ADD PUSH2 0xCA8 JUMP JUMPDEST PUSH1 0x10 SLOAD PUSH1 0x14 SLOAD PUSH1 0x1 PUSH1 0x1 PUSH1 0xA0 SHL SUB SWAP1 SWAP2 AND SWAP1 PUSH4 0xA9059CBB SWAP1 PUSH1 0xF SWAP1 PUSH2 0x2616 SWAP1 PUSH1 0x1 SWAP1 PUSH2 0x349E JUMP JUMPDEST DUP2 SLOAD DUP2 LT PUSH2 0x2626 JUMPI PUSH2 0x2626 PUSH2 0x33D5 JUMP JUMPDEST PUSH1 0x0 SWAP2 DUP3 MSTORE PUSH1 0x20 SWAP1 SWAP2 KECCAK256 ADD SLOAD PUSH1 0x14 SLOAD PUSH1 0x1 PUSH1 0x1 PUSH1 0xA0 SHL SUB SWAP1 SWAP2 AND SWAP1 PUSH1 0xE SWAP1 PUSH2 0x2650 SWAP1 PUSH1 0x1 SWAP1 PUSH2 0x349E JUMP JUMPDEST DUP2 SLOAD DUP2 LT PUSH2 0x2660 JUMPI PUSH2 0x2660 PUSH2 0x33D5 JUMP JUMPDEST PUSH1 0x0 SWAP2 DUP3 MSTORE PUSH1 0x20 SWAP1 SWAP2 KECCAK256 ADD SLOAD PUSH1 0x40 MLOAD PUSH1 0x1 PUSH1 0x1 PUSH1 0xE0 SHL SUB NOT PUSH1 0xE0 DUP6 SWAP1 SHL AND DUP2 MSTORE PUSH1 0x1 PUSH1 0x1 PUSH1 0xA0 SHL SUB SWAP1 SWAP3 AND PUSH1 0x4 DUP4 ADD MSTORE PUSH1 0x24 DUP3 ADD MSTORE PUSH1 0x44 ADD PUSH1 0x20 PUSH1 0x40 MLOAD DUP1 DUP4 SUB DUP2 PUSH1 0x0 DUP8 GAS CALL ISZERO DUP1 ISZERO PUSH2 0x26B7 JUMPI RETURNDATASIZE PUSH1 0x0 DUP1 RETURNDATACOPY RETURNDATASIZE PUSH1 0x0 REVERT JUMPDEST POP POP POP POP PUSH1 0x40 MLOAD RETURNDATASIZE PUSH1 0x1F NOT PUSH1 0x1F DUP3 ADD AND DUP3 ADD DUP1 PUSH1 0x40 MSTORE POP DUP2 ADD SWAP1 PUSH2 0x26DB SWAP2 SWAP1 PUSH2 0x347C JUMP JUMPDEST PUSH2 0x271F JUMPI PUSH1 0x40 MLOAD PUSH3 0x461BCD PUSH1 0xE5 SHL DUP2 MSTORE PUSH1 0x20 PUSH1 0x4 DUP3 ADD MSTORE PUSH1 0x15 PUSH1 0x24 DUP3 ADD MSTORE PUSH21 0x135D5CDD081E19995C88189858DAC81D1BDC109A59 PUSH1 0x5A SHL PUSH1 0x44 DUP3 ADD MSTORE PUSH1 0x64 ADD PUSH2 0xCA8 JUMP JUMPDEST DUP2 PUSH1 0xE PUSH1 0x1 PUSH1 0x14 SLOAD PUSH2 0x2731 SWAP2 SWAP1 PUSH2 0x349E JUMP JUMPDEST DUP2 SLOAD DUP2 LT PUSH2 0x2741 JUMPI PUSH2 0x2741 PUSH2 0x33D5 JUMP JUMPDEST SWAP1 PUSH1 0x0 MSTORE PUSH1 0x20 PUSH1 0x0 KECCAK256 ADD DUP2 SWAP1 SSTORE POP DUP3 PUSH1 0xF PUSH1 0x1 PUSH1 0x14 SLOAD PUSH2 0x2761 SWAP2 SWAP1 PUSH2 0x349E JUMP JUMPDEST DUP2 SLOAD DUP2 LT PUSH2 0x2771 JUMPI PUSH2 0x2771 PUSH2 0x33D5 JUMP JUMPDEST PUSH1 0x0 SWAP2 DUP3 MSTORE PUSH1 0x20 SWAP1 SWAP2 KECCAK256 ADD DUP1 SLOAD PUSH1 0x1 PUSH1 0x1 PUSH1 0xA0 SHL SUB NOT AND PUSH1 0x1 PUSH1 0x1 PUSH1 0xA0 SHL SUB SWAP3 SWAP1 SWAP3 AND SWAP2 SWAP1 SWAP2 OR SWAP1 SSTORE PUSH1 0x40 MLOAD PUSH4 0x70A08231 PUSH1 0xE0 SHL DUP2 MSTORE ADDRESS PUSH1 0x4 DUP3 ADD DUP2 SWAP1 MSTORE SWAP1 PUSH4 0x70A08231 SWAP1 PUSH1 0x24 ADD PUSH1 0x20 PUSH1 0x40 MLOAD DUP1 DUP4 SUB DUP2 DUP7 GAS STATICCALL ISZERO DUP1 ISZERO PUSH2 0x27D6 JUMPI RETURNDATASIZE PUSH1 0x0 DUP1 RETURNDATACOPY RETURNDATASIZE PUSH1 0x0 REVERT JUMPDEST POP POP POP POP PUSH1 0x40 MLOAD RETURNDATASIZE PUSH1 0x1F NOT PUSH1 0x1F DUP3 ADD AND DUP3 ADD DUP1 PUSH1 0x40 MSTORE POP DUP2 ADD SWAP1 PUSH2 0x27FA SWAP2 SWAP1 PUSH2 0x34B5 JUMP JUMPDEST PUSH1 0x2 SLOAD PUSH2 0x2807 SWAP2 SWAP1 PUSH2 0x349E JUMP JUMPDEST PUSH1 0x17 PUSH1 0x1 PUSH1 0x14 SLOAD PUSH2 0x2818 SWAP2 SWAP1 PUSH2 0x349E JUMP JUMPDEST DUP2 SLOAD DUP2 LT PUSH2 0x1E12 JUMPI PUSH2 0x1E12 PUSH2 0x33D5 JUMP JUMPDEST PUSH1 0x0 PUSH1 0x14 SLOAD PUSH1 0x0 EQ DUP1 PUSH2 0x2865 JUMPI POP PUSH1 0x14 SLOAD PUSH1 0x1 EQ DUP1 ISZERO PUSH2 0x2865 JUMPI POP PUSH1 0xD PUSH1 0x0 DUP2 SLOAD DUP2 LT PUSH2 0x2857 JUMPI PUSH2 0x2857 PUSH2 0x33D5 JUMP JUMPDEST SWAP1 PUSH1 0x0 MSTORE PUSH1 0x20 PUSH1 0x0 KECCAK256 ADD SLOAD TIMESTAMP LT JUMPDEST ISZERO PUSH2 0x2872 JUMPI POP PUSH1 0x0 SWAP2 SWAP1 POP JUMP JUMPDEST PUSH1 0x0 PUSH1 0x14 SLOAD PUSH8 0xFFFFFFFFFFFFFFFF DUP2 GT ISZERO PUSH2 0x288F JUMPI PUSH2 0x288F PUSH2 0x31A8 JUMP JUMPDEST PUSH1 0x40 MLOAD SWAP1 DUP1 DUP3 MSTORE DUP1 PUSH1 0x20 MUL PUSH1 0x20 ADD DUP3 ADD PUSH1 0x40 MSTORE DUP1 ISZERO PUSH2 0x28B8 JUMPI DUP2 PUSH1 0x20 ADD PUSH1 0x20 DUP3 MUL DUP1 CALLDATASIZE DUP4 CALLDATACOPY ADD SWAP1 POP JUMPDEST POP SWAP1 POP PUSH1 0x0 JUMPDEST PUSH1 0x14 SLOAD DUP2 LT ISZERO PUSH2 0x28F8 JUMPI DUP1 DUP3 DUP3 DUP2 MLOAD DUP2 LT PUSH2 0x28DB JUMPI PUSH2 0x28DB PUSH2 0x33D5 JUMP JUMPDEST PUSH1 0x20 SWAP1 DUP2 MUL SWAP2 SWAP1 SWAP2 ADD ADD MSTORE DUP1 PUSH2 0x28F0 DUP2 PUSH2 0x33EB JUMP JUMPDEST SWAP2 POP POP PUSH2 0x28BE JUMP JUMPDEST POP DUP1 MLOAD PUSH1 0x0 SWAP1 DUP2 SWAP1 DUP2 SWAP1 JUMPDEST DUP5 MLOAD DUP5 LT ISZERO PUSH2 0x29EB JUMPI PUSH1 0xD DUP6 DUP6 DUP2 MLOAD DUP2 LT PUSH2 0x2920 JUMPI PUSH2 0x2920 PUSH2 0x33D5 JUMP JUMPDEST PUSH1 0x20 MUL PUSH1 0x20 ADD ADD MLOAD DUP2 SLOAD DUP2 LT PUSH2 0x2938 JUMPI PUSH2 0x2938 PUSH2 0x33D5 JUMP JUMPDEST SWAP1 PUSH1 0x0 MSTORE PUSH1 0x20 PUSH1 0x0 KECCAK256 ADD SLOAD TIMESTAMP LT ISZERO PUSH2 0x2951 JUMPI POP DUP3 PUSH2 0x29EB JUMP JUMPDEST PUSH1 0xE DUP6 DUP6 DUP2 MLOAD DUP2 LT PUSH2 0x2965 JUMPI PUSH2 0x2965 PUSH2 0x33D5 JUMP JUMPDEST PUSH1 0x20 MUL PUSH1 0x20 ADD ADD MLOAD DUP2 SLOAD DUP2 LT PUSH2 0x297D JUMPI PUSH2 0x297D PUSH2 0x33D5 JUMP JUMPDEST SWAP1 PUSH1 0x0 MSTORE PUSH1 0x20 PUSH1 0x0 KECCAK256 ADD SLOAD DUP4 PUSH2 0x2993 SWAP2 SWAP1 PUSH2 0x339B JUMP JUMPDEST SWAP3 POP PUSH1 0x17 DUP6 DUP6 DUP2 MLOAD DUP2 LT PUSH2 0x29A9 JUMPI PUSH2 0x29A9 PUSH2 0x33D5 JUMP JUMPDEST PUSH1 0x20 MUL PUSH1 0x20 ADD ADD MLOAD DUP2 SLOAD DUP2 LT PUSH2 0x29C1 JUMPI PUSH2 0x29C1 PUSH2 0x33D5 JUMP JUMPDEST SWAP1 PUSH1 0x0 MSTORE PUSH1 0x20 PUSH1 0x0 KECCAK256 ADD SLOAD DUP3 PUSH2 0x29D7 SWAP2 SWAP1 PUSH2 0x339B JUMP JUMPDEST SWAP2 POP DUP4 PUSH2 0x29E3 DUP2 PUSH2 0x33EB JUMP JUMPDEST SWAP5 POP POP PUSH2 0x2903 JUMP JUMPDEST PUSH2 0x29F5 DUP2 DUP4 PUSH2 0x33B3 JUMP JUMPDEST PUSH2 0x29FF DUP5 DUP10 PUSH2 0x3404 JUMP JUMPDEST PUSH2 0x2A09 SWAP2 SWAP1 PUSH2 0x33B3 JUMP JUMPDEST SWAP8 SWAP7 POP POP POP POP POP POP POP JUMP JUMPDEST PUSH1 0x4 DUP1 SLOAD PUSH1 0x40 MLOAD PUSH4 0x70A08231 PUSH1 0xE0 SHL DUP2 MSTORE ADDRESS SWAP3 DUP2 ADD DUP4 SWAP1 MSTORE PUSH1 0x0 SWAP3 SWAP1 PUSH4 0x70A08231 SWAP1 PUSH1 0x24 ADD PUSH1 0x20 PUSH1 0x40 MLOAD DUP1 DUP4 SUB DUP2 DUP7 GAS STATICCALL ISZERO DUP1 ISZERO PUSH2 0x2A56 JUMPI RETURNDATASIZE PUSH1 0x0 DUP1 RETURNDATACOPY RETURNDATASIZE PUSH1 0x0 REVERT JUMPDEST POP POP POP POP PUSH1 0x40 MLOAD RETURNDATASIZE PUSH1 0x1F NOT PUSH1 0x1F DUP3 ADD AND DUP3 ADD DUP1 PUSH1 0x40 MSTORE POP DUP2 ADD SWAP1 PUSH2 0x2A7A SWAP2 SWAP1 PUSH2 0x34B5 JUMP JUMPDEST PUSH1 0x3 SLOAD PUSH2 0xAF1 SWAP2 SWAP1 PUSH2 0x349E JUMP JUMPDEST PUSH1 0x0 DUP1 JUMPDEST PUSH1 0x14 SLOAD DUP2 LT ISZERO PUSH2 0x2B0D JUMPI DUP3 PUSH1 0x1 PUSH1 0x1 PUSH1 0xA0 SHL SUB AND PUSH1 0xF DUP3 DUP2 SLOAD DUP2 LT PUSH2 0x2AB2 JUMPI PUSH2 0x2AB2 PUSH2 0x33D5 JUMP JUMPDEST PUSH1 0x0 SWAP2 DUP3 MSTORE PUSH1 0x20 SWAP1 SWAP2 KECCAK256 ADD SLOAD PUSH1 0x1 PUSH1 0x1 PUSH1 0xA0 SHL SUB AND EQ DUP1 ISZERO PUSH2 0x2AF0 JUMPI POP TIMESTAMP PUSH1 0xD DUP3 DUP2 SLOAD DUP2 LT PUSH2 0x2AE3 JUMPI PUSH2 0x2AE3 PUSH2 0x33D5 JUMP JUMPDEST SWAP1 PUSH1 0x0 MSTORE PUSH1 0x20 PUSH1 0x0 KECCAK256 ADD SLOAD LT JUMPDEST ISZERO PUSH2 0x2AFB JUMPI SWAP3 SWAP2 POP POP JUMP JUMPDEST DUP1 PUSH2 0x2B05 DUP2 PUSH2 0x33EB JUMP JUMPDEST SWAP2 POP POP PUSH2 0x2A8B JUMP JUMPDEST POP PUSH1 0x0 NOT SWAP3 SWAP2 POP POP JUMP JUMPDEST PUSH1 0x0 PUSH1 0x14 SLOAD PUSH1 0x0 SUB PUSH2 0x2B29 JUMPI POP PUSH1 0x0 SWAP1 JUMP JUMPDEST PUSH1 0xE PUSH1 0x1 PUSH1 0x14 SLOAD PUSH2 0x1EDC SWAP2 SWAP1 PUSH2 0x349E JUMP JUMPDEST PUSH1 0xD DUP2 DUP2 SLOAD DUP2 LT PUSH2 0xDA9 JUMPI PUSH1 0x0 DUP1 REVERT JUMPDEST PUSH1 0x1 PUSH1 0x1 PUSH1 0xA0 SHL SUB DUP4 AND PUSH2 0x2BAC JUMPI PUSH1 0x40 MLOAD PUSH3 0x461BCD PUSH1 0xE5 SHL DUP2 MSTORE PUSH1 0x20 PUSH1 0x4 DUP3 ADD MSTORE PUSH1 0x24 DUP1 DUP3 ADD MSTORE PUSH32 0x45524332303A20617070726F76652066726F6D20746865207A65726F20616464 PUSH1 0x44 DUP3 ADD MSTORE PUSH4 0x72657373 PUSH1 0xE0 SHL PUSH1 0x64 DUP3 ADD MSTORE PUSH1 0x84 ADD PUSH2 0xCA8 JUMP JUMPDEST PUSH1 0x1 PUSH1 0x1 PUSH1 0xA0 SHL SUB DUP3 AND PUSH2 0x2C0D JUMPI PUSH1 0x40 MLOAD PUSH3 0x461BCD PUSH1 0xE5 SHL DUP2 MSTORE PUSH1 0x20 PUSH1 0x4 DUP3 ADD MSTORE PUSH1 0x22 PUSH1 0x24 DUP3 ADD MSTORE PUSH32 0x45524332303A20617070726F766520746F20746865207A65726F206164647265 PUSH1 0x44 DUP3 ADD MSTORE PUSH2 0x7373 PUSH1 0xF0 SHL PUSH1 0x64 DUP3 ADD MSTORE PUSH1 0x84 ADD PUSH2 0xCA8 JUMP JUMPDEST PUSH1 0x1 PUSH1 0x1 PUSH1 0xA0 SHL SUB DUP4 DUP2 AND PUSH1 0x0 DUP2 DUP2 MSTORE PUSH1 0x1 PUSH1 0x20 SWAP1 DUP2 MSTORE PUSH1 0x40 DUP1 DUP4 KECCAK256 SWAP5 DUP8 AND DUP1 DUP5 MSTORE SWAP5 DUP3 MSTORE SWAP2 DUP3 SWAP1 KECCAK256 DUP6 SWAP1 SSTORE SWAP1 MLOAD DUP5 DUP2 MSTORE PUSH32 0x8C5BE1E5EBEC7D5BD14F71427D1E84F3DD0314C0F7B2291E5B200AC8C7C3B925 SWAP2 ADD PUSH1 0x40 MLOAD DUP1 SWAP2 SUB SWAP1 LOG3 POP POP POP JUMP JUMPDEST PUSH1 0x1 PUSH1 0x1 PUSH1 0xA0 SHL SUB DUP4 DUP2 AND PUSH1 0x0 SWAP1 DUP2 MSTORE PUSH1 0x1 PUSH1 0x20 SWAP1 DUP2 MSTORE PUSH1 0x40 DUP1 DUP4 KECCAK256 SWAP4 DUP7 AND DUP4 MSTORE SWAP3 SWAP1 MSTORE KECCAK256 SLOAD PUSH1 0x0 NOT DUP2 EQ PUSH2 0xF12 JUMPI DUP2 DUP2 LT ISZERO PUSH2 0x2CED JUMPI PUSH1 0x40 MLOAD PUSH3 0x461BCD PUSH1 0xE5 SHL DUP2 MSTORE PUSH1 0x20 PUSH1 0x4 DUP3 ADD MSTORE PUSH1 0x1D PUSH1 0x24 DUP3 ADD MSTORE PUSH32 0x45524332303A20696E73756666696369656E7420616C6C6F77616E6365000000 PUSH1 0x44 DUP3 ADD MSTORE PUSH1 0x64 ADD PUSH2 0xCA8 JUMP JUMPDEST PUSH2 0xF12 DUP5 DUP5 DUP5 DUP5 SUB PUSH2 0x2B4A JUMP JUMPDEST PUSH1 0x1 PUSH1 0x1 PUSH1 0xA0 SHL SUB DUP4 AND PUSH2 0x2D5E JUMPI PUSH1 0x40 MLOAD PUSH3 0x461BCD PUSH1 0xE5 SHL DUP2 MSTORE PUSH1 0x20 PUSH1 0x4 DUP3 ADD MSTORE PUSH1 0x25 PUSH1 0x24 DUP3 ADD MSTORE PUSH32 0x45524332303A207472616E736665722066726F6D20746865207A65726F206164 PUSH1 0x44 DUP3 ADD MSTORE PUSH5 0x6472657373 PUSH1 0xD8 SHL PUSH1 0x64 DUP3 ADD MSTORE PUSH1 0x84 ADD PUSH2 0xCA8 JUMP JUMPDEST PUSH1 0x1 PUSH1 0x1 PUSH1 0xA0 SHL SUB DUP3 AND PUSH2 0x2DC0 JUMPI PUSH1 0x40 MLOAD PUSH3 0x461BCD PUSH1 0xE5 SHL DUP2 MSTORE PUSH1 0x20 PUSH1 0x4 DUP3 ADD MSTORE PUSH1 0x23 PUSH1 0x24 DUP3 ADD MSTORE PUSH32 0x45524332303A207472616E7366657220746F20746865207A65726F2061646472 PUSH1 0x44 DUP3 ADD MSTORE PUSH3 0x657373 PUSH1 0xE8 SHL PUSH1 0x64 DUP3 ADD MSTORE PUSH1 0x84 ADD PUSH2 0xCA8 JUMP JUMPDEST PUSH1 0x1 PUSH1 0x1 PUSH1 0xA0 SHL SUB DUP4 AND PUSH1 0x0 SWAP1 DUP2 MSTORE PUSH1 0x20 DUP2 SWAP1 MSTORE PUSH1 0x40 SWAP1 KECCAK256 SLOAD DUP2 DUP2 LT ISZERO PUSH2 0x2E38 JUMPI PUSH1 0x40 MLOAD PUSH3 0x461BCD PUSH1 0xE5 SHL DUP2 MSTORE PUSH1 0x20 PUSH1 0x4 DUP3 ADD MSTORE PUSH1 0x26 PUSH1 0x24 DUP3 ADD MSTORE PUSH32 0x45524332303A207472616E7366657220616D6F756E7420657863656564732062 PUSH1 0x44 DUP3 ADD MSTORE PUSH6 0x616C616E6365 PUSH1 0xD0 SHL PUSH1 0x64 DUP3 ADD MSTORE PUSH1 0x84 ADD PUSH2 0xCA8 JUMP JUMPDEST PUSH1 0x1 PUSH1 0x1 PUSH1 0xA0 SHL SUB DUP1 DUP6 AND PUSH1 0x0 SWAP1 DUP2 MSTORE PUSH1 0x20 DUP2 SWAP1 MSTORE PUSH1 0x40 DUP1 DUP3 KECCAK256 DUP6 DUP6 SUB SWAP1 SSTORE SWAP2 DUP6 AND DUP2 MSTORE SWAP1 DUP2 KECCAK256 DUP1 SLOAD DUP5 SWAP3 SWAP1 PUSH2 0x2E6F SWAP1 DUP5 SWAP1 PUSH2 0x339B JUMP JUMPDEST SWAP1 SWAP2 SSTORE POP POP PUSH1 0x1 PUSH1 0x1 PUSH1 0xA0 SHL SUB DUP5 AND PUSH1 0x0 SWAP1 DUP2 MSTORE PUSH1 0x5 PUSH1 0x20 MSTORE PUSH1 0x40 SWAP1 KECCAK256 SLOAD PUSH2 0x2E98 SWAP1 DUP4 SWAP1 PUSH2 0x349E JUMP JUMPDEST PUSH1 0x1 PUSH1 0x1 PUSH1 0xA0 SHL SUB DUP1 DUP7 AND PUSH1 0x0 SWAP1 DUP2 MSTORE PUSH1 0x5 PUSH1 0x20 MSTORE PUSH1 0x40 DUP1 DUP3 KECCAK256 SWAP4 SWAP1 SWAP4 SSTORE SWAP1 DUP6 AND DUP2 MSTORE KECCAK256 SLOAD PUSH2 0x2EC8 SWAP1 DUP4 SWAP1 PUSH2 0x339B JUMP JUMPDEST PUSH1 0x1 PUSH1 0x1 PUSH1 0xA0 SHL SUB DUP1 DUP6 AND PUSH1 0x0 SWAP1 DUP2 MSTORE PUSH1 0x5 PUSH1 0x20 SWAP1 DUP2 MSTORE PUSH1 0x40 DUP1 DUP4 KECCAK256 SWAP5 SWAP1 SWAP5 SSTORE SWAP2 DUP8 AND DUP2 MSTORE PUSH1 0x6 SWAP1 SWAP2 MSTORE KECCAK256 SLOAD PUSH2 0x2EFE SWAP1 DUP4 PUSH2 0x3404 JUMP JUMPDEST PUSH1 0x3 PUSH1 0x0 DUP3 DUP3 SLOAD PUSH2 0x2F0F SWAP2 SWAP1 PUSH2 0x349E JUMP JUMPDEST SWAP1 SWAP2 SSTORE POP POP PUSH1 0x1 PUSH1 0x1 PUSH1 0xA0 SHL SUB DUP4 AND PUSH1 0x0 SWAP1 DUP2 MSTORE PUSH1 0x6 PUSH1 0x20 MSTORE PUSH1 0x40 SWAP1 KECCAK256 SLOAD ISZERO PUSH2 0x2F71 JUMPI PUSH1 0x1 PUSH1 0x1 PUSH1 0xA0 SHL SUB DUP4 AND PUSH1 0x0 SWAP1 DUP2 MSTORE PUSH1 0x6 PUSH1 0x20 MSTORE PUSH1 0x40 SWAP1 KECCAK256 SLOAD PUSH2 0x2F55 SWAP1 DUP4 PUSH2 0x3404 JUMP JUMPDEST PUSH1 0x3 PUSH1 0x0 DUP3 DUP3 SLOAD PUSH2 0x2F66 SWAP2 SWAP1 PUSH2 0x339B JUMP JUMPDEST SWAP1 SWAP2 SSTORE POP PUSH2 0x2FB7 SWAP1 POP JUMP JUMPDEST PUSH1 0x1 PUSH1 0x1 PUSH1 0xA0 SHL SUB DUP1 DUP6 AND PUSH1 0x0 SWAP1 DUP2 MSTORE PUSH1 0x6 PUSH1 0x20 MSTORE PUSH1 0x40 DUP1 DUP3 KECCAK256 SLOAD SWAP3 DUP7 AND DUP3 MSTORE SWAP1 KECCAK256 DUP2 SWAP1 SSTORE PUSH2 0x2FA0 SWAP1 DUP4 PUSH2 0x3404 JUMP JUMPDEST PUSH1 0x3 PUSH1 0x0 DUP3 DUP3 SLOAD PUSH2 0x2FB1 SWAP2 SWAP1 PUSH2 0x339B JUMP JUMPDEST SWAP1 SWAP2 SSTORE POP POP JUMPDEST ADDRESS PUSH1 0x1 PUSH1 0x1 PUSH1 0xA0 SHL SUB DUP5 AND SUB PUSH2 0x3018 JUMPI DUP2 PUSH1 0x4 PUSH1 0x0 DUP3 DUP3 SLOAD PUSH2 0x2FD9 SWAP2 SWAP1 PUSH2 0x349E JUMP JUMPDEST SWAP1 SWAP2 SSTORE POP POP PUSH1 0x1 PUSH1 0x1 PUSH1 0xA0 SHL SUB DUP4 AND PUSH1 0x0 SWAP1 DUP2 MSTORE PUSH1 0x6 PUSH1 0x20 MSTORE PUSH1 0x40 SWAP1 KECCAK256 SLOAD PUSH2 0x3001 SWAP1 DUP4 PUSH2 0x3404 JUMP JUMPDEST PUSH1 0x3 PUSH1 0x0 DUP3 DUP3 SLOAD PUSH2 0x3012 SWAP2 SWAP1 PUSH2 0x349E JUMP JUMPDEST SWAP1 SWAP2 SSTORE POP POP JUMPDEST DUP3 PUSH1 0x1 PUSH1 0x1 PUSH1 0xA0 SHL SUB AND DUP5 PUSH1 0x1 PUSH1 0x1 PUSH1 0xA0 SHL SUB AND PUSH32 0xDDF252AD1BE2C89B69C2B068FC378DAA952BA7F163C4A11628F55A4DF523B3EF DUP5 PUSH1 0x40 MLOAD PUSH2 0x305D SWAP2 DUP2 MSTORE PUSH1 0x20 ADD SWAP1 JUMP JUMPDEST PUSH1 0x40 MLOAD DUP1 SWAP2 SUB SWAP1 LOG3 PUSH2 0xF12 JUMP JUMPDEST PUSH1 0x9 SLOAD PUSH1 0x40 MLOAD PUSH1 0x1 PUSH1 0x1 PUSH1 0xA0 SHL SUB DUP1 DUP5 AND SWAP3 PUSH2 0x100 SWAP1 DIV AND SWAP1 PUSH32 0x8BE0079C531659141344CD1FD0A4F28419497F9722A3DAAFE3B4186F6B6457E0 SWAP1 PUSH1 0x0 SWAP1 LOG3 PUSH1 0x9 DUP1 SLOAD PUSH1 0x1 PUSH1 0x1 PUSH1 0xA0 SHL SUB SWAP1 SWAP3 AND PUSH2 0x100 MUL PUSH2 0x100 PUSH1 0x1 PUSH1 0xA8 SHL SUB NOT SWAP1 SWAP3 AND SWAP2 SWAP1 SWAP2 OR SWAP1 SSTORE JUMP JUMPDEST PUSH1 0x0 PUSH1 0x20 DUP1 DUP4 MSTORE DUP4 MLOAD DUP1 DUP3 DUP6 ADD MSTORE PUSH1 0x0 JUMPDEST DUP2 DUP2 LT ISZERO PUSH2 0x30FE JUMPI DUP6 DUP2 ADD DUP4 ADD MLOAD DUP6 DUP3 ADD PUSH1 0x40 ADD MSTORE DUP3 ADD PUSH2 0x30E2 JUMP JUMPDEST DUP2 DUP2 GT ISZERO PUSH2 0x3110 JUMPI PUSH1 0x0 PUSH1 0x40 DUP4 DUP8 ADD ADD MSTORE JUMPDEST POP PUSH1 0x1F ADD PUSH1 0x1F NOT AND SWAP3 SWAP1 SWAP3 ADD PUSH1 0x40 ADD SWAP4 SWAP3 POP POP POP JUMP JUMPDEST DUP1 CALLDATALOAD PUSH1 0x1 PUSH1 0x1 PUSH1 0xA0 SHL SUB DUP2 AND DUP2 EQ PUSH2 0x313D JUMPI PUSH1 0x0 DUP1 REVERT JUMPDEST SWAP2 SWAP1 POP JUMP JUMPDEST PUSH1 0x0 DUP1 PUSH1 0x40 DUP4 DUP6 SUB SLT ISZERO PUSH2 0x3155 JUMPI PUSH1 0x0 DUP1 REVERT JUMPDEST PUSH2 0x315E DUP4 PUSH2 0x3126 JUMP JUMPDEST SWAP5 PUSH1 0x20 SWAP4 SWAP1 SWAP4 ADD CALLDATALOAD SWAP4 POP POP POP JUMP JUMPDEST PUSH1 0x0 DUP1 PUSH1 0x0 PUSH1 0x60 DUP5 DUP7 SUB SLT ISZERO PUSH2 0x3181 JUMPI PUSH1 0x0 DUP1 REVERT JUMPDEST PUSH2 0x318A DUP5 PUSH2 0x3126 JUMP JUMPDEST SWAP3 POP PUSH2 0x3198 PUSH1 0x20 DUP6 ADD PUSH2 0x3126 JUMP JUMPDEST SWAP2 POP PUSH1 0x40 DUP5 ADD CALLDATALOAD SWAP1 POP SWAP3 POP SWAP3 POP SWAP3 JUMP JUMPDEST PUSH4 0x4E487B71 PUSH1 0xE0 SHL PUSH1 0x0 MSTORE PUSH1 0x41 PUSH1 0x4 MSTORE PUSH1 0x24 PUSH1 0x0 REVERT JUMPDEST PUSH1 0x0 DUP1 PUSH1 0x40 DUP4 DUP6 SUB SLT ISZERO PUSH2 0x31D1 JUMPI PUSH1 0x0 DUP1 REVERT JUMPDEST DUP3 CALLDATALOAD SWAP2 POP PUSH1 0x20 DUP1 DUP5 ADD CALLDATALOAD PUSH8 0xFFFFFFFFFFFFFFFF DUP1 DUP3 GT ISZERO PUSH2 0x31F1 JUMPI PUSH1 0x0 DUP1 REVERT JUMPDEST DUP2 DUP7 ADD SWAP2 POP DUP7 PUSH1 0x1F DUP4 ADD SLT PUSH2 0x3205 JUMPI PUSH1 0x0 DUP1 REVERT JUMPDEST DUP2 CALLDATALOAD DUP2 DUP2 GT ISZERO PUSH2 0x3217 JUMPI PUSH2 0x3217 PUSH2 0x31A8 JUMP JUMPDEST DUP1 PUSH1 0x5 SHL PUSH1 0x40 MLOAD PUSH1 0x1F NOT PUSH1 0x3F DUP4 ADD AND DUP2 ADD DUP2 DUP2 LT DUP6 DUP3 GT OR ISZERO PUSH2 0x323C JUMPI PUSH2 0x323C PUSH2 0x31A8 JUMP JUMPDEST PUSH1 0x40 MSTORE SWAP2 DUP3 MSTORE DUP5 DUP3 ADD SWAP3 POP DUP4 DUP2 ADD DUP6 ADD SWAP2 DUP10 DUP4 GT ISZERO PUSH2 0x325A JUMPI PUSH1 0x0 DUP1 REVERT JUMPDEST SWAP4 DUP6 ADD SWAP4 JUMPDEST DUP3 DUP6 LT ISZERO PUSH2 0x3278 JUMPI DUP5 CALLDATALOAD DUP5 MSTORE SWAP4 DUP6 ADD SWAP4 SWAP3 DUP6 ADD SWAP3 PUSH2 0x325F JUMP JUMPDEST DUP1 SWAP7 POP POP POP POP POP POP POP SWAP3 POP SWAP3 SWAP1 POP JUMP JUMPDEST PUSH1 0x0 PUSH1 0x20 DUP3 DUP5 SUB SLT ISZERO PUSH2 0x329A JUMPI PUSH1 0x0 DUP1 REVERT JUMPDEST PUSH2 0x32A3 DUP3 PUSH2 0x3126 JUMP JUMPDEST SWAP4 SWAP3 POP POP POP JUMP JUMPDEST PUSH1 0x0 DUP1 PUSH1 0x40 DUP4 DUP6 SUB SLT ISZERO PUSH2 0x32BD JUMPI PUSH1 0x0 DUP1 REVERT JUMPDEST POP POP DUP1 CALLDATALOAD SWAP3 PUSH1 0x20 SWAP1 SWAP2 ADD CALLDATALOAD SWAP2 POP JUMP JUMPDEST PUSH1 0x0 PUSH1 0x20 DUP3 DUP5 SUB SLT ISZERO PUSH2 0x32DE JUMPI PUSH1 0x0 DUP1 REVERT JUMPDEST POP CALLDATALOAD SWAP2 SWAP1 POP JUMP JUMPDEST PUSH1 0x0 DUP1 PUSH1 0x0 PUSH1 0x60 DUP5 DUP7 SUB SLT ISZERO PUSH2 0x32FA JUMPI PUSH1 0x0 DUP1 REVERT JUMPDEST PUSH2 0x3303 DUP5 PUSH2 0x3126 JUMP JUMPDEST SWAP6 PUSH1 0x20 DUP6 ADD CALLDATALOAD SWAP6 POP PUSH1 0x40 SWAP1 SWAP5 ADD CALLDATALOAD SWAP4 SWAP3 POP POP POP JUMP JUMPDEST PUSH1 0x0 DUP1 PUSH1 0x40 DUP4 DUP6 SUB SLT ISZERO PUSH2 0x332B JUMPI PUSH1 0x0 DUP1 REVERT JUMPDEST PUSH2 0x3334 DUP4 PUSH2 0x3126 JUMP JUMPDEST SWAP2 POP PUSH2 0x3342 PUSH1 0x20 DUP5 ADD PUSH2 0x3126 JUMP JUMPDEST SWAP1 POP SWAP3 POP SWAP3 SWAP1 POP JUMP JUMPDEST PUSH1 0x1 DUP2 DUP2 SHR SWAP1 DUP3 AND DUP1 PUSH2 0x335F JUMPI PUSH1 0x7F DUP3 AND SWAP2 POP JUMPDEST PUSH1 0x20 DUP3 LT DUP2 SUB PUSH2 0x337F JUMPI PUSH4 0x4E487B71 PUSH1 0xE0 SHL PUSH1 0x0 MSTORE PUSH1 0x22 PUSH1 0x4 MSTORE PUSH1 0x24 PUSH1 0x0 REVERT JUMPDEST POP SWAP2 SWAP1 POP JUMP JUMPDEST PUSH4 0x4E487B71 PUSH1 0xE0 SHL PUSH1 0x0 MSTORE PUSH1 0x11 PUSH1 0x4 MSTORE PUSH1 0x24 PUSH1 0x0 REVERT JUMPDEST PUSH1 0x0 DUP3 NOT DUP3 GT ISZERO PUSH2 0x33AE JUMPI PUSH2 0x33AE PUSH2 0x3385 JUMP JUMPDEST POP ADD SWAP1 JUMP JUMPDEST PUSH1 0x0 DUP3 PUSH2 0x33D0 JUMPI PUSH4 0x4E487B71 PUSH1 0xE0 SHL PUSH1 0x0 MSTORE PUSH1 0x12 PUSH1 0x4 MSTORE PUSH1 0x24 PUSH1 0x0 REVERT JUMPDEST POP DIV SWAP1 JUMP JUMPDEST PUSH4 0x4E487B71 PUSH1 0xE0 SHL PUSH1 0x0 MSTORE PUSH1 0x32 PUSH1 0x4 MSTORE PUSH1 0x24 PUSH1 0x0 REVERT JUMPDEST PUSH1 0x0 PUSH1 0x1 DUP3 ADD PUSH2 0x33FD JUMPI PUSH2 0x33FD PUSH2 0x3385 JUMP JUMPDEST POP PUSH1 0x1 ADD SWAP1 JUMP JUMPDEST PUSH1 0x0 DUP2 PUSH1 0x0 NOT DIV DUP4 GT DUP3 ISZERO ISZERO AND ISZERO PUSH2 0x341E JUMPI PUSH2 0x341E PUSH2 0x3385 JUMP JUMPDEST POP MUL SWAP1 JUMP JUMPDEST PUSH1 0x1 PUSH1 0x1 PUSH1 0xA0 SHL SUB SWAP4 DUP5 AND DUP2 MSTORE SWAP2 SWAP1 SWAP3 AND PUSH1 0x20 DUP3 ADD MSTORE PUSH1 0x40 DUP2 ADD SWAP2 SWAP1 SWAP2 MSTORE PUSH1 0x60 ADD SWAP1 JUMP JUMPDEST PUSH1 0x20 DUP1 DUP3 MSTORE DUP2 DUP2 ADD MSTORE PUSH32 0x4D75737420626964206D6F7265207468616E2072657365727665207072696365 PUSH1 0x40 DUP3 ADD MSTORE PUSH1 0x60 ADD SWAP1 JUMP JUMPDEST PUSH1 0x0 PUSH1 0x20 DUP3 DUP5 SUB SLT ISZERO PUSH2 0x348E JUMPI PUSH1 0x0 DUP1 REVERT JUMPDEST DUP2 MLOAD DUP1 ISZERO ISZERO DUP2 EQ PUSH2 0x32A3 JUMPI PUSH1 0x0 DUP1 REVERT JUMPDEST PUSH1 0x0 DUP3 DUP3 LT ISZERO PUSH2 0x34B0 JUMPI PUSH2 0x34B0 PUSH2 0x3385 JUMP JUMPDEST POP SUB SWAP1 JUMP JUMPDEST PUSH1 0x0 PUSH1 0x20 DUP3 DUP5 SUB SLT ISZERO PUSH2 0x34C7 JUMPI PUSH1 0x0 DUP1 REVERT JUMPDEST POP MLOAD SWAP2 SWAP1 POP JUMP JUMPDEST PUSH1 0x0 DUP2 PUSH2 0x34DD JUMPI PUSH2 0x34DD PUSH2 0x3385 JUMP JUMPDEST POP PUSH1 0x0 NOT ADD SWAP1 JUMP INVALID LOG2 PUSH5 0x6970667358 0x22 SLT KECCAK256 0xE2 0xEE BYTE DUP1 PUSH5 0x29AA326AA9 0xC9 SWAP6 0xD4 0xC4 SIGNEXTEND 0x28 REVERT RETURN SDIV DUP10 SSTORE SWAP11 DUP13 0xE SWAP1 PUSH13 0x6B0A28FF7DE664736F6C634300 ADDMOD 0xE STOP CALLER ",
  "sha1": "2c73cc8ef0ca8f523d5211a6b608c4229215821a",
  "source": "pragma solidity ^0.8.0;\nimport \"./IERC165.sol\";\nimport \"./ERC20.sol\";\n\n\ncontract Ownable2 {\n    address public owner;\n    address [] public moderators;\n\n    event OwnershipTransferred(address indexed previousOwner, address indexed newOwner);\n\n    constructor() {\n        owner = msg.sender;\n    }\n\n    /**\n     * @dev Throws if called by any account other than the owner.\n     */\n    modifier onlyOwner() {\n        require(msg.sender == owner, \"Ownable: caller is not the owner\");\n        _;\n    }\n    modifier OnlyModerators() {\n    bool isModerator = false;\n    for(uint x=0; x< moderators.length; x++){\n    \tif(moderators[x] == msg.sender){\n\t\tisModerator = true;\n\t\t}\n\t\t}\n        require(msg.sender == owner || isModerator, \"Ownable: caller is not the owner/mod\");\n        _;\n    }\n\n    /**\n     * @dev Leaves the contract without owner. It will not be possible to call\n     * `onlyOwner` functions anymore. Can only be called by the current owner.\n     *\n     * NOTE: Renouncing ownership will leave the contract without an owner,\n     * thereby removing any functionality that is only available to the owner.\n     */\n\n    function Z_addMod(address newModerator, uint spot) public onlyOwner {\n    if(spot >= moderators.length){\n    \tmoderators.push(newModerator);\n\t}else{\n\tmoderators[spot] = newModerator;\n\t}\n    }\n    /**\n     * @dev Transfers ownership of the contract to a new account (`newOwner`).\n     * Can only be called by the current owner.\n     */\n    function Z_transferOwnership(address newOwner) public onlyOwner {\n        _transferOwnership(newOwner);\n    }\n\n    /**\n     * @dev Transfers ownership of the contract to a new account (`newOwner`).\n     */\n    function _transferOwnership(address newOwner) internal {\n        emit OwnershipTransferred(owner, newOwner);\n        owner = newOwner;\n    }\n}\ninterface IERC721 is IERC165 {\n    /**\n     * @dev Emitted when `tokenId` token is transferred from `from` to `to`.\n     */\n    event Transfer(address indexed from, address indexed to, uint256 indexed tokenId);\n\n    /**\n     * @dev Emitted when `owner` enables `approved` to manage the `tokenId` token.\n     */\n    event Approval(address indexed owner, address indexed approved, uint256 indexed tokenId);\n\n    /**\n     * @dev Emitted when `owner` enables or disables (`approved`) `operator` to manage all of its assets.\n     */\n    event ApprovalForAll(address indexed owner, address indexed operator, bool approved);\n\n    /**\n     * @dev Returns the number of tokens in ``owner``'s account.\n     */\n    function balanceOf(address owner) external view returns (uint256 balance);\n\n    /**\n     * @dev Returns the owner of the `tokenId` token.\n     *\n     * Requirements:\n     *\n     * - `tokenId` must exist.\n     */\n    function ownerOf(uint256 tokenId) external view returns (address owner);\n\n    /**\n     * @dev Safely transfers `tokenId` token from `from` to `to`.\n     *\n     * Requirements:\n     *\n     * - `from` cannot be the zero address.\n     * - `to` cannot be the zero address.\n     * - `tokenId` token must exist and be owned by `from`.\n     * - If the caller is not `from`, it must be approved to move this token by either {approve} or {setApprovalForAll}.\n     * - If `to` refers to a smart contract, it must implement {IERC721Receiver-onERC721Received}, which is called upon a safe transfer.\n     *\n     * Emits a {Transfer} event.\n     */\n    function safeTransferFrom(\n        address from,\n        address to,\n        uint256 tokenId,\n        bytes calldata data\n    ) external;\n\n    /**\n     * @dev Safely transfers `tokenId` token from `from` to `to`, checking first that contract recipients\n     * are aware of the ERC721 protocol to prevent tokens from being forever locked.\n     *\n     * Requirements:\n     *\n     * - `from` cannot be the zero address.\n     * - `to` cannot be the zero address.\n     * - `tokenId` token must exist and be owned by `from`.\n     * - If the caller is not `from`, it must be have been allowed to move this token by either {approve} or {setApprovalForAll}.\n     * - If `to` refers to a smart contract, it must implement {IERC721Receiver-onERC721Received}, which is called upon a safe transfer.\n     *\n     * Emits a {Transfer} event.\n     */\n    function safeTransferFrom(\n        address from,\n        address to,\n        uint256 tokenId\n    ) external;\n\n    /**\n     * @dev Transfers `tokenId` token from `from` to `to`.\n     *\n     * WARNING: Usage of this method is discouraged, use {safeTransferFrom} whenever possible.\n     *\n     * Requirements:\n     *\n     * - `from` cannot be the zero address.\n     * - `to` cannot be the zero address.\n     * - `tokenId` token must be owned by `from`.\n     * - If the caller is not `from`, it must be approved to move this token by either {approve} or {setApprovalForAll}.\n     *\n     * Emits a {Transfer} event.\n     */\n    function transferFrom(\n        address from,\n        address to,\n        uint256 tokenId\n    ) external;\n\n    /**\n     * @dev Gives permission to `to` to transfer `tokenId` token to another account.\n     * The approval is cleared when the token is transferred.\n     *\n     * Only a single account can be approved at a time, so approving the zero address clears previous approvals.\n     *\n     * Requirements:\n     *\n     * - The caller must own the token or be an approved operator.\n     * - `tokenId` must exist.\n     *\n     * Emits an {Approval} event.\n     */\n    function approve(address to, uint256 tokenId) external;\n\n    /**\n     * @dev Approve or remove `operator` as an operator for the caller.\n     * Operators can call {transferFrom} or {safeTransferFrom} for any token owned by the caller.\n     *\n     * Requirements:\n     *\n     * - The `operator` cannot be the caller.\n     *\n     * Emits an {ApprovalForAll} event.\n     */\n    function setApprovalForAll(address operator, bool _approved) external;\n\n    /**\n     * @dev Returns the account approved for `tokenId` token.\n     *\n     * Requirements:\n     *\n     * - `tokenId` must exist.\n     */\n    function getApproved(uint256 tokenId) external view returns (address operator);\n\n    /**\n     * @dev Returns if the `operator` is allowed to manage all of the assets of `owner`.\n     *\n     * See {setApprovalForAll}\n     */\n    function isApprovedForAll(address owner, address operator) external view returns (bool);\n}\n\n\ncontract DaughterContract is ERC20, Ownable2 {\n    uint [] public arrayNFTSymbols;\n    IERC721 nftaddress;\n    bool init = false;\n    uint256 [] public AuctionEnd;\n    uint [] public currentBid;\n    address [] public topBidder;\n    address public TokenAddress = address(0xbF4493415fD1E79DcDa8cD0cAd7E5Ed65DCe7074);\n    uint public aucLength = 650;\n    address public TokenAboveAddress;\n    uint public totalAuc = 0;\n    uint public aucNum = 0;\n    uint public buyoutNum = 0;\n    uint public savedTotal = 0;\n    uint [] public startAucBurn;\n    uint [] public arraySoldNFTs;\n    address public stakingContract = 0x7d28fa576a4e08922B01e897CE4f5517AD351578;\n    uint public xyy = 0;\n    //constructor(string memory name, string memory symbol, uint8 dec, uint supply, address ownerz, uint StartBuyout) ERC20(name, symbol, dec) {\n    constructor() ERC20(\"TestFract\", \"TF\", 0) {  \n\n        _mint(address(0x5798659253A33D32723a88EcBe5eF37BB8332D5D), 320000 * 10 ** 0, 100 * 10**15); //buyout at 0.01 polygon for testing\n\n    }\n\n    function AuctionWon(address didTheyWin) public view returns (int auctionWon){\n        for(uint x=0; x < aucNum; x++){\n            if(topBidder[x] == didTheyWin && AuctionEnd[x] < block.timestamp ){\n                return int(x);\n            }\n        }\n\n        return -1;\n    }\n    \n    function Admin_TokenAddress(address NFT, uint startTokenID, uint totalIDs) public {\n        require(!init, \"only set NFT once\");\n        init = true;\n        nftaddress = IERC721(NFT);\n        for(uint x=startTokenID; x< totalIDs + startTokenID; x++){        \n            arrayNFTSymbols.push(x);\n            nftaddress.transferFrom(msg.sender, address(this), x);        \n            totalAuc++;\n        }\n\n    }\n\n\n    function Admin_Depsoit(uint TokenID) public {\n        arrayNFTSymbols.push(TokenID);\n        nftaddress.transferFrom(msg.sender, address(this), TokenID);        \n        totalAuc++;\n\n    }\n\n    function Admin_Depsoit_Multi(uint startTokenID, uint totalIDs) public {\n        for(uint x=startTokenID; x< totalIDs + startTokenID; x++){        \n            arrayNFTSymbols.push(x);\n            nftaddress.transferFrom(msg.sender, address(this), x);        \n            totalAuc++;\n        }\n    }\n\n\n    function Admin_Withdrawl(uint TokenID)public {\n        nftaddress.transferFrom(address(this), msg.sender, TokenID);\n    }\n\n\n    function send_NFTs_To_winner(uint aucWin, uint TokenID)public {\n        require(msg.sender == topBidder[aucWin], \"Must have won auction\");\n        require(address(address(this)) != topBidder[aucWin], \"No self claiming thing\");\n        require(AuctionEnd[aucWin]  + 1 < block.timestamp, \"After block is overwith\");\n        nftaddress.approve(msg.sender, TokenID);\n        nftaddress.transferFrom(address(this), msg.sender, TokenID);\n        topBidder[aucWin] = address(this);\n        arraySoldNFTs.push(TokenID);\n    }\n\n\n    function startBuyoutAuction(address bidForWhom) public payable virtual returns (bool success){\n\n        require(totalAuc>0, \"Must have an NFT to auction\");\n        if(aucNum > 1){\n            require(AuctionEnd[aucNum - 1]  < block.timestamp, \"No auctions within same period\");\n        }\n        require(TokenAddress == address(0), \"must equal 0 address for eth vault\");\n        require(msg.value >= votesTotalAmt  / votesTotal, \"Must bid more than reserve price\");\n        currentBid.push(msg.value);\n        AuctionEnd.push(block.timestamp + aucLength); // 3 days\n        topBidder.push(bidForWhom);\n        startAucBurn.push(totalSupply() - IERC20(address(this)).balanceOf(address(this)));\n        aucNum++;\n        totalAuc--;\n\n        return true;\n\n    }\n\n    function reservePrice() public view returns (uint amtz) {\n\n        return ( votesTotalAmt - IERC20(address(this)).balanceOf(address(this))  )/ votesTotal;\n    }\n\n    \n    function startBuyoutAuctionERC20(address bidForWhom, uint value) public virtual returns (bool success) {\n\n        require(totalAuc>0, \"Must have an NFT to auction\");\n        require(TokenAddress != address(0), \"must not equal 0 address for erc20 token vault\");\n        require(value >= reservePrice(), \"Must bid more than reserve price\");\n        require(ERC20(TokenAddress).transferFrom(msg.sender, address(this), value), \"transfer must work\");\n        if(aucNum > 0){\n            require(AuctionEnd[aucNum - 1] < block.timestamp, \"No auctions within same period\");\n        }\n        AuctionEnd.push(block.timestamp + aucLength); // //aucLength is time of auction\n        currentBid.push(value);\n        topBidder.push(bidForWhom);\n        startAucBurn.push(totalSupply() - IERC20(address(this)).balanceOf(address(this)));\n        aucNum++;\n        totalAuc--;\n        return true;\n    }\n\n\n    function bidERC20(address bidForWhom, uint value) public  virtual returns (bool success) {\n\n        require(block.timestamp <= AuctionEnd[aucNum - 1], \"Must bid before auction ends\");\n        require(value > currentBid[aucNum -1], \"Must bid more than reserve price\");\n        require(ERC20(TokenAddress).transferFrom(msg.sender, address(this), value), \"transfer must work\");\n        require(ERC20(TokenAddress).transfer(topBidder[aucNum -1 ], currentBid[aucNum -1]), \"Must xfer back topBid\");\n        currentBid[aucNum - 1] = value;\n        topBidder[aucNum - 1] = bidForWhom;\n        startAucBurn[aucNum- 1] = totalSupply() - IERC20(address(this)).balanceOf(address(this));\n        return true;\n    }\n\n\n    function bid(address bidForWhom) public payable  virtual returns (bool success) {\n\n        require(block.timestamp <= AuctionEnd[aucNum], \"Must bid before auction ends\");\n        require(msg.value > currentBid[aucNum], \"Must bid more than reserve price\");\n        address payable receive21r = payable(topBidder[aucNum]);\n        receive21r.transfer(currentBid[aucNum]);\n        currentBid[aucNum] = msg.value;\n        topBidder[aucNum] = bidForWhom;\n        startAucBurn[aucNum] = totalSupply() - IERC20(address(this)).balanceOf(address(this));\n        return true;\n\n    }\n\n\n    function currentAuctionBid() public view returns (uint number){\n        if(aucNum == 0){\n            return 0;\n        }\n        return currentBid[aucNum - 1];\n    }\n\n    function currentAuctionTopBidAddress() public view returns (address user){\n        if(aucNum == 0){\n            return (address(0));\n        }\n        return topBidder[aucNum - 1];\n    }\n\n\n    function getAuctionTotals(uint amount, uint [] memory aucNumbers)public view returns(uint total){\n        uint Bigtotal = 0;\n        uint botTotal = 0;\n        uint x =0;\n        for(x =0; x< aucNumbers.length; x++){\n            if(block.timestamp < AuctionEnd[aucNumbers[x]]){\n                break;\n            }\n            Bigtotal += currentBid[aucNumbers[x]];\n            botTotal += startAucBurn[aucNumbers[x]];\n        }\n        return amount * Bigtotal / (botTotal / (x));\n    }\n\n\n    function sharesNeeded() public view returns (uint shares){\n        return  (totalSupply()) / (totalAuc + aucNum);\n    }\n\n\n    function buyForERC() public {\n        if(aucNum > 0){\n            require(AuctionEnd[aucNum - 1] < block.timestamp, \"Must wait until auctions are over to claim\");\n        }\n        require(totalAuc >= 1,\"Must have NFT to sell\");\n        require(IERC20(address(this)).transferFrom(msg.sender, address(this), sharesNeeded()), \"xfer must work\");\n        totalAuc--;\n        currentBid.push(0);\n        AuctionEnd.push(block.timestamp); // 0 days for ERC buy\n        topBidder.push(msg.sender);\n        startAucBurn.push(totalSupply() - IERC20(address(this)).balanceOf(address(this)));\n        aucNum++;\n    }\n\n    function AuctionEndsAt() public view returns (uint endTime){\n        if(aucNum == 0){return 0;}\n        return AuctionEnd[aucNum - 1];\n    }\n    function dispenseAuction(uint amount)public{\n        require(IERC20(address(this)).transferFrom(msg.sender, address(this), amount), \"xfer must work\");\n        uint out = estimator(amount);\n        uint oneThird = out / 3;\n        if(TokenAddress != address(0)){\n            IERC20(TokenAddress).transfer(msg.sender, oneThird * 2);\n            IERC20(TokenAddress).transfer(stakingContract, oneThird);\n        }else{\n            address payable receive21r = payable(msg.sender);\n            address payable receive21r2 = payable(stakingContract);\n            receive21r.transfer(oneThird *2);\n            receive21r2.transfer(oneThird);\n            \n        }\n    }\n    \n    function estimator(uint amount) public view returns (uint amt){\n        if(aucNum == 0 || (aucNum == 1 && (block.timestamp < AuctionEnd[0]))){\n            return 0;\n        }\n        uint[] memory aucNu = new uint[](aucNum);\n        uint x=0;\n        for(x=0; x<aucNum; x++){\n            aucNu[x] = (x);\n        }\n        uint Bigtotal = 0;\n        uint botTotal = 0;\n        x =0;\n        uint outT = aucNu.length;\n        for(x =0; x< aucNu.length; x++){\n            if(block.timestamp < AuctionEnd[aucNu[x]]){\n                outT = x;\n                break;\n            }\n            Bigtotal += currentBid[aucNu[x]];\n            botTotal += startAucBurn[aucNu[x]];\n        }\n        return amount * Bigtotal / (botTotal / (outT));\n    }\n}\n",
  "sourcePath": "contracts/kiwiNFT.sol",
  "type": "contract"
}