{
  "abi": [
    {
      "inputs": [],
      "stateMutability": "nonpayable",
      "type": "constructor"
    },
    {
      "inputs": [],
      "name": "ForgeNFTPer",
      "outputs": [
        {
          "internalType": "uint256",
          "name": "",
          "type": "uint256"
        }
      ],
      "stateMutability": "view",
      "type": "function"
    },
    {
      "inputs": [],
      "name": "KiwiPer",
      "outputs": [
        {
          "internalType": "uint256",
          "name": "",
          "type": "uint256"
        }
      ],
      "stateMutability": "view",
      "type": "function"
    },
    {
      "inputs": [],
      "name": "NFTFractionalizedContract",
      "outputs": [
        {
          "internalType": "address",
          "name": "",
          "type": "address"
        }
      ],
      "stateMutability": "view",
      "type": "function"
    },
    {
      "inputs": [
        {
          "internalType": "uint256",
          "name": "_amount",
          "type": "uint256"
        }
      ],
      "name": "deposit",
      "outputs": [],
      "stateMutability": "nonpayable",
      "type": "function"
    },
    {
      "inputs": [
        {
          "internalType": "uint256",
          "name": "_amount",
          "type": "uint256"
        }
      ],
      "name": "depositKiwi",
      "outputs": [],
      "stateMutability": "nonpayable",
      "type": "function"
    },
    {
      "inputs": [],
      "name": "forgeContract",
      "outputs": [
        {
          "internalType": "address",
          "name": "",
          "type": "address"
        }
      ],
      "stateMutability": "view",
      "type": "function"
    },
    {
      "inputs": [],
      "name": "kiwiContract",
      "outputs": [
        {
          "internalType": "address",
          "name": "",
          "type": "address"
        }
      ],
      "stateMutability": "view",
      "type": "function"
    },
    {
      "inputs": [],
      "name": "length",
      "outputs": [
        {
          "internalType": "uint256",
          "name": "",
          "type": "uint256"
        }
      ],
      "stateMutability": "view",
      "type": "function"
    },
    {
      "inputs": [],
      "name": "mintKiwi",
      "outputs": [],
      "stateMutability": "nonpayable",
      "type": "function"
    },
    {
      "inputs": [],
      "name": "mintNFTShares",
      "outputs": [],
      "stateMutability": "nonpayable",
      "type": "function"
    },
    {
      "inputs": [],
      "name": "mintTWO",
      "outputs": [],
      "stateMutability": "nonpayable",
      "type": "function"
    },
    {
      "inputs": [],
      "name": "timestamp",
      "outputs": [
        {
          "internalType": "uint256",
          "name": "",
          "type": "uint256"
        }
      ],
      "stateMutability": "view",
      "type": "function"
    },
    {
      "inputs": [],
      "name": "timestampKiwi",
      "outputs": [
        {
          "internalType": "uint256",
          "name": "",
          "type": "uint256"
        }
      ],
      "stateMutability": "view",
      "type": "function"
    },
    {
      "inputs": [],
      "name": "totalAmt",
      "outputs": [
        {
          "internalType": "uint256",
          "name": "",
          "type": "uint256"
        }
      ],
      "stateMutability": "view",
      "type": "function"
    },
    {
      "inputs": [],
      "name": "totalAmtKiwi",
      "outputs": [
        {
          "internalType": "uint256",
          "name": "",
          "type": "uint256"
        }
      ],
      "stateMutability": "view",
      "type": "function"
    },
    {
      "inputs": [],
      "name": "totalMax",
      "outputs": [
        {
          "internalType": "uint256",
          "name": "",
          "type": "uint256"
        }
      ],
      "stateMutability": "view",
      "type": "function"
    },
    {
      "inputs": [],
      "name": "totalTimesForgeNFT",
      "outputs": [
        {
          "internalType": "uint256",
          "name": "",
          "type": "uint256"
        }
      ],
      "stateMutability": "view",
      "type": "function"
    },
    {
      "inputs": [],
      "name": "totalTimesKiwi",
      "outputs": [
        {
          "internalType": "uint256",
          "name": "",
          "type": "uint256"
        }
      ],
      "stateMutability": "view",
      "type": "function"
    }
  ],
  "bytecode": "6080604052600c6000818155600181905560028190556003819055600481905542600581905560065561012c6007556008819055600955600a80546001600160a01b031990811673bf4493415fd1e79dcda8cd0cad7e5ed65dce7074908117909255600b80548216909217909155815416739265858344c8e0b3754fc60b42dcf3ddd61fb8f917905534801561009457600080fd5b506109b4806100a46000396000f3fe608060405234801561001057600080fd5b50600436106101165760003560e01c8063a37f85a1116100a2578063b80777ea11610071578063b80777ea146101e4578063c2ee7ced146101ed578063d1f532ee14610200578063dc25852f14610208578063dd928a041461021157600080fd5b8063a37f85a1146101b7578063ae0f5050146101c0578063b6b55f25146101c9578063b76aef24146101dc57600080fd5b8063620b39b7116100e9578063620b39b71461017457806367eb14f41461017d57806370b17d51146101905780637a6d965614610199578063973304b4146101ae57600080fd5b80631f7b6d321461011b5780632eb2aeb014610137578063331f20b81461014057806339f172b214610149575b600080fd5b61012460075481565b6040519081526020015b60405180910390f35b61012460065481565b61012460025481565b600c5461015c906001600160a01b031681565b6040516001600160a01b03909116815260200161012e565b61012460035481565b600b5461015c906001600160a01b031681565b61012460085481565b6101ac6101a736600461089d565b610219565b005b61012460095481565b61012460005481565b61012460045481565b6101ac6101d736600461089d565b610385565b6101ac610557565b61012460055481565b600a5461015c906001600160a01b031681565b6101ac6106bb565b61012460015481565b6101ac61073d565b80600254106102665760405162461bcd60e51b81526020600482015260146024820152734f6e6c7920696620796f7520616464206d6f726560601b60448201526064015b60405180910390fd5b600b546040516323b872dd60e01b8152336004820152306024820152604481018390526001600160a01b03909116906323b872dd906064016020604051808303816000875af11580156102bd573d6000803e3d6000fd5b505050506040513d601f19601f820116820180604052508101906102e191906108b6565b50600054600b546040516370a0823160e01b815230600482015282916001600160a01b0316906370a0823190602401602060405180830381865afa15801561032d573d6000803e3d6000fd5b505050506040513d601f19601f8201168201806040525081019061035191906108df565b61035b919061090e565b6103659190610930565b60028190556000546103769161090e565b60095550426006556000600455565b80600154106103cd5760405162461bcd60e51b81526020600482015260146024820152734f6e6c7920696620796f7520616464206d6f726560601b604482015260640161025d565b600c546040516323b872dd60e01b8152336004820152306024820152604481018390526001600160a01b03909116906323b872dd906064016020604051808303816000875af1158015610424573d6000803e3d6000fd5b505050506040513d601f19601f8201168201806040525081019061044891906108b6565b50600054600c546040516370a0823160e01b815230600482015282916001600160a01b0316906370a0823190602401602060405180830381865afa158015610494573d6000803e3d6000fd5b505050506040513d601f19601f820116820180604052508101906104b891906108df565b6104c2919061090e565b6104cc9190610930565b600155600054600c546040516370a0823160e01b81523060048201526001600160a01b03909116906370a0823190602401602060405180830381865afa15801561051a573d6000803e3d6000fd5b505050506040513d601f19601f8201168201806040525081019061053e91906108df565b610548919061090e565b60085550426005556000600355565b42600654106105be5760405162461bcd60e51b815260206004820152602d60248201527f74696d657374616d704b697769206d757374206265206c657373207468616e2060448201526c63757272656e7420626c6f636b60981b606482015260840161025d565b600054600454106106075760405162461bcd60e51b81526020600482015260136024820152724465706f73697420746f20636f6e74696e756560681b604482015260640161025d565b600754610614904261094f565b60065560045461062590600161094f565b6004908155600b54600a5460095460405163a9059cbb60e01b81526001600160a01b03928316948101949094526024840152169063a9059cbb906044016020604051808303816000875af1158015610681573d6000803e3d6000fd5b505050506040513d601f19601f820116820180604052508101906106a591906108b6565b506009546002546106b69190610967565b600255565b426005541080156106cd575042600654105b61072b5760405162461bcd60e51b815260206004820152602960248201527f54696d657374616d70206d757374206265206c657373207468616e2063757272604482015268656e7420626c6f636b60b81b606482015260840161025d565b61073361073d565b61073b610557565b565b42600554106107a05760405162461bcd60e51b815260206004820152602960248201527f74696d657374616d70206d757374206265206c657373207468616e2063757272604482015268656e7420626c6f636b60b81b606482015260840161025d565b600054600354106107e95760405162461bcd60e51b81526020600482015260136024820152724465706f73697420746f20636f6e74696e756560681b604482015260640161025d565b6007546107f6904261094f565b60055560035461080790600161094f565b600355600c54600a5460085460405163a9059cbb60e01b81526001600160a01b039283166004820152602481019190915291169063a9059cbb906044016020604051808303816000875af1158015610863573d6000803e3d6000fd5b505050506040513d601f19601f8201168201806040525081019061088791906108b6565b506008546001546108989190610967565b600155565b6000602082840312156108af57600080fd5b5035919050565b6000602082840312156108c857600080fd5b815180151581146108d857600080fd5b9392505050565b6000602082840312156108f157600080fd5b5051919050565b634e487b7160e01b600052601160045260246000fd5b60008261092b57634e487b7160e01b600052601260045260246000fd5b500490565b600081600019048311821515161561094a5761094a6108f8565b500290565b60008219821115610962576109626108f8565b500190565b600082821015610979576109796108f8565b50039056fea2646970667358221220a3d79e9b33b6e496fded9a5a0a06c81892dda834d167fd4a9f4213e58855a16c64736f6c634300080e0033",
  "bytecodeSha1": "2def89134e2e1027bf2b41546762bf2ed07902bb",
  "compiler": {
    "evm_version": "istanbul",
    "optimizer": {
      "enabled": true,
      "runs": 200
    },
    "version": "0.8.14+commit.80d49f37"
  },
  "contractName": "ForgeDistributorContract",
  "language": "Solidity",
  "natspec": {
    "kind": "dev",
    "methods": {},
    "version": 1
  },
  "opcodes": "PUSH1 0x80 PUSH1 0x40 MSTORE CALLVALUE DUP1 ISZERO PUSH2 0x10 JUMPI PUSH1 0x0 DUP1 REVERT JUMPDEST POP PUSH1 0x4 CALLDATASIZE LT PUSH2 0x116 JUMPI PUSH1 0x0 CALLDATALOAD PUSH1 0xE0 SHR DUP1 PUSH4 0xA37F85A1 GT PUSH2 0xA2 JUMPI DUP1 PUSH4 0xB80777EA GT PUSH2 0x71 JUMPI DUP1 PUSH4 0xB80777EA EQ PUSH2 0x1E4 JUMPI DUP1 PUSH4 0xC2EE7CED EQ PUSH2 0x1ED JUMPI DUP1 PUSH4 0xD1F532EE EQ PUSH2 0x200 JUMPI DUP1 PUSH4 0xDC25852F EQ PUSH2 0x208 JUMPI DUP1 PUSH4 0xDD928A04 EQ PUSH2 0x211 JUMPI PUSH1 0x0 DUP1 REVERT JUMPDEST DUP1 PUSH4 0xA37F85A1 EQ PUSH2 0x1B7 JUMPI DUP1 PUSH4 0xAE0F5050 EQ PUSH2 0x1C0 JUMPI DUP1 PUSH4 0xB6B55F25 EQ PUSH2 0x1C9 JUMPI DUP1 PUSH4 0xB76AEF24 EQ PUSH2 0x1DC JUMPI PUSH1 0x0 DUP1 REVERT JUMPDEST DUP1 PUSH4 0x620B39B7 GT PUSH2 0xE9 JUMPI DUP1 PUSH4 0x620B39B7 EQ PUSH2 0x174 JUMPI DUP1 PUSH4 0x67EB14F4 EQ PUSH2 0x17D JUMPI DUP1 PUSH4 0x70B17D51 EQ PUSH2 0x190 JUMPI DUP1 PUSH4 0x7A6D9656 EQ PUSH2 0x199 JUMPI DUP1 PUSH4 0x973304B4 EQ PUSH2 0x1AE JUMPI PUSH1 0x0 DUP1 REVERT JUMPDEST DUP1 PUSH4 0x1F7B6D32 EQ PUSH2 0x11B JUMPI DUP1 PUSH4 0x2EB2AEB0 EQ PUSH2 0x137 JUMPI DUP1 PUSH4 0x331F20B8 EQ PUSH2 0x140 JUMPI DUP1 PUSH4 0x39F172B2 EQ PUSH2 0x149 JUMPI JUMPDEST PUSH1 0x0 DUP1 REVERT JUMPDEST PUSH2 0x124 PUSH1 0x7 SLOAD DUP2 JUMP JUMPDEST PUSH1 0x40 MLOAD SWAP1 DUP2 MSTORE PUSH1 0x20 ADD JUMPDEST PUSH1 0x40 MLOAD DUP1 SWAP2 SUB SWAP1 RETURN JUMPDEST PUSH2 0x124 PUSH1 0x6 SLOAD DUP2 JUMP JUMPDEST PUSH2 0x124 PUSH1 0x2 SLOAD DUP2 JUMP JUMPDEST PUSH1 0xC SLOAD PUSH2 0x15C SWAP1 PUSH1 0x1 PUSH1 0x1 PUSH1 0xA0 SHL SUB AND DUP2 JUMP JUMPDEST PUSH1 0x40 MLOAD PUSH1 0x1 PUSH1 0x1 PUSH1 0xA0 SHL SUB SWAP1 SWAP2 AND DUP2 MSTORE PUSH1 0x20 ADD PUSH2 0x12E JUMP JUMPDEST PUSH2 0x124 PUSH1 0x3 SLOAD DUP2 JUMP JUMPDEST PUSH1 0xB SLOAD PUSH2 0x15C SWAP1 PUSH1 0x1 PUSH1 0x1 PUSH1 0xA0 SHL SUB AND DUP2 JUMP JUMPDEST PUSH2 0x124 PUSH1 0x8 SLOAD DUP2 JUMP JUMPDEST PUSH2 0x1AC PUSH2 0x1A7 CALLDATASIZE PUSH1 0x4 PUSH2 0x89D JUMP JUMPDEST PUSH2 0x219 JUMP JUMPDEST STOP JUMPDEST PUSH2 0x124 PUSH1 0x9 SLOAD DUP2 JUMP JUMPDEST PUSH2 0x124 PUSH1 0x0 SLOAD DUP2 JUMP JUMPDEST PUSH2 0x124 PUSH1 0x4 SLOAD DUP2 JUMP JUMPDEST PUSH2 0x1AC PUSH2 0x1D7 CALLDATASIZE PUSH1 0x4 PUSH2 0x89D JUMP JUMPDEST PUSH2 0x385 JUMP JUMPDEST PUSH2 0x1AC PUSH2 0x557 JUMP JUMPDEST PUSH2 0x124 PUSH1 0x5 SLOAD DUP2 JUMP JUMPDEST PUSH1 0xA SLOAD PUSH2 0x15C SWAP1 PUSH1 0x1 PUSH1 0x1 PUSH1 0xA0 SHL SUB AND DUP2 JUMP JUMPDEST PUSH2 0x1AC PUSH2 0x6BB JUMP JUMPDEST PUSH2 0x124 PUSH1 0x1 SLOAD DUP2 JUMP JUMPDEST PUSH2 0x1AC PUSH2 0x73D JUMP JUMPDEST DUP1 PUSH1 0x2 SLOAD LT PUSH2 0x266 JUMPI PUSH1 0x40 MLOAD PUSH3 0x461BCD PUSH1 0xE5 SHL DUP2 MSTORE PUSH1 0x20 PUSH1 0x4 DUP3 ADD MSTORE PUSH1 0x14 PUSH1 0x24 DUP3 ADD MSTORE PUSH20 0x4F6E6C7920696620796F7520616464206D6F7265 PUSH1 0x60 SHL PUSH1 0x44 DUP3 ADD MSTORE PUSH1 0x64 ADD JUMPDEST PUSH1 0x40 MLOAD DUP1 SWAP2 SUB SWAP1 REVERT JUMPDEST PUSH1 0xB SLOAD PUSH1 0x40 MLOAD PUSH4 0x23B872DD PUSH1 0xE0 SHL DUP2 MSTORE CALLER PUSH1 0x4 DUP3 ADD MSTORE ADDRESS PUSH1 0x24 DUP3 ADD MSTORE PUSH1 0x44 DUP2 ADD DUP4 SWAP1 MSTORE PUSH1 0x1 PUSH1 0x1 PUSH1 0xA0 SHL SUB SWAP1 SWAP2 AND SWAP1 PUSH4 0x23B872DD SWAP1 PUSH1 0x64 ADD PUSH1 0x20 PUSH1 0x40 MLOAD DUP1 DUP4 SUB DUP2 PUSH1 0x0 DUP8 GAS CALL ISZERO DUP1 ISZERO PUSH2 0x2BD JUMPI RETURNDATASIZE PUSH1 0x0 DUP1 RETURNDATACOPY RETURNDATASIZE PUSH1 0x0 REVERT JUMPDEST POP POP POP POP PUSH1 0x40 MLOAD RETURNDATASIZE PUSH1 0x1F NOT PUSH1 0x1F DUP3 ADD AND DUP3 ADD DUP1 PUSH1 0x40 MSTORE POP DUP2 ADD SWAP1 PUSH2 0x2E1 SWAP2 SWAP1 PUSH2 0x8B6 JUMP JUMPDEST POP PUSH1 0x0 SLOAD PUSH1 0xB SLOAD PUSH1 0x40 MLOAD PUSH4 0x70A08231 PUSH1 0xE0 SHL DUP2 MSTORE ADDRESS PUSH1 0x4 DUP3 ADD MSTORE DUP3 SWAP2 PUSH1 0x1 PUSH1 0x1 PUSH1 0xA0 SHL SUB AND SWAP1 PUSH4 0x70A08231 SWAP1 PUSH1 0x24 ADD PUSH1 0x20 PUSH1 0x40 MLOAD DUP1 DUP4 SUB DUP2 DUP7 GAS STATICCALL ISZERO DUP1 ISZERO PUSH2 0x32D JUMPI RETURNDATASIZE PUSH1 0x0 DUP1 RETURNDATACOPY RETURNDATASIZE PUSH1 0x0 REVERT JUMPDEST POP POP POP POP PUSH1 0x40 MLOAD RETURNDATASIZE PUSH1 0x1F NOT PUSH1 0x1F DUP3 ADD AND DUP3 ADD DUP1 PUSH1 0x40 MSTORE POP DUP2 ADD SWAP1 PUSH2 0x351 SWAP2 SWAP1 PUSH2 0x8DF JUMP JUMPDEST PUSH2 0x35B SWAP2 SWAP1 PUSH2 0x90E JUMP JUMPDEST PUSH2 0x365 SWAP2 SWAP1 PUSH2 0x930 JUMP JUMPDEST PUSH1 0x2 DUP2 SWAP1 SSTORE PUSH1 0x0 SLOAD PUSH2 0x376 SWAP2 PUSH2 0x90E JUMP JUMPDEST PUSH1 0x9 SSTORE POP TIMESTAMP PUSH1 0x6 SSTORE PUSH1 0x0 PUSH1 0x4 SSTORE JUMP JUMPDEST DUP1 PUSH1 0x1 SLOAD LT PUSH2 0x3CD JUMPI PUSH1 0x40 MLOAD PUSH3 0x461BCD PUSH1 0xE5 SHL DUP2 MSTORE PUSH1 0x20 PUSH1 0x4 DUP3 ADD MSTORE PUSH1 0x14 PUSH1 0x24 DUP3 ADD MSTORE PUSH20 0x4F6E6C7920696620796F7520616464206D6F7265 PUSH1 0x60 SHL PUSH1 0x44 DUP3 ADD MSTORE PUSH1 0x64 ADD PUSH2 0x25D JUMP JUMPDEST PUSH1 0xC SLOAD PUSH1 0x40 MLOAD PUSH4 0x23B872DD PUSH1 0xE0 SHL DUP2 MSTORE CALLER PUSH1 0x4 DUP3 ADD MSTORE ADDRESS PUSH1 0x24 DUP3 ADD MSTORE PUSH1 0x44 DUP2 ADD DUP4 SWAP1 MSTORE PUSH1 0x1 PUSH1 0x1 PUSH1 0xA0 SHL SUB SWAP1 SWAP2 AND SWAP1 PUSH4 0x23B872DD SWAP1 PUSH1 0x64 ADD PUSH1 0x20 PUSH1 0x40 MLOAD DUP1 DUP4 SUB DUP2 PUSH1 0x0 DUP8 GAS CALL ISZERO DUP1 ISZERO PUSH2 0x424 JUMPI RETURNDATASIZE PUSH1 0x0 DUP1 RETURNDATACOPY RETURNDATASIZE PUSH1 0x0 REVERT JUMPDEST POP POP POP POP PUSH1 0x40 MLOAD RETURNDATASIZE PUSH1 0x1F NOT PUSH1 0x1F DUP3 ADD AND DUP3 ADD DUP1 PUSH1 0x40 MSTORE POP DUP2 ADD SWAP1 PUSH2 0x448 SWAP2 SWAP1 PUSH2 0x8B6 JUMP JUMPDEST POP PUSH1 0x0 SLOAD PUSH1 0xC SLOAD PUSH1 0x40 MLOAD PUSH4 0x70A08231 PUSH1 0xE0 SHL DUP2 MSTORE ADDRESS PUSH1 0x4 DUP3 ADD MSTORE DUP3 SWAP2 PUSH1 0x1 PUSH1 0x1 PUSH1 0xA0 SHL SUB AND SWAP1 PUSH4 0x70A08231 SWAP1 PUSH1 0x24 ADD PUSH1 0x20 PUSH1 0x40 MLOAD DUP1 DUP4 SUB DUP2 DUP7 GAS STATICCALL ISZERO DUP1 ISZERO PUSH2 0x494 JUMPI RETURNDATASIZE PUSH1 0x0 DUP1 RETURNDATACOPY RETURNDATASIZE PUSH1 0x0 REVERT JUMPDEST POP POP POP POP PUSH1 0x40 MLOAD RETURNDATASIZE PUSH1 0x1F NOT PUSH1 0x1F DUP3 ADD AND DUP3 ADD DUP1 PUSH1 0x40 MSTORE POP DUP2 ADD SWAP1 PUSH2 0x4B8 SWAP2 SWAP1 PUSH2 0x8DF JUMP JUMPDEST PUSH2 0x4C2 SWAP2 SWAP1 PUSH2 0x90E JUMP JUMPDEST PUSH2 0x4CC SWAP2 SWAP1 PUSH2 0x930 JUMP JUMPDEST PUSH1 0x1 SSTORE PUSH1 0x0 SLOAD PUSH1 0xC SLOAD PUSH1 0x40 MLOAD PUSH4 0x70A08231 PUSH1 0xE0 SHL DUP2 MSTORE ADDRESS PUSH1 0x4 DUP3 ADD MSTORE PUSH1 0x1 PUSH1 0x1 PUSH1 0xA0 SHL SUB SWAP1 SWAP2 AND SWAP1 PUSH4 0x70A08231 SWAP1 PUSH1 0x24 ADD PUSH1 0x20 PUSH1 0x40 MLOAD DUP1 DUP4 SUB DUP2 DUP7 GAS STATICCALL ISZERO DUP1 ISZERO PUSH2 0x51A JUMPI RETURNDATASIZE PUSH1 0x0 DUP1 RETURNDATACOPY RETURNDATASIZE PUSH1 0x0 REVERT JUMPDEST POP POP POP POP PUSH1 0x40 MLOAD RETURNDATASIZE PUSH1 0x1F NOT PUSH1 0x1F DUP3 ADD AND DUP3 ADD DUP1 PUSH1 0x40 MSTORE POP DUP2 ADD SWAP1 PUSH2 0x53E SWAP2 SWAP1 PUSH2 0x8DF JUMP JUMPDEST PUSH2 0x548 SWAP2 SWAP1 PUSH2 0x90E JUMP JUMPDEST PUSH1 0x8 SSTORE POP TIMESTAMP PUSH1 0x5 SSTORE PUSH1 0x0 PUSH1 0x3 SSTORE JUMP JUMPDEST TIMESTAMP PUSH1 0x6 SLOAD LT PUSH2 0x5BE JUMPI PUSH1 0x40 MLOAD PUSH3 0x461BCD PUSH1 0xE5 SHL DUP2 MSTORE PUSH1 0x20 PUSH1 0x4 DUP3 ADD MSTORE PUSH1 0x2D PUSH1 0x24 DUP3 ADD MSTORE PUSH32 0x74696D657374616D704B697769206D757374206265206C657373207468616E20 PUSH1 0x44 DUP3 ADD MSTORE PUSH13 0x63757272656E7420626C6F636B PUSH1 0x98 SHL PUSH1 0x64 DUP3 ADD MSTORE PUSH1 0x84 ADD PUSH2 0x25D JUMP JUMPDEST PUSH1 0x0 SLOAD PUSH1 0x4 SLOAD LT PUSH2 0x607 JUMPI PUSH1 0x40 MLOAD PUSH3 0x461BCD PUSH1 0xE5 SHL DUP2 MSTORE PUSH1 0x20 PUSH1 0x4 DUP3 ADD MSTORE PUSH1 0x13 PUSH1 0x24 DUP3 ADD MSTORE PUSH19 0x4465706F73697420746F20636F6E74696E7565 PUSH1 0x68 SHL PUSH1 0x44 DUP3 ADD MSTORE PUSH1 0x64 ADD PUSH2 0x25D JUMP JUMPDEST PUSH1 0x7 SLOAD PUSH2 0x614 SWAP1 TIMESTAMP PUSH2 0x94F JUMP JUMPDEST PUSH1 0x6 SSTORE PUSH1 0x4 SLOAD PUSH2 0x625 SWAP1 PUSH1 0x1 PUSH2 0x94F JUMP JUMPDEST PUSH1 0x4 SWAP1 DUP2 SSTORE PUSH1 0xB SLOAD PUSH1 0xA SLOAD PUSH1 0x9 SLOAD PUSH1 0x40 MLOAD PUSH4 0xA9059CBB PUSH1 0xE0 SHL DUP2 MSTORE PUSH1 0x1 PUSH1 0x1 PUSH1 0xA0 SHL SUB SWAP3 DUP4 AND SWAP5 DUP2 ADD SWAP5 SWAP1 SWAP5 MSTORE PUSH1 0x24 DUP5 ADD MSTORE AND SWAP1 PUSH4 0xA9059CBB SWAP1 PUSH1 0x44 ADD PUSH1 0x20 PUSH1 0x40 MLOAD DUP1 DUP4 SUB DUP2 PUSH1 0x0 DUP8 GAS CALL ISZERO DUP1 ISZERO PUSH2 0x681 JUMPI RETURNDATASIZE PUSH1 0x0 DUP1 RETURNDATACOPY RETURNDATASIZE PUSH1 0x0 REVERT JUMPDEST POP POP POP POP PUSH1 0x40 MLOAD RETURNDATASIZE PUSH1 0x1F NOT PUSH1 0x1F DUP3 ADD AND DUP3 ADD DUP1 PUSH1 0x40 MSTORE POP DUP2 ADD SWAP1 PUSH2 0x6A5 SWAP2 SWAP1 PUSH2 0x8B6 JUMP JUMPDEST POP PUSH1 0x9 SLOAD PUSH1 0x2 SLOAD PUSH2 0x6B6 SWAP2 SWAP1 PUSH2 0x967 JUMP JUMPDEST PUSH1 0x2 SSTORE JUMP JUMPDEST TIMESTAMP PUSH1 0x5 SLOAD LT DUP1 ISZERO PUSH2 0x6CD JUMPI POP TIMESTAMP PUSH1 0x6 SLOAD LT JUMPDEST PUSH2 0x72B JUMPI PUSH1 0x40 MLOAD PUSH3 0x461BCD PUSH1 0xE5 SHL DUP2 MSTORE PUSH1 0x20 PUSH1 0x4 DUP3 ADD MSTORE PUSH1 0x29 PUSH1 0x24 DUP3 ADD MSTORE PUSH32 0x54696D657374616D70206D757374206265206C657373207468616E2063757272 PUSH1 0x44 DUP3 ADD MSTORE PUSH9 0x656E7420626C6F636B PUSH1 0xB8 SHL PUSH1 0x64 DUP3 ADD MSTORE PUSH1 0x84 ADD PUSH2 0x25D JUMP JUMPDEST PUSH2 0x733 PUSH2 0x73D JUMP JUMPDEST PUSH2 0x73B PUSH2 0x557 JUMP JUMPDEST JUMP JUMPDEST TIMESTAMP PUSH1 0x5 SLOAD LT PUSH2 0x7A0 JUMPI PUSH1 0x40 MLOAD PUSH3 0x461BCD PUSH1 0xE5 SHL DUP2 MSTORE PUSH1 0x20 PUSH1 0x4 DUP3 ADD MSTORE PUSH1 0x29 PUSH1 0x24 DUP3 ADD MSTORE PUSH32 0x74696D657374616D70206D757374206265206C657373207468616E2063757272 PUSH1 0x44 DUP3 ADD MSTORE PUSH9 0x656E7420626C6F636B PUSH1 0xB8 SHL PUSH1 0x64 DUP3 ADD MSTORE PUSH1 0x84 ADD PUSH2 0x25D JUMP JUMPDEST PUSH1 0x0 SLOAD PUSH1 0x3 SLOAD LT PUSH2 0x7E9 JUMPI PUSH1 0x40 MLOAD PUSH3 0x461BCD PUSH1 0xE5 SHL DUP2 MSTORE PUSH1 0x20 PUSH1 0x4 DUP3 ADD MSTORE PUSH1 0x13 PUSH1 0x24 DUP3 ADD MSTORE PUSH19 0x4465706F73697420746F20636F6E74696E7565 PUSH1 0x68 SHL PUSH1 0x44 DUP3 ADD MSTORE PUSH1 0x64 ADD PUSH2 0x25D JUMP JUMPDEST PUSH1 0x7 SLOAD PUSH2 0x7F6 SWAP1 TIMESTAMP PUSH2 0x94F JUMP JUMPDEST PUSH1 0x5 SSTORE PUSH1 0x3 SLOAD PUSH2 0x807 SWAP1 PUSH1 0x1 PUSH2 0x94F JUMP JUMPDEST PUSH1 0x3 SSTORE PUSH1 0xC SLOAD PUSH1 0xA SLOAD PUSH1 0x8 SLOAD PUSH1 0x40 MLOAD PUSH4 0xA9059CBB PUSH1 0xE0 SHL DUP2 MSTORE PUSH1 0x1 PUSH1 0x1 PUSH1 0xA0 SHL SUB SWAP3 DUP4 AND PUSH1 0x4 DUP3 ADD MSTORE PUSH1 0x24 DUP2 ADD SWAP2 SWAP1 SWAP2 MSTORE SWAP2 AND SWAP1 PUSH4 0xA9059CBB SWAP1 PUSH1 0x44 ADD PUSH1 0x20 PUSH1 0x40 MLOAD DUP1 DUP4 SUB DUP2 PUSH1 0x0 DUP8 GAS CALL ISZERO DUP1 ISZERO PUSH2 0x863 JUMPI RETURNDATASIZE PUSH1 0x0 DUP1 RETURNDATACOPY RETURNDATASIZE PUSH1 0x0 REVERT JUMPDEST POP POP POP POP PUSH1 0x40 MLOAD RETURNDATASIZE PUSH1 0x1F NOT PUSH1 0x1F DUP3 ADD AND DUP3 ADD DUP1 PUSH1 0x40 MSTORE POP DUP2 ADD SWAP1 PUSH2 0x887 SWAP2 SWAP1 PUSH2 0x8B6 JUMP JUMPDEST POP PUSH1 0x8 SLOAD PUSH1 0x1 SLOAD PUSH2 0x898 SWAP2 SWAP1 PUSH2 0x967 JUMP JUMPDEST PUSH1 0x1 SSTORE JUMP JUMPDEST PUSH1 0x0 PUSH1 0x20 DUP3 DUP5 SUB SLT ISZERO PUSH2 0x8AF JUMPI PUSH1 0x0 DUP1 REVERT JUMPDEST POP CALLDATALOAD SWAP2 SWAP1 POP JUMP JUMPDEST PUSH1 0x0 PUSH1 0x20 DUP3 DUP5 SUB SLT ISZERO PUSH2 0x8C8 JUMPI PUSH1 0x0 DUP1 REVERT JUMPDEST DUP2 MLOAD DUP1 ISZERO ISZERO DUP2 EQ PUSH2 0x8D8 JUMPI PUSH1 0x0 DUP1 REVERT JUMPDEST SWAP4 SWAP3 POP POP POP JUMP JUMPDEST PUSH1 0x0 PUSH1 0x20 DUP3 DUP5 SUB SLT ISZERO PUSH2 0x8F1 JUMPI PUSH1 0x0 DUP1 REVERT JUMPDEST POP MLOAD SWAP2 SWAP1 POP JUMP JUMPDEST PUSH4 0x4E487B71 PUSH1 0xE0 SHL PUSH1 0x0 MSTORE PUSH1 0x11 PUSH1 0x4 MSTORE PUSH1 0x24 PUSH1 0x0 REVERT JUMPDEST PUSH1 0x0 DUP3 PUSH2 0x92B JUMPI PUSH4 0x4E487B71 PUSH1 0xE0 SHL PUSH1 0x0 MSTORE PUSH1 0x12 PUSH1 0x4 MSTORE PUSH1 0x24 PUSH1 0x0 REVERT JUMPDEST POP DIV SWAP1 JUMP JUMPDEST PUSH1 0x0 DUP2 PUSH1 0x0 NOT DIV DUP4 GT DUP3 ISZERO ISZERO AND ISZERO PUSH2 0x94A JUMPI PUSH2 0x94A PUSH2 0x8F8 JUMP JUMPDEST POP MUL SWAP1 JUMP JUMPDEST PUSH1 0x0 DUP3 NOT DUP3 GT ISZERO PUSH2 0x962 JUMPI PUSH2 0x962 PUSH2 0x8F8 JUMP JUMPDEST POP ADD SWAP1 JUMP JUMPDEST PUSH1 0x0 DUP3 DUP3 LT ISZERO PUSH2 0x979 JUMPI PUSH2 0x979 PUSH2 0x8F8 JUMP JUMPDEST POP SUB SWAP1 JUMP INVALID LOG2 PUSH5 0x6970667358 0x22 SLT KECCAK256 LOG3 0xD7 SWAP15 SWAP12 CALLER 0xB6 0xE4 SWAP7 REVERT 0xED SWAP11 GAS EXP MOD 0xC8 XOR SWAP3 0xDD 0xA8 CALLVALUE 0xD1 PUSH8 0xFD4A9F4213E58855 LOG1 PUSH13 0x64736F6C634300080E00330000 ",
  "sha1": "dd47fa2dfa1f52a5eb1e4833bd276c082360bca9",
  "source": "\n// File: @openzeppelin/contracts/utils/Context.sol\n\n\n// OpenZeppelin Contracts v4.4.1 (utils/Context.sol)\n\npragma solidity ^0.8.0;\n\n/**\n * @dev Provides information about the current execution context, including the\n * sender of the transaction and its data. While these are generally available\n * via msg.sender and msg.data, they should not be accessed in such a direct\n * manner, since when dealing with meta-transactions the account sending and\n * paying for execution may not be the actual sender (as far as an application\n * is concerned).\n *\n * This contract is only required for intermediate, library-like contracts.\n */\nabstract contract Context {\n    function _msgSender() internal view virtual returns (address) {\n        return msg.sender;\n    }\n\n    function _msgData() internal view virtual returns (bytes calldata) {\n        return msg.data;\n    }\n}\n\n// File: @openzeppelin/contracts/token/ERC20/IERC20.sol\n\n\n// OpenZeppelin Contracts (last updated v4.5.0) (token/ERC20/IERC20.sol)\n\npragma solidity ^0.8.0;\n\n/**\n * @dev Interface of the ERC20 standard as defined in the EIP.\n */\ninterface IERC20 {\n    /**\n     * @dev Returns the amount of tokens in existence.\n     */\n    function totalSupply() external view returns (uint256);\n\n    /**\n     * @dev Returns the amount of tokens owned by `account`.\n     */\n    function balanceOf(address account) external view returns (uint256);\n\n    /**\n     * @dev Moves `amount` tokens from the caller's account to `to`.\n     *\n     * Returns a boolean value indicating whether the operation succeeded.\n     *\n     * Emits a {Transfer} event.\n     */\n    function transfer(address to, uint256 amount) external returns (bool);\n\n    /**\n     * @dev Returns the remaining number of tokens that `spender` will be\n     * allowed to spend on behalf of `owner` through {transferFrom}. This is\n     * zero by default.\n     *\n     * This value changes when {approve} or {transferFrom} are called.\n     */\n    function allowance(address owner, address spender) external view returns (uint256);\n\n    /**\n     * @dev Sets `amount` as the allowance of `spender` over the caller's tokens.\n     *\n     * Returns a boolean value indicating whether the operation succeeded.\n     *\n     * IMPORTANT: Beware that changing an allowance with this method brings the risk\n     * that someone may use both the old and the new allowance by unfortunate\n     * transaction ordering. One possible solution to mitigate this race\n     * condition is to first reduce the spender's allowance to 0 and set the\n     * desired value afterwards:\n     * https://github.com/ethereum/EIPs/issues/20#issuecomment-263524729\n     *\n     * Emits an {Approval} event.\n     */\n    function approve(address spender, uint256 amount) external returns (bool);\n\n    /**\n     * @dev Moves `amount` tokens from `from` to `to` using the\n     * allowance mechanism. `amount` is then deducted from the caller's\n     * allowance.\n     *\n     * Returns a boolean value indicating whether the operation succeeded.\n     *\n     * Emits a {Transfer} event.\n     */\n    function transferFrom(\n        address from,\n        address to,\n        uint256 amount\n    ) external returns (bool);\n\n    /**\n     * @dev Emitted when `value` tokens are moved from one account (`from`) to\n     * another (`to`).\n     *\n     * Note that `value` may be zero.\n     */\n    event Transfer(address indexed from, address indexed to, uint256 value);\n\n    /**\n     * @dev Emitted when the allowance of a `spender` for an `owner` is set by\n     * a call to {approve}. `value` is the new allowance.\n     */\n    event Approval(address indexed owner, address indexed spender, uint256 value);\n}\n\n// File: @openzeppelin/contracts/token/ERC20/extensions/IERC20Metadata.sol\n\n\n// OpenZeppelin Contracts v4.4.1 (token/ERC20/extensions/IERC20Metadata.sol)\n\npragma solidity ^0.8.0;\n\n\n/**\n * @dev Interface for the optional metadata functions from the ERC20 standard.\n *\n * _Available since v4.1._\n */\ninterface IERC20Metadata is IERC20 {\n    /**\n     * @dev Returns the name of the token.\n     */\n    function name() external view returns (string memory);\n\n    /**\n     * @dev Returns the symbol of the token.\n     */\n    function symbol() external view returns (string memory);\n\n    /**\n     * @dev Returns the decimals places of the token.\n     */\n    function decimals() external view returns (uint8);\n}\n\n// File: @openzeppelin/contracts/token/ERC20/ERC20.sol\n\n\n// OpenZeppelin Contracts (last updated v4.5.0) (token/ERC20/ERC20.sol)\n\npragma solidity ^0.8.0;\n\n\n\n\n/**\n * @dev Implementation of the {IERC20} interface.\n *\n * This implementation is agnostic to the way tokens are created. This means\n * that a supply mechanism has to be added in a derived contract using {_mint}.\n * For a generic mechanism see {ERC20PresetMinterPauser}.\n *\n * TIP: For a detailed writeup see our guide\n * https://forum.zeppelin.solutions/t/how-to-implement-erc20-supply-mechanisms/226[How\n * to implement supply mechanisms].\n *\n * We have followed general OpenZeppelin Contracts guidelines: functions revert\n * instead returning `false` on failure. This behavior is nonetheless\n * conventional and does not conflict with the expectations of ERC20\n * applications.\n *\n * Additionally, an {Approval} event is emitted on calls to {transferFrom}.\n * This allows applications to reconstruct the allowance for all accounts just\n * by listening to said events. Other implementations of the EIP may not emit\n * these events, as it isn't required by the specification.\n *\n * Finally, the non-standard {decreaseAllowance} and {increaseAllowance}\n * functions have been added to mitigate the well-known issues around setting\n * allowances. See {IERC20-approve}.\n */\ncontract ERC20 is Context, IERC20, IERC20Metadata {\n    mapping(address => uint256) private _balances;\n\n    mapping(address => mapping(address => uint256)) private _allowances;\n\n    uint256 private _totalSupply;\n    uint public votesTotalAmt = 0;\n    uint public votesTotal = 0;\n    mapping(address => uint) public votes;\n    mapping(address => uint) public votesPrice;\n    string private _name;\n    string private _symbol;\n    uint8 public _decimals;\n //300sec for testing mainnet//3 * 24 * 60 * 60 //3days\n    /**\n     * @dev Sets the values for {name} and {symbol}.\n     *\n     * The default value of {decimals} is 18. To select a different value for\n     * {decimals} you should overload it.\n     *\n     * All two of these values are immutable: they can only be set once during\n     * construction.\n     */\n    constructor(string memory name_, string memory symbol_, uint8 decimals_) {\n        _name = name_;\n        _symbol = symbol_;\n        _decimals = decimals_;\n    }\n\n    /**\n     * @dev Returns the name of the token.\n     */\n    function setVotePrice(uint Price) public virtual returns (bool success) {\n        require(Price <= votesTotalAmt / votesTotal * 15, \"Price must be at under 10x than current Price\");\n        require(Price >= votesTotalAmt / votesTotal / 15, \"Price must be at least 1/10th current Price\");\n        votesTotalAmt -= votes[msg.sender] * votesPrice[msg.sender];\n        votesPrice[msg.sender] = Price;\n        votesTotalAmt += votes[msg.sender] * votesPrice[msg.sender];\n\n        return true;\n    }\n\n\n    function name() public view virtual override returns (string memory) {\n        return _name;\n    }\n\n    /**\n     * @dev Returns the symbol of the token, usually a shorter version of the\n     * name.\n     */\n    function symbol() public view virtual override returns (string memory) {\n        return _symbol;\n    }\n\n    /**\n     * @dev Returns the number of decimals used to get its user representation.\n     * For example, if `decimals` equals `2`, a balance of `505` tokens should\n     * be displayed to a user as `5.05` (`505 / 10 ** 2`).\n     *\n     * Tokens usually opt for a value of 18, imitating the relationship between\n     * Ether and Wei. This is the value {ERC20} uses, unless this function is\n     * overridden;\n     *\n     * NOTE: This information is only used for _display_ purposes: it in\n     * no way affects any of the arithmetic of the contract, including\n     * {IERC20-balanceOf} and {IERC20-transfer}.\n     */\n    function decimals() public view virtual override returns (uint8) {\n        return _decimals;\n    }\n\n    /**\n     * @dev See {IERC20-totalSupply}.\n     */\n    function totalSupply() public view virtual override returns (uint256) {\n        return _totalSupply;\n    }\n\n    /**\n     * @dev See {IERC20-balanceOf}.\n     */\n    function balanceOf(address account) public view virtual override returns (uint256) {\n        return _balances[account];\n    }\n\n    /**\n     * @dev See {IERC20-transfer}.\n     *\n     * Requirements:\n     *\n     * - `to` cannot be the zero address.\n     * - the caller must have a balance of at least `amount`.\n     */\n    function transfer(address to, uint256 amount) public virtual override returns (bool) {\n        address owner = _msgSender();\n        _transfer(owner, to, amount);\n        return true;\n    }\n\n    /**\n     * @dev See {IERC20-allowance}.\n     */\n    function allowance(address owner, address spender) public view virtual override returns (uint256) {\n        return _allowances[owner][spender];\n    }\n\n    /**\n     * @dev See {IERC20-approve}.\n     *\n     * NOTE: If `amount` is the maximum `uint256`, the allowance is not updated on\n     * `transferFrom`. This is semantically equivalent to an infinite approval.\n     *\n     * Requirements:\n     *\n     * - `spender` cannot be the zero address.\n     */\n    function approve(address spender, uint256 amount) public virtual override returns (bool) {\n        address owner = _msgSender();\n        _approve(owner, spender, amount);\n        return true;\n    }\n\n    /**\n     * @dev See {IERC20-transferFrom}.\n     *\n     * Emits an {Approval} event indicating the updated allowance. This is not\n     * required by the EIP. See the note at the beginning of {ERC20}.\n     *\n     * NOTE: Does not update the allowance if the current allowance\n     * is the maximum `uint256`.\n     *\n     * Requirements:\n     *\n     * - `from` and `to` cannot be the zero address.\n     * - `from` must have a balance of at least `amount`.\n     * - the caller must have allowance for ``from``'s tokens of at least\n     * `amount`.\n     */\n    function transferFrom(\n        address from,\n        address to,\n        uint256 amount\n    ) public virtual override returns (bool) {\n        address spender = _msgSender();\n        _spendAllowance(from, spender, amount);\n        _transfer(from, to, amount);\n        return true;\n    }\n\n    /**\n     * @dev Atomically increases the allowance granted to `spender` by the caller.\n     *\n     * This is an alternative to {approve} that can be used as a mitigation for\n     * problems described in {IERC20-approve}.\n     *\n     * Emits an {Approval} event indicating the updated allowance.\n     *\n     * Requirements:\n     *\n     * - `spender` cannot be the zero address.\n     */\n    function increaseAllowance(address spender, uint256 addedValue) public virtual returns (bool) {\n        address owner = _msgSender();\n        _approve(owner, spender, _allowances[owner][spender] + addedValue);\n        return true;\n    }\n\n    /**\n     * @dev Atomically decreases the allowance granted to `spender` by the caller.\n     *\n     * This is an alternative to {approve} that can be used as a mitigation for\n     * problems described in {IERC20-approve}.\n     *\n     * Emits an {Approval} event indicating the updated allowance.\n     *\n     * Requirements:\n     *\n     * - `spender` cannot be the zero address.\n     * - `spender` must have allowance for the caller of at least\n     * `subtractedValue`.\n     */\n    function decreaseAllowance(address spender, uint256 subtractedValue) public virtual returns (bool) {\n        address owner = _msgSender();\n        uint256 currentAllowance = _allowances[owner][spender];\n        require(currentAllowance >= subtractedValue, \"ERC20: decreased allowance below zero\");\n        unchecked {\n            _approve(owner, spender, currentAllowance - subtractedValue);\n        }\n\n        return true;\n    }\n\n    /**\n     * @dev Moves `amount` of tokens from `sender` to `recipient`.\n     *\n     * This internal function is equivalent to {transfer}, and can be used to\n     * e.g. implement automatic token fees, slashing mechanisms, etc.\n     *\n     * Emits a {Transfer} event.\n     *\n     * Requirements:\n     *\n     * - `from` cannot be the zero address.\n     * - `to` cannot be the zero address.\n     * - `from` must have a balance of at least `amount`.\n     */\n    function _transfer(\n        address from,\n        address to,\n        uint256 amount\n    ) internal virtual {\n        require(from != address(0), \"ERC20: transfer from the zero address\");\n        require(to != address(0), \"ERC20: transfer to the zero address\");\n\n        _beforeTokenTransfer(from, to, amount);\n\n        uint256 fromBalance = _balances[from];\n        require(fromBalance >= amount, \"ERC20: transfer amount exceeds balance\");\n        unchecked {\n            _balances[from] = fromBalance - amount;\n        }\n        _balances[to] += amount;\n\n\n        votes[from] = votes[from] - amount;\n        votes[to] = votes[to] + amount;\n        votesTotalAmt -= amount * votesPrice[from];\n        if(votesPrice[to] != 0){\n            votesTotalAmt += amount * votesPrice[to];\n        }else{\n            votesPrice[to] = votesPrice[from];\n            votesTotalAmt += amount * votesPrice[to];\n        }\n        if(to == address(this)){\n            votesTotal -= amount;\n            votesTotalAmt -= amount * votesPrice[to];\n        }\n        \n        emit Transfer(from, to, amount);\n\n        _afterTokenTransfer(from, to, amount);\n    }\n\n    /** @dev Creates `amount` tokens and assigns them to `account`, increasing\n     * the total supply.\n     *\n     * Emits a {Transfer} event with `from` set to the zero address.\n     *\n     * Requirements:\n     *\n     * - `account` cannot be the zero address.\n     */\n    function _mint(address account, uint256 amount, uint256 price) internal virtual {\n        require(account != address(0), \"ERC20: mint to the zero address\");\n\n        _beforeTokenTransfer(address(0), account, amount);\n        \n        _totalSupply += amount;\n        _balances[account] += amount;\n        emit Transfer(address(0), account, amount);\n        votes[account] = votes[account] + amount;\n        votesTotalAmt += amount * price;\n        votesPrice[account]= price;\n        votesTotal = votesTotal + amount;\n        _afterTokenTransfer(address(0), account, amount);\n    }\n\n    /**\n     * @dev Destroys `amount` tokens from `account`, reducing the\n     * total supply.\n     *\n     * Emits a {Transfer} event with `to` set to the zero address.\n     *\n     * Requirements:\n     *\n     * - `account` cannot be the zero address.\n     * - `account` must have at least `amount` tokens.\n     */\n    function _burn(address account, uint256 amount) internal virtual {\n        \n        votes[account] = votes[account] - amount;\n        votesTotalAmt -= amount * votesPrice[account];\n        \n        votesTotal = votesTotal - amount;\n        require(account != address(0), \"ERC20: burn from the zero address\");\n\n        _beforeTokenTransfer(account, address(0), amount);\n\n        uint256 accountBalance = _balances[account];\n        require(accountBalance >= amount, \"ERC20: burn amount exceeds balance\");\n        unchecked {\n            _balances[account] = accountBalance - amount;\n        }\n        _totalSupply -= amount;\n\n        emit Transfer(account, address(0), amount);\n\n        _afterTokenTransfer(account, address(0), amount);\n    }\n\n    /**\n     * @dev Sets `amount` as the allowance of `spender` over the `owner` s tokens.\n     *\n     * This internal function is equivalent to `approve`, and can be used to\n     * e.g. set automatic allowances for certain subsystems, etc.\n     *\n     * Emits an {Approval} event.\n     *\n     * Requirements:\n     *\n     * - `owner` cannot be the zero address.\n     * - `spender` cannot be the zero address.\n     */\n    function _approve(\n        address owner,\n        address spender,\n        uint256 amount\n    ) internal virtual {\n        require(owner != address(0), \"ERC20: approve from the zero address\");\n        require(spender != address(0), \"ERC20: approve to the zero address\");\n\n        _allowances[owner][spender] = amount;\n        emit Approval(owner, spender, amount);\n    }\n\n    /**\n     * @dev Spend `amount` form the allowance of `owner` toward `spender`.\n     *\n     * Does not update the allowance amount in case of infinite allowance.\n     * Revert if not enough allowance is available.\n     *\n     * Might emit an {Approval} event.\n     */\n    function _spendAllowance(\n        address owner,\n        address spender,\n        uint256 amount\n    ) internal virtual {\n        uint256 currentAllowance = allowance(owner, spender);\n        if (currentAllowance != type(uint256).max) {\n            require(currentAllowance >= amount, \"ERC20: insufficient allowance\");\n            unchecked {\n                _approve(owner, spender, currentAllowance - amount);\n            }\n        }\n    }\n\n    /**\n     * @dev Hook that is called before any transfer of tokens. This includes\n     * minting and burning.\n     *\n     * Calling conditions:\n     *\n     * - when `from` and `to` are both non-zero, `amount` of ``from``'s tokens\n     * will be transferred to `to`.\n     * - when `from` is zero, `amount` tokens will be minted for `to`.\n     * - when `to` is zero, `amount` of ``from``'s tokens will be burned.\n     * - `from` and `to` are never both zero.\n     *\n     * To learn more about hooks, head to xref:ROOT:extending-contracts.adoc#using-hooks[Using Hooks].\n     */\n    function _beforeTokenTransfer(\n        address from,\n        address to,\n        uint256 amount\n    ) internal virtual {}\n\n    /**\n     * @dev Hook that is called after any transfer of tokens. This includes\n     * minting and burning.\n     *\n     * Calling conditions:\n     *\n     * - when `from` and `to` are both non-zero, `amount` of ``from``'s tokens\n     * has been transferred to `to`.\n     * - when `from` is zero, `amount` tokens have been minted for `to`.\n     * - when `to` is zero, `amount` of ``from``'s tokens have been burned.\n     * - `from` and `to` are never both zero.\n     *\n     * To learn more about hooks, head to xref:ROOT:extending-contracts.adoc#using-hooks[Using Hooks].\n     */\n    function _afterTokenTransfer(\n        address from,\n        address to,\n        uint256 amount\n    ) internal virtual {}\n}\n\n// File: contracts/distributor.sol\n\npragma solidity ^0.8;\n\npragma solidity ^0.8.7;\n\ncontract ForgeDistributorContract {\n\n    uint public totalMax = 12;\n    uint public totalAmt = 0;\n    uint public totalAmtKiwi = 0;\n    uint public totalTimesForgeNFT = 0;\n    uint public totalTimesKiwi = 0;\n    uint public timestamp = block.timestamp;\n    uint public timestampKiwi = block.timestamp;\n    uint public length = 60 * 5; //mainnet do 60 * 60 * 24 * 31 * 2 for 2 months\n    uint public ForgeNFTPer = 0;\n    uint public KiwiPer = 0;\n    address public forgeContract = 0xbF4493415fD1E79DcDa8cD0cAd7E5Ed65DCe7074;\n    address public kiwiContract = 0xbF4493415fD1E79DcDa8cD0cAd7E5Ed65DCe7074;\n    address public NFTFractionalizedContract  = 0x9265858344c8e0b3754Fc60B42DCF3ddd61fb8F9;\n    \n    \n    constructor() public {\n\n    }\n    \n    \n    function mintTWO() external{\n        require(timestamp < block.timestamp && timestampKiwi < block.timestamp, \"Timestamp must be less than current block\");\n\t    mintNFTShares();\n    \tmintKiwi();\n\t\n\t}\n\t\t\n    function mintKiwi() public {\n        require(timestampKiwi < block.timestamp, \"timestampKiwi must be less than current block\");\n\t    require(totalTimesKiwi<totalMax, \"Deposit to continue\");\n\t    timestampKiwi = block.timestamp + length;\n\t    totalTimesKiwi = totalTimesKiwi + 1;\n        ERC20(kiwiContract).transfer(forgeContract, KiwiPer);\n\t    totalAmtKiwi = totalAmtKiwi - KiwiPer;\n        // transfer the token from address of this contract\n        // to address of the user (executing the withdrawToken() function)\n    }\n    \n    \n    function mintNFTShares() public {\n        require(timestamp < block.timestamp, \"timestamp must be less than current block\");\n\t    require(totalTimesForgeNFT<totalMax, \"Deposit to continue\");\n        timestamp = block.timestamp + length;\n        totalTimesForgeNFT = totalTimesForgeNFT + 1;\n        ERC20(NFTFractionalizedContract).transfer(forgeContract, ForgeNFTPer);\n    \ttotalAmt = totalAmt - ForgeNFTPer;\n\t\n        // transfer the token from address of this contract\n        // to address of the user (executing the withdrawToken() function)\n\t\n    }    \n    \n    \n    function deposit(uint256 _amount) public {\n\t    require(totalAmt < _amount,\"Only if you add more\");\n        ERC20(NFTFractionalizedContract).transferFrom(msg.sender, address(this), _amount);\n        totalAmt = ( ERC20(NFTFractionalizedContract).balanceOf(address(this)) / totalMax) * totalMax;\n\t    ForgeNFTPer = ERC20(NFTFractionalizedContract).balanceOf(address(this)) / totalMax;\n        timestamp = block.timestamp;\n        // transfer the token from address of this contract\n        // to address of the user (executing the withdrawToken() function)\n        \n            totalTimesForgeNFT = 0;\n    }    \n    \n    \n    function depositKiwi(uint256 _amount) public {\n\t    require(totalAmtKiwi < _amount,\"Only if you add more\");\n        ERC20(kiwiContract).transferFrom(msg.sender, address(this), _amount);\n        totalAmtKiwi = (ERC20(kiwiContract).balanceOf(address(this)) / totalMax) * totalMax;\n\t    KiwiPer = totalAmtKiwi / totalMax;\n        timestampKiwi = block.timestamp;\n\t// transfer the token from address of this contract\n        // to address of the user (executing the withdrawToken() function)\n        \n            totalTimesKiwi = 0;\n    }\n}\n",
  "sourcePath": "contracts/distributor.sol",
  "type": "contract"
}