{
  "abi": [
    {
      "constant": true,
      "inputs": [
        {
          "name": "_interfaceId",
          "type": "bytes4"
        }
      ],
      "name": "supportsInterface",
      "outputs": [
        {
          "name": "",
          "type": "bool"
        }
      ],
      "payable": false,
      "stateMutability": "view",
      "type": "function"
    },
    {
      "constant": true,
      "inputs": [],
      "name": "name",
      "outputs": [
        {
          "name": "",
          "type": "string"
        }
      ],
      "payable": false,
      "stateMutability": "view",
      "type": "function"
    },
    {
      "constant": true,
      "inputs": [
        {
          "name": "_tokenId",
          "type": "uint256"
        }
      ],
      "name": "getApproved",
      "outputs": [
        {
          "name": "",
          "type": "address"
        }
      ],
      "payable": false,
      "stateMutability": "view",
      "type": "function"
    },
    {
      "constant": false,
      "inputs": [
        {
          "name": "_to",
          "type": "address"
        },
        {
          "name": "_tokenId",
          "type": "uint256"
        }
      ],
      "name": "approve",
      "outputs": [],
      "payable": false,
      "stateMutability": "nonpayable",
      "type": "function"
    },
    {
      "constant": true,
      "inputs": [],
      "name": "totalSupply",
      "outputs": [
        {
          "name": "",
          "type": "uint256"
        }
      ],
      "payable": false,
      "stateMutability": "view",
      "type": "function"
    },
    {
      "constant": true,
      "inputs": [],
      "name": "InterfaceId_ERC165",
      "outputs": [
        {
          "name": "",
          "type": "bytes4"
        }
      ],
      "payable": false,
      "stateMutability": "view",
      "type": "function"
    },
    {
      "constant": false,
      "inputs": [
        {
          "name": "_from",
          "type": "address"
        },
        {
          "name": "_to",
          "type": "address"
        },
        {
          "name": "_tokenId",
          "type": "uint256"
        }
      ],
      "name": "transferFrom",
      "outputs": [],
      "payable": false,
      "stateMutability": "nonpayable",
      "type": "function"
    },
    {
      "constant": true,
      "inputs": [
        {
          "name": "_owner",
          "type": "address"
        },
        {
          "name": "_index",
          "type": "uint256"
        }
      ],
      "name": "tokenOfOwnerByIndex",
      "outputs": [
        {
          "name": "",
          "type": "uint256"
        }
      ],
      "payable": false,
      "stateMutability": "view",
      "type": "function"
    },
    {
      "constant": false,
      "inputs": [
        {
          "name": "filename",
          "type": "string"
        }
      ],
      "name": "mintToken",
      "outputs": [],
      "payable": false,
      "stateMutability": "nonpayable",
      "type": "function"
    },
    {
      "constant": false,
      "inputs": [
        {
          "name": "_from",
          "type": "address"
        },
        {
          "name": "_to",
          "type": "address"
        },
        {
          "name": "_tokenId",
          "type": "uint256"
        }
      ],
      "name": "safeTransferFrom",
      "outputs": [],
      "payable": false,
      "stateMutability": "nonpayable",
      "type": "function"
    },
    {
      "constant": false,
      "inputs": [
        {
          "name": "new_baseurl",
          "type": "string"
        }
      ],
      "name": "manageBaseURL",
      "outputs": [],
      "payable": false,
      "stateMutability": "nonpayable",
      "type": "function"
    },
    {
      "constant": false,
      "inputs": [
        {
          "name": "_client",
          "type": "address"
        },
        {
          "name": "filename",
          "type": "string"
        }
      ],
      "name": "mintTokenForClient",
      "outputs": [],
      "payable": false,
      "stateMutability": "nonpayable",
      "type": "function"
    },
    {
      "constant": true,
      "inputs": [
        {
          "name": "_tokenId",
          "type": "uint256"
        }
      ],
      "name": "exists",
      "outputs": [
        {
          "name": "",
          "type": "bool"
        }
      ],
      "payable": false,
      "stateMutability": "view",
      "type": "function"
    },
    {
      "constant": true,
      "inputs": [
        {
          "name": "_index",
          "type": "uint256"
        }
      ],
      "name": "tokenByIndex",
      "outputs": [
        {
          "name": "",
          "type": "uint256"
        }
      ],
      "payable": false,
      "stateMutability": "view",
      "type": "function"
    },
    {
      "constant": false,
      "inputs": [
        {
          "name": "_ids",
          "type": "uint256[]"
        },
        {
          "name": "_to",
          "type": "address"
        }
      ],
      "name": "transferOwnTokens",
      "outputs": [],
      "payable": false,
      "stateMutability": "nonpayable",
      "type": "function"
    },
    {
      "constant": true,
      "inputs": [
        {
          "name": "_tokenId",
          "type": "uint256"
        }
      ],
      "name": "ownerOf",
      "outputs": [
        {
          "name": "",
          "type": "address"
        }
      ],
      "payable": false,
      "stateMutability": "view",
      "type": "function"
    },
    {
      "constant": true,
      "inputs": [
        {
          "name": "_owner",
          "type": "address"
        }
      ],
      "name": "balanceOf",
      "outputs": [
        {
          "name": "",
          "type": "uint256"
        }
      ],
      "payable": false,
      "stateMutability": "view",
      "type": "function"
    },
    {
      "constant": false,
      "inputs": [],
      "name": "renounceOwnership",
      "outputs": [],
      "payable": false,
      "stateMutability": "nonpayable",
      "type": "function"
    },
    {
      "constant": false,
      "inputs": [
        {
          "name": "githubID",
          "type": "uint256"
        },
        {
          "name": "newName",
          "type": "string"
        }
      ],
      "name": "editGithub",
      "outputs": [],
      "payable": false,
      "stateMutability": "nonpayable",
      "type": "function"
    },
    {
      "constant": true,
      "inputs": [],
      "name": "owner",
      "outputs": [
        {
          "name": "",
          "type": "address"
        }
      ],
      "payable": false,
      "stateMutability": "view",
      "type": "function"
    },
    {
      "constant": true,
      "inputs": [
        {
          "name": "get_githubID",
          "type": "uint256"
        }
      ],
      "name": "getGithub",
      "outputs": [
        {
          "name": "nof_addresses",
          "type": "uint256"
        },
        {
          "name": "_githubID",
          "type": "uint256"
        },
        {
          "name": "_githubName",
          "type": "string"
        }
      ],
      "payable": false,
      "stateMutability": "view",
      "type": "function"
    },
    {
      "constant": true,
      "inputs": [],
      "name": "myTokens",
      "outputs": [
        {
          "name": "",
          "type": "uint256[]"
        }
      ],
      "payable": false,
      "stateMutability": "view",
      "type": "function"
    },
    {
      "constant": true,
      "inputs": [],
      "name": "symbol",
      "outputs": [
        {
          "name": "",
          "type": "string"
        }
      ],
      "payable": false,
      "stateMutability": "view",
      "type": "function"
    },
    {
      "constant": true,
      "inputs": [],
      "name": "viewBaseURL",
      "outputs": [
        {
          "name": "base_url",
          "type": "string"
        }
      ],
      "payable": false,
      "stateMutability": "view",
      "type": "function"
    },
    {
      "constant": false,
      "inputs": [
        {
          "name": "_to",
          "type": "address"
        },
        {
          "name": "_approved",
          "type": "bool"
        }
      ],
      "name": "setApprovalForAll",
      "outputs": [],
      "payable": false,
      "stateMutability": "nonpayable",
      "type": "function"
    },
    {
      "constant": false,
      "inputs": [
        {
          "name": "_from",
          "type": "address"
        },
        {
          "name": "_to",
          "type": "address"
        },
        {
          "name": "_tokenId",
          "type": "uint256"
        },
        {
          "name": "_data",
          "type": "bytes"
        }
      ],
      "name": "safeTransferFrom",
      "outputs": [],
      "payable": false,
      "stateMutability": "nonpayable",
      "type": "function"
    },
    {
      "constant": true,
      "inputs": [
        {
          "name": "_ID",
          "type": "uint256"
        }
      ],
      "name": "tokenURI",
      "outputs": [
        {
          "name": "URI",
          "type": "string"
        }
      ],
      "payable": false,
      "stateMutability": "view",
      "type": "function"
    },
    {
      "constant": true,
      "inputs": [
        {
          "name": "_owner",
          "type": "address"
        },
        {
          "name": "_operator",
          "type": "address"
        }
      ],
      "name": "isApprovedForAll",
      "outputs": [
        {
          "name": "",
          "type": "bool"
        }
      ],
      "payable": false,
      "stateMutability": "view",
      "type": "function"
    },
    {
      "constant": false,
      "inputs": [
        {
          "name": "_newOwner",
          "type": "address"
        }
      ],
      "name": "transferOwnership",
      "outputs": [],
      "payable": false,
      "stateMutability": "nonpayable",
      "type": "function"
    },
    {
      "inputs": [],
      "payable": false,
      "stateMutability": "nonpayable",
      "type": "constructor"
    },
    {
      "anonymous": false,
      "inputs": [
        {
          "indexed": true,
          "name": "buyer",
          "type": "address"
        },
        {
          "indexed": false,
          "name": "tokenId",
          "type": "uint256"
        }
      ],
      "name": "BoughtToken",
      "type": "event"
    },
    {
      "anonymous": false,
      "inputs": [
        {
          "indexed": true,
          "name": "previousOwner",
          "type": "address"
        }
      ],
      "name": "OwnershipRenounced",
      "type": "event"
    },
    {
      "anonymous": false,
      "inputs": [
        {
          "indexed": true,
          "name": "previousOwner",
          "type": "address"
        },
        {
          "indexed": true,
          "name": "newOwner",
          "type": "address"
        }
      ],
      "name": "OwnershipTransferred",
      "type": "event"
    },
    {
      "anonymous": false,
      "inputs": [
        {
          "indexed": true,
          "name": "_from",
          "type": "address"
        },
        {
          "indexed": true,
          "name": "_to",
          "type": "address"
        },
        {
          "indexed": true,
          "name": "_tokenId",
          "type": "uint256"
        }
      ],
      "name": "Transfer",
      "type": "event"
    },
    {
      "anonymous": false,
      "inputs": [
        {
          "indexed": true,
          "name": "_owner",
          "type": "address"
        },
        {
          "indexed": true,
          "name": "_approved",
          "type": "address"
        },
        {
          "indexed": true,
          "name": "_tokenId",
          "type": "uint256"
        }
      ],
      "name": "Approval",
      "type": "event"
    },
    {
      "anonymous": false,
      "inputs": [
        {
          "indexed": true,
          "name": "_owner",
          "type": "address"
        },
        {
          "indexed": true,
          "name": "_operator",
          "type": "address"
        },
        {
          "indexed": false,
          "name": "_approved",
          "type": "bool"
        }
      ],
      "name": "ApprovalForAll",
      "type": "event"
    }
  ],
  "bytecode": "6064600e5560e0604052602e60808190527f68747470733a2f2f666f726765746f6b656e2e6f72672f6170692f666f72676560a09081527f2f466f7267652d496d616765732f00000000000000000000000000000000000060c0526200006991600f9190620006a5565b503480156200007757600080fd5b50604080518082018252600d81527f466f726765546f6b656e4e4654000000000000000000000000000000000000006020808301919091528251808401909352600683527f4667654e4654000000000000000000000000000000000000000000000000000090830152600091620001177f01ffc9a700000000000000000000000000000000000000000000000000000000640100000000620002d5810204565b6200014b7f80ac58cd00000000000000000000000000000000000000000000000000000000640100000000620002d5810204565b6200017f7f4f558e7900000000000000000000000000000000000000000000000000000000640100000000620002d5810204565b815162000194906005906020850190620006a5565b508051620001aa906006906020840190620006a5565b50620001df7f780e9d6300000000000000000000000000000000000000000000000000000000640100000000620002d5810204565b620002137f5b5e139f00000000000000000000000000000000000000000000000000000000640100000000620002d5810204565b5050600c8054600160a060020a0319163317905560408051808201909152600781527f3030302e706e670000000000000000000000000000000000000000000000000060208201526200026f9064010000000062000342810204565b5060005b6020811215620002ce5760408051808201909152600181527f30000000000000000000000000000000000000000000000000000000000000006020820152620002c59064010000000062000395810204565b60010162000273565b5062000747565b7fffffffff0000000000000000000000000000000000000000000000000000000080821614156200030557600080fd5b7fffffffff00000000000000000000000000000000000000000000000000000000166000908152602081905260409020805460ff19166001179055565b6010805460018082019092556040805180820182528281526020808201868152600085815260118352939093208251815592518051949592946200038e938501929190910190620006a5565b5050505050565b600c54600090600160a060020a03163314620003b057600080fd5b50600954600101620003ca640100000000620004c4810204565b15156001146200046157604080517f08c379a000000000000000000000000000000000000000000000000000000000815260206004820152602d60248201527f416c6c20616c6c6f77656420746f6b656e732068617665206265656e2063726560448201527f6174656420616c72656164792100000000000000000000000000000000000000606482015290519081900360840190fd5b620004758264010000000062000342810204565b6200048a3382640100000000620004de810204565b60408051828152905133917f75424253909c2f4460f8a59099700e980f5b484608c4fdd79f600f5162ac88a5919081900360200190a25050565b600e546009546001919082011115620004db575060005b90565b620004f8828264010000000062001a9d6200053d82021704565b600980546000838152600a60205260408120829055600182018355919091527f6e1540171b6c0c960b71a7020d9f60077f6af931a8bbf590da0223dacf75c7af015550565b600160a060020a03821615156200055357600080fd5b620005688282640100000000620005a4810204565b6040518190600160a060020a038416906000907fddf252ad1be2c89b69c2b068fc378daa952ba7f163c4a11628f55a4df523b3ef908290a45050565b6000620005c0838364010000000062001a0d620005fd82021704565b50600160a060020a039091166000908152600760209081526040808320805460018101825590845282842081018590559383526008909152902055565b600081815260016020526040902054600160a060020a0316156200062057600080fd5b60008181526001602081815260408084208054600160a060020a031916600160a060020a0388169081179091558452600390915290912054620006719164010000000062000691810262001b001704565b600160a060020a0390921660009081526003602052604090209190915550565b818101828110156200069f57fe5b92915050565b828054600181600116156101000203166002900490600052602060002090601f016020900481019282601f10620006e857805160ff191683800117855562000718565b8280016001018555821562000718579182015b8281111562000718578251825591602001919060010190620006fb565b50620007269291506200072a565b5090565b620004db91905b8082111562000726576000815560010162000731565b611bfa80620007576000396000f3006080604052600436106101745763ffffffff7c010000000000000000000000000000000000000000000000000000000060003504166301ffc9a7811461017957806306fdde03146101af578063081812fc14610239578063095ea7b31461026d57806318160ddd1461029357806319fa8f50146102ba57806323b872dd146102ec5780632f745c591461031657806333eba49a1461033a57806342842e0e146103935780634ad8eaf5146103bd5780634f2571d6146104165780634f558e79146104435780634f6ccce71461045b5780635f88d837146104735780636352211e146104a157806370a08231146104b9578063715018a6146104da5780638ac12997146104ef5780638da5cb5b1461051357806390b9d41214610528578063949e8acd146105c657806395d89b411461062b5780639fae24ed14610640578063a22cb46514610655578063b88d4fde1461067b578063c87b56dd146106ea578063e985e9c514610702578063f2fde38b14610729575b600080fd5b34801561018557600080fd5b5061019b600160e060020a03196004351661074a565b604080519115158252519081900360200190f35b3480156101bb57600080fd5b506101c4610769565b6040805160208082528351818301528351919283929083019185019080838360005b838110156101fe5781810151838201526020016101e6565b50505050905090810190601f16801561022b5780820380516001836020036101000a031916815260200191505b509250505060405180910390f35b34801561024557600080fd5b50610251600435610800565b60408051600160a060020a039092168252519081900360200190f35b34801561027957600080fd5b50610291600160a060020a036004351660243561081b565b005b34801561029f57600080fd5b506102a86108d1565b60408051918252519081900360200190f35b3480156102c657600080fd5b506102cf6108d7565b60408051600160e060020a03199092168252519081900360200190f35b3480156102f857600080fd5b50610291600160a060020a03600435811690602435166044356108fb565b34801561032257600080fd5b506102a8600160a060020a03600435166024356109a0565b34801561034657600080fd5b506040805160206004803580820135601f81018490048402850184019095528484526102919436949293602493928401919081908401838280828437509497506109ed9650505050505050565b34801561039f57600080fd5b50610291600160a060020a0360043581169060243516604435610af9565b3480156103c957600080fd5b506040805160206004803580820135601f8101849004840285018401909552848452610291943694929360249392840191908190840183828082843750949750610b319650505050505050565b34801561042257600080fd5b5061029160048035600160a060020a03169060248035908101910135610b5f565b34801561044f57600080fd5b5061019b600435610ca6565b34801561046757600080fd5b506102a8600435610cc3565b34801561047f57600080fd5b506102916024600480358281019291013590600160a060020a03903516610cf8565b3480156104ad57600080fd5b50610251600435610e15565b3480156104c557600080fd5b506102a8600160a060020a0360043516610e3f565b3480156104e657600080fd5b50610291610e72565b3480156104fb57600080fd5b50610291600480359060248035908101910135610ee0565b34801561051f57600080fd5b50610251610f73565b34801561053457600080fd5b50610540600435610f82565b6040518084815260200183815260200180602001828103825283818151815260200191508051906020019080838360005b83811015610589578181015183820152602001610571565b50505050905090810190601f1680156105b65780820380516001836020036101000a031916815260200191505b5094505050505060405180910390f35b3480156105d257600080fd5b506105db611035565b60408051602080825283518183015283519192839290830191858101910280838360005b838110156106175781810151838201526020016105ff565b505050509050019250505060405180910390f35b34801561063757600080fd5b506101c4611095565b34801561064c57600080fd5b506101c46110f6565b34801561066157600080fd5b50610291600160a060020a03600435166024351515611157565b34801561068757600080fd5b50604080516020601f60643560048181013592830184900484028501840190955281845261029194600160a060020a0381358116956024803590921695604435953695608494019181908401838280828437509497506111db9650505050505050565b3480156106f657600080fd5b506101c460043561121a565b34801561070e57600080fd5b5061019b600160a060020a0360043581169060243516611301565b34801561073557600080fd5b50610291600160a060020a036004351661132f565b600160e060020a03191660009081526020819052604090205460ff1690565b60058054604080516020601f60026000196101006001881615020190951694909404938401819004810282018101909252828152606093909290918301828280156107f55780601f106107ca576101008083540402835291602001916107f5565b820191906000526020600020905b8154815290600101906020018083116107d857829003601f168201915b505050505090505b90565b600090815260026020526040902054600160a060020a031690565b600061082682610e15565b9050600160a060020a03838116908216141561084157600080fd5b33600160a060020a038216148061085d575061085d8133611301565b151561086857600080fd5b600082815260026020526040808220805473ffffffffffffffffffffffffffffffffffffffff1916600160a060020a0387811691821790925591518593918516917f8c5be1e5ebec7d5bd14f71427d1e84f3dd0314c0f7b2291e5b200ac8c7c3b92591a4505050565b60095490565b7f01ffc9a70000000000000000000000000000000000000000000000000000000081565b806109063382611352565b151561091157600080fd5b600160a060020a038416151561092657600080fd5b600160a060020a038316151561093b57600080fd5b61094584836113b1565b61094f8483611420565b6109598383611559565b8183600160a060020a031685600160a060020a03167fddf252ad1be2c89b69c2b068fc378daa952ba7f163c4a11628f55a4df523b3ef60405160405180910390a450505050565b60006109ab83610e3f565b82106109b657600080fd5b600160a060020a03831660009081526007602052604090208054839081106109da57fe5b9060005260206000200154905092915050565b600c54600090600160a060020a03163314610a0757600080fd5b50600954600101610a166115a2565b1515600114610aac57604080517f08c379a000000000000000000000000000000000000000000000000000000000815260206004820152602d60248201527f416c6c20616c6c6f77656420746f6b656e732068617665206265656e2063726560448201527f6174656420616c72656164792100000000000000000000000000000000000000606482015290519081900360840190fd5b610ab5826115ba565b610abf3382611604565b60408051828152905133917f75424253909c2f4460f8a59099700e980f5b484608c4fdd79f600f5162ac88a5919081900360200190a25050565b80610b043382611352565b1515610b0f57600080fd5b610b2b84848460206040519081016040528060008152506111db565b50505050565b600c54600160a060020a03163314610b4857600080fd5b8051610b5b90600f906020840190611b0d565b5050565b600c54600090600160a060020a03163314610b7957600080fd5b50600954600101610b886115a2565b1515600114610c1e57604080517f08c379a000000000000000000000000000000000000000000000000000000000815260206004820152602c60248201527f416c6c20616c6c6f77656420746f6b656e732068617665206265656e206d696e60448201527f74656420616c7265616479210000000000000000000000000000000000000000606482015290519081900360840190fd5b610c5783838080601f016020809104026020016040519081016040528093929190818152602001838380828437506115ba945050505050565b610c618482611604565b604080518281529051600160a060020a038616917f75424253909c2f4460f8a59099700e980f5b484608c4fdd79f600f5162ac88a5919081900360200190a250505050565b600090815260016020526040902054600160a060020a0316151590565b6000610ccd6108d1565b8210610cd857600080fd5b6009805483908110610ce657fe5b90600052602060002001549050919050565b8133600080600160a060020a0385161515610d1257600080fd5b600091505b83821015610d5157610d3b33888885818110610d2f57fe5b90506020020135611352565b1515610d4657600080fd5b600190910190610d17565b5060005b83811015610e0c57610d7983888884818110610d6d57fe5b905060200201356113b1565b610d9583888884818110610d8957fe5b90506020020135611420565b610db185888884818110610da557fe5b90506020020135611559565b868682818110610dbd57fe5b9050602002013585600160a060020a031684600160a060020a03167fddf252ad1be2c89b69c2b068fc378daa952ba7f163c4a11628f55a4df523b3ef60405160405180910390a4600101610d55565b50505050505050565b600081815260016020526040812054600160a060020a0316801515610e3957600080fd5b92915050565b6000600160a060020a0382161515610e5657600080fd5b50600160a060020a031660009081526003602052604090205490565b600c54600160a060020a03163314610e8957600080fd5b600c54604051600160a060020a03909116907ff8df31144d9c2f0f6b59d69b8b98abd5459d07f2742c4df920b25aae33c6482090600090a2600c805473ffffffffffffffffffffffffffffffffffffffff19169055565b600c54600160a060020a03163314610ef757600080fd5b604080519081016040528084815260200183838080601f016020809104026020016040519081016040528093929190818152602001838380828437505050929093525050506000848152601160209081526040909120825181558282015180519192610f6b92600185019290910190611b0d565b505050505050565b600c54600160a060020a031681565b6000818152601160209081526040918290206010548154600180840180548751600293821615610100026000190190911692909204601f810187900487028301870190975286825292959194606094939192908301828280156110265780601f10610ffb57610100808354040283529160200191611026565b820191906000526020600020905b81548152906001019060200180831161100957829003601f168201915b50505050509150509193909250565b336000908152600760209081526040918290208054835181840281018401909452808452606093928301828280156107f557602002820191906000526020600020905b815481526020019060010190808311611078575050505050905090565b60068054604080516020601f60026000196101006001881615020190951694909404938401819004810282018101909252828152606093909290918301828280156107f55780601f106107ca576101008083540402835291602001916107f5565b600f8054604080516020601f60026000196101006001881615020190951694909404938401819004810282018101909252828152606093909290918301828280156107f55780601f106107ca576101008083540402835291602001916107f5565b600160a060020a03821633141561116d57600080fd5b336000818152600460209081526040808320600160a060020a03871680855290835292819020805460ff1916861515908117909155815190815290519293927f17307eab39ab6107e8899845ad3d59bd9653f200f220920489ca2b5937696c31929181900390910190a35050565b816111e63382611352565b15156111f157600080fd5b6111fc8585856108fb565b61120885858585611653565b151561121357600080fd5b5050505050565b606061122582610ca6565b151561123057600080fd5b600f61123b836117c0565b60405160200180838054600181600116156101000203166002900480156112995780601f10611277576101008083540402835291820191611299565b820191906000526020600020905b815481529060010190602001808311611285575b5050825160208401908083835b602083106112c55780518252601f1990920191602091820191016112a6565b6001836020036101000a038019825116818451168082178552505050505050905001925050506040516020818303038152906040529050919050565b600160a060020a03918216600090815260046020908152604080832093909416825291909152205460ff1690565b600c54600160a060020a0316331461134657600080fd5b61134f816118e7565b50565b60008061135e83610e15565b905080600160a060020a031684600160a060020a03161480611399575083600160a060020a031661138e84610800565b600160a060020a0316145b806113a957506113a98185611301565b949350505050565b81600160a060020a03166113c482610e15565b600160a060020a0316146113d757600080fd5b600081815260026020526040902054600160a060020a031615610b5b576000908152600260205260409020805473ffffffffffffffffffffffffffffffffffffffff1916905550565b600080600061142f8585611965565b600084815260086020908152604080832054600160a060020a038916845260079092529091205490935061146a90600163ffffffff6119fb16565b600160a060020a03861660009081526007602052604090208054919350908390811061149257fe5b90600052602060002001549050806007600087600160a060020a0316600160a060020a03168152602001908152602001600020848154811015156114d257fe5b6000918252602080832090910192909255600160a060020a038716815260079091526040812080548490811061150457fe5b6000918252602080832090910192909255600160a060020a038716815260079091526040902080549061153b906000198301611b8b565b50600093845260086020526040808520859055908452909220555050565b60006115658383611a0d565b50600160a060020a039091166000908152600760209081526040808320805460018101825590845282842081018590559383526008909152902055565b600e5460095460019190820111156107fd5750600090565b601080546001808201909255604080518082018252828152602080820186815260008581526011835293909320825181559251805194959294611213938501929190910190611b0d565b61160e8282611a9d565b600980546000838152600a60205260408120829055600182018355919091527f6e1540171b6c0c960b71a7020d9f60077f6af931a8bbf590da0223dacf75c7af015550565b60008061166885600160a060020a0316611af8565b151561167757600191506117b7565b6040517f150b7a020000000000000000000000000000000000000000000000000000000081523360048201818152600160a060020a03898116602485015260448401889052608060648501908152875160848601528751918a169463150b7a0294938c938b938b93909160a490910190602085019080838360005b8381101561170a5781810151838201526020016116f2565b50505050905090810190601f1680156117375780820380516001836020036101000a031916815260200191505b5095505050505050602060405180830381600087803b15801561175957600080fd5b505af115801561176d573d6000803e3d6000fd5b505050506040513d602081101561178357600080fd5b5051600160e060020a031981167f150b7a020000000000000000000000000000000000000000000000000000000014925090505b50949350505050565b606060008082818515156118095760408051808201909152600181527f3000000000000000000000000000000000000000000000000000000000000000602082015294506118de565b8593505b831561182457600190920191600a8404935061180d565b826040519080825280601f01601f191660200182016040528015611852578160200160208202803883390190505b5091505060001982015b85156118da5781516000198201917f01000000000000000000000000000000000000000000000000000000000000006030600a8a06010291849190811061189f57fe5b9060200101907effffffffffffffffffffffffffffffffffffffffffffffffffffffffffffff1916908160001a905350600a8604955061185c565b8194505b50505050919050565b600160a060020a03811615156118fc57600080fd5b600c54604051600160a060020a038084169216907f8be0079c531659141344cd1fd0a4f28419497f9722a3daafe3b4186f6b6457e090600090a3600c805473ffffffffffffffffffffffffffffffffffffffff1916600160a060020a0392909216919091179055565b81600160a060020a031661197882610e15565b600160a060020a03161461198b57600080fd5b600160a060020a0382166000908152600360205260409020546119b590600163ffffffff6119fb16565b600160a060020a03909216600090815260036020908152604080832094909455918152600190915220805473ffffffffffffffffffffffffffffffffffffffff19169055565b600082821115611a0757fe5b50900390565b600081815260016020526040902054600160a060020a031615611a2f57600080fd5b6000818152600160208181526040808420805473ffffffffffffffffffffffffffffffffffffffff1916600160a060020a0388169081179091558452600390915290912054611a7d91611b00565b600160a060020a0390921660009081526003602052604090209190915550565b600160a060020a0382161515611ab257600080fd5b611abc8282611559565b6040518190600160a060020a038416906000907fddf252ad1be2c89b69c2b068fc378daa952ba7f163c4a11628f55a4df523b3ef908290a45050565b6000903b1190565b81810182811015610e3957fe5b828054600181600116156101000203166002900490600052602060002090601f016020900481019282601f10611b4e57805160ff1916838001178555611b7b565b82800160010185558215611b7b579182015b82811115611b7b578251825591602001919060010190611b60565b50611b87929150611bb4565b5090565b815481835581811115611baf57600083815260209020611baf918101908301611bb4565b505050565b6107fd91905b80821115611b875760008155600101611bba5600a165627a7a72305820341baf8976a85976fd10ea791444d1aeeada71be0a758ad8cd341edf5a3f41960029",
  "bytecodeSha1": "873bb19f461111c5a17f1ce0d9b04fe75adc4fec",
  "compiler": {
    "evm_version": "byzantium",
    "optimizer": {
      "enabled": true,
      "runs": 200
    },
    "version": "0.4.26+commit.4563c3fc"
  },
  "contractName": "ForgeTokenNFT",
  "language": "Solidity",
  "natspec": {
    "methods": {}
  },
  "opcodes": "PUSH1 0x80 PUSH1 0x40 MSTORE PUSH1 0x4 CALLDATASIZE LT PUSH2 0x174 JUMPI PUSH4 0xFFFFFFFF PUSH29 0x100000000000000000000000000000000000000000000000000000000 PUSH1 0x0 CALLDATALOAD DIV AND PUSH4 0x1FFC9A7 DUP2 EQ PUSH2 0x179 JUMPI DUP1 PUSH4 0x6FDDE03 EQ PUSH2 0x1AF JUMPI DUP1 PUSH4 0x81812FC EQ PUSH2 0x239 JUMPI DUP1 PUSH4 0x95EA7B3 EQ PUSH2 0x26D JUMPI DUP1 PUSH4 0x18160DDD EQ PUSH2 0x293 JUMPI DUP1 PUSH4 0x19FA8F50 EQ PUSH2 0x2BA JUMPI DUP1 PUSH4 0x23B872DD EQ PUSH2 0x2EC JUMPI DUP1 PUSH4 0x2F745C59 EQ PUSH2 0x316 JUMPI DUP1 PUSH4 0x33EBA49A EQ PUSH2 0x33A JUMPI DUP1 PUSH4 0x42842E0E EQ PUSH2 0x393 JUMPI DUP1 PUSH4 0x4AD8EAF5 EQ PUSH2 0x3BD JUMPI DUP1 PUSH4 0x4F2571D6 EQ PUSH2 0x416 JUMPI DUP1 PUSH4 0x4F558E79 EQ PUSH2 0x443 JUMPI DUP1 PUSH4 0x4F6CCCE7 EQ PUSH2 0x45B JUMPI DUP1 PUSH4 0x5F88D837 EQ PUSH2 0x473 JUMPI DUP1 PUSH4 0x6352211E EQ PUSH2 0x4A1 JUMPI DUP1 PUSH4 0x70A08231 EQ PUSH2 0x4B9 JUMPI DUP1 PUSH4 0x715018A6 EQ PUSH2 0x4DA JUMPI DUP1 PUSH4 0x8AC12997 EQ PUSH2 0x4EF JUMPI DUP1 PUSH4 0x8DA5CB5B EQ PUSH2 0x513 JUMPI DUP1 PUSH4 0x90B9D412 EQ PUSH2 0x528 JUMPI DUP1 PUSH4 0x949E8ACD EQ PUSH2 0x5C6 JUMPI DUP1 PUSH4 0x95D89B41 EQ PUSH2 0x62B JUMPI DUP1 PUSH4 0x9FAE24ED EQ PUSH2 0x640 JUMPI DUP1 PUSH4 0xA22CB465 EQ PUSH2 0x655 JUMPI DUP1 PUSH4 0xB88D4FDE EQ PUSH2 0x67B JUMPI DUP1 PUSH4 0xC87B56DD EQ PUSH2 0x6EA JUMPI DUP1 PUSH4 0xE985E9C5 EQ PUSH2 0x702 JUMPI DUP1 PUSH4 0xF2FDE38B EQ PUSH2 0x729 JUMPI JUMPDEST PUSH1 0x0 DUP1 REVERT JUMPDEST CALLVALUE DUP1 ISZERO PUSH2 0x185 JUMPI PUSH1 0x0 DUP1 REVERT JUMPDEST POP PUSH2 0x19B PUSH1 0x1 PUSH1 0xE0 PUSH1 0x2 EXP SUB NOT PUSH1 0x4 CALLDATALOAD AND PUSH2 0x74A JUMP JUMPDEST PUSH1 0x40 DUP1 MLOAD SWAP2 ISZERO ISZERO DUP3 MSTORE MLOAD SWAP1 DUP2 SWAP1 SUB PUSH1 0x20 ADD SWAP1 RETURN JUMPDEST CALLVALUE DUP1 ISZERO PUSH2 0x1BB JUMPI PUSH1 0x0 DUP1 REVERT JUMPDEST POP PUSH2 0x1C4 PUSH2 0x769 JUMP JUMPDEST PUSH1 0x40 DUP1 MLOAD PUSH1 0x20 DUP1 DUP3 MSTORE DUP4 MLOAD DUP2 DUP4 ADD MSTORE DUP4 MLOAD SWAP2 SWAP3 DUP4 SWAP3 SWAP1 DUP4 ADD SWAP2 DUP6 ADD SWAP1 DUP1 DUP4 DUP4 PUSH1 0x0 JUMPDEST DUP4 DUP2 LT ISZERO PUSH2 0x1FE JUMPI DUP2 DUP2 ADD MLOAD DUP4 DUP3 ADD MSTORE PUSH1 0x20 ADD PUSH2 0x1E6 JUMP JUMPDEST POP POP POP POP SWAP1 POP SWAP1 DUP2 ADD SWAP1 PUSH1 0x1F AND DUP1 ISZERO PUSH2 0x22B JUMPI DUP1 DUP3 SUB DUP1 MLOAD PUSH1 0x1 DUP4 PUSH1 0x20 SUB PUSH2 0x100 EXP SUB NOT AND DUP2 MSTORE PUSH1 0x20 ADD SWAP2 POP JUMPDEST POP SWAP3 POP POP POP PUSH1 0x40 MLOAD DUP1 SWAP2 SUB SWAP1 RETURN JUMPDEST CALLVALUE DUP1 ISZERO PUSH2 0x245 JUMPI PUSH1 0x0 DUP1 REVERT JUMPDEST POP PUSH2 0x251 PUSH1 0x4 CALLDATALOAD PUSH2 0x800 JUMP JUMPDEST PUSH1 0x40 DUP1 MLOAD PUSH1 0x1 PUSH1 0xA0 PUSH1 0x2 EXP SUB SWAP1 SWAP3 AND DUP3 MSTORE MLOAD SWAP1 DUP2 SWAP1 SUB PUSH1 0x20 ADD SWAP1 RETURN JUMPDEST CALLVALUE DUP1 ISZERO PUSH2 0x279 JUMPI PUSH1 0x0 DUP1 REVERT JUMPDEST POP PUSH2 0x291 PUSH1 0x1 PUSH1 0xA0 PUSH1 0x2 EXP SUB PUSH1 0x4 CALLDATALOAD AND PUSH1 0x24 CALLDATALOAD PUSH2 0x81B JUMP JUMPDEST STOP JUMPDEST CALLVALUE DUP1 ISZERO PUSH2 0x29F JUMPI PUSH1 0x0 DUP1 REVERT JUMPDEST POP PUSH2 0x2A8 PUSH2 0x8D1 JUMP JUMPDEST PUSH1 0x40 DUP1 MLOAD SWAP2 DUP3 MSTORE MLOAD SWAP1 DUP2 SWAP1 SUB PUSH1 0x20 ADD SWAP1 RETURN JUMPDEST CALLVALUE DUP1 ISZERO PUSH2 0x2C6 JUMPI PUSH1 0x0 DUP1 REVERT JUMPDEST POP PUSH2 0x2CF PUSH2 0x8D7 JUMP JUMPDEST PUSH1 0x40 DUP1 MLOAD PUSH1 0x1 PUSH1 0xE0 PUSH1 0x2 EXP SUB NOT SWAP1 SWAP3 AND DUP3 MSTORE MLOAD SWAP1 DUP2 SWAP1 SUB PUSH1 0x20 ADD SWAP1 RETURN JUMPDEST CALLVALUE DUP1 ISZERO PUSH2 0x2F8 JUMPI PUSH1 0x0 DUP1 REVERT JUMPDEST POP PUSH2 0x291 PUSH1 0x1 PUSH1 0xA0 PUSH1 0x2 EXP SUB PUSH1 0x4 CALLDATALOAD DUP2 AND SWAP1 PUSH1 0x24 CALLDATALOAD AND PUSH1 0x44 CALLDATALOAD PUSH2 0x8FB JUMP JUMPDEST CALLVALUE DUP1 ISZERO PUSH2 0x322 JUMPI PUSH1 0x0 DUP1 REVERT JUMPDEST POP PUSH2 0x2A8 PUSH1 0x1 PUSH1 0xA0 PUSH1 0x2 EXP SUB PUSH1 0x4 CALLDATALOAD AND PUSH1 0x24 CALLDATALOAD PUSH2 0x9A0 JUMP JUMPDEST CALLVALUE DUP1 ISZERO PUSH2 0x346 JUMPI PUSH1 0x0 DUP1 REVERT JUMPDEST POP PUSH1 0x40 DUP1 MLOAD PUSH1 0x20 PUSH1 0x4 DUP1 CALLDATALOAD DUP1 DUP3 ADD CALLDATALOAD PUSH1 0x1F DUP2 ADD DUP5 SWAP1 DIV DUP5 MUL DUP6 ADD DUP5 ADD SWAP1 SWAP6 MSTORE DUP5 DUP5 MSTORE PUSH2 0x291 SWAP5 CALLDATASIZE SWAP5 SWAP3 SWAP4 PUSH1 0x24 SWAP4 SWAP3 DUP5 ADD SWAP2 SWAP1 DUP2 SWAP1 DUP5 ADD DUP4 DUP3 DUP1 DUP3 DUP5 CALLDATACOPY POP SWAP5 SWAP8 POP PUSH2 0x9ED SWAP7 POP POP POP POP POP POP POP JUMP JUMPDEST CALLVALUE DUP1 ISZERO PUSH2 0x39F JUMPI PUSH1 0x0 DUP1 REVERT JUMPDEST POP PUSH2 0x291 PUSH1 0x1 PUSH1 0xA0 PUSH1 0x2 EXP SUB PUSH1 0x4 CALLDATALOAD DUP2 AND SWAP1 PUSH1 0x24 CALLDATALOAD AND PUSH1 0x44 CALLDATALOAD PUSH2 0xAF9 JUMP JUMPDEST CALLVALUE DUP1 ISZERO PUSH2 0x3C9 JUMPI PUSH1 0x0 DUP1 REVERT JUMPDEST POP PUSH1 0x40 DUP1 MLOAD PUSH1 0x20 PUSH1 0x4 DUP1 CALLDATALOAD DUP1 DUP3 ADD CALLDATALOAD PUSH1 0x1F DUP2 ADD DUP5 SWAP1 DIV DUP5 MUL DUP6 ADD DUP5 ADD SWAP1 SWAP6 MSTORE DUP5 DUP5 MSTORE PUSH2 0x291 SWAP5 CALLDATASIZE SWAP5 SWAP3 SWAP4 PUSH1 0x24 SWAP4 SWAP3 DUP5 ADD SWAP2 SWAP1 DUP2 SWAP1 DUP5 ADD DUP4 DUP3 DUP1 DUP3 DUP5 CALLDATACOPY POP SWAP5 SWAP8 POP PUSH2 0xB31 SWAP7 POP POP POP POP POP POP POP JUMP JUMPDEST CALLVALUE DUP1 ISZERO PUSH2 0x422 JUMPI PUSH1 0x0 DUP1 REVERT JUMPDEST POP PUSH2 0x291 PUSH1 0x4 DUP1 CALLDATALOAD PUSH1 0x1 PUSH1 0xA0 PUSH1 0x2 EXP SUB AND SWAP1 PUSH1 0x24 DUP1 CALLDATALOAD SWAP1 DUP2 ADD SWAP2 ADD CALLDATALOAD PUSH2 0xB5F JUMP JUMPDEST CALLVALUE DUP1 ISZERO PUSH2 0x44F JUMPI PUSH1 0x0 DUP1 REVERT JUMPDEST POP PUSH2 0x19B PUSH1 0x4 CALLDATALOAD PUSH2 0xCA6 JUMP JUMPDEST CALLVALUE DUP1 ISZERO PUSH2 0x467 JUMPI PUSH1 0x0 DUP1 REVERT JUMPDEST POP PUSH2 0x2A8 PUSH1 0x4 CALLDATALOAD PUSH2 0xCC3 JUMP JUMPDEST CALLVALUE DUP1 ISZERO PUSH2 0x47F JUMPI PUSH1 0x0 DUP1 REVERT JUMPDEST POP PUSH2 0x291 PUSH1 0x24 PUSH1 0x4 DUP1 CALLDATALOAD DUP3 DUP2 ADD SWAP3 SWAP2 ADD CALLDATALOAD SWAP1 PUSH1 0x1 PUSH1 0xA0 PUSH1 0x2 EXP SUB SWAP1 CALLDATALOAD AND PUSH2 0xCF8 JUMP JUMPDEST CALLVALUE DUP1 ISZERO PUSH2 0x4AD JUMPI PUSH1 0x0 DUP1 REVERT JUMPDEST POP PUSH2 0x251 PUSH1 0x4 CALLDATALOAD PUSH2 0xE15 JUMP JUMPDEST CALLVALUE DUP1 ISZERO PUSH2 0x4C5 JUMPI PUSH1 0x0 DUP1 REVERT JUMPDEST POP PUSH2 0x2A8 PUSH1 0x1 PUSH1 0xA0 PUSH1 0x2 EXP SUB PUSH1 0x4 CALLDATALOAD AND PUSH2 0xE3F JUMP JUMPDEST CALLVALUE DUP1 ISZERO PUSH2 0x4E6 JUMPI PUSH1 0x0 DUP1 REVERT JUMPDEST POP PUSH2 0x291 PUSH2 0xE72 JUMP JUMPDEST CALLVALUE DUP1 ISZERO PUSH2 0x4FB JUMPI PUSH1 0x0 DUP1 REVERT JUMPDEST POP PUSH2 0x291 PUSH1 0x4 DUP1 CALLDATALOAD SWAP1 PUSH1 0x24 DUP1 CALLDATALOAD SWAP1 DUP2 ADD SWAP2 ADD CALLDATALOAD PUSH2 0xEE0 JUMP JUMPDEST CALLVALUE DUP1 ISZERO PUSH2 0x51F JUMPI PUSH1 0x0 DUP1 REVERT JUMPDEST POP PUSH2 0x251 PUSH2 0xF73 JUMP JUMPDEST CALLVALUE DUP1 ISZERO PUSH2 0x534 JUMPI PUSH1 0x0 DUP1 REVERT JUMPDEST POP PUSH2 0x540 PUSH1 0x4 CALLDATALOAD PUSH2 0xF82 JUMP JUMPDEST PUSH1 0x40 MLOAD DUP1 DUP5 DUP2 MSTORE PUSH1 0x20 ADD DUP4 DUP2 MSTORE PUSH1 0x20 ADD DUP1 PUSH1 0x20 ADD DUP3 DUP2 SUB DUP3 MSTORE DUP4 DUP2 DUP2 MLOAD DUP2 MSTORE PUSH1 0x20 ADD SWAP2 POP DUP1 MLOAD SWAP1 PUSH1 0x20 ADD SWAP1 DUP1 DUP4 DUP4 PUSH1 0x0 JUMPDEST DUP4 DUP2 LT ISZERO PUSH2 0x589 JUMPI DUP2 DUP2 ADD MLOAD DUP4 DUP3 ADD MSTORE PUSH1 0x20 ADD PUSH2 0x571 JUMP JUMPDEST POP POP POP POP SWAP1 POP SWAP1 DUP2 ADD SWAP1 PUSH1 0x1F AND DUP1 ISZERO PUSH2 0x5B6 JUMPI DUP1 DUP3 SUB DUP1 MLOAD PUSH1 0x1 DUP4 PUSH1 0x20 SUB PUSH2 0x100 EXP SUB NOT AND DUP2 MSTORE PUSH1 0x20 ADD SWAP2 POP JUMPDEST POP SWAP5 POP POP POP POP POP PUSH1 0x40 MLOAD DUP1 SWAP2 SUB SWAP1 RETURN JUMPDEST CALLVALUE DUP1 ISZERO PUSH2 0x5D2 JUMPI PUSH1 0x0 DUP1 REVERT JUMPDEST POP PUSH2 0x5DB PUSH2 0x1035 JUMP JUMPDEST PUSH1 0x40 DUP1 MLOAD PUSH1 0x20 DUP1 DUP3 MSTORE DUP4 MLOAD DUP2 DUP4 ADD MSTORE DUP4 MLOAD SWAP2 SWAP3 DUP4 SWAP3 SWAP1 DUP4 ADD SWAP2 DUP6 DUP2 ADD SWAP2 MUL DUP1 DUP4 DUP4 PUSH1 0x0 JUMPDEST DUP4 DUP2 LT ISZERO PUSH2 0x617 JUMPI DUP2 DUP2 ADD MLOAD DUP4 DUP3 ADD MSTORE PUSH1 0x20 ADD PUSH2 0x5FF JUMP JUMPDEST POP POP POP POP SWAP1 POP ADD SWAP3 POP POP POP PUSH1 0x40 MLOAD DUP1 SWAP2 SUB SWAP1 RETURN JUMPDEST CALLVALUE DUP1 ISZERO PUSH2 0x637 JUMPI PUSH1 0x0 DUP1 REVERT JUMPDEST POP PUSH2 0x1C4 PUSH2 0x1095 JUMP JUMPDEST CALLVALUE DUP1 ISZERO PUSH2 0x64C JUMPI PUSH1 0x0 DUP1 REVERT JUMPDEST POP PUSH2 0x1C4 PUSH2 0x10F6 JUMP JUMPDEST CALLVALUE DUP1 ISZERO PUSH2 0x661 JUMPI PUSH1 0x0 DUP1 REVERT JUMPDEST POP PUSH2 0x291 PUSH1 0x1 PUSH1 0xA0 PUSH1 0x2 EXP SUB PUSH1 0x4 CALLDATALOAD AND PUSH1 0x24 CALLDATALOAD ISZERO ISZERO PUSH2 0x1157 JUMP JUMPDEST CALLVALUE DUP1 ISZERO PUSH2 0x687 JUMPI PUSH1 0x0 DUP1 REVERT JUMPDEST POP PUSH1 0x40 DUP1 MLOAD PUSH1 0x20 PUSH1 0x1F PUSH1 0x64 CALLDATALOAD PUSH1 0x4 DUP2 DUP2 ADD CALLDATALOAD SWAP3 DUP4 ADD DUP5 SWAP1 DIV DUP5 MUL DUP6 ADD DUP5 ADD SWAP1 SWAP6 MSTORE DUP2 DUP5 MSTORE PUSH2 0x291 SWAP5 PUSH1 0x1 PUSH1 0xA0 PUSH1 0x2 EXP SUB DUP2 CALLDATALOAD DUP2 AND SWAP6 PUSH1 0x24 DUP1 CALLDATALOAD SWAP1 SWAP3 AND SWAP6 PUSH1 0x44 CALLDATALOAD SWAP6 CALLDATASIZE SWAP6 PUSH1 0x84 SWAP5 ADD SWAP2 DUP2 SWAP1 DUP5 ADD DUP4 DUP3 DUP1 DUP3 DUP5 CALLDATACOPY POP SWAP5 SWAP8 POP PUSH2 0x11DB SWAP7 POP POP POP POP POP POP POP JUMP JUMPDEST CALLVALUE DUP1 ISZERO PUSH2 0x6F6 JUMPI PUSH1 0x0 DUP1 REVERT JUMPDEST POP PUSH2 0x1C4 PUSH1 0x4 CALLDATALOAD PUSH2 0x121A JUMP JUMPDEST CALLVALUE DUP1 ISZERO PUSH2 0x70E JUMPI PUSH1 0x0 DUP1 REVERT JUMPDEST POP PUSH2 0x19B PUSH1 0x1 PUSH1 0xA0 PUSH1 0x2 EXP SUB PUSH1 0x4 CALLDATALOAD DUP2 AND SWAP1 PUSH1 0x24 CALLDATALOAD AND PUSH2 0x1301 JUMP JUMPDEST CALLVALUE DUP1 ISZERO PUSH2 0x735 JUMPI PUSH1 0x0 DUP1 REVERT JUMPDEST POP PUSH2 0x291 PUSH1 0x1 PUSH1 0xA0 PUSH1 0x2 EXP SUB PUSH1 0x4 CALLDATALOAD AND PUSH2 0x132F JUMP JUMPDEST PUSH1 0x1 PUSH1 0xE0 PUSH1 0x2 EXP SUB NOT AND PUSH1 0x0 SWAP1 DUP2 MSTORE PUSH1 0x20 DUP2 SWAP1 MSTORE PUSH1 0x40 SWAP1 KECCAK256 SLOAD PUSH1 0xFF AND SWAP1 JUMP JUMPDEST PUSH1 0x5 DUP1 SLOAD PUSH1 0x40 DUP1 MLOAD PUSH1 0x20 PUSH1 0x1F PUSH1 0x2 PUSH1 0x0 NOT PUSH2 0x100 PUSH1 0x1 DUP9 AND ISZERO MUL ADD SWAP1 SWAP6 AND SWAP5 SWAP1 SWAP5 DIV SWAP4 DUP5 ADD DUP2 SWAP1 DIV DUP2 MUL DUP3 ADD DUP2 ADD SWAP1 SWAP3 MSTORE DUP3 DUP2 MSTORE PUSH1 0x60 SWAP4 SWAP1 SWAP3 SWAP1 SWAP2 DUP4 ADD DUP3 DUP3 DUP1 ISZERO PUSH2 0x7F5 JUMPI DUP1 PUSH1 0x1F LT PUSH2 0x7CA JUMPI PUSH2 0x100 DUP1 DUP4 SLOAD DIV MUL DUP4 MSTORE SWAP2 PUSH1 0x20 ADD SWAP2 PUSH2 0x7F5 JUMP JUMPDEST DUP3 ADD SWAP2 SWAP1 PUSH1 0x0 MSTORE PUSH1 0x20 PUSH1 0x0 KECCAK256 SWAP1 JUMPDEST DUP2 SLOAD DUP2 MSTORE SWAP1 PUSH1 0x1 ADD SWAP1 PUSH1 0x20 ADD DUP1 DUP4 GT PUSH2 0x7D8 JUMPI DUP3 SWAP1 SUB PUSH1 0x1F AND DUP3 ADD SWAP2 JUMPDEST POP POP POP POP POP SWAP1 POP JUMPDEST SWAP1 JUMP JUMPDEST PUSH1 0x0 SWAP1 DUP2 MSTORE PUSH1 0x2 PUSH1 0x20 MSTORE PUSH1 0x40 SWAP1 KECCAK256 SLOAD PUSH1 0x1 PUSH1 0xA0 PUSH1 0x2 EXP SUB AND SWAP1 JUMP JUMPDEST PUSH1 0x0 PUSH2 0x826 DUP3 PUSH2 0xE15 JUMP JUMPDEST SWAP1 POP PUSH1 0x1 PUSH1 0xA0 PUSH1 0x2 EXP SUB DUP4 DUP2 AND SWAP1 DUP3 AND EQ ISZERO PUSH2 0x841 JUMPI PUSH1 0x0 DUP1 REVERT JUMPDEST CALLER PUSH1 0x1 PUSH1 0xA0 PUSH1 0x2 EXP SUB DUP3 AND EQ DUP1 PUSH2 0x85D JUMPI POP PUSH2 0x85D DUP2 CALLER PUSH2 0x1301 JUMP JUMPDEST ISZERO ISZERO PUSH2 0x868 JUMPI PUSH1 0x0 DUP1 REVERT JUMPDEST PUSH1 0x0 DUP3 DUP2 MSTORE PUSH1 0x2 PUSH1 0x20 MSTORE PUSH1 0x40 DUP1 DUP3 KECCAK256 DUP1 SLOAD PUSH20 0xFFFFFFFFFFFFFFFFFFFFFFFFFFFFFFFFFFFFFFFF NOT AND PUSH1 0x1 PUSH1 0xA0 PUSH1 0x2 EXP SUB DUP8 DUP2 AND SWAP2 DUP3 OR SWAP1 SWAP3 SSTORE SWAP2 MLOAD DUP6 SWAP4 SWAP2 DUP6 AND SWAP2 PUSH32 0x8C5BE1E5EBEC7D5BD14F71427D1E84F3DD0314C0F7B2291E5B200AC8C7C3B925 SWAP2 LOG4 POP POP POP JUMP JUMPDEST PUSH1 0x9 SLOAD SWAP1 JUMP JUMPDEST PUSH32 0x1FFC9A700000000000000000000000000000000000000000000000000000000 DUP2 JUMP JUMPDEST DUP1 PUSH2 0x906 CALLER DUP3 PUSH2 0x1352 JUMP JUMPDEST ISZERO ISZERO PUSH2 0x911 JUMPI PUSH1 0x0 DUP1 REVERT JUMPDEST PUSH1 0x1 PUSH1 0xA0 PUSH1 0x2 EXP SUB DUP5 AND ISZERO ISZERO PUSH2 0x926 JUMPI PUSH1 0x0 DUP1 REVERT JUMPDEST PUSH1 0x1 PUSH1 0xA0 PUSH1 0x2 EXP SUB DUP4 AND ISZERO ISZERO PUSH2 0x93B JUMPI PUSH1 0x0 DUP1 REVERT JUMPDEST PUSH2 0x945 DUP5 DUP4 PUSH2 0x13B1 JUMP JUMPDEST PUSH2 0x94F DUP5 DUP4 PUSH2 0x1420 JUMP JUMPDEST PUSH2 0x959 DUP4 DUP4 PUSH2 0x1559 JUMP JUMPDEST DUP2 DUP4 PUSH1 0x1 PUSH1 0xA0 PUSH1 0x2 EXP SUB AND DUP6 PUSH1 0x1 PUSH1 0xA0 PUSH1 0x2 EXP SUB AND PUSH32 0xDDF252AD1BE2C89B69C2B068FC378DAA952BA7F163C4A11628F55A4DF523B3EF PUSH1 0x40 MLOAD PUSH1 0x40 MLOAD DUP1 SWAP2 SUB SWAP1 LOG4 POP POP POP POP JUMP JUMPDEST PUSH1 0x0 PUSH2 0x9AB DUP4 PUSH2 0xE3F JUMP JUMPDEST DUP3 LT PUSH2 0x9B6 JUMPI PUSH1 0x0 DUP1 REVERT JUMPDEST PUSH1 0x1 PUSH1 0xA0 PUSH1 0x2 EXP SUB DUP4 AND PUSH1 0x0 SWAP1 DUP2 MSTORE PUSH1 0x7 PUSH1 0x20 MSTORE PUSH1 0x40 SWAP1 KECCAK256 DUP1 SLOAD DUP4 SWAP1 DUP2 LT PUSH2 0x9DA JUMPI INVALID JUMPDEST SWAP1 PUSH1 0x0 MSTORE PUSH1 0x20 PUSH1 0x0 KECCAK256 ADD SLOAD SWAP1 POP SWAP3 SWAP2 POP POP JUMP JUMPDEST PUSH1 0xC SLOAD PUSH1 0x0 SWAP1 PUSH1 0x1 PUSH1 0xA0 PUSH1 0x2 EXP SUB AND CALLER EQ PUSH2 0xA07 JUMPI PUSH1 0x0 DUP1 REVERT JUMPDEST POP PUSH1 0x9 SLOAD PUSH1 0x1 ADD PUSH2 0xA16 PUSH2 0x15A2 JUMP JUMPDEST ISZERO ISZERO PUSH1 0x1 EQ PUSH2 0xAAC JUMPI PUSH1 0x40 DUP1 MLOAD PUSH32 0x8C379A000000000000000000000000000000000000000000000000000000000 DUP2 MSTORE PUSH1 0x20 PUSH1 0x4 DUP3 ADD MSTORE PUSH1 0x2D PUSH1 0x24 DUP3 ADD MSTORE PUSH32 0x416C6C20616C6C6F77656420746F6B656E732068617665206265656E20637265 PUSH1 0x44 DUP3 ADD MSTORE PUSH32 0x6174656420616C72656164792100000000000000000000000000000000000000 PUSH1 0x64 DUP3 ADD MSTORE SWAP1 MLOAD SWAP1 DUP2 SWAP1 SUB PUSH1 0x84 ADD SWAP1 REVERT JUMPDEST PUSH2 0xAB5 DUP3 PUSH2 0x15BA JUMP JUMPDEST PUSH2 0xABF CALLER DUP3 PUSH2 0x1604 JUMP JUMPDEST PUSH1 0x40 DUP1 MLOAD DUP3 DUP2 MSTORE SWAP1 MLOAD CALLER SWAP2 PUSH32 0x75424253909C2F4460F8A59099700E980F5B484608C4FDD79F600F5162AC88A5 SWAP2 SWAP1 DUP2 SWAP1 SUB PUSH1 0x20 ADD SWAP1 LOG2 POP POP JUMP JUMPDEST DUP1 PUSH2 0xB04 CALLER DUP3 PUSH2 0x1352 JUMP JUMPDEST ISZERO ISZERO PUSH2 0xB0F JUMPI PUSH1 0x0 DUP1 REVERT JUMPDEST PUSH2 0xB2B DUP5 DUP5 DUP5 PUSH1 0x20 PUSH1 0x40 MLOAD SWAP1 DUP2 ADD PUSH1 0x40 MSTORE DUP1 PUSH1 0x0 DUP2 MSTORE POP PUSH2 0x11DB JUMP JUMPDEST POP POP POP POP JUMP JUMPDEST PUSH1 0xC SLOAD PUSH1 0x1 PUSH1 0xA0 PUSH1 0x2 EXP SUB AND CALLER EQ PUSH2 0xB48 JUMPI PUSH1 0x0 DUP1 REVERT JUMPDEST DUP1 MLOAD PUSH2 0xB5B SWAP1 PUSH1 0xF SWAP1 PUSH1 0x20 DUP5 ADD SWAP1 PUSH2 0x1B0D JUMP JUMPDEST POP POP JUMP JUMPDEST PUSH1 0xC SLOAD PUSH1 0x0 SWAP1 PUSH1 0x1 PUSH1 0xA0 PUSH1 0x2 EXP SUB AND CALLER EQ PUSH2 0xB79 JUMPI PUSH1 0x0 DUP1 REVERT JUMPDEST POP PUSH1 0x9 SLOAD PUSH1 0x1 ADD PUSH2 0xB88 PUSH2 0x15A2 JUMP JUMPDEST ISZERO ISZERO PUSH1 0x1 EQ PUSH2 0xC1E JUMPI PUSH1 0x40 DUP1 MLOAD PUSH32 0x8C379A000000000000000000000000000000000000000000000000000000000 DUP2 MSTORE PUSH1 0x20 PUSH1 0x4 DUP3 ADD MSTORE PUSH1 0x2C PUSH1 0x24 DUP3 ADD MSTORE PUSH32 0x416C6C20616C6C6F77656420746F6B656E732068617665206265656E206D696E PUSH1 0x44 DUP3 ADD MSTORE PUSH32 0x74656420616C7265616479210000000000000000000000000000000000000000 PUSH1 0x64 DUP3 ADD MSTORE SWAP1 MLOAD SWAP1 DUP2 SWAP1 SUB PUSH1 0x84 ADD SWAP1 REVERT JUMPDEST PUSH2 0xC57 DUP4 DUP4 DUP1 DUP1 PUSH1 0x1F ADD PUSH1 0x20 DUP1 SWAP2 DIV MUL PUSH1 0x20 ADD PUSH1 0x40 MLOAD SWAP1 DUP2 ADD PUSH1 0x40 MSTORE DUP1 SWAP4 SWAP3 SWAP2 SWAP1 DUP2 DUP2 MSTORE PUSH1 0x20 ADD DUP4 DUP4 DUP1 DUP3 DUP5 CALLDATACOPY POP PUSH2 0x15BA SWAP5 POP POP POP POP POP JUMP JUMPDEST PUSH2 0xC61 DUP5 DUP3 PUSH2 0x1604 JUMP JUMPDEST PUSH1 0x40 DUP1 MLOAD DUP3 DUP2 MSTORE SWAP1 MLOAD PUSH1 0x1 PUSH1 0xA0 PUSH1 0x2 EXP SUB DUP7 AND SWAP2 PUSH32 0x75424253909C2F4460F8A59099700E980F5B484608C4FDD79F600F5162AC88A5 SWAP2 SWAP1 DUP2 SWAP1 SUB PUSH1 0x20 ADD SWAP1 LOG2 POP POP POP POP JUMP JUMPDEST PUSH1 0x0 SWAP1 DUP2 MSTORE PUSH1 0x1 PUSH1 0x20 MSTORE PUSH1 0x40 SWAP1 KECCAK256 SLOAD PUSH1 0x1 PUSH1 0xA0 PUSH1 0x2 EXP SUB AND ISZERO ISZERO SWAP1 JUMP JUMPDEST PUSH1 0x0 PUSH2 0xCCD PUSH2 0x8D1 JUMP JUMPDEST DUP3 LT PUSH2 0xCD8 JUMPI PUSH1 0x0 DUP1 REVERT JUMPDEST PUSH1 0x9 DUP1 SLOAD DUP4 SWAP1 DUP2 LT PUSH2 0xCE6 JUMPI INVALID JUMPDEST SWAP1 PUSH1 0x0 MSTORE PUSH1 0x20 PUSH1 0x0 KECCAK256 ADD SLOAD SWAP1 POP SWAP2 SWAP1 POP JUMP JUMPDEST DUP2 CALLER PUSH1 0x0 DUP1 PUSH1 0x1 PUSH1 0xA0 PUSH1 0x2 EXP SUB DUP6 AND ISZERO ISZERO PUSH2 0xD12 JUMPI PUSH1 0x0 DUP1 REVERT JUMPDEST PUSH1 0x0 SWAP2 POP JUMPDEST DUP4 DUP3 LT ISZERO PUSH2 0xD51 JUMPI PUSH2 0xD3B CALLER DUP9 DUP9 DUP6 DUP2 DUP2 LT PUSH2 0xD2F JUMPI INVALID JUMPDEST SWAP1 POP PUSH1 0x20 MUL ADD CALLDATALOAD PUSH2 0x1352 JUMP JUMPDEST ISZERO ISZERO PUSH2 0xD46 JUMPI PUSH1 0x0 DUP1 REVERT JUMPDEST PUSH1 0x1 SWAP1 SWAP2 ADD SWAP1 PUSH2 0xD17 JUMP JUMPDEST POP PUSH1 0x0 JUMPDEST DUP4 DUP2 LT ISZERO PUSH2 0xE0C JUMPI PUSH2 0xD79 DUP4 DUP9 DUP9 DUP5 DUP2 DUP2 LT PUSH2 0xD6D JUMPI INVALID JUMPDEST SWAP1 POP PUSH1 0x20 MUL ADD CALLDATALOAD PUSH2 0x13B1 JUMP JUMPDEST PUSH2 0xD95 DUP4 DUP9 DUP9 DUP5 DUP2 DUP2 LT PUSH2 0xD89 JUMPI INVALID JUMPDEST SWAP1 POP PUSH1 0x20 MUL ADD CALLDATALOAD PUSH2 0x1420 JUMP JUMPDEST PUSH2 0xDB1 DUP6 DUP9 DUP9 DUP5 DUP2 DUP2 LT PUSH2 0xDA5 JUMPI INVALID JUMPDEST SWAP1 POP PUSH1 0x20 MUL ADD CALLDATALOAD PUSH2 0x1559 JUMP JUMPDEST DUP7 DUP7 DUP3 DUP2 DUP2 LT PUSH2 0xDBD JUMPI INVALID JUMPDEST SWAP1 POP PUSH1 0x20 MUL ADD CALLDATALOAD DUP6 PUSH1 0x1 PUSH1 0xA0 PUSH1 0x2 EXP SUB AND DUP5 PUSH1 0x1 PUSH1 0xA0 PUSH1 0x2 EXP SUB AND PUSH32 0xDDF252AD1BE2C89B69C2B068FC378DAA952BA7F163C4A11628F55A4DF523B3EF PUSH1 0x40 MLOAD PUSH1 0x40 MLOAD DUP1 SWAP2 SUB SWAP1 LOG4 PUSH1 0x1 ADD PUSH2 0xD55 JUMP JUMPDEST POP POP POP POP POP POP POP JUMP JUMPDEST PUSH1 0x0 DUP2 DUP2 MSTORE PUSH1 0x1 PUSH1 0x20 MSTORE PUSH1 0x40 DUP2 KECCAK256 SLOAD PUSH1 0x1 PUSH1 0xA0 PUSH1 0x2 EXP SUB AND DUP1 ISZERO ISZERO PUSH2 0xE39 JUMPI PUSH1 0x0 DUP1 REVERT JUMPDEST SWAP3 SWAP2 POP POP JUMP JUMPDEST PUSH1 0x0 PUSH1 0x1 PUSH1 0xA0 PUSH1 0x2 EXP SUB DUP3 AND ISZERO ISZERO PUSH2 0xE56 JUMPI PUSH1 0x0 DUP1 REVERT JUMPDEST POP PUSH1 0x1 PUSH1 0xA0 PUSH1 0x2 EXP SUB AND PUSH1 0x0 SWAP1 DUP2 MSTORE PUSH1 0x3 PUSH1 0x20 MSTORE PUSH1 0x40 SWAP1 KECCAK256 SLOAD SWAP1 JUMP JUMPDEST PUSH1 0xC SLOAD PUSH1 0x1 PUSH1 0xA0 PUSH1 0x2 EXP SUB AND CALLER EQ PUSH2 0xE89 JUMPI PUSH1 0x0 DUP1 REVERT JUMPDEST PUSH1 0xC SLOAD PUSH1 0x40 MLOAD PUSH1 0x1 PUSH1 0xA0 PUSH1 0x2 EXP SUB SWAP1 SWAP2 AND SWAP1 PUSH32 0xF8DF31144D9C2F0F6B59D69B8B98ABD5459D07F2742C4DF920B25AAE33C64820 SWAP1 PUSH1 0x0 SWAP1 LOG2 PUSH1 0xC DUP1 SLOAD PUSH20 0xFFFFFFFFFFFFFFFFFFFFFFFFFFFFFFFFFFFFFFFF NOT AND SWAP1 SSTORE JUMP JUMPDEST PUSH1 0xC SLOAD PUSH1 0x1 PUSH1 0xA0 PUSH1 0x2 EXP SUB AND CALLER EQ PUSH2 0xEF7 JUMPI PUSH1 0x0 DUP1 REVERT JUMPDEST PUSH1 0x40 DUP1 MLOAD SWAP1 DUP2 ADD PUSH1 0x40 MSTORE DUP1 DUP5 DUP2 MSTORE PUSH1 0x20 ADD DUP4 DUP4 DUP1 DUP1 PUSH1 0x1F ADD PUSH1 0x20 DUP1 SWAP2 DIV MUL PUSH1 0x20 ADD PUSH1 0x40 MLOAD SWAP1 DUP2 ADD PUSH1 0x40 MSTORE DUP1 SWAP4 SWAP3 SWAP2 SWAP1 DUP2 DUP2 MSTORE PUSH1 0x20 ADD DUP4 DUP4 DUP1 DUP3 DUP5 CALLDATACOPY POP POP POP SWAP3 SWAP1 SWAP4 MSTORE POP POP POP PUSH1 0x0 DUP5 DUP2 MSTORE PUSH1 0x11 PUSH1 0x20 SWAP1 DUP2 MSTORE PUSH1 0x40 SWAP1 SWAP2 KECCAK256 DUP3 MLOAD DUP2 SSTORE DUP3 DUP3 ADD MLOAD DUP1 MLOAD SWAP2 SWAP3 PUSH2 0xF6B SWAP3 PUSH1 0x1 DUP6 ADD SWAP3 SWAP1 SWAP2 ADD SWAP1 PUSH2 0x1B0D JUMP JUMPDEST POP POP POP POP POP POP JUMP JUMPDEST PUSH1 0xC SLOAD PUSH1 0x1 PUSH1 0xA0 PUSH1 0x2 EXP SUB AND DUP2 JUMP JUMPDEST PUSH1 0x0 DUP2 DUP2 MSTORE PUSH1 0x11 PUSH1 0x20 SWAP1 DUP2 MSTORE PUSH1 0x40 SWAP2 DUP3 SWAP1 KECCAK256 PUSH1 0x10 SLOAD DUP2 SLOAD PUSH1 0x1 DUP1 DUP5 ADD DUP1 SLOAD DUP8 MLOAD PUSH1 0x2 SWAP4 DUP3 AND ISZERO PUSH2 0x100 MUL PUSH1 0x0 NOT ADD SWAP1 SWAP2 AND SWAP3 SWAP1 SWAP3 DIV PUSH1 0x1F DUP2 ADD DUP8 SWAP1 DIV DUP8 MUL DUP4 ADD DUP8 ADD SWAP1 SWAP8 MSTORE DUP7 DUP3 MSTORE SWAP3 SWAP6 SWAP2 SWAP5 PUSH1 0x60 SWAP5 SWAP4 SWAP2 SWAP3 SWAP1 DUP4 ADD DUP3 DUP3 DUP1 ISZERO PUSH2 0x1026 JUMPI DUP1 PUSH1 0x1F LT PUSH2 0xFFB JUMPI PUSH2 0x100 DUP1 DUP4 SLOAD DIV MUL DUP4 MSTORE SWAP2 PUSH1 0x20 ADD SWAP2 PUSH2 0x1026 JUMP JUMPDEST DUP3 ADD SWAP2 SWAP1 PUSH1 0x0 MSTORE PUSH1 0x20 PUSH1 0x0 KECCAK256 SWAP1 JUMPDEST DUP2 SLOAD DUP2 MSTORE SWAP1 PUSH1 0x1 ADD SWAP1 PUSH1 0x20 ADD DUP1 DUP4 GT PUSH2 0x1009 JUMPI DUP3 SWAP1 SUB PUSH1 0x1F AND DUP3 ADD SWAP2 JUMPDEST POP POP POP POP POP SWAP2 POP POP SWAP2 SWAP4 SWAP1 SWAP3 POP JUMP JUMPDEST CALLER PUSH1 0x0 SWAP1 DUP2 MSTORE PUSH1 0x7 PUSH1 0x20 SWAP1 DUP2 MSTORE PUSH1 0x40 SWAP2 DUP3 SWAP1 KECCAK256 DUP1 SLOAD DUP4 MLOAD DUP2 DUP5 MUL DUP2 ADD DUP5 ADD SWAP1 SWAP5 MSTORE DUP1 DUP5 MSTORE PUSH1 0x60 SWAP4 SWAP3 DUP4 ADD DUP3 DUP3 DUP1 ISZERO PUSH2 0x7F5 JUMPI PUSH1 0x20 MUL DUP3 ADD SWAP2 SWAP1 PUSH1 0x0 MSTORE PUSH1 0x20 PUSH1 0x0 KECCAK256 SWAP1 JUMPDEST DUP2 SLOAD DUP2 MSTORE PUSH1 0x20 ADD SWAP1 PUSH1 0x1 ADD SWAP1 DUP1 DUP4 GT PUSH2 0x1078 JUMPI POP POP POP POP POP SWAP1 POP SWAP1 JUMP JUMPDEST PUSH1 0x6 DUP1 SLOAD PUSH1 0x40 DUP1 MLOAD PUSH1 0x20 PUSH1 0x1F PUSH1 0x2 PUSH1 0x0 NOT PUSH2 0x100 PUSH1 0x1 DUP9 AND ISZERO MUL ADD SWAP1 SWAP6 AND SWAP5 SWAP1 SWAP5 DIV SWAP4 DUP5 ADD DUP2 SWAP1 DIV DUP2 MUL DUP3 ADD DUP2 ADD SWAP1 SWAP3 MSTORE DUP3 DUP2 MSTORE PUSH1 0x60 SWAP4 SWAP1 SWAP3 SWAP1 SWAP2 DUP4 ADD DUP3 DUP3 DUP1 ISZERO PUSH2 0x7F5 JUMPI DUP1 PUSH1 0x1F LT PUSH2 0x7CA JUMPI PUSH2 0x100 DUP1 DUP4 SLOAD DIV MUL DUP4 MSTORE SWAP2 PUSH1 0x20 ADD SWAP2 PUSH2 0x7F5 JUMP JUMPDEST PUSH1 0xF DUP1 SLOAD PUSH1 0x40 DUP1 MLOAD PUSH1 0x20 PUSH1 0x1F PUSH1 0x2 PUSH1 0x0 NOT PUSH2 0x100 PUSH1 0x1 DUP9 AND ISZERO MUL ADD SWAP1 SWAP6 AND SWAP5 SWAP1 SWAP5 DIV SWAP4 DUP5 ADD DUP2 SWAP1 DIV DUP2 MUL DUP3 ADD DUP2 ADD SWAP1 SWAP3 MSTORE DUP3 DUP2 MSTORE PUSH1 0x60 SWAP4 SWAP1 SWAP3 SWAP1 SWAP2 DUP4 ADD DUP3 DUP3 DUP1 ISZERO PUSH2 0x7F5 JUMPI DUP1 PUSH1 0x1F LT PUSH2 0x7CA JUMPI PUSH2 0x100 DUP1 DUP4 SLOAD DIV MUL DUP4 MSTORE SWAP2 PUSH1 0x20 ADD SWAP2 PUSH2 0x7F5 JUMP JUMPDEST PUSH1 0x1 PUSH1 0xA0 PUSH1 0x2 EXP SUB DUP3 AND CALLER EQ ISZERO PUSH2 0x116D JUMPI PUSH1 0x0 DUP1 REVERT JUMPDEST CALLER PUSH1 0x0 DUP2 DUP2 MSTORE PUSH1 0x4 PUSH1 0x20 SWAP1 DUP2 MSTORE PUSH1 0x40 DUP1 DUP4 KECCAK256 PUSH1 0x1 PUSH1 0xA0 PUSH1 0x2 EXP SUB DUP8 AND DUP1 DUP6 MSTORE SWAP1 DUP4 MSTORE SWAP3 DUP2 SWAP1 KECCAK256 DUP1 SLOAD PUSH1 0xFF NOT AND DUP7 ISZERO ISZERO SWAP1 DUP2 OR SWAP1 SWAP2 SSTORE DUP2 MLOAD SWAP1 DUP2 MSTORE SWAP1 MLOAD SWAP3 SWAP4 SWAP3 PUSH32 0x17307EAB39AB6107E8899845AD3D59BD9653F200F220920489CA2B5937696C31 SWAP3 SWAP2 DUP2 SWAP1 SUB SWAP1 SWAP2 ADD SWAP1 LOG3 POP POP JUMP JUMPDEST DUP2 PUSH2 0x11E6 CALLER DUP3 PUSH2 0x1352 JUMP JUMPDEST ISZERO ISZERO PUSH2 0x11F1 JUMPI PUSH1 0x0 DUP1 REVERT JUMPDEST PUSH2 0x11FC DUP6 DUP6 DUP6 PUSH2 0x8FB JUMP JUMPDEST PUSH2 0x1208 DUP6 DUP6 DUP6 DUP6 PUSH2 0x1653 JUMP JUMPDEST ISZERO ISZERO PUSH2 0x1213 JUMPI PUSH1 0x0 DUP1 REVERT JUMPDEST POP POP POP POP POP JUMP JUMPDEST PUSH1 0x60 PUSH2 0x1225 DUP3 PUSH2 0xCA6 JUMP JUMPDEST ISZERO ISZERO PUSH2 0x1230 JUMPI PUSH1 0x0 DUP1 REVERT JUMPDEST PUSH1 0xF PUSH2 0x123B DUP4 PUSH2 0x17C0 JUMP JUMPDEST PUSH1 0x40 MLOAD PUSH1 0x20 ADD DUP1 DUP4 DUP1 SLOAD PUSH1 0x1 DUP2 PUSH1 0x1 AND ISZERO PUSH2 0x100 MUL SUB AND PUSH1 0x2 SWAP1 DIV DUP1 ISZERO PUSH2 0x1299 JUMPI DUP1 PUSH1 0x1F LT PUSH2 0x1277 JUMPI PUSH2 0x100 DUP1 DUP4 SLOAD DIV MUL DUP4 MSTORE SWAP2 DUP3 ADD SWAP2 PUSH2 0x1299 JUMP JUMPDEST DUP3 ADD SWAP2 SWAP1 PUSH1 0x0 MSTORE PUSH1 0x20 PUSH1 0x0 KECCAK256 SWAP1 JUMPDEST DUP2 SLOAD DUP2 MSTORE SWAP1 PUSH1 0x1 ADD SWAP1 PUSH1 0x20 ADD DUP1 DUP4 GT PUSH2 0x1285 JUMPI JUMPDEST POP POP DUP3 MLOAD PUSH1 0x20 DUP5 ADD SWAP1 DUP1 DUP4 DUP4 JUMPDEST PUSH1 0x20 DUP4 LT PUSH2 0x12C5 JUMPI DUP1 MLOAD DUP3 MSTORE PUSH1 0x1F NOT SWAP1 SWAP3 ADD SWAP2 PUSH1 0x20 SWAP2 DUP3 ADD SWAP2 ADD PUSH2 0x12A6 JUMP JUMPDEST PUSH1 0x1 DUP4 PUSH1 0x20 SUB PUSH2 0x100 EXP SUB DUP1 NOT DUP3 MLOAD AND DUP2 DUP5 MLOAD AND DUP1 DUP3 OR DUP6 MSTORE POP POP POP POP POP POP SWAP1 POP ADD SWAP3 POP POP POP PUSH1 0x40 MLOAD PUSH1 0x20 DUP2 DUP4 SUB SUB DUP2 MSTORE SWAP1 PUSH1 0x40 MSTORE SWAP1 POP SWAP2 SWAP1 POP JUMP JUMPDEST PUSH1 0x1 PUSH1 0xA0 PUSH1 0x2 EXP SUB SWAP2 DUP3 AND PUSH1 0x0 SWAP1 DUP2 MSTORE PUSH1 0x4 PUSH1 0x20 SWAP1 DUP2 MSTORE PUSH1 0x40 DUP1 DUP4 KECCAK256 SWAP4 SWAP1 SWAP5 AND DUP3 MSTORE SWAP2 SWAP1 SWAP2 MSTORE KECCAK256 SLOAD PUSH1 0xFF AND SWAP1 JUMP JUMPDEST PUSH1 0xC SLOAD PUSH1 0x1 PUSH1 0xA0 PUSH1 0x2 EXP SUB AND CALLER EQ PUSH2 0x1346 JUMPI PUSH1 0x0 DUP1 REVERT JUMPDEST PUSH2 0x134F DUP2 PUSH2 0x18E7 JUMP JUMPDEST POP JUMP JUMPDEST PUSH1 0x0 DUP1 PUSH2 0x135E DUP4 PUSH2 0xE15 JUMP JUMPDEST SWAP1 POP DUP1 PUSH1 0x1 PUSH1 0xA0 PUSH1 0x2 EXP SUB AND DUP5 PUSH1 0x1 PUSH1 0xA0 PUSH1 0x2 EXP SUB AND EQ DUP1 PUSH2 0x1399 JUMPI POP DUP4 PUSH1 0x1 PUSH1 0xA0 PUSH1 0x2 EXP SUB AND PUSH2 0x138E DUP5 PUSH2 0x800 JUMP JUMPDEST PUSH1 0x1 PUSH1 0xA0 PUSH1 0x2 EXP SUB AND EQ JUMPDEST DUP1 PUSH2 0x13A9 JUMPI POP PUSH2 0x13A9 DUP2 DUP6 PUSH2 0x1301 JUMP JUMPDEST SWAP5 SWAP4 POP POP POP POP JUMP JUMPDEST DUP2 PUSH1 0x1 PUSH1 0xA0 PUSH1 0x2 EXP SUB AND PUSH2 0x13C4 DUP3 PUSH2 0xE15 JUMP JUMPDEST PUSH1 0x1 PUSH1 0xA0 PUSH1 0x2 EXP SUB AND EQ PUSH2 0x13D7 JUMPI PUSH1 0x0 DUP1 REVERT JUMPDEST PUSH1 0x0 DUP2 DUP2 MSTORE PUSH1 0x2 PUSH1 0x20 MSTORE PUSH1 0x40 SWAP1 KECCAK256 SLOAD PUSH1 0x1 PUSH1 0xA0 PUSH1 0x2 EXP SUB AND ISZERO PUSH2 0xB5B JUMPI PUSH1 0x0 SWAP1 DUP2 MSTORE PUSH1 0x2 PUSH1 0x20 MSTORE PUSH1 0x40 SWAP1 KECCAK256 DUP1 SLOAD PUSH20 0xFFFFFFFFFFFFFFFFFFFFFFFFFFFFFFFFFFFFFFFF NOT AND SWAP1 SSTORE POP JUMP JUMPDEST PUSH1 0x0 DUP1 PUSH1 0x0 PUSH2 0x142F DUP6 DUP6 PUSH2 0x1965 JUMP JUMPDEST PUSH1 0x0 DUP5 DUP2 MSTORE PUSH1 0x8 PUSH1 0x20 SWAP1 DUP2 MSTORE PUSH1 0x40 DUP1 DUP4 KECCAK256 SLOAD PUSH1 0x1 PUSH1 0xA0 PUSH1 0x2 EXP SUB DUP10 AND DUP5 MSTORE PUSH1 0x7 SWAP1 SWAP3 MSTORE SWAP1 SWAP2 KECCAK256 SLOAD SWAP1 SWAP4 POP PUSH2 0x146A SWAP1 PUSH1 0x1 PUSH4 0xFFFFFFFF PUSH2 0x19FB AND JUMP JUMPDEST PUSH1 0x1 PUSH1 0xA0 PUSH1 0x2 EXP SUB DUP7 AND PUSH1 0x0 SWAP1 DUP2 MSTORE PUSH1 0x7 PUSH1 0x20 MSTORE PUSH1 0x40 SWAP1 KECCAK256 DUP1 SLOAD SWAP2 SWAP4 POP SWAP1 DUP4 SWAP1 DUP2 LT PUSH2 0x1492 JUMPI INVALID JUMPDEST SWAP1 PUSH1 0x0 MSTORE PUSH1 0x20 PUSH1 0x0 KECCAK256 ADD SLOAD SWAP1 POP DUP1 PUSH1 0x7 PUSH1 0x0 DUP8 PUSH1 0x1 PUSH1 0xA0 PUSH1 0x2 EXP SUB AND PUSH1 0x1 PUSH1 0xA0 PUSH1 0x2 EXP SUB AND DUP2 MSTORE PUSH1 0x20 ADD SWAP1 DUP2 MSTORE PUSH1 0x20 ADD PUSH1 0x0 KECCAK256 DUP5 DUP2 SLOAD DUP2 LT ISZERO ISZERO PUSH2 0x14D2 JUMPI INVALID JUMPDEST PUSH1 0x0 SWAP2 DUP3 MSTORE PUSH1 0x20 DUP1 DUP4 KECCAK256 SWAP1 SWAP2 ADD SWAP3 SWAP1 SWAP3 SSTORE PUSH1 0x1 PUSH1 0xA0 PUSH1 0x2 EXP SUB DUP8 AND DUP2 MSTORE PUSH1 0x7 SWAP1 SWAP2 MSTORE PUSH1 0x40 DUP2 KECCAK256 DUP1 SLOAD DUP5 SWAP1 DUP2 LT PUSH2 0x1504 JUMPI INVALID JUMPDEST PUSH1 0x0 SWAP2 DUP3 MSTORE PUSH1 0x20 DUP1 DUP4 KECCAK256 SWAP1 SWAP2 ADD SWAP3 SWAP1 SWAP3 SSTORE PUSH1 0x1 PUSH1 0xA0 PUSH1 0x2 EXP SUB DUP8 AND DUP2 MSTORE PUSH1 0x7 SWAP1 SWAP2 MSTORE PUSH1 0x40 SWAP1 KECCAK256 DUP1 SLOAD SWAP1 PUSH2 0x153B SWAP1 PUSH1 0x0 NOT DUP4 ADD PUSH2 0x1B8B JUMP JUMPDEST POP PUSH1 0x0 SWAP4 DUP5 MSTORE PUSH1 0x8 PUSH1 0x20 MSTORE PUSH1 0x40 DUP1 DUP6 KECCAK256 DUP6 SWAP1 SSTORE SWAP1 DUP5 MSTORE SWAP1 SWAP3 KECCAK256 SSTORE POP POP JUMP JUMPDEST PUSH1 0x0 PUSH2 0x1565 DUP4 DUP4 PUSH2 0x1A0D JUMP JUMPDEST POP PUSH1 0x1 PUSH1 0xA0 PUSH1 0x2 EXP SUB SWAP1 SWAP2 AND PUSH1 0x0 SWAP1 DUP2 MSTORE PUSH1 0x7 PUSH1 0x20 SWAP1 DUP2 MSTORE PUSH1 0x40 DUP1 DUP4 KECCAK256 DUP1 SLOAD PUSH1 0x1 DUP2 ADD DUP3 SSTORE SWAP1 DUP5 MSTORE DUP3 DUP5 KECCAK256 DUP2 ADD DUP6 SWAP1 SSTORE SWAP4 DUP4 MSTORE PUSH1 0x8 SWAP1 SWAP2 MSTORE SWAP1 KECCAK256 SSTORE JUMP JUMPDEST PUSH1 0xE SLOAD PUSH1 0x9 SLOAD PUSH1 0x1 SWAP2 SWAP1 DUP3 ADD GT ISZERO PUSH2 0x7FD JUMPI POP PUSH1 0x0 SWAP1 JUMP JUMPDEST PUSH1 0x10 DUP1 SLOAD PUSH1 0x1 DUP1 DUP3 ADD SWAP1 SWAP3 SSTORE PUSH1 0x40 DUP1 MLOAD DUP1 DUP3 ADD DUP3 MSTORE DUP3 DUP2 MSTORE PUSH1 0x20 DUP1 DUP3 ADD DUP7 DUP2 MSTORE PUSH1 0x0 DUP6 DUP2 MSTORE PUSH1 0x11 DUP4 MSTORE SWAP4 SWAP1 SWAP4 KECCAK256 DUP3 MLOAD DUP2 SSTORE SWAP3 MLOAD DUP1 MLOAD SWAP5 SWAP6 SWAP3 SWAP5 PUSH2 0x1213 SWAP4 DUP6 ADD SWAP3 SWAP2 SWAP1 SWAP2 ADD SWAP1 PUSH2 0x1B0D JUMP JUMPDEST PUSH2 0x160E DUP3 DUP3 PUSH2 0x1A9D JUMP JUMPDEST PUSH1 0x9 DUP1 SLOAD PUSH1 0x0 DUP4 DUP2 MSTORE PUSH1 0xA PUSH1 0x20 MSTORE PUSH1 0x40 DUP2 KECCAK256 DUP3 SWAP1 SSTORE PUSH1 0x1 DUP3 ADD DUP4 SSTORE SWAP2 SWAP1 SWAP2 MSTORE PUSH32 0x6E1540171B6C0C960B71A7020D9F60077F6AF931A8BBF590DA0223DACF75C7AF ADD SSTORE POP JUMP JUMPDEST PUSH1 0x0 DUP1 PUSH2 0x1668 DUP6 PUSH1 0x1 PUSH1 0xA0 PUSH1 0x2 EXP SUB AND PUSH2 0x1AF8 JUMP JUMPDEST ISZERO ISZERO PUSH2 0x1677 JUMPI PUSH1 0x1 SWAP2 POP PUSH2 0x17B7 JUMP JUMPDEST PUSH1 0x40 MLOAD PUSH32 0x150B7A0200000000000000000000000000000000000000000000000000000000 DUP2 MSTORE CALLER PUSH1 0x4 DUP3 ADD DUP2 DUP2 MSTORE PUSH1 0x1 PUSH1 0xA0 PUSH1 0x2 EXP SUB DUP10 DUP2 AND PUSH1 0x24 DUP6 ADD MSTORE PUSH1 0x44 DUP5 ADD DUP9 SWAP1 MSTORE PUSH1 0x80 PUSH1 0x64 DUP6 ADD SWAP1 DUP2 MSTORE DUP8 MLOAD PUSH1 0x84 DUP7 ADD MSTORE DUP8 MLOAD SWAP2 DUP11 AND SWAP5 PUSH4 0x150B7A02 SWAP5 SWAP4 DUP13 SWAP4 DUP12 SWAP4 DUP12 SWAP4 SWAP1 SWAP2 PUSH1 0xA4 SWAP1 SWAP2 ADD SWAP1 PUSH1 0x20 DUP6 ADD SWAP1 DUP1 DUP4 DUP4 PUSH1 0x0 JUMPDEST DUP4 DUP2 LT ISZERO PUSH2 0x170A JUMPI DUP2 DUP2 ADD MLOAD DUP4 DUP3 ADD MSTORE PUSH1 0x20 ADD PUSH2 0x16F2 JUMP JUMPDEST POP POP POP POP SWAP1 POP SWAP1 DUP2 ADD SWAP1 PUSH1 0x1F AND DUP1 ISZERO PUSH2 0x1737 JUMPI DUP1 DUP3 SUB DUP1 MLOAD PUSH1 0x1 DUP4 PUSH1 0x20 SUB PUSH2 0x100 EXP SUB NOT AND DUP2 MSTORE PUSH1 0x20 ADD SWAP2 POP JUMPDEST POP SWAP6 POP POP POP POP POP POP PUSH1 0x20 PUSH1 0x40 MLOAD DUP1 DUP4 SUB DUP2 PUSH1 0x0 DUP8 DUP1 EXTCODESIZE ISZERO DUP1 ISZERO PUSH2 0x1759 JUMPI PUSH1 0x0 DUP1 REVERT JUMPDEST POP GAS CALL ISZERO DUP1 ISZERO PUSH2 0x176D JUMPI RETURNDATASIZE PUSH1 0x0 DUP1 RETURNDATACOPY RETURNDATASIZE PUSH1 0x0 REVERT JUMPDEST POP POP POP POP PUSH1 0x40 MLOAD RETURNDATASIZE PUSH1 0x20 DUP2 LT ISZERO PUSH2 0x1783 JUMPI PUSH1 0x0 DUP1 REVERT JUMPDEST POP MLOAD PUSH1 0x1 PUSH1 0xE0 PUSH1 0x2 EXP SUB NOT DUP2 AND PUSH32 0x150B7A0200000000000000000000000000000000000000000000000000000000 EQ SWAP3 POP SWAP1 POP JUMPDEST POP SWAP5 SWAP4 POP POP POP POP JUMP JUMPDEST PUSH1 0x60 PUSH1 0x0 DUP1 DUP3 DUP2 DUP6 ISZERO ISZERO PUSH2 0x1809 JUMPI PUSH1 0x40 DUP1 MLOAD DUP1 DUP3 ADD SWAP1 SWAP2 MSTORE PUSH1 0x1 DUP2 MSTORE PUSH32 0x3000000000000000000000000000000000000000000000000000000000000000 PUSH1 0x20 DUP3 ADD MSTORE SWAP5 POP PUSH2 0x18DE JUMP JUMPDEST DUP6 SWAP4 POP JUMPDEST DUP4 ISZERO PUSH2 0x1824 JUMPI PUSH1 0x1 SWAP1 SWAP3 ADD SWAP2 PUSH1 0xA DUP5 DIV SWAP4 POP PUSH2 0x180D JUMP JUMPDEST DUP3 PUSH1 0x40 MLOAD SWAP1 DUP1 DUP3 MSTORE DUP1 PUSH1 0x1F ADD PUSH1 0x1F NOT AND PUSH1 0x20 ADD DUP3 ADD PUSH1 0x40 MSTORE DUP1 ISZERO PUSH2 0x1852 JUMPI DUP2 PUSH1 0x20 ADD PUSH1 0x20 DUP3 MUL DUP1 CODESIZE DUP4 CODECOPY ADD SWAP1 POP JUMPDEST POP SWAP2 POP POP PUSH1 0x0 NOT DUP3 ADD JUMPDEST DUP6 ISZERO PUSH2 0x18DA JUMPI DUP2 MLOAD PUSH1 0x0 NOT DUP3 ADD SWAP2 PUSH32 0x100000000000000000000000000000000000000000000000000000000000000 PUSH1 0x30 PUSH1 0xA DUP11 MOD ADD MUL SWAP2 DUP5 SWAP2 SWAP1 DUP2 LT PUSH2 0x189F JUMPI INVALID JUMPDEST SWAP1 PUSH1 0x20 ADD ADD SWAP1 PUSH31 0xFFFFFFFFFFFFFFFFFFFFFFFFFFFFFFFFFFFFFFFFFFFFFFFFFFFFFFFFFFFFFF NOT AND SWAP1 DUP2 PUSH1 0x0 BYTE SWAP1 MSTORE8 POP PUSH1 0xA DUP7 DIV SWAP6 POP PUSH2 0x185C JUMP JUMPDEST DUP2 SWAP5 POP JUMPDEST POP POP POP POP SWAP2 SWAP1 POP JUMP JUMPDEST PUSH1 0x1 PUSH1 0xA0 PUSH1 0x2 EXP SUB DUP2 AND ISZERO ISZERO PUSH2 0x18FC JUMPI PUSH1 0x0 DUP1 REVERT JUMPDEST PUSH1 0xC SLOAD PUSH1 0x40 MLOAD PUSH1 0x1 PUSH1 0xA0 PUSH1 0x2 EXP SUB DUP1 DUP5 AND SWAP3 AND SWAP1 PUSH32 0x8BE0079C531659141344CD1FD0A4F28419497F9722A3DAAFE3B4186F6B6457E0 SWAP1 PUSH1 0x0 SWAP1 LOG3 PUSH1 0xC DUP1 SLOAD PUSH20 0xFFFFFFFFFFFFFFFFFFFFFFFFFFFFFFFFFFFFFFFF NOT AND PUSH1 0x1 PUSH1 0xA0 PUSH1 0x2 EXP SUB SWAP3 SWAP1 SWAP3 AND SWAP2 SWAP1 SWAP2 OR SWAP1 SSTORE JUMP JUMPDEST DUP2 PUSH1 0x1 PUSH1 0xA0 PUSH1 0x2 EXP SUB AND PUSH2 0x1978 DUP3 PUSH2 0xE15 JUMP JUMPDEST PUSH1 0x1 PUSH1 0xA0 PUSH1 0x2 EXP SUB AND EQ PUSH2 0x198B JUMPI PUSH1 0x0 DUP1 REVERT JUMPDEST PUSH1 0x1 PUSH1 0xA0 PUSH1 0x2 EXP SUB DUP3 AND PUSH1 0x0 SWAP1 DUP2 MSTORE PUSH1 0x3 PUSH1 0x20 MSTORE PUSH1 0x40 SWAP1 KECCAK256 SLOAD PUSH2 0x19B5 SWAP1 PUSH1 0x1 PUSH4 0xFFFFFFFF PUSH2 0x19FB AND JUMP JUMPDEST PUSH1 0x1 PUSH1 0xA0 PUSH1 0x2 EXP SUB SWAP1 SWAP3 AND PUSH1 0x0 SWAP1 DUP2 MSTORE PUSH1 0x3 PUSH1 0x20 SWAP1 DUP2 MSTORE PUSH1 0x40 DUP1 DUP4 KECCAK256 SWAP5 SWAP1 SWAP5 SSTORE SWAP2 DUP2 MSTORE PUSH1 0x1 SWAP1 SWAP2 MSTORE KECCAK256 DUP1 SLOAD PUSH20 0xFFFFFFFFFFFFFFFFFFFFFFFFFFFFFFFFFFFFFFFF NOT AND SWAP1 SSTORE JUMP JUMPDEST PUSH1 0x0 DUP3 DUP3 GT ISZERO PUSH2 0x1A07 JUMPI INVALID JUMPDEST POP SWAP1 SUB SWAP1 JUMP JUMPDEST PUSH1 0x0 DUP2 DUP2 MSTORE PUSH1 0x1 PUSH1 0x20 MSTORE PUSH1 0x40 SWAP1 KECCAK256 SLOAD PUSH1 0x1 PUSH1 0xA0 PUSH1 0x2 EXP SUB AND ISZERO PUSH2 0x1A2F JUMPI PUSH1 0x0 DUP1 REVERT JUMPDEST PUSH1 0x0 DUP2 DUP2 MSTORE PUSH1 0x1 PUSH1 0x20 DUP2 DUP2 MSTORE PUSH1 0x40 DUP1 DUP5 KECCAK256 DUP1 SLOAD PUSH20 0xFFFFFFFFFFFFFFFFFFFFFFFFFFFFFFFFFFFFFFFF NOT AND PUSH1 0x1 PUSH1 0xA0 PUSH1 0x2 EXP SUB DUP9 AND SWAP1 DUP2 OR SWAP1 SWAP2 SSTORE DUP5 MSTORE PUSH1 0x3 SWAP1 SWAP2 MSTORE SWAP1 SWAP2 KECCAK256 SLOAD PUSH2 0x1A7D SWAP2 PUSH2 0x1B00 JUMP JUMPDEST PUSH1 0x1 PUSH1 0xA0 PUSH1 0x2 EXP SUB SWAP1 SWAP3 AND PUSH1 0x0 SWAP1 DUP2 MSTORE PUSH1 0x3 PUSH1 0x20 MSTORE PUSH1 0x40 SWAP1 KECCAK256 SWAP2 SWAP1 SWAP2 SSTORE POP JUMP JUMPDEST PUSH1 0x1 PUSH1 0xA0 PUSH1 0x2 EXP SUB DUP3 AND ISZERO ISZERO PUSH2 0x1AB2 JUMPI PUSH1 0x0 DUP1 REVERT JUMPDEST PUSH2 0x1ABC DUP3 DUP3 PUSH2 0x1559 JUMP JUMPDEST PUSH1 0x40 MLOAD DUP2 SWAP1 PUSH1 0x1 PUSH1 0xA0 PUSH1 0x2 EXP SUB DUP5 AND SWAP1 PUSH1 0x0 SWAP1 PUSH32 0xDDF252AD1BE2C89B69C2B068FC378DAA952BA7F163C4A11628F55A4DF523B3EF SWAP1 DUP3 SWAP1 LOG4 POP POP JUMP JUMPDEST PUSH1 0x0 SWAP1 EXTCODESIZE GT SWAP1 JUMP JUMPDEST DUP2 DUP2 ADD DUP3 DUP2 LT ISZERO PUSH2 0xE39 JUMPI INVALID JUMPDEST DUP3 DUP1 SLOAD PUSH1 0x1 DUP2 PUSH1 0x1 AND ISZERO PUSH2 0x100 MUL SUB AND PUSH1 0x2 SWAP1 DIV SWAP1 PUSH1 0x0 MSTORE PUSH1 0x20 PUSH1 0x0 KECCAK256 SWAP1 PUSH1 0x1F ADD PUSH1 0x20 SWAP1 DIV DUP2 ADD SWAP3 DUP3 PUSH1 0x1F LT PUSH2 0x1B4E JUMPI DUP1 MLOAD PUSH1 0xFF NOT AND DUP4 DUP1 ADD OR DUP6 SSTORE PUSH2 0x1B7B JUMP JUMPDEST DUP3 DUP1 ADD PUSH1 0x1 ADD DUP6 SSTORE DUP3 ISZERO PUSH2 0x1B7B JUMPI SWAP2 DUP3 ADD JUMPDEST DUP3 DUP2 GT ISZERO PUSH2 0x1B7B JUMPI DUP3 MLOAD DUP3 SSTORE SWAP2 PUSH1 0x20 ADD SWAP2 SWAP1 PUSH1 0x1 ADD SWAP1 PUSH2 0x1B60 JUMP JUMPDEST POP PUSH2 0x1B87 SWAP3 SWAP2 POP PUSH2 0x1BB4 JUMP JUMPDEST POP SWAP1 JUMP JUMPDEST DUP2 SLOAD DUP2 DUP4 SSTORE DUP2 DUP2 GT ISZERO PUSH2 0x1BAF JUMPI PUSH1 0x0 DUP4 DUP2 MSTORE PUSH1 0x20 SWAP1 KECCAK256 PUSH2 0x1BAF SWAP2 DUP2 ADD SWAP1 DUP4 ADD PUSH2 0x1BB4 JUMP JUMPDEST POP POP POP JUMP JUMPDEST PUSH2 0x7FD SWAP2 SWAP1 JUMPDEST DUP1 DUP3 GT ISZERO PUSH2 0x1B87 JUMPI PUSH1 0x0 DUP2 SSTORE PUSH1 0x1 ADD PUSH2 0x1BBA JUMP STOP LOG1 PUSH6 0x627A7A723058 KECCAK256 CALLVALUE SHL 0xaf DUP10 PUSH23 0xA85976FD10EA791444D1AEEADA71BE0A758AD8CD341EDF GAS 0x3f COINBASE SWAP7 STOP 0x29 ",
  "sha1": "e31dcc6dbbfe8476ff069cb2459368fb2ecfc074",
  "source": "/**\n *Submitted for verification at polygonscan.com on 2022-05-23\n*/\n\n/**\n *Submitted for verification at polygonscan.com on 2021-06-30\n*/\n\n/**\n *Submitted for verification at Etherscan.io on 2020-02-06\n*/\n\npragma solidity ^0.4.24;\n\n\tlibrary SafeMath {\n\n\t  function mul(uint256 a, uint256 b) internal pure returns (uint256 c) {\n\t\tif (a == 0) {\n\t\t  return 0;\n\t\t}\n\n\t\tc = a * b;\n\t\tassert(c / a == b);\n\t\treturn c;\n\t  }\n\n\t  function div(uint256 a, uint256 b) internal pure returns (uint256) {\n\t\treturn a / b;\n\t  }\n\n\t  function sub(uint256 a, uint256 b) internal pure returns (uint256) {\n\t\tassert(b <= a);\n\t\treturn a - b;\n\t  }\n\n\t  function add(uint256 a, uint256 b) internal pure returns (uint256 c) {\n\t\tc = a + b;\n\t\tassert(c >= a);\n\t\treturn c;\n\t  }\n\t}\n\t\n\tcontract ReentrancyGuard {\n\n\tuint256 private guardCounter = 1;\n\t\tmodifier nonReentrant() {\n\t\t\tguardCounter += 1;\n\t\t\tuint256 localCounter = guardCounter;\n\t\t\t_;\n\t\t\trequire(localCounter == guardCounter);\n\t\t}\n\n\t}\n\t\n\tinterface ERC165 {\n\t  function supportsInterface(bytes4 _interfaceId)\n\t\texternal view\treturns (bool);\n\t}\n\n\tcontract ERC721Receiver {\n\t  bytes4 internal constant ERC721_RECEIVED = 0x150b7a02;\n\t  function onERC721Received(address _operator, address _from, uint256 _tokenId, bytes _data)\n\t\tpublic returns(bytes4);\n\t}\n\n\tlibrary AddressUtils {\n\t  function isContract(address addr) internal view returns (bool) {\n\t\tuint256 size;\n\t\tassembly { size := extcodesize(addr) }\n\t\treturn size > 0;\n\t  }\n\t}\n\n\tcontract Ownable {\n\t  address public owner;\n\n\t  event OwnershipRenounced(address indexed previousOwner);\n\t  event OwnershipTransferred(\n\t\taddress indexed previousOwner,\n\t\taddress indexed newOwner\n\t  );\n\n\t  constructor() public {\n\t\towner = msg.sender;\n\t  }\n\n\t  modifier onlyOwner() {\n\t\trequire(msg.sender == owner);\n\t\t_;\n\t  }\n\n\t  function renounceOwnership() public onlyOwner {\n\t\temit OwnershipRenounced(owner);\n\t\towner = address(0);\n\t  }\n\n\t  function transferOwnership(address _newOwner) public onlyOwner {\n\t\t_transferOwnership(_newOwner);\n\t  }\n\n\t  function _transferOwnership(address _newOwner) internal {\n\t\trequire(_newOwner != address(0));\n\t\temit OwnershipTransferred(owner, _newOwner);\n\t\towner = _newOwner;\n\t  }\n\t}\n\n\tcontract SupportsInterfaceWithLookup is ERC165 {\n\t  bytes4 public constant InterfaceId_ERC165 = 0x01ffc9a7;\n\n\t  mapping(bytes4 => bool) internal supportedInterfaces;\n\n\t  constructor() public {_registerInterface(InterfaceId_ERC165);}\n\n\t  function supportsInterface(bytes4 _interfaceId)\n\t\texternal view returns (bool) {return supportedInterfaces[_interfaceId];\n\t  }\n\n\t  function _registerInterface(bytes4 _interfaceId) internal {\n\t\trequire(_interfaceId != 0xffffffff);\n\t\tsupportedInterfaces[_interfaceId] = true;\n\t  }\n\t}\n\n\tcontract ERC721Basic is ERC165 {\n\t  event Transfer(address indexed _from,\taddress indexed _to, uint256 indexed _tokenId);\n\t  event Approval(address indexed _owner, address indexed _approved,\tuint256 indexed _tokenId);\n\t  event ApprovalForAll(address indexed _owner, address indexed _operator, bool _approved);\n\n\t  function balanceOf(address _owner) public view returns (uint256 _balance);\n\t  function ownerOf(uint256 _tokenId) public view returns (address _owner);\n\t  function exists(uint256 _tokenId) public view returns (bool _exists);\n\n\t  function approve(address _to, uint256 _tokenId) public;\n\t  function getApproved(uint256 _tokenId)\n\t\tpublic view returns (address _operator);\n\n\t  function setApprovalForAll(address _operator, bool _approved) public;\n\t  function isApprovedForAll(address _owner, address _operator) public view returns (bool);\n\n\t  function transferFrom(address _from, address _to, uint256 _tokenId) public;\n\t  function safeTransferFrom(address _from, address _to, uint256 _tokenId)\tpublic;\n\n\t  function safeTransferFrom(\n\t\taddress _from, address _to,\tuint256 _tokenId,\tbytes _data)\n\t\tpublic;\n\t}\n\n\tcontract ERC721Enumerable is ERC721Basic {\n\t  function totalSupply() public view returns (uint256);\n\t  function tokenOfOwnerByIndex(address _owner, uint256 _index)\n\t\tpublic view\treturns (uint256 _tokenId);\n\t  function tokenByIndex(uint256 _index) public view returns (uint256);\n\t}\n\n\tcontract ERC721Metadata is ERC721Basic {\n\t  function name() external view returns (string _name);\n\t  function symbol() external view returns (string _symbol);\n\t  function tokenURI(uint256 _tokenId) public view returns (string);\n\t}\n\n\tcontract ERC721 is ERC721Basic, ERC721Enumerable, ERC721Metadata {}\n\n\tcontract ERC721BasicToken is SupportsInterfaceWithLookup, ERC721Basic {\n\n\t  bytes4 private constant InterfaceId_ERC721 = 0x80ac58cd;\n\t  bytes4 private constant InterfaceId_ERC721Exists = 0x4f558e79;\n\t  using SafeMath for uint256;\n\t  using AddressUtils for address;\n\t  bytes4 private constant ERC721_RECEIVED = 0x150b7a02;\n\t  mapping (uint256 => address) internal tokenOwner;\n\t  mapping (uint256 => address) internal tokenApprovals;\n\t  mapping (address => uint256) internal ownedTokensCount;\n\t  mapping (address => mapping (address => bool)) internal operatorApprovals;\n\t  modifier onlyOwnerOf(uint256 _tokenId) {\n\t\trequire(ownerOf(_tokenId) == msg.sender);\n\t\t_;\n\t  }\n\n\t  modifier canTransfer(uint256 _tokenId) {\n\t\trequire(isApprovedOrOwner(msg.sender, _tokenId));\n\t\t_;\n\t  }\n\n\t  constructor() public {\n\t\t_registerInterface(InterfaceId_ERC721);\n\t\t_registerInterface(InterfaceId_ERC721Exists);\n\t  }\n\n\t  function balanceOf(address _owner) public view returns (uint256) {\n\t\trequire(_owner != address(0));\n\t\treturn ownedTokensCount[_owner];\n\t  }\n\n\t  function ownerOf(uint256 _tokenId) public view returns (address) {\n\t\taddress owner = tokenOwner[_tokenId];\n\t\trequire(owner != address(0));\n\t\treturn owner;\n\t  }\n\n\t  function exists(uint256 _tokenId) public view returns (bool) {\n\t\taddress owner = tokenOwner[_tokenId];\n\t\treturn owner != address(0);\n\t  }\n\n\t  function approve(address _to, uint256 _tokenId) public {\n\t\taddress owner = ownerOf(_tokenId);\n\t\trequire(_to != owner);\n\t\trequire(msg.sender == owner || isApprovedForAll(owner, msg.sender));\n\t\ttokenApprovals[_tokenId] = _to;\n\t\temit Approval(owner, _to, _tokenId);\n\t  }\n\n\t  function getApproved(uint256 _tokenId) public view returns (address) {\n\t\treturn tokenApprovals[_tokenId];\n\t  }\n\n\t  function setApprovalForAll(address _to, bool _approved) public {\n\t\trequire(_to != msg.sender);\n\t\toperatorApprovals[msg.sender][_to] = _approved;\n\t\temit ApprovalForAll(msg.sender, _to, _approved);\n\t  }\n\n\t  function isApprovedForAll(address _owner,\taddress _operator)\tpublic view\treturns (bool)\n\t  {return operatorApprovals[_owner][_operator];\n    }\n\n\t  function transferFrom(address _from, address _to,\tuint256 _tokenId)\tpublic canTransfer(_tokenId) {\n\t\trequire(_from != address(0));\n\t\trequire(_to != address(0));\n\t\tclearApproval(_from, _tokenId);\n\t\tremoveTokenFrom(_from, _tokenId);\n\t\taddTokenTo(_to, _tokenId);\n\t\temit Transfer(_from, _to, _tokenId);\n\t  }\n\n\t  function safeTransferFrom(address _from, address _to, uint256 _tokenId) public canTransfer(_tokenId) {\n\t\tsafeTransferFrom(_from, _to, _tokenId, \"\");\n\t  }\n\n\t  function safeTransferFrom(address _from, address _to, uint256 _tokenId, bytes _data) public canTransfer(_tokenId) {\n\t\ttransferFrom(_from, _to, _tokenId);\n\t\trequire(checkAndCallSafeTransfer(_from, _to, _tokenId, _data));\n\t  }\n\n\t  function isApprovedOrOwner(address _spender, uint256 _tokenId) internal view returns (bool) {\n\t\taddress owner = ownerOf(_tokenId);\n\t\treturn (\n\t\t  _spender == owner ||\n\t\t  getApproved(_tokenId) == _spender ||\n\t\t  isApprovedForAll(owner, _spender)\n\t\t);\n\t  }\n\n\t  function _mint(address _to, uint256 _tokenId) internal {\n\t\trequire(_to != address(0));\n\t\taddTokenTo(_to, _tokenId);\n\t\temit Transfer(address(0), _to, _tokenId);\n\t  }\n\n\t  function _burn(address _owner, uint256 _tokenId) internal {\n\t\tclearApproval(_owner, _tokenId);\n\t\tremoveTokenFrom(_owner, _tokenId);\n\t\temit Transfer(_owner, address(0), _tokenId);\n\t  }\n\n\t  function clearApproval(address _owner, uint256 _tokenId) internal {\n\t\trequire(ownerOf(_tokenId) == _owner);\n\t\tif (tokenApprovals[_tokenId] != address(0)) {\n\t\t  tokenApprovals[_tokenId] = address(0);\n\t\t}\n\t  }\n\n\t  function addTokenTo(address _to, uint256 _tokenId) internal {\n\t\trequire(tokenOwner[_tokenId] == address(0));\n\t\ttokenOwner[_tokenId] = _to;\n\t\townedTokensCount[_to] = ownedTokensCount[_to].add(1);\n\t  }\n\n\t  function removeTokenFrom(address _from, uint256 _tokenId) internal {\n\t\trequire(ownerOf(_tokenId) == _from);\n\t\townedTokensCount[_from] = ownedTokensCount[_from].sub(1);\n\t\ttokenOwner[_tokenId] = address(0);\n\t  }\n\n\t  function checkAndCallSafeTransfer(address _from, address _to, uint256 _tokenId, bytes _data) internal returns (bool) {\n\t\tif (!_to.isContract()) {return true;\n    }\n\n\t\tbytes4 retval = ERC721Receiver(_to).onERC721Received(\n\t\tmsg.sender, _from, _tokenId, _data);\n\t\treturn (retval == ERC721_RECEIVED);\n\t  }\n\t}\n\n\tcontract ERC721Token is SupportsInterfaceWithLookup, ERC721BasicToken, ERC721 {\n\n\t  bytes4 private constant InterfaceId_ERC721Enumerable = 0x780e9d63;\n\t  bytes4 private constant InterfaceId_ERC721Metadata = 0x5b5e139f;\n\t  string internal name_;\n\t  string internal symbol_;\n\t  mapping(address => uint256[]) internal ownedTokens;\n\t  mapping(uint256 => uint256) internal ownedTokensIndex;\n\t  uint256[] internal allTokens;\n\t  mapping(uint256 => uint256) internal allTokensIndex;\n\t  mapping(uint256 => string) internal tokenURIs;\n\n\t  constructor(string _name, string _symbol) public {\n\t\tname_ = _name;\n\t\tsymbol_ = _symbol;\n\t\t_registerInterface(InterfaceId_ERC721Enumerable);\n\t\t_registerInterface(InterfaceId_ERC721Metadata);\n\t  }\n\n\t  function name() external view returns (string) {return name_;}\n\n\t  function symbol() external view returns (string) {return symbol_;}\n\n\t  function tokenOfOwnerByIndex(address _owner, uint256 _index) public view returns (uint256) {\n      require(_index < balanceOf(_owner));\n      return ownedTokens[_owner][_index];\n\t  }\n\n\t  function totalSupply() public view returns (uint256) {\n      return allTokens.length;\n\t  }\n\n\t  function tokenByIndex(uint256 _index) public view returns (uint256) {\n      require(_index < totalSupply());\n      return allTokens[_index];\n\t  }\n\n\t  function _setTokenURI(uint256 _tokenId, string _uri) internal {\n      require(exists(_tokenId));\n      tokenURIs[_tokenId] = _uri;\n\t  }\n\n\t  function addTokenTo(address _to, uint256 _tokenId) internal {\n      super.addTokenTo(_to, _tokenId);\n      uint256 length = ownedTokens[_to].length;\n      ownedTokens[_to].push(_tokenId);\n      ownedTokensIndex[_tokenId] = length;\n\t  }\n\n\t  function removeTokenFrom(address _from, uint256 _tokenId) internal {\n      super.removeTokenFrom(_from, _tokenId);\n      uint256 tokenIndex = ownedTokensIndex[_tokenId];\n      uint256 lastTokenIndex = ownedTokens[_from].length.sub(1);\n      uint256 lastToken = ownedTokens[_from][lastTokenIndex];\n      ownedTokens[_from][tokenIndex] = lastToken;\n      ownedTokens[_from][lastTokenIndex] = 0;\n      ownedTokens[_from].length--;\n      ownedTokensIndex[_tokenId] = 0;\n      ownedTokensIndex[lastToken] = tokenIndex;\n\t  }\n\n\t  function _mint(address _to, uint256 _tokenId) internal {\n      super._mint(_to, _tokenId);\n      allTokensIndex[_tokenId] = allTokens.length;\n      allTokens.push(_tokenId);\n\t  }\n\n\t  function _burn(address _owner, uint256 _tokenId) internal {\n      super._burn(_owner, _tokenId);\n      if (bytes(tokenURIs[_tokenId]).length != 0) {\n        delete tokenURIs[_tokenId];\n\t\t}\n\n\t\tuint256 tokenIndex = allTokensIndex[_tokenId];\n\t\tuint256 lastTokenIndex = allTokens.length.sub(1);\n\t\tuint256 lastToken = allTokens[lastTokenIndex];\n\t\tallTokens[tokenIndex] = lastToken;\n\t\tallTokens[lastTokenIndex] = 0;\n\t\tallTokens.length--;\n\t\tallTokensIndex[_tokenId] = 0;\n\t\tallTokensIndex[lastToken] = tokenIndex;\n\t  }\n\t}\n\n\tcontract ForgeTokenNFT is ERC721Token, Ownable {\n\n    constructor() ERC721Token(\"ForgeTokenNFT\", \"FgeNFT\") public {\n        addGithub(\"000.png\"); // easy management of tokenIDs and edits 1=1\n\t\tfor(int x=0; x<32; x++){\n\t\t\tmintToken(\"0\");\n\t\t}\n    }\n\n    // CONSTANTS\n    address client;\n    uint256 max_supply = 100;\n    string baseurl = \"https://forgetoken.org/api/forge/Forge-Images/\";\n\n    struct GithubAddress {\n      uint githubID;\n      string githubName;\n    }\n\n    uint numGithub;\n    mapping (uint => GithubAddress) githubaddresses;\n\n    function addGithub(string _githubname) internal {\n        uint githubID = numGithub++;\n        githubaddresses[githubID] = GithubAddress(githubID, _githubname);\n    }\n\n    function getGithub(uint get_githubID) external view returns (uint nof_addresses, uint _githubID, string _githubName) {\n        GithubAddress storage i = githubaddresses[get_githubID];\n        nof_addresses = numGithub;\n        _githubID = i.githubID;\n        _githubName = i.githubName;\n    }\n\n    function editGithub(uint githubID, string newName) external onlyOwner {\n        githubaddresses[githubID] = GithubAddress(githubID, newName);\n    }\n\n    function manageBaseURL(string new_baseurl) public onlyOwner {\n      baseurl = new_baseurl;\n    }\n\n    function viewBaseURL() public view returns (string base_url) {\n      base_url = baseurl;\n    }\n\n    event BoughtToken(address indexed buyer, uint256 tokenId);\n\n    function moreSupply() internal view returns (bool moreOK) {\n      moreOK = true;\n      if (allTokens.length + 1 > max_supply) {moreOK = false;}\n      return moreOK;\n    }\n\n\t  function mintToken (string filename) onlyOwner public {\n      uint256 index = allTokens.length + 1;\n      require(moreSupply() == true, \"All allowed tokens have been created already!\");\n      addGithub(filename);\n      _mint(msg.sender, index);\n      emit BoughtToken(msg.sender, index);\n    }\n\n\t  function mintTokenForClient (address _client, string filename) onlyOwner external {\n      uint256 index = allTokens.length + 1;\n      require(moreSupply() == true, \"All allowed tokens have been minted already!\");\n      addGithub(filename);\n      _mint(_client, index);\n      emit BoughtToken(_client, index);\n\t  }\n\n\t  function transferOwnTokens (uint256[] _ids, address _to) external {\n          uint256 n_tokens = _ids.length;\n          address _from = msg.sender;\n          require(_to != address(0));\n    \n          for (uint it = 0; it < n_tokens; it++) {\n            require(isApprovedOrOwner(msg.sender, _ids[it]));}\t\n          for (uint i = 0; i < n_tokens; i++) {\n            clearApproval(_from, _ids[i]);\n            removeTokenFrom(_from, _ids[i]);\n            addTokenTo(_to, _ids[i]);\n            emit Transfer(_from, _to, _ids[i]);}\n\t  }\n\n\t  function myTokens() external view returns (uint256[]) {\n  \t\treturn ownedTokens[msg.sender];\n\t  }\n\n    function uintTostr(uint i) internal pure returns (string){\n      if (i == 0) return \"0\"; uint j = i; uint length;\n      while (j != 0){length++;j /= 10;} bytes memory bstr = new bytes(length); uint k = length - 1;\n      while (i != 0){bstr[k--] = byte(48 + i % 10);i /= 10;}\n      return string(bstr);\n    }\n    \n    function tokenURI(uint _ID) public view returns (string URI) {\n      require(exists(_ID));\n      URI = string(abi.encodePacked(baseurl, uintTostr(_ID)));\n    }\n}\n",
  "sourcePath": "contracts/kiwiNFT.sol",
  "type": "contract"
}